{
  "contractName": "Initializable",
  "abi": [
    {
      "inputs": [
        {
          "internalType": "bool",
          "name": "testingDeployment",
          "type": "bool"
        }
      ],
      "payable": false,
      "stateMutability": "nonpayable",
      "type": "constructor"
    },
    {
      "constant": true,
      "inputs": [],
      "name": "initialized",
      "outputs": [
        {
          "internalType": "bool",
          "name": "",
          "type": "bool"
        }
      ],
      "payable": false,
      "stateMutability": "view",
      "type": "function"
    }
  ],
  "bytecode": "0x608060405234801561001057600080fd5b506040516101073803806101078339818101604052602081101561003357600080fd5b8101908080519060200190929190505050806100645760016000806101000a81548160ff0219169083151502179055505b506094806100736000396000f3fe6080604052348015600f57600080fd5b506004361060285760003560e01c8063158ef93e14602d575b600080fd5b6033604d565b604051808215151515815260200191505060405180910390f35b6000809054906101000a900460ff168156fea265627a7a72315820a8f0acb907f7c41866c17b6407d5ef3c94639cf36354bd600d7a8a8353f2d1e164736f6c634300050d0032",
  "source": "pragma solidity ^0.5.13;\n\ncontract Initializable {\n    bool public initialized;\n\n    constructor(bool testingDeployment) public {\n        if (!testingDeployment) {\n            initialized = true;\n        }\n    }\n\n    modifier initializer() {\n        require(!initialized, \"contract already initialized\");\n        initialized = true;\n        _;\n    }\n}\n",
  "compiler": {
    "name": "solc",
    "version": "0.5.13+commit.5b0b510c.Emscripten.clang"
  },
  "schemaVersion": "3.4.13",
  "updatedAt": "2023-11-21T17:20:51.985Z",
  "devdoc": {
    "methods": {}
  },
  "userdoc": {
    "methods": {}
  }
}