{
  "contractName": "Proxy",
  "abi": [
    {
      "inputs": [],
      "payable": false,
      "stateMutability": "nonpayable",
      "type": "constructor"
    },
    {
      "anonymous": false,
      "inputs": [
        {
          "indexed": true,
          "internalType": "address",
          "name": "implementation",
          "type": "address"
        }
      ],
      "name": "ImplementationSet",
      "type": "event"
    },
    {
      "anonymous": false,
      "inputs": [
        {
          "indexed": true,
          "internalType": "address",
          "name": "owner",
          "type": "address"
        }
      ],
      "name": "OwnerSet",
      "type": "event"
    },
    {
      "payable": true,
      "stateMutability": "payable",
      "type": "fallback"
    },
    {
      "constant": false,
      "inputs": [
        {
          "internalType": "address",
          "name": "newOwner",
          "type": "address"
        }
      ],
      "name": "_transferOwnership",
      "outputs": [],
      "payable": false,
      "stateMutability": "nonpayable",
      "type": "function"
    },
    {
      "constant": false,
      "inputs": [
        {
          "internalType": "address",
          "name": "implementation",
          "type": "address"
        },
        {
          "internalType": "bytes",
          "name": "callbackData",
          "type": "bytes"
        }
      ],
      "name": "_setAndInitializeImplementation",
      "outputs": [],
      "payable": true,
      "stateMutability": "payable",
      "type": "function"
    },
    {
      "constant": true,
      "inputs": [],
      "name": "_getImplementation",
      "outputs": [
        {
          "internalType": "address",
          "name": "implementation",
          "type": "address"
        }
      ],
      "payable": false,
      "stateMutability": "view",
      "type": "function"
    },
    {
      "constant": false,
      "inputs": [
        {
          "internalType": "address",
          "name": "implementation",
          "type": "address"
        }
      ],
      "name": "_setImplementation",
      "outputs": [],
      "payable": false,
      "stateMutability": "nonpayable",
      "type": "function"
    },
    {
      "constant": true,
      "inputs": [],
      "name": "_getOwner",
      "outputs": [
        {
          "internalType": "address",
          "name": "owner",
          "type": "address"
        }
      ],
      "payable": false,
      "stateMutability": "view",
      "type": "function"
    }
  ],
  "bytecode": "0x608060405234801561001057600080fd5b506100203361002560201b60201c565b610155565b600073ffffffffffffffffffffffffffffffffffffffff168173ffffffffffffffffffffffffffffffffffffffff1614156100c8576040517f08c379a00000000000000000000000000000000000000000000000000000000081526004018080602001828103825260118152602001807f6f776e65722063616e6e6f74206265203000000000000000000000000000000081525060200191505060405180910390fd5b6000600160405180807f656970313936372e70726f78792e61646d696e000000000000000000000000008152506013019050604051809103902060001c0360001b90508181558173ffffffffffffffffffffffffffffffffffffffff167f50146d0e3c60aa1d17a70635b05494f864e86144a2201275021014fbf08bafe260405160405180910390a25050565b610a22806101646000396000f3fe60806040526004361061004a5760003560e01c806303386ba3146101e757806342404e0714610280578063bb913f41146102d7578063d29d44ee14610328578063f7e6af8014610379575b6000600160405180807f656970313936372e70726f78792e696d706c656d656e746174696f6e00000000815250601c019050604051809103902060001c0360001b9050600081549050600073ffffffffffffffffffffffffffffffffffffffff168173ffffffffffffffffffffffffffffffffffffffff161415610136576040517f08c379a00000000000000000000000000000000000000000000000000000000081526004018080602001828103825260158152602001807f4e6f20496d706c656d656e746174696f6e20736574000000000000000000000081525060200191505060405180910390fd5b61013f816103d0565b6101b1576040517f08c379a00000000000000000000000000000000000000000000000000000000081526004018080602001828103825260188152602001807f496e76616c696420636f6e74726163742061646472657373000000000000000081525060200191505060405180910390fd5b60405136810160405236600082376000803683855af43d604051818101604052816000823e82600081146101e3578282f35b8282fd5b61027e600480360360408110156101fd57600080fd5b81019080803573ffffffffffffffffffffffffffffffffffffffff1690602001909291908035906020019064010000000081111561023a57600080fd5b82018360208201111561024c57600080fd5b8035906020019184600183028401116401000000008311171561026e57600080fd5b909192939192939050505061041b565b005b34801561028c57600080fd5b506102956105c1565b604051808273ffffffffffffffffffffffffffffffffffffffff1673ffffffffffffffffffffffffffffffffffffffff16815260200191505060405180910390f35b3480156102e357600080fd5b50610326600480360360208110156102fa57600080fd5b81019080803573ffffffffffffffffffffffffffffffffffffffff16906020019092919050505061060d565b005b34801561033457600080fd5b506103776004803603602081101561034b57600080fd5b81019080803573ffffffffffffffffffffffffffffffffffffffff1690602001909291905050506107bd565b005b34801561038557600080fd5b5061038e610871565b604051808273ffffffffffffffffffffffffffffffffffffffff1673ffffffffffffffffffffffffffffffffffffffff16815260200191505060405180910390f35b60008060007fc5d2460186f7233c927e7db2dcc703c0e500b653ca82273b7bfad8045d85a47060001b9050833f915080821415801561041257506000801b8214155b92505050919050565b610423610871565b73ffffffffffffffffffffffffffffffffffffffff163373ffffffffffffffffffffffffffffffffffffffff16146104c3576040517f08c379a00000000000000000000000000000000000000000000000000000000081526004018080602001828103825260148152602001807f73656e64657220776173206e6f74206f776e657200000000000000000000000081525060200191505060405180910390fd5b6104cc8361060d565b600060608473ffffffffffffffffffffffffffffffffffffffff168484604051808383808284378083019250505092505050600060405180830381855af49150503d8060008114610539576040519150601f19603f3d011682016040523d82523d6000602084013e61053e565b606091505b508092508193505050816105ba576040517f08c379a000000000000000000000000000000000000000000000000000000000815260040180806020018281038252601e8152602001807f696e697469616c697a6174696f6e2063616c6c6261636b206661696c6564000081525060200191505060405180910390fd5b5050505050565b600080600160405180807f656970313936372e70726f78792e696d706c656d656e746174696f6e00000000815250601c019050604051809103902060001c0360001b9050805491505090565b610615610871565b73ffffffffffffffffffffffffffffffffffffffff163373ffffffffffffffffffffffffffffffffffffffff16146106b5576040517f08c379a00000000000000000000000000000000000000000000000000000000081526004018080602001828103825260148152602001807f73656e64657220776173206e6f74206f776e657200000000000000000000000081525060200191505060405180910390fd5b6000600160405180807f656970313936372e70726f78792e696d706c656d656e746174696f6e00000000815250601c019050604051809103902060001c0360001b9050610701826103d0565b610773576040517f08c379a00000000000000000000000000000000000000000000000000000000081526004018080602001828103825260188152602001807f496e76616c696420636f6e74726163742061646472657373000000000000000081525060200191505060405180910390fd5b8181558173ffffffffffffffffffffffffffffffffffffffff167fab64f92ab780ecbf4f3866f57cee465ff36c89450dcce20237ca7a8d81fb7d1360405160405180910390a25050565b6107c5610871565b73ffffffffffffffffffffffffffffffffffffffff163373ffffffffffffffffffffffffffffffffffffffff1614610865576040517f08c379a00000000000000000000000000000000000000000000000000000000081526004018080602001828103825260148152602001807f73656e64657220776173206e6f74206f776e657200000000000000000000000081525060200191505060405180910390fd5b61086e816108bd565b50565b600080600160405180807f656970313936372e70726f78792e61646d696e000000000000000000000000008152506013019050604051809103902060001c0360001b9050805491505090565b600073ffffffffffffffffffffffffffffffffffffffff168173ffffffffffffffffffffffffffffffffffffffff161415610960576040517f08c379a00000000000000000000000000000000000000000000000000000000081526004018080602001828103825260118152602001807f6f776e65722063616e6e6f74206265203000000000000000000000000000000081525060200191505060405180910390fd5b6000600160405180807f656970313936372e70726f78792e61646d696e000000000000000000000000008152506013019050604051809103902060001c0360001b90508181558173ffffffffffffffffffffffffffffffffffffffff167f50146d0e3c60aa1d17a70635b05494f864e86144a2201275021014fbf08bafe260405160405180910390a2505056fea265627a7a72315820fff04db853751381fe38f94063c0d3793de6f85facaa0ec7e09a664e9280204864736f6c634300050d0032",
  "source": "pragma solidity ^0.5.13;\n/* solhint-disable no-inline-assembly, no-complex-fallback, avoid-low-level-calls */\n\nimport \"openzeppelin-solidity/contracts/utils/Address.sol\";\n\n/**\n * @title A Proxy utilizing the Unstructured Storage pattern.\n */\ncontract Proxy {\n    // Used to store the address of the owner.\n    bytes32 private constant OWNER_POSITION = bytes32(uint256(keccak256(\"eip1967.proxy.admin\")) - 1);\n    // Used to store the address of the implementation contract.\n    bytes32 private constant IMPLEMENTATION_POSITION = bytes32(uint256(keccak256(\"eip1967.proxy.implementation\")) - 1);\n\n    event OwnerSet(address indexed owner);\n    event ImplementationSet(address indexed implementation);\n\n    constructor() public {\n        _setOwner(msg.sender);\n    }\n\n    /**\n     * @notice Throws if called by any account other than the owner.\n     */\n    modifier onlyOwner() {\n        require(msg.sender == _getOwner(), \"sender was not owner\");\n        _;\n    }\n\n    /**\n     * @notice Delegates calls to the implementation contract.\n     */\n    function() external payable {\n        bytes32 implementationPosition = IMPLEMENTATION_POSITION;\n\n        address implementationAddress;\n\n        // Load the address of the implementation contract from an explicit storage slot.\n        assembly {\n            implementationAddress := sload(implementationPosition)\n        }\n\n        // Avoid checking if address is a contract or executing delegated call when\n        // implementation address is 0x0\n        require(implementationAddress != address(0), \"No Implementation set\");\n        require(Address.isContract(implementationAddress), \"Invalid contract address\");\n\n        assembly {\n            // Extract the position of the transaction data (i.e. function ID and arguments).\n            let newCallDataPosition := mload(0x40)\n            mstore(0x40, add(newCallDataPosition, calldatasize))\n            calldatacopy(newCallDataPosition, 0, calldatasize)\n\n            // Call the smart contract at `implementationAddress` in the context of the proxy contract,\n            // with the same msg.sender and value.\n            let delegatecallSuccess := delegatecall(gas, implementationAddress, newCallDataPosition, calldatasize, 0, 0)\n\n            // Copy the return value of the call so it can be returned.\n            let returnDataSize := returndatasize\n            let returnDataPosition := mload(0x40)\n            mstore(0x40, add(returnDataPosition, returnDataSize))\n            returndatacopy(returnDataPosition, 0, returnDataSize)\n\n            // Revert or return depending on whether or not the call was successful.\n            switch delegatecallSuccess\n            case 0 {\n                revert(returnDataPosition, returnDataSize)\n            }\n            default {\n                return(returnDataPosition, returnDataSize)\n            }\n        }\n    }\n\n    /**\n     * @notice Transfers ownership of Proxy to a new owner.\n     * @param newOwner Address of the new owner account.\n     */\n    function _transferOwnership(address newOwner) external onlyOwner {\n        _setOwner(newOwner);\n    }\n\n    /**\n     * @notice Sets the address of the implementation contract and calls into it.\n     * @param implementation Address of the new target contract.\n     * @param callbackData The abi-encoded function call to perform in the implementation\n     * contract.\n     * @dev Throws if the initialization callback fails.\n     * @dev If the target contract does not need initialization, use\n     * setImplementation instead.\n     */\n    function _setAndInitializeImplementation(address implementation, bytes calldata callbackData)\n        external\n        payable\n        onlyOwner\n    {\n        _setImplementation(implementation);\n        bool success;\n        bytes memory returnValue;\n        (success, returnValue) = implementation.delegatecall(callbackData);\n        require(success, \"initialization callback failed\");\n    }\n\n    /**\n     * @notice Returns the implementation address.\n     */\n    function _getImplementation() external view returns (address implementation) {\n        bytes32 implementationPosition = IMPLEMENTATION_POSITION;\n        // Load the address of the implementation contract from an explicit storage slot.\n        assembly {\n            implementation := sload(implementationPosition)\n        }\n    }\n\n    /**\n     * @notice Sets the address of the implementation contract.\n     * @param implementation Address of the new target contract.\n     * @dev If the target contract needs to be initialized, call\n     * setAndInitializeImplementation instead.\n     */\n    function _setImplementation(address implementation) public onlyOwner {\n        bytes32 implementationPosition = IMPLEMENTATION_POSITION;\n\n        require(Address.isContract(implementation), \"Invalid contract address\");\n\n        // Store the address of the implementation contract in an explicit storage slot.\n        assembly {\n            sstore(implementationPosition, implementation)\n        }\n\n        emit ImplementationSet(implementation);\n    }\n\n    /**\n     * @notice Returns the Proxy owner's address.\n     */\n    function _getOwner() public view returns (address owner) {\n        bytes32 position = OWNER_POSITION;\n        // Load the address of the contract owner from an explicit storage slot.\n        assembly {\n            owner := sload(position)\n        }\n    }\n\n    function _setOwner(address newOwner) internal {\n        require(newOwner != address(0), \"owner cannot be 0\");\n        bytes32 position = OWNER_POSITION;\n        // Store the address of the contract owner in an explicit storage slot.\n        assembly {\n            sstore(position, newOwner)\n        }\n        emit OwnerSet(newOwner);\n    }\n}\n",
  "compiler": {
    "name": "solc",
    "version": "0.5.13+commit.5b0b510c.Emscripten.clang"
  },
  "schemaVersion": "3.4.13",
  "updatedAt": "2023-11-21T17:20:51.993Z",
  "devdoc": {
    "methods": {
      "_setAndInitializeImplementation(address,bytes)": {
        "details": "Throws if the initialization callback fails.If the target contract does not need initialization, use setImplementation instead.",
        "params": {
          "callbackData": "The abi-encoded function call to perform in the implementation contract.",
          "implementation": "Address of the new target contract."
        }
      },
      "_setImplementation(address)": {
        "details": "If the target contract needs to be initialized, call setAndInitializeImplementation instead.",
        "params": {
          "implementation": "Address of the new target contract."
        }
      },
      "_transferOwnership(address)": {
        "params": {
          "newOwner": "Address of the new owner account."
        }
      }
    },
    "title": "A Proxy utilizing the Unstructured Storage pattern."
  },
  "userdoc": {
    "methods": {
      "_getImplementation()": {
        "notice": "Returns the implementation address."
      },
      "_getOwner()": {
        "notice": "Returns the Proxy owner's address."
      },
      "_setAndInitializeImplementation(address,bytes)": {
        "notice": "Sets the address of the implementation contract and calls into it."
      },
      "_setImplementation(address)": {
        "notice": "Sets the address of the implementation contract."
      },
      "_transferOwnership(address)": {
        "notice": "Transfers ownership of Proxy to a new owner."
      }
    }
  }
}