{
  "contractName": "CeloFeeCurrencyAdapterOwnable",
  "abi": [
    {
      "inputs": [
        {
          "internalType": "bool",
          "name": "test",
          "type": "bool"
        }
      ],
      "stateMutability": "nonpayable",
      "type": "constructor"
    },
    {
      "anonymous": false,
      "inputs": [
        {
          "indexed": true,
          "internalType": "address",
          "name": "previousOwner",
          "type": "address"
        },
        {
          "indexed": true,
          "internalType": "address",
          "name": "newOwner",
          "type": "address"
        }
      ],
      "name": "OwnershipTransferred",
      "type": "event"
    },
    {
      "inputs": [],
      "name": "adaptedToken",
      "outputs": [
        {
          "internalType": "contract IFeeCurrency",
          "name": "",
          "type": "address"
        }
      ],
      "stateMutability": "view",
      "type": "function"
    },
    {
      "inputs": [
        {
          "internalType": "address",
          "name": "account",
          "type": "address"
        }
      ],
      "name": "balanceOf",
      "outputs": [
        {
          "internalType": "uint256",
          "name": "",
          "type": "uint256"
        }
      ],
      "stateMutability": "view",
      "type": "function"
    },
    {
      "inputs": [
        {
          "internalType": "address",
          "name": "refundRecipient",
          "type": "address"
        },
        {
          "internalType": "address",
          "name": "tipRecipient",
          "type": "address"
        },
        {
          "internalType": "address",
          "name": "_gatewayFeeRecipient",
          "type": "address"
        },
        {
          "internalType": "address",
          "name": "baseFeeRecipient",
          "type": "address"
        },
        {
          "internalType": "uint256",
          "name": "refundAmount",
          "type": "uint256"
        },
        {
          "internalType": "uint256",
          "name": "tipAmount",
          "type": "uint256"
        },
        {
          "internalType": "uint256",
          "name": "_gatewayFeeAmount",
          "type": "uint256"
        },
        {
          "internalType": "uint256",
          "name": "baseFeeAmount",
          "type": "uint256"
        }
      ],
      "name": "creditGasFees",
      "outputs": [],
      "stateMutability": "nonpayable",
      "type": "function"
    },
    {
      "inputs": [
        {
          "internalType": "address",
          "name": "from",
          "type": "address"
        },
        {
          "internalType": "uint256",
          "name": "value",
          "type": "uint256"
        }
      ],
      "name": "debitGasFees",
      "outputs": [],
      "stateMutability": "nonpayable",
      "type": "function"
    },
    {
      "inputs": [],
      "name": "debited",
      "outputs": [
        {
          "internalType": "uint256",
          "name": "",
          "type": "uint256"
        }
      ],
      "stateMutability": "view",
      "type": "function"
    },
    {
      "inputs": [],
      "name": "decimals",
      "outputs": [
        {
          "internalType": "uint8",
          "name": "",
          "type": "uint8"
        }
      ],
      "stateMutability": "view",
      "type": "function"
    },
    {
      "inputs": [],
      "name": "digitDifference",
      "outputs": [
        {
          "internalType": "uint96",
          "name": "",
          "type": "uint96"
        }
      ],
      "stateMutability": "view",
      "type": "function"
    },
    {
      "inputs": [],
      "name": "expectedDecimals",
      "outputs": [
        {
          "internalType": "uint8",
          "name": "",
          "type": "uint8"
        }
      ],
      "stateMutability": "view",
      "type": "function"
    },
    {
      "inputs": [],
      "name": "getAdaptedToken",
      "outputs": [
        {
          "internalType": "address",
          "name": "",
          "type": "address"
        }
      ],
      "stateMutability": "view",
      "type": "function"
    },
    {
      "inputs": [
        {
          "internalType": "address",
          "name": "_adaptedToken",
          "type": "address"
        },
        {
          "internalType": "string",
          "name": "_name",
          "type": "string"
        },
        {
          "internalType": "string",
          "name": "_symbol",
          "type": "string"
        },
        {
          "internalType": "uint8",
          "name": "_expectedDecimals",
          "type": "uint8"
        }
      ],
      "name": "initialize",
      "outputs": [],
      "stateMutability": "nonpayable",
      "type": "function"
    },
    {
      "inputs": [],
      "name": "initialized",
      "outputs": [
        {
          "internalType": "bool",
          "name": "",
          "type": "bool"
        }
      ],
      "stateMutability": "view",
      "type": "function"
    },
    {
      "inputs": [],
      "name": "name",
      "outputs": [
        {
          "internalType": "string",
          "name": "",
          "type": "string"
        }
      ],
      "stateMutability": "view",
      "type": "function"
    },
    {
      "inputs": [],
      "name": "owner",
      "outputs": [
        {
          "internalType": "address",
          "name": "",
          "type": "address"
        }
      ],
      "stateMutability": "view",
      "type": "function"
    },
    {
      "inputs": [],
      "name": "renounceOwnership",
      "outputs": [],
      "stateMutability": "nonpayable",
      "type": "function"
    },
    {
      "inputs": [
        {
          "internalType": "address",
          "name": "_adaptedToken",
          "type": "address"
        }
      ],
      "name": "setAdaptedToken",
      "outputs": [],
      "stateMutability": "nonpayable",
      "type": "function"
    },
    {
      "inputs": [],
      "name": "symbol",
      "outputs": [
        {
          "internalType": "string",
          "name": "",
          "type": "string"
        }
      ],
      "stateMutability": "view",
      "type": "function"
    },
    {
      "inputs": [],
      "name": "totalSupply",
      "outputs": [
        {
          "internalType": "uint256",
          "name": "",
          "type": "uint256"
        }
      ],
      "stateMutability": "view",
      "type": "function"
    },
    {
      "inputs": [
        {
          "internalType": "address",
          "name": "newOwner",
          "type": "address"
        }
      ],
      "name": "transferOwnership",
      "outputs": [],
      "stateMutability": "nonpayable",
      "type": "function"
    },
    {
      "inputs": [],
      "name": "getVersionNumber",
      "outputs": [
        {
          "internalType": "uint256",
          "name": "",
          "type": "uint256"
        },
        {
          "internalType": "uint256",
          "name": "",
          "type": "uint256"
        },
        {
          "internalType": "uint256",
          "name": "",
          "type": "uint256"
        },
        {
          "internalType": "uint256",
          "name": "",
          "type": "uint256"
        }
      ],
      "stateMutability": "pure",
      "type": "function"
    }
  ],
  "bytecode": "0x608060405260006002553480156200001657600080fd5b50604051620021773803806200217783398181016040528101906200003c91906200019a565b80808080620000605760016000806101000a81548160ff0219169083151502179055505b505062000082620000766200008a60201b60201c565b6200009260201b60201c565b5050620001cc565b600033905090565b6000603260009054906101000a900473ffffffffffffffffffffffffffffffffffffffff16905081603260006101000a81548173ffffffffffffffffffffffffffffffffffffffff021916908373ffffffffffffffffffffffffffffffffffffffff1602179055508173ffffffffffffffffffffffffffffffffffffffff168173ffffffffffffffffffffffffffffffffffffffff167f8be0079c531659141344cd1fd0a4f28419497f9722a3daafe3b4186f6b6457e060405160405180910390a35050565b600080fd5b60008115159050919050565b62000174816200015d565b81146200018057600080fd5b50565b600081519050620001948162000169565b92915050565b600060208284031215620001b357620001b262000158565b5b6000620001c38482850162000183565b91505092915050565b611f9b80620001dc6000396000f3fe608060405234801561001057600080fd5b50600436106101215760003560e01c806370a08231116100ad578063cc23a4a311610071578063cc23a4a3146102c7578063eeee9dc2146102e5578063f2fde38b14610303578063f6d2ee861461031f578063fadbb8591461033b57610121565b806370a0823114610233578063715018a6146102635780638da5cb5b1461026d57806395d89b411461028b578063989516db146102a957610121565b80633cf03412116100f45780633cf034121461019e57806354255be0146101bc57806358cf9672146101dd5780635ee5c82a146101f95780636a30b2531461021757610121565b806306fdde0314610126578063158ef93e1461014457806318160ddd14610162578063313ce56714610180575b600080fd5b61012e610357565b60405161013b9190610f50565b60405180910390f35b61014c6103e5565b6040516101599190610f8d565b60405180910390f35b61016a6103f6565b6040516101779190610fc1565b60405180910390f35b610188610496565b6040516101959190610ff8565b60405180910390f35b6101a66104ad565b6040516101b39190610fc1565b60405180910390f35b6101c46104b3565b6040516101d49493929190611013565b60405180910390f35b6101f760048036038101906101f291906110f6565b6104cd565b005b610201610627565b60405161020e919061115d565b60405180910390f35b610231600480360381019061022c9190611178565b610645565b005b61024d6004803603810190610248919061122e565b610835565b60405161025a9190610fc1565b60405180910390f35b61026b6108e2565b005b6102756108f6565b604051610282919061126a565b60405180910390f35b610293610920565b6040516102a09190610f50565b60405180910390f35b6102b16109ae565b6040516102be91906112e4565b60405180910390f35b6102cf6109d4565b6040516102dc9190610ff8565b60405180910390f35b6102ed6109e7565b6040516102fa919061126a565b60405180910390f35b61031d6004803603810190610318919061122e565b610a10565b005b61033960048036038101906103349190611460565b610a93565b005b6103556004803603810190610350919061122e565b610aae565b005b600380546103649061152e565b80601f01602080910402602001604051908101604052809291908181526020018280546103909061152e565b80156103dd5780601f106103b2576101008083540402835291602001916103dd565b820191906000526020600020905b8154815290600101906020018083116103c057829003601f168201915b505050505081565b60008054906101000a900460ff1681565b6000610491600060019054906101000a900473ffffffffffffffffffffffffffffffffffffffff1673ffffffffffffffffffffffffffffffffffffffff166318160ddd6040518163ffffffff1660e01b8152600401602060405180830381865afa158015610468573d6000803e3d6000fd5b505050506040513d601f19601f8201168201806040525081019061048c9190611574565b610ac2565b905090565b6000600560009054906101000a900460ff16905090565b60025481565b600080600080600180600080935093509350935090919293565b600073ffffffffffffffffffffffffffffffffffffffff163373ffffffffffffffffffffffffffffffffffffffff161461053c576040517f08c379a0000000000000000000000000000000000000000000000000000000008152600401610533906115ed565b60405180910390fd5b600061054782610aff565b90506000811161058c576040517f08c379a000000000000000000000000000000000000000000000000000000000815260040161058390611659565b60405180910390fd5b80600281905550600060019054906101000a900473ffffffffffffffffffffffffffffffffffffffff1673ffffffffffffffffffffffffffffffffffffffff166358cf967284836040518363ffffffff1660e01b81526004016105f0929190611679565b600060405180830381600087803b15801561060a57600080fd5b505af115801561061e573d6000803e3d6000fd5b50505050505050565b600160009054906101000a90046bffffffffffffffffffffffff1681565b600073ffffffffffffffffffffffffffffffffffffffff163373ffffffffffffffffffffffffffffffffffffffff16146106b4576040517f08c379a00000000000000000000000000000000000000000000000000000000081526004016106ab906115ed565b60405180910390fd5b6000600254031561082b5760006106ca85610aff565b905060006106d785610aff565b905060006106e484610aff565b90506002548183856106f691906116d1565b61070091906116d1565b1115610741576040517f08c379a000000000000000000000000000000000000000000000000000000000815260040161073890611751565b60405180910390fd5b600081838561075091906116d1565b61075a91906116d1565b6002546107679190611771565b9050600081111561078157808261077e91906116d1565b91505b600060019054906101000a900473ffffffffffffffffffffffffffffffffffffffff1673ffffffffffffffffffffffffffffffffffffffff16636a30b2538d8d60008d898960008a6040518963ffffffff1660e01b81526004016107ec9897969594939291906117e0565b600060405180830381600087803b15801561080657600080fd5b505af115801561081a573d6000803e3d6000fd5b505050506000600281905550505050505b5050505050505050565b60006108db600060019054906101000a900473ffffffffffffffffffffffffffffffffffffffff1673ffffffffffffffffffffffffffffffffffffffff166370a08231846040518263ffffffff1660e01b8152600401610895919061126a565b602060405180830381865afa1580156108b2573d6000803e3d6000fd5b505050506040513d601f19601f820116820180604052508101906108d69190611574565b610ac2565b9050919050565b6108ea610b7a565b6108f46000610bf8565b565b6000603260009054906101000a900473ffffffffffffffffffffffffffffffffffffffff16905090565b6004805461092d9061152e565b80601f01602080910402602001604051908101604052809291908181526020018280546109599061152e565b80156109a65780601f1061097b576101008083540402835291602001916109a6565b820191906000526020600020905b81548152906001019060200180831161098957829003601f168201915b505050505081565b600060019054906101000a900473ffffffffffffffffffffffffffffffffffffffff1681565b600560009054906101000a900460ff1681565b60008060019054906101000a900473ffffffffffffffffffffffffffffffffffffffff16905090565b610a18610b7a565b600073ffffffffffffffffffffffffffffffffffffffff168173ffffffffffffffffffffffffffffffffffffffff1603610a87576040517f08c379a0000000000000000000000000000000000000000000000000000000008152600401610a7e906118d0565b60405180910390fd5b610a9081610bf8565b50565b610a9c33610bf8565b610aa884848484610cbe565b50505050565b610ab6610b7a565b610abf81610e74565b50565b6000600160009054906101000a90046bffffffffffffffffffffffff166bffffffffffffffffffffffff1682610af891906118f0565b9050919050565b6000600160009054906101000a90046bffffffffffffffffffffffff166bffffffffffffffffffffffff1660018060009054906101000a90046bffffffffffffffffffffffff166bffffffffffffffffffffffff1684610b5f91906116d1565b610b699190611771565b610b739190611961565b9050919050565b610b82610eb8565b73ffffffffffffffffffffffffffffffffffffffff16610ba06108f6565b73ffffffffffffffffffffffffffffffffffffffff1614610bf6576040517f08c379a0000000000000000000000000000000000000000000000000000000008152600401610bed906119de565b60405180910390fd5b565b6000603260009054906101000a900473ffffffffffffffffffffffffffffffffffffffff16905081603260006101000a81548173ffffffffffffffffffffffffffffffffffffffff021916908373ffffffffffffffffffffffffffffffffffffffff1602179055508173ffffffffffffffffffffffffffffffffffffffff168173ffffffffffffffffffffffffffffffffffffffff167f8be0079c531659141344cd1fd0a4f28419497f9722a3daafe3b4186f6b6457e060405160405180910390a35050565b60008054906101000a900460ff1615610d0c576040517f08c379a0000000000000000000000000000000000000000000000000000000008152600401610d0390611a4a565b60405180910390fd5b60016000806101000a81548160ff021916908315150217905550610d2f84610e74565b8260039081610d3e9190611c0c565b508160049081610d4e9190611c0c565b5060008473ffffffffffffffffffffffffffffffffffffffff1663313ce5676040518163ffffffff1660e01b8152600401602060405180830381865afa158015610d9c573d6000803e3d6000fd5b505050506040513d601f19601f82011682018060405250810190610dc09190611cf3565b90508160ff168160ff1610610e0a576040517f08c379a0000000000000000000000000000000000000000000000000000000008152600401610e0190611d92565b60405180910390fd5b8082610e169190611db2565b600a610e229190611f1a565b600160006101000a8154816bffffffffffffffffffffffff02191690836bffffffffffffffffffffffff16021790555081600560006101000a81548160ff021916908360ff1602179055505050505050565b80600060016101000a81548173ffffffffffffffffffffffffffffffffffffffff021916908373ffffffffffffffffffffffffffffffffffffffff16021790555050565b600033905090565b600081519050919050565b600082825260208201905092915050565b60005b83811015610efa578082015181840152602081019050610edf565b60008484015250505050565b6000601f19601f8301169050919050565b6000610f2282610ec0565b610f2c8185610ecb565b9350610f3c818560208601610edc565b610f4581610f06565b840191505092915050565b60006020820190508181036000830152610f6a8184610f17565b905092915050565b60008115159050919050565b610f8781610f72565b82525050565b6000602082019050610fa26000830184610f7e565b92915050565b6000819050919050565b610fbb81610fa8565b82525050565b6000602082019050610fd66000830184610fb2565b92915050565b600060ff82169050919050565b610ff281610fdc565b82525050565b600060208201905061100d6000830184610fe9565b92915050565b60006080820190506110286000830187610fb2565b6110356020830186610fb2565b6110426040830185610fb2565b61104f6060830184610fb2565b95945050505050565b6000604051905090565b600080fd5b600080fd5b600073ffffffffffffffffffffffffffffffffffffffff82169050919050565b60006110978261106c565b9050919050565b6110a78161108c565b81146110b257600080fd5b50565b6000813590506110c48161109e565b92915050565b6110d381610fa8565b81146110de57600080fd5b50565b6000813590506110f0816110ca565b92915050565b6000806040838503121561110d5761110c611062565b5b600061111b858286016110b5565b925050602061112c858286016110e1565b9150509250929050565b60006bffffffffffffffffffffffff82169050919050565b61115781611136565b82525050565b6000602082019050611172600083018461114e565b92915050565b600080600080600080600080610100898b03121561119957611198611062565b5b60006111a78b828c016110b5565b98505060206111b88b828c016110b5565b97505060406111c98b828c016110b5565b96505060606111da8b828c016110b5565b95505060806111eb8b828c016110e1565b94505060a06111fc8b828c016110e1565b93505060c061120d8b828c016110e1565b92505060e061121e8b828c016110e1565b9150509295985092959890939650565b60006020828403121561124457611243611062565b5b6000611252848285016110b5565b91505092915050565b6112648161108c565b82525050565b600060208201905061127f600083018461125b565b92915050565b6000819050919050565b60006112aa6112a56112a08461106c565b611285565b61106c565b9050919050565b60006112bc8261128f565b9050919050565b60006112ce826112b1565b9050919050565b6112de816112c3565b82525050565b60006020820190506112f960008301846112d5565b92915050565b600080fd5b600080fd5b7f4e487b7100000000000000000000000000000000000000000000000000000000600052604160045260246000fd5b61134182610f06565b810181811067ffffffffffffffff821117156113605761135f611309565b5b80604052505050565b6000611373611058565b905061137f8282611338565b919050565b600067ffffffffffffffff82111561139f5761139e611309565b5b6113a882610f06565b9050602081019050919050565b82818337600083830152505050565b60006113d76113d284611384565b611369565b9050828152602081018484840111156113f3576113f2611304565b5b6113fe8482856113b5565b509392505050565b600082601f83011261141b5761141a6112ff565b5b813561142b8482602086016113c4565b91505092915050565b61143d81610fdc565b811461144857600080fd5b50565b60008135905061145a81611434565b92915050565b6000806000806080858703121561147a57611479611062565b5b6000611488878288016110b5565b945050602085013567ffffffffffffffff8111156114a9576114a8611067565b5b6114b587828801611406565b935050604085013567ffffffffffffffff8111156114d6576114d5611067565b5b6114e287828801611406565b92505060606114f38782880161144b565b91505092959194509250565b7f4e487b7100000000000000000000000000000000000000000000000000000000600052602260045260246000fd5b6000600282049050600182168061154657607f821691505b602082108103611559576115586114ff565b5b50919050565b60008151905061156e816110ca565b92915050565b60006020828403121561158a57611589611062565b5b60006115988482850161155f565b91505092915050565b7f4f6e6c7920564d2063616e2063616c6c00000000000000000000000000000000600082015250565b60006115d7601083610ecb565b91506115e2826115a1565b602082019050919050565b60006020820190508181036000830152611606816115ca565b9050919050565b7f5363616c65642064656269742076616c7565206d757374206265203e20302e00600082015250565b6000611643601f83610ecb565b915061164e8261160d565b602082019050919050565b6000602082019050818103600083015261167281611636565b9050919050565b600060408201905061168e600083018561125b565b61169b6020830184610fb2565b9392505050565b7f4e487b7100000000000000000000000000000000000000000000000000000000600052601160045260246000fd5b60006116dc82610fa8565b91506116e783610fa8565b92508282019050808211156116ff576116fe6116a2565b5b92915050565b7f43616e6e6f7420637265646974206d6f7265207468616e20646562697465642e600082015250565b600061173b602083610ecb565b915061174682611705565b602082019050919050565b6000602082019050818103600083015261176a8161172e565b9050919050565b600061177c82610fa8565b915061178783610fa8565b925082820390508181111561179f5761179e6116a2565b5b92915050565b6000819050919050565b60006117ca6117c56117c0846117a5565b611285565b610fa8565b9050919050565b6117da816117af565b82525050565b6000610100820190506117f6600083018b61125b565b611803602083018a61125b565b611810604083018961125b565b61181d606083018861125b565b61182a6080830187610fb2565b61183760a0830186610fb2565b61184460c08301856117d1565b61185160e0830184610fb2565b9998505050505050505050565b7f4f776e61626c653a206e6577206f776e657220697320746865207a65726f206160008201527f6464726573730000000000000000000000000000000000000000000000000000602082015250565b60006118ba602683610ecb565b91506118c58261185e565b604082019050919050565b600060208201905081810360008301526118e9816118ad565b9050919050565b60006118fb82610fa8565b915061190683610fa8565b925082820261191481610fa8565b9150828204841483151761192b5761192a6116a2565b5b5092915050565b7f4e487b7100000000000000000000000000000000000000000000000000000000600052601260045260246000fd5b600061196c82610fa8565b915061197783610fa8565b92508261198757611986611932565b5b828204905092915050565b7f4f776e61626c653a2063616c6c6572206973206e6f7420746865206f776e6572600082015250565b60006119c8602083610ecb565b91506119d382611992565b602082019050919050565b600060208201905081810360008301526119f7816119bb565b9050919050565b7f636f6e747261637420616c726561647920696e697469616c697a656400000000600082015250565b6000611a34601c83610ecb565b9150611a3f826119fe565b602082019050919050565b60006020820190508181036000830152611a6381611a27565b9050919050565b60008190508160005260206000209050919050565b60006020601f8301049050919050565b600082821b905092915050565b600060088302611acc7fffffffffffffffffffffffffffffffffffffffffffffffffffffffffffffffff82611a8f565b611ad68683611a8f565b95508019841693508086168417925050509392505050565b6000611b09611b04611aff84610fa8565b611285565b610fa8565b9050919050565b6000819050919050565b611b2383611aee565b611b37611b2f82611b10565b848454611a9c565b825550505050565b600090565b611b4c611b3f565b611b57818484611b1a565b505050565b5b81811015611b7b57611b70600082611b44565b600181019050611b5d565b5050565b601f821115611bc057611b9181611a6a565b611b9a84611a7f565b81016020851015611ba9578190505b611bbd611bb585611a7f565b830182611b5c565b50505b505050565b600082821c905092915050565b6000611be360001984600802611bc5565b1980831691505092915050565b6000611bfc8383611bd2565b9150826002028217905092915050565b611c1582610ec0565b67ffffffffffffffff811115611c2e57611c2d611309565b5b611c38825461152e565b611c43828285611b7f565b600060209050601f831160018114611c765760008415611c64578287015190505b611c6e8582611bf0565b865550611cd6565b601f198416611c8486611a6a565b60005b82811015611cac57848901518255600182019150602085019450602081019050611c87565b86831015611cc95784890151611cc5601f891682611bd2565b8355505b6001600288020188555050505b505050505050565b600081519050611ced81611434565b92915050565b600060208284031215611d0957611d08611062565b5b6000611d1784828501611cde565b91505092915050565b7f446563696d616c73206f66206164617074656420746f6b656e206d757374206260008201527f65203c20657870656374656420646563696d616c732e00000000000000000000602082015250565b6000611d7c603683610ecb565b9150611d8782611d20565b604082019050919050565b60006020820190508181036000830152611dab81611d6f565b9050919050565b6000611dbd82610fdc565b9150611dc883610fdc565b9250828203905060ff811115611de157611de06116a2565b5b92915050565b60008160011c9050919050565b6000808291508390505b6001851115611e3e57808604811115611e1a57611e196116a2565b5b6001851615611e295780820291505b8081029050611e3785611de7565b9450611dfe565b94509492505050565b600082611e575760019050611f13565b81611e655760009050611f13565b8160018114611e7b5760028114611e8557611eb4565b6001915050611f13565b60ff841115611e9757611e966116a2565b5b8360020a915084821115611eae57611ead6116a2565b5b50611f13565b5060208310610133831016604e8410600b8410161715611ee95782820a905083811115611ee457611ee36116a2565b5b611f13565b611ef68484846001611df4565b92509050818404811115611f0d57611f0c6116a2565b5b81810290505b9392505050565b6000611f2582610fa8565b9150611f3083610fdc565b9250611f5d7fffffffffffffffffffffffffffffffffffffffffffffffffffffffffffffffff8484611e47565b90509291505056fea2646970667358221220522f10c560a29a54a4e2955899fe853500f69d07ef283b15c6883454728b676464736f6c63430008130033",
  "immutableReferences": {},
  "source": "// SPDX-License-Identifier: LGPL-3.0-only\npragma solidity >=0.8.7 <0.8.20;\n\nimport \"./FeeCurrencyAdapterOwnable.sol\";\n\ncontract CeloFeeCurrencyAdapterOwnable is FeeCurrencyAdapterOwnable {\n  /**\n   * @notice Sets initialized == true on implementation contracts\n   * @param test Set to true to skip implementation initialization\n   */\n  constructor(bool test) FeeCurrencyAdapterOwnable(test) {}\n\n  /**\n   * @notice Returns the storage, major, minor, and patch version of the contract.\n   * @return Storage version of the contract.\n   * @return Major version of the contract.\n   * @return Minor version of the contract.\n   * @return Patch version of the contract.\n   */\n  function getVersionNumber() external pure returns (uint256, uint256, uint256, uint256) {\n    return (1, 1, 0, 0);\n  }\n}\n",
  "sourcePath": "/Users/beaver/Development/celo/celo-monorepo/packages/protocol/contracts-0.8/stability/CeloFeeCurrencyAdapterOwnable.sol",
  "compiler": {
    "name": "solc",
    "version": "0.8.19+commit.7dd6d404.Emscripten.clang"
  },
  "schemaVersion": "3.4.13",
  "updatedAt": "2024-03-05T15:18:07.408Z",
  "devdoc": {
    "kind": "dev",
    "methods": {
      "balanceOf(address)": {
        "params": {
          "account": "The address to query the balance of."
        },
        "returns": {
          "_0": "The balance of the specified address."
        }
      },
      "constructor": {
        "params": {
          "test": "Set to true to skip implementation initialization"
        }
      },
      "creditGasFees(address,address,address,address,uint256,uint256,uint256,uint256)": {
        "params": {
          "_gatewayFeeAmount": "The amount of the gateway fee (in adapted token digits). Unused.",
          "_gatewayFeeRecipient": "The recipient of the gateway fee. Unused.",
          "baseFeeAmount": "The amount of the base fee (in adapted token digits).",
          "baseFeeRecipient": "The recipient of the base fee.",
          "refundAmount": "The amount to refund (in adapted token digits).",
          "refundRecipient": "The recipient of the refund.",
          "tipAmount": "The amount to tip (in adapted token digits).",
          "tipRecipient": "The recipient of the tip."
        }
      },
      "debitGasFees(address,uint256)": {
        "params": {
          "from": "from address",
          "value": "Debited value in the adapted digits."
        }
      },
      "decimals()": {
        "returns": {
          "_0": "The total supply."
        }
      },
      "getAdaptedToken()": {
        "returns": {
          "_0": "The adapted token address."
        }
      },
      "getVersionNumber()": {
        "returns": {
          "_0": "Storage version of the contract.",
          "_1": "Major version of the contract.",
          "_2": "Minor version of the contract.",
          "_3": "Patch version of the contract."
        }
      },
      "initialize(address,string,string,uint8)": {
        "params": {
          "_adaptedToken": "The address of the adapted token.",
          "_expectedDecimals": "The expected number of decimals of the adapted token.",
          "_name": "The name of the adapted token.",
          "_symbol": "The symbol of the adapted token."
        }
      },
      "owner()": {
        "details": "Returns the address of the current owner."
      },
      "renounceOwnership()": {
        "details": "Leaves the contract without owner. It will not be possible to call `onlyOwner` functions. Can only be called by the current owner. NOTE: Renouncing ownership will leave the contract without an owner, thereby disabling any functionality that is only available to the owner."
      },
      "setAdaptedToken(address)": {
        "params": {
          "_adaptedToken": "The address of the adapted token."
        }
      },
      "totalSupply()": {
        "returns": {
          "_0": "The total supply."
        }
      },
      "transferOwnership(address)": {
        "details": "Transfers ownership of the contract to a new account (`newOwner`). Can only be called by the current owner."
      }
    },
    "version": 1
  },
  "userdoc": {
    "kind": "user",
    "methods": {
      "balanceOf(address)": {
        "notice": "Gets the balance of the specified address with correct digits."
      },
      "constructor": {
        "notice": "Sets initialized == true on implementation contracts"
      },
      "creditGasFees(address,address,address,address,uint256,uint256,uint256,uint256)": {
        "notice": "Downscales value to the adapted token's native digits and credits it."
      },
      "debitGasFees(address,uint256)": {
        "notice": "Downscales value to the adapted token's native digits and debits it."
      },
      "decimals()": {
        "notice": "Gets the total supply with correct digits."
      },
      "getAdaptedToken()": {
        "notice": "Returns adapted token address."
      },
      "getVersionNumber()": {
        "notice": "Returns the storage, major, minor, and patch version of the contract."
      },
      "initialize(address,string,string,uint8)": {
        "notice": "Used in place of the constructor to allow the contract to be upgradable via proxy."
      },
      "setAdaptedToken(address)": {
        "notice": "Sets adapted token address."
      },
      "totalSupply()": {
        "notice": "Gets the total supply with correct digits."
      }
    },
    "version": 1
  }
}