{
  "contractName": "FeeCurrencyAdapterOwnable",
  "abi": [
    {
      "inputs": [
        {
          "internalType": "bool",
          "name": "test",
          "type": "bool"
        }
      ],
      "stateMutability": "nonpayable",
      "type": "constructor"
    },
    {
      "anonymous": false,
      "inputs": [
        {
          "indexed": true,
          "internalType": "address",
          "name": "previousOwner",
          "type": "address"
        },
        {
          "indexed": true,
          "internalType": "address",
          "name": "newOwner",
          "type": "address"
        }
      ],
      "name": "OwnershipTransferred",
      "type": "event"
    },
    {
      "inputs": [],
      "name": "adaptedToken",
      "outputs": [
        {
          "internalType": "contract IFeeCurrency",
          "name": "",
          "type": "address"
        }
      ],
      "stateMutability": "view",
      "type": "function"
    },
    {
      "inputs": [
        {
          "internalType": "address",
          "name": "account",
          "type": "address"
        }
      ],
      "name": "balanceOf",
      "outputs": [
        {
          "internalType": "uint256",
          "name": "",
          "type": "uint256"
        }
      ],
      "stateMutability": "view",
      "type": "function"
    },
    {
      "inputs": [
        {
          "internalType": "address",
          "name": "refundRecipient",
          "type": "address"
        },
        {
          "internalType": "address",
          "name": "tipRecipient",
          "type": "address"
        },
        {
          "internalType": "address",
          "name": "_gatewayFeeRecipient",
          "type": "address"
        },
        {
          "internalType": "address",
          "name": "baseFeeRecipient",
          "type": "address"
        },
        {
          "internalType": "uint256",
          "name": "refundAmount",
          "type": "uint256"
        },
        {
          "internalType": "uint256",
          "name": "tipAmount",
          "type": "uint256"
        },
        {
          "internalType": "uint256",
          "name": "_gatewayFeeAmount",
          "type": "uint256"
        },
        {
          "internalType": "uint256",
          "name": "baseFeeAmount",
          "type": "uint256"
        }
      ],
      "name": "creditGasFees",
      "outputs": [],
      "stateMutability": "nonpayable",
      "type": "function"
    },
    {
      "inputs": [
        {
          "internalType": "address",
          "name": "from",
          "type": "address"
        },
        {
          "internalType": "uint256",
          "name": "value",
          "type": "uint256"
        }
      ],
      "name": "debitGasFees",
      "outputs": [],
      "stateMutability": "nonpayable",
      "type": "function"
    },
    {
      "inputs": [],
      "name": "debited",
      "outputs": [
        {
          "internalType": "uint256",
          "name": "",
          "type": "uint256"
        }
      ],
      "stateMutability": "view",
      "type": "function"
    },
    {
      "inputs": [],
      "name": "decimals",
      "outputs": [
        {
          "internalType": "uint8",
          "name": "",
          "type": "uint8"
        }
      ],
      "stateMutability": "view",
      "type": "function"
    },
    {
      "inputs": [],
      "name": "digitDifference",
      "outputs": [
        {
          "internalType": "uint96",
          "name": "",
          "type": "uint96"
        }
      ],
      "stateMutability": "view",
      "type": "function"
    },
    {
      "inputs": [],
      "name": "expectedDecimals",
      "outputs": [
        {
          "internalType": "uint8",
          "name": "",
          "type": "uint8"
        }
      ],
      "stateMutability": "view",
      "type": "function"
    },
    {
      "inputs": [],
      "name": "getAdaptedToken",
      "outputs": [
        {
          "internalType": "address",
          "name": "",
          "type": "address"
        }
      ],
      "stateMutability": "view",
      "type": "function"
    },
    {
      "inputs": [],
      "name": "initialized",
      "outputs": [
        {
          "internalType": "bool",
          "name": "",
          "type": "bool"
        }
      ],
      "stateMutability": "view",
      "type": "function"
    },
    {
      "inputs": [],
      "name": "name",
      "outputs": [
        {
          "internalType": "string",
          "name": "",
          "type": "string"
        }
      ],
      "stateMutability": "view",
      "type": "function"
    },
    {
      "inputs": [],
      "name": "owner",
      "outputs": [
        {
          "internalType": "address",
          "name": "",
          "type": "address"
        }
      ],
      "stateMutability": "view",
      "type": "function"
    },
    {
      "inputs": [],
      "name": "renounceOwnership",
      "outputs": [],
      "stateMutability": "nonpayable",
      "type": "function"
    },
    {
      "inputs": [],
      "name": "symbol",
      "outputs": [
        {
          "internalType": "string",
          "name": "",
          "type": "string"
        }
      ],
      "stateMutability": "view",
      "type": "function"
    },
    {
      "inputs": [],
      "name": "totalSupply",
      "outputs": [
        {
          "internalType": "uint256",
          "name": "",
          "type": "uint256"
        }
      ],
      "stateMutability": "view",
      "type": "function"
    },
    {
      "inputs": [
        {
          "internalType": "address",
          "name": "newOwner",
          "type": "address"
        }
      ],
      "name": "transferOwnership",
      "outputs": [],
      "stateMutability": "nonpayable",
      "type": "function"
    },
    {
      "inputs": [
        {
          "internalType": "address",
          "name": "_adaptedToken",
          "type": "address"
        },
        {
          "internalType": "string",
          "name": "_name",
          "type": "string"
        },
        {
          "internalType": "string",
          "name": "_symbol",
          "type": "string"
        },
        {
          "internalType": "uint8",
          "name": "_expectedDecimals",
          "type": "uint8"
        }
      ],
      "name": "initialize",
      "outputs": [],
      "stateMutability": "nonpayable",
      "type": "function"
    },
    {
      "inputs": [
        {
          "internalType": "address",
          "name": "_adaptedToken",
          "type": "address"
        }
      ],
      "name": "setAdaptedToken",
      "outputs": [],
      "stateMutability": "nonpayable",
      "type": "function"
    }
  ],
  "bytecode": "0x608060405260006002553480156200001657600080fd5b50604051620020ea380380620020ea83398181016040528101906200003c919062000198565b8080806200005f5760016000806101000a81548160ff0219169083151502179055505b505062000081620000756200008860201b60201c565b6200009060201b60201c565b50620001ca565b600033905090565b6000603260009054906101000a900473ffffffffffffffffffffffffffffffffffffffff16905081603260006101000a81548173ffffffffffffffffffffffffffffffffffffffff021916908373ffffffffffffffffffffffffffffffffffffffff1602179055508173ffffffffffffffffffffffffffffffffffffffff168173ffffffffffffffffffffffffffffffffffffffff167f8be0079c531659141344cd1fd0a4f28419497f9722a3daafe3b4186f6b6457e060405160405180910390a35050565b600080fd5b60008115159050919050565b62000172816200015b565b81146200017e57600080fd5b50565b600081519050620001928162000167565b92915050565b600060208284031215620001b157620001b062000156565b5b6000620001c18482850162000181565b91505092915050565b611f1080620001da6000396000f3fe608060405234801561001057600080fd5b50600436106101165760003560e01c8063715018a6116100a2578063cc23a4a311610071578063cc23a4a31461029b578063eeee9dc2146102b9578063f2fde38b146102d7578063f6d2ee86146102f3578063fadbb8591461030f57610116565b8063715018a6146102375780638da5cb5b1461024157806395d89b411461025f578063989516db1461027d57610116565b80633cf03412116100e95780633cf034121461019357806358cf9672146101b15780635ee5c82a146101cd5780636a30b253146101eb57806370a082311461020757610116565b806306fdde031461011b578063158ef93e1461013957806318160ddd14610157578063313ce56714610175575b600080fd5b61012361032b565b6040516101309190610f0a565b60405180910390f35b6101416103b9565b60405161014e9190610f47565b60405180910390f35b61015f6103ca565b60405161016c9190610f7b565b60405180910390f35b61017d61046a565b60405161018a9190610fb2565b60405180910390f35b61019b610481565b6040516101a89190610f7b565b60405180910390f35b6101cb60048036038101906101c6919061106b565b610487565b005b6101d56105e1565b6040516101e291906110d2565b60405180910390f35b610205600480360381019061020091906110ed565b6105ff565b005b610221600480360381019061021c91906111a3565b6107ef565b60405161022e9190610f7b565b60405180910390f35b61023f61089c565b005b6102496108b0565b60405161025691906111df565b60405180910390f35b6102676108da565b6040516102749190610f0a565b60405180910390f35b610285610968565b6040516102929190611259565b60405180910390f35b6102a361098e565b6040516102b09190610fb2565b60405180910390f35b6102c16109a1565b6040516102ce91906111df565b60405180910390f35b6102f160048036038101906102ec91906111a3565b6109ca565b005b61030d600480360381019061030891906113d5565b610a4d565b005b610329600480360381019061032491906111a3565b610a68565b005b60038054610338906114a3565b80601f0160208091040260200160405190810160405280929190818152602001828054610364906114a3565b80156103b15780601f10610386576101008083540402835291602001916103b1565b820191906000526020600020905b81548152906001019060200180831161039457829003601f168201915b505050505081565b60008054906101000a900460ff1681565b6000610465600060019054906101000a900473ffffffffffffffffffffffffffffffffffffffff1673ffffffffffffffffffffffffffffffffffffffff166318160ddd6040518163ffffffff1660e01b8152600401602060405180830381865afa15801561043c573d6000803e3d6000fd5b505050506040513d601f19601f8201168201806040525081019061046091906114e9565b610a7c565b905090565b6000600560009054906101000a900460ff16905090565b60025481565b600073ffffffffffffffffffffffffffffffffffffffff163373ffffffffffffffffffffffffffffffffffffffff16146104f6576040517f08c379a00000000000000000000000000000000000000000000000000000000081526004016104ed90611562565b60405180910390fd5b600061050182610ab9565b905060008111610546576040517f08c379a000000000000000000000000000000000000000000000000000000000815260040161053d906115ce565b60405180910390fd5b80600281905550600060019054906101000a900473ffffffffffffffffffffffffffffffffffffffff1673ffffffffffffffffffffffffffffffffffffffff166358cf967284836040518363ffffffff1660e01b81526004016105aa9291906115ee565b600060405180830381600087803b1580156105c457600080fd5b505af11580156105d8573d6000803e3d6000fd5b50505050505050565b600160009054906101000a90046bffffffffffffffffffffffff1681565b600073ffffffffffffffffffffffffffffffffffffffff163373ffffffffffffffffffffffffffffffffffffffff161461066e576040517f08c379a000000000000000000000000000000000000000000000000000000000815260040161066590611562565b60405180910390fd5b600060025403156107e557600061068485610ab9565b9050600061069185610ab9565b9050600061069e84610ab9565b90506002548183856106b09190611646565b6106ba9190611646565b11156106fb576040517f08c379a00000000000000000000000000000000000000000000000000000000081526004016106f2906116c6565b60405180910390fd5b600081838561070a9190611646565b6107149190611646565b60025461072191906116e6565b9050600081111561073b5780826107389190611646565b91505b600060019054906101000a900473ffffffffffffffffffffffffffffffffffffffff1673ffffffffffffffffffffffffffffffffffffffff16636a30b2538d8d60008d898960008a6040518963ffffffff1660e01b81526004016107a6989796959493929190611755565b600060405180830381600087803b1580156107c057600080fd5b505af11580156107d4573d6000803e3d6000fd5b505050506000600281905550505050505b5050505050505050565b6000610895600060019054906101000a900473ffffffffffffffffffffffffffffffffffffffff1673ffffffffffffffffffffffffffffffffffffffff166370a08231846040518263ffffffff1660e01b815260040161084f91906111df565b602060405180830381865afa15801561086c573d6000803e3d6000fd5b505050506040513d601f19601f8201168201806040525081019061089091906114e9565b610a7c565b9050919050565b6108a4610b34565b6108ae6000610bb2565b565b6000603260009054906101000a900473ffffffffffffffffffffffffffffffffffffffff16905090565b600480546108e7906114a3565b80601f0160208091040260200160405190810160405280929190818152602001828054610913906114a3565b80156109605780601f1061093557610100808354040283529160200191610960565b820191906000526020600020905b81548152906001019060200180831161094357829003601f168201915b505050505081565b600060019054906101000a900473ffffffffffffffffffffffffffffffffffffffff1681565b600560009054906101000a900460ff1681565b60008060019054906101000a900473ffffffffffffffffffffffffffffffffffffffff16905090565b6109d2610b34565b600073ffffffffffffffffffffffffffffffffffffffff168173ffffffffffffffffffffffffffffffffffffffff1603610a41576040517f08c379a0000000000000000000000000000000000000000000000000000000008152600401610a3890611845565b60405180910390fd5b610a4a81610bb2565b50565b610a5633610bb2565b610a6284848484610c78565b50505050565b610a70610b34565b610a7981610e2e565b50565b6000600160009054906101000a90046bffffffffffffffffffffffff166bffffffffffffffffffffffff1682610ab29190611865565b9050919050565b6000600160009054906101000a90046bffffffffffffffffffffffff166bffffffffffffffffffffffff1660018060009054906101000a90046bffffffffffffffffffffffff166bffffffffffffffffffffffff1684610b199190611646565b610b2391906116e6565b610b2d91906118d6565b9050919050565b610b3c610e72565b73ffffffffffffffffffffffffffffffffffffffff16610b5a6108b0565b73ffffffffffffffffffffffffffffffffffffffff1614610bb0576040517f08c379a0000000000000000000000000000000000000000000000000000000008152600401610ba790611953565b60405180910390fd5b565b6000603260009054906101000a900473ffffffffffffffffffffffffffffffffffffffff16905081603260006101000a81548173ffffffffffffffffffffffffffffffffffffffff021916908373ffffffffffffffffffffffffffffffffffffffff1602179055508173ffffffffffffffffffffffffffffffffffffffff168173ffffffffffffffffffffffffffffffffffffffff167f8be0079c531659141344cd1fd0a4f28419497f9722a3daafe3b4186f6b6457e060405160405180910390a35050565b60008054906101000a900460ff1615610cc6576040517f08c379a0000000000000000000000000000000000000000000000000000000008152600401610cbd906119bf565b60405180910390fd5b60016000806101000a81548160ff021916908315150217905550610ce984610e2e565b8260039081610cf89190611b81565b508160049081610d089190611b81565b5060008473ffffffffffffffffffffffffffffffffffffffff1663313ce5676040518163ffffffff1660e01b8152600401602060405180830381865afa158015610d56573d6000803e3d6000fd5b505050506040513d601f19601f82011682018060405250810190610d7a9190611c68565b90508160ff168160ff1610610dc4576040517f08c379a0000000000000000000000000000000000000000000000000000000008152600401610dbb90611d07565b60405180910390fd5b8082610dd09190611d27565b600a610ddc9190611e8f565b600160006101000a8154816bffffffffffffffffffffffff02191690836bffffffffffffffffffffffff16021790555081600560006101000a81548160ff021916908360ff1602179055505050505050565b80600060016101000a81548173ffffffffffffffffffffffffffffffffffffffff021916908373ffffffffffffffffffffffffffffffffffffffff16021790555050565b600033905090565b600081519050919050565b600082825260208201905092915050565b60005b83811015610eb4578082015181840152602081019050610e99565b60008484015250505050565b6000601f19601f8301169050919050565b6000610edc82610e7a565b610ee68185610e85565b9350610ef6818560208601610e96565b610eff81610ec0565b840191505092915050565b60006020820190508181036000830152610f248184610ed1565b905092915050565b60008115159050919050565b610f4181610f2c565b82525050565b6000602082019050610f5c6000830184610f38565b92915050565b6000819050919050565b610f7581610f62565b82525050565b6000602082019050610f906000830184610f6c565b92915050565b600060ff82169050919050565b610fac81610f96565b82525050565b6000602082019050610fc76000830184610fa3565b92915050565b6000604051905090565b600080fd5b600080fd5b600073ffffffffffffffffffffffffffffffffffffffff82169050919050565b600061100c82610fe1565b9050919050565b61101c81611001565b811461102757600080fd5b50565b60008135905061103981611013565b92915050565b61104881610f62565b811461105357600080fd5b50565b6000813590506110658161103f565b92915050565b6000806040838503121561108257611081610fd7565b5b60006110908582860161102a565b92505060206110a185828601611056565b9150509250929050565b60006bffffffffffffffffffffffff82169050919050565b6110cc816110ab565b82525050565b60006020820190506110e760008301846110c3565b92915050565b600080600080600080600080610100898b03121561110e5761110d610fd7565b5b600061111c8b828c0161102a565b985050602061112d8b828c0161102a565b975050604061113e8b828c0161102a565b965050606061114f8b828c0161102a565b95505060806111608b828c01611056565b94505060a06111718b828c01611056565b93505060c06111828b828c01611056565b92505060e06111938b828c01611056565b9150509295985092959890939650565b6000602082840312156111b9576111b8610fd7565b5b60006111c78482850161102a565b91505092915050565b6111d981611001565b82525050565b60006020820190506111f460008301846111d0565b92915050565b6000819050919050565b600061121f61121a61121584610fe1565b6111fa565b610fe1565b9050919050565b600061123182611204565b9050919050565b600061124382611226565b9050919050565b61125381611238565b82525050565b600060208201905061126e600083018461124a565b92915050565b600080fd5b600080fd5b7f4e487b7100000000000000000000000000000000000000000000000000000000600052604160045260246000fd5b6112b682610ec0565b810181811067ffffffffffffffff821117156112d5576112d461127e565b5b80604052505050565b60006112e8610fcd565b90506112f482826112ad565b919050565b600067ffffffffffffffff8211156113145761131361127e565b5b61131d82610ec0565b9050602081019050919050565b82818337600083830152505050565b600061134c611347846112f9565b6112de565b90508281526020810184848401111561136857611367611279565b5b61137384828561132a565b509392505050565b600082601f8301126113905761138f611274565b5b81356113a0848260208601611339565b91505092915050565b6113b281610f96565b81146113bd57600080fd5b50565b6000813590506113cf816113a9565b92915050565b600080600080608085870312156113ef576113ee610fd7565b5b60006113fd8782880161102a565b945050602085013567ffffffffffffffff81111561141e5761141d610fdc565b5b61142a8782880161137b565b935050604085013567ffffffffffffffff81111561144b5761144a610fdc565b5b6114578782880161137b565b9250506060611468878288016113c0565b91505092959194509250565b7f4e487b7100000000000000000000000000000000000000000000000000000000600052602260045260246000fd5b600060028204905060018216806114bb57607f821691505b6020821081036114ce576114cd611474565b5b50919050565b6000815190506114e38161103f565b92915050565b6000602082840312156114ff576114fe610fd7565b5b600061150d848285016114d4565b91505092915050565b7f4f6e6c7920564d2063616e2063616c6c00000000000000000000000000000000600082015250565b600061154c601083610e85565b915061155782611516565b602082019050919050565b6000602082019050818103600083015261157b8161153f565b9050919050565b7f5363616c65642064656269742076616c7565206d757374206265203e20302e00600082015250565b60006115b8601f83610e85565b91506115c382611582565b602082019050919050565b600060208201905081810360008301526115e7816115ab565b9050919050565b600060408201905061160360008301856111d0565b6116106020830184610f6c565b9392505050565b7f4e487b7100000000000000000000000000000000000000000000000000000000600052601160045260246000fd5b600061165182610f62565b915061165c83610f62565b925082820190508082111561167457611673611617565b5b92915050565b7f43616e6e6f7420637265646974206d6f7265207468616e20646562697465642e600082015250565b60006116b0602083610e85565b91506116bb8261167a565b602082019050919050565b600060208201905081810360008301526116df816116a3565b9050919050565b60006116f182610f62565b91506116fc83610f62565b925082820390508181111561171457611713611617565b5b92915050565b6000819050919050565b600061173f61173a6117358461171a565b6111fa565b610f62565b9050919050565b61174f81611724565b82525050565b60006101008201905061176b600083018b6111d0565b611778602083018a6111d0565b61178560408301896111d0565b61179260608301886111d0565b61179f6080830187610f6c565b6117ac60a0830186610f6c565b6117b960c0830185611746565b6117c660e0830184610f6c565b9998505050505050505050565b7f4f776e61626c653a206e6577206f776e657220697320746865207a65726f206160008201527f6464726573730000000000000000000000000000000000000000000000000000602082015250565b600061182f602683610e85565b915061183a826117d3565b604082019050919050565b6000602082019050818103600083015261185e81611822565b9050919050565b600061187082610f62565b915061187b83610f62565b925082820261188981610f62565b915082820484148315176118a05761189f611617565b5b5092915050565b7f4e487b7100000000000000000000000000000000000000000000000000000000600052601260045260246000fd5b60006118e182610f62565b91506118ec83610f62565b9250826118fc576118fb6118a7565b5b828204905092915050565b7f4f776e61626c653a2063616c6c6572206973206e6f7420746865206f776e6572600082015250565b600061193d602083610e85565b915061194882611907565b602082019050919050565b6000602082019050818103600083015261196c81611930565b9050919050565b7f636f6e747261637420616c726561647920696e697469616c697a656400000000600082015250565b60006119a9601c83610e85565b91506119b482611973565b602082019050919050565b600060208201905081810360008301526119d88161199c565b9050919050565b60008190508160005260206000209050919050565b60006020601f8301049050919050565b600082821b905092915050565b600060088302611a417fffffffffffffffffffffffffffffffffffffffffffffffffffffffffffffffff82611a04565b611a4b8683611a04565b95508019841693508086168417925050509392505050565b6000611a7e611a79611a7484610f62565b6111fa565b610f62565b9050919050565b6000819050919050565b611a9883611a63565b611aac611aa482611a85565b848454611a11565b825550505050565b600090565b611ac1611ab4565b611acc818484611a8f565b505050565b5b81811015611af057611ae5600082611ab9565b600181019050611ad2565b5050565b601f821115611b3557611b06816119df565b611b0f846119f4565b81016020851015611b1e578190505b611b32611b2a856119f4565b830182611ad1565b50505b505050565b600082821c905092915050565b6000611b5860001984600802611b3a565b1980831691505092915050565b6000611b718383611b47565b9150826002028217905092915050565b611b8a82610e7a565b67ffffffffffffffff811115611ba357611ba261127e565b5b611bad82546114a3565b611bb8828285611af4565b600060209050601f831160018114611beb5760008415611bd9578287015190505b611be38582611b65565b865550611c4b565b601f198416611bf9866119df565b60005b82811015611c2157848901518255600182019150602085019450602081019050611bfc565b86831015611c3e5784890151611c3a601f891682611b47565b8355505b6001600288020188555050505b505050505050565b600081519050611c62816113a9565b92915050565b600060208284031215611c7e57611c7d610fd7565b5b6000611c8c84828501611c53565b91505092915050565b7f446563696d616c73206f66206164617074656420746f6b656e206d757374206260008201527f65203c20657870656374656420646563696d616c732e00000000000000000000602082015250565b6000611cf1603683610e85565b9150611cfc82611c95565b604082019050919050565b60006020820190508181036000830152611d2081611ce4565b9050919050565b6000611d3282610f96565b9150611d3d83610f96565b9250828203905060ff811115611d5657611d55611617565b5b92915050565b60008160011c9050919050565b6000808291508390505b6001851115611db357808604811115611d8f57611d8e611617565b5b6001851615611d9e5780820291505b8081029050611dac85611d5c565b9450611d73565b94509492505050565b600082611dcc5760019050611e88565b81611dda5760009050611e88565b8160018114611df05760028114611dfa57611e29565b6001915050611e88565b60ff841115611e0c57611e0b611617565b5b8360020a915084821115611e2357611e22611617565b5b50611e88565b5060208310610133831016604e8410600b8410161715611e5e5782820a905083811115611e5957611e58611617565b5b611e88565b611e6b8484846001611d69565b92509050818404811115611e8257611e81611617565b5b81810290505b9392505050565b6000611e9a82610f62565b9150611ea583610f96565b9250611ed27fffffffffffffffffffffffffffffffffffffffffffffffffffffffffffffffff8484611dbc565b90509291505056fea264697066735822122061838603955de382d884391e440448fb4470ddcca05415638af7661a53f9ade864736f6c63430008130033",
  "immutableReferences": {},
  "source": "// SPDX-License-Identifier: LGPL-3.0-only\npragma solidity >=0.8.7 <0.8.20;\n\nimport \"@openzeppelin/contracts8/access/Ownable.sol\";\nimport \"@openzeppelin/contracts8/token/ERC20/IERC20.sol\";\n\nimport \"./FeeCurrencyAdapter.sol\";\n\ncontract FeeCurrencyAdapterOwnable is FeeCurrencyAdapter, Ownable {\n  uint256[49] __gap2;\n\n  /**\n   * @notice Sets initialized == true on implementation contracts\n   * @param test Set to true to skip implementation initialization\n   */\n  constructor(bool test) FeeCurrencyAdapter(test) {}\n\n  /**\n   * @notice Used in place of the constructor to allow the contract to be upgradable via proxy.\n   * @param _adaptedToken The address of the adapted token.\n   * @param _name The name of the adapted token.\n   * @param _symbol The symbol of the adapted token.\n   * @param _expectedDecimals The expected number of decimals of the adapted token.\n   */\n  function initialize(\n    address _adaptedToken,\n    string memory _name,\n    string memory _symbol,\n    uint8 _expectedDecimals\n  ) public override {\n    _transferOwnership(msg.sender);\n    FeeCurrencyAdapter.initialize(_adaptedToken, _name, _symbol, _expectedDecimals);\n  }\n\n  /**\n   * @notice Sets adapted token address.\n   * @param _adaptedToken The address of the adapted token.\n   */\n  function setAdaptedToken(address _adaptedToken) public onlyOwner {\n    _setAdaptedToken(_adaptedToken);\n  }\n}\n",
  "sourcePath": "/Users/beaver/Development/celo/celo-monorepo/packages/protocol/contracts-0.8/stability/FeeCurrencyAdapterOwnable.sol",
  "compiler": {
    "name": "solc",
    "version": "0.8.19+commit.7dd6d404.Emscripten.clang"
  },
  "schemaVersion": "3.4.13",
  "updatedAt": "2024-03-05T15:18:07.417Z",
  "devdoc": {
    "kind": "dev",
    "methods": {
      "balanceOf(address)": {
        "params": {
          "account": "The address to query the balance of."
        },
        "returns": {
          "_0": "The balance of the specified address."
        }
      },
      "constructor": {
        "params": {
          "test": "Set to true to skip implementation initialization"
        }
      },
      "creditGasFees(address,address,address,address,uint256,uint256,uint256,uint256)": {
        "params": {
          "_gatewayFeeAmount": "The amount of the gateway fee (in adapted token digits). Unused.",
          "_gatewayFeeRecipient": "The recipient of the gateway fee. Unused.",
          "baseFeeAmount": "The amount of the base fee (in adapted token digits).",
          "baseFeeRecipient": "The recipient of the base fee.",
          "refundAmount": "The amount to refund (in adapted token digits).",
          "refundRecipient": "The recipient of the refund.",
          "tipAmount": "The amount to tip (in adapted token digits).",
          "tipRecipient": "The recipient of the tip."
        }
      },
      "debitGasFees(address,uint256)": {
        "params": {
          "from": "from address",
          "value": "Debited value in the adapted digits."
        }
      },
      "decimals()": {
        "returns": {
          "_0": "The total supply."
        }
      },
      "getAdaptedToken()": {
        "returns": {
          "_0": "The adapted token address."
        }
      },
      "initialize(address,string,string,uint8)": {
        "params": {
          "_adaptedToken": "The address of the adapted token.",
          "_expectedDecimals": "The expected number of decimals of the adapted token.",
          "_name": "The name of the adapted token.",
          "_symbol": "The symbol of the adapted token."
        }
      },
      "owner()": {
        "details": "Returns the address of the current owner."
      },
      "renounceOwnership()": {
        "details": "Leaves the contract without owner. It will not be possible to call `onlyOwner` functions. Can only be called by the current owner. NOTE: Renouncing ownership will leave the contract without an owner, thereby disabling any functionality that is only available to the owner."
      },
      "setAdaptedToken(address)": {
        "params": {
          "_adaptedToken": "The address of the adapted token."
        }
      },
      "totalSupply()": {
        "returns": {
          "_0": "The total supply."
        }
      },
      "transferOwnership(address)": {
        "details": "Transfers ownership of the contract to a new account (`newOwner`). Can only be called by the current owner."
      }
    },
    "version": 1
  },
  "userdoc": {
    "kind": "user",
    "methods": {
      "balanceOf(address)": {
        "notice": "Gets the balance of the specified address with correct digits."
      },
      "constructor": {
        "notice": "Sets initialized == true on implementation contracts"
      },
      "creditGasFees(address,address,address,address,uint256,uint256,uint256,uint256)": {
        "notice": "Downscales value to the adapted token's native digits and credits it."
      },
      "debitGasFees(address,uint256)": {
        "notice": "Downscales value to the adapted token's native digits and debits it."
      },
      "decimals()": {
        "notice": "Gets the total supply with correct digits."
      },
      "getAdaptedToken()": {
        "notice": "Returns adapted token address."
      },
      "initialize(address,string,string,uint8)": {
        "notice": "Used in place of the constructor to allow the contract to be upgradable via proxy."
      },
      "setAdaptedToken(address)": {
        "notice": "Sets adapted token address."
      },
      "totalSupply()": {
        "notice": "Gets the total supply with correct digits."
      }
    },
    "version": 1
  }
}