{
  "contractName": "FeeCurrencyAdapter",
  "abi": [
    {
      "inputs": [
        {
          "internalType": "bool",
          "name": "test",
          "type": "bool"
        }
      ],
      "stateMutability": "nonpayable",
      "type": "constructor"
    },
    {
      "inputs": [],
      "name": "adaptedToken",
      "outputs": [
        {
          "internalType": "contract IFeeCurrency",
          "name": "",
          "type": "address"
        }
      ],
      "stateMutability": "view",
      "type": "function"
    },
    {
      "inputs": [],
      "name": "debited",
      "outputs": [
        {
          "internalType": "uint256",
          "name": "",
          "type": "uint256"
        }
      ],
      "stateMutability": "view",
      "type": "function"
    },
    {
      "inputs": [],
      "name": "digitDifference",
      "outputs": [
        {
          "internalType": "uint96",
          "name": "",
          "type": "uint96"
        }
      ],
      "stateMutability": "view",
      "type": "function"
    },
    {
      "inputs": [],
      "name": "expectedDecimals",
      "outputs": [
        {
          "internalType": "uint8",
          "name": "",
          "type": "uint8"
        }
      ],
      "stateMutability": "view",
      "type": "function"
    },
    {
      "inputs": [],
      "name": "initialized",
      "outputs": [
        {
          "internalType": "bool",
          "name": "",
          "type": "bool"
        }
      ],
      "stateMutability": "view",
      "type": "function"
    },
    {
      "inputs": [],
      "name": "name",
      "outputs": [
        {
          "internalType": "string",
          "name": "",
          "type": "string"
        }
      ],
      "stateMutability": "view",
      "type": "function"
    },
    {
      "inputs": [],
      "name": "symbol",
      "outputs": [
        {
          "internalType": "string",
          "name": "",
          "type": "string"
        }
      ],
      "stateMutability": "view",
      "type": "function"
    },
    {
      "inputs": [
        {
          "internalType": "address",
          "name": "_adaptedToken",
          "type": "address"
        },
        {
          "internalType": "string",
          "name": "_name",
          "type": "string"
        },
        {
          "internalType": "string",
          "name": "_symbol",
          "type": "string"
        },
        {
          "internalType": "uint8",
          "name": "_expectedDecimals",
          "type": "uint8"
        }
      ],
      "name": "initialize",
      "outputs": [],
      "stateMutability": "nonpayable",
      "type": "function"
    },
    {
      "inputs": [
        {
          "internalType": "address",
          "name": "from",
          "type": "address"
        },
        {
          "internalType": "uint256",
          "name": "value",
          "type": "uint256"
        }
      ],
      "name": "debitGasFees",
      "outputs": [],
      "stateMutability": "nonpayable",
      "type": "function"
    },
    {
      "inputs": [
        {
          "internalType": "address",
          "name": "refundRecipient",
          "type": "address"
        },
        {
          "internalType": "address",
          "name": "tipRecipient",
          "type": "address"
        },
        {
          "internalType": "address",
          "name": "_gatewayFeeRecipient",
          "type": "address"
        },
        {
          "internalType": "address",
          "name": "baseFeeRecipient",
          "type": "address"
        },
        {
          "internalType": "uint256",
          "name": "refundAmount",
          "type": "uint256"
        },
        {
          "internalType": "uint256",
          "name": "tipAmount",
          "type": "uint256"
        },
        {
          "internalType": "uint256",
          "name": "_gatewayFeeAmount",
          "type": "uint256"
        },
        {
          "internalType": "uint256",
          "name": "baseFeeAmount",
          "type": "uint256"
        }
      ],
      "name": "creditGasFees",
      "outputs": [],
      "stateMutability": "nonpayable",
      "type": "function"
    },
    {
      "inputs": [],
      "name": "getAdaptedToken",
      "outputs": [
        {
          "internalType": "address",
          "name": "",
          "type": "address"
        }
      ],
      "stateMutability": "view",
      "type": "function"
    },
    {
      "inputs": [
        {
          "internalType": "address",
          "name": "account",
          "type": "address"
        }
      ],
      "name": "balanceOf",
      "outputs": [
        {
          "internalType": "uint256",
          "name": "",
          "type": "uint256"
        }
      ],
      "stateMutability": "view",
      "type": "function"
    },
    {
      "inputs": [],
      "name": "totalSupply",
      "outputs": [
        {
          "internalType": "uint256",
          "name": "",
          "type": "uint256"
        }
      ],
      "stateMutability": "view",
      "type": "function"
    },
    {
      "inputs": [],
      "name": "decimals",
      "outputs": [
        {
          "internalType": "uint8",
          "name": "",
          "type": "uint8"
        }
      ],
      "stateMutability": "view",
      "type": "function"
    }
  ],
  "bytecode": "0x608060405260006002553480156200001657600080fd5b5060405162001c3438038062001c3483398181016040528101906200003c9190620000a8565b80806200005e5760016000806101000a81548160ff0219169083151502179055505b5050620000da565b600080fd5b60008115159050919050565b62000082816200006b565b81146200008e57600080fd5b50565b600081519050620000a28162000077565b92915050565b600060208284031215620000c157620000c062000066565b5b6000620000d18482850162000091565b91505092915050565b611b4a80620000ea6000396000f3fe608060405234801561001057600080fd5b50600436106100ea5760003560e01c80636a30b2531161008c578063989516db11610066578063989516db14610229578063cc23a4a314610247578063eeee9dc214610265578063f6d2ee8614610283576100ea565b80636a30b253146101bf57806370a08231146101db57806395d89b411461020b576100ea565b8063313ce567116100c8578063313ce567146101495780633cf034121461016757806358cf9672146101855780635ee5c82a146101a1576100ea565b806306fdde03146100ef578063158ef93e1461010d57806318160ddd1461012b575b600080fd5b6100f761029f565b6040516101049190610c42565b60405180910390f35b61011561032d565b6040516101229190610c7f565b60405180910390f35b61013361033e565b6040516101409190610cb3565b60405180910390f35b6101516103de565b60405161015e9190610cea565b60405180910390f35b61016f6103f5565b60405161017c9190610cb3565b60405180910390f35b61019f600480360381019061019a9190610da3565b6103fb565b005b6101a9610555565b6040516101b69190610e0a565b60405180910390f35b6101d960048036038101906101d49190610e25565b610573565b005b6101f560048036038101906101f09190610edb565b610763565b6040516102029190610cb3565b60405180910390f35b610213610810565b6040516102209190610c42565b60405180910390f35b61023161089e565b60405161023e9190610f67565b60405180910390f35b61024f6108c4565b60405161025c9190610cea565b60405180910390f35b61026d6108d7565b60405161027a9190610f91565b60405180910390f35b61029d6004803603810190610298919061110d565b610900565b005b600380546102ac906111db565b80601f01602080910402602001604051908101604052809291908181526020018280546102d8906111db565b80156103255780601f106102fa57610100808354040283529160200191610325565b820191906000526020600020905b81548152906001019060200180831161030857829003601f168201915b505050505081565b60008054906101000a900460ff1681565b60006103d9600060019054906101000a900473ffffffffffffffffffffffffffffffffffffffff1673ffffffffffffffffffffffffffffffffffffffff166318160ddd6040518163ffffffff1660e01b8152600401602060405180830381865afa1580156103b0573d6000803e3d6000fd5b505050506040513d601f19601f820116820180604052508101906103d49190611221565b610ab6565b905090565b6000600560009054906101000a900460ff16905090565b60025481565b600073ffffffffffffffffffffffffffffffffffffffff163373ffffffffffffffffffffffffffffffffffffffff161461046a576040517f08c379a00000000000000000000000000000000000000000000000000000000081526004016104619061129a565b60405180910390fd5b600061047582610af3565b9050600081116104ba576040517f08c379a00000000000000000000000000000000000000000000000000000000081526004016104b190611306565b60405180910390fd5b80600281905550600060019054906101000a900473ffffffffffffffffffffffffffffffffffffffff1673ffffffffffffffffffffffffffffffffffffffff166358cf967284836040518363ffffffff1660e01b815260040161051e929190611326565b600060405180830381600087803b15801561053857600080fd5b505af115801561054c573d6000803e3d6000fd5b50505050505050565b600160009054906101000a90046bffffffffffffffffffffffff1681565b600073ffffffffffffffffffffffffffffffffffffffff163373ffffffffffffffffffffffffffffffffffffffff16146105e2576040517f08c379a00000000000000000000000000000000000000000000000000000000081526004016105d99061129a565b60405180910390fd5b600060025403156107595760006105f885610af3565b9050600061060585610af3565b9050600061061284610af3565b9050600254818385610624919061137e565b61062e919061137e565b111561066f576040517f08c379a0000000000000000000000000000000000000000000000000000000008152600401610666906113fe565b60405180910390fd5b600081838561067e919061137e565b610688919061137e565b600254610695919061141e565b905060008111156106af5780826106ac919061137e565b91505b600060019054906101000a900473ffffffffffffffffffffffffffffffffffffffff1673ffffffffffffffffffffffffffffffffffffffff16636a30b2538d8d60008d898960008a6040518963ffffffff1660e01b815260040161071a98979695949392919061148d565b600060405180830381600087803b15801561073457600080fd5b505af1158015610748573d6000803e3d6000fd5b505050506000600281905550505050505b5050505050505050565b6000610809600060019054906101000a900473ffffffffffffffffffffffffffffffffffffffff1673ffffffffffffffffffffffffffffffffffffffff166370a08231846040518263ffffffff1660e01b81526004016107c39190610f91565b602060405180830381865afa1580156107e0573d6000803e3d6000fd5b505050506040513d601f19601f820116820180604052508101906108049190611221565b610ab6565b9050919050565b6004805461081d906111db565b80601f0160208091040260200160405190810160405280929190818152602001828054610849906111db565b80156108965780601f1061086b57610100808354040283529160200191610896565b820191906000526020600020905b81548152906001019060200180831161087957829003601f168201915b505050505081565b600060019054906101000a900473ffffffffffffffffffffffffffffffffffffffff1681565b600560009054906101000a900460ff1681565b60008060019054906101000a900473ffffffffffffffffffffffffffffffffffffffff16905090565b60008054906101000a900460ff161561094e576040517f08c379a000000000000000000000000000000000000000000000000000000000815260040161094590611557565b60405180910390fd5b60016000806101000a81548160ff02191690831515021790555061097184610b6e565b82600390816109809190611719565b5081600490816109909190611719565b5060008473ffffffffffffffffffffffffffffffffffffffff1663313ce5676040518163ffffffff1660e01b8152600401602060405180830381865afa1580156109de573d6000803e3d6000fd5b505050506040513d601f19601f82011682018060405250810190610a029190611800565b90508160ff168160ff1610610a4c576040517f08c379a0000000000000000000000000000000000000000000000000000000008152600401610a439061189f565b60405180910390fd5b8082610a5891906118bf565b600a610a649190611a27565b600160006101000a8154816bffffffffffffffffffffffff02191690836bffffffffffffffffffffffff16021790555081600560006101000a81548160ff021916908360ff1602179055505050505050565b6000600160009054906101000a90046bffffffffffffffffffffffff166bffffffffffffffffffffffff1682610aec9190611a72565b9050919050565b6000600160009054906101000a90046bffffffffffffffffffffffff166bffffffffffffffffffffffff1660018060009054906101000a90046bffffffffffffffffffffffff166bffffffffffffffffffffffff1684610b53919061137e565b610b5d919061141e565b610b679190611ae3565b9050919050565b80600060016101000a81548173ffffffffffffffffffffffffffffffffffffffff021916908373ffffffffffffffffffffffffffffffffffffffff16021790555050565b600081519050919050565b600082825260208201905092915050565b60005b83811015610bec578082015181840152602081019050610bd1565b60008484015250505050565b6000601f19601f8301169050919050565b6000610c1482610bb2565b610c1e8185610bbd565b9350610c2e818560208601610bce565b610c3781610bf8565b840191505092915050565b60006020820190508181036000830152610c5c8184610c09565b905092915050565b60008115159050919050565b610c7981610c64565b82525050565b6000602082019050610c946000830184610c70565b92915050565b6000819050919050565b610cad81610c9a565b82525050565b6000602082019050610cc86000830184610ca4565b92915050565b600060ff82169050919050565b610ce481610cce565b82525050565b6000602082019050610cff6000830184610cdb565b92915050565b6000604051905090565b600080fd5b600080fd5b600073ffffffffffffffffffffffffffffffffffffffff82169050919050565b6000610d4482610d19565b9050919050565b610d5481610d39565b8114610d5f57600080fd5b50565b600081359050610d7181610d4b565b92915050565b610d8081610c9a565b8114610d8b57600080fd5b50565b600081359050610d9d81610d77565b92915050565b60008060408385031215610dba57610db9610d0f565b5b6000610dc885828601610d62565b9250506020610dd985828601610d8e565b9150509250929050565b60006bffffffffffffffffffffffff82169050919050565b610e0481610de3565b82525050565b6000602082019050610e1f6000830184610dfb565b92915050565b600080600080600080600080610100898b031215610e4657610e45610d0f565b5b6000610e548b828c01610d62565b9850506020610e658b828c01610d62565b9750506040610e768b828c01610d62565b9650506060610e878b828c01610d62565b9550506080610e988b828c01610d8e565b94505060a0610ea98b828c01610d8e565b93505060c0610eba8b828c01610d8e565b92505060e0610ecb8b828c01610d8e565b9150509295985092959890939650565b600060208284031215610ef157610ef0610d0f565b5b6000610eff84828501610d62565b91505092915050565b6000819050919050565b6000610f2d610f28610f2384610d19565b610f08565b610d19565b9050919050565b6000610f3f82610f12565b9050919050565b6000610f5182610f34565b9050919050565b610f6181610f46565b82525050565b6000602082019050610f7c6000830184610f58565b92915050565b610f8b81610d39565b82525050565b6000602082019050610fa66000830184610f82565b92915050565b600080fd5b600080fd5b7f4e487b7100000000000000000000000000000000000000000000000000000000600052604160045260246000fd5b610fee82610bf8565b810181811067ffffffffffffffff8211171561100d5761100c610fb6565b5b80604052505050565b6000611020610d05565b905061102c8282610fe5565b919050565b600067ffffffffffffffff82111561104c5761104b610fb6565b5b61105582610bf8565b9050602081019050919050565b82818337600083830152505050565b600061108461107f84611031565b611016565b9050828152602081018484840111156110a05761109f610fb1565b5b6110ab848285611062565b509392505050565b600082601f8301126110c8576110c7610fac565b5b81356110d8848260208601611071565b91505092915050565b6110ea81610cce565b81146110f557600080fd5b50565b600081359050611107816110e1565b92915050565b6000806000806080858703121561112757611126610d0f565b5b600061113587828801610d62565b945050602085013567ffffffffffffffff81111561115657611155610d14565b5b611162878288016110b3565b935050604085013567ffffffffffffffff81111561118357611182610d14565b5b61118f878288016110b3565b92505060606111a0878288016110f8565b91505092959194509250565b7f4e487b7100000000000000000000000000000000000000000000000000000000600052602260045260246000fd5b600060028204905060018216806111f357607f821691505b602082108103611206576112056111ac565b5b50919050565b60008151905061121b81610d77565b92915050565b60006020828403121561123757611236610d0f565b5b60006112458482850161120c565b91505092915050565b7f4f6e6c7920564d2063616e2063616c6c00000000000000000000000000000000600082015250565b6000611284601083610bbd565b915061128f8261124e565b602082019050919050565b600060208201905081810360008301526112b381611277565b9050919050565b7f5363616c65642064656269742076616c7565206d757374206265203e20302e00600082015250565b60006112f0601f83610bbd565b91506112fb826112ba565b602082019050919050565b6000602082019050818103600083015261131f816112e3565b9050919050565b600060408201905061133b6000830185610f82565b6113486020830184610ca4565b9392505050565b7f4e487b7100000000000000000000000000000000000000000000000000000000600052601160045260246000fd5b600061138982610c9a565b915061139483610c9a565b92508282019050808211156113ac576113ab61134f565b5b92915050565b7f43616e6e6f7420637265646974206d6f7265207468616e20646562697465642e600082015250565b60006113e8602083610bbd565b91506113f3826113b2565b602082019050919050565b60006020820190508181036000830152611417816113db565b9050919050565b600061142982610c9a565b915061143483610c9a565b925082820390508181111561144c5761144b61134f565b5b92915050565b6000819050919050565b600061147761147261146d84611452565b610f08565b610c9a565b9050919050565b6114878161145c565b82525050565b6000610100820190506114a3600083018b610f82565b6114b0602083018a610f82565b6114bd6040830189610f82565b6114ca6060830188610f82565b6114d76080830187610ca4565b6114e460a0830186610ca4565b6114f160c083018561147e565b6114fe60e0830184610ca4565b9998505050505050505050565b7f636f6e747261637420616c726561647920696e697469616c697a656400000000600082015250565b6000611541601c83610bbd565b915061154c8261150b565b602082019050919050565b6000602082019050818103600083015261157081611534565b9050919050565b60008190508160005260206000209050919050565b60006020601f8301049050919050565b600082821b905092915050565b6000600883026115d97fffffffffffffffffffffffffffffffffffffffffffffffffffffffffffffffff8261159c565b6115e3868361159c565b95508019841693508086168417925050509392505050565b600061161661161161160c84610c9a565b610f08565b610c9a565b9050919050565b6000819050919050565b611630836115fb565b61164461163c8261161d565b8484546115a9565b825550505050565b600090565b61165961164c565b611664818484611627565b505050565b5b818110156116885761167d600082611651565b60018101905061166a565b5050565b601f8211156116cd5761169e81611577565b6116a78461158c565b810160208510156116b6578190505b6116ca6116c28561158c565b830182611669565b50505b505050565b600082821c905092915050565b60006116f0600019846008026116d2565b1980831691505092915050565b600061170983836116df565b9150826002028217905092915050565b61172282610bb2565b67ffffffffffffffff81111561173b5761173a610fb6565b5b61174582546111db565b61175082828561168c565b600060209050601f8311600181146117835760008415611771578287015190505b61177b85826116fd565b8655506117e3565b601f19841661179186611577565b60005b828110156117b957848901518255600182019150602085019450602081019050611794565b868310156117d657848901516117d2601f8916826116df565b8355505b6001600288020188555050505b505050505050565b6000815190506117fa816110e1565b92915050565b60006020828403121561181657611815610d0f565b5b6000611824848285016117eb565b91505092915050565b7f446563696d616c73206f66206164617074656420746f6b656e206d757374206260008201527f65203c20657870656374656420646563696d616c732e00000000000000000000602082015250565b6000611889603683610bbd565b91506118948261182d565b604082019050919050565b600060208201905081810360008301526118b88161187c565b9050919050565b60006118ca82610cce565b91506118d583610cce565b9250828203905060ff8111156118ee576118ed61134f565b5b92915050565b60008160011c9050919050565b6000808291508390505b600185111561194b578086048111156119275761192661134f565b5b60018516156119365780820291505b8081029050611944856118f4565b945061190b565b94509492505050565b6000826119645760019050611a20565b816119725760009050611a20565b81600181146119885760028114611992576119c1565b6001915050611a20565b60ff8411156119a4576119a361134f565b5b8360020a9150848211156119bb576119ba61134f565b5b50611a20565b5060208310610133831016604e8410600b84101617156119f65782820a9050838111156119f1576119f061134f565b5b611a20565b611a038484846001611901565b92509050818404811115611a1a57611a1961134f565b5b81810290505b9392505050565b6000611a3282610c9a565b9150611a3d83610cce565b9250611a6a7fffffffffffffffffffffffffffffffffffffffffffffffffffffffffffffffff8484611954565b905092915050565b6000611a7d82610c9a565b9150611a8883610c9a565b9250828202611a9681610c9a565b91508282048414831517611aad57611aac61134f565b5b5092915050565b7f4e487b7100000000000000000000000000000000000000000000000000000000600052601260045260246000fd5b6000611aee82610c9a565b9150611af983610c9a565b925082611b0957611b08611ab4565b5b82820490509291505056fea2646970667358221220c98158c74ad1cd1fd4fc92c46e824cd354c4e1a8b7924f67976595254c677cd864736f6c63430008130033",
  "immutableReferences": {},
  "source": "// SPDX-License-Identifier: LGPL-3.0-only\npragma solidity >=0.8.7 <0.8.20;\n\nimport \"@openzeppelin/contracts8/access/Ownable.sol\";\nimport \"@openzeppelin/contracts8/token/ERC20/IERC20.sol\";\n\nimport \"../../contracts/common/CalledByVm.sol\";\nimport \"../../contracts/common/Initializable.sol\";\nimport \"../../contracts/common/interfaces/ICeloVersionedContract.sol\";\nimport \"../../contracts/common/FixidityLib.sol\";\nimport \"../../contracts/stability/interfaces/ISortedOracles.sol\";\nimport \"./interfaces/IFeeCurrency.sol\";\nimport \"./interfaces/IDecimals.sol\";\nimport \"./interfaces/IFeeCurrencyAdapter.sol\";\n\ncontract FeeCurrencyAdapter is Initializable, CalledByVm, IFeeCurrencyAdapter {\n  IFeeCurrency public adaptedToken;\n\n  uint96 public digitDifference;\n\n  uint256 public debited = 0;\n\n  string public name;\n  string public symbol;\n\n  uint8 public expectedDecimals;\n\n  uint256[44] __gap;\n\n  /**\n   * @notice Sets initialized == true on implementation contracts\n   * @param test Set to true to skip implementation initialization\n   */\n  constructor(bool test) public Initializable(test) {}\n\n  /**\n   * @notice Used in place of the constructor to allow the contract to be upgradable via proxy.\n   * @param _adaptedToken The address of the adapted token.\n   * @param _name The name of the adapted token.\n   * @param _symbol The symbol of the adapted token.\n   * @param _expectedDecimals The expected number of decimals of the adapted token.\n   * @notice _expectedDecimals must be bigger than _adaptedToken.decimals().\n   */\n  function initialize(\n    address _adaptedToken,\n    string memory _name,\n    string memory _symbol,\n    uint8 _expectedDecimals\n  ) public virtual initializer {\n    _setAdaptedToken(_adaptedToken);\n    name = _name;\n    symbol = _symbol;\n    uint8 _decimals = IDecimals(_adaptedToken).decimals();\n    require(\n      _decimals < _expectedDecimals,\n      \"Decimals of adapted token must be < expected decimals.\"\n    );\n    digitDifference = uint96(10**(_expectedDecimals - _decimals));\n    expectedDecimals = _expectedDecimals;\n  }\n\n  /**\n   * Downscales value to the adapted token's native digits and debits it.\n   * @param from from address\n   * @param value Debited value in the adapted digits.\n   */\n  function debitGasFees(address from, uint256 value) external onlyVm {\n    uint256 valueScaled = downscale(value);\n    require(valueScaled > 0, \"Scaled debit value must be > 0.\");\n    debited = valueScaled;\n    adaptedToken.debitGasFees(from, valueScaled);\n  }\n\n  /**\n   * Downscales value to the adapted token's native digits and credits it.\n   * @param refundRecipient The recipient of the refund.\n   * @param tipRecipient The recipient of the tip.\n   * @param _gatewayFeeRecipient The recipient of the gateway fee. Unused.\n   * @param baseFeeRecipient The recipient of the base fee.\n   * @param refundAmount The amount to refund (in adapted token digits).\n   * @param tipAmount The amount to tip (in adapted token digits).\n   * @param _gatewayFeeAmount The amount of the gateway fee (in adapted token digits). Unused.\n   * @param baseFeeAmount The amount of the base fee (in adapted token digits).\n   */\n  function creditGasFees(\n    address refundRecipient,\n    address tipRecipient,\n    address _gatewayFeeRecipient,\n    address baseFeeRecipient,\n    uint256 refundAmount,\n    uint256 tipAmount,\n    uint256 _gatewayFeeAmount,\n    uint256 baseFeeAmount\n  ) external onlyVm {\n    if (debited == 0) {\n      // When eth.estimateGas is called, this function is called but we don't want to credit anything.\n      return;\n    }\n\n    uint256 refundScaled = downscale(refundAmount);\n    uint256 tipTxFeeScaled = downscale(tipAmount);\n    uint256 baseTxFeeScaled = downscale(baseFeeAmount);\n\n    require(\n      refundScaled + tipTxFeeScaled + baseTxFeeScaled <= debited,\n      \"Cannot credit more than debited.\"\n    );\n\n    uint256 roundingError = debited - (refundScaled + tipTxFeeScaled + baseTxFeeScaled);\n\n    if (roundingError > 0) {\n      baseTxFeeScaled += roundingError;\n    }\n    adaptedToken.creditGasFees(\n      refundRecipient,\n      tipRecipient,\n      address(0),\n      baseFeeRecipient,\n      refundScaled,\n      tipTxFeeScaled,\n      0,\n      baseTxFeeScaled\n    );\n\n    debited = 0;\n  }\n\n  /**\n   * @notice Returns adapted token address.\n   * @return The adapted token address.\n   */\n  function getAdaptedToken() external view returns (address) {\n    return address(adaptedToken);\n  }\n\n  /**\n     * @notice Gets the balance of the specified address with correct digits.\n     * @param account The address to query the balance of.\n     * @return The balance of the specified address.\n     */\n  function balanceOf(address account) external view returns (uint256) {\n    return upscale(adaptedToken.balanceOf(account));\n  }\n\n  /**\n   * @notice Gets the total supply with correct digits.\n   * @return The total supply.\n   */\n  function totalSupply() external view returns (uint256) {\n    return upscale(adaptedToken.totalSupply());\n  }\n\n  /**\n   * @notice Gets the total supply with correct digits.\n   * @return The total supply.\n   */\n  function decimals() external view returns (uint8) {\n    return expectedDecimals;\n  }\n\n  function upscale(uint256 value) internal view returns (uint256) {\n    return value * digitDifference;\n  }\n\n  /**\n   * @notice Downscales value to the adapted token's native digits.\n   * @dev Downscale is rounding up in favour of protocol. User possibly can pay a bit more than expected (up to 1 unit of a token).\n   * Example:\n   * USDC has 6 decimals and in such case user can pay up to 0.000001 USDC more than expected.\n   * WBTC (currently not supported by Celo chain as fee currency) has 8 decimals and in such case user can pay up to 0.00000001 WBTC more than expected.\n   * Considering the current price of WBTC, it's less than 0.0005 USD. Even when WBTC price would be 1 mil USD, it's still would be only 0.01 USD.\n   * In general it is a very small amount and it is acceptable to round up in favor of the protocol.\n   * @param value The value to downscale. \n   */\n  function downscale(uint256 value) internal view returns (uint256) {\n    return (value + digitDifference - 1) / digitDifference;\n  }\n\n  function _setAdaptedToken(address _adaptedToken) internal virtual {\n    adaptedToken = IFeeCurrency(_adaptedToken);\n  }\n}\n",
  "sourcePath": "/Users/beaver/Development/celo/celo-monorepo/packages/protocol/contracts-0.8/stability/FeeCurrencyAdapter.sol",
  "compiler": {
    "name": "solc",
    "version": "0.8.19+commit.7dd6d404.Emscripten.clang"
  },
  "schemaVersion": "3.4.13",
  "updatedAt": "2024-03-05T15:18:07.411Z",
  "devdoc": {
    "kind": "dev",
    "methods": {
      "balanceOf(address)": {
        "params": {
          "account": "The address to query the balance of."
        },
        "returns": {
          "_0": "The balance of the specified address."
        }
      },
      "constructor": {
        "params": {
          "test": "Set to true to skip implementation initialization"
        }
      },
      "creditGasFees(address,address,address,address,uint256,uint256,uint256,uint256)": {
        "params": {
          "_gatewayFeeAmount": "The amount of the gateway fee (in adapted token digits). Unused.",
          "_gatewayFeeRecipient": "The recipient of the gateway fee. Unused.",
          "baseFeeAmount": "The amount of the base fee (in adapted token digits).",
          "baseFeeRecipient": "The recipient of the base fee.",
          "refundAmount": "The amount to refund (in adapted token digits).",
          "refundRecipient": "The recipient of the refund.",
          "tipAmount": "The amount to tip (in adapted token digits).",
          "tipRecipient": "The recipient of the tip."
        }
      },
      "debitGasFees(address,uint256)": {
        "params": {
          "from": "from address",
          "value": "Debited value in the adapted digits."
        }
      },
      "decimals()": {
        "returns": {
          "_0": "The total supply."
        }
      },
      "getAdaptedToken()": {
        "returns": {
          "_0": "The adapted token address."
        }
      },
      "initialize(address,string,string,uint8)": {
        "params": {
          "_adaptedToken": "The address of the adapted token.",
          "_expectedDecimals": "The expected number of decimals of the adapted token.",
          "_name": "The name of the adapted token.",
          "_symbol": "The symbol of the adapted token."
        }
      },
      "totalSupply()": {
        "returns": {
          "_0": "The total supply."
        }
      }
    },
    "version": 1
  },
  "userdoc": {
    "kind": "user",
    "methods": {
      "balanceOf(address)": {
        "notice": "Gets the balance of the specified address with correct digits."
      },
      "constructor": {
        "notice": "Sets initialized == true on implementation contracts"
      },
      "creditGasFees(address,address,address,address,uint256,uint256,uint256,uint256)": {
        "notice": "Downscales value to the adapted token's native digits and credits it."
      },
      "debitGasFees(address,uint256)": {
        "notice": "Downscales value to the adapted token's native digits and debits it."
      },
      "decimals()": {
        "notice": "Gets the total supply with correct digits."
      },
      "getAdaptedToken()": {
        "notice": "Returns adapted token address."
      },
      "initialize(address,string,string,uint8)": {
        "notice": "Used in place of the constructor to allow the contract to be upgradable via proxy._expectedDecimals must be bigger than _adaptedToken.decimals()."
      },
      "totalSupply()": {
        "notice": "Gets the total supply with correct digits."
      }
    },
    "version": 1
  }
}