{
  "contractName": "GasPriceMinimum",
  "abi": [
    {
      "inputs": [
        {
          "internalType": "bool",
          "name": "test",
          "type": "bool"
        }
      ],
      "stateMutability": "nonpayable",
      "type": "constructor"
    },
    {
      "anonymous": false,
      "inputs": [
        {
          "indexed": false,
          "internalType": "uint256",
          "name": "adjustmentSpeed",
          "type": "uint256"
        }
      ],
      "name": "AdjustmentSpeedSet",
      "type": "event"
    },
    {
      "anonymous": false,
      "inputs": [
        {
          "indexed": false,
          "internalType": "uint256",
          "name": "baseFeeOpCodeActivationBlock",
          "type": "uint256"
        }
      ],
      "name": "BaseFeeOpCodeActivationBlockSet",
      "type": "event"
    },
    {
      "anonymous": false,
      "inputs": [
        {
          "indexed": false,
          "internalType": "uint256",
          "name": "gasPriceMinimumFloor",
          "type": "uint256"
        }
      ],
      "name": "GasPriceMinimumFloorSet",
      "type": "event"
    },
    {
      "anonymous": false,
      "inputs": [
        {
          "indexed": false,
          "internalType": "uint256",
          "name": "gasPriceMinimum",
          "type": "uint256"
        }
      ],
      "name": "GasPriceMinimumUpdated",
      "type": "event"
    },
    {
      "anonymous": false,
      "inputs": [
        {
          "indexed": true,
          "internalType": "address",
          "name": "previousOwner",
          "type": "address"
        },
        {
          "indexed": true,
          "internalType": "address",
          "name": "newOwner",
          "type": "address"
        }
      ],
      "name": "OwnershipTransferred",
      "type": "event"
    },
    {
      "anonymous": false,
      "inputs": [
        {
          "indexed": true,
          "internalType": "address",
          "name": "registryAddress",
          "type": "address"
        }
      ],
      "name": "RegistrySet",
      "type": "event"
    },
    {
      "anonymous": false,
      "inputs": [
        {
          "indexed": false,
          "internalType": "uint256",
          "name": "targetDensity",
          "type": "uint256"
        }
      ],
      "name": "TargetDensitySet",
      "type": "event"
    },
    {
      "inputs": [],
      "name": "adjustmentSpeed",
      "outputs": [
        {
          "internalType": "uint256",
          "name": "value",
          "type": "uint256"
        }
      ],
      "stateMutability": "view",
      "type": "function"
    },
    {
      "inputs": [],
      "name": "baseFeeOpCodeActivationBlock",
      "outputs": [
        {
          "internalType": "uint256",
          "name": "",
          "type": "uint256"
        }
      ],
      "stateMutability": "view",
      "type": "function"
    },
    {
      "inputs": [],
      "name": "deprecated_gasPriceMinimum",
      "outputs": [
        {
          "internalType": "uint256",
          "name": "",
          "type": "uint256"
        }
      ],
      "stateMutability": "view",
      "type": "function"
    },
    {
      "inputs": [],
      "name": "gasPriceMinimumFloor",
      "outputs": [
        {
          "internalType": "uint256",
          "name": "",
          "type": "uint256"
        }
      ],
      "stateMutability": "view",
      "type": "function"
    },
    {
      "inputs": [],
      "name": "initialized",
      "outputs": [
        {
          "internalType": "bool",
          "name": "",
          "type": "bool"
        }
      ],
      "stateMutability": "view",
      "type": "function"
    },
    {
      "inputs": [],
      "name": "owner",
      "outputs": [
        {
          "internalType": "address",
          "name": "",
          "type": "address"
        }
      ],
      "stateMutability": "view",
      "type": "function"
    },
    {
      "inputs": [],
      "name": "registry",
      "outputs": [
        {
          "internalType": "contract IRegistry",
          "name": "",
          "type": "address"
        }
      ],
      "stateMutability": "view",
      "type": "function"
    },
    {
      "inputs": [],
      "name": "renounceOwnership",
      "outputs": [],
      "stateMutability": "nonpayable",
      "type": "function"
    },
    {
      "inputs": [
        {
          "internalType": "address",
          "name": "registryAddress",
          "type": "address"
        }
      ],
      "name": "setRegistry",
      "outputs": [],
      "stateMutability": "nonpayable",
      "type": "function"
    },
    {
      "inputs": [],
      "name": "targetDensity",
      "outputs": [
        {
          "internalType": "uint256",
          "name": "value",
          "type": "uint256"
        }
      ],
      "stateMutability": "view",
      "type": "function"
    },
    {
      "inputs": [
        {
          "internalType": "address",
          "name": "newOwner",
          "type": "address"
        }
      ],
      "name": "transferOwnership",
      "outputs": [],
      "stateMutability": "nonpayable",
      "type": "function"
    },
    {
      "inputs": [],
      "name": "getVersionNumber",
      "outputs": [
        {
          "internalType": "uint256",
          "name": "",
          "type": "uint256"
        },
        {
          "internalType": "uint256",
          "name": "",
          "type": "uint256"
        },
        {
          "internalType": "uint256",
          "name": "",
          "type": "uint256"
        },
        {
          "internalType": "uint256",
          "name": "",
          "type": "uint256"
        }
      ],
      "stateMutability": "pure",
      "type": "function"
    },
    {
      "inputs": [
        {
          "internalType": "address",
          "name": "_registryAddress",
          "type": "address"
        },
        {
          "internalType": "uint256",
          "name": "_gasPriceMinimumFloor",
          "type": "uint256"
        },
        {
          "internalType": "uint256",
          "name": "_targetDensity",
          "type": "uint256"
        },
        {
          "internalType": "uint256",
          "name": "_adjustmentSpeed",
          "type": "uint256"
        },
        {
          "internalType": "uint256",
          "name": "_baseFeeOpCodeActivationBlock",
          "type": "uint256"
        }
      ],
      "name": "initialize",
      "outputs": [],
      "stateMutability": "nonpayable",
      "type": "function"
    },
    {
      "inputs": [
        {
          "internalType": "uint256",
          "name": "_adjustmentSpeed",
          "type": "uint256"
        }
      ],
      "name": "setAdjustmentSpeed",
      "outputs": [],
      "stateMutability": "nonpayable",
      "type": "function"
    },
    {
      "inputs": [
        {
          "internalType": "uint256",
          "name": "_targetDensity",
          "type": "uint256"
        }
      ],
      "name": "setTargetDensity",
      "outputs": [],
      "stateMutability": "nonpayable",
      "type": "function"
    },
    {
      "inputs": [
        {
          "internalType": "uint256",
          "name": "_gasPriceMinimumFloor",
          "type": "uint256"
        }
      ],
      "name": "setGasPriceMinimumFloor",
      "outputs": [],
      "stateMutability": "nonpayable",
      "type": "function"
    },
    {
      "inputs": [
        {
          "internalType": "uint256",
          "name": "_baseFeeOpCodeActivationBlock",
          "type": "uint256"
        }
      ],
      "name": "setBaseFeeOpCodeActivationBlock",
      "outputs": [],
      "stateMutability": "nonpayable",
      "type": "function"
    },
    {
      "inputs": [],
      "name": "gasPriceMinimum",
      "outputs": [
        {
          "internalType": "uint256",
          "name": "",
          "type": "uint256"
        }
      ],
      "stateMutability": "view",
      "type": "function"
    },
    {
      "inputs": [
        {
          "internalType": "address",
          "name": "tokenAddress",
          "type": "address"
        }
      ],
      "name": "getGasPriceMinimum",
      "outputs": [
        {
          "internalType": "uint256",
          "name": "",
          "type": "uint256"
        }
      ],
      "stateMutability": "view",
      "type": "function"
    },
    {
      "inputs": [
        {
          "internalType": "uint256",
          "name": "blockGasTotal",
          "type": "uint256"
        },
        {
          "internalType": "uint256",
          "name": "blockGasLimit",
          "type": "uint256"
        }
      ],
      "name": "updateGasPriceMinimum",
      "outputs": [
        {
          "internalType": "uint256",
          "name": "",
          "type": "uint256"
        }
      ],
      "stateMutability": "nonpayable",
      "type": "function"
    },
    {
      "inputs": [
        {
          "internalType": "uint256",
          "name": "blockGasTotal",
          "type": "uint256"
        },
        {
          "internalType": "uint256",
          "name": "blockGasLimit",
          "type": "uint256"
        }
      ],
      "name": "getUpdatedGasPriceMinimum",
      "outputs": [
        {
          "internalType": "uint256",
          "name": "",
          "type": "uint256"
        }
      ],
      "stateMutability": "view",
      "type": "function"
    }
  ],
  "bytecode": "0x60806040523480156200001157600080fd5b506040516200285c3803806200285c833981810160405281019062000037919062000190565b80620000586200004c6200008260201b60201c565b6200008a60201b60201c565b806200007a576001600060146101000a81548160ff0219169083151502179055505b5050620001c2565b600033905090565b60008060009054906101000a900473ffffffffffffffffffffffffffffffffffffffff169050816000806101000a81548173ffffffffffffffffffffffffffffffffffffffff021916908373ffffffffffffffffffffffffffffffffffffffff1602179055508173ffffffffffffffffffffffffffffffffffffffff168173ffffffffffffffffffffffffffffffffffffffff167f8be0079c531659141344cd1fd0a4f28419497f9722a3daafe3b4186f6b6457e060405160405180910390a35050565b600080fd5b60008115159050919050565b6200016a8162000153565b81146200017657600080fd5b50565b6000815190506200018a816200015f565b92915050565b600060208284031215620001a957620001a86200014e565b5b6000620001b98482850162000179565b91505092915050565b61268a80620001d26000396000f3fe608060405234801561001057600080fd5b50600436106101375760003560e01c806393ca6fc4116100b8578063c12398b41161007c578063c12398b4146102f5578063ceff0bd614610325578063ef712c5b14610343578063f2fde38b14610373578063f8e2b0621461038f578063f92ad219146103ad57610137565b806393ca6fc414610253578063a54b7fc01461026f578063a68f548e1461029f578063a91ee0dc146102bd578063b830f4a4146102d957610137565b806354255be0116100ff57806354255be0146101ce578063715018a6146101ef5780637b103999146101f95780638da5cb5b146102175780638efd92ca1461023557610137565b8063158ef93e1461013c57806330f726b91461015a57806336945c2d146101765780634a3d5fe2146101945780634b930e5a146101b2575b600080fd5b6101446103c9565b60405161015191906117ae565b60405180910390f35b610174600480360381019061016f9190611804565b6103dc565b005b61017e6104a5565b60405161018b9190611840565b60405180910390f35b61019c6104d0565b6040516101a99190611840565b60405180910390f35b6101cc60048036038101906101c79190611804565b6104dc565b005b6101d66104f2565b6040516101e6949392919061185b565b60405180910390f35b6101f761050d565b005b610201610521565b60405161020e919061191f565b60405180910390f35b61021f610547565b60405161022c919061195b565b60405180910390f35b61023d610570565b60405161024a9190611840565b60405180910390f35b61026d60048036038101906102689190611804565b610576565b005b610289600480360381019061028491906119a2565b61063f565b6040516102969190611840565b60405180910390f35b6102a76108ea565b6040516102b49190611840565b60405180910390f35b6102d760048036038101906102d291906119a2565b6108f6565b005b6102f360048036038101906102ee9190611804565b6109f4565b005b61030f600480360381019061030a91906119cf565b610a80565b60405161031c9190611840565b60405180910390f35b61032d610b44565b60405161033a9190611840565b60405180910390f35b61035d600480360381019061035891906119cf565b610b4a565b60405161036a9190611840565b60405180910390f35b61038d600480360381019061038891906119a2565b610ce2565b005b610397610d65565b6040516103a49190611840565b60405180910390f35b6103c760048036038101906103c29190611a0f565b610d6b565b005b600060149054906101000a900460ff1681565b6103e4610e1c565b6103ed81610e9a565b60056000820151816000015590505061042c610407610eb8565b6005604051806020016040529081600082015481525050610ede90919063ffffffff16565b61046b576040517f08c379a000000000000000000000000000000000000000000000000000000000815260040161046290611b0d565b60405180910390fd5b7fd2e71cd7012df1df07d4908ff75ae4b2bfbb6c49d39144404661f1fd472532838160405161049a9190611840565b60405180910390a150565b6000806006541180156104ba57506006544310155b156104c7574890506104cd565b60025490505b90565b60048060000154905081565b6104e4610e1c565b6104ef816000610ef3565b50565b60008060008060016002600080935093509350935090919293565b610515610e1c565b61051f6000610f88565b565b600160009054906101000a900473ffffffffffffffffffffffffffffffffffffffff1681565b60008060009054906101000a900473ffffffffffffffffffffffffffffffffffffffff16905090565b60065481565b61057e610e1c565b61058781610e9a565b6004600082015181600001559050506105c66105a1610eb8565b6004604051806020016040529081600082015481525050610ede90919063ffffffff16565b610605576040517f08c379a00000000000000000000000000000000000000000000000000000000081526004016105fc90611b9f565b60405180910390fd5b7f2a109bad06121312708ed2a3e9b3556ea85ef8eadd4d10d8181f50d114eb4fab816040516106349190611840565b60405180910390a150565b60008073ffffffffffffffffffffffffffffffffffffffff168273ffffffffffffffffffffffffffffffffffffffff1614806107655750600160009054906101000a900473ffffffffffffffffffffffffffffffffffffffff1673ffffffffffffffffffffffffffffffffffffffff1663dcf0aaed6040516020016106c390611c16565b604051602081830303815290604052805190602001206040518263ffffffff1660e01b81526004016106f59190611c44565b602060405180830381865afa158015610712573d6000803e3d6000fd5b505050506040513d601f19601f820116820180604052508101906107369190611c74565b73ffffffffffffffffffffffffffffffffffffffff168273ffffffffffffffffffffffffffffffffffffffff16145b15610779576107726104a5565b90506108e5565b6000600160009054906101000a900473ffffffffffffffffffffffffffffffffffffffff1673ffffffffffffffffffffffffffffffffffffffff1663dcf0aaed6040516020016107c890611ced565b604051602081830303815290604052805190602001206040518263ffffffff1660e01b81526004016107fa9190611c44565b602060405180830381865afa158015610817573d6000803e3d6000fd5b505050506040513d601f19601f8201168201806040525081019061083b9190611c74565b90506000808273ffffffffffffffffffffffffffffffffffffffff1663ef90e1b0866040518263ffffffff1660e01b8152600401610879919061195b565b6040805180830381865afa158015610895573d6000803e3d6000fd5b505050506040513d601f19601f820116820180604052508101906108b99190611d17565b809250819350505080826108cb6104a5565b6108d59190611d86565b6108df9190611df7565b93505050505b919050565b60058060000154905081565b6108fe610e1c565b600073ffffffffffffffffffffffffffffffffffffffff168173ffffffffffffffffffffffffffffffffffffffff160361096d576040517f08c379a000000000000000000000000000000000000000000000000000000000815260040161096490611e74565b60405180910390fd5b80600160006101000a81548173ffffffffffffffffffffffffffffffffffffffff021916908373ffffffffffffffffffffffffffffffffffffffff1602179055508073ffffffffffffffffffffffffffffffffffffffff167f27fe5f0c1c3b1ed427cc63d0f05759ffdecf9aec9e18d31ef366fc8a6cb5dc3b60405160405180910390a250565b6109fc610e1c565b60008111610a3f576040517f08c379a0000000000000000000000000000000000000000000000000000000008152600401610a3690611f06565b60405180910390fd5b806003819055507f5548a13ccc1d9e4e2860461edda5ad49ba8a4fda485f67d954f9d7da8d2aff2781604051610a759190611840565b60405180910390a150565b60008073ffffffffffffffffffffffffffffffffffffffff163373ffffffffffffffffffffffffffffffffffffffff1614610af0576040517f08c379a0000000000000000000000000000000000000000000000000000000008152600401610ae790611f72565b60405180910390fd5b610afa8383610b4a565b6002819055507f6e53b2f8b69496c2a175588ad1326dbabe2f66df4d82f817aeca52e3474807fb600254604051610b319190611840565b60405180910390a1600254905092915050565b60035481565b600080610b57848461104c565b90506000610b8460046040518060200160405290816000820154815250508361108290919063ffffffff16565b9050600081610bbb57610bb683600460405180602001604052908160008201548152505061109790919063ffffffff16565b610be5565b610be460046040518060200160405290816000820154815250508461109790919063ffffffff16565b5b9050600082610c3557610c30610c1a83600560405180602001604052908160008201548152505061111490919063ffffffff16565b610c22610eb8565b61109790919063ffffffff16565b610c78565b610c77610c6183600560405180602001604052908160008201548152505061111490919063ffffffff16565b610c69610eb8565b6114ab90919063ffffffff16565b5b90506000610cbf610cba610c8a610eb8565b610cac610c9d610c986104a5565b61152a565b8661111490919063ffffffff16565b6114ab90919063ffffffff16565b6115a7565b9050600354811015610cd357600354610cd5565b805b9550505050505092915050565b610cea610e1c565b600073ffffffffffffffffffffffffffffffffffffffff168173ffffffffffffffffffffffffffffffffffffffff1603610d59576040517f08c379a0000000000000000000000000000000000000000000000000000000008152600401610d5090612004565b60405180910390fd5b610d6281610f88565b50565b60025481565b600060149054906101000a900460ff1615610dbb576040517f08c379a0000000000000000000000000000000000000000000000000000000008152600401610db290612070565b60405180910390fd5b6001600060146101000a81548160ff021916908315150217905550610ddf33610f88565b610de8856108f6565b83600281905550610df8846109f4565b610e0183610576565b610e0a826103dc565b610e15816001610ef3565b5050505050565b610e246115ca565b73ffffffffffffffffffffffffffffffffffffffff16610e42610547565b73ffffffffffffffffffffffffffffffffffffffff1614610e98576040517f08c379a0000000000000000000000000000000000000000000000000000000008152600401610e8f906120dc565b60405180910390fd5b565b610ea2611780565b6040518060200160405280838152509050919050565b610ec0611780565b604051806020016040528069d3c21bcecceda1000000815250905090565b60008160000151836000015110905092915050565b610efb610e1c565b8080610f075750600082115b610f46576040517f08c379a0000000000000000000000000000000000000000000000000000000008152600401610f3d9061216e565b60405180910390fd5b816006819055507fc74fe30765574b78669fcec5cea6b0dcaacd907890a49fc756a40235d01b09fc82604051610f7c9190611840565b60405180910390a15050565b60008060009054906101000a900473ffffffffffffffffffffffffffffffffffffffff169050816000806101000a81548173ffffffffffffffffffffffffffffffffffffffff021916908373ffffffffffffffffffffffffffffffffffffffff1602179055508173ffffffffffffffffffffffffffffffffffffffff168173ffffffffffffffffffffffffffffffffffffffff167f8be0079c531659141344cd1fd0a4f28419497f9722a3daafe3b4186f6b6457e060405160405180910390a35050565b611054611780565b600061105f8461152a565b9050600061106c8461152a565b905061107882826115d2565b9250505092915050565b60008160000151836000015111905092915050565b61109f611780565b8160000151836000015110156110ea576040517f08c379a00000000000000000000000000000000000000000000000000000000081526004016110e1906121da565b60405180910390fd5b60405180602001604052808360000151856000015161110991906121fa565b815250905092915050565b61111c611780565b600083600001511480611133575060008260000151145b1561114f576040518060200160405280600081525090506114a5565b69d3c21bcecceda100000082600001510361116c578290506114a5565b69d3c21bcecceda1000000836000015103611189578190506114a5565b600069d3c21bcecceda100000061119f856116c1565b600001516111ad9190611df7565b905060006111ba85611703565b600001519050600069d3c21bcecceda10000006111d6866116c1565b600001516111e49190611df7565b905060006111f186611703565b600001519050600082856112059190611d86565b90506000851461125d5782858261121c9190611df7565b1461125c576040517f08c379a00000000000000000000000000000000000000000000000000000000081526004016112539061227a565b60405180910390fd5b5b600069d3c21bcecceda1000000826112759190611d86565b9050600082146112d75769d3c21bcecceda100000082826112969190611df7565b146112d6576040517f08c379a00000000000000000000000000000000000000000000000000000000081526004016112cd906122e6565b60405180910390fd5b5b809150600084866112e89190611d86565b905060008614611340578486826112ff9190611df7565b1461133f576040517f08c379a000000000000000000000000000000000000000000000000000000000815260040161133690612352565b60405180910390fd5b5b6000848861134e9190611d86565b9050600088146113a6578488826113659190611df7565b146113a5576040517f08c379a000000000000000000000000000000000000000000000000000000000815260040161139c906123be565b60405180910390fd5b5b6113ae611754565b876113b99190611df7565b96506113c3611754565b856113ce9190611df7565b9450600085886113de9190611d86565b905060008814611436578588826113f59190611df7565b14611435576040517f08c379a000000000000000000000000000000000000000000000000000000000815260040161142c9061242a565b60405180910390fd5b5b60006040518060200160405280878152509050611461816040518060200160405280878152506114ab565b905061147b816040518060200160405280868152506114ab565b9050611495816040518060200160405280858152506114ab565b9050809a50505050505050505050505b92915050565b6114b3611780565b6000826000015184600001516114c9919061244a565b90508360000151811015611512576040517f08c379a0000000000000000000000000000000000000000000000000000000008152600401611509906124ca565b60405180910390fd5b60405180602001604052808281525091505092915050565b611532611780565b61153a611761565b82111561157c576040517f08c379a00000000000000000000000000000000000000000000000000000000081526004016115739061255c565b60405180910390fd5b604051806020016040528069d3c21bcecceda10000008461159d9190611d86565b8152509050919050565b600069d3c21bcecceda100000082600001516115c39190611df7565b9050919050565b600033905090565b6115da611780565b6000826000015103611621576040517f08c379a0000000000000000000000000000000000000000000000000000000008152600401611618906125c8565b60405180910390fd5b600069d3c21bcecceda1000000846000015161163d9190611d86565b9050836000015169d3c21bcecceda10000008261165a9190611df7565b1461169a576040517f08c379a000000000000000000000000000000000000000000000000000000000815260040161169190612634565b60405180910390fd5b60405180602001604052808460000151836116b59190611df7565b81525091505092915050565b6116c9611780565b604051806020016040528069d3c21bcecceda10000008085600001516116ef9190611df7565b6116f99190611d86565b8152509050919050565b61170b611780565b604051806020016040528069d3c21bcecceda10000008085600001516117319190611df7565b61173b9190611d86565b846000015161174a91906121fa565b8152509050919050565b600064e8d4a51000905090565b60007601357c299a88ea76a58924d52ce4f26a85af186c2b9e74905090565b6040518060200160405280600081525090565b60008115159050919050565b6117a881611793565b82525050565b60006020820190506117c3600083018461179f565b92915050565b600080fd5b6000819050919050565b6117e1816117ce565b81146117ec57600080fd5b50565b6000813590506117fe816117d8565b92915050565b60006020828403121561181a576118196117c9565b5b6000611828848285016117ef565b91505092915050565b61183a816117ce565b82525050565b60006020820190506118556000830184611831565b92915050565b60006080820190506118706000830187611831565b61187d6020830186611831565b61188a6040830185611831565b6118976060830184611831565b95945050505050565b600073ffffffffffffffffffffffffffffffffffffffff82169050919050565b6000819050919050565b60006118e56118e06118db846118a0565b6118c0565b6118a0565b9050919050565b60006118f7826118ca565b9050919050565b6000611909826118ec565b9050919050565b611919816118fe565b82525050565b60006020820190506119346000830184611910565b92915050565b6000611945826118a0565b9050919050565b6119558161193a565b82525050565b6000602082019050611970600083018461194c565b92915050565b61197f8161193a565b811461198a57600080fd5b50565b60008135905061199c81611976565b92915050565b6000602082840312156119b8576119b76117c9565b5b60006119c68482850161198d565b91505092915050565b600080604083850312156119e6576119e56117c9565b5b60006119f4858286016117ef565b9250506020611a05858286016117ef565b9150509250929050565b600080600080600060a08688031215611a2b57611a2a6117c9565b5b6000611a398882890161198d565b9550506020611a4a888289016117ef565b9450506040611a5b888289016117ef565b9350506060611a6c888289016117ef565b9250506080611a7d888289016117ef565b9150509295509295909350565b600082825260208201905092915050565b7f61646a7573746d656e74207370656564206d75737420626520736d616c6c657260008201527f207468616e203100000000000000000000000000000000000000000000000000602082015250565b6000611af7602783611a8a565b9150611b0282611a9b565b604082019050919050565b60006020820190508181036000830152611b2681611aea565b9050919050565b7f7461726765742064656e73697479206d75737420626520736d616c6c6572207460008201527f68616e2031000000000000000000000000000000000000000000000000000000602082015250565b6000611b89602583611a8a565b9150611b9482611b2d565b604082019050919050565b60006020820190508181036000830152611bb881611b7c565b9050919050565b600081905092915050565b7f476f6c64546f6b656e0000000000000000000000000000000000000000000000600082015250565b6000611c00600983611bbf565b9150611c0b82611bca565b600982019050919050565b6000611c2182611bf3565b9150819050919050565b6000819050919050565b611c3e81611c2b565b82525050565b6000602082019050611c596000830184611c35565b92915050565b600081519050611c6e81611976565b92915050565b600060208284031215611c8a57611c896117c9565b5b6000611c9884828501611c5f565b91505092915050565b7f536f727465644f7261636c657300000000000000000000000000000000000000600082015250565b6000611cd7600d83611bbf565b9150611ce282611ca1565b600d82019050919050565b6000611cf882611cca565b9150819050919050565b600081519050611d11816117d8565b92915050565b60008060408385031215611d2e57611d2d6117c9565b5b6000611d3c85828601611d02565b9250506020611d4d85828601611d02565b9150509250929050565b7f4e487b7100000000000000000000000000000000000000000000000000000000600052601160045260246000fd5b6000611d91826117ce565b9150611d9c836117ce565b9250828202611daa816117ce565b91508282048414831517611dc157611dc0611d57565b5b5092915050565b7f4e487b7100000000000000000000000000000000000000000000000000000000600052601260045260246000fd5b6000611e02826117ce565b9150611e0d836117ce565b925082611e1d57611e1c611dc8565b5b828204905092915050565b7f43616e6e6f7420726567697374657220746865206e756c6c2061646472657373600082015250565b6000611e5e602083611a8a565b9150611e6982611e28565b602082019050919050565b60006020820190508181036000830152611e8d81611e51565b9050919050565b7f676173207072696365206d696e696d756d20666c6f6f72206d7573742062652060008201527f67726561746572207468616e207a65726f000000000000000000000000000000602082015250565b6000611ef0603183611a8a565b9150611efb82611e94565b604082019050919050565b60006020820190508181036000830152611f1f81611ee3565b9050919050565b7f4f6e6c7920564d2063616e2063616c6c00000000000000000000000000000000600082015250565b6000611f5c601083611a8a565b9150611f6782611f26565b602082019050919050565b60006020820190508181036000830152611f8b81611f4f565b9050919050565b7f4f776e61626c653a206e6577206f776e657220697320746865207a65726f206160008201527f6464726573730000000000000000000000000000000000000000000000000000602082015250565b6000611fee602683611a8a565b9150611ff982611f92565b604082019050919050565b6000602082019050818103600083015261201d81611fe1565b9050919050565b7f636f6e747261637420616c726561647920696e697469616c697a656400000000600082015250565b600061205a601c83611a8a565b915061206582612024565b602082019050919050565b600060208201905081810360008301526120898161204d565b9050919050565b7f4f776e61626c653a2063616c6c6572206973206e6f7420746865206f776e6572600082015250565b60006120c6602083611a8a565b91506120d182612090565b602082019050919050565b600060208201905081810360008301526120f5816120b9565b9050919050565b7f62617365466565206f70436f64652061637469766174696f6e20626c6f636b2060008201527f6d7573742062652067726561746572207468616e207a65726f00000000000000602082015250565b6000612158603983611a8a565b9150612163826120fc565b604082019050919050565b600060208201905081810360008301526121878161214b565b9050919050565b7f737562737472616374696f6e20756e646572666c6f7720646574656374656400600082015250565b60006121c4601f83611a8a565b91506121cf8261218e565b602082019050919050565b600060208201905081810360008301526121f3816121b7565b9050919050565b6000612205826117ce565b9150612210836117ce565b925082820390508181111561222857612227611d57565b5b92915050565b7f6f766572666c6f77207831793120646574656374656400000000000000000000600082015250565b6000612264601683611a8a565b915061226f8261222e565b602082019050919050565b6000602082019050818103600083015261229381612257565b9050919050565b7f6f766572666c6f772078317931202a2066697865643120646574656374656400600082015250565b60006122d0601f83611a8a565b91506122db8261229a565b602082019050919050565b600060208201905081810360008301526122ff816122c3565b9050919050565b7f6f766572666c6f77207832793120646574656374656400000000000000000000600082015250565b600061233c601683611a8a565b915061234782612306565b602082019050919050565b6000602082019050818103600083015261236b8161232f565b9050919050565b7f6f766572666c6f77207831793220646574656374656400000000000000000000600082015250565b60006123a8601683611a8a565b91506123b382612372565b602082019050919050565b600060208201905081810360008301526123d78161239b565b9050919050565b7f6f766572666c6f77207832793220646574656374656400000000000000000000600082015250565b6000612414601683611a8a565b915061241f826123de565b602082019050919050565b6000602082019050818103600083015261244381612407565b9050919050565b6000612455826117ce565b9150612460836117ce565b925082820190508082111561247857612477611d57565b5b92915050565b7f616464206f766572666c6f772064657465637465640000000000000000000000600082015250565b60006124b4601583611a8a565b91506124bf8261247e565b602082019050919050565b600060208201905081810360008301526124e3816124a7565b9050919050565b7f63616e277420637265617465206669786964697479206e756d626572206c617260008201527f676572207468616e206d61784e65774669786564282900000000000000000000602082015250565b6000612546603683611a8a565b9150612551826124ea565b604082019050919050565b6000602082019050818103600083015261257581612539565b9050919050565b7f63616e2774206469766964652062792030000000000000000000000000000000600082015250565b60006125b2601183611a8a565b91506125bd8261257c565b602082019050919050565b600060208201905081810360008301526125e1816125a5565b9050919050565b7f6f766572666c6f77206174206469766964650000000000000000000000000000600082015250565b600061261e601283611a8a565b9150612629826125e8565b602082019050919050565b6000602082019050818103600083015261264d81612611565b905091905056fea264697066735822122044f8a4f1edd0483df811812d09bbb02f140f48c7aa0f03e3b305b7d2515bcab364736f6c63430008130033",
  "immutableReferences": {},
  "source": "// SPDX-License-Identifier: UNLICENSED\npragma solidity >=0.8.7 <0.8.20;\n\nimport \"@openzeppelin/contracts8/access/Ownable.sol\";\n\nimport \"../../contracts/common/CalledByVm.sol\";\nimport \"../../contracts/common/Initializable.sol\";\nimport \"../../contracts/common/interfaces/ICeloVersionedContract.sol\";\nimport \"../../contracts/common/FixidityLib.sol\";\nimport \"./UsingRegistry.sol\";\nimport \"../../contracts/stability/interfaces/ISortedOracles.sol\";\n\n/**\n * @title Stores and provides gas price minimum for various currencies.\n */\ncontract GasPriceMinimum is\n  ICeloVersionedContract,\n  Ownable,\n  Initializable,\n  UsingRegistry,\n  CalledByVm\n{\n  using FixidityLib for FixidityLib.Fraction;\n\n  event TargetDensitySet(uint256 targetDensity);\n  event GasPriceMinimumFloorSet(uint256 gasPriceMinimumFloor);\n  event AdjustmentSpeedSet(uint256 adjustmentSpeed);\n  event GasPriceMinimumUpdated(uint256 gasPriceMinimum);\n  event BaseFeeOpCodeActivationBlockSet(uint256 baseFeeOpCodeActivationBlock);\n\n  uint256 public deprecated_gasPriceMinimum;\n  uint256 public gasPriceMinimumFloor;\n\n  // Block congestion level targeted by the gas price minimum calculation.\n  FixidityLib.Fraction public targetDensity;\n\n  // Speed of gas price minimum adjustment due to congestion.\n  FixidityLib.Fraction public adjustmentSpeed;\n\n  uint256 public baseFeeOpCodeActivationBlock;\n\n  /**\n   * @notice Sets initialized == true on implementation contracts\n   * @param test Set to true to skip implementation initialization\n   */\n  constructor(bool test) public Initializable(test) {}\n\n  /**\n   * @notice Returns the storage, major, minor, and patch version of the contract.\n   * @return Storage version of the contract.\n   * @return Major version of the contract.\n   * @return Minor version of the contract.\n   * @return Patch version of the contract.\n   */\n  function getVersionNumber() external pure returns (uint256, uint256, uint256, uint256) {\n    return (1, 2, 0, 0);\n  }\n\n  /**\n   * @notice Used in place of the constructor to allow the contract to be upgradable via proxy.\n   * @param _registryAddress The address of the registry core smart contract.\n   * @param _gasPriceMinimumFloor The lowest value the gas price minimum can be.\n   * @param _targetDensity The target gas fullness of blocks, expressed as a fixidity fraction.\n   * @param _adjustmentSpeed How quickly the minimum changes, expressed as a fixidity fraction.\n   * @param _baseFeeOpCodeActivationBlock Block number where the baseFee opCode is activated\n   */\n  function initialize(\n    address _registryAddress,\n    uint256 _gasPriceMinimumFloor,\n    uint256 _targetDensity,\n    uint256 _adjustmentSpeed,\n    uint256 _baseFeeOpCodeActivationBlock\n  ) external initializer {\n    _transferOwnership(msg.sender);\n    setRegistry(_registryAddress);\n    deprecated_gasPriceMinimum = _gasPriceMinimumFloor;\n    setGasPriceMinimumFloor(_gasPriceMinimumFloor);\n    setTargetDensity(_targetDensity);\n    setAdjustmentSpeed(_adjustmentSpeed);\n    _setBaseFeeOpCodeActivationBlock(_baseFeeOpCodeActivationBlock, true);\n  }\n\n  /**\n   * @notice Set a multiplier that impacts how quickly gas price minimum is adjusted.\n   * @param _adjustmentSpeed How quickly the minimum changes, expressed as a fixidity fraction.\n   * @dev Value is expected to be < 1.\n   */\n  function setAdjustmentSpeed(uint256 _adjustmentSpeed) public onlyOwner {\n    adjustmentSpeed = FixidityLib.wrap(_adjustmentSpeed);\n    require(adjustmentSpeed.lt(FixidityLib.fixed1()), \"adjustment speed must be smaller than 1\");\n    emit AdjustmentSpeedSet(_adjustmentSpeed);\n  }\n\n  /**\n   * @notice Set the block density targeted by the gas price minimum algorithm.\n   * @param _targetDensity The target gas fullness of blocks, expressed as a fixidity fraction.\n   * @dev Value is expected to be < 1.\n   */\n  function setTargetDensity(uint256 _targetDensity) public onlyOwner {\n    targetDensity = FixidityLib.wrap(_targetDensity);\n    require(targetDensity.lt(FixidityLib.fixed1()), \"target density must be smaller than 1\");\n    emit TargetDensitySet(_targetDensity);\n  }\n\n  /**\n   * @notice Set the minimum gas price treshold.\n   * @param _gasPriceMinimumFloor The lowest value the gas price minimum can be.\n   * @dev Value is expected to be > 0.\n   */\n  function setGasPriceMinimumFloor(uint256 _gasPriceMinimumFloor) public onlyOwner {\n    require(_gasPriceMinimumFloor > 0, \"gas price minimum floor must be greater than zero\");\n    gasPriceMinimumFloor = _gasPriceMinimumFloor;\n    emit GasPriceMinimumFloorSet(_gasPriceMinimumFloor);\n  }\n\n  /**\n   * @notice Set the activation block of the baseFee opCode.\n   * @param _baseFeeOpCodeActivationBlock Block number where the baseFee opCode is activated\n   * @dev Value is expected to be > 0.\n   */\n  function setBaseFeeOpCodeActivationBlock(uint256 _baseFeeOpCodeActivationBlock)\n    external\n    onlyOwner\n  {\n    _setBaseFeeOpCodeActivationBlock(_baseFeeOpCodeActivationBlock, false);\n  }\n\n  /**\n   * @notice Set the activation block of the baseFee opCode.\n   * @param _baseFeeOpCodeActivationBlock Block number where the baseFee opCode is activated\n   * @dev Value is expected to be > 0.\n   */\n  function _setBaseFeeOpCodeActivationBlock(uint256 _baseFeeOpCodeActivationBlock, bool allowZero)\n    private\n    onlyOwner\n  {\n    require(\n      allowZero || _baseFeeOpCodeActivationBlock > 0,\n      \"baseFee opCode activation block must be greater than zero\"\n    );\n    baseFeeOpCodeActivationBlock = _baseFeeOpCodeActivationBlock;\n    emit BaseFeeOpCodeActivationBlockSet(_baseFeeOpCodeActivationBlock);\n  }\n\n  function gasPriceMinimum() public view returns (uint256) {\n    if (baseFeeOpCodeActivationBlock > 0 && block.number >= baseFeeOpCodeActivationBlock) {\n      return block.basefee;\n    } else {\n      return deprecated_gasPriceMinimum;\n    }\n  }\n\n  /**\n   * @notice Retrieve the current gas price minimum for a currency.\n   * @param tokenAddress The currency the gas price should be in (defaults to gold).\n   * @return current gas price minimum in the requested currency\n   */\n  function getGasPriceMinimum(address tokenAddress) external view returns (uint256) {\n    if (\n      tokenAddress == address(0) ||\n      tokenAddress == registry.getAddressForOrDie(GOLD_TOKEN_REGISTRY_ID)\n    ) {\n      return gasPriceMinimum();\n    } else {\n      ISortedOracles sortedOracles = ISortedOracles(\n        registry.getAddressForOrDie(SORTED_ORACLES_REGISTRY_ID)\n      );\n      uint256 rateNumerator;\n      uint256 rateDenominator;\n      (rateNumerator, rateDenominator) = sortedOracles.medianRate(tokenAddress);\n      return ((gasPriceMinimum() * rateNumerator) / rateDenominator);\n    }\n  }\n\n  /**\n   * @notice Adjust the gas price minimum based on governable parameters\n   * and block congestion.\n   * @param blockGasTotal The amount of gas in the most recent block.\n   * @param blockGasLimit The maxBlockGasLimit of the past block.\n   * @return result of the calculation (new gas price minimum)\n   */\n  function updateGasPriceMinimum(uint256 blockGasTotal, uint256 blockGasLimit)\n    external\n    onlyVm\n    returns (uint256)\n  {\n    deprecated_gasPriceMinimum = getUpdatedGasPriceMinimum(blockGasTotal, blockGasLimit);\n    emit GasPriceMinimumUpdated(deprecated_gasPriceMinimum);\n    return deprecated_gasPriceMinimum;\n  }\n\n  /**\n   * @notice Calculates the gas price minimum based on governable parameters\n   * and block congestion.\n   * @param blockGasTotal The amount of gas in the most recent block.\n   * @param blockGasLimit The maxBlockGasLimit of the past block.\n   * @return result of the calculation (new gas price minimum)\n   * @dev Calculate using the following formula:\n   * oldGasPriceMinimum * (1 + (adjustmentSpeed * (blockDensity - targetDensity))) + 1.\n   */\n  function getUpdatedGasPriceMinimum(uint256 blockGasTotal, uint256 blockGasLimit)\n    public\n    view\n    returns (uint256)\n  {\n    FixidityLib.Fraction memory blockDensity = FixidityLib.newFixedFraction(\n      blockGasTotal,\n      blockGasLimit\n    );\n    bool densityGreaterThanTarget = blockDensity.gt(targetDensity);\n    FixidityLib.Fraction memory densityDelta = densityGreaterThanTarget\n      ? blockDensity.subtract(targetDensity)\n      : targetDensity.subtract(blockDensity);\n    FixidityLib.Fraction memory adjustment = densityGreaterThanTarget\n      ? FixidityLib.fixed1().add(adjustmentSpeed.multiply(densityDelta))\n      : FixidityLib.fixed1().subtract(adjustmentSpeed.multiply(densityDelta));\n\n    uint256 newGasPriceMinimum = adjustment\n      .multiply(FixidityLib.newFixed(gasPriceMinimum()))\n      .add(FixidityLib.fixed1())\n      .fromFixed();\n\n    return newGasPriceMinimum >= gasPriceMinimumFloor ? newGasPriceMinimum : gasPriceMinimumFloor;\n  }\n}\n",
  "compiler": {
    "name": "solc",
    "version": "0.8.19+commit.7dd6d404.Emscripten.clang"
  },
  "schemaVersion": "3.4.13",
  "updatedAt": "2023-11-21T17:20:55.012Z",
  "devdoc": {
    "kind": "dev",
    "methods": {
      "constructor": {
        "params": {
          "test": "Set to true to skip implementation initialization"
        }
      },
      "getGasPriceMinimum(address)": {
        "params": {
          "tokenAddress": "The currency the gas price should be in (defaults to gold)."
        },
        "returns": {
          "_0": "current gas price minimum in the requested currency"
        }
      },
      "getUpdatedGasPriceMinimum(uint256,uint256)": {
        "details": "Calculate using the following formula: oldGasPriceMinimum * (1 + (adjustmentSpeed * (blockDensity - targetDensity))) + 1.",
        "params": {
          "blockGasLimit": "The maxBlockGasLimit of the past block.",
          "blockGasTotal": "The amount of gas in the most recent block."
        },
        "returns": {
          "_0": "result of the calculation (new gas price minimum)"
        }
      },
      "getVersionNumber()": {
        "returns": {
          "_0": "Storage version of the contract.",
          "_1": "Major version of the contract.",
          "_2": "Minor version of the contract.",
          "_3": "Patch version of the contract."
        }
      },
      "initialize(address,uint256,uint256,uint256,uint256)": {
        "params": {
          "_adjustmentSpeed": "How quickly the minimum changes, expressed as a fixidity fraction.",
          "_baseFeeOpCodeActivationBlock": "Block number where the baseFee opCode is activated",
          "_gasPriceMinimumFloor": "The lowest value the gas price minimum can be.",
          "_registryAddress": "The address of the registry core smart contract.",
          "_targetDensity": "The target gas fullness of blocks, expressed as a fixidity fraction."
        }
      },
      "owner()": {
        "details": "Returns the address of the current owner."
      },
      "renounceOwnership()": {
        "details": "Leaves the contract without owner. It will not be possible to call `onlyOwner` functions. Can only be called by the current owner. NOTE: Renouncing ownership will leave the contract without an owner, thereby disabling any functionality that is only available to the owner."
      },
      "setAdjustmentSpeed(uint256)": {
        "details": "Value is expected to be < 1.",
        "params": {
          "_adjustmentSpeed": "How quickly the minimum changes, expressed as a fixidity fraction."
        }
      },
      "setBaseFeeOpCodeActivationBlock(uint256)": {
        "details": "Value is expected to be > 0.",
        "params": {
          "_baseFeeOpCodeActivationBlock": "Block number where the baseFee opCode is activated"
        }
      },
      "setGasPriceMinimumFloor(uint256)": {
        "details": "Value is expected to be > 0.",
        "params": {
          "_gasPriceMinimumFloor": "The lowest value the gas price minimum can be."
        }
      },
      "setRegistry(address)": {
        "params": {
          "registryAddress": "The address of a registry contract for routing to other contracts."
        }
      },
      "setTargetDensity(uint256)": {
        "details": "Value is expected to be < 1.",
        "params": {
          "_targetDensity": "The target gas fullness of blocks, expressed as a fixidity fraction."
        }
      },
      "transferOwnership(address)": {
        "details": "Transfers ownership of the contract to a new account (`newOwner`). Can only be called by the current owner."
      },
      "updateGasPriceMinimum(uint256,uint256)": {
        "params": {
          "blockGasLimit": "The maxBlockGasLimit of the past block.",
          "blockGasTotal": "The amount of gas in the most recent block."
        },
        "returns": {
          "_0": "result of the calculation (new gas price minimum)"
        }
      }
    },
    "title": "Stores and provides gas price minimum for various currencies.",
    "version": 1
  },
  "userdoc": {
    "kind": "user",
    "methods": {
      "constructor": {
        "notice": "Sets initialized == true on implementation contracts"
      },
      "getGasPriceMinimum(address)": {
        "notice": "Retrieve the current gas price minimum for a currency."
      },
      "getUpdatedGasPriceMinimum(uint256,uint256)": {
        "notice": "Calculates the gas price minimum based on governable parameters and block congestion."
      },
      "getVersionNumber()": {
        "notice": "Returns the storage, major, minor, and patch version of the contract."
      },
      "initialize(address,uint256,uint256,uint256,uint256)": {
        "notice": "Used in place of the constructor to allow the contract to be upgradable via proxy."
      },
      "setAdjustmentSpeed(uint256)": {
        "notice": "Set a multiplier that impacts how quickly gas price minimum is adjusted."
      },
      "setBaseFeeOpCodeActivationBlock(uint256)": {
        "notice": "Set the activation block of the baseFee opCode."
      },
      "setGasPriceMinimumFloor(uint256)": {
        "notice": "Set the minimum gas price treshold."
      },
      "setRegistry(address)": {
        "notice": "Updates the address pointing to a Registry contract."
      },
      "setTargetDensity(uint256)": {
        "notice": "Set the block density targeted by the gas price minimum algorithm."
      },
      "updateGasPriceMinimum(uint256,uint256)": {
        "notice": "Adjust the gas price minimum based on governable parameters and block congestion."
      }
    },
    "version": 1
  }
}