{
  "contractName": "GasPriceMinimum",
  "abi": [
    {
      "inputs": [
        {
          "internalType": "bool",
          "name": "test",
          "type": "bool"
        }
      ],
      "stateMutability": "nonpayable",
      "type": "constructor"
    },
    {
      "anonymous": false,
      "inputs": [
        {
          "indexed": false,
          "internalType": "uint256",
          "name": "adjustmentSpeed",
          "type": "uint256"
        }
      ],
      "name": "AdjustmentSpeedSet",
      "type": "event"
    },
    {
      "anonymous": false,
      "inputs": [
        {
          "indexed": false,
          "internalType": "uint256",
          "name": "baseFeeOpCodeActivationBlock",
          "type": "uint256"
        }
      ],
      "name": "BaseFeeOpCodeActivationBlockSet",
      "type": "event"
    },
    {
      "anonymous": false,
      "inputs": [
        {
          "indexed": false,
          "internalType": "uint256",
          "name": "gasPriceMinimumFloor",
          "type": "uint256"
        }
      ],
      "name": "GasPriceMinimumFloorSet",
      "type": "event"
    },
    {
      "anonymous": false,
      "inputs": [
        {
          "indexed": false,
          "internalType": "uint256",
          "name": "gasPriceMinimum",
          "type": "uint256"
        }
      ],
      "name": "GasPriceMinimumUpdated",
      "type": "event"
    },
    {
      "anonymous": false,
      "inputs": [
        {
          "indexed": true,
          "internalType": "address",
          "name": "previousOwner",
          "type": "address"
        },
        {
          "indexed": true,
          "internalType": "address",
          "name": "newOwner",
          "type": "address"
        }
      ],
      "name": "OwnershipTransferred",
      "type": "event"
    },
    {
      "anonymous": false,
      "inputs": [
        {
          "indexed": true,
          "internalType": "address",
          "name": "registryAddress",
          "type": "address"
        }
      ],
      "name": "RegistrySet",
      "type": "event"
    },
    {
      "anonymous": false,
      "inputs": [
        {
          "indexed": false,
          "internalType": "uint256",
          "name": "targetDensity",
          "type": "uint256"
        }
      ],
      "name": "TargetDensitySet",
      "type": "event"
    },
    {
      "inputs": [],
      "name": "ABSOLUTE_MINIMAL_GAS_PRICE",
      "outputs": [
        {
          "internalType": "uint256",
          "name": "",
          "type": "uint256"
        }
      ],
      "stateMutability": "view",
      "type": "function"
    },
    {
      "inputs": [],
      "name": "adjustmentSpeed",
      "outputs": [
        {
          "internalType": "uint256",
          "name": "value",
          "type": "uint256"
        }
      ],
      "stateMutability": "view",
      "type": "function"
    },
    {
      "inputs": [],
      "name": "baseFeeOpCodeActivationBlock",
      "outputs": [
        {
          "internalType": "uint256",
          "name": "",
          "type": "uint256"
        }
      ],
      "stateMutability": "view",
      "type": "function"
    },
    {
      "inputs": [],
      "name": "deprecated_gasPriceMinimum",
      "outputs": [
        {
          "internalType": "uint256",
          "name": "",
          "type": "uint256"
        }
      ],
      "stateMutability": "view",
      "type": "function"
    },
    {
      "inputs": [],
      "name": "gasPriceMinimumFloor",
      "outputs": [
        {
          "internalType": "uint256",
          "name": "",
          "type": "uint256"
        }
      ],
      "stateMutability": "view",
      "type": "function"
    },
    {
      "inputs": [],
      "name": "initialized",
      "outputs": [
        {
          "internalType": "bool",
          "name": "",
          "type": "bool"
        }
      ],
      "stateMutability": "view",
      "type": "function"
    },
    {
      "inputs": [],
      "name": "owner",
      "outputs": [
        {
          "internalType": "address",
          "name": "",
          "type": "address"
        }
      ],
      "stateMutability": "view",
      "type": "function"
    },
    {
      "inputs": [],
      "name": "registry",
      "outputs": [
        {
          "internalType": "contract IRegistry",
          "name": "",
          "type": "address"
        }
      ],
      "stateMutability": "view",
      "type": "function"
    },
    {
      "inputs": [],
      "name": "renounceOwnership",
      "outputs": [],
      "stateMutability": "nonpayable",
      "type": "function"
    },
    {
      "inputs": [
        {
          "internalType": "address",
          "name": "registryAddress",
          "type": "address"
        }
      ],
      "name": "setRegistry",
      "outputs": [],
      "stateMutability": "nonpayable",
      "type": "function"
    },
    {
      "inputs": [],
      "name": "targetDensity",
      "outputs": [
        {
          "internalType": "uint256",
          "name": "value",
          "type": "uint256"
        }
      ],
      "stateMutability": "view",
      "type": "function"
    },
    {
      "inputs": [
        {
          "internalType": "address",
          "name": "newOwner",
          "type": "address"
        }
      ],
      "name": "transferOwnership",
      "outputs": [],
      "stateMutability": "nonpayable",
      "type": "function"
    },
    {
      "inputs": [],
      "name": "getVersionNumber",
      "outputs": [
        {
          "internalType": "uint256",
          "name": "",
          "type": "uint256"
        },
        {
          "internalType": "uint256",
          "name": "",
          "type": "uint256"
        },
        {
          "internalType": "uint256",
          "name": "",
          "type": "uint256"
        },
        {
          "internalType": "uint256",
          "name": "",
          "type": "uint256"
        }
      ],
      "stateMutability": "pure",
      "type": "function"
    },
    {
      "inputs": [
        {
          "internalType": "address",
          "name": "_registryAddress",
          "type": "address"
        },
        {
          "internalType": "uint256",
          "name": "_gasPriceMinimumFloor",
          "type": "uint256"
        },
        {
          "internalType": "uint256",
          "name": "_targetDensity",
          "type": "uint256"
        },
        {
          "internalType": "uint256",
          "name": "_adjustmentSpeed",
          "type": "uint256"
        },
        {
          "internalType": "uint256",
          "name": "_baseFeeOpCodeActivationBlock",
          "type": "uint256"
        }
      ],
      "name": "initialize",
      "outputs": [],
      "stateMutability": "nonpayable",
      "type": "function"
    },
    {
      "inputs": [
        {
          "internalType": "uint256",
          "name": "_adjustmentSpeed",
          "type": "uint256"
        }
      ],
      "name": "setAdjustmentSpeed",
      "outputs": [],
      "stateMutability": "nonpayable",
      "type": "function"
    },
    {
      "inputs": [
        {
          "internalType": "uint256",
          "name": "_targetDensity",
          "type": "uint256"
        }
      ],
      "name": "setTargetDensity",
      "outputs": [],
      "stateMutability": "nonpayable",
      "type": "function"
    },
    {
      "inputs": [
        {
          "internalType": "uint256",
          "name": "_gasPriceMinimumFloor",
          "type": "uint256"
        }
      ],
      "name": "setGasPriceMinimumFloor",
      "outputs": [],
      "stateMutability": "nonpayable",
      "type": "function"
    },
    {
      "inputs": [
        {
          "internalType": "uint256",
          "name": "_baseFeeOpCodeActivationBlock",
          "type": "uint256"
        }
      ],
      "name": "setBaseFeeOpCodeActivationBlock",
      "outputs": [],
      "stateMutability": "nonpayable",
      "type": "function"
    },
    {
      "inputs": [],
      "name": "gasPriceMinimum",
      "outputs": [
        {
          "internalType": "uint256",
          "name": "",
          "type": "uint256"
        }
      ],
      "stateMutability": "view",
      "type": "function"
    },
    {
      "inputs": [
        {
          "internalType": "address",
          "name": "tokenAddress",
          "type": "address"
        }
      ],
      "name": "getGasPriceMinimum",
      "outputs": [
        {
          "internalType": "uint256",
          "name": "",
          "type": "uint256"
        }
      ],
      "stateMutability": "view",
      "type": "function"
    },
    {
      "inputs": [
        {
          "internalType": "uint256",
          "name": "blockGasTotal",
          "type": "uint256"
        },
        {
          "internalType": "uint256",
          "name": "blockGasLimit",
          "type": "uint256"
        }
      ],
      "name": "updateGasPriceMinimum",
      "outputs": [
        {
          "internalType": "uint256",
          "name": "",
          "type": "uint256"
        }
      ],
      "stateMutability": "nonpayable",
      "type": "function"
    },
    {
      "inputs": [
        {
          "internalType": "uint256",
          "name": "blockGasTotal",
          "type": "uint256"
        },
        {
          "internalType": "uint256",
          "name": "blockGasLimit",
          "type": "uint256"
        }
      ],
      "name": "getUpdatedGasPriceMinimum",
      "outputs": [
        {
          "internalType": "uint256",
          "name": "",
          "type": "uint256"
        }
      ],
      "stateMutability": "view",
      "type": "function"
    }
  ],
  "bytecode": "0x60806040523480156200001157600080fd5b50604051620028c0380380620028c0833981810160405281019062000037919062000190565b80620000586200004c6200008260201b60201c565b6200008a60201b60201c565b806200007a576001600060146101000a81548160ff0219169083151502179055505b5050620001c2565b600033905090565b60008060009054906101000a900473ffffffffffffffffffffffffffffffffffffffff169050816000806101000a81548173ffffffffffffffffffffffffffffffffffffffff021916908373ffffffffffffffffffffffffffffffffffffffff1602179055508173ffffffffffffffffffffffffffffffffffffffff168173ffffffffffffffffffffffffffffffffffffffff167f8be0079c531659141344cd1fd0a4f28419497f9722a3daafe3b4186f6b6457e060405160405180910390a35050565b600080fd5b60008115159050919050565b6200016a8162000153565b81146200017657600080fd5b50565b6000815190506200018a816200015f565b92915050565b600060208284031215620001a957620001a86200014e565b5b6000620001b98482850162000179565b91505092915050565b6126ee80620001d26000396000f3fe608060405234801561001057600080fd5b50600436106101425760003560e01c806393ca6fc4116100b8578063c12398b41161007c578063c12398b41461031e578063ceff0bd61461034e578063ef712c5b1461036c578063f2fde38b1461039c578063f8e2b062146103b8578063f92ad219146103d657610142565b806393ca6fc41461027c578063a54b7fc014610298578063a68f548e146102c8578063a91ee0dc146102e6578063b830f4a41461030257610142565b8063541170fd1161010a578063541170fd146101d957806354255be0146101f7578063715018a6146102185780637b103999146102225780638da5cb5b146102405780638efd92ca1461025e57610142565b8063158ef93e1461014757806330f726b91461016557806336945c2d146101815780634a3d5fe21461019f5780634b930e5a146101bd575b600080fd5b61014f6103f2565b60405161015c9190611812565b60405180910390f35b61017f600480360381019061017a9190611868565b610405565b005b6101896104ce565b60405161019691906118a4565b60405180910390f35b6101a76104f9565b6040516101b491906118a4565b60405180910390f35b6101d760048036038101906101d29190611868565b610505565b005b6101e161051b565b6040516101ee91906118a4565b60405180910390f35b6101ff610520565b60405161020f94939291906118bf565b60405180910390f35b61022061053c565b005b61022a610550565b6040516102379190611983565b60405180910390f35b610248610576565b60405161025591906119bf565b60405180910390f35b61026661059f565b60405161027391906118a4565b60405180910390f35b61029660048036038101906102919190611868565b6105a5565b005b6102b260048036038101906102ad9190611a06565b61066e565b6040516102bf91906118a4565b60405180910390f35b6102d061068a565b6040516102dd91906118a4565b60405180910390f35b61030060048036038101906102fb9190611a06565b610696565b005b61031c60048036038101906103179190611868565b610794565b005b61033860048036038101906103339190611a33565b610820565b60405161034591906118a4565b60405180910390f35b6103566108e4565b60405161036391906118a4565b60405180910390f35b61038660048036038101906103819190611a33565b6108ea565b60405161039391906118a4565b60405180910390f35b6103b660048036038101906103b19190611a06565b610a82565b005b6103c0610b05565b6040516103cd91906118a4565b60405180910390f35b6103f060048036038101906103eb9190611a73565b610b0b565b005b600060149054906101000a900460ff1681565b61040d610bbc565b61041681610c3a565b600560008201518160000155905050610455610430610c58565b6005604051806020016040529081600082015481525050610c7e90919063ffffffff16565b610494576040517f08c379a000000000000000000000000000000000000000000000000000000000815260040161048b90611b71565b60405180910390fd5b7fd2e71cd7012df1df07d4908ff75ae4b2bfbb6c49d39144404661f1fd47253283816040516104c391906118a4565b60405180910390a150565b6000806006541180156104e357506006544310155b156104f0574890506104f6565b60025490505b90565b60048060000154905081565b61050d610bbc565b610518816000610c93565b50565b600181565b6000806000806001600260006001935093509350935090919293565b610544610bbc565b61054e6000610d28565b565b600160009054906101000a900473ffffffffffffffffffffffffffffffffffffffff1681565b60008060009054906101000a900473ffffffffffffffffffffffffffffffffffffffff16905090565b60065481565b6105ad610bbc565b6105b681610c3a565b6004600082015181600001559050506105f56105d0610c58565b6004604051806020016040529081600082015481525050610c7e90919063ffffffff16565b610634576040517f08c379a000000000000000000000000000000000000000000000000000000000815260040161062b90611c03565b60405180910390fd5b7f2a109bad06121312708ed2a3e9b3556ea85ef8eadd4d10d8181f50d114eb4fab8160405161066391906118a4565b60405180910390a150565b600061068361067c83610dec565b6001611097565b9050919050565b60058060000154905081565b61069e610bbc565b600073ffffffffffffffffffffffffffffffffffffffff168173ffffffffffffffffffffffffffffffffffffffff160361070d576040517f08c379a000000000000000000000000000000000000000000000000000000000815260040161070490611c6f565b60405180910390fd5b80600160006101000a81548173ffffffffffffffffffffffffffffffffffffffff021916908373ffffffffffffffffffffffffffffffffffffffff1602179055508073ffffffffffffffffffffffffffffffffffffffff167f27fe5f0c1c3b1ed427cc63d0f05759ffdecf9aec9e18d31ef366fc8a6cb5dc3b60405160405180910390a250565b61079c610bbc565b600081116107df576040517f08c379a00000000000000000000000000000000000000000000000000000000081526004016107d690611d01565b60405180910390fd5b806003819055507f5548a13ccc1d9e4e2860461edda5ad49ba8a4fda485f67d954f9d7da8d2aff278160405161081591906118a4565b60405180910390a150565b60008073ffffffffffffffffffffffffffffffffffffffff163373ffffffffffffffffffffffffffffffffffffffff1614610890576040517f08c379a000000000000000000000000000000000000000000000000000000000815260040161088790611d6d565b60405180910390fd5b61089a83836108ea565b6002819055507f6e53b2f8b69496c2a175588ad1326dbabe2f66df4d82f817aeca52e3474807fb6002546040516108d191906118a4565b60405180910390a1600254905092915050565b60035481565b6000806108f784846110b0565b905060006109246004604051806020016040529081600082015481525050836110e690919063ffffffff16565b905060008161095b576109568360046040518060200160405290816000820154815250506110fb90919063ffffffff16565b610985565b6109846004604051806020016040529081600082015481525050846110fb90919063ffffffff16565b5b90506000826109d5576109d06109ba83600560405180602001604052908160008201548152505061117890919063ffffffff16565b6109c2610c58565b6110fb90919063ffffffff16565b610a18565b610a17610a0183600560405180602001604052908160008201548152505061117890919063ffffffff16565b610a09610c58565b61150f90919063ffffffff16565b5b90506000610a5f610a5a610a2a610c58565b610a4c610a3d610a386104ce565b61158e565b8661117890919063ffffffff16565b61150f90919063ffffffff16565b61160b565b9050600354811015610a7357600354610a75565b805b9550505050505092915050565b610a8a610bbc565b600073ffffffffffffffffffffffffffffffffffffffff168173ffffffffffffffffffffffffffffffffffffffff1603610af9576040517f08c379a0000000000000000000000000000000000000000000000000000000008152600401610af090611dff565b60405180910390fd5b610b0281610d28565b50565b60025481565b600060149054906101000a900460ff1615610b5b576040517f08c379a0000000000000000000000000000000000000000000000000000000008152600401610b5290611e6b565b60405180910390fd5b6001600060146101000a81548160ff021916908315150217905550610b7f33610d28565b610b8885610696565b83600281905550610b9884610794565b610ba1836105a5565b610baa82610405565b610bb5816001610c93565b5050505050565b610bc461162e565b73ffffffffffffffffffffffffffffffffffffffff16610be2610576565b73ffffffffffffffffffffffffffffffffffffffff1614610c38576040517f08c379a0000000000000000000000000000000000000000000000000000000008152600401610c2f90611ed7565b60405180910390fd5b565b610c426117e4565b6040518060200160405280838152509050919050565b610c606117e4565b604051806020016040528069d3c21bcecceda1000000815250905090565b60008160000151836000015110905092915050565b610c9b610bbc565b8080610ca75750600082115b610ce6576040517f08c379a0000000000000000000000000000000000000000000000000000000008152600401610cdd90611f69565b60405180910390fd5b816006819055507fc74fe30765574b78669fcec5cea6b0dcaacd907890a49fc756a40235d01b09fc82604051610d1c91906118a4565b60405180910390a15050565b60008060009054906101000a900473ffffffffffffffffffffffffffffffffffffffff169050816000806101000a81548173ffffffffffffffffffffffffffffffffffffffff021916908373ffffffffffffffffffffffffffffffffffffffff1602179055508173ffffffffffffffffffffffffffffffffffffffff168173ffffffffffffffffffffffffffffffffffffffff167f8be0079c531659141344cd1fd0a4f28419497f9722a3daafe3b4186f6b6457e060405160405180910390a35050565b60008073ffffffffffffffffffffffffffffffffffffffff168273ffffffffffffffffffffffffffffffffffffffff161480610f125750600160009054906101000a900473ffffffffffffffffffffffffffffffffffffffff1673ffffffffffffffffffffffffffffffffffffffff1663dcf0aaed604051602001610e7090611fe0565b604051602081830303815290604052805190602001206040518263ffffffff1660e01b8152600401610ea2919061200e565b602060405180830381865afa158015610ebf573d6000803e3d6000fd5b505050506040513d601f19601f82011682018060405250810190610ee3919061203e565b73ffffffffffffffffffffffffffffffffffffffff168273ffffffffffffffffffffffffffffffffffffffff16145b15610f2657610f1f6104ce565b9050611092565b6000600160009054906101000a900473ffffffffffffffffffffffffffffffffffffffff1673ffffffffffffffffffffffffffffffffffffffff1663dcf0aaed604051602001610f75906120b7565b604051602081830303815290604052805190602001206040518263ffffffff1660e01b8152600401610fa7919061200e565b602060405180830381865afa158015610fc4573d6000803e3d6000fd5b505050506040513d601f19601f82011682018060405250810190610fe8919061203e565b90506000808273ffffffffffffffffffffffffffffffffffffffff1663ef90e1b0866040518263ffffffff1660e01b815260040161102691906119bf565b6040805180830381865afa158015611042573d6000803e3d6000fd5b505050506040513d601f19601f8201168201806040525081019061106691906120e1565b809250819350505080826110786104ce565b6110829190612150565b61108c91906121c1565b93505050505b919050565b60008183116110a657816110a8565b825b905092915050565b6110b86117e4565b60006110c38461158e565b905060006110d08461158e565b90506110dc8282611636565b9250505092915050565b60008160000151836000015111905092915050565b6111036117e4565b81600001518360000151101561114e576040517f08c379a00000000000000000000000000000000000000000000000000000000081526004016111459061223e565b60405180910390fd5b60405180602001604052808360000151856000015161116d919061225e565b815250905092915050565b6111806117e4565b600083600001511480611197575060008260000151145b156111b357604051806020016040528060008152509050611509565b69d3c21bcecceda10000008260000151036111d057829050611509565b69d3c21bcecceda10000008360000151036111ed57819050611509565b600069d3c21bcecceda100000061120385611725565b6000015161121191906121c1565b9050600061121e85611767565b600001519050600069d3c21bcecceda100000061123a86611725565b6000015161124891906121c1565b9050600061125586611767565b600001519050600082856112699190612150565b9050600085146112c15782858261128091906121c1565b146112c0576040517f08c379a00000000000000000000000000000000000000000000000000000000081526004016112b7906122de565b60405180910390fd5b5b600069d3c21bcecceda1000000826112d99190612150565b90506000821461133b5769d3c21bcecceda100000082826112fa91906121c1565b1461133a576040517f08c379a00000000000000000000000000000000000000000000000000000000081526004016113319061234a565b60405180910390fd5b5b8091506000848661134c9190612150565b9050600086146113a45784868261136391906121c1565b146113a3576040517f08c379a000000000000000000000000000000000000000000000000000000000815260040161139a906123b6565b60405180910390fd5b5b600084886113b29190612150565b90506000881461140a578488826113c991906121c1565b14611409576040517f08c379a000000000000000000000000000000000000000000000000000000000815260040161140090612422565b60405180910390fd5b5b6114126117b8565b8761141d91906121c1565b96506114276117b8565b8561143291906121c1565b9450600085886114429190612150565b90506000881461149a5785888261145991906121c1565b14611499576040517f08c379a00000000000000000000000000000000000000000000000000000000081526004016114909061248e565b60405180910390fd5b5b600060405180602001604052808781525090506114c58160405180602001604052808781525061150f565b90506114df8160405180602001604052808681525061150f565b90506114f98160405180602001604052808581525061150f565b9050809a50505050505050505050505b92915050565b6115176117e4565b60008260000151846000015161152d91906124ae565b90508360000151811015611576576040517f08c379a000000000000000000000000000000000000000000000000000000000815260040161156d9061252e565b60405180910390fd5b60405180602001604052808281525091505092915050565b6115966117e4565b61159e6117c5565b8211156115e0576040517f08c379a00000000000000000000000000000000000000000000000000000000081526004016115d7906125c0565b60405180910390fd5b604051806020016040528069d3c21bcecceda1000000846116019190612150565b8152509050919050565b600069d3c21bcecceda1000000826000015161162791906121c1565b9050919050565b600033905090565b61163e6117e4565b6000826000015103611685576040517f08c379a000000000000000000000000000000000000000000000000000000000815260040161167c9061262c565b60405180910390fd5b600069d3c21bcecceda100000084600001516116a19190612150565b9050836000015169d3c21bcecceda1000000826116be91906121c1565b146116fe576040517f08c379a00000000000000000000000000000000000000000000000000000000081526004016116f590612698565b60405180910390fd5b604051806020016040528084600001518361171991906121c1565b81525091505092915050565b61172d6117e4565b604051806020016040528069d3c21bcecceda100000080856000015161175391906121c1565b61175d9190612150565b8152509050919050565b61176f6117e4565b604051806020016040528069d3c21bcecceda100000080856000015161179591906121c1565b61179f9190612150565b84600001516117ae919061225e565b8152509050919050565b600064e8d4a51000905090565b60007601357c299a88ea76a58924d52ce4f26a85af186c2b9e74905090565b6040518060200160405280600081525090565b60008115159050919050565b61180c816117f7565b82525050565b60006020820190506118276000830184611803565b92915050565b600080fd5b6000819050919050565b61184581611832565b811461185057600080fd5b50565b6000813590506118628161183c565b92915050565b60006020828403121561187e5761187d61182d565b5b600061188c84828501611853565b91505092915050565b61189e81611832565b82525050565b60006020820190506118b96000830184611895565b92915050565b60006080820190506118d46000830187611895565b6118e16020830186611895565b6118ee6040830185611895565b6118fb6060830184611895565b95945050505050565b600073ffffffffffffffffffffffffffffffffffffffff82169050919050565b6000819050919050565b600061194961194461193f84611904565b611924565b611904565b9050919050565b600061195b8261192e565b9050919050565b600061196d82611950565b9050919050565b61197d81611962565b82525050565b60006020820190506119986000830184611974565b92915050565b60006119a982611904565b9050919050565b6119b98161199e565b82525050565b60006020820190506119d460008301846119b0565b92915050565b6119e38161199e565b81146119ee57600080fd5b50565b600081359050611a00816119da565b92915050565b600060208284031215611a1c57611a1b61182d565b5b6000611a2a848285016119f1565b91505092915050565b60008060408385031215611a4a57611a4961182d565b5b6000611a5885828601611853565b9250506020611a6985828601611853565b9150509250929050565b600080600080600060a08688031215611a8f57611a8e61182d565b5b6000611a9d888289016119f1565b9550506020611aae88828901611853565b9450506040611abf88828901611853565b9350506060611ad088828901611853565b9250506080611ae188828901611853565b9150509295509295909350565b600082825260208201905092915050565b7f61646a7573746d656e74207370656564206d75737420626520736d616c6c657260008201527f207468616e203100000000000000000000000000000000000000000000000000602082015250565b6000611b5b602783611aee565b9150611b6682611aff565b604082019050919050565b60006020820190508181036000830152611b8a81611b4e565b9050919050565b7f7461726765742064656e73697479206d75737420626520736d616c6c6572207460008201527f68616e2031000000000000000000000000000000000000000000000000000000602082015250565b6000611bed602583611aee565b9150611bf882611b91565b604082019050919050565b60006020820190508181036000830152611c1c81611be0565b9050919050565b7f43616e6e6f7420726567697374657220746865206e756c6c2061646472657373600082015250565b6000611c59602083611aee565b9150611c6482611c23565b602082019050919050565b60006020820190508181036000830152611c8881611c4c565b9050919050565b7f676173207072696365206d696e696d756d20666c6f6f72206d7573742062652060008201527f67726561746572207468616e207a65726f000000000000000000000000000000602082015250565b6000611ceb603183611aee565b9150611cf682611c8f565b604082019050919050565b60006020820190508181036000830152611d1a81611cde565b9050919050565b7f4f6e6c7920564d2063616e2063616c6c00000000000000000000000000000000600082015250565b6000611d57601083611aee565b9150611d6282611d21565b602082019050919050565b60006020820190508181036000830152611d8681611d4a565b9050919050565b7f4f776e61626c653a206e6577206f776e657220697320746865207a65726f206160008201527f6464726573730000000000000000000000000000000000000000000000000000602082015250565b6000611de9602683611aee565b9150611df482611d8d565b604082019050919050565b60006020820190508181036000830152611e1881611ddc565b9050919050565b7f636f6e747261637420616c726561647920696e697469616c697a656400000000600082015250565b6000611e55601c83611aee565b9150611e6082611e1f565b602082019050919050565b60006020820190508181036000830152611e8481611e48565b9050919050565b7f4f776e61626c653a2063616c6c6572206973206e6f7420746865206f776e6572600082015250565b6000611ec1602083611aee565b9150611ecc82611e8b565b602082019050919050565b60006020820190508181036000830152611ef081611eb4565b9050919050565b7f62617365466565206f70436f64652061637469766174696f6e20626c6f636b2060008201527f6d7573742062652067726561746572207468616e207a65726f00000000000000602082015250565b6000611f53603983611aee565b9150611f5e82611ef7565b604082019050919050565b60006020820190508181036000830152611f8281611f46565b9050919050565b600081905092915050565b7f476f6c64546f6b656e0000000000000000000000000000000000000000000000600082015250565b6000611fca600983611f89565b9150611fd582611f94565b600982019050919050565b6000611feb82611fbd565b9150819050919050565b6000819050919050565b61200881611ff5565b82525050565b60006020820190506120236000830184611fff565b92915050565b600081519050612038816119da565b92915050565b6000602082840312156120545761205361182d565b5b600061206284828501612029565b91505092915050565b7f536f727465644f7261636c657300000000000000000000000000000000000000600082015250565b60006120a1600d83611f89565b91506120ac8261206b565b600d82019050919050565b60006120c282612094565b9150819050919050565b6000815190506120db8161183c565b92915050565b600080604083850312156120f8576120f761182d565b5b6000612106858286016120cc565b9250506020612117858286016120cc565b9150509250929050565b7f4e487b7100000000000000000000000000000000000000000000000000000000600052601160045260246000fd5b600061215b82611832565b915061216683611832565b925082820261217481611832565b9150828204841483151761218b5761218a612121565b5b5092915050565b7f4e487b7100000000000000000000000000000000000000000000000000000000600052601260045260246000fd5b60006121cc82611832565b91506121d783611832565b9250826121e7576121e6612192565b5b828204905092915050565b7f737562737472616374696f6e20756e646572666c6f7720646574656374656400600082015250565b6000612228601f83611aee565b9150612233826121f2565b602082019050919050565b600060208201905081810360008301526122578161221b565b9050919050565b600061226982611832565b915061227483611832565b925082820390508181111561228c5761228b612121565b5b92915050565b7f6f766572666c6f77207831793120646574656374656400000000000000000000600082015250565b60006122c8601683611aee565b91506122d382612292565b602082019050919050565b600060208201905081810360008301526122f7816122bb565b9050919050565b7f6f766572666c6f772078317931202a2066697865643120646574656374656400600082015250565b6000612334601f83611aee565b915061233f826122fe565b602082019050919050565b6000602082019050818103600083015261236381612327565b9050919050565b7f6f766572666c6f77207832793120646574656374656400000000000000000000600082015250565b60006123a0601683611aee565b91506123ab8261236a565b602082019050919050565b600060208201905081810360008301526123cf81612393565b9050919050565b7f6f766572666c6f77207831793220646574656374656400000000000000000000600082015250565b600061240c601683611aee565b9150612417826123d6565b602082019050919050565b6000602082019050818103600083015261243b816123ff565b9050919050565b7f6f766572666c6f77207832793220646574656374656400000000000000000000600082015250565b6000612478601683611aee565b915061248382612442565b602082019050919050565b600060208201905081810360008301526124a78161246b565b9050919050565b60006124b982611832565b91506124c483611832565b92508282019050808211156124dc576124db612121565b5b92915050565b7f616464206f766572666c6f772064657465637465640000000000000000000000600082015250565b6000612518601583611aee565b9150612523826124e2565b602082019050919050565b600060208201905081810360008301526125478161250b565b9050919050565b7f63616e277420637265617465206669786964697479206e756d626572206c617260008201527f676572207468616e206d61784e65774669786564282900000000000000000000602082015250565b60006125aa603683611aee565b91506125b58261254e565b604082019050919050565b600060208201905081810360008301526125d98161259d565b9050919050565b7f63616e2774206469766964652062792030000000000000000000000000000000600082015250565b6000612616601183611aee565b9150612621826125e0565b602082019050919050565b6000602082019050818103600083015261264581612609565b9050919050565b7f6f766572666c6f77206174206469766964650000000000000000000000000000600082015250565b6000612682601283611aee565b915061268d8261264c565b602082019050919050565b600060208201905081810360008301526126b181612675565b905091905056fea26469706673582212208d6fe0b511ff627ac60524f5430d18bd51daf6bd26c2098de19f30dd0db38f6164736f6c63430008130033",
  "immutableReferences": {},
  "source": "// SPDX-License-Identifier: UNLICENSED\npragma solidity >=0.8.7 <0.8.20;\n\nimport \"@openzeppelin/contracts8/access/Ownable.sol\";\n\nimport \"../../contracts/common/CalledByVm.sol\";\nimport \"../../contracts/common/Initializable.sol\";\nimport \"../../contracts/common/interfaces/ICeloVersionedContract.sol\";\nimport \"../../contracts/common/FixidityLib.sol\";\nimport \"./UsingRegistry.sol\";\nimport \"../../contracts/stability/interfaces/ISortedOracles.sol\";\nimport \"@openzeppelin/contracts8/utils/math/Math.sol\";\n\n/**\n * @title Stores and provides gas price minimum for various currencies.\n */\ncontract GasPriceMinimum is\n  ICeloVersionedContract,\n  Ownable,\n  Initializable,\n  UsingRegistry,\n  CalledByVm\n{\n  using FixidityLib for FixidityLib.Fraction;\n\n  event TargetDensitySet(uint256 targetDensity);\n  event GasPriceMinimumFloorSet(uint256 gasPriceMinimumFloor);\n  event AdjustmentSpeedSet(uint256 adjustmentSpeed);\n  event GasPriceMinimumUpdated(uint256 gasPriceMinimum);\n  event BaseFeeOpCodeActivationBlockSet(uint256 baseFeeOpCodeActivationBlock);\n\n  uint256 public deprecated_gasPriceMinimum;\n  uint256 public gasPriceMinimumFloor;\n\n  // Block congestion level targeted by the gas price minimum calculation.\n  FixidityLib.Fraction public targetDensity;\n\n  // Speed of gas price minimum adjustment due to congestion.\n  FixidityLib.Fraction public adjustmentSpeed;\n\n  uint256 public baseFeeOpCodeActivationBlock;\n  uint256 public constant ABSOLUTE_MINIMAL_GAS_PRICE = 1;\n\n  /**\n   * @notice Sets initialized == true on implementation contracts\n   * @param test Set to true to skip implementation initialization\n   */\n  constructor(bool test) public Initializable(test) {}\n\n  /**\n   * @notice Returns the storage, major, minor, and patch version of the contract.\n   * @return Storage version of the contract.\n   * @return Major version of the contract.\n   * @return Minor version of the contract.\n   * @return Patch version of the contract.\n   */\n  function getVersionNumber() external pure returns (uint256, uint256, uint256, uint256) {\n    return (1, 2, 0, 1);\n  }\n\n  /**\n   * @notice Used in place of the constructor to allow the contract to be upgradable via proxy.\n   * @param _registryAddress The address of the registry core smart contract.\n   * @param _gasPriceMinimumFloor The lowest value the gas price minimum can be.\n   * @param _targetDensity The target gas fullness of blocks, expressed as a fixidity fraction.\n   * @param _adjustmentSpeed How quickly the minimum changes, expressed as a fixidity fraction.\n   * @param _baseFeeOpCodeActivationBlock Block number where the baseFee opCode is activated\n   */\n  function initialize(\n    address _registryAddress,\n    uint256 _gasPriceMinimumFloor,\n    uint256 _targetDensity,\n    uint256 _adjustmentSpeed,\n    uint256 _baseFeeOpCodeActivationBlock\n  ) external initializer {\n    _transferOwnership(msg.sender);\n    setRegistry(_registryAddress);\n    deprecated_gasPriceMinimum = _gasPriceMinimumFloor;\n    setGasPriceMinimumFloor(_gasPriceMinimumFloor);\n    setTargetDensity(_targetDensity);\n    setAdjustmentSpeed(_adjustmentSpeed);\n    _setBaseFeeOpCodeActivationBlock(_baseFeeOpCodeActivationBlock, true);\n  }\n\n  /**\n   * @notice Set a multiplier that impacts how quickly gas price minimum is adjusted.\n   * @param _adjustmentSpeed How quickly the minimum changes, expressed as a fixidity fraction.\n   * @dev Value is expected to be < 1.\n   */\n  function setAdjustmentSpeed(uint256 _adjustmentSpeed) public onlyOwner {\n    adjustmentSpeed = FixidityLib.wrap(_adjustmentSpeed);\n    require(adjustmentSpeed.lt(FixidityLib.fixed1()), \"adjustment speed must be smaller than 1\");\n    emit AdjustmentSpeedSet(_adjustmentSpeed);\n  }\n\n  /**\n   * @notice Set the block density targeted by the gas price minimum algorithm.\n   * @param _targetDensity The target gas fullness of blocks, expressed as a fixidity fraction.\n   * @dev Value is expected to be < 1.\n   */\n  function setTargetDensity(uint256 _targetDensity) public onlyOwner {\n    targetDensity = FixidityLib.wrap(_targetDensity);\n    require(targetDensity.lt(FixidityLib.fixed1()), \"target density must be smaller than 1\");\n    emit TargetDensitySet(_targetDensity);\n  }\n\n  /**\n   * @notice Set the minimum gas price treshold.\n   * @param _gasPriceMinimumFloor The lowest value the gas price minimum can be.\n   * @dev Value is expected to be > 0.\n   */\n  function setGasPriceMinimumFloor(uint256 _gasPriceMinimumFloor) public onlyOwner {\n    require(_gasPriceMinimumFloor > 0, \"gas price minimum floor must be greater than zero\");\n    gasPriceMinimumFloor = _gasPriceMinimumFloor;\n    emit GasPriceMinimumFloorSet(_gasPriceMinimumFloor);\n  }\n\n  /**\n   * @notice Set the activation block of the baseFee opCode.\n   * @param _baseFeeOpCodeActivationBlock Block number where the baseFee opCode is activated\n   * @dev Value is expected to be > 0.\n   */\n  function setBaseFeeOpCodeActivationBlock(uint256 _baseFeeOpCodeActivationBlock)\n    external\n    onlyOwner\n  {\n    _setBaseFeeOpCodeActivationBlock(_baseFeeOpCodeActivationBlock, false);\n  }\n\n  /**\n   * @notice Set the activation block of the baseFee opCode.\n   * @param _baseFeeOpCodeActivationBlock Block number where the baseFee opCode is activated\n   * @dev Value is expected to be > 0.\n   */\n  function _setBaseFeeOpCodeActivationBlock(uint256 _baseFeeOpCodeActivationBlock, bool allowZero)\n    private\n    onlyOwner\n  {\n    require(\n      allowZero || _baseFeeOpCodeActivationBlock > 0,\n      \"baseFee opCode activation block must be greater than zero\"\n    );\n    baseFeeOpCodeActivationBlock = _baseFeeOpCodeActivationBlock;\n    emit BaseFeeOpCodeActivationBlockSet(_baseFeeOpCodeActivationBlock);\n  }\n\n  function gasPriceMinimum() public view returns (uint256) {\n    if (baseFeeOpCodeActivationBlock > 0 && block.number >= baseFeeOpCodeActivationBlock) {\n      return block.basefee;\n    } else {\n      return deprecated_gasPriceMinimum;\n    }\n  }\n\n  function _getGasPriceMinimum(address tokenAddress) private view returns (uint256) {\n    if (\n      tokenAddress == address(0) ||\n      tokenAddress == registry.getAddressForOrDie(GOLD_TOKEN_REGISTRY_ID)\n    ) {\n      return gasPriceMinimum();\n    } else {\n      ISortedOracles sortedOracles = ISortedOracles(\n        registry.getAddressForOrDie(SORTED_ORACLES_REGISTRY_ID)\n      );\n      uint256 rateNumerator;\n      uint256 rateDenominator;\n      (rateNumerator, rateDenominator) = sortedOracles.medianRate(tokenAddress);\n      return ((gasPriceMinimum() * rateNumerator) / rateDenominator);\n    }\n  }\n\n  /**\n   * @notice Retrieve the current gas price minimum for a currency.\n   * When caled for 0x0 or Celo address, it returns gasPriceMinimum().\n   * For other addresses it returns gasPriceMinimum() mutiplied by \n   * the SortedOracles median of the token. It does not check tokenAddress is a valid fee currency.\n   * this function will never returns values less than ABSOLUTE_MINIMAL_GAS_PRICE.\n   * If Oracle rate doesn't exist, it returns ABSOLUTE_MINIMAL_GAS_PRICE.\n   * @dev This functions assumes one unit of token has 18 digits.\n   * @param tokenAddress The currency the gas price should be in (defaults to Celo).\n   * @return current gas price minimum in the requested currency\n   */\n  function getGasPriceMinimum(address tokenAddress) external view returns (uint256) {\n    return Math.max(_getGasPriceMinimum(tokenAddress), ABSOLUTE_MINIMAL_GAS_PRICE);\n  }\n\n  /**\n   * @notice Adjust the gas price minimum based on governable parameters\n   * and block congestion.\n   * @param blockGasTotal The amount of gas in the most recent block.\n   * @param blockGasLimit The maxBlockGasLimit of the past block.\n   * @return result of the calculation (new gas price minimum)\n   */\n  function updateGasPriceMinimum(uint256 blockGasTotal, uint256 blockGasLimit)\n    external\n    onlyVm\n    returns (uint256)\n  {\n    deprecated_gasPriceMinimum = getUpdatedGasPriceMinimum(blockGasTotal, blockGasLimit);\n    emit GasPriceMinimumUpdated(deprecated_gasPriceMinimum);\n    return deprecated_gasPriceMinimum;\n  }\n\n  /**\n   * @notice Calculates the gas price minimum based on governable parameters\n   * and block congestion.\n   * @param blockGasTotal The amount of gas in the most recent block.\n   * @param blockGasLimit The maxBlockGasLimit of the past block.\n   * @return result of the calculation (new gas price minimum)\n   * @dev Calculate using the following formula:\n   * oldGasPriceMinimum * (1 + (adjustmentSpeed * (blockDensity - targetDensity))) + 1.\n   */\n  function getUpdatedGasPriceMinimum(uint256 blockGasTotal, uint256 blockGasLimit)\n    public\n    view\n    returns (uint256)\n  {\n    FixidityLib.Fraction memory blockDensity = FixidityLib.newFixedFraction(\n      blockGasTotal,\n      blockGasLimit\n    );\n    bool densityGreaterThanTarget = blockDensity.gt(targetDensity);\n    FixidityLib.Fraction memory densityDelta = densityGreaterThanTarget\n      ? blockDensity.subtract(targetDensity)\n      : targetDensity.subtract(blockDensity);\n    FixidityLib.Fraction memory adjustment = densityGreaterThanTarget\n      ? FixidityLib.fixed1().add(adjustmentSpeed.multiply(densityDelta))\n      : FixidityLib.fixed1().subtract(adjustmentSpeed.multiply(densityDelta));\n\n    uint256 newGasPriceMinimum = adjustment\n      .multiply(FixidityLib.newFixed(gasPriceMinimum()))\n      .add(FixidityLib.fixed1())\n      .fromFixed();\n\n    return newGasPriceMinimum >= gasPriceMinimumFloor ? newGasPriceMinimum : gasPriceMinimumFloor;\n  }\n}\n",
  "sourcePath": "/Users/beaver/Development/celo/celo-monorepo/packages/protocol/contracts-0.8/common/GasPriceMinimum.sol",
  "compiler": {
    "name": "solc",
    "version": "0.8.19+commit.7dd6d404.Emscripten.clang"
  },
  "schemaVersion": "3.4.13",
  "updatedAt": "2024-03-05T15:18:07.402Z",
  "devdoc": {
    "kind": "dev",
    "methods": {
      "constructor": {
        "params": {
          "test": "Set to true to skip implementation initialization"
        }
      },
      "getGasPriceMinimum(address)": {
        "details": "This functions assumes one unit of token has 18 digits.",
        "params": {
          "tokenAddress": "The currency the gas price should be in (defaults to Celo)."
        },
        "returns": {
          "_0": "current gas price minimum in the requested currency"
        }
      },
      "getUpdatedGasPriceMinimum(uint256,uint256)": {
        "details": "Calculate using the following formula: oldGasPriceMinimum * (1 + (adjustmentSpeed * (blockDensity - targetDensity))) + 1.",
        "params": {
          "blockGasLimit": "The maxBlockGasLimit of the past block.",
          "blockGasTotal": "The amount of gas in the most recent block."
        },
        "returns": {
          "_0": "result of the calculation (new gas price minimum)"
        }
      },
      "getVersionNumber()": {
        "returns": {
          "_0": "Storage version of the contract.",
          "_1": "Major version of the contract.",
          "_2": "Minor version of the contract.",
          "_3": "Patch version of the contract."
        }
      },
      "initialize(address,uint256,uint256,uint256,uint256)": {
        "params": {
          "_adjustmentSpeed": "How quickly the minimum changes, expressed as a fixidity fraction.",
          "_baseFeeOpCodeActivationBlock": "Block number where the baseFee opCode is activated",
          "_gasPriceMinimumFloor": "The lowest value the gas price minimum can be.",
          "_registryAddress": "The address of the registry core smart contract.",
          "_targetDensity": "The target gas fullness of blocks, expressed as a fixidity fraction."
        }
      },
      "owner()": {
        "details": "Returns the address of the current owner."
      },
      "renounceOwnership()": {
        "details": "Leaves the contract without owner. It will not be possible to call `onlyOwner` functions. Can only be called by the current owner. NOTE: Renouncing ownership will leave the contract without an owner, thereby disabling any functionality that is only available to the owner."
      },
      "setAdjustmentSpeed(uint256)": {
        "details": "Value is expected to be < 1.",
        "params": {
          "_adjustmentSpeed": "How quickly the minimum changes, expressed as a fixidity fraction."
        }
      },
      "setBaseFeeOpCodeActivationBlock(uint256)": {
        "details": "Value is expected to be > 0.",
        "params": {
          "_baseFeeOpCodeActivationBlock": "Block number where the baseFee opCode is activated"
        }
      },
      "setGasPriceMinimumFloor(uint256)": {
        "details": "Value is expected to be > 0.",
        "params": {
          "_gasPriceMinimumFloor": "The lowest value the gas price minimum can be."
        }
      },
      "setRegistry(address)": {
        "params": {
          "registryAddress": "The address of a registry contract for routing to other contracts."
        }
      },
      "setTargetDensity(uint256)": {
        "details": "Value is expected to be < 1.",
        "params": {
          "_targetDensity": "The target gas fullness of blocks, expressed as a fixidity fraction."
        }
      },
      "transferOwnership(address)": {
        "details": "Transfers ownership of the contract to a new account (`newOwner`). Can only be called by the current owner."
      },
      "updateGasPriceMinimum(uint256,uint256)": {
        "params": {
          "blockGasLimit": "The maxBlockGasLimit of the past block.",
          "blockGasTotal": "The amount of gas in the most recent block."
        },
        "returns": {
          "_0": "result of the calculation (new gas price minimum)"
        }
      }
    },
    "title": "Stores and provides gas price minimum for various currencies.",
    "version": 1
  },
  "userdoc": {
    "kind": "user",
    "methods": {
      "constructor": {
        "notice": "Sets initialized == true on implementation contracts"
      },
      "getGasPriceMinimum(address)": {
        "notice": "Retrieve the current gas price minimum for a currency. When caled for 0x0 or Celo address, it returns gasPriceMinimum(). For other addresses it returns gasPriceMinimum() mutiplied by  the SortedOracles median of the token. It does not check tokenAddress is a valid fee currency. this function will never returns values less than ABSOLUTE_MINIMAL_GAS_PRICE. If Oracle rate doesn't exist, it returns ABSOLUTE_MINIMAL_GAS_PRICE."
      },
      "getUpdatedGasPriceMinimum(uint256,uint256)": {
        "notice": "Calculates the gas price minimum based on governable parameters and block congestion."
      },
      "getVersionNumber()": {
        "notice": "Returns the storage, major, minor, and patch version of the contract."
      },
      "initialize(address,uint256,uint256,uint256,uint256)": {
        "notice": "Used in place of the constructor to allow the contract to be upgradable via proxy."
      },
      "setAdjustmentSpeed(uint256)": {
        "notice": "Set a multiplier that impacts how quickly gas price minimum is adjusted."
      },
      "setBaseFeeOpCodeActivationBlock(uint256)": {
        "notice": "Set the activation block of the baseFee opCode."
      },
      "setGasPriceMinimumFloor(uint256)": {
        "notice": "Set the minimum gas price treshold."
      },
      "setRegistry(address)": {
        "notice": "Updates the address pointing to a Registry contract."
      },
      "setTargetDensity(uint256)": {
        "notice": "Set the block density targeted by the gas price minimum algorithm."
      },
      "updateGasPriceMinimum(uint256,uint256)": {
        "notice": "Adjust the gas price minimum based on governable parameters and block congestion."
      }
    },
    "version": 1
  }
}