{
  "contractName": "Initializable",
  "abi": [
    {
      "inputs": [
        {
          "internalType": "bool",
          "name": "testingDeployment",
          "type": "bool"
        }
      ],
      "stateMutability": "nonpayable",
      "type": "constructor"
    },
    {
      "inputs": [],
      "name": "initialized",
      "outputs": [
        {
          "internalType": "bool",
          "name": "",
          "type": "bool"
        }
      ],
      "stateMutability": "view",
      "type": "function"
    }
  ],
  "bytecode": "0x608060405234801561001057600080fd5b5060405161019038038061019083398181016040528101906100329190610095565b806100525760016000806101000a81548160ff0219169083151502179055505b506100c2565b600080fd5b60008115159050919050565b6100728161005d565b811461007d57600080fd5b50565b60008151905061008f81610069565b92915050565b6000602082840312156100ab576100aa610058565b5b60006100b984828501610080565b91505092915050565b60c0806100d06000396000f3fe6080604052348015600f57600080fd5b506004361060285760003560e01c8063158ef93e14602d575b600080fd5b60336047565b604051603e91906071565b60405180910390f35b60008054906101000a900460ff1681565b60008115159050919050565b606b816058565b82525050565b6000602082019050608460008301846064565b9291505056fea264697066735822122071cf32c0c6775cb0131fe8f3a84ed270bebe053c1aaa738b3643e1af0132e11a64736f6c63430008130033",
  "immutableReferences": {},
  "source": "// SPDX-License-Identifier: LGPL-3.0-only\npragma solidity >=0.5.13 <0.9.0;\n\ncontract Initializable {\n  bool public initialized;\n\n  constructor(bool testingDeployment) public {\n    if (!testingDeployment) {\n      initialized = true;\n    }\n  }\n\n  modifier initializer() {\n    require(!initialized, \"contract already initialized\");\n    initialized = true;\n    _;\n  }\n}\n",
  "compiler": {
    "name": "solc",
    "version": "0.8.19+commit.7dd6d404.Emscripten.clang"
  },
  "schemaVersion": "3.4.13",
  "updatedAt": "2023-11-21T17:20:55.021Z",
  "devdoc": {
    "kind": "dev",
    "methods": {},
    "version": 1
  },
  "userdoc": {
    "kind": "user",
    "methods": {},
    "version": 1
  }
}