{
  "contractName": "UsingRegistry",
  "abi": [
    {
      "anonymous": false,
      "inputs": [
        {
          "indexed": true,
          "internalType": "address",
          "name": "previousOwner",
          "type": "address"
        },
        {
          "indexed": true,
          "internalType": "address",
          "name": "newOwner",
          "type": "address"
        }
      ],
      "name": "OwnershipTransferred",
      "type": "event"
    },
    {
      "anonymous": false,
      "inputs": [
        {
          "indexed": true,
          "internalType": "address",
          "name": "registryAddress",
          "type": "address"
        }
      ],
      "name": "RegistrySet",
      "type": "event"
    },
    {
      "inputs": [],
      "name": "owner",
      "outputs": [
        {
          "internalType": "address",
          "name": "",
          "type": "address"
        }
      ],
      "stateMutability": "view",
      "type": "function"
    },
    {
      "inputs": [],
      "name": "registry",
      "outputs": [
        {
          "internalType": "contract IRegistry",
          "name": "",
          "type": "address"
        }
      ],
      "stateMutability": "view",
      "type": "function"
    },
    {
      "inputs": [],
      "name": "renounceOwnership",
      "outputs": [],
      "stateMutability": "nonpayable",
      "type": "function"
    },
    {
      "inputs": [
        {
          "internalType": "address",
          "name": "newOwner",
          "type": "address"
        }
      ],
      "name": "transferOwnership",
      "outputs": [],
      "stateMutability": "nonpayable",
      "type": "function"
    },
    {
      "inputs": [
        {
          "internalType": "address",
          "name": "registryAddress",
          "type": "address"
        }
      ],
      "name": "setRegistry",
      "outputs": [],
      "stateMutability": "nonpayable",
      "type": "function"
    }
  ],
  "bytecode": "0x608060405234801561001057600080fd5b5061002d61002261003260201b60201c565b61003a60201b60201c565b6100fe565b600033905090565b60008060009054906101000a900473ffffffffffffffffffffffffffffffffffffffff169050816000806101000a81548173ffffffffffffffffffffffffffffffffffffffff021916908373ffffffffffffffffffffffffffffffffffffffff1602179055508173ffffffffffffffffffffffffffffffffffffffff168173ffffffffffffffffffffffffffffffffffffffff167f8be0079c531659141344cd1fd0a4f28419497f9722a3daafe3b4186f6b6457e060405160405180910390a35050565b6106ed8061010d6000396000f3fe608060405234801561001057600080fd5b50600436106100575760003560e01c8063715018a61461005c5780637b103999146100665780638da5cb5b14610084578063a91ee0dc146100a2578063f2fde38b146100be575b600080fd5b6100646100da565b005b61006e6100ee565b60405161007b9190610487565b60405180910390f35b61008c610114565b60405161009991906104c3565b60405180910390f35b6100bc60048036038101906100b7919061050f565b61013d565b005b6100d860048036038101906100d3919061050f565b61023b565b005b6100e26102be565b6100ec600061033c565b565b600160009054906101000a900473ffffffffffffffffffffffffffffffffffffffff1681565b60008060009054906101000a900473ffffffffffffffffffffffffffffffffffffffff16905090565b6101456102be565b600073ffffffffffffffffffffffffffffffffffffffff168173ffffffffffffffffffffffffffffffffffffffff16036101b4576040517f08c379a00000000000000000000000000000000000000000000000000000000081526004016101ab90610599565b60405180910390fd5b80600160006101000a81548173ffffffffffffffffffffffffffffffffffffffff021916908373ffffffffffffffffffffffffffffffffffffffff1602179055508073ffffffffffffffffffffffffffffffffffffffff167f27fe5f0c1c3b1ed427cc63d0f05759ffdecf9aec9e18d31ef366fc8a6cb5dc3b60405160405180910390a250565b6102436102be565b600073ffffffffffffffffffffffffffffffffffffffff168173ffffffffffffffffffffffffffffffffffffffff16036102b2576040517f08c379a00000000000000000000000000000000000000000000000000000000081526004016102a99061062b565b60405180910390fd5b6102bb8161033c565b50565b6102c6610400565b73ffffffffffffffffffffffffffffffffffffffff166102e4610114565b73ffffffffffffffffffffffffffffffffffffffff161461033a576040517f08c379a000000000000000000000000000000000000000000000000000000000815260040161033190610697565b60405180910390fd5b565b60008060009054906101000a900473ffffffffffffffffffffffffffffffffffffffff169050816000806101000a81548173ffffffffffffffffffffffffffffffffffffffff021916908373ffffffffffffffffffffffffffffffffffffffff1602179055508173ffffffffffffffffffffffffffffffffffffffff168173ffffffffffffffffffffffffffffffffffffffff167f8be0079c531659141344cd1fd0a4f28419497f9722a3daafe3b4186f6b6457e060405160405180910390a35050565b600033905090565b600073ffffffffffffffffffffffffffffffffffffffff82169050919050565b6000819050919050565b600061044d61044861044384610408565b610428565b610408565b9050919050565b600061045f82610432565b9050919050565b600061047182610454565b9050919050565b61048181610466565b82525050565b600060208201905061049c6000830184610478565b92915050565b60006104ad82610408565b9050919050565b6104bd816104a2565b82525050565b60006020820190506104d860008301846104b4565b92915050565b600080fd5b6104ec816104a2565b81146104f757600080fd5b50565b600081359050610509816104e3565b92915050565b600060208284031215610525576105246104de565b5b6000610533848285016104fa565b91505092915050565b600082825260208201905092915050565b7f43616e6e6f7420726567697374657220746865206e756c6c2061646472657373600082015250565b600061058360208361053c565b915061058e8261054d565b602082019050919050565b600060208201905081810360008301526105b281610576565b9050919050565b7f4f776e61626c653a206e6577206f776e657220697320746865207a65726f206160008201527f6464726573730000000000000000000000000000000000000000000000000000602082015250565b600061061560268361053c565b9150610620826105b9565b604082019050919050565b6000602082019050818103600083015261064481610608565b9050919050565b7f4f776e61626c653a2063616c6c6572206973206e6f7420746865206f776e6572600082015250565b600061068160208361053c565b915061068c8261064b565b602082019050919050565b600060208201905081810360008301526106b081610674565b905091905056fea264697066735822122096d33ccdf442a558660c53b8e59a2d2c1e8d028cdedd1835c0eb7ad7a464048664736f6c63430008130033",
  "immutableReferences": {},
  "source": "// SPDX-License-Identifier: LGPL-3.0-only\npragma solidity >=0.8.0 <0.8.20;\n\n// Note: This is not an exact copy of UsingRegistry or UsingRegistryV2 in the contract's folder\n// because Mento's interfaces still don't support Solidity 0.8\n\nimport \"@openzeppelin/contracts8/access/Ownable.sol\";\nimport \"@openzeppelin/contracts8/token/ERC20/IERC20.sol\";\n\nimport \"../../contracts/common/interfaces/IRegistry.sol\";\n\ncontract UsingRegistry is Ownable {\n  event RegistrySet(address indexed registryAddress);\n\n  // solhint-disable state-visibility\n  bytes32 constant ACCOUNTS_REGISTRY_ID = keccak256(abi.encodePacked(\"Accounts\"));\n  bytes32 constant ATTESTATIONS_REGISTRY_ID = keccak256(abi.encodePacked(\"Attestations\"));\n  bytes32 constant DOWNTIME_SLASHER_REGISTRY_ID = keccak256(abi.encodePacked(\"DowntimeSlasher\"));\n  bytes32 constant DOUBLE_SIGNING_SLASHER_REGISTRY_ID = keccak256(\n    abi.encodePacked(\"DoubleSigningSlasher\")\n  );\n  bytes32 constant ELECTION_REGISTRY_ID = keccak256(abi.encodePacked(\"Election\"));\n  bytes32 constant EXCHANGE_REGISTRY_ID = keccak256(abi.encodePacked(\"Exchange\"));\n  bytes32 constant FEE_CURRENCY_WHITELIST_REGISTRY_ID = keccak256(\n    abi.encodePacked(\"FeeCurrencyWhitelist\")\n  );\n  bytes32 constant FREEZER_REGISTRY_ID = keccak256(abi.encodePacked(\"Freezer\"));\n  bytes32 constant GOLD_TOKEN_REGISTRY_ID = keccak256(abi.encodePacked(\"GoldToken\"));\n  bytes32 constant GOVERNANCE_REGISTRY_ID = keccak256(abi.encodePacked(\"Governance\"));\n  bytes32 constant GOVERNANCE_SLASHER_REGISTRY_ID = keccak256(\n    abi.encodePacked(\"GovernanceSlasher\")\n  );\n  bytes32 constant LOCKED_GOLD_REGISTRY_ID = keccak256(abi.encodePacked(\"LockedGold\"));\n  bytes32 constant RESERVE_REGISTRY_ID = keccak256(abi.encodePacked(\"Reserve\"));\n  bytes32 constant RANDOM_REGISTRY_ID = keccak256(abi.encodePacked(\"Random\"));\n  bytes32 constant SORTED_ORACLES_REGISTRY_ID = keccak256(abi.encodePacked(\"SortedOracles\"));\n  bytes32 constant STABLE_TOKEN_REGISTRY_ID = keccak256(abi.encodePacked(\"StableToken\"));\n  bytes32 constant VALIDATORS_REGISTRY_ID = keccak256(abi.encodePacked(\"Validators\"));\n  // solhint-enable state-visibility\n\n  IRegistry public registry;\n\n  modifier onlyRegisteredContract(bytes32 identifierHash) {\n    require(registry.getAddressForOrDie(identifierHash) == msg.sender, \"only registered contract\");\n    _;\n  }\n\n  modifier onlyRegisteredContracts(bytes32[] memory identifierHashes) {\n    require(registry.isOneOf(identifierHashes, msg.sender), \"only registered contracts\");\n    _;\n  }\n\n  /**\n   * @notice Updates the address pointing to a Registry contract.\n   * @param registryAddress The address of a registry contract for routing to other contracts.\n   */\n  function setRegistry(address registryAddress) public onlyOwner {\n    require(registryAddress != address(0), \"Cannot register the null address\");\n    registry = IRegistry(registryAddress);\n    emit RegistrySet(registryAddress);\n  }\n\n  function getGoldToken() internal view returns (IERC20) {\n    return IERC20(registry.getAddressForOrDie(GOLD_TOKEN_REGISTRY_ID));\n  }\n}\n",
  "sourcePath": "/Users/beaver/Development/celo/celo-monorepo/packages/protocol/contracts-0.8/common/UsingRegistry.sol",
  "compiler": {
    "name": "solc",
    "version": "0.8.19+commit.7dd6d404.Emscripten.clang"
  },
  "schemaVersion": "3.4.13",
  "updatedAt": "2024-03-05T15:18:07.406Z",
  "devdoc": {
    "kind": "dev",
    "methods": {
      "owner()": {
        "details": "Returns the address of the current owner."
      },
      "renounceOwnership()": {
        "details": "Leaves the contract without owner. It will not be possible to call `onlyOwner` functions. Can only be called by the current owner. NOTE: Renouncing ownership will leave the contract without an owner, thereby disabling any functionality that is only available to the owner."
      },
      "setRegistry(address)": {
        "params": {
          "registryAddress": "The address of a registry contract for routing to other contracts."
        }
      },
      "transferOwnership(address)": {
        "details": "Transfers ownership of the contract to a new account (`newOwner`). Can only be called by the current owner."
      }
    },
    "version": 1
  },
  "userdoc": {
    "kind": "user",
    "methods": {
      "setRegistry(address)": {
        "notice": "Updates the address pointing to a Registry contract."
      }
    },
    "version": 1
  }
}