{
  "contractName": "MentoFeeHandlerSeller",
  "abi": [
    {
      "inputs": [
        {
          "internalType": "bool",
          "name": "test",
          "type": "bool"
        }
      ],
      "payable": false,
      "stateMutability": "nonpayable",
      "type": "constructor"
    },
    {
      "anonymous": false,
      "inputs": [
        {
          "indexed": false,
          "internalType": "address",
          "name": "tokenAddress",
          "type": "address"
        },
        {
          "indexed": false,
          "internalType": "uint256",
          "name": "minimumReports",
          "type": "uint256"
        }
      ],
      "name": "MinimumReportsSet",
      "type": "event"
    },
    {
      "anonymous": false,
      "inputs": [
        {
          "indexed": true,
          "internalType": "address",
          "name": "previousOwner",
          "type": "address"
        },
        {
          "indexed": true,
          "internalType": "address",
          "name": "newOwner",
          "type": "address"
        }
      ],
      "name": "OwnershipTransferred",
      "type": "event"
    },
    {
      "anonymous": false,
      "inputs": [
        {
          "indexed": true,
          "internalType": "address",
          "name": "registryAddress",
          "type": "address"
        }
      ],
      "name": "RegistrySet",
      "type": "event"
    },
    {
      "anonymous": false,
      "inputs": [
        {
          "indexed": false,
          "internalType": "address",
          "name": "soldTokenAddress",
          "type": "address"
        },
        {
          "indexed": false,
          "internalType": "address",
          "name": "boughtTokenAddress",
          "type": "address"
        },
        {
          "indexed": false,
          "internalType": "uint256",
          "name": "amount",
          "type": "uint256"
        }
      ],
      "name": "TokenSold",
      "type": "event"
    },
    {
      "payable": true,
      "stateMutability": "payable",
      "type": "fallback"
    },
    {
      "constant": true,
      "inputs": [
        {
          "internalType": "uint256",
          "name": "midPriceNumerator",
          "type": "uint256"
        },
        {
          "internalType": "uint256",
          "name": "midPriceDenominator",
          "type": "uint256"
        },
        {
          "internalType": "uint256",
          "name": "amount",
          "type": "uint256"
        },
        {
          "internalType": "uint256",
          "name": "maxSlippage",
          "type": "uint256"
        }
      ],
      "name": "calculateMinAmount",
      "outputs": [
        {
          "internalType": "uint256",
          "name": "",
          "type": "uint256"
        }
      ],
      "payable": false,
      "stateMutability": "pure",
      "type": "function"
    },
    {
      "constant": false,
      "inputs": [
        {
          "internalType": "address",
          "name": "_registryAddress",
          "type": "address"
        },
        {
          "internalType": "address[]",
          "name": "tokenAddresses",
          "type": "address[]"
        },
        {
          "internalType": "uint256[]",
          "name": "newMininumReports",
          "type": "uint256[]"
        }
      ],
      "name": "initialize",
      "outputs": [],
      "payable": false,
      "stateMutability": "nonpayable",
      "type": "function"
    },
    {
      "constant": true,
      "inputs": [],
      "name": "initialized",
      "outputs": [
        {
          "internalType": "bool",
          "name": "",
          "type": "bool"
        }
      ],
      "payable": false,
      "stateMutability": "view",
      "type": "function"
    },
    {
      "constant": true,
      "inputs": [],
      "name": "isOwner",
      "outputs": [
        {
          "internalType": "bool",
          "name": "",
          "type": "bool"
        }
      ],
      "payable": false,
      "stateMutability": "view",
      "type": "function"
    },
    {
      "constant": true,
      "inputs": [
        {
          "internalType": "address",
          "name": "",
          "type": "address"
        }
      ],
      "name": "minimumReports",
      "outputs": [
        {
          "internalType": "uint256",
          "name": "",
          "type": "uint256"
        }
      ],
      "payable": false,
      "stateMutability": "view",
      "type": "function"
    },
    {
      "constant": true,
      "inputs": [],
      "name": "owner",
      "outputs": [
        {
          "internalType": "address",
          "name": "",
          "type": "address"
        }
      ],
      "payable": false,
      "stateMutability": "view",
      "type": "function"
    },
    {
      "constant": true,
      "inputs": [],
      "name": "registry",
      "outputs": [
        {
          "internalType": "contract IRegistry",
          "name": "",
          "type": "address"
        }
      ],
      "payable": false,
      "stateMutability": "view",
      "type": "function"
    },
    {
      "constant": false,
      "inputs": [],
      "name": "renounceOwnership",
      "outputs": [],
      "payable": false,
      "stateMutability": "nonpayable",
      "type": "function"
    },
    {
      "constant": false,
      "inputs": [
        {
          "internalType": "address",
          "name": "tokenAddress",
          "type": "address"
        },
        {
          "internalType": "uint256",
          "name": "newMininumReports",
          "type": "uint256"
        }
      ],
      "name": "setMinimumReports",
      "outputs": [],
      "payable": false,
      "stateMutability": "nonpayable",
      "type": "function"
    },
    {
      "constant": false,
      "inputs": [
        {
          "internalType": "address",
          "name": "registryAddress",
          "type": "address"
        }
      ],
      "name": "setRegistry",
      "outputs": [],
      "payable": false,
      "stateMutability": "nonpayable",
      "type": "function"
    },
    {
      "constant": false,
      "inputs": [
        {
          "internalType": "address",
          "name": "token",
          "type": "address"
        },
        {
          "internalType": "uint256",
          "name": "amount",
          "type": "uint256"
        },
        {
          "internalType": "address",
          "name": "to",
          "type": "address"
        }
      ],
      "name": "transfer",
      "outputs": [
        {
          "internalType": "bool",
          "name": "",
          "type": "bool"
        }
      ],
      "payable": false,
      "stateMutability": "nonpayable",
      "type": "function"
    },
    {
      "constant": false,
      "inputs": [
        {
          "internalType": "address",
          "name": "newOwner",
          "type": "address"
        }
      ],
      "name": "transferOwnership",
      "outputs": [],
      "payable": false,
      "stateMutability": "nonpayable",
      "type": "function"
    },
    {
      "constant": true,
      "inputs": [],
      "name": "getVersionNumber",
      "outputs": [
        {
          "internalType": "uint256",
          "name": "",
          "type": "uint256"
        },
        {
          "internalType": "uint256",
          "name": "",
          "type": "uint256"
        },
        {
          "internalType": "uint256",
          "name": "",
          "type": "uint256"
        },
        {
          "internalType": "uint256",
          "name": "",
          "type": "uint256"
        }
      ],
      "payable": false,
      "stateMutability": "pure",
      "type": "function"
    },
    {
      "constant": false,
      "inputs": [
        {
          "internalType": "address",
          "name": "sellTokenAddress",
          "type": "address"
        },
        {
          "internalType": "address",
          "name": "buyTokenAddress",
          "type": "address"
        },
        {
          "internalType": "uint256",
          "name": "amount",
          "type": "uint256"
        },
        {
          "internalType": "uint256",
          "name": "maxSlippage",
          "type": "uint256"
        }
      ],
      "name": "sell",
      "outputs": [
        {
          "internalType": "uint256",
          "name": "",
          "type": "uint256"
        }
      ],
      "payable": false,
      "stateMutability": "nonpayable",
      "type": "function"
    }
  ],
  "bytecode": "0x60806040523480156200001157600080fd5b50604051620026a5380380620026a5833981810160405260208110156200003757600080fd5b81019080805190602001909291905050508060006200005b6200012360201b60201c565b9050806000806101000a81548173ffffffffffffffffffffffffffffffffffffffff021916908373ffffffffffffffffffffffffffffffffffffffff1602179055508073ffffffffffffffffffffffffffffffffffffffff16600073ffffffffffffffffffffffffffffffffffffffff167f8be0079c531659141344cd1fd0a4f28419497f9722a3daafe3b4186f6b6457e060405160405180910390a350806200011b576001600060146101000a81548160ff0219169083151502179055505b50506200012b565b600033905090565b61256a806200013b6000396000f3fe6080604052600436106100dd5760003560e01c80638da5cb5b1161007f578063dbba0f0111610059578063dbba0f01146103ec578063e4187b131461047f578063f2fde38b146104ec578063ff1d57521461053d576100dd565b80638da5cb5b146103155780638f32d59b1461036c578063a91ee0dc1461039b576100dd565b80634e008cdb116100bb5780634e008cdb1461020257806354255be014610267578063715018a6146102a75780637b103999146102be576100dd565b8063158ef93e146100df5780632f257aa01461010e57806331de7d1514610169575b005b3480156100eb57600080fd5b506100f4610638565b604051808215151515815260200191505060405180910390f35b34801561011a57600080fd5b506101676004803603604081101561013157600080fd5b81019080803573ffffffffffffffffffffffffffffffffffffffff1690602001909291908035906020019092919050505061064b565b005b34801561017557600080fd5b506101ec6004803603608081101561018c57600080fd5b81019080803573ffffffffffffffffffffffffffffffffffffffff169060200190929190803573ffffffffffffffffffffffffffffffffffffffff16906020019092919080359060200190929190803590602001909291905050506106d3565b6040518082815260200191505060405180910390f35b34801561020e57600080fd5b506102516004803603602081101561022557600080fd5b81019080803573ffffffffffffffffffffffffffffffffffffffff169060200190929190505050611090565b6040518082815260200191505060405180910390f35b34801561027357600080fd5b5061027c6110a8565b6040518085815260200184815260200183815260200182815260200194505050505060405180910390f35b3480156102b357600080fd5b506102bc6110ce565b005b3480156102ca57600080fd5b506102d3611207565b604051808273ffffffffffffffffffffffffffffffffffffffff1673ffffffffffffffffffffffffffffffffffffffff16815260200191505060405180910390f35b34801561032157600080fd5b5061032a61122d565b604051808273ffffffffffffffffffffffffffffffffffffffff1673ffffffffffffffffffffffffffffffffffffffff16815260200191505060405180910390f35b34801561037857600080fd5b50610381611256565b604051808215151515815260200191505060405180910390f35b3480156103a757600080fd5b506103ea600480360360208110156103be57600080fd5b81019080803573ffffffffffffffffffffffffffffffffffffffff1690602001909291905050506112b4565b005b3480156103f857600080fd5b506104656004803603606081101561040f57600080fd5b81019080803573ffffffffffffffffffffffffffffffffffffffff16906020019092919080359060200190929190803573ffffffffffffffffffffffffffffffffffffffff169060200190929190505050611458565b604051808215151515815260200191505060405180910390f35b34801561048b57600080fd5b506104d6600480360360808110156104a257600080fd5b810190808035906020019092919080359060200190929190803590602001909291908035906020019092919050505061159f565b6040518082815260200191505060405180910390f35b3480156104f857600080fd5b5061053b6004803603602081101561050f57600080fd5b81019080803573ffffffffffffffffffffffffffffffffffffffff169060200190929190505050611645565b005b34801561054957600080fd5b506106366004803603606081101561056057600080fd5b81019080803573ffffffffffffffffffffffffffffffffffffffff1690602001909291908035906020019064010000000081111561059d57600080fd5b8201836020820111156105af57600080fd5b803590602001918460208302840111640100000000831117156105d157600080fd5b9091929391929390803590602001906401000000008111156105f257600080fd5b82018360208201111561060457600080fd5b8035906020019184602083028401116401000000008311171561062657600080fd5b90919293919293905050506116cb565b005b600060149054906101000a900460ff1681565b610653611256565b6106c5576040517f08c379a00000000000000000000000000000000000000000000000000000000081526004018080602001828103825260208152602001807f4f776e61626c653a2063616c6c6572206973206e6f7420746865206f776e657281525060200191505060405180910390fd5b6106cf82826117e5565b5050565b6000600160009054906101000a900473ffffffffffffffffffffffffffffffffffffffff1673ffffffffffffffffffffffffffffffffffffffff1663dcf0aaed60405160200180807f476f6c64546f6b656e00000000000000000000000000000000000000000000008152506009019050604051602081830303815290604052805190602001206040518263ffffffff1660e01b81526004018082815260200191505060206040518083038186803b15801561078e57600080fd5b505afa1580156107a2573d6000803e3d6000fd5b505050506040513d60208110156107b857600080fd5b810190808051906020019092919050505073ffffffffffffffffffffffffffffffffffffffff168473ffffffffffffffffffffffffffffffffffffffff1614610869576040517f08c379a00000000000000000000000000000000000000000000000000000000081526004018080602001828103825260208152602001807f42757920746f6b656e2063616e206f6e6c7920626520676f6c6420746f6b656e81525060200191505060405180910390fd5b60008590508073ffffffffffffffffffffffffffffffffffffffff166370a08231306040518263ffffffff1660e01b8152600401808273ffffffffffffffffffffffffffffffffffffffff1673ffffffffffffffffffffffffffffffffffffffff16815260200191505060206040518083038186803b1580156108eb57600080fd5b505afa1580156108ff573d6000803e3d6000fd5b505050506040513d602081101561091557600080fd5b810190808051906020019092919050505084111561097e576040517f08c379a00000000000000000000000000000000000000000000000000000000081526004018080602001828103825260238152602001806125136023913960400191505060405180910390fd5b6000600160009054906101000a900473ffffffffffffffffffffffffffffffffffffffff1673ffffffffffffffffffffffffffffffffffffffff1663dcf0aaed8373ffffffffffffffffffffffffffffffffffffffff166340a12f646040518163ffffffff1660e01b815260040160206040518083038186803b158015610a0457600080fd5b505afa158015610a18573d6000803e3d6000fd5b505050506040513d6020811015610a2e57600080fd5b81019080805190602001909291905050506040518263ffffffff1660e01b81526004018082815260200191505060206040518083038186803b158015610a7357600080fd5b505afa158015610a87573d6000803e3d6000fd5b505050506040513d6020811015610a9d57600080fd5b81019080805190602001909291905050509050600081905060008090506000610ac4611898565b9050600260008b73ffffffffffffffffffffffffffffffffffffffff1673ffffffffffffffffffffffffffffffffffffffff168152602001908152602001600020548173ffffffffffffffffffffffffffffffffffffffff1663bbc66a948c6040518263ffffffff1660e01b8152600401808273ffffffffffffffffffffffffffffffffffffffff1673ffffffffffffffffffffffffffffffffffffffff16815260200191505060206040518083038186803b158015610b8357600080fd5b505afa158015610b97573d6000803e3d6000fd5b505050506040513d6020811015610bad57600080fd5b81019080805190602001909291905050501015610c15576040517f08c379a00000000000000000000000000000000000000000000000000000000081526004018080602001828103825260268152602001806124ed6026913960400191505060405180910390fd5b6000808273ffffffffffffffffffffffffffffffffffffffff1663ef90e1b08d6040518263ffffffff1660e01b8152600401808273ffffffffffffffffffffffffffffffffffffffff1673ffffffffffffffffffffffffffffffffffffffff168152602001915050604080518083038186803b158015610c9457600080fd5b505afa158015610ca8573d6000803e3d6000fd5b505050506040513d6040811015610cbe57600080fd5b81019080805190602001909291908051906020019092919050505091509150610ce982828c8c61159f565b93508673ffffffffffffffffffffffffffffffffffffffff1663095ea7b3878c6040518363ffffffff1660e01b8152600401808373ffffffffffffffffffffffffffffffffffffffff1673ffffffffffffffffffffffffffffffffffffffff16815260200182815260200192505050602060405180830381600087803b158015610d7257600080fd5b505af1158015610d86573d6000803e3d6000fd5b505050506040513d6020811015610d9c57600080fd5b8101908080519060200190929190505050508473ffffffffffffffffffffffffffffffffffffffff16638ab1a5d48b8660006040518463ffffffff1660e01b815260040180848152602001838152602001821515151581526020019350505050602060405180830381600087803b158015610e1657600080fd5b505af1158015610e2a573d6000803e3d6000fd5b505050506040513d6020811015610e4057600080fd5b8101908080519060200190929190505050506000610e5c611993565b905060008173ffffffffffffffffffffffffffffffffffffffff166370a08231306040518263ffffffff1660e01b8152600401808273ffffffffffffffffffffffffffffffffffffffff1673ffffffffffffffffffffffffffffffffffffffff16815260200191505060206040518083038186803b158015610edd57600080fd5b505afa158015610ef1573d6000803e3d6000fd5b505050506040513d6020811015610f0757600080fd5b810190808051906020019092919050505090508173ffffffffffffffffffffffffffffffffffffffff1663a9059cbb33836040518363ffffffff1660e01b8152600401808373ffffffffffffffffffffffffffffffffffffffff1673ffffffffffffffffffffffffffffffffffffffff16815260200182815260200192505050602060405180830381600087803b158015610fa157600080fd5b505af1158015610fb5573d6000803e3d6000fd5b505050506040513d6020811015610fcb57600080fd5b8101908080519060200190929190505050507fd4cffd6979677853b45a7a17f455188a434e975ba474c5a2613c94beacea537a8e8e8e604051808473ffffffffffffffffffffffffffffffffffffffff1673ffffffffffffffffffffffffffffffffffffffff1681526020018373ffffffffffffffffffffffffffffffffffffffff1673ffffffffffffffffffffffffffffffffffffffff168152602001828152602001935050505060405180910390a1809950505050505050505050949350505050565b60026020528060005260406000206000915090505481565b600080600080600180600080839350829250819150809050935093509350935090919293565b6110d6611256565b611148576040517f08c379a00000000000000000000000000000000000000000000000000000000081526004018080602001828103825260208152602001807f4f776e61626c653a2063616c6c6572206973206e6f7420746865206f776e657281525060200191505060405180910390fd5b600073ffffffffffffffffffffffffffffffffffffffff166000809054906101000a900473ffffffffffffffffffffffffffffffffffffffff1673ffffffffffffffffffffffffffffffffffffffff167f8be0079c531659141344cd1fd0a4f28419497f9722a3daafe3b4186f6b6457e060405160405180910390a360008060006101000a81548173ffffffffffffffffffffffffffffffffffffffff021916908373ffffffffffffffffffffffffffffffffffffffff160217905550565b600160009054906101000a900473ffffffffffffffffffffffffffffffffffffffff1681565b60008060009054906101000a900473ffffffffffffffffffffffffffffffffffffffff16905090565b60008060009054906101000a900473ffffffffffffffffffffffffffffffffffffffff1673ffffffffffffffffffffffffffffffffffffffff16611298611a8e565b73ffffffffffffffffffffffffffffffffffffffff1614905090565b6112bc611256565b61132e576040517f08c379a00000000000000000000000000000000000000000000000000000000081526004018080602001828103825260208152602001807f4f776e61626c653a2063616c6c6572206973206e6f7420746865206f776e657281525060200191505060405180910390fd5b600073ffffffffffffffffffffffffffffffffffffffff168173ffffffffffffffffffffffffffffffffffffffff1614156113d1576040517f08c379a00000000000000000000000000000000000000000000000000000000081526004018080602001828103825260208152602001807f43616e6e6f7420726567697374657220746865206e756c6c206164647265737381525060200191505060405180910390fd5b80600160006101000a81548173ffffffffffffffffffffffffffffffffffffffff021916908373ffffffffffffffffffffffffffffffffffffffff1602179055508073ffffffffffffffffffffffffffffffffffffffff167f27fe5f0c1c3b1ed427cc63d0f05759ffdecf9aec9e18d31ef366fc8a6cb5dc3b60405160405180910390a250565b6000611462611256565b6114d4576040517f08c379a00000000000000000000000000000000000000000000000000000000081526004018080602001828103825260208152602001807f4f776e61626c653a2063616c6c6572206973206e6f7420746865206f776e657281525060200191505060405180910390fd5b8373ffffffffffffffffffffffffffffffffffffffff1663a9059cbb83856040518363ffffffff1660e01b8152600401808373ffffffffffffffffffffffffffffffffffffffff1673ffffffffffffffffffffffffffffffffffffffff16815260200182815260200192505050602060405180830381600087803b15801561155b57600080fd5b505af115801561156f573d6000803e3d6000fd5b505050506040513d602081101561158557600080fd5b810190808051906020019092919050505090509392505050565b60006115a961247d565b6115b283611a96565b90506115bc61247d565b6115c68787611ab4565b90506115d061247d565b6115d986611af6565b90506115e361247d565b6115f68284611b8090919063ffffffff16565b9050611637611632611623846116158888611b8090919063ffffffff16565b611b8090919063ffffffff16565b83611fdf90919063ffffffff16565b612086565b945050505050949350505050565b61164d611256565b6116bf576040517f08c379a00000000000000000000000000000000000000000000000000000000081526004018080602001828103825260208152602001807f4f776e61626c653a2063616c6c6572206973206e6f7420746865206f776e657281525060200191505060405180910390fd5b6116c8816120a7565b50565b600060149054906101000a900460ff161561174e576040517f08c379a000000000000000000000000000000000000000000000000000000000815260040180806020018281038252601c8152602001807f636f6e747261637420616c726561647920696e697469616c697a65640000000081525060200191505060405180910390fd5b6001600060146101000a81548160ff021916908315150217905550611772336120a7565b61177b856112b4565b60008090505b848490508110156117dd576117d085858381811061179b57fe5b9050602002013573ffffffffffffffffffffffffffffffffffffffff168484848181106117c457fe5b905060200201356117e5565b8080600101915050611781565b505050505050565b80600260008473ffffffffffffffffffffffffffffffffffffffff1673ffffffffffffffffffffffffffffffffffffffff168152602001908152602001600020819055507f03cc7dddcb89dd90027bd8fa62d09d1b5c49ce5d20f8c9bb6bdeaaa62ea1718b8282604051808373ffffffffffffffffffffffffffffffffffffffff1673ffffffffffffffffffffffffffffffffffffffff1681526020018281526020019250505060405180910390a15050565b6000600160009054906101000a900473ffffffffffffffffffffffffffffffffffffffff1673ffffffffffffffffffffffffffffffffffffffff1663dcf0aaed60405160200180807f536f727465644f7261636c657300000000000000000000000000000000000000815250600d019050604051602081830303815290604052805190602001206040518263ffffffff1660e01b81526004018082815260200191505060206040518083038186803b15801561195357600080fd5b505afa158015611967573d6000803e3d6000fd5b505050506040513d602081101561197d57600080fd5b8101908080519060200190929190505050905090565b6000600160009054906101000a900473ffffffffffffffffffffffffffffffffffffffff1673ffffffffffffffffffffffffffffffffffffffff1663dcf0aaed60405160200180807f476f6c64546f6b656e00000000000000000000000000000000000000000000008152506009019050604051602081830303815290604052805190602001206040518263ffffffff1660e01b81526004018082815260200191505060206040518083038186803b158015611a4e57600080fd5b505afa158015611a62573d6000803e3d6000fd5b505050506040513d6020811015611a7857600080fd5b8101908080519060200190929190505050905090565b600033905090565b611a9e61247d565b6040518060200160405280838152509050919050565b611abc61247d565b611ac461247d565b611acd84611af6565b9050611ad761247d565b611ae084611af6565b9050611aec82826121eb565b9250505092915050565b611afe61247d565b611b06612334565b821115611b5e576040517f08c379a00000000000000000000000000000000000000000000000000000000081526004018080602001828103825260368152602001806124b76036913960400191505060405180910390fd5b604051806020016040528069d3c21bcecceda100000084028152509050919050565b611b8861247d565b600083600001511480611b9f575060008260000151145b15611bbb57604051806020016040528060008152509050611fd9565b69d3c21bcecceda100000082600001511415611bd957829050611fd9565b69d3c21bcecceda100000083600001511415611bf757819050611fd9565b600069d3c21bcecceda1000000611c0d85612353565b6000015181611c1857fe5b0490506000611c268561238a565b600001519050600069d3c21bcecceda1000000611c4286612353565b6000015181611c4d57fe5b0490506000611c5b8661238a565b6000015190506000828502905060008514611cef5782858281611c7a57fe5b0414611cee576040517f08c379a00000000000000000000000000000000000000000000000000000000081526004018080602001828103825260168152602001807f6f766572666c6f7720783179312064657465637465640000000000000000000081525060200191505060405180910390fd5b5b600069d3c21bcecceda10000008202905060008214611d915769d3c21bcecceda1000000828281611d1c57fe5b0414611d90576040517f08c379a000000000000000000000000000000000000000000000000000000000815260040180806020018281038252601f8152602001807f6f766572666c6f772078317931202a206669786564312064657465637465640081525060200191505060405180910390fd5b5b8091506000848602905060008614611e225784868281611dad57fe5b0414611e21576040517f08c379a00000000000000000000000000000000000000000000000000000000081526004018080602001828103825260168152602001807f6f766572666c6f7720783279312064657465637465640000000000000000000081525060200191505060405180910390fd5b5b6000848802905060008814611eb05784888281611e3b57fe5b0414611eaf576040517f08c379a00000000000000000000000000000000000000000000000000000000081526004018080602001828103825260168152602001807f6f766572666c6f7720783179322064657465637465640000000000000000000081525060200191505060405180910390fd5b5b611eb86123c7565b8781611ec057fe5b049650611ecb6123c7565b8581611ed357fe5b0494506000858802905060008814611f645785888281611eef57fe5b0414611f63576040517f08c379a00000000000000000000000000000000000000000000000000000000081526004018080602001828103825260168152602001807f6f766572666c6f7720783279322064657465637465640000000000000000000081525060200191505060405180910390fd5b5b611f6c61247d565b6040518060200160405280878152509050611f95816040518060200160405280878152506123d4565b9050611faf816040518060200160405280868152506123d4565b9050611fc9816040518060200160405280858152506123d4565b9050809a50505050505050505050505b92915050565b611fe761247d565b816000015183600001511015612065576040517f08c379a000000000000000000000000000000000000000000000000000000000815260040180806020018281038252601f8152602001807f737562737472616374696f6e20756e646572666c6f772064657465637465640081525060200191505060405180910390fd5b60405180602001604052808360000151856000015103815250905092915050565b600069d3c21bcecceda100000082600001518161209f57fe5b049050919050565b600073ffffffffffffffffffffffffffffffffffffffff168173ffffffffffffffffffffffffffffffffffffffff16141561212d576040517f08c379a00000000000000000000000000000000000000000000000000000000081526004018080602001828103825260268152602001806124916026913960400191505060405180910390fd5b8073ffffffffffffffffffffffffffffffffffffffff166000809054906101000a900473ffffffffffffffffffffffffffffffffffffffff1673ffffffffffffffffffffffffffffffffffffffff167f8be0079c531659141344cd1fd0a4f28419497f9722a3daafe3b4186f6b6457e060405160405180910390a3806000806101000a81548173ffffffffffffffffffffffffffffffffffffffff021916908373ffffffffffffffffffffffffffffffffffffffff16021790555050565b6121f361247d565b60008260000151141561226e576040517f08c379a00000000000000000000000000000000000000000000000000000000081526004018080602001828103825260118152602001807f63616e277420646976696465206279203000000000000000000000000000000081525060200191505060405180910390fd5b600069d3c21bcecceda10000008460000151029050836000015169d3c21bcecceda1000000828161229b57fe5b041461230f576040517f08c379a00000000000000000000000000000000000000000000000000000000081526004018080602001828103825260128152602001807f6f766572666c6f7720617420646976696465000000000000000000000000000081525060200191505060405180910390fd5b60405180602001604052808460000151838161232757fe5b0481525091505092915050565b60007601357c299a88ea76a58924d52ce4f26a85af186c2b9e74905090565b61235b61247d565b604051806020016040528069d3c21bcecceda10000008085600001518161237e57fe5b04028152509050919050565b61239261247d565b604051806020016040528069d3c21bcecceda1000000808560000151816123b557fe5b04028460000151038152509050919050565b600064e8d4a51000905090565b6123dc61247d565b6000826000015184600001510190508360000151811015612465576040517f08c379a00000000000000000000000000000000000000000000000000000000081526004018080602001828103825260158152602001807f616464206f766572666c6f77206465746563746564000000000000000000000081525060200191505060405180910390fd5b60405180602001604052808281525091505092915050565b604051806020016040528060008152509056fe4f776e61626c653a206e6577206f776e657220697320746865207a65726f206164647265737363616e277420637265617465206669786964697479206e756d626572206c6172676572207468616e206d61784e6577466978656428294e756d626572206f66207265706f72747320666f7220746f6b656e206e6f7420656e6f75676842616c616e6365206f6620746f6b656e20746f206275726e206e6f7420656e6f756768a265627a7a72315820d881ce8693e026903a60bf5da088801e522d59919f2afa370925345a7fbb1a2364736f6c634300050d0032",
  "source": "pragma solidity ^0.5.13;\n\nimport \"openzeppelin-solidity/contracts/math/SafeMath.sol\";\nimport \"openzeppelin-solidity/contracts/ownership/Ownable.sol\";\nimport \"openzeppelin-solidity/contracts/token/ERC20/IERC20.sol\";\n\nimport \"../../lib/mento-core/contracts/interfaces/IExchange.sol\";\nimport \"./interfaces/IStableTokenMento.sol\";\n\nimport \"./UsingRegistry.sol\";\nimport \"../common/interfaces/IFeeHandlerSeller.sol\";\nimport \"../stability/interfaces/ISortedOracles.sol\";\nimport \"../common/FixidityLib.sol\";\nimport \"../common/Initializable.sol\";\nimport \"./FeeHandlerSeller.sol\";\n\n// An implementation of FeeHandlerSeller supporting interfaces compatible with\n// Mento\n// See https://github.com/celo-org/celo-proposals/blob/master/CIPs/cip-0052.md\ncontract MentoFeeHandlerSeller is IFeeHandlerSeller, FeeHandlerSeller {\n  using SafeMath for uint256;\n  using FixidityLib for FixidityLib.Fraction;\n\n  /**\n   * @notice Sets initialized == true on implementation contracts.\n   * @param test Set to true to skip implementation initialisation.\n   */\n  constructor(bool test) public Initializable(test) {}\n\n  // without this line the contract can't receive native Celo transfers\n  function() external payable {}\n\n  /**\n   * @notice Returns the storage, major, minor, and patch version of the contract.\n   * @return Storage version of the contract.\n   * @return Major version of the contract.\n   * @return Minor version of the contract.\n   * @return Patch version of the contract.\n   */\n  function getVersionNumber() external pure returns (uint256, uint256, uint256, uint256) {\n    return (1, 1, 0, 0);\n  }\n\n  function sell(\n    address sellTokenAddress,\n    address buyTokenAddress,\n    uint256 amount,\n    uint256 maxSlippage // as fraction,\n  ) external returns (uint256) {\n    require(\n      buyTokenAddress == registry.getAddressForOrDie(GOLD_TOKEN_REGISTRY_ID),\n      \"Buy token can only be gold token\"\n    );\n\n    IStableTokenMento stableToken = IStableTokenMento(sellTokenAddress);\n    require(amount <= stableToken.balanceOf(address(this)), \"Balance of token to burn not enough\");\n\n    address exchangeAddress = registry.getAddressForOrDie(stableToken.getExchangeRegistryId());\n\n    IExchange exchange = IExchange(exchangeAddress);\n\n    uint256 minAmount = 0;\n\n    ISortedOracles sortedOracles = getSortedOracles();\n\n    require(\n      sortedOracles.numRates(sellTokenAddress) >= minimumReports[sellTokenAddress],\n      \"Number of reports for token not enough\"\n    );\n\n    (uint256 rateNumerator, uint256 rateDenominator) = sortedOracles.medianRate(sellTokenAddress);\n    minAmount = calculateMinAmount(rateNumerator, rateDenominator, amount, maxSlippage);\n\n    // TODO an upgrade would be to compare using routers as well\n    stableToken.approve(exchangeAddress, amount);\n    exchange.sell(amount, minAmount, false);\n\n    IERC20 goldToken = getGoldToken();\n    uint256 celoAmount = goldToken.balanceOf(address(this));\n    goldToken.transfer(msg.sender, celoAmount);\n\n    emit TokenSold(sellTokenAddress, buyTokenAddress, amount);\n    return celoAmount;\n  }\n}\n",
  "compiler": {
    "name": "solc",
    "version": "0.5.13+commit.5b0b510c.Emscripten.clang"
  },
  "schemaVersion": "3.4.13",
  "updatedAt": "2023-11-21T17:25:47.895Z",
  "networkType": "ethereum",
  "devdoc": {
    "methods": {
      "calculateMinAmount(uint256,uint256,uint256,uint256)": {
        "details": "Calculates the minimum amount of tokens that should be received for the specified  amount with the given mid-price and maximum slippage.",
        "params": {
          "amount": "The amount of tokens to be exchanged.",
          "maxSlippage": "The maximum slippage percentage as a fraction of the mid-price.",
          "midPriceDenominator": "The denominator of the mid-price for the token pair.",
          "midPriceNumerator": "The numerator of the mid-price for the token pair."
        },
        "return": "The minimum amount of tokens that should be received as a uint256 value."
      },
      "constructor": {
        "params": {
          "test": "Set to true to skip implementation initialisation."
        }
      },
      "getVersionNumber()": {
        "return": "Storage version of the contract.Major version of the contract.Minor version of the contract.Patch version of the contract."
      },
      "isOwner()": {
        "details": "Returns true if the caller is the current owner."
      },
      "owner()": {
        "details": "Returns the address of the current owner."
      },
      "renounceOwnership()": {
        "details": "Leaves the contract without owner. It will not be possible to call `onlyOwner` functions anymore. Can only be called by the current owner.     * NOTE: Renouncing ownership will leave the contract without an owner, thereby removing any functionality that is only available to the owner."
      },
      "setMinimumReports(address,uint256)": {
        "params": {
          "newMininumReports": "The new update minimum number of reports required."
        }
      },
      "setRegistry(address)": {
        "params": {
          "registryAddress": "The address of a registry contract for routing to other contracts."
        }
      },
      "transfer(address,uint256,address)": {
        "params": {
          "amount": "The amount of tokens to transfer.",
          "to": "The address of the recipient to transfer the tokens to.",
          "token": "The address of the token to transfer."
        },
        "return": "A boolean indicating whether the transfer was successful or not."
      },
      "transferOwnership(address)": {
        "details": "Transfers ownership of the contract to a new account (`newOwner`). Can only be called by the current owner."
      }
    }
  },
  "userdoc": {
    "methods": {
      "constructor": "Sets initialized == true on implementation contracts.",
      "getVersionNumber()": {
        "notice": "Returns the storage, major, minor, and patch version of the contract."
      },
      "setMinimumReports(address,uint256)": {
        "notice": "Allows owner to set the minimum number of reports required."
      },
      "setRegistry(address)": {
        "notice": "Updates the address pointing to a Registry contract."
      },
      "transfer(address,uint256,address)": {
        "notice": "Allows owner to transfer tokens of this contract. It's meant for governance to  trigger use cases not contemplated in this contract."
      }
    }
  }
}