{
  "contractName": "TypedMemView",
  "abi": [
    {
      "constant": true,
      "inputs": [],
      "name": "NULL",
      "outputs": [
        {
          "internalType": "bytes29",
          "name": "",
          "type": "bytes29"
        }
      ],
      "payable": false,
      "stateMutability": "view",
      "type": "function"
    }
  ],
  "bytecode": "0x60b9610024600b82828239805160001a607314601757fe5b30600052607381538281f3fe730000000000000000000000000000000000000000301460806040526004361060335760003560e01c8063f26be3fc146038575b600080fd5b603e6060565b604051808262ffffff191662ffffff1916815260200191505060405180910390f35b7fffffffffffffffffffffffffffffffffffffffffffffffffffffffffff0000008156fea265627a7a7231582088f6728a736c96a28b7ba8a0fa5894ce5d06b95551f38d1f9dd14ac24e72081564736f6c634300050d0032",
  "source": "// SPDX-License-Identifier: MIT OR Apache-2.0\n// Original authors: https://github.com/summa-tx/memview-sol\npragma solidity >=0.5.10 <0.8.0;\n\nimport { SafeMathMem } from \"./SafeMathMem.sol\";\n\nlibrary TypedMemView {\n  using SafeMathMem for uint256;\n\n  // Why does this exist?\n  // the solidity `bytes memory` type has a few weaknesses.\n  // 1. You can't index ranges effectively\n  // 2. You can't slice without copying\n  // 3. The underlying data may represent any type\n  // 4. Solidity never deallocates memory, and memory costs grow\n  //    superlinearly\n\n  // By using a memory view instead of a `bytes memory` we get the following\n  // advantages:\n  // 1. Slices are done on the stack, by manipulating the pointer\n  // 2. We can index arbitrary ranges and quickly convert them to stack types\n  // 3. We can insert type info into the pointer, and typecheck at runtime\n\n  // This makes `TypedMemView` a useful tool for efficient zero-copy\n  // algorithms.\n\n  // Why bytes29?\n  // We want to avoid confusion between views, digests, and other common\n  // types so we chose a large and uncommonly used odd number of bytes\n  //\n  // Note that while bytes are left-aligned in a word, integers and addresses\n  // are right-aligned. This means when working in assembly we have to\n  // account for the 3 unused bytes on the righthand side\n  //\n  // First 5 bytes are a type flag.\n  // - ff_ffff_fffe is reserved for unknown type.\n  // - ff_ffff_ffff is reserved for invalid types/errors.\n  // next 12 are memory address\n  // next 12 are len\n  // bottom 3 bytes are empty\n\n  // Assumptions:\n  // - non-modification of memory.\n  // - No Solidity updates\n  // - - wrt free mem point\n  // - - wrt bytes representation in memory\n  // - - wrt memory addressing in general\n\n  // Usage:\n  // - create type constants\n  // - use `assertType` for runtime type assertions\n  // - - unfortunately we can't do this at compile time yet :(\n  // - recommended: implement modifiers that perform type checking\n  // - - e.g.\n  // - - `uint40 constant MY_TYPE = 3;`\n  // - - ` modifer onlyMyType(bytes29 myView) { myView.assertType(MY_TYPE); }`\n  // - instantiate a typed view from a bytearray using `ref`\n  // - use `index` to inspect the contents of the view\n  // - use `slice` to create smaller views into the same memory\n  // - - `slice` can increase the offset\n  // - - `slice can decrease the length`\n  // - - must specify the output type of `slice`\n  // - - `slice` will return a null view if you try to overrun\n  // - - make sure to explicitly check for this with `notNull` or `assertType`\n  // - use `equal` for typed comparisons.\n\n  // The null view\n  bytes29 public constant NULL = hex\"ffffffffffffffffffffffffffffffffffffffffffffffffffffffffff\";\n  // Mask a low uint96\n  uint256 constant LOW_12_MASK = 0xffffffffffffffffffffffff;\n  // Shift constants\n  uint8 constant SHIFT_TO_LEN = 24;\n  uint8 constant SHIFT_TO_LOC = 96 + 24;\n  uint8 constant SHIFT_TO_TYPE = 96 + 96 + 24;\n  // For nibble encoding\n  bytes private constant NIBBLE_LOOKUP = \"0123456789abcdef\";\n\n  /**\n     * @notice Returns the encoded hex character that represents the lower 4 bits of the argument.\n     * @param _byte The byte\n     * @return _char The encoded hex character\n     */\n  function nibbleHex(uint8 _byte) internal pure returns (uint8 _char) {\n    uint8 _nibble = _byte & 0x0f; // keep bottom 4, 0 top 4\n    _char = uint8(NIBBLE_LOOKUP[_nibble]);\n  }\n  /**\n     * @notice      Returns a uint16 containing the hex-encoded byte.\n     * @param _b    The byte\n     * @return      encoded - The hex-encoded byte\n     */\n  function byteHex(uint8 _b) internal pure returns (uint16 encoded) {\n    encoded |= nibbleHex(_b >> 4); // top 4 bits\n    encoded <<= 8;\n    encoded |= nibbleHex(_b); // lower 4 bits\n  }\n\n  /**\n     * @notice      Encodes the uint256 to hex. `first` contains the encoded top 16 bytes.\n     *              `second` contains the encoded lower 16 bytes.\n     *\n     * @param _b    The 32 bytes as uint256\n     * @return      first - The top 16 bytes\n     * @return      second - The bottom 16 bytes\n     */\n  function encodeHex(uint256 _b) internal pure returns (uint256 first, uint256 second) {\n    for (uint8 i = 31; i > 15; i -= 1) {\n      uint8 _byte = uint8(_b >> (i * 8));\n      first |= byteHex(_byte);\n      if (i != 16) {\n        first <<= 16;\n      }\n    }\n\n    // abusing underflow here =_=\n    for (uint8 i = 15; i < 255; i -= 1) {\n      uint8 _byte = uint8(_b >> (i * 8));\n      second |= byteHex(_byte);\n      if (i != 0) {\n        second <<= 16;\n      }\n    }\n  }\n\n  /**\n     * @notice          Changes the endianness of a uint256.\n     * @dev             https://graphics.stanford.edu/~seander/bithacks.html#ReverseParallel\n     * @param _b        The unsigned integer to reverse\n     * @return          v - The reversed value\n     */\n  function reverseUint256(uint256 _b) internal pure returns (uint256 v) {\n    v = _b;\n\n    // swap bytes\n    v =\n      ((v >> 8) & 0x00FF00FF00FF00FF00FF00FF00FF00FF00FF00FF00FF00FF00FF00FF00FF00FF) |\n      ((v & 0x00FF00FF00FF00FF00FF00FF00FF00FF00FF00FF00FF00FF00FF00FF00FF00FF) << 8);\n    // swap 2-byte long pairs\n    v =\n      ((v >> 16) & 0x0000FFFF0000FFFF0000FFFF0000FFFF0000FFFF0000FFFF0000FFFF0000FFFF) |\n      ((v & 0x0000FFFF0000FFFF0000FFFF0000FFFF0000FFFF0000FFFF0000FFFF0000FFFF) << 16);\n    // swap 4-byte long pairs\n    v =\n      ((v >> 32) & 0x00000000FFFFFFFF00000000FFFFFFFF00000000FFFFFFFF00000000FFFFFFFF) |\n      ((v & 0x00000000FFFFFFFF00000000FFFFFFFF00000000FFFFFFFF00000000FFFFFFFF) << 32);\n    // swap 8-byte long pairs\n    v =\n      ((v >> 64) & 0x0000000000000000FFFFFFFFFFFFFFFF0000000000000000FFFFFFFFFFFFFFFF) |\n      ((v & 0x0000000000000000FFFFFFFFFFFFFFFF0000000000000000FFFFFFFFFFFFFFFF) << 64);\n    // swap 16-byte long pairs\n    v = (v >> 128) | (v << 128);\n  }\n\n  /**\n     * @notice      Create a mask with the highest `_len` bits set.\n     * @param _len  The length\n     * @return      mask - The mask\n     */\n  function leftMask(uint8 _len) private pure returns (uint256 mask) {\n    // ugly. redo without assembly?\n    assembly {\n      // solium-disable-previous-line security/no-inline-assembly\n      mask := sar(sub(_len, 1), 0x8000000000000000000000000000000000000000000000000000000000000000)\n    }\n  }\n\n  /**\n     * @notice      Return the null view.\n     * @return      bytes29 - The null view\n     */\n  function nullView() internal pure returns (bytes29) {\n    return NULL;\n  }\n\n  /**\n     * @notice      Check if the view is null.\n     * @return      bool - True if the view is null\n     */\n  function isNull(bytes29 memView) internal pure returns (bool) {\n    return memView == NULL;\n  }\n\n  /**\n     * @notice      Check if the view is not null.\n     * @return      bool - True if the view is not null\n     */\n  function notNull(bytes29 memView) internal pure returns (bool) {\n    return !isNull(memView);\n  }\n\n  /**\n     * @notice          Check if the view is of a valid type and points to a valid location\n     *                  in memory.\n     * @dev             We perform this check by examining solidity's unallocated memory\n     *                  pointer and ensuring that the view's upper bound is less than that.\n     * @param memView   The view\n     * @return          ret - True if the view is valid\n     */\n  function isValid(bytes29 memView) internal pure returns (bool ret) {\n    if (typeOf(memView) == 0xffffffffff) {\n      return false;\n    }\n    uint256 _end = end(memView);\n    assembly {\n      // solhint-disable-previous-line no-inline-assembly\n      ret := iszero(gt(_end, mload(0x40)))\n    }\n  }\n\n  /**\n     * @notice          Require that a typed memory view be valid.\n     * @dev             Returns the view for easy chaining.\n     * @param memView   The view\n     * @return          bytes29 - The validated view\n     */\n  function assertValid(bytes29 memView) internal pure returns (bytes29) {\n    require(isValid(memView), \"Validity assertion failed\");\n    return memView;\n  }\n\n  /**\n     * @notice          Return true if the memview is of the expected type. Otherwise false.\n     * @param memView   The view\n     * @param _expected The expected type\n     * @return          bool - True if the memview is of the expected type\n     */\n  function isType(bytes29 memView, uint40 _expected) internal pure returns (bool) {\n    return typeOf(memView) == _expected;\n  }\n\n  /**\n     * @notice          Require that a typed memory view has a specific type.\n     * @dev             Returns the view for easy chaining.\n     * @param memView   The view\n     * @param _expected The expected type\n     * @return          bytes29 - The view with validated type\n     */\n  function assertType(bytes29 memView, uint40 _expected) internal pure returns (bytes29) {\n    if (!isType(memView, _expected)) {\n      (, uint256 g) = encodeHex(uint256(typeOf(memView)));\n      (, uint256 e) = encodeHex(uint256(_expected));\n      string memory err = string(\n        abi.encodePacked(\"Type assertion failed. Got 0x\", uint80(g), \". Expected 0x\", uint80(e))\n      );\n      revert(err);\n    }\n    return memView;\n  }\n\n  /**\n     * @notice          Return an identical view with a different type.\n     * @param memView   The view\n     * @param _newType  The new type\n     * @return          newView - The new view with the specified type\n     */\n  function castTo(bytes29 memView, uint40 _newType) internal pure returns (bytes29 newView) {\n    // then | in the new type\n    uint256 _typeShift = SHIFT_TO_TYPE;\n    uint256 _typeBits = 40;\n    assembly {\n      // solium-disable-previous-line security/no-inline-assembly\n      // shift off the top 5 bytes\n      newView := or(newView, shr(_typeBits, shl(_typeBits, memView)))\n      newView := or(newView, shl(_typeShift, _newType))\n    }\n  }\n\n  /**\n     * @notice          Unsafe raw pointer construction. This should generally not be called\n     *                  directly. Prefer `ref` wherever possible.\n     * @dev             Unsafe raw pointer construction. This should generally not be called\n     *                  directly. Prefer `ref` wherever possible.\n     * @param _type     The type\n     * @param _loc      The memory address\n     * @param _len      The length\n     * @return          newView - The new view with the specified type, location and length\n     */\n  function unsafeBuildUnchecked(uint256 _type, uint256 _loc, uint256 _len)\n    private\n    pure\n    returns (bytes29 newView)\n  {\n    uint256 _uint96Bits = 96;\n    uint256 _emptyBits = 24;\n    assembly {\n      // solium-disable-previous-line security/no-inline-assembly\n      newView := shl(_uint96Bits, or(newView, _type)) // insert type\n      newView := shl(_uint96Bits, or(newView, _loc)) // insert loc\n      newView := shl(_emptyBits, or(newView, _len)) // empty bottom 3 bytes\n    }\n  }\n\n  /**\n     * @notice          Instantiate a new memory view. This should generally not be called\n     *                  directly. Prefer `ref` wherever possible.\n     * @dev             Instantiate a new memory view. This should generally not be called\n     *                  directly. Prefer `ref` wherever possible.\n     * @param _type     The type\n     * @param _loc      The memory address\n     * @param _len      The length\n     * @return          newView - The new view with the specified type, location and length\n     */\n  function build(uint256 _type, uint256 _loc, uint256 _len)\n    internal\n    pure\n    returns (bytes29 newView)\n  {\n    uint256 _end = _loc.add(_len);\n    assembly {\n      // solium-disable-previous-line security/no-inline-assembly\n      if gt(_end, mload(0x40)) {\n        _end := 0\n      }\n    }\n    if (_end == 0) {\n      return NULL;\n    }\n    newView = unsafeBuildUnchecked(_type, _loc, _len);\n  }\n\n  /**\n     * @notice          Instantiate a memory view from a byte array.\n     * @dev             Note that due to Solidity memory representation, it is not possible to\n     *                  implement a deref, as the `bytes` type stores its len in memory.\n     * @param arr       The byte array\n     * @param newType   The type\n     * @return          bytes29 - The memory view\n     */\n  function ref(bytes memory arr, uint40 newType) internal pure returns (bytes29) {\n    uint256 _len = arr.length;\n\n    uint256 _loc;\n    assembly {\n      // solium-disable-previous-line security/no-inline-assembly\n      _loc := add(arr, 0x20) // our view is of the data, not the struct\n    }\n\n    return build(newType, _loc, _len);\n  }\n\n  /**\n     * @notice          Return the associated type information.\n     * @param memView   The memory view\n     * @return          _type - The type associated with the view\n     */\n  function typeOf(bytes29 memView) internal pure returns (uint40 _type) {\n    uint256 _shift = SHIFT_TO_TYPE;\n    assembly {\n      // solium-disable-previous-line security/no-inline-assembly\n      _type := shr(_shift, memView) // shift out lower 27 bytes\n    }\n  }\n\n  /**\n     * @notice          Optimized type comparison. Checks that the 5-byte type flag is equal.\n     * @param left      The first view\n     * @param right     The second view\n     * @return          bool - True if the 5-byte type flag is equal\n     */\n  function sameType(bytes29 left, bytes29 right) internal pure returns (bool) {\n    return (left ^ right) >> SHIFT_TO_TYPE == 0;\n  }\n\n  /**\n     * @notice          Return the memory address of the underlying bytes.\n     * @param memView   The view\n     * @return          _loc - The memory address\n     */\n  function loc(bytes29 memView) internal pure returns (uint96 _loc) {\n    uint256 _mask = LOW_12_MASK; // assembly can't use globals\n    uint256 _shift = SHIFT_TO_LOC;\n    assembly {\n      // solium-disable-previous-line security/no-inline-assembly\n      _loc := and(shr(_shift, memView), _mask)\n    }\n  }\n\n  /**\n     * @notice          The number of memory words this memory view occupies, rounded up.\n     * @param memView   The view\n     * @return          uint256 - The number of memory words\n     */\n  function words(bytes29 memView) internal pure returns (uint256) {\n    return uint256(len(memView)).add(31) / 32;\n  }\n\n  /**\n     * @notice          The in-memory footprint of a fresh copy of the view.\n     * @param memView   The view\n     * @return          uint256 - The in-memory footprint of a fresh copy of the view.\n     */\n  function footprint(bytes29 memView) internal pure returns (uint256) {\n    return words(memView) * 32;\n  }\n\n  /**\n     * @notice          The number of bytes of the view.\n     * @param memView   The view\n     * @return          _len - The length of the view\n     */\n  function len(bytes29 memView) internal pure returns (uint96 _len) {\n    uint256 _mask = LOW_12_MASK; // assembly can't use globals\n    uint256 _emptyBits = 24;\n    assembly {\n      // solium-disable-previous-line security/no-inline-assembly\n      _len := and(shr(_emptyBits, memView), _mask)\n    }\n  }\n\n  /**\n     * @notice          Returns the endpoint of `memView`.\n     * @param memView   The view\n     * @return          uint256 - The endpoint of `memView`\n     */\n  function end(bytes29 memView) internal pure returns (uint256) {\n    return loc(memView) + len(memView);\n  }\n\n  /**\n     * @notice          Safe slicing without memory modification.\n     * @param memView   The view\n     * @param _index    The start index\n     * @param _len      The length\n     * @param newType   The new type\n     * @return          bytes29 - The new view\n     */\n  function slice(bytes29 memView, uint256 _index, uint256 _len, uint40 newType)\n    internal\n    pure\n    returns (bytes29)\n  {\n    uint256 _loc = loc(memView);\n\n    // Ensure it doesn't overrun the view\n    if (_loc.add(_index).add(_len) > end(memView)) {\n      return NULL;\n    }\n\n    _loc = _loc.add(_index);\n    return build(newType, _loc, _len);\n  }\n\n  /**\n     * @notice          Shortcut to `slice`. Gets a view representing the first `_len` bytes.\n     * @param memView   The view\n     * @param _len      The length\n     * @param newType   The new type\n     * @return          bytes29 - The new view\n     */\n  function prefix(bytes29 memView, uint256 _len, uint40 newType) internal pure returns (bytes29) {\n    return slice(memView, 0, _len, newType);\n  }\n\n  /**\n     * @notice          Shortcut to `slice`. Gets a view representing the last `_len` byte.\n     * @param memView   The view\n     * @param _len      The length\n     * @param newType   The new type\n     * @return          bytes29 - The new view\n     */\n  function postfix(bytes29 memView, uint256 _len, uint40 newType) internal pure returns (bytes29) {\n    return slice(memView, uint256(len(memView)).sub(_len), _len, newType);\n  }\n\n  /**\n     * @notice          Construct an error message for an indexing overrun.\n     * @param _loc      The memory address\n     * @param _len      The length\n     * @param _index    The index\n     * @param _slice    The slice where the overrun occurred\n     * @return          err - The err\n     */\n  function indexErrOverrun(uint256 _loc, uint256 _len, uint256 _index, uint256 _slice)\n    internal\n    pure\n    returns (string memory err)\n  {\n    (, uint256 a) = encodeHex(_loc);\n    (, uint256 b) = encodeHex(_len);\n    (, uint256 c) = encodeHex(_index);\n    (, uint256 d) = encodeHex(_slice);\n    err = string(\n      abi.encodePacked(\n        \"TypedMemView/index - Overran the view. Slice is at 0x\",\n        uint48(a),\n        \" with length 0x\",\n        uint48(b),\n        \". Attempted to index at offset 0x\",\n        uint48(c),\n        \" with length 0x\",\n        uint48(d),\n        \".\"\n      )\n    );\n  }\n\n  /**\n     * @notice          Load up to 32 bytes from the view onto the stack.\n     * @dev             Returns a bytes32 with only the `_bytes` highest bytes set.\n     *                  This can be immediately cast to a smaller fixed-length byte array.\n     *                  To automatically cast to an integer, use `indexUint`.\n     * @param memView   The view\n     * @param _index    The index\n     * @param _bytes    The bytes\n     * @return          result - The 32 byte result\n     */\n  function index(bytes29 memView, uint256 _index, uint8 _bytes)\n    internal\n    pure\n    returns (bytes32 result)\n  {\n    if (_bytes == 0) {\n      return bytes32(0);\n    }\n    if (_index.add(_bytes) > len(memView)) {\n      revert(indexErrOverrun(loc(memView), len(memView), _index, uint256(_bytes)));\n    }\n    require(_bytes <= 32, \"TypedMemView/index - Attempted to index more than 32 bytes\");\n\n    uint8 bitLength = _bytes * 8;\n    uint256 _loc = loc(memView);\n    uint256 _mask = leftMask(bitLength);\n    assembly {\n      // solium-disable-previous-line security/no-inline-assembly\n      result := and(mload(add(_loc, _index)), _mask)\n    }\n  }\n\n  /**\n     * @notice          Parse an unsigned integer from the view at `_index`.\n     * @dev             Requires that the view have >= `_bytes` bytes following that index.\n     * @param memView   The view\n     * @param _index    The index\n     * @param _bytes    The bytes\n     * @return          result - The unsigned integer\n     */\n  function indexUint(bytes29 memView, uint256 _index, uint8 _bytes)\n    internal\n    pure\n    returns (uint256 result)\n  {\n    return uint256(index(memView, _index, _bytes)) >> ((32 - _bytes) * 8);\n  }\n\n  /**\n     * @notice          Parse an unsigned integer from LE bytes.\n     * @param memView   The view\n     * @param _index    The index\n     * @param _bytes    The bytes\n     * @return          result - The unsigned integer\n     */\n  function indexLEUint(bytes29 memView, uint256 _index, uint8 _bytes)\n    internal\n    pure\n    returns (uint256 result)\n  {\n    return reverseUint256(uint256(index(memView, _index, _bytes)));\n  }\n\n  /**\n     * @notice          Parse an address from the view at `_index`. Requires that the view have >= 20 bytes\n     *                  following that index.\n     * @param memView   The view\n     * @param _index    The index\n     * @return          address - The address\n     */\n  function indexAddress(bytes29 memView, uint256 _index) internal pure returns (address) {\n    return address(uint160(indexUint(memView, _index, 20)));\n  }\n\n  /**\n     * @notice          Return the keccak256 hash of the underlying memory\n     * @param memView   The view\n     * @return          digest - The keccak256 hash of the underlying memory\n     */\n  function keccak(bytes29 memView) internal pure returns (bytes32 digest) {\n    uint256 _loc = loc(memView);\n    uint256 _len = len(memView);\n    assembly {\n      // solium-disable-previous-line security/no-inline-assembly\n      digest := keccak256(_loc, _len)\n    }\n  }\n\n  /**\n     * @notice          Return the sha2 digest of the underlying memory.\n     * @dev             We explicitly deallocate memory afterwards.\n     * @param memView   The view\n     * @return          digest - The sha2 hash of the underlying memory\n     */\n  function sha2(bytes29 memView) internal view returns (bytes32 digest) {\n    uint256 _loc = loc(memView);\n    uint256 _len = len(memView);\n\n    bool res;\n    assembly {\n      // solium-disable-previous-line security/no-inline-assembly\n      let ptr := mload(0x40)\n      res := staticcall(gas, 2, _loc, _len, ptr, 0x20) // sha2 #1\n      digest := mload(ptr)\n    }\n    require(res, \"sha2 OOG\");\n  }\n\n  /**\n     * @notice          Implements bitcoin's hash160 (rmd160(sha2()))\n     * @param memView   The pre-image\n     * @return          digest - the Digest\n     */\n  function hash160(bytes29 memView) internal view returns (bytes20 digest) {\n    uint256 _loc = loc(memView);\n    uint256 _len = len(memView);\n    bool res;\n    assembly {\n      // solium-disable-previous-line security/no-inline-assembly\n      let ptr := mload(0x40)\n      res := staticcall(gas, 2, _loc, _len, ptr, 0x20) // sha2\n      res := and(res, staticcall(gas, 3, ptr, 0x20, ptr, 0x20)) // rmd160\n      digest := mload(add(ptr, 0xc)) // return value is 0-prefixed.\n    }\n    require(res, \"hash160 OOG\");\n  }\n\n  /**\n     * @notice          Implements bitcoin's hash256 (double sha2)\n     * @param memView   A view of the preimage\n     * @return          digest - the Digest\n     */\n  function hash256(bytes29 memView) internal view returns (bytes32 digest) {\n    uint256 _loc = loc(memView);\n    uint256 _len = len(memView);\n    bool res;\n    assembly {\n      // solium-disable-previous-line security/no-inline-assembly\n      let ptr := mload(0x40)\n      res := staticcall(gas, 2, _loc, _len, ptr, 0x20) // sha2 #1\n      res := and(res, staticcall(gas, 2, ptr, 0x20, ptr, 0x20)) // sha2 #2\n      digest := mload(ptr)\n    }\n    require(res, \"hash256 OOG\");\n  }\n\n  /**\n     * @notice          Return true if the underlying memory is equal. Else false.\n     * @param left      The first view\n     * @param right     The second view\n     * @return          bool - True if the underlying memory is equal\n     */\n  function untypedEqual(bytes29 left, bytes29 right) internal pure returns (bool) {\n    return (loc(left) == loc(right) && len(left) == len(right)) || keccak(left) == keccak(right);\n  }\n\n  /**\n     * @notice          Return false if the underlying memory is equal. Else true.\n     * @param left      The first view\n     * @param right     The second view\n     * @return          bool - False if the underlying memory is equal\n     */\n  function untypedNotEqual(bytes29 left, bytes29 right) internal pure returns (bool) {\n    return !untypedEqual(left, right);\n  }\n\n  /**\n     * @notice          Compares type equality.\n     * @dev             Shortcuts if the pointers are identical, otherwise compares type and digest.\n     * @param left      The first view\n     * @param right     The second view\n     * @return          bool - True if the types are the same\n     */\n  function equal(bytes29 left, bytes29 right) internal pure returns (bool) {\n    return left == right || (typeOf(left) == typeOf(right) && keccak(left) == keccak(right));\n  }\n\n  /**\n     * @notice          Compares type inequality.\n     * @dev             Shortcuts if the pointers are identical, otherwise compares type and digest.\n     * @param left      The first view\n     * @param right     The second view\n     * @return          bool - True if the types are not the same\n     */\n  function notEqual(bytes29 left, bytes29 right) internal pure returns (bool) {\n    return !equal(left, right);\n  }\n\n  /**\n     * @notice          Copy the view to a location, return an unsafe memory reference\n     * @dev             Super Dangerous direct memory access.\n     *\n     *                  This reference can be overwritten if anything else modifies memory (!!!).\n     *                  As such it MUST be consumed IMMEDIATELY.\n     *                  This function is private to prevent unsafe usage by callers.\n     * @param memView   The view\n     * @param _newLoc   The new location\n     * @return          written - the unsafe memory reference\n     */\n  function unsafeCopyTo(bytes29 memView, uint256 _newLoc) private view returns (bytes29 written) {\n    require(notNull(memView), \"TypedMemView/copyTo - Null pointer deref\");\n    require(isValid(memView), \"TypedMemView/copyTo - Invalid pointer deref\");\n    uint256 _len = len(memView);\n    uint256 _oldLoc = loc(memView);\n\n    uint256 ptr;\n    bool res;\n    assembly {\n      // solium-disable-previous-line security/no-inline-assembly\n      ptr := mload(0x40)\n      // revert if we're writing in occupied memory\n      if gt(ptr, _newLoc) {\n        revert(0x60, 0x20) // empty revert message\n      }\n\n      // use the identity precompile to copy\n      res := staticcall(gas, 4, _oldLoc, _len, _newLoc, _len)\n    }\n    require(res, \"identity OOG\");\n    written = unsafeBuildUnchecked(typeOf(memView), _newLoc, _len);\n  }\n\n  /**\n     * @notice          Copies the referenced memory to a new loc in memory, returning a `bytes` pointing to\n     *                  the new memory\n     * @dev             Shortcuts if the pointers are identical, otherwise compares type and digest.\n     * @param memView   The view\n     * @return          ret - The view pointing to the new memory\n     */\n  function clone(bytes29 memView) internal view returns (bytes memory ret) {\n    uint256 ptr;\n    uint256 _len = len(memView);\n    assembly {\n      // solium-disable-previous-line security/no-inline-assembly\n      ptr := mload(0x40) // load unused memory pointer\n      ret := ptr\n    }\n    unsafeCopyTo(memView, ptr + 0x20);\n    assembly {\n      // solium-disable-previous-line security/no-inline-assembly\n      mstore(0x40, add(add(ptr, _len), 0x20)) // write new unused pointer\n      mstore(ptr, _len) // write len of new array (in bytes)\n    }\n  }\n\n  /**\n     * @notice          Join the views in memory, return an unsafe reference to the memory.\n     * @dev             Super Dangerous direct memory access.\n     *\n     *                  This reference can be overwritten if anything else modifies memory (!!!).\n     *                  As such it MUST be consumed IMMEDIATELY.\n     *                  This function is private to prevent unsafe usage by callers.\n     * @param memViews  The views\n     * @param _location The location in memory to which to copy & concatenate\n     * @return          unsafeView - The conjoined view pointing to the new memory\n     */\n  function unsafeJoin(bytes29[] memory memViews, uint256 _location)\n    private\n    view\n    returns (bytes29 unsafeView)\n  {\n    assembly {\n      // solium-disable-previous-line security/no-inline-assembly\n      let ptr := mload(0x40)\n      // revert if we're writing in occupied memory\n      if gt(ptr, _location) {\n        revert(0x60, 0x20) // empty revert message\n      }\n    }\n\n    uint256 _offset = 0;\n    for (uint256 i = 0; i < memViews.length; i++) {\n      bytes29 memView = memViews[i];\n      unsafeCopyTo(memView, _location + _offset);\n      _offset += len(memView);\n    }\n    unsafeView = unsafeBuildUnchecked(0, _location, _offset);\n  }\n\n  /**\n     * @notice          Produce the keccak256 digest of the concatenated contents of multiple views.\n     * @param memViews  The views\n     * @return          bytes32 - The keccak256 digest\n     */\n  function joinKeccak(bytes29[] memory memViews) internal view returns (bytes32) {\n    uint256 ptr;\n    assembly {\n      // solium-disable-previous-line security/no-inline-assembly\n      ptr := mload(0x40) // load unused memory pointer\n    }\n    return keccak(unsafeJoin(memViews, ptr));\n  }\n\n  /**\n     * @notice          Produce the sha256 digest of the concatenated contents of multiple views.\n     * @param memViews  The views\n     * @return          bytes32 - The sha256 digest\n     */\n  function joinSha2(bytes29[] memory memViews) internal view returns (bytes32) {\n    uint256 ptr;\n    assembly {\n      // solium-disable-previous-line security/no-inline-assembly\n      ptr := mload(0x40) // load unused memory pointer\n    }\n    return sha2(unsafeJoin(memViews, ptr));\n  }\n\n  /**\n     * @notice          copies all views, joins them into a new bytearray.\n     * @param memViews  The views\n     * @return          ret - The new byte array\n     */\n  function join(bytes29[] memory memViews) internal view returns (bytes memory ret) {\n    uint256 ptr;\n    assembly {\n      // solium-disable-previous-line security/no-inline-assembly\n      ptr := mload(0x40) // load unused memory pointer\n    }\n\n    bytes29 _newView = unsafeJoin(memViews, ptr + 0x20);\n    uint256 _written = len(_newView);\n    uint256 _footprint = footprint(_newView);\n\n    assembly {\n      // solium-disable-previous-line security/no-inline-assembly\n      // store the legnth\n      mstore(ptr, _written)\n      // new pointer is old + 0x20 + the footprint of the body\n      mstore(0x40, add(add(ptr, _footprint), 0x20))\n      ret := ptr\n    }\n  }\n}\n",
  "compiler": {
    "name": "solc",
    "version": "0.5.13+commit.5b0b510c.Emscripten.clang"
  },
  "schemaVersion": "3.4.13",
  "updatedAt": "2023-11-21T17:21:12.377Z",
  "devdoc": {
    "methods": {}
  },
  "userdoc": {
    "methods": {}
  }
}