{
  "contractName": "ValidatorsTest",
  "abi": [
    {
      "anonymous": false,
      "inputs": [
        {
          "indexed": false,
          "internalType": "uint256",
          "name": "delay",
          "type": "uint256"
        }
      ],
      "name": "CommissionUpdateDelaySet",
      "type": "event"
    },
    {
      "anonymous": false,
      "inputs": [
        {
          "indexed": false,
          "internalType": "uint256",
          "name": "value",
          "type": "uint256"
        },
        {
          "indexed": false,
          "internalType": "uint256",
          "name": "duration",
          "type": "uint256"
        }
      ],
      "name": "GroupLockedGoldRequirementsSet",
      "type": "event"
    },
    {
      "anonymous": false,
      "inputs": [
        {
          "indexed": false,
          "internalType": "uint256",
          "name": "size",
          "type": "uint256"
        }
      ],
      "name": "MaxGroupSizeSet",
      "type": "event"
    },
    {
      "anonymous": false,
      "inputs": [
        {
          "indexed": false,
          "internalType": "uint256",
          "name": "length",
          "type": "uint256"
        }
      ],
      "name": "MembershipHistoryLengthSet",
      "type": "event"
    },
    {
      "anonymous": false,
      "inputs": [
        {
          "indexed": true,
          "internalType": "address",
          "name": "previousOwner",
          "type": "address"
        },
        {
          "indexed": true,
          "internalType": "address",
          "name": "newOwner",
          "type": "address"
        }
      ],
      "name": "OwnershipTransferred",
      "type": "event"
    },
    {
      "anonymous": false,
      "inputs": [
        {
          "indexed": true,
          "internalType": "address",
          "name": "registryAddress",
          "type": "address"
        }
      ],
      "name": "RegistrySet",
      "type": "event"
    },
    {
      "anonymous": false,
      "inputs": [
        {
          "indexed": true,
          "internalType": "address",
          "name": "validator",
          "type": "address"
        },
        {
          "indexed": true,
          "internalType": "address",
          "name": "group",
          "type": "address"
        }
      ],
      "name": "ValidatorAffiliated",
      "type": "event"
    },
    {
      "anonymous": false,
      "inputs": [
        {
          "indexed": true,
          "internalType": "address",
          "name": "validator",
          "type": "address"
        },
        {
          "indexed": false,
          "internalType": "bytes",
          "name": "blsPublicKey",
          "type": "bytes"
        }
      ],
      "name": "ValidatorBlsPublicKeyUpdated",
      "type": "event"
    },
    {
      "anonymous": false,
      "inputs": [
        {
          "indexed": true,
          "internalType": "address",
          "name": "validator",
          "type": "address"
        },
        {
          "indexed": true,
          "internalType": "address",
          "name": "group",
          "type": "address"
        }
      ],
      "name": "ValidatorDeaffiliated",
      "type": "event"
    },
    {
      "anonymous": false,
      "inputs": [
        {
          "indexed": true,
          "internalType": "address",
          "name": "validator",
          "type": "address"
        }
      ],
      "name": "ValidatorDeregistered",
      "type": "event"
    },
    {
      "anonymous": false,
      "inputs": [
        {
          "indexed": true,
          "internalType": "address",
          "name": "validator",
          "type": "address"
        },
        {
          "indexed": false,
          "internalType": "bytes",
          "name": "ecdsaPublicKey",
          "type": "bytes"
        }
      ],
      "name": "ValidatorEcdsaPublicKeyUpdated",
      "type": "event"
    },
    {
      "anonymous": false,
      "inputs": [
        {
          "indexed": true,
          "internalType": "address",
          "name": "validator",
          "type": "address"
        },
        {
          "indexed": false,
          "internalType": "uint256",
          "name": "validatorPayment",
          "type": "uint256"
        },
        {
          "indexed": true,
          "internalType": "address",
          "name": "group",
          "type": "address"
        },
        {
          "indexed": false,
          "internalType": "uint256",
          "name": "groupPayment",
          "type": "uint256"
        }
      ],
      "name": "ValidatorEpochPaymentDistributed",
      "type": "event"
    },
    {
      "anonymous": false,
      "inputs": [
        {
          "indexed": true,
          "internalType": "address",
          "name": "group",
          "type": "address"
        },
        {
          "indexed": false,
          "internalType": "uint256",
          "name": "commission",
          "type": "uint256"
        },
        {
          "indexed": false,
          "internalType": "uint256",
          "name": "activationBlock",
          "type": "uint256"
        }
      ],
      "name": "ValidatorGroupCommissionUpdateQueued",
      "type": "event"
    },
    {
      "anonymous": false,
      "inputs": [
        {
          "indexed": true,
          "internalType": "address",
          "name": "group",
          "type": "address"
        },
        {
          "indexed": false,
          "internalType": "uint256",
          "name": "commission",
          "type": "uint256"
        }
      ],
      "name": "ValidatorGroupCommissionUpdated",
      "type": "event"
    },
    {
      "anonymous": false,
      "inputs": [
        {
          "indexed": true,
          "internalType": "address",
          "name": "group",
          "type": "address"
        }
      ],
      "name": "ValidatorGroupDeregistered",
      "type": "event"
    },
    {
      "anonymous": false,
      "inputs": [
        {
          "indexed": true,
          "internalType": "address",
          "name": "group",
          "type": "address"
        },
        {
          "indexed": true,
          "internalType": "address",
          "name": "validator",
          "type": "address"
        }
      ],
      "name": "ValidatorGroupMemberAdded",
      "type": "event"
    },
    {
      "anonymous": false,
      "inputs": [
        {
          "indexed": true,
          "internalType": "address",
          "name": "group",
          "type": "address"
        },
        {
          "indexed": true,
          "internalType": "address",
          "name": "validator",
          "type": "address"
        }
      ],
      "name": "ValidatorGroupMemberRemoved",
      "type": "event"
    },
    {
      "anonymous": false,
      "inputs": [
        {
          "indexed": true,
          "internalType": "address",
          "name": "group",
          "type": "address"
        },
        {
          "indexed": true,
          "internalType": "address",
          "name": "validator",
          "type": "address"
        }
      ],
      "name": "ValidatorGroupMemberReordered",
      "type": "event"
    },
    {
      "anonymous": false,
      "inputs": [
        {
          "indexed": true,
          "internalType": "address",
          "name": "group",
          "type": "address"
        },
        {
          "indexed": false,
          "internalType": "uint256",
          "name": "commission",
          "type": "uint256"
        }
      ],
      "name": "ValidatorGroupRegistered",
      "type": "event"
    },
    {
      "anonymous": false,
      "inputs": [
        {
          "indexed": false,
          "internalType": "uint256",
          "name": "value",
          "type": "uint256"
        },
        {
          "indexed": false,
          "internalType": "uint256",
          "name": "duration",
          "type": "uint256"
        }
      ],
      "name": "ValidatorLockedGoldRequirementsSet",
      "type": "event"
    },
    {
      "anonymous": false,
      "inputs": [
        {
          "indexed": true,
          "internalType": "address",
          "name": "validator",
          "type": "address"
        }
      ],
      "name": "ValidatorRegistered",
      "type": "event"
    },
    {
      "anonymous": false,
      "inputs": [
        {
          "indexed": false,
          "internalType": "uint256",
          "name": "exponent",
          "type": "uint256"
        },
        {
          "indexed": false,
          "internalType": "uint256",
          "name": "adjustmentSpeed",
          "type": "uint256"
        }
      ],
      "name": "ValidatorScoreParametersSet",
      "type": "event"
    },
    {
      "anonymous": false,
      "inputs": [
        {
          "indexed": true,
          "internalType": "address",
          "name": "validator",
          "type": "address"
        },
        {
          "indexed": false,
          "internalType": "uint256",
          "name": "score",
          "type": "uint256"
        },
        {
          "indexed": false,
          "internalType": "uint256",
          "name": "epochScore",
          "type": "uint256"
        }
      ],
      "name": "ValidatorScoreUpdated",
      "type": "event"
    },
    {
      "constant": false,
      "inputs": [
        {
          "internalType": "address",
          "name": "validator",
          "type": "address"
        },
        {
          "internalType": "address",
          "name": "lesser",
          "type": "address"
        },
        {
          "internalType": "address",
          "name": "greater",
          "type": "address"
        }
      ],
      "name": "addFirstMember",
      "outputs": [
        {
          "internalType": "bool",
          "name": "",
          "type": "bool"
        }
      ],
      "payable": false,
      "stateMutability": "nonpayable",
      "type": "function"
    },
    {
      "constant": false,
      "inputs": [
        {
          "internalType": "address",
          "name": "validator",
          "type": "address"
        }
      ],
      "name": "addMember",
      "outputs": [
        {
          "internalType": "bool",
          "name": "",
          "type": "bool"
        }
      ],
      "payable": false,
      "stateMutability": "nonpayable",
      "type": "function"
    },
    {
      "constant": false,
      "inputs": [
        {
          "internalType": "address",
          "name": "group",
          "type": "address"
        }
      ],
      "name": "affiliate",
      "outputs": [
        {
          "internalType": "bool",
          "name": "",
          "type": "bool"
        }
      ],
      "payable": false,
      "stateMutability": "nonpayable",
      "type": "function"
    },
    {
      "constant": true,
      "inputs": [
        {
          "internalType": "uint256",
          "name": "uptime",
          "type": "uint256"
        }
      ],
      "name": "calculateEpochScore",
      "outputs": [
        {
          "internalType": "uint256",
          "name": "",
          "type": "uint256"
        }
      ],
      "payable": false,
      "stateMutability": "view",
      "type": "function"
    },
    {
      "constant": true,
      "inputs": [
        {
          "internalType": "uint256[]",
          "name": "uptimes",
          "type": "uint256[]"
        }
      ],
      "name": "calculateGroupEpochScore",
      "outputs": [
        {
          "internalType": "uint256",
          "name": "",
          "type": "uint256"
        }
      ],
      "payable": false,
      "stateMutability": "view",
      "type": "function"
    },
    {
      "constant": true,
      "inputs": [
        {
          "internalType": "address",
          "name": "sender",
          "type": "address"
        },
        {
          "internalType": "bytes",
          "name": "blsKey",
          "type": "bytes"
        },
        {
          "internalType": "bytes",
          "name": "blsPop",
          "type": "bytes"
        }
      ],
      "name": "checkProofOfPossession",
      "outputs": [
        {
          "internalType": "bool",
          "name": "",
          "type": "bool"
        }
      ],
      "payable": false,
      "stateMutability": "view",
      "type": "function"
    },
    {
      "constant": true,
      "inputs": [],
      "name": "commissionUpdateDelay",
      "outputs": [
        {
          "internalType": "uint256",
          "name": "",
          "type": "uint256"
        }
      ],
      "payable": false,
      "stateMutability": "view",
      "type": "function"
    },
    {
      "constant": false,
      "inputs": [],
      "name": "deaffiliate",
      "outputs": [
        {
          "internalType": "bool",
          "name": "",
          "type": "bool"
        }
      ],
      "payable": false,
      "stateMutability": "nonpayable",
      "type": "function"
    },
    {
      "constant": false,
      "inputs": [
        {
          "internalType": "uint256",
          "name": "index",
          "type": "uint256"
        }
      ],
      "name": "deregisterValidator",
      "outputs": [
        {
          "internalType": "bool",
          "name": "",
          "type": "bool"
        }
      ],
      "payable": false,
      "stateMutability": "nonpayable",
      "type": "function"
    },
    {
      "constant": false,
      "inputs": [
        {
          "internalType": "uint256",
          "name": "index",
          "type": "uint256"
        }
      ],
      "name": "deregisterValidatorGroup",
      "outputs": [
        {
          "internalType": "bool",
          "name": "",
          "type": "bool"
        }
      ],
      "payable": false,
      "stateMutability": "nonpayable",
      "type": "function"
    },
    {
      "constant": true,
      "inputs": [],
      "name": "downtimeGracePeriod",
      "outputs": [
        {
          "internalType": "uint256",
          "name": "",
          "type": "uint256"
        }
      ],
      "payable": false,
      "stateMutability": "view",
      "type": "function"
    },
    {
      "constant": false,
      "inputs": [
        {
          "internalType": "address",
          "name": "validatorAccount",
          "type": "address"
        }
      ],
      "name": "forceDeaffiliateIfValidator",
      "outputs": [],
      "payable": false,
      "stateMutability": "nonpayable",
      "type": "function"
    },
    {
      "constant": true,
      "inputs": [
        {
          "internalType": "uint256",
          "name": "aNumerator",
          "type": "uint256"
        },
        {
          "internalType": "uint256",
          "name": "aDenominator",
          "type": "uint256"
        },
        {
          "internalType": "uint256",
          "name": "bNumerator",
          "type": "uint256"
        },
        {
          "internalType": "uint256",
          "name": "bDenominator",
          "type": "uint256"
        },
        {
          "internalType": "uint256",
          "name": "exponent",
          "type": "uint256"
        },
        {
          "internalType": "uint256",
          "name": "_decimals",
          "type": "uint256"
        }
      ],
      "name": "fractionMulExp",
      "outputs": [
        {
          "internalType": "uint256",
          "name": "",
          "type": "uint256"
        },
        {
          "internalType": "uint256",
          "name": "",
          "type": "uint256"
        }
      ],
      "payable": false,
      "stateMutability": "view",
      "type": "function"
    },
    {
      "constant": true,
      "inputs": [
        {
          "internalType": "address",
          "name": "account",
          "type": "address"
        }
      ],
      "name": "getAccountLockedGoldRequirement",
      "outputs": [
        {
          "internalType": "uint256",
          "name": "",
          "type": "uint256"
        }
      ],
      "payable": false,
      "stateMutability": "view",
      "type": "function"
    },
    {
      "constant": true,
      "inputs": [
        {
          "internalType": "bytes",
          "name": "header",
          "type": "bytes"
        }
      ],
      "name": "getBlockNumberFromHeader",
      "outputs": [
        {
          "internalType": "uint256",
          "name": "",
          "type": "uint256"
        }
      ],
      "payable": false,
      "stateMutability": "view",
      "type": "function"
    },
    {
      "constant": true,
      "inputs": [],
      "name": "getCommissionUpdateDelay",
      "outputs": [
        {
          "internalType": "uint256",
          "name": "",
          "type": "uint256"
        }
      ],
      "payable": false,
      "stateMutability": "view",
      "type": "function"
    },
    {
      "constant": true,
      "inputs": [],
      "name": "getEpochNumber",
      "outputs": [
        {
          "internalType": "uint256",
          "name": "",
          "type": "uint256"
        }
      ],
      "payable": false,
      "stateMutability": "view",
      "type": "function"
    },
    {
      "constant": true,
      "inputs": [
        {
          "internalType": "uint256",
          "name": "blockNumber",
          "type": "uint256"
        }
      ],
      "name": "getEpochNumberOfBlock",
      "outputs": [
        {
          "internalType": "uint256",
          "name": "",
          "type": "uint256"
        }
      ],
      "payable": false,
      "stateMutability": "view",
      "type": "function"
    },
    {
      "constant": true,
      "inputs": [],
      "name": "getEpochSize",
      "outputs": [
        {
          "internalType": "uint256",
          "name": "",
          "type": "uint256"
        }
      ],
      "payable": false,
      "stateMutability": "view",
      "type": "function"
    },
    {
      "constant": true,
      "inputs": [],
      "name": "getGroupLockedGoldRequirements",
      "outputs": [
        {
          "internalType": "uint256",
          "name": "",
          "type": "uint256"
        },
        {
          "internalType": "uint256",
          "name": "",
          "type": "uint256"
        }
      ],
      "payable": false,
      "stateMutability": "view",
      "type": "function"
    },
    {
      "constant": true,
      "inputs": [
        {
          "internalType": "address",
          "name": "account",
          "type": "address"
        }
      ],
      "name": "getGroupNumMembers",
      "outputs": [
        {
          "internalType": "uint256",
          "name": "",
          "type": "uint256"
        }
      ],
      "payable": false,
      "stateMutability": "view",
      "type": "function"
    },
    {
      "constant": true,
      "inputs": [
        {
          "internalType": "address[]",
          "name": "accounts",
          "type": "address[]"
        }
      ],
      "name": "getGroupsNumMembers",
      "outputs": [
        {
          "internalType": "uint256[]",
          "name": "",
          "type": "uint256[]"
        }
      ],
      "payable": false,
      "stateMutability": "view",
      "type": "function"
    },
    {
      "constant": true,
      "inputs": [],
      "name": "getMaxGroupSize",
      "outputs": [
        {
          "internalType": "uint256",
          "name": "",
          "type": "uint256"
        }
      ],
      "payable": false,
      "stateMutability": "view",
      "type": "function"
    },
    {
      "constant": true,
      "inputs": [
        {
          "internalType": "address",
          "name": "account",
          "type": "address"
        }
      ],
      "name": "getMembershipHistory",
      "outputs": [
        {
          "internalType": "uint256[]",
          "name": "",
          "type": "uint256[]"
        },
        {
          "internalType": "address[]",
          "name": "",
          "type": "address[]"
        },
        {
          "internalType": "uint256",
          "name": "",
          "type": "uint256"
        },
        {
          "internalType": "uint256",
          "name": "",
          "type": "uint256"
        }
      ],
      "payable": false,
      "stateMutability": "view",
      "type": "function"
    },
    {
      "constant": true,
      "inputs": [
        {
          "internalType": "address",
          "name": "account",
          "type": "address"
        }
      ],
      "name": "getMembershipInLastEpoch",
      "outputs": [
        {
          "internalType": "address",
          "name": "",
          "type": "address"
        }
      ],
      "payable": false,
      "stateMutability": "view",
      "type": "function"
    },
    {
      "constant": true,
      "inputs": [
        {
          "internalType": "address",
          "name": "signer",
          "type": "address"
        }
      ],
      "name": "getMembershipInLastEpochFromSigner",
      "outputs": [
        {
          "internalType": "address",
          "name": "",
          "type": "address"
        }
      ],
      "payable": false,
      "stateMutability": "view",
      "type": "function"
    },
    {
      "constant": true,
      "inputs": [],
      "name": "getNumRegisteredValidators",
      "outputs": [
        {
          "internalType": "uint256",
          "name": "",
          "type": "uint256"
        }
      ],
      "payable": false,
      "stateMutability": "view",
      "type": "function"
    },
    {
      "constant": true,
      "inputs": [
        {
          "internalType": "uint256",
          "name": "blockNumber",
          "type": "uint256"
        }
      ],
      "name": "getParentSealBitmap",
      "outputs": [
        {
          "internalType": "bytes32",
          "name": "",
          "type": "bytes32"
        }
      ],
      "payable": false,
      "stateMutability": "view",
      "type": "function"
    },
    {
      "constant": true,
      "inputs": [],
      "name": "getRegisteredValidatorGroups",
      "outputs": [
        {
          "internalType": "address[]",
          "name": "",
          "type": "address[]"
        }
      ],
      "payable": false,
      "stateMutability": "view",
      "type": "function"
    },
    {
      "constant": true,
      "inputs": [],
      "name": "getRegisteredValidatorSigners",
      "outputs": [
        {
          "internalType": "address[]",
          "name": "",
          "type": "address[]"
        }
      ],
      "payable": false,
      "stateMutability": "view",
      "type": "function"
    },
    {
      "constant": true,
      "inputs": [],
      "name": "getRegisteredValidators",
      "outputs": [
        {
          "internalType": "address[]",
          "name": "",
          "type": "address[]"
        }
      ],
      "payable": false,
      "stateMutability": "view",
      "type": "function"
    },
    {
      "constant": true,
      "inputs": [
        {
          "internalType": "address",
          "name": "account",
          "type": "address"
        },
        {
          "internalType": "uint256",
          "name": "n",
          "type": "uint256"
        }
      ],
      "name": "getTopGroupValidators",
      "outputs": [
        {
          "internalType": "address[]",
          "name": "",
          "type": "address[]"
        }
      ],
      "payable": false,
      "stateMutability": "view",
      "type": "function"
    },
    {
      "constant": true,
      "inputs": [
        {
          "internalType": "address",
          "name": "account",
          "type": "address"
        }
      ],
      "name": "getValidator",
      "outputs": [
        {
          "internalType": "bytes",
          "name": "ecdsaPublicKey",
          "type": "bytes"
        },
        {
          "internalType": "bytes",
          "name": "blsPublicKey",
          "type": "bytes"
        },
        {
          "internalType": "address",
          "name": "affiliation",
          "type": "address"
        },
        {
          "internalType": "uint256",
          "name": "score",
          "type": "uint256"
        },
        {
          "internalType": "address",
          "name": "signer",
          "type": "address"
        }
      ],
      "payable": false,
      "stateMutability": "view",
      "type": "function"
    },
    {
      "constant": true,
      "inputs": [
        {
          "internalType": "address",
          "name": "signer",
          "type": "address"
        }
      ],
      "name": "getValidatorBlsPublicKeyFromSigner",
      "outputs": [
        {
          "internalType": "bytes",
          "name": "blsPublicKey",
          "type": "bytes"
        }
      ],
      "payable": false,
      "stateMutability": "view",
      "type": "function"
    },
    {
      "constant": true,
      "inputs": [
        {
          "internalType": "address",
          "name": "account",
          "type": "address"
        }
      ],
      "name": "getValidatorGroup",
      "outputs": [
        {
          "internalType": "address[]",
          "name": "",
          "type": "address[]"
        },
        {
          "internalType": "uint256",
          "name": "",
          "type": "uint256"
        },
        {
          "internalType": "uint256",
          "name": "",
          "type": "uint256"
        },
        {
          "internalType": "uint256",
          "name": "",
          "type": "uint256"
        },
        {
          "internalType": "uint256[]",
          "name": "",
          "type": "uint256[]"
        },
        {
          "internalType": "uint256",
          "name": "",
          "type": "uint256"
        },
        {
          "internalType": "uint256",
          "name": "",
          "type": "uint256"
        }
      ],
      "payable": false,
      "stateMutability": "view",
      "type": "function"
    },
    {
      "constant": true,
      "inputs": [
        {
          "internalType": "address",
          "name": "account",
          "type": "address"
        }
      ],
      "name": "getValidatorGroupSlashingMultiplier",
      "outputs": [
        {
          "internalType": "uint256",
          "name": "",
          "type": "uint256"
        }
      ],
      "payable": false,
      "stateMutability": "view",
      "type": "function"
    },
    {
      "constant": true,
      "inputs": [],
      "name": "getValidatorLockedGoldRequirements",
      "outputs": [
        {
          "internalType": "uint256",
          "name": "",
          "type": "uint256"
        },
        {
          "internalType": "uint256",
          "name": "",
          "type": "uint256"
        }
      ],
      "payable": false,
      "stateMutability": "view",
      "type": "function"
    },
    {
      "constant": true,
      "inputs": [],
      "name": "getValidatorScoreParameters",
      "outputs": [
        {
          "internalType": "uint256",
          "name": "",
          "type": "uint256"
        },
        {
          "internalType": "uint256",
          "name": "",
          "type": "uint256"
        }
      ],
      "payable": false,
      "stateMutability": "view",
      "type": "function"
    },
    {
      "constant": true,
      "inputs": [
        {
          "internalType": "bytes",
          "name": "header",
          "type": "bytes"
        }
      ],
      "name": "getVerifiedSealBitmapFromHeader",
      "outputs": [
        {
          "internalType": "bytes32",
          "name": "",
          "type": "bytes32"
        }
      ],
      "payable": false,
      "stateMutability": "view",
      "type": "function"
    },
    {
      "constant": true,
      "inputs": [],
      "name": "getVersionNumber",
      "outputs": [
        {
          "internalType": "uint256",
          "name": "",
          "type": "uint256"
        },
        {
          "internalType": "uint256",
          "name": "",
          "type": "uint256"
        },
        {
          "internalType": "uint256",
          "name": "",
          "type": "uint256"
        },
        {
          "internalType": "uint256",
          "name": "",
          "type": "uint256"
        }
      ],
      "payable": false,
      "stateMutability": "pure",
      "type": "function"
    },
    {
      "constant": true,
      "inputs": [],
      "name": "groupLockedGoldRequirements",
      "outputs": [
        {
          "internalType": "uint256",
          "name": "value",
          "type": "uint256"
        },
        {
          "internalType": "uint256",
          "name": "duration",
          "type": "uint256"
        }
      ],
      "payable": false,
      "stateMutability": "view",
      "type": "function"
    },
    {
      "constant": true,
      "inputs": [
        {
          "internalType": "address",
          "name": "account",
          "type": "address"
        },
        {
          "internalType": "uint256",
          "name": "epochNumber",
          "type": "uint256"
        },
        {
          "internalType": "uint256",
          "name": "index",
          "type": "uint256"
        }
      ],
      "name": "groupMembershipInEpoch",
      "outputs": [
        {
          "internalType": "address",
          "name": "",
          "type": "address"
        }
      ],
      "payable": false,
      "stateMutability": "view",
      "type": "function"
    },
    {
      "constant": false,
      "inputs": [
        {
          "internalType": "address",
          "name": "account",
          "type": "address"
        }
      ],
      "name": "halveSlashingMultiplier",
      "outputs": [],
      "payable": false,
      "stateMutability": "nonpayable",
      "type": "function"
    },
    {
      "constant": true,
      "inputs": [
        {
          "internalType": "bytes",
          "name": "header",
          "type": "bytes"
        }
      ],
      "name": "hashHeader",
      "outputs": [
        {
          "internalType": "bytes32",
          "name": "",
          "type": "bytes32"
        }
      ],
      "payable": false,
      "stateMutability": "view",
      "type": "function"
    },
    {
      "constant": false,
      "inputs": [
        {
          "internalType": "address",
          "name": "registryAddress",
          "type": "address"
        },
        {
          "internalType": "uint256",
          "name": "groupRequirementValue",
          "type": "uint256"
        },
        {
          "internalType": "uint256",
          "name": "groupRequirementDuration",
          "type": "uint256"
        },
        {
          "internalType": "uint256",
          "name": "validatorRequirementValue",
          "type": "uint256"
        },
        {
          "internalType": "uint256",
          "name": "validatorRequirementDuration",
          "type": "uint256"
        },
        {
          "internalType": "uint256",
          "name": "validatorScoreExponent",
          "type": "uint256"
        },
        {
          "internalType": "uint256",
          "name": "validatorScoreAdjustmentSpeed",
          "type": "uint256"
        },
        {
          "internalType": "uint256",
          "name": "_membershipHistoryLength",
          "type": "uint256"
        },
        {
          "internalType": "uint256",
          "name": "_slashingMultiplierResetPeriod",
          "type": "uint256"
        },
        {
          "internalType": "uint256",
          "name": "_maxGroupSize",
          "type": "uint256"
        },
        {
          "internalType": "uint256",
          "name": "_commissionUpdateDelay",
          "type": "uint256"
        },
        {
          "internalType": "uint256",
          "name": "_downtimeGracePeriod",
          "type": "uint256"
        }
      ],
      "name": "initialize",
      "outputs": [],
      "payable": false,
      "stateMutability": "nonpayable",
      "type": "function"
    },
    {
      "constant": true,
      "inputs": [],
      "name": "initialized",
      "outputs": [
        {
          "internalType": "bool",
          "name": "",
          "type": "bool"
        }
      ],
      "payable": false,
      "stateMutability": "view",
      "type": "function"
    },
    {
      "constant": true,
      "inputs": [],
      "name": "isOwner",
      "outputs": [
        {
          "internalType": "bool",
          "name": "",
          "type": "bool"
        }
      ],
      "payable": false,
      "stateMutability": "view",
      "type": "function"
    },
    {
      "constant": true,
      "inputs": [
        {
          "internalType": "address",
          "name": "account",
          "type": "address"
        }
      ],
      "name": "isValidator",
      "outputs": [
        {
          "internalType": "bool",
          "name": "",
          "type": "bool"
        }
      ],
      "payable": false,
      "stateMutability": "view",
      "type": "function"
    },
    {
      "constant": true,
      "inputs": [
        {
          "internalType": "address",
          "name": "account",
          "type": "address"
        }
      ],
      "name": "isValidatorGroup",
      "outputs": [
        {
          "internalType": "bool",
          "name": "",
          "type": "bool"
        }
      ],
      "payable": false,
      "stateMutability": "view",
      "type": "function"
    },
    {
      "constant": true,
      "inputs": [],
      "name": "maxGroupSize",
      "outputs": [
        {
          "internalType": "uint256",
          "name": "",
          "type": "uint256"
        }
      ],
      "payable": false,
      "stateMutability": "view",
      "type": "function"
    },
    {
      "constant": true,
      "inputs": [
        {
          "internalType": "address",
          "name": "account",
          "type": "address"
        }
      ],
      "name": "meetsAccountLockedGoldRequirements",
      "outputs": [
        {
          "internalType": "bool",
          "name": "",
          "type": "bool"
        }
      ],
      "payable": false,
      "stateMutability": "view",
      "type": "function"
    },
    {
      "constant": true,
      "inputs": [],
      "name": "membershipHistoryLength",
      "outputs": [
        {
          "internalType": "uint256",
          "name": "",
          "type": "uint256"
        }
      ],
      "payable": false,
      "stateMutability": "view",
      "type": "function"
    },
    {
      "constant": true,
      "inputs": [
        {
          "internalType": "uint256",
          "name": "blockNumber",
          "type": "uint256"
        }
      ],
      "name": "minQuorumSize",
      "outputs": [
        {
          "internalType": "uint256",
          "name": "",
          "type": "uint256"
        }
      ],
      "payable": false,
      "stateMutability": "view",
      "type": "function"
    },
    {
      "constant": true,
      "inputs": [],
      "name": "minQuorumSizeInCurrentSet",
      "outputs": [
        {
          "internalType": "uint256",
          "name": "",
          "type": "uint256"
        }
      ],
      "payable": false,
      "stateMutability": "view",
      "type": "function"
    },
    {
      "constant": true,
      "inputs": [],
      "name": "numberValidatorsInCurrentSet",
      "outputs": [
        {
          "internalType": "uint256",
          "name": "",
          "type": "uint256"
        }
      ],
      "payable": false,
      "stateMutability": "view",
      "type": "function"
    },
    {
      "constant": true,
      "inputs": [
        {
          "internalType": "uint256",
          "name": "blockNumber",
          "type": "uint256"
        }
      ],
      "name": "numberValidatorsInSet",
      "outputs": [
        {
          "internalType": "uint256",
          "name": "",
          "type": "uint256"
        }
      ],
      "payable": false,
      "stateMutability": "view",
      "type": "function"
    },
    {
      "constant": true,
      "inputs": [],
      "name": "owner",
      "outputs": [
        {
          "internalType": "address",
          "name": "",
          "type": "address"
        }
      ],
      "payable": false,
      "stateMutability": "view",
      "type": "function"
    },
    {
      "constant": false,
      "inputs": [
        {
          "internalType": "bytes",
          "name": "ecdsaPublicKey",
          "type": "bytes"
        },
        {
          "internalType": "bytes",
          "name": "blsPublicKey",
          "type": "bytes"
        },
        {
          "internalType": "bytes",
          "name": "blsPop",
          "type": "bytes"
        }
      ],
      "name": "registerValidator",
      "outputs": [
        {
          "internalType": "bool",
          "name": "",
          "type": "bool"
        }
      ],
      "payable": false,
      "stateMutability": "nonpayable",
      "type": "function"
    },
    {
      "constant": false,
      "inputs": [
        {
          "internalType": "uint256",
          "name": "commission",
          "type": "uint256"
        }
      ],
      "name": "registerValidatorGroup",
      "outputs": [
        {
          "internalType": "bool",
          "name": "",
          "type": "bool"
        }
      ],
      "payable": false,
      "stateMutability": "nonpayable",
      "type": "function"
    },
    {
      "constant": true,
      "inputs": [],
      "name": "registry",
      "outputs": [
        {
          "internalType": "contract IRegistry",
          "name": "",
          "type": "address"
        }
      ],
      "payable": false,
      "stateMutability": "view",
      "type": "function"
    },
    {
      "constant": false,
      "inputs": [
        {
          "internalType": "address",
          "name": "validator",
          "type": "address"
        }
      ],
      "name": "removeMember",
      "outputs": [
        {
          "internalType": "bool",
          "name": "",
          "type": "bool"
        }
      ],
      "payable": false,
      "stateMutability": "nonpayable",
      "type": "function"
    },
    {
      "constant": false,
      "inputs": [],
      "name": "renounceOwnership",
      "outputs": [],
      "payable": false,
      "stateMutability": "nonpayable",
      "type": "function"
    },
    {
      "constant": false,
      "inputs": [
        {
          "internalType": "address",
          "name": "validator",
          "type": "address"
        },
        {
          "internalType": "address",
          "name": "lesserMember",
          "type": "address"
        },
        {
          "internalType": "address",
          "name": "greaterMember",
          "type": "address"
        }
      ],
      "name": "reorderMember",
      "outputs": [
        {
          "internalType": "bool",
          "name": "",
          "type": "bool"
        }
      ],
      "payable": false,
      "stateMutability": "nonpayable",
      "type": "function"
    },
    {
      "constant": false,
      "inputs": [],
      "name": "resetSlashingMultiplier",
      "outputs": [],
      "payable": false,
      "stateMutability": "nonpayable",
      "type": "function"
    },
    {
      "constant": false,
      "inputs": [
        {
          "internalType": "uint256",
          "name": "delay",
          "type": "uint256"
        }
      ],
      "name": "setCommissionUpdateDelay",
      "outputs": [],
      "payable": false,
      "stateMutability": "nonpayable",
      "type": "function"
    },
    {
      "constant": false,
      "inputs": [
        {
          "internalType": "uint256",
          "name": "value",
          "type": "uint256"
        }
      ],
      "name": "setDowntimeGracePeriod",
      "outputs": [],
      "payable": false,
      "stateMutability": "nonpayable",
      "type": "function"
    },
    {
      "constant": false,
      "inputs": [
        {
          "internalType": "uint256",
          "name": "value",
          "type": "uint256"
        },
        {
          "internalType": "uint256",
          "name": "duration",
          "type": "uint256"
        }
      ],
      "name": "setGroupLockedGoldRequirements",
      "outputs": [
        {
          "internalType": "bool",
          "name": "",
          "type": "bool"
        }
      ],
      "payable": false,
      "stateMutability": "nonpayable",
      "type": "function"
    },
    {
      "constant": false,
      "inputs": [
        {
          "internalType": "uint256",
          "name": "size",
          "type": "uint256"
        }
      ],
      "name": "setMaxGroupSize",
      "outputs": [
        {
          "internalType": "bool",
          "name": "",
          "type": "bool"
        }
      ],
      "payable": false,
      "stateMutability": "nonpayable",
      "type": "function"
    },
    {
      "constant": false,
      "inputs": [
        {
          "internalType": "uint256",
          "name": "length",
          "type": "uint256"
        }
      ],
      "name": "setMembershipHistoryLength",
      "outputs": [
        {
          "internalType": "bool",
          "name": "",
          "type": "bool"
        }
      ],
      "payable": false,
      "stateMutability": "nonpayable",
      "type": "function"
    },
    {
      "constant": false,
      "inputs": [
        {
          "internalType": "uint256",
          "name": "commission",
          "type": "uint256"
        }
      ],
      "name": "setNextCommissionUpdate",
      "outputs": [],
      "payable": false,
      "stateMutability": "nonpayable",
      "type": "function"
    },
    {
      "constant": false,
      "inputs": [
        {
          "internalType": "address",
          "name": "registryAddress",
          "type": "address"
        }
      ],
      "name": "setRegistry",
      "outputs": [],
      "payable": false,
      "stateMutability": "nonpayable",
      "type": "function"
    },
    {
      "constant": false,
      "inputs": [
        {
          "internalType": "uint256",
          "name": "value",
          "type": "uint256"
        }
      ],
      "name": "setSlashingMultiplierResetPeriod",
      "outputs": [],
      "payable": false,
      "stateMutability": "nonpayable",
      "type": "function"
    },
    {
      "constant": false,
      "inputs": [
        {
          "internalType": "uint256",
          "name": "value",
          "type": "uint256"
        },
        {
          "internalType": "uint256",
          "name": "duration",
          "type": "uint256"
        }
      ],
      "name": "setValidatorLockedGoldRequirements",
      "outputs": [
        {
          "internalType": "bool",
          "name": "",
          "type": "bool"
        }
      ],
      "payable": false,
      "stateMutability": "nonpayable",
      "type": "function"
    },
    {
      "constant": false,
      "inputs": [
        {
          "internalType": "uint256",
          "name": "exponent",
          "type": "uint256"
        },
        {
          "internalType": "uint256",
          "name": "adjustmentSpeed",
          "type": "uint256"
        }
      ],
      "name": "setValidatorScoreParameters",
      "outputs": [
        {
          "internalType": "bool",
          "name": "",
          "type": "bool"
        }
      ],
      "payable": false,
      "stateMutability": "nonpayable",
      "type": "function"
    },
    {
      "constant": true,
      "inputs": [],
      "name": "slashingMultiplierResetPeriod",
      "outputs": [
        {
          "internalType": "uint256",
          "name": "",
          "type": "uint256"
        }
      ],
      "payable": false,
      "stateMutability": "view",
      "type": "function"
    },
    {
      "constant": false,
      "inputs": [
        {
          "internalType": "address",
          "name": "newOwner",
          "type": "address"
        }
      ],
      "name": "transferOwnership",
      "outputs": [],
      "payable": false,
      "stateMutability": "nonpayable",
      "type": "function"
    },
    {
      "constant": false,
      "inputs": [
        {
          "internalType": "bytes",
          "name": "blsPublicKey",
          "type": "bytes"
        },
        {
          "internalType": "bytes",
          "name": "blsPop",
          "type": "bytes"
        }
      ],
      "name": "updateBlsPublicKey",
      "outputs": [
        {
          "internalType": "bool",
          "name": "",
          "type": "bool"
        }
      ],
      "payable": false,
      "stateMutability": "nonpayable",
      "type": "function"
    },
    {
      "constant": false,
      "inputs": [],
      "name": "updateCommission",
      "outputs": [],
      "payable": false,
      "stateMutability": "nonpayable",
      "type": "function"
    },
    {
      "constant": false,
      "inputs": [
        {
          "internalType": "address",
          "name": "account",
          "type": "address"
        },
        {
          "internalType": "address",
          "name": "signer",
          "type": "address"
        },
        {
          "internalType": "bytes",
          "name": "ecdsaPublicKey",
          "type": "bytes"
        }
      ],
      "name": "updateEcdsaPublicKey",
      "outputs": [
        {
          "internalType": "bool",
          "name": "",
          "type": "bool"
        }
      ],
      "payable": false,
      "stateMutability": "nonpayable",
      "type": "function"
    },
    {
      "constant": false,
      "inputs": [
        {
          "internalType": "address",
          "name": "account",
          "type": "address"
        },
        {
          "internalType": "address",
          "name": "signer",
          "type": "address"
        },
        {
          "internalType": "bytes",
          "name": "ecdsaPublicKey",
          "type": "bytes"
        },
        {
          "internalType": "bytes",
          "name": "blsPublicKey",
          "type": "bytes"
        },
        {
          "internalType": "bytes",
          "name": "blsPop",
          "type": "bytes"
        }
      ],
      "name": "updatePublicKeys",
      "outputs": [
        {
          "internalType": "bool",
          "name": "",
          "type": "bool"
        }
      ],
      "payable": false,
      "stateMutability": "nonpayable",
      "type": "function"
    },
    {
      "constant": true,
      "inputs": [],
      "name": "validatorLockedGoldRequirements",
      "outputs": [
        {
          "internalType": "uint256",
          "name": "value",
          "type": "uint256"
        },
        {
          "internalType": "uint256",
          "name": "duration",
          "type": "uint256"
        }
      ],
      "payable": false,
      "stateMutability": "view",
      "type": "function"
    },
    {
      "constant": true,
      "inputs": [
        {
          "internalType": "uint256",
          "name": "index",
          "type": "uint256"
        }
      ],
      "name": "validatorSignerAddressFromCurrentSet",
      "outputs": [
        {
          "internalType": "address",
          "name": "",
          "type": "address"
        }
      ],
      "payable": false,
      "stateMutability": "view",
      "type": "function"
    },
    {
      "constant": true,
      "inputs": [
        {
          "internalType": "uint256",
          "name": "index",
          "type": "uint256"
        },
        {
          "internalType": "uint256",
          "name": "blockNumber",
          "type": "uint256"
        }
      ],
      "name": "validatorSignerAddressFromSet",
      "outputs": [
        {
          "internalType": "address",
          "name": "",
          "type": "address"
        }
      ],
      "payable": false,
      "stateMutability": "view",
      "type": "function"
    },
    {
      "constant": false,
      "inputs": [
        {
          "internalType": "address",
          "name": "signer",
          "type": "address"
        },
        {
          "internalType": "uint256",
          "name": "uptime",
          "type": "uint256"
        }
      ],
      "name": "updateValidatorScoreFromSigner",
      "outputs": [],
      "payable": false,
      "stateMutability": "nonpayable",
      "type": "function"
    },
    {
      "constant": false,
      "inputs": [
        {
          "internalType": "address",
          "name": "signer",
          "type": "address"
        },
        {
          "internalType": "uint256",
          "name": "maxPayment",
          "type": "uint256"
        }
      ],
      "name": "distributeEpochPaymentsFromSigner",
      "outputs": [
        {
          "internalType": "uint256",
          "name": "",
          "type": "uint256"
        }
      ],
      "payable": false,
      "stateMutability": "nonpayable",
      "type": "function"
    }
  ],
  "bytecode": "0x6080604052600180600062000019620000e860201b60201c565b9050806000806101000a81548173ffffffffffffffffffffffffffffffffffffffff021916908373ffffffffffffffffffffffffffffffffffffffff1602179055508073ffffffffffffffffffffffffffffffffffffffff16600073ffffffffffffffffffffffffffffffffffffffff167f8be0079c531659141344cd1fd0a4f28419497f9722a3daafe3b4186f6b6457e060405160405180910390a3506001808190555080620000e0576001600260006101000a81548160ff0219169083151502179055505b5050620000f0565b600033905090565b61e7a780620001006000396000f3fe608060405234801561001057600080fd5b50600436106104b75760003560e01c80638da5cb5b11610278578063ca6d56dc1161015c578063e50e652d116100ce578063ee09831011610092578063ee09831014612489578063eff2ea3f146124cf578063f2fde38b14612515578063facd743b14612559578063fae8db0a146125b5578063fffdfccb146125f7576104b7565b8063e50e652d146121ef578063e7f0376614612231578063ea684f771461223b578063eb1d0b4214612376578063ec6830721461240e576104b7565b8063dba94fcd11610120578063dba94fcd14612079578063dcff4cf6146120d1578063df4da46114612129578063e0e3ffe614612147578063e1497ff714612165578063e33301aa146121ab576104b7565b8063ca6d56dc14611ead578063cb8f98e014611f09578063d55dcbcf14611f59578063d69ef6cf14611fb8578063d93ab5ad1461201a576104b7565b8063b591d3a5116101f5578063bfdb7417116101b9578063bfdb741714611c8f578063c0c6ad6f14611d75578063c10c96ef14611dc3578063c22d3bba14611de8578063c54c1cd414611e2c578063c580514014611e88576104b7565b8063b591d3a514611b29578063b730a29914611b85578063b8f9394314611c42578063b915f53014611c4c578063bd9e9d9414611c6a576104b7565b80639a7b3be71161023c5780639a7b3be7146119535780639b2b592f146119715780639b9d5161146119b3578063a57bff9014611ab7578063a91ee0dc14611ae5576104b7565b80638da5cb5b146117665780638dd31e39146117b05780638f32d59b1461185357806394903a9714611875578063988dcd1f146118b7576104b7565b806354255be01161039f578063713ea0f31161031c57806376f7425d116102e057806376f7425d1461152e5780637b103999146115bb57806386d81a5a1461160557806387ee8a0f146116335780638a883626146116515780638b16b1c614611720576104b7565b8063713ea0f314611288578063715018a6146114035780637385e5da1461140d578063757d03801461142b57806376c0a9ed146114de576104b7565b806367960e911161036357806367960e911461106a5780636ab951a0146111395780636c620d90146111675780636fa476471461119557806370447754146111ba576104b7565b806354255be014610f0b5780635779e93d14610f3e5780635a61d15b14610f5c5780635d180adb14610fac57806360fb822c14611024576104b7565b806336407b70116104385780634b2c2f44116103fc5780634b2c2f4414610c4f5780634cd76db414610d1e5780634e06fd8a14610d3c578063517f6d3314610e0d57806351b5222514610e2b57806352f13a4e14610eaf576104b7565b806336407b7014610b1a57806339e618e814610b385780633b1eb4bf14610b905780633f27089814610bd257806343d9669914610c31576104b7565b80631904bb2e1161047f5780631904bb2e1461064a57806319113e3b146107e057806323f0ab65146108055780633173b8db1461098f57806335244f5114610a2b576104b7565b80630352a592146104bc5780630b1ca49a146104da5780630d1312b814610536578063123633ea146105ba578063158ef93e14610628575b600080fd5b6104c4612619565b6040518082815260200191505060405180910390f35b61051c600480360360208110156104f057600080fd5b81019080803573ffffffffffffffffffffffffffffffffffffffff16906020019092919050505061261f565b604051808215151515815260200191505060405180910390f35b6105786004803603602081101561054c57600080fd5b81019080803573ffffffffffffffffffffffffffffffffffffffff169060200190929190505050612811565b604051808273ffffffffffffffffffffffffffffffffffffffff1673ffffffffffffffffffffffffffffffffffffffff16815260200191505060405180910390f35b6105e6600480360360208110156105d057600080fd5b8101908080359060200190929190505050612930565b604051808273ffffffffffffffffffffffffffffffffffffffff1673ffffffffffffffffffffffffffffffffffffffff16815260200191505060405180910390f35b610630612a81565b604051808215151515815260200191505060405180910390f35b61068c6004803603602081101561066057600080fd5b81019080803573ffffffffffffffffffffffffffffffffffffffff169060200190929190505050612a94565b6040518080602001806020018673ffffffffffffffffffffffffffffffffffffffff1673ffffffffffffffffffffffffffffffffffffffff1681526020018581526020018473ffffffffffffffffffffffffffffffffffffffff1673ffffffffffffffffffffffffffffffffffffffff168152602001838103835288818151815260200191508051906020019080838360005b8381101561073a57808201518184015260208101905061071f565b50505050905090810190601f1680156107675780820380516001836020036101000a031916815260200191505b50838103825287818151815260200191508051906020019080838360005b838110156107a0578082015181840152602081019050610785565b50505050905090810190601f1680156107cd5780820380516001836020036101000a031916815260200191505b5097505050505050505060405180910390f35b6107e8612db9565b604051808381526020018281526020019250505060405180910390f35b6109756004803603606081101561081b57600080fd5b81019080803573ffffffffffffffffffffffffffffffffffffffff1690602001909291908035906020019064010000000081111561085857600080fd5b82018360208201111561086a57600080fd5b8035906020019184600183028401116401000000008311171561088c57600080fd5b91908080601f016020809104026020016040519081016040528093929190818152602001838380828437600081840152601f19601f820116905080830192505050505050509192919290803590602001906401000000008111156108ef57600080fd5b82018360208201111561090157600080fd5b8035906020019184600183028401116401000000008311171561092357600080fd5b91908080601f016020809104026020016040519081016040528093929190818152602001838380828437600081840152601f19601f820116905080830192505050505050509192919290505050612dec565b604051808215151515815260200191505060405180910390f35b610a11600480360360608110156109a557600080fd5b81019080803573ffffffffffffffffffffffffffffffffffffffff169060200190929190803573ffffffffffffffffffffffffffffffffffffffff169060200190929190803573ffffffffffffffffffffffffffffffffffffffff169060200190929190505050612fa5565b604051808215151515815260200191505060405180910390f35b610a6d60048036036020811015610a4157600080fd5b81019080803573ffffffffffffffffffffffffffffffffffffffff1690602001909291905050506131ca565b604051808060200180602001858152602001848152602001838103835287818151815260200191508051906020019060200280838360005b83811015610ac0578082015181840152602081019050610aa5565b50505050905001838103825286818151815260200191508051906020019060200280838360005b83811015610b02578082015181840152602081019050610ae7565b50505050905001965050505050505060405180910390f35b610b2261339e565b6040518082815260200191505060405180910390f35b610b7a60048036036020811015610b4e57600080fd5b81019080803573ffffffffffffffffffffffffffffffffffffffff1690602001909291905050506133a4565b6040518082815260200191505060405180910390f35b610bbc60048036036020811015610ba657600080fd5b810190808035906020019092919050505061346e565b6040518082815260200191505060405180910390f35b610bda613488565b6040518080602001828103825283818151815260200191508051906020019060200280838360005b83811015610c1d578082015181840152602081019050610c02565b505050509050019250505060405180910390f35b610c39613516565b6040518082815260200191505060405180910390f35b610d0860048036036020811015610c6557600080fd5b8101908080359060200190640100000000811115610c8257600080fd5b820183602082011115610c9457600080fd5b80359060200191846001830284011164010000000083111715610cb657600080fd5b91908080601f016020809104026020016040519081016040528093929190818152602001838380828437600081840152601f19601f820116905080830192505050505050509192919290505050613520565b6040518082815260200191505060405180910390f35b610d266136b4565b6040518082815260200191505060405180910390f35b610df360048036036060811015610d5257600080fd5b81019080803573ffffffffffffffffffffffffffffffffffffffff169060200190929190803573ffffffffffffffffffffffffffffffffffffffff16906020019092919080359060200190640100000000811115610daf57600080fd5b820183602082011115610dc157600080fd5b80359060200191846001830284011164010000000083111715610de357600080fd5b90919293919293905050506136ba565b604051808215151515815260200191505060405180910390f35b610e156139df565b6040518082815260200191505060405180910390f35b610e6d60048036036020811015610e4157600080fd5b81019080803573ffffffffffffffffffffffffffffffffffffffff1690602001909291905050506139ec565b604051808273ffffffffffffffffffffffffffffffffffffffff1673ffffffffffffffffffffffffffffffffffffffff16815260200191505060405180910390f35b610ef160048036036020811015610ec557600080fd5b81019080803573ffffffffffffffffffffffffffffffffffffffff169060200190929190505050613b3c565b604051808215151515815260200191505060405180910390f35b610f13613b95565b6040518085815260200184815260200183815260200182815260200194505050505060405180910390f35b610f46613bbd565b6040518082815260200191505060405180910390f35b610f9260048036036040811015610f7257600080fd5b810190808035906020019092919080359060200190929190505050613bc3565b604051808215151515815260200191505060405180910390f35b610fe260048036036040811015610fc257600080fd5b810190808035906020019092919080359060200190929190505050613d46565b604051808273ffffffffffffffffffffffffffffffffffffffff1673ffffffffffffffffffffffffffffffffffffffff16815260200191505060405180910390f35b6110506004803603602081101561103a57600080fd5b8101908080359060200190929190505050613e98565b604051808215151515815260200191505060405180910390f35b6111236004803603602081101561108057600080fd5b810190808035906020019064010000000081111561109d57600080fd5b8201836020820111156110af57600080fd5b803590602001918460018302840111640100000000831117156110d157600080fd5b91908080601f016020809104026020016040519081016040528093929190818152602001838380828437600081840152601f19601f82011690508083019250505050505050919291929050505061431f565b6040518082815260200191505060405180910390f35b6111656004803603602081101561114f57600080fd5b81019080803590602001909291905050506144b3565b005b6111936004803603602081101561117d57600080fd5b81019080803590602001909291905050506145c6565b005b61119d6146dc565b604051808381526020018281526020019250505060405180910390f35b611231600480360360208110156111d057600080fd5b81019080803590602001906401000000008111156111ed57600080fd5b8201836020820111156111ff57600080fd5b8035906020019184602083028401116401000000008311171561122157600080fd5b90919293919293905050506146f3565b6040518080602001828103825283818151815260200191508051906020019060200280838360005b83811015611274578082015181840152602081019050611259565b505050509050019250505060405180910390f35b6113e9600480360360a081101561129e57600080fd5b81019080803573ffffffffffffffffffffffffffffffffffffffff169060200190929190803573ffffffffffffffffffffffffffffffffffffffff169060200190929190803590602001906401000000008111156112fb57600080fd5b82018360208201111561130d57600080fd5b8035906020019184600183028401116401000000008311171561132f57600080fd5b90919293919293908035906020019064010000000081111561135057600080fd5b82018360208201111561136257600080fd5b8035906020019184600183028401116401000000008311171561138457600080fd5b9091929391929390803590602001906401000000008111156113a557600080fd5b8201836020820111156113b757600080fd5b803590602001918460018302840111640100000000831117156113d957600080fd5b90919293919293905050506147ab565b604051808215151515815260200191505060405180910390f35b61140b614bda565b005b611415614d13565b6040518082815260200191505060405180910390f35b6114dc600480360361018081101561144257600080fd5b81019080803573ffffffffffffffffffffffffffffffffffffffff1690602001909291908035906020019092919080359060200190929190803590602001909291908035906020019092919080359060200190929190803590602001909291908035906020019092919080359060200190929190803590602001909291908035906020019092919080359060200190929190505050614d23565b005b611514600480360360408110156114f457600080fd5b810190808035906020019092919080359060200190929190505050614e31565b604051808215151515815260200191505060405180910390f35b6115a56004803603602081101561154457600080fd5b810190808035906020019064010000000081111561156157600080fd5b82018360208201111561157357600080fd5b8035906020019184602083028401116401000000008311171561159557600080fd5b9091929391929390505050614f97565b6040518082815260200191505060405180910390f35b6115c361510a565b604051808273ffffffffffffffffffffffffffffffffffffffff1673ffffffffffffffffffffffffffffffffffffffff16815260200191505060405180910390f35b6116316004803603602081101561161b57600080fd5b8101908080359060200190929190505050615130565b005b61163b615445565b6040518082815260200191505060405180910390f35b61170a6004803603602081101561166757600080fd5b810190808035906020019064010000000081111561168457600080fd5b82018360208201111561169657600080fd5b803590602001918460018302840111640100000000831117156116b857600080fd5b91908080601f016020809104026020016040519081016040528093929190818152602001838380828437600081840152601f19601f82011690508083019250505050505050919291929050505061558c565b6040518082815260200191505060405180910390f35b61174c6004803603602081101561173657600080fd5b8101908080359060200190929190505050615720565b604051808215151515815260200191505060405180910390f35b61176e615cd4565b604051808273ffffffffffffffffffffffffffffffffffffffff1673ffffffffffffffffffffffffffffffffffffffff16815260200191505060405180910390f35b6117fc600480360360408110156117c657600080fd5b81019080803573ffffffffffffffffffffffffffffffffffffffff16906020019092919080359060200190929190505050615cfd565b6040518080602001828103825283818151815260200191508051906020019060200280838360005b8381101561183f578082015181840152602081019050611824565b505050509050019250505060405180910390f35b61185b615ff2565b604051808215151515815260200191505060405180910390f35b6118a16004803603602081101561188b57600080fd5b8101908080359060200190929190505050616050565b6040518082815260200191505060405180910390f35b611939600480360360608110156118cd57600080fd5b81019080803573ffffffffffffffffffffffffffffffffffffffff169060200190929190803573ffffffffffffffffffffffffffffffffffffffff169060200190929190803573ffffffffffffffffffffffffffffffffffffffff16906020019092919050505061616d565b604051808215151515815260200191505060405180910390f35b61195b61669e565b6040518082815260200191505060405180910390f35b61199d6004803603602081101561198757600080fd5b81019080803590602001909291905050506166ae565b6040518082815260200191505060405180910390f35b6119f5600480360360208110156119c957600080fd5b81019080803573ffffffffffffffffffffffffffffffffffffffff1690602001909291905050506167f7565b60405180806020018881526020018781526020018681526020018060200185815260200184815260200183810383528a818151815260200191508051906020019060200280838360005b83811015611a5a578082015181840152602081019050611a3f565b50505050905001838103825286818151815260200191508051906020019060200280838360005b83811015611a9c578082015181840152602081019050611a81565b50505050905001995050505050505050505060405180910390f35b611ae360048036036020811015611acd57600080fd5b8101908080359060200190929190505050616acd565b005b611b2760048036036020811015611afb57600080fd5b81019080803573ffffffffffffffffffffffffffffffffffffffff169060200190929190505050616be0565b005b611b6b60048036036020811015611b3f57600080fd5b81019080803573ffffffffffffffffffffffffffffffffffffffff169060200190929190505050616d84565b604051808215151515815260200191505060405180910390f35b611bc760048036036020811015611b9b57600080fd5b81019080803573ffffffffffffffffffffffffffffffffffffffff1690602001909291905050506171f6565b6040518080602001828103825283818151815260200191508051906020019080838360005b83811015611c07578082015181840152602081019050611bec565b50505050905090810190601f168015611c345780820380516001836020036101000a031916815260200191505b509250505060405180910390f35b611c4a61741c565b005b611c546176c0565b6040518082815260200191505060405180910390f35b611c726176ca565b604051808381526020018281526020019250505060405180910390f35b611d5b60048036036040811015611ca557600080fd5b8101908080359060200190640100000000811115611cc257600080fd5b820183602082011115611cd457600080fd5b80359060200191846001830284011164010000000083111715611cf657600080fd5b909192939192939080359060200190640100000000811115611d1757600080fd5b820183602082011115611d2957600080fd5b80359060200191846001830284011164010000000083111715611d4b57600080fd5b90919293919293905050506176dc565b604051808215151515815260200191505060405180910390f35b611dc160048036036040811015611d8b57600080fd5b81019080803573ffffffffffffffffffffffffffffffffffffffff16906020019092919080359060200190929190505050617972565b005b611dcb617980565b604051808381526020018281526020019250505060405180910390f35b611e2a60048036036020811015611dfe57600080fd5b81019080803573ffffffffffffffffffffffffffffffffffffffff169060200190929190505050617997565b005b611e6e60048036036020811015611e4257600080fd5b81019080803573ffffffffffffffffffffffffffffffffffffffff169060200190929190505050617c78565b604051808215151515815260200191505060405180910390f35b611e90617d63565b604051808381526020018281526020019250505060405180910390f35b611eef60048036036020811015611ec357600080fd5b81019080803573ffffffffffffffffffffffffffffffffffffffff169060200190929190505050617d75565b604051808215151515815260200191505060405180910390f35b611f3f60048036036040811015611f1f57600080fd5b810190808035906020019092919080359060200190929190505050617f99565b604051808215151515815260200191505060405180910390f35b611f616181a1565b6040518080602001828103825283818151815260200191508051906020019060200280838360005b83811015611fa4578082015181840152602081019050611f89565b505050509050019250505060405180910390f35b61200460048036036040811015611fce57600080fd5b81019080803573ffffffffffffffffffffffffffffffffffffffff16906020019092919080359060200190929190505050618350565b6040518082815260200191505060405180910390f35b612022618364565b6040518080602001828103825283818151815260200191508051906020019060200280838360005b8381101561206557808201518184015260208101905061204a565b505050509050019250505060405180910390f35b6120bb6004803603602081101561208f57600080fd5b81019080803573ffffffffffffffffffffffffffffffffffffffff1690602001909291905050506183f2565b6040518082815260200191505060405180910390f35b612113600480360360208110156120e757600080fd5b81019080803573ffffffffffffffffffffffffffffffffffffffff1690602001909291905050506184de565b6040518082815260200191505060405180910390f35b612131618663565b6040518082815260200191505060405180910390f35b61214f61879f565b6040518082815260200191505060405180910390f35b6121916004803603602081101561217b57600080fd5b81019080803590602001909291905050506187a5565b604051808215151515815260200191505060405180910390f35b6121ed600480360360208110156121c157600080fd5b81019080803573ffffffffffffffffffffffffffffffffffffffff169060200190929190505050618956565b005b61221b6004803603602081101561220557600080fd5b8101908080359060200190929190505050618bd0565b6040518082815260200191505060405180910390f35b612239618c1b565b005b61235c6004803603606081101561225157600080fd5b810190808035906020019064010000000081111561226e57600080fd5b82018360208201111561228057600080fd5b803590602001918460018302840111640100000000831117156122a257600080fd5b9091929391929390803590602001906401000000008111156122c357600080fd5b8201836020820111156122d557600080fd5b803590602001918460018302840111640100000000831117156122f757600080fd5b90919293919293908035906020019064010000000081111561231857600080fd5b82018360208201111561232a57600080fd5b8035906020019184600183028401116401000000008311171561234c57600080fd5b9091929391929390505050618f12565b604051808215151515815260200191505060405180910390f35b6123cc6004803603606081101561238c57600080fd5b81019080803573ffffffffffffffffffffffffffffffffffffffff16906020019092919080359060200190929190803590602001909291905050506195d1565b604051808273ffffffffffffffffffffffffffffffffffffffff1673ffffffffffffffffffffffffffffffffffffffff16815260200191505060405180910390f35b61246c600480360360c081101561242457600080fd5b81019080803590602001909291908035906020019092919080359060200190929190803590602001909291908035906020019092919080359060200190929190505050619961565b604051808381526020018281526020019250505060405180910390f35b6124b56004803603602081101561249f57600080fd5b8101908080359060200190929190505050619b75565b604051808215151515815260200191505060405180910390f35b6124fb600480360360208110156124e557600080fd5b810190808035906020019092919050505061a0ee565b604051808215151515815260200191505060405180910390f35b6125576004803603602081101561252b57600080fd5b81019080803573ffffffffffffffffffffffffffffffffffffffff16906020019092919050505061a265565b005b61259b6004803603602081101561256f57600080fd5b81019080803573ffffffffffffffffffffffffffffffffffffffff16906020019092919050505061a2eb565b604051808215151515815260200191505060405180910390f35b6125e1600480360360208110156125cb57600080fd5b810190808035906020019092919050505061a350565b6040518082815260200191505060405180910390f35b6125ff61a499565b604051808215151515815260200191505060405180910390f35b60115481565b60006001806000828254019250508190555060006001549050600061264261a786565b73ffffffffffffffffffffffffffffffffffffffff166364439b43336040518263ffffffff1660e01b8152600401808273ffffffffffffffffffffffffffffffffffffffff1673ffffffffffffffffffffffffffffffffffffffff16815260200191505060206040518083038186803b1580156126be57600080fd5b505afa1580156126d2573d6000803e3d6000fd5b505050506040513d60208110156126e857600080fd5b8101908080519060200190929190505050905061270481613b3c565b801561271557506127148461a2eb565b5b612787576040517f08c379a000000000000000000000000000000000000000000000000000000000815260040180806020018281038252601a8152602001807f6973206e6f742067726f757020616e642076616c696461746f7200000000000081525060200191505060405180910390fd5b612791818561a881565b925050600154811461280b576040517f08c379a000000000000000000000000000000000000000000000000000000000815260040180806020018281038252600e8152602001807f7265656e7472616e742063616c6c00000000000000000000000000000000000081525060200191505060405180910390fd5b50919050565b60008061281c61669e565b90506000600460008573ffffffffffffffffffffffffffffffffffffffff1673ffffffffffffffffffffffffffffffffffffffff16815260200190815260200160002060040190506000808260010154146128a45761289f61288c6001846001015461ace090919063ffffffff16565b836000015461ad2a90919063ffffffff16565b6128a7565b60005b9050828260020160008381526020019081526020016000206000015414156128ed5781600001548111156128ec576128e960018261ace090919063ffffffff16565b90505b5b81600201600082815260200190815260200160002060010160009054906101000a900473ffffffffffffffffffffffffffffffffffffffff169350505050919050565b60006060600060fa73ffffffffffffffffffffffffffffffffffffffff16844360405160200180838152602001828152602001925050506040516020818303038152906040526040518082805190602001908083835b602083106129a95780518252602082019150602081019050602083039250612986565b6001836020036101000a038019825116818451168082178552505050505050905001915050600060405180830381855afa9150503d8060008114612a09576040519150601f19603f3d011682016040523d82523d6000602084013e612a0e565b606091505b50809350819250505080612a6d576040517f08c379a000000000000000000000000000000000000000000000000000000000815260040180806020018281038252603d81526020018061e465603d913960400191505060405180910390fd5b612a7882600061adb2565b92505050919050565b600260009054906101000a900460ff1681565b6060806000806000612aa58661a2eb565b612b17576040517f08c379a000000000000000000000000000000000000000000000000000000000815260040180806020018281038252600f8152602001807f4e6f7420612076616c696461746f72000000000000000000000000000000000081525060200191505060405180910390fd5b6000600460008873ffffffffffffffffffffffffffffffffffffffff1673ffffffffffffffffffffffffffffffffffffffff168152602001908152602001600020905080600001600001816000016001018260020160009054906101000a900473ffffffffffffffffffffffffffffffffffffffff16612bae8460030160405180602001604052908160008201548152505061adc9565b612bb661a786565b73ffffffffffffffffffffffffffffffffffffffff16634ce38b5f8c6040518263ffffffff1660e01b8152600401808273ffffffffffffffffffffffffffffffffffffffff1673ffffffffffffffffffffffffffffffffffffffff16815260200191505060206040518083038186803b158015612c3257600080fd5b505afa158015612c46573d6000803e3d6000fd5b505050506040513d6020811015612c5c57600080fd5b8101908080519060200190929190505050848054600181600116156101000203166002900480601f016020809104026020016040519081016040528092919081815260200182805460018160011615610100020316600290048015612d025780601f10612cd757610100808354040283529160200191612d02565b820191906000526020600020905b815481529060010190602001808311612ce557829003601f168201915b50505050509450838054600181600116156101000203166002900480601f016020809104026020016040519081016040528092919081815260200182805460018160011615610100020316600290048015612d9e5780601f10612d7357610100808354040283529160200191612d9e565b820191906000526020600020905b815481529060010190602001808311612d8157829003601f168201915b50505050509350955095509550955095505091939590929450565b600080600b60000154612de4600b60010160405180602001604052908160008201548152505061adc9565b915091509091565b60008060fb73ffffffffffffffffffffffffffffffffffffffff16858585604051602001808473ffffffffffffffffffffffffffffffffffffffff1673ffffffffffffffffffffffffffffffffffffffff1660601b815260140183805190602001908083835b60208310612e755780518252602082019150602081019050602083039250612e52565b6001836020036101000a03801982511681845116808217855250505050505090500182805190602001908083835b60208310612ec65780518252602082019150602081019050602083039250612ea3565b6001836020036101000a03801982511681845116808217855250505050505090500193505050506040516020818303038152906040526040518082805190602001908083835b60208310612f2f5780518252602082019150602081019050602083039250612f0c565b6001836020036101000a038019825116818451168082178552505050505050905001915050600060405180830381855afa9150503d8060008114612f8f576040519150601f19603f3d011682016040523d82523d6000602084013e612f94565b606091505b505080915050809150509392505050565b600060018060008282540192505081905550600060015490506000612fc861a786565b73ffffffffffffffffffffffffffffffffffffffff166364439b43336040518263ffffffff1660e01b8152600401808273ffffffffffffffffffffffffffffffffffffffff1673ffffffffffffffffffffffffffffffffffffffff16815260200191505060206040518083038186803b15801561304457600080fd5b505afa158015613058573d6000803e3d6000fd5b505050506040513d602081101561306e57600080fd5b810190808051906020019092919050505090506000600360008373ffffffffffffffffffffffffffffffffffffffff1673ffffffffffffffffffffffffffffffffffffffff168152602001908152602001600020600101600201541461313c576040517f08c379a00000000000000000000000000000000000000000000000000000000081526004018080602001828103825260198152602001807f56616c696461746f722067726f7570206e6f7420656d7074790000000000000081525060200191505060405180910390fd5b6131488187878761add7565b92505060015481146131c2576040517f08c379a000000000000000000000000000000000000000000000000000000000815260040180806020018281038252600e8152602001807f7265656e7472616e742063616c6c00000000000000000000000000000000000081525060200191505060405180910390fd5b509392505050565b6060806000806000600460008773ffffffffffffffffffffffffffffffffffffffff1673ffffffffffffffffffffffffffffffffffffffff16815260200190815260200160002060040190506060816001015460405190808252806020026020018201604052801561324b5781602001602082028038833980820191505090505b509050606082600101546040519080825280602002602001820160405280156132835781602001602082028038833980820191505090505b50905060008090505b836001015481101561337f5760006132b182866000015461ad2a90919063ffffffff16565b9050846002016000828152602001908152602001600020600001548483815181106132d857fe5b60200260200101818152505084600201600082815260200190815260200160002060010160009054906101000a900473ffffffffffffffffffffffffffffffffffffffff1683838151811061332957fe5b602002602001019073ffffffffffffffffffffffffffffffffffffffff16908173ffffffffffffffffffffffffffffffffffffffff16815250505061337860018261ad2a90919063ffffffff16565b905061328c565b5081818460030154856000015496509650965096505050509193509193565b60105481565b60006133af82613b3c565b613421576040517f08c379a00000000000000000000000000000000000000000000000000000000081526004018080602001828103825260138152602001807f4e6f742076616c696461746f722067726f75700000000000000000000000000081525060200191505060405180910390fd5b600360008373ffffffffffffffffffffffffffffffffffffffff1673ffffffffffffffffffffffffffffffffffffffff168152602001908152602001600020600101600201549050919050565b60006134818261347c618663565b61b4b4565b9050919050565b6060600580548060200260200160405190810160405280929190818152602001828054801561350c57602002820191906000526020600020905b8160009054906101000a900473ffffffffffffffffffffffffffffffffffffffff1673ffffffffffffffffffffffffffffffffffffffff16815260200190600101908083116134c2575b5050505050905090565b6000600e54905090565b60006060600060f473ffffffffffffffffffffffffffffffffffffffff16846040516020018082805190602001908083835b602083106135755780518252602082019150602081019050602083039250613552565b6001836020036101000a0380198251168184511680821785525050505050509050019150506040516020818303038152906040526040518082805190602001908083835b602083106135dc57805182526020820191506020810190506020830392506135b9565b6001836020036101000a038019825116818451168082178552505050505050905001915050600060405180830381855afa9150503d806000811461363c576040519150601f19603f3d011682016040523d82523d6000602084013e613641565b606091505b508093508192505050806136a0576040517f08c379a000000000000000000000000000000000000000000000000000000000815260040180806020018281038252603881526020018061e38b6038913960400191505060405180910390fd5b6136ab82600061b4fc565b92505050919050565b600d5481565b600060405160200180807f4163636f756e74730000000000000000000000000000000000000000000000008152506008019050604051602081830303815290604052805190602001203373ffffffffffffffffffffffffffffffffffffffff16600260019054906101000a900473ffffffffffffffffffffffffffffffffffffffff1673ffffffffffffffffffffffffffffffffffffffff1663dcf0aaed836040518263ffffffff1660e01b81526004018082815260200191505060206040518083038186803b15801561378d57600080fd5b505afa1580156137a1573d6000803e3d6000fd5b505050506040513d60208110156137b757600080fd5b810190808051906020019092919050505073ffffffffffffffffffffffffffffffffffffffff1614613851576040517f08c379a00000000000000000000000000000000000000000000000000000000081526004018080602001828103825260188152602001807f6f6e6c79207265676973746572656420636f6e7472616374000000000000000081525060200191505060405180910390fd5b61385a8661a2eb565b6138cc576040517f08c379a000000000000000000000000000000000000000000000000000000000815260040180806020018281038252600f8152602001807f4e6f7420612076616c696461746f72000000000000000000000000000000000081525060200191505060405180910390fd5b6000600460008873ffffffffffffffffffffffffffffffffffffffff1673ffffffffffffffffffffffffffffffffffffffff168152602001908152602001600020905061395f81888888888080601f016020809104026020016040519081016040528093929190818152602001838380828437600081840152601f19601f8201169050808301925050505050505061b59d565b6139d1576040517f08c379a000000000000000000000000000000000000000000000000000000000815260040180806020018281038252601f8152602001807f4572726f72207570646174696e67204543445341207075626c6963206b65790081525060200191505060405180910390fd5b600192505050949350505050565b6000600680549050905090565b6000806139f761a786565b73ffffffffffffffffffffffffffffffffffffffff166393c5c487846040518263ffffffff1660e01b8152600401808273ffffffffffffffffffffffffffffffffffffffff1673ffffffffffffffffffffffffffffffffffffffff16815260200191505060206040518083038186803b158015613a7357600080fd5b505afa158015613a87573d6000803e3d6000fd5b505050506040513d6020811015613a9d57600080fd5b81019080805190602001909291905050509050613ab98161a2eb565b613b2b576040517f08c379a000000000000000000000000000000000000000000000000000000000815260040180806020018281038252600f8152602001807f4e6f7420612076616c696461746f72000000000000000000000000000000000081525060200191505060405180910390fd5b613b3481612811565b915050919050565b6000600360008373ffffffffffffffffffffffffffffffffffffffff1673ffffffffffffffffffffffffffffffffffffffff16815260200190815260200160002060000160009054906101000a900460ff169050919050565b6000806000806001600260006005839350829250819150809050935093509350935090919293565b600e5481565b6000613bcd615ff2565b613c3f576040517f08c379a00000000000000000000000000000000000000000000000000000000081526004018080602001828103825260208152602001807f4f776e61626c653a2063616c6c6572206973206e6f7420746865206f776e657281525060200191505060405180910390fd5b600060099050806000015484141580613c5c575080600101548314155b613cce576040517f08c379a000000000000000000000000000000000000000000000000000000000815260040180806020018281038252601e8152602001807f47726f757020726571756972656d656e7473206e6f74206368616e676564000081525060200191505060405180910390fd5b604051806040016040528085815260200184815250600960008201518160000155602082015181600101559050507f999f7ee1917e6d7ea08360edfe9250cda3eda859c38dcb71a92623665de64dd48484604051808381526020018281526020019250505060405180910390a1600191505092915050565b60006060600060fa73ffffffffffffffffffffffffffffffffffffffff16858560405160200180838152602001828152602001925050506040516020818303038152906040526040518082805190602001908083835b60208310613dbf5780518252602082019150602081019050602083039250613d9c565b6001836020036101000a038019825116818451168082178552505050505050905001915050600060405180830381855afa9150503d8060008114613e1f576040519150601f19603f3d011682016040523d82523d6000602084013e613e24565b606091505b50809350819250505080613e83576040517f08c379a000000000000000000000000000000000000000000000000000000000815260040180806020018281038252603681526020018061e4d76036913960400191505060405180910390fd5b613e8e82600061adb2565b9250505092915050565b600060018060008282540192505081905550600060015490506000613ebb61a786565b73ffffffffffffffffffffffffffffffffffffffff166364439b43336040518263ffffffff1660e01b8152600401808273ffffffffffffffffffffffffffffffffffffffff1673ffffffffffffffffffffffffffffffffffffffff16815260200191505060206040518083038186803b158015613f3757600080fd5b505afa158015613f4b573d6000803e3d6000fd5b505050506040513d6020811015613f6157600080fd5b81019080805190602001909291905050509050613f7d81613b3c565b613fef576040517f08c379a00000000000000000000000000000000000000000000000000000000081526004018080602001828103825260158152602001807f4e6f7420612076616c696461746f722067726f7570000000000000000000000081525060200191505060405180910390fd5b6000600360008373ffffffffffffffffffffffffffffffffffffffff1673ffffffffffffffffffffffffffffffffffffffff16815260200190815260200160002060010160020154146140aa576040517f08c379a00000000000000000000000000000000000000000000000000000000081526004018080602001828103825260198152602001807f56616c696461746f722067726f7570206e6f7420656d7074790000000000000081525060200191505060405180910390fd5b6000600360008373ffffffffffffffffffffffffffffffffffffffff1673ffffffffffffffffffffffffffffffffffffffff1681526020019081526020016000206008019050600181805490501115614184574261412d6009600101548360018154811061411457fe5b906000526020600020015461ad2a90919063ffffffff16565b10614183576040517f08c379a000000000000000000000000000000000000000000000000000000000815260040180806020018281038252602181526020018061e6b96021913960400191505060405180910390fd5b5b600360008373ffffffffffffffffffffffffffffffffffffffff1673ffffffffffffffffffffffffffffffffffffffff168152602001908152602001600020600080820160006101000a81549060ff021916905560018201600080820160009055600182016000905560028201600090555050600582016000808201600090555050600682016000808201600090555050600782016000905560088201600061422d919061e11d565b60098201600080820160008082016000905550506001820160009055505050506142596005838761b79c565b8173ffffffffffffffffffffffffffffffffffffffff167fae7e034b0748a10a219b46074b20977a9170bf4027b156c797093773619a866960405160405180910390a26001935050506001548114614319576040517f08c379a000000000000000000000000000000000000000000000000000000000815260040180806020018281038252600e8152602001807f7265656e7472616e742063616c6c00000000000000000000000000000000000081525060200191505060405180910390fd5b50919050565b60006060600060f673ffffffffffffffffffffffffffffffffffffffff16846040516020018082805190602001908083835b602083106143745780518252602082019150602081019050602083039250614351565b6001836020036101000a0380198251168184511680821785525050505050509050019150506040516020818303038152906040526040518082805190602001908083835b602083106143db57805182526020820191506020810190506020830392506143b8565b6001836020036101000a038019825116818451168082178552505050505050905001915050600060405180830381855afa9150503d806000811461443b576040519150601f19603f3d011682016040523d82523d6000602084013e614440565b606091505b5080935081925050508061449f576040517f08c379a000000000000000000000000000000000000000000000000000000000815260040180806020018281038252602381526020018061e7276023913960400191505060405180910390fd5b6144aa82600061b4fc565b92505050919050565b60018060008282540192505081905550600060015490506144d2615ff2565b614544576040517f08c379a00000000000000000000000000000000000000000000000000000000081526004018080602001828103825260208152602001807f4f776e61626c653a2063616c6c6572206973206e6f7420746865206f776e657281525060200191505060405180910390fd5b8160108190555060015481146145c2576040517f08c379a000000000000000000000000000000000000000000000000000000000815260040180806020018281038252600e8152602001807f7265656e7472616e742063616c6c00000000000000000000000000000000000081525060200191505060405180910390fd5b5050565b6145ce615ff2565b614640576040517f08c379a00000000000000000000000000000000000000000000000000000000081526004018080602001828103825260208152602001807f4f776e61626c653a2063616c6c6572206973206e6f7420746865206f776e657281525060200191505060405180910390fd5b600f5481141561469b576040517f08c379a000000000000000000000000000000000000000000000000000000000815260040180806020018281038252602381526020018061e6656023913960400191505060405180910390fd5b80600f819055507ff2da07d08fd8dc9c5dcf87ad6f540e306f884a47dd8de14b718a4d5395f1ca9b816040518082815260200191505060405180910390a150565b600080600960000154600960010154915091509091565b606080838390506040519080825280602002602001820160405280156147285781602001602082028038833980820191505090505b50905060008090505b848490508110156147a05761476d85858381811061474b57fe5b9050602002013573ffffffffffffffffffffffffffffffffffffffff166133a4565b82828151811061477957fe5b60200260200101818152505061479960018261ad2a90919063ffffffff16565b9050614731565b508091505092915050565b600060405160200180807f4163636f756e74730000000000000000000000000000000000000000000000008152506008019050604051602081830303815290604052805190602001203373ffffffffffffffffffffffffffffffffffffffff16600260019054906101000a900473ffffffffffffffffffffffffffffffffffffffff1673ffffffffffffffffffffffffffffffffffffffff1663dcf0aaed836040518263ffffffff1660e01b81526004018082815260200191505060206040518083038186803b15801561487e57600080fd5b505afa158015614892573d6000803e3d6000fd5b505050506040513d60208110156148a857600080fd5b810190808051906020019092919050505073ffffffffffffffffffffffffffffffffffffffff1614614942576040517f08c379a00000000000000000000000000000000000000000000000000000000081526004018080602001828103825260188152602001807f6f6e6c79207265676973746572656420636f6e7472616374000000000000000081525060200191505060405180910390fd5b61494b8a61a2eb565b6149bd576040517f08c379a000000000000000000000000000000000000000000000000000000000815260040180806020018281038252600f8152602001807f4e6f7420612076616c696461746f72000000000000000000000000000000000081525060200191505060405180910390fd5b6000600460008c73ffffffffffffffffffffffffffffffffffffffff1673ffffffffffffffffffffffffffffffffffffffff1681526020019081526020016000209050614a50818c8c8c8c8080601f016020809104026020016040519081016040528093929190818152602001838380828437600081840152601f19601f8201169050808301925050505050505061b59d565b614ac2576040517f08c379a000000000000000000000000000000000000000000000000000000000815260040180806020018281038252601f8152602001807f4572726f72207570646174696e67204543445341207075626c6963206b65790081525060200191505060405180910390fd5b614b56818c89898080601f016020809104026020016040519081016040528093929190818152602001838380828437600081840152601f19601f8201169050808301925050505050505088888080601f016020809104026020016040519081016040528093929190818152602001838380828437600081840152601f19601f8201169050808301925050505050505061b959565b614bc8576040517f08c379a000000000000000000000000000000000000000000000000000000000815260040180806020018281038252601d8152602001807f4572726f72207570646174696e6720424c53207075626c6963206b657900000081525060200191505060405180910390fd5b60019250505098975050505050505050565b614be2615ff2565b614c54576040517f08c379a00000000000000000000000000000000000000000000000000000000081526004018080602001828103825260208152602001807f4f776e61626c653a2063616c6c6572206973206e6f7420746865206f776e657281525060200191505060405180910390fd5b600073ffffffffffffffffffffffffffffffffffffffff166000809054906101000a900473ffffffffffffffffffffffffffffffffffffffff1673ffffffffffffffffffffffffffffffffffffffff167f8be0079c531659141344cd1fd0a4f28419497f9722a3daafe3b4186f6b6457e060405160405180910390a360008060006101000a81548173ffffffffffffffffffffffffffffffffffffffff021916908373ffffffffffffffffffffffffffffffffffffffff160217905550565b6000614d1e43618bd0565b905090565b600260009054906101000a900460ff1615614da6576040517f08c379a000000000000000000000000000000000000000000000000000000000815260040180806020018281038252601c8152602001807f636f6e747261637420616c726561647920696e697469616c697a65640000000081525060200191505060405180910390fd5b6001600260006101000a81548160ff021916908315150217905550614dca3361bba1565b614dd38c616be0565b614ddd8b8b613bc3565b50614de88989614e31565b50614df38787617f99565b50614dfd836187a5565b50614e07826145c6565b614e108561a0ee565b50614e1a846144b3565b614e2381616acd565b505050505050505050505050565b6000614e3b615ff2565b614ead576040517f08c379a00000000000000000000000000000000000000000000000000000000081526004018080602001828103825260208152602001807f4f776e61626c653a2063616c6c6572206973206e6f7420746865206f776e657281525060200191505060405180910390fd5b600060079050806000015484141580614eca575080600101548314155b614f1f576040517f08c379a000000000000000000000000000000000000000000000000000000000815260040180806020018281038252602281526020018061e3696022913960400191505060405180910390fd5b604051806040016040528085815260200184815250600760008201518160000155602082015181600101559050507f62d947118dd4c1f5ece7f787a9cad4e1127d14d403b71133e95792b473bf83898484604051808381526020018281526020019250505060405180910390a1600191505092915050565b6000808383905011615011576040517f08c379a00000000000000000000000000000000000000000000000000000000081526004018080602001828103825260128152602001807f557074696d6520617272617920656d707479000000000000000000000000000081525060200191505060405180910390fd5b600e5483839050111561506f576040517f08c379a000000000000000000000000000000000000000000000000000000000815260040180806020018281038252602b81526020018061e33e602b913960400191505060405180910390fd5b61507761e13e565b60008090505b848490508110156150da576150bd6150ae6150a987878581811061509d57fe5b90506020020135616050565b61bce5565b8361bd0390919063ffffffff16565b91506150d360018261ad2a90919063ffffffff16565b905061507d565b506151016150fc6150ed8686905061bdac565b8361be3690919063ffffffff16565b61adc9565b91505092915050565b600260019054906101000a900473ffffffffffffffffffffffffffffffffffffffff1681565b600061513a61a786565b73ffffffffffffffffffffffffffffffffffffffff166364439b43336040518263ffffffff1660e01b8152600401808273ffffffffffffffffffffffffffffffffffffffff1673ffffffffffffffffffffffffffffffffffffffff16815260200191505060206040518083038186803b1580156151b657600080fd5b505afa1580156151ca573d6000803e3d6000fd5b505050506040513d60208110156151e057600080fd5b810190808051906020019092919050505090506151fc81613b3c565b61526e576040517f08c379a00000000000000000000000000000000000000000000000000000000081526004018080602001828103825260158152602001807f4e6f7420612076616c696461746f722067726f7570000000000000000000000081525060200191505060405180910390fd5b6000600360008373ffffffffffffffffffffffffffffffffffffffff1673ffffffffffffffffffffffffffffffffffffffff16815260200190815260200160002090506152c16152bc61bf7f565b61adc9565b831115615319576040517f08c379a000000000000000000000000000000000000000000000000000000000815260040180806020018281038252602581526020018061e6da6025913960400191505060405180910390fd5b61533a8160050160405180602001604052908160008201548152505061adc9565b8314156153af576040517f08c379a000000000000000000000000000000000000000000000000000000000815260040180806020018281038252601c8152602001807f436f6d6d697373696f6e206d75737420626520646966666572656e740000000081525060200191505060405180910390fd5b6153b88361bce5565b81600601600082015181600001559050506153de600f544361ad2a90919063ffffffff16565b81600701819055508173ffffffffffffffffffffffffffffffffffffffff167f557d39a57520d9835859d4b7eda805a7f4115a59c3a374eeed488436fc62a152848360070154604051808381526020018281526020019250505060405180910390a2505050565b60006060600060f973ffffffffffffffffffffffffffffffffffffffff1643604051602001808281526020019150506040516020818303038152906040526040518082805190602001908083835b602083106154b65780518252602082019150602081019050602083039250615493565b6001836020036101000a038019825116818451168082178552505050505050905001915050600060405180830381855afa9150503d8060008114615516576040519150601f19603f3d011682016040523d82523d6000602084013e61551b565b606091505b5080935081925050508061557a576040517f08c379a000000000000000000000000000000000000000000000000000000000815260040180806020018281038252603581526020018061e4a26035913960400191505060405180910390fd5b61558582600061adb2565b9250505090565b60006060600060f773ffffffffffffffffffffffffffffffffffffffff16846040516020018082805190602001908083835b602083106155e157805182526020820191506020810190506020830392506155be565b6001836020036101000a0380198251168184511680821785525050505050509050019150506040516020818303038152906040526040518082805190602001908083835b602083106156485780518252602082019150602081019050602083039250615625565b6001836020036101000a038019825116818451168082178552505050505050905001915050600060405180830381855afa9150503d80600081146156a8576040519150601f19603f3d011682016040523d82523d6000602084013e6156ad565b606091505b5080935081925050508061570c576040517f08c379a000000000000000000000000000000000000000000000000000000000815260040180806020018281038252603181526020018061e6886031913960400191505060405180910390fd5b61571782600061adb2565b92505050919050565b60006001806000828254019250508190555060006001549050600061574361a786565b73ffffffffffffffffffffffffffffffffffffffff166364439b43336040518263ffffffff1660e01b8152600401808273ffffffffffffffffffffffffffffffffffffffff1673ffffffffffffffffffffffffffffffffffffffff16815260200191505060206040518083038186803b1580156157bf57600080fd5b505afa1580156157d3573d6000803e3d6000fd5b505050506040513d60208110156157e957600080fd5b810190808051906020019092919050505090506158058161a2eb565b615877576040517f08c379a000000000000000000000000000000000000000000000000000000000815260040180806020018281038252600f8152602001807f4e6f7420612076616c696461746f72000000000000000000000000000000000081525060200191505060405180910390fd5b6000600460008373ffffffffffffffffffffffffffffffffffffffff1673ffffffffffffffffffffffffffffffffffffffff1681526020019081526020016000209050600073ffffffffffffffffffffffffffffffffffffffff168160020160009054906101000a900473ffffffffffffffffffffffffffffffffffffffff1673ffffffffffffffffffffffffffffffffffffffff1614615aab57600360008260020160009054906101000a900473ffffffffffffffffffffffffffffffffffffffff1673ffffffffffffffffffffffffffffffffffffffff1673ffffffffffffffffffffffffffffffffffffffff16815260200190815260200160002060010173__AddressLinkedList_____________________63542424fb9091846040518363ffffffff1660e01b8152600401808381526020018273ffffffffffffffffffffffffffffffffffffffff1673ffffffffffffffffffffffffffffffffffffffff1681526020019250505060206040518083038186803b1580156159fc57600080fd5b505af4158015615a10573d6000803e3d6000fd5b505050506040513d6020811015615a2657600080fd5b810190808051906020019092919050505015615aaa576040517f08c379a000000000000000000000000000000000000000000000000000000000815260040180806020018281038252601e8152602001807f486173206265656e2067726f7570206d656d62657220726563656e746c79000081525060200191505060405180910390fd5b5b6000615acc600760010154836004016003015461ad2a90919063ffffffff16565b9050428110615b43576040517f08c379a000000000000000000000000000000000000000000000000000000000815260040180806020018281038252601c8152602001807f4e6f742079657420726571756972656d656e7420656e642074696d650000000081525060200191505060405180910390fd5b615b4f6006848861b79c565b600460008473ffffffffffffffffffffffffffffffffffffffff1673ffffffffffffffffffffffffffffffffffffffff168152602001908152602001600020600080820160008082016000615ba4919061e151565b600182016000615bb4919061e151565b50506002820160006101000a81549073ffffffffffffffffffffffffffffffffffffffff02191690556003820160008082016000905550506004820160008082016000905560018201600090556003820160009055505050508273ffffffffffffffffffffffffffffffffffffffff167f51407fafe7ef9bec39c65a12a4885a274190991bf1e9057fcc384fc77ff1a7f060405160405180910390a2600194505050506001548114615cce576040517f08c379a000000000000000000000000000000000000000000000000000000000815260040180806020018281038252600e8152602001807f7265656e7472616e742063616c6c00000000000000000000000000000000000081525060200191505060405180910390fd5b50919050565b60008060009054906101000a900473ffffffffffffffffffffffffffffffffffffffff16905090565b606080600360008573ffffffffffffffffffffffffffffffffffffffff1673ffffffffffffffffffffffffffffffffffffffff16815260200190815260200160002060010173__AddressLinkedList_____________________63b1cfea439091856040518363ffffffff1660e01b8152600401808381526020018281526020019250505060006040518083038186803b158015615d9a57600080fd5b505af4158015615dae573d6000803e3d6000fd5b505050506040513d6000823e3d601f19601f820116820180604052506020811015615dd857600080fd5b8101908080516040519392919084640100000000821115615df857600080fd5b83820191506020820185811115615e0e57600080fd5b8251866020820283011164010000000082111715615e2b57600080fd5b8083526020830192505050908051906020019060200280838360005b83811015615e62578082015181840152602081019050615e47565b505050509050016040525050509050606083604051908082528060200260200182016040528015615ea25781602001602082028038833980820191505090505b50905060008090505b84811015615fe657615ebb61a786565b73ffffffffffffffffffffffffffffffffffffffff16634ce38b5f848381518110615ee257fe5b60200260200101516040518263ffffffff1660e01b8152600401808273ffffffffffffffffffffffffffffffffffffffff1673ffffffffffffffffffffffffffffffffffffffff16815260200191505060206040518083038186803b158015615f4a57600080fd5b505afa158015615f5e573d6000803e3d6000fd5b505050506040513d6020811015615f7457600080fd5b8101908080519060200190929190505050828281518110615f9157fe5b602002602001019073ffffffffffffffffffffffffffffffffffffffff16908173ffffffffffffffffffffffffffffffffffffffff1681525050615fdf60018261ad2a90919063ffffffff16565b9050615eab565b50809250505092915050565b60008060009054906101000a900473ffffffffffffffffffffffffffffffffffffffff1673ffffffffffffffffffffffffffffffffffffffff1661603461bfa5565b73ffffffffffffffffffffffffffffffffffffffff1614905090565b600061606261605d61bf7f565b61adc9565b8211156160d7576040517f08c379a00000000000000000000000000000000000000000000000000000000081526004018080602001828103825260208152602001807f557074696d652063616e6e6f74206265206c6172676572207468616e206f6e6581525060200191505060405180910390fd5b6000806161076160f26011548661ad2a90919063ffffffff16565b6161026160fd61bf7f565b61adc9565b61bfad565b935061614a61611c61611761bf7f565b61adc9565b61612c61612761bf7f565b61adc9565b8661613d61613861bf7f565b61adc9565b600b600001546012619961565b809250819350505061616461615f838361bfc6565b61adc9565b92505050919050565b60006001806000828254019250508190555060006001549050600061619061a786565b73ffffffffffffffffffffffffffffffffffffffff166364439b43336040518263ffffffff1660e01b8152600401808273ffffffffffffffffffffffffffffffffffffffff1673ffffffffffffffffffffffffffffffffffffffff16815260200191505060206040518083038186803b15801561620c57600080fd5b505afa158015616220573d6000803e3d6000fd5b505050506040513d602081101561623657600080fd5b8101908080519060200190929190505050905061625281613b3c565b6162c4576040517f08c379a000000000000000000000000000000000000000000000000000000000815260040180806020018281038252600b8152602001807f4e6f7420612067726f757000000000000000000000000000000000000000000081525060200191505060405180910390fd5b6162cd8661a2eb565b61633f576040517f08c379a000000000000000000000000000000000000000000000000000000000815260040180806020018281038252600f8152602001807f4e6f7420612076616c696461746f72000000000000000000000000000000000081525060200191505060405180910390fd5b6000600360008373ffffffffffffffffffffffffffffffffffffffff1673ffffffffffffffffffffffffffffffffffffffff16815260200190815260200160002090508060010173__AddressLinkedList_____________________63542424fb9091896040518363ffffffff1660e01b8152600401808381526020018273ffffffffffffffffffffffffffffffffffffffff1673ffffffffffffffffffffffffffffffffffffffff1681526020019250505060206040518083038186803b15801561640a57600080fd5b505af415801561641e573d6000803e3d6000fd5b505050506040513d602081101561643457600080fd5b81019080805190602001909291905050506164b7576040517f08c379a00000000000000000000000000000000000000000000000000000000081526004018080602001828103825260198152602001807f4e6f742061206d656d626572206f66207468652067726f75700000000000000081525060200191505060405180910390fd5b8060010173__AddressLinkedList_____________________63b2f8fe9690918989896040518563ffffffff1660e01b8152600401808581526020018473ffffffffffffffffffffffffffffffffffffffff1673ffffffffffffffffffffffffffffffffffffffff1681526020018373ffffffffffffffffffffffffffffffffffffffff1673ffffffffffffffffffffffffffffffffffffffff1681526020018273ffffffffffffffffffffffffffffffffffffffff1673ffffffffffffffffffffffffffffffffffffffff16815260200194505050505060006040518083038186803b1580156165a757600080fd5b505af41580156165bb573d6000803e3d6000fd5b505050508673ffffffffffffffffffffffffffffffffffffffff168273ffffffffffffffffffffffffffffffffffffffff167f38819cc49a343985b478d72f531a35b15384c398dd80fd191a14662170f895c660405160405180910390a36001935050506001548114616696576040517f08c379a000000000000000000000000000000000000000000000000000000000815260040180806020018281038252600e8152602001807f7265656e7472616e742063616c6c00000000000000000000000000000000000081525060200191505060405180910390fd5b509392505050565b60006166a94361346e565b905090565b60006060600060f973ffffffffffffffffffffffffffffffffffffffff1684604051602001808281526020019150506040516020818303038152906040526040518082805190602001908083835b6020831061671f57805182526020820191506020810190506020830392506166fc565b6001836020036101000a038019825116818451168082178552505050505050905001915050600060405180830381855afa9150503d806000811461677f576040519150601f19603f3d011682016040523d82523d6000602084013e616784565b606091505b508093508192505050806167e3576040517f08c379a000000000000000000000000000000000000000000000000000000000815260040180806020018281038252602e81526020018061e28e602e913960400191505060405180910390fd5b6167ee82600061adb2565b92505050919050565b60606000806000606060008061680c88613b3c565b61687e576040517f08c379a00000000000000000000000000000000000000000000000000000000081526004018080602001828103825260158152602001807f4e6f7420612076616c696461746f722067726f7570000000000000000000000081525060200191505060405180910390fd5b6000600360008a73ffffffffffffffffffffffffffffffffffffffff1673ffffffffffffffffffffffffffffffffffffffff16815260200190815260200160002090508060010173__AddressLinkedList_____________________63fe3c7a8e90916040518263ffffffff1660e01b81526004018082815260200191505060006040518083038186803b15801561691557600080fd5b505af4158015616929573d6000803e3d6000fd5b505050506040513d6000823e3d601f19601f82011682018060405250602081101561695357600080fd5b810190808051604051939291908464010000000082111561697357600080fd5b8382019150602082018581111561698957600080fd5b82518660208202830111640100000000821117156169a657600080fd5b8083526020830192505050908051906020019060200280838360005b838110156169dd5780820151818401526020810190506169c2565b50505050905001604052505050616a0b8260050160405180602001604052908160008201548152505061adc9565b616a2c8360060160405180602001604052908160008201548152505061adc9565b836007015484600801616a598660090160000160405180602001604052908160008201548152505061adc9565b866009016001015482805480602002602001604051908101604052809291908181526020018280548015616aac57602002820191906000526020600020905b815481526020019060010190808311616a98575b50505050509250975097509750975097509750975050919395979092949650565b6001806000828254019250508190555060006001549050616aec615ff2565b616b5e576040517f08c379a00000000000000000000000000000000000000000000000000000000081526004018080602001828103825260208152602001807f4f776e61626c653a2063616c6c6572206973206e6f7420746865206f776e657281525060200191505060405180910390fd5b816011819055506001548114616bdc576040517f08c379a000000000000000000000000000000000000000000000000000000000815260040180806020018281038252600e8152602001807f7265656e7472616e742063616c6c00000000000000000000000000000000000081525060200191505060405180910390fd5b5050565b616be8615ff2565b616c5a576040517f08c379a00000000000000000000000000000000000000000000000000000000081526004018080602001828103825260208152602001807f4f776e61626c653a2063616c6c6572206973206e6f7420746865206f776e657281525060200191505060405180910390fd5b600073ffffffffffffffffffffffffffffffffffffffff168173ffffffffffffffffffffffffffffffffffffffff161415616cfd576040517f08c379a00000000000000000000000000000000000000000000000000000000081526004018080602001828103825260208152602001807f43616e6e6f7420726567697374657220746865206e756c6c206164647265737381525060200191505060405180910390fd5b80600260016101000a81548173ffffffffffffffffffffffffffffffffffffffff021916908373ffffffffffffffffffffffffffffffffffffffff1602179055508073ffffffffffffffffffffffffffffffffffffffff167f27fe5f0c1c3b1ed427cc63d0f05759ffdecf9aec9e18d31ef366fc8a6cb5dc3b60405160405180910390a250565b600060018060008282540192505081905550600060015490506000616da761a786565b73ffffffffffffffffffffffffffffffffffffffff166364439b43336040518263ffffffff1660e01b8152600401808273ffffffffffffffffffffffffffffffffffffffff1673ffffffffffffffffffffffffffffffffffffffff16815260200191505060206040518083038186803b158015616e2357600080fd5b505afa158015616e37573d6000803e3d6000fd5b505050506040513d6020811015616e4d57600080fd5b81019080805190602001909291905050509050616e698161a2eb565b616edb576040517f08c379a000000000000000000000000000000000000000000000000000000000815260040180806020018281038252600f8152602001807f4e6f7420612076616c696461746f72000000000000000000000000000000000081525060200191505060405180910390fd5b616ee484613b3c565b616f56576040517f08c379a00000000000000000000000000000000000000000000000000000000081526004018080602001828103825260158152602001807f4e6f7420612076616c696461746f722067726f7570000000000000000000000081525060200191505060405180910390fd5b616f5f81617c78565b616fb4576040517f08c379a000000000000000000000000000000000000000000000000000000000815260040180806020018281038252602381526020018061e26b6023913960400191505060405180910390fd5b616fbd84617c78565b61702f576040517f08c379a000000000000000000000000000000000000000000000000000000000815260040180806020018281038252601f8152602001807f47726f757020646f65736e2774206d65657420726571756972656d656e74730081525060200191505060405180910390fd5b6000600460008373ffffffffffffffffffffffffffffffffffffffff1673ffffffffffffffffffffffffffffffffffffffff1681526020019081526020016000209050600073ffffffffffffffffffffffffffffffffffffffff168160020160009054906101000a900473ffffffffffffffffffffffffffffffffffffffff1673ffffffffffffffffffffffffffffffffffffffff16146170d6576170d4818361c008565b505b848160020160006101000a81548173ffffffffffffffffffffffffffffffffffffffff021916908373ffffffffffffffffffffffffffffffffffffffff1602179055508473ffffffffffffffffffffffffffffffffffffffff168273ffffffffffffffffffffffffffffffffffffffff167f91ef92227057e201e406c3451698dd780fe7672ad74328591c88d281af31581d60405160405180910390a360019350505060015481146171f0576040517f08c379a000000000000000000000000000000000000000000000000000000000815260040180806020018281038252600e8152602001807f7265656e7472616e742063616c6c00000000000000000000000000000000000081525060200191505060405180910390fd5b50919050565b6060600061720261a786565b73ffffffffffffffffffffffffffffffffffffffff166393c5c487846040518263ffffffff1660e01b8152600401808273ffffffffffffffffffffffffffffffffffffffff1673ffffffffffffffffffffffffffffffffffffffff16815260200191505060206040518083038186803b15801561727e57600080fd5b505afa158015617292573d6000803e3d6000fd5b505050506040513d60208110156172a857600080fd5b810190808051906020019092919050505090506172c48161a2eb565b617336576040517f08c379a000000000000000000000000000000000000000000000000000000000815260040180806020018281038252600f8152602001807f4e6f7420612076616c696461746f72000000000000000000000000000000000081525060200191505060405180910390fd5b600460008273ffffffffffffffffffffffffffffffffffffffff1673ffffffffffffffffffffffffffffffffffffffff1681526020019081526020016000206000016001018054600181600116156101000203166002900480601f01602080910402602001604051908101604052809291908181526020018280546001816001161561010002031660029004801561740f5780601f106173e45761010080835404028352916020019161740f565b820191906000526020600020905b8154815290600101906020018083116173f257829003601f168201915b5050505050915050919050565b6001806000828254019250508190555060006001549050600061743d61a786565b73ffffffffffffffffffffffffffffffffffffffff166364439b43336040518263ffffffff1660e01b8152600401808273ffffffffffffffffffffffffffffffffffffffff1673ffffffffffffffffffffffffffffffffffffffff16815260200191505060206040518083038186803b1580156174b957600080fd5b505afa1580156174cd573d6000803e3d6000fd5b505050506040513d60208110156174e357600080fd5b810190808051906020019092919050505090506174ff81613b3c565b617571576040517f08c379a00000000000000000000000000000000000000000000000000000000081526004018080602001828103825260158152602001807f4e6f7420612076616c696461746f722067726f7570000000000000000000000081525060200191505060405180910390fd5b6000600360008373ffffffffffffffffffffffffffffffffffffffff1673ffffffffffffffffffffffffffffffffffffffff16815260200190815260200160002090506175d0601054826009016001015461ad2a90919063ffffffff16565b421015617628576040517f08c379a000000000000000000000000000000000000000000000000000000000815260040180806020018281038252603b81526020018061e2e2603b913960400191505060405180910390fd5b61763061bf7f565b8160090160000160008201518160000155905050505060015481146176bd576040517f08c379a000000000000000000000000000000000000000000000000000000000815260040180806020018281038252600e8152602001807f7265656e7472616e742063616c6c00000000000000000000000000000000000081525060200191505060405180910390fd5b50565b6000600f54905090565b60078060000154908060010154905082565b6000806176e761a786565b73ffffffffffffffffffffffffffffffffffffffff166364439b43336040518263ffffffff1660e01b8152600401808273ffffffffffffffffffffffffffffffffffffffff1673ffffffffffffffffffffffffffffffffffffffff16815260200191505060206040518083038186803b15801561776357600080fd5b505afa158015617777573d6000803e3d6000fd5b505050506040513d602081101561778d57600080fd5b810190808051906020019092919050505090506177a98161a2eb565b61781b576040517f08c379a000000000000000000000000000000000000000000000000000000000815260040180806020018281038252600f8152602001807f4e6f7420612076616c696461746f72000000000000000000000000000000000081525060200191505060405180910390fd5b6000600460008373ffffffffffffffffffffffffffffffffffffffff1673ffffffffffffffffffffffffffffffffffffffff16815260200190815260200160002090506178f2818389898080601f016020809104026020016040519081016040528093929190818152602001838380828437600081840152601f19601f8201169050808301925050505050505088888080601f016020809104026020016040519081016040528093929190818152602001838380828437600081840152601f19601f8201169050808301925050505050505061b959565b617964576040517f08c379a000000000000000000000000000000000000000000000000000000000815260040180806020018281038252601d8152602001807f4572726f72207570646174696e6720424c53207075626c6963206b657900000081525060200191505060405180910390fd5b600192505050949350505050565b61797c828261c1f3565b5050565b600080600760000154600760010154915091509091565b60018060008282540192505081905550600060015490506179b661c571565b73ffffffffffffffffffffffffffffffffffffffff166357601c5d336040518263ffffffff1660e01b8152600401808273ffffffffffffffffffffffffffffffffffffffff1673ffffffffffffffffffffffffffffffffffffffff16815260200191505060206040518083038186803b158015617a3257600080fd5b505afa158015617a46573d6000803e3d6000fd5b505050506040513d6020811015617a5c57600080fd5b8101908080519060200190929190505050617adf576040517f08c379a00000000000000000000000000000000000000000000000000000000081526004018080602001828103825260208152602001807f4f6e6c79207265676973746572656420736c61736865722063616e2063616c6c81525060200191505060405180910390fd5b617ae882613b3c565b617b5a576040517f08c379a00000000000000000000000000000000000000000000000000000000081526004018080602001828103825260158152602001807f4e6f7420612076616c696461746f722067726f7570000000000000000000000081525060200191505060405180910390fd5b6000600360008473ffffffffffffffffffffffffffffffffffffffff1673ffffffffffffffffffffffffffffffffffffffff1681526020019081526020016000209050617bdc617bd76002617bc98460090160000160405180602001604052908160008201548152505061adc9565b61c66c90919063ffffffff16565b61bce5565b8160090160000160008201518160000155905050428160090160010181905550506001548114617c74576040517f08c379a000000000000000000000000000000000000000000000000000000000815260040180806020018281038252600e8152602001807f7265656e7472616e742063616c6c00000000000000000000000000000000000081525060200191505060405180910390fd5b5050565b600080617c8361c571565b73ffffffffffffffffffffffffffffffffffffffff166330ec70f5846040518263ffffffff1660e01b8152600401808273ffffffffffffffffffffffffffffffffffffffff1673ffffffffffffffffffffffffffffffffffffffff16815260200191505060206040518083038186803b158015617cff57600080fd5b505afa158015617d13573d6000803e3d6000fd5b505050506040513d6020811015617d2957600080fd5b81019080805190602001909291905050509050617d45836184de565b617d59600a8361ad2a90919063ffffffff16565b1015915050919050565b60098060000154908060010154905082565b600060018060008282540192505081905550600060015490506000617d9861a786565b73ffffffffffffffffffffffffffffffffffffffff166364439b43336040518263ffffffff1660e01b8152600401808273ffffffffffffffffffffffffffffffffffffffff1673ffffffffffffffffffffffffffffffffffffffff16815260200191505060206040518083038186803b158015617e1457600080fd5b505afa158015617e28573d6000803e3d6000fd5b505050506040513d6020811015617e3e57600080fd5b810190808051906020019092919050505090506000600360008373ffffffffffffffffffffffffffffffffffffffff1673ffffffffffffffffffffffffffffffffffffffff1681526020019081526020016000206001016002015411617f0c576040517f08c379a00000000000000000000000000000000000000000000000000000000081526004018080602001828103825260158152602001807f56616c696461746f722067726f757020656d707479000000000000000000000081525060200191505060405180910390fd5b617f19818560008061add7565b9250506001548114617f93576040517f08c379a000000000000000000000000000000000000000000000000000000000815260040180806020018281038252600e8152602001807f7265656e7472616e742063616c6c00000000000000000000000000000000000081525060200191505060405180910390fd5b50919050565b6000617fa3615ff2565b618015576040517f08c379a00000000000000000000000000000000000000000000000000000000081526004018080602001828103825260208152602001807f4f776e61626c653a2063616c6c6572206973206e6f7420746865206f776e657281525060200191505060405180910390fd5b61802561802061bf7f565b61adc9565b82111561807d576040517f08c379a000000000000000000000000000000000000000000000000000000000815260040180806020018281038252602881526020018061e6ff6028913960400191505060405180910390fd5b600b60000154831415806180c257506180c0600b6001016040518060200160405290816000820154815250506180b28461bce5565b61c6b690919063ffffffff16565b155b618117576040517f08c379a000000000000000000000000000000000000000000000000000000000815260040180806020018281038252602981526020018061e74a6029913960400191505060405180910390fd5b60405180604001604052808481526020016181318461bce5565b815250600b600082015181600001556020820151816001016000820151816000015550509050507f4b48724280029c2ea7a445c9cea30838525342e7a9ea9468f630b52e75d6c5368383604051808381526020018281526020019250505060405180910390a16001905092915050565b606060006181ad61a786565b905060606006805490506040519080825280602002602001820160405280156181e55781602001602082028038833980820191505090505b50905060008090505b8151811015618347578273ffffffffffffffffffffffffffffffffffffffff16634ce38b5f6006838154811061822057fe5b9060005260206000200160009054906101000a900473ffffffffffffffffffffffffffffffffffffffff166040518263ffffffff1660e01b8152600401808273ffffffffffffffffffffffffffffffffffffffff1673ffffffffffffffffffffffffffffffffffffffff16815260200191505060206040518083038186803b1580156182ab57600080fd5b505afa1580156182bf573d6000803e3d6000fd5b505050506040513d60208110156182d557600080fd5b81019080805190602001909291905050508282815181106182f257fe5b602002602001019073ffffffffffffffffffffffffffffffffffffffff16908173ffffffffffffffffffffffffffffffffffffffff168152505061834060018261ad2a90919063ffffffff16565b90506181ee565b50809250505090565b600061835c838361c6cb565b905092915050565b606060068054806020026020016040519081016040528092919081815260200182805480156183e857602002820191906000526020600020905b8160009054906101000a900473ffffffffffffffffffffffffffffffffffffffff1673ffffffffffffffffffffffffffffffffffffffff168152602001906001019080831161839e575b5050505050905090565b60006183fd82613b3c565b61846f576040517f08c379a00000000000000000000000000000000000000000000000000000000081526004018080602001828103825260158152602001807f4e6f7420612076616c696461746f722067726f7570000000000000000000000081525060200191505060405180910390fd5b6000600360008473ffffffffffffffffffffffffffffffffffffffff1673ffffffffffffffffffffffffffffffffffffffff16815260200190815260200160002090506184d68160090160000160405180602001604052908160008201548152505061adc9565b915050919050565b60006184e98261a2eb565b156184fb57600760000154905061865e565b61850482613b3c565b1561865957600061855b6001600360008673ffffffffffffffffffffffffffffffffffffffff1673ffffffffffffffffffffffffffffffffffffffff1681526020019081526020016000206001016002015461cf9e565b90506000600360008573ffffffffffffffffffffffffffffffffffffffff1673ffffffffffffffffffffffffffffffffffffffff16815260200190815260200160002060080190506000818054905011156186385760006185ca6001838054905061ace090919063ffffffff16565b90505b600081111561863657426186056009600101548484815481106185ec57fe5b906000526020600020015461ad2a90919063ffffffff16565b1061861b57618614818461cf9e565b9250618636565b61862f60018261ace090919063ffffffff16565b90506185cd565b505b6186508260096000015461cfb890919063ffffffff16565b9250505061865e565b600090505b919050565b60006060600060f873ffffffffffffffffffffffffffffffffffffffff166040516020016040516020818303038152906040526040518082805190602001908083835b602083106186c957805182526020820191506020810190506020830392506186a6565b6001836020036101000a038019825116818451168082178552505050505050905001915050600060405180830381855afa9150503d8060008114618729576040519150601f19603f3d011682016040523d82523d6000602084013e61872e565b606091505b5080935081925050508061878d576040517f08c379a000000000000000000000000000000000000000000000000000000000815260040180806020018281038252602581526020018061e6146025913960400191505060405180910390fd5b61879882600061adb2565b9250505090565b600f5481565b60006187af615ff2565b618821576040517f08c379a00000000000000000000000000000000000000000000000000000000081526004018080602001828103825260208152602001807f4f776e61626c653a2063616c6c6572206973206e6f7420746865206f776e657281525060200191505060405180910390fd5b81600010618897576040517f08c379a000000000000000000000000000000000000000000000000000000000815260040180806020018281038252601d8152602001807f4d61782067726f75702073697a652063616e6e6f74206265207a65726f00000081525060200191505060405180910390fd5b600e5482141561890f576040517f08c379a000000000000000000000000000000000000000000000000000000000815260040180806020018281038252601a8152602001807f4d61782067726f75702073697a65206e6f74206368616e67656400000000000081525060200191505060405180910390fd5b81600e819055507f603fe12c33c253a23da1680aa453dc70c3a0ee07763569bd5f602406ebd4e5d5826040518082815260200191505060405180910390a160019050919050565b600180600082825401925050819055506000600154905061897561c571565b73ffffffffffffffffffffffffffffffffffffffff166357601c5d336040518263ffffffff1660e01b8152600401808273ffffffffffffffffffffffffffffffffffffffff1673ffffffffffffffffffffffffffffffffffffffff16815260200191505060206040518083038186803b1580156189f157600080fd5b505afa158015618a05573d6000803e3d6000fd5b505050506040513d6020811015618a1b57600080fd5b8101908080519060200190929190505050618a9e576040517f08c379a00000000000000000000000000000000000000000000000000000000081526004018080602001828103825260208152602001807f4f6e6c79207265676973746572656420736c61736865722063616e2063616c6c81525060200191505060405180910390fd5b618aa78261a2eb565b15618b55576000600460008473ffffffffffffffffffffffffffffffffffffffff1673ffffffffffffffffffffffffffffffffffffffff1681526020019081526020016000209050600073ffffffffffffffffffffffffffffffffffffffff168160020160009054906101000a900473ffffffffffffffffffffffffffffffffffffffff1673ffffffffffffffffffffffffffffffffffffffff1614618b5357618b51818461c008565b505b505b6001548114618bcc576040517f08c379a000000000000000000000000000000000000000000000000000000000815260040180806020018281038252600e8152602001807f7265656e7472616e742063616c6c00000000000000000000000000000000000081525060200191505060405180910390fd5b5050565b6000618c146003618c066002618bf86002618bea886166ae565b61cfb890919063ffffffff16565b61ad2a90919063ffffffff16565b61c66c90919063ffffffff16565b9050919050565b6000618c2561a786565b73ffffffffffffffffffffffffffffffffffffffff166364439b43336040518263ffffffff1660e01b8152600401808273ffffffffffffffffffffffffffffffffffffffff1673ffffffffffffffffffffffffffffffffffffffff16815260200191505060206040518083038186803b158015618ca157600080fd5b505afa158015618cb5573d6000803e3d6000fd5b505050506040513d6020811015618ccb57600080fd5b81019080805190602001909291905050509050618ce781613b3c565b618d59576040517f08c379a00000000000000000000000000000000000000000000000000000000081526004018080602001828103825260158152602001807f4e6f7420612076616c696461746f722067726f7570000000000000000000000081525060200191505060405180910390fd5b6000600360008373ffffffffffffffffffffffffffffffffffffffff1673ffffffffffffffffffffffffffffffffffffffff1681526020019081526020016000209050600081600701541415618e17576040517f08c379a000000000000000000000000000000000000000000000000000000000815260040180806020018281038252601b8152602001807f4e6f20636f6d6d697373696f6e2075706461746520717565756564000000000081525060200191505060405180910390fd5b4381600701541115618e74576040517f08c379a000000000000000000000000000000000000000000000000000000000815260040180806020018281038252602181526020018061e31d6021913960400191505060405180910390fd5b80600601816005016000820154816000015590505080600601600080820160009055505080600701600090558173ffffffffffffffffffffffffffffffffffffffff167f815d292dbc1a08dfb3103aabb6611233dd2393903e57bdf4c5b3db91198a826c618ef98360050160405180602001604052908160008201548152505061adc9565b6040518082815260200191505060405180910390a25050565b600060018060008282540192505081905550600060015490506000618f3561a786565b73ffffffffffffffffffffffffffffffffffffffff166364439b43336040518263ffffffff1660e01b8152600401808273ffffffffffffffffffffffffffffffffffffffff1673ffffffffffffffffffffffffffffffffffffffff16815260200191505060206040518083038186803b158015618fb157600080fd5b505afa158015618fc5573d6000803e3d6000fd5b505050506040513d6020811015618fdb57600080fd5b81019080805190602001909291905050509050618ff78161d03e565b506190018161a2eb565b158015619014575061901281613b3c565b155b619086576040517f08c379a00000000000000000000000000000000000000000000000000000000081526004018080602001828103825260128152602001807f416c72656164792072656769737465726564000000000000000000000000000081525060200191505060405180910390fd5b600061909061c571565b73ffffffffffffffffffffffffffffffffffffffff166330ec70f5836040518263ffffffff1660e01b8152600401808273ffffffffffffffffffffffffffffffffffffffff1673ffffffffffffffffffffffffffffffffffffffff16815260200191505060206040518083038186803b15801561910c57600080fd5b505afa158015619120573d6000803e3d6000fd5b505050506040513d602081101561913657600080fd5b810190808051906020019092919050505090506007600001548110156191c4576040517f08c379a00000000000000000000000000000000000000000000000000000000081526004018080602001828103825260118152602001807f4465706f73697420746f6f20736d616c6c00000000000000000000000000000081525060200191505060405180910390fd5b6000600460008473ffffffffffffffffffffffffffffffffffffffff1673ffffffffffffffffffffffffffffffffffffffff1681526020019081526020016000209050600061921161a786565b73ffffffffffffffffffffffffffffffffffffffff16634ce38b5f856040518263ffffffff1660e01b8152600401808273ffffffffffffffffffffffffffffffffffffffff1673ffffffffffffffffffffffffffffffffffffffff16815260200191505060206040518083038186803b15801561928d57600080fd5b505afa1580156192a1573d6000803e3d6000fd5b505050506040513d60208110156192b757600080fd5b8101908080519060200190929190505050905061931a8285838f8f8080601f016020809104026020016040519081016040528093929190818152602001838380828437600081840152601f19601f8201169050808301925050505050505061b59d565b61938c576040517f08c379a000000000000000000000000000000000000000000000000000000000815260040180806020018281038252601f8152602001807f4572726f72207570646174696e67204543445341207075626c6963206b65790081525060200191505060405180910390fd5b61942082858c8c8080601f016020809104026020016040519081016040528093929190818152602001838380828437600081840152601f19601f820116905080830192505050505050508b8b8080601f016020809104026020016040519081016040528093929190818152602001838380828437600081840152601f19601f8201169050808301925050505050505061b959565b619492576040517f08c379a000000000000000000000000000000000000000000000000000000000815260040180806020018281038252601d8152602001807f4572726f72207570646174696e6720424c53207075626c6963206b657900000081525060200191505060405180910390fd5b60068490806001815401808255809150509060018203906000526020600020016000909192909190916101000a81548173ffffffffffffffffffffffffffffffffffffffff021916908373ffffffffffffffffffffffffffffffffffffffff1602179055505061950384600061d290565b508373ffffffffffffffffffffffffffffffffffffffff167fd09501348473474a20c772c79c653e1fd7e8b437e418fe235d277d2c8885325160405160405180910390a2600195505050505060015481146195c6576040517f08c379a000000000000000000000000000000000000000000000000000000000815260040180806020018281038252600e8152602001807f7265656e7472616e742063616c6c00000000000000000000000000000000000081525060200191505060405180910390fd5b509695505050505050565b60006195dc8461a2eb565b61964e576040517f08c379a000000000000000000000000000000000000000000000000000000000815260040180806020018281038252600f8152602001807f4e6f7420612076616c696461746f72000000000000000000000000000000000081525060200191505060405180910390fd5b61965661669e565b8311156196ae576040517f08c379a000000000000000000000000000000000000000000000000000000000815260040180806020018281038252602381526020018061e5356023913960400191505060405180910390fd5b6000600460008673ffffffffffffffffffffffffffffffffffffffff1673ffffffffffffffffffffffffffffffffffffffff168152602001908152602001600020600401905061970f8160010154826000015461ad2a90919063ffffffff16565b8310619783576040517f08c379a00000000000000000000000000000000000000000000000000000000081526004018080602001828103825260138152602001807f696e646578206f7574206f6620626f756e64730000000000000000000000000081525060200191505060405180910390fd5b8060000154831015801561979b575060008160010154115b61980d576040517f08c379a00000000000000000000000000000000000000000000000000000000081526004018080602001828103825260138152602001807f696e646578206f7574206f6620626f756e64730000000000000000000000000081525060200191505060405180910390fd5b6000848260020160008681526020019081526020016000206000015414905060006198466001846001015461ace090919063ffffffff16565b61985d84600001548761ace090919063ffffffff16565b149050600086846002016000888152602001908152602001600020600001541080156198bb57508684600201600061989f60018a61ad2a90919063ffffffff16565b81526020019081526020016000206000015411806198ba5750815b5b905082806198c65750805b61991b576040517f08c379a000000000000000000000000000000000000000000000000000000000815260040180806020018281038252604781526020018061e41e6047913960600191505060405180910390fd5b83600201600087815260200190815260200160002060010160009054906101000a900473ffffffffffffffffffffffffffffffffffffffff169450505050509392505050565b60008060008714158015619976575060008514155b6199e8576040517f08c379a00000000000000000000000000000000000000000000000000000000081526004018080602001828103825260158152602001807f612064656e6f6d696e61746f72206973207a65726f000000000000000000000081525060200191505060405180910390fd5b6000806000606060fc73ffffffffffffffffffffffffffffffffffffffff168c8c8c8c8c8c6040516020018087815260200186815260200185815260200184815260200183815260200182815260200196505050505050506040516020818303038152906040526040518082805190602001908083835b60208310619a825780518252602082019150602081019050602083039250619a5f565b6001836020036101000a038019825116818451168082178552505050505050905001915050600060405180830381855afa9150503d8060008114619ae2576040519150601f19603f3d011682016040523d82523d6000602084013e619ae7565b606091505b50809250819350505081619b46576040517f08c379a000000000000000000000000000000000000000000000000000000000815260040180806020018281038252602781526020018061e5cc6027913960400191505060405180910390fd5b619b5181600061adb2565b9350619b5e81602061adb2565b925083839550955050505050965096945050505050565b60006001806000828254019250508190555060006001549050619b9e619b9961bf7f565b61adc9565b831115619bf6576040517f08c379a000000000000000000000000000000000000000000000000000000000815260040180806020018281038252602581526020018061e6da6025913960400191505060405180910390fd5b6000619c0061a786565b73ffffffffffffffffffffffffffffffffffffffff166364439b43336040518263ffffffff1660e01b8152600401808273ffffffffffffffffffffffffffffffffffffffff1673ffffffffffffffffffffffffffffffffffffffff16815260200191505060206040518083038186803b158015619c7c57600080fd5b505afa158015619c90573d6000803e3d6000fd5b505050506040513d6020811015619ca657600080fd5b81019080805190602001909291905050509050619cc28161d03e565b50619ccc8161a2eb565b15619d3f576040517f08c379a000000000000000000000000000000000000000000000000000000000815260040180806020018281038252601f8152602001807f416c726561647920726567697374657265642061732076616c696461746f720081525060200191505060405180910390fd5b619d4881613b3c565b15619dbb576040517f08c379a000000000000000000000000000000000000000000000000000000000815260040180806020018281038252601b8152602001807f416c726561647920726567697374657265642061732067726f7570000000000081525060200191505060405180910390fd5b6000619dc561c571565b73ffffffffffffffffffffffffffffffffffffffff166330ec70f5836040518263ffffffff1660e01b8152600401808273ffffffffffffffffffffffffffffffffffffffff1673ffffffffffffffffffffffffffffffffffffffff16815260200191505060206040518083038186803b158015619e4157600080fd5b505afa158015619e55573d6000803e3d6000fd5b505050506040513d6020811015619e6b57600080fd5b81019080805190602001909291905050509050600960000154811015619ef9576040517f08c379a00000000000000000000000000000000000000000000000000000000081526004018080602001828103825260168152602001807f4e6f7420656e6f756768206c6f636b656420676f6c640000000000000000000081525060200191505060405180910390fd5b6000600360008473ffffffffffffffffffffffffffffffffffffffff1673ffffffffffffffffffffffffffffffffffffffff168152602001908152602001600020905060018160000160006101000a81548160ff021916908315150217905550619f628661bce5565b81600501600082015181600001559050506040518060400160405280619f8661bf7f565b81526020016000815250816009016000820151816000016000820151816000015550506020820151816001015590505060058390806001815401808255809150509060018203906000526020600020016000909192909190916101000a81548173ffffffffffffffffffffffffffffffffffffffff021916908373ffffffffffffffffffffffffffffffffffffffff160217905550508273ffffffffffffffffffffffffffffffffffffffff167fbf4b45570f1907a94775f8449817051a492a676918e38108bb762e991e6b58dc876040518082815260200191505060405180910390a260019450505050600154811461a0e8576040517f08c379a000000000000000000000000000000000000000000000000000000000815260040180806020018281038252600e8152602001807f7265656e7472616e742063616c6c00000000000000000000000000000000000081525060200191505060405180910390fd5b50919050565b600061a0f8615ff2565b61a16a576040517f08c379a00000000000000000000000000000000000000000000000000000000081526004018080602001828103825260208152602001807f4f776e61626c653a2063616c6c6572206973206e6f7420746865206f776e657281525060200191505060405180910390fd5b8160001061a1c3576040517f08c379a000000000000000000000000000000000000000000000000000000000815260040180806020018281038252602881526020018061e50d6028913960400191505060405180910390fd5b600d5482141561a21e576040517f08c379a000000000000000000000000000000000000000000000000000000000815260040180806020018281038252602581526020018061e5796025913960400191505060405180910390fd5b81600d819055507f1c75c7fb3ee9d13d8394372d8c7cdf1702fa947faa03f6ccfa500f787b09b48a826040518082815260200191505060405180910390a160019050919050565b61a26d615ff2565b61a2df576040517f08c379a00000000000000000000000000000000000000000000000000000000081526004018080602001828103825260208152602001807f4f776e61626c653a2063616c6c6572206973206e6f7420746865206f776e657281525060200191505060405180910390fd5b61a2e88161bba1565b50565b600080600460008473ffffffffffffffffffffffffffffffffffffffff1673ffffffffffffffffffffffffffffffffffffffff168152602001908152602001600020600001600101805460018160011615610100020316600290049050119050919050565b60006060600060f573ffffffffffffffffffffffffffffffffffffffff1684604051602001808281526020019150506040516020818303038152906040526040518082805190602001908083835b6020831061a3c1578051825260208201915060208101905060208303925061a39e565b6001836020036101000a038019825116818451168082178552505050505050905001915050600060405180830381855afa9150503d806000811461a421576040519150601f19603f3d011682016040523d82523d6000602084013e61a426565b606091505b5080935081925050508061a485576040517f08c379a000000000000000000000000000000000000000000000000000000000815260040180806020018281038252602c81526020018061e639602c913960400191505060405180910390fd5b61a49082600061b4fc565b92505050919050565b60006001806000828254019250508190555060006001549050600061a4bc61a786565b73ffffffffffffffffffffffffffffffffffffffff166364439b43336040518263ffffffff1660e01b8152600401808273ffffffffffffffffffffffffffffffffffffffff1673ffffffffffffffffffffffffffffffffffffffff16815260200191505060206040518083038186803b15801561a53857600080fd5b505afa15801561a54c573d6000803e3d6000fd5b505050506040513d602081101561a56257600080fd5b8101908080519060200190929190505050905061a57e8161a2eb565b61a5f0576040517f08c379a000000000000000000000000000000000000000000000000000000000815260040180806020018281038252600f8152602001807f4e6f7420612076616c696461746f72000000000000000000000000000000000081525060200191505060405180910390fd5b6000600460008373ffffffffffffffffffffffffffffffffffffffff1673ffffffffffffffffffffffffffffffffffffffff1681526020019081526020016000209050600073ffffffffffffffffffffffffffffffffffffffff168160020160009054906101000a900473ffffffffffffffffffffffffffffffffffffffff1673ffffffffffffffffffffffffffffffffffffffff16141561a6fa576040517f08c379a000000000000000000000000000000000000000000000000000000000815260040180806020018281038252601b8152602001807f6465616666696c696174653a206e6f7420616666696c6961746564000000000081525060200191505060405180910390fd5b61a704818361c008565b50600193505050600154811461a782576040517f08c379a000000000000000000000000000000000000000000000000000000000815260040180806020018281038252600e8152602001807f7265656e7472616e742063616c6c00000000000000000000000000000000000081525060200191505060405180910390fd5b5090565b6000600260019054906101000a900473ffffffffffffffffffffffffffffffffffffffff1673ffffffffffffffffffffffffffffffffffffffff1663dcf0aaed60405160200180807f4163636f756e74730000000000000000000000000000000000000000000000008152506008019050604051602081830303815290604052805190602001206040518263ffffffff1660e01b81526004018082815260200191505060206040518083038186803b15801561a84157600080fd5b505afa15801561a855573d6000803e3d6000fd5b505050506040513d602081101561a86b57600080fd5b8101908080519060200190929190505050905090565b600080600360008573ffffffffffffffffffffffffffffffffffffffff1673ffffffffffffffffffffffffffffffffffffffff16815260200190815260200160002090508373ffffffffffffffffffffffffffffffffffffffff16600460008573ffffffffffffffffffffffffffffffffffffffff1673ffffffffffffffffffffffffffffffffffffffff16815260200190815260200160002060020160009054906101000a900473ffffffffffffffffffffffffffffffffffffffff1673ffffffffffffffffffffffffffffffffffffffff161461a9c8576040517f08c379a00000000000000000000000000000000000000000000000000000000081526004018080602001828103825260178152602001807f4e6f7420616666696c696174656420746f2067726f757000000000000000000081525060200191505060405180910390fd5b8060010173__AddressLinkedList_____________________63542424fb9091856040518363ffffffff1660e01b8152600401808381526020018273ffffffffffffffffffffffffffffffffffffffff1673ffffffffffffffffffffffffffffffffffffffff1681526020019250505060206040518083038186803b15801561aa5057600080fd5b505af415801561aa64573d6000803e3d6000fd5b505050506040513d602081101561aa7a57600080fd5b810190808051906020019092919050505061aafd576040517f08c379a00000000000000000000000000000000000000000000000000000000081526004018080602001828103825260198152602001807f4e6f742061206d656d626572206f66207468652067726f75700000000000000081525060200191505060405180910390fd5b8060010173__AddressLinkedList_____________________63e2c0c56a9091856040518363ffffffff1660e01b8152600401808381526020018273ffffffffffffffffffffffffffffffffffffffff1673ffffffffffffffffffffffffffffffffffffffff1681526020019250505060006040518083038186803b15801561ab8557600080fd5b505af415801561ab99573d6000803e3d6000fd5b50505050600081600101600201549050600081141561ac515761abba61d6b1565b73ffffffffffffffffffffffffffffffffffffffff1663a8e45871866040518263ffffffff1660e01b8152600401808273ffffffffffffffffffffffffffffffffffffffff1673ffffffffffffffffffffffffffffffffffffffff168152602001915050600060405180830381600087803b15801561ac3857600080fd5b505af115801561ac4c573d6000803e3d6000fd5b505050505b61ac5c84600061d290565b5061ac7a8561ac7560018461ad2a90919063ffffffff16565b61d7ac565b8373ffffffffffffffffffffffffffffffffffffffff168573ffffffffffffffffffffffffffffffffffffffff167fc7666a52a66ff601ff7c0d4d6efddc9ac20a34792f6aa003d1804c9d4d5baa5760405160405180910390a360019250505092915050565b600061ad2283836040518060400160405280601e81526020017f536166654d6174683a207375627472616374696f6e206f766572666c6f77000081525061d8d5565b905092915050565b60008082840190508381101561ada8576040517f08c379a000000000000000000000000000000000000000000000000000000000815260040180806020018281038252601b8152602001807f536166654d6174683a206164646974696f6e206f766572666c6f77000000000081525060200191505060405180910390fd5b8091505092915050565b600061adbe838361b4fc565b60001c905092915050565b600081600001519050919050565b600061ade285613b3c565b801561adf3575061adf28461a2eb565b5b61ae65576040517f08c379a00000000000000000000000000000000000000000000000000000000081526004018080602001828103825260178152602001807f4e6f742076616c696461746f7220616e642067726f757000000000000000000081525060200191505060405180910390fd5b6000600360008773ffffffffffffffffffffffffffffffffffffffff1673ffffffffffffffffffffffffffffffffffffffff1681526020019081526020016000209050600e5481600101600201541061af26576040517f08c379a000000000000000000000000000000000000000000000000000000000815260040180806020018281038252601f8152602001807f67726f757020776f756c6420657863656564206d6178696d756d2073697a650081525060200191505060405180910390fd5b8573ffffffffffffffffffffffffffffffffffffffff16600460008773ffffffffffffffffffffffffffffffffffffffff1673ffffffffffffffffffffffffffffffffffffffff16815260200190815260200160002060020160009054906101000a900473ffffffffffffffffffffffffffffffffffffffff1673ffffffffffffffffffffffffffffffffffffffff161461b029576040517f08c379a00000000000000000000000000000000000000000000000000000000081526004018080602001828103825260178152602001807f4e6f7420616666696c696174656420746f2067726f757000000000000000000081525060200191505060405180910390fd5b8060010173__AddressLinkedList_____________________63542424fb9091876040518363ffffffff1660e01b8152600401808381526020018273ffffffffffffffffffffffffffffffffffffffff1673ffffffffffffffffffffffffffffffffffffffff1681526020019250505060206040518083038186803b15801561b0b157600080fd5b505af415801561b0c5573d6000803e3d6000fd5b505050506040513d602081101561b0db57600080fd5b81019080805190602001909291905050501561b15f576040517f08c379a00000000000000000000000000000000000000000000000000000000081526004018080602001828103825260108152602001807f416c726561647920696e2067726f75700000000000000000000000000000000081525060200191505060405180910390fd5b600061b17c6001836001016002015461ad2a90919063ffffffff16565b90508160010173__AddressLinkedList_____________________6326afac499091886040518363ffffffff1660e01b8152600401808381526020018273ffffffffffffffffffffffffffffffffffffffff1673ffffffffffffffffffffffffffffffffffffffff1681526020019250505060006040518083038186803b15801561b20657600080fd5b505af415801561b21a573d6000803e3d6000fd5b5050505061b22787617c78565b61b299576040517f08c379a000000000000000000000000000000000000000000000000000000000815260040180806020018281038252601a8152602001807f47726f757020726571756972656d656e7473206e6f74206d657400000000000081525060200191505060405180910390fd5b61b2a286617c78565b61b314576040517f08c379a000000000000000000000000000000000000000000000000000000000815260040180806020018281038252601e8152602001807f56616c696461746f7220726571756972656d656e7473206e6f74206d6574000081525060200191505060405180910390fd5b600181141561b4245761b32561d6b1565b73ffffffffffffffffffffffffffffffffffffffff1663a18fb2db8887876040518463ffffffff1660e01b8152600401808473ffffffffffffffffffffffffffffffffffffffff1673ffffffffffffffffffffffffffffffffffffffff1681526020018373ffffffffffffffffffffffffffffffffffffffff1673ffffffffffffffffffffffffffffffffffffffff1681526020018273ffffffffffffffffffffffffffffffffffffffff1673ffffffffffffffffffffffffffffffffffffffff1681526020019350505050600060405180830381600087803b15801561b40b57600080fd5b505af115801561b41f573d6000803e3d6000fd5b505050505b61b42e868861d290565b5061b44c8761b44760018461ace090919063ffffffff16565b61d7ac565b8573ffffffffffffffffffffffffffffffffffffffff168773ffffffffffffffffffffffffffffffffffffffff167fbdf7e616a6943f81e07a7984c9d4c00197dc2f481486ce4ffa6af52a113974ad60405160405180910390a3600192505050949350505050565b60008082848161b4c057fe5b049050600083858161b4ce57fe5b06141561b4de578091505061b4f6565b61b4f260018261ad2a90919063ffffffff16565b9150505b92915050565b600061b51260208361ad2a90919063ffffffff16565b8351101561b588576040517f08c379a00000000000000000000000000000000000000000000000000000000081526004018080602001828103825260148152602001807f736c6963696e67206f7574206f662072616e676500000000000000000000000081525060200191505060405180910390fd5b60006020830184015190508091505092915050565b6000604082511461b616576040517f08c379a000000000000000000000000000000000000000000000000000000000815260040180806020018281038252601d8152602001807f57726f6e67204543445341207075626c6963206b6579206c656e67746800000081525060200191505060405180910390fd5b8273ffffffffffffffffffffffffffffffffffffffff16828051906020012060001c73ffffffffffffffffffffffffffffffffffffffff161461b6c1576040517f08c379a000000000000000000000000000000000000000000000000000000000815260040180806020018281038252601f8152602001807f4543445341206b657920646f6573206e6f74206d61746368207369676e65720081525060200191505060405180910390fd5b8185600001600001908051906020019061b6dc92919061e199565b508373ffffffffffffffffffffffffffffffffffffffff167f213377eec2c15b21fa7abcbb0cb87a67e893cdb94a2564aa4bb4d380869473c8836040518080602001828103825283818151815260200191508051906020019080838360005b8381101561b75657808201518184015260208101905061b73b565b50505050905090810190601f16801561b7835780820380516001836020036101000a031916815260200191505b509250505060405180910390a260019050949350505050565b82805490508110801561b81057508173ffffffffffffffffffffffffffffffffffffffff1683828154811061b7cd57fe5b9060005260206000200160009054906101000a900473ffffffffffffffffffffffffffffffffffffffff1673ffffffffffffffffffffffffffffffffffffffff16145b61b865576040517f08c379a000000000000000000000000000000000000000000000000000000000815260040180806020018281038252602181526020018061e5f36021913960400191505060405180910390fd5b600061b87f6001858054905061ace090919063ffffffff16565b905083818154811061b88d57fe5b9060005260206000200160009054906101000a900473ffffffffffffffffffffffffffffffffffffffff1684838154811061b8c457fe5b9060005260206000200160006101000a81548173ffffffffffffffffffffffffffffffffffffffff021916908373ffffffffffffffffffffffffffffffffffffffff16021790555083818154811061b91857fe5b9060005260206000200160006101000a81549073ffffffffffffffffffffffffffffffffffffffff021916905580848161b952919061e219565b5050505050565b6000606083511461b9d2576040517f08c379a000000000000000000000000000000000000000000000000000000000815260040180806020018281038252601b8152602001807f57726f6e6720424c53207075626c6963206b6579206c656e677468000000000081525060200191505060405180910390fd5b603082511461ba49576040517f08c379a00000000000000000000000000000000000000000000000000000000081526004018080602001828103825260148152602001807f57726f6e6720424c5320506f50206c656e67746800000000000000000000000081525060200191505060405180910390fd5b61ba54848484612dec565b61bac6576040517f08c379a000000000000000000000000000000000000000000000000000000000815260040180806020018281038252600f8152602001807f496e76616c696420424c5320506f50000000000000000000000000000000000081525060200191505060405180910390fd5b8285600001600101908051906020019061bae192919061e199565b508373ffffffffffffffffffffffffffffffffffffffff167f36a1aabe506bbe8802233cbb9aad628e91269e77077c953f9db3e02d7092ee33846040518080602001828103825283818151815260200191508051906020019080838360005b8381101561bb5b57808201518184015260208101905061bb40565b50505050905090810190601f16801561bb885780820380516001836020036101000a031916815260200191505b509250505060405180910390a260019050949350505050565b600073ffffffffffffffffffffffffffffffffffffffff168173ffffffffffffffffffffffffffffffffffffffff16141561bc27576040517f08c379a000000000000000000000000000000000000000000000000000000000815260040180806020018281038252602681526020018061e2bc6026913960400191505060405180910390fd5b8073ffffffffffffffffffffffffffffffffffffffff166000809054906101000a900473ffffffffffffffffffffffffffffffffffffffff1673ffffffffffffffffffffffffffffffffffffffff167f8be0079c531659141344cd1fd0a4f28419497f9722a3daafe3b4186f6b6457e060405160405180910390a3806000806101000a81548173ffffffffffffffffffffffffffffffffffffffff021916908373ffffffffffffffffffffffffffffffffffffffff16021790555050565b61bced61e13e565b6040518060200160405280838152509050919050565b61bd0b61e13e565b600082600001518460000151019050836000015181101561bd94576040517f08c379a00000000000000000000000000000000000000000000000000000000081526004018080602001828103825260158152602001807f616464206f766572666c6f77206465746563746564000000000000000000000081525060200191505060405180910390fd5b60405180602001604052808281525091505092915050565b61bdb461e13e565b61bdbc61d995565b82111561be14576040517f08c379a000000000000000000000000000000000000000000000000000000000815260040180806020018281038252603681526020018061e3c36036913960400191505060405180910390fd5b604051806020016040528069d3c21bcecceda100000084028152509050919050565b61be3e61e13e565b60008260000151141561beb9576040517f08c379a00000000000000000000000000000000000000000000000000000000081526004018080602001828103825260118152602001807f63616e277420646976696465206279203000000000000000000000000000000081525060200191505060405180910390fd5b600069d3c21bcecceda10000008460000151029050836000015169d3c21bcecceda1000000828161bee657fe5b041461bf5a576040517f08c379a00000000000000000000000000000000000000000000000000000000081526004018080602001828103825260128152602001807f6f766572666c6f7720617420646976696465000000000000000000000000000081525060200191505060405180910390fd5b60405180602001604052808460000151838161bf7257fe5b0481525091505092915050565b61bf8761e13e565b604051806020016040528069d3c21bcecceda1000000815250905090565b600033905090565b600081831061bfbc578161bfbe565b825b905092915050565b61bfce61e13e565b61bfd661e13e565b61bfdf8461bdac565b905061bfe961e13e565b61bff28461bdac565b905061bffe828261be36565b9250505092915050565b6000808360020160009054906101000a900473ffffffffffffffffffffffffffffffffffffffff1690506000600360008373ffffffffffffffffffffffffffffffffffffffff1673ffffffffffffffffffffffffffffffffffffffff16815260200190815260200160002090508060010173__AddressLinkedList_____________________63542424fb9091866040518363ffffffff1660e01b8152600401808381526020018273ffffffffffffffffffffffffffffffffffffffff1673ffffffffffffffffffffffffffffffffffffffff1681526020019250505060206040518083038186803b15801561c0fd57600080fd5b505af415801561c111573d6000803e3d6000fd5b505050506040513d602081101561c12757600080fd5b81019080805190602001909291905050501561c1495761c147828561a881565b505b60008560020160006101000a81548173ffffffffffffffffffffffffffffffffffffffff021916908373ffffffffffffffffffffffffffffffffffffffff1602179055508173ffffffffffffffffffffffffffffffffffffffff168473ffffffffffffffffffffffffffffffffffffffff167f71815121f0622b31a3e7270eb28acb9fd10825ff418c9a18591f617bb8a31a6c60405160405180910390a360019250505092915050565b600061c1fd61a786565b73ffffffffffffffffffffffffffffffffffffffff166393c5c487846040518263ffffffff1660e01b8152600401808273ffffffffffffffffffffffffffffffffffffffff1673ffffffffffffffffffffffffffffffffffffffff16815260200191505060206040518083038186803b15801561c27957600080fd5b505afa15801561c28d573d6000803e3d6000fd5b505050506040513d602081101561c2a357600080fd5b8101908080519060200190929190505050905061c2bf8161a2eb565b61c331576040517f08c379a000000000000000000000000000000000000000000000000000000000815260040180806020018281038252600f8152602001807f4e6f7420612076616c696461746f72000000000000000000000000000000000081525060200191505060405180910390fd5b61c33961e13e565b61c34a61c34584616050565b61bce5565b905061c35461e13e565b61c38082600b60010160405180602001604052908160008201548152505061d9b490919063ffffffff16565b905061c38a61e13e565b61c3bd600b60010160405180602001604052908160008201548152505061c3af61bf7f565b61de1390919063ffffffff16565b905061c428600460008673ffffffffffffffffffffffffffffffffffffffff1673ffffffffffffffffffffffffffffffffffffffff1681526020019081526020016000206003016040518060200160405290816000820154815250508261d9b490919063ffffffff16565b905061c45e61c45961c4398561adc9565b61c45461c44f858761bd0390919063ffffffff16565b61adc9565b61bfad565b61bce5565b600460008673ffffffffffffffffffffffffffffffffffffffff1673ffffffffffffffffffffffffffffffffffffffff168152602001908152602001600020600301600082015181600001559050508373ffffffffffffffffffffffffffffffffffffffff167fedf9f87e50e10c533bf3ae7f5a7894ae66c23e6cbbe8773d7765d20ad6f995e961c544600460008873ffffffffffffffffffffffffffffffffffffffff1673ffffffffffffffffffffffffffffffffffffffff16815260200190815260200160002060030160405180602001604052908160008201548152505061adc9565b61c54d8661adc9565b604051808381526020018281526020019250505060405180910390a2505050505050565b6000600260019054906101000a900473ffffffffffffffffffffffffffffffffffffffff1673ffffffffffffffffffffffffffffffffffffffff1663dcf0aaed60405160200180807f4c6f636b6564476f6c6400000000000000000000000000000000000000000000815250600a019050604051602081830303815290604052805190602001206040518263ffffffff1660e01b81526004018082815260200191505060206040518083038186803b15801561c62c57600080fd5b505afa15801561c640573d6000803e3d6000fd5b505050506040513d602081101561c65657600080fd5b8101908080519060200190929190505050905090565b600061c6ae83836040518060400160405280601a81526020017f536166654d6174683a206469766973696f6e206279207a65726f00000000000081525061deba565b905092915050565b60008160000151836000015114905092915050565b60008061c6d661a786565b73ffffffffffffffffffffffffffffffffffffffff166393c5c487856040518263ffffffff1660e01b8152600401808273ffffffffffffffffffffffffffffffffffffffff1673ffffffffffffffffffffffffffffffffffffffff16815260200191505060206040518083038186803b15801561c75257600080fd5b505afa15801561c766573d6000803e3d6000fd5b505050506040513d602081101561c77c57600080fd5b8101908080519060200190929190505050905061c7988161a2eb565b61c80a576040517f08c379a000000000000000000000000000000000000000000000000000000000815260040180806020018281038252600f8152602001807f4e6f7420612076616c696461746f72000000000000000000000000000000000081525060200191505060405180910390fd5b600061c81582612811565b9050600073ffffffffffffffffffffffffffffffffffffffff168173ffffffffffffffffffffffffffffffffffffffff16141561c89d576040517f08c379a000000000000000000000000000000000000000000000000000000000815260040180806020018281038252602581526020018061e3f96025913960400191505060405180910390fd5b61c8a682617c78565b801561c8b7575061c8b681617c78565b5b1561cf915761c8c461e13e565b61c9a0600360008473ffffffffffffffffffffffffffffffffffffffff1673ffffffffffffffffffffffffffffffffffffffff16815260200190815260200160002060090160000160405180602001604052908160008201548152505061c992600460008773ffffffffffffffffffffffffffffffffffffffff1673ffffffffffffffffffffffffffffffffffffffff16815260200190815260200160002060030160405180602001604052908160008201548152505061c9848961bdac565b61d9b490919063ffffffff16565b61d9b490919063ffffffff16565b9050600061ca1561ca10600360008673ffffffffffffffffffffffffffffffffffffffff1673ffffffffffffffffffffffffffffffffffffffff1681526020019081526020016000206005016040518060200160405290816000820154815250508461d9b490919063ffffffff16565b61df80565b905061ca1f61e13e565b61ca4261ca3d8361ca2f8661df80565b61ace090919063ffffffff16565b61bdac565b905060008061ca4f61a786565b73ffffffffffffffffffffffffffffffffffffffff16639f024f4b886040518263ffffffff1660e01b8152600401808273ffffffffffffffffffffffffffffffffffffffff1673ffffffffffffffffffffffffffffffffffffffff168152602001915050604080518083038186803b15801561caca57600080fd5b505afa15801561cade573d6000803e3d6000fd5b505050506040513d604081101561caf457600080fd5b81019080805190602001909291908051906020019092919050505091509150600061cb3861cb3361cb248461bce5565b8661d9b490919063ffffffff16565b61df80565b9050600061cb578261cb498761df80565b61ace090919063ffffffff16565b9050600061cb6361dfa1565b90508073ffffffffffffffffffffffffffffffffffffffff166340c10f198a896040518363ffffffff1660e01b8152600401808373ffffffffffffffffffffffffffffffffffffffff1673ffffffffffffffffffffffffffffffffffffffff16815260200182815260200192505050602060405180830381600087803b15801561cbec57600080fd5b505af115801561cc00573d6000803e3d6000fd5b505050506040513d602081101561cc1657600080fd5b810190808051906020019092919050505061cc99576040517f08c379a000000000000000000000000000000000000000000000000000000000815260040180806020018281038252601e8152602001807f6d696e74206661696c656420746f2076616c696461746f722067726f7570000081525060200191505060405180910390fd5b8073ffffffffffffffffffffffffffffffffffffffff166340c10f198b846040518363ffffffff1660e01b8152600401808373ffffffffffffffffffffffffffffffffffffffff1673ffffffffffffffffffffffffffffffffffffffff16815260200182815260200192505050602060405180830381600087803b15801561cd2057600080fd5b505af115801561cd34573d6000803e3d6000fd5b505050506040513d602081101561cd4a57600080fd5b810190808051906020019092919050505061cdcd576040517f08c379a00000000000000000000000000000000000000000000000000000000081526004018080602001828103825260208152602001807f6d696e74206661696c656420746f2076616c696461746f72206163636f756e7481525060200191505060405180910390fd5b6000841461cf0a578073ffffffffffffffffffffffffffffffffffffffff166340c10f1986856040518363ffffffff1660e01b8152600401808373ffffffffffffffffffffffffffffffffffffffff1673ffffffffffffffffffffffffffffffffffffffff16815260200182815260200192505050602060405180830381600087803b15801561ce5c57600080fd5b505af115801561ce70573d6000803e3d6000fd5b505050506040513d602081101561ce8657600080fd5b810190808051906020019092919050505061cf09576040517f08c379a00000000000000000000000000000000000000000000000000000000081526004018080602001828103825260188152602001807f6d696e74206661696c656420746f2064656c656761746565000000000000000081525060200191505060405180910390fd5b5b8873ffffffffffffffffffffffffffffffffffffffff168a73ffffffffffffffffffffffffffffffffffffffff167f6f5937add2ec38a0fa4959bccd86e3fcc2aafb706cd3e6c0565f87a7b36b9975848a604051808381526020018281526020019250505060405180910390a361cf808861df80565b9a505050505050505050505061cf98565b6000925050505b92915050565b60008183101561cfae578161cfb0565b825b905092915050565b60008083141561cfcb576000905061d038565b600082840290508284828161cfdc57fe5b041461d033576040517f08c379a000000000000000000000000000000000000000000000000000000000815260040180806020018281038252602181526020018061e5586021913960400191505060405180910390fd5b809150505b92915050565b600061d04861d6b1565b73ffffffffffffffffffffffffffffffffffffffff1663cb08c993836040518263ffffffff1660e01b8152600401808273ffffffffffffffffffffffffffffffffffffffff1673ffffffffffffffffffffffffffffffffffffffff168152602001915050602060405180830381600087803b15801561d0c657600080fd5b505af115801561d0da573d6000803e3d6000fd5b505050506040513d602081101561d0f057600080fd5b81019080805190602001909291905050501561d157576040517f08c379a000000000000000000000000000000000000000000000000000000000815260040180806020018281038252602e81526020018061e59e602e913960400191505060405180910390fd5b600061d16161c571565b73ffffffffffffffffffffffffffffffffffffffff166315952ae7846040518263ffffffff1660e01b8152600401808273ffffffffffffffffffffffffffffffffffffffff1673ffffffffffffffffffffffffffffffffffffffff16815260200191505060206040518083038186803b15801561d1dd57600080fd5b505afa15801561d1f1573d6000803e3d6000fd5b505050506040513d602081101561d20757600080fd5b81019080805190602001909291905050501461d28b576040517f08c379a00000000000000000000000000000000000000000000000000000000081526004018080602001828103825260208152602001807f43616e6e6f742064656c656761746520676f7665726e616e636520706f77657281525060200191505060405180910390fd5b919050565b600080600460008573ffffffffffffffffffffffffffffffffffffffff1673ffffffffffffffffffffffffffffffffffffffff1681526020019081526020016000206004019050600061d2e161669e565b905060008083600101541461d3235761d31e61d30b6001856001015461ace090919063ffffffff16565b846000015461ad2a90919063ffffffff16565b61d326565b60005b90506000836001015411801561d3685750600073ffffffffffffffffffffffffffffffffffffffff168573ffffffffffffffffffffffffffffffffffffffff16145b1561d377574283600301819055505b6000836001015411801561d3a257508183600201600083815260200190815260200160002060000154145b1561d4475760405180604001604052808381526020018673ffffffffffffffffffffffffffffffffffffffff168152508360020160008381526020019081526020016000206000820151816000015560208201518160010160006101000a81548173ffffffffffffffffffffffffffffffffffffffff021916908373ffffffffffffffffffffffffffffffffffffffff1602179055509050506001935050505061d6ab565b60008084600101541461d46d5761d46860018361ad2a90919063ffffffff16565b61d470565b60005b905060405180604001604052808481526020018773ffffffffffffffffffffffffffffffffffffffff168152508460020160008381526020019081526020016000206000820151816000015560208201518160010160006101000a81548173ffffffffffffffffffffffffffffffffffffffff021916908373ffffffffffffffffffffffffffffffffffffffff160217905550905050600d548460010154101561d5395761d52c6001856001015461ad2a90919063ffffffff16565b846001018190555061d6a2565b600d548460010154141561d5b757836002016000856000015481526020019081526020016000206000808201600090556001820160006101000a81549073ffffffffffffffffffffffffffffffffffffffff0219169055505061d5aa6001856000015461ad2a90919063ffffffff16565b846000018190555061d6a1565b836002016000856000015481526020019081526020016000206000808201600090556001820160006101000a81549073ffffffffffffffffffffffffffffffffffffffff0219169055505083600201600061d6206001876000015461ad2a90919063ffffffff16565b81526020019081526020016000206000808201600090556001820160006101000a81549073ffffffffffffffffffffffffffffffffffffffff0219169055505061d6786001856001015461ace090919063ffffffff16565b846001018190555061d6986002856000015461ad2a90919063ffffffff16565b84600001819055505b5b60019450505050505b92915050565b6000600260019054906101000a900473ffffffffffffffffffffffffffffffffffffffff1673ffffffffffffffffffffffffffffffffffffffff1663dcf0aaed60405160200180807f456c656374696f6e0000000000000000000000000000000000000000000000008152506008019050604051602081830303815290604052805190602001206040518263ffffffff1660e01b81526004018082815260200191505060206040518083038186803b15801561d76c57600080fd5b505afa15801561d780573d6000803e3d6000fd5b505050506040513d602081101561d79657600080fd5b8101908080519060200190929190505050905090565b6000600360008473ffffffffffffffffffffffffffffffffffffffff1673ffffffffffffffffffffffffffffffffffffffff1681526020019081526020016000206008019050808054905082141561d82e578042908060018154018082558091505090600182039060005260206000200160009091929091909150555061d8d0565b808054905082101561d85a574281838154811061d84757fe5b906000526020600020018190555061d8cf565b600061d8ce576040517f08c379a000000000000000000000000000000000000000000000000000000000815260040180806020018281038252601d8152602001807f556e61626c6520746f207570646174652073697a6520686973746f727900000081525060200191505060405180910390fd5b5b5b505050565b600083831115829061d982576040517f08c379a00000000000000000000000000000000000000000000000000000000081526004018080602001828103825283818151815260200191508051906020019080838360005b8381101561d94757808201518184015260208101905061d92c565b50505050905090810190601f16801561d9745780820380516001836020036101000a031916815260200191505b509250505060405180910390fd5b5060008385039050809150509392505050565b60007601357c299a88ea76a58924d52ce4f26a85af186c2b9e74905090565b61d9bc61e13e565b60008360000151148061d9d3575060008260000151145b1561d9ef5760405180602001604052806000815250905061de0d565b69d3c21bcecceda10000008260000151141561da0d5782905061de0d565b69d3c21bcecceda10000008360000151141561da2b5781905061de0d565b600069d3c21bcecceda100000061da418561e09c565b600001518161da4c57fe5b049050600061da5a8561e0d3565b600001519050600069d3c21bcecceda100000061da768661e09c565b600001518161da8157fe5b049050600061da8f8661e0d3565b600001519050600082850290506000851461db23578285828161daae57fe5b041461db22576040517f08c379a00000000000000000000000000000000000000000000000000000000081526004018080602001828103825260168152602001807f6f766572666c6f7720783179312064657465637465640000000000000000000081525060200191505060405180910390fd5b5b600069d3c21bcecceda1000000820290506000821461dbc55769d3c21bcecceda100000082828161db5057fe5b041461dbc4576040517f08c379a000000000000000000000000000000000000000000000000000000000815260040180806020018281038252601f8152602001807f6f766572666c6f772078317931202a206669786564312064657465637465640081525060200191505060405180910390fd5b5b809150600084860290506000861461dc56578486828161dbe157fe5b041461dc55576040517f08c379a00000000000000000000000000000000000000000000000000000000081526004018080602001828103825260168152602001807f6f766572666c6f7720783279312064657465637465640000000000000000000081525060200191505060405180910390fd5b5b600084880290506000881461dce4578488828161dc6f57fe5b041461dce3576040517f08c379a00000000000000000000000000000000000000000000000000000000081526004018080602001828103825260168152602001807f6f766572666c6f7720783179322064657465637465640000000000000000000081525060200191505060405180910390fd5b5b61dcec61e110565b878161dcf457fe5b04965061dcff61e110565b858161dd0757fe5b049450600085880290506000881461dd98578588828161dd2357fe5b041461dd97576040517f08c379a00000000000000000000000000000000000000000000000000000000081526004018080602001828103825260168152602001807f6f766572666c6f7720783279322064657465637465640000000000000000000081525060200191505060405180910390fd5b5b61dda061e13e565b604051806020016040528087815250905061ddc98160405180602001604052808781525061bd03565b905061dde38160405180602001604052808681525061bd03565b905061ddfd8160405180602001604052808581525061bd03565b9050809a50505050505050505050505b92915050565b61de1b61e13e565b81600001518360000151101561de99576040517f08c379a000000000000000000000000000000000000000000000000000000000815260040180806020018281038252601f8152602001807f737562737472616374696f6e20756e646572666c6f772064657465637465640081525060200191505060405180910390fd5b60405180602001604052808360000151856000015103815250905092915050565b6000808311829061df66576040517f08c379a00000000000000000000000000000000000000000000000000000000081526004018080602001828103825283818151815260200191508051906020019080838360005b8381101561df2b57808201518184015260208101905061df10565b50505050905090810190601f16801561df585780820380516001836020036101000a031916815260200191505b509250505060405180910390fd5b50600083858161df7257fe5b049050809150509392505050565b600069d3c21bcecceda100000082600001518161df9957fe5b049050919050565b6000600260019054906101000a900473ffffffffffffffffffffffffffffffffffffffff1673ffffffffffffffffffffffffffffffffffffffff1663dcf0aaed60405160200180807f537461626c65546f6b656e000000000000000000000000000000000000000000815250600b019050604051602081830303815290604052805190602001206040518263ffffffff1660e01b81526004018082815260200191505060206040518083038186803b15801561e05c57600080fd5b505afa15801561e070573d6000803e3d6000fd5b505050506040513d602081101561e08657600080fd5b8101908080519060200190929190505050905090565b61e0a461e13e565b604051806020016040528069d3c21bcecceda10000008085600001518161e0c757fe5b04028152509050919050565b61e0db61e13e565b604051806020016040528069d3c21bcecceda10000008085600001518161e0fe57fe5b04028460000151038152509050919050565b600064e8d4a51000905090565b508054600082559060005260206000209081019061e13b919061e245565b50565b6040518060200160405280600081525090565b50805460018160011615610100020316600290046000825580601f1061e177575061e196565b601f01602090049060005260206000209081019061e195919061e245565b5b50565b828054600181600116156101000203166002900490600052602060002090601f016020900481019282601f1061e1da57805160ff191683800117855561e208565b8280016001018555821561e208579182015b8281111561e20757825182559160200191906001019061e1ec565b5b50905061e215919061e245565b5090565b81548183558181111561e2405781836000526020600020918201910161e23f919061e245565b5b505050565b61e26791905b8082111561e26357600081600090555060010161e24b565b5090565b9056fe56616c696461746f7220646f65736e2774206d65657420726571756972656d656e74736572726f722063616c6c696e67206e756d62657256616c696461746f7273496e53657420707265636f6d70696c654f776e61626c653a206e6577206f776e657220697320746865207a65726f2061646472657373607265736574536c617368696e674d756c7469706c696572602063616c6c6564206265666f7265207265736574506572696f64206578706972656443616e2774206170706c7920636f6d6d697373696f6e2075706461746520796574557074696d65206172726179206c6172676572207468616e206d6178696d756d2067726f75702073697a6556616c696461746f7220726571756972656d656e7473206e6f74206368616e6765646572726f722063616c6c696e672067657456657269666965645365616c4269746d617046726f6d48656164657220707265636f6d70696c6563616e277420637265617465206669786964697479206e756d626572206c6172676572207468616e206d61784e65774669786564282956616c696461746f72206e6f742072656769737465726564207769746820612067726f757070726f766964656420696e64657820646f6573206e6f74206d617463682070726f76696465642065706f63684e756d62657220617420696e64657820696e20686973746f72792e6572726f722063616c6c696e672076616c696461746f725369676e65724164647265737346726f6d43757272656e7453657420707265636f6d70696c656572726f722063616c6c696e67206e756d62657256616c696461746f7273496e43757272656e7453657420707265636f6d70696c656572726f722063616c6c696e672076616c696461746f725369676e65724164647265737346726f6d53657420707265636f6d70696c654d656d6265727368697020686973746f7279206c656e6774682063616e6e6f74206265207a65726f45706f63682063616e6e6f74206265206c6172676572207468616e2063757272656e74536166654d6174683a206d756c7469706c69636174696f6e206f766572666c6f774d656d6265727368697020686973746f7279206c656e677468206e6f74206368616e67656443616e6e6f7420766f746520666f72206d6f7265207468616e206d6178206e756d626572206f662067726f7570736572726f722063616c6c696e67206672616374696f6e4d756c45787020707265636f6d70696c6564656c657465456c656d656e743a20696e646578206f7574206f662072616e67656572726f722063616c6c696e672067657445706f636853697a6520707265636f6d70696c656572726f722063616c6c696e6720676574506172656e745365616c4269746d617020707265636f6d70696c65636f6d6d697373696f6e207570646174652064656c6179206e6f74206368616e6765646572726f722063616c6c696e6720676574426c6f636b4e756d62657246726f6d48656164657220707265636f6d70696c654861736e2774206265656e20656d70747920666f72206c6f6e6720656e6f756768436f6d6d697373696f6e2063616e27742062652067726561746572207468616e203130302541646a7573746d656e742073706565642063616e6e6f74206265206c6172676572207468616e20316572726f722063616c6c696e67206861736848656164657220707265636f6d70696c6541646a7573746d656e7420737065656420616e64206578706f6e656e74206e6f74206368616e676564a265627a7a72315820f60b7b6dd8a194d03ba88924b6e6e671e39337723ce11c2b78d74fc7fa74c11864736f6c634300050d0032",
  "source": "pragma solidity ^0.5.13;\n\nimport \"../Validators.sol\";\nimport \"../../common/FixidityLib.sol\";\n\n/**\n * @title A wrapper around Validators that exposes onlyVm functions for testing.\n */\ncontract ValidatorsTest is Validators(true) {\n  function updateValidatorScoreFromSigner(address signer, uint256 uptime) external {\n    return _updateValidatorScoreFromSigner(signer, uptime);\n  }\n\n  function distributeEpochPaymentsFromSigner(address signer, uint256 maxPayment)\n    external\n    returns (uint256)\n  {\n    return _distributeEpochPaymentsFromSigner(signer, maxPayment);\n  }\n}\n",
  "compiler": {
    "name": "solc",
    "version": "0.5.13+commit.5b0b510c.Emscripten.clang"
  },
  "schemaVersion": "3.4.13",
  "updatedAt": "2023-11-21T17:25:03.785Z",
  "networkType": "ethereum",
  "devdoc": {
    "methods": {
      "addFirstMember(address,address,address)": {
        "details": "Fails if `validator` has not set their affiliation to this account.Fails if the group has > 0 members.",
        "params": {
          "greater": "The address of the group that has received more votes than this group.",
          "lesser": "The address of the group that has received fewer votes than this group.",
          "validator": "The validator to add to the group"
        },
        "return": "True upon success."
      },
      "addMember(address)": {
        "details": "Fails if `validator` has not set their affiliation to this account.Fails if the group has zero members.",
        "params": {
          "validator": "The validator to add to the group"
        },
        "return": "True upon success."
      },
      "affiliate(address)": {
        "details": "De-affiliates with the previously affiliated group if present.",
        "params": {
          "group": "The validator group with which to affiliate."
        },
        "return": "True upon success."
      },
      "calculateEpochScore(uint256)": {
        "details": "epoch_score = uptime ** exponent",
        "params": {
          "uptime": "The Fixidity representation of the validator's uptime, between 0 and 1."
        },
        "return": "Fixidity representation of the epoch score between 0 and 1."
      },
      "calculateGroupEpochScore(uint256[])": {
        "details": "group_score = average(uptimes ** exponent)",
        "params": {
          "uptimes": "Array of Fixidity representations of the validators' uptimes, between 0 and 1."
        },
        "return": "Fixidity representation of the group epoch score between 0 and 1."
      },
      "checkProofOfPossession(address,bytes,bytes)": {
        "params": {
          "blsKey": "The BLS public key that the validator is using for consensus, should pass proof  of possession. 48 bytes.",
          "blsPop": "The BLS public key proof-of-possession, which consists of a signature on the  account address. 96 bytes.",
          "sender": "The address signed by the BLS key to generate the proof of possession."
        },
        "return": "True upon success."
      },
      "deaffiliate()": {
        "details": "Fails if the account is not a validator with non-zero affiliation.",
        "return": "True upon success."
      },
      "deregisterValidator(uint256)": {
        "details": "Fails if the account is not a validator.Fails if the validator has been a member of a group too recently.",
        "params": {
          "index": "The index of this validator in the list of all registered validators."
        },
        "return": "True upon success."
      },
      "deregisterValidatorGroup(uint256)": {
        "details": "Fails if the account is not a validator group with no members.Fails if the group has had members too recently.",
        "params": {
          "index": "The index of this validator group in the list of all validator groups."
        },
        "return": "True upon success."
      },
      "forceDeaffiliateIfValidator(address)": {
        "params": {
          "validatorAccount": "The validator to deaffiliate from their affiliated validator group."
        }
      },
      "fractionMulExp(uint256,uint256,uint256,uint256,uint256,uint256)": {
        "params": {
          "_decimals": "precision",
          "aDenominator": "Denominator of first fraction",
          "aNumerator": "Numerator of first fraction",
          "bDenominator": "Denominator of exponentiated fraction",
          "bNumerator": "Numerator of exponentiated fraction",
          "exponent": "exponent to raise b to"
        },
        "return": "Numerator of the computed quantity (not reduced).Denominator of the computed quantity (not reduced)."
      },
      "getAccountLockedGoldRequirement(address)": {
        "params": {
          "account": "The account that may have to meet locked gold balance requirements."
        },
        "return": "The current locked gold balance requirement for the supplied account."
      },
      "getBlockNumberFromHeader(bytes)": {
        "params": {
          "header": "RLP encoded header"
        },
        "return": "Block number."
      },
      "getCommissionUpdateDelay()": {
        "return": "The block delay for a ValidatorGroup's commission udpdate."
      },
      "getEpochNumber()": {
        "return": "Current epoch number."
      },
      "getEpochNumberOfBlock(uint256)": {
        "params": {
          "blockNumber": "Block number where epoch number is calculated."
        },
        "return": "Epoch number."
      },
      "getEpochSize()": {
        "return": "The current epoch size in blocks."
      },
      "getGroupLockedGoldRequirements()": {
        "return": "The Locked Gold value.The Locked Gold duration."
      },
      "getGroupNumMembers(address)": {
        "params": {
          "account": "The address of the validator group."
        },
        "return": "The number of members in a validator group."
      },
      "getGroupsNumMembers(address[])": {
        "params": {
          "accounts": "The addresses of the validator groups."
        },
        "return": "The number of members in the provided validator groups."
      },
      "getMaxGroupSize()": {
        "return": "The maximum number of members a group can add."
      },
      "getMembershipHistory(address)": {
        "params": {
          "account": "The validator whose membership history to return."
        },
        "return": "epochs The epochs of a validator.The membership groups of a validator.The last removed from group timestamp of a validator.The tail of a validator."
      },
      "getMembershipInLastEpoch(address)": {
        "params": {
          "account": "The account whose group membership should be returned."
        },
        "return": "The group that `account` was a member of at the end of the last epoch."
      },
      "getMembershipInLastEpochFromSigner(address)": {
        "params": {
          "signer": "The signer of the account whose group membership should be returned."
        },
        "return": "The group that `account` was a member of at the end of the last epoch."
      },
      "getNumRegisteredValidators()": {
        "return": "The number of registered validators."
      },
      "getParentSealBitmap(uint256)": {
        "params": {
          "blockNumber": "Block number to retrieve. Must be within 4 epochs of the current number."
        },
        "return": "Bitmap parent seal with set bits at indices corresponding to signing validators."
      },
      "getRegisteredValidatorGroups()": {
        "return": "The list of registered validator group addresses."
      },
      "getRegisteredValidatorSigners()": {
        "return": "The list of signers for registered validator accounts."
      },
      "getRegisteredValidators()": {
        "return": "The list of registered validator accounts."
      },
      "getTopGroupValidators(address,uint256)": {
        "params": {
          "account": "The address of the validator group.",
          "n": "The number of members to return."
        },
        "return": "The top n group members for a particular group."
      },
      "getValidator(address)": {
        "params": {
          "account": "The account that registered the validator."
        },
        "return": "The unpacked validator struct."
      },
      "getValidatorBlsPublicKeyFromSigner(address)": {
        "params": {
          "signer": "The account that registered the validator or its authorized signing address."
        },
        "return": "The validator BLS key."
      },
      "getValidatorGroup(address)": {
        "params": {
          "account": "The account that registered the validator group."
        },
        "return": "keys The Keys.commision The commision.nextCommision The next commision.nextCommisionBlock The next commision block.size The Size history.multiplier The multiplier.lastSlashed The last slashed."
      },
      "getValidatorGroupSlashingMultiplier(address)": {
        "params": {
          "account": "The group to fetch slashing multiplier for."
        }
      },
      "getValidatorLockedGoldRequirements()": {
        "return": "The Locked Gold value.The Locked Gold duration."
      },
      "getValidatorScoreParameters()": {
        "return": "The exponent that governs how a validator's score is calculated.The adjustment speed that governs how a validator's score is calculated."
      },
      "getVerifiedSealBitmapFromHeader(bytes)": {
        "params": {
          "header": "RLP encoded header"
        },
        "return": "Bitmap parent seal with set bits at indices correspoinding to signing validators."
      },
      "getVersionNumber()": {
        "return": "Storage version of the contract.Major version of the contract.Minor version of the contract.Patch version of the contract."
      },
      "groupMembershipInEpoch(address,uint256,uint256)": {
        "params": {
          "account": "The account whose group membership should be returned.",
          "epochNumber": "The epoch number we are querying this account's membership at.",
          "index": "The index into the validator's history struct for their history at `epochNumber`."
        },
        "return": "The group that `account` was a member of during `epochNumber`."
      },
      "halveSlashingMultiplier(address)": {
        "params": {
          "account": "The group being slashed."
        }
      },
      "hashHeader(bytes)": {
        "params": {
          "header": "RLP encoded header"
        },
        "return": "Header hash."
      },
      "initialize(address,uint256,uint256,uint256,uint256,uint256,uint256,uint256,uint256,uint256,uint256,uint256)": {
        "details": "Should be called only once.",
        "params": {
          "_commissionUpdateDelay": "The number of blocks to delay a ValidatorGroup's commission update.",
          "_maxGroupSize": "The maximum group size.",
          "_membershipHistoryLength": "The max number of entries for validator membership history.",
          "groupRequirementDuration": "The Locked Gold requirement duration for groups.",
          "groupRequirementValue": "The Locked Gold requirement amount for groups.",
          "registryAddress": "The address of the registry core smart contract.",
          "validatorRequirementDuration": "The Locked Gold requirement duration for validators.",
          "validatorRequirementValue": "The Locked Gold requirement amount for validators.",
          "validatorScoreAdjustmentSpeed": "The speed at which validator scores are adjusted.",
          "validatorScoreExponent": "The exponent used in calculating validator scores."
        }
      },
      "isOwner()": {
        "details": "Returns true if the caller is the current owner."
      },
      "isValidator(address)": {
        "params": {
          "account": "The account."
        },
        "return": "Whether a particular address is a registered validator."
      },
      "isValidatorGroup(address)": {
        "params": {
          "account": "The account."
        },
        "return": "Whether a particular address is a registered validator group."
      },
      "meetsAccountLockedGoldRequirements(address)": {
        "params": {
          "account": "The address of the account."
        },
        "return": "Whether or not an account meets its Locked Gold requirements."
      },
      "minQuorumSize(uint256)": {
        "details": "Computed in celo-blockchain as int(math.Ceil(float64(2*valSet.Size()) / 3))"
      },
      "minQuorumSizeInCurrentSet()": {
        "return": "Byzantine quorum of validators."
      },
      "numberValidatorsInCurrentSet()": {
        "return": "Size of the current elected validator set."
      },
      "numberValidatorsInSet(uint256)": {
        "params": {
          "blockNumber": "Block number to retrieve the validator set from."
        },
        "return": "Size of the validator set."
      },
      "owner()": {
        "details": "Returns the address of the current owner."
      },
      "registerValidator(bytes,bytes,bytes)": {
        "details": "Fails if the account is already a validator or validator group.Fails if the account does not have sufficient Locked Gold.",
        "params": {
          "blsPop": "The BLS public key proof-of-possession, which consists of a signature on the  account address. 48 bytes.",
          "blsPublicKey": "The BLS public key that the validator is using for consensus, should pass  proof of possession. 96 bytes.",
          "ecdsaPublicKey": "The ECDSA public key that the validator is using for consensus, should  match the validator signer. 64 bytes."
        },
        "return": "True upon success."
      },
      "registerValidatorGroup(uint256)": {
        "details": "Fails if the account is already a validator or validator group.Fails if the account does not have sufficient weight.",
        "params": {
          "commission": "Fixidity representation of the commission this group receives on epoch  payments made to its members."
        },
        "return": "True upon success."
      },
      "removeMember(address)": {
        "details": "Fails if `validator` is not a member of the account's group.",
        "params": {
          "validator": "The validator to remove from the group"
        },
        "return": "True upon success."
      },
      "renounceOwnership()": {
        "details": "Leaves the contract without owner. It will not be possible to call `onlyOwner` functions anymore. Can only be called by the current owner.     * NOTE: Renouncing ownership will leave the contract without an owner, thereby removing any functionality that is only available to the owner."
      },
      "reorderMember(address,address,address)": {
        "details": "Fails if `validator` is not a member of the account's validator group.",
        "params": {
          "greaterMember": "The member who will be ahead of `validator`, or 0 if `validator` will be  the first member.",
          "lesserMember": "The member who will be behind `validator`, or 0 if `validator` will be the  last member.",
          "validator": "The validator to reorder."
        },
        "return": "True upon success."
      },
      "setCommissionUpdateDelay(uint256)": {
        "params": {
          "delay": "Number of blocks to delay the update"
        }
      },
      "setDowntimeGracePeriod(uint256)": {
        "params": {
          "value": "New downtime grace period for calculating epoch scores."
        }
      },
      "setGroupLockedGoldRequirements(uint256,uint256)": {
        "params": {
          "duration": "The time (in seconds) that these requirements persist for.",
          "value": "The per-member amount of Locked Gold required."
        },
        "return": "True upon success."
      },
      "setMaxGroupSize(uint256)": {
        "params": {
          "size": "The maximum group size."
        },
        "return": "True upon success."
      },
      "setMembershipHistoryLength(uint256)": {
        "params": {
          "length": "The number of validator group membership entries to store."
        },
        "return": "True upon success."
      },
      "setNextCommissionUpdate(uint256)": {
        "params": {
          "commission": "Fixidity representation of the commission this group receives on epoch  payments made to its members. Must be in the range [0, 1.0]."
        }
      },
      "setRegistry(address)": {
        "params": {
          "registryAddress": "The address of a registry contract for routing to other contracts."
        }
      },
      "setSlashingMultiplierResetPeriod(uint256)": {
        "params": {
          "value": "New reset period for slashing multiplier."
        }
      },
      "setValidatorLockedGoldRequirements(uint256,uint256)": {
        "params": {
          "duration": "The time (in seconds) that these requirements persist for.",
          "value": "The amount of Locked Gold required."
        },
        "return": "True upon success."
      },
      "setValidatorScoreParameters(uint256,uint256)": {
        "params": {
          "adjustmentSpeed": "The speed at which the score is adjusted.",
          "exponent": "The exponent used in calculating the score."
        },
        "return": "True upon success."
      },
      "transferOwnership(address)": {
        "details": "Transfers ownership of the contract to a new account (`newOwner`). Can only be called by the current owner."
      },
      "updateBlsPublicKey(bytes,bytes)": {
        "params": {
          "blsPop": "The BLS public key proof-of-possession, which consists of a signature on the  account address. 48 bytes.",
          "blsPublicKey": "The BLS public key that the validator is using for consensus, should pass  proof of possession. 48 bytes."
        },
        "return": "True upon success."
      },
      "updateEcdsaPublicKey(address,address,bytes)": {
        "params": {
          "account": "The address under which the validator is registered.",
          "ecdsaPublicKey": "The ECDSA public key corresponding to `signer`.",
          "signer": "The address which the validator is using to sign consensus messages."
        },
        "return": "True upon success."
      },
      "updatePublicKeys(address,address,bytes,bytes,bytes)": {
        "params": {
          "account": "The address under which the validator is registered.",
          "blsPop": "The BLS public key proof-of-possession, which consists of a signature on the  account address. 48 bytes.",
          "blsPublicKey": "The BLS public key that the validator is using for consensus, should pass  proof of possession. 96 bytes.",
          "ecdsaPublicKey": "The ECDSA public key corresponding to `signer`.",
          "signer": "The address which the validator is using to sign consensus messages."
        },
        "return": "True upon success."
      },
      "validatorSignerAddressFromCurrentSet(uint256)": {
        "params": {
          "index": "Index of requested validator in the validator set."
        },
        "return": "Address of validator at the requested index."
      },
      "validatorSignerAddressFromSet(uint256,uint256)": {
        "params": {
          "blockNumber": "Block number to retrieve the validator set from.",
          "index": "Index of requested validator in the validator set."
        },
        "return": "Address of validator at the requested index."
      }
    },
    "title": "A wrapper around Validators that exposes onlyVm functions for testing."
  },
  "userdoc": {
    "methods": {
      "addFirstMember(address,address,address)": {
        "notice": "Adds the first member to a group's list of members and marks it eligible for election."
      },
      "addMember(address)": {
        "notice": "Adds a member to the end of a validator group's list of members."
      },
      "affiliate(address)": {
        "notice": "Affiliates a validator with a group, allowing it to be added as a member."
      },
      "calculateEpochScore(uint256)": {
        "notice": "Calculates the validator score for an epoch from the uptime value for the epoch."
      },
      "calculateGroupEpochScore(uint256[])": {
        "notice": "Calculates the aggregate score of a group for an epoch from individual uptimes."
      },
      "checkProofOfPossession(address,bytes,bytes)": {
        "notice": "Checks a BLS proof of possession."
      },
      "deaffiliate()": {
        "notice": "De-affiliates a validator, removing it from the group for which it is a member."
      },
      "deregisterValidator(uint256)": {
        "notice": "De-registers a validator."
      },
      "deregisterValidatorGroup(uint256)": {
        "notice": "De-registers a validator group."
      },
      "forceDeaffiliateIfValidator(address)": {
        "notice": "Removes a validator from the group for which it is a member."
      },
      "fractionMulExp(uint256,uint256,uint256,uint256,uint256,uint256)": {
        "notice": "calculate a * b^x for fractions a, b to `decimals` precision"
      },
      "getAccountLockedGoldRequirement(address)": {
        "notice": "Returns the current locked gold balance requirement for the supplied account."
      },
      "getBlockNumberFromHeader(bytes)": {
        "notice": "Parses block number out of header."
      },
      "getCommissionUpdateDelay()": {
        "notice": "Returns the block delay for a ValidatorGroup's commission udpdate."
      },
      "getEpochNumber()": {
        "notice": "Returns the epoch number at a block."
      },
      "getEpochNumberOfBlock(uint256)": {
        "notice": "Returns the epoch number at a block."
      },
      "getEpochSize()": {
        "notice": "Returns the current epoch size in blocks."
      },
      "getGroupLockedGoldRequirements()": {
        "notice": "Returns the Locked Gold requirements for validator groups."
      },
      "getGroupNumMembers(address)": {
        "notice": "Returns the number of members in a validator group."
      },
      "getGroupsNumMembers(address[])": {
        "notice": "Returns the number of members in the provided validator groups."
      },
      "getMaxGroupSize()": {
        "notice": "Returns the maximum number of members a group can add."
      },
      "getMembershipHistory(address)": {
        "notice": "Returns the group membership history of a validator."
      },
      "getMembershipInLastEpoch(address)": {
        "notice": "Returns the group that `account` was a member of at the end of the last epoch."
      },
      "getMembershipInLastEpochFromSigner(address)": {
        "notice": "Returns the group that `account` was a member of at the end of the last epoch."
      },
      "getNumRegisteredValidators()": {
        "notice": "Returns the number of registered validators."
      },
      "getParentSealBitmap(uint256)": {
        "notice": "Gets the parent seal bitmap from the header at the given block number."
      },
      "getRegisteredValidatorGroups()": {
        "notice": "Returns the list of registered validator group accounts."
      },
      "getRegisteredValidatorSigners()": {
        "notice": "Returns the list of signers for the registered validator accounts."
      },
      "getRegisteredValidators()": {
        "notice": "Returns the list of registered validator accounts."
      },
      "getTopGroupValidators(address,uint256)": {
        "notice": "Returns the top n group members for a particular group."
      },
      "getValidator(address)": {
        "notice": "Returns validator information."
      },
      "getValidatorBlsPublicKeyFromSigner(address)": {
        "notice": "Returns the validator BLS key."
      },
      "getValidatorGroup(address)": {
        "notice": "Returns validator group information."
      },
      "getValidatorGroupSlashingMultiplier(address)": {
        "notice": "Getter for a group's slashing multiplier."
      },
      "getValidatorLockedGoldRequirements()": {
        "notice": "Returns the Locked Gold requirements for validators."
      },
      "getValidatorScoreParameters()": {
        "notice": "Returns the parameters that govern how a validator's score is calculated."
      },
      "getVerifiedSealBitmapFromHeader(bytes)": {
        "notice": "Verifies the BLS signature on the header and returns the seal bitmap. The validator set used for verification is retrieved based on the parent hash field of the header.  If the parent hash is not in the blockchain, verification fails."
      },
      "getVersionNumber()": {
        "notice": "Returns the storage, major, minor, and patch version of the contract."
      },
      "groupMembershipInEpoch(address,uint256,uint256)": {
        "notice": "Returns the group that `account` was a member of during `epochNumber`."
      },
      "halveSlashingMultiplier(address)": {
        "notice": "Halves the group's slashing multiplier."
      },
      "hashHeader(bytes)": {
        "notice": "Computes hash of header."
      },
      "initialize(address,uint256,uint256,uint256,uint256,uint256,uint256,uint256,uint256,uint256,uint256,uint256)": {
        "notice": "Used in place of the constructor to allow the contract to be upgradable via proxy."
      },
      "isValidator(address)": {
        "notice": "Returns whether a particular account has a registered validator."
      },
      "isValidatorGroup(address)": {
        "notice": "Returns whether a particular account has a registered validator group."
      },
      "meetsAccountLockedGoldRequirements(address)": {
        "notice": "Returns whether or not an account meets its Locked Gold requirements."
      },
      "minQuorumSize(uint256)": {
        "notice": "Returns the minimum number of required signers for a given block number."
      },
      "minQuorumSizeInCurrentSet()": {
        "notice": "Computes byzantine quorum from current validator set size"
      },
      "numberValidatorsInCurrentSet()": {
        "notice": "Gets the size of the current elected validator set."
      },
      "numberValidatorsInSet(uint256)": {
        "notice": "Gets the size of the validator set that must sign the given block number."
      },
      "registerValidator(bytes,bytes,bytes)": {
        "notice": "Registers a validator unaffiliated with any validator group."
      },
      "registerValidatorGroup(uint256)": {
        "notice": "Registers a validator group with no member validators."
      },
      "removeMember(address)": {
        "notice": "Removes a member from a validator group."
      },
      "reorderMember(address,address,address)": {
        "notice": "Reorders a member within a validator group."
      },
      "resetSlashingMultiplier()": {
        "notice": "Resets a group's slashing multiplier if it has been >= the reset period since        the last time the group was slashed."
      },
      "setCommissionUpdateDelay(uint256)": {
        "notice": "Updates the block delay for a ValidatorGroup's commission udpdate"
      },
      "setDowntimeGracePeriod(uint256)": {
        "notice": "Sets the downtimeGracePeriod property if called by owner."
      },
      "setGroupLockedGoldRequirements(uint256,uint256)": {
        "notice": "Updates the Locked Gold requirements for Validator Groups."
      },
      "setMaxGroupSize(uint256)": {
        "notice": "Updates the maximum number of members a group can have."
      },
      "setMembershipHistoryLength(uint256)": {
        "notice": "Updates the number of validator group membership entries to store."
      },
      "setNextCommissionUpdate(uint256)": {
        "notice": "Queues an update to a validator group's commission. If there was a previously scheduled update, that is overwritten."
      },
      "setRegistry(address)": {
        "notice": "Updates the address pointing to a Registry contract."
      },
      "setSlashingMultiplierResetPeriod(uint256)": {
        "notice": "Sets the slashingMultiplierRestPeriod property if called by owner."
      },
      "setValidatorLockedGoldRequirements(uint256,uint256)": {
        "notice": "Updates the Locked Gold requirements for Validators."
      },
      "setValidatorScoreParameters(uint256,uint256)": {
        "notice": "Updates the validator score parameters."
      },
      "updateBlsPublicKey(bytes,bytes)": {
        "notice": "Updates a validator's BLS key."
      },
      "updateCommission()": {
        "notice": "Updates a validator group's commission based on the previously queued update"
      },
      "updateEcdsaPublicKey(address,address,bytes)": {
        "notice": "Updates a validator's ECDSA key."
      },
      "updatePublicKeys(address,address,bytes,bytes,bytes)": {
        "notice": "Updates a validator's ECDSA and BLS keys."
      },
      "validatorSignerAddressFromCurrentSet(uint256)": {
        "notice": "Gets a validator address from the current validator set."
      },
      "validatorSignerAddressFromSet(uint256,uint256)": {
        "notice": "Gets a validator address from the validator set at the given block number."
      }
    }
  }
}