{
  "contractName": "Accounts",
  "abi": [
    {
      "inputs": [
        {
          "internalType": "bool",
          "name": "test",
          "type": "bool"
        }
      ],
      "payable": false,
      "stateMutability": "nonpayable",
      "type": "constructor"
    },
    {
      "anonymous": false,
      "inputs": [
        {
          "indexed": true,
          "internalType": "address",
          "name": "account",
          "type": "address"
        }
      ],
      "name": "AccountCreated",
      "type": "event"
    },
    {
      "anonymous": false,
      "inputs": [
        {
          "indexed": true,
          "internalType": "address",
          "name": "account",
          "type": "address"
        },
        {
          "indexed": false,
          "internalType": "bytes",
          "name": "dataEncryptionKey",
          "type": "bytes"
        }
      ],
      "name": "AccountDataEncryptionKeySet",
      "type": "event"
    },
    {
      "anonymous": false,
      "inputs": [
        {
          "indexed": true,
          "internalType": "address",
          "name": "account",
          "type": "address"
        },
        {
          "indexed": false,
          "internalType": "string",
          "name": "metadataURL",
          "type": "string"
        }
      ],
      "name": "AccountMetadataURLSet",
      "type": "event"
    },
    {
      "anonymous": false,
      "inputs": [
        {
          "indexed": true,
          "internalType": "address",
          "name": "account",
          "type": "address"
        },
        {
          "indexed": false,
          "internalType": "string",
          "name": "name",
          "type": "string"
        }
      ],
      "name": "AccountNameSet",
      "type": "event"
    },
    {
      "anonymous": false,
      "inputs": [
        {
          "indexed": true,
          "internalType": "address",
          "name": "account",
          "type": "address"
        },
        {
          "indexed": false,
          "internalType": "address",
          "name": "walletAddress",
          "type": "address"
        }
      ],
      "name": "AccountWalletAddressSet",
      "type": "event"
    },
    {
      "anonymous": false,
      "inputs": [
        {
          "indexed": true,
          "internalType": "address",
          "name": "account",
          "type": "address"
        },
        {
          "indexed": false,
          "internalType": "address",
          "name": "signer",
          "type": "address"
        }
      ],
      "name": "AttestationSignerAuthorized",
      "type": "event"
    },
    {
      "anonymous": false,
      "inputs": [
        {
          "indexed": true,
          "internalType": "address",
          "name": "account",
          "type": "address"
        },
        {
          "indexed": false,
          "internalType": "address",
          "name": "oldSigner",
          "type": "address"
        }
      ],
      "name": "AttestationSignerRemoved",
      "type": "event"
    },
    {
      "anonymous": false,
      "inputs": [
        {
          "indexed": true,
          "internalType": "address",
          "name": "account",
          "type": "address"
        },
        {
          "indexed": false,
          "internalType": "address",
          "name": "oldSigner",
          "type": "address"
        },
        {
          "indexed": false,
          "internalType": "bytes32",
          "name": "role",
          "type": "bytes32"
        }
      ],
      "name": "DefaultSignerRemoved",
      "type": "event"
    },
    {
      "anonymous": false,
      "inputs": [
        {
          "indexed": true,
          "internalType": "address",
          "name": "account",
          "type": "address"
        },
        {
          "indexed": false,
          "internalType": "address",
          "name": "signer",
          "type": "address"
        },
        {
          "indexed": false,
          "internalType": "bytes32",
          "name": "role",
          "type": "bytes32"
        }
      ],
      "name": "DefaultSignerSet",
      "type": "event"
    },
    {
      "anonymous": false,
      "inputs": [
        {
          "indexed": true,
          "internalType": "address",
          "name": "account",
          "type": "address"
        },
        {
          "indexed": false,
          "internalType": "address",
          "name": "oldSigner",
          "type": "address"
        },
        {
          "indexed": false,
          "internalType": "bytes32",
          "name": "role",
          "type": "bytes32"
        }
      ],
      "name": "IndexedSignerRemoved",
      "type": "event"
    },
    {
      "anonymous": false,
      "inputs": [
        {
          "indexed": true,
          "internalType": "address",
          "name": "account",
          "type": "address"
        },
        {
          "indexed": false,
          "internalType": "address",
          "name": "signer",
          "type": "address"
        },
        {
          "indexed": false,
          "internalType": "bytes32",
          "name": "role",
          "type": "bytes32"
        }
      ],
      "name": "IndexedSignerSet",
      "type": "event"
    },
    {
      "anonymous": false,
      "inputs": [
        {
          "indexed": true,
          "internalType": "address",
          "name": "account",
          "type": "address"
        },
        {
          "indexed": false,
          "internalType": "address",
          "name": "oldSigner",
          "type": "address"
        },
        {
          "indexed": false,
          "internalType": "bytes32",
          "name": "role",
          "type": "bytes32"
        }
      ],
      "name": "LegacySignerRemoved",
      "type": "event"
    },
    {
      "anonymous": false,
      "inputs": [
        {
          "indexed": true,
          "internalType": "address",
          "name": "account",
          "type": "address"
        },
        {
          "indexed": false,
          "internalType": "address",
          "name": "signer",
          "type": "address"
        },
        {
          "indexed": false,
          "internalType": "bytes32",
          "name": "role",
          "type": "bytes32"
        }
      ],
      "name": "LegacySignerSet",
      "type": "event"
    },
    {
      "anonymous": false,
      "inputs": [
        {
          "indexed": true,
          "internalType": "address",
          "name": "account",
          "type": "address"
        },
        {
          "indexed": false,
          "internalType": "bytes",
          "name": "url",
          "type": "bytes"
        }
      ],
      "name": "OffchainStorageRootAdded",
      "type": "event"
    },
    {
      "anonymous": false,
      "inputs": [
        {
          "indexed": true,
          "internalType": "address",
          "name": "account",
          "type": "address"
        },
        {
          "indexed": false,
          "internalType": "bytes",
          "name": "url",
          "type": "bytes"
        },
        {
          "indexed": false,
          "internalType": "uint256",
          "name": "index",
          "type": "uint256"
        }
      ],
      "name": "OffchainStorageRootRemoved",
      "type": "event"
    },
    {
      "anonymous": false,
      "inputs": [
        {
          "indexed": true,
          "internalType": "address",
          "name": "previousOwner",
          "type": "address"
        },
        {
          "indexed": true,
          "internalType": "address",
          "name": "newOwner",
          "type": "address"
        }
      ],
      "name": "OwnershipTransferred",
      "type": "event"
    },
    {
      "anonymous": false,
      "inputs": [
        {
          "indexed": true,
          "internalType": "address",
          "name": "beneficiary",
          "type": "address"
        },
        {
          "indexed": false,
          "internalType": "uint256",
          "name": "fraction",
          "type": "uint256"
        }
      ],
      "name": "PaymentDelegationSet",
      "type": "event"
    },
    {
      "anonymous": false,
      "inputs": [
        {
          "indexed": true,
          "internalType": "address",
          "name": "registryAddress",
          "type": "address"
        }
      ],
      "name": "RegistrySet",
      "type": "event"
    },
    {
      "anonymous": false,
      "inputs": [
        {
          "indexed": true,
          "internalType": "address",
          "name": "account",
          "type": "address"
        },
        {
          "indexed": false,
          "internalType": "address",
          "name": "signer",
          "type": "address"
        },
        {
          "indexed": true,
          "internalType": "bytes32",
          "name": "role",
          "type": "bytes32"
        }
      ],
      "name": "SignerAuthorizationCompleted",
      "type": "event"
    },
    {
      "anonymous": false,
      "inputs": [
        {
          "indexed": true,
          "internalType": "address",
          "name": "account",
          "type": "address"
        },
        {
          "indexed": false,
          "internalType": "address",
          "name": "signer",
          "type": "address"
        },
        {
          "indexed": true,
          "internalType": "bytes32",
          "name": "role",
          "type": "bytes32"
        }
      ],
      "name": "SignerAuthorizationStarted",
      "type": "event"
    },
    {
      "anonymous": false,
      "inputs": [
        {
          "indexed": true,
          "internalType": "address",
          "name": "account",
          "type": "address"
        },
        {
          "indexed": false,
          "internalType": "address",
          "name": "signer",
          "type": "address"
        },
        {
          "indexed": true,
          "internalType": "bytes32",
          "name": "role",
          "type": "bytes32"
        }
      ],
      "name": "SignerAuthorized",
      "type": "event"
    },
    {
      "anonymous": false,
      "inputs": [
        {
          "indexed": true,
          "internalType": "address",
          "name": "account",
          "type": "address"
        },
        {
          "indexed": false,
          "internalType": "address",
          "name": "oldSigner",
          "type": "address"
        },
        {
          "indexed": true,
          "internalType": "bytes32",
          "name": "role",
          "type": "bytes32"
        }
      ],
      "name": "SignerRemoved",
      "type": "event"
    },
    {
      "anonymous": false,
      "inputs": [
        {
          "indexed": true,
          "internalType": "address",
          "name": "account",
          "type": "address"
        },
        {
          "indexed": false,
          "internalType": "address",
          "name": "signer",
          "type": "address"
        }
      ],
      "name": "ValidatorSignerAuthorized",
      "type": "event"
    },
    {
      "anonymous": false,
      "inputs": [
        {
          "indexed": true,
          "internalType": "address",
          "name": "account",
          "type": "address"
        },
        {
          "indexed": false,
          "internalType": "address",
          "name": "oldSigner",
          "type": "address"
        }
      ],
      "name": "ValidatorSignerRemoved",
      "type": "event"
    },
    {
      "anonymous": false,
      "inputs": [
        {
          "indexed": true,
          "internalType": "address",
          "name": "account",
          "type": "address"
        },
        {
          "indexed": false,
          "internalType": "address",
          "name": "signer",
          "type": "address"
        }
      ],
      "name": "VoteSignerAuthorized",
      "type": "event"
    },
    {
      "anonymous": false,
      "inputs": [
        {
          "indexed": true,
          "internalType": "address",
          "name": "account",
          "type": "address"
        },
        {
          "indexed": false,
          "internalType": "address",
          "name": "oldSigner",
          "type": "address"
        }
      ],
      "name": "VoteSignerRemoved",
      "type": "event"
    },
    {
      "constant": true,
      "inputs": [],
      "name": "EIP712_AUTHORIZE_SIGNER_TYPEHASH",
      "outputs": [
        {
          "internalType": "bytes32",
          "name": "",
          "type": "bytes32"
        }
      ],
      "payable": false,
      "stateMutability": "view",
      "type": "function"
    },
    {
      "constant": true,
      "inputs": [
        {
          "internalType": "address",
          "name": "",
          "type": "address"
        }
      ],
      "name": "authorizedBy",
      "outputs": [
        {
          "internalType": "address",
          "name": "",
          "type": "address"
        }
      ],
      "payable": false,
      "stateMutability": "view",
      "type": "function"
    },
    {
      "constant": true,
      "inputs": [],
      "name": "eip712DomainSeparator",
      "outputs": [
        {
          "internalType": "bytes32",
          "name": "",
          "type": "bytes32"
        }
      ],
      "payable": false,
      "stateMutability": "view",
      "type": "function"
    },
    {
      "constant": true,
      "inputs": [],
      "name": "initialized",
      "outputs": [
        {
          "internalType": "bool",
          "name": "",
          "type": "bool"
        }
      ],
      "payable": false,
      "stateMutability": "view",
      "type": "function"
    },
    {
      "constant": true,
      "inputs": [],
      "name": "isOwner",
      "outputs": [
        {
          "internalType": "bool",
          "name": "",
          "type": "bool"
        }
      ],
      "payable": false,
      "stateMutability": "view",
      "type": "function"
    },
    {
      "constant": true,
      "inputs": [
        {
          "internalType": "address",
          "name": "",
          "type": "address"
        },
        {
          "internalType": "uint256",
          "name": "",
          "type": "uint256"
        }
      ],
      "name": "offchainStorageRoots",
      "outputs": [
        {
          "internalType": "bytes",
          "name": "",
          "type": "bytes"
        }
      ],
      "payable": false,
      "stateMutability": "view",
      "type": "function"
    },
    {
      "constant": true,
      "inputs": [],
      "name": "owner",
      "outputs": [
        {
          "internalType": "address",
          "name": "",
          "type": "address"
        }
      ],
      "payable": false,
      "stateMutability": "view",
      "type": "function"
    },
    {
      "constant": true,
      "inputs": [],
      "name": "registry",
      "outputs": [
        {
          "internalType": "contract IRegistry",
          "name": "",
          "type": "address"
        }
      ],
      "payable": false,
      "stateMutability": "view",
      "type": "function"
    },
    {
      "constant": false,
      "inputs": [],
      "name": "renounceOwnership",
      "outputs": [],
      "payable": false,
      "stateMutability": "nonpayable",
      "type": "function"
    },
    {
      "constant": false,
      "inputs": [
        {
          "internalType": "address",
          "name": "registryAddress",
          "type": "address"
        }
      ],
      "name": "setRegistry",
      "outputs": [],
      "payable": false,
      "stateMutability": "nonpayable",
      "type": "function"
    },
    {
      "constant": false,
      "inputs": [
        {
          "internalType": "address",
          "name": "newOwner",
          "type": "address"
        }
      ],
      "name": "transferOwnership",
      "outputs": [],
      "payable": false,
      "stateMutability": "nonpayable",
      "type": "function"
    },
    {
      "constant": true,
      "inputs": [],
      "name": "getVersionNumber",
      "outputs": [
        {
          "internalType": "uint256",
          "name": "",
          "type": "uint256"
        },
        {
          "internalType": "uint256",
          "name": "",
          "type": "uint256"
        },
        {
          "internalType": "uint256",
          "name": "",
          "type": "uint256"
        },
        {
          "internalType": "uint256",
          "name": "",
          "type": "uint256"
        }
      ],
      "payable": false,
      "stateMutability": "pure",
      "type": "function"
    },
    {
      "constant": false,
      "inputs": [
        {
          "internalType": "address",
          "name": "registryAddress",
          "type": "address"
        }
      ],
      "name": "initialize",
      "outputs": [],
      "payable": false,
      "stateMutability": "nonpayable",
      "type": "function"
    },
    {
      "constant": false,
      "inputs": [],
      "name": "setEip712DomainSeparator",
      "outputs": [],
      "payable": false,
      "stateMutability": "nonpayable",
      "type": "function"
    },
    {
      "constant": false,
      "inputs": [
        {
          "internalType": "string",
          "name": "name",
          "type": "string"
        },
        {
          "internalType": "bytes",
          "name": "dataEncryptionKey",
          "type": "bytes"
        },
        {
          "internalType": "address",
          "name": "walletAddress",
          "type": "address"
        },
        {
          "internalType": "uint8",
          "name": "v",
          "type": "uint8"
        },
        {
          "internalType": "bytes32",
          "name": "r",
          "type": "bytes32"
        },
        {
          "internalType": "bytes32",
          "name": "s",
          "type": "bytes32"
        }
      ],
      "name": "setAccount",
      "outputs": [],
      "payable": false,
      "stateMutability": "nonpayable",
      "type": "function"
    },
    {
      "constant": false,
      "inputs": [],
      "name": "createAccount",
      "outputs": [
        {
          "internalType": "bool",
          "name": "",
          "type": "bool"
        }
      ],
      "payable": false,
      "stateMutability": "nonpayable",
      "type": "function"
    },
    {
      "constant": false,
      "inputs": [
        {
          "internalType": "string",
          "name": "name",
          "type": "string"
        }
      ],
      "name": "setName",
      "outputs": [],
      "payable": false,
      "stateMutability": "nonpayable",
      "type": "function"
    },
    {
      "constant": false,
      "inputs": [
        {
          "internalType": "address",
          "name": "walletAddress",
          "type": "address"
        },
        {
          "internalType": "uint8",
          "name": "v",
          "type": "uint8"
        },
        {
          "internalType": "bytes32",
          "name": "r",
          "type": "bytes32"
        },
        {
          "internalType": "bytes32",
          "name": "s",
          "type": "bytes32"
        }
      ],
      "name": "setWalletAddress",
      "outputs": [],
      "payable": false,
      "stateMutability": "nonpayable",
      "type": "function"
    },
    {
      "constant": false,
      "inputs": [
        {
          "internalType": "bytes",
          "name": "dataEncryptionKey",
          "type": "bytes"
        }
      ],
      "name": "setAccountDataEncryptionKey",
      "outputs": [],
      "payable": false,
      "stateMutability": "nonpayable",
      "type": "function"
    },
    {
      "constant": false,
      "inputs": [
        {
          "internalType": "string",
          "name": "metadataURL",
          "type": "string"
        }
      ],
      "name": "setMetadataURL",
      "outputs": [],
      "payable": false,
      "stateMutability": "nonpayable",
      "type": "function"
    },
    {
      "constant": false,
      "inputs": [
        {
          "internalType": "bytes",
          "name": "url",
          "type": "bytes"
        }
      ],
      "name": "addStorageRoot",
      "outputs": [],
      "payable": false,
      "stateMutability": "nonpayable",
      "type": "function"
    },
    {
      "constant": false,
      "inputs": [
        {
          "internalType": "uint256",
          "name": "index",
          "type": "uint256"
        }
      ],
      "name": "removeStorageRoot",
      "outputs": [],
      "payable": false,
      "stateMutability": "nonpayable",
      "type": "function"
    },
    {
      "constant": true,
      "inputs": [
        {
          "internalType": "address",
          "name": "account",
          "type": "address"
        }
      ],
      "name": "getOffchainStorageRoots",
      "outputs": [
        {
          "internalType": "bytes",
          "name": "",
          "type": "bytes"
        },
        {
          "internalType": "uint256[]",
          "name": "",
          "type": "uint256[]"
        }
      ],
      "payable": false,
      "stateMutability": "view",
      "type": "function"
    },
    {
      "constant": false,
      "inputs": [
        {
          "internalType": "address",
          "name": "beneficiary",
          "type": "address"
        },
        {
          "internalType": "uint256",
          "name": "fraction",
          "type": "uint256"
        }
      ],
      "name": "setPaymentDelegation",
      "outputs": [],
      "payable": false,
      "stateMutability": "nonpayable",
      "type": "function"
    },
    {
      "constant": false,
      "inputs": [],
      "name": "deletePaymentDelegation",
      "outputs": [],
      "payable": false,
      "stateMutability": "nonpayable",
      "type": "function"
    },
    {
      "constant": true,
      "inputs": [
        {
          "internalType": "address",
          "name": "account",
          "type": "address"
        }
      ],
      "name": "getPaymentDelegation",
      "outputs": [
        {
          "internalType": "address",
          "name": "",
          "type": "address"
        },
        {
          "internalType": "uint256",
          "name": "",
          "type": "uint256"
        }
      ],
      "payable": false,
      "stateMutability": "view",
      "type": "function"
    },
    {
      "constant": false,
      "inputs": [
        {
          "internalType": "address",
          "name": "signer",
          "type": "address"
        },
        {
          "internalType": "bytes32",
          "name": "role",
          "type": "bytes32"
        }
      ],
      "name": "setIndexedSigner",
      "outputs": [],
      "payable": false,
      "stateMutability": "nonpayable",
      "type": "function"
    },
    {
      "constant": false,
      "inputs": [
        {
          "internalType": "address",
          "name": "signer",
          "type": "address"
        },
        {
          "internalType": "bytes32",
          "name": "role",
          "type": "bytes32"
        },
        {
          "internalType": "uint8",
          "name": "v",
          "type": "uint8"
        },
        {
          "internalType": "bytes32",
          "name": "r",
          "type": "bytes32"
        },
        {
          "internalType": "bytes32",
          "name": "s",
          "type": "bytes32"
        }
      ],
      "name": "authorizeSignerWithSignature",
      "outputs": [],
      "payable": false,
      "stateMutability": "nonpayable",
      "type": "function"
    },
    {
      "constant": false,
      "inputs": [
        {
          "internalType": "address",
          "name": "signer",
          "type": "address"
        },
        {
          "internalType": "uint8",
          "name": "v",
          "type": "uint8"
        },
        {
          "internalType": "bytes32",
          "name": "r",
          "type": "bytes32"
        },
        {
          "internalType": "bytes32",
          "name": "s",
          "type": "bytes32"
        }
      ],
      "name": "authorizeVoteSigner",
      "outputs": [],
      "payable": false,
      "stateMutability": "nonpayable",
      "type": "function"
    },
    {
      "constant": false,
      "inputs": [
        {
          "internalType": "address",
          "name": "signer",
          "type": "address"
        },
        {
          "internalType": "uint8",
          "name": "v",
          "type": "uint8"
        },
        {
          "internalType": "bytes32",
          "name": "r",
          "type": "bytes32"
        },
        {
          "internalType": "bytes32",
          "name": "s",
          "type": "bytes32"
        }
      ],
      "name": "authorizeValidatorSigner",
      "outputs": [],
      "payable": false,
      "stateMutability": "nonpayable",
      "type": "function"
    },
    {
      "constant": false,
      "inputs": [
        {
          "internalType": "address",
          "name": "signer",
          "type": "address"
        },
        {
          "internalType": "uint8",
          "name": "v",
          "type": "uint8"
        },
        {
          "internalType": "bytes32",
          "name": "r",
          "type": "bytes32"
        },
        {
          "internalType": "bytes32",
          "name": "s",
          "type": "bytes32"
        },
        {
          "internalType": "bytes",
          "name": "ecdsaPublicKey",
          "type": "bytes"
        }
      ],
      "name": "authorizeValidatorSignerWithPublicKey",
      "outputs": [],
      "payable": false,
      "stateMutability": "nonpayable",
      "type": "function"
    },
    {
      "constant": false,
      "inputs": [
        {
          "internalType": "address",
          "name": "signer",
          "type": "address"
        },
        {
          "internalType": "uint8",
          "name": "v",
          "type": "uint8"
        },
        {
          "internalType": "bytes32",
          "name": "r",
          "type": "bytes32"
        },
        {
          "internalType": "bytes32",
          "name": "s",
          "type": "bytes32"
        },
        {
          "internalType": "bytes",
          "name": "ecdsaPublicKey",
          "type": "bytes"
        },
        {
          "internalType": "bytes",
          "name": "blsPublicKey",
          "type": "bytes"
        },
        {
          "internalType": "bytes",
          "name": "blsPop",
          "type": "bytes"
        }
      ],
      "name": "authorizeValidatorSignerWithKeys",
      "outputs": [],
      "payable": false,
      "stateMutability": "nonpayable",
      "type": "function"
    },
    {
      "constant": false,
      "inputs": [
        {
          "internalType": "address",
          "name": "signer",
          "type": "address"
        },
        {
          "internalType": "uint8",
          "name": "v",
          "type": "uint8"
        },
        {
          "internalType": "bytes32",
          "name": "r",
          "type": "bytes32"
        },
        {
          "internalType": "bytes32",
          "name": "s",
          "type": "bytes32"
        }
      ],
      "name": "authorizeAttestationSigner",
      "outputs": [],
      "payable": false,
      "stateMutability": "nonpayable",
      "type": "function"
    },
    {
      "constant": false,
      "inputs": [
        {
          "internalType": "address",
          "name": "signer",
          "type": "address"
        },
        {
          "internalType": "bytes32",
          "name": "role",
          "type": "bytes32"
        }
      ],
      "name": "authorizeSigner",
      "outputs": [],
      "payable": false,
      "stateMutability": "nonpayable",
      "type": "function"
    },
    {
      "constant": false,
      "inputs": [
        {
          "internalType": "address",
          "name": "account",
          "type": "address"
        },
        {
          "internalType": "bytes32",
          "name": "role",
          "type": "bytes32"
        }
      ],
      "name": "completeSignerAuthorization",
      "outputs": [],
      "payable": false,
      "stateMutability": "nonpayable",
      "type": "function"
    },
    {
      "constant": true,
      "inputs": [
        {
          "internalType": "address",
          "name": "_account",
          "type": "address"
        },
        {
          "internalType": "address",
          "name": "signer",
          "type": "address"
        },
        {
          "internalType": "bytes32",
          "name": "role",
          "type": "bytes32"
        }
      ],
      "name": "isLegacySigner",
      "outputs": [
        {
          "internalType": "bool",
          "name": "",
          "type": "bool"
        }
      ],
      "payable": false,
      "stateMutability": "view",
      "type": "function"
    },
    {
      "constant": true,
      "inputs": [
        {
          "internalType": "address",
          "name": "account",
          "type": "address"
        },
        {
          "internalType": "address",
          "name": "signer",
          "type": "address"
        },
        {
          "internalType": "bytes32",
          "name": "role",
          "type": "bytes32"
        }
      ],
      "name": "isDefaultSigner",
      "outputs": [
        {
          "internalType": "bool",
          "name": "",
          "type": "bool"
        }
      ],
      "payable": false,
      "stateMutability": "view",
      "type": "function"
    },
    {
      "constant": true,
      "inputs": [
        {
          "internalType": "address",
          "name": "account",
          "type": "address"
        },
        {
          "internalType": "address",
          "name": "signer",
          "type": "address"
        },
        {
          "internalType": "bytes32",
          "name": "role",
          "type": "bytes32"
        }
      ],
      "name": "isIndexedSigner",
      "outputs": [
        {
          "internalType": "bool",
          "name": "",
          "type": "bool"
        }
      ],
      "payable": false,
      "stateMutability": "view",
      "type": "function"
    },
    {
      "constant": true,
      "inputs": [
        {
          "internalType": "address",
          "name": "account",
          "type": "address"
        },
        {
          "internalType": "address",
          "name": "signer",
          "type": "address"
        },
        {
          "internalType": "bytes32",
          "name": "role",
          "type": "bytes32"
        }
      ],
      "name": "isSigner",
      "outputs": [
        {
          "internalType": "bool",
          "name": "",
          "type": "bool"
        }
      ],
      "payable": false,
      "stateMutability": "view",
      "type": "function"
    },
    {
      "constant": false,
      "inputs": [
        {
          "internalType": "bytes32",
          "name": "role",
          "type": "bytes32"
        }
      ],
      "name": "removeDefaultSigner",
      "outputs": [],
      "payable": false,
      "stateMutability": "nonpayable",
      "type": "function"
    },
    {
      "constant": false,
      "inputs": [
        {
          "internalType": "bytes32",
          "name": "role",
          "type": "bytes32"
        }
      ],
      "name": "removeIndexedSigner",
      "outputs": [],
      "payable": false,
      "stateMutability": "nonpayable",
      "type": "function"
    },
    {
      "constant": false,
      "inputs": [
        {
          "internalType": "address",
          "name": "signer",
          "type": "address"
        },
        {
          "internalType": "bytes32",
          "name": "role",
          "type": "bytes32"
        }
      ],
      "name": "removeSigner",
      "outputs": [],
      "payable": false,
      "stateMutability": "nonpayable",
      "type": "function"
    },
    {
      "constant": false,
      "inputs": [],
      "name": "removeVoteSigner",
      "outputs": [],
      "payable": false,
      "stateMutability": "nonpayable",
      "type": "function"
    },
    {
      "constant": false,
      "inputs": [],
      "name": "removeValidatorSigner",
      "outputs": [],
      "payable": false,
      "stateMutability": "nonpayable",
      "type": "function"
    },
    {
      "constant": false,
      "inputs": [],
      "name": "removeAttestationSigner",
      "outputs": [],
      "payable": false,
      "stateMutability": "nonpayable",
      "type": "function"
    },
    {
      "constant": true,
      "inputs": [
        {
          "internalType": "address",
          "name": "signer",
          "type": "address"
        }
      ],
      "name": "attestationSignerToAccount",
      "outputs": [
        {
          "internalType": "address",
          "name": "",
          "type": "address"
        }
      ],
      "payable": false,
      "stateMutability": "view",
      "type": "function"
    },
    {
      "constant": true,
      "inputs": [
        {
          "internalType": "address",
          "name": "signer",
          "type": "address"
        }
      ],
      "name": "validatorSignerToAccount",
      "outputs": [
        {
          "internalType": "address",
          "name": "",
          "type": "address"
        }
      ],
      "payable": false,
      "stateMutability": "view",
      "type": "function"
    },
    {
      "constant": true,
      "inputs": [
        {
          "internalType": "address",
          "name": "signer",
          "type": "address"
        }
      ],
      "name": "voteSignerToAccount",
      "outputs": [
        {
          "internalType": "address",
          "name": "",
          "type": "address"
        }
      ],
      "payable": false,
      "stateMutability": "view",
      "type": "function"
    },
    {
      "constant": true,
      "inputs": [
        {
          "internalType": "address",
          "name": "signer",
          "type": "address"
        }
      ],
      "name": "signerToAccount",
      "outputs": [
        {
          "internalType": "address",
          "name": "",
          "type": "address"
        }
      ],
      "payable": false,
      "stateMutability": "view",
      "type": "function"
    },
    {
      "constant": true,
      "inputs": [
        {
          "internalType": "bytes32",
          "name": "role",
          "type": "bytes32"
        }
      ],
      "name": "isLegacyRole",
      "outputs": [
        {
          "internalType": "bool",
          "name": "",
          "type": "bool"
        }
      ],
      "payable": false,
      "stateMutability": "pure",
      "type": "function"
    },
    {
      "constant": true,
      "inputs": [
        {
          "internalType": "address",
          "name": "_account",
          "type": "address"
        },
        {
          "internalType": "bytes32",
          "name": "role",
          "type": "bytes32"
        }
      ],
      "name": "getLegacySigner",
      "outputs": [
        {
          "internalType": "address",
          "name": "",
          "type": "address"
        }
      ],
      "payable": false,
      "stateMutability": "view",
      "type": "function"
    },
    {
      "constant": true,
      "inputs": [
        {
          "internalType": "address",
          "name": "account",
          "type": "address"
        },
        {
          "internalType": "bytes32",
          "name": "role",
          "type": "bytes32"
        }
      ],
      "name": "getDefaultSigner",
      "outputs": [
        {
          "internalType": "address",
          "name": "",
          "type": "address"
        }
      ],
      "payable": false,
      "stateMutability": "view",
      "type": "function"
    },
    {
      "constant": true,
      "inputs": [
        {
          "internalType": "address",
          "name": "account",
          "type": "address"
        },
        {
          "internalType": "bytes32",
          "name": "role",
          "type": "bytes32"
        }
      ],
      "name": "getIndexedSigner",
      "outputs": [
        {
          "internalType": "address",
          "name": "",
          "type": "address"
        }
      ],
      "payable": false,
      "stateMutability": "view",
      "type": "function"
    },
    {
      "constant": true,
      "inputs": [
        {
          "internalType": "address",
          "name": "account",
          "type": "address"
        }
      ],
      "name": "getVoteSigner",
      "outputs": [
        {
          "internalType": "address",
          "name": "",
          "type": "address"
        }
      ],
      "payable": false,
      "stateMutability": "view",
      "type": "function"
    },
    {
      "constant": true,
      "inputs": [
        {
          "internalType": "address",
          "name": "account",
          "type": "address"
        }
      ],
      "name": "getValidatorSigner",
      "outputs": [
        {
          "internalType": "address",
          "name": "",
          "type": "address"
        }
      ],
      "payable": false,
      "stateMutability": "view",
      "type": "function"
    },
    {
      "constant": true,
      "inputs": [
        {
          "internalType": "address",
          "name": "account",
          "type": "address"
        }
      ],
      "name": "getAttestationSigner",
      "outputs": [
        {
          "internalType": "address",
          "name": "",
          "type": "address"
        }
      ],
      "payable": false,
      "stateMutability": "view",
      "type": "function"
    },
    {
      "constant": true,
      "inputs": [
        {
          "internalType": "address",
          "name": "account",
          "type": "address"
        },
        {
          "internalType": "bytes32",
          "name": "role",
          "type": "bytes32"
        }
      ],
      "name": "hasLegacySigner",
      "outputs": [
        {
          "internalType": "bool",
          "name": "",
          "type": "bool"
        }
      ],
      "payable": false,
      "stateMutability": "view",
      "type": "function"
    },
    {
      "constant": true,
      "inputs": [
        {
          "internalType": "address",
          "name": "account",
          "type": "address"
        },
        {
          "internalType": "bytes32",
          "name": "role",
          "type": "bytes32"
        }
      ],
      "name": "hasDefaultSigner",
      "outputs": [
        {
          "internalType": "bool",
          "name": "",
          "type": "bool"
        }
      ],
      "payable": false,
      "stateMutability": "view",
      "type": "function"
    },
    {
      "constant": true,
      "inputs": [
        {
          "internalType": "address",
          "name": "account",
          "type": "address"
        },
        {
          "internalType": "bytes32",
          "name": "role",
          "type": "bytes32"
        }
      ],
      "name": "hasIndexedSigner",
      "outputs": [
        {
          "internalType": "bool",
          "name": "",
          "type": "bool"
        }
      ],
      "payable": false,
      "stateMutability": "view",
      "type": "function"
    },
    {
      "constant": true,
      "inputs": [
        {
          "internalType": "address",
          "name": "account",
          "type": "address"
        },
        {
          "internalType": "string",
          "name": "role",
          "type": "string"
        }
      ],
      "name": "hasAuthorizedSigner",
      "outputs": [
        {
          "internalType": "bool",
          "name": "",
          "type": "bool"
        }
      ],
      "payable": false,
      "stateMutability": "view",
      "type": "function"
    },
    {
      "constant": true,
      "inputs": [
        {
          "internalType": "address",
          "name": "account",
          "type": "address"
        }
      ],
      "name": "hasAuthorizedVoteSigner",
      "outputs": [
        {
          "internalType": "bool",
          "name": "",
          "type": "bool"
        }
      ],
      "payable": false,
      "stateMutability": "view",
      "type": "function"
    },
    {
      "constant": true,
      "inputs": [
        {
          "internalType": "address",
          "name": "account",
          "type": "address"
        }
      ],
      "name": "hasAuthorizedValidatorSigner",
      "outputs": [
        {
          "internalType": "bool",
          "name": "",
          "type": "bool"
        }
      ],
      "payable": false,
      "stateMutability": "view",
      "type": "function"
    },
    {
      "constant": true,
      "inputs": [
        {
          "internalType": "address",
          "name": "account",
          "type": "address"
        }
      ],
      "name": "hasAuthorizedAttestationSigner",
      "outputs": [
        {
          "internalType": "bool",
          "name": "",
          "type": "bool"
        }
      ],
      "payable": false,
      "stateMutability": "view",
      "type": "function"
    },
    {
      "constant": true,
      "inputs": [
        {
          "internalType": "address",
          "name": "account",
          "type": "address"
        }
      ],
      "name": "getName",
      "outputs": [
        {
          "internalType": "string",
          "name": "",
          "type": "string"
        }
      ],
      "payable": false,
      "stateMutability": "view",
      "type": "function"
    },
    {
      "constant": true,
      "inputs": [
        {
          "internalType": "address",
          "name": "account",
          "type": "address"
        }
      ],
      "name": "getMetadataURL",
      "outputs": [
        {
          "internalType": "string",
          "name": "",
          "type": "string"
        }
      ],
      "payable": false,
      "stateMutability": "view",
      "type": "function"
    },
    {
      "constant": true,
      "inputs": [
        {
          "internalType": "address[]",
          "name": "accountsToQuery",
          "type": "address[]"
        }
      ],
      "name": "batchGetMetadataURL",
      "outputs": [
        {
          "internalType": "uint256[]",
          "name": "",
          "type": "uint256[]"
        },
        {
          "internalType": "bytes",
          "name": "",
          "type": "bytes"
        }
      ],
      "payable": false,
      "stateMutability": "view",
      "type": "function"
    },
    {
      "constant": true,
      "inputs": [
        {
          "internalType": "address",
          "name": "account",
          "type": "address"
        }
      ],
      "name": "getDataEncryptionKey",
      "outputs": [
        {
          "internalType": "bytes",
          "name": "",
          "type": "bytes"
        }
      ],
      "payable": false,
      "stateMutability": "view",
      "type": "function"
    },
    {
      "constant": true,
      "inputs": [
        {
          "internalType": "address",
          "name": "account",
          "type": "address"
        }
      ],
      "name": "getWalletAddress",
      "outputs": [
        {
          "internalType": "address",
          "name": "",
          "type": "address"
        }
      ],
      "payable": false,
      "stateMutability": "view",
      "type": "function"
    },
    {
      "constant": true,
      "inputs": [
        {
          "internalType": "address",
          "name": "account",
          "type": "address"
        }
      ],
      "name": "isAccount",
      "outputs": [
        {
          "internalType": "bool",
          "name": "",
          "type": "bool"
        }
      ],
      "payable": false,
      "stateMutability": "view",
      "type": "function"
    },
    {
      "constant": true,
      "inputs": [
        {
          "internalType": "address",
          "name": "signer",
          "type": "address"
        }
      ],
      "name": "isAuthorizedSigner",
      "outputs": [
        {
          "internalType": "bool",
          "name": "",
          "type": "bool"
        }
      ],
      "payable": false,
      "stateMutability": "view",
      "type": "function"
    },
    {
      "constant": true,
      "inputs": [
        {
          "internalType": "address",
          "name": "account",
          "type": "address"
        },
        {
          "internalType": "address",
          "name": "signer",
          "type": "address"
        },
        {
          "internalType": "bytes32",
          "name": "role",
          "type": "bytes32"
        },
        {
          "internalType": "uint8",
          "name": "v",
          "type": "uint8"
        },
        {
          "internalType": "bytes32",
          "name": "r",
          "type": "bytes32"
        },
        {
          "internalType": "bytes32",
          "name": "s",
          "type": "bytes32"
        }
      ],
      "name": "getRoleAuthorizationSigner",
      "outputs": [
        {
          "internalType": "address",
          "name": "",
          "type": "address"
        }
      ],
      "payable": false,
      "stateMutability": "view",
      "type": "function"
    }
  ],
  "bytecode": "0x60806040523480156200001157600080fd5b506040516200901d3803806200901d833981810160405260208110156200003757600080fd5b81019080805190602001909291905050508060006200005b6200012a60201b60201c565b9050806000806101000a81548173ffffffffffffffffffffffffffffffffffffffff021916908373ffffffffffffffffffffffffffffffffffffffff1602179055508073ffffffffffffffffffffffffffffffffffffffff16600073ffffffffffffffffffffffffffffffffffffffff167f8be0079c531659141344cd1fd0a4f28419497f9722a3daafe3b4186f6b6457e060405160405180910390a350600180819055508062000122576001600260006101000a81548160ff0219169083151502179055505b505062000132565b600033905090565b618edb80620001426000396000f3fe608060405234801561001057600080fd5b506004361061041d5760003560e01c80637b2434cb1161022b578063ae32fa0e11610130578063c48830d9116100b8578063f0c5658411610087578063f0c56584146121d1578063f2fde38b146121ef578063f333d83614612233578063fbe3c37314612279578063ff836d93146122c75761041d565b8063c48830d9146120ab578063c4d66de814612131578063e7a16e6b14612175578063e8d787cb146121a35761041d565b8063ba40e4f6116100ff578063ba40e4f614611e74578063baf7ef0f14611f25578063bce2b8d614611f8a578063c2e0ee2014611f94578063c47f002714611ff05761041d565b8063ae32fa0e14611beb578063b062c84314611ca8578063b5a664c214611d21578063b6c6662514611da55761041d565b806392f90fbf116101b35780639f024f4b116101825780639f024f4b14611a075780639f68297614611a92578063a5ec94f914611ae0578063a8ae1a3d14611aea578063a91ee0dc14611ba75761041d565b806392f90fbf1461188d57806393c5c487146118fc5780639cafb2a1146119805780639dca362f146119e55761041d565b80638da5cb5b116101fa5780638da5cb5b1461163e5780638f32d59b146116885780638f9ae6dc146116aa57806390b12b47146116f857806391cd074b146118075761041d565b80637b2434cb1461136457806387affe68146113e85780638adaf96f146114765780638bceca58146115b05761041d565b806349045e161161033157806364439b43116102b9578063747daec511610288578063747daec51461116b57806376082c1f146111e4578063760fbbb2146112ab57806376afa04c146112b55780637b1039991461131a5761041d565b806364439b431461100b5780636642d5941461108f578063715018a614611113578063727d079c1461111d5761041d565b80635b07fdd8116103005780635b07fdd814610dc25780635b6d900414610de05780635fd4b08a14610e6e578063614ed49314610f2b57806361bab1ae14610f875761041d565b806349045e1614610c615780634ce38b5f14610cbd57806354255be014610d4157806358b81ea814610d745761041d565b80631465b923116103b4578063289a131811610383578063289a1318146109e35780633184b3c514610ae857806341ddd88014610af25780634282ee6d14610b76578063485a46d114610bdb5761041d565b80631465b9231461077d578063158ef93e146108e15780631fd9afa51461090357806325ca4c9c146109875761041d565b80630fa750d2116103f05780630fa750d2146105985780630fe7abab1461065257806310c504b51461070d5780631441ece7146107175761041d565b80630127dbed146104225780630185a2321461047e57806305be6229146104ac5780630b8e056214610512575b600080fd5b6104646004803603602081101561043857600080fd5b81019080803573ffffffffffffffffffffffffffffffffffffffff16906020019092919050505061232d565b604051808215151515815260200191505060405180910390f35b6104aa6004803603602081101561049457600080fd5b8101908080359060200190929190505050612386565b005b6104f8600480360360408110156104c257600080fd5b81019080803573ffffffffffffffffffffffffffffffffffffffff1690602001909291908035906020019092919050505061243f565b604051808215151515815260200191505060405180910390f35b61057e6004803603606081101561052857600080fd5b81019080803573ffffffffffffffffffffffffffffffffffffffff169060200190929190803573ffffffffffffffffffffffffffffffffffffffff16906020019092919080359060200190929190505050612482565b604051808215151515815260200191505060405180910390f35b610650600480360360a08110156105ae57600080fd5b81019080803573ffffffffffffffffffffffffffffffffffffffff169060200190929190803560ff16906020019092919080359060200190929190803590602001909291908035906020019064010000000081111561060c57600080fd5b82018360208201111561061e57600080fd5b8035906020019184600183028401116401000000008311171561064057600080fd5b909192939192939050505061252c565b005b61070b6004803603602081101561066857600080fd5b810190808035906020019064010000000081111561068557600080fd5b82018360208201111561069757600080fd5b803590602001918460018302840111640100000000831117156106b957600080fd5b91908080601f016020809104026020016040519081016040528093929190818152602001838380828437600081840152601f19601f82011690508083019250505050505050919291929050505061285e565b005b6107156129e9565b005b6107636004803603604081101561072d57600080fd5b81019080803573ffffffffffffffffffffffffffffffffffffffff16906020019092919080359060200190929190505050612b0a565b604051808215151515815260200191505060405180910390f35b6108df600480360360e081101561079357600080fd5b81019080803573ffffffffffffffffffffffffffffffffffffffff169060200190929190803560ff1690602001909291908035906020019092919080359060200190929190803590602001906401000000008111156107f157600080fd5b82018360208201111561080357600080fd5b8035906020019184600183028401116401000000008311171561082557600080fd5b90919293919293908035906020019064010000000081111561084657600080fd5b82018360208201111561085857600080fd5b8035906020019184600183028401116401000000008311171561087a57600080fd5b90919293919293908035906020019064010000000081111561089b57600080fd5b8201836020820111156108ad57600080fd5b803590602001918460018302840111640100000000831117156108cf57600080fd5b9091929391929390505050612b4d565b005b6108e9612f08565b604051808215151515815260200191505060405180910390f35b6109456004803603602081101561091957600080fd5b81019080803573ffffffffffffffffffffffffffffffffffffffff169060200190929190505050612f1b565b604051808273ffffffffffffffffffffffffffffffffffffffff1673ffffffffffffffffffffffffffffffffffffffff16815260200191505060405180910390f35b6109c96004803603602081101561099d57600080fd5b81019080803573ffffffffffffffffffffffffffffffffffffffff169060200190929190505050612f87565b604051808215151515815260200191505060405180910390f35b610a25600480360360208110156109f957600080fd5b81019080803573ffffffffffffffffffffffffffffffffffffffff169060200190929190505050612fe0565b604051808060200180602001838103835285818151815260200191508051906020019080838360005b83811015610a69578082015181840152602081019050610a4e565b50505050905090810190601f168015610a965780820380516001836020036101000a031916815260200191505b50838103825284818151815260200191508051906020019060200280838360005b83811015610ad2578082015181840152602081019050610ab7565b5050505090500194505050505060405180910390f35b610af061333b565b005b610b3460048036036020811015610b0857600080fd5b81019080803573ffffffffffffffffffffffffffffffffffffffff169060200190929190505050613445565b604051808273ffffffffffffffffffffffffffffffffffffffff1673ffffffffffffffffffffffffffffffffffffffff16815260200191505060405180910390f35b610bd960048036036080811015610b8c57600080fd5b81019080803573ffffffffffffffffffffffffffffffffffffffff169060200190929190803560ff169060200190929190803590602001909291908035906020019092919050505061349e565b005b610c4760048036036060811015610bf157600080fd5b81019080803573ffffffffffffffffffffffffffffffffffffffff169060200190929190803573ffffffffffffffffffffffffffffffffffffffff16906020019092919080359060200190929190505050613650565b604051808215151515815260200191505060405180910390f35b610ca360048036036020811015610c7757600080fd5b81019080803573ffffffffffffffffffffffffffffffffffffffff1690602001909291905050506137a1565b604051808215151515815260200191505060405180910390f35b610cff60048036036020811015610cd357600080fd5b81019080803573ffffffffffffffffffffffffffffffffffffffff169060200190929190505050613839565b604051808273ffffffffffffffffffffffffffffffffffffffff1673ffffffffffffffffffffffffffffffffffffffff16815260200191505060405180910390f35b610d49613892565b6040518085815260200184815260200183815260200182815260200194505050505060405180910390f35b610dc060048036036040811015610d8a57600080fd5b81019080803573ffffffffffffffffffffffffffffffffffffffff169060200190929190803590602001909291905050506138b9565b005b610dca613af1565b6040518082815260200191505060405180910390f35b610e2c60048036036040811015610df657600080fd5b81019080803573ffffffffffffffffffffffffffffffffffffffff16906020019092919080359060200190929190505050613af7565b604051808273ffffffffffffffffffffffffffffffffffffffff1673ffffffffffffffffffffffffffffffffffffffff16815260200191505060405180910390f35b610eb060048036036020811015610e8457600080fd5b81019080803573ffffffffffffffffffffffffffffffffffffffff169060200190929190505050613bb2565b6040518080602001828103825283818151815260200191508051906020019080838360005b83811015610ef0578082015181840152602081019050610ed5565b50505050905090810190601f168015610f1d5780820380516001836020036101000a031916815260200191505b509250505060405180910390f35b610f6d60048036036020811015610f4157600080fd5b81019080803573ffffffffffffffffffffffffffffffffffffffff169060200190929190505050613c96565b604051808215151515815260200191505060405180910390f35b610fc960048036036020811015610f9d57600080fd5b81019080803573ffffffffffffffffffffffffffffffffffffffff169060200190929190505050613cef565b604051808273ffffffffffffffffffffffffffffffffffffffff1673ffffffffffffffffffffffffffffffffffffffff16815260200191505060405180910390f35b61104d6004803603602081101561102157600080fd5b81019080803573ffffffffffffffffffffffffffffffffffffffff169060200190929190505050613d48565b604051808273ffffffffffffffffffffffffffffffffffffffff1673ffffffffffffffffffffffffffffffffffffffff16815260200191505060405180910390f35b6110d1600480360360208110156110a557600080fd5b81019080803573ffffffffffffffffffffffffffffffffffffffff169060200190929190505050613da1565b604051808273ffffffffffffffffffffffffffffffffffffffff1673ffffffffffffffffffffffffffffffffffffffff16815260200191505060405180910390f35b61111b613dfa565b005b6111696004803603604081101561113357600080fd5b81019080803573ffffffffffffffffffffffffffffffffffffffff16906020019092919080359060200190929190505050613f33565b005b6111e26004803603602081101561118157600080fd5b810190808035906020019064010000000081111561119e57600080fd5b8201836020820111156111b057600080fd5b803590602001918460018302840111640100000000831117156111d257600080fd5b9091929391929390505050614505565b005b611230600480360360408110156111fa57600080fd5b81019080803573ffffffffffffffffffffffffffffffffffffffff16906020019092919080359060200190929190505050614656565b6040518080602001828103825283818151815260200191508051906020019080838360005b83811015611270578082015181840152602081019050611255565b50505050905090810190601f16801561129d5780820380516001836020036101000a031916815260200191505b509250505060405180910390f35b6112b361471c565b005b611318600480360360808110156112cb57600080fd5b81019080803573ffffffffffffffffffffffffffffffffffffffff169060200190929190803560ff169060200190929190803590602001909291908035906020019092919050505061483d565b005b611322614960565b604051808273ffffffffffffffffffffffffffffffffffffffff1673ffffffffffffffffffffffffffffffffffffffff16815260200191505060405180910390f35b6113a66004803603602081101561137a57600080fd5b81019080803573ffffffffffffffffffffffffffffffffffffffff169060200190929190505050614986565b604051808273ffffffffffffffffffffffffffffffffffffffff1673ffffffffffffffffffffffffffffffffffffffff16815260200191505060405180910390f35b611434600480360360408110156113fe57600080fd5b81019080803573ffffffffffffffffffffffffffffffffffffffff169060200190929190803590602001909291905050506149df565b604051808273ffffffffffffffffffffffffffffffffffffffff1673ffffffffffffffffffffffffffffffffffffffff16815260200191505060405180910390f35b6114ed6004803603602081101561148c57600080fd5b81019080803590602001906401000000008111156114a957600080fd5b8201836020820111156114bb57600080fd5b803590602001918460208302840111640100000000831117156114dd57600080fd5b9091929391929390505050614a10565b604051808060200180602001838103835285818151815260200191508051906020019060200280838360005b83811015611534578082015181840152602081019050611519565b50505050905001838103825284818151815260200191508051906020019080838360005b83811015611573578082015181840152602081019050611558565b50505050905090810190601f1680156115a05780820380516001836020036101000a031916815260200191505b5094505050505060405180910390f35b6115fc600480360360408110156115c657600080fd5b81019080803573ffffffffffffffffffffffffffffffffffffffff16906020019092919080359060200190929190505050614d0f565b604051808273ffffffffffffffffffffffffffffffffffffffff1673ffffffffffffffffffffffffffffffffffffffff16815260200191505060405180910390f35b611646614f8c565b604051808273ffffffffffffffffffffffffffffffffffffffff1673ffffffffffffffffffffffffffffffffffffffff16815260200191505060405180910390f35b611690614fb5565b604051808215151515815260200191505060405180910390f35b6116f6600480360360408110156116c057600080fd5b81019080803573ffffffffffffffffffffffffffffffffffffffff16906020019092919080359060200190929190505050615013565b005b611805600480360360c081101561170e57600080fd5b810190808035906020019064010000000081111561172b57600080fd5b82018360208201111561173d57600080fd5b8035906020019184600183028401116401000000008311171561175f57600080fd5b90919293919293908035906020019064010000000081111561178057600080fd5b82018360208201111561179257600080fd5b803590602001918460018302840111640100000000831117156117b457600080fd5b9091929391929390803573ffffffffffffffffffffffffffffffffffffffff169060200190929190803560ff1690602001909291908035906020019092919080359060200190929190505050615295565b005b6118736004803603606081101561181d57600080fd5b81019080803573ffffffffffffffffffffffffffffffffffffffff169060200190929190803573ffffffffffffffffffffffffffffffffffffffff1690602001909291908035906020019092919050505061535c565b604051808215151515815260200191505060405180910390f35b6118fa600480360360a08110156118a357600080fd5b81019080803573ffffffffffffffffffffffffffffffffffffffff16906020019092919080359060200190929190803560ff16906020019092919080359060200190929190803590602001909291905050506155cf565b005b61193e6004803603602081101561191257600080fd5b81019080803573ffffffffffffffffffffffffffffffffffffffff169060200190929190505050615749565b604051808273ffffffffffffffffffffffffffffffffffffffff1673ffffffffffffffffffffffffffffffffffffffff16815260200191505060405180910390f35b6119e36004803603608081101561199657600080fd5b81019080803573ffffffffffffffffffffffffffffffffffffffff169060200190929190803560ff1690602001909291908035906020019092919080359060200190929190505050615853565b005b6119ed615bba565b604051808215151515815260200191505060405180910390f35b611a4960048036036020811015611a1d57600080fd5b81019080803573ffffffffffffffffffffffffffffffffffffffff169060200190929190505050615cd6565b604051808373ffffffffffffffffffffffffffffffffffffffff1673ffffffffffffffffffffffffffffffffffffffff1681526020018281526020019250505060405180910390f35b611ade60048036036040811015611aa857600080fd5b81019080803573ffffffffffffffffffffffffffffffffffffffff16906020019092919080359060200190929190505050615d6c565b005b611ae86160f7565b005b611b2c60048036036020811015611b0057600080fd5b81019080803573ffffffffffffffffffffffffffffffffffffffff169060200190929190505050616218565b6040518080602001828103825283818151815260200191508051906020019080838360005b83811015611b6c578082015181840152602081019050611b51565b50505050905090810190601f168015611b995780820380516001836020036101000a031916815260200191505b509250505060405180910390f35b611be960048036036020811015611bbd57600080fd5b81019080803573ffffffffffffffffffffffffffffffffffffffff1690602001909291905050506162fc565b005b611c2d60048036036020811015611c0157600080fd5b81019080803573ffffffffffffffffffffffffffffffffffffffff1690602001909291905050506164a0565b6040518080602001828103825283818151815260200191508051906020019080838360005b83811015611c6d578082015181840152602081019050611c52565b50505050905090810190601f168015611c9a5780820380516001836020036101000a031916815260200191505b509250505060405180910390f35b611d1f60048036036020811015611cbe57600080fd5b8101908080359060200190640100000000811115611cdb57600080fd5b820183602082011115611ced57600080fd5b80359060200191846001830284011164010000000083111715611d0f57600080fd5b9091929391929390505050616584565b005b611d6360048036036020811015611d3757600080fd5b81019080803573ffffffffffffffffffffffffffffffffffffffff1690602001909291905050506166fc565b604051808273ffffffffffffffffffffffffffffffffffffffff1673ffffffffffffffffffffffffffffffffffffffff16815260200191505060405180910390f35b611e32600480360360c0811015611dbb57600080fd5b81019080803573ffffffffffffffffffffffffffffffffffffffff169060200190929190803573ffffffffffffffffffffffffffffffffffffffff16906020019092919080359060200190929190803560ff169060200190929190803590602001909291908035906020019092919050505061672f565b604051808273ffffffffffffffffffffffffffffffffffffffff1673ffffffffffffffffffffffffffffffffffffffff16815260200191505060405180910390f35b611f0b60048036036040811015611e8a57600080fd5b81019080803573ffffffffffffffffffffffffffffffffffffffff16906020019092919080359060200190640100000000811115611ec757600080fd5b820183602082011115611ed957600080fd5b80359060200191846001830284011164010000000083111715611efb57600080fd5b90919293919293905050506168a2565b604051808215151515815260200191505060405180910390f35b611f8860048036036080811015611f3b57600080fd5b81019080803573ffffffffffffffffffffffffffffffffffffffff169060200190929190803560ff16906020019092919080359060200190929190803590602001909291905050506168e6565b005b611f92616bad565b005b611fd660048036036020811015611faa57600080fd5b81019080803573ffffffffffffffffffffffffffffffffffffffff169060200190929190505050616d30565b604051808215151515815260200191505060405180910390f35b6120a96004803603602081101561200657600080fd5b810190808035906020019064010000000081111561202357600080fd5b82018360208201111561203557600080fd5b8035906020019184600183028401116401000000008311171561205757600080fd5b91908080601f016020809104026020016040519081016040528093929190818152602001838380828437600081840152601f19601f820116905080830192505050505050509192919290505050616d89565b005b612117600480360360608110156120c157600080fd5b81019080803573ffffffffffffffffffffffffffffffffffffffff169060200190929190803573ffffffffffffffffffffffffffffffffffffffff16906020019092919080359060200190929190505050616efa565b604051808215151515815260200191505060405180910390f35b6121736004803603602081101561214757600080fd5b81019080803573ffffffffffffffffffffffffffffffffffffffff169060200190929190505050616f2e565b005b6121a16004803603602081101561218b57600080fd5b8101908080359060200190929190505050616fe9565b005b6121cf600480360360208110156121b957600080fd5b8101908080359060200190929190505050617174565b005b6121d96175bc565b6040518082815260200191505060405180910390f35b6122316004803603602081101561220557600080fd5b81019080803573ffffffffffffffffffffffffffffffffffffffff1690602001909291905050506175d8565b005b61225f6004803603602081101561224957600080fd5b810190808035906020019092919050505061765e565b604051808215151515815260200191505060405180910390f35b6122c56004803603604081101561228f57600080fd5b81019080803573ffffffffffffffffffffffffffffffffffffffff16906020019092919080359060200190929190505050617750565b005b612313600480360360408110156122dd57600080fd5b81019080803573ffffffffffffffffffffffffffffffffffffffff169060200190929190803590602001909291905050506178a1565b604051808215151515815260200191505060405180910390f35b600061237f8260405160200180807f63656c6f2e6f72672f636f72652f76616c696461746f72000000000000000000815250601701905060405160208183030381529060405280519060200120612b0a565b9050919050565b600061239233836149df565b905061239d8261765e565b6123af576123aa82616fe9565b6123b9565b6123b8826178d2565b5b3373ffffffffffffffffffffffffffffffffffffffff167fccc97b55d227538f487c521e1218ba74768b73d088310238027c2ae3b43e9c918284604051808373ffffffffffffffffffffffffffffffffffffffff1673ffffffffffffffffffffffffffffffffffffffff1681526020018281526020019250505060405180910390a25050565b60008273ffffffffffffffffffffffffffffffffffffffff166124628484613af7565b73ffffffffffffffffffffffffffffffffffffffff161415905092915050565b60008273ffffffffffffffffffffffffffffffffffffffff16600560008673ffffffffffffffffffffffffffffffffffffffff1673ffffffffffffffffffffffffffffffffffffffff168152602001908152602001600020600084815260200190815260200160002060009054906101000a900473ffffffffffffffffffffffffffffffffffffffff1673ffffffffffffffffffffffffffffffffffffffff161490509392505050565b60018060008282540192505081905550600060015490506125968760405160200180807f63656c6f2e6f72672f636f72652f76616c696461746f72000000000000000000815250601701905060405160208183030381529060405280519060200120888888617be8565b6125e68760405160200180807f63656c6f2e6f72672f636f72652f76616c696461746f72000000000000000000815250601701905060405160208183030381529060405280519060200120613f33565b6125ee617d61565b73ffffffffffffffffffffffffffffffffffffffff16634e06fd8a338986866040518563ffffffff1660e01b8152600401808573ffffffffffffffffffffffffffffffffffffffff1673ffffffffffffffffffffffffffffffffffffffff1681526020018473ffffffffffffffffffffffffffffffffffffffff1673ffffffffffffffffffffffffffffffffffffffff168152602001806020018281038252848482818152602001925080828437600081840152601f19601f82011690508083019250505095505050505050602060405180830381600087803b1580156126d457600080fd5b505af11580156126e8573d6000803e3d6000fd5b505050506040513d60208110156126fe57600080fd5b8101908080519060200190929190505050612764576040517f08c379a0000000000000000000000000000000000000000000000000000000008152600401808060200182810382526021815260200180618e866021913960400191505060405180910390fd5b3373ffffffffffffffffffffffffffffffffffffffff167f16e382723fb40543364faf68863212ba253a099607bf6d3a5b47e50a8bf9494388604051808273ffffffffffffffffffffffffffffffffffffffff1673ffffffffffffffffffffffffffffffffffffffff16815260200191505060405180910390a26001548114612855576040517f08c379a000000000000000000000000000000000000000000000000000000000815260040180806020018281038252600e8152602001807f7265656e7472616e742063616c6c00000000000000000000000000000000000081525060200191505060405180910390fd5b50505050505050565b6021815110156128d6576040517f08c379a00000000000000000000000000000000000000000000000000000000081526004018080602001828103825260208152602001807f6461746120656e6372797074696f6e206b6579206c656e677468203c3d20333281525060200191505060405180910390fd5b6000600360003373ffffffffffffffffffffffffffffffffffffffff1673ffffffffffffffffffffffffffffffffffffffff1681526020019081526020016000209050818160060190805190602001906129319291906187bd565b503373ffffffffffffffffffffffffffffffffffffffff167f43fdefe0a824cb0e3bbaf9c4bc97669187996136fe9282382baf10787f0d808d836040518080602001828103825283818151815260200191508051906020019080838360005b838110156129ab578082015181840152602081019050612990565b50505050905090810190601f1680156129d85780820380516001836020036101000a031916815260200191505b509250505060405180910390a25050565b6000612a3b3360405160200180807f63656c6f2e6f72672f636f72652f766f74650000000000000000000000000000815250601201905060405160208183030381529060405280519060200120614d0f565b9050612a8d8160405160200180807f63656c6f2e6f72672f636f72652f766f74650000000000000000000000000000815250601201905060405160208183030381529060405280519060200120617750565b3373ffffffffffffffffffffffffffffffffffffffff167fa197481f404d8a8082368ad7445380f01e75f27dea6b7aef234a4ce071127fae82604051808273ffffffffffffffffffffffffffffffffffffffff1673ffffffffffffffffffffffffffffffffffffffff16815260200191505060405180910390a250565b60008273ffffffffffffffffffffffffffffffffffffffff16612b2d8484614d0f565b73ffffffffffffffffffffffffffffffffffffffff161415905092915050565b6001806000828254019250508190555060006001549050612bb78b60405160200180807f63656c6f2e6f72672f636f72652f76616c696461746f720000000000000000008152506017019050604051602081830303815290604052805190602001208c8c8c617be8565b612c078b60405160200180807f63656c6f2e6f72672f636f72652f76616c696461746f72000000000000000000815250601701905060405160208183030381529060405280519060200120613f33565b612c0f617d61565b73ffffffffffffffffffffffffffffffffffffffff1663713ea0f3338d8a8a8a8a8a8a6040518963ffffffff1660e01b8152600401808973ffffffffffffffffffffffffffffffffffffffff1673ffffffffffffffffffffffffffffffffffffffff1681526020018873ffffffffffffffffffffffffffffffffffffffff1673ffffffffffffffffffffffffffffffffffffffff16815260200180602001806020018060200184810384528a8a82818152602001925080828437600081840152601f19601f8201169050808301925050508481038352888882818152602001925080828437600081840152601f19601f8201169050808301925050508481038252868682818152602001925080828437600081840152601f19601f8201169050808301925050509b505050505050505050505050602060405180830381600087803b158015612d5d57600080fd5b505af1158015612d71573d6000803e3d6000fd5b505050506040513d6020811015612d8757600080fd5b8101908080519060200190929190505050612e0a576040517f08c379a000000000000000000000000000000000000000000000000000000000815260040180806020018281038252601f8152602001807f4661696c656420746f207570646174652076616c696461746f72206b6579730081525060200191505060405180910390fd5b3373ffffffffffffffffffffffffffffffffffffffff167f16e382723fb40543364faf68863212ba253a099607bf6d3a5b47e50a8bf949438c604051808273ffffffffffffffffffffffffffffffffffffffff1673ffffffffffffffffffffffffffffffffffffffff16815260200191505060405180910390a26001548114612efb576040517f08c379a000000000000000000000000000000000000000000000000000000000815260040180806020018281038252600e8152602001807f7265656e7472616e742063616c6c00000000000000000000000000000000000081525060200191505060405180910390fd5b5050505050505050505050565b600260009054906101000a900460ff1681565b6000600360008373ffffffffffffffffffffffffffffffffffffffff1673ffffffffffffffffffffffffffffffffffffffff16815260200190815260200160002060040160009054906101000a900473ffffffffffffffffffffffffffffffffffffffff169050919050565b6000600360008373ffffffffffffffffffffffffffffffffffffffff1673ffffffffffffffffffffffffffffffffffffffff16815260200190815260200160002060000160009054906101000a900460ff169050919050565b606080612fec83612f87565b61305e576040517f08c379a000000000000000000000000000000000000000000000000000000000815260040180806020018281038252600f8152602001807f556e6b6e6f776e206163636f756e74000000000000000000000000000000000081525060200191505060405180910390fd5b6000600860008573ffffffffffffffffffffffffffffffffffffffff1673ffffffffffffffffffffffffffffffffffffffff168152602001908152602001600020805490509050600080905060008090505b8281101561314257613133600860008873ffffffffffffffffffffffffffffffffffffffff1673ffffffffffffffffffffffffffffffffffffffff168152602001908152602001600020828154811061310557fe5b9060005260206000200180546001816001161561010002031660029004905083617e5c90919063ffffffff16565b915080806001019150506130b0565b506060816040519080825280601f01601f1916602001820160405280156131785781602001600182028038833980820191505090505b50905060008090506060846040519080825280602002602001820160405280156131b15781602001602082028038833980820191505090505b50905060008090505b8581101561332a576000600860008b73ffffffffffffffffffffffffffffffffffffffff1673ffffffffffffffffffffffffffffffffffffffff168152602001908152602001600020828154811061320e57fe5b9060005260206000200190508080546001816001161561010002031660029004905083838151811061323c57fe5b60200260200101818152505060008090505b83838151811061325a57fe5b602002602001015181101561331b57818181546001816001161561010002031660029004811061328657fe5b8154600116156132a55790600052602060002090602091828204019190065b9054901a7f0100000000000000000000000000000000000000000000000000000000000000028686815181106132d757fe5b60200101907effffffffffffffffffffffffffffffffffffffffffffffffffffffffffffff1916908160001a9053508480600101955050808060010191505061324e565b505080806001019150506131ba565b508281965096505050505050915091565b60004690506040518080618c9d60529139605201905060405180910390206040518060400160405280601381526020017f43656c6f20436f726520436f6e747261637473000000000000000000000000008152508051906020012060405180807f312e300000000000000000000000000000000000000000000000000000000000815250600301905060405180910390208330604051602001808681526020018581526020018481526020018381526020018273ffffffffffffffffffffffffffffffffffffffff1673ffffffffffffffffffffffffffffffffffffffff168152602001955050505050506040516020818303038152906040528051906020012060078190555050565b60006134978260405160200180807f63656c6f2e6f72672f636f72652f766f74650000000000000000000000000000815250601201905060405160208183030381529060405280519060200120614d0f565b9050919050565b60018060008282540192505081905550600060015490506135088560405160200180807f63656c6f2e6f72672f636f72652f766f74650000000000000000000000000000815250601201905060405160208183030381529060405280519060200120868686617be8565b6135588560405160200180807f63656c6f2e6f72672f636f72652f766f74650000000000000000000000000000815250601201905060405160208183030381529060405280519060200120613f33565b3373ffffffffffffffffffffffffffffffffffffffff167faab5f8a189373aaa290f42ae65ea5d7971b732366ca5bf66556e76263944af2886604051808273ffffffffffffffffffffffffffffffffffffffff1673ffffffffffffffffffffffffffffffffffffffff16815260200191505060405180910390a26001548114613649576040517f08c379a000000000000000000000000000000000000000000000000000000000815260040180806020018281038252600e8152602001807f7265656e7472616e742063616c6c00000000000000000000000000000000000081525060200191505060405180910390fd5b5050505050565b600061365d84848461535c565b806137985750600660008573ffffffffffffffffffffffffffffffffffffffff1673ffffffffffffffffffffffffffffffffffffffff168152602001908152602001600020600083815260200190815260200160002060008473ffffffffffffffffffffffffffffffffffffffff1673ffffffffffffffffffffffffffffffffffffffff16815260200190815260200160002060000160019054906101000a900460ff16801561379757508373ffffffffffffffffffffffffffffffffffffffff16600460008573ffffffffffffffffffffffffffffffffffffffff1673ffffffffffffffffffffffffffffffffffffffff16815260200190815260200160002060009054906101000a900473ffffffffffffffffffffffffffffffffffffffff1673ffffffffffffffffffffffffffffffffffffffff16145b5b90509392505050565b60008073ffffffffffffffffffffffffffffffffffffffff16600460008473ffffffffffffffffffffffffffffffffffffffff1673ffffffffffffffffffffffffffffffffffffffff16815260200190815260200160002060009054906101000a900473ffffffffffffffffffffffffffffffffffffffff1673ffffffffffffffffffffffffffffffffffffffff1614159050919050565b600061388b8260405160200180807f63656c6f2e6f72672f636f72652f76616c696461746f72000000000000000000815250601701905060405160208183030381529060405280519060200120614d0f565b9050919050565b60008060008060018060046001839350829250819150809050935093509350935090919293565b6138c233612f87565b613917576040517f08c379a0000000000000000000000000000000000000000000000000000000008152600401808060200182810382526035815260200180618ddb6035913960400191505060405180910390fd5b61392082617ee4565b801561393257506139313383617f3e565b5b613987576040517f08c379a0000000000000000000000000000000000000000000000000000000008152600401808060200182810382526022815260200180618e3f6022913960400191505060405180910390fd5b604051806040016040528060011515815260200160001515815250600660003373ffffffffffffffffffffffffffffffffffffffff1673ffffffffffffffffffffffffffffffffffffffff168152602001908152602001600020600083815260200190815260200160002060008473ffffffffffffffffffffffffffffffffffffffff1673ffffffffffffffffffffffffffffffffffffffff16815260200190815260200160002060008201518160000160006101000a81548160ff02191690831515021790555060208201518160000160016101000a81548160ff021916908315150217905550905050803373ffffffffffffffffffffffffffffffffffffffff167f7a162218a1b7bec7fb15b4bb95220fbf423fa3a49718133f5c50361ff1c8537684604051808273ffffffffffffffffffffffffffffffffffffffff1673ffffffffffffffffffffffffffffffffffffffff16815260200191505060405180910390a35050565b60075481565b600080600560008573ffffffffffffffffffffffffffffffffffffffff1673ffffffffffffffffffffffffffffffffffffffff168152602001908152602001600020600084815260200190815260200160002060009054906101000a900473ffffffffffffffffffffffffffffffffffffffff169050600073ffffffffffffffffffffffffffffffffffffffff168173ffffffffffffffffffffffffffffffffffffffff1614613ba75780613ba9565b835b91505092915050565b6060600360008373ffffffffffffffffffffffffffffffffffffffff1673ffffffffffffffffffffffffffffffffffffffff1681526020019081526020016000206005018054600181600116156101000203166002900480601f016020809104026020016040519081016040528092919081815260200182805460018160011615610100020316600290048015613c8a5780601f10613c5f57610100808354040283529160200191613c8a565b820191906000526020600020905b815481529060010190602001808311613c6d57829003601f168201915b50505050509050919050565b6000613ce88260405160200180807f63656c6f2e6f72672f636f72652f766f74650000000000000000000000000000815250601201905060405160208183030381529060405280519060200120612b0a565b9050919050565b6000613d418260405160200180807f63656c6f2e6f72672f636f72652f6174746573746174696f6e00000000000000815250601901905060405160208183030381529060405280519060200120614d0f565b9050919050565b6000613d9a8260405160200180807f63656c6f2e6f72672f636f72652f76616c696461746f7200000000000000000081525060170190506040516020818303038152906040528051906020012061806b565b9050919050565b6000613df38260405160200180807f63656c6f2e6f72672f636f72652f766f7465000000000000000000000000000081525060120190506040516020818303038152906040528051906020012061806b565b9050919050565b613e02614fb5565b613e74576040517f08c379a00000000000000000000000000000000000000000000000000000000081526004018080602001828103825260208152602001807f4f776e61626c653a2063616c6c6572206973206e6f7420746865206f776e657281525060200191505060405180910390fd5b600073ffffffffffffffffffffffffffffffffffffffff166000809054906101000a900473ffffffffffffffffffffffffffffffffffffffff1673ffffffffffffffffffffffffffffffffffffffff167f8be0079c531659141344cd1fd0a4f28419497f9722a3daafe3b4186f6b6457e060405160405180910390a360008060006101000a81548173ffffffffffffffffffffffffffffffffffffffff021916908373ffffffffffffffffffffffffffffffffffffffff160217905550565b613f3c33612f87565b613f91576040517f08c379a0000000000000000000000000000000000000000000000000000000008152600401808060200182810382526036815260200180618b1d6036913960400191505060405180910390fd5b613f9a82617ee4565b613fef576040517f08c379a0000000000000000000000000000000000000000000000000000000008152600401808060200182810382526022815260200180618bf36022913960400191505060405180910390fd5b613ff93383617f3e565b61406b576040517f08c379a000000000000000000000000000000000000000000000000000000000815260040180806020018281038252601d8152602001807f4e6f742061207369676e657220666f722074686973206163636f756e7400000081525060200191505060405180910390fd5b614076338383613650565b6140cb576040517f08c379a000000000000000000000000000000000000000000000000000000000815260040180806020018281038252602f815260200180618e10602f913960400191505060405180910390fd5b6000600360003373ffffffffffffffffffffffffffffffffffffffff1673ffffffffffffffffffffffffffffffffffffffff16815260200190815260200160002090506141178261765e565b1561436c5760405160200180807f63656c6f2e6f72672f636f72652f766f746500000000000000000000000000008152506012019050604051602081830303815290604052805190602001208214156141b557828160010160000160006101000a81548173ffffffffffffffffffffffffffffffffffffffff021916908373ffffffffffffffffffffffffffffffffffffffff1602179055506142e5565b60405160200180807f63656c6f2e6f72672f636f72652f6174746573746174696f6e0000000000000081525060190190506040516020818303038152906040528051906020012082141561424e57828160010160020160006101000a81548173ffffffffffffffffffffffffffffffffffffffff021916908373ffffffffffffffffffffffffffffffffffffffff1602179055506142e4565b60405160200180807f63656c6f2e6f72672f636f72652f76616c696461746f720000000000000000008152506017019050604051602081830303815290604052805190602001208214156142e357828160010160010160006101000a81548173ffffffffffffffffffffffffffffffffffffffff021916908373ffffffffffffffffffffffffffffffffffffffff1602179055505b5b5b3373ffffffffffffffffffffffffffffffffffffffff167fc5cd67202a8095484f559b338b2b6fee0dd81af9f70c4814c6517fcf9a09564c8484604051808373ffffffffffffffffffffffffffffffffffffffff1673ffffffffffffffffffffffffffffffffffffffff1681526020018281526020019250505060405180910390a261447e565b82600560003373ffffffffffffffffffffffffffffffffffffffff1673ffffffffffffffffffffffffffffffffffffffff168152602001908152602001600020600084815260200190815260200160002060006101000a81548173ffffffffffffffffffffffffffffffffffffffff021916908373ffffffffffffffffffffffffffffffffffffffff1602179055503373ffffffffffffffffffffffffffffffffffffffff167f2613ed414d18d8152e86c896c04ccce344b75a2f06141f04d39ad069a38725238484604051808373ffffffffffffffffffffffffffffffffffffffff1673ffffffffffffffffffffffffffffffffffffffff1681526020018281526020019250505060405180910390a25b3373ffffffffffffffffffffffffffffffffffffffff167f8a00ae3e0722558391733230bfc96d425df2dd7b44f7ce506580785adcf171a28484604051808373ffffffffffffffffffffffffffffffffffffffff1673ffffffffffffffffffffffffffffffffffffffff1681526020018281526020019250505060405180910390a2505050565b61450e33612f87565b614580576040517f08c379a000000000000000000000000000000000000000000000000000000000815260040180806020018281038252600f8152602001807f556e6b6e6f776e206163636f756e74000000000000000000000000000000000081525060200191505060405180910390fd5b6000600360003373ffffffffffffffffffffffffffffffffffffffff1673ffffffffffffffffffffffffffffffffffffffff168152602001908152602001600020905082828260070191906145d692919061883d565b503373ffffffffffffffffffffffffffffffffffffffff167f0b5629fec5b6b5a1c2cfe0de7495111627a8cf297dced72e0669527425d3f01b848460405180806020018281038252848482818152602001925080828437600081840152601f19601f820116905080830192505050935050505060405180910390a2505050565b6008602052816000526040600020818154811061466f57fe5b90600052602060002001600091509150508054600181600116156101000203166002900480601f0160208091040260200160405190810160405280929190818152602001828054600181600116156101000203166002900480156147145780601f106146e957610100808354040283529160200191614714565b820191906000526020600020905b8154815290600101906020018083116146f757829003601f168201915b505050505081565b600061476e3360405160200180807f63656c6f2e6f72672f636f72652f6174746573746174696f6e00000000000000815250601901905060405160208183030381529060405280519060200120614d0f565b90506147c08160405160200180807f63656c6f2e6f72672f636f72652f6174746573746174696f6e00000000000000815250601901905060405160208183030381529060405280519060200120617750565b3373ffffffffffffffffffffffffffffffffffffffff167f14670729407debb6ed03d885f8ba57155de89ce39bf17127ae4900ec7c2ad10382604051808273ffffffffffffffffffffffffffffffffffffffff1673ffffffffffffffffffffffffffffffffffffffff16815260200191505060405180910390a250565b6148908460405160200180807f63656c6f2e6f72672f636f72652f6174746573746174696f6e00000000000000815250601901905060405160208183030381529060405280519060200120858585617be8565b6148e08460405160200180807f63656c6f2e6f72672f636f72652f6174746573746174696f6e00000000000000815250601901905060405160208183030381529060405280519060200120613f33565b3373ffffffffffffffffffffffffffffffffffffffff167f9dfbc5a621c3e2d0d83beee687a17dfc796bbce2118793e5e254409bb265ca0b85604051808273ffffffffffffffffffffffffffffffffffffffff1673ffffffffffffffffffffffffffffffffffffffff16815260200191505060405180910390a250505050565b600260019054906101000a900473ffffffffffffffffffffffffffffffffffffffff1681565b60006149d88260405160200180807f63656c6f2e6f72672f636f72652f6174746573746174696f6e0000000000000081525060190190506040516020818303038152906040528051906020012061806b565b9050919050565b60006149ea8261765e565b6149fd576149f88383613af7565b614a08565b614a078383614d0f565b5b905092915050565b6060806000809050606085859050604051908082528060200260200182016040528015614a4c5781602001602082028038833980820191505090505b50905060008090505b86869050811015614b3a5760036000888884818110614a7057fe5b9050602002013573ffffffffffffffffffffffffffffffffffffffff1673ffffffffffffffffffffffffffffffffffffffff1673ffffffffffffffffffffffffffffffffffffffff168152602001908152602001600020600701805460018160011615610100020316600290049050828281518110614aeb57fe5b602002602001018181525050614b1d828281518110614b0657fe5b602002602001015184617e5c90919063ffffffff16565b9250614b33600182617e5c90919063ffffffff16565b9050614a55565b506060826040519080825280601f01601f191660200182016040528015614b705781602001600182028038833980820191505090505b509050600080905060008090505b88889050811015614cfd5760008090505b848281518110614b9b57fe5b6020026020010151811015614ce157600360008b8b85818110614bba57fe5b9050602002013573ffffffffffffffffffffffffffffffffffffffff1673ffffffffffffffffffffffffffffffffffffffff1673ffffffffffffffffffffffffffffffffffffffff16815260200190815260200160002060070181815460018160011615610100020316600290048110614c3057fe5b815460011615614c4f5790600052602060002090602091828204019190065b9054901a7f010000000000000000000000000000000000000000000000000000000000000002848481518110614c8157fe5b60200101907effffffffffffffffffffffffffffffffffffffffffffffffffffffffffffff1916908160001a905350614cc4600184617e5c90919063ffffffff16565b9250614cda600182617e5c90919063ffffffff16565b9050614b8f565b50614cf6600182617e5c90919063ffffffff16565b9050614b7e565b50828295509550505050509250929050565b6000614d1a8261765e565b614d8c576040517f08c379a000000000000000000000000000000000000000000000000000000000815260040180806020018281038252601b8152602001807f526f6c65206973206e6f742061206c6567616379207369676e6572000000000081525060200191505060405180910390fd5b6000600360008573ffffffffffffffffffffffffffffffffffffffff1673ffffffffffffffffffffffffffffffffffffffff1681526020019081526020016000209050600060405160200180807f63656c6f2e6f72672f636f72652f76616c696461746f72000000000000000000815250601701905060405160208183030381529060405280519060200120841415614e4e578160010160010160009054906101000a900473ffffffffffffffffffffffffffffffffffffffff169050614f46565b60405160200180807f63656c6f2e6f72672f636f72652f6174746573746174696f6e00000000000000815250601901905060405160208183030381529060405280519060200120841415614ecb578160010160020160009054906101000a900473ffffffffffffffffffffffffffffffffffffffff169050614f45565b60405160200180807f63656c6f2e6f72672f636f72652f766f74650000000000000000000000000000815250601201905060405160208183030381529060405280519060200120841415614f44578160010160000160009054906101000a900473ffffffffffffffffffffffffffffffffffffffff1690505b5b5b600073ffffffffffffffffffffffffffffffffffffffff168173ffffffffffffffffffffffffffffffffffffffff1614614f805780614f82565b845b9250505092915050565b60008060009054906101000a900473ffffffffffffffffffffffffffffffffffffffff16905090565b60008060009054906101000a900473ffffffffffffffffffffffffffffffffffffffff1673ffffffffffffffffffffffffffffffffffffffff16614ff76181d6565b73ffffffffffffffffffffffffffffffffffffffff1614905090565b61501c33612f87565b615071576040517f08c379a0000000000000000000000000000000000000000000000000000000008152600401808060200182810382526036815260200180618b1d6036913960400191505060405180910390fd5b600073ffffffffffffffffffffffffffffffffffffffff168273ffffffffffffffffffffffffffffffffffffffff1614156150f7576040517f08c379a0000000000000000000000000000000000000000000000000000000008152600401808060200182810382526021815260200180618c156021913960400191505060405180910390fd5b6150ff6188bd565b615108826181de565b90506151246151156181fc565b8261822290919063ffffffff16565b615179576040517f08c379a0000000000000000000000000000000000000000000000000000000008152600401808060200182810382526023815260200180618cef6023913960400191505060405180910390fd5b60405180604001604052808473ffffffffffffffffffffffffffffffffffffffff16815260200182815250600960003373ffffffffffffffffffffffffffffffffffffffff1673ffffffffffffffffffffffffffffffffffffffff16815260200190815260200160002060008201518160000160006101000a81548173ffffffffffffffffffffffffffffffffffffffff021916908373ffffffffffffffffffffffffffffffffffffffff1602179055506020820151816001016000820151816000015550509050508273ffffffffffffffffffffffffffffffffffffffff167f3bff8b126c8f283f709ae37dc0d3fc03cae85ca4772cfb25b601f4b0b49ca6df836040518082815260200191505060405180910390a2505050565b61529e33612f87565b6152ac576152aa615bba565b505b6152f988888080601f016020809104026020016040519081016040528093929190818152602001838380828437600081840152601f19601f82011690508083019250505050505050616d89565b61534686868080601f016020809104026020016040519081016040528093929190818152602001838380828437600081840152601f19601f8201169050808301925050505050505061285e565b61535284848484615853565b5050505050505050565b600080600360008673ffffffffffffffffffffffffffffffffffffffff1673ffffffffffffffffffffffffffffffffffffffff168152602001908152602001600020905060405160200180807f63656c6f2e6f72672f636f72652f76616c696461746f720000000000000000008152506017019050604051602081830303815290604052805190602001208314801561544757508373ffffffffffffffffffffffffffffffffffffffff168160010160010160009054906101000a900473ffffffffffffffffffffffffffffffffffffffff1673ffffffffffffffffffffffffffffffffffffffff16145b156154565760019150506155c8565b60405160200180807f63656c6f2e6f72672f636f72652f6174746573746174696f6e00000000000000815250601901905060405160208183030381529060405280519060200120831480156154fd57508373ffffffffffffffffffffffffffffffffffffffff168160010160020160009054906101000a900473ffffffffffffffffffffffffffffffffffffffff1673ffffffffffffffffffffffffffffffffffffffff16145b1561550c5760019150506155c8565b60405160200180807f63656c6f2e6f72672f636f72652f766f74650000000000000000000000000000815250601201905060405160208183030381529060405280519060200120831480156155b357508373ffffffffffffffffffffffffffffffffffffffff168160010160000160009054906101000a900473ffffffffffffffffffffffffffffffffffffffff1673ffffffffffffffffffffffffffffffffffffffff16145b156155c25760019150506155c8565b60009150505b9392505050565b6155dc8585858585618238565b604051806040016040528060011515815260200160011515815250600660003373ffffffffffffffffffffffffffffffffffffffff1673ffffffffffffffffffffffffffffffffffffffff168152602001908152602001600020600086815260200190815260200160002060008773ffffffffffffffffffffffffffffffffffffffff1673ffffffffffffffffffffffffffffffffffffffff16815260200190815260200160002060008201518160000160006101000a81548160ff02191690831515021790555060208201518160000160016101000a81548160ff021916908315150217905550905050833373ffffffffffffffffffffffffffffffffffffffff167f6cc56bd06daacce5b10fdf5ad1dc781941e14d7a71d29d33e7001e2956d14e0787604051808273ffffffffffffffffffffffffffffffffffffffff1673ffffffffffffffffffffffffffffffffffffffff16815260200191505060405180910390a35050505050565b600080600460008473ffffffffffffffffffffffffffffffffffffffff1673ffffffffffffffffffffffffffffffffffffffff16815260200190815260200160002060009054906101000a900473ffffffffffffffffffffffffffffffffffffffff169050600073ffffffffffffffffffffffffffffffffffffffff168173ffffffffffffffffffffffffffffffffffffffff16146157eb578091505061584e565b6157f483612f87565b615849576040517f08c379a0000000000000000000000000000000000000000000000000000000008152600401808060200182810382526036815260200180618b1d6036913960400191505060405180910390fd5b829150505b919050565b61585c33612f87565b6158ce576040517f08c379a000000000000000000000000000000000000000000000000000000000815260040180806020018281038252600f8152602001807f556e6b6e6f776e206163636f756e74000000000000000000000000000000000081525060200191505060405180910390fd5b3373ffffffffffffffffffffffffffffffffffffffff168473ffffffffffffffffffffffffffffffffffffffff1614806159345750600073ffffffffffffffffffffffffffffffffffffffff168473ffffffffffffffffffffffffffffffffffffffff16145b615ab357600073__Signatures____________________________6396ef41a1338686866040518563ffffffff1660e01b8152600401808573ffffffffffffffffffffffffffffffffffffffff1673ffffffffffffffffffffffffffffffffffffffff1681526020018460ff1660ff16815260200183815260200182815260200194505050505060206040518083038186803b1580156159d357600080fd5b505af41580156159e7573d6000803e3d6000fd5b505050506040513d60208110156159fd57600080fd5b810190808051906020019092919050505090508473ffffffffffffffffffffffffffffffffffffffff168173ffffffffffffffffffffffffffffffffffffffff1614615ab1576040517f08c379a00000000000000000000000000000000000000000000000000000000081526004018080602001828103825260118152602001807f496e76616c6964207369676e617475726500000000000000000000000000000081525060200191505060405180910390fd5b505b6000600360003373ffffffffffffffffffffffffffffffffffffffff1673ffffffffffffffffffffffffffffffffffffffff1681526020019081526020016000209050848160040160006101000a81548173ffffffffffffffffffffffffffffffffffffffff021916908373ffffffffffffffffffffffffffffffffffffffff1602179055503373ffffffffffffffffffffffffffffffffffffffff167ff81d74398fd47e35c36b714019df15f200f623dde569b5b531d6a0b4da5c5f2686604051808273ffffffffffffffffffffffffffffffffffffffff1673ffffffffffffffffffffffffffffffffffffffff16815260200191505060405180910390a25050505050565b6000615bc533617ee4565b8015615bd65750615bd5336182fc565b5b615c2b576040517f08c379a000000000000000000000000000000000000000000000000000000000815260040180806020018281038252604d815260200180618d5f604d913960600191505060405180910390fd5b6000600360003373ffffffffffffffffffffffffffffffffffffffff1673ffffffffffffffffffffffffffffffffffffffff168152602001908152602001600020905060018160000160006101000a81548160ff0219169083151502179055503373ffffffffffffffffffffffffffffffffffffffff167f805996f252884581e2f74cf3d2b03564d5ec26ccc90850ae12653dc1b72d1fa260405160405180910390a2600191505090565b6000806000600960008573ffffffffffffffffffffffffffffffffffffffff1673ffffffffffffffffffffffffffffffffffffffff16815260200190815260200160002090508060000160009054906101000a900473ffffffffffffffffffffffffffffffffffffffff16615d6282600101604051806020016040529081600082015481525050618393565b9250925050915091565b615d7582612f87565b615dca576040517f08c379a000000000000000000000000000000000000000000000000000000000815260040180806020018281038252604d815260200180618d12604d913960600191505060405180910390fd5b615dd333617ee4565b8015615de55750615de48233617f3e565b5b615e3a576040517f08c379a0000000000000000000000000000000000000000000000000000000008152600401808060200182810382526022815260200180618e3f6022913960400191505060405180910390fd5b60011515600660008473ffffffffffffffffffffffffffffffffffffffff1673ffffffffffffffffffffffffffffffffffffffff168152602001908152602001600020600083815260200190815260200160002060003373ffffffffffffffffffffffffffffffffffffffff1673ffffffffffffffffffffffffffffffffffffffff16815260200190815260200160002060000160009054906101000a900460ff16151514615f51576040517f08c379a00000000000000000000000000000000000000000000000000000000081526004018080602001828103825260208152602001807f5369676e657220617574686f72697a6174696f6e206e6f74207374617274656481525060200191505060405180910390fd5b81600460003373ffffffffffffffffffffffffffffffffffffffff1673ffffffffffffffffffffffffffffffffffffffff16815260200190815260200160002060006101000a81548173ffffffffffffffffffffffffffffffffffffffff021916908373ffffffffffffffffffffffffffffffffffffffff1602179055506001600660008473ffffffffffffffffffffffffffffffffffffffff1673ffffffffffffffffffffffffffffffffffffffff168152602001908152602001600020600083815260200190815260200160002060003373ffffffffffffffffffffffffffffffffffffffff1673ffffffffffffffffffffffffffffffffffffffff16815260200190815260200160002060000160016101000a81548160ff021916908315150217905550808273ffffffffffffffffffffffffffffffffffffffff167f9eeca140dda0bdb74fc9acfda0f1c0324e188a732bd48e078a96b16d97eb54e533604051808273ffffffffffffffffffffffffffffffffffffffff1673ffffffffffffffffffffffffffffffffffffffff16815260200191505060405180910390a35050565b60006161493360405160200180807f63656c6f2e6f72672f636f72652f76616c696461746f72000000000000000000815250601701905060405160208183030381529060405280519060200120614d0f565b905061619b8160405160200180807f63656c6f2e6f72672f636f72652f76616c696461746f72000000000000000000815250601701905060405160208183030381529060405280519060200120617750565b3373ffffffffffffffffffffffffffffffffffffffff167fa54764c62865ff0cd3f271fb1d4635662bff10f0878694f1654fb7fbdecb830d82604051808273ffffffffffffffffffffffffffffffffffffffff1673ffffffffffffffffffffffffffffffffffffffff16815260200191505060405180910390a250565b6060600360008373ffffffffffffffffffffffffffffffffffffffff1673ffffffffffffffffffffffffffffffffffffffff1681526020019081526020016000206007018054600181600116156101000203166002900480601f0160208091040260200160405190810160405280929190818152602001828054600181600116156101000203166002900480156162f05780601f106162c5576101008083540402835291602001916162f0565b820191906000526020600020905b8154815290600101906020018083116162d357829003601f168201915b50505050509050919050565b616304614fb5565b616376576040517f08c379a00000000000000000000000000000000000000000000000000000000081526004018080602001828103825260208152602001807f4f776e61626c653a2063616c6c6572206973206e6f7420746865206f776e657281525060200191505060405180910390fd5b600073ffffffffffffffffffffffffffffffffffffffff168173ffffffffffffffffffffffffffffffffffffffff161415616419576040517f08c379a00000000000000000000000000000000000000000000000000000000081526004018080602001828103825260208152602001807f43616e6e6f7420726567697374657220746865206e756c6c206164647265737381525060200191505060405180910390fd5b80600260016101000a81548173ffffffffffffffffffffffffffffffffffffffff021916908373ffffffffffffffffffffffffffffffffffffffff1602179055508073ffffffffffffffffffffffffffffffffffffffff167f27fe5f0c1c3b1ed427cc63d0f05759ffdecf9aec9e18d31ef366fc8a6cb5dc3b60405160405180910390a250565b6060600360008373ffffffffffffffffffffffffffffffffffffffff1673ffffffffffffffffffffffffffffffffffffffff1681526020019081526020016000206006018054600181600116156101000203166002900480601f0160208091040260200160405190810160405280929190818152602001828054600181600116156101000203166002900480156165785780601f1061654d57610100808354040283529160200191616578565b820191906000526020600020905b81548152906001019060200180831161655b57829003601f168201915b50505050509050919050565b61658d33612f87565b6165ff576040517f08c379a000000000000000000000000000000000000000000000000000000000815260040180806020018281038252600f8152602001807f556e6b6e6f776e206163636f756e74000000000000000000000000000000000081525060200191505060405180910390fd5b600860003373ffffffffffffffffffffffffffffffffffffffff1673ffffffffffffffffffffffffffffffffffffffff16815260200190815260200160002082829091806001815401808255809150509060018203906000526020600020016000909192939091929390919290919250919061667c9291906188d0565b50503373ffffffffffffffffffffffffffffffffffffffff167f15dfb3066a1bbbdaf9a7f62c47db990114058ae1739fd70a90361ea715bbf3c8838360405180806020018281038252848482818152602001925080828437600081840152601f19601f820116905080830192505050935050505060405180910390a25050565b60046020528060005260406000206000915054906101000a900473ffffffffffffffffffffffffffffffffffffffff1681565b6000806040518080618bb7603c9139603c0190506040518091039020888888604051602001808581526020018473ffffffffffffffffffffffffffffffffffffffff1673ffffffffffffffffffffffffffffffffffffffff1681526020018373ffffffffffffffffffffffffffffffffffffffff1673ffffffffffffffffffffffffffffffffffffffff16815260200182815260200194505050505060405160208183030381529060405280519060200120905073__Signatures____________________________6334d1a233600754838888886040518663ffffffff1660e01b8152600401808681526020018581526020018460ff1660ff1681526020018381526020018281526020019550505050505060206040518083038186803b15801561685a57600080fd5b505af415801561686e573d6000803e3d6000fd5b505050506040513d602081101561688457600080fd5b81019080805190602001909291905050509150509695505050505050565b60006168dd848484604051602001808383808284378083019250505092505050604051602081830303815290604052805190602001206178a1565b90509392505050565b60018060008282540192505081905550600060015490506169508560405160200180807f63656c6f2e6f72672f636f72652f76616c696461746f72000000000000000000815250601701905060405160208183030381529060405280519060200120868686617be8565b6169a08560405160200180807f63656c6f2e6f72672f636f72652f76616c696461746f72000000000000000000815250601701905060405160208183030381529060405280519060200120613f33565b6169a8617d61565b73ffffffffffffffffffffffffffffffffffffffff1663facd743b336040518263ffffffff1660e01b8152600401808273ffffffffffffffffffffffffffffffffffffffff1673ffffffffffffffffffffffffffffffffffffffff16815260200191505060206040518083038186803b158015616a2457600080fd5b505afa158015616a38573d6000803e3d6000fd5b505050506040513d6020811015616a4e57600080fd5b810190808051906020019092919050505015616ab5576040517f08c379a0000000000000000000000000000000000000000000000000000000008152600401808060200182810382526021815260200180618c7c6021913960400191505060405180910390fd5b3373ffffffffffffffffffffffffffffffffffffffff167f16e382723fb40543364faf68863212ba253a099607bf6d3a5b47e50a8bf9494386604051808273ffffffffffffffffffffffffffffffffffffffff1673ffffffffffffffffffffffffffffffffffffffff16815260200191505060405180910390a26001548114616ba6576040517f08c379a000000000000000000000000000000000000000000000000000000000815260040180806020018281038252600e8152602001807f7265656e7472616e742063616c6c00000000000000000000000000000000000081525060200191505060405180910390fd5b5050505050565b616bb633612f87565b616c0b576040517f08c379a0000000000000000000000000000000000000000000000000000000008152600401808060200182810382526036815260200180618b1d6036913960400191505060405180910390fd5b6040518060400160405280600073ffffffffffffffffffffffffffffffffffffffff168152602001616c3d60006181de565b815250600960003373ffffffffffffffffffffffffffffffffffffffff1673ffffffffffffffffffffffffffffffffffffffff16815260200190815260200160002060008201518160000160006101000a81548173ffffffffffffffffffffffffffffffffffffffff021916908373ffffffffffffffffffffffffffffffffffffffff160217905550602082015181600101600082015181600001555050905050600073ffffffffffffffffffffffffffffffffffffffff167f3bff8b126c8f283f709ae37dc0d3fc03cae85ca4772cfb25b601f4b0b49ca6df60006040518082815260200191505060405180910390a2565b6000616d828260405160200180807f63656c6f2e6f72672f636f72652f6174746573746174696f6e00000000000000815250601901905060405160208183030381529060405280519060200120612b0a565b9050919050565b616d9233612f87565b616de7576040517f08c379a000000000000000000000000000000000000000000000000000000000815260040180806020018281038252602f815260200180618dac602f913960400191505060405180910390fd5b6000600360003373ffffffffffffffffffffffffffffffffffffffff1673ffffffffffffffffffffffffffffffffffffffff168152602001908152602001600020905081816005019080519060200190616e42929190618950565b503373ffffffffffffffffffffffffffffffffffffffff167fa6e2c5a23bb917ba0a584c4b250257ddad698685829b66a8813c004b39934fe4836040518080602001828103825283818151815260200191508051906020019080838360005b83811015616ebc578082015181840152602081019050616ea1565b50505050905090810190601f168015616ee95780820380516001836020036101000a031916815260200191505b509250505060405180910390a25050565b6000616f058261765e565b616f1957616f14848484612482565b616f25565b616f2484848461535c565b5b90509392505050565b600260009054906101000a900460ff1615616fb1576040517f08c379a000000000000000000000000000000000000000000000000000000000815260040180806020018281038252601c8152602001807f636f6e747261637420616c726561647920696e697469616c697a65640000000081525060200191505060405180910390fd5b6001600260006101000a81548160ff021916908315150217905550616fd5336183a1565b616fde816162fc565b616fe661333b565b50565b6000600560003373ffffffffffffffffffffffffffffffffffffffff1673ffffffffffffffffffffffffffffffffffffffff168152602001908152602001600020600083815260200190815260200160002060009054906101000a900473ffffffffffffffffffffffffffffffffffffffff1690506000600560003373ffffffffffffffffffffffffffffffffffffffff1673ffffffffffffffffffffffffffffffffffffffff168152602001908152602001600020600084815260200190815260200160002060006101000a81548173ffffffffffffffffffffffffffffffffffffffff021916908373ffffffffffffffffffffffffffffffffffffffff1602179055503373ffffffffffffffffffffffffffffffffffffffff167fe553a3065d5a77d4ec2a0e0c31d49be4bf4d9f4c45883b2d67f61ba9c1b89c5d8284604051808373ffffffffffffffffffffffffffffffffffffffff1673ffffffffffffffffffffffffffffffffffffffff1681526020018281526020019250505060405180910390a25050565b61717d33612f87565b6171ef576040517f08c379a000000000000000000000000000000000000000000000000000000000815260040180806020018281038252600f8152602001807f556e6b6e6f776e206163636f756e74000000000000000000000000000000000081525060200191505060405180910390fd5b600860003373ffffffffffffffffffffffffffffffffffffffff1673ffffffffffffffffffffffffffffffffffffffff1681526020019081526020016000208054905081106172a6576040517f08c379a000000000000000000000000000000000000000000000000000000000815260040180806020018281038252601a8152602001807f496e76616c69642073746f7261676520726f6f7420696e64657800000000000081525060200191505060405180910390fd5b60006001600860003373ffffffffffffffffffffffffffffffffffffffff1673ffffffffffffffffffffffffffffffffffffffff168152602001908152602001600020805490500390506060600860003373ffffffffffffffffffffffffffffffffffffffff1673ffffffffffffffffffffffffffffffffffffffff168152602001908152602001600020838154811061733c57fe5b906000526020600020018054600181600116156101000203166002900480601f0160208091040260200160405190810160405280929190818152602001828054600181600116156101000203166002900480156173da5780601f106173af576101008083540402835291602001916173da565b820191906000526020600020905b8154815290600101906020018083116173bd57829003601f168201915b50505050509050600860003373ffffffffffffffffffffffffffffffffffffffff1673ffffffffffffffffffffffffffffffffffffffff168152602001908152602001600020828154811061742b57fe5b90600052602060002001600860003373ffffffffffffffffffffffffffffffffffffffff1673ffffffffffffffffffffffffffffffffffffffff168152602001908152602001600020848154811061747f57fe5b9060005260206000200190805460018160011615610100020316600290046174a89291906189d0565b50600860003373ffffffffffffffffffffffffffffffffffffffff1673ffffffffffffffffffffffffffffffffffffffff1681526020019081526020016000208054809190600190036174fb9190618a57565b503373ffffffffffffffffffffffffffffffffffffffff167fae0f2fa495a3eb65d46fe97b0baea8b6fd7edb243175c70f2455e6e83bc6fbaf82856040518080602001838152602001828103825284818151815260200191508051906020019080838360005b8381101561757c578082015181840152602081019050617561565b50505050905090810190601f1680156175a95780820380516001836020036101000a031916815260200191505b50935050505060405180910390a2505050565b6040518080618bb7603c9139603c019050604051809103902081565b6175e0614fb5565b617652576040517f08c379a00000000000000000000000000000000000000000000000000000000081526004018080602001828103825260208152602001807f4f776e61626c653a2063616c6c6572206973206e6f7420746865206f776e657281525060200191505060405180910390fd5b61765b816183a1565b50565b600060405160200180807f63656c6f2e6f72672f636f72652f766f746500000000000000000000000000008152506012019050604051602081830303815290604052805190602001208214806176f9575060405160200180807f63656c6f2e6f72672f636f72652f76616c696461746f7200000000000000000081525060170190506040516020818303038152906040528051906020012082145b80617749575060405160200180807f63656c6f2e6f72672f636f72652f6174746573746174696f6e0000000000000081525060190190506040516020818303038152906040528051906020012082145b9050919050565b61775b338383616efa565b1561776a5761776981612386565b5b600660003373ffffffffffffffffffffffffffffffffffffffff1673ffffffffffffffffffffffffffffffffffffffff168152602001908152602001600020600082815260200190815260200160002060008373ffffffffffffffffffffffffffffffffffffffff1673ffffffffffffffffffffffffffffffffffffffff168152602001908152602001600020600080820160006101000a81549060ff02191690556000820160016101000a81549060ff02191690555050803373ffffffffffffffffffffffffffffffffffffffff167fde9ce22cf1f8631ae2b668300f0493971114f40edd305173bd099ce7100fbe0b84604051808273ffffffffffffffffffffffffffffffffffffffff1673ffffffffffffffffffffffffffffffffffffffff16815260200191505060405180910390a35050565b60006178ac8261765e565b6178bf576178ba838361243f565b6178ca565b6178c98383612b0a565b5b905092915050565b6000600360003373ffffffffffffffffffffffffffffffffffffffff1673ffffffffffffffffffffffffffffffffffffffff1681526020019081526020016000209050600060405160200180807f63656c6f2e6f72672f636f72652f76616c696461746f720000000000000000008152506017019050604051602081830303815290604052805190602001208314156179db578160010160010160009054906101000a900473ffffffffffffffffffffffffffffffffffffffff16905060008260010160010160006101000a81548173ffffffffffffffffffffffffffffffffffffffff021916908373ffffffffffffffffffffffffffffffffffffffff160217905550617b61565b60405160200180807f63656c6f2e6f72672f636f72652f6174746573746174696f6e00000000000000815250601901905060405160208183030381529060405280519060200120831415617a9f578160010160020160009054906101000a900473ffffffffffffffffffffffffffffffffffffffff16905060008260010160020160006101000a81548173ffffffffffffffffffffffffffffffffffffffff021916908373ffffffffffffffffffffffffffffffffffffffff160217905550617b60565b60405160200180807f63656c6f2e6f72672f636f72652f766f74650000000000000000000000000000815250601201905060405160208183030381529060405280519060200120831415617b5f578160010160000160009054906101000a900473ffffffffffffffffffffffffffffffffffffffff16905060008260010160000160006101000a81548173ffffffffffffffffffffffffffffffffffffffff021916908373ffffffffffffffffffffffffffffffffffffffff1602179055505b5b5b3373ffffffffffffffffffffffffffffffffffffffff167fdd0b0d959c29750e7bfabbb7543a56957699d07edc512d2523ffe7502901ac198285604051808373ffffffffffffffffffffffffffffffffffffffff1673ffffffffffffffffffffffffffffffffffffffff1681526020018281526020019250505060405180910390a2505050565b617bf4858484846184e5565b604051806040016040528060011515815260200160011515815250600660003373ffffffffffffffffffffffffffffffffffffffff1673ffffffffffffffffffffffffffffffffffffffff168152602001908152602001600020600086815260200190815260200160002060008773ffffffffffffffffffffffffffffffffffffffff1673ffffffffffffffffffffffffffffffffffffffff16815260200190815260200160002060008201518160000160006101000a81548160ff02191690831515021790555060208201518160000160016101000a81548160ff021916908315150217905550905050833373ffffffffffffffffffffffffffffffffffffffff167f6cc56bd06daacce5b10fdf5ad1dc781941e14d7a71d29d33e7001e2956d14e0787604051808273ffffffffffffffffffffffffffffffffffffffff1673ffffffffffffffffffffffffffffffffffffffff16815260200191505060405180910390a35050505050565b6000600260019054906101000a900473ffffffffffffffffffffffffffffffffffffffff1673ffffffffffffffffffffffffffffffffffffffff1663dcf0aaed60405160200180807f56616c696461746f727300000000000000000000000000000000000000000000815250600a019050604051602081830303815290604052805190602001206040518263ffffffff1660e01b81526004018082815260200191505060206040518083038186803b158015617e1c57600080fd5b505afa158015617e30573d6000803e3d6000fd5b505050506040513d6020811015617e4657600080fd5b8101908080519060200190929190505050905090565b600080828401905083811015617eda576040517f08c379a000000000000000000000000000000000000000000000000000000000815260040180806020018281038252601b8152602001807f536166654d6174683a206164646974696f6e206f766572666c6f77000000000081525060200191505060405180910390fd5b8091505092915050565b6000600360008373ffffffffffffffffffffffffffffffffffffffff1673ffffffffffffffffffffffffffffffffffffffff16815260200190815260200160002060000160009054906101000a900460ff16159050919050565b60008073ffffffffffffffffffffffffffffffffffffffff16600460008473ffffffffffffffffffffffffffffffffffffffff1673ffffffffffffffffffffffffffffffffffffffff16815260200190815260200160002060009054906101000a900473ffffffffffffffffffffffffffffffffffffffff1673ffffffffffffffffffffffffffffffffffffffff16148061806357508273ffffffffffffffffffffffffffffffffffffffff16600460008473ffffffffffffffffffffffffffffffffffffffff1673ffffffffffffffffffffffffffffffffffffffff16815260200190815260200160002060009054906101000a900473ffffffffffffffffffffffffffffffffffffffff1673ffffffffffffffffffffffffffffffffffffffff16145b905092915050565b600080600460008573ffffffffffffffffffffffffffffffffffffffff1673ffffffffffffffffffffffffffffffffffffffff16815260200190815260200160002060009054906101000a900473ffffffffffffffffffffffffffffffffffffffff169050600073ffffffffffffffffffffffffffffffffffffffff168173ffffffffffffffffffffffffffffffffffffffff161461816d5761810f818585613650565b618164576040517f08c379a0000000000000000000000000000000000000000000000000000000008152600401808060200182810382526025815260200180618e616025913960400191505060405180910390fd5b809150506181d0565b61817684612f87565b6181cb576040517f08c379a0000000000000000000000000000000000000000000000000000000008152600401808060200182810382526036815260200180618b1d6036913960400191505060405180910390fd5b839150505b92915050565b600033905090565b6181e66188bd565b6040518060200160405280838152509050919050565b6182046188bd565b604051806020016040528069d3c21bcecceda1000000815250905090565b6000816000015183600001511115905092915050565b600061824833878787878761672f565b90508573ffffffffffffffffffffffffffffffffffffffff168173ffffffffffffffffffffffffffffffffffffffff16146182eb576040517f08c379a00000000000000000000000000000000000000000000000000000000081526004018080602001828103825260118152602001807f496e76616c6964207369676e617475726500000000000000000000000000000081525060200191505060405180910390fd5b6182f48661866e565b505050505050565b60008073ffffffffffffffffffffffffffffffffffffffff16600460008473ffffffffffffffffffffffffffffffffffffffff1673ffffffffffffffffffffffffffffffffffffffff16815260200190815260200160002060009054906101000a900473ffffffffffffffffffffffffffffffffffffffff1673ffffffffffffffffffffffffffffffffffffffff16149050919050565b600081600001519050919050565b600073ffffffffffffffffffffffffffffffffffffffff168173ffffffffffffffffffffffffffffffffffffffff161415618427576040517f08c379a0000000000000000000000000000000000000000000000000000000008152600401808060200182810382526026815260200180618b916026913960400191505060405180910390fd5b8073ffffffffffffffffffffffffffffffffffffffff166000809054906101000a900473ffffffffffffffffffffffffffffffffffffffff1673ffffffffffffffffffffffffffffffffffffffff167f8be0079c531659141344cd1fd0a4f28419497f9722a3daafe3b4186f6b6457e060405160405180910390a3806000806101000a81548173ffffffffffffffffffffffffffffffffffffffff021916908373ffffffffffffffffffffffffffffffffffffffff16021790555050565b600073__Signatures____________________________6396ef41a1338686866040518563ffffffff1660e01b8152600401808573ffffffffffffffffffffffffffffffffffffffff1673ffffffffffffffffffffffffffffffffffffffff1681526020018460ff1660ff16815260200183815260200182815260200194505050505060206040518083038186803b15801561858057600080fd5b505af4158015618594573d6000803e3d6000fd5b505050506040513d60208110156185aa57600080fd5b810190808051906020019092919050505090508473ffffffffffffffffffffffffffffffffffffffff168173ffffffffffffffffffffffffffffffffffffffff161461865e576040517f08c379a00000000000000000000000000000000000000000000000000000000081526004018080602001828103825260118152602001807f496e76616c6964207369676e617475726500000000000000000000000000000081525060200191505060405180910390fd5b6186678561866e565b5050505050565b61867733612f87565b6186cc576040517f08c379a000000000000000000000000000000000000000000000000000000000815260040180806020018281038252603e815260200180618b53603e913960400191505060405180910390fd5b6186d581617ee4565b80156186e757506186e63382617f3e565b5b61873c576040517f08c379a0000000000000000000000000000000000000000000000000000000008152600401808060200182810382526046815260200180618c366046913960600191505060405180910390fd5b33600460008373ffffffffffffffffffffffffffffffffffffffff1673ffffffffffffffffffffffffffffffffffffffff16815260200190815260200160002060006101000a81548173ffffffffffffffffffffffffffffffffffffffff021916908373ffffffffffffffffffffffffffffffffffffffff16021790555050565b828054600181600116156101000203166002900490600052602060002090601f016020900481019282601f106187fe57805160ff191683800117855561882c565b8280016001018555821561882c579182015b8281111561882b578251825591602001919060010190618810565b5b5090506188399190618a83565b5090565b828054600181600116156101000203166002900490600052602060002090601f016020900481019282601f1061887e57803560ff19168380011785556188ac565b828001600101855582156188ac579182015b828111156188ab578235825591602001919060010190618890565b5b5090506188b99190618a83565b5090565b6040518060200160405280600081525090565b828054600181600116156101000203166002900490600052602060002090601f016020900481019282601f1061891157803560ff191683800117855561893f565b8280016001018555821561893f579182015b8281111561893e578235825591602001919060010190618923565b5b50905061894c9190618a83565b5090565b828054600181600116156101000203166002900490600052602060002090601f016020900481019282601f1061899157805160ff19168380011785556189bf565b828001600101855582156189bf579182015b828111156189be5782518255916020019190600101906189a3565b5b5090506189cc9190618a83565b5090565b828054600181600116156101000203166002900490600052602060002090601f016020900481019282601f10618a095780548555618a46565b82800160010185558215618a4657600052602060002091601f016020900482015b82811115618a45578254825591600101919060010190618a2a565b5b509050618a539190618a83565b5090565b815481835581811115618a7e57818360005260206000209182019101618a7d9190618aa8565b5b505050565b618aa591905b80821115618aa1576000816000905550600101618a89565b5090565b90565b618ad191905b80821115618acd5760008181618ac49190618ad4565b50600101618aae565b5090565b90565b50805460018160011615610100020316600290046000825580601f10618afa5750618b19565b601f016020900490600052602060002090810190618b189190618a83565b5b5056fe4d75737420666972737420726567697374657220616464726573732077697468204163636f756e742e6372656174654163636f756e74556e6b6e6f776e206163636f756e743a2073656e646572206d7573742072656769737465722077697468206372656174654163636f756e742066697273744f776e61626c653a206e6577206f776e657220697320746865207a65726f2061646472657373417574686f72697a655369676e65722861646472657373206163636f756e742c61646472657373207369676e65722c6279746573333220726f6c652943616e6e6f7420617574686f72697a65206163636f756e74206173207369676e657242656e65666963696172792063616e6e6f7420626520616464726573732030783043616e6e6f742072652d617574686f72697a652061646472657373206f72206c6f636b656420676f6c64206163636f756e7420666f7220616e6f74686572206163636f756e7443616e6e6f7420617574686f72697a652076616c696461746f72207369676e6572454950373132446f6d61696e28737472696e67206e616d652c737472696e672076657273696f6e2c75696e7432353620636861696e49642c6164647265737320766572696679696e67436f6e7472616374294672616374696f6e206d757374206e6f742062652067726561746572207468616e2031556e6b6e6f776e204163636f756e743a2041646472657373207468617420617574686f72697a6564207369676e696e67206d75737420626520612072656769737465726564204163636f756e744163636f756e7420616c726561647920657869737473206f72206164647265737320697320616e20617574686f72697a6564207369676e657220666f7220616e6f74686572206163636f756e7452656769737465722077697468206372656174654163636f756e7420746f20736574206163636f756e74206e616d654d7573742066697273742072656769737465722073656e6465722077697468204163636f756e742e6372656174654163636f756e744d75737420617574686f72697a65207369676e6572206265666f72652073657474696e672061732064656661756c7443616e6e6f742072652d617574686f72697a652061646472657373207369676e65726e6f742061637469766520617574686f72697a6564207369676e657220666f7220726f6c654661696c656420746f20757064617465204543445341207075626c6963206b6579a265627a7a7231582097b014079ae34216848e8f2a0ffcf9c08cfe0adb04c2366b0dd96046fc65af5c64736f6c634300050d0032",
  "source": "pragma solidity ^0.5.13;\n\nimport \"openzeppelin-solidity/contracts/math/SafeMath.sol\";\nimport \"openzeppelin-solidity/contracts/ownership/Ownable.sol\";\n\nimport \"./interfaces/IAccounts.sol\";\n\nimport \"../common/FixidityLib.sol\";\nimport \"../common/Initializable.sol\";\nimport \"../common/interfaces/ICeloVersionedContract.sol\";\nimport \"../common/Signatures.sol\";\nimport \"../common/UsingRegistry.sol\";\nimport \"../common/libraries/ReentrancyGuard.sol\";\n\ncontract Accounts is\n  IAccounts,\n  ICeloVersionedContract,\n  Ownable,\n  ReentrancyGuard,\n  Initializable,\n  UsingRegistry\n{\n  using FixidityLib for FixidityLib.Fraction;\n  using SafeMath for uint256;\n\n  struct Signers {\n    // The address that is authorized to vote in governance and validator elections on behalf of the\n    // account. The account can vote as well, whether or not a vote signing key has been specified.\n    address vote;\n    // The address that is authorized to manage a validator or validator group and sign consensus\n    // messages on behalf of the account. The account can manage the validator, whether or not a\n    // validator signing key has been specified. However, if a validator signing key has been\n    // specified, only that key may actually participate in consensus.\n    address validator;\n    // The address of the key with which this account wants to sign attestations on the Attestations\n    // contract\n    address attestation;\n  }\n\n  struct SignerAuthorization {\n    bool started;\n    bool completed;\n  }\n\n  struct Account {\n    bool exists;\n    // [Deprecated] Each account may authorize signing keys to use for voting,\n    // validating or attestation. These keys may not be keys of other accounts,\n    // and may not be authorized by any other account for any purpose.\n    Signers signers;\n    // The address at which the account expects to receive transfers. If it's empty/0x0, the\n    // account indicates that an address exchange should be initiated with the dataEncryptionKey\n    address walletAddress;\n    // An optional human readable identifier for the account\n    string name;\n    // The ECDSA public key used to encrypt and decrypt data for this account\n    bytes dataEncryptionKey;\n    // The URL under which an account adds metadata and claims\n    string metadataURL;\n  }\n\n  struct PaymentDelegation {\n    // Address that should receive a fraction of validator payments.\n    address beneficiary;\n    // Fraction of payment to delegate to `beneficiary`.\n    FixidityLib.Fraction fraction;\n  }\n\n  mapping(address => Account) internal accounts;\n  // Maps authorized signers to the account that provided the authorization.\n  mapping(address => address) public authorizedBy;\n  // Default signers by account (replaces the legacy Signers struct on Account)\n  mapping(address => mapping(bytes32 => address)) defaultSigners;\n  // All signers and their roles for a given account\n  // solhint-disable-next-line max-line-length\n  mapping(address => mapping(bytes32 => mapping(address => SignerAuthorization))) signerAuthorizations;\n\n  bytes32 public constant EIP712_AUTHORIZE_SIGNER_TYPEHASH = keccak256(\n    \"AuthorizeSigner(address account,address signer,bytes32 role)\"\n  );\n  bytes32 public eip712DomainSeparator;\n\n  // A per-account list of CIP8 storage roots, bypassing CIP3.\n  mapping(address => bytes[]) public offchainStorageRoots;\n\n  // Optional per-account validator payment delegation information.\n  mapping(address => PaymentDelegation) internal paymentDelegations;\n\n  bytes32 constant ValidatorSigner = keccak256(abi.encodePacked(\"celo.org/core/validator\"));\n  bytes32 constant AttestationSigner = keccak256(abi.encodePacked(\"celo.org/core/attestation\"));\n  bytes32 constant VoteSigner = keccak256(abi.encodePacked(\"celo.org/core/vote\"));\n\n  event AttestationSignerAuthorized(address indexed account, address signer);\n  event VoteSignerAuthorized(address indexed account, address signer);\n  event ValidatorSignerAuthorized(address indexed account, address signer);\n  event SignerAuthorized(address indexed account, address signer, bytes32 indexed role);\n  event SignerAuthorizationStarted(address indexed account, address signer, bytes32 indexed role);\n  event SignerAuthorizationCompleted(address indexed account, address signer, bytes32 indexed role);\n  event AttestationSignerRemoved(address indexed account, address oldSigner);\n  event VoteSignerRemoved(address indexed account, address oldSigner);\n  event ValidatorSignerRemoved(address indexed account, address oldSigner);\n  event IndexedSignerSet(address indexed account, address signer, bytes32 role);\n  event IndexedSignerRemoved(address indexed account, address oldSigner, bytes32 role);\n  event DefaultSignerSet(address indexed account, address signer, bytes32 role);\n  event DefaultSignerRemoved(address indexed account, address oldSigner, bytes32 role);\n  event LegacySignerSet(address indexed account, address signer, bytes32 role);\n  event LegacySignerRemoved(address indexed account, address oldSigner, bytes32 role);\n  event SignerRemoved(address indexed account, address oldSigner, bytes32 indexed role);\n  event AccountDataEncryptionKeySet(address indexed account, bytes dataEncryptionKey);\n  event AccountNameSet(address indexed account, string name);\n  event AccountMetadataURLSet(address indexed account, string metadataURL);\n  event AccountWalletAddressSet(address indexed account, address walletAddress);\n  event AccountCreated(address indexed account);\n  event OffchainStorageRootAdded(address indexed account, bytes url);\n  event OffchainStorageRootRemoved(address indexed account, bytes url, uint256 index);\n  event PaymentDelegationSet(address indexed beneficiary, uint256 fraction);\n\n  /**\n   * @notice Sets initialized == true on implementation contracts\n   * @param test Set to true to skip implementation initialization\n   */\n  constructor(bool test) public Initializable(test) {}\n\n  /**\n   * @notice Returns the storage, major, minor, and patch version of the contract.\n   * @return Storage version of the contract.\n   * @return Major version of the contract.\n   * @return Minor version of the contract.\n   * @return Patch version of the contract.\n   */\n  function getVersionNumber() external pure returns (uint256, uint256, uint256, uint256) {\n    return (1, 1, 4, 1);\n  }\n\n  /**\n   * @notice Used in place of the constructor to allow the contract to be upgradable via proxy.\n   * @param registryAddress The address of the registry core smart contract.\n   */\n  function initialize(address registryAddress) external initializer {\n    _transferOwnership(msg.sender);\n    setRegistry(registryAddress);\n    setEip712DomainSeparator();\n  }\n\n  /**\n   * @notice Sets the EIP712 domain separator for the Celo Accounts abstraction.\n   */\n  function setEip712DomainSeparator() public {\n    uint256 chainId;\n    assembly {\n      chainId := chainid\n    }\n\n    eip712DomainSeparator = keccak256(\n      abi.encode(\n        keccak256(\n          \"EIP712Domain(string name,string version,uint256 chainId,address verifyingContract)\"\n        ),\n        keccak256(bytes(\"Celo Core Contracts\")),\n        keccak256(\"1.0\"),\n        chainId,\n        address(this)\n      )\n    );\n  }\n\n  /**\n   * @notice Convenience Setter for the dataEncryptionKey and wallet address for an account\n   * @param name A string to set as the name of the account\n   * @param dataEncryptionKey secp256k1 public key for data encryption. Preferably compressed.\n   * @param walletAddress The wallet address to set for the account\n   * @param v The recovery id of the incoming ECDSA signature.\n   * @param r Output value r of the ECDSA signature.\n   * @param s Output value s of the ECDSA signature.\n   * @dev v, r, s constitute `signer`'s signature on `msg.sender` (unless the wallet address\n   *      is 0x0 or msg.sender).\n   */\n  function setAccount(\n    string calldata name,\n    bytes calldata dataEncryptionKey,\n    address walletAddress,\n    uint8 v,\n    bytes32 r,\n    bytes32 s\n  ) external {\n    if (!isAccount(msg.sender)) {\n      createAccount();\n    }\n    setName(name);\n    setAccountDataEncryptionKey(dataEncryptionKey);\n    setWalletAddress(walletAddress, v, r, s);\n  }\n\n  /**\n   * @notice Creates an account.\n   * @return True if account creation succeeded.\n   */\n  function createAccount() public returns (bool) {\n    require(\n      isNotAccount(msg.sender) && isNotAuthorizedSigner(msg.sender),\n      \"Account already exists or address is an authorized signer for another account\"\n    );\n    Account storage account = accounts[msg.sender];\n    account.exists = true;\n    emit AccountCreated(msg.sender);\n    return true;\n  }\n\n  /**\n   * @notice Setter for the name of an account.\n   * @param name The name to set.\n   */\n  function setName(string memory name) public {\n    require(isAccount(msg.sender), \"Register with createAccount to set account name\");\n    Account storage account = accounts[msg.sender];\n    account.name = name;\n    emit AccountNameSet(msg.sender, name);\n  }\n\n  /**\n   * @notice Setter for the wallet address for an account\n   * @param walletAddress The wallet address to set for the account\n   * @param v The recovery id of the incoming ECDSA signature.\n   * @param r Output value r of the ECDSA signature.\n   * @param s Output value s of the ECDSA signature.\n   * @dev Wallet address can be zero. This means that the owner of the wallet\n   *  does not want to be paid directly without interaction, and instead wants users to\n   * contact them, using the data encryption key, and arrange a payment.\n   * @dev v, r, s constitute `signer`'s signature on `msg.sender` (unless the wallet address\n   *      is 0x0 or msg.sender).\n   */\n  function setWalletAddress(address walletAddress, uint8 v, bytes32 r, bytes32 s) public {\n    require(isAccount(msg.sender), \"Unknown account\");\n    if (!(walletAddress == msg.sender || walletAddress == address(0x0))) {\n      address signer = Signatures.getSignerOfAddress(msg.sender, v, r, s);\n      require(signer == walletAddress, \"Invalid signature\");\n    }\n    Account storage account = accounts[msg.sender];\n    account.walletAddress = walletAddress;\n    emit AccountWalletAddressSet(msg.sender, walletAddress);\n  }\n\n  /**\n   * @notice Setter for the data encryption key and version.\n   * @param dataEncryptionKey secp256k1 public key for data encryption. Preferably compressed.\n   */\n  function setAccountDataEncryptionKey(bytes memory dataEncryptionKey) public {\n    require(dataEncryptionKey.length >= 33, \"data encryption key length <= 32\");\n    Account storage account = accounts[msg.sender];\n    account.dataEncryptionKey = dataEncryptionKey;\n    emit AccountDataEncryptionKeySet(msg.sender, dataEncryptionKey);\n  }\n\n  /**\n   * @notice Setter for the metadata of an account.\n   * @param metadataURL The URL to access the metadata.\n   */\n  function setMetadataURL(string calldata metadataURL) external {\n    require(isAccount(msg.sender), \"Unknown account\");\n    Account storage account = accounts[msg.sender];\n    account.metadataURL = metadataURL;\n    emit AccountMetadataURLSet(msg.sender, metadataURL);\n  }\n\n  /**\n   * @notice Adds a new CIP8 storage root.\n   * @param url The URL pointing to the offchain storage root.\n   */\n  function addStorageRoot(bytes calldata url) external {\n    require(isAccount(msg.sender), \"Unknown account\");\n    offchainStorageRoots[msg.sender].push(url);\n    emit OffchainStorageRootAdded(msg.sender, url);\n  }\n\n  /**\n   * @notice Removes a CIP8 storage root.\n   * @param index The index of the storage root to be removed in the account's\n   * list of storage roots.\n   * @dev The order of storage roots may change after this operation (the last\n   * storage root will be moved to `index`), be aware of this if removing\n   * multiple storage roots at a time.\n   */\n  function removeStorageRoot(uint256 index) external {\n    require(isAccount(msg.sender), \"Unknown account\");\n    require(index < offchainStorageRoots[msg.sender].length, \"Invalid storage root index\");\n    uint256 lastIndex = offchainStorageRoots[msg.sender].length - 1;\n    bytes memory url = offchainStorageRoots[msg.sender][index];\n    offchainStorageRoots[msg.sender][index] = offchainStorageRoots[msg.sender][lastIndex];\n    offchainStorageRoots[msg.sender].length--;\n    emit OffchainStorageRootRemoved(msg.sender, url, index);\n  }\n\n  /**\n   * @notice Returns the full list of offchain storage roots for an account.\n   * @param account The account whose storage roots to return.\n   * @return Concatenated storage root URLs.\n   * @return Lengths of storage root URLs.\n   */\n  function getOffchainStorageRoots(address account)\n    external\n    view\n    returns (bytes memory, uint256[] memory)\n  {\n    require(isAccount(account), \"Unknown account\");\n    uint256 numberRoots = offchainStorageRoots[account].length;\n    uint256 totalLength = 0;\n    for (uint256 i = 0; i < numberRoots; i++) {\n      totalLength = totalLength.add(offchainStorageRoots[account][i].length);\n    }\n\n    bytes memory concatenated = new bytes(totalLength);\n    uint256 lastIndex = 0;\n    uint256[] memory lengths = new uint256[](numberRoots);\n    for (uint256 i = 0; i < numberRoots; i++) {\n      bytes storage root = offchainStorageRoots[account][i];\n      lengths[i] = root.length;\n      for (uint256 j = 0; j < lengths[i]; j++) {\n        concatenated[lastIndex] = root[j];\n        lastIndex++;\n      }\n    }\n\n    return (concatenated, lengths);\n  }\n\n  /**\n   * @notice Sets validator payment delegation settings.\n   * @param beneficiary The address that should receive a portion of validator\n   * payments.\n   * @param fraction The fraction of the validator's payment that should be\n   * diverted to `beneficiary` every epoch, given as FixidityLib value. Must not\n   * be greater than 1.\n   * @dev Use `deletePaymentDelegation` to unset the payment delegation.\n   */\n  function setPaymentDelegation(address beneficiary, uint256 fraction) public {\n    require(isAccount(msg.sender), \"Must first register address with Account.createAccount\");\n    require(beneficiary != address(0), \"Beneficiary cannot be address 0x0\");\n    FixidityLib.Fraction memory f = FixidityLib.wrap(fraction);\n    require(f.lte(FixidityLib.fixed1()), \"Fraction must not be greater than 1\");\n    paymentDelegations[msg.sender] = PaymentDelegation(beneficiary, f);\n    emit PaymentDelegationSet(beneficiary, fraction);\n  }\n\n  /**\n   * @notice Removes a validator's payment delegation by setting benficiary and\n   * fraction to 0.\n   */\n  function deletePaymentDelegation() public {\n    require(isAccount(msg.sender), \"Must first register address with Account.createAccount\");\n    paymentDelegations[msg.sender] = PaymentDelegation(address(0x0), FixidityLib.wrap(0));\n    emit PaymentDelegationSet(address(0x0), 0);\n  }\n\n  /**\n   * @notice Gets validator payment delegation settings.\n   * @param account Account of the validator.\n   * @return Beneficiary address of payment delegated.\n   * @return Fraction of payment delegated.\n   */\n  function getPaymentDelegation(address account) external view returns (address, uint256) {\n    PaymentDelegation storage delegation = paymentDelegations[account];\n    return (delegation.beneficiary, delegation.fraction.unwrap());\n  }\n\n  /**\n   * @notice Set the indexed signer for a specific role\n   * @param signer the address to set as default\n   * @param role the role to register a default signer for\n   */\n  function setIndexedSigner(address signer, bytes32 role) public {\n    require(isAccount(msg.sender), \"Must first register address with Account.createAccount\");\n    require(isNotAccount(signer), \"Cannot authorize account as signer\");\n    require(\n      isNotAuthorizedSignerForAnotherAccount(msg.sender, signer),\n      \"Not a signer for this account\"\n    );\n    require(isSigner(msg.sender, signer, role), \"Must authorize signer before setting as default\");\n\n    Account storage account = accounts[msg.sender];\n    if (isLegacyRole(role)) {\n      if (role == VoteSigner) {\n        account.signers.vote = signer;\n      } else if (role == AttestationSigner) {\n        account.signers.attestation = signer;\n      } else if (role == ValidatorSigner) {\n        account.signers.validator = signer;\n      }\n      emit LegacySignerSet(msg.sender, signer, role);\n    } else {\n      defaultSigners[msg.sender][role] = signer;\n      emit DefaultSignerSet(msg.sender, signer, role);\n    }\n\n    emit IndexedSignerSet(msg.sender, signer, role);\n  }\n\n  /**\n   * @notice Authorizes an address to act as a signer, for `role`, on behalf of the account.\n   * @param signer The address of the signing key to authorize.\n   * @param role The role to authorize signing for.\n   * @param v The recovery id of the incoming ECDSA signature.\n   * @param r Output value r of the ECDSA signature.\n   * @param s Output value s of the ECDSA signature.\n   * @dev v, r, s constitute `signer`'s EIP712 signature over `role`, `msg.sender`\n   *      and `signer`.\n   */\n  function authorizeSignerWithSignature(address signer, bytes32 role, uint8 v, bytes32 r, bytes32 s)\n    public\n  {\n    authorizeAddressWithRole(signer, role, v, r, s);\n    signerAuthorizations[msg.sender][role][signer] = SignerAuthorization({\n      started: true,\n      completed: true\n    });\n\n    emit SignerAuthorized(msg.sender, signer, role);\n  }\n\n  function legacyAuthorizeSignerWithSignature(\n    address signer,\n    bytes32 role,\n    uint8 v,\n    bytes32 r,\n    bytes32 s\n  ) private {\n    authorizeAddress(signer, v, r, s);\n    signerAuthorizations[msg.sender][role][signer] = SignerAuthorization({\n      started: true,\n      completed: true\n    });\n\n    emit SignerAuthorized(msg.sender, signer, role);\n  }\n\n  /**\n   * @notice Authorizes an address to sign votes on behalf of the account.\n   * @param signer The address of the signing key to authorize.\n   * @param v The recovery id of the incoming ECDSA signature.\n   * @param r Output value r of the ECDSA signature.\n   * @param s Output value s of the ECDSA signature.\n   * @dev v, r, s constitute `signer`'s signature on `msg.sender`.\n   */\n  function authorizeVoteSigner(address signer, uint8 v, bytes32 r, bytes32 s)\n    external\n    nonReentrant\n  {\n    legacyAuthorizeSignerWithSignature(signer, VoteSigner, v, r, s);\n    setIndexedSigner(signer, VoteSigner);\n\n    emit VoteSignerAuthorized(msg.sender, signer);\n  }\n\n  /**\n   * @notice Authorizes an address to sign consensus messages on behalf of the account.\n   * @param signer The address of the signing key to authorize.\n   * @param v The recovery id of the incoming ECDSA signature.\n   * @param r Output value r of the ECDSA signature.\n   * @param s Output value s of the ECDSA signature.\n   * @dev v, r, s constitute `signer`'s signature on `msg.sender`.\n   */\n  function authorizeValidatorSigner(address signer, uint8 v, bytes32 r, bytes32 s)\n    external\n    nonReentrant\n  {\n    legacyAuthorizeSignerWithSignature(signer, ValidatorSigner, v, r, s);\n    setIndexedSigner(signer, ValidatorSigner);\n\n    require(!getValidators().isValidator(msg.sender), \"Cannot authorize validator signer\");\n    emit ValidatorSignerAuthorized(msg.sender, signer);\n  }\n\n  /**\n   * @notice Authorizes an address to sign consensus messages on behalf of the account.\n   * @param signer The address of the signing key to authorize.\n   * @param v The recovery id of the incoming ECDSA signature.\n   * @param r Output value r of the ECDSA signature.\n   * @param s Output value s of the ECDSA signature.\n   * @param ecdsaPublicKey The ECDSA public key corresponding to `signer`.\n   * @dev v, r, s constitute `signer`'s signature on `msg.sender`.\n   */\n  function authorizeValidatorSignerWithPublicKey(\n    address signer,\n    uint8 v,\n    bytes32 r,\n    bytes32 s,\n    bytes calldata ecdsaPublicKey\n  ) external nonReentrant {\n    legacyAuthorizeSignerWithSignature(signer, ValidatorSigner, v, r, s);\n    setIndexedSigner(signer, ValidatorSigner);\n\n    require(\n      getValidators().updateEcdsaPublicKey(msg.sender, signer, ecdsaPublicKey),\n      \"Failed to update ECDSA public key\"\n    );\n    emit ValidatorSignerAuthorized(msg.sender, signer);\n  }\n\n  /**\n   * @notice Authorizes an address to sign consensus messages on behalf of the account.\n   * @param signer The address of the signing key to authorize.\n   * @param ecdsaPublicKey The ECDSA public key corresponding to `signer`.\n   * @param blsPublicKey The BLS public key that the validator is using for consensus, should pass\n   *   proof of possession. 96 bytes.\n   * @param blsPop The BLS public key proof-of-possession, which consists of a signature on the\n   *   account address. 48 bytes.\n   * @param v The recovery id of the incoming ECDSA signature.\n   * @param r Output value r of the ECDSA signature.\n   * @param s Output value s of the ECDSA signature.\n   * @dev v, r, s constitute `signer`'s signature on `msg.sender`.\n   */\n  function authorizeValidatorSignerWithKeys(\n    address signer,\n    uint8 v,\n    bytes32 r,\n    bytes32 s,\n    bytes calldata ecdsaPublicKey,\n    bytes calldata blsPublicKey,\n    bytes calldata blsPop\n  ) external nonReentrant {\n    legacyAuthorizeSignerWithSignature(signer, ValidatorSigner, v, r, s);\n    setIndexedSigner(signer, ValidatorSigner);\n\n    require(\n      getValidators().updatePublicKeys(msg.sender, signer, ecdsaPublicKey, blsPublicKey, blsPop),\n      \"Failed to update validator keys\"\n    );\n    emit ValidatorSignerAuthorized(msg.sender, signer);\n  }\n\n  /**\n   * @notice Authorizes an address to sign attestations on behalf of the account.\n   * @param signer The address of the signing key to authorize.\n   * @param v The recovery id of the incoming ECDSA signature.\n   * @param r Output value r of the ECDSA signature.\n   * @param s Output value s of the ECDSA signature.\n   * @dev v, r, s constitute `signer`'s signature on `msg.sender`.\n   */\n  function authorizeAttestationSigner(address signer, uint8 v, bytes32 r, bytes32 s) public {\n    legacyAuthorizeSignerWithSignature(signer, AttestationSigner, v, r, s);\n    setIndexedSigner(signer, AttestationSigner);\n\n    emit AttestationSignerAuthorized(msg.sender, signer);\n  }\n\n  /**\n   * @notice Begin the process of authorizing an address to sign on behalf of the account\n   * @param signer The address of the signing key to authorize.\n   * @param role The role to authorize signing for.\n   */\n  function authorizeSigner(address signer, bytes32 role) public {\n    require(isAccount(msg.sender), \"Must first register sender with Account.createAccount\");\n    require(\n      isNotAccount(signer) && isNotAuthorizedSignerForAnotherAccount(msg.sender, signer),\n      \"Cannot re-authorize address signer\"\n    );\n\n    signerAuthorizations[msg.sender][role][signer] = SignerAuthorization({\n      started: true,\n      completed: false\n    });\n    emit SignerAuthorizationStarted(msg.sender, signer, role);\n  }\n\n  /**\n   * @notice Finish the process of authorizing an address to sign on behalf of the account.\n   * @param account The address of account that authorized signing.\n   * @param role The role to finish authorizing for.\n   */\n  function completeSignerAuthorization(address account, bytes32 role) public {\n    require(\n      isAccount(account),\n      \"Unknown Account: Address that authorized signing must be a registered Account\"\n    );\n    require(\n      isNotAccount(msg.sender) && isNotAuthorizedSignerForAnotherAccount(account, msg.sender),\n      \"Cannot re-authorize address signer\"\n    );\n    require(\n      signerAuthorizations[account][role][msg.sender].started == true,\n      \"Signer authorization not started\"\n    );\n\n    authorizedBy[msg.sender] = account;\n    signerAuthorizations[account][role][msg.sender].completed = true;\n    emit SignerAuthorizationCompleted(account, msg.sender, role);\n  }\n\n  /**\n   * @notice Whether or not the signer has been registered as the legacy signer for role\n   * @param _account The address of account that authorized signing.\n   * @param signer The address of the signer.\n   * @param role The role that has been authorized.\n   */\n  function isLegacySigner(address _account, address signer, bytes32 role)\n    public\n    view\n    returns (bool)\n  {\n    Account storage account = accounts[_account];\n    if (role == ValidatorSigner && account.signers.validator == signer) {\n      return true;\n    } else if (role == AttestationSigner && account.signers.attestation == signer) {\n      return true;\n    } else if (role == VoteSigner && account.signers.vote == signer) {\n      return true;\n    } else {\n      return false;\n    }\n  }\n\n  /**\n   * @notice Whether or not the signer has been registered as the default signer for role\n   * @param account The address of account that authorized signing.\n   * @param signer The address of the signer.\n   * @param role The role that has been authorized.\n   */\n  function isDefaultSigner(address account, address signer, bytes32 role)\n    public\n    view\n    returns (bool)\n  {\n    return defaultSigners[account][role] == signer;\n  }\n\n  /**\n   * @notice Whether or not the signer has been registered as an indexed signer for role\n   * @param account The address of account that authorized signing.\n   * @param signer The address of the signer.\n   * @param role The role that has been authorized.\n   */\n  function isIndexedSigner(address account, address signer, bytes32 role)\n    public\n    view\n    returns (bool)\n  {\n    return\n      isLegacyRole(role)\n        ? isLegacySigner(account, signer, role)\n        : isDefaultSigner(account, signer, role);\n  }\n\n  /**\n   * @notice Whether or not the signer has been registered as a signer for role\n   * @param account The address of account that authorized signing.\n   * @param signer The address of the signer.\n   * @param role The role that has been authorized.\n   */\n  function isSigner(address account, address signer, bytes32 role) public view returns (bool) {\n    return\n      isLegacySigner(account, signer, role) ||\n      (signerAuthorizations[account][role][signer].completed && authorizedBy[signer] == account);\n  }\n\n  /**\n   * @notice Removes the signer for a default role.\n   * @param role The role that has been authorized.\n   */\n  function removeDefaultSigner(bytes32 role) public {\n    address signer = defaultSigners[msg.sender][role];\n    defaultSigners[msg.sender][role] = address(0);\n    emit DefaultSignerRemoved(msg.sender, signer, role);\n  }\n\n  /**\n   * @notice Remove one of the Validator, Attestation or\n   * Vote signers from an account. Should only be called from\n   * methods that check the role is a legacy signer.\n   * @param role The role that has been authorized.\n   */\n  function removeLegacySigner(bytes32 role) private {\n    Account storage account = accounts[msg.sender];\n\n    address signer;\n    if (role == ValidatorSigner) {\n      signer = account.signers.validator;\n      account.signers.validator = address(0);\n    } else if (role == AttestationSigner) {\n      signer = account.signers.attestation;\n      account.signers.attestation = address(0);\n    } else if (role == VoteSigner) {\n      signer = account.signers.vote;\n      account.signers.vote = address(0);\n    }\n    emit LegacySignerRemoved(msg.sender, signer, role);\n  }\n\n  /**\n   * @notice Removes the currently authorized and indexed signer\n   * for a specific role\n   * @param role The role of the signer.\n   */\n  function removeIndexedSigner(bytes32 role) public {\n    address oldSigner = getIndexedSigner(msg.sender, role);\n    isLegacyRole(role) ? removeLegacySigner(role) : removeDefaultSigner(role);\n\n    emit IndexedSignerRemoved(msg.sender, oldSigner, role);\n  }\n\n  /**\n   * @notice Removes the currently authorized signer for a specific role and\n   * if the signer is indexed, remove that as well.\n   * @param signer The address of the signer.\n   * @param role The role that has been authorized.\n   */\n  function removeSigner(address signer, bytes32 role) public {\n    if (isIndexedSigner(msg.sender, signer, role)) {\n      removeIndexedSigner(role);\n    }\n\n    delete signerAuthorizations[msg.sender][role][signer];\n    emit SignerRemoved(msg.sender, signer, role);\n  }\n\n  /**\n   * @notice Removes the currently authorized vote signer for the account.\n   * Note that the signers cannot be reauthorized after they have been removed.\n   */\n  function removeVoteSigner() public {\n    address signer = getLegacySigner(msg.sender, VoteSigner);\n    removeSigner(signer, VoteSigner);\n    emit VoteSignerRemoved(msg.sender, signer);\n  }\n\n  /**\n   * @notice Removes the currently authorized validator signer for the account\n   * Note that the signers cannot be reauthorized after they have been removed.\n   */\n  function removeValidatorSigner() public {\n    address signer = getLegacySigner(msg.sender, ValidatorSigner);\n    removeSigner(signer, ValidatorSigner);\n    emit ValidatorSignerRemoved(msg.sender, signer);\n  }\n\n  /**\n   * @notice Removes the currently authorized attestation signer for the account\n   * Note that the signers cannot be reauthorized after they have been removed.\n   */\n  function removeAttestationSigner() public {\n    address signer = getLegacySigner(msg.sender, AttestationSigner);\n    removeSigner(signer, AttestationSigner);\n    emit AttestationSignerRemoved(msg.sender, signer);\n  }\n\n  function signerToAccountWithRole(address signer, bytes32 role) internal view returns (address) {\n    address account = authorizedBy[signer];\n    if (account != address(0)) {\n      require(isSigner(account, signer, role), \"not active authorized signer for role\");\n      return account;\n    }\n\n    require(isAccount(signer), \"Must first register address with Account.createAccount\");\n    return signer;\n  }\n\n  /**\n   * @notice Returns the account associated with `signer`.\n   * @param signer The address of the account or currently authorized attestation signer.\n   * @dev Fails if the `signer` is not an account or currently authorized attestation signer.\n   * @return The associated account that the signer is authorized to attest for.\n   */\n  function attestationSignerToAccount(address signer) external view returns (address) {\n    return signerToAccountWithRole(signer, AttestationSigner);\n  }\n\n  /**\n   * @notice Returns the account associated with `signer`.\n   * @param signer The address of an account or currently authorized validator signer.\n   * @dev Fails if the `signer` is not an account or currently authorized validator.\n   * @return The associated account that signer is authorized to validate for.\n   */\n  function validatorSignerToAccount(address signer) public view returns (address) {\n    return signerToAccountWithRole(signer, ValidatorSigner);\n  }\n\n  /**\n   * @notice Returns the account associated with `signer`.\n   * @param signer The address of the account or currently authorized vote signer.\n   * @dev Fails if the `signer` is not an account or currently authorized vote signer.\n   * @return The associated account that signer is authorized to vote for.\n   */\n  function voteSignerToAccount(address signer) external view returns (address) {\n    return signerToAccountWithRole(signer, VoteSigner);\n  }\n\n  /**\n   * @notice Returns the account associated with `signer`.\n   * @param signer The address of the account or previously authorized signer.\n   * @dev Fails if the `signer` is not an account or previously authorized signer.\n   * @return The associated account.\n   */\n  function signerToAccount(address signer) external view returns (address) {\n    address authorizingAccount = authorizedBy[signer];\n    if (authorizingAccount != address(0)) {\n      return authorizingAccount;\n    } else {\n      require(isAccount(signer), \"Must first register address with Account.createAccount\");\n      return signer;\n    }\n  }\n\n  /**\n   * @notice Checks whether the role is one of Vote, Validator or Attestation\n   * @param role The role to check\n   */\n  function isLegacyRole(bytes32 role) public pure returns (bool) {\n    return role == VoteSigner || role == ValidatorSigner || role == AttestationSigner;\n  }\n\n  /**\n   * @notice Returns the legacy signer for the specified account and\n   * role. If no signer has been specified it will return the account itself.\n   * @param _account The address of the account.\n   * @param role The role of the signer.\n   */\n  function getLegacySigner(address _account, bytes32 role) public view returns (address) {\n    require(isLegacyRole(role), \"Role is not a legacy signer\");\n\n    Account storage account = accounts[_account];\n    address signer;\n    if (role == ValidatorSigner) {\n      signer = account.signers.validator;\n    } else if (role == AttestationSigner) {\n      signer = account.signers.attestation;\n    } else if (role == VoteSigner) {\n      signer = account.signers.vote;\n    }\n\n    return signer == address(0) ? _account : signer;\n  }\n\n  /**\n   * @notice Returns the default signer for the specified account and\n   * role. If no signer has been specified it will return the account itself.\n   * @param account The address of the account.\n   * @param role The role of the signer.\n   */\n  function getDefaultSigner(address account, bytes32 role) public view returns (address) {\n    address defaultSigner = defaultSigners[account][role];\n    return defaultSigner == address(0) ? account : defaultSigner;\n  }\n\n  /**\n   * @notice Returns the indexed signer for the specified account and role.\n   * If no signer has been specified it will return the account itself.\n   * @param account The address of the account.\n   * @param role The role of the signer.\n   */\n  function getIndexedSigner(address account, bytes32 role) public view returns (address) {\n    return isLegacyRole(role) ? getLegacySigner(account, role) : getDefaultSigner(account, role);\n  }\n\n  /**\n   * @notice Returns the vote signer for the specified account.\n   * @param account The address of the account.\n   * @return The address with which the account can sign votes.\n   */\n  function getVoteSigner(address account) public view returns (address) {\n    return getLegacySigner(account, VoteSigner);\n  }\n\n  /**\n   * @notice Returns the validator signer for the specified account.\n   * @param account The address of the account.\n   * @return The address with which the account can register a validator or group.\n   */\n  function getValidatorSigner(address account) public view returns (address) {\n    return getLegacySigner(account, ValidatorSigner);\n  }\n\n  /**\n   * @notice Returns the attestation signer for the specified account.\n   * @param account The address of the account.\n   * @return The address with which the account can sign attestations.\n   */\n  function getAttestationSigner(address account) public view returns (address) {\n    return getLegacySigner(account, AttestationSigner);\n  }\n\n  /**\n   * @notice Checks whether or not the account has an indexed signer\n   * registered for one of the legacy roles\n   */\n  function hasLegacySigner(address account, bytes32 role) public view returns (bool) {\n    return getLegacySigner(account, role) != account;\n  }\n\n  /**\n   * @notice Checks whether or not the account has an indexed signer\n   * registered for a role\n   */\n  function hasDefaultSigner(address account, bytes32 role) public view returns (bool) {\n    return getDefaultSigner(account, role) != account;\n  }\n\n  /**\n   * @notice Checks whether or not the account has an indexed signer\n   * registered for the role\n   */\n  function hasIndexedSigner(address account, bytes32 role) public view returns (bool) {\n    return isLegacyRole(role) ? hasLegacySigner(account, role) : hasDefaultSigner(account, role);\n  }\n\n  /**\n   * @notice Checks whether or not the account has a signer\n   * registered for the plaintext role.\n   * @dev See `hasIndexedSigner` for more gas efficient call.\n   */\n  function hasAuthorizedSigner(address account, string calldata role) external view returns (bool) {\n    return hasIndexedSigner(account, keccak256(abi.encodePacked(role)));\n  }\n\n  /**\n   * @notice Returns if account has specified a dedicated vote signer.\n   * @param account The address of the account.\n   * @return Whether the account has specified a dedicated vote signer.\n   */\n  function hasAuthorizedVoteSigner(address account) external view returns (bool) {\n    return hasLegacySigner(account, VoteSigner);\n  }\n\n  /**\n   * @notice Returns if account has specified a dedicated validator signer.\n   * @param account The address of the account.\n   * @return Whether the account has specified a dedicated validator signer.\n   */\n  function hasAuthorizedValidatorSigner(address account) external view returns (bool) {\n    return hasLegacySigner(account, ValidatorSigner);\n  }\n\n  /**\n   * @notice Returns if account has specified a dedicated attestation signer.\n   * @param account The address of the account.\n   * @return Whether the account has specified a dedicated attestation signer.\n   */\n  function hasAuthorizedAttestationSigner(address account) external view returns (bool) {\n    return hasLegacySigner(account, AttestationSigner);\n  }\n\n  /**\n   * @notice Getter for the name of an account.\n   * @param account The address of the account to get the name for.\n   * @return name The name of the account.\n   */\n  function getName(address account) external view returns (string memory) {\n    return accounts[account].name;\n  }\n\n  /**\n   * @notice Getter for the metadata of an account.\n   * @param account The address of the account to get the metadata for.\n   * @return metadataURL The URL to access the metadata.\n   */\n  function getMetadataURL(address account) external view returns (string memory) {\n    return accounts[account].metadataURL;\n  }\n\n  /**\n   * @notice Getter for the metadata of multiple accounts.\n   * @param accountsToQuery The addresses of the accounts to get the metadata for.\n   * @return The length of each string in bytes.\n   * @return All strings concatenated.\n   */\n  function batchGetMetadataURL(address[] calldata accountsToQuery)\n    external\n    view\n    returns (uint256[] memory, bytes memory)\n  {\n    uint256 totalSize = 0;\n    uint256[] memory sizes = new uint256[](accountsToQuery.length);\n    for (uint256 i = 0; i < accountsToQuery.length; i = i.add(1)) {\n      sizes[i] = bytes(accounts[accountsToQuery[i]].metadataURL).length;\n      totalSize = totalSize.add(sizes[i]);\n    }\n\n    bytes memory data = new bytes(totalSize);\n    uint256 pointer = 0;\n    for (uint256 i = 0; i < accountsToQuery.length; i = i.add(1)) {\n      for (uint256 j = 0; j < sizes[i]; j = j.add(1)) {\n        data[pointer] = bytes(accounts[accountsToQuery[i]].metadataURL)[j];\n        pointer = pointer.add(1);\n      }\n    }\n    return (sizes, data);\n  }\n\n  /**\n   * @notice Getter for the data encryption key and version.\n   * @param account The address of the account to get the key for\n   * @return dataEncryptionKey secp256k1 public key for data encryption. Preferably compressed.\n   */\n  function getDataEncryptionKey(address account) external view returns (bytes memory) {\n    return accounts[account].dataEncryptionKey;\n  }\n\n  /**\n   * @notice Getter for the wallet address for an account\n   * @param account The address of the account to get the wallet address for\n   * @return Wallet address\n   */\n  function getWalletAddress(address account) external view returns (address) {\n    return accounts[account].walletAddress;\n  }\n\n  /**\n   * @notice Check if an account already exists.\n   * @param account The address of the account\n   * @return Returns `true` if account exists. Returns `false` otherwise.\n   */\n  function isAccount(address account) public view returns (bool) {\n    return (accounts[account].exists);\n  }\n\n  /**\n   * @notice Check if an account already exists.\n   * @param account The address of the account\n   * @return Returns `false` if account exists. Returns `true` otherwise.\n   */\n  function isNotAccount(address account) internal view returns (bool) {\n    return (!accounts[account].exists);\n  }\n\n  /**\n   * @notice Check if an address has been an authorized signer for an account.\n   * @param signer The possibly authorized address.\n   * @return Returns `true` if authorized. Returns `false` otherwise.\n   */\n  function isAuthorizedSigner(address signer) external view returns (bool) {\n    return (authorizedBy[signer] != address(0));\n  }\n\n  /**\n   * @notice Check if an address has not been an authorized signer for an account.\n   * @param signer The possibly authorized address.\n   * @return Returns `false` if authorized. Returns `true` otherwise.\n   */\n  function isNotAuthorizedSigner(address signer) internal view returns (bool) {\n    return (authorizedBy[signer] == address(0));\n  }\n\n  /**\n   * @notice Check if `signer` has not been authorized, and if it has been previously\n   *         authorized that it was authorized by `account`.\n   * @param account The authorizing account address.\n   * @param signer The possibly authorized address.\n   * @return Returns `false` if authorized. Returns `true` otherwise.\n   */\n  function isNotAuthorizedSignerForAnotherAccount(address account, address signer)\n    internal\n    view\n    returns (bool)\n  {\n    return (authorizedBy[signer] == address(0) || authorizedBy[signer] == account);\n  }\n\n  /**\n   * @notice Authorizes some role of `msg.sender`'s account to another address.\n   * @param authorized The address to authorize.\n   * @param v The recovery id of the incoming ECDSA signature.\n   * @param r Output value r of the ECDSA signature.\n   * @param s Output value s of the ECDSA signature.\n   * @dev Fails if the address is already authorized to another account or is an account itself.\n   * @dev Note that once an address is authorized, it may never be authorized again.\n   * @dev v, r, s constitute `authorized`'s signature on `msg.sender`.\n   */\n  function authorizeAddress(address authorized, uint8 v, bytes32 r, bytes32 s) private {\n    address signer = Signatures.getSignerOfAddress(msg.sender, v, r, s);\n    require(signer == authorized, \"Invalid signature\");\n\n    authorize(authorized);\n  }\n\n  /**\n   * @notice Returns the address that signed the provided role authorization.\n   * @param account The `account` property signed over in the EIP712 signature\n   * @param signer The `signer` property signed over in the EIP712 signature\n   * @param role The `role` property signed over in the EIP712 signature\n   * @param v The recovery id of the incoming ECDSA signature.\n   * @param r Output value r of the ECDSA signature.\n   * @param s Output value s of the ECDSA signature.\n   * @return The address that signed the provided role authorization.\n   */\n  function getRoleAuthorizationSigner(\n    address account,\n    address signer,\n    bytes32 role,\n    uint8 v,\n    bytes32 r,\n    bytes32 s\n  ) public view returns (address) {\n    bytes32 structHash = keccak256(\n      abi.encode(EIP712_AUTHORIZE_SIGNER_TYPEHASH, account, signer, role)\n    );\n    return Signatures.getSignerOfTypedDataHash(eip712DomainSeparator, structHash, v, r, s);\n  }\n\n  /**\n   * @notice Authorizes a role of `msg.sender`'s account to another address (`authorized`).\n   * @param authorized The address to authorize.\n   * @param role The role to authorize.\n   * @param v The recovery id of the incoming ECDSA signature.\n   * @param r Output value r of the ECDSA signature.\n   * @param s Output value s of the ECDSA signature.\n   * @dev Fails if the address is already authorized to another account or is an account itself.\n   * @dev Note that this signature is EIP712 compliant over the authorizing `account`\n   * (`msg.sender`), `signer` (`authorized`) and `role`.\n   */\n  function authorizeAddressWithRole(address authorized, bytes32 role, uint8 v, bytes32 r, bytes32 s)\n    private\n  {\n    address signer = getRoleAuthorizationSigner(msg.sender, authorized, role, v, r, s);\n    require(signer == authorized, \"Invalid signature\");\n\n    authorize(authorized);\n  }\n\n  /**\n   * @notice Authorizes an address to `msg.sender`'s account\n   * @param authorized The address to authorize.\n   * @dev Fails if the address is already authorized for another account or is an account itself.\n   */\n  function authorize(address authorized) private {\n    require(\n      isAccount(msg.sender),\n      \"Unknown account: sender must register with createAccount first\"\n    );\n    require(\n      isNotAccount(authorized) && isNotAuthorizedSignerForAnotherAccount(msg.sender, authorized),\n      \"Cannot re-authorize address or locked gold account for another account\"\n    );\n\n    authorizedBy[authorized] = msg.sender;\n  }\n}\n",
  "sourcePath": "/Users/beaver/Development/celo/celo-monorepo/packages/protocol/contracts/common/Accounts.sol",
  "compiler": {
    "name": "solc",
    "version": "0.5.13+commit.5b0b510c.Emscripten.clang"
  },
  "schemaVersion": "3.4.13",
  "updatedAt": "2024-03-05T15:27:45.351Z",
  "networkType": "ethereum",
  "devdoc": {
    "methods": {
      "addStorageRoot(bytes)": {
        "params": {
          "url": "The URL pointing to the offchain storage root."
        }
      },
      "attestationSignerToAccount(address)": {
        "details": "Fails if the `signer` is not an account or currently authorized attestation signer.",
        "params": {
          "signer": "The address of the account or currently authorized attestation signer."
        },
        "return": "The associated account that the signer is authorized to attest for."
      },
      "authorizeAttestationSigner(address,uint8,bytes32,bytes32)": {
        "details": "v, r, s constitute `signer`'s signature on `msg.sender`.",
        "params": {
          "r": "Output value r of the ECDSA signature.",
          "s": "Output value s of the ECDSA signature.",
          "signer": "The address of the signing key to authorize.",
          "v": "The recovery id of the incoming ECDSA signature."
        }
      },
      "authorizeSigner(address,bytes32)": {
        "params": {
          "role": "The role to authorize signing for.",
          "signer": "The address of the signing key to authorize."
        }
      },
      "authorizeSignerWithSignature(address,bytes32,uint8,bytes32,bytes32)": {
        "details": "v, r, s constitute `signer`'s EIP712 signature over `role`, `msg.sender`     and `signer`.",
        "params": {
          "r": "Output value r of the ECDSA signature.",
          "role": "The role to authorize signing for.",
          "s": "Output value s of the ECDSA signature.",
          "signer": "The address of the signing key to authorize.",
          "v": "The recovery id of the incoming ECDSA signature."
        }
      },
      "authorizeValidatorSigner(address,uint8,bytes32,bytes32)": {
        "details": "v, r, s constitute `signer`'s signature on `msg.sender`.",
        "params": {
          "r": "Output value r of the ECDSA signature.",
          "s": "Output value s of the ECDSA signature.",
          "signer": "The address of the signing key to authorize.",
          "v": "The recovery id of the incoming ECDSA signature."
        }
      },
      "authorizeValidatorSignerWithKeys(address,uint8,bytes32,bytes32,bytes,bytes,bytes)": {
        "details": "v, r, s constitute `signer`'s signature on `msg.sender`.",
        "params": {
          "blsPop": "The BLS public key proof-of-possession, which consists of a signature on the  account address. 48 bytes.",
          "blsPublicKey": "The BLS public key that the validator is using for consensus, should pass  proof of possession. 96 bytes.",
          "ecdsaPublicKey": "The ECDSA public key corresponding to `signer`.",
          "r": "Output value r of the ECDSA signature.",
          "s": "Output value s of the ECDSA signature.",
          "signer": "The address of the signing key to authorize.",
          "v": "The recovery id of the incoming ECDSA signature."
        }
      },
      "authorizeValidatorSignerWithPublicKey(address,uint8,bytes32,bytes32,bytes)": {
        "details": "v, r, s constitute `signer`'s signature on `msg.sender`.",
        "params": {
          "ecdsaPublicKey": "The ECDSA public key corresponding to `signer`.",
          "r": "Output value r of the ECDSA signature.",
          "s": "Output value s of the ECDSA signature.",
          "signer": "The address of the signing key to authorize.",
          "v": "The recovery id of the incoming ECDSA signature."
        }
      },
      "authorizeVoteSigner(address,uint8,bytes32,bytes32)": {
        "details": "v, r, s constitute `signer`'s signature on `msg.sender`.",
        "params": {
          "r": "Output value r of the ECDSA signature.",
          "s": "Output value s of the ECDSA signature.",
          "signer": "The address of the signing key to authorize.",
          "v": "The recovery id of the incoming ECDSA signature."
        }
      },
      "batchGetMetadataURL(address[])": {
        "params": {
          "accountsToQuery": "The addresses of the accounts to get the metadata for."
        },
        "return": "The length of each string in bytes.All strings concatenated."
      },
      "completeSignerAuthorization(address,bytes32)": {
        "params": {
          "account": "The address of account that authorized signing.",
          "role": "The role to finish authorizing for."
        }
      },
      "constructor": {
        "params": {
          "test": "Set to true to skip implementation initialization"
        }
      },
      "createAccount()": {
        "return": "True if account creation succeeded."
      },
      "getAttestationSigner(address)": {
        "params": {
          "account": "The address of the account."
        },
        "return": "The address with which the account can sign attestations."
      },
      "getDataEncryptionKey(address)": {
        "params": {
          "account": "The address of the account to get the key for"
        },
        "return": "dataEncryptionKey secp256k1 public key for data encryption. Preferably compressed."
      },
      "getDefaultSigner(address,bytes32)": {
        "params": {
          "account": "The address of the account.",
          "role": "The role of the signer."
        }
      },
      "getIndexedSigner(address,bytes32)": {
        "params": {
          "account": "The address of the account.",
          "role": "The role of the signer."
        }
      },
      "getLegacySigner(address,bytes32)": {
        "params": {
          "_account": "The address of the account.",
          "role": "The role of the signer."
        }
      },
      "getMetadataURL(address)": {
        "params": {
          "account": "The address of the account to get the metadata for."
        },
        "return": "metadataURL The URL to access the metadata."
      },
      "getName(address)": {
        "params": {
          "account": "The address of the account to get the name for."
        },
        "return": "name The name of the account."
      },
      "getOffchainStorageRoots(address)": {
        "params": {
          "account": "The account whose storage roots to return."
        },
        "return": "Concatenated storage root URLs.Lengths of storage root URLs."
      },
      "getPaymentDelegation(address)": {
        "params": {
          "account": "Account of the validator."
        },
        "return": "Beneficiary address of payment delegated.Fraction of payment delegated."
      },
      "getRoleAuthorizationSigner(address,address,bytes32,uint8,bytes32,bytes32)": {
        "params": {
          "account": "The `account` property signed over in the EIP712 signature",
          "r": "Output value r of the ECDSA signature.",
          "role": "The `role` property signed over in the EIP712 signature",
          "s": "Output value s of the ECDSA signature.",
          "signer": "The `signer` property signed over in the EIP712 signature",
          "v": "The recovery id of the incoming ECDSA signature."
        },
        "return": "The address that signed the provided role authorization."
      },
      "getValidatorSigner(address)": {
        "params": {
          "account": "The address of the account."
        },
        "return": "The address with which the account can register a validator or group."
      },
      "getVersionNumber()": {
        "return": "Storage version of the contract.Major version of the contract.Minor version of the contract.Patch version of the contract."
      },
      "getVoteSigner(address)": {
        "params": {
          "account": "The address of the account."
        },
        "return": "The address with which the account can sign votes."
      },
      "getWalletAddress(address)": {
        "params": {
          "account": "The address of the account to get the wallet address for"
        },
        "return": "Wallet address"
      },
      "hasAuthorizedAttestationSigner(address)": {
        "params": {
          "account": "The address of the account."
        },
        "return": "Whether the account has specified a dedicated attestation signer."
      },
      "hasAuthorizedSigner(address,string)": {
        "details": "See `hasIndexedSigner` for more gas efficient call."
      },
      "hasAuthorizedValidatorSigner(address)": {
        "params": {
          "account": "The address of the account."
        },
        "return": "Whether the account has specified a dedicated validator signer."
      },
      "hasAuthorizedVoteSigner(address)": {
        "params": {
          "account": "The address of the account."
        },
        "return": "Whether the account has specified a dedicated vote signer."
      },
      "initialize(address)": {
        "params": {
          "registryAddress": "The address of the registry core smart contract."
        }
      },
      "isAccount(address)": {
        "params": {
          "account": "The address of the account"
        },
        "return": "Returns `true` if account exists. Returns `false` otherwise."
      },
      "isAuthorizedSigner(address)": {
        "params": {
          "signer": "The possibly authorized address."
        },
        "return": "Returns `true` if authorized. Returns `false` otherwise."
      },
      "isDefaultSigner(address,address,bytes32)": {
        "params": {
          "account": "The address of account that authorized signing.",
          "role": "The role that has been authorized.",
          "signer": "The address of the signer."
        }
      },
      "isIndexedSigner(address,address,bytes32)": {
        "params": {
          "account": "The address of account that authorized signing.",
          "role": "The role that has been authorized.",
          "signer": "The address of the signer."
        }
      },
      "isLegacyRole(bytes32)": {
        "params": {
          "role": "The role to check"
        }
      },
      "isLegacySigner(address,address,bytes32)": {
        "params": {
          "_account": "The address of account that authorized signing.",
          "role": "The role that has been authorized.",
          "signer": "The address of the signer."
        }
      },
      "isOwner()": {
        "details": "Returns true if the caller is the current owner."
      },
      "isSigner(address,address,bytes32)": {
        "params": {
          "account": "The address of account that authorized signing.",
          "role": "The role that has been authorized.",
          "signer": "The address of the signer."
        }
      },
      "owner()": {
        "details": "Returns the address of the current owner."
      },
      "removeDefaultSigner(bytes32)": {
        "params": {
          "role": "The role that has been authorized."
        }
      },
      "removeIndexedSigner(bytes32)": {
        "params": {
          "role": "The role of the signer."
        }
      },
      "removeSigner(address,bytes32)": {
        "params": {
          "role": "The role that has been authorized.",
          "signer": "The address of the signer."
        }
      },
      "removeStorageRoot(uint256)": {
        "details": "The order of storage roots may change after this operation (the last storage root will be moved to `index`), be aware of this if removing multiple storage roots at a time.",
        "params": {
          "index": "The index of the storage root to be removed in the account's list of storage roots."
        }
      },
      "renounceOwnership()": {
        "details": "Leaves the contract without owner. It will not be possible to call `onlyOwner` functions anymore. Can only be called by the current owner.     * NOTE: Renouncing ownership will leave the contract without an owner, thereby removing any functionality that is only available to the owner."
      },
      "setAccount(string,bytes,address,uint8,bytes32,bytes32)": {
        "details": "v, r, s constitute `signer`'s signature on `msg.sender` (unless the wallet address     is 0x0 or msg.sender).",
        "params": {
          "dataEncryptionKey": "secp256k1 public key for data encryption. Preferably compressed.",
          "name": "A string to set as the name of the account",
          "r": "Output value r of the ECDSA signature.",
          "s": "Output value s of the ECDSA signature.",
          "v": "The recovery id of the incoming ECDSA signature.",
          "walletAddress": "The wallet address to set for the account"
        }
      },
      "setAccountDataEncryptionKey(bytes)": {
        "params": {
          "dataEncryptionKey": "secp256k1 public key for data encryption. Preferably compressed."
        }
      },
      "setIndexedSigner(address,bytes32)": {
        "params": {
          "role": "the role to register a default signer for",
          "signer": "the address to set as default"
        }
      },
      "setMetadataURL(string)": {
        "params": {
          "metadataURL": "The URL to access the metadata."
        }
      },
      "setName(string)": {
        "params": {
          "name": "The name to set."
        }
      },
      "setPaymentDelegation(address,uint256)": {
        "details": "Use `deletePaymentDelegation` to unset the payment delegation.",
        "params": {
          "beneficiary": "The address that should receive a portion of validator payments.",
          "fraction": "The fraction of the validator's payment that should be diverted to `beneficiary` every epoch, given as FixidityLib value. Must not be greater than 1."
        }
      },
      "setRegistry(address)": {
        "params": {
          "registryAddress": "The address of a registry contract for routing to other contracts."
        }
      },
      "setWalletAddress(address,uint8,bytes32,bytes32)": {
        "details": "Wallet address can be zero. This means that the owner of the wallet does not want to be paid directly without interaction, and instead wants users to contact them, using the data encryption key, and arrange a payment.v, r, s constitute `signer`'s signature on `msg.sender` (unless the wallet address     is 0x0 or msg.sender).",
        "params": {
          "r": "Output value r of the ECDSA signature.",
          "s": "Output value s of the ECDSA signature.",
          "v": "The recovery id of the incoming ECDSA signature.",
          "walletAddress": "The wallet address to set for the account"
        }
      },
      "signerToAccount(address)": {
        "details": "Fails if the `signer` is not an account or previously authorized signer.",
        "params": {
          "signer": "The address of the account or previously authorized signer."
        },
        "return": "The associated account."
      },
      "transferOwnership(address)": {
        "details": "Transfers ownership of the contract to a new account (`newOwner`). Can only be called by the current owner."
      },
      "validatorSignerToAccount(address)": {
        "details": "Fails if the `signer` is not an account or currently authorized validator.",
        "params": {
          "signer": "The address of an account or currently authorized validator signer."
        },
        "return": "The associated account that signer is authorized to validate for."
      },
      "voteSignerToAccount(address)": {
        "details": "Fails if the `signer` is not an account or currently authorized vote signer.",
        "params": {
          "signer": "The address of the account or currently authorized vote signer."
        },
        "return": "The associated account that signer is authorized to vote for."
      }
    }
  },
  "userdoc": {
    "methods": {
      "addStorageRoot(bytes)": {
        "notice": "Adds a new CIP8 storage root."
      },
      "attestationSignerToAccount(address)": {
        "notice": "Returns the account associated with `signer`."
      },
      "authorizeAttestationSigner(address,uint8,bytes32,bytes32)": {
        "notice": "Authorizes an address to sign attestations on behalf of the account."
      },
      "authorizeSigner(address,bytes32)": {
        "notice": "Begin the process of authorizing an address to sign on behalf of the account"
      },
      "authorizeSignerWithSignature(address,bytes32,uint8,bytes32,bytes32)": {
        "notice": "Authorizes an address to act as a signer, for `role`, on behalf of the account."
      },
      "authorizeValidatorSigner(address,uint8,bytes32,bytes32)": {
        "notice": "Authorizes an address to sign consensus messages on behalf of the account."
      },
      "authorizeValidatorSignerWithKeys(address,uint8,bytes32,bytes32,bytes,bytes,bytes)": {
        "notice": "Authorizes an address to sign consensus messages on behalf of the account."
      },
      "authorizeValidatorSignerWithPublicKey(address,uint8,bytes32,bytes32,bytes)": {
        "notice": "Authorizes an address to sign consensus messages on behalf of the account."
      },
      "authorizeVoteSigner(address,uint8,bytes32,bytes32)": {
        "notice": "Authorizes an address to sign votes on behalf of the account."
      },
      "batchGetMetadataURL(address[])": {
        "notice": "Getter for the metadata of multiple accounts."
      },
      "completeSignerAuthorization(address,bytes32)": {
        "notice": "Finish the process of authorizing an address to sign on behalf of the account."
      },
      "constructor": "Sets initialized == true on implementation contracts",
      "createAccount()": {
        "notice": "Creates an account."
      },
      "deletePaymentDelegation()": {
        "notice": "Removes a validator's payment delegation by setting benficiary and fraction to 0."
      },
      "getAttestationSigner(address)": {
        "notice": "Returns the attestation signer for the specified account."
      },
      "getDataEncryptionKey(address)": {
        "notice": "Getter for the data encryption key and version."
      },
      "getDefaultSigner(address,bytes32)": {
        "notice": "Returns the default signer for the specified account and role. If no signer has been specified it will return the account itself."
      },
      "getIndexedSigner(address,bytes32)": {
        "notice": "Returns the indexed signer for the specified account and role. If no signer has been specified it will return the account itself."
      },
      "getLegacySigner(address,bytes32)": {
        "notice": "Returns the legacy signer for the specified account and role. If no signer has been specified it will return the account itself."
      },
      "getMetadataURL(address)": {
        "notice": "Getter for the metadata of an account."
      },
      "getName(address)": {
        "notice": "Getter for the name of an account."
      },
      "getOffchainStorageRoots(address)": {
        "notice": "Returns the full list of offchain storage roots for an account."
      },
      "getPaymentDelegation(address)": {
        "notice": "Gets validator payment delegation settings."
      },
      "getRoleAuthorizationSigner(address,address,bytes32,uint8,bytes32,bytes32)": {
        "notice": "Returns the address that signed the provided role authorization."
      },
      "getValidatorSigner(address)": {
        "notice": "Returns the validator signer for the specified account."
      },
      "getVersionNumber()": {
        "notice": "Returns the storage, major, minor, and patch version of the contract."
      },
      "getVoteSigner(address)": {
        "notice": "Returns the vote signer for the specified account."
      },
      "getWalletAddress(address)": {
        "notice": "Getter for the wallet address for an account"
      },
      "hasAuthorizedAttestationSigner(address)": {
        "notice": "Returns if account has specified a dedicated attestation signer."
      },
      "hasAuthorizedSigner(address,string)": {
        "notice": "Checks whether or not the account has a signer registered for the plaintext role."
      },
      "hasAuthorizedValidatorSigner(address)": {
        "notice": "Returns if account has specified a dedicated validator signer."
      },
      "hasAuthorizedVoteSigner(address)": {
        "notice": "Returns if account has specified a dedicated vote signer."
      },
      "hasDefaultSigner(address,bytes32)": {
        "notice": "Checks whether or not the account has an indexed signer registered for a role"
      },
      "hasIndexedSigner(address,bytes32)": {
        "notice": "Checks whether or not the account has an indexed signer registered for the role"
      },
      "hasLegacySigner(address,bytes32)": {
        "notice": "Checks whether or not the account has an indexed signer registered for one of the legacy roles"
      },
      "initialize(address)": {
        "notice": "Used in place of the constructor to allow the contract to be upgradable via proxy."
      },
      "isAccount(address)": {
        "notice": "Check if an account already exists."
      },
      "isAuthorizedSigner(address)": {
        "notice": "Check if an address has been an authorized signer for an account."
      },
      "isDefaultSigner(address,address,bytes32)": {
        "notice": "Whether or not the signer has been registered as the default signer for role"
      },
      "isIndexedSigner(address,address,bytes32)": {
        "notice": "Whether or not the signer has been registered as an indexed signer for role"
      },
      "isLegacyRole(bytes32)": {
        "notice": "Checks whether the role is one of Vote, Validator or Attestation"
      },
      "isLegacySigner(address,address,bytes32)": {
        "notice": "Whether or not the signer has been registered as the legacy signer for role"
      },
      "isSigner(address,address,bytes32)": {
        "notice": "Whether or not the signer has been registered as a signer for role"
      },
      "removeAttestationSigner()": {
        "notice": "Removes the currently authorized attestation signer for the account Note that the signers cannot be reauthorized after they have been removed."
      },
      "removeDefaultSigner(bytes32)": {
        "notice": "Removes the signer for a default role."
      },
      "removeIndexedSigner(bytes32)": {
        "notice": "Removes the currently authorized and indexed signer for a specific role"
      },
      "removeSigner(address,bytes32)": {
        "notice": "Removes the currently authorized signer for a specific role and if the signer is indexed, remove that as well."
      },
      "removeStorageRoot(uint256)": {
        "notice": "Removes a CIP8 storage root."
      },
      "removeValidatorSigner()": {
        "notice": "Removes the currently authorized validator signer for the account Note that the signers cannot be reauthorized after they have been removed."
      },
      "removeVoteSigner()": {
        "notice": "Removes the currently authorized vote signer for the account. Note that the signers cannot be reauthorized after they have been removed."
      },
      "setAccount(string,bytes,address,uint8,bytes32,bytes32)": {
        "notice": "Convenience Setter for the dataEncryptionKey and wallet address for an account"
      },
      "setAccountDataEncryptionKey(bytes)": {
        "notice": "Setter for the data encryption key and version."
      },
      "setEip712DomainSeparator()": {
        "notice": "Sets the EIP712 domain separator for the Celo Accounts abstraction."
      },
      "setIndexedSigner(address,bytes32)": {
        "notice": "Set the indexed signer for a specific role"
      },
      "setMetadataURL(string)": {
        "notice": "Setter for the metadata of an account."
      },
      "setName(string)": {
        "notice": "Setter for the name of an account."
      },
      "setPaymentDelegation(address,uint256)": {
        "notice": "Sets validator payment delegation settings."
      },
      "setRegistry(address)": {
        "notice": "Updates the address pointing to a Registry contract."
      },
      "setWalletAddress(address,uint8,bytes32,bytes32)": {
        "notice": "Setter for the wallet address for an account"
      },
      "signerToAccount(address)": {
        "notice": "Returns the account associated with `signer`."
      },
      "validatorSignerToAccount(address)": {
        "notice": "Returns the account associated with `signer`."
      },
      "voteSignerToAccount(address)": {
        "notice": "Returns the account associated with `signer`."
      }
    }
  }
}