{
  "contractName": "AddressSortedLinkedListWithMedian",
  "abi": [
    {
      "constant": true,
      "inputs": [
        {
          "internalType": "address",
          "name": "a",
          "type": "address"
        }
      ],
      "name": "toBytes",
      "outputs": [
        {
          "internalType": "bytes32",
          "name": "",
          "type": "bytes32"
        }
      ],
      "payable": false,
      "stateMutability": "pure",
      "type": "function"
    },
    {
      "constant": true,
      "inputs": [
        {
          "internalType": "bytes32",
          "name": "b",
          "type": "bytes32"
        }
      ],
      "name": "toAddress",
      "outputs": [
        {
          "internalType": "address",
          "name": "",
          "type": "address"
        }
      ],
      "payable": false,
      "stateMutability": "pure",
      "type": "function"
    }
  ],
  "bytecode": "0x611f7e610026600b82828239805160001a60731461001957fe5b30600052607381538281f3fe73000000000000000000000000000000000000000030146080604052600436106100d95760003560e01c80636eafa6c31161009657806395073a791161007057806395073a791461051e578063c1e728e914610584578063d4a09272146105df578063d938ec7b14610684576100d9565b80636eafa6c3146103d55780637c6bb86214610417578063832a214714610479576100d9565b80630944c594146100de5780633118159e1461014c578063341f6623146101ba578063593b79fe1461022857806359d556a8146102805780636cfa3873146102c2575b600080fd5b61010a600480360360208110156100f457600080fd5b81019080803590602001909291905050506106f2565b604051808273ffffffffffffffffffffffffffffffffffffffff1673ffffffffffffffffffffffffffffffffffffffff16815260200191505060405180910390f35b6101786004803603602081101561016257600080fd5b810190808035906020019092919050505061070c565b604051808273ffffffffffffffffffffffffffffffffffffffff1673ffffffffffffffffffffffffffffffffffffffff16815260200191505060405180910390f35b6101e6600480360360208110156101d057600080fd5b8101908080359060200190929190505050610726565b604051808273ffffffffffffffffffffffffffffffffffffffff1673ffffffffffffffffffffffffffffffffffffffff16815260200191505060405180910390f35b61026a6004803603602081101561023e57600080fd5b81019080803573ffffffffffffffffffffffffffffffffffffffff169060200190929190505050610737565b6040518082815260200191505060405180910390f35b6102ac6004803603602081101561029657600080fd5b810190808035906020019092919050505061075e565b6040518082815260200191505060405180910390f35b6102ee600480360360208110156102d857600080fd5b810190808035906020019092919050505061077e565b60405180806020018060200180602001848103845287818151815260200191508051906020019060200280838360005b8381101561033957808201518184015260208101905061031e565b50505050905001848103835286818151815260200191508051906020019060200280838360005b8381101561037b578082015181840152602081019050610360565b50505050905001848103825285818151815260200191508051906020019060200280838360005b838110156103bd5780820151818401526020810190506103a2565b50505050905001965050505050505060405180910390f35b610401600480360360208110156103eb57600080fd5b8101908080359060200190929190505050610973565b6040518082815260200191505060405180910390f35b6104636004803603604081101561042d57600080fd5b8101908080359060200190929190803573ffffffffffffffffffffffffffffffffffffffff169060200190929190505050610985565b6040518082815260200191505060405180910390f35b81801561048557600080fd5b5061051c600480360360a081101561049c57600080fd5b8101908080359060200190929190803573ffffffffffffffffffffffffffffffffffffffff16906020019092919080359060200190929190803573ffffffffffffffffffffffffffffffffffffffff169060200190929190803573ffffffffffffffffffffffffffffffffffffffff1690602001909291905050506109aa565b005b61056a6004803603604081101561053457600080fd5b8101908080359060200190929190803573ffffffffffffffffffffffffffffffffffffffff1690602001909291905050506109e2565b604051808215151515815260200191505060405180910390f35b81801561059057600080fd5b506105dd600480360360408110156105a757600080fd5b8101908080359060200190929190803573ffffffffffffffffffffffffffffffffffffffff169060200190929190505050610a07565b005b8180156105eb57600080fd5b50610682600480360360a081101561060257600080fd5b8101908080359060200190929190803573ffffffffffffffffffffffffffffffffffffffff16906020019092919080359060200190929190803573ffffffffffffffffffffffffffffffffffffffff169060200190929190803573ffffffffffffffffffffffffffffffffffffffff169060200190929190505050610a26565b005b6106b06004803603602081101561069a57600080fd5b8101908080359060200190929190505050610a5e565b604051808273ffffffffffffffffffffffffffffffffffffffff1673ffffffffffffffffffffffffffffffffffffffff16815260200191505060405180910390f35b600061070561070083610a78565b610726565b9050919050565b600061071f61071a83610a8c565b610726565b9050919050565b600060608260001c901c9050919050565b600060608273ffffffffffffffffffffffffffffffffffffffff16901b60001b9050919050565b6000610777826005015483610a9a90919063ffffffff16565b9050919050565b60608060608061078d85610abd565b9050606081516040519080825280602002602001820160405280156107c15781602001602082028038833980820191505090505b509050606082516040519080825280602002602001820160405280156107f65781602001602082028038833980820191505090505b5090506060825160405190808252806020026020018201604052801561082b5781602001602082028038833980820191505090505b50905060008090505b845181101561095e5761085985828151811061084c57fe5b6020026020010151610726565b84828151811061086557fe5b602002602001019073ffffffffffffffffffffffffffffffffffffffff16908173ffffffffffffffffffffffffffffffffffffffff16815250506108c58582815181106108ae57fe5b60200260200101518a610a9a90919063ffffffff16565b8382815181106108d157fe5b6020026020010181815250508860060160008683815181106108ef57fe5b6020026020010151815260200190815260200160002060009054906101000a900460ff1682828151811061091f57fe5b6020026020010190600381111561093257fe5b9081600381111561093f57fe5b81525050610957600182610ad290919063ffffffff16565b9050610834565b50828282965096509650505050509193909250565b600061097e82610b5a565b9050919050565b60006109a261099383610737565b84610a9a90919063ffffffff16565b905092915050565b6109db6109b685610737565b846109c085610737565b6109c985610737565b89610b6e90949392919063ffffffff16565b5050505050565b60006109ff6109f083610737565b84610b8c90919063ffffffff16565b905092915050565b610a22610a1382610737565b83610bac90919063ffffffff16565b5050565b610a57610a3285610737565b84610a3c85610737565b610a4585610737565b89610d2e90949392919063ffffffff16565b5050505050565b6000610a71610a6c83610f99565b610726565b9050919050565b600081600001600001600001549050919050565b600081600501549050919050565b600082600001600401600083815260200190815260200160002054905092915050565b6060610acb82600001610fad565b9050919050565b600080828401905083811015610b50576040517f08c379a000000000000000000000000000000000000000000000000000000000815260040180806020018281038252601b8152602001807f536166654d6174683a206164646974696f6e206f766572666c6f77000000000081525060200191505060405180910390fd5b8091505092915050565b600081600001600001600201549050919050565b610b788585610bac565b610b858585858585610d2e565b5050505050565b6000610ba48284600001610fc290919063ffffffff16565b905092915050565b6000809050600083600001600001600201541415610bd5576000801b8360050181905550610d09565b60006002846000016000016002015481610beb57fe5b061415610c7f5760026003811115610bff57fe5b83600601600084815260200190815260200160002060009054906101000a900460ff166003811115610c2d57fe5b1480610c705750600380811115610c4057fe5b83600601600084815260200190815260200160002060009054906101000a900460ff166003811115610c6e57fe5b145b15610c7a57600190505b610d08565b60016003811115610c8c57fe5b83600601600084815260200190815260200160002060009054906101000a900460ff166003811115610cba57fe5b1480610cfd5750600380811115610ccd57fe5b83600601600084815260200190815260200160002060009054906101000a900460ff166003811115610cfb57fe5b145b15610d0757600290505b5b5b610d138382610fe2565b610d29828460000161111990919063ffffffff16565b505050565b610d4a848484848960000161114e90949392919063ffffffff16565b600085600001600001600301600086815260200190815260200160002090506000809050600187600001600001600201541415610dc657858760050181905550600387600601600088815260200190815260200160002060006101000a81548160ff02191690836003811115610dbc57fe5b0217905550610f86565b60016002886000016000016002015481610ddc57fe5b061415610eb6576000801b82600001541480610e34575060016003811115610e0057fe5b8760060160008460000154815260200190815260200160002060009054906101000a900460ff166003811115610e3257fe5b145b15610e795760019050600187600601600088815260200190815260200160002060006101000a81548160ff02191690836003811115610e6f57fe5b0217905550610eb1565b600287600601600088815260200190815260200160002060006101000a81548160ff02191690836003811115610eab57fe5b02179055505b610f85565b6000801b82600101541480610f07575060026003811115610ed357fe5b8760060160008460010154815260200190815260200160002060009054906101000a900460ff166003811115610f0557fe5b145b15610f4c5760029050600287600601600088815260200190815260200160002060006101000a81548160ff02191690836003811115610f4257fe5b0217905550610f84565b600187600601600088815260200190815260200160002060006101000a81548160ff02191690836003811115610f7e57fe5b02179055505b5b5b610f908782610fe2565b50505050505050565b600081600001600001600101549050919050565b6060610fbb826000016113ec565b9050919050565b6000610fda828460000161140390919063ffffffff16565b905092915050565b60008260000160000160030160008460050154815260200190815260200160002090506001600281111561101257fe5b82600281111561101e57fe5b14156110715760028360060160008560050154815260200190815260200160002060006101000a81548160ff0219169083600381111561105a57fe5b0217905550806000015483600501819055506110d9565b60028081111561107d57fe5b82600281111561108957fe5b14156110d85760018360060160008560050154815260200190815260200160002060006101000a81548160ff021916908360038111156110c557fe5b0217905550806001015483600501819055505b5b60038360060160008560050154815260200190815260200160002060006101000a81548160ff0219169083600381111561110f57fe5b0217905550505050565b61112f818360000161143390919063ffffffff16565b6000826004016000838152602001908152602001600020819055505050565b6000801b84141580156111615750818414155b801561116d5750808414155b8015611180575061117e8585610fc2565b155b6111f2576040517f08c379a000000000000000000000000000000000000000000000000000000000815260040180806020018281038252600b8152602001807f696e76616c6964206b657900000000000000000000000000000000000000000081525060200191505060405180910390fd5b6000801b8214158061120757506000801b8114155b80611219575060008560000160020154145b61128b576040517f08c379a000000000000000000000000000000000000000000000000000000000815260040180806020018281038252601b8152602001807f6772656174657220616e64206c6573736572206b6579207a65726f000000000081525060200191505060405180910390fd5b6112958583610fc2565b806112a257506000801b82145b611314576040517f08c379a00000000000000000000000000000000000000000000000000000000081526004018080602001828103825260128152602001807f696e76616c6964206c6573736572206b6579000000000000000000000000000081525060200191505060405180910390fd5b61131e8582610fc2565b8061132b57506000801b81145b61139d576040517f08c379a00000000000000000000000000000000000000000000000000000000081526004018080602001828103825260138152602001807f696e76616c69642067726561746572206b65790000000000000000000000000081525060200191505060405180910390fd5b6113a9858484846115d0565b80925081935050506113cb84838388600001611783909392919063ffffffff16565b82856004016000868152602001908152602001600020819055505050505050565b60606113fc828360020154611bca565b9050919050565b600082600301600083815260200190815260200160002060020160009054906101000a900460ff16905092915050565b600082600301600083815260200190815260200160002090506000801b821415801561146557506114648383611403565b5b6114d7576040517f08c379a000000000000000000000000000000000000000000000000000000000815260040180806020018281038252600f8152602001807f6b6579206e6f7420696e206c697374000000000000000000000000000000000081525060200191505060405180910390fd5b6000801b8160000154146115155760008360030160008360000154815260200190815260200160002090508160010154816001018190555050611523565b806001015483600101819055505b6000801b816001015414611561576000836003016000836001015481526020019081526020016000209050816000015481600001819055505061156f565b806000015483600001819055505b82600301600083815260200190815260200160002060008082016000905560018201600090556002820160006101000a81549060ff021916905550506115c360018460020154611cec90919063ffffffff16565b8360020181905550505050565b6000806000801b841480156115f457506115f38686868960000160010154611d36565b5b1561160b578386600001600101549150915061177a565b6000801b8314801561162c575061162b8686886000016000015486611d36565b5b15611643578560000160000154839150915061177a565b6000801b8414158015611679575061167886868689600001600301600089815260200190815260200160002060010154611d36565b5b156116a45783866000016003016000868152602001908152602001600020600101549150915061177a565b6000801b83141580156116da57506116d986868860000160030160008781526020019081526020016000206000015486611d36565b5b156117055785600001600301600084815260200190815260200160002060000154839150915061177a565b6000611779576040517f08c379a000000000000000000000000000000000000000000000000000000000815260040180806020018281038252601e8152602001807f676574206c657373657220616e642067726561746572206661696c757265000081525060200191505060405180910390fd5b5b94509492505050565b6000801b8314156117fc576040517f08c379a00000000000000000000000000000000000000000000000000000000081526004018080602001828103825260138152602001807f4b6579206d75737420626520646566696e65640000000000000000000000000081525060200191505060405180910390fd5b6118068484611403565b15611879576040517f08c379a00000000000000000000000000000000000000000000000000000000081526004018080602001828103825260208152602001807f43616e277420696e7365727420616e206578697374696e6720656c656d656e7481525060200191505060405180910390fd5b8282141580156118895750828114155b6118de576040517f08c379a0000000000000000000000000000000000000000000000000000000008152600401808060200182810382526030815260200180611e626030913960400191505060405180910390fd5b6000846003016000858152602001908152602001600020905060018160020160006101000a81548160ff02191690831515021790555060008560020154141561193857838560010181905550838560000181905550611ba3565b6000801b8314158061194d57506000801b8214155b6119a2576040517f08c379a000000000000000000000000000000000000000000000000000000000815260040180806020018281038252602d815260200180611f1d602d913960400191505060405180910390fd5b8281600001819055508181600101819055506000801b8314611aa1576119c88584611403565b611a1d576040517f08c379a0000000000000000000000000000000000000000000000000000000008152600401808060200182810382526034815260200180611eb96034913960400191505060405180910390fd5b6000856003016000858152602001908152602001600020905082816001015414611a92576040517f08c379a0000000000000000000000000000000000000000000000000000000008152600401808060200182810382526027815260200180611e926027913960400191505060405180910390fd5b84816001018190555050611aab565b8385600101819055505b6000801b8214611b9857611abf8583611403565b611b14576040517f08c379a0000000000000000000000000000000000000000000000000000000008152600401808060200182810382526030815260200180611eed6030913960400191505060405180910390fd5b6000856003016000848152602001908152602001600020905083816000015414611b89576040517f08c379a0000000000000000000000000000000000000000000000000000000008152600401808060200182810382526027815260200180611e926027913960400191505060405180910390fd5b84816000018190555050611ba2565b8385600001819055505b5b611bbb60018660020154610ad290919063ffffffff16565b85600201819055505050505050565b60608260020154821115611c46576040517f08c379a00000000000000000000000000000000000000000000000000000000081526004018080602001828103825260138152602001807f6e6f7420656e6f75676820656c656d656e74730000000000000000000000000081525060200191505060405180910390fd5b606082604051908082528060200260200182016040528015611c775781602001602082028038833980820191505090505b50905060008460000154905060008090505b84811015611ce05781838281518110611c9e57fe5b602002602001018181525050856003016000838152602001908152602001600020600001549150611cd9600182610ad290919063ffffffff16565b9050611c89565b50819250505092915050565b6000611d2e83836040518060400160405280601e81526020017f536166654d6174683a207375627472616374696f6e206f766572666c6f770000815250611da1565b905092915050565b6000806000801b841480611d5f5750848660040160008681526020019081526020016000205411155b905060008060001b841480611d895750858760040160008681526020019081526020016000205410155b9050818015611d955750805b92505050949350505050565b6000838311158290611e4e576040517f08c379a00000000000000000000000000000000000000000000000000000000081526004018080602001828103825283818151815260200191508051906020019080838360005b83811015611e13578082015181840152602081019050611df8565b50505050905090810190601f168015611e405780820380516001836020036101000a031916815260200191505b509250505060405180910390fd5b506000838503905080915050939250505056fe4b65792063616e6e6f74206265207468652073616d652061732070726576696f75734b6579206f72206e6578744b657970726576696f75734b6579206d7573742062652061646a6163656e7420746f206e6578744b657949662070726576696f75734b657920697320646566696e65642c206974206d75737420657869737420696e20746865206c6973744966206e6578744b657920697320646566696e65642c206974206d75737420657869737420696e20746865206c6973744569746865722070726576696f75734b6579206f72206e6578744b6579206d75737420626520646566696e6564a265627a7a72315820b0f42086149e35556b572530fdf197d050c2b8306c9fbcdc50b2f4fd248bf18764736f6c634300050d0032",
  "source": "pragma solidity ^0.5.13;\n\nimport \"openzeppelin-solidity/contracts/math/SafeMath.sol\";\n\nimport \"./SortedLinkedListWithMedian.sol\";\n\n/**\n * @title Maintains a sorted list of unsigned ints keyed by address.\n */\nlibrary AddressSortedLinkedListWithMedian {\n  using SafeMath for uint256;\n  using SortedLinkedListWithMedian for SortedLinkedListWithMedian.List;\n\n  function toBytes(address a) public pure returns (bytes32) {\n    return bytes32(uint256(a) << 96);\n  }\n\n  function toAddress(bytes32 b) public pure returns (address) {\n    return address(uint256(b) >> 96);\n  }\n\n  /**\n   * @notice Inserts an element into a doubly linked list.\n   * @param list A storage pointer to the underlying list.\n   * @param key The key of the element to insert.\n   * @param value The element value.\n   * @param lesserKey The key of the element less than the element to insert.\n   * @param greaterKey The key of the element greater than the element to insert.\n   */\n  function insert(\n    SortedLinkedListWithMedian.List storage list,\n    address key,\n    uint256 value,\n    address lesserKey,\n    address greaterKey\n  ) public {\n    list.insert(toBytes(key), value, toBytes(lesserKey), toBytes(greaterKey));\n  }\n\n  /**\n   * @notice Removes an element from the doubly linked list.\n   * @param list A storage pointer to the underlying list.\n   * @param key The key of the element to remove.\n   */\n  function remove(SortedLinkedListWithMedian.List storage list, address key) public {\n    list.remove(toBytes(key));\n  }\n\n  /**\n   * @notice Updates an element in the list.\n   * @param list A storage pointer to the underlying list.\n   * @param key The element key.\n   * @param value The element value.\n   * @param lesserKey The key of the element will be just left of `key` after the update.\n   * @param greaterKey The key of the element will be just right of `key` after the update.\n   * @dev Note that only one of \"lesserKey\" or \"greaterKey\" needs to be correct to reduce friction.\n   */\n  function update(\n    SortedLinkedListWithMedian.List storage list,\n    address key,\n    uint256 value,\n    address lesserKey,\n    address greaterKey\n  ) public {\n    list.update(toBytes(key), value, toBytes(lesserKey), toBytes(greaterKey));\n  }\n\n  /**\n   * @notice Returns whether or not a particular key is present in the sorted list.\n   * @param list A storage pointer to the underlying list.\n   * @param key The element key.\n   * @return Whether or not the key is in the sorted list.\n   */\n  function contains(SortedLinkedListWithMedian.List storage list, address key)\n    public\n    view\n    returns (bool)\n  {\n    return list.contains(toBytes(key));\n  }\n\n  /**\n   * @notice Returns the value for a particular key in the sorted list.\n   * @param list A storage pointer to the underlying list.\n   * @param key The element key.\n   * @return The element value.\n   */\n  function getValue(SortedLinkedListWithMedian.List storage list, address key)\n    public\n    view\n    returns (uint256)\n  {\n    return list.getValue(toBytes(key));\n  }\n\n  /**\n   * @notice Returns the median value of the sorted list.\n   * @param list A storage pointer to the underlying list.\n   * @return The median value.\n   */\n  function getMedianValue(SortedLinkedListWithMedian.List storage list)\n    public\n    view\n    returns (uint256)\n  {\n    return list.getValue(list.median);\n  }\n\n  /**\n   * @notice Returns the key of the first element in the list.\n   * @param list A storage pointer to the underlying list.\n   * @return The key of the first element in the list.\n   */\n  function getHead(SortedLinkedListWithMedian.List storage list) external view returns (address) {\n    return toAddress(list.getHead());\n  }\n\n  /**\n   * @notice Returns the key of the median element in the list.\n   * @param list A storage pointer to the underlying list.\n   * @return The key of the median element in the list.\n   */\n  function getMedian(SortedLinkedListWithMedian.List storage list) external view returns (address) {\n    return toAddress(list.getMedian());\n  }\n\n  /**\n   * @notice Returns the key of the last element in the list.\n   * @param list A storage pointer to the underlying list.\n   * @return The key of the last element in the list.\n   */\n  function getTail(SortedLinkedListWithMedian.List storage list) external view returns (address) {\n    return toAddress(list.getTail());\n  }\n\n  /**\n   * @notice Returns the number of elements in the list.\n   * @param list A storage pointer to the underlying list.\n   * @return The number of elements in the list.\n   */\n  function getNumElements(SortedLinkedListWithMedian.List storage list)\n    external\n    view\n    returns (uint256)\n  {\n    return list.getNumElements();\n  }\n\n  /**\n   * @notice Gets all elements from the doubly linked list.\n   * @param list A storage pointer to the underlying list.\n   * @return Array of all keys in the list.\n   * @return Values corresponding to keys, which will be ordered largest to smallest.\n   * @return Array of relations to median of corresponding list elements.\n   */\n  function getElements(SortedLinkedListWithMedian.List storage list)\n    public\n    view\n    returns (address[] memory, uint256[] memory, SortedLinkedListWithMedian.MedianRelation[] memory)\n  {\n    bytes32[] memory byteKeys = list.getKeys();\n    address[] memory keys = new address[](byteKeys.length);\n    uint256[] memory values = new uint256[](byteKeys.length);\n    // prettier-ignore\n    SortedLinkedListWithMedian.MedianRelation[] memory relations =\n      new SortedLinkedListWithMedian.MedianRelation[](keys.length);\n    for (uint256 i = 0; i < byteKeys.length; i = i.add(1)) {\n      keys[i] = toAddress(byteKeys[i]);\n      values[i] = list.getValue(byteKeys[i]);\n      relations[i] = list.relation[byteKeys[i]];\n    }\n    return (keys, values, relations);\n  }\n}\n",
  "sourcePath": "/Users/beaver/Development/celo/celo-monorepo/packages/protocol/contracts/common/linkedlists/AddressSortedLinkedListWithMedian.sol",
  "compiler": {
    "name": "solc",
    "version": "0.5.13+commit.5b0b510c.Emscripten.clang"
  },
  "schemaVersion": "3.4.13",
  "updatedAt": "2024-03-05T15:26:45.393Z",
  "networkType": "ethereum",
  "devdoc": {
    "methods": {
      "contains(SortedLinkedListWithMedian.List storage,address)": {
        "params": {
          "key": "The element key.",
          "list": "A storage pointer to the underlying list."
        },
        "return": "Whether or not the key is in the sorted list."
      },
      "getElements(SortedLinkedListWithMedian.List storage)": {
        "params": {
          "list": "A storage pointer to the underlying list."
        },
        "return": "Array of all keys in the list.Values corresponding to keys, which will be ordered largest to smallest.Array of relations to median of corresponding list elements."
      },
      "getHead(SortedLinkedListWithMedian.List storage)": {
        "params": {
          "list": "A storage pointer to the underlying list."
        },
        "return": "The key of the first element in the list."
      },
      "getMedian(SortedLinkedListWithMedian.List storage)": {
        "params": {
          "list": "A storage pointer to the underlying list."
        },
        "return": "The key of the median element in the list."
      },
      "getMedianValue(SortedLinkedListWithMedian.List storage)": {
        "params": {
          "list": "A storage pointer to the underlying list."
        },
        "return": "The median value."
      },
      "getNumElements(SortedLinkedListWithMedian.List storage)": {
        "params": {
          "list": "A storage pointer to the underlying list."
        },
        "return": "The number of elements in the list."
      },
      "getTail(SortedLinkedListWithMedian.List storage)": {
        "params": {
          "list": "A storage pointer to the underlying list."
        },
        "return": "The key of the last element in the list."
      },
      "getValue(SortedLinkedListWithMedian.List storage,address)": {
        "params": {
          "key": "The element key.",
          "list": "A storage pointer to the underlying list."
        },
        "return": "The element value."
      },
      "insert(SortedLinkedListWithMedian.List storage,address,uint256,address,address)": {
        "params": {
          "greaterKey": "The key of the element greater than the element to insert.",
          "key": "The key of the element to insert.",
          "lesserKey": "The key of the element less than the element to insert.",
          "list": "A storage pointer to the underlying list.",
          "value": "The element value."
        }
      },
      "remove(SortedLinkedListWithMedian.List storage,address)": {
        "params": {
          "key": "The key of the element to remove.",
          "list": "A storage pointer to the underlying list."
        }
      },
      "update(SortedLinkedListWithMedian.List storage,address,uint256,address,address)": {
        "details": "Note that only one of \"lesserKey\" or \"greaterKey\" needs to be correct to reduce friction.",
        "params": {
          "greaterKey": "The key of the element will be just right of `key` after the update.",
          "key": "The element key.",
          "lesserKey": "The key of the element will be just left of `key` after the update.",
          "list": "A storage pointer to the underlying list.",
          "value": "The element value."
        }
      }
    },
    "title": "Maintains a sorted list of unsigned ints keyed by address."
  },
  "userdoc": {
    "methods": {
      "contains(SortedLinkedListWithMedian.List storage,address)": {
        "notice": "Returns whether or not a particular key is present in the sorted list."
      },
      "getElements(SortedLinkedListWithMedian.List storage)": {
        "notice": "Gets all elements from the doubly linked list."
      },
      "getHead(SortedLinkedListWithMedian.List storage)": {
        "notice": "Returns the key of the first element in the list."
      },
      "getMedian(SortedLinkedListWithMedian.List storage)": {
        "notice": "Returns the key of the median element in the list."
      },
      "getMedianValue(SortedLinkedListWithMedian.List storage)": {
        "notice": "Returns the median value of the sorted list."
      },
      "getNumElements(SortedLinkedListWithMedian.List storage)": {
        "notice": "Returns the number of elements in the list."
      },
      "getTail(SortedLinkedListWithMedian.List storage)": {
        "notice": "Returns the key of the last element in the list."
      },
      "getValue(SortedLinkedListWithMedian.List storage,address)": {
        "notice": "Returns the value for a particular key in the sorted list."
      },
      "insert(SortedLinkedListWithMedian.List storage,address,uint256,address,address)": {
        "notice": "Inserts an element into a doubly linked list."
      },
      "remove(SortedLinkedListWithMedian.List storage,address)": {
        "notice": "Removes an element from the doubly linked list."
      },
      "update(SortedLinkedListWithMedian.List storage,address,uint256,address,address)": {
        "notice": "Updates an element in the list."
      }
    }
  }
}