{
  "contractName": "AttestationsTest",
  "abi": [
    {
      "anonymous": false,
      "inputs": [
        {
          "indexed": true,
          "internalType": "bytes32",
          "name": "identifier",
          "type": "bytes32"
        },
        {
          "indexed": true,
          "internalType": "address",
          "name": "account",
          "type": "address"
        },
        {
          "indexed": true,
          "internalType": "address",
          "name": "issuer",
          "type": "address"
        }
      ],
      "name": "AttestationCompleted",
      "type": "event"
    },
    {
      "anonymous": false,
      "inputs": [
        {
          "indexed": false,
          "internalType": "uint256",
          "name": "value",
          "type": "uint256"
        }
      ],
      "name": "AttestationExpiryBlocksSet",
      "type": "event"
    },
    {
      "anonymous": false,
      "inputs": [
        {
          "indexed": true,
          "internalType": "bytes32",
          "name": "identifier",
          "type": "bytes32"
        },
        {
          "indexed": true,
          "internalType": "address",
          "name": "account",
          "type": "address"
        },
        {
          "indexed": true,
          "internalType": "address",
          "name": "issuer",
          "type": "address"
        },
        {
          "indexed": false,
          "internalType": "address",
          "name": "attestationRequestFeeToken",
          "type": "address"
        }
      ],
      "name": "AttestationIssuerSelected",
      "type": "event"
    },
    {
      "anonymous": false,
      "inputs": [
        {
          "indexed": true,
          "internalType": "address",
          "name": "token",
          "type": "address"
        },
        {
          "indexed": false,
          "internalType": "uint256",
          "name": "value",
          "type": "uint256"
        }
      ],
      "name": "AttestationRequestFeeSet",
      "type": "event"
    },
    {
      "anonymous": false,
      "inputs": [
        {
          "indexed": true,
          "internalType": "bytes32",
          "name": "identifier",
          "type": "bytes32"
        },
        {
          "indexed": true,
          "internalType": "address",
          "name": "account",
          "type": "address"
        },
        {
          "indexed": false,
          "internalType": "uint256",
          "name": "attestationsRequested",
          "type": "uint256"
        },
        {
          "indexed": false,
          "internalType": "address",
          "name": "attestationRequestFeeToken",
          "type": "address"
        }
      ],
      "name": "AttestationsRequested",
      "type": "event"
    },
    {
      "anonymous": false,
      "inputs": [
        {
          "indexed": true,
          "internalType": "bytes32",
          "name": "identifier",
          "type": "bytes32"
        },
        {
          "indexed": true,
          "internalType": "address",
          "name": "fromAccount",
          "type": "address"
        },
        {
          "indexed": true,
          "internalType": "address",
          "name": "toAccount",
          "type": "address"
        }
      ],
      "name": "AttestationsTransferred",
      "type": "event"
    },
    {
      "anonymous": false,
      "inputs": [
        {
          "indexed": false,
          "internalType": "uint256",
          "name": "value",
          "type": "uint256"
        }
      ],
      "name": "MaxAttestationsSet",
      "type": "event"
    },
    {
      "anonymous": false,
      "inputs": [
        {
          "indexed": true,
          "internalType": "address",
          "name": "previousOwner",
          "type": "address"
        },
        {
          "indexed": true,
          "internalType": "address",
          "name": "newOwner",
          "type": "address"
        }
      ],
      "name": "OwnershipTransferred",
      "type": "event"
    },
    {
      "anonymous": false,
      "inputs": [
        {
          "indexed": true,
          "internalType": "address",
          "name": "registryAddress",
          "type": "address"
        }
      ],
      "name": "RegistrySet",
      "type": "event"
    },
    {
      "anonymous": false,
      "inputs": [
        {
          "indexed": false,
          "internalType": "uint256",
          "name": "value",
          "type": "uint256"
        }
      ],
      "name": "SelectIssuersWaitBlocksSet",
      "type": "event"
    },
    {
      "anonymous": false,
      "inputs": [
        {
          "indexed": true,
          "internalType": "address",
          "name": "approver",
          "type": "address"
        },
        {
          "indexed": true,
          "internalType": "bytes32",
          "name": "indentifier",
          "type": "bytes32"
        },
        {
          "indexed": false,
          "internalType": "address",
          "name": "from",
          "type": "address"
        },
        {
          "indexed": false,
          "internalType": "address",
          "name": "to",
          "type": "address"
        },
        {
          "indexed": false,
          "internalType": "bool",
          "name": "approved",
          "type": "bool"
        }
      ],
      "name": "TransferApproval",
      "type": "event"
    },
    {
      "anonymous": false,
      "inputs": [
        {
          "indexed": true,
          "internalType": "address",
          "name": "account",
          "type": "address"
        },
        {
          "indexed": true,
          "internalType": "address",
          "name": "token",
          "type": "address"
        },
        {
          "indexed": false,
          "internalType": "uint256",
          "name": "amount",
          "type": "uint256"
        }
      ],
      "name": "Withdrawal",
      "type": "event"
    },
    {
      "constant": true,
      "inputs": [],
      "name": "attestationExpiryBlocks",
      "outputs": [
        {
          "internalType": "uint256",
          "name": "",
          "type": "uint256"
        }
      ],
      "payable": false,
      "stateMutability": "view",
      "type": "function"
    },
    {
      "constant": true,
      "inputs": [
        {
          "internalType": "address",
          "name": "",
          "type": "address"
        }
      ],
      "name": "attestationRequestFees",
      "outputs": [
        {
          "internalType": "uint256",
          "name": "",
          "type": "uint256"
        }
      ],
      "payable": false,
      "stateMutability": "view",
      "type": "function"
    },
    {
      "constant": true,
      "inputs": [
        {
          "internalType": "bytes32[]",
          "name": "identifiersToLookup",
          "type": "bytes32[]"
        }
      ],
      "name": "batchGetAttestationStats",
      "outputs": [
        {
          "internalType": "uint256[]",
          "name": "",
          "type": "uint256[]"
        },
        {
          "internalType": "address[]",
          "name": "",
          "type": "address[]"
        },
        {
          "internalType": "uint64[]",
          "name": "",
          "type": "uint64[]"
        },
        {
          "internalType": "uint64[]",
          "name": "",
          "type": "uint64[]"
        }
      ],
      "payable": false,
      "stateMutability": "view",
      "type": "function"
    },
    {
      "constant": true,
      "inputs": [
        {
          "internalType": "address",
          "name": "sender",
          "type": "address"
        },
        {
          "internalType": "bytes",
          "name": "blsKey",
          "type": "bytes"
        },
        {
          "internalType": "bytes",
          "name": "blsPop",
          "type": "bytes"
        }
      ],
      "name": "checkProofOfPossession",
      "outputs": [
        {
          "internalType": "bool",
          "name": "",
          "type": "bool"
        }
      ],
      "payable": false,
      "stateMutability": "view",
      "type": "function"
    },
    {
      "constant": true,
      "inputs": [
        {
          "internalType": "uint256",
          "name": "aNumerator",
          "type": "uint256"
        },
        {
          "internalType": "uint256",
          "name": "aDenominator",
          "type": "uint256"
        },
        {
          "internalType": "uint256",
          "name": "bNumerator",
          "type": "uint256"
        },
        {
          "internalType": "uint256",
          "name": "bDenominator",
          "type": "uint256"
        },
        {
          "internalType": "uint256",
          "name": "exponent",
          "type": "uint256"
        },
        {
          "internalType": "uint256",
          "name": "_decimals",
          "type": "uint256"
        }
      ],
      "name": "fractionMulExp",
      "outputs": [
        {
          "internalType": "uint256",
          "name": "",
          "type": "uint256"
        },
        {
          "internalType": "uint256",
          "name": "",
          "type": "uint256"
        }
      ],
      "payable": false,
      "stateMutability": "view",
      "type": "function"
    },
    {
      "constant": true,
      "inputs": [
        {
          "internalType": "bytes32",
          "name": "identifier",
          "type": "bytes32"
        },
        {
          "internalType": "address",
          "name": "account",
          "type": "address"
        }
      ],
      "name": "getAttestationIssuers",
      "outputs": [
        {
          "internalType": "address[]",
          "name": "",
          "type": "address[]"
        }
      ],
      "payable": false,
      "stateMutability": "view",
      "type": "function"
    },
    {
      "constant": true,
      "inputs": [
        {
          "internalType": "address",
          "name": "token",
          "type": "address"
        }
      ],
      "name": "getAttestationRequestFee",
      "outputs": [
        {
          "internalType": "uint256",
          "name": "",
          "type": "uint256"
        }
      ],
      "payable": false,
      "stateMutability": "view",
      "type": "function"
    },
    {
      "constant": true,
      "inputs": [
        {
          "internalType": "bytes32",
          "name": "identifier",
          "type": "bytes32"
        },
        {
          "internalType": "address",
          "name": "account",
          "type": "address"
        },
        {
          "internalType": "address",
          "name": "issuer",
          "type": "address"
        }
      ],
      "name": "getAttestationState",
      "outputs": [
        {
          "internalType": "uint8",
          "name": "",
          "type": "uint8"
        },
        {
          "internalType": "uint32",
          "name": "",
          "type": "uint32"
        },
        {
          "internalType": "address",
          "name": "",
          "type": "address"
        }
      ],
      "payable": false,
      "stateMutability": "view",
      "type": "function"
    },
    {
      "constant": true,
      "inputs": [
        {
          "internalType": "bytes32",
          "name": "identifier",
          "type": "bytes32"
        },
        {
          "internalType": "address",
          "name": "account",
          "type": "address"
        }
      ],
      "name": "getAttestationStats",
      "outputs": [
        {
          "internalType": "uint32",
          "name": "",
          "type": "uint32"
        },
        {
          "internalType": "uint32",
          "name": "",
          "type": "uint32"
        }
      ],
      "payable": false,
      "stateMutability": "view",
      "type": "function"
    },
    {
      "constant": true,
      "inputs": [
        {
          "internalType": "bytes",
          "name": "header",
          "type": "bytes"
        }
      ],
      "name": "getBlockNumberFromHeader",
      "outputs": [
        {
          "internalType": "uint256",
          "name": "",
          "type": "uint256"
        }
      ],
      "payable": false,
      "stateMutability": "view",
      "type": "function"
    },
    {
      "constant": true,
      "inputs": [
        {
          "internalType": "bytes32",
          "name": "identifier",
          "type": "bytes32"
        },
        {
          "internalType": "address",
          "name": "account",
          "type": "address"
        }
      ],
      "name": "getCompletableAttestations",
      "outputs": [
        {
          "internalType": "uint32[]",
          "name": "",
          "type": "uint32[]"
        },
        {
          "internalType": "address[]",
          "name": "",
          "type": "address[]"
        },
        {
          "internalType": "uint256[]",
          "name": "",
          "type": "uint256[]"
        },
        {
          "internalType": "bytes",
          "name": "",
          "type": "bytes"
        }
      ],
      "payable": false,
      "stateMutability": "view",
      "type": "function"
    },
    {
      "constant": true,
      "inputs": [],
      "name": "getEpochNumber",
      "outputs": [
        {
          "internalType": "uint256",
          "name": "",
          "type": "uint256"
        }
      ],
      "payable": false,
      "stateMutability": "view",
      "type": "function"
    },
    {
      "constant": true,
      "inputs": [
        {
          "internalType": "uint256",
          "name": "blockNumber",
          "type": "uint256"
        }
      ],
      "name": "getEpochNumberOfBlock",
      "outputs": [
        {
          "internalType": "uint256",
          "name": "",
          "type": "uint256"
        }
      ],
      "payable": false,
      "stateMutability": "view",
      "type": "function"
    },
    {
      "constant": true,
      "inputs": [],
      "name": "getEpochSize",
      "outputs": [
        {
          "internalType": "uint256",
          "name": "",
          "type": "uint256"
        }
      ],
      "payable": false,
      "stateMutability": "view",
      "type": "function"
    },
    {
      "constant": true,
      "inputs": [],
      "name": "getMaxAttestations",
      "outputs": [
        {
          "internalType": "uint256",
          "name": "",
          "type": "uint256"
        }
      ],
      "payable": false,
      "stateMutability": "view",
      "type": "function"
    },
    {
      "constant": true,
      "inputs": [
        {
          "internalType": "uint256",
          "name": "blockNumber",
          "type": "uint256"
        }
      ],
      "name": "getParentSealBitmap",
      "outputs": [
        {
          "internalType": "bytes32",
          "name": "",
          "type": "bytes32"
        }
      ],
      "payable": false,
      "stateMutability": "view",
      "type": "function"
    },
    {
      "constant": true,
      "inputs": [
        {
          "internalType": "bytes32",
          "name": "identifier",
          "type": "bytes32"
        },
        {
          "internalType": "address",
          "name": "account",
          "type": "address"
        }
      ],
      "name": "getUnselectedRequest",
      "outputs": [
        {
          "internalType": "uint32",
          "name": "",
          "type": "uint32"
        },
        {
          "internalType": "uint32",
          "name": "",
          "type": "uint32"
        },
        {
          "internalType": "address",
          "name": "",
          "type": "address"
        }
      ],
      "payable": false,
      "stateMutability": "view",
      "type": "function"
    },
    {
      "constant": true,
      "inputs": [
        {
          "internalType": "bytes",
          "name": "header",
          "type": "bytes"
        }
      ],
      "name": "getVerifiedSealBitmapFromHeader",
      "outputs": [
        {
          "internalType": "bytes32",
          "name": "",
          "type": "bytes32"
        }
      ],
      "payable": false,
      "stateMutability": "view",
      "type": "function"
    },
    {
      "constant": true,
      "inputs": [],
      "name": "getVersionNumber",
      "outputs": [
        {
          "internalType": "uint256",
          "name": "",
          "type": "uint256"
        },
        {
          "internalType": "uint256",
          "name": "",
          "type": "uint256"
        },
        {
          "internalType": "uint256",
          "name": "",
          "type": "uint256"
        },
        {
          "internalType": "uint256",
          "name": "",
          "type": "uint256"
        }
      ],
      "payable": false,
      "stateMutability": "pure",
      "type": "function"
    },
    {
      "constant": true,
      "inputs": [
        {
          "internalType": "bytes",
          "name": "header",
          "type": "bytes"
        }
      ],
      "name": "hashHeader",
      "outputs": [
        {
          "internalType": "bytes32",
          "name": "",
          "type": "bytes32"
        }
      ],
      "payable": false,
      "stateMutability": "view",
      "type": "function"
    },
    {
      "constant": false,
      "inputs": [
        {
          "internalType": "address",
          "name": "registryAddress",
          "type": "address"
        },
        {
          "internalType": "uint256",
          "name": "_attestationExpiryBlocks",
          "type": "uint256"
        },
        {
          "internalType": "uint256",
          "name": "_selectIssuersWaitBlocks",
          "type": "uint256"
        },
        {
          "internalType": "uint256",
          "name": "_maxAttestations",
          "type": "uint256"
        },
        {
          "internalType": "address[]",
          "name": "attestationRequestFeeTokens",
          "type": "address[]"
        },
        {
          "internalType": "uint256[]",
          "name": "attestationRequestFeeValues",
          "type": "uint256[]"
        }
      ],
      "name": "initialize",
      "outputs": [],
      "payable": false,
      "stateMutability": "nonpayable",
      "type": "function"
    },
    {
      "constant": true,
      "inputs": [],
      "name": "initialized",
      "outputs": [
        {
          "internalType": "bool",
          "name": "",
          "type": "bool"
        }
      ],
      "payable": false,
      "stateMutability": "view",
      "type": "function"
    },
    {
      "constant": true,
      "inputs": [],
      "name": "isOwner",
      "outputs": [
        {
          "internalType": "bool",
          "name": "",
          "type": "bool"
        }
      ],
      "payable": false,
      "stateMutability": "view",
      "type": "function"
    },
    {
      "constant": true,
      "inputs": [
        {
          "internalType": "bytes32",
          "name": "identifier",
          "type": "bytes32"
        }
      ],
      "name": "lookupAccountsForIdentifier",
      "outputs": [
        {
          "internalType": "address[]",
          "name": "",
          "type": "address[]"
        }
      ],
      "payable": false,
      "stateMutability": "view",
      "type": "function"
    },
    {
      "constant": true,
      "inputs": [],
      "name": "maxAttestations",
      "outputs": [
        {
          "internalType": "uint256",
          "name": "",
          "type": "uint256"
        }
      ],
      "payable": false,
      "stateMutability": "view",
      "type": "function"
    },
    {
      "constant": true,
      "inputs": [
        {
          "internalType": "uint256",
          "name": "blockNumber",
          "type": "uint256"
        }
      ],
      "name": "minQuorumSize",
      "outputs": [
        {
          "internalType": "uint256",
          "name": "",
          "type": "uint256"
        }
      ],
      "payable": false,
      "stateMutability": "view",
      "type": "function"
    },
    {
      "constant": true,
      "inputs": [],
      "name": "minQuorumSizeInCurrentSet",
      "outputs": [
        {
          "internalType": "uint256",
          "name": "",
          "type": "uint256"
        }
      ],
      "payable": false,
      "stateMutability": "view",
      "type": "function"
    },
    {
      "constant": true,
      "inputs": [
        {
          "internalType": "uint256",
          "name": "blockNumber",
          "type": "uint256"
        }
      ],
      "name": "numberValidatorsInSet",
      "outputs": [
        {
          "internalType": "uint256",
          "name": "",
          "type": "uint256"
        }
      ],
      "payable": false,
      "stateMutability": "view",
      "type": "function"
    },
    {
      "constant": true,
      "inputs": [],
      "name": "owner",
      "outputs": [
        {
          "internalType": "address",
          "name": "",
          "type": "address"
        }
      ],
      "payable": false,
      "stateMutability": "view",
      "type": "function"
    },
    {
      "constant": true,
      "inputs": [
        {
          "internalType": "address",
          "name": "",
          "type": "address"
        },
        {
          "internalType": "address",
          "name": "",
          "type": "address"
        }
      ],
      "name": "pendingWithdrawals",
      "outputs": [
        {
          "internalType": "uint256",
          "name": "",
          "type": "uint256"
        }
      ],
      "payable": false,
      "stateMutability": "view",
      "type": "function"
    },
    {
      "constant": true,
      "inputs": [],
      "name": "registry",
      "outputs": [
        {
          "internalType": "contract IRegistry",
          "name": "",
          "type": "address"
        }
      ],
      "payable": false,
      "stateMutability": "view",
      "type": "function"
    },
    {
      "constant": false,
      "inputs": [],
      "name": "renounceOwnership",
      "outputs": [],
      "payable": false,
      "stateMutability": "nonpayable",
      "type": "function"
    },
    {
      "constant": true,
      "inputs": [
        {
          "internalType": "bytes32",
          "name": "identifier",
          "type": "bytes32"
        },
        {
          "internalType": "address",
          "name": "account",
          "type": "address"
        },
        {
          "internalType": "uint32",
          "name": "expected",
          "type": "uint32"
        }
      ],
      "name": "requireNAttestationsRequested",
      "outputs": [],
      "payable": false,
      "stateMutability": "view",
      "type": "function"
    },
    {
      "constant": false,
      "inputs": [
        {
          "internalType": "bytes32",
          "name": "identifier",
          "type": "bytes32"
        },
        {
          "internalType": "uint256",
          "name": "index",
          "type": "uint256"
        }
      ],
      "name": "revoke",
      "outputs": [],
      "payable": false,
      "stateMutability": "nonpayable",
      "type": "function"
    },
    {
      "constant": true,
      "inputs": [],
      "name": "selectIssuersWaitBlocks",
      "outputs": [
        {
          "internalType": "uint256",
          "name": "",
          "type": "uint256"
        }
      ],
      "payable": false,
      "stateMutability": "view",
      "type": "function"
    },
    {
      "constant": false,
      "inputs": [
        {
          "internalType": "uint256",
          "name": "_attestationExpiryBlocks",
          "type": "uint256"
        }
      ],
      "name": "setAttestationExpiryBlocks",
      "outputs": [],
      "payable": false,
      "stateMutability": "nonpayable",
      "type": "function"
    },
    {
      "constant": false,
      "inputs": [
        {
          "internalType": "address",
          "name": "token",
          "type": "address"
        },
        {
          "internalType": "uint256",
          "name": "fee",
          "type": "uint256"
        }
      ],
      "name": "setAttestationRequestFee",
      "outputs": [],
      "payable": false,
      "stateMutability": "nonpayable",
      "type": "function"
    },
    {
      "constant": false,
      "inputs": [
        {
          "internalType": "uint256",
          "name": "_maxAttestations",
          "type": "uint256"
        }
      ],
      "name": "setMaxAttestations",
      "outputs": [],
      "payable": false,
      "stateMutability": "nonpayable",
      "type": "function"
    },
    {
      "constant": false,
      "inputs": [
        {
          "internalType": "address",
          "name": "registryAddress",
          "type": "address"
        }
      ],
      "name": "setRegistry",
      "outputs": [],
      "payable": false,
      "stateMutability": "nonpayable",
      "type": "function"
    },
    {
      "constant": false,
      "inputs": [
        {
          "internalType": "uint256",
          "name": "_selectIssuersWaitBlocks",
          "type": "uint256"
        }
      ],
      "name": "setSelectIssuersWaitBlocks",
      "outputs": [],
      "payable": false,
      "stateMutability": "nonpayable",
      "type": "function"
    },
    {
      "constant": true,
      "inputs": [
        {
          "internalType": "address",
          "name": "",
          "type": "address"
        },
        {
          "internalType": "bytes32",
          "name": "",
          "type": "bytes32"
        }
      ],
      "name": "transferApprovals",
      "outputs": [
        {
          "internalType": "bool",
          "name": "",
          "type": "bool"
        }
      ],
      "payable": false,
      "stateMutability": "view",
      "type": "function"
    },
    {
      "constant": false,
      "inputs": [
        {
          "internalType": "address",
          "name": "newOwner",
          "type": "address"
        }
      ],
      "name": "transferOwnership",
      "outputs": [],
      "payable": false,
      "stateMutability": "nonpayable",
      "type": "function"
    },
    {
      "constant": true,
      "inputs": [
        {
          "internalType": "bytes32",
          "name": "identifier",
          "type": "bytes32"
        },
        {
          "internalType": "address",
          "name": "account",
          "type": "address"
        },
        {
          "internalType": "uint8",
          "name": "v",
          "type": "uint8"
        },
        {
          "internalType": "bytes32",
          "name": "r",
          "type": "bytes32"
        },
        {
          "internalType": "bytes32",
          "name": "s",
          "type": "bytes32"
        }
      ],
      "name": "validateAttestationCode",
      "outputs": [
        {
          "internalType": "address",
          "name": "",
          "type": "address"
        }
      ],
      "payable": false,
      "stateMutability": "view",
      "type": "function"
    },
    {
      "constant": true,
      "inputs": [
        {
          "internalType": "uint256",
          "name": "index",
          "type": "uint256"
        },
        {
          "internalType": "uint256",
          "name": "blockNumber",
          "type": "uint256"
        }
      ],
      "name": "validatorSignerAddressFromSet",
      "outputs": [
        {
          "internalType": "address",
          "name": "",
          "type": "address"
        }
      ],
      "payable": false,
      "stateMutability": "view",
      "type": "function"
    },
    {
      "constant": false,
      "inputs": [
        {
          "internalType": "address",
          "name": "token",
          "type": "address"
        }
      ],
      "name": "withdraw",
      "outputs": [],
      "payable": false,
      "stateMutability": "nonpayable",
      "type": "function"
    },
    {
      "constant": false,
      "inputs": [
        {
          "internalType": "address[]",
          "name": "validators",
          "type": "address[]"
        }
      ],
      "name": "__setValidators",
      "outputs": [],
      "payable": false,
      "stateMutability": "nonpayable",
      "type": "function"
    },
    {
      "constant": true,
      "inputs": [],
      "name": "numberValidatorsInCurrentSet",
      "outputs": [
        {
          "internalType": "uint256",
          "name": "",
          "type": "uint256"
        }
      ],
      "payable": false,
      "stateMutability": "view",
      "type": "function"
    },
    {
      "constant": true,
      "inputs": [
        {
          "internalType": "uint256",
          "name": "index",
          "type": "uint256"
        }
      ],
      "name": "validatorSignerAddressFromCurrentSet",
      "outputs": [
        {
          "internalType": "address",
          "name": "",
          "type": "address"
        }
      ],
      "payable": false,
      "stateMutability": "view",
      "type": "function"
    },
    {
      "constant": false,
      "inputs": [
        {
          "internalType": "bytes32",
          "name": "identifier",
          "type": "bytes32"
        },
        {
          "internalType": "uint256",
          "name": "attestationsRequested",
          "type": "uint256"
        },
        {
          "internalType": "address",
          "name": "attestationRequestFeeToken",
          "type": "address"
        }
      ],
      "name": "request",
      "outputs": [],
      "payable": false,
      "stateMutability": "nonpayable",
      "type": "function"
    },
    {
      "constant": false,
      "inputs": [
        {
          "internalType": "bytes32",
          "name": "identifier",
          "type": "bytes32"
        }
      ],
      "name": "selectIssuers",
      "outputs": [],
      "payable": false,
      "stateMutability": "nonpayable",
      "type": "function"
    },
    {
      "constant": false,
      "inputs": [
        {
          "internalType": "bytes32",
          "name": "identifier",
          "type": "bytes32"
        },
        {
          "internalType": "uint8",
          "name": "v",
          "type": "uint8"
        },
        {
          "internalType": "bytes32",
          "name": "r",
          "type": "bytes32"
        },
        {
          "internalType": "bytes32",
          "name": "s",
          "type": "bytes32"
        }
      ],
      "name": "complete",
      "outputs": [],
      "payable": false,
      "stateMutability": "nonpayable",
      "type": "function"
    }
  ],
  "bytecode": "0x6080604052600180600062000019620000e960201b60201c565b9050806000806101000a81548173ffffffffffffffffffffffffffffffffffffffff021916908373ffffffffffffffffffffffffffffffffffffffff1602179055508073ffffffffffffffffffffffffffffffffffffffff16600073ffffffffffffffffffffffffffffffffffffffff167f8be0079c531659141344cd1fd0a4f28419497f9722a3daafe3b4186f6b6457e060405160405180910390a35080620000d9576001600060146101000a81548160ff0219169083151502179055505b50600160028190555050620000f1565b600033905090565b6174dc80620001016000396000f3fe608060405234801561001057600080fd5b50600436106102f15760003560e01c80638da5cb5b1161019d578063d02e0f0c116100e9578063e831be58116100a2578063f3ff26c61161007c578063f3ff26c6146116ee578063fae8db0a1461173c578063fb6a2e531461177e578063fd536f5d146117cd576102f1565b8063e831be58146115b7578063ec6830721461162f578063f2fde38b146116aa576102f1565b8063d02e0f0c146113ef578063df4da46114611447578063e02659ce14611465578063e221932e14611493578063e3d0f66f146114c1578063e50e652d14611575576102f1565b8063a762825a11610156578063b5599cc611610130578063b5599cc614611263578063bb46942f14611331578063bd93f99814611369578063be2c47a6146113c1576102f1565b8063a762825a146111a3578063a91ee0dc14611201578063b45eb7da14611245576102f1565b80638da5cb5b14610f035780638f32d59b14610f4d57806396357c0a14610f6f5780639a7b3be7146111155780639b2b592f14611133578063a6437e7314611175576102f1565b80635d180adb1161025c5780637796a6841161021557806384a1a4fc116101ef57806384a1a4fc14610d9257806387ee8a0f14610df857806389d3528614610e165780638a88362614610e34576102f1565b80637796a68414610d0c5780637b10399914610d2a5780638218c6fe14610d74576102f1565b80635d180adb14610aa25780635fc5c91614610b1a578063623d593114610bbd57806367960e9114610c15578063715018a614610ce45780637385e5da14610cee576102f1565b80634b2c2f44116102ae5780634b2c2f441461068d5780634eef7e851461075c57806351cff8d9146108fb57806354255be01461093f578063596abea5146109725780635ce9bc07146109f3576102f1565b806303cc1aff146102f657806306cbc78814610379578063123633ea14610431578063158ef93e1461049f57806323f0ab65146104c15780633b1eb4bf1461064b575b600080fd5b6103226004803603602081101561030c57600080fd5b81019080803590602001909291905050506118d9565b6040518080602001828103825283818151815260200191508051906020019060200280838360005b8381101561036557808201518184015260208101905061034a565b505050509050019250505060405180910390f35b61042f6004803603602081101561038f57600080fd5b81019080803590602001906401000000008111156103ac57600080fd5b8201836020820111156103be57600080fd5b803590602001918460208302840111640100000000831117156103e057600080fd5b919080806020026020016040519081016040528093929190818152602001838360200280828437600081840152601f19601f82011690508083019250505050505050919291929050505061197d565b005b61045d6004803603602081101561044757600080fd5b8101908080359060200190929190505050611997565b604051808273ffffffffffffffffffffffffffffffffffffffff1673ffffffffffffffffffffffffffffffffffffffff16815260200191505060405180910390f35b6104a76119d8565b604051808215151515815260200191505060405180910390f35b610631600480360360608110156104d757600080fd5b81019080803573ffffffffffffffffffffffffffffffffffffffff1690602001909291908035906020019064010000000081111561051457600080fd5b82018360208201111561052657600080fd5b8035906020019184600183028401116401000000008311171561054857600080fd5b91908080601f016020809104026020016040519081016040528093929190818152602001838380828437600081840152601f19601f820116905080830192505050505050509192919290803590602001906401000000008111156105ab57600080fd5b8201836020820111156105bd57600080fd5b803590602001918460018302840111640100000000831117156105df57600080fd5b91908080601f016020809104026020016040519081016040528093929190818152602001838380828437600081840152601f19601f8201169050808301925050505050505091929192905050506119eb565b604051808215151515815260200191505060405180910390f35b6106776004803603602081101561066157600080fd5b8101908080359060200190929190505050611ba4565b6040518082815260200191505060405180910390f35b610746600480360360208110156106a357600080fd5b81019080803590602001906401000000008111156106c057600080fd5b8201836020820111156106d257600080fd5b803590602001918460018302840111640100000000831117156106f457600080fd5b91908080601f016020809104026020016040519081016040528093929190818152602001838380828437600081840152601f19601f820116905080830192505050505050509192919290505050611bbe565b6040518082815260200191505060405180910390f35b6107a86004803603604081101561077257600080fd5b8101908080359060200190929190803573ffffffffffffffffffffffffffffffffffffffff169060200190929190505050611d52565b6040518080602001806020018060200180602001858103855289818151815260200191508051906020019060200280838360005b838110156107f75780820151818401526020810190506107dc565b50505050905001858103845288818151815260200191508051906020019060200280838360005b8381101561083957808201518184015260208101905061081e565b50505050905001858103835287818151815260200191508051906020019060200280838360005b8381101561087b578082015181840152602081019050610860565b50505050905001858103825286818151815260200191508051906020019080838360005b838110156108ba57808201518184015260208101905061089f565b50505050905090810190601f1680156108e75780820380516001836020036101000a031916815260200191505b509850505050505050505060405180910390f35b61093d6004803603602081101561091157600080fd5b81019080803573ffffffffffffffffffffffffffffffffffffffff169060200190929190505050612336565b005b610947612710565b6040518085815260200184815260200183815260200182815260200194505050505060405180910390f35b6109be6004803603604081101561098857600080fd5b8101908080359060200190929190803573ffffffffffffffffffffffffffffffffffffffff169060200190929190505050612737565b604051808363ffffffff1663ffffffff1681526020018263ffffffff1663ffffffff1681526020019250505060405180910390f35b610a60600480360360a0811015610a0957600080fd5b8101908080359060200190929190803573ffffffffffffffffffffffffffffffffffffffff169060200190929190803560ff1690602001909291908035906020019092919080359060200190929190505050612813565b604051808273ffffffffffffffffffffffffffffffffffffffff1673ffffffffffffffffffffffffffffffffffffffff16815260200191505060405180910390f35b610ad860048036036040811015610ab857600080fd5b810190808035906020019092919080359060200190929190505050612b9c565b604051808273ffffffffffffffffffffffffffffffffffffffff1673ffffffffffffffffffffffffffffffffffffffff16815260200191505060405180910390f35b610b6660048036036040811015610b3057600080fd5b8101908080359060200190929190803573ffffffffffffffffffffffffffffffffffffffff169060200190929190505050612cee565b6040518080602001828103825283818151815260200191508051906020019060200280838360005b83811015610ba9578082015181840152602081019050610b8e565b505050509050019250505060405180910390f35b610bff60048036036020811015610bd357600080fd5b81019080803573ffffffffffffffffffffffffffffffffffffffff169060200190929190505050612dd3565b6040518082815260200191505060405180910390f35b610cce60048036036020811015610c2b57600080fd5b8101908080359060200190640100000000811115610c4857600080fd5b820183602082011115610c5a57600080fd5b80359060200191846001830284011164010000000083111715610c7c57600080fd5b91908080601f016020809104026020016040519081016040528093929190818152602001838380828437600081840152601f19601f820116905080830192505050505050509192919290505050612e1c565b6040518082815260200191505060405180910390f35b610cec612fb0565b005b610cf66130e9565b6040518082815260200191505060405180910390f35b610d146130f9565b6040518082815260200191505060405180910390f35b610d32613103565b604051808273ffffffffffffffffffffffffffffffffffffffff1673ffffffffffffffffffffffffffffffffffffffff16815260200191505060405180910390f35b610d7c613129565b6040518082815260200191505060405180910390f35b610dde60048036036040811015610da857600080fd5b81019080803573ffffffffffffffffffffffffffffffffffffffff1690602001909291908035906020019092919050505061312f565b604051808215151515815260200191505060405180910390f35b610e0061315e565b6040518082815260200191505060405180910390f35b610e1e61316b565b6040518082815260200191505060405180910390f35b610eed60048036036020811015610e4a57600080fd5b8101908080359060200190640100000000811115610e6757600080fd5b820183602082011115610e7957600080fd5b80359060200191846001830284011164010000000083111715610e9b57600080fd5b91908080601f016020809104026020016040519081016040528093929190818152602001838380828437600081840152601f19601f820116905080830192505050505050509192919290505050613171565b6040518082815260200191505060405180910390f35b610f0b613305565b604051808273ffffffffffffffffffffffffffffffffffffffff1673ffffffffffffffffffffffffffffffffffffffff16815260200191505060405180910390f35b610f5561332e565b604051808215151515815260200191505060405180910390f35b610fe660048036036020811015610f8557600080fd5b8101908080359060200190640100000000811115610fa257600080fd5b820183602082011115610fb457600080fd5b80359060200191846020830284011164010000000083111715610fd657600080fd5b909192939192939050505061338c565b6040518080602001806020018060200180602001858103855289818151815260200191508051906020019060200280838360005b8381101561103557808201518184015260208101905061101a565b50505050905001858103845288818151815260200191508051906020019060200280838360005b8381101561107757808201518184015260208101905061105c565b50505050905001858103835287818151815260200191508051906020019060200280838360005b838110156110b957808201518184015260208101905061109e565b50505050905001858103825286818151815260200191508051906020019060200280838360005b838110156110fb5780820151818401526020810190506110e0565b505050509050019850505050505050505060405180910390f35b61111d613896565b6040518082815260200191505060405180910390f35b61115f6004803603602081101561114957600080fd5b81019080803590602001909291905050506138a6565b6040518082815260200191505060405180910390f35b6111a16004803603602081101561118b57600080fd5b81019080803590602001909291905050506139ef565b005b6111ff600480360360608110156111b957600080fd5b8101908080359060200190929190803573ffffffffffffffffffffffffffffffffffffffff169060200190929190803563ffffffff169060200190929190505050613b03565b005b6112436004803603602081101561121757600080fd5b81019080803573ffffffffffffffffffffffffffffffffffffffff169060200190929190505050613bd8565b005b61124d613d7c565b6040518082815260200191505060405180910390f35b6112cf6004803603606081101561127957600080fd5b8101908080359060200190929190803573ffffffffffffffffffffffffffffffffffffffff169060200190929190803573ffffffffffffffffffffffffffffffffffffffff169060200190929190505050613d82565b604051808460ff1660ff1681526020018363ffffffff1663ffffffff1681526020018273ffffffffffffffffffffffffffffffffffffffff1673ffffffffffffffffffffffffffffffffffffffff168152602001935050505060405180910390f35b6113676004803603604081101561134757600080fd5b810190808035906020019092919080359060200190929190505050613e84565b005b6113ab6004803603602081101561137f57600080fd5b81019080803573ffffffffffffffffffffffffffffffffffffffff169060200190929190505050614198565b6040518082815260200191505060405180910390f35b6113ed600480360360208110156113d757600080fd5b81019080803590602001909291905050506141b0565b005b6114456004803603606081101561140557600080fd5b810190808035906020019092919080359060200190929190803573ffffffffffffffffffffffffffffffffffffffff1690602001909291905050506142c4565b005b61144f614aab565b6040518082815260200191505060405180910390f35b6114916004803603602081101561147b57600080fd5b8101908080359060200190929190505050614be7565b005b6114bf600480360360208110156114a957600080fd5b8101908080359060200190929190505050614cfb565b005b61150d600480360360408110156114d757600080fd5b8101908080359060200190929190803573ffffffffffffffffffffffffffffffffffffffff169060200190929190505050614f1e565b604051808463ffffffff1663ffffffff1681526020018363ffffffff1663ffffffff1681526020018273ffffffffffffffffffffffffffffffffffffffff1673ffffffffffffffffffffffffffffffffffffffff168152602001935050505060405180910390f35b6115a16004803603602081101561158b57600080fd5b8101908080359060200190929190505050615075565b6040518082815260200191505060405180910390f35b611619600480360360408110156115cd57600080fd5b81019080803573ffffffffffffffffffffffffffffffffffffffff169060200190929190803573ffffffffffffffffffffffffffffffffffffffff1690602001909291905050506150c0565b6040518082815260200191505060405180910390f35b61168d600480360360c081101561164557600080fd5b810190808035906020019092919080359060200190929190803590602001909291908035906020019092919080359060200190929190803590602001909291905050506150e5565b604051808381526020018281526020019250505060405180910390f35b6116ec600480360360208110156116c057600080fd5b81019080803573ffffffffffffffffffffffffffffffffffffffff1690602001909291905050506152f9565b005b61173a6004803603604081101561170457600080fd5b81019080803573ffffffffffffffffffffffffffffffffffffffff1690602001909291908035906020019092919050505061537f565b005b6117686004803603602081101561175257600080fd5b81019080803590602001909291905050506154e8565b6040518082815260200191505060405180910390f35b6117cb6004803603608081101561179457600080fd5b8101908080359060200190929190803560ff1690602001909291908035906020019092919080359060200190929190505050615631565b005b6118d7600480360360c08110156117e357600080fd5b81019080803573ffffffffffffffffffffffffffffffffffffffff1690602001909291908035906020019092919080359060200190929190803590602001909291908035906020019064010000000081111561183e57600080fd5b82018360208201111561185057600080fd5b8035906020019184602083028401116401000000008311171561187257600080fd5b90919293919293908035906020019064010000000081111561189357600080fd5b8201836020820111156118a557600080fd5b803590602001918460208302840111640100000000831117156118c757600080fd5b9091929391929390505050615b60565b005b60606003600083815260200190815260200160002060000180548060200260200160405190810160405280929190818152602001828054801561197157602002820191906000526020600020905b8160009054906101000a900473ffffffffffffffffffffffffffffffffffffffff1673ffffffffffffffffffffffffffffffffffffffff1681526020019060010190808311611927575b50505050509050919050565b80600a9080519060200190611993929190616f34565b5050565b6000600a82815481106119a657fe5b9060005260206000200160009054906101000a900473ffffffffffffffffffffffffffffffffffffffff169050919050565b600060149054906101000a900460ff1681565b60008060fb73ffffffffffffffffffffffffffffffffffffffff16858585604051602001808473ffffffffffffffffffffffffffffffffffffffff1673ffffffffffffffffffffffffffffffffffffffff1660601b815260140183805190602001908083835b60208310611a745780518252602082019150602081019050602083039250611a51565b6001836020036101000a03801982511681845116808217855250505050505090500182805190602001908083835b60208310611ac55780518252602082019150602081019050602083039250611aa2565b6001836020036101000a03801982511681845116808217855250505050505090500193505050506040516020818303038152906040526040518082805190602001908083835b60208310611b2e5780518252602082019150602081019050602083039250611b0b565b6001836020036101000a038019825116818451168082178552505050505050905001915050600060405180830381855afa9150503d8060008114611b8e576040519150601f19603f3d011682016040523d82523d6000602084013e611b93565b606091505b505080915050809150509392505050565b6000611bb782611bb2614aab565b615d13565b9050919050565b60006060600060f473ffffffffffffffffffffffffffffffffffffffff16846040516020018082805190602001908083835b60208310611c135780518252602082019150602081019050602083039250611bf0565b6001836020036101000a0380198251168184511680821785525050505050509050019150506040516020818303038152906040526040518082805190602001908083835b60208310611c7a5780518252602082019150602081019050602083039250611c57565b6001836020036101000a038019825116818451168082178552505050505050905001915050600060405180830381855afa9150503d8060008114611cda576040519150601f19603f3d011682016040523d82523d6000602084013e611cdf565b606091505b50809350819250505080611d3e576040517f08c379a00000000000000000000000000000000000000000000000000000000081526004018080602001828103825260388152602001806171e06038913960400191505060405180910390fd5b611d49826000615d5b565b92505050919050565b60608060608060006003600088815260200190815260200160002060010160008773ffffffffffffffffffffffffffffffffffffffff1673ffffffffffffffffffffffffffffffffffffffff16815260200190815260200160002090506000816001019050600080905060008090505b8280549050811015611e8457611e4d846002016000858481548110611de357fe5b9060005260206000200160009054906101000a900473ffffffffffffffffffffffffffffffffffffffff1673ffffffffffffffffffffffffffffffffffffffff1673ffffffffffffffffffffffffffffffffffffffff168152602001908152602001600020615dfc565b15611e6957611e66600183615e5690919063ffffffff16565b91505b611e7d600182615e5690919063ffffffff16565b9050611dc2565b50606081604051908082528060200260200182016040528015611eb65781602001602082028038833980820191505090505b509050606082604051908082528060200260200182016040528015611eea5781602001602082028038833980820191505090505b509050600080905060008090505b85805490508110156120e857611f83876002016000888481548110611f1957fe5b9060005260206000200160009054906101000a900473ffffffffffffffffffffffffffffffffffffffff1673ffffffffffffffffffffffffffffffffffffffff1673ffffffffffffffffffffffffffffffffffffffff168152602001908152602001600020615dfc565b156120cd57866002016000878381548110611f9a57fe5b9060005260206000200160009054906101000a900473ffffffffffffffffffffffffffffffffffffffff1673ffffffffffffffffffffffffffffffffffffffff1673ffffffffffffffffffffffffffffffffffffffff16815260200190815260200160002060000160019054906101000a900463ffffffff1684838151811061201f57fe5b602002602001019063ffffffff16908163ffffffff168152505085818154811061204557fe5b9060005260206000200160009054906101000a900473ffffffffffffffffffffffffffffffffffffffff1683838151811061207c57fe5b602002602001019073ffffffffffffffffffffffffffffffffffffffff16908173ffffffffffffffffffffffffffffffffffffffff16815250506120ca600183615e5690919063ffffffff16565b91505b6120e1600182615e5690919063ffffffff16565b9050611ef8565b506060806120f4615ede565b73ffffffffffffffffffffffffffffffffffffffff16638adaf96f856040518263ffffffff1660e01b81526004018080602001828103825283818151815260200191508051906020019060200280838360005b83811015612162578082015181840152602081019050612147565b505050509050019250505060006040518083038186803b15801561218557600080fd5b505afa158015612199573d6000803e3d6000fd5b505050506040513d6000823e3d601f19601f8201168201806040525060408110156121c357600080fd5b81019080805160405193929190846401000000008211156121e357600080fd5b838201915060208201858111156121f957600080fd5b825186602082028301116401000000008211171561221657600080fd5b8083526020830192505050908051906020019060200280838360005b8381101561224d578082015181840152602081019050612232565b505050509050016040526020018051604051939291908464010000000082111561227657600080fd5b8382019150602082018581111561228c57600080fd5b82518660018202830111640100000000821117156122a957600080fd5b8083526020830192505050908051906020019080838360005b838110156122dd5780820151818401526020810190506122c2565b50505050905090810190601f16801561230a5780820380516001836020036101000a031916815260200191505b506040525050508092508193505050848483839b509b509b509b50505050505050505092959194509250565b6000612340615ede565b73ffffffffffffffffffffffffffffffffffffffff16637b2434cb336040518263ffffffff1660e01b8152600401808273ffffffffffffffffffffffffffffffffffffffff1673ffffffffffffffffffffffffffffffffffffffff16815260200191505060206040518083038186803b1580156123bc57600080fd5b505afa1580156123d0573d6000803e3d6000fd5b505050506040513d60208110156123e657600080fd5b810190808051906020019092919050505090506000600860008473ffffffffffffffffffffffffffffffffffffffff1673ffffffffffffffffffffffffffffffffffffffff16815260200190815260200160002060008373ffffffffffffffffffffffffffffffffffffffff1673ffffffffffffffffffffffffffffffffffffffff168152602001908152602001600020549050600081116124f0576040517f08c379a00000000000000000000000000000000000000000000000000000000081526004018080602001828103825260178152602001807f76616c756520776173206e656761746976652f7a65726f00000000000000000081525060200191505060405180910390fd5b6000600860008573ffffffffffffffffffffffffffffffffffffffff1673ffffffffffffffffffffffffffffffffffffffff16815260200190815260200160002060008473ffffffffffffffffffffffffffffffffffffffff1673ffffffffffffffffffffffffffffffffffffffff168152602001908152602001600020819055508273ffffffffffffffffffffffffffffffffffffffff1663a9059cbb83836040518363ffffffff1660e01b8152600401808373ffffffffffffffffffffffffffffffffffffffff1673ffffffffffffffffffffffffffffffffffffffff16815260200182815260200192505050602060405180830381600087803b1580156125f957600080fd5b505af115801561260d573d6000803e3d6000fd5b505050506040513d602081101561262357600080fd5b81019080805190602001909291905050506126a6576040517f08c379a00000000000000000000000000000000000000000000000000000000081526004018080602001828103825260158152602001807f746f6b656e207472616e73666572206661696c6564000000000000000000000081525060200191505060405180910390fd5b8273ffffffffffffffffffffffffffffffffffffffff168273ffffffffffffffffffffffffffffffffffffffff167f2717ead6b9200dd235aad468c9809ea400fe33ac69b5bfaa6d3e90fc922b6398836040518082815260200191505060405180910390a3505050565b60008060008060016002600080839350829250819150809050935093509350935090919293565b6000806003600085815260200190815260200160002060010160008473ffffffffffffffffffffffffffffffffffffffff1673ffffffffffffffffffffffffffffffffffffffff16815260200190815260200160002060000160049054906101000a900463ffffffff166003600086815260200190815260200160002060010160008573ffffffffffffffffffffffffffffffffffffffff1673ffffffffffffffffffffffffffffffffffffffff16815260200190815260200160002060000160009054906101000a900463ffffffff16915091509250929050565b6000808686604051602001808381526020018273ffffffffffffffffffffffffffffffffffffffff1673ffffffffffffffffffffffffffffffffffffffff1660601b815260140192505050604051602081830303815290604052805190602001209050600073__Signatures____________________________63b3abdb0c838888886040518563ffffffff1660e01b8152600401808581526020018460ff1660ff16815260200183815260200182815260200194505050505060206040518083038186803b1580156128e557600080fd5b505af41580156128f9573d6000803e3d6000fd5b505050506040513d602081101561290f57600080fd5b81019080805190602001909291905050509050600061292c615ede565b73ffffffffffffffffffffffffffffffffffffffff16637b2434cb836040518263ffffffff1660e01b8152600401808273ffffffffffffffffffffffffffffffffffffffff1673ffffffffffffffffffffffffffffffffffffffff16815260200191505060206040518083038186803b1580156129a857600080fd5b505afa1580156129bc573d6000803e3d6000fd5b505050506040513d60208110156129d257600080fd5b810190808051906020019092919050505090506000600360008b815260200190815260200160002060010160008a73ffffffffffffffffffffffffffffffffffffffff1673ffffffffffffffffffffffffffffffffffffffff16815260200190815260200160002060020160008373ffffffffffffffffffffffffffffffffffffffff1673ffffffffffffffffffffffffffffffffffffffff168152602001908152602001600020905060016002811115612a8957fe5b8160000160009054906101000a900460ff166002811115612aa657fe5b14612afc576040517f08c379a000000000000000000000000000000000000000000000000000000000815260040180806020018281038252603b815260200180617242603b913960400191505060405180910390fd5b612b198160000160019054906101000a900463ffffffff16615fd9565b15612b8c576040517f08c379a00000000000000000000000000000000000000000000000000000000081526004018080602001828103825260158152602001807f4174746573746174696f6e2074696d6564206f7574000000000000000000000081525060200191505060405180910390fd5b8194505050505095945050505050565b60006060600060fa73ffffffffffffffffffffffffffffffffffffffff16858560405160200180838152602001828152602001925050506040516020818303038152906040526040518082805190602001908083835b60208310612c155780518252602082019150602081019050602083039250612bf2565b6001836020036101000a038019825116818451168082178552505050505050905001915050600060405180830381855afa9150503d8060008114612c75576040519150601f19603f3d011682016040523d82523d6000602084013e612c7a565b606091505b50809350819250505080612cd9576040517f08c379a000000000000000000000000000000000000000000000000000000000815260040180806020018281038252603681526020018061727d6036913960400191505060405180910390fd5b612ce4826000616000565b9250505092915050565b60606003600084815260200190815260200160002060010160008373ffffffffffffffffffffffffffffffffffffffff1673ffffffffffffffffffffffffffffffffffffffff168152602001908152602001600020600101805480602002602001604051908101604052809291908181526020018280548015612dc657602002820191906000526020600020905b8160009054906101000a900473ffffffffffffffffffffffffffffffffffffffff1673ffffffffffffffffffffffffffffffffffffffff1681526020019060010190808311612d7c575b5050505050905092915050565b6000600760008373ffffffffffffffffffffffffffffffffffffffff1673ffffffffffffffffffffffffffffffffffffffff168152602001908152602001600020549050919050565b60006060600060f673ffffffffffffffffffffffffffffffffffffffff16846040516020018082805190602001908083835b60208310612e715780518252602082019150602081019050602083039250612e4e565b6001836020036101000a0380198251168184511680821785525050505050509050019150506040516020818303038152906040526040518082805190602001908083835b60208310612ed85780518252602082019150602081019050602083039250612eb5565b6001836020036101000a038019825116818451168082178552505050505050905001915050600060405180830381855afa9150503d8060008114612f38576040519150601f19603f3d011682016040523d82523d6000602084013e612f3d565b606091505b50809350819250505080612f9c576040517f08c379a00000000000000000000000000000000000000000000000000000000081526004018080602001828103825260238152602001806174856023913960400191505060405180910390fd5b612fa7826000615d5b565b92505050919050565b612fb861332e565b61302a576040517f08c379a00000000000000000000000000000000000000000000000000000000081526004018080602001828103825260208152602001807f4f776e61626c653a2063616c6c6572206973206e6f7420746865206f776e657281525060200191505060405180910390fd5b600073ffffffffffffffffffffffffffffffffffffffff166000809054906101000a900473ffffffffffffffffffffffffffffffffffffffff1673ffffffffffffffffffffffffffffffffffffffff167f8be0079c531659141344cd1fd0a4f28419497f9722a3daafe3b4186f6b6457e060405160405180910390a360008060006101000a81548173ffffffffffffffffffffffffffffffffffffffff021916908373ffffffffffffffffffffffffffffffffffffffff160217905550565b60006130f443615075565b905090565b6000600654905090565b600160009054906101000a900473ffffffffffffffffffffffffffffffffffffffff1681565b60065481565b60096020528160005260406000206020528060005260406000206000915091509054906101000a900460ff1681565b6000600a80549050905090565b60055481565b60006060600060f773ffffffffffffffffffffffffffffffffffffffff16846040516020018082805190602001908083835b602083106131c657805182526020820191506020810190506020830392506131a3565b6001836020036101000a0380198251168184511680821785525050505050509050019150506040516020818303038152906040526040518082805190602001908083835b6020831061322d578051825260208201915060208101905060208303925061320a565b6001836020036101000a038019825116818451168082178552505050505050905001915050600060405180830381855afa9150503d806000811461328d576040519150601f19603f3d011682016040523d82523d6000602084013e613292565b606091505b508093508192505050806132f1576040517f08c379a000000000000000000000000000000000000000000000000000000000815260040180806020018281038252603181526020018061742e6031913960400191505060405180910390fd5b6132fc826000616000565b92505050919050565b60008060009054906101000a900473ffffffffffffffffffffffffffffffffffffffff16905090565b60008060009054906101000a900473ffffffffffffffffffffffffffffffffffffffff1673ffffffffffffffffffffffffffffffffffffffff16613370616017565b73ffffffffffffffffffffffffffffffffffffffff1614905090565b606080606080600086869050116133ee576040517f08c379a00000000000000000000000000000000000000000000000000000000081526004018080602001828103825260288152602001806172ff6028913960400191505060405180910390fd5b60608061343b888880806020026020016040519081016040528093929190818152602001838360200280828437600081840152601f19601f8201169050808301925050505050505061601f565b8092508193505050606081516040519080825280602002602001820160405280156134755781602001602082028038833980820191505090505b509050606082516040519080825280602002602001820160405280156134aa5781602001602082028038833980820191505090505b509050600080905060008090505b8b8b905081101561387b576060600360008e8e858181106134d557fe5b90506020020135815260200190815260200160002060000180548060200260200160405190810160405280929190818152602001828054801561356d57602002820191906000526020600020905b8160009054906101000a900473ffffffffffffffffffffffffffffffffffffffff1673ffffffffffffffffffffffffffffffffffffffff1681526020019060010190808311613523575b5050505050905060008090505b87838151811061358657fe5b602002602001015181101561385e5761359d615ede565b73ffffffffffffffffffffffffffffffffffffffff16631fd9afa58383815181106135c457fe5b60200260200101516040518263ffffffff1660e01b8152600401808273ffffffffffffffffffffffffffffffffffffffff1673ffffffffffffffffffffffffffffffffffffffff16815260200191505060206040518083038186803b15801561362c57600080fd5b505afa158015613640573d6000803e3d6000fd5b505050506040513d602081101561365657600080fd5b810190808051906020019092919050505087858151811061367357fe5b602002602001019073ffffffffffffffffffffffffffffffffffffffff16908173ffffffffffffffffffffffffffffffffffffffff1681525050600360008f8f868181106136bd57fe5b90506020020135815260200190815260200160002060010160008383815181106136e357fe5b602002602001015173ffffffffffffffffffffffffffffffffffffffff1673ffffffffffffffffffffffffffffffffffffffff16815260200190815260200160002060000160049054906101000a900463ffffffff1663ffffffff1686858151811061374b57fe5b602002602001019067ffffffffffffffff16908167ffffffffffffffff1681525050600360008f8f8681811061377d57fe5b90506020020135815260200190815260200160002060010160008383815181106137a357fe5b602002602001015173ffffffffffffffffffffffffffffffffffffffff1673ffffffffffffffffffffffffffffffffffffffff16815260200190815260200160002060000160009054906101000a900463ffffffff1663ffffffff1685858151811061380b57fe5b602002602001019067ffffffffffffffff16908167ffffffffffffffff1681525050613841600185615e5690919063ffffffff16565b9350613857600182615e5690919063ffffffff16565b905061357a565b5050613874600182615e5690919063ffffffff16565b90506134b8565b50848484849850985098509850505050505092959194509250565b60006138a143611ba4565b905090565b60006060600060f973ffffffffffffffffffffffffffffffffffffffff1684604051602001808281526020019150506040516020818303038152906040526040518082805190602001908083835b6020831061391757805182526020820191506020810190506020830392506138f4565b6001836020036101000a038019825116818451168082178552505050505050905001915050600060405180830381855afa9150503d8060008114613977576040519150601f19603f3d011682016040523d82523d6000602084013e61397c565b606091505b508093508192505050806139db576040517f08c379a000000000000000000000000000000000000000000000000000000000815260040180806020018281038252602e8152602001806170cb602e913960400191505060405180910390fd5b6139e6826000616000565b92505050919050565b6139f761332e565b613a69576040517f08c379a00000000000000000000000000000000000000000000000000000000081526004018080602001828103825260208152602001807f4f776e61626c653a2063616c6c6572206973206e6f7420746865206f776e657281525060200191505060405180910390fd5b60008111613ac2576040517f08c379a00000000000000000000000000000000000000000000000000000000081526004018080602001828103825260308152602001806171b06030913960400191505060405180910390fd5b806004819055507f4fbe976a07a9260091c2d347f8780c4bc636392e34d5b249b367baf8a5c7ca69816040518082815260200191505060405180910390a150565b60006003600085815260200190815260200160002060010160008473ffffffffffffffffffffffffffffffffffffffff1673ffffffffffffffffffffffffffffffffffffffff16815260200190815260200160002060000160009054906101000a900463ffffffff1663ffffffff1690508163ffffffff168114613bd2576040517f08c379a000000000000000000000000000000000000000000000000000000000815260040180806020018281038252602e815260200180617053602e913960400191505060405180910390fd5b50505050565b613be061332e565b613c52576040517f08c379a00000000000000000000000000000000000000000000000000000000081526004018080602001828103825260208152602001807f4f776e61626c653a2063616c6c6572206973206e6f7420746865206f776e657281525060200191505060405180910390fd5b600073ffffffffffffffffffffffffffffffffffffffff168173ffffffffffffffffffffffffffffffffffffffff161415613cf5576040517f08c379a00000000000000000000000000000000000000000000000000000000081526004018080602001828103825260208152602001807f43616e6e6f7420726567697374657220746865206e756c6c206164647265737381525060200191505060405180910390fd5b80600160006101000a81548173ffffffffffffffffffffffffffffffffffffffff021916908373ffffffffffffffffffffffffffffffffffffffff1602179055508073ffffffffffffffffffffffffffffffffffffffff167f27fe5f0c1c3b1ed427cc63d0f05759ffdecf9aec9e18d31ef366fc8a6cb5dc3b60405160405180910390a250565b60045481565b6000806000806003600088815260200190815260200160002060010160008773ffffffffffffffffffffffffffffffffffffffff1673ffffffffffffffffffffffffffffffffffffffff16815260200190815260200160002060020160008673ffffffffffffffffffffffffffffffffffffffff1673ffffffffffffffffffffffffffffffffffffffff16815260200190815260200160002090508060000160009054906101000a900460ff166002811115613e3a57fe5b8160000160019054906101000a900463ffffffff168260000160059054906101000a900473ffffffffffffffffffffffffffffffffffffffff169350935093505093509350939050565b600060036000848152602001908152602001600020600001805490509050808210613f17576040517f08c379a00000000000000000000000000000000000000000000000000000000081526004018080602001828103825260108152602001807f496e64657820697320696e76616c69640000000000000000000000000000000081525060200191505060405180910390fd5b600360008481526020019081526020016000206000018281548110613f3857fe5b9060005260206000200160009054906101000a900473ffffffffffffffffffffffffffffffffffffffff1673ffffffffffffffffffffffffffffffffffffffff163373ffffffffffffffffffffffffffffffffffffffff1614614003576040517f08c379a000000000000000000000000000000000000000000000000000000000815260040180806020018281038252601f8152602001807f496e64657820646f6573206e6f74206d61746368206d73672e73656e6465720081525060200191505060405180910390fd5b600061401960018361618090919063ffffffff16565b90508083146140d85760036000858152602001908152602001600020600001818154811061404357fe5b9060005260206000200160009054906101000a900473ffffffffffffffffffffffffffffffffffffffff1660036000868152602001908152602001600020600001848154811061408f57fe5b9060005260206000200160006101000a81548173ffffffffffffffffffffffffffffffffffffffff021916908373ffffffffffffffffffffffffffffffffffffffff1602179055505b60006003600086815260200190815260200160002060000182815481106140fb57fe5b9060005260206000200160006101000a81548173ffffffffffffffffffffffffffffffffffffffff021916908373ffffffffffffffffffffffffffffffffffffffff1602179055506141706001600360008781526020019081526020016000206000018054905061618090919063ffffffff16565b60036000868152602001908152602001600020600001816141919190616fbe565b5050505050565b60076020528060005260406000206000915090505481565b6141b861332e565b61422a576040517f08c379a00000000000000000000000000000000000000000000000000000000081526004018080602001828103825260208152602001807f4f776e61626c653a2063616c6c6572206973206e6f7420746865206f776e657281525060200191505060405180910390fd5b60008111614283576040517f08c379a00000000000000000000000000000000000000000000000000000000081526004018080602001828103825260288152602001806170816028913960400191505060405180910390fd5b806006819055507fc1f217a1246a98ce04e938768309107630ed86c1e0e9f9995af28e23a9c06178816040518082815260200191505060405180910390a150565b6001600260008282540192505081905550600060025490506000600760008473ffffffffffffffffffffffffffffffffffffffff1673ffffffffffffffffffffffffffffffffffffffff1681526020019081526020016000205411614374576040517f08c379a00000000000000000000000000000000000000000000000000000000081526004018080602001828103825260228152602001806170a96022913960400191505060405180910390fd5b8173ffffffffffffffffffffffffffffffffffffffff166323b872dd33306143e487600760008973ffffffffffffffffffffffffffffffffffffffff1673ffffffffffffffffffffffffffffffffffffffff168152602001908152602001600020546161ca90919063ffffffff16565b6040518463ffffffff1660e01b8152600401808473ffffffffffffffffffffffffffffffffffffffff1673ffffffffffffffffffffffffffffffffffffffff1681526020018373ffffffffffffffffffffffffffffffffffffffff1673ffffffffffffffffffffffffffffffffffffffff1681526020018281526020019350505050602060405180830381600087803b15801561448057600080fd5b505af1158015614494573d6000803e3d6000fd5b505050506040513d60208110156144aa57600080fd5b8101908080519060200190929190505050614510576040517f08c379a000000000000000000000000000000000000000000000000000000000815260040180806020018281038252602b8152602001806172b3602b913960400191505060405180910390fd5b60008311614569576040517f08c379a000000000000000000000000000000000000000000000000000000000815260040180806020018281038252602a815260200180617218602a913960400191505060405180910390fd5b6006548311156145e1576040517f08c379a000000000000000000000000000000000000000000000000000000000815260040180806020018281038252601f8152602001807f546f6f206d616e79206174746573746174696f6e73207265717565737465640081525060200191505060405180910390fd5b600060036000868152602001908152602001600020905060008160020160003373ffffffffffffffffffffffffffffffffffffffff1673ffffffffffffffffffffffffffffffffffffffff16815260200190815260200160002060000160009054906101000a900463ffffffff1663ffffffff1614806146ba57506146b98160020160003373ffffffffffffffffffffffffffffffffffffffff1673ffffffffffffffffffffffffffffffffffffffff16815260200190815260200160002060000160009054906101000a900463ffffffff16615fd9565b5b8061472557506147238160020160003373ffffffffffffffffffffffffffffffffffffffff1673ffffffffffffffffffffffffffffffffffffffff16815260200190815260200160002060000160009054906101000a900463ffffffff1663ffffffff16616250565b155b61477a576040517f08c379a000000000000000000000000000000000000000000000000000000000815260040180806020018281038252603981526020018061714f6039913960400191505060405180910390fd5b614783436162f5565b8160020160003373ffffffffffffffffffffffffffffffffffffffff1673ffffffffffffffffffffffffffffffffffffffff16815260200190815260200160002060000160006101000a81548163ffffffff021916908363ffffffff1602179055506147ee846162f5565b8160020160003373ffffffffffffffffffffffffffffffffffffffff1673ffffffffffffffffffffffffffffffffffffffff16815260200190815260200160002060000160046101000a81548163ffffffff021916908363ffffffff160217905550828160020160003373ffffffffffffffffffffffffffffffffffffffff1673ffffffffffffffffffffffffffffffffffffffff16815260200190815260200160002060000160086101000a81548173ffffffffffffffffffffffffffffffffffffffff021916908373ffffffffffffffffffffffffffffffffffffffff160217905550614948614943858360010160003373ffffffffffffffffffffffffffffffffffffffff1673ffffffffffffffffffffffffffffffffffffffff16815260200190815260200160002060000160009054906101000a900463ffffffff1663ffffffff16615e5690919063ffffffff16565b6162f5565b8160010160003373ffffffffffffffffffffffffffffffffffffffff1673ffffffffffffffffffffffffffffffffffffffff16815260200190815260200160002060000160006101000a81548163ffffffff021916908363ffffffff1602179055503373ffffffffffffffffffffffffffffffffffffffff16857f381545d9b1fffcb94ffbbd0bccfff9f1fb3acd474d34f7d59112a5c9973fee498686604051808381526020018273ffffffffffffffffffffffffffffffffffffffff1673ffffffffffffffffffffffffffffffffffffffff1681526020019250505060405180910390a3506002548114614aa5576040517f08c379a000000000000000000000000000000000000000000000000000000000815260040180806020018281038252600e8152602001807f7265656e7472616e742063616c6c00000000000000000000000000000000000081525060200191505060405180910390fd5b50505050565b60006060600060f873ffffffffffffffffffffffffffffffffffffffff166040516020016040516020818303038152906040526040518082805190602001908083835b60208310614b115780518252602082019150602081019050602083039250614aee565b6001836020036101000a038019825116818451168082178552505050505050905001915050600060405180830381855afa9150503d8060008114614b71576040519150601f19603f3d011682016040523d82523d6000602084013e614b76565b606091505b50809350819250505080614bd5576040517f08c379a000000000000000000000000000000000000000000000000000000000815260040180806020018281038252602581526020018061734e6025913960400191505060405180910390fd5b614be0826000616000565b9250505090565b614bef61332e565b614c61576040517f08c379a00000000000000000000000000000000000000000000000000000000081526004018080602001828103825260208152602001807f4f776e61626c653a2063616c6c6572206973206e6f7420746865206f776e657281525060200191505060405180910390fd5b60008111614cba576040517f08c379a00000000000000000000000000000000000000000000000000000000081526004018080602001828103825260308152602001806170f96030913960400191505060405180910390fd5b806005819055507f954fa47fa6f4e8017b99f93c73f4fbe599d786f9f5da73fe9086ab473fb455d8816040518082815260200191505060405180910390a150565b600060036000838152602001908152602001600020905060008160020160003373ffffffffffffffffffffffffffffffffffffffff1673ffffffffffffffffffffffffffffffffffffffff16815260200190815260200160002060000160009054906101000a900463ffffffff1663ffffffff1611614dc5576040517f08c379a00000000000000000000000000000000000000000000000000000000081526004018080602001828103825260378152602001806173cb6037913960400191505060405180910390fd5b614e228160020160003373ffffffffffffffffffffffffffffffffffffffff1673ffffffffffffffffffffffffffffffffffffffff16815260200190815260200160002060000160009054906101000a900463ffffffff16615fd9565b15614e78576040517f08c379a00000000000000000000000000000000000000000000000000000000081526004018080602001828103825260238152602001806173a86023913960400191505060405180910390fd5b614e818261635c565b8060020160003373ffffffffffffffffffffffffffffffffffffffff1673ffffffffffffffffffffffffffffffffffffffff168152602001908152602001600020600080820160006101000a81549063ffffffff02191690556000820160046101000a81549063ffffffff02191690556000820160086101000a81549073ffffffffffffffffffffffffffffffffffffffff021916905550505050565b60008060006003600086815260200190815260200160002060020160008573ffffffffffffffffffffffffffffffffffffffff1673ffffffffffffffffffffffffffffffffffffffff16815260200190815260200160002060000160009054906101000a900463ffffffff166003600087815260200190815260200160002060020160008673ffffffffffffffffffffffffffffffffffffffff1673ffffffffffffffffffffffffffffffffffffffff16815260200190815260200160002060000160049054906101000a900463ffffffff166003600088815260200190815260200160002060020160008773ffffffffffffffffffffffffffffffffffffffff1673ffffffffffffffffffffffffffffffffffffffff16815260200190815260200160002060000160089054906101000a900473ffffffffffffffffffffffffffffffffffffffff169250925092509250925092565b60006150b960036150ab600261509d600261508f886138a6565b6161ca90919063ffffffff16565b615e5690919063ffffffff16565b616b2590919063ffffffff16565b9050919050565b6008602052816000526040600020602052806000526040600020600091509150505481565b600080600087141580156150fa575060008514155b61516c576040517f08c379a00000000000000000000000000000000000000000000000000000000081526004018080602001828103825260158152602001807f612064656e6f6d696e61746f72206973207a65726f000000000000000000000081525060200191505060405180910390fd5b6000806000606060fc73ffffffffffffffffffffffffffffffffffffffff168c8c8c8c8c8c6040516020018087815260200186815260200185815260200184815260200183815260200182815260200196505050505050506040516020818303038152906040526040518082805190602001908083835b6020831061520657805182526020820191506020810190506020830392506151e3565b6001836020036101000a038019825116818451168082178552505050505050905001915050600060405180830381855afa9150503d8060008114615266576040519150601f19603f3d011682016040523d82523d6000602084013e61526b565b606091505b508092508193505050816152ca576040517f08c379a00000000000000000000000000000000000000000000000000000000081526004018080602001828103825260278152602001806173276027913960400191505060405180910390fd5b6152d5816000616000565b93506152e2816020616000565b925083839550955050505050965096945050505050565b61530161332e565b615373576040517f08c379a00000000000000000000000000000000000000000000000000000000081526004018080602001828103825260208152602001807f4f776e61626c653a2063616c6c6572206973206e6f7420746865206f776e657281525060200191505060405180910390fd5b61537c81616b6f565b50565b61538761332e565b6153f9576040517f08c379a00000000000000000000000000000000000000000000000000000000081526004018080602001828103825260208152602001807f4f776e61626c653a2063616c6c6572206973206e6f7420746865206f776e657281525060200191505060405180910390fd5b60008111615452576040517f08c379a00000000000000000000000000000000000000000000000000000000081526004018080602001828103825260288152602001806171886028913960400191505060405180910390fd5b80600760008473ffffffffffffffffffffffffffffffffffffffff1673ffffffffffffffffffffffffffffffffffffffff168152602001908152602001600020819055508173ffffffffffffffffffffffffffffffffffffffff167f7cf8b633f218e9f9bc2c06107bcaddcfee6b90580863768acdcfd4f05d7af394826040518082815260200191505060405180910390a25050565b60006060600060f573ffffffffffffffffffffffffffffffffffffffff1684604051602001808281526020019150506040516020818303038152906040526040518082805190602001908083835b602083106155595780518252602082019150602081019050602083039250615536565b6001836020036101000a038019825116818451168082178552505050505050905001915050600060405180830381855afa9150503d80600081146155b9576040519150601f19603f3d011682016040523d82523d6000602084013e6155be565b606091505b5080935081925050508061561d576040517f08c379a000000000000000000000000000000000000000000000000000000000815260040180806020018281038252602c815260200180617402602c913960400191505060405180910390fd5b615628826000615d5b565b92505050919050565b60006156408533868686612813565b905060006003600087815260200190815260200160002060010160003373ffffffffffffffffffffffffffffffffffffffff1673ffffffffffffffffffffffffffffffffffffffff16815260200190815260200160002060020160008373ffffffffffffffffffffffffffffffffffffffff1673ffffffffffffffffffffffffffffffffffffffff168152602001908152602001600020905060008160000160059054906101000a900473ffffffffffffffffffffffffffffffffffffffff16905061570b436162f5565b8260000160016101000a81548163ffffffff021916908363ffffffff16021790555060028260000160006101000a81548160ff0219169083600281111561574e57fe5b02179055508160000160056101000a81549073ffffffffffffffffffffffffffffffffffffffff021916905560006003600089815260200190815260200160002060010160003373ffffffffffffffffffffffffffffffffffffffff1673ffffffffffffffffffffffffffffffffffffffff168152602001908152602001600020905060018160000160049054906101000a900463ffffffff160163ffffffff168160000160049054906101000a900463ffffffff1663ffffffff161061587d576040517f08c379a000000000000000000000000000000000000000000000000000000000815260040180806020018281038252601b8152602001807f536166654d617468333220696e7465676572206f766572666c6f77000000000081525060200191505060405180910390fd5b60018160000160049054906101000a900463ffffffff16018160000160046101000a81548163ffffffff021916908363ffffffff160217905550615985600760008473ffffffffffffffffffffffffffffffffffffffff1673ffffffffffffffffffffffffffffffffffffffff16815260200190815260200160002054600860008573ffffffffffffffffffffffffffffffffffffffff1673ffffffffffffffffffffffffffffffffffffffff16815260200190815260200160002060008773ffffffffffffffffffffffffffffffffffffffff1673ffffffffffffffffffffffffffffffffffffffff16815260200190815260200160002054615e5690919063ffffffff16565b600860008473ffffffffffffffffffffffffffffffffffffffff1673ffffffffffffffffffffffffffffffffffffffff16815260200190815260200160002060008673ffffffffffffffffffffffffffffffffffffffff1673ffffffffffffffffffffffffffffffffffffffff168152602001908152602001600020819055506000600360008a815260200190815260200160002090506001600360008b815260200190815260200160002060010160003373ffffffffffffffffffffffffffffffffffffffff1673ffffffffffffffffffffffffffffffffffffffff16815260200190815260200160002060000160049054906101000a900463ffffffff1663ffffffff161415615afa57806000013390806001815401808255809150509060018203906000526020600020016000909192909190916101000a81548173ffffffffffffffffffffffffffffffffffffffff021916908373ffffffffffffffffffffffffffffffffffffffff160217905550505b8473ffffffffffffffffffffffffffffffffffffffff163373ffffffffffffffffffffffffffffffffffffffff168a7f414ff2c18c092697c4b8de49f515ac44f8bebc19b24553cf58ace913a6ac639d60405160405180910390a4505050505050505050565b600060149054906101000a900460ff1615615be3576040517f08c379a000000000000000000000000000000000000000000000000000000000815260040180806020018281038252601c8152602001807f636f6e747261637420616c726561647920696e697469616c697a65640000000081525060200191505060405180910390fd5b6001600060146101000a81548160ff021916908315150217905550615c0733616b6f565b615c1088613bd8565b615c19876139ef565b615c2286614be7565b615c2b856141b0565b600084849050118015615c4357508181905084849050145b615c98576040517f08c379a00000000000000000000000000000000000000000000000000000000081526004018080602001828103825260358152602001806173736035913960400191505060405180910390fd5b60008090505b84849050811015615d0857615ced858583818110615cb857fe5b9050602002013573ffffffffffffffffffffffffffffffffffffffff16848484818110615ce157fe5b9050602002013561537f565b615d01600182615e5690919063ffffffff16565b9050615c9e565b505050505050505050565b600080828481615d1f57fe5b0490506000838581615d2d57fe5b061415615d3d5780915050615d55565b615d51600182615e5690919063ffffffff16565b9150505b92915050565b6000615d71602083615e5690919063ffffffff16565b83511015615de7576040517f08c379a00000000000000000000000000000000000000000000000000000000081526004018080602001828103825260148152602001807f736c6963696e67206f7574206f662072616e676500000000000000000000000081525060200191505060405180910390fd5b60006020830184015190508091505092915050565b600060016002811115615e0b57fe5b8260000160009054906101000a900460ff166002811115615e2857fe5b148015615e4f5750615e4d8260000160019054906101000a900463ffffffff16615fd9565b155b9050919050565b600080828401905083811015615ed4576040517f08c379a000000000000000000000000000000000000000000000000000000000815260040180806020018281038252601b8152602001807f536166654d6174683a206164646974696f6e206f766572666c6f77000000000081525060200191505060405180910390fd5b8091505092915050565b6000600160009054906101000a900473ffffffffffffffffffffffffffffffffffffffff1673ffffffffffffffffffffffffffffffffffffffff1663dcf0aaed60405160200180807f4163636f756e74730000000000000000000000000000000000000000000000008152506008019050604051602081830303815290604052805190602001206040518263ffffffff1660e01b81526004018082815260200191505060206040518083038186803b158015615f9957600080fd5b505afa158015615fad573d6000803e3d6000fd5b505050506040513d6020811015615fc357600080fd5b8101908080519060200190929190505050905090565b6000615ff66004548363ffffffff16615e5690919063ffffffff16565b4310159050919050565b600061600c8383615d5b565b60001c905092915050565b600033905090565b606080600083511161607c576040517f08c379a00000000000000000000000000000000000000000000000000000000081526004018080602001828103825260288152602001806172ff6028913960400191505060405180910390fd5b6000809050606084516040519080825280602002602001820160405280156160b35781602001602082028038833980820191505090505b50905060008090505b8551811015616140576000600360008884815181106160d757fe5b602002602001015181526020019081526020016000206000018054905090506161098185615e5690919063ffffffff16565b93508083838151811061611857fe5b60200260200101818152505050616139600182615e5690919063ffffffff16565b90506160bc565b5080826040519080825280602002602001820160405280156161715781602001602082028038833980820191505090505b50809050935093505050915091565b60006161c283836040518060400160405280601e81526020017f536166654d6174683a207375627472616374696f6e206f766572666c6f770000815250616cb3565b905092915050565b6000808314156161dd576000905061624a565b60008284029050828482816161ee57fe5b0414616245576040517f08c379a00000000000000000000000000000000000000000000000000000000081526004018080602001828103825260218152602001806172de6021913960400191505060405180910390fd5b809150505b92915050565b60006162ec61625d616d73565b73ffffffffffffffffffffffffffffffffffffffff1663e45def956040518163ffffffff1660e01b815260040160206040518083038186803b1580156162a257600080fd5b505afa1580156162b6573d6000803e3d6000fd5b505050506040513d60208110156162cc57600080fd5b810190808051906020019092919050505083615e5690919063ffffffff16565b43109050919050565b60006401000000008210616354576040517f08c379a000000000000000000000000000000000000000000000000000000000815260040180806020018281038252602681526020018061745f6026913960400191505060405180910390fd5b819050919050565b60006003600083815260200190815260200160002060010160003373ffffffffffffffffffffffffffffffffffffffff1673ffffffffffffffffffffffffffffffffffffffff168152602001908152602001600020905060006003600084815260200190815260200160002060020160003373ffffffffffffffffffffffffffffffffffffffff1673ffffffffffffffffffffffffffffffffffffffff16815260200190815260200160002090506000616414616d73565b73ffffffffffffffffffffffffffffffffffffffff1663fc48472661645e6005548560000160009054906101000a900463ffffffff1663ffffffff16615e5690919063ffffffff16565b6040518263ffffffff1660e01b81526004018082815260200191505060206040518083038186803b15801561649257600080fd5b505afa1580156164a6573d6000803e3d6000fd5b505050506040513d60208110156164bc57600080fd5b8101908080519060200190929190505050905060006164d9615ede565b905060006164e561315e565b90506060816040519080825280602002602001820160405280156165185781602001602082028038833980820191505090505b50905060008090505b8281101561655d578082828151811061653657fe5b602002602001018181525050616556600182615e5690919063ffffffff16565b9050616521565b50818560000160049054906101000a900463ffffffff1663ffffffff1611156165ee576040517f08c379a00000000000000000000000000000000000000000000000000000000081526004018080602001828103825260128152602001807f6e6f7420656e6f7567682069737375657273000000000000000000000000000081525060200191505060405180910390fd5b60008090505b8560000160049054906101000a900463ffffffff1663ffffffff16811015616b1b576000831161668c576040517f08c379a00000000000000000000000000000000000000000000000000000000081526004018080602001828103825260128152602001807f6e6f7420656e6f7567682069737375657273000000000000000000000000000081525060200191505060405180910390fd5b84604051602001808281526020019150506040516020818303038152906040528051906020012094506000838660001c816166c357fe5b06905060006166e48483815181106166d757fe5b6020026020010151611997565b905060008673ffffffffffffffffffffffffffffffffffffffff166393c5c487836040518263ffffffff1660e01b8152600401808273ffffffffffffffffffffffffffffffffffffffff1673ffffffffffffffffffffffffffffffffffffffff16815260200191505060206040518083038186803b15801561676557600080fd5b505afa158015616779573d6000803e3d6000fd5b505050506040513d602081101561678f57600080fd5b8101908080519060200190929190505050905060008a60020160008373ffffffffffffffffffffffffffffffffffffffff1673ffffffffffffffffffffffffffffffffffffffff1681526020019081526020016000209050600060028111156167f457fe5b8160000160009054906101000a900460ff16600281111561681157fe5b1480156168d257508773ffffffffffffffffffffffffffffffffffffffff1663c2e0ee20836040518263ffffffff1660e01b8152600401808273ffffffffffffffffffffffffffffffffffffffff1673ffffffffffffffffffffffffffffffffffffffff16815260200191505060206040518083038186803b15801561689657600080fd5b505afa1580156168aa573d6000803e3d6000fd5b505050506040513d60208110156168c057600080fd5b81019080805190602001909291905050505b15616ad0576168eb600186615e5690919063ffffffff16565b945060018160000160006101000a81548160ff0219169083600281111561690e57fe5b02179055508960000160009054906101000a900463ffffffff168160000160016101000a81548163ffffffff021916908363ffffffff1602179055508960000160089054906101000a900473ffffffffffffffffffffffffffffffffffffffff168160000160056101000a81548173ffffffffffffffffffffffffffffffffffffffff021916908373ffffffffffffffffffffffffffffffffffffffff1602179055508a6001018290806001815401808255809150509060018203906000526020600020016000909192909190916101000a81548173ffffffffffffffffffffffffffffffffffffffff021916908373ffffffffffffffffffffffffffffffffffffffff160217905550508173ffffffffffffffffffffffffffffffffffffffff163373ffffffffffffffffffffffffffffffffffffffff168d7faf7f470b643316cf44c1f2898328a075e7602945b4f8584f48ba4ad2d8a2ea9d8d60000160089054906101000a900473ffffffffffffffffffffffffffffffffffffffff16604051808273ffffffffffffffffffffffffffffffffffffffff1673ffffffffffffffffffffffffffffffffffffffff16815260200191505060405180910390a45b616ae460018861618090919063ffffffff16565b9650858781518110616af257fe5b6020026020010151868581518110616b0657fe5b602002602001018181525050505050506165f4565b5050505050505050565b6000616b6783836040518060400160405280601a81526020017f536166654d6174683a206469766973696f6e206279207a65726f000000000000815250616e6e565b905092915050565b600073ffffffffffffffffffffffffffffffffffffffff168173ffffffffffffffffffffffffffffffffffffffff161415616bf5576040517f08c379a00000000000000000000000000000000000000000000000000000000081526004018080602001828103825260268152602001806171296026913960400191505060405180910390fd5b8073ffffffffffffffffffffffffffffffffffffffff166000809054906101000a900473ffffffffffffffffffffffffffffffffffffffff1673ffffffffffffffffffffffffffffffffffffffff167f8be0079c531659141344cd1fd0a4f28419497f9722a3daafe3b4186f6b6457e060405160405180910390a3806000806101000a81548173ffffffffffffffffffffffffffffffffffffffff021916908373ffffffffffffffffffffffffffffffffffffffff16021790555050565b6000838311158290616d60576040517f08c379a00000000000000000000000000000000000000000000000000000000081526004018080602001828103825283818151815260200191508051906020019080838360005b83811015616d25578082015181840152602081019050616d0a565b50505050905090810190601f168015616d525780820380516001836020036101000a031916815260200191505b509250505060405180910390fd5b5060008385039050809150509392505050565b6000600160009054906101000a900473ffffffffffffffffffffffffffffffffffffffff1673ffffffffffffffffffffffffffffffffffffffff1663dcf0aaed60405160200180807f52616e646f6d00000000000000000000000000000000000000000000000000008152506006019050604051602081830303815290604052805190602001206040518263ffffffff1660e01b81526004018082815260200191505060206040518083038186803b158015616e2e57600080fd5b505afa158015616e42573d6000803e3d6000fd5b505050506040513d6020811015616e5857600080fd5b8101908080519060200190929190505050905090565b60008083118290616f1a576040517f08c379a00000000000000000000000000000000000000000000000000000000081526004018080602001828103825283818151815260200191508051906020019080838360005b83811015616edf578082015181840152602081019050616ec4565b50505050905090810190601f168015616f0c5780820380516001836020036101000a031916815260200191505b509250505060405180910390fd5b506000838581616f2657fe5b049050809150509392505050565b828054828255906000526020600020908101928215616fad579160200282015b82811115616fac5782518260006101000a81548173ffffffffffffffffffffffffffffffffffffffff021916908373ffffffffffffffffffffffffffffffffffffffff16021790555091602001919060010190616f54565b5b509050616fba9190616fea565b5090565b815481835581811115616fe557818360005260206000209182019101616fe4919061702d565b5b505050565b61702a91905b8082111561702657600081816101000a81549073ffffffffffffffffffffffffffffffffffffffff021916905550600101616ff0565b5090565b90565b61704f91905b8082111561704b576000816000905550600101617033565b5090565b9056fe726571756573746564206174746573746174696f6e7320646f6573206e6f74206d617463682065787065637465646d61784174746573746174696f6e732068617320746f2062652067726561746572207468616e2030496e76616c6964206174746573746174696f6e52657175657374466565546f6b656e6572726f722063616c6c696e67206e756d62657256616c696461746f7273496e53657420707265636f6d70696c6573656c6563744973737565727357616974426c6f636b732068617320746f2062652067726561746572207468616e20304f776e61626c653a206e6577206f776e657220697320746865207a65726f206164647265737354686572652065786973747320616e20756e657870697265642c20756e73656c6563746564206174746573746174696f6e2072657175657374596f75206861766520746f20737065636966792061206665652067726561746572207468616e20306174746573746174696f6e457870697279426c6f636b732068617320746f2062652067726561746572207468616e20306572726f722063616c6c696e672067657456657269666965645365616c4269746d617046726f6d48656164657220707265636f6d70696c65596f75206861766520746f2072657175657374206174206c656173742031206174746573746174696f6e4174746573746174696f6e20636f646520646f6573206e6f74206d6174636820616e79206f75747374616e64696e67206174746573746174696f6e6572726f722063616c6c696e672076616c696461746f725369676e65724164647265737346726f6d53657420707265636f6d70696c655472616e73666572206f66206174746573746174696f6e20726571756573742066656573206661696c6564536166654d6174683a206d756c7469706c69636174696f6e206f766572666c6f77596f75206861766520746f2070617373206174206c65617374206f6e65206964656e7469666965726572726f722063616c6c696e67206672616374696f6e4d756c45787020707265636f6d70696c656572726f722063616c6c696e672067657445706f636853697a6520707265636f6d70696c656174746573746174696f6e52657175657374466565546f6b656e732073706563696669636174696f6e2077617320696e76616c6964546865206174746573746174696f6e20726571756573742068617320657870697265644e6f20756e73656c6563746564206174746573746174696f6e207265717565737420746f2073656c656374206973737565727320666f726572726f722063616c6c696e6720676574506172656e745365616c4269746d617020707265636f6d70696c656572726f722063616c6c696e6720676574426c6f636b4e756d62657246726f6d48656164657220707265636f6d70696c6553616665436173743a2076616c756520646f65736e27742066697420696e20333220626974736572726f722063616c6c696e67206861736848656164657220707265636f6d70696c65a265627a7a723158206019172ac39fb60e77a4c496cc4f17099893376bc82601ef499297a77e36be0864736f6c634300050d0032",
  "source": "pragma solidity ^0.5.13;\n\nimport \"../Attestations.sol\";\n\n/*\n * We need a test contract that behaves like the actual Attestations contract,\n * but mocks the implementations of the validator set getters. Otherwise we\n * couldn't test `request` with the current ganache local testnet.\n */\ncontract AttestationsTest is Attestations(true) {\n  address[] private __testValidators;\n\n  function __setValidators(address[] memory validators) public {\n    __testValidators = validators;\n  }\n\n  function numberValidatorsInCurrentSet() public view returns (uint256) {\n    return __testValidators.length;\n  }\n\n  function validatorSignerAddressFromCurrentSet(uint256 index) public view returns (address) {\n    return __testValidators[index];\n  }\n\n  // some deprecated functions are mocked here to ensure that the tests for\n  // revoke and withdraw can still run\n\n  /**\n   * @notice Commit to the attestation request of a hashed identifier.\n   * @param identifier The hash of the identifier to be attested.\n   * @param attestationsRequested The number of requested attestations for this request.\n   * @param attestationRequestFeeToken The address of the token with which the attestation fee will\n   * be paid.\n   * @dev Note that if an attestation expires before it is completed, the fee is forfeited. This is\n   * to prevent folks from attacking validators by requesting attestations that they do not\n   * complete, and to increase the cost of validators attempting to manipulate the attestations\n   * protocol.\n   */\n  function request(\n    bytes32 identifier,\n    uint256 attestationsRequested,\n    address attestationRequestFeeToken\n  ) external nonReentrant {\n    require(\n      attestationRequestFees[attestationRequestFeeToken] > 0,\n      \"Invalid attestationRequestFeeToken\"\n    );\n    require(\n      IERC20(attestationRequestFeeToken).transferFrom(\n        msg.sender,\n        address(this),\n        attestationRequestFees[attestationRequestFeeToken].mul(attestationsRequested)\n      ),\n      \"Transfer of attestation request fees failed\"\n    );\n\n    require(attestationsRequested > 0, \"You have to request at least 1 attestation\");\n    require(attestationsRequested <= maxAttestations, \"Too many attestations requested\");\n\n    IdentifierState storage state = identifiers[identifier];\n\n    require(\n      state.unselectedRequests[msg.sender].blockNumber == 0 ||\n        isAttestationExpired(state.unselectedRequests[msg.sender].blockNumber) ||\n        !isAttestationRequestSelectable(state.unselectedRequests[msg.sender].blockNumber),\n      \"There exists an unexpired, unselected attestation request\"\n    );\n\n    state.unselectedRequests[msg.sender].blockNumber = block.number.toUint32();\n    state.unselectedRequests[msg.sender].attestationsRequested = attestationsRequested.toUint32();\n    state.unselectedRequests[msg.sender].attestationRequestFeeToken = attestationRequestFeeToken;\n\n    state.attestations[msg.sender].requested = uint256(state.attestations[msg.sender].requested)\n      .add(attestationsRequested)\n      .toUint32();\n\n    emit AttestationsRequested(\n      identifier,\n      msg.sender,\n      attestationsRequested,\n      attestationRequestFeeToken\n    );\n  }\n\n  /**\n   * @notice Selects the issuers for the most recent attestation request.\n   * @param identifier The hash of the identifier to be attested.\n   */\n  function selectIssuers(bytes32 identifier) external {\n    IdentifierState storage state = identifiers[identifier];\n\n    require(\n      state.unselectedRequests[msg.sender].blockNumber > 0,\n      \"No unselected attestation request to select issuers for\"\n    );\n\n    require(\n      !isAttestationExpired(state.unselectedRequests[msg.sender].blockNumber),\n      \"The attestation request has expired\"\n    );\n\n    addIncompleteAttestations(identifier);\n    delete state.unselectedRequests[msg.sender];\n  }\n\n  /**\n   * @notice Submit the secret message sent by the issuer to complete the attestation request.\n   * @param identifier The hash of the identifier for this attestation.\n   * @param v The recovery id of the incoming ECDSA signature.\n   * @param r Output value r of the ECDSA signature.\n   * @param s Output value s of the ECDSA signature.\n   * @dev Throws if there is no matching outstanding attestation request.\n   * @dev Throws if the attestation window has passed.\n   */\n  function complete(bytes32 identifier, uint8 v, bytes32 r, bytes32 s) external {\n    address issuer = validateAttestationCode(identifier, msg.sender, v, r, s);\n\n    Attestation storage attestation = identifiers[identifier].attestations[msg.sender]\n      .issuedAttestations[issuer];\n\n    address token = attestation.attestationRequestFeeToken;\n\n    // solhint-disable-next-line not-rely-on-time\n    attestation.blockNumber = block.number.toUint32();\n    attestation.status = AttestationStatus.Complete;\n    delete attestation.attestationRequestFeeToken;\n    AttestedAddress storage attestedAddress = identifiers[identifier].attestations[msg.sender];\n    require(\n      attestedAddress.completed < attestedAddress.completed + 1,\n      \"SafeMath32 integer overflow\"\n    );\n    attestedAddress.completed = attestedAddress.completed + 1;\n\n    pendingWithdrawals[token][issuer] = pendingWithdrawals[token][issuer].add(\n      attestationRequestFees[token]\n    );\n\n    IdentifierState storage state = identifiers[identifier];\n    if (identifiers[identifier].attestations[msg.sender].completed == 1) {\n      state.accounts.push(msg.sender);\n    }\n\n    emit AttestationCompleted(identifier, msg.sender, issuer);\n  }\n\n  /**\n   * @notice Adds additional attestations given the current randomness.\n   * @param identifier The hash of the identifier to be attested.\n   */\n  function addIncompleteAttestations(bytes32 identifier) internal {\n    AttestedAddress storage state = identifiers[identifier].attestations[msg.sender];\n    UnselectedRequest storage unselectedRequest = identifiers[identifier].unselectedRequests[msg\n      .sender];\n\n    bytes32 seed = getRandom().getBlockRandomness(\n      uint256(unselectedRequest.blockNumber).add(selectIssuersWaitBlocks)\n    );\n    IAccounts accounts = getAccounts();\n    uint256 issuersLength = numberValidatorsInCurrentSet();\n    uint256[] memory issuers = new uint256[](issuersLength);\n    for (uint256 i = 0; i < issuersLength; i = i.add(1)) issuers[i] = i;\n\n    require(unselectedRequest.attestationsRequested <= issuersLength, \"not enough issuers\");\n\n    uint256 currentIndex = 0;\n\n    // The length of the list (variable issuersLength) is decremented in each round,\n    // so the loop always terminates\n    while (currentIndex < unselectedRequest.attestationsRequested) {\n      require(issuersLength > 0, \"not enough issuers\");\n      seed = keccak256(abi.encodePacked(seed));\n      uint256 idx = uint256(seed) % issuersLength;\n      address signer = validatorSignerAddressFromCurrentSet(issuers[idx]);\n      address issuer = accounts.signerToAccount(signer);\n\n      Attestation storage attestation = state.issuedAttestations[issuer];\n\n      if (\n        attestation.status == AttestationStatus.None &&\n        accounts.hasAuthorizedAttestationSigner(issuer)\n      ) {\n        currentIndex = currentIndex.add(1);\n        attestation.status = AttestationStatus.Incomplete;\n        attestation.blockNumber = unselectedRequest.blockNumber;\n        attestation.attestationRequestFeeToken = unselectedRequest.attestationRequestFeeToken;\n        state.selectedIssuers.push(issuer);\n\n        emit AttestationIssuerSelected(\n          identifier,\n          msg.sender,\n          issuer,\n          unselectedRequest.attestationRequestFeeToken\n        );\n      }\n\n      // Remove the validator that was selected from the list,\n      // by replacing it by the last element in the list\n      issuersLength = issuersLength.sub(1);\n      issuers[idx] = issuers[issuersLength];\n    }\n  }\n}\n",
  "sourcePath": "/Users/beaver/Development/celo/celo-monorepo/packages/protocol/contracts/identity/test/AttestationsTest.sol",
  "compiler": {
    "name": "solc",
    "version": "0.5.13+commit.5b0b510c.Emscripten.clang"
  },
  "schemaVersion": "3.4.13",
  "updatedAt": "2024-03-05T15:26:45.452Z",
  "networkType": "ethereum",
  "devdoc": {
    "methods": {
      "batchGetAttestationStats(bytes32[])": {
        "params": {
          "identifiersToLookup": "Array of n identifiers."
        },
        "return": "[0] Array of number of matching accounts per identifier.[1] Array of sum([0]) matching walletAddresses.[2] Array of sum([0]) numbers indicating the completions for each account.[3] Array of sum([0]) numbers indicating the total number of requested attestations for each account."
      },
      "checkProofOfPossession(address,bytes,bytes)": {
        "params": {
          "blsKey": "The BLS public key that the validator is using for consensus, should pass proof  of possession. 48 bytes.",
          "blsPop": "The BLS public key proof-of-possession, which consists of a signature on the  account address. 96 bytes.",
          "sender": "The address signed by the BLS key to generate the proof of possession."
        },
        "return": "True upon success."
      },
      "complete(bytes32,uint8,bytes32,bytes32)": {
        "details": "Throws if there is no matching outstanding attestation request.Throws if the attestation window has passed.",
        "params": {
          "identifier": "The hash of the identifier for this attestation.",
          "r": "Output value r of the ECDSA signature.",
          "s": "Output value s of the ECDSA signature.",
          "v": "The recovery id of the incoming ECDSA signature."
        }
      },
      "fractionMulExp(uint256,uint256,uint256,uint256,uint256,uint256)": {
        "params": {
          "_decimals": "precision",
          "aDenominator": "Denominator of first fraction",
          "aNumerator": "Numerator of first fraction",
          "bDenominator": "Denominator of exponentiated fraction",
          "bNumerator": "Numerator of exponentiated fraction",
          "exponent": "exponent to raise b to"
        },
        "return": "Numerator of the computed quantity (not reduced).Denominator of the computed quantity (not reduced)."
      },
      "getAttestationIssuers(bytes32,address)": {
        "params": {
          "account": "Address of the account.",
          "identifier": "Hash of the identifier."
        },
        "return": "Addresses of the selected attestation issuers."
      },
      "getAttestationRequestFee(address)": {
        "params": {
          "token": "Address of the attestationRequestFeeToken."
        },
        "return": "The fee."
      },
      "getAttestationState(bytes32,address,address)": {
        "params": {
          "account": "Address of the account.",
          "identifier": "Hash of the identifier.",
          "issuer": "Address of the issuer."
        },
        "return": "status Status of the attestation.block Block number of request/completion the attestation.address Address of the token with which this attestation request was paid for."
      },
      "getAttestationStats(bytes32,address)": {
        "params": {
          "account": "Address of the account.",
          "identifier": "Hash of the identifier."
        },
        "return": "completed Number of completed attestations.requested Number of total requested attestations."
      },
      "getBlockNumberFromHeader(bytes)": {
        "params": {
          "header": "RLP encoded header"
        },
        "return": "Block number."
      },
      "getCompletableAttestations(bytes32,address)": {
        "params": {
          "account": "Address of the account.",
          "identifier": "Hash of the identifier."
        },
        "return": "Block number of request/completion the attestation.Address of the issuer.The length of each metadataURL string for each issuer.All strings concatenated."
      },
      "getEpochNumber()": {
        "return": "Current epoch number."
      },
      "getEpochNumberOfBlock(uint256)": {
        "params": {
          "blockNumber": "Block number where epoch number is calculated."
        },
        "return": "Epoch number."
      },
      "getEpochSize()": {
        "return": "The current epoch size in blocks."
      },
      "getMaxAttestations()": {
        "return": "Maximum number of attestations that can be requested."
      },
      "getParentSealBitmap(uint256)": {
        "params": {
          "blockNumber": "Block number to retrieve. Must be within 4 epochs of the current number."
        },
        "return": "Bitmap parent seal with set bits at indices corresponding to signing validators."
      },
      "getUnselectedRequest(bytes32,address)": {
        "params": {
          "account": "Address of the account.",
          "identifier": "Hash of the identifier."
        },
        "return": "block Block number at which was requested.number Number of unselected requests.address Address of the token with which this attestation request was paid for."
      },
      "getVerifiedSealBitmapFromHeader(bytes)": {
        "params": {
          "header": "RLP encoded header"
        },
        "return": "Bitmap parent seal with set bits at indices correspoinding to signing validators."
      },
      "getVersionNumber()": {
        "return": "Storage version of the contract.Major version of the contract.Minor version of the contract.Patch version of the contract."
      },
      "hashHeader(bytes)": {
        "params": {
          "header": "RLP encoded header"
        },
        "return": "Header hash."
      },
      "initialize(address,uint256,uint256,uint256,address[],uint256[])": {
        "params": {
          "_attestationExpiryBlocks": "The new limit on blocks allowed to come between requesting an attestation and completing it.",
          "_selectIssuersWaitBlocks": "The wait period in blocks to call selectIssuers on attestation requests.",
          "attestationRequestFeeTokens": "The address of tokens that fees should be payable in.",
          "attestationRequestFeeValues": "The corresponding fee values.",
          "registryAddress": "The address of the registry core smart contract."
        }
      },
      "isOwner()": {
        "details": "Returns true if the caller is the current owner."
      },
      "minQuorumSize(uint256)": {
        "details": "Computed in celo-blockchain as int(math.Ceil(float64(2*valSet.Size()) / 3))"
      },
      "minQuorumSizeInCurrentSet()": {
        "return": "Byzantine quorum of validators."
      },
      "numberValidatorsInSet(uint256)": {
        "params": {
          "blockNumber": "Block number to retrieve the validator set from."
        },
        "return": "Size of the validator set."
      },
      "owner()": {
        "details": "Returns the address of the current owner."
      },
      "renounceOwnership()": {
        "details": "Leaves the contract without owner. It will not be possible to call `onlyOwner` functions anymore. Can only be called by the current owner.     * NOTE: Renouncing ownership will leave the contract without an owner, thereby removing any functionality that is only available to the owner."
      },
      "request(bytes32,uint256,address)": {
        "details": "Note that if an attestation expires before it is completed, the fee is forfeited. This is to prevent folks from attacking validators by requesting attestations that they do not complete, and to increase the cost of validators attempting to manipulate the attestations protocol.",
        "params": {
          "attestationRequestFeeToken": "The address of the token with which the attestation fee will be paid.",
          "attestationsRequested": "The number of requested attestations for this request.",
          "identifier": "The hash of the identifier to be attested."
        }
      },
      "requireNAttestationsRequested(bytes32,address,uint32)": {
        "details": "It can be used when batching meta-transactions to validate attestation are requested as expected in untrusted scenarios",
        "params": {
          "account": "Address of the account.",
          "expected": "Number of expected attestations",
          "identifier": "Hash of the identifier."
        }
      },
      "revoke(bytes32,uint256)": {
        "params": {
          "identifier": "The identifier for which to revoke.",
          "index": "The index of the account in the accounts array."
        }
      },
      "selectIssuers(bytes32)": {
        "params": {
          "identifier": "The hash of the identifier to be attested."
        }
      },
      "setAttestationExpiryBlocks(uint256)": {
        "params": {
          "_attestationExpiryBlocks": "The new limit on blocks allowed to come between requesting an attestation and completing it."
        }
      },
      "setAttestationRequestFee(address,uint256)": {
        "params": {
          "fee": "The fee in 'token' that is required for each attestation.",
          "token": "The address of the attestationRequestFeeToken."
        }
      },
      "setMaxAttestations(uint256)": {
        "params": {
          "_maxAttestations": "Maximum number of attestations that can be requested."
        }
      },
      "setRegistry(address)": {
        "params": {
          "registryAddress": "The address of a registry contract for routing to other contracts."
        }
      },
      "setSelectIssuersWaitBlocks(uint256)": {
        "params": {
          "_selectIssuersWaitBlocks": "The wait period in blocks to call selectIssuers on attestation                                requests."
        }
      },
      "transferOwnership(address)": {
        "details": "Transfers ownership of the contract to a new account (`newOwner`). Can only be called by the current owner."
      },
      "validateAttestationCode(bytes32,address,uint8,bytes32,bytes32)": {
        "details": "Throws if there is no matching outstanding attestation request.Throws if the attestation window has passed.",
        "params": {
          "account": "Address of the account. ",
          "identifier": "The hash of the identifier to be attested.",
          "r": "Output value r of the ECDSA signature.",
          "s": "Output value s of the ECDSA signature.",
          "v": "The recovery id of the incoming ECDSA signature."
        },
        "return": "The issuer of the corresponding attestation."
      },
      "validatorSignerAddressFromSet(uint256,uint256)": {
        "params": {
          "blockNumber": "Block number to retrieve the validator set from.",
          "index": "Index of requested validator in the validator set."
        },
        "return": "Address of validator at the requested index."
      },
      "withdraw(address)": {
        "details": "Throws if msg.sender does not have any rewards to withdraw.",
        "params": {
          "token": "The address of the token that will be withdrawn."
        }
      }
    }
  },
  "userdoc": {
    "methods": {
      "batchGetAttestationStats(bytes32[])": {
        "notice": "Batch lookup function to determine attestation stats for a list of identifiers."
      },
      "checkProofOfPossession(address,bytes,bytes)": {
        "notice": "Checks a BLS proof of possession."
      },
      "complete(bytes32,uint8,bytes32,bytes32)": {
        "notice": "Submit the secret message sent by the issuer to complete the attestation request."
      },
      "fractionMulExp(uint256,uint256,uint256,uint256,uint256,uint256)": {
        "notice": "calculate a * b^x for fractions a, b to `decimals` precision"
      },
      "getAttestationIssuers(bytes32,address)": {
        "notice": "Returns selected attestation issuers for a identifier/account pair."
      },
      "getAttestationRequestFee(address)": {
        "notice": "Returns the fee set for a particular token."
      },
      "getAttestationState(bytes32,address,address)": {
        "notice": "Returns the state of a specific attestation."
      },
      "getAttestationStats(bytes32,address)": {
        "notice": "Returns attestation stats for a identifier/account pair."
      },
      "getBlockNumberFromHeader(bytes)": {
        "notice": "Parses block number out of header."
      },
      "getCompletableAttestations(bytes32,address)": {
        "notice": "Returns the state of all attestations that are completable"
      },
      "getEpochNumber()": {
        "notice": "Returns the epoch number at a block."
      },
      "getEpochNumberOfBlock(uint256)": {
        "notice": "Returns the epoch number at a block."
      },
      "getEpochSize()": {
        "notice": "Returns the current epoch size in blocks."
      },
      "getMaxAttestations()": {
        "notice": "Query 'maxAttestations'"
      },
      "getParentSealBitmap(uint256)": {
        "notice": "Gets the parent seal bitmap from the header at the given block number."
      },
      "getUnselectedRequest(bytes32,address)": {
        "notice": "Returns the unselected attestation request for an identifier/account pair, if any."
      },
      "getVerifiedSealBitmapFromHeader(bytes)": {
        "notice": "Verifies the BLS signature on the header and returns the seal bitmap. The validator set used for verification is retrieved based on the parent hash field of the header.  If the parent hash is not in the blockchain, verification fails."
      },
      "getVersionNumber()": {
        "notice": "Returns the storage, major, minor, and patch version of the contract."
      },
      "hashHeader(bytes)": {
        "notice": "Computes hash of header."
      },
      "initialize(address,uint256,uint256,uint256,address[],uint256[])": {
        "notice": "Used in place of the constructor to allow the contract to be upgradable via proxy."
      },
      "minQuorumSize(uint256)": {
        "notice": "Returns the minimum number of required signers for a given block number."
      },
      "minQuorumSizeInCurrentSet()": {
        "notice": "Computes byzantine quorum from current validator set size"
      },
      "numberValidatorsInSet(uint256)": {
        "notice": "Gets the size of the validator set that must sign the given block number."
      },
      "request(bytes32,uint256,address)": {
        "notice": "Commit to the attestation request of a hashed identifier."
      },
      "requireNAttestationsRequested(bytes32,address,uint32)": {
        "notice": "Require that a given identifier/address pair has requested a specific number of attestations."
      },
      "revoke(bytes32,uint256)": {
        "notice": "Revokes an account for an identifier."
      },
      "selectIssuers(bytes32)": {
        "notice": "Selects the issuers for the most recent attestation request."
      },
      "setAttestationExpiryBlocks(uint256)": {
        "notice": "Updates 'attestationExpiryBlocks'."
      },
      "setAttestationRequestFee(address,uint256)": {
        "notice": "Updates the fee  for a particular token."
      },
      "setMaxAttestations(uint256)": {
        "notice": "Updates 'maxAttestations'."
      },
      "setRegistry(address)": {
        "notice": "Updates the address pointing to a Registry contract."
      },
      "setSelectIssuersWaitBlocks(uint256)": {
        "notice": "Updates 'selectIssuersWaitBlocks'."
      },
      "validateAttestationCode(bytes32,address,uint8,bytes32,bytes32)": {
        "notice": "Validates the given attestation code."
      },
      "validatorSignerAddressFromSet(uint256,uint256)": {
        "notice": "Gets a validator address from the validator set at the given block number."
      },
      "withdraw(address)": {
        "notice": "Allows issuers to withdraw accumulated attestation rewards."
      }
    }
  }
}