{
  "contractName": "Attestations",
  "abi": [
    {
      "inputs": [
        {
          "internalType": "bool",
          "name": "test",
          "type": "bool"
        }
      ],
      "payable": false,
      "stateMutability": "nonpayable",
      "type": "constructor"
    },
    {
      "anonymous": false,
      "inputs": [
        {
          "indexed": true,
          "internalType": "bytes32",
          "name": "identifier",
          "type": "bytes32"
        },
        {
          "indexed": true,
          "internalType": "address",
          "name": "account",
          "type": "address"
        },
        {
          "indexed": true,
          "internalType": "address",
          "name": "issuer",
          "type": "address"
        }
      ],
      "name": "AttestationCompleted",
      "type": "event"
    },
    {
      "anonymous": false,
      "inputs": [
        {
          "indexed": false,
          "internalType": "uint256",
          "name": "value",
          "type": "uint256"
        }
      ],
      "name": "AttestationExpiryBlocksSet",
      "type": "event"
    },
    {
      "anonymous": false,
      "inputs": [
        {
          "indexed": true,
          "internalType": "bytes32",
          "name": "identifier",
          "type": "bytes32"
        },
        {
          "indexed": true,
          "internalType": "address",
          "name": "account",
          "type": "address"
        },
        {
          "indexed": true,
          "internalType": "address",
          "name": "issuer",
          "type": "address"
        },
        {
          "indexed": false,
          "internalType": "address",
          "name": "attestationRequestFeeToken",
          "type": "address"
        }
      ],
      "name": "AttestationIssuerSelected",
      "type": "event"
    },
    {
      "anonymous": false,
      "inputs": [
        {
          "indexed": true,
          "internalType": "address",
          "name": "token",
          "type": "address"
        },
        {
          "indexed": false,
          "internalType": "uint256",
          "name": "value",
          "type": "uint256"
        }
      ],
      "name": "AttestationRequestFeeSet",
      "type": "event"
    },
    {
      "anonymous": false,
      "inputs": [
        {
          "indexed": true,
          "internalType": "bytes32",
          "name": "identifier",
          "type": "bytes32"
        },
        {
          "indexed": true,
          "internalType": "address",
          "name": "account",
          "type": "address"
        },
        {
          "indexed": false,
          "internalType": "uint256",
          "name": "attestationsRequested",
          "type": "uint256"
        },
        {
          "indexed": false,
          "internalType": "address",
          "name": "attestationRequestFeeToken",
          "type": "address"
        }
      ],
      "name": "AttestationsRequested",
      "type": "event"
    },
    {
      "anonymous": false,
      "inputs": [
        {
          "indexed": true,
          "internalType": "bytes32",
          "name": "identifier",
          "type": "bytes32"
        },
        {
          "indexed": true,
          "internalType": "address",
          "name": "fromAccount",
          "type": "address"
        },
        {
          "indexed": true,
          "internalType": "address",
          "name": "toAccount",
          "type": "address"
        }
      ],
      "name": "AttestationsTransferred",
      "type": "event"
    },
    {
      "anonymous": false,
      "inputs": [
        {
          "indexed": false,
          "internalType": "uint256",
          "name": "value",
          "type": "uint256"
        }
      ],
      "name": "MaxAttestationsSet",
      "type": "event"
    },
    {
      "anonymous": false,
      "inputs": [
        {
          "indexed": true,
          "internalType": "address",
          "name": "previousOwner",
          "type": "address"
        },
        {
          "indexed": true,
          "internalType": "address",
          "name": "newOwner",
          "type": "address"
        }
      ],
      "name": "OwnershipTransferred",
      "type": "event"
    },
    {
      "anonymous": false,
      "inputs": [
        {
          "indexed": true,
          "internalType": "address",
          "name": "registryAddress",
          "type": "address"
        }
      ],
      "name": "RegistrySet",
      "type": "event"
    },
    {
      "anonymous": false,
      "inputs": [
        {
          "indexed": false,
          "internalType": "uint256",
          "name": "value",
          "type": "uint256"
        }
      ],
      "name": "SelectIssuersWaitBlocksSet",
      "type": "event"
    },
    {
      "anonymous": false,
      "inputs": [
        {
          "indexed": true,
          "internalType": "address",
          "name": "approver",
          "type": "address"
        },
        {
          "indexed": true,
          "internalType": "bytes32",
          "name": "indentifier",
          "type": "bytes32"
        },
        {
          "indexed": false,
          "internalType": "address",
          "name": "from",
          "type": "address"
        },
        {
          "indexed": false,
          "internalType": "address",
          "name": "to",
          "type": "address"
        },
        {
          "indexed": false,
          "internalType": "bool",
          "name": "approved",
          "type": "bool"
        }
      ],
      "name": "TransferApproval",
      "type": "event"
    },
    {
      "anonymous": false,
      "inputs": [
        {
          "indexed": true,
          "internalType": "address",
          "name": "account",
          "type": "address"
        },
        {
          "indexed": true,
          "internalType": "address",
          "name": "token",
          "type": "address"
        },
        {
          "indexed": false,
          "internalType": "uint256",
          "name": "amount",
          "type": "uint256"
        }
      ],
      "name": "Withdrawal",
      "type": "event"
    },
    {
      "constant": true,
      "inputs": [],
      "name": "attestationExpiryBlocks",
      "outputs": [
        {
          "internalType": "uint256",
          "name": "",
          "type": "uint256"
        }
      ],
      "payable": false,
      "stateMutability": "view",
      "type": "function"
    },
    {
      "constant": true,
      "inputs": [
        {
          "internalType": "address",
          "name": "",
          "type": "address"
        }
      ],
      "name": "attestationRequestFees",
      "outputs": [
        {
          "internalType": "uint256",
          "name": "",
          "type": "uint256"
        }
      ],
      "payable": false,
      "stateMutability": "view",
      "type": "function"
    },
    {
      "constant": true,
      "inputs": [
        {
          "internalType": "address",
          "name": "sender",
          "type": "address"
        },
        {
          "internalType": "bytes",
          "name": "blsKey",
          "type": "bytes"
        },
        {
          "internalType": "bytes",
          "name": "blsPop",
          "type": "bytes"
        }
      ],
      "name": "checkProofOfPossession",
      "outputs": [
        {
          "internalType": "bool",
          "name": "",
          "type": "bool"
        }
      ],
      "payable": false,
      "stateMutability": "view",
      "type": "function"
    },
    {
      "constant": true,
      "inputs": [
        {
          "internalType": "uint256",
          "name": "aNumerator",
          "type": "uint256"
        },
        {
          "internalType": "uint256",
          "name": "aDenominator",
          "type": "uint256"
        },
        {
          "internalType": "uint256",
          "name": "bNumerator",
          "type": "uint256"
        },
        {
          "internalType": "uint256",
          "name": "bDenominator",
          "type": "uint256"
        },
        {
          "internalType": "uint256",
          "name": "exponent",
          "type": "uint256"
        },
        {
          "internalType": "uint256",
          "name": "_decimals",
          "type": "uint256"
        }
      ],
      "name": "fractionMulExp",
      "outputs": [
        {
          "internalType": "uint256",
          "name": "",
          "type": "uint256"
        },
        {
          "internalType": "uint256",
          "name": "",
          "type": "uint256"
        }
      ],
      "payable": false,
      "stateMutability": "view",
      "type": "function"
    },
    {
      "constant": true,
      "inputs": [
        {
          "internalType": "bytes",
          "name": "header",
          "type": "bytes"
        }
      ],
      "name": "getBlockNumberFromHeader",
      "outputs": [
        {
          "internalType": "uint256",
          "name": "",
          "type": "uint256"
        }
      ],
      "payable": false,
      "stateMutability": "view",
      "type": "function"
    },
    {
      "constant": true,
      "inputs": [],
      "name": "getEpochNumber",
      "outputs": [
        {
          "internalType": "uint256",
          "name": "",
          "type": "uint256"
        }
      ],
      "payable": false,
      "stateMutability": "view",
      "type": "function"
    },
    {
      "constant": true,
      "inputs": [
        {
          "internalType": "uint256",
          "name": "blockNumber",
          "type": "uint256"
        }
      ],
      "name": "getEpochNumberOfBlock",
      "outputs": [
        {
          "internalType": "uint256",
          "name": "",
          "type": "uint256"
        }
      ],
      "payable": false,
      "stateMutability": "view",
      "type": "function"
    },
    {
      "constant": true,
      "inputs": [],
      "name": "getEpochSize",
      "outputs": [
        {
          "internalType": "uint256",
          "name": "",
          "type": "uint256"
        }
      ],
      "payable": false,
      "stateMutability": "view",
      "type": "function"
    },
    {
      "constant": true,
      "inputs": [
        {
          "internalType": "uint256",
          "name": "blockNumber",
          "type": "uint256"
        }
      ],
      "name": "getParentSealBitmap",
      "outputs": [
        {
          "internalType": "bytes32",
          "name": "",
          "type": "bytes32"
        }
      ],
      "payable": false,
      "stateMutability": "view",
      "type": "function"
    },
    {
      "constant": true,
      "inputs": [
        {
          "internalType": "bytes",
          "name": "header",
          "type": "bytes"
        }
      ],
      "name": "getVerifiedSealBitmapFromHeader",
      "outputs": [
        {
          "internalType": "bytes32",
          "name": "",
          "type": "bytes32"
        }
      ],
      "payable": false,
      "stateMutability": "view",
      "type": "function"
    },
    {
      "constant": true,
      "inputs": [
        {
          "internalType": "bytes",
          "name": "header",
          "type": "bytes"
        }
      ],
      "name": "hashHeader",
      "outputs": [
        {
          "internalType": "bytes32",
          "name": "",
          "type": "bytes32"
        }
      ],
      "payable": false,
      "stateMutability": "view",
      "type": "function"
    },
    {
      "constant": true,
      "inputs": [],
      "name": "initialized",
      "outputs": [
        {
          "internalType": "bool",
          "name": "",
          "type": "bool"
        }
      ],
      "payable": false,
      "stateMutability": "view",
      "type": "function"
    },
    {
      "constant": true,
      "inputs": [],
      "name": "isOwner",
      "outputs": [
        {
          "internalType": "bool",
          "name": "",
          "type": "bool"
        }
      ],
      "payable": false,
      "stateMutability": "view",
      "type": "function"
    },
    {
      "constant": true,
      "inputs": [],
      "name": "maxAttestations",
      "outputs": [
        {
          "internalType": "uint256",
          "name": "",
          "type": "uint256"
        }
      ],
      "payable": false,
      "stateMutability": "view",
      "type": "function"
    },
    {
      "constant": true,
      "inputs": [
        {
          "internalType": "uint256",
          "name": "blockNumber",
          "type": "uint256"
        }
      ],
      "name": "minQuorumSize",
      "outputs": [
        {
          "internalType": "uint256",
          "name": "",
          "type": "uint256"
        }
      ],
      "payable": false,
      "stateMutability": "view",
      "type": "function"
    },
    {
      "constant": true,
      "inputs": [],
      "name": "minQuorumSizeInCurrentSet",
      "outputs": [
        {
          "internalType": "uint256",
          "name": "",
          "type": "uint256"
        }
      ],
      "payable": false,
      "stateMutability": "view",
      "type": "function"
    },
    {
      "constant": true,
      "inputs": [],
      "name": "numberValidatorsInCurrentSet",
      "outputs": [
        {
          "internalType": "uint256",
          "name": "",
          "type": "uint256"
        }
      ],
      "payable": false,
      "stateMutability": "view",
      "type": "function"
    },
    {
      "constant": true,
      "inputs": [
        {
          "internalType": "uint256",
          "name": "blockNumber",
          "type": "uint256"
        }
      ],
      "name": "numberValidatorsInSet",
      "outputs": [
        {
          "internalType": "uint256",
          "name": "",
          "type": "uint256"
        }
      ],
      "payable": false,
      "stateMutability": "view",
      "type": "function"
    },
    {
      "constant": true,
      "inputs": [],
      "name": "owner",
      "outputs": [
        {
          "internalType": "address",
          "name": "",
          "type": "address"
        }
      ],
      "payable": false,
      "stateMutability": "view",
      "type": "function"
    },
    {
      "constant": true,
      "inputs": [
        {
          "internalType": "address",
          "name": "",
          "type": "address"
        },
        {
          "internalType": "address",
          "name": "",
          "type": "address"
        }
      ],
      "name": "pendingWithdrawals",
      "outputs": [
        {
          "internalType": "uint256",
          "name": "",
          "type": "uint256"
        }
      ],
      "payable": false,
      "stateMutability": "view",
      "type": "function"
    },
    {
      "constant": true,
      "inputs": [],
      "name": "registry",
      "outputs": [
        {
          "internalType": "contract IRegistry",
          "name": "",
          "type": "address"
        }
      ],
      "payable": false,
      "stateMutability": "view",
      "type": "function"
    },
    {
      "constant": false,
      "inputs": [],
      "name": "renounceOwnership",
      "outputs": [],
      "payable": false,
      "stateMutability": "nonpayable",
      "type": "function"
    },
    {
      "constant": true,
      "inputs": [],
      "name": "selectIssuersWaitBlocks",
      "outputs": [
        {
          "internalType": "uint256",
          "name": "",
          "type": "uint256"
        }
      ],
      "payable": false,
      "stateMutability": "view",
      "type": "function"
    },
    {
      "constant": false,
      "inputs": [
        {
          "internalType": "address",
          "name": "registryAddress",
          "type": "address"
        }
      ],
      "name": "setRegistry",
      "outputs": [],
      "payable": false,
      "stateMutability": "nonpayable",
      "type": "function"
    },
    {
      "constant": true,
      "inputs": [
        {
          "internalType": "address",
          "name": "",
          "type": "address"
        },
        {
          "internalType": "bytes32",
          "name": "",
          "type": "bytes32"
        }
      ],
      "name": "transferApprovals",
      "outputs": [
        {
          "internalType": "bool",
          "name": "",
          "type": "bool"
        }
      ],
      "payable": false,
      "stateMutability": "view",
      "type": "function"
    },
    {
      "constant": false,
      "inputs": [
        {
          "internalType": "address",
          "name": "newOwner",
          "type": "address"
        }
      ],
      "name": "transferOwnership",
      "outputs": [],
      "payable": false,
      "stateMutability": "nonpayable",
      "type": "function"
    },
    {
      "constant": true,
      "inputs": [
        {
          "internalType": "uint256",
          "name": "index",
          "type": "uint256"
        }
      ],
      "name": "validatorSignerAddressFromCurrentSet",
      "outputs": [
        {
          "internalType": "address",
          "name": "",
          "type": "address"
        }
      ],
      "payable": false,
      "stateMutability": "view",
      "type": "function"
    },
    {
      "constant": true,
      "inputs": [
        {
          "internalType": "uint256",
          "name": "index",
          "type": "uint256"
        },
        {
          "internalType": "uint256",
          "name": "blockNumber",
          "type": "uint256"
        }
      ],
      "name": "validatorSignerAddressFromSet",
      "outputs": [
        {
          "internalType": "address",
          "name": "",
          "type": "address"
        }
      ],
      "payable": false,
      "stateMutability": "view",
      "type": "function"
    },
    {
      "constant": false,
      "inputs": [
        {
          "internalType": "address",
          "name": "registryAddress",
          "type": "address"
        },
        {
          "internalType": "uint256",
          "name": "_attestationExpiryBlocks",
          "type": "uint256"
        },
        {
          "internalType": "uint256",
          "name": "_selectIssuersWaitBlocks",
          "type": "uint256"
        },
        {
          "internalType": "uint256",
          "name": "_maxAttestations",
          "type": "uint256"
        },
        {
          "internalType": "address[]",
          "name": "attestationRequestFeeTokens",
          "type": "address[]"
        },
        {
          "internalType": "uint256[]",
          "name": "attestationRequestFeeValues",
          "type": "uint256[]"
        }
      ],
      "name": "initialize",
      "outputs": [],
      "payable": false,
      "stateMutability": "nonpayable",
      "type": "function"
    },
    {
      "constant": true,
      "inputs": [],
      "name": "getVersionNumber",
      "outputs": [
        {
          "internalType": "uint256",
          "name": "",
          "type": "uint256"
        },
        {
          "internalType": "uint256",
          "name": "",
          "type": "uint256"
        },
        {
          "internalType": "uint256",
          "name": "",
          "type": "uint256"
        },
        {
          "internalType": "uint256",
          "name": "",
          "type": "uint256"
        }
      ],
      "payable": false,
      "stateMutability": "pure",
      "type": "function"
    },
    {
      "constant": false,
      "inputs": [
        {
          "internalType": "bytes32",
          "name": "identifier",
          "type": "bytes32"
        },
        {
          "internalType": "uint256",
          "name": "index",
          "type": "uint256"
        }
      ],
      "name": "revoke",
      "outputs": [],
      "payable": false,
      "stateMutability": "nonpayable",
      "type": "function"
    },
    {
      "constant": false,
      "inputs": [
        {
          "internalType": "address",
          "name": "token",
          "type": "address"
        }
      ],
      "name": "withdraw",
      "outputs": [],
      "payable": false,
      "stateMutability": "nonpayable",
      "type": "function"
    },
    {
      "constant": true,
      "inputs": [
        {
          "internalType": "bytes32",
          "name": "identifier",
          "type": "bytes32"
        },
        {
          "internalType": "address",
          "name": "account",
          "type": "address"
        }
      ],
      "name": "getUnselectedRequest",
      "outputs": [
        {
          "internalType": "uint32",
          "name": "",
          "type": "uint32"
        },
        {
          "internalType": "uint32",
          "name": "",
          "type": "uint32"
        },
        {
          "internalType": "address",
          "name": "",
          "type": "address"
        }
      ],
      "payable": false,
      "stateMutability": "view",
      "type": "function"
    },
    {
      "constant": true,
      "inputs": [
        {
          "internalType": "bytes32",
          "name": "identifier",
          "type": "bytes32"
        },
        {
          "internalType": "address",
          "name": "account",
          "type": "address"
        }
      ],
      "name": "getAttestationIssuers",
      "outputs": [
        {
          "internalType": "address[]",
          "name": "",
          "type": "address[]"
        }
      ],
      "payable": false,
      "stateMutability": "view",
      "type": "function"
    },
    {
      "constant": true,
      "inputs": [
        {
          "internalType": "bytes32",
          "name": "identifier",
          "type": "bytes32"
        },
        {
          "internalType": "address",
          "name": "account",
          "type": "address"
        }
      ],
      "name": "getAttestationStats",
      "outputs": [
        {
          "internalType": "uint32",
          "name": "",
          "type": "uint32"
        },
        {
          "internalType": "uint32",
          "name": "",
          "type": "uint32"
        }
      ],
      "payable": false,
      "stateMutability": "view",
      "type": "function"
    },
    {
      "constant": true,
      "inputs": [
        {
          "internalType": "bytes32[]",
          "name": "identifiersToLookup",
          "type": "bytes32[]"
        }
      ],
      "name": "batchGetAttestationStats",
      "outputs": [
        {
          "internalType": "uint256[]",
          "name": "",
          "type": "uint256[]"
        },
        {
          "internalType": "address[]",
          "name": "",
          "type": "address[]"
        },
        {
          "internalType": "uint64[]",
          "name": "",
          "type": "uint64[]"
        },
        {
          "internalType": "uint64[]",
          "name": "",
          "type": "uint64[]"
        }
      ],
      "payable": false,
      "stateMutability": "view",
      "type": "function"
    },
    {
      "constant": true,
      "inputs": [
        {
          "internalType": "bytes32",
          "name": "identifier",
          "type": "bytes32"
        },
        {
          "internalType": "address",
          "name": "account",
          "type": "address"
        },
        {
          "internalType": "address",
          "name": "issuer",
          "type": "address"
        }
      ],
      "name": "getAttestationState",
      "outputs": [
        {
          "internalType": "uint8",
          "name": "",
          "type": "uint8"
        },
        {
          "internalType": "uint32",
          "name": "",
          "type": "uint32"
        },
        {
          "internalType": "address",
          "name": "",
          "type": "address"
        }
      ],
      "payable": false,
      "stateMutability": "view",
      "type": "function"
    },
    {
      "constant": true,
      "inputs": [
        {
          "internalType": "bytes32",
          "name": "identifier",
          "type": "bytes32"
        },
        {
          "internalType": "address",
          "name": "account",
          "type": "address"
        }
      ],
      "name": "getCompletableAttestations",
      "outputs": [
        {
          "internalType": "uint32[]",
          "name": "",
          "type": "uint32[]"
        },
        {
          "internalType": "address[]",
          "name": "",
          "type": "address[]"
        },
        {
          "internalType": "uint256[]",
          "name": "",
          "type": "uint256[]"
        },
        {
          "internalType": "bytes",
          "name": "",
          "type": "bytes"
        }
      ],
      "payable": false,
      "stateMutability": "view",
      "type": "function"
    },
    {
      "constant": true,
      "inputs": [
        {
          "internalType": "address",
          "name": "token",
          "type": "address"
        }
      ],
      "name": "getAttestationRequestFee",
      "outputs": [
        {
          "internalType": "uint256",
          "name": "",
          "type": "uint256"
        }
      ],
      "payable": false,
      "stateMutability": "view",
      "type": "function"
    },
    {
      "constant": false,
      "inputs": [
        {
          "internalType": "address",
          "name": "token",
          "type": "address"
        },
        {
          "internalType": "uint256",
          "name": "fee",
          "type": "uint256"
        }
      ],
      "name": "setAttestationRequestFee",
      "outputs": [],
      "payable": false,
      "stateMutability": "nonpayable",
      "type": "function"
    },
    {
      "constant": false,
      "inputs": [
        {
          "internalType": "uint256",
          "name": "_attestationExpiryBlocks",
          "type": "uint256"
        }
      ],
      "name": "setAttestationExpiryBlocks",
      "outputs": [],
      "payable": false,
      "stateMutability": "nonpayable",
      "type": "function"
    },
    {
      "constant": false,
      "inputs": [
        {
          "internalType": "uint256",
          "name": "_selectIssuersWaitBlocks",
          "type": "uint256"
        }
      ],
      "name": "setSelectIssuersWaitBlocks",
      "outputs": [],
      "payable": false,
      "stateMutability": "nonpayable",
      "type": "function"
    },
    {
      "constant": false,
      "inputs": [
        {
          "internalType": "uint256",
          "name": "_maxAttestations",
          "type": "uint256"
        }
      ],
      "name": "setMaxAttestations",
      "outputs": [],
      "payable": false,
      "stateMutability": "nonpayable",
      "type": "function"
    },
    {
      "constant": true,
      "inputs": [],
      "name": "getMaxAttestations",
      "outputs": [
        {
          "internalType": "uint256",
          "name": "",
          "type": "uint256"
        }
      ],
      "payable": false,
      "stateMutability": "view",
      "type": "function"
    },
    {
      "constant": true,
      "inputs": [
        {
          "internalType": "bytes32",
          "name": "identifier",
          "type": "bytes32"
        },
        {
          "internalType": "address",
          "name": "account",
          "type": "address"
        },
        {
          "internalType": "uint8",
          "name": "v",
          "type": "uint8"
        },
        {
          "internalType": "bytes32",
          "name": "r",
          "type": "bytes32"
        },
        {
          "internalType": "bytes32",
          "name": "s",
          "type": "bytes32"
        }
      ],
      "name": "validateAttestationCode",
      "outputs": [
        {
          "internalType": "address",
          "name": "",
          "type": "address"
        }
      ],
      "payable": false,
      "stateMutability": "view",
      "type": "function"
    },
    {
      "constant": true,
      "inputs": [
        {
          "internalType": "bytes32",
          "name": "identifier",
          "type": "bytes32"
        }
      ],
      "name": "lookupAccountsForIdentifier",
      "outputs": [
        {
          "internalType": "address[]",
          "name": "",
          "type": "address[]"
        }
      ],
      "payable": false,
      "stateMutability": "view",
      "type": "function"
    },
    {
      "constant": true,
      "inputs": [
        {
          "internalType": "bytes32",
          "name": "identifier",
          "type": "bytes32"
        },
        {
          "internalType": "address",
          "name": "account",
          "type": "address"
        },
        {
          "internalType": "uint32",
          "name": "expected",
          "type": "uint32"
        }
      ],
      "name": "requireNAttestationsRequested",
      "outputs": [],
      "payable": false,
      "stateMutability": "view",
      "type": "function"
    }
  ],
  "bytecode": "0x60806040523480156200001157600080fd5b5060405162005bd238038062005bd2833981810160405260208110156200003757600080fd5b81019080805190602001909291905050508060006200005b6200012b60201b60201c565b9050806000806101000a81548173ffffffffffffffffffffffffffffffffffffffff021916908373ffffffffffffffffffffffffffffffffffffffff1602179055508073ffffffffffffffffffffffffffffffffffffffff16600073ffffffffffffffffffffffffffffffffffffffff167f8be0079c531659141344cd1fd0a4f28419497f9722a3daafe3b4186f6b6457e060405160405180910390a350806200011b576001600060146101000a81548160ff0219169083151502179055505b5060016002819055505062000133565b600033905090565b615a8f80620001436000396000f3fe608060405234801561001057600080fd5b50600436106102955760003560e01c80638a88362611610167578063bd93f998116100ce578063e831be5811610087578063e831be581461141d578063ec68307214611495578063f2fde38b14611510578063f3ff26c614611554578063fae8db0a146115a2578063fd536f5d146115e457610295565b8063bd93f99814611255578063be2c47a6146112ad578063df4da461146112db578063e02659ce146112f9578063e3d0f66f14611327578063e50e652d146113db57610295565b8063a6437e7311610120578063a6437e7314611061578063a762825a1461108f578063a91ee0dc146110ed578063b45eb7da14611131578063b5599cc61461114f578063bb46942f1461121d57610295565b80638a88362614610d205780638da5cb5b14610def5780638f32d59b14610e3957806396357c0a14610e5b5780639a7b3be7146110015780639b2b592f1461101f57610295565b80635d180adb1161020b5780637796a684116101c45780637796a68414610bf85780637b10399914610c165780638218c6fe14610c6057806384a1a4fc14610c7e57806387ee8a0f14610ce457806389d3528614610d0257610295565b80635d180adb1461098e5780635fc5c91614610a06578063623d593114610aa957806367960e9114610b01578063715018a614610bd05780637385e5da14610bda57610295565b80634b2c2f441161025d5780634b2c2f44146105795780634eef7e851461064857806351cff8d9146107e757806354255be01461082b578063596abea51461085e5780635ce9bc07146108df57610295565b806303cc1aff1461029a578063123633ea1461031d578063158ef93e1461038b57806323f0ab65146103ad5780633b1eb4bf14610537575b600080fd5b6102c6600480360360208110156102b057600080fd5b81019080803590602001909291905050506116f0565b6040518080602001828103825283818151815260200191508051906020019060200280838360005b838110156103095780820151818401526020810190506102ee565b505050509050019250505060405180910390f35b6103496004803603602081101561033357600080fd5b8101908080359060200190929190505050611794565b604051808273ffffffffffffffffffffffffffffffffffffffff1673ffffffffffffffffffffffffffffffffffffffff16815260200191505060405180910390f35b6103936118e5565b604051808215151515815260200191505060405180910390f35b61051d600480360360608110156103c357600080fd5b81019080803573ffffffffffffffffffffffffffffffffffffffff1690602001909291908035906020019064010000000081111561040057600080fd5b82018360208201111561041257600080fd5b8035906020019184600183028401116401000000008311171561043457600080fd5b91908080601f016020809104026020016040519081016040528093929190818152602001838380828437600081840152601f19601f8201169050808301925050505050505091929192908035906020019064010000000081111561049757600080fd5b8201836020820111156104a957600080fd5b803590602001918460018302840111640100000000831117156104cb57600080fd5b91908080601f016020809104026020016040519081016040528093929190818152602001838380828437600081840152601f19601f8201169050808301925050505050505091929192905050506118f8565b604051808215151515815260200191505060405180910390f35b6105636004803603602081101561054d57600080fd5b8101908080359060200190929190505050611ab1565b6040518082815260200191505060405180910390f35b6106326004803603602081101561058f57600080fd5b81019080803590602001906401000000008111156105ac57600080fd5b8201836020820111156105be57600080fd5b803590602001918460018302840111640100000000831117156105e057600080fd5b91908080601f016020809104026020016040519081016040528093929190818152602001838380828437600081840152601f19601f820116905080830192505050505050509192919290505050611acb565b6040518082815260200191505060405180910390f35b6106946004803603604081101561065e57600080fd5b8101908080359060200190929190803573ffffffffffffffffffffffffffffffffffffffff169060200190929190505050611c5f565b6040518080602001806020018060200180602001858103855289818151815260200191508051906020019060200280838360005b838110156106e35780820151818401526020810190506106c8565b50505050905001858103845288818151815260200191508051906020019060200280838360005b8381101561072557808201518184015260208101905061070a565b50505050905001858103835287818151815260200191508051906020019060200280838360005b8381101561076757808201518184015260208101905061074c565b50505050905001858103825286818151815260200191508051906020019080838360005b838110156107a657808201518184015260208101905061078b565b50505050905090810190601f1680156107d35780820380516001836020036101000a031916815260200191505b509850505050505050505060405180910390f35b610829600480360360208110156107fd57600080fd5b81019080803573ffffffffffffffffffffffffffffffffffffffff169060200190929190505050612243565b005b61083361261d565b6040518085815260200184815260200183815260200182815260200194505050505060405180910390f35b6108aa6004803603604081101561087457600080fd5b8101908080359060200190929190803573ffffffffffffffffffffffffffffffffffffffff169060200190929190505050612644565b604051808363ffffffff1663ffffffff1681526020018263ffffffff1663ffffffff1681526020019250505060405180910390f35b61094c600480360360a08110156108f557600080fd5b8101908080359060200190929190803573ffffffffffffffffffffffffffffffffffffffff169060200190929190803560ff1690602001909291908035906020019092919080359060200190929190505050612720565b604051808273ffffffffffffffffffffffffffffffffffffffff1673ffffffffffffffffffffffffffffffffffffffff16815260200191505060405180910390f35b6109c4600480360360408110156109a457600080fd5b810190808035906020019092919080359060200190929190505050612aa9565b604051808273ffffffffffffffffffffffffffffffffffffffff1673ffffffffffffffffffffffffffffffffffffffff16815260200191505060405180910390f35b610a5260048036036040811015610a1c57600080fd5b8101908080359060200190929190803573ffffffffffffffffffffffffffffffffffffffff169060200190929190505050612bfb565b6040518080602001828103825283818151815260200191508051906020019060200280838360005b83811015610a95578082015181840152602081019050610a7a565b505050509050019250505060405180910390f35b610aeb60048036036020811015610abf57600080fd5b81019080803573ffffffffffffffffffffffffffffffffffffffff169060200190929190505050612ce0565b6040518082815260200191505060405180910390f35b610bba60048036036020811015610b1757600080fd5b8101908080359060200190640100000000811115610b3457600080fd5b820183602082011115610b4657600080fd5b80359060200191846001830284011164010000000083111715610b6857600080fd5b91908080601f016020809104026020016040519081016040528093929190818152602001838380828437600081840152601f19601f820116905080830192505050505050509192919290505050612d29565b6040518082815260200191505060405180910390f35b610bd8612ebd565b005b610be2612ff6565b6040518082815260200191505060405180910390f35b610c00613006565b6040518082815260200191505060405180910390f35b610c1e613010565b604051808273ffffffffffffffffffffffffffffffffffffffff1673ffffffffffffffffffffffffffffffffffffffff16815260200191505060405180910390f35b610c68613036565b6040518082815260200191505060405180910390f35b610cca60048036036040811015610c9457600080fd5b81019080803573ffffffffffffffffffffffffffffffffffffffff1690602001909291908035906020019092919050505061303c565b604051808215151515815260200191505060405180910390f35b610cec61306b565b6040518082815260200191505060405180910390f35b610d0a6131b2565b6040518082815260200191505060405180910390f35b610dd960048036036020811015610d3657600080fd5b8101908080359060200190640100000000811115610d5357600080fd5b820183602082011115610d6557600080fd5b80359060200191846001830284011164010000000083111715610d8757600080fd5b91908080601f016020809104026020016040519081016040528093929190818152602001838380828437600081840152601f19601f8201169050808301925050505050505091929192905050506131b8565b6040518082815260200191505060405180910390f35b610df761334c565b604051808273ffffffffffffffffffffffffffffffffffffffff1673ffffffffffffffffffffffffffffffffffffffff16815260200191505060405180910390f35b610e41613375565b604051808215151515815260200191505060405180910390f35b610ed260048036036020811015610e7157600080fd5b8101908080359060200190640100000000811115610e8e57600080fd5b820183602082011115610ea057600080fd5b80359060200191846020830284011164010000000083111715610ec257600080fd5b90919293919293905050506133d3565b6040518080602001806020018060200180602001858103855289818151815260200191508051906020019060200280838360005b83811015610f21578082015181840152602081019050610f06565b50505050905001858103845288818151815260200191508051906020019060200280838360005b83811015610f63578082015181840152602081019050610f48565b50505050905001858103835287818151815260200191508051906020019060200280838360005b83811015610fa5578082015181840152602081019050610f8a565b50505050905001858103825286818151815260200191508051906020019060200280838360005b83811015610fe7578082015181840152602081019050610fcc565b505050509050019850505050505050505060405180910390f35b6110096138dd565b6040518082815260200191505060405180910390f35b61104b6004803603602081101561103557600080fd5b81019080803590602001909291905050506138ed565b6040518082815260200191505060405180910390f35b61108d6004803603602081101561107757600080fd5b8101908080359060200190929190505050613a36565b005b6110eb600480360360608110156110a557600080fd5b8101908080359060200190929190803573ffffffffffffffffffffffffffffffffffffffff169060200190929190803563ffffffff169060200190929190505050613b4a565b005b61112f6004803603602081101561110357600080fd5b81019080803573ffffffffffffffffffffffffffffffffffffffff169060200190929190505050613c1f565b005b611139613dc3565b6040518082815260200191505060405180910390f35b6111bb6004803603606081101561116557600080fd5b8101908080359060200190929190803573ffffffffffffffffffffffffffffffffffffffff169060200190929190803573ffffffffffffffffffffffffffffffffffffffff169060200190929190505050613dc9565b604051808460ff1660ff1681526020018363ffffffff1663ffffffff1681526020018273ffffffffffffffffffffffffffffffffffffffff1673ffffffffffffffffffffffffffffffffffffffff168152602001935050505060405180910390f35b6112536004803603604081101561123357600080fd5b810190808035906020019092919080359060200190929190505050613ecb565b005b6112976004803603602081101561126b57600080fd5b81019080803573ffffffffffffffffffffffffffffffffffffffff1690602001909291905050506141df565b6040518082815260200191505060405180910390f35b6112d9600480360360208110156112c357600080fd5b81019080803590602001909291905050506141f7565b005b6112e361430b565b6040518082815260200191505060405180910390f35b6113256004803603602081101561130f57600080fd5b8101908080359060200190929190505050614447565b005b6113736004803603604081101561133d57600080fd5b8101908080359060200190929190803573ffffffffffffffffffffffffffffffffffffffff16906020019092919050505061455b565b604051808463ffffffff1663ffffffff1681526020018363ffffffff1663ffffffff1681526020018273ffffffffffffffffffffffffffffffffffffffff1673ffffffffffffffffffffffffffffffffffffffff168152602001935050505060405180910390f35b611407600480360360208110156113f157600080fd5b81019080803590602001909291905050506146b2565b6040518082815260200191505060405180910390f35b61147f6004803603604081101561143357600080fd5b81019080803573ffffffffffffffffffffffffffffffffffffffff169060200190929190803573ffffffffffffffffffffffffffffffffffffffff1690602001909291905050506146fd565b6040518082815260200191505060405180910390f35b6114f3600480360360c08110156114ab57600080fd5b81019080803590602001909291908035906020019092919080359060200190929190803590602001909291908035906020019092919080359060200190929190505050614722565b604051808381526020018281526020019250505060405180910390f35b6115526004803603602081101561152657600080fd5b81019080803573ffffffffffffffffffffffffffffffffffffffff169060200190929190505050614936565b005b6115a06004803603604081101561156a57600080fd5b81019080803573ffffffffffffffffffffffffffffffffffffffff169060200190929190803590602001909291905050506149bc565b005b6115ce600480360360208110156115b857600080fd5b8101908080359060200190929190505050614b25565b6040518082815260200191505060405180910390f35b6116ee600480360360c08110156115fa57600080fd5b81019080803573ffffffffffffffffffffffffffffffffffffffff1690602001909291908035906020019092919080359060200190929190803590602001909291908035906020019064010000000081111561165557600080fd5b82018360208201111561166757600080fd5b8035906020019184602083028401116401000000008311171561168957600080fd5b9091929391929390803590602001906401000000008111156116aa57600080fd5b8201836020820111156116bc57600080fd5b803590602001918460208302840111640100000000831117156116de57600080fd5b9091929391929390505050614c6e565b005b60606003600083815260200190815260200160002060000180548060200260200160405190810160405280929190818152602001828054801561178857602002820191906000526020600020905b8160009054906101000a900473ffffffffffffffffffffffffffffffffffffffff1673ffffffffffffffffffffffffffffffffffffffff168152602001906001019080831161173e575b50505050509050919050565b60006060600060fa73ffffffffffffffffffffffffffffffffffffffff16844360405160200180838152602001828152602001925050506040516020818303038152906040526040518082805190602001908083835b6020831061180d57805182526020820191506020810190506020830392506117ea565b6001836020036101000a038019825116818451168082178552505050505050905001915050600060405180830381855afa9150503d806000811461186d576040519150601f19603f3d011682016040523d82523d6000602084013e611872565b606091505b508093508192505050806118d1576040517f08c379a000000000000000000000000000000000000000000000000000000000815260040180806020018281038252603d81526020018061582e603d913960400191505060405180910390fd5b6118dc826000614e21565b92505050919050565b600060149054906101000a900460ff1681565b60008060fb73ffffffffffffffffffffffffffffffffffffffff16858585604051602001808473ffffffffffffffffffffffffffffffffffffffff1673ffffffffffffffffffffffffffffffffffffffff1660601b815260140183805190602001908083835b60208310611981578051825260208201915060208101905060208303925061195e565b6001836020036101000a03801982511681845116808217855250505050505090500182805190602001908083835b602083106119d257805182526020820191506020810190506020830392506119af565b6001836020036101000a03801982511681845116808217855250505050505090500193505050506040516020818303038152906040526040518082805190602001908083835b60208310611a3b5780518252602082019150602081019050602083039250611a18565b6001836020036101000a038019825116818451168082178552505050505050905001915050600060405180830381855afa9150503d8060008114611a9b576040519150601f19603f3d011682016040523d82523d6000602084013e611aa0565b606091505b505080915050809150509392505050565b6000611ac482611abf61430b565b614e38565b9050919050565b60006060600060f473ffffffffffffffffffffffffffffffffffffffff16846040516020018082805190602001908083835b60208310611b205780518252602082019150602081019050602083039250611afd565b6001836020036101000a0380198251168184511680821785525050505050509050019150506040516020818303038152906040526040518082805190602001908083835b60208310611b875780518252602082019150602081019050602083039250611b64565b6001836020036101000a038019825116818451168082178552505050505050905001915050600060405180830381855afa9150503d8060008114611be7576040519150601f19603f3d011682016040523d82523d6000602084013e611bec565b606091505b50809350819250505080611c4b576040517f08c379a00000000000000000000000000000000000000000000000000000000081526004018080602001828103825260388152602001806157f66038913960400191505060405180910390fd5b611c56826000614e80565b92505050919050565b60608060608060006003600088815260200190815260200160002060010160008773ffffffffffffffffffffffffffffffffffffffff1673ffffffffffffffffffffffffffffffffffffffff16815260200190815260200160002090506000816001019050600080905060008090505b8280549050811015611d9157611d5a846002016000858481548110611cf057fe5b9060005260206000200160009054906101000a900473ffffffffffffffffffffffffffffffffffffffff1673ffffffffffffffffffffffffffffffffffffffff1673ffffffffffffffffffffffffffffffffffffffff168152602001908152602001600020614f21565b15611d7657611d73600183614f7b90919063ffffffff16565b91505b611d8a600182614f7b90919063ffffffff16565b9050611ccf565b50606081604051908082528060200260200182016040528015611dc35781602001602082028038833980820191505090505b509050606082604051908082528060200260200182016040528015611df75781602001602082028038833980820191505090505b509050600080905060008090505b8580549050811015611ff557611e90876002016000888481548110611e2657fe5b9060005260206000200160009054906101000a900473ffffffffffffffffffffffffffffffffffffffff1673ffffffffffffffffffffffffffffffffffffffff1673ffffffffffffffffffffffffffffffffffffffff168152602001908152602001600020614f21565b15611fda57866002016000878381548110611ea757fe5b9060005260206000200160009054906101000a900473ffffffffffffffffffffffffffffffffffffffff1673ffffffffffffffffffffffffffffffffffffffff1673ffffffffffffffffffffffffffffffffffffffff16815260200190815260200160002060000160019054906101000a900463ffffffff16848381518110611f2c57fe5b602002602001019063ffffffff16908163ffffffff1681525050858181548110611f5257fe5b9060005260206000200160009054906101000a900473ffffffffffffffffffffffffffffffffffffffff16838381518110611f8957fe5b602002602001019073ffffffffffffffffffffffffffffffffffffffff16908173ffffffffffffffffffffffffffffffffffffffff1681525050611fd7600183614f7b90919063ffffffff16565b91505b611fee600182614f7b90919063ffffffff16565b9050611e05565b50606080612001615003565b73ffffffffffffffffffffffffffffffffffffffff16638adaf96f856040518263ffffffff1660e01b81526004018080602001828103825283818151815260200191508051906020019060200280838360005b8381101561206f578082015181840152602081019050612054565b505050509050019250505060006040518083038186803b15801561209257600080fd5b505afa1580156120a6573d6000803e3d6000fd5b505050506040513d6000823e3d601f19601f8201168201806040525060408110156120d057600080fd5b81019080805160405193929190846401000000008211156120f057600080fd5b8382019150602082018581111561210657600080fd5b825186602082028301116401000000008211171561212357600080fd5b8083526020830192505050908051906020019060200280838360005b8381101561215a57808201518184015260208101905061213f565b505050509050016040526020018051604051939291908464010000000082111561218357600080fd5b8382019150602082018581111561219957600080fd5b82518660018202830111640100000000821117156121b657600080fd5b8083526020830192505050908051906020019080838360005b838110156121ea5780820151818401526020810190506121cf565b50505050905090810190601f1680156122175780820380516001836020036101000a031916815260200191505b506040525050508092508193505050848483839b509b509b509b50505050505050505092959194509250565b600061224d615003565b73ffffffffffffffffffffffffffffffffffffffff16637b2434cb336040518263ffffffff1660e01b8152600401808273ffffffffffffffffffffffffffffffffffffffff1673ffffffffffffffffffffffffffffffffffffffff16815260200191505060206040518083038186803b1580156122c957600080fd5b505afa1580156122dd573d6000803e3d6000fd5b505050506040513d60208110156122f357600080fd5b810190808051906020019092919050505090506000600860008473ffffffffffffffffffffffffffffffffffffffff1673ffffffffffffffffffffffffffffffffffffffff16815260200190815260200160002060008373ffffffffffffffffffffffffffffffffffffffff1673ffffffffffffffffffffffffffffffffffffffff168152602001908152602001600020549050600081116123fd576040517f08c379a00000000000000000000000000000000000000000000000000000000081526004018080602001828103825260178152602001807f76616c756520776173206e656761746976652f7a65726f00000000000000000081525060200191505060405180910390fd5b6000600860008573ffffffffffffffffffffffffffffffffffffffff1673ffffffffffffffffffffffffffffffffffffffff16815260200190815260200160002060008473ffffffffffffffffffffffffffffffffffffffff1673ffffffffffffffffffffffffffffffffffffffff168152602001908152602001600020819055508273ffffffffffffffffffffffffffffffffffffffff1663a9059cbb83836040518363ffffffff1660e01b8152600401808373ffffffffffffffffffffffffffffffffffffffff1673ffffffffffffffffffffffffffffffffffffffff16815260200182815260200192505050602060405180830381600087803b15801561250657600080fd5b505af115801561251a573d6000803e3d6000fd5b505050506040513d602081101561253057600080fd5b81019080805190602001909291905050506125b3576040517f08c379a00000000000000000000000000000000000000000000000000000000081526004018080602001828103825260158152602001807f746f6b656e207472616e73666572206661696c6564000000000000000000000081525060200191505060405180910390fd5b8273ffffffffffffffffffffffffffffffffffffffff168273ffffffffffffffffffffffffffffffffffffffff167f2717ead6b9200dd235aad468c9809ea400fe33ac69b5bfaa6d3e90fc922b6398836040518082815260200191505060405180910390a3505050565b60008060008060016002600080839350829250819150809050935093509350935090919293565b6000806003600085815260200190815260200160002060010160008473ffffffffffffffffffffffffffffffffffffffff1673ffffffffffffffffffffffffffffffffffffffff16815260200190815260200160002060000160049054906101000a900463ffffffff166003600086815260200190815260200160002060010160008573ffffffffffffffffffffffffffffffffffffffff1673ffffffffffffffffffffffffffffffffffffffff16815260200190815260200160002060000160009054906101000a900463ffffffff16915091509250929050565b6000808686604051602001808381526020018273ffffffffffffffffffffffffffffffffffffffff1673ffffffffffffffffffffffffffffffffffffffff1660601b815260140192505050604051602081830303815290604052805190602001209050600073__Signatures____________________________63b3abdb0c838888886040518563ffffffff1660e01b8152600401808581526020018460ff1660ff16815260200183815260200182815260200194505050505060206040518083038186803b1580156127f257600080fd5b505af4158015612806573d6000803e3d6000fd5b505050506040513d602081101561281c57600080fd5b810190808051906020019092919050505090506000612839615003565b73ffffffffffffffffffffffffffffffffffffffff16637b2434cb836040518263ffffffff1660e01b8152600401808273ffffffffffffffffffffffffffffffffffffffff1673ffffffffffffffffffffffffffffffffffffffff16815260200191505060206040518083038186803b1580156128b557600080fd5b505afa1580156128c9573d6000803e3d6000fd5b505050506040513d60208110156128df57600080fd5b810190808051906020019092919050505090506000600360008b815260200190815260200160002060010160008a73ffffffffffffffffffffffffffffffffffffffff1673ffffffffffffffffffffffffffffffffffffffff16815260200190815260200160002060020160008373ffffffffffffffffffffffffffffffffffffffff1673ffffffffffffffffffffffffffffffffffffffff16815260200190815260200160002090506001600281111561299657fe5b8160000160009054906101000a900460ff1660028111156129b357fe5b14612a09576040517f08c379a000000000000000000000000000000000000000000000000000000000815260040180806020018281038252603b8152602001806158a0603b913960400191505060405180910390fd5b612a268160000160019054906101000a900463ffffffff166150fe565b15612a99576040517f08c379a00000000000000000000000000000000000000000000000000000000081526004018080602001828103825260158152602001807f4174746573746174696f6e2074696d6564206f7574000000000000000000000081525060200191505060405180910390fd5b8194505050505095945050505050565b60006060600060fa73ffffffffffffffffffffffffffffffffffffffff16858560405160200180838152602001828152602001925050506040516020818303038152906040526040518082805190602001908083835b60208310612b225780518252602082019150602081019050602083039250612aff565b6001836020036101000a038019825116818451168082178552505050505050905001915050600060405180830381855afa9150503d8060008114612b82576040519150601f19603f3d011682016040523d82523d6000602084013e612b87565b606091505b50809350819250505080612be6576040517f08c379a00000000000000000000000000000000000000000000000000000000081526004018080602001828103825260368152602001806158db6036913960400191505060405180910390fd5b612bf1826000614e21565b9250505092915050565b60606003600084815260200190815260200160002060010160008373ffffffffffffffffffffffffffffffffffffffff1673ffffffffffffffffffffffffffffffffffffffff168152602001908152602001600020600101805480602002602001604051908101604052809291908181526020018280548015612cd357602002820191906000526020600020905b8160009054906101000a900473ffffffffffffffffffffffffffffffffffffffff1673ffffffffffffffffffffffffffffffffffffffff1681526020019060010190808311612c89575b5050505050905092915050565b6000600760008373ffffffffffffffffffffffffffffffffffffffff1673ffffffffffffffffffffffffffffffffffffffff168152602001908152602001600020549050919050565b60006060600060f673ffffffffffffffffffffffffffffffffffffffff16846040516020018082805190602001908083835b60208310612d7e5780518252602082019150602081019050602083039250612d5b565b6001836020036101000a0380198251168184511680821785525050505050509050019150506040516020818303038152906040526040518082805190602001908083835b60208310612de55780518252602082019150602081019050602083039250612dc2565b6001836020036101000a038019825116818451168082178552505050505050905001915050600060405180830381855afa9150503d8060008114612e45576040519150601f19603f3d011682016040523d82523d6000602084013e612e4a565b606091505b50809350819250505080612ea9576040517f08c379a0000000000000000000000000000000000000000000000000000000008152600401808060200182810382526023815260200180615a386023913960400191505060405180910390fd5b612eb4826000614e80565b92505050919050565b612ec5613375565b612f37576040517f08c379a00000000000000000000000000000000000000000000000000000000081526004018080602001828103825260208152602001807f4f776e61626c653a2063616c6c6572206973206e6f7420746865206f776e657281525060200191505060405180910390fd5b600073ffffffffffffffffffffffffffffffffffffffff166000809054906101000a900473ffffffffffffffffffffffffffffffffffffffff1673ffffffffffffffffffffffffffffffffffffffff167f8be0079c531659141344cd1fd0a4f28419497f9722a3daafe3b4186f6b6457e060405160405180910390a360008060006101000a81548173ffffffffffffffffffffffffffffffffffffffff021916908373ffffffffffffffffffffffffffffffffffffffff160217905550565b6000613001436146b2565b905090565b6000600654905090565b600160009054906101000a900473ffffffffffffffffffffffffffffffffffffffff1681565b60065481565b60096020528160005260406000206020528060005260406000206000915091509054906101000a900460ff1681565b60006060600060f973ffffffffffffffffffffffffffffffffffffffff1643604051602001808281526020019150506040516020818303038152906040526040518082805190602001908083835b602083106130dc57805182526020820191506020810190506020830392506130b9565b6001836020036101000a038019825116818451168082178552505050505050905001915050600060405180830381855afa9150503d806000811461313c576040519150601f19603f3d011682016040523d82523d6000602084013e613141565b606091505b508093508192505050806131a0576040517f08c379a000000000000000000000000000000000000000000000000000000000815260040180806020018281038252603581526020018061586b6035913960400191505060405180910390fd5b6131ab826000614e21565b9250505090565b60055481565b60006060600060f773ffffffffffffffffffffffffffffffffffffffff16846040516020018082805190602001908083835b6020831061320d57805182526020820191506020810190506020830392506131ea565b6001836020036101000a0380198251168184511680821785525050505050509050019150506040516020818303038152906040526040518082805190602001908083835b602083106132745780518252602082019150602081019050602083039250613251565b6001836020036101000a038019825116818451168082178552505050505050905001915050600060405180830381855afa9150503d80600081146132d4576040519150601f19603f3d011682016040523d82523d6000602084013e6132d9565b606091505b50809350819250505080613338576040517f08c379a0000000000000000000000000000000000000000000000000000000008152600401808060200182810382526031815260200180615a076031913960400191505060405180910390fd5b613343826000614e21565b92505050919050565b60008060009054906101000a900473ffffffffffffffffffffffffffffffffffffffff16905090565b60008060009054906101000a900473ffffffffffffffffffffffffffffffffffffffff1673ffffffffffffffffffffffffffffffffffffffff166133b7615125565b73ffffffffffffffffffffffffffffffffffffffff1614905090565b60608060608060008686905011613435576040517f08c379a00000000000000000000000000000000000000000000000000000000081526004018080602001828103825260288152602001806159326028913960400191505060405180910390fd5b606080613482888880806020026020016040519081016040528093929190818152602001838360200280828437600081840152601f19601f8201169050808301925050505050505061512d565b8092508193505050606081516040519080825280602002602001820160405280156134bc5781602001602082028038833980820191505090505b509050606082516040519080825280602002602001820160405280156134f15781602001602082028038833980820191505090505b509050600080905060008090505b8b8b90508110156138c2576060600360008e8e8581811061351c57fe5b9050602002013581526020019081526020016000206000018054806020026020016040519081016040528092919081815260200182805480156135b457602002820191906000526020600020905b8160009054906101000a900473ffffffffffffffffffffffffffffffffffffffff1673ffffffffffffffffffffffffffffffffffffffff168152602001906001019080831161356a575b5050505050905060008090505b8783815181106135cd57fe5b60200260200101518110156138a5576135e4615003565b73ffffffffffffffffffffffffffffffffffffffff16631fd9afa583838151811061360b57fe5b60200260200101516040518263ffffffff1660e01b8152600401808273ffffffffffffffffffffffffffffffffffffffff1673ffffffffffffffffffffffffffffffffffffffff16815260200191505060206040518083038186803b15801561367357600080fd5b505afa158015613687573d6000803e3d6000fd5b505050506040513d602081101561369d57600080fd5b81019080805190602001909291905050508785815181106136ba57fe5b602002602001019073ffffffffffffffffffffffffffffffffffffffff16908173ffffffffffffffffffffffffffffffffffffffff1681525050600360008f8f8681811061370457fe5b905060200201358152602001908152602001600020600101600083838151811061372a57fe5b602002602001015173ffffffffffffffffffffffffffffffffffffffff1673ffffffffffffffffffffffffffffffffffffffff16815260200190815260200160002060000160049054906101000a900463ffffffff1663ffffffff1686858151811061379257fe5b602002602001019067ffffffffffffffff16908167ffffffffffffffff1681525050600360008f8f868181106137c457fe5b90506020020135815260200190815260200160002060010160008383815181106137ea57fe5b602002602001015173ffffffffffffffffffffffffffffffffffffffff1673ffffffffffffffffffffffffffffffffffffffff16815260200190815260200160002060000160009054906101000a900463ffffffff1663ffffffff1685858151811061385257fe5b602002602001019067ffffffffffffffff16908167ffffffffffffffff1681525050613888600185614f7b90919063ffffffff16565b935061389e600182614f7b90919063ffffffff16565b90506135c1565b50506138bb600182614f7b90919063ffffffff16565b90506134ff565b50848484849850985098509850505050505092959194509250565b60006138e843611ab1565b905090565b60006060600060f973ffffffffffffffffffffffffffffffffffffffff1684604051602001808281526020019150506040516020818303038152906040526040518082805190602001908083835b6020831061395e578051825260208201915060208101905060208303925061393b565b6001836020036101000a038019825116818451168082178552505050505050905001915050600060405180830381855afa9150503d80600081146139be576040519150601f19603f3d011682016040523d82523d6000602084013e6139c3565b606091505b50809350819250505080613a22576040517f08c379a000000000000000000000000000000000000000000000000000000000815260040180806020018281038252602e81526020018061571a602e913960400191505060405180910390fd5b613a2d826000614e21565b92505050919050565b613a3e613375565b613ab0576040517f08c379a00000000000000000000000000000000000000000000000000000000081526004018080602001828103825260208152602001807f4f776e61626c653a2063616c6c6572206973206e6f7420746865206f776e657281525060200191505060405180910390fd5b60008111613b09576040517f08c379a00000000000000000000000000000000000000000000000000000000081526004018080602001828103825260308152602001806157c66030913960400191505060405180910390fd5b806004819055507f4fbe976a07a9260091c2d347f8780c4bc636392e34d5b249b367baf8a5c7ca69816040518082815260200191505060405180910390a150565b60006003600085815260200190815260200160002060010160008473ffffffffffffffffffffffffffffffffffffffff1673ffffffffffffffffffffffffffffffffffffffff16815260200190815260200160002060000160009054906101000a900463ffffffff1663ffffffff1690508163ffffffff168114613c19576040517f08c379a000000000000000000000000000000000000000000000000000000000815260040180806020018281038252602e8152602001806156c4602e913960400191505060405180910390fd5b50505050565b613c27613375565b613c99576040517f08c379a00000000000000000000000000000000000000000000000000000000081526004018080602001828103825260208152602001807f4f776e61626c653a2063616c6c6572206973206e6f7420746865206f776e657281525060200191505060405180910390fd5b600073ffffffffffffffffffffffffffffffffffffffff168173ffffffffffffffffffffffffffffffffffffffff161415613d3c576040517f08c379a00000000000000000000000000000000000000000000000000000000081526004018080602001828103825260208152602001807f43616e6e6f7420726567697374657220746865206e756c6c206164647265737381525060200191505060405180910390fd5b80600160006101000a81548173ffffffffffffffffffffffffffffffffffffffff021916908373ffffffffffffffffffffffffffffffffffffffff1602179055508073ffffffffffffffffffffffffffffffffffffffff167f27fe5f0c1c3b1ed427cc63d0f05759ffdecf9aec9e18d31ef366fc8a6cb5dc3b60405160405180910390a250565b60045481565b6000806000806003600088815260200190815260200160002060010160008773ffffffffffffffffffffffffffffffffffffffff1673ffffffffffffffffffffffffffffffffffffffff16815260200190815260200160002060020160008673ffffffffffffffffffffffffffffffffffffffff1673ffffffffffffffffffffffffffffffffffffffff16815260200190815260200160002090508060000160009054906101000a900460ff166002811115613e8157fe5b8160000160019054906101000a900463ffffffff168260000160059054906101000a900473ffffffffffffffffffffffffffffffffffffffff169350935093505093509350939050565b600060036000848152602001908152602001600020600001805490509050808210613f5e576040517f08c379a00000000000000000000000000000000000000000000000000000000081526004018080602001828103825260108152602001807f496e64657820697320696e76616c69640000000000000000000000000000000081525060200191505060405180910390fd5b600360008481526020019081526020016000206000018281548110613f7f57fe5b9060005260206000200160009054906101000a900473ffffffffffffffffffffffffffffffffffffffff1673ffffffffffffffffffffffffffffffffffffffff163373ffffffffffffffffffffffffffffffffffffffff161461404a576040517f08c379a000000000000000000000000000000000000000000000000000000000815260040180806020018281038252601f8152602001807f496e64657820646f6573206e6f74206d61746368206d73672e73656e6465720081525060200191505060405180910390fd5b600061406060018361528e90919063ffffffff16565b905080831461411f5760036000858152602001908152602001600020600001818154811061408a57fe5b9060005260206000200160009054906101000a900473ffffffffffffffffffffffffffffffffffffffff166003600086815260200190815260200160002060000184815481106140d657fe5b9060005260206000200160006101000a81548173ffffffffffffffffffffffffffffffffffffffff021916908373ffffffffffffffffffffffffffffffffffffffff1602179055505b600060036000868152602001908152602001600020600001828154811061414257fe5b9060005260206000200160006101000a81548173ffffffffffffffffffffffffffffffffffffffff021916908373ffffffffffffffffffffffffffffffffffffffff1602179055506141b76001600360008781526020019081526020016000206000018054905061528e90919063ffffffff16565b60036000868152602001908152602001600020600001816141d89190615672565b5050505050565b60076020528060005260406000206000915090505481565b6141ff613375565b614271576040517f08c379a00000000000000000000000000000000000000000000000000000000081526004018080602001828103825260208152602001807f4f776e61626c653a2063616c6c6572206973206e6f7420746865206f776e657281525060200191505060405180910390fd5b600081116142ca576040517f08c379a00000000000000000000000000000000000000000000000000000000081526004018080602001828103825260288152602001806156f26028913960400191505060405180910390fd5b806006819055507fc1f217a1246a98ce04e938768309107630ed86c1e0e9f9995af28e23a9c06178816040518082815260200191505060405180910390a150565b60006060600060f873ffffffffffffffffffffffffffffffffffffffff166040516020016040516020818303038152906040526040518082805190602001908083835b60208310614371578051825260208201915060208101905060208303925061434e565b6001836020036101000a038019825116818451168082178552505050505050905001915050600060405180830381855afa9150503d80600081146143d1576040519150601f19603f3d011682016040523d82523d6000602084013e6143d6565b606091505b50809350819250505080614435576040517f08c379a00000000000000000000000000000000000000000000000000000000081526004018080602001828103825260258152602001806159816025913960400191505060405180910390fd5b614440826000614e21565b9250505090565b61444f613375565b6144c1576040517f08c379a00000000000000000000000000000000000000000000000000000000081526004018080602001828103825260208152602001807f4f776e61626c653a2063616c6c6572206973206e6f7420746865206f776e657281525060200191505060405180910390fd5b6000811161451a576040517f08c379a00000000000000000000000000000000000000000000000000000000081526004018080602001828103825260308152602001806157486030913960400191505060405180910390fd5b806005819055507f954fa47fa6f4e8017b99f93c73f4fbe599d786f9f5da73fe9086ab473fb455d8816040518082815260200191505060405180910390a150565b60008060006003600086815260200190815260200160002060020160008573ffffffffffffffffffffffffffffffffffffffff1673ffffffffffffffffffffffffffffffffffffffff16815260200190815260200160002060000160009054906101000a900463ffffffff166003600087815260200190815260200160002060020160008673ffffffffffffffffffffffffffffffffffffffff1673ffffffffffffffffffffffffffffffffffffffff16815260200190815260200160002060000160049054906101000a900463ffffffff166003600088815260200190815260200160002060020160008773ffffffffffffffffffffffffffffffffffffffff1673ffffffffffffffffffffffffffffffffffffffff16815260200190815260200160002060000160089054906101000a900473ffffffffffffffffffffffffffffffffffffffff169250925092509250925092565b60006146f660036146e860026146da60026146cc886138ed565b6152d890919063ffffffff16565b614f7b90919063ffffffff16565b61535e90919063ffffffff16565b9050919050565b6008602052816000526040600020602052806000526040600020600091509150505481565b60008060008714158015614737575060008514155b6147a9576040517f08c379a00000000000000000000000000000000000000000000000000000000081526004018080602001828103825260158152602001807f612064656e6f6d696e61746f72206973207a65726f000000000000000000000081525060200191505060405180910390fd5b6000806000606060fc73ffffffffffffffffffffffffffffffffffffffff168c8c8c8c8c8c6040516020018087815260200186815260200185815260200184815260200183815260200182815260200196505050505050506040516020818303038152906040526040518082805190602001908083835b602083106148435780518252602082019150602081019050602083039250614820565b6001836020036101000a038019825116818451168082178552505050505050905001915050600060405180830381855afa9150503d80600081146148a3576040519150601f19603f3d011682016040523d82523d6000602084013e6148a8565b606091505b50809250819350505081614907576040517f08c379a000000000000000000000000000000000000000000000000000000000815260040180806020018281038252602781526020018061595a6027913960400191505060405180910390fd5b614912816000614e21565b935061491f816020614e21565b925083839550955050505050965096945050505050565b61493e613375565b6149b0576040517f08c379a00000000000000000000000000000000000000000000000000000000081526004018080602001828103825260208152602001807f4f776e61626c653a2063616c6c6572206973206e6f7420746865206f776e657281525060200191505060405180910390fd5b6149b9816153a8565b50565b6149c4613375565b614a36576040517f08c379a00000000000000000000000000000000000000000000000000000000081526004018080602001828103825260208152602001807f4f776e61626c653a2063616c6c6572206973206e6f7420746865206f776e657281525060200191505060405180910390fd5b60008111614a8f576040517f08c379a000000000000000000000000000000000000000000000000000000000815260040180806020018281038252602881526020018061579e6028913960400191505060405180910390fd5b80600760008473ffffffffffffffffffffffffffffffffffffffff1673ffffffffffffffffffffffffffffffffffffffff168152602001908152602001600020819055508173ffffffffffffffffffffffffffffffffffffffff167f7cf8b633f218e9f9bc2c06107bcaddcfee6b90580863768acdcfd4f05d7af394826040518082815260200191505060405180910390a25050565b60006060600060f573ffffffffffffffffffffffffffffffffffffffff1684604051602001808281526020019150506040516020818303038152906040526040518082805190602001908083835b60208310614b965780518252602082019150602081019050602083039250614b73565b6001836020036101000a038019825116818451168082178552505050505050905001915050600060405180830381855afa9150503d8060008114614bf6576040519150601f19603f3d011682016040523d82523d6000602084013e614bfb565b606091505b50809350819250505080614c5a576040517f08c379a000000000000000000000000000000000000000000000000000000000815260040180806020018281038252602c8152602001806159db602c913960400191505060405180910390fd5b614c65826000614e80565b92505050919050565b600060149054906101000a900460ff1615614cf1576040517f08c379a000000000000000000000000000000000000000000000000000000000815260040180806020018281038252601c8152602001807f636f6e747261637420616c726561647920696e697469616c697a65640000000081525060200191505060405180910390fd5b6001600060146101000a81548160ff021916908315150217905550614d15336153a8565b614d1e88613c1f565b614d2787613a36565b614d3086614447565b614d39856141f7565b600084849050118015614d5157508181905084849050145b614da6576040517f08c379a00000000000000000000000000000000000000000000000000000000081526004018080602001828103825260358152602001806159a66035913960400191505060405180910390fd5b60008090505b84849050811015614e1657614dfb858583818110614dc657fe5b9050602002013573ffffffffffffffffffffffffffffffffffffffff16848484818110614def57fe5b905060200201356149bc565b614e0f600182614f7b90919063ffffffff16565b9050614dac565b505050505050505050565b6000614e2d8383614e80565b60001c905092915050565b600080828481614e4457fe5b0490506000838581614e5257fe5b061415614e625780915050614e7a565b614e76600182614f7b90919063ffffffff16565b9150505b92915050565b6000614e96602083614f7b90919063ffffffff16565b83511015614f0c576040517f08c379a00000000000000000000000000000000000000000000000000000000081526004018080602001828103825260148152602001807f736c6963696e67206f7574206f662072616e676500000000000000000000000081525060200191505060405180910390fd5b60006020830184015190508091505092915050565b600060016002811115614f3057fe5b8260000160009054906101000a900460ff166002811115614f4d57fe5b148015614f745750614f728260000160019054906101000a900463ffffffff166150fe565b155b9050919050565b600080828401905083811015614ff9576040517f08c379a000000000000000000000000000000000000000000000000000000000815260040180806020018281038252601b8152602001807f536166654d6174683a206164646974696f6e206f766572666c6f77000000000081525060200191505060405180910390fd5b8091505092915050565b6000600160009054906101000a900473ffffffffffffffffffffffffffffffffffffffff1673ffffffffffffffffffffffffffffffffffffffff1663dcf0aaed60405160200180807f4163636f756e74730000000000000000000000000000000000000000000000008152506008019050604051602081830303815290604052805190602001206040518263ffffffff1660e01b81526004018082815260200191505060206040518083038186803b1580156150be57600080fd5b505afa1580156150d2573d6000803e3d6000fd5b505050506040513d60208110156150e857600080fd5b8101908080519060200190929190505050905090565b600061511b6004548363ffffffff16614f7b90919063ffffffff16565b4310159050919050565b600033905090565b606080600083511161518a576040517f08c379a00000000000000000000000000000000000000000000000000000000081526004018080602001828103825260288152602001806159326028913960400191505060405180910390fd5b6000809050606084516040519080825280602002602001820160405280156151c15781602001602082028038833980820191505090505b50905060008090505b855181101561524e576000600360008884815181106151e557fe5b602002602001015181526020019081526020016000206000018054905090506152178185614f7b90919063ffffffff16565b93508083838151811061522657fe5b60200260200101818152505050615247600182614f7b90919063ffffffff16565b90506151ca565b50808260405190808252806020026020018201604052801561527f5781602001602082028038833980820191505090505b50809050935093505050915091565b60006152d083836040518060400160405280601e81526020017f536166654d6174683a207375627472616374696f6e206f766572666c6f7700008152506154ec565b905092915050565b6000808314156152eb5760009050615358565b60008284029050828482816152fc57fe5b0414615353576040517f08c379a00000000000000000000000000000000000000000000000000000000081526004018080602001828103825260218152602001806159116021913960400191505060405180910390fd5b809150505b92915050565b60006153a083836040518060400160405280601a81526020017f536166654d6174683a206469766973696f6e206279207a65726f0000000000008152506155ac565b905092915050565b600073ffffffffffffffffffffffffffffffffffffffff168173ffffffffffffffffffffffffffffffffffffffff16141561542e576040517f08c379a00000000000000000000000000000000000000000000000000000000081526004018080602001828103825260268152602001806157786026913960400191505060405180910390fd5b8073ffffffffffffffffffffffffffffffffffffffff166000809054906101000a900473ffffffffffffffffffffffffffffffffffffffff1673ffffffffffffffffffffffffffffffffffffffff167f8be0079c531659141344cd1fd0a4f28419497f9722a3daafe3b4186f6b6457e060405160405180910390a3806000806101000a81548173ffffffffffffffffffffffffffffffffffffffff021916908373ffffffffffffffffffffffffffffffffffffffff16021790555050565b6000838311158290615599576040517f08c379a00000000000000000000000000000000000000000000000000000000081526004018080602001828103825283818151815260200191508051906020019080838360005b8381101561555e578082015181840152602081019050615543565b50505050905090810190601f16801561558b5780820380516001836020036101000a031916815260200191505b509250505060405180910390fd5b5060008385039050809150509392505050565b60008083118290615658576040517f08c379a00000000000000000000000000000000000000000000000000000000081526004018080602001828103825283818151815260200191508051906020019080838360005b8381101561561d578082015181840152602081019050615602565b50505050905090810190601f16801561564a5780820380516001836020036101000a031916815260200191505b509250505060405180910390fd5b50600083858161566457fe5b049050809150509392505050565b81548183558181111561569957818360005260206000209182019101615698919061569e565b5b505050565b6156c091905b808211156156bc5760008160009055506001016156a4565b5090565b9056fe726571756573746564206174746573746174696f6e7320646f6573206e6f74206d617463682065787065637465646d61784174746573746174696f6e732068617320746f2062652067726561746572207468616e20306572726f722063616c6c696e67206e756d62657256616c696461746f7273496e53657420707265636f6d70696c6573656c6563744973737565727357616974426c6f636b732068617320746f2062652067726561746572207468616e20304f776e61626c653a206e6577206f776e657220697320746865207a65726f2061646472657373596f75206861766520746f20737065636966792061206665652067726561746572207468616e20306174746573746174696f6e457870697279426c6f636b732068617320746f2062652067726561746572207468616e20306572726f722063616c6c696e672067657456657269666965645365616c4269746d617046726f6d48656164657220707265636f6d70696c656572726f722063616c6c696e672076616c696461746f725369676e65724164647265737346726f6d43757272656e7453657420707265636f6d70696c656572726f722063616c6c696e67206e756d62657256616c696461746f7273496e43757272656e7453657420707265636f6d70696c654174746573746174696f6e20636f646520646f6573206e6f74206d6174636820616e79206f75747374616e64696e67206174746573746174696f6e6572726f722063616c6c696e672076616c696461746f725369676e65724164647265737346726f6d53657420707265636f6d70696c65536166654d6174683a206d756c7469706c69636174696f6e206f766572666c6f77596f75206861766520746f2070617373206174206c65617374206f6e65206964656e7469666965726572726f722063616c6c696e67206672616374696f6e4d756c45787020707265636f6d70696c656572726f722063616c6c696e672067657445706f636853697a6520707265636f6d70696c656174746573746174696f6e52657175657374466565546f6b656e732073706563696669636174696f6e2077617320696e76616c69646572726f722063616c6c696e6720676574506172656e745365616c4269746d617020707265636f6d70696c656572726f722063616c6c696e6720676574426c6f636b4e756d62657246726f6d48656164657220707265636f6d70696c656572726f722063616c6c696e67206861736848656164657220707265636f6d70696c65a265627a7a7231582054a21fe54cdd8f671a9ef000b1c4cbd83deb759a55fb5d83e27b6caf58a7c66864736f6c634300050d0032",
  "source": "pragma solidity ^0.5.13;\n\nimport \"openzeppelin-solidity/contracts/math/SafeMath.sol\";\nimport \"openzeppelin-solidity/contracts/ownership/Ownable.sol\";\nimport \"openzeppelin-solidity/contracts/token/ERC20/IERC20.sol\";\nimport \"openzeppelin-solidity/contracts/utils/SafeCast.sol\";\n\nimport \"./interfaces/IAttestations.sol\";\nimport \"../common/interfaces/IAccounts.sol\";\nimport \"../common/interfaces/ICeloVersionedContract.sol\";\n\nimport \"../common/Initializable.sol\";\nimport \"../common/UsingRegistry.sol\";\nimport \"../common/Signatures.sol\";\nimport \"../common/UsingPrecompiles.sol\";\nimport \"../common/libraries/ReentrancyGuard.sol\";\n\n/**\n * @title Contract mapping identifiers to accounts\n */\ncontract Attestations is\n  IAttestations,\n  ICeloVersionedContract,\n  Ownable,\n  Initializable,\n  UsingRegistry,\n  ReentrancyGuard,\n  UsingPrecompiles\n{\n  using SafeMath for uint256;\n  using SafeCast for uint256;\n\n  enum AttestationStatus { None, Incomplete, Complete }\n\n  struct Attestation {\n    AttestationStatus status;\n    // For outstanding attestations, this is the block number of the request.\n    // For completed attestations, this is the block number of the attestation completion.\n    uint32 blockNumber;\n    // The token with which attestation request fees were paid.\n    address attestationRequestFeeToken;\n  }\n\n  // Stores attestations state for a single (identifier, account address) pair.\n  struct AttestedAddress {\n    // Total number of requested attestations.\n    uint32 requested;\n    // Total number of completed attestations.\n    uint32 completed;\n    // List of selected issuers responsible for attestations. The length of this list\n    // might be smaller than `requested` (which represents the total number of requested\n    // attestations) if users are not calling `selectIssuers` on unselected requests.\n    address[] selectedIssuers;\n    // State of each attestation keyed by issuer.\n    mapping(address => Attestation) issuedAttestations;\n  }\n\n  struct UnselectedRequest {\n    // The block at which the attestations were requested.\n    uint32 blockNumber;\n    // The number of attestations that were requested.\n    uint32 attestationsRequested;\n    // The token with which attestation request fees were paid in this request.\n    address attestationRequestFeeToken;\n  }\n\n  struct IdentifierState {\n    // All account addresses associated with this identifier.\n    address[] accounts;\n    // Keeps the state of attestations for account addresses for this identifier.\n    mapping(address => AttestedAddress) attestations;\n    // Temporarily stores attestation requests for which issuers should be selected by the account.\n    mapping(address => UnselectedRequest) unselectedRequests;\n  }\n\n  mapping(bytes32 => IdentifierState) identifiers;\n\n  // The duration in blocks in which an attestation can be completed from the block in which the\n  // attestation was requested.\n  uint256 public attestationExpiryBlocks;\n\n  // The duration to wait until selectIssuers can be called for an attestation request.\n  uint256 public selectIssuersWaitBlocks;\n\n  // Limit the maximum number of attestations that can be requested\n  uint256 public maxAttestations;\n\n  // The fees that are associated with attestations for a particular token.\n  mapping(address => uint256) public attestationRequestFees;\n\n  // Maps a token and attestation issuer to the amount that they're owed.\n  mapping(address => mapping(address => uint256)) public pendingWithdrawals;\n\n  // Attestation transfer approvals, keyed by user and keccak(identifier, from, to)\n  mapping(address => mapping(bytes32 => bool)) public transferApprovals;\n\n  event AttestationsRequested(\n    bytes32 indexed identifier,\n    address indexed account,\n    uint256 attestationsRequested,\n    address attestationRequestFeeToken\n  );\n\n  event AttestationIssuerSelected(\n    bytes32 indexed identifier,\n    address indexed account,\n    address indexed issuer,\n    address attestationRequestFeeToken\n  );\n\n  event AttestationCompleted(\n    bytes32 indexed identifier,\n    address indexed account,\n    address indexed issuer\n  );\n\n  event Withdrawal(address indexed account, address indexed token, uint256 amount);\n  event AttestationExpiryBlocksSet(uint256 value);\n  event AttestationRequestFeeSet(address indexed token, uint256 value);\n  event SelectIssuersWaitBlocksSet(uint256 value);\n  event MaxAttestationsSet(uint256 value);\n  event AttestationsTransferred(\n    bytes32 indexed identifier,\n    address indexed fromAccount,\n    address indexed toAccount\n  );\n  event TransferApproval(\n    address indexed approver,\n    bytes32 indexed indentifier,\n    address from,\n    address to,\n    bool approved\n  );\n\n  /**\n   * @notice Sets initialized == true on implementation contracts\n   * @param test Set to true to skip implementation initialization\n   */\n  constructor(bool test) public Initializable(test) {}\n\n  /**\n   * @notice Used in place of the constructor to allow the contract to be upgradable via proxy.\n   * @param registryAddress The address of the registry core smart contract.\n   * @param _attestationExpiryBlocks The new limit on blocks allowed to come between requesting\n   * an attestation and completing it.\n   * @param _selectIssuersWaitBlocks The wait period in blocks to call selectIssuers on attestation\n   * requests.\n   * @param attestationRequestFeeTokens The address of tokens that fees should be payable in.\n   * @param attestationRequestFeeValues The corresponding fee values.\n   */\n  function initialize(\n    address registryAddress,\n    uint256 _attestationExpiryBlocks,\n    uint256 _selectIssuersWaitBlocks,\n    uint256 _maxAttestations,\n    address[] calldata attestationRequestFeeTokens,\n    uint256[] calldata attestationRequestFeeValues\n  ) external initializer {\n    _transferOwnership(msg.sender);\n    setRegistry(registryAddress);\n    setAttestationExpiryBlocks(_attestationExpiryBlocks);\n    setSelectIssuersWaitBlocks(_selectIssuersWaitBlocks);\n    setMaxAttestations(_maxAttestations);\n\n    require(\n      attestationRequestFeeTokens.length > 0 &&\n        attestationRequestFeeTokens.length == attestationRequestFeeValues.length,\n      \"attestationRequestFeeTokens specification was invalid\"\n    );\n    for (uint256 i = 0; i < attestationRequestFeeTokens.length; i = i.add(1)) {\n      setAttestationRequestFee(attestationRequestFeeTokens[i], attestationRequestFeeValues[i]);\n    }\n  }\n\n  /**\n   * @notice Returns the storage, major, minor, and patch version of the contract.\n   * @return Storage version of the contract.\n   * @return Major version of the contract.\n   * @return Minor version of the contract.\n   * @return Patch version of the contract.\n   */\n  function getVersionNumber() external pure returns (uint256, uint256, uint256, uint256) {\n    return (1, 2, 0, 0);\n  }\n\n  /**\n   * @notice Revokes an account for an identifier.\n   * @param identifier The identifier for which to revoke.\n   * @param index The index of the account in the accounts array.\n   */\n  function revoke(bytes32 identifier, uint256 index) external {\n    uint256 numAccounts = identifiers[identifier].accounts.length;\n    require(index < numAccounts, \"Index is invalid\");\n    require(\n      msg.sender == identifiers[identifier].accounts[index],\n      \"Index does not match msg.sender\"\n    );\n\n    uint256 newNumAccounts = numAccounts.sub(1);\n    if (index != newNumAccounts) {\n      identifiers[identifier].accounts[index] = identifiers[identifier].accounts[newNumAccounts];\n    }\n    identifiers[identifier].accounts[newNumAccounts] = address(0x0);\n    identifiers[identifier].accounts.length = identifiers[identifier].accounts.length.sub(1);\n  }\n\n  /**\n   * @notice Allows issuers to withdraw accumulated attestation rewards.\n   * @param token The address of the token that will be withdrawn.\n   * @dev Throws if msg.sender does not have any rewards to withdraw.\n   */\n  function withdraw(address token) external {\n    address issuer = getAccounts().attestationSignerToAccount(msg.sender);\n    uint256 value = pendingWithdrawals[token][issuer];\n    require(value > 0, \"value was negative/zero\");\n    pendingWithdrawals[token][issuer] = 0;\n    require(IERC20(token).transfer(issuer, value), \"token transfer failed\");\n    emit Withdrawal(issuer, token, value);\n  }\n\n  /**\n   * @notice Returns the unselected attestation request for an identifier/account pair, if any.\n   * @param identifier Hash of the identifier.\n   * @param account Address of the account.\n   * @return block Block number at which was requested.\n   * @return number Number of unselected requests.\n   * @return address Address of the token with which this attestation request was paid for.\n   */\n  function getUnselectedRequest(bytes32 identifier, address account)\n    external\n    view\n    returns (uint32, uint32, address)\n  {\n    return (\n      identifiers[identifier].unselectedRequests[account].blockNumber,\n      identifiers[identifier].unselectedRequests[account].attestationsRequested,\n      identifiers[identifier].unselectedRequests[account].attestationRequestFeeToken\n    );\n  }\n\n  /**\n   * @notice Returns selected attestation issuers for a identifier/account pair.\n   * @param identifier Hash of the identifier.\n   * @param account Address of the account.\n   * @return Addresses of the selected attestation issuers.\n   */\n  function getAttestationIssuers(bytes32 identifier, address account)\n    external\n    view\n    returns (address[] memory)\n  {\n    return identifiers[identifier].attestations[account].selectedIssuers;\n  }\n\n  /**\n   * @notice Returns attestation stats for a identifier/account pair.\n   * @param identifier Hash of the identifier.\n   * @param account Address of the account.\n   * @return completed Number of completed attestations.\n   * @return requested Number of total requested attestations.\n   */\n  function getAttestationStats(bytes32 identifier, address account)\n    external\n    view\n    returns (uint32, uint32)\n  {\n    return (\n      identifiers[identifier].attestations[account].completed,\n      identifiers[identifier].attestations[account].requested\n    );\n  }\n\n  /**\n   * @notice Batch lookup function to determine attestation stats for a list of identifiers.\n   * @param identifiersToLookup Array of n identifiers.\n   * @return [0] Array of number of matching accounts per identifier.\n   * @return [1] Array of sum([0]) matching walletAddresses.\n   * @return [2] Array of sum([0]) numbers indicating the completions for each account.\n   * @return [3] Array of sum([0]) numbers indicating the total number of requested\n                 attestations for each account.\n   */\n  function batchGetAttestationStats(bytes32[] calldata identifiersToLookup)\n    external\n    view\n    returns (uint256[] memory, address[] memory, uint64[] memory, uint64[] memory)\n  {\n    require(identifiersToLookup.length > 0, \"You have to pass at least one identifier\");\n\n    uint256[] memory matches;\n    address[] memory addresses;\n\n    (matches, addresses) = batchlookupAccountsForIdentifier(identifiersToLookup);\n\n    uint64[] memory completed = new uint64[](addresses.length);\n    uint64[] memory total = new uint64[](addresses.length);\n\n    uint256 currentIndex = 0;\n    for (uint256 i = 0; i < identifiersToLookup.length; i = i.add(1)) {\n      address[] memory addrs = identifiers[identifiersToLookup[i]].accounts;\n      for (uint256 matchIndex = 0; matchIndex < matches[i]; matchIndex = matchIndex.add(1)) {\n        addresses[currentIndex] = getAccounts().getWalletAddress(addrs[matchIndex]);\n        completed[currentIndex] = identifiers[identifiersToLookup[i]]\n          .attestations[addrs[matchIndex]]\n          .completed;\n        total[currentIndex] = identifiers[identifiersToLookup[i]].attestations[addrs[matchIndex]]\n          .requested;\n        currentIndex = currentIndex.add(1);\n      }\n    }\n\n    return (matches, addresses, completed, total);\n  }\n\n  /**\n   * @notice Returns the state of a specific attestation.\n   * @param identifier Hash of the identifier.\n   * @param account Address of the account.\n   * @param issuer Address of the issuer.\n   * @return status Status of the attestation.\n   * @return block Block number of request/completion the attestation.\n   * @return address Address of the token with which this attestation request was paid for.\n   */\n  function getAttestationState(bytes32 identifier, address account, address issuer)\n    external\n    view\n    returns (uint8, uint32, address)\n  {\n    Attestation storage attestation = identifiers[identifier].attestations[account]\n      .issuedAttestations[issuer];\n    return (\n      uint8(attestation.status),\n      attestation.blockNumber,\n      attestation.attestationRequestFeeToken\n    );\n\n  }\n\n  /**\n    * @notice Returns the state of all attestations that are completable\n    * @param identifier Hash of the identifier.\n    * @param account Address of the account.\n    * @return Block number of request/completion the attestation.\n    * @return Address of the issuer.\n    * @return The length of each metadataURL string for each issuer.\n    * @return All strings concatenated.\n    */\n  function getCompletableAttestations(bytes32 identifier, address account)\n    external\n    view\n    returns (uint32[] memory, address[] memory, uint256[] memory, bytes memory)\n  {\n    AttestedAddress storage state = identifiers[identifier].attestations[account];\n    address[] storage issuers = state.selectedIssuers;\n\n    uint256 num = 0;\n    for (uint256 i = 0; i < issuers.length; i = i.add(1)) {\n      if (isAttestationCompletable(state.issuedAttestations[issuers[i]])) {\n        num = num.add(1);\n      }\n    }\n\n    uint32[] memory blockNumbers = new uint32[](num);\n    address[] memory completableIssuers = new address[](num);\n\n    uint256 pointer = 0;\n    for (uint256 i = 0; i < issuers.length; i = i.add(1)) {\n      if (isAttestationCompletable(state.issuedAttestations[issuers[i]])) {\n        blockNumbers[pointer] = state.issuedAttestations[issuers[i]].blockNumber;\n        completableIssuers[pointer] = issuers[i];\n        pointer = pointer.add(1);\n      }\n    }\n\n    uint256[] memory stringLengths;\n    bytes memory stringData;\n    (stringLengths, stringData) = getAccounts().batchGetMetadataURL(completableIssuers);\n    return (blockNumbers, completableIssuers, stringLengths, stringData);\n  }\n\n  /**\n   * @notice Returns the fee set for a particular token.\n   * @param token Address of the attestationRequestFeeToken.\n   * @return The fee.\n   */\n  function getAttestationRequestFee(address token) external view returns (uint256) {\n    return attestationRequestFees[token];\n  }\n\n  /**\n   * @notice Updates the fee  for a particular token.\n   * @param token The address of the attestationRequestFeeToken.\n   * @param fee The fee in 'token' that is required for each attestation.\n   */\n  function setAttestationRequestFee(address token, uint256 fee) public onlyOwner {\n    require(fee > 0, \"You have to specify a fee greater than 0\");\n    attestationRequestFees[token] = fee;\n    emit AttestationRequestFeeSet(token, fee);\n  }\n\n  /**\n   * @notice Updates 'attestationExpiryBlocks'.\n   * @param _attestationExpiryBlocks The new limit on blocks allowed to come between requesting\n   * an attestation and completing it.\n   */\n  function setAttestationExpiryBlocks(uint256 _attestationExpiryBlocks) public onlyOwner {\n    require(_attestationExpiryBlocks > 0, \"attestationExpiryBlocks has to be greater than 0\");\n    attestationExpiryBlocks = _attestationExpiryBlocks;\n    emit AttestationExpiryBlocksSet(_attestationExpiryBlocks);\n  }\n\n  /**\n   * @notice Updates 'selectIssuersWaitBlocks'.\n   * @param _selectIssuersWaitBlocks The wait period in blocks to call selectIssuers on attestation\n   *                                 requests.\n   */\n  function setSelectIssuersWaitBlocks(uint256 _selectIssuersWaitBlocks) public onlyOwner {\n    require(_selectIssuersWaitBlocks > 0, \"selectIssuersWaitBlocks has to be greater than 0\");\n    selectIssuersWaitBlocks = _selectIssuersWaitBlocks;\n    emit SelectIssuersWaitBlocksSet(_selectIssuersWaitBlocks);\n  }\n\n  /**\n   * @notice Updates 'maxAttestations'.\n   * @param _maxAttestations Maximum number of attestations that can be requested.\n   */\n  function setMaxAttestations(uint256 _maxAttestations) public onlyOwner {\n    require(_maxAttestations > 0, \"maxAttestations has to be greater than 0\");\n    maxAttestations = _maxAttestations;\n    emit MaxAttestationsSet(_maxAttestations);\n  }\n\n  /**\n   * @notice Query 'maxAttestations'\n   * @return Maximum number of attestations that can be requested.\n   */\n  function getMaxAttestations() external view returns (uint256) {\n    return maxAttestations;\n  }\n\n  /**\n   * @notice Validates the given attestation code.\n   * @param identifier The hash of the identifier to be attested.\n   * @param account Address of the account. \n   * @param v The recovery id of the incoming ECDSA signature.\n   * @param r Output value r of the ECDSA signature.\n   * @param s Output value s of the ECDSA signature.\n   * @return The issuer of the corresponding attestation.\n   * @dev Throws if there is no matching outstanding attestation request.\n   * @dev Throws if the attestation window has passed.\n   */\n  function validateAttestationCode(\n    bytes32 identifier,\n    address account,\n    uint8 v,\n    bytes32 r,\n    bytes32 s\n  ) public view returns (address) {\n    bytes32 codehash = keccak256(abi.encodePacked(identifier, account));\n    address signer = Signatures.getSignerOfMessageHash(codehash, v, r, s);\n    address issuer = getAccounts().attestationSignerToAccount(signer);\n\n    Attestation storage attestation = identifiers[identifier].attestations[account]\n      .issuedAttestations[issuer];\n\n    require(\n      attestation.status == AttestationStatus.Incomplete,\n      \"Attestation code does not match any outstanding attestation\"\n    );\n    require(!isAttestationExpired(attestation.blockNumber), \"Attestation timed out\");\n\n    return issuer;\n  }\n\n  function lookupAccountsForIdentifier(bytes32 identifier)\n    external\n    view\n    returns (address[] memory)\n  {\n    return identifiers[identifier].accounts;\n  }\n\n  /**\n   * @notice Require that a given identifier/address pair has\n   * requested a specific number of attestations.\n   * @param identifier Hash of the identifier.\n   * @param account Address of the account.\n   * @param expected Number of expected attestations\n   * @dev It can be used when batching meta-transactions to validate\n   * attestation are requested as expected in untrusted scenarios\n   */\n  function requireNAttestationsRequested(bytes32 identifier, address account, uint32 expected)\n    external\n    view\n  {\n    uint256 requested = identifiers[identifier].attestations[account].requested;\n    require(requested == expected, \"requested attestations does not match expected\");\n  }\n\n  /**\n   * @notice Helper function for batchGetAttestationStats to calculate the\n             total number of addresses that have >0 complete attestations for the identifiers.\n   * @param identifiersToLookup Array of n identifiers.\n   * @return Array of numbers that indicate the number of matching addresses per identifier.\n   * @return Array of addresses preallocated for total number of matches.\n   */\n  function batchlookupAccountsForIdentifier(bytes32[] memory identifiersToLookup)\n    internal\n    view\n    returns (uint256[] memory, address[] memory)\n  {\n    require(identifiersToLookup.length > 0, \"You have to pass at least one identifier\");\n    uint256 totalAddresses = 0;\n    uint256[] memory matches = new uint256[](identifiersToLookup.length);\n\n    for (uint256 i = 0; i < identifiersToLookup.length; i = i.add(1)) {\n      uint256 count = identifiers[identifiersToLookup[i]].accounts.length;\n\n      totalAddresses = totalAddresses.add(count);\n      matches[i] = count;\n    }\n\n    return (matches, new address[](totalAddresses));\n  }\n\n  function isAttestationExpired(uint32 attestationRequestBlock) internal view returns (bool) {\n    return block.number >= uint256(attestationRequestBlock).add(attestationExpiryBlocks);\n  }\n\n  function isAttestationCompletable(Attestation storage attestation) internal view returns (bool) {\n    return (attestation.status == AttestationStatus.Incomplete &&\n      !isAttestationExpired(attestation.blockNumber));\n  }\n\n  function isAttestationRequestSelectable(uint256 attestationRequestBlock)\n    internal\n    view\n    returns (bool)\n  {\n    return block.number < attestationRequestBlock.add(getRandom().randomnessBlockRetentionWindow());\n  }\n}\n",
  "sourcePath": "/Users/beaver/Development/celo/celo-monorepo/packages/protocol/contracts/identity/Attestations.sol",
  "compiler": {
    "name": "solc",
    "version": "0.5.13+commit.5b0b510c.Emscripten.clang"
  },
  "schemaVersion": "3.4.13",
  "updatedAt": "2024-03-05T15:27:45.373Z",
  "networkType": "ethereum",
  "devdoc": {
    "methods": {
      "batchGetAttestationStats(bytes32[])": {
        "params": {
          "identifiersToLookup": "Array of n identifiers."
        },
        "return": "[0] Array of number of matching accounts per identifier.[1] Array of sum([0]) matching walletAddresses.[2] Array of sum([0]) numbers indicating the completions for each account.[3] Array of sum([0]) numbers indicating the total number of requested attestations for each account."
      },
      "checkProofOfPossession(address,bytes,bytes)": {
        "params": {
          "blsKey": "The BLS public key that the validator is using for consensus, should pass proof  of possession. 48 bytes.",
          "blsPop": "The BLS public key proof-of-possession, which consists of a signature on the  account address. 96 bytes.",
          "sender": "The address signed by the BLS key to generate the proof of possession."
        },
        "return": "True upon success."
      },
      "constructor": {
        "params": {
          "test": "Set to true to skip implementation initialization"
        }
      },
      "fractionMulExp(uint256,uint256,uint256,uint256,uint256,uint256)": {
        "params": {
          "_decimals": "precision",
          "aDenominator": "Denominator of first fraction",
          "aNumerator": "Numerator of first fraction",
          "bDenominator": "Denominator of exponentiated fraction",
          "bNumerator": "Numerator of exponentiated fraction",
          "exponent": "exponent to raise b to"
        },
        "return": "Numerator of the computed quantity (not reduced).Denominator of the computed quantity (not reduced)."
      },
      "getAttestationIssuers(bytes32,address)": {
        "params": {
          "account": "Address of the account.",
          "identifier": "Hash of the identifier."
        },
        "return": "Addresses of the selected attestation issuers."
      },
      "getAttestationRequestFee(address)": {
        "params": {
          "token": "Address of the attestationRequestFeeToken."
        },
        "return": "The fee."
      },
      "getAttestationState(bytes32,address,address)": {
        "params": {
          "account": "Address of the account.",
          "identifier": "Hash of the identifier.",
          "issuer": "Address of the issuer."
        },
        "return": "status Status of the attestation.block Block number of request/completion the attestation.address Address of the token with which this attestation request was paid for."
      },
      "getAttestationStats(bytes32,address)": {
        "params": {
          "account": "Address of the account.",
          "identifier": "Hash of the identifier."
        },
        "return": "completed Number of completed attestations.requested Number of total requested attestations."
      },
      "getBlockNumberFromHeader(bytes)": {
        "params": {
          "header": "RLP encoded header"
        },
        "return": "Block number."
      },
      "getCompletableAttestations(bytes32,address)": {
        "params": {
          "account": "Address of the account.",
          "identifier": "Hash of the identifier."
        },
        "return": "Block number of request/completion the attestation.Address of the issuer.The length of each metadataURL string for each issuer.All strings concatenated."
      },
      "getEpochNumber()": {
        "return": "Current epoch number."
      },
      "getEpochNumberOfBlock(uint256)": {
        "params": {
          "blockNumber": "Block number where epoch number is calculated."
        },
        "return": "Epoch number."
      },
      "getEpochSize()": {
        "return": "The current epoch size in blocks."
      },
      "getMaxAttestations()": {
        "return": "Maximum number of attestations that can be requested."
      },
      "getParentSealBitmap(uint256)": {
        "params": {
          "blockNumber": "Block number to retrieve. Must be within 4 epochs of the current number."
        },
        "return": "Bitmap parent seal with set bits at indices corresponding to signing validators."
      },
      "getUnselectedRequest(bytes32,address)": {
        "params": {
          "account": "Address of the account.",
          "identifier": "Hash of the identifier."
        },
        "return": "block Block number at which was requested.number Number of unselected requests.address Address of the token with which this attestation request was paid for."
      },
      "getVerifiedSealBitmapFromHeader(bytes)": {
        "params": {
          "header": "RLP encoded header"
        },
        "return": "Bitmap parent seal with set bits at indices correspoinding to signing validators."
      },
      "getVersionNumber()": {
        "return": "Storage version of the contract.Major version of the contract.Minor version of the contract.Patch version of the contract."
      },
      "hashHeader(bytes)": {
        "params": {
          "header": "RLP encoded header"
        },
        "return": "Header hash."
      },
      "initialize(address,uint256,uint256,uint256,address[],uint256[])": {
        "params": {
          "_attestationExpiryBlocks": "The new limit on blocks allowed to come between requesting an attestation and completing it.",
          "_selectIssuersWaitBlocks": "The wait period in blocks to call selectIssuers on attestation requests.",
          "attestationRequestFeeTokens": "The address of tokens that fees should be payable in.",
          "attestationRequestFeeValues": "The corresponding fee values.",
          "registryAddress": "The address of the registry core smart contract."
        }
      },
      "isOwner()": {
        "details": "Returns true if the caller is the current owner."
      },
      "minQuorumSize(uint256)": {
        "details": "Computed in celo-blockchain as int(math.Ceil(float64(2*valSet.Size()) / 3))"
      },
      "minQuorumSizeInCurrentSet()": {
        "return": "Byzantine quorum of validators."
      },
      "numberValidatorsInCurrentSet()": {
        "return": "Size of the current elected validator set."
      },
      "numberValidatorsInSet(uint256)": {
        "params": {
          "blockNumber": "Block number to retrieve the validator set from."
        },
        "return": "Size of the validator set."
      },
      "owner()": {
        "details": "Returns the address of the current owner."
      },
      "renounceOwnership()": {
        "details": "Leaves the contract without owner. It will not be possible to call `onlyOwner` functions anymore. Can only be called by the current owner.     * NOTE: Renouncing ownership will leave the contract without an owner, thereby removing any functionality that is only available to the owner."
      },
      "requireNAttestationsRequested(bytes32,address,uint32)": {
        "details": "It can be used when batching meta-transactions to validate attestation are requested as expected in untrusted scenarios",
        "params": {
          "account": "Address of the account.",
          "expected": "Number of expected attestations",
          "identifier": "Hash of the identifier."
        }
      },
      "revoke(bytes32,uint256)": {
        "params": {
          "identifier": "The identifier for which to revoke.",
          "index": "The index of the account in the accounts array."
        }
      },
      "setAttestationExpiryBlocks(uint256)": {
        "params": {
          "_attestationExpiryBlocks": "The new limit on blocks allowed to come between requesting an attestation and completing it."
        }
      },
      "setAttestationRequestFee(address,uint256)": {
        "params": {
          "fee": "The fee in 'token' that is required for each attestation.",
          "token": "The address of the attestationRequestFeeToken."
        }
      },
      "setMaxAttestations(uint256)": {
        "params": {
          "_maxAttestations": "Maximum number of attestations that can be requested."
        }
      },
      "setRegistry(address)": {
        "params": {
          "registryAddress": "The address of a registry contract for routing to other contracts."
        }
      },
      "setSelectIssuersWaitBlocks(uint256)": {
        "params": {
          "_selectIssuersWaitBlocks": "The wait period in blocks to call selectIssuers on attestation                                requests."
        }
      },
      "transferOwnership(address)": {
        "details": "Transfers ownership of the contract to a new account (`newOwner`). Can only be called by the current owner."
      },
      "validateAttestationCode(bytes32,address,uint8,bytes32,bytes32)": {
        "details": "Throws if there is no matching outstanding attestation request.Throws if the attestation window has passed.",
        "params": {
          "account": "Address of the account. ",
          "identifier": "The hash of the identifier to be attested.",
          "r": "Output value r of the ECDSA signature.",
          "s": "Output value s of the ECDSA signature.",
          "v": "The recovery id of the incoming ECDSA signature."
        },
        "return": "The issuer of the corresponding attestation."
      },
      "validatorSignerAddressFromCurrentSet(uint256)": {
        "params": {
          "index": "Index of requested validator in the validator set."
        },
        "return": "Address of validator at the requested index."
      },
      "validatorSignerAddressFromSet(uint256,uint256)": {
        "params": {
          "blockNumber": "Block number to retrieve the validator set from.",
          "index": "Index of requested validator in the validator set."
        },
        "return": "Address of validator at the requested index."
      },
      "withdraw(address)": {
        "details": "Throws if msg.sender does not have any rewards to withdraw.",
        "params": {
          "token": "The address of the token that will be withdrawn."
        }
      }
    },
    "title": "Contract mapping identifiers to accounts"
  },
  "userdoc": {
    "methods": {
      "batchGetAttestationStats(bytes32[])": {
        "notice": "Batch lookup function to determine attestation stats for a list of identifiers."
      },
      "checkProofOfPossession(address,bytes,bytes)": {
        "notice": "Checks a BLS proof of possession."
      },
      "constructor": "Sets initialized == true on implementation contracts",
      "fractionMulExp(uint256,uint256,uint256,uint256,uint256,uint256)": {
        "notice": "calculate a * b^x for fractions a, b to `decimals` precision"
      },
      "getAttestationIssuers(bytes32,address)": {
        "notice": "Returns selected attestation issuers for a identifier/account pair."
      },
      "getAttestationRequestFee(address)": {
        "notice": "Returns the fee set for a particular token."
      },
      "getAttestationState(bytes32,address,address)": {
        "notice": "Returns the state of a specific attestation."
      },
      "getAttestationStats(bytes32,address)": {
        "notice": "Returns attestation stats for a identifier/account pair."
      },
      "getBlockNumberFromHeader(bytes)": {
        "notice": "Parses block number out of header."
      },
      "getCompletableAttestations(bytes32,address)": {
        "notice": "Returns the state of all attestations that are completable"
      },
      "getEpochNumber()": {
        "notice": "Returns the epoch number at a block."
      },
      "getEpochNumberOfBlock(uint256)": {
        "notice": "Returns the epoch number at a block."
      },
      "getEpochSize()": {
        "notice": "Returns the current epoch size in blocks."
      },
      "getMaxAttestations()": {
        "notice": "Query 'maxAttestations'"
      },
      "getParentSealBitmap(uint256)": {
        "notice": "Gets the parent seal bitmap from the header at the given block number."
      },
      "getUnselectedRequest(bytes32,address)": {
        "notice": "Returns the unselected attestation request for an identifier/account pair, if any."
      },
      "getVerifiedSealBitmapFromHeader(bytes)": {
        "notice": "Verifies the BLS signature on the header and returns the seal bitmap. The validator set used for verification is retrieved based on the parent hash field of the header.  If the parent hash is not in the blockchain, verification fails."
      },
      "getVersionNumber()": {
        "notice": "Returns the storage, major, minor, and patch version of the contract."
      },
      "hashHeader(bytes)": {
        "notice": "Computes hash of header."
      },
      "initialize(address,uint256,uint256,uint256,address[],uint256[])": {
        "notice": "Used in place of the constructor to allow the contract to be upgradable via proxy."
      },
      "minQuorumSize(uint256)": {
        "notice": "Returns the minimum number of required signers for a given block number."
      },
      "minQuorumSizeInCurrentSet()": {
        "notice": "Computes byzantine quorum from current validator set size"
      },
      "numberValidatorsInCurrentSet()": {
        "notice": "Gets the size of the current elected validator set."
      },
      "numberValidatorsInSet(uint256)": {
        "notice": "Gets the size of the validator set that must sign the given block number."
      },
      "requireNAttestationsRequested(bytes32,address,uint32)": {
        "notice": "Require that a given identifier/address pair has requested a specific number of attestations."
      },
      "revoke(bytes32,uint256)": {
        "notice": "Revokes an account for an identifier."
      },
      "setAttestationExpiryBlocks(uint256)": {
        "notice": "Updates 'attestationExpiryBlocks'."
      },
      "setAttestationRequestFee(address,uint256)": {
        "notice": "Updates the fee  for a particular token."
      },
      "setMaxAttestations(uint256)": {
        "notice": "Updates 'maxAttestations'."
      },
      "setRegistry(address)": {
        "notice": "Updates the address pointing to a Registry contract."
      },
      "setSelectIssuersWaitBlocks(uint256)": {
        "notice": "Updates 'selectIssuersWaitBlocks'."
      },
      "validateAttestationCode(bytes32,address,uint8,bytes32,bytes32)": {
        "notice": "Validates the given attestation code."
      },
      "validatorSignerAddressFromCurrentSet(uint256)": {
        "notice": "Gets a validator address from the current validator set."
      },
      "validatorSignerAddressFromSet(uint256,uint256)": {
        "notice": "Gets a validator address from the validator set at the given block number."
      },
      "withdraw(address)": {
        "notice": "Allows issuers to withdraw accumulated attestation rewards."
      }
    }
  }
}