{
  "contractName": "BlockchainParameters",
  "abi": [
    {
      "inputs": [
        {
          "internalType": "bool",
          "name": "test",
          "type": "bool"
        }
      ],
      "payable": false,
      "stateMutability": "nonpayable",
      "type": "constructor"
    },
    {
      "anonymous": false,
      "inputs": [
        {
          "indexed": false,
          "internalType": "uint256",
          "name": "limit",
          "type": "uint256"
        }
      ],
      "name": "BlockGasLimitSet",
      "type": "event"
    },
    {
      "anonymous": false,
      "inputs": [
        {
          "indexed": false,
          "internalType": "uint256",
          "name": "gas",
          "type": "uint256"
        }
      ],
      "name": "IntrinsicGasForAlternativeFeeCurrencySet",
      "type": "event"
    },
    {
      "anonymous": false,
      "inputs": [
        {
          "indexed": true,
          "internalType": "address",
          "name": "previousOwner",
          "type": "address"
        },
        {
          "indexed": true,
          "internalType": "address",
          "name": "newOwner",
          "type": "address"
        }
      ],
      "name": "OwnershipTransferred",
      "type": "event"
    },
    {
      "anonymous": false,
      "inputs": [
        {
          "indexed": false,
          "internalType": "uint256",
          "name": "window",
          "type": "uint256"
        },
        {
          "indexed": false,
          "internalType": "uint256",
          "name": "activationEpoch",
          "type": "uint256"
        }
      ],
      "name": "UptimeLookbackWindowSet",
      "type": "event"
    },
    {
      "constant": true,
      "inputs": [],
      "name": "blockGasLimit",
      "outputs": [
        {
          "internalType": "uint256",
          "name": "",
          "type": "uint256"
        }
      ],
      "payable": false,
      "stateMutability": "view",
      "type": "function"
    },
    {
      "constant": true,
      "inputs": [
        {
          "internalType": "address",
          "name": "sender",
          "type": "address"
        },
        {
          "internalType": "bytes",
          "name": "blsKey",
          "type": "bytes"
        },
        {
          "internalType": "bytes",
          "name": "blsPop",
          "type": "bytes"
        }
      ],
      "name": "checkProofOfPossession",
      "outputs": [
        {
          "internalType": "bool",
          "name": "",
          "type": "bool"
        }
      ],
      "payable": false,
      "stateMutability": "view",
      "type": "function"
    },
    {
      "constant": true,
      "inputs": [
        {
          "internalType": "uint256",
          "name": "aNumerator",
          "type": "uint256"
        },
        {
          "internalType": "uint256",
          "name": "aDenominator",
          "type": "uint256"
        },
        {
          "internalType": "uint256",
          "name": "bNumerator",
          "type": "uint256"
        },
        {
          "internalType": "uint256",
          "name": "bDenominator",
          "type": "uint256"
        },
        {
          "internalType": "uint256",
          "name": "exponent",
          "type": "uint256"
        },
        {
          "internalType": "uint256",
          "name": "_decimals",
          "type": "uint256"
        }
      ],
      "name": "fractionMulExp",
      "outputs": [
        {
          "internalType": "uint256",
          "name": "",
          "type": "uint256"
        },
        {
          "internalType": "uint256",
          "name": "",
          "type": "uint256"
        }
      ],
      "payable": false,
      "stateMutability": "view",
      "type": "function"
    },
    {
      "constant": true,
      "inputs": [
        {
          "internalType": "bytes",
          "name": "header",
          "type": "bytes"
        }
      ],
      "name": "getBlockNumberFromHeader",
      "outputs": [
        {
          "internalType": "uint256",
          "name": "",
          "type": "uint256"
        }
      ],
      "payable": false,
      "stateMutability": "view",
      "type": "function"
    },
    {
      "constant": true,
      "inputs": [],
      "name": "getEpochNumber",
      "outputs": [
        {
          "internalType": "uint256",
          "name": "",
          "type": "uint256"
        }
      ],
      "payable": false,
      "stateMutability": "view",
      "type": "function"
    },
    {
      "constant": true,
      "inputs": [
        {
          "internalType": "uint256",
          "name": "blockNumber",
          "type": "uint256"
        }
      ],
      "name": "getEpochNumberOfBlock",
      "outputs": [
        {
          "internalType": "uint256",
          "name": "",
          "type": "uint256"
        }
      ],
      "payable": false,
      "stateMutability": "view",
      "type": "function"
    },
    {
      "constant": true,
      "inputs": [],
      "name": "getEpochSize",
      "outputs": [
        {
          "internalType": "uint256",
          "name": "",
          "type": "uint256"
        }
      ],
      "payable": false,
      "stateMutability": "view",
      "type": "function"
    },
    {
      "constant": true,
      "inputs": [
        {
          "internalType": "uint256",
          "name": "blockNumber",
          "type": "uint256"
        }
      ],
      "name": "getParentSealBitmap",
      "outputs": [
        {
          "internalType": "bytes32",
          "name": "",
          "type": "bytes32"
        }
      ],
      "payable": false,
      "stateMutability": "view",
      "type": "function"
    },
    {
      "constant": true,
      "inputs": [
        {
          "internalType": "bytes",
          "name": "header",
          "type": "bytes"
        }
      ],
      "name": "getVerifiedSealBitmapFromHeader",
      "outputs": [
        {
          "internalType": "bytes32",
          "name": "",
          "type": "bytes32"
        }
      ],
      "payable": false,
      "stateMutability": "view",
      "type": "function"
    },
    {
      "constant": true,
      "inputs": [
        {
          "internalType": "bytes",
          "name": "header",
          "type": "bytes"
        }
      ],
      "name": "hashHeader",
      "outputs": [
        {
          "internalType": "bytes32",
          "name": "",
          "type": "bytes32"
        }
      ],
      "payable": false,
      "stateMutability": "view",
      "type": "function"
    },
    {
      "constant": true,
      "inputs": [],
      "name": "initialized",
      "outputs": [
        {
          "internalType": "bool",
          "name": "",
          "type": "bool"
        }
      ],
      "payable": false,
      "stateMutability": "view",
      "type": "function"
    },
    {
      "constant": true,
      "inputs": [],
      "name": "intrinsicGasForAlternativeFeeCurrency",
      "outputs": [
        {
          "internalType": "uint256",
          "name": "",
          "type": "uint256"
        }
      ],
      "payable": false,
      "stateMutability": "view",
      "type": "function"
    },
    {
      "constant": true,
      "inputs": [],
      "name": "isOwner",
      "outputs": [
        {
          "internalType": "bool",
          "name": "",
          "type": "bool"
        }
      ],
      "payable": false,
      "stateMutability": "view",
      "type": "function"
    },
    {
      "constant": true,
      "inputs": [
        {
          "internalType": "uint256",
          "name": "blockNumber",
          "type": "uint256"
        }
      ],
      "name": "minQuorumSize",
      "outputs": [
        {
          "internalType": "uint256",
          "name": "",
          "type": "uint256"
        }
      ],
      "payable": false,
      "stateMutability": "view",
      "type": "function"
    },
    {
      "constant": true,
      "inputs": [],
      "name": "minQuorumSizeInCurrentSet",
      "outputs": [
        {
          "internalType": "uint256",
          "name": "",
          "type": "uint256"
        }
      ],
      "payable": false,
      "stateMutability": "view",
      "type": "function"
    },
    {
      "constant": true,
      "inputs": [],
      "name": "numberValidatorsInCurrentSet",
      "outputs": [
        {
          "internalType": "uint256",
          "name": "",
          "type": "uint256"
        }
      ],
      "payable": false,
      "stateMutability": "view",
      "type": "function"
    },
    {
      "constant": true,
      "inputs": [
        {
          "internalType": "uint256",
          "name": "blockNumber",
          "type": "uint256"
        }
      ],
      "name": "numberValidatorsInSet",
      "outputs": [
        {
          "internalType": "uint256",
          "name": "",
          "type": "uint256"
        }
      ],
      "payable": false,
      "stateMutability": "view",
      "type": "function"
    },
    {
      "constant": true,
      "inputs": [],
      "name": "owner",
      "outputs": [
        {
          "internalType": "address",
          "name": "",
          "type": "address"
        }
      ],
      "payable": false,
      "stateMutability": "view",
      "type": "function"
    },
    {
      "constant": false,
      "inputs": [],
      "name": "renounceOwnership",
      "outputs": [],
      "payable": false,
      "stateMutability": "nonpayable",
      "type": "function"
    },
    {
      "constant": false,
      "inputs": [
        {
          "internalType": "address",
          "name": "newOwner",
          "type": "address"
        }
      ],
      "name": "transferOwnership",
      "outputs": [],
      "payable": false,
      "stateMutability": "nonpayable",
      "type": "function"
    },
    {
      "constant": true,
      "inputs": [],
      "name": "uptimeLookbackWindow",
      "outputs": [
        {
          "internalType": "uint256",
          "name": "oldValue",
          "type": "uint256"
        },
        {
          "internalType": "uint256",
          "name": "nextValue",
          "type": "uint256"
        },
        {
          "internalType": "uint256",
          "name": "nextValueActivationEpoch",
          "type": "uint256"
        }
      ],
      "payable": false,
      "stateMutability": "view",
      "type": "function"
    },
    {
      "constant": true,
      "inputs": [
        {
          "internalType": "uint256",
          "name": "index",
          "type": "uint256"
        }
      ],
      "name": "validatorSignerAddressFromCurrentSet",
      "outputs": [
        {
          "internalType": "address",
          "name": "",
          "type": "address"
        }
      ],
      "payable": false,
      "stateMutability": "view",
      "type": "function"
    },
    {
      "constant": true,
      "inputs": [
        {
          "internalType": "uint256",
          "name": "index",
          "type": "uint256"
        },
        {
          "internalType": "uint256",
          "name": "blockNumber",
          "type": "uint256"
        }
      ],
      "name": "validatorSignerAddressFromSet",
      "outputs": [
        {
          "internalType": "address",
          "name": "",
          "type": "address"
        }
      ],
      "payable": false,
      "stateMutability": "view",
      "type": "function"
    },
    {
      "constant": false,
      "inputs": [
        {
          "internalType": "uint256",
          "name": "_gasForNonGoldCurrencies",
          "type": "uint256"
        },
        {
          "internalType": "uint256",
          "name": "gasLimit",
          "type": "uint256"
        },
        {
          "internalType": "uint256",
          "name": "lookbackWindow",
          "type": "uint256"
        }
      ],
      "name": "initialize",
      "outputs": [],
      "payable": false,
      "stateMutability": "nonpayable",
      "type": "function"
    },
    {
      "constant": true,
      "inputs": [],
      "name": "getVersionNumber",
      "outputs": [
        {
          "internalType": "uint256",
          "name": "",
          "type": "uint256"
        },
        {
          "internalType": "uint256",
          "name": "",
          "type": "uint256"
        },
        {
          "internalType": "uint256",
          "name": "",
          "type": "uint256"
        },
        {
          "internalType": "uint256",
          "name": "",
          "type": "uint256"
        }
      ],
      "payable": false,
      "stateMutability": "pure",
      "type": "function"
    },
    {
      "constant": false,
      "inputs": [
        {
          "internalType": "uint256",
          "name": "gasLimit",
          "type": "uint256"
        }
      ],
      "name": "setBlockGasLimit",
      "outputs": [],
      "payable": false,
      "stateMutability": "nonpayable",
      "type": "function"
    },
    {
      "constant": false,
      "inputs": [
        {
          "internalType": "uint256",
          "name": "gas",
          "type": "uint256"
        }
      ],
      "name": "setIntrinsicGasForAlternativeFeeCurrency",
      "outputs": [],
      "payable": false,
      "stateMutability": "nonpayable",
      "type": "function"
    },
    {
      "constant": false,
      "inputs": [
        {
          "internalType": "uint256",
          "name": "window",
          "type": "uint256"
        }
      ],
      "name": "setUptimeLookbackWindow",
      "outputs": [],
      "payable": false,
      "stateMutability": "nonpayable",
      "type": "function"
    },
    {
      "constant": true,
      "inputs": [],
      "name": "getUptimeLookbackWindow",
      "outputs": [
        {
          "internalType": "uint256",
          "name": "lookbackWindow",
          "type": "uint256"
        }
      ],
      "payable": false,
      "stateMutability": "view",
      "type": "function"
    }
  ],
  "bytecode": "0x60806040523480156200001157600080fd5b5060405162002cbe38038062002cbe833981810160405260208110156200003757600080fd5b81019080805190602001909291905050508060006200005b6200012360201b60201c565b9050806000806101000a81548173ffffffffffffffffffffffffffffffffffffffff021916908373ffffffffffffffffffffffffffffffffffffffff1602179055508073ffffffffffffffffffffffffffffffffffffffff16600073ffffffffffffffffffffffffffffffffffffffff167f8be0079c531659141344cd1fd0a4f28419497f9722a3daafe3b4186f6b6457e060405160405180910390a350806200011b576001600060146101000a81548160ff0219169083151502179055505b50506200012b565b600033905090565b612b83806200013b6000396000f3fe608060405234801561001057600080fd5b50600436106101cf5760003560e01c806380d8591111610104578063a69257f3116100a2578063e94fd10911610071578063e94fd109146109de578063ec68307214610a0c578063f2fde38b14610a87578063fae8db0a14610acb576101cf565b8063a69257f314610922578063cb0ec62814610950578063df4da4611461097e578063e50e652d1461099c576101cf565b80638da5cb5b116100de5780638da5cb5b146108565780638f32d59b146108a05780639a7b3be7146108c25780639b2b592f146108e0576101cf565b806380d859111461072757806387ee8a0f146107695780638a88362614610787576101cf565b80635d180adb11610171578063715018a61161014b578063715018a6146106c35780637385e5da146106cd5780637877a797146106eb578063808474f114610709576101cf565b80635d180adb1461055057806361568828146105c857806367960e91146105f4576101cf565b80633b1eb4bf116101ad5780633b1eb4bf146103ee5780634b2c2f441461043057806352bed4d7146104ff57806354255be01461051d576101cf565b8063123633ea146101d4578063158ef93e1461024257806323f0ab6514610264575b600080fd5b610200600480360360208110156101ea57600080fd5b8101908080359060200190929190505050610b0d565b604051808273ffffffffffffffffffffffffffffffffffffffff1673ffffffffffffffffffffffffffffffffffffffff16815260200191505060405180910390f35b61024a610c5e565b604051808215151515815260200191505060405180910390f35b6103d46004803603606081101561027a57600080fd5b81019080803573ffffffffffffffffffffffffffffffffffffffff169060200190929190803590602001906401000000008111156102b757600080fd5b8201836020820111156102c957600080fd5b803590602001918460018302840111640100000000831117156102eb57600080fd5b91908080601f016020809104026020016040519081016040528093929190818152602001838380828437600081840152601f19601f8201169050808301925050505050505091929192908035906020019064010000000081111561034e57600080fd5b82018360208201111561036057600080fd5b8035906020019184600183028401116401000000008311171561038257600080fd5b91908080601f016020809104026020016040519081016040528093929190818152602001838380828437600081840152601f19601f820116905080830192505050505050509192919290505050610c71565b604051808215151515815260200191505060405180910390f35b61041a6004803603602081101561040457600080fd5b8101908080359060200190929190505050610e2a565b6040518082815260200191505060405180910390f35b6104e96004803603602081101561044657600080fd5b810190808035906020019064010000000081111561046357600080fd5b82018360208201111561047557600080fd5b8035906020019184600183028401116401000000008311171561049757600080fd5b91908080601f016020809104026020016040519081016040528093929190818152602001838380828437600081840152601f19601f820116905080830192505050505050509192919290505050610e44565b6040518082815260200191505060405180910390f35b610507610fd8565b6040518082815260200191505060405180910390f35b610525611041565b6040518085815260200184815260200183815260200182815260200194505050505060405180910390f35b6105866004803603604081101561056657600080fd5b810190808035906020019092919080359060200190929190505050611068565b604051808273ffffffffffffffffffffffffffffffffffffffff1673ffffffffffffffffffffffffffffffffffffffff16815260200191505060405180910390f35b6105d06111ba565b60405180848152602001838152602001828152602001935050505060405180910390f35b6106ad6004803603602081101561060a57600080fd5b810190808035906020019064010000000081111561062757600080fd5b82018360208201111561063957600080fd5b8035906020019184600183028401116401000000008311171561065b57600080fd5b91908080601f016020809104026020016040519081016040528093929190818152602001838380828437600081840152601f19601f8201169050808301925050505050505091929192905050506111d2565b6040518082815260200191505060405180910390f35b6106cb611366565b005b6106d561149f565b6040518082815260200191505060405180910390f35b6106f36114af565b6040518082815260200191505060405180910390f35b6107116114b5565b6040518082815260200191505060405180910390f35b6107676004803603606081101561073d57600080fd5b810190808035906020019092919080359060200190929190803590602001909291905050506114bb565b005b610771611582565b6040518082815260200191505060405180910390f35b6108406004803603602081101561079d57600080fd5b81019080803590602001906401000000008111156107ba57600080fd5b8201836020820111156107cc57600080fd5b803590602001918460018302840111640100000000831117156107ee57600080fd5b91908080601f016020809104026020016040519081016040528093929190818152602001838380828437600081840152601f19601f8201169050808301925050505050505091929192905050506116c9565b6040518082815260200191505060405180910390f35b61085e61185d565b604051808273ffffffffffffffffffffffffffffffffffffffff1673ffffffffffffffffffffffffffffffffffffffff16815260200191505060405180910390f35b6108a8611886565b604051808215151515815260200191505060405180910390f35b6108ca6118e4565b6040518082815260200191505060405180910390f35b61090c600480360360208110156108f657600080fd5b81019080803590602001909291905050506118f4565b6040518082815260200191505060405180910390f35b61094e6004803603602081101561093857600080fd5b8101908080359060200190929190505050611a3d565b005b61097c6004803603602081101561096657600080fd5b8101908080359060200190929190505050611af8565b005b610986611bb3565b6040518082815260200191505060405180910390f35b6109c8600480360360208110156109b257600080fd5b8101908080359060200190929190505050611cef565b6040518082815260200191505060405180910390f35b610a0a600480360360208110156109f457600080fd5b8101908080359060200190929190505050611d3a565b005b610a6a600480360360c0811015610a2257600080fd5b81019080803590602001909291908035906020019092919080359060200190929190803590602001909291908035906020019092919080359060200190929190505050611f15565b604051808381526020018281526020019250505060405180910390f35b610ac960048036036020811015610a9d57600080fd5b81019080803573ffffffffffffffffffffffffffffffffffffffff169060200190929190505050612129565b005b610af760048036036020811015610ae157600080fd5b81019080803590602001909291905050506121af565b6040518082815260200191505060405180910390f35b60006060600060fa73ffffffffffffffffffffffffffffffffffffffff16844360405160200180838152602001828152602001925050506040516020818303038152906040526040518082805190602001908083835b60208310610b865780518252602082019150602081019050602083039250610b63565b6001836020036101000a038019825116818451168082178552505050505050905001915050600060405180830381855afa9150503d8060008114610be6576040519150601f19603f3d011682016040523d82523d6000602084013e610beb565b606091505b50809350819250505080610c4a576040517f08c379a000000000000000000000000000000000000000000000000000000000815260040180806020018281038252603d815260200180612927603d913960400191505060405180910390fd5b610c558260006122f8565b92505050919050565b600060149054906101000a900460ff1681565b60008060fb73ffffffffffffffffffffffffffffffffffffffff16858585604051602001808473ffffffffffffffffffffffffffffffffffffffff1673ffffffffffffffffffffffffffffffffffffffff1660601b815260140183805190602001908083835b60208310610cfa5780518252602082019150602081019050602083039250610cd7565b6001836020036101000a03801982511681845116808217855250505050505090500182805190602001908083835b60208310610d4b5780518252602082019150602081019050602083039250610d28565b6001836020036101000a03801982511681845116808217855250505050505090500193505050506040516020818303038152906040526040518082805190602001908083835b60208310610db45780518252602082019150602081019050602083039250610d91565b6001836020036101000a038019825116818451168082178552505050505050905001915050600060405180830381855afa9150503d8060008114610e14576040519150601f19603f3d011682016040523d82523d6000602084013e610e19565b606091505b505080915050809150509392505050565b6000610e3d82610e38611bb3565b61230f565b9050919050565b60006060600060f473ffffffffffffffffffffffffffffffffffffffff16846040516020018082805190602001908083835b60208310610e995780518252602082019150602081019050602083039250610e76565b6001836020036101000a0380198251168184511680821785525050505050509050019150506040516020818303038152906040526040518082805190602001908083835b60208310610f005780518252602082019150602081019050602083039250610edd565b6001836020036101000a038019825116818451168082178552505050505050905001915050600060405180830381855afa9150503d8060008114610f60576040519150601f19603f3d011682016040523d82523d6000602084013e610f65565b606091505b50809350819250505080610fc4576040517f08c379a00000000000000000000000000000000000000000000000000000000081526004018080602001828103825260388152602001806128ef6038913960400191505060405180910390fd5b610fcf826000612357565b92505050919050565b6000610fe26123f8565b9050600081141561103e576040517f08c379a0000000000000000000000000000000000000000000000000000000008152600401808060200182810382526027815260200180612a7a6027913960400191505060405180910390fd5b90565b60008060008060016003600080839350829250819150809050935093509350935090919293565b60006060600060fa73ffffffffffffffffffffffffffffffffffffffff16858560405160200180838152602001828152602001925050506040516020818303038152906040526040518082805190602001908083835b602083106110e157805182526020820191506020810190506020830392506110be565b6001836020036101000a038019825116818451168082178552505050505050905001915050600060405180830381855afa9150503d8060008114611141576040519150601f19603f3d011682016040523d82523d6000602084013e611146565b606091505b508093508192505050806111a5576040517f08c379a00000000000000000000000000000000000000000000000000000000081526004018080602001828103825260368152602001806129996036913960400191505060405180910390fd5b6111b08260006122f8565b9250505092915050565b60068060000154908060010154908060020154905083565b60006060600060f673ffffffffffffffffffffffffffffffffffffffff16846040516020018082805190602001908083835b602083106112275780518252602082019150602081019050602083039250611204565b6001836020036101000a0380198251168184511680821785525050505050509050019150506040516020818303038152906040526040518082805190602001908083835b6020831061128e578051825260208201915060208101905060208303925061126b565b6001836020036101000a038019825116818451168082178552505050505050905001915050600060405180830381855afa9150503d80600081146112ee576040519150601f19603f3d011682016040523d82523d6000602084013e6112f3565b606091505b50809350819250505080611352576040517f08c379a0000000000000000000000000000000000000000000000000000000008152600401808060200182810382526023815260200180612b2c6023913960400191505060405180910390fd5b61135d826000612357565b92505050919050565b61136e611886565b6113e0576040517f08c379a00000000000000000000000000000000000000000000000000000000081526004018080602001828103825260208152602001807f4f776e61626c653a2063616c6c6572206973206e6f7420746865206f776e657281525060200191505060405180910390fd5b600073ffffffffffffffffffffffffffffffffffffffff166000809054906101000a900473ffffffffffffffffffffffffffffffffffffffff1673ffffffffffffffffffffffffffffffffffffffff167f8be0079c531659141344cd1fd0a4f28419497f9722a3daafe3b4186f6b6457e060405160405180910390a360008060006101000a81548173ffffffffffffffffffffffffffffffffffffffff021916908373ffffffffffffffffffffffffffffffffffffffff160217905550565b60006114aa43611cef565b905090565b60045481565b60055481565b600060149054906101000a900460ff161561153e576040517f08c379a000000000000000000000000000000000000000000000000000000000815260040180806020018281038252601c8152602001807f636f6e747261637420616c726561647920696e697469616c697a65640000000081525060200191505060405180910390fd5b6001600060146101000a81548160ff02191690831515021790555061156233612426565b61156b82611a3d565b61157483611af8565b61157d81611d3a565b505050565b60006060600060f973ffffffffffffffffffffffffffffffffffffffff1643604051602001808281526020019150506040516020818303038152906040526040518082805190602001908083835b602083106115f357805182526020820191506020810190506020830392506115d0565b6001836020036101000a038019825116818451168082178552505050505050905001915050600060405180830381855afa9150503d8060008114611653576040519150601f19603f3d011682016040523d82523d6000602084013e611658565b606091505b508093508192505050806116b7576040517f08c379a00000000000000000000000000000000000000000000000000000000081526004018080602001828103825260358152602001806129646035913960400191505060405180910390fd5b6116c28260006122f8565b9250505090565b60006060600060f773ffffffffffffffffffffffffffffffffffffffff16846040516020018082805190602001908083835b6020831061171e57805182526020820191506020810190506020830392506116fb565b6001836020036101000a0380198251168184511680821785525050505050509050019150506040516020818303038152906040526040518082805190602001908083835b602083106117855780518252602082019150602081019050602083039250611762565b6001836020036101000a038019825116818451168082178552505050505050905001915050600060405180830381855afa9150503d80600081146117e5576040519150601f19603f3d011682016040523d82523d6000602084013e6117ea565b606091505b50809350819250505080611849576040517f08c379a0000000000000000000000000000000000000000000000000000000008152600401808060200182810382526031815260200180612acd6031913960400191505060405180910390fd5b6118548260006122f8565b92505050919050565b60008060009054906101000a900473ffffffffffffffffffffffffffffffffffffffff16905090565b60008060009054906101000a900473ffffffffffffffffffffffffffffffffffffffff1673ffffffffffffffffffffffffffffffffffffffff166118c861256a565b73ffffffffffffffffffffffffffffffffffffffff1614905090565b60006118ef43610e2a565b905090565b60006060600060f973ffffffffffffffffffffffffffffffffffffffff1684604051602001808281526020019150506040516020818303038152906040526040518082805190602001908083835b602083106119655780518252602082019150602081019050602083039250611942565b6001836020036101000a038019825116818451168082178552505050505050905001915050600060405180830381855afa9150503d80600081146119c5576040519150601f19603f3d011682016040523d82523d6000602084013e6119ca565b606091505b50809350819250505080611a29576040517f08c379a000000000000000000000000000000000000000000000000000000000815260040180806020018281038252602e81526020018061289b602e913960400191505060405180910390fd5b611a348260006122f8565b92505050919050565b611a45611886565b611ab7576040517f08c379a00000000000000000000000000000000000000000000000000000000081526004018080602001828103825260208152602001807f4f776e61626c653a2063616c6c6572206973206e6f7420746865206f776e657281525060200191505060405180910390fd5b806004819055507f55311ae9c14427b0863f38ed97a2a5944c50d824bbf692836246512e6822c3cf816040518082815260200191505060405180910390a150565b611b00611886565b611b72576040517f08c379a00000000000000000000000000000000000000000000000000000000081526004018080602001828103825260208152602001807f4f776e61626c653a2063616c6c6572206973206e6f7420746865206f776e657281525060200191505060405180910390fd5b806005819055507fba9c6f28c7d9990745a5b5282dbee04706c28cae24a44736c3ba99b57c021f3e816040518082815260200191505060405180910390a150565b60006060600060f873ffffffffffffffffffffffffffffffffffffffff166040516020016040516020818303038152906040526040518082805190602001908083835b60208310611c195780518252602082019150602081019050602083039250611bf6565b6001836020036101000a038019825116818451168082178552505050505050905001915050600060405180830381855afa9150503d8060008114611c79576040519150601f19603f3d011682016040523d82523d6000602084013e611c7e565b606091505b50809350819250505080611cdd576040517f08c379a0000000000000000000000000000000000000000000000000000000008152600401808060200182810382526025815260200180612a556025913960400191505060405180910390fd5b611ce88260006122f8565b9250505090565b6000611d336003611d256002611d176002611d09886118f4565b61257290919063ffffffff16565b6125f890919063ffffffff16565b61268090919063ffffffff16565b9050919050565b611d42611886565b611db4576040517f08c379a00000000000000000000000000000000000000000000000000000000081526004018080602001828103825260208152602001807f4f776e61626c653a2063616c6c6572206973206e6f7420746865206f776e657281525060200191505060405180910390fd5b60038110158015611dc757506102d08111155b611e1c576040517f08c379a000000000000000000000000000000000000000000000000000000000815260040180806020018281038252602e815260200180612afe602e913960400191505060405180910390fd5b611e376002611e29611bb3565b6126ca90919063ffffffff16565b811115611e8f576040517f08c379a000000000000000000000000000000000000000000000000000000000815260040180806020018281038252603e8152602001806129cf603e913960400191505060405180910390fd5b611e976123f8565b600660000181905550611ebb6001611ead6118e4565b6125f890919063ffffffff16565b600660020181905550806006600101819055507f484a24d7faca8c4330aaf9ba5f131e6bd474ed6877a555511f39d16a1d71d15a81600660020154604051808381526020018281526020019250505060405180910390a150565b60008060008714158015611f2a575060008514155b611f9c576040517f08c379a00000000000000000000000000000000000000000000000000000000081526004018080602001828103825260158152602001807f612064656e6f6d696e61746f72206973207a65726f000000000000000000000081525060200191505060405180910390fd5b6000806000606060fc73ffffffffffffffffffffffffffffffffffffffff168c8c8c8c8c8c6040516020018087815260200186815260200185815260200184815260200183815260200182815260200196505050505050506040516020818303038152906040526040518082805190602001908083835b602083106120365780518252602082019150602081019050602083039250612013565b6001836020036101000a038019825116818451168082178552505050505050905001915050600060405180830381855afa9150503d8060008114612096576040519150601f19603f3d011682016040523d82523d6000602084013e61209b565b606091505b508092508193505050816120fa576040517f08c379a0000000000000000000000000000000000000000000000000000000008152600401808060200182810382526027815260200180612a2e6027913960400191505060405180910390fd5b6121058160006122f8565b93506121128160206122f8565b925083839550955050505050965096945050505050565b612131611886565b6121a3576040517f08c379a00000000000000000000000000000000000000000000000000000000081526004018080602001828103825260208152602001807f4f776e61626c653a2063616c6c6572206973206e6f7420746865206f776e657281525060200191505060405180910390fd5b6121ac81612426565b50565b60006060600060f573ffffffffffffffffffffffffffffffffffffffff1684604051602001808281526020019150506040516020818303038152906040526040518082805190602001908083835b6020831061222057805182526020820191506020810190506020830392506121fd565b6001836020036101000a038019825116818451168082178552505050505050905001915050600060405180830381855afa9150503d8060008114612280576040519150601f19603f3d011682016040523d82523d6000602084013e612285565b606091505b508093508192505050806122e4576040517f08c379a000000000000000000000000000000000000000000000000000000000815260040180806020018281038252602c815260200180612aa1602c913960400191505060405180910390fd5b6122ef826000612357565b92505050919050565b60006123048383612357565b60001c905092915050565b60008082848161231b57fe5b049050600083858161232957fe5b0614156123395780915050612351565b61234d6001826125f890919063ffffffff16565b9150505b92915050565b600061236d6020836125f890919063ffffffff16565b835110156123e3576040517f08c379a00000000000000000000000000000000000000000000000000000000081526004018080602001828103825260148152602001807f736c6963696e67206f7574206f662072616e676500000000000000000000000081525060200191505060405180910390fd5b60006020830184015190508091505092915050565b60006006600201546124086118e4565b1061241a576006600101549050612423565b60066000015490505b90565b600073ffffffffffffffffffffffffffffffffffffffff168173ffffffffffffffffffffffffffffffffffffffff1614156124ac576040517f08c379a00000000000000000000000000000000000000000000000000000000081526004018080602001828103825260268152602001806128c96026913960400191505060405180910390fd5b8073ffffffffffffffffffffffffffffffffffffffff166000809054906101000a900473ffffffffffffffffffffffffffffffffffffffff1673ffffffffffffffffffffffffffffffffffffffff167f8be0079c531659141344cd1fd0a4f28419497f9722a3daafe3b4186f6b6457e060405160405180910390a3806000806101000a81548173ffffffffffffffffffffffffffffffffffffffff021916908373ffffffffffffffffffffffffffffffffffffffff16021790555050565b600033905090565b60008083141561258557600090506125f2565b600082840290508284828161259657fe5b04146125ed576040517f08c379a0000000000000000000000000000000000000000000000000000000008152600401808060200182810382526021815260200180612a0d6021913960400191505060405180910390fd5b809150505b92915050565b600080828401905083811015612676576040517f08c379a000000000000000000000000000000000000000000000000000000000815260040180806020018281038252601b8152602001807f536166654d6174683a206164646974696f6e206f766572666c6f77000000000081525060200191505060405180910390fd5b8091505092915050565b60006126c283836040518060400160405280601a81526020017f536166654d6174683a206469766973696f6e206279207a65726f000000000000815250612714565b905092915050565b600061270c83836040518060400160405280601e81526020017f536166654d6174683a207375627472616374696f6e206f766572666c6f7700008152506127da565b905092915050565b600080831182906127c0576040517f08c379a00000000000000000000000000000000000000000000000000000000081526004018080602001828103825283818151815260200191508051906020019080838360005b8381101561278557808201518184015260208101905061276a565b50505050905090810190601f1680156127b25780820380516001836020036101000a031916815260200191505b509250505060405180910390fd5b5060008385816127cc57fe5b049050809150509392505050565b6000838311158290612887576040517f08c379a00000000000000000000000000000000000000000000000000000000081526004018080602001828103825283818151815260200191508051906020019080838360005b8381101561284c578082015181840152602081019050612831565b50505050905090810190601f1680156128795780820380516001836020036101000a031916815260200191505b509250505060405180910390fd5b506000838503905080915050939250505056fe6572726f722063616c6c696e67206e756d62657256616c696461746f7273496e53657420707265636f6d70696c654f776e61626c653a206e6577206f776e657220697320746865207a65726f20616464726573736572726f722063616c6c696e672067657456657269666965645365616c4269746d617046726f6d48656164657220707265636f6d70696c656572726f722063616c6c696e672076616c696461746f725369676e65724164647265737346726f6d43757272656e7453657420707265636f6d70696c656572726f722063616c6c696e67206e756d62657256616c696461746f7273496e43757272656e7453657420707265636f6d70696c656572726f722063616c6c696e672076616c696461746f725369676e65724164647265737346726f6d53657420707265636f6d70696c65557074696d654c6f6f6b6261636b57696e646f77206d75737420626520736d616c6c6572206f7220657175616c20746f2065706f636853697a65202d2032536166654d6174683a206d756c7469706c69636174696f6e206f766572666c6f776572726f722063616c6c696e67206672616374696f6e4d756c45787020707265636f6d70696c656572726f722063616c6c696e672067657445706f636853697a6520707265636f6d70696c65557074696d654c6f6f6b6261636b57696e646f77206973206e6f7420696e697469616c697a65646572726f722063616c6c696e6720676574506172656e745365616c4269746d617020707265636f6d70696c656572726f722063616c6c696e6720676574426c6f636b4e756d62657246726f6d48656164657220707265636f6d70696c65557074696d654c6f6f6b6261636b57696e646f77206d7573742062652077697468696e20736166652072616e67656572726f722063616c6c696e67206861736848656164657220707265636f6d70696c65a265627a7a72315820cab411de6d85bb9995582e844e4f1ac1dc05007bb28c0463815c6b65b3b804ee64736f6c634300050d0032",
  "source": "pragma solidity ^0.5.13;\n\nimport \"openzeppelin-solidity/contracts/math/SafeMath.sol\";\nimport \"openzeppelin-solidity/contracts/ownership/Ownable.sol\";\nimport \"../common/Initializable.sol\";\nimport \"../common/UsingPrecompiles.sol\";\n\n/**\n * @title Contract for storing blockchain parameters that can be set by governance.\n */\ncontract BlockchainParameters is Ownable, Initializable, UsingPrecompiles {\n  using SafeMath for uint256;\n\n  // obsolete\n  struct ClientVersion {\n    uint256 major;\n    uint256 minor;\n    uint256 patch;\n  }\n\n  struct LookbackWindow {\n    // Value for lookbackWindow before `nextValueActivationBlock`\n    uint256 oldValue;\n    // Value for lookbackWindow after `nextValueActivationBlock`\n    uint256 nextValue;\n    // Epoch where next value is activated\n    uint256 nextValueActivationEpoch;\n  }\n\n  ClientVersion private minimumClientVersion; // obsolete\n  uint256 public blockGasLimit;\n  uint256 public intrinsicGasForAlternativeFeeCurrency;\n  LookbackWindow public uptimeLookbackWindow;\n\n  event IntrinsicGasForAlternativeFeeCurrencySet(uint256 gas);\n  event BlockGasLimitSet(uint256 limit);\n  event UptimeLookbackWindowSet(uint256 window, uint256 activationEpoch);\n\n  /**\n   * @notice Sets initialized == true on implementation contracts\n   * @param test Set to true to skip implementation initialization\n   */\n  constructor(bool test) public Initializable(test) {}\n\n  /**\n   * @notice Used in place of the constructor to allow the contract to be upgradable via proxy.\n   * @param _gasForNonGoldCurrencies Intrinsic gas for non-gold gas currencies.\n   * @param gasLimit Block gas limit.\n   * @param lookbackWindow Lookback window for measuring validator uptime.\n   */\n  function initialize(uint256 _gasForNonGoldCurrencies, uint256 gasLimit, uint256 lookbackWindow)\n    external\n    initializer\n  {\n    _transferOwnership(msg.sender);\n    setBlockGasLimit(gasLimit);\n    setIntrinsicGasForAlternativeFeeCurrency(_gasForNonGoldCurrencies);\n    setUptimeLookbackWindow(lookbackWindow);\n  }\n\n  /**\n   * @notice Returns the storage, major, minor, and patch version of the contract.\n   * @return Storage version of the contract.\n   * @return Major version of the contract.\n   * @return Minor version of the contract.\n   * @return Patch version of the contract.\n   */\n  function getVersionNumber() external pure returns (uint256, uint256, uint256, uint256) {\n    return (1, 3, 0, 0);\n  }\n\n  /**\n   * @notice Sets the block gas limit.\n   * @param gasLimit New block gas limit.\n   */\n  function setBlockGasLimit(uint256 gasLimit) public onlyOwner {\n    blockGasLimit = gasLimit;\n    emit BlockGasLimitSet(gasLimit);\n  }\n\n  /**\n   * @notice Sets the intrinsic gas for non-gold gas currencies.\n   * @param gas Intrinsic gas for non-gold gas currencies.\n   */\n  function setIntrinsicGasForAlternativeFeeCurrency(uint256 gas) public onlyOwner {\n    intrinsicGasForAlternativeFeeCurrency = gas;\n    emit IntrinsicGasForAlternativeFeeCurrencySet(gas);\n  }\n\n  /**\n   * @notice Sets the uptime lookback window.\n   * @param window New window.\n   */\n  function setUptimeLookbackWindow(uint256 window) public onlyOwner {\n    require(window >= 3 && window <= 720, \"UptimeLookbackWindow must be within safe range\");\n    require(\n      window <= getEpochSize().sub(2),\n      \"UptimeLookbackWindow must be smaller or equal to epochSize - 2\"\n    );\n\n    uptimeLookbackWindow.oldValue = _getUptimeLookbackWindow();\n\n    // changes only take place on the next epoch\n    uptimeLookbackWindow.nextValueActivationEpoch = getEpochNumber().add(1);\n    uptimeLookbackWindow.nextValue = window;\n\n    emit UptimeLookbackWindowSet(window, uptimeLookbackWindow.nextValueActivationEpoch);\n  }\n\n  /**\n   * @notice Gets the uptime lookback window.\n   */\n  function getUptimeLookbackWindow() public view returns (uint256 lookbackWindow) {\n    lookbackWindow = _getUptimeLookbackWindow();\n    require(lookbackWindow != 0, \"UptimeLookbackWindow is not initialized\");\n  }\n\n  /**\n   * @notice Gets the uptime lookback window.\n   */\n  function _getUptimeLookbackWindow() internal view returns (uint256 lookbackWindow) {\n    if (getEpochNumber() >= uptimeLookbackWindow.nextValueActivationEpoch) {\n      return uptimeLookbackWindow.nextValue;\n    } else {\n      return uptimeLookbackWindow.oldValue;\n    }\n  }\n\n}\n",
  "compiler": {
    "name": "solc",
    "version": "0.5.13+commit.5b0b510c.Emscripten.clang"
  },
  "schemaVersion": "3.4.13",
  "updatedAt": "2023-11-21T17:26:03.923Z",
  "networkType": "ethereum",
  "devdoc": {
    "methods": {
      "checkProofOfPossession(address,bytes,bytes)": {
        "params": {
          "blsKey": "The BLS public key that the validator is using for consensus, should pass proof  of possession. 48 bytes.",
          "blsPop": "The BLS public key proof-of-possession, which consists of a signature on the  account address. 96 bytes.",
          "sender": "The address signed by the BLS key to generate the proof of possession."
        },
        "return": "True upon success."
      },
      "constructor": {
        "params": {
          "test": "Set to true to skip implementation initialization"
        }
      },
      "fractionMulExp(uint256,uint256,uint256,uint256,uint256,uint256)": {
        "params": {
          "_decimals": "precision",
          "aDenominator": "Denominator of first fraction",
          "aNumerator": "Numerator of first fraction",
          "bDenominator": "Denominator of exponentiated fraction",
          "bNumerator": "Numerator of exponentiated fraction",
          "exponent": "exponent to raise b to"
        },
        "return": "Numerator of the computed quantity (not reduced).Denominator of the computed quantity (not reduced)."
      },
      "getBlockNumberFromHeader(bytes)": {
        "params": {
          "header": "RLP encoded header"
        },
        "return": "Block number."
      },
      "getEpochNumber()": {
        "return": "Current epoch number."
      },
      "getEpochNumberOfBlock(uint256)": {
        "params": {
          "blockNumber": "Block number where epoch number is calculated."
        },
        "return": "Epoch number."
      },
      "getEpochSize()": {
        "return": "The current epoch size in blocks."
      },
      "getParentSealBitmap(uint256)": {
        "params": {
          "blockNumber": "Block number to retrieve. Must be within 4 epochs of the current number."
        },
        "return": "Bitmap parent seal with set bits at indices corresponding to signing validators."
      },
      "getVerifiedSealBitmapFromHeader(bytes)": {
        "params": {
          "header": "RLP encoded header"
        },
        "return": "Bitmap parent seal with set bits at indices correspoinding to signing validators."
      },
      "getVersionNumber()": {
        "return": "Storage version of the contract.Major version of the contract.Minor version of the contract.Patch version of the contract."
      },
      "hashHeader(bytes)": {
        "params": {
          "header": "RLP encoded header"
        },
        "return": "Header hash."
      },
      "initialize(uint256,uint256,uint256)": {
        "params": {
          "_gasForNonGoldCurrencies": "Intrinsic gas for non-gold gas currencies.",
          "gasLimit": "Block gas limit.",
          "lookbackWindow": "Lookback window for measuring validator uptime."
        }
      },
      "isOwner()": {
        "details": "Returns true if the caller is the current owner."
      },
      "minQuorumSize(uint256)": {
        "details": "Computed in celo-blockchain as int(math.Ceil(float64(2*valSet.Size()) / 3))"
      },
      "minQuorumSizeInCurrentSet()": {
        "return": "Byzantine quorum of validators."
      },
      "numberValidatorsInCurrentSet()": {
        "return": "Size of the current elected validator set."
      },
      "numberValidatorsInSet(uint256)": {
        "params": {
          "blockNumber": "Block number to retrieve the validator set from."
        },
        "return": "Size of the validator set."
      },
      "owner()": {
        "details": "Returns the address of the current owner."
      },
      "renounceOwnership()": {
        "details": "Leaves the contract without owner. It will not be possible to call `onlyOwner` functions anymore. Can only be called by the current owner.     * NOTE: Renouncing ownership will leave the contract without an owner, thereby removing any functionality that is only available to the owner."
      },
      "setBlockGasLimit(uint256)": {
        "params": {
          "gasLimit": "New block gas limit."
        }
      },
      "setIntrinsicGasForAlternativeFeeCurrency(uint256)": {
        "params": {
          "gas": "Intrinsic gas for non-gold gas currencies."
        }
      },
      "setUptimeLookbackWindow(uint256)": {
        "params": {
          "window": "New window."
        }
      },
      "transferOwnership(address)": {
        "details": "Transfers ownership of the contract to a new account (`newOwner`). Can only be called by the current owner."
      },
      "validatorSignerAddressFromCurrentSet(uint256)": {
        "params": {
          "index": "Index of requested validator in the validator set."
        },
        "return": "Address of validator at the requested index."
      },
      "validatorSignerAddressFromSet(uint256,uint256)": {
        "params": {
          "blockNumber": "Block number to retrieve the validator set from.",
          "index": "Index of requested validator in the validator set."
        },
        "return": "Address of validator at the requested index."
      }
    },
    "title": "Contract for storing blockchain parameters that can be set by governance."
  },
  "userdoc": {
    "methods": {
      "checkProofOfPossession(address,bytes,bytes)": {
        "notice": "Checks a BLS proof of possession."
      },
      "constructor": "Sets initialized == true on implementation contracts",
      "fractionMulExp(uint256,uint256,uint256,uint256,uint256,uint256)": {
        "notice": "calculate a * b^x for fractions a, b to `decimals` precision"
      },
      "getBlockNumberFromHeader(bytes)": {
        "notice": "Parses block number out of header."
      },
      "getEpochNumber()": {
        "notice": "Returns the epoch number at a block."
      },
      "getEpochNumberOfBlock(uint256)": {
        "notice": "Returns the epoch number at a block."
      },
      "getEpochSize()": {
        "notice": "Returns the current epoch size in blocks."
      },
      "getParentSealBitmap(uint256)": {
        "notice": "Gets the parent seal bitmap from the header at the given block number."
      },
      "getUptimeLookbackWindow()": {
        "notice": "Gets the uptime lookback window."
      },
      "getVerifiedSealBitmapFromHeader(bytes)": {
        "notice": "Verifies the BLS signature on the header and returns the seal bitmap. The validator set used for verification is retrieved based on the parent hash field of the header.  If the parent hash is not in the blockchain, verification fails."
      },
      "getVersionNumber()": {
        "notice": "Returns the storage, major, minor, and patch version of the contract."
      },
      "hashHeader(bytes)": {
        "notice": "Computes hash of header."
      },
      "initialize(uint256,uint256,uint256)": {
        "notice": "Used in place of the constructor to allow the contract to be upgradable via proxy."
      },
      "minQuorumSize(uint256)": {
        "notice": "Returns the minimum number of required signers for a given block number."
      },
      "minQuorumSizeInCurrentSet()": {
        "notice": "Computes byzantine quorum from current validator set size"
      },
      "numberValidatorsInCurrentSet()": {
        "notice": "Gets the size of the current elected validator set."
      },
      "numberValidatorsInSet(uint256)": {
        "notice": "Gets the size of the validator set that must sign the given block number."
      },
      "setBlockGasLimit(uint256)": {
        "notice": "Sets the block gas limit."
      },
      "setIntrinsicGasForAlternativeFeeCurrency(uint256)": {
        "notice": "Sets the intrinsic gas for non-gold gas currencies."
      },
      "setUptimeLookbackWindow(uint256)": {
        "notice": "Sets the uptime lookback window."
      },
      "validatorSignerAddressFromCurrentSet(uint256)": {
        "notice": "Gets a validator address from the current validator set."
      },
      "validatorSignerAddressFromSet(uint256,uint256)": {
        "notice": "Gets a validator address from the validator set at the given block number."
      }
    }
  }
}