{
  "contractName": "BLS12_377Passthrough",
  "abi": [
    {
      "inputs": [],
      "payable": false,
      "stateMutability": "nonpayable",
      "type": "constructor"
    },
    {
      "anonymous": false,
      "inputs": [
        {
          "indexed": false,
          "internalType": "uint256",
          "name": "a",
          "type": "uint256"
        },
        {
          "indexed": false,
          "internalType": "uint256",
          "name": "b",
          "type": "uint256"
        },
        {
          "indexed": false,
          "internalType": "uint256",
          "name": "c",
          "type": "uint256"
        },
        {
          "indexed": false,
          "internalType": "uint256",
          "name": "d",
          "type": "uint256"
        }
      ],
      "name": "MEMDUMP",
      "type": "event"
    },
    {
      "constant": true,
      "inputs": [
        {
          "internalType": "uint256[]",
          "name": "arr",
          "type": "uint256[]"
        }
      ],
      "name": "fp2MulTest",
      "outputs": [
        {
          "internalType": "uint256",
          "name": "",
          "type": "uint256"
        },
        {
          "internalType": "uint256",
          "name": "",
          "type": "uint256"
        },
        {
          "internalType": "uint256",
          "name": "",
          "type": "uint256"
        },
        {
          "internalType": "uint256",
          "name": "",
          "type": "uint256"
        }
      ],
      "payable": false,
      "stateMutability": "view",
      "type": "function"
    },
    {
      "constant": true,
      "inputs": [
        {
          "internalType": "uint256",
          "name": "a1",
          "type": "uint256"
        },
        {
          "internalType": "uint256",
          "name": "a2",
          "type": "uint256"
        },
        {
          "internalType": "uint256",
          "name": "b1",
          "type": "uint256"
        },
        {
          "internalType": "uint256",
          "name": "b2",
          "type": "uint256"
        }
      ],
      "name": "fpMulTest",
      "outputs": [
        {
          "internalType": "uint256",
          "name": "",
          "type": "uint256"
        },
        {
          "internalType": "uint256",
          "name": "",
          "type": "uint256"
        }
      ],
      "payable": false,
      "stateMutability": "view",
      "type": "function"
    },
    {
      "constant": true,
      "inputs": [
        {
          "internalType": "uint256",
          "name": "a",
          "type": "uint256"
        },
        {
          "internalType": "uint256",
          "name": "idx",
          "type": "uint256"
        }
      ],
      "name": "fpNormal2Test",
      "outputs": [
        {
          "internalType": "uint256",
          "name": "",
          "type": "uint256"
        },
        {
          "internalType": "uint256",
          "name": "",
          "type": "uint256"
        }
      ],
      "payable": false,
      "stateMutability": "view",
      "type": "function"
    },
    {
      "constant": true,
      "inputs": [
        {
          "internalType": "uint256",
          "name": "a1",
          "type": "uint256"
        },
        {
          "internalType": "uint256",
          "name": "a2",
          "type": "uint256"
        }
      ],
      "name": "fpNormalTest",
      "outputs": [
        {
          "internalType": "uint256",
          "name": "",
          "type": "uint256"
        },
        {
          "internalType": "uint256",
          "name": "",
          "type": "uint256"
        }
      ],
      "payable": false,
      "stateMutability": "view",
      "type": "function"
    },
    {
      "constant": true,
      "inputs": [
        {
          "internalType": "bytes",
          "name": "h",
          "type": "bytes"
        }
      ],
      "name": "testDeserialize",
      "outputs": [
        {
          "internalType": "uint256",
          "name": "",
          "type": "uint256"
        },
        {
          "internalType": "uint256",
          "name": "",
          "type": "uint256"
        },
        {
          "internalType": "bool",
          "name": "",
          "type": "bool"
        }
      ],
      "payable": false,
      "stateMutability": "pure",
      "type": "function"
    },
    {
      "constant": true,
      "inputs": [
        {
          "internalType": "bytes",
          "name": "arg",
          "type": "bytes"
        }
      ],
      "name": "testParseG1",
      "outputs": [
        {
          "internalType": "uint256[4]",
          "name": "ret",
          "type": "uint256[4]"
        }
      ],
      "payable": false,
      "stateMutability": "pure",
      "type": "function"
    },
    {
      "constant": true,
      "inputs": [
        {
          "internalType": "bytes",
          "name": "arg",
          "type": "bytes"
        }
      ],
      "name": "testParseG2",
      "outputs": [
        {
          "internalType": "uint256[8]",
          "name": "ret",
          "type": "uint256[8]"
        }
      ],
      "payable": false,
      "stateMutability": "pure",
      "type": "function"
    },
    {
      "constant": true,
      "inputs": [
        {
          "internalType": "uint256",
          "name": "w",
          "type": "uint256"
        },
        {
          "internalType": "uint256",
          "name": "x",
          "type": "uint256"
        },
        {
          "internalType": "uint256",
          "name": "y",
          "type": "uint256"
        },
        {
          "internalType": "uint256",
          "name": "z",
          "type": "uint256"
        }
      ],
      "name": "testSerializeG1",
      "outputs": [
        {
          "internalType": "bytes",
          "name": "",
          "type": "bytes"
        }
      ],
      "payable": false,
      "stateMutability": "pure",
      "type": "function"
    },
    {
      "constant": true,
      "inputs": [
        {
          "internalType": "uint256",
          "name": "xaa",
          "type": "uint256"
        },
        {
          "internalType": "uint256",
          "name": "xab",
          "type": "uint256"
        },
        {
          "internalType": "uint256",
          "name": "xba",
          "type": "uint256"
        },
        {
          "internalType": "uint256",
          "name": "xbb",
          "type": "uint256"
        },
        {
          "internalType": "uint256",
          "name": "yaa",
          "type": "uint256"
        },
        {
          "internalType": "uint256",
          "name": "yab",
          "type": "uint256"
        },
        {
          "internalType": "uint256",
          "name": "yba",
          "type": "uint256"
        },
        {
          "internalType": "uint256",
          "name": "ybb",
          "type": "uint256"
        }
      ],
      "name": "testSerializeG2",
      "outputs": [
        {
          "internalType": "bytes",
          "name": "",
          "type": "bytes"
        }
      ],
      "payable": false,
      "stateMutability": "pure",
      "type": "function"
    },
    {
      "constant": true,
      "inputs": [],
      "name": "testUncompress",
      "outputs": [
        {
          "internalType": "uint256",
          "name": "",
          "type": "uint256"
        },
        {
          "internalType": "uint256",
          "name": "",
          "type": "uint256"
        }
      ],
      "payable": false,
      "stateMutability": "view",
      "type": "function"
    },
    {
      "constant": true,
      "inputs": [
        {
          "internalType": "bytes",
          "name": "args",
          "type": "bytes"
        }
      ],
      "name": "g1Add",
      "outputs": [
        {
          "internalType": "bytes",
          "name": "",
          "type": "bytes"
        }
      ],
      "payable": false,
      "stateMutability": "view",
      "type": "function"
    },
    {
      "constant": true,
      "inputs": [
        {
          "internalType": "bytes",
          "name": "args",
          "type": "bytes"
        }
      ],
      "name": "g1Mul",
      "outputs": [
        {
          "internalType": "bytes",
          "name": "",
          "type": "bytes"
        }
      ],
      "payable": false,
      "stateMutability": "view",
      "type": "function"
    },
    {
      "constant": true,
      "inputs": [
        {
          "internalType": "bytes",
          "name": "args",
          "type": "bytes"
        }
      ],
      "name": "g1MultiExp",
      "outputs": [
        {
          "internalType": "bytes",
          "name": "",
          "type": "bytes"
        }
      ],
      "payable": false,
      "stateMutability": "view",
      "type": "function"
    },
    {
      "constant": true,
      "inputs": [
        {
          "internalType": "bytes",
          "name": "args",
          "type": "bytes"
        }
      ],
      "name": "g2Add",
      "outputs": [
        {
          "internalType": "bytes",
          "name": "",
          "type": "bytes"
        }
      ],
      "payable": false,
      "stateMutability": "view",
      "type": "function"
    },
    {
      "constant": true,
      "inputs": [
        {
          "internalType": "bytes",
          "name": "args",
          "type": "bytes"
        }
      ],
      "name": "g2Mul",
      "outputs": [
        {
          "internalType": "bytes",
          "name": "",
          "type": "bytes"
        }
      ],
      "payable": false,
      "stateMutability": "view",
      "type": "function"
    },
    {
      "constant": true,
      "inputs": [
        {
          "internalType": "bytes",
          "name": "args",
          "type": "bytes"
        }
      ],
      "name": "g2MultiExp",
      "outputs": [
        {
          "internalType": "bytes",
          "name": "",
          "type": "bytes"
        }
      ],
      "payable": false,
      "stateMutability": "view",
      "type": "function"
    }
  ],
  "bytecode": "0x608060405234801561001057600080fd5b50614bae806100206000396000f3fe608060405234801561001057600080fd5b50600436106101005760003560e01c80638249ab2d11610097578063ad10955111610066578063ad109551146109aa578063beffe3ca14610a4c578063e4694b7d14610a9f578063e5baa3a314610b9157610100565b80638249ab2d1461067e57806388ff09f0146107705780638c371936146108625780639548643d146108c957610100565b80632f5f842b116100d35780632f5f842b146103925780634de0f08d146104845780635e5bac74146105395780636a0a20f41461062b57610100565b806305c0409214610105578063092176a7146101f3578063162ebd80146102a857806323ab39c61461036d575b600080fd5b610178600480360361010081101561011c57600080fd5b810190808035906020019092919080359060200190929190803590602001909291908035906020019092919080359060200190929190803590602001909291908035906020019092919080359060200190929190505050610c83565b6040518080602001828103825283818151815260200191508051906020019080838360005b838110156101b857808201518184015260208101905061019d565b50505050905090810190601f1680156101e55780820380516001836020036101000a031916815260200191505b509250505060405180910390f35b61026a6004803603602081101561020957600080fd5b810190808035906020019064010000000081111561022657600080fd5b82018360208201111561023857600080fd5b8035906020019184600183028401116401000000008311171561025a57600080fd5b9091929391929390505050610d35565b6040518082600860200280838360005b8381101561029557808201518184015260208101905061027a565b5050505090500191505060405180910390f35b6102f2600480360360808110156102be57600080fd5b8101908080359060200190929190803590602001909291908035906020019092919080359060200190929190505050610ebe565b6040518080602001828103825283818151815260200191508051906020019080838360005b83811015610332578082015181840152602081019050610317565b50505050905090810190601f16801561035f5780820380516001836020036101000a031916815260200191505b509250505060405180910390f35b610375610f14565b604051808381526020018281526020019250505060405180910390f35b610409600480360360208110156103a857600080fd5b81019080803590602001906401000000008111156103c557600080fd5b8201836020820111156103d757600080fd5b803590602001918460018302840111640100000000831117156103f957600080fd5b9091929391929390505050611037565b6040518080602001828103825283818151815260200191508051906020019080838360005b8381101561044957808201518184015260208101905061042e565b50505050905090810190601f1680156104765780820380516001836020036101000a031916815260200191505b509250505060405180910390f35b6104fb6004803603602081101561049a57600080fd5b81019080803590602001906401000000008111156104b757600080fd5b8201836020820111156104c957600080fd5b803590602001918460018302840111640100000000831117156104eb57600080fd5b9091929391929390505050611123565b6040518082600460200280838360005b8381101561052657808201518184015260208101905061050b565b5050505090500191505060405180910390f35b6105b06004803603602081101561054f57600080fd5b810190808035906020019064010000000081111561056c57600080fd5b82018360208201111561057e57600080fd5b803590602001918460018302840111640100000000831117156105a057600080fd5b9091929391929390505050611210565b6040518080602001828103825283818151815260200191508051906020019080838360005b838110156105f05780820151818401526020810190506105d5565b50505050905090810190601f16801561061d5780820380516001836020036101000a031916815260200191505b509250505060405180910390f35b6106616004803603604081101561064157600080fd5b810190808035906020019092919080359060200190929190505050611311565b604051808381526020018281526020019250505060405180910390f35b6106f56004803603602081101561069457600080fd5b81019080803590602001906401000000008111156106b157600080fd5b8201836020820111156106c357600080fd5b803590602001918460018302840111640100000000831117156106e557600080fd5b9091929391929390505050611353565b6040518080602001828103825283818151815260200191508051906020019080838360005b8381101561073557808201518184015260208101905061071a565b50505050905090810190601f1680156107625780820380516001836020036101000a031916815260200191505b509250505060405180910390f35b6107e76004803603602081101561078657600080fd5b81019080803590602001906401000000008111156107a357600080fd5b8201836020820111156107b557600080fd5b803590602001918460018302840111640100000000831117156107d757600080fd5b90919293919293905050506116bf565b6040518080602001828103825283818151815260200191508051906020019080838360005b8381101561082757808201518184015260208101905061080c565b50505050905090810190601f1680156108545780820380516001836020036101000a031916815260200191505b509250505060405180910390f35b6108ac6004803603608081101561087857600080fd5b81019080803590602001909291908035906020019092919080359060200190929190803590602001909291905050506118fb565b604051808381526020018281526020019250505060405180910390f35b610982600480360360208110156108df57600080fd5b81019080803590602001906401000000008111156108fc57600080fd5b82018360208201111561090e57600080fd5b8035906020019184600183028401116401000000008311171561093057600080fd5b91908080601f016020809104026020016040519081016040528093929190818152602001838380828437600081840152601f19601f82011690508083019250505050505050919291929050505061196a565b6040518084815260200183815260200182151515158152602001935050505060405180910390f35b610a21600480360360208110156109c057600080fd5b81019080803590602001906401000000008111156109dd57600080fd5b8201836020820111156109ef57600080fd5b80359060200191846020830284011164010000000083111715610a1157600080fd5b90919293919293905050506119a0565b6040518085815260200184815260200183815260200182815260200194505050505060405180910390f35b610a8260048036036040811015610a6257600080fd5b810190808035906020019092919080359060200190929190505050611b18565b604051808381526020018281526020019250505060405180910390f35b610b1660048036036020811015610ab557600080fd5b8101908080359060200190640100000000811115610ad257600080fd5b820183602082011115610ae457600080fd5b80359060200191846001830284011164010000000083111715610b0657600080fd5b9091929391929390505050611b64565b6040518080602001828103825283818151815260200191508051906020019080838360005b83811015610b56578082015181840152602081019050610b3b565b50505050905090810190601f168015610b835780820380516001836020036101000a031916815260200191505b509250505060405180910390f35b610c0860048036036020811015610ba757600080fd5b8101908080359060200190640100000000811115610bc457600080fd5b820183602082011115610bd657600080fd5b80359060200191846001830284011164010000000083111715610bf857600080fd5b9091929391929390505050611c4f565b6040518080602001828103825283818151815260200191508051906020019080838360005b83811015610c48578082015181840152602081019050610c2d565b50505050905090810190601f168015610c755780820380516001836020036101000a031916815260200191505b509250505060405180910390f35b6060610c8d6148e4565b898160000151600001516000018181525050888160000151600001516020018181525050878160000151602001516000018181525050868160000151602001516020018181525050858160200151600001516000018181525050848160200151600001516020018181525050838160200151602001516000018181525050828160200151602001516020018181525050610d2681611d52565b91505098975050505050505050565b610d3d61490a565b610d456148e4565b610d9d600085858080601f016020809104026020016040519081016040528093929190818152602001838380828437600081840152601f19601f82011690508083019250505050505050611e1390919063ffffffff16565b90508060000151600001516000015182600060088110610db957fe5b6020020181815250508060000151600001516020015182600160088110610ddc57fe5b6020020181815250508060000151602001516000015182600260088110610dff57fe5b6020020181815250508060000151602001516020015182600360088110610e2257fe5b6020020181815250508060200151600001516000015182600460088110610e4557fe5b6020020181815250508060200151600001516020015182600560088110610e6857fe5b6020020181815250508060200151602001516000015182600660088110610e8b57fe5b6020020181815250508060200151602001516020015182600760088110610eae57fe5b6020020181815250505092915050565b6060610ec861492d565b8581600001516000018181525050848160000151602001818152505083816020015160000181815250508281602001516020018181525050610f0981611fc7565b915050949350505050565b600080610f1f614953565b60405180604001604052806e8848defe740a67c8fc6225bf87ff5481526020017f85951e2caa9d41bb188282c8bd37cb5cd5481512ffcd394eeab9b16eb21be9ef8152509050610f6d614953565b60405180604001604052806e1cefdc52b4e1eba6d3b6633bf15a7681526020017f5ca326aa36b6c0b5b1db375b6a5124fa540d200dfb56a6e58785e1aaaa63715b8152509050610fbb614953565b60405180604001604052806f01914a69c5102eff1f674f5d30afeec481526020017fbd7fb348ca3e52d96d182ad44fb82305c2fe3d3634a9591afd82de55559c8ea6815250905061100a61492d565b6110178483856001612028565b905080602001516000015181602001516020015195509550505050509091565b60606110416148e4565b611099600085858080601f016020809104026020016040519081016040528093929190818152602001838380828437600081840152601f19601f82011690508083019250505050505050611e1390919063ffffffff16565b90506110a36148e4565b6110fc61010086868080601f016020809104026020016040519081016040528093929190818152602001838380828437600081840152601f19601f82011690508083019250505050505050611e1390919063ffffffff16565b9050611119611114828461230b90919063ffffffff16565b611d52565b9250505092915050565b61112b61496d565b61113361492d565b61118b600085858080601f016020809104026020016040519081016040528093929190818152602001838380828437600081840152601f19601f8201169050808301925050505050505061233590919063ffffffff16565b9050806000015160000151826000600481106111a357fe5b602002018181525050806000015160200151826001600481106111c257fe5b602002018181525050806020015160000151826002600481106111e157fe5b6020020181815250508060200151602001518260036004811061120057fe5b6020020181815250505092915050565b606061121a61492d565b611272600085858080601f016020809104026020016040519081016040528093929190818152602001838380828437600081840152601f19601f8201169050808301925050505050505061233590919063ffffffff16565b905060006112ea608060206112d5600089898080601f016020809104026020016040519081016040528093929190818152602001838380828437600081840152601f19601f8201169050808301925050505050505061242190919063ffffffff16565b62ffffff191661244c9092919063ffffffff16565b9050611307611302828461247190919063ffffffff16565b611fc7565b9250505092915050565b60008061131c614953565b61133b604051806040016040528060008152602001878152508561249b565b90508060000151816020015192509250509250929050565b606060006113af600085858080601f016020809104026020016040519081016040528093929190818152602001838380828437600081840152601f19601f8201169050808301925050505050505061242190919063ffffffff16565b9050606061012085859050816113c157fe5b046040519080825280602002602001820160405280156113fb57816020015b6113e861498f565b8152602001906001900390816113e05790505b50905060008090505b610120868690508161141257fe5b048110156116a3576000610120820290506114426000820160208662ffffff191661244c9092919063ffffffff16565b83838151811061144e57fe5b602002602001015160000151600001516000015160000181815250506114896020820160208662ffffff191661244c9092919063ffffffff16565b83838151811061149557fe5b602002602001015160000151600001516000015160200181815250506114d06040820160208662ffffff191661244c9092919063ffffffff16565b8383815181106114dc57fe5b602002602001015160000151600001516020015160000181815250506115176060820160208662ffffff191661244c9092919063ffffffff16565b83838151811061152357fe5b6020026020010151600001516000015160200151602001818152505061155e6080820160208662ffffff191661244c9092919063ffffffff16565b83838151811061156a57fe5b602002602001015160000151602001516000015160000181815250506115a560a0820160208662ffffff191661244c9092919063ffffffff16565b8383815181106115b157fe5b602002602001015160000151602001516000015160200181815250506115ec60c0820160208662ffffff191661244c9092919063ffffffff16565b8383815181106115f857fe5b6020026020010151600001516020015160200151600001818152505061163360e0820160208662ffffff191661244c9092919063ffffffff16565b83838151811061163f57fe5b6020026020010151600001516020015160200151602001818152505061167b610100820160208662ffffff191661244c9092919063ffffffff16565b83838151811061168757fe5b6020026020010151602001818152505050600181019050611404565b506116b56116b0826124fc565b611d52565b9250505092915050565b6060600061171b600085858080601f016020809104026020016040519081016040528093929190818152602001838380828437600081840152601f19601f8201169050808301925050505050505061242190919063ffffffff16565b9050606060a0858590508161172c57fe5b0460405190808252806020026020018201604052801561176657816020015b6117536149af565b81526020019060019003908161174b5790505b50905060008090505b60a0868690508161177c57fe5b048110156118df57600060a0820290506117ab6000820160208662ffffff191661244c9092919063ffffffff16565b8383815181106117b757fe5b6020026020010151600001516000015160000181815250506117ee6020820160208662ffffff191661244c9092919063ffffffff16565b8383815181106117fa57fe5b6020026020010151600001516000015160200181815250506118316040820160208662ffffff191661244c9092919063ffffffff16565b83838151811061183d57fe5b6020026020010151600001516020015160000181815250506118746060820160208662ffffff191661244c9092919063ffffffff16565b83838151811061188057fe5b6020026020010151600001516020015160200181815250506118b76080820160208662ffffff191661244c9092919063ffffffff16565b8383815181106118c357fe5b602002602001015160200181815250505060018101905061176f565b506118f16118ec82612531565b611fc7565b9250505092915050565b600080611906614953565b6040518060400160405280888152602001878152509050611925614953565b6040518060400160405280878152602001868152509050611944614953565b61194e8383612566565b9050806000015181602001519450945050505094509492505050565b6000806000611977614953565b600061198286612784565b91509150816000015182602001518294509450945050509193909250565b6000806000806119ae6149cf565b604051806040016040528060405180604001604052808a8a60008181106119d157fe5b9050602002013581526020018a8a60018181106119ea57fe5b90506020020135815250815260200160405180604001604052808a8a6002818110611a1157fe5b9050602002013581526020018a8a6003818110611a2a57fe5b905060200201358152508152509050611a416149cf565b604051806040016040528060405180604001604052808b8b6004818110611a6457fe5b9050602002013581526020018b8b6005818110611a7d57fe5b90506020020135815250815260200160405180604001604052808b8b6006818110611aa457fe5b9050602002013581526020018b8b6007818110611abd57fe5b905060200201358152508152509050611ad46149cf565b611ade83836127a2565b9050806000015160000151816000015160200151826020015160000151836020015160200151965096509650965050505092959194509250565b600080611b23614953565b6040518060400160405280868152602001858152509050611b42614953565b611b4b826128c1565b9050806000015181602001519350935050509250929050565b6060611b6e61492d565b611bc6600085858080601f016020809104026020016040519081016040528093929190818152602001838380828437600081840152601f19601f8201169050808301925050505050505061233590919063ffffffff16565b9050611bd061492d565b611c28608086868080601f016020809104026020016040519081016040528093929190818152602001838380828437600081840152601f19601f8201169050808301925050505050505061233590919063ffffffff16565b9050611c45611c40828461292090919063ffffffff16565b611fc7565b9250505092915050565b6060611c596148e4565b611cb1600085858080601f016020809104026020016040519081016040528093929190818152602001838380828437600081840152601f19601f82011690508083019250505050505050611e1390919063ffffffff16565b90506000611d2a6101006020611d15600089898080601f016020809104026020016040519081016040528093929190818152602001838380828437600081840152601f19601f8201169050808301925050505050505061242190919063ffffffff16565b62ffffff191661244c9092919063ffffffff16565b9050611d3f818361294a90919063ffffffff16565b611d4882611d52565b9250505092915050565b6060816000015160000151600001518260000151600001516020015183600001516020015160000151846000015160200151602001518560200151600001516000015186602001516000015160200151876020015160200151600001518860200151602001516020015160405160200180898152602001888152602001878152602001868152602001858152602001848152602001838152602001828152602001985050505050505050506040516020818303038152906040529050919050565b611e1b6148e4565b6000611e4f838551036000611e3a60008861242190919063ffffffff16565b62ffffff19166129689092919063ffffffff16565b9050611e6e600060208362ffffff191661244c9092919063ffffffff16565b8260000151600001516000018181525050611e9b6020808362ffffff191661244c9092919063ffffffff16565b8260000151600001516020018181525050611ec9604060208362ffffff191661244c9092919063ffffffff16565b8260000151602001516000018181525050611ef7606060208362ffffff191661244c9092919063ffffffff16565b8260000151602001516020018181525050611f25608060208362ffffff191661244c9092919063ffffffff16565b8260200151600001516000018181525050611f5360a060208362ffffff191661244c9092919063ffffffff16565b8260200151600001516020018181525050611f8160c060208362ffffff191661244c9092919063ffffffff16565b8260200151602001516000018181525050611faf60e060208362ffffff191661244c9092919063ffffffff16565b82602001516020015160200181815250505092915050565b6060816000015160000151826000015160200151836020015160000151846020015160200151604051602001808581526020018481526020018381526020018281526020019450505050506040516020818303038152906040529050919050565b61203061492d565b612038614953565b60405180604001604052806000815260200160018152509050612059614953565b6120b26120ac88600360405180604001604052806f01ae3a4617c510eac63b05c06ca1493b81526020017f1a22d9f300f5138f1ef3622fba094800170b5d44300000008508c000000000018152506129a7565b83612ad6565b90506120bc614953565b61210c87600260405180604001604052806f01ae3a4617c510eac63b05c06ca1493b81526020017f1a22d9f300f5138f1ef3622fba094800170b5d44300000008508c000000000018152506129a7565b9050612116614953565b61216687600260405180604001604052806f01ae3a4617c510eac63b05c06ca1493b81526020017f1a22d9f300f5138f1ef3622fba094800170b5d44300000008508c000000000018152506129a7565b90506121728284612b45565b6121e4576040517f08c379a000000000000000000000000000000000000000000000000000000000815260040180806020018281038252600b8152602001807f7931206e6f74207371727400000000000000000000000000000000000000000081525060200191505060405180910390fd5b6121ee8184612b45565b612260576040517f08c379a000000000000000000000000000000000000000000000000000000000815260040180806020018281038252600b8152602001807f7932206e6f74207371727400000000000000000000000000000000000000000081525060200191505060405180910390fd5b61226a8888612b6d565b6122dc576040517f08c379a000000000000000000000000000000000000000000000000000000000815260040180806020018281038252600f8152602001807f7931206e6f74206772656174657374000000000000000000000000000000000081525060200191505060405180910390fd5b60405180604001604052808a8152602001876122f857886122fa565b895b815250945050505050949350505050565b6123136148e4565b61232d8260e6614e2086612ba7909392919063ffffffff16565b905092915050565b61233d61492d565b600061237183855103600061235c60008861242190919063ffffffff16565b62ffffff19166129689092919063ffffffff16565b9050612390600060208362ffffff191661244c9092919063ffffffff16565b826000015160000181815250506123b96020808362ffffff191661244c9092919063ffffffff16565b826000015160200181815250506123e3604060208362ffffff191661244c9092919063ffffffff16565b8260200151600001818152505061240d606060208362ffffff191661244c9092919063ffffffff16565b826020015160200181815250505092915050565b6000808351905060006020850190506124428464ffffffffff168284612f8f565b9250505092915050565b60006008826020030260ff16612463858585612ffe565b60001c901c90509392505050565b61247961492d565b6124938260e861c350866131c5909392919063ffffffff16565b905092915050565b6124a3614953565b6124f48383600160405180604001604052806f01ae3a4617c510eac63b05c06ca1493b81526020017f1a22d9f300f5138f1ef3622fba094800170b5d44300000008508c00000000001815250613372565b905092915050565b6125046148e4565b60006103e86104b061d6d8855102028161251a57fe5b0490506125298360e4836134ad565b915050919050565b61253961492d565b60006103e86104b0612ee0855102028161254f57fe5b04905061255e8360e78361390d565b915050919050565b61256e614953565b600083602001516fffffffffffffffffffffffffffffffff169050600060808560200151901c6fffffffffffffffffffffffffffffffff169050600085600001516fffffffffffffffffffffffffffffffff169050600060808760000151901c6fffffffffffffffffffffffffffffffff169050600086602001516fffffffffffffffffffffffffffffffff169050600060808860200151901c6fffffffffffffffffffffffffffffffff169050600088600001516fffffffffffffffffffffffffffffffff169050600060808a60000151901c6fffffffffffffffffffffffffffffffff16905061265e614953565b612680604051806040016040528060008152602001878c02815250600061249b565b90506126a38161269e612697878d02898d02613bb6565b601061249b565b612ad6565b90506126c9816126c46126bd868d02888d028a8d02613bfa565b602061249b565b612ad6565b90506126f2816126ed6126e6858d02878d02898d028b8d02613c5d565b603061249b565b612ad6565b90506127188161271361270c858c02878c02898c02613bfa565b604061249b565b612ad6565b905061273b8161273661272f858b02878b02613bb6565b606061249b565b612ad6565b905061276881612763604051806040016040528060008152602001868b02815250608061249b565b612ad6565b9050612773816128c1565b995050505050505050505092915050565b61278c614953565b6000612799836000613cdf565b91509150915091565b6127aa6149cf565b6127b2614953565b60405180604001604052806f01ae3a4617c510eac63b05c06ca1493b81526020017f1a22d9f300f5138f1ef3622fba094800170b5d44300000008508bffffffffffc8152509050612801614953565b61281385600001518560000151612566565b905061281d614953565b61282f86602001518660200151612566565b9050612839614953565b61284b87602001518860000151612ad6565b90506128688161286388600001518960200151612ad6565b612566565b90506128748184613d37565b90506128808183613d37565b905061288a614953565b61289d846128988588612566565b612ad6565b90506040518060400160405280828152602001838152509550505050505092915050565b6128c9614953565b61291982600160405180604001604052806f01ae3a4617c510eac63b05c06ca1493b81526020017f1a22d9f300f5138f1ef3622fba094800170b5d44300000008508c000000000018152506129a7565b9050919050565b61292861492d565b6129428260e9613a9886613def909392919063ffffffff16565b905092915050565b6129648160e561ea6085614002909392919063ffffffff16565b5050565b600061299e846129978561297b886142df565b6bffffffffffffffffffffffff1661430590919063ffffffff16565b8585614388565b90509392505050565b6129af614953565b60008460000151905060008560200151905060008460000151905060008560200151905060606101006040519080825280601f01601f191660200182016040528015612a0a5781602001600182028038833980820191505090505b5090506060604080519080825280601f01601f191660200182016040528015612a425781602001600182028038833980820191505090505b5090506000806040602085015260206040850152604060608501528760808501528660a08501528a60c08501528560e0850152846101008501526040602084016101006020870160055afa8060008114612aa9578460200151935084604001519250612aae565b600080fd5b5050604051806040016040528083815260200182815250985050505050505050509392505050565b612ade614953565b600082602001518460200151019050600084602001518210158015612b07575083602001518210155b612b12576001612b15565b60005b60ff1684600001518660000151010190506040518060400160405280828152602001838152509250505092915050565b600081600001518360000151148015612b65575081602001518360200151145b905092915050565b6000816000015183600001511180612b9f575081600001518360000151148015612b9e575081602001518360200151115b5b905092915050565b612baf6148e4565b612bb76149f5565b8560000151600001516000015181600060108110612bd157fe5b6020020181815250508560000151600001516020015181600160108110612bf457fe5b6020020181815250508560000151602001516000015181600260108110612c1757fe5b6020020181815250508560000151602001516020015181600360108110612c3a57fe5b6020020181815250508560200151600001516000015181600460108110612c5d57fe5b6020020181815250508560200151600001516020015181600560108110612c8057fe5b6020020181815250508560200151602001516000015181600660108110612ca357fe5b6020020181815250508560200151602001516020015181600760108110612cc657fe5b6020020181815250508460000151600001516000015181600860108110612ce957fe5b6020020181815250508460000151600001516020015181600960108110612d0c57fe5b6020020181815250508460000151602001516000015181600a60108110612d2f57fe5b6020020181815250508460000151602001516020015181600b60108110612d5257fe5b6020020181815250508460200151600001516000015181600c60108110612d7557fe5b6020020181815250508460200151600001516020015181600d60108110612d9857fe5b6020020181815250508460200151602001516000015181600e60108110612dbb57fe5b6020020181815250508460200151602001516020015181600f60108110612dde57fe5b602002018181525050600061010082610200848888fa90508160405280612e6d576040517f08c379a00000000000000000000000000000000000000000000000000000000081526004018080602001828103825260188152602001807f67322061646420707265636f6d70696c65206661696c6564000000000000000081525060200191505060405180910390fd5b81600060108110612e7a57fe5b6020020151836000015160000151600001818152505081600160108110612e9d57fe5b6020020151836000015160000151602001818152505081600260108110612ec057fe5b6020020151836000015160200151600001818152505081600360108110612ee357fe5b6020020151836000015160200151602001818152505081600460108110612f0657fe5b6020020151836020015160000151600001818152505081600560108110612f2957fe5b6020020151836020015160000151602001818152505081600660108110612f4c57fe5b6020020151836020015160200151600001818152505081600760108110612f6f57fe5b602002015183602001516020015160200181815250505050949350505050565b600080612fa5838561443490919063ffffffff16565b9050604051811115612fb657600090505b6000811415612fe8577fffffffffffffffffffffffffffffffffffffffffffffffffffffffffff000000915050612ff7565b612ff38585856144ba565b9150505b9392505050565b6000808260ff161415613016576000801b90506131be565b61301f846142df565b6bffffffffffffffffffffffff166130438360ff168561443490919063ffffffff16565b111561312557613084613055856144e5565b6bffffffffffffffffffffffff1661306c866142df565b6bffffffffffffffffffffffff16858560ff1661450e565b6040517f08c379a00000000000000000000000000000000000000000000000000000000081526004018080602001828103825283818151815260200191508051906020019080838360005b838110156130ea5780820151818401526020810190506130cf565b50505050905090810190601f1680156131175780820380516001836020036101000a031916815260200191505b509250505060405180910390fd5b60208260ff161115613182576040517f08c379a000000000000000000000000000000000000000000000000000000000815260040180806020018281038252603a815260200180614b0b603a913960400191505060405180910390fd5b60006008830290506000613195866144e5565b6bffffffffffffffffffffffff16905060006131b083614668565b905080868301511693505050505b9392505050565b6131cd61492d565b6131d5614a18565b856000015160000151816000600581106131eb57fe5b6020020181815250508560000151602001518160016005811061320a57fe5b6020020181815250508560200151600001518160026005811061322957fe5b6020020181815250508560200151602001518160036005811061324857fe5b602002018181525050848160046005811061325f57fe5b602002018181525050600060808260a0848888fa905081604052806132ec576040517f08c379a00000000000000000000000000000000000000000000000000000000081526004018080602001828103825260188152602001807f6731206d756c20707265636f6d70696c65206661696c6564000000000000000081525060200191505060405180910390fd5b816000600581106132f957fe5b6020020151836000015160000181815250508160016005811061331857fe5b6020020151836000015160200181815250508160026005811061333757fe5b6020020151836020015160000181815250508160036005811061335657fe5b6020020151836020015160200181815250505050949350505050565b61337a614953565b60008560000151905060008660200151905060008460000151905060008560200151905060608860fe016040519080825280601f01601f1916602001820160405280156133d65781602001600182028038833980820191505090505b5090506060604080519080825280601f01601f19166020018201604052801561340e5781602001600182028038833980820191505090505b5090506000808b604001602085015260206040850152604060608501528760808501528660a08501528a60c08d018501528560e08d01850152846101008d018501526040602084016101008e016020870160055afa806000811461347f578460200151935084604001519250613484565b600080fd5b505060405180604001604052808381526020018281525098505050505050505050949350505050565b6134b56148e4565b606060098551026040519080825280602002602001820160405280156134ea5781602001602082028038833980820191505090505b50905060008090505b60098251816134fe57fe5b0481101561374557600060098202905086828151811061351a57fe5b60200260200101516000015160000151600001516000015183600083018151811061354157fe5b60200260200101818152505086828151811061355957fe5b60200260200101516000015160000151600001516020015183600183018151811061358057fe5b60200260200101818152505086828151811061359857fe5b6020026020010151600001516000015160200151600001518360028301815181106135bf57fe5b6020026020010181815250508682815181106135d757fe5b6020026020010151600001516000015160200151602001518360038301815181106135fe57fe5b60200260200101818152505086828151811061361657fe5b60200260200101516000015160200151600001516000015183600483018151811061363d57fe5b60200260200101818152505086828151811061365557fe5b60200260200101516000015160200151600001516020015183600583018151811061367c57fe5b60200260200101818152505086828151811061369457fe5b6020026020010151600001516020015160200151600001518360068301815181106136bb57fe5b6020026020010181815250508682815181106136d357fe5b6020026020010151600001516020015160200151602001518360078301815181106136fa57fe5b60200260200101818152505086828151811061371257fe5b60200260200101516020015183600883018151811061372d57fe5b602002602001018181525050506001810190506134f3565b506000610100602083016020845102602085018888fa905081604052806137d4576040517f08c379a000000000000000000000000000000000000000000000000000000000815260040180806020018281038252601d8152602001807f6732206d756c746945787020707265636f6d70696c65206661696c656400000081525060200191505060405180910390fd5b816000815181106137e157fe5b602002602001015183600001516000015160000181815250508160018151811061380757fe5b602002602001015183600001516000015160200181815250508160028151811061382d57fe5b602002602001015183600001516020015160000181815250508160038151811061385357fe5b602002602001015183600001516020015160200181815250508160048151811061387957fe5b602002602001015183602001516000015160000181815250508160058151811061389f57fe5b60200260200101518360200151600001516020018181525050816006815181106138c557fe5b60200260200101518360200151602001516000018181525050816007815181106138eb57fe5b6020026020010151836020015160200151602001818152505050509392505050565b61391561492d565b6060600585510260405190808252806020026020018201604052801561394a5781602001602082028038833980820191505090505b50905060008090505b8551811015613a975785818151811061396857fe5b602002602001015160000151600001516000015182600060058402018151811061398e57fe5b6020026020010181815250508581815181106139a657fe5b60200260200101516000015160000151602001518260016005840201815181106139cc57fe5b6020026020010181815250508581815181106139e457fe5b6020026020010151600001516020015160000151826002600584020181518110613a0a57fe5b602002602001018181525050858181518110613a2257fe5b6020026020010151600001516020015160200151826003600584020181518110613a4857fe5b602002602001018181525050858181518110613a6057fe5b602002602001015160200151826004600584020181518110613a7e57fe5b6020026020010181815250508080600101915050613953565b5060006080602083016020845102602085018888fa90508160405280613b25576040517f08c379a000000000000000000000000000000000000000000000000000000000815260040180806020018281038252601d8152602001807f6731206d756c746945787020707265636f6d70696c65206661696c656400000081525060200191505060405180910390fd5b81600081518110613b3257fe5b60200260200101518360000151600001818152505081600181518110613b5457fe5b60200260200101518360000151602001818152505081600281518110613b7657fe5b60200260200101518360200151600001818152505081600381518110613b9857fe5b60200260200101518360200151602001818152505050509392505050565b613bbe614953565b613bf26040518060400160405280600081526020018581525060405180604001604052806000815260200185815250612ad6565b905092915050565b613c02614953565b613c5460405180604001604052806000815260200186815250613c4f6040518060400160405280600081526020018781525060405180604001604052806000815260200187815250612ad6565b612ad6565b90509392505050565b613c65614953565b613cd560405180604001604052806000815260200187815250613cd060405180604001604052806000815260200188815250613ccb6040518060400160405280600081526020018981525060405180604001604052806000815260200189815250612ad6565b612ad6565b612ad6565b9050949350505050565b613ce7614953565b600080600080613cf78787614697565b9250925092506078607f8216901b83019250604051806040016040528084815260200183815250600060a083161415819150945094505050509250929050565b613d3f614953565b613d47614953565b613d958460405180604001604052806f01ae3a4617c510eac63b05c06ca1493b81526020017f1a22d9f300f5138f1ef3622fba094800170b5d44300000008508c00000000001815250612ad6565b905060008360200151826020015103905060008260200151821115613dbb576001613dbe565b60005b60ff168560000151846000015103039050604051806040016040528082815260200183815250935050505092915050565b613df761492d565b613dff61490a565b85600001516000015181600060088110613e1557fe5b60200201818152505085600001516020015181600160088110613e3457fe5b60200201818152505085602001516000015181600260088110613e5357fe5b60200201818152505085602001516020015181600360088110613e7257fe5b60200201818152505084600001516000015181600460088110613e9157fe5b60200201818152505084600001516020015181600560088110613eb057fe5b60200201818152505084602001516000015181600660088110613ecf57fe5b60200201818152505084602001516020015181600760088110613eee57fe5b6020020181815250506000608082610100848888fa90508160405280613f7c576040517f08c379a00000000000000000000000000000000000000000000000000000000081526004018080602001828103825260188152602001807f67312061646420707265636f6d70696c65206661696c6564000000000000000081525060200191505060405180910390fd5b81600060088110613f8957fe5b60200201518360000151600001818152505081600160088110613fa857fe5b60200201518360000151602001818152505081600260088110613fc757fe5b60200201518360200151600001818152505081600360088110613fe657fe5b6020020151836020015160200181815250505050949350505050565b61400a614a3a565b846000015160000151600001518160006009811061402457fe5b602002018181525050846000015160000151602001518160016009811061404757fe5b602002018181525050846000015160200151600001518160026009811061406a57fe5b602002018181525050846000015160200151602001518160036009811061408d57fe5b60200201818152505084602001516000015160000151816004600981106140b057fe5b60200201818152505084602001516000015160200151816005600981106140d357fe5b60200201818152505084602001516020015160000151816006600981106140f657fe5b602002018181525050846020015160200151602001518160076009811061411957fe5b602002018181525050838160086009811061413057fe5b602002018181525050600061010082610120848787fa905081604052806141bf576040517f08c379a00000000000000000000000000000000000000000000000000000000081526004018080602001828103825260188152602001807f6732206d756c20707265636f6d70696c65206661696c6564000000000000000081525060200191505060405180910390fd5b816000600981106141cc57fe5b60200201518660000151600001516000018181525050816001600981106141ef57fe5b602002015186600001516000015160200181815250508160026009811061421257fe5b602002015186600001516020015160000181815250508160036009811061423557fe5b602002015186600001516020015160200181815250508160046009811061425857fe5b602002015186602001516000015160000181815250508160056009811061427b57fe5b602002015186602001516000015160200181815250508160066009811061429e57fe5b60200201518660200151602001516000018181525050816007600981106142c157fe5b60200201518660200151602001516020018181525050505050505050565b6000806bffffffffffffffffffffffff90506000601890508184821c1692505050919050565b60008282111561437d576040517f08c379a000000000000000000000000000000000000000000000000000000000815260040180806020018281038252601d8152602001807f556e646572666c6f7720647572696e67207375627472616374696f6e2e00000081525060200191505060405180910390fd5b818303905092915050565b600080614394866144e5565b6bffffffffffffffffffffffff1690506143ad86614772565b6143d2856143c4888561443490919063ffffffff16565b61443490919063ffffffff16565b1115614401577fffffffffffffffffffffffffffffffffffffffffffffffffffffffffff00000091505061442c565b614414858261443490919063ffffffff16565b90506144288364ffffffffff168286612f8f565b9150505b949350505050565b60008183019050828110156144b1576040517f08c379a00000000000000000000000000000000000000000000000000000000081526004018080602001828103825260198152602001807f4f766572666c6f7720647572696e67206164646974696f6e2e0000000000000081525060200191505060405180910390fd5b80905092915050565b60008060609050600060189050858317821b9250848317821b9250838317811b925050509392505050565b6000806bffffffffffffffffffffffff90506000607860ff1690508184821c1692505050919050565b6060600061451b8661479c565b91505060006145298661479c565b91505060006145378661479c565b91505060006145458661479c565b915050838383836040516020018080614b45603591396035018565ffffffffffff1665ffffffffffff1660d01b8152600601807f2077697468206c656e6774682030780000000000000000000000000000000000815250600f018465ffffffffffff1665ffffffffffff1660d01b815260060180614aea602191396021018365ffffffffffff1665ffffffffffff1660d01b8152600601807f2077697468206c656e6774682030780000000000000000000000000000000000815250600f018265ffffffffffff1665ffffffffffff1660d01b8152600601807f2e00000000000000000000000000000000000000000000000000000000000000815250600101945050505050604051602081830303815290604052945050505050949350505050565b60007f8000000000000000000000000000000000000000000000000000000000000000600183031d9050919050565b60008060008060009050600080905060008090505b60208110156146f157600088828901815181106146c557fe5b602001015160f81c60f81b60f81c60ff1690506008820281901b830192505080806001019150506146ac565b5060008090505b600f811015614740576000886020838a01018151811061471457fe5b602001015160f81c60f81b60f81c60ff1690506008820281901b840193505080806001019150506146f8565b50818188602f89018151811061475257fe5b602001015160f81c60f81b60f81c60ff1694509450945050509250925092565b600061477d826142df565b614786836144e5565b016bffffffffffffffffffffffff169050919050565b6000806000601f90505b600f8160ff1611156147f05760006008820260ff1685901c90506147c981614848565b61ffff168417935060108260ff16146147e457601084901b93505b506001810390506147a6565b506000600f90505b60ff8160ff1610156148425760006008820260ff1685901c905061481b81614848565b61ffff168317925060008260ff161461483657601083901b92505b506001810390506147f8565b50915091565b600061485a60048360ff16901c614881565b60ff168117905060088161ffff16901b905061487582614881565b60ff1681179050919050565b600080600f831690506040518060400160405280601081526020017f30313233343536373839616263646566000000000000000000000000000000008152508160ff16815181106148ce57fe5b602001015160f81c60f81b60f81c915050919050565b60405180604001604052806148f7614a5d565b8152602001614904614a5d565b81525090565b604051806101000160405280600890602082028038833980820191505090505090565b6040518060400160405280614940614a83565b815260200161494d614a83565b81525090565b604051806040016040528060008152602001600081525090565b6040518060800160405280600490602082028038833980820191505090505090565b60405180604001604052806149a2614a9d565b8152602001600081525090565b60405180604001604052806149c2614ac3565b8152602001600081525090565b60405180604001604052806149e2614a83565b81526020016149ef614a83565b81525090565b604051806102000160405280601090602082028038833980820191505090505090565b6040518060a00160405280600590602082028038833980820191505090505090565b604051806101200160405280600990602082028038833980820191505090505090565b6040518060400160405280614a70614a83565b8152602001614a7d614a83565b81525090565b604051806040016040528060008152602001600081525090565b6040518060400160405280614ab0614a5d565b8152602001614abd614a5d565b81525090565b6040518060400160405280614ad6614a83565b8152602001614ae3614a83565b8152509056fe2e20417474656d7074656420746f20696e646578206174206f666673657420307854797065644d656d566965772f696e646578202d20417474656d7074656420746f20696e646578206d6f7265207468616e20333220627974657354797065644d656d566965772f696e646578202d204f76657272616e2074686520766965772e20536c696365206973206174203078a265627a7a7231582080588806086e2cb37fe583221779b21fa85a61467ffbf3e855853fd68e51e3c864736f6c634300050d0032",
  "source": "pragma solidity ^0.5.13;\n\nimport { B12_377Lib, B12_381Lib, B12 } from \"../B12.sol\";\nimport { TypedMemView } from \"../TypedMemView.sol\";\n\ncontract Common {\n  using B12 for B12.G1Point;\n  using B12 for B12.G2Point;\n  using B12 for B12.Fp;\n  using B12 for B12.Fp2;\n  using B12 for bytes;\n\n  using TypedMemView for bytes;\n  using TypedMemView for bytes29;\n\n  constructor() public {}\n  function testParseG1(bytes calldata arg) external pure returns (uint256[4] memory ret) {\n    B12.G1Point memory a = arg.parseG1(0);\n    ret[0] = a.X.a;\n    ret[1] = a.X.b;\n    ret[2] = a.Y.a;\n    ret[3] = a.Y.b;\n  }\n\n  function testSerializeG1(uint256 w, uint256 x, uint256 y, uint256 z)\n    external\n    pure\n    returns (bytes memory)\n  {\n    B12.G1Point memory a;\n    a.X.a = w;\n    a.X.b = x;\n    a.Y.a = y;\n    a.Y.b = z;\n\n    return a.serializeG1();\n  }\n\n  function testParseG2(bytes calldata arg) external pure returns (uint256[8] memory ret) {\n    B12.G2Point memory a = arg.parseG2(0);\n    ret[0] = a.X.a.a;\n    ret[1] = a.X.a.b;\n    ret[2] = a.X.b.a;\n    ret[3] = a.X.b.b;\n    ret[4] = a.Y.a.a;\n    ret[5] = a.Y.a.b;\n    ret[6] = a.Y.b.a;\n    ret[7] = a.Y.b.b;\n  }\n\n  function testSerializeG2(\n    uint256 xaa,\n    uint256 xab,\n    uint256 xba,\n    uint256 xbb,\n    uint256 yaa,\n    uint256 yab,\n    uint256 yba,\n    uint256 ybb\n  ) external pure returns (bytes memory) {\n    B12.G2Point memory a;\n    a.X.a.a = xaa;\n    a.X.a.b = xab;\n    a.X.b.a = xba;\n    a.X.b.b = xbb;\n    a.Y.a.a = yaa;\n    a.Y.a.b = yab;\n    a.Y.b.a = yba;\n    a.Y.b.b = ybb;\n\n    return a.serializeG2();\n  }\n\n  function fpMulTest(uint256 a1, uint256 a2, uint256 b1, uint256 b2)\n    external\n    view\n    returns (uint256, uint256)\n  {\n    B12.Fp memory a = B12.Fp(a1, a2);\n    B12.Fp memory b = B12.Fp(b1, b2);\n    B12.Fp memory res = B12.fpMul(a, b);\n    return (res.a, res.b);\n  }\n\n  function fpNormalTest(uint256 a1, uint256 a2) external view returns (uint256, uint256) {\n    B12.Fp memory a = B12.Fp(a1, a2);\n    B12.Fp memory res = B12.fpNormal(a);\n    return (res.a, res.b);\n  }\n\n  function fpNormal2Test(uint256 a, uint256 idx) external view returns (uint256, uint256) {\n    B12.Fp memory res = B12.fpNormal2(B12.Fp(0, a), idx);\n    return (res.a, res.b);\n  }\n\n  function fp2MulTest(uint256[] calldata arr)\n    external\n    view\n    returns (uint256, uint256, uint256, uint256)\n  {\n    B12.Fp2 memory x = B12.Fp2(B12.Fp(arr[0], arr[1]), B12.Fp(arr[2], arr[3]));\n    B12.Fp2 memory y = B12.Fp2(B12.Fp(arr[4], arr[5]), B12.Fp(arr[6], arr[7]));\n    B12.Fp2 memory res = B12.fp2Mul(x, y);\n    return (res.a.a, res.a.b, res.b.a, res.b.b);\n  }\n\n  function testUncompress() external view returns (uint256, uint256) {\n    B12.Fp memory x = B12.Fp(\n      0x008848defe740a67c8fc6225bf87ff54,\n      0x85951e2caa9d41bb188282c8bd37cb5cd5481512ffcd394eeab9b16eb21be9ef\n    );\n    B12.Fp memory y1 = B12.Fp(\n      0x001cefdc52b4e1eba6d3b6633bf15a76,\n      0x5ca326aa36b6c0b5b1db375b6a5124fa540d200dfb56a6e58785e1aaaa63715b\n    );\n    B12.Fp memory y2 = B12.Fp(\n      0x01914a69c5102eff1f674f5d30afeec4,\n      0xbd7fb348ca3e52d96d182ad44fb82305c2fe3d3634a9591afd82de55559c8ea6\n    );\n    B12.G1Point memory res = B12.mapToG1(x, y2, y1, true);\n    return (res.Y.a, res.Y.b);\n  }\n\n  function testDeserialize(bytes memory h) public pure returns (uint256, uint256, bool) {\n    (B12.Fp memory p, bool b) = B12.parsePoint(h);\n    return (p.a, p.b, b);\n  }\n\n  event MEMDUMP(uint256 a, uint256 b, uint256 c, uint256 d);\n\n  function dumpMem(uint256 idx) internal {\n    uint256 a;\n    uint256 b;\n    uint256 c;\n    uint256 d;\n\n    assembly {\n      a := mload(add(idx, 0x00))\n      b := mload(add(idx, 0x20))\n      c := mload(add(idx, 0x40))\n      d := mload(add(idx, 0x60))\n    }\n    emit MEMDUMP(a, b, c, d);\n  }\n\n  function executePrecompile(bytes memory input, uint8 addr, uint256 output_len)\n    internal\n    view\n    returns (bytes memory output)\n  {\n    bool success;\n    assembly {\n      success := staticcall(\n        sub(gas, 2000),\n        addr,\n        add(input, 0x20), // location\n        mload(input), // length\n        add(output, 0x20), // location\n        output_len // length\n      )\n      mstore(output, output_len)\n    }\n\n    require(success, \"failed\");\n  }\n}\n\ncontract BLS12_381Passthrough is Common {\n  using B12_381Lib for B12.G1Point;\n  using B12_381Lib for B12.G2Point;\n  using B12_381Lib for B12.Fp;\n  using B12_381Lib for B12.Fp2;\n  using B12 for B12.G1Point;\n  using B12 for B12.G2Point;\n  using B12 for B12.Fp;\n  using B12 for B12.Fp2;\n  using B12_381Lib for bytes;\n  using B12 for bytes;\n\n  using TypedMemView for bytes;\n  using TypedMemView for bytes29;\n\n  constructor() public {}\n\n  function g1Add(bytes calldata args) external view returns (bytes memory) {\n    B12.G1Point memory a = args.parseG1(0);\n    B12.G1Point memory b = args.parseG1(4 * 32);\n    return a.g1Add(b).serializeG1();\n  }\n\n  function g1Mul(bytes calldata args) external view returns (bytes memory) {\n    B12.G1Point memory a = args.parseG1(0);\n    uint256 scalar = args.ref(0).indexUint(4 * 32, 32);\n    return a.g1Mul(scalar).serializeG1();\n  }\n\n  function g1MultiExp(bytes calldata args) external view returns (bytes memory) {\n    bytes29 ref = args.ref(0);\n\n    B12.G1MultiExpArg[] memory input = new B12.G1MultiExpArg[](args.length / 160);\n\n    for (uint256 i = 0; i < args.length / 160; i += 1) {\n      uint256 idx = i * 160;\n\n      input[i].point.X.a = ref.indexUint(idx + 0x00, 32);\n      input[i].point.X.b = ref.indexUint(idx + 0x20, 32);\n      input[i].point.Y.a = ref.indexUint(idx + 0x40, 32);\n      input[i].point.Y.b = ref.indexUint(idx + 0x60, 32);\n      input[i].scalar = ref.indexUint(idx + 0x80, 32);\n    }\n\n    return B12_381Lib.g1MultiExp(input).serializeG1();\n  }\n\n  function g2Add(bytes calldata args) external view returns (bytes memory) {\n    B12.G2Point memory a = args.parseG2(0);\n    B12.G2Point memory b = args.parseG2(8 * 32);\n    return a.g2Add(b).serializeG2();\n  }\n\n  function g2Mul(bytes calldata args) external view returns (bytes memory) {\n    B12.G2Point memory a = args.parseG2(0);\n    uint256 scalar = args.ref(0).indexUint(8 * 32, 32);\n    a.g2Mul(scalar);\n    return a.serializeG2();\n  }\n\n  function g2MultiExp(bytes calldata args) external view returns (bytes memory) {\n    bytes29 ref = args.ref(0);\n\n    B12.G2MultiExpArg[] memory input = new B12.G2MultiExpArg[](args.length / 288);\n\n    for (uint256 i = 0; i < args.length / 288; i += 1) {\n      uint256 idx = i * 288;\n\n      input[i].point.X.a.a = ref.indexUint(idx + 0x00, 32);\n      input[i].point.X.a.b = ref.indexUint(idx + 0x20, 32);\n      input[i].point.X.b.a = ref.indexUint(idx + 0x40, 32);\n      input[i].point.X.b.b = ref.indexUint(idx + 0x60, 32);\n      input[i].point.Y.a.a = ref.indexUint(idx + 0x80, 32);\n      input[i].point.Y.a.b = ref.indexUint(idx + 0xa0, 32);\n      input[i].point.Y.b.a = ref.indexUint(idx + 0xc0, 32);\n      input[i].point.Y.b.b = ref.indexUint(idx + 0xe0, 32);\n      input[i].scalar = ref.indexUint(idx + 0x100, 32);\n    }\n\n    return B12_381Lib.g2MultiExp(input).serializeG2();\n  }\n}\n\ncontract BLS12_377Passthrough is Common {\n  using B12_377Lib for B12.G1Point;\n  using B12_377Lib for B12.G2Point;\n  using B12_377Lib for B12.Fp;\n  using B12_377Lib for B12.Fp2;\n  using B12 for B12.G1Point;\n  using B12 for B12.G2Point;\n  using B12 for B12.Fp;\n  using B12 for B12.Fp2;\n  using B12_377Lib for bytes;\n  using B12 for bytes;\n\n  using TypedMemView for bytes;\n  using TypedMemView for bytes29;\n\n  constructor() public {}\n\n  function g1Add(bytes calldata args) external view returns (bytes memory) {\n    B12.G1Point memory a = args.parseG1(0);\n    B12.G1Point memory b = args.parseG1(4 * 32);\n    return a.g1Add(b).serializeG1();\n  }\n\n  function g1Mul(bytes calldata args) external view returns (bytes memory) {\n    B12.G1Point memory a = args.parseG1(0);\n    uint256 scalar = args.ref(0).indexUint(4 * 32, 32);\n    return a.g1Mul(scalar).serializeG1();\n  }\n\n  function g1MultiExp(bytes calldata args) external view returns (bytes memory) {\n    bytes29 ref = args.ref(0);\n\n    B12.G1MultiExpArg[] memory input = new B12.G1MultiExpArg[](args.length / 160);\n\n    for (uint256 i = 0; i < args.length / 160; i += 1) {\n      uint256 idx = i * 160;\n\n      input[i].point.X.a = ref.indexUint(idx + 0x00, 32);\n      input[i].point.X.b = ref.indexUint(idx + 0x20, 32);\n      input[i].point.Y.a = ref.indexUint(idx + 0x40, 32);\n      input[i].point.Y.b = ref.indexUint(idx + 0x60, 32);\n      input[i].scalar = ref.indexUint(idx + 0x80, 32);\n    }\n\n    return B12_377Lib.g1MultiExp(input).serializeG1();\n  }\n\n  function g2Add(bytes calldata args) external view returns (bytes memory) {\n    B12.G2Point memory a = args.parseG2(0);\n    B12.G2Point memory b = args.parseG2(8 * 32);\n    return a.g2Add(b).serializeG2();\n  }\n\n  function g2Mul(bytes calldata args) external view returns (bytes memory) {\n    B12.G2Point memory a = args.parseG2(0);\n    uint256 scalar = args.ref(0).indexUint(8 * 32, 32);\n    a.g2Mul(scalar);\n    return a.serializeG2();\n  }\n\n  function g2MultiExp(bytes calldata args) external view returns (bytes memory) {\n    bytes29 ref = args.ref(0);\n\n    B12.G2MultiExpArg[] memory input = new B12.G2MultiExpArg[](args.length / 288);\n\n    for (uint256 i = 0; i < args.length / 288; i += 1) {\n      uint256 idx = i * 288;\n\n      input[i].point.X.a.a = ref.indexUint(idx + 0x00, 32);\n      input[i].point.X.a.b = ref.indexUint(idx + 0x20, 32);\n      input[i].point.X.b.a = ref.indexUint(idx + 0x40, 32);\n      input[i].point.X.b.b = ref.indexUint(idx + 0x60, 32);\n      input[i].point.Y.a.a = ref.indexUint(idx + 0x80, 32);\n      input[i].point.Y.a.b = ref.indexUint(idx + 0xa0, 32);\n      input[i].point.Y.b.a = ref.indexUint(idx + 0xc0, 32);\n      input[i].point.Y.b.b = ref.indexUint(idx + 0xe0, 32);\n      input[i].scalar = ref.indexUint(idx + 0x100, 32);\n    }\n\n    return B12_377Lib.g2MultiExp(input).serializeG2();\n  }\n}\n",
  "sourcePath": "/Users/beaver/Development/celo/celo-monorepo/packages/protocol/contracts/common/libraries/test/BLS12Passthrough.sol",
  "compiler": {
    "name": "solc",
    "version": "0.5.13+commit.5b0b510c.Emscripten.clang"
  },
  "schemaVersion": "3.4.13",
  "updatedAt": "2024-03-05T15:18:24.121Z",
  "devdoc": {
    "methods": {}
  },
  "userdoc": {
    "methods": {}
  }
}