{
  "contractName": "DoubleSigningSlasherTest",
  "abi": [
    {
      "anonymous": false,
      "inputs": [
        {
          "indexed": true,
          "internalType": "address",
          "name": "validator",
          "type": "address"
        },
        {
          "indexed": true,
          "internalType": "uint256",
          "name": "blockNumber",
          "type": "uint256"
        }
      ],
      "name": "DoubleSigningSlashPerformed",
      "type": "event"
    },
    {
      "anonymous": false,
      "inputs": [
        {
          "indexed": true,
          "internalType": "address",
          "name": "previousOwner",
          "type": "address"
        },
        {
          "indexed": true,
          "internalType": "address",
          "name": "newOwner",
          "type": "address"
        }
      ],
      "name": "OwnershipTransferred",
      "type": "event"
    },
    {
      "anonymous": false,
      "inputs": [
        {
          "indexed": true,
          "internalType": "address",
          "name": "registryAddress",
          "type": "address"
        }
      ],
      "name": "RegistrySet",
      "type": "event"
    },
    {
      "anonymous": false,
      "inputs": [
        {
          "indexed": false,
          "internalType": "uint256",
          "name": "penalty",
          "type": "uint256"
        },
        {
          "indexed": false,
          "internalType": "uint256",
          "name": "reward",
          "type": "uint256"
        }
      ],
      "name": "SlashingIncentivesSet",
      "type": "event"
    },
    {
      "constant": true,
      "inputs": [
        {
          "internalType": "address",
          "name": "signer",
          "type": "address"
        },
        {
          "internalType": "uint256",
          "name": "index",
          "type": "uint256"
        },
        {
          "internalType": "bytes",
          "name": "headerA",
          "type": "bytes"
        },
        {
          "internalType": "bytes",
          "name": "headerB",
          "type": "bytes"
        }
      ],
      "name": "checkForDoubleSigning",
      "outputs": [
        {
          "internalType": "uint256",
          "name": "",
          "type": "uint256"
        }
      ],
      "payable": false,
      "stateMutability": "view",
      "type": "function"
    },
    {
      "constant": true,
      "inputs": [
        {
          "internalType": "address",
          "name": "sender",
          "type": "address"
        },
        {
          "internalType": "bytes",
          "name": "blsKey",
          "type": "bytes"
        },
        {
          "internalType": "bytes",
          "name": "blsPop",
          "type": "bytes"
        }
      ],
      "name": "checkProofOfPossession",
      "outputs": [
        {
          "internalType": "bool",
          "name": "",
          "type": "bool"
        }
      ],
      "payable": false,
      "stateMutability": "view",
      "type": "function"
    },
    {
      "constant": true,
      "inputs": [
        {
          "internalType": "uint256",
          "name": "aNumerator",
          "type": "uint256"
        },
        {
          "internalType": "uint256",
          "name": "aDenominator",
          "type": "uint256"
        },
        {
          "internalType": "uint256",
          "name": "bNumerator",
          "type": "uint256"
        },
        {
          "internalType": "uint256",
          "name": "bDenominator",
          "type": "uint256"
        },
        {
          "internalType": "uint256",
          "name": "exponent",
          "type": "uint256"
        },
        {
          "internalType": "uint256",
          "name": "_decimals",
          "type": "uint256"
        }
      ],
      "name": "fractionMulExp",
      "outputs": [
        {
          "internalType": "uint256",
          "name": "",
          "type": "uint256"
        },
        {
          "internalType": "uint256",
          "name": "",
          "type": "uint256"
        }
      ],
      "payable": false,
      "stateMutability": "view",
      "type": "function"
    },
    {
      "constant": true,
      "inputs": [
        {
          "internalType": "bytes",
          "name": "header",
          "type": "bytes"
        }
      ],
      "name": "getBlockNumberFromHeader",
      "outputs": [
        {
          "internalType": "uint256",
          "name": "",
          "type": "uint256"
        }
      ],
      "payable": false,
      "stateMutability": "view",
      "type": "function"
    },
    {
      "constant": true,
      "inputs": [],
      "name": "getEpochNumber",
      "outputs": [
        {
          "internalType": "uint256",
          "name": "",
          "type": "uint256"
        }
      ],
      "payable": false,
      "stateMutability": "view",
      "type": "function"
    },
    {
      "constant": true,
      "inputs": [
        {
          "internalType": "uint256",
          "name": "blockNumber",
          "type": "uint256"
        }
      ],
      "name": "getEpochNumberOfBlock",
      "outputs": [
        {
          "internalType": "uint256",
          "name": "",
          "type": "uint256"
        }
      ],
      "payable": false,
      "stateMutability": "view",
      "type": "function"
    },
    {
      "constant": true,
      "inputs": [],
      "name": "getEpochSize",
      "outputs": [
        {
          "internalType": "uint256",
          "name": "",
          "type": "uint256"
        }
      ],
      "payable": false,
      "stateMutability": "view",
      "type": "function"
    },
    {
      "constant": true,
      "inputs": [
        {
          "internalType": "uint256",
          "name": "blockNumber",
          "type": "uint256"
        }
      ],
      "name": "getParentSealBitmap",
      "outputs": [
        {
          "internalType": "bytes32",
          "name": "",
          "type": "bytes32"
        }
      ],
      "payable": false,
      "stateMutability": "view",
      "type": "function"
    },
    {
      "constant": true,
      "inputs": [
        {
          "internalType": "bytes",
          "name": "header",
          "type": "bytes"
        }
      ],
      "name": "getVerifiedSealBitmapFromHeader",
      "outputs": [
        {
          "internalType": "bytes32",
          "name": "",
          "type": "bytes32"
        }
      ],
      "payable": false,
      "stateMutability": "view",
      "type": "function"
    },
    {
      "constant": true,
      "inputs": [],
      "name": "getVersionNumber",
      "outputs": [
        {
          "internalType": "uint256",
          "name": "",
          "type": "uint256"
        },
        {
          "internalType": "uint256",
          "name": "",
          "type": "uint256"
        },
        {
          "internalType": "uint256",
          "name": "",
          "type": "uint256"
        },
        {
          "internalType": "uint256",
          "name": "",
          "type": "uint256"
        }
      ],
      "payable": false,
      "stateMutability": "pure",
      "type": "function"
    },
    {
      "constant": true,
      "inputs": [
        {
          "internalType": "address",
          "name": "validator",
          "type": "address"
        },
        {
          "internalType": "uint256",
          "name": "blockNumber",
          "type": "uint256"
        },
        {
          "internalType": "uint256",
          "name": "groupMembershipHistoryIndex",
          "type": "uint256"
        }
      ],
      "name": "groupMembershipAtBlock",
      "outputs": [
        {
          "internalType": "address",
          "name": "",
          "type": "address"
        }
      ],
      "payable": false,
      "stateMutability": "view",
      "type": "function"
    },
    {
      "constant": true,
      "inputs": [
        {
          "internalType": "bytes",
          "name": "header",
          "type": "bytes"
        }
      ],
      "name": "hashHeader",
      "outputs": [
        {
          "internalType": "bytes32",
          "name": "",
          "type": "bytes32"
        }
      ],
      "payable": false,
      "stateMutability": "view",
      "type": "function"
    },
    {
      "constant": false,
      "inputs": [
        {
          "internalType": "address",
          "name": "registryAddress",
          "type": "address"
        },
        {
          "internalType": "uint256",
          "name": "_penalty",
          "type": "uint256"
        },
        {
          "internalType": "uint256",
          "name": "_reward",
          "type": "uint256"
        }
      ],
      "name": "initialize",
      "outputs": [],
      "payable": false,
      "stateMutability": "nonpayable",
      "type": "function"
    },
    {
      "constant": true,
      "inputs": [],
      "name": "initialized",
      "outputs": [
        {
          "internalType": "bool",
          "name": "",
          "type": "bool"
        }
      ],
      "payable": false,
      "stateMutability": "view",
      "type": "function"
    },
    {
      "constant": true,
      "inputs": [],
      "name": "isOwner",
      "outputs": [
        {
          "internalType": "bool",
          "name": "",
          "type": "bool"
        }
      ],
      "payable": false,
      "stateMutability": "view",
      "type": "function"
    },
    {
      "constant": true,
      "inputs": [
        {
          "internalType": "uint256",
          "name": "blockNumber",
          "type": "uint256"
        }
      ],
      "name": "minQuorumSize",
      "outputs": [
        {
          "internalType": "uint256",
          "name": "",
          "type": "uint256"
        }
      ],
      "payable": false,
      "stateMutability": "view",
      "type": "function"
    },
    {
      "constant": true,
      "inputs": [],
      "name": "minQuorumSizeInCurrentSet",
      "outputs": [
        {
          "internalType": "uint256",
          "name": "",
          "type": "uint256"
        }
      ],
      "payable": false,
      "stateMutability": "view",
      "type": "function"
    },
    {
      "constant": true,
      "inputs": [],
      "name": "numberValidatorsInCurrentSet",
      "outputs": [
        {
          "internalType": "uint256",
          "name": "",
          "type": "uint256"
        }
      ],
      "payable": false,
      "stateMutability": "view",
      "type": "function"
    },
    {
      "constant": true,
      "inputs": [
        {
          "internalType": "uint256",
          "name": "",
          "type": "uint256"
        }
      ],
      "name": "numberValidatorsInSet",
      "outputs": [
        {
          "internalType": "uint256",
          "name": "",
          "type": "uint256"
        }
      ],
      "payable": false,
      "stateMutability": "view",
      "type": "function"
    },
    {
      "constant": true,
      "inputs": [],
      "name": "owner",
      "outputs": [
        {
          "internalType": "address",
          "name": "",
          "type": "address"
        }
      ],
      "payable": false,
      "stateMutability": "view",
      "type": "function"
    },
    {
      "constant": true,
      "inputs": [],
      "name": "registry",
      "outputs": [
        {
          "internalType": "contract IRegistry",
          "name": "",
          "type": "address"
        }
      ],
      "payable": false,
      "stateMutability": "view",
      "type": "function"
    },
    {
      "constant": false,
      "inputs": [],
      "name": "renounceOwnership",
      "outputs": [],
      "payable": false,
      "stateMutability": "nonpayable",
      "type": "function"
    },
    {
      "constant": false,
      "inputs": [
        {
          "internalType": "bytes",
          "name": "header",
          "type": "bytes"
        },
        {
          "internalType": "uint256",
          "name": "number",
          "type": "uint256"
        }
      ],
      "name": "setBlockNumber",
      "outputs": [
        {
          "internalType": "uint256",
          "name": "",
          "type": "uint256"
        }
      ],
      "payable": false,
      "stateMutability": "nonpayable",
      "type": "function"
    },
    {
      "constant": false,
      "inputs": [
        {
          "internalType": "uint256",
          "name": "epoch",
          "type": "uint256"
        },
        {
          "internalType": "uint256",
          "name": "index",
          "type": "uint256"
        },
        {
          "internalType": "address",
          "name": "signer",
          "type": "address"
        }
      ],
      "name": "setEpochSigner",
      "outputs": [],
      "payable": false,
      "stateMutability": "nonpayable",
      "type": "function"
    },
    {
      "constant": false,
      "inputs": [
        {
          "internalType": "uint256",
          "name": "num",
          "type": "uint256"
        }
      ],
      "name": "setNumberValidators",
      "outputs": [],
      "payable": false,
      "stateMutability": "nonpayable",
      "type": "function"
    },
    {
      "constant": false,
      "inputs": [
        {
          "internalType": "uint256",
          "name": "blockNumber",
          "type": "uint256"
        },
        {
          "internalType": "bytes32",
          "name": "bitmap",
          "type": "bytes32"
        }
      ],
      "name": "setParentSealBitmap",
      "outputs": [],
      "payable": false,
      "stateMutability": "nonpayable",
      "type": "function"
    },
    {
      "constant": false,
      "inputs": [
        {
          "internalType": "address",
          "name": "registryAddress",
          "type": "address"
        }
      ],
      "name": "setRegistry",
      "outputs": [],
      "payable": false,
      "stateMutability": "nonpayable",
      "type": "function"
    },
    {
      "constant": false,
      "inputs": [
        {
          "internalType": "uint256",
          "name": "penalty",
          "type": "uint256"
        },
        {
          "internalType": "uint256",
          "name": "reward",
          "type": "uint256"
        }
      ],
      "name": "setSlashingIncentives",
      "outputs": [],
      "payable": false,
      "stateMutability": "nonpayable",
      "type": "function"
    },
    {
      "constant": false,
      "inputs": [
        {
          "internalType": "bytes",
          "name": "header",
          "type": "bytes"
        },
        {
          "internalType": "bytes32",
          "name": "bitmap",
          "type": "bytes32"
        }
      ],
      "name": "setVerifiedSealBitmap",
      "outputs": [],
      "payable": false,
      "stateMutability": "nonpayable",
      "type": "function"
    },
    {
      "constant": false,
      "inputs": [
        {
          "internalType": "address",
          "name": "signer",
          "type": "address"
        },
        {
          "internalType": "uint256",
          "name": "index",
          "type": "uint256"
        },
        {
          "internalType": "bytes",
          "name": "headerA",
          "type": "bytes"
        },
        {
          "internalType": "bytes",
          "name": "headerB",
          "type": "bytes"
        },
        {
          "internalType": "uint256",
          "name": "groupMembershipHistoryIndex",
          "type": "uint256"
        },
        {
          "internalType": "address[]",
          "name": "validatorElectionLessers",
          "type": "address[]"
        },
        {
          "internalType": "address[]",
          "name": "validatorElectionGreaters",
          "type": "address[]"
        },
        {
          "internalType": "uint256[]",
          "name": "validatorElectionIndices",
          "type": "uint256[]"
        },
        {
          "internalType": "address[]",
          "name": "groupElectionLessers",
          "type": "address[]"
        },
        {
          "internalType": "address[]",
          "name": "groupElectionGreaters",
          "type": "address[]"
        },
        {
          "internalType": "uint256[]",
          "name": "groupElectionIndices",
          "type": "uint256[]"
        }
      ],
      "name": "slash",
      "outputs": [],
      "payable": false,
      "stateMutability": "nonpayable",
      "type": "function"
    },
    {
      "constant": true,
      "inputs": [],
      "name": "slashingIncentives",
      "outputs": [
        {
          "internalType": "uint256",
          "name": "penalty",
          "type": "uint256"
        },
        {
          "internalType": "uint256",
          "name": "reward",
          "type": "uint256"
        }
      ],
      "payable": false,
      "stateMutability": "view",
      "type": "function"
    },
    {
      "constant": false,
      "inputs": [
        {
          "internalType": "address",
          "name": "newOwner",
          "type": "address"
        }
      ],
      "name": "transferOwnership",
      "outputs": [],
      "payable": false,
      "stateMutability": "nonpayable",
      "type": "function"
    },
    {
      "constant": true,
      "inputs": [
        {
          "internalType": "uint256",
          "name": "index",
          "type": "uint256"
        }
      ],
      "name": "validatorSignerAddressFromCurrentSet",
      "outputs": [
        {
          "internalType": "address",
          "name": "",
          "type": "address"
        }
      ],
      "payable": false,
      "stateMutability": "view",
      "type": "function"
    },
    {
      "constant": true,
      "inputs": [
        {
          "internalType": "uint256",
          "name": "index",
          "type": "uint256"
        },
        {
          "internalType": "uint256",
          "name": "blockNumber",
          "type": "uint256"
        }
      ],
      "name": "validatorSignerAddressFromSet",
      "outputs": [
        {
          "internalType": "address",
          "name": "",
          "type": "address"
        }
      ],
      "payable": false,
      "stateMutability": "view",
      "type": "function"
    }
  ],
  "bytecode": "0x60806040526001808060006200001a620000e360201b60201c565b9050806000806101000a81548173ffffffffffffffffffffffffffffffffffffffff021916908373ffffffffffffffffffffffffffffffffffffffff1602179055508073ffffffffffffffffffffffffffffffffffffffff16600073ffffffffffffffffffffffffffffffffffffffff167f8be0079c531659141344cd1fd0a4f28419497f9722a3daafe3b4186f6b6457e060405160405180910390a35080620000da576001600060146101000a81548160ff0219169083151502179055505b505050620000eb565b600033905090565b613ed280620000fb6000396000f3fe608060405234801561001057600080fd5b50600436106102065760003560e01c80637b1039991161011a5780639b2b592f116100ad578063df4da4611161007c578063df4da46114611357578063e50e652d14611375578063ec683072146113b7578063f2fde38b14611432578063fae8db0a1461147657610206565b80639b2b592f14611241578063a91ee0dc14611283578063bd0d9979146112c7578063d041d18a146112ff57610206565b80638cc26910116100e95780638cc2691014610cb85780638da5cb5b146111b75780638f32d59b146112015780639a7b3be71461122357610206565b80637b10399914610ae957806387ee8a0f14610b3357806388498aaf14610b515780638a88362614610be957610206565b80634b2c2f441161019d5780636c56c16d1161016c5780636c56c16d14610958578063715018a6146109905780637385e5da1461099a5780637a1ac61e146109b85780637a3aebe414610a1057610206565b80634b2c2f441461070f57806354255be0146107de5780635d180adb1461081157806367960e911461088957610206565b806323f0ab65116101d957806323f0ab651461045057806329d24b64146105da5780633b1eb4bf14610608578063462450c41461064a57610206565b806309f994471461020b5780630a05cd841461039b578063123633ea146103c0578063158ef93e1461042e575b600080fd5b6103856004803603608081101561022157600080fd5b81019080803573ffffffffffffffffffffffffffffffffffffffff169060200190929190803590602001909291908035906020019064010000000081111561026857600080fd5b82018360208201111561027a57600080fd5b8035906020019184600183028401116401000000008311171561029c57600080fd5b91908080601f016020809104026020016040519081016040528093929190818152602001838380828437600081840152601f19601f820116905080830192505050505050509192919290803590602001906401000000008111156102ff57600080fd5b82018360208201111561031157600080fd5b8035906020019184600183028401116401000000008311171561033357600080fd5b91908080601f016020809104026020016040519081016040528093929190818152602001838380828437600081840152601f19601f8201169050808301925050505050505091929192905050506114b8565b6040518082815260200191505060405180910390f35b6103a36118b1565b604051808381526020018281526020019250505060405180910390f35b6103ec600480360360208110156103d657600080fd5b81019080803590602001909291905050506118c3565b604051808273ffffffffffffffffffffffffffffffffffffffff1673ffffffffffffffffffffffffffffffffffffffff16815260200191505060405180910390f35b610436611a14565b604051808215151515815260200191505060405180910390f35b6105c06004803603606081101561046657600080fd5b81019080803573ffffffffffffffffffffffffffffffffffffffff169060200190929190803590602001906401000000008111156104a357600080fd5b8201836020820111156104b557600080fd5b803590602001918460018302840111640100000000831117156104d757600080fd5b91908080601f016020809104026020016040519081016040528093929190818152602001838380828437600081840152601f19601f8201169050808301925050505050505091929192908035906020019064010000000081111561053a57600080fd5b82018360208201111561054c57600080fd5b8035906020019184600183028401116401000000008311171561056e57600080fd5b91908080601f016020809104026020016040519081016040528093929190818152602001838380828437600081840152601f19601f820116905080830192505050505050509192919290505050611a27565b604051808215151515815260200191505060405180910390f35b610606600480360360208110156105f057600080fd5b8101908080359060200190929190505050611be0565b005b6106346004803603602081101561061e57600080fd5b8101908080359060200190929190505050611bea565b6040518082815260200191505060405180910390f35b61070d6004803603604081101561066057600080fd5b810190808035906020019064010000000081111561067d57600080fd5b82018360208201111561068f57600080fd5b803590602001918460018302840111640100000000831117156106b157600080fd5b91908080601f016020809104026020016040519081016040528093929190818152602001838380828437600081840152601f19601f82011690508083019250505050505050919291929080359060200190929190505050611c04565b005b6107c86004803603602081101561072557600080fd5b810190808035906020019064010000000081111561074257600080fd5b82018360208201111561075457600080fd5b8035906020019184600183028401116401000000008311171561077657600080fd5b91908080601f016020809104026020016040519081016040528093929190818152602001838380828437600081840152601f19601f820116905080830192505050505050509192919290505050611c91565b6040518082815260200191505060405180910390f35b6107e6611d1f565b6040518085815260200184815260200183815260200182815260200194505050505060405180910390f35b6108476004803603604081101561082757600080fd5b810190808035906020019092919080359060200190929190505050611d46565b604051808273ffffffffffffffffffffffffffffffffffffffff1673ffffffffffffffffffffffffffffffffffffffff16815260200191505060405180910390f35b6109426004803603602081101561089f57600080fd5b81019080803590602001906401000000008111156108bc57600080fd5b8201836020820111156108ce57600080fd5b803590602001918460018302840111640100000000831117156108f057600080fd5b91908080601f016020809104026020016040519081016040528093929190818152602001838380828437600081840152601f19601f820116905080830192505050505050509192919290505050611dba565b6040518082815260200191505060405180910390f35b61098e6004803603604081101561096e57600080fd5b810190808035906020019092919080359060200190929190505050611dcb565b005b610998611de7565b005b6109a2611f20565b6040518082815260200191505060405180910390f35b610a0e600480360360608110156109ce57600080fd5b81019080803573ffffffffffffffffffffffffffffffffffffffff1690602001909291908035906020019092919080359060200190929190505050611f30565b005b610ad360048036036040811015610a2657600080fd5b8101908080359060200190640100000000811115610a4357600080fd5b820183602082011115610a5557600080fd5b80359060200191846001830284011164010000000083111715610a7757600080fd5b91908080601f016020809104026020016040519081016040528093929190818152602001838380828437600081840152601f19601f82011690508083019250505050505050919291929080359060200190929190505050611fef565b6040518082815260200191505060405180910390f35b610af1612080565b604051808273ffffffffffffffffffffffffffffffffffffffff1673ffffffffffffffffffffffffffffffffffffffff16815260200191505060405180910390f35b610b3b6120a6565b6040518082815260200191505060405180910390f35b610ba760048036036060811015610b6757600080fd5b81019080803573ffffffffffffffffffffffffffffffffffffffff16906020019092919080359060200190929190803590602001909291905050506121ed565b604051808273ffffffffffffffffffffffffffffffffffffffff1673ffffffffffffffffffffffffffffffffffffffff16815260200191505060405180910390f35b610ca260048036036020811015610bff57600080fd5b8101908080359060200190640100000000811115610c1c57600080fd5b820183602082011115610c2e57600080fd5b80359060200191846001830284011164010000000083111715610c5057600080fd5b91908080601f016020809104026020016040519081016040528093929190818152602001838380828437600081840152601f19601f82011690508083019250505050505050919291929050505061235e565b6040518082815260200191505060405180910390f35b6111b56004803603610160811015610ccf57600080fd5b81019080803573ffffffffffffffffffffffffffffffffffffffff1690602001909291908035906020019092919080359060200190640100000000811115610d1657600080fd5b820183602082011115610d2857600080fd5b80359060200191846001830284011164010000000083111715610d4a57600080fd5b91908080601f016020809104026020016040519081016040528093929190818152602001838380828437600081840152601f19601f82011690508083019250505050505050919291929080359060200190640100000000811115610dad57600080fd5b820183602082011115610dbf57600080fd5b80359060200191846001830284011164010000000083111715610de157600080fd5b91908080601f016020809104026020016040519081016040528093929190818152602001838380828437600081840152601f19601f8201169050808301925050505050505091929192908035906020019092919080359060200190640100000000811115610e4e57600080fd5b820183602082011115610e6057600080fd5b80359060200191846020830284011164010000000083111715610e8257600080fd5b919080806020026020016040519081016040528093929190818152602001838360200280828437600081840152601f19601f82011690508083019250505050505050919291929080359060200190640100000000811115610ee257600080fd5b820183602082011115610ef457600080fd5b80359060200191846020830284011164010000000083111715610f1657600080fd5b919080806020026020016040519081016040528093929190818152602001838360200280828437600081840152601f19601f82011690508083019250505050505050919291929080359060200190640100000000811115610f7657600080fd5b820183602082011115610f8857600080fd5b80359060200191846020830284011164010000000083111715610faa57600080fd5b919080806020026020016040519081016040528093929190818152602001838360200280828437600081840152601f19601f8201169050808301925050505050505091929192908035906020019064010000000081111561100a57600080fd5b82018360208201111561101c57600080fd5b8035906020019184602083028401116401000000008311171561103e57600080fd5b919080806020026020016040519081016040528093929190818152602001838360200280828437600081840152601f19601f8201169050808301925050505050505091929192908035906020019064010000000081111561109e57600080fd5b8201836020820111156110b057600080fd5b803590602001918460208302840111640100000000831117156110d257600080fd5b919080806020026020016040519081016040528093929190818152602001838360200280828437600081840152601f19601f8201169050808301925050505050505091929192908035906020019064010000000081111561113257600080fd5b82018360208201111561114457600080fd5b8035906020019184602083028401116401000000008311171561116657600080fd5b919080806020026020016040519081016040528093929190818152602001838360200280828437600081840152601f19601f8201169050808301925050505050505091929192905050506123ec565b005b6111bf612538565b604051808273ffffffffffffffffffffffffffffffffffffffff1673ffffffffffffffffffffffffffffffffffffffff16815260200191505060405180910390f35b611209612561565b604051808215151515815260200191505060405180910390f35b61122b6125bf565b6040518082815260200191505060405180910390f35b61126d6004803603602081101561125757600080fd5b81019080803590602001909291905050506125cf565b6040518082815260200191505060405180910390f35b6112c56004803603602081101561129957600080fd5b81019080803573ffffffffffffffffffffffffffffffffffffffff1690602001909291905050506125db565b005b6112fd600480360360408110156112dd57600080fd5b81019080803590602001909291908035906020019092919050505061277f565b005b6113556004803603606081101561131557600080fd5b810190808035906020019092919080359060200190929190803573ffffffffffffffffffffffffffffffffffffffff1690602001909291905050506128a8565b005b61135f61292d565b6040518082815260200191505060405180910390f35b6113a16004803603602081101561138b57600080fd5b8101908080359060200190929190505050612a69565b6040518082815260200191505060405180910390f35b611415600480360360c08110156113cd57600080fd5b81019080803590602001909291908035906020019092919080359060200190929190803590602001909291908035906020019092919080359060200190929190505050612ab4565b604051808381526020018281526020019250505060405180910390f35b6114746004803603602081101561144857600080fd5b81019080803573ffffffffffffffffffffffffffffffffffffffff169060200190929190505050612cc8565b005b6114a26004803603602081101561148c57600080fd5b8101908080359060200190929190505050612d4e565b6040518082815260200191505060405180910390f35b60006114c382611dba565b6114cc84611dba565b1415611523576040517f08c379a0000000000000000000000000000000000000000000000000000000008152600401808060200182810382526021815260200180613dc36021913960400191505060405180910390fd5b600061152e8461235e565b90506115398361235e565b8114611590576040517f08c379a0000000000000000000000000000000000000000000000000000000008152600401808060200182810382526027815260200180613e056027913960400191505060405180910390fd5b611599816125cf565b851061160d576040517f08c379a00000000000000000000000000000000000000000000000000000000081526004018080602001828103825260138152602001807f4261642076616c696461746f7220696e6465780000000000000000000000000081525060200191505060405180910390fd5b6116178582611d46565b73ffffffffffffffffffffffffffffffffffffffff168673ffffffffffffffffffffffffffffffffffffffff16146116b7576040517f08c379a00000000000000000000000000000000000000000000000000000000081526004018080602001828103825260208152602001807f5761736e27742061207369676e6572207769746820676976656e20696e64657881525060200191505060405180910390fd5b60006116c285611c91565b60001c905060006116d285611c91565b60001c90506000876001901b83161415611754576040517f08c379a00000000000000000000000000000000000000000000000000000000081526004018080602001828103825260178152602001807f4469646e2774207369676e20666972737420626c6f636b00000000000000000081525060200191505060405180910390fd5b6000876001901b821614156117d1576040517f08c379a00000000000000000000000000000000000000000000000000000000081526004018080602001828103825260188152602001807f4469646e2774207369676e207365636f6e6420626c6f636b000000000000000081525060200191505060405180910390fd5b6117da83612a69565b6117e383612d6b565b101561183a576040517f08c379a0000000000000000000000000000000000000000000000000000000008152600401808060200182810382526025815260200180613ce26025913960400191505060405180910390fd5b61184383612a69565b61184c82612d6b565b10156118a3576040517f08c379a0000000000000000000000000000000000000000000000000000000008152600401808060200182810382526026815260200180613e786026913960400191505060405180910390fd5b829350505050949350505050565b60028060000154908060010154905082565b60006060600060fa73ffffffffffffffffffffffffffffffffffffffff16844360405160200180838152602001828152602001925050506040516020818303038152906040526040518082805190602001908083835b6020831061193c5780518252602082019150602081019050602083039250611919565b6001836020036101000a038019825116818451168082178552505050505050905001915050600060405180830381855afa9150503d806000811461199c576040519150601f19603f3d011682016040523d82523d6000602084013e6119a1565b606091505b50809350819250505080611a00576040517f08c379a000000000000000000000000000000000000000000000000000000000815260040180806020018281038252603d815260200180613d51603d913960400191505060405180910390fd5b611a0b826000612dd6565b92505050919050565b600060149054906101000a900460ff1681565b60008060fb73ffffffffffffffffffffffffffffffffffffffff16858585604051602001808473ffffffffffffffffffffffffffffffffffffffff1673ffffffffffffffffffffffffffffffffffffffff1660601b815260140183805190602001908083835b60208310611ab05780518252602082019150602081019050602083039250611a8d565b6001836020036101000a03801982511681845116808217855250505050505090500182805190602001908083835b60208310611b015780518252602082019150602081019050602083039250611ade565b6001836020036101000a03801982511681845116808217855250505050505090500193505050506040516020818303038152906040526040518082805190602001908083835b60208310611b6a5780518252602082019150602081019050602083039250611b47565b6001836020036101000a038019825116818451168082178552505050505050905001915050600060405180830381855afa9150503d8060008114611bca576040519150601f19603f3d011682016040523d82523d6000602084013e611bcf565b606091505b505080915050809150509392505050565b8060088190555050565b6000611bfd82611bf861292d565b612ded565b9050919050565b8060056000846040516020018082805190602001908083835b60208310611c405780518252602082019150602081019050602083039250611c1d565b6001836020036101000a038019825116818451168082178552505050505050905001915050604051602081830303815290604052805190602001208152602001908152602001600020819055505050565b600060056000836040516020018082805190602001908083835b60208310611cce5780518252602082019150602081019050602083039250611cab565b6001836020036101000a038019825116818451168082178552505050505050905001915050604051602081830303815290604052805190602001208152602001908152602001600020549050919050565b60008060008060018060016000839350829250819150809050935093509350935090919293565b600060076000611d5584612e35565b85604051602001808381526020018281526020019250505060405160208183030381529060405280519060200120815260200190815260200160002060009054906101000a900473ffffffffffffffffffffffffffffffffffffffff16905092915050565b600081805190602001209050919050565b8060066000848152602001908152602001600020819055505050565b611def612561565b611e61576040517f08c379a00000000000000000000000000000000000000000000000000000000081526004018080602001828103825260208152602001807f4f776e61626c653a2063616c6c6572206973206e6f7420746865206f776e657281525060200191505060405180910390fd5b600073ffffffffffffffffffffffffffffffffffffffff166000809054906101000a900473ffffffffffffffffffffffffffffffffffffffff1673ffffffffffffffffffffffffffffffffffffffff167f8be0079c531659141344cd1fd0a4f28419497f9722a3daafe3b4186f6b6457e060405160405180910390a360008060006101000a81548173ffffffffffffffffffffffffffffffffffffffff021916908373ffffffffffffffffffffffffffffffffffffffff160217905550565b6000611f2b43612a69565b905090565b600060149054906101000a900460ff1615611fb3576040517f08c379a000000000000000000000000000000000000000000000000000000000815260040180806020018281038252601c8152602001807f636f6e747261637420616c726561647920696e697469616c697a65640000000081525060200191505060405180910390fd5b6001600060146101000a81548160ff021916908315150217905550611fd733612e74565b611fe0836125db565b611fea828261277f565b505050565b60008160096000856040516020018082805190602001908083835b6020831061202d578051825260208201915060208101905060208303925061200a565b6001836020036101000a0380198251168184511680821785525050505050509050019150506040516020818303038152906040528051906020012081526020019081526020016000208190555092915050565b600160009054906101000a900473ffffffffffffffffffffffffffffffffffffffff1681565b60006060600060f973ffffffffffffffffffffffffffffffffffffffff1643604051602001808281526020019150506040516020818303038152906040526040518082805190602001908083835b6020831061211757805182526020820191506020810190506020830392506120f4565b6001836020036101000a038019825116818451168082178552505050505050905001915050600060405180830381855afa9150503d8060008114612177576040519150601f19603f3d011682016040523d82523d6000602084013e61217c565b606091505b508093508192505050806121db576040517f08c379a0000000000000000000000000000000000000000000000000000000008152600401808060200182810382526035815260200180613d8e6035913960400191505060405180910390fd5b6121e6826000612dd6565b9250505090565b6000806121f984611bea565b90506000811415612272576040517f08c379a00000000000000000000000000000000000000000000000000000000081526004018080602001828103825260178152602001807f43616e6e6f7420736c617368206f6e2065706f6368203000000000000000000081525060200191505060405180910390fd5b61227a612fb8565b73ffffffffffffffffffffffffffffffffffffffff1663eb1d0b42866122aa6001856130b390919063ffffffff16565b866040518463ffffffff1660e01b8152600401808473ffffffffffffffffffffffffffffffffffffffff1673ffffffffffffffffffffffffffffffffffffffff168152602001838152602001828152602001935050505060206040518083038186803b15801561231957600080fd5b505afa15801561232d573d6000803e3d6000fd5b505050506040513d602081101561234357600080fd5b81019080805190602001909291905050509150509392505050565b600060096000836040516020018082805190602001908083835b6020831061239b5780518252602082019150602081019050602083039250612378565b6001836020036101000a038019825116818451168082178552505050505050905001915050604051602081830303815290604052805190602001208152602001908152602001600020549050919050565b6123f68b8a6130fd565b6124008b896130fd565b600061240e8c8c8c8c6114b8565b9050600061241a613249565b73ffffffffffffffffffffffffffffffffffffffff166393c5c4878e6040518263ffffffff1660e01b8152600401808273ffffffffffffffffffffffffffffffffffffffff1673ffffffffffffffffffffffffffffffffffffffff16815260200191505060206040518083038186803b15801561249657600080fd5b505afa1580156124aa573d6000803e3d6000fd5b505050506040513d60208110156124c057600080fd5b810190808051906020019092919050505090506124e58133848c8c8c8c8c8c8c613344565b818173ffffffffffffffffffffffffffffffffffffffff167fca7992de940988854714f90c0236621d5b6b850313f03eeea47f7028aaecea4060405160405180910390a350505050505050505050505050565b60008060009054906101000a900473ffffffffffffffffffffffffffffffffffffffff16905090565b60008060009054906101000a900473ffffffffffffffffffffffffffffffffffffffff1673ffffffffffffffffffffffffffffffffffffffff166125a361385f565b73ffffffffffffffffffffffffffffffffffffffff1614905090565b60006125ca43611bea565b905090565b60006008549050919050565b6125e3612561565b612655576040517f08c379a00000000000000000000000000000000000000000000000000000000081526004018080602001828103825260208152602001807f4f776e61626c653a2063616c6c6572206973206e6f7420746865206f776e657281525060200191505060405180910390fd5b600073ffffffffffffffffffffffffffffffffffffffff168173ffffffffffffffffffffffffffffffffffffffff1614156126f8576040517f08c379a00000000000000000000000000000000000000000000000000000000081526004018080602001828103825260208152602001807f43616e6e6f7420726567697374657220746865206e756c6c206164647265737381525060200191505060405180910390fd5b80600160006101000a81548173ffffffffffffffffffffffffffffffffffffffff021916908373ffffffffffffffffffffffffffffffffffffffff1602179055508073ffffffffffffffffffffffffffffffffffffffff167f27fe5f0c1c3b1ed427cc63d0f05759ffdecf9aec9e18d31ef366fc8a6cb5dc3b60405160405180910390a250565b612787612561565b6127f9576040517f08c379a00000000000000000000000000000000000000000000000000000000081526004018080602001828103825260208152602001807f4f776e61626c653a2063616c6c6572206973206e6f7420746865206f776e657281525060200191505060405180910390fd5b808211612851576040517f08c379a0000000000000000000000000000000000000000000000000000000008152600401808060200182810382526024815260200180613d076024913960400191505060405180910390fd5b81600260000181905550806002600101819055507f716dc7c34384df36c6ccc5a2949f2ce9b019f5d4075ef39139a80038a4fdd1c38282604051808381526020018281526020019250505060405180910390a15050565b80600760008585604051602001808381526020018281526020019250505060405160208183030381529060405280519060200120815260200190815260200160002060006101000a81548173ffffffffffffffffffffffffffffffffffffffff021916908373ffffffffffffffffffffffffffffffffffffffff160217905550505050565b60006060600060f873ffffffffffffffffffffffffffffffffffffffff166040516020016040516020818303038152906040526040518082805190602001908083835b602083106129935780518252602082019150602081019050602083039250612970565b6001836020036101000a038019825116818451168082178552505050505050905001915050600060405180830381855afa9150503d80600081146129f3576040519150601f19603f3d011682016040523d82523d6000602084013e6129f8565b606091505b50809350819250505080612a57576040517f08c379a0000000000000000000000000000000000000000000000000000000008152600401808060200182810382526025815260200180613e536025913960400191505060405180910390fd5b612a62826000612dd6565b9250505090565b6000612aad6003612a9f6002612a916002612a83886125cf565b61386790919063ffffffff16565b6138ed90919063ffffffff16565b61397590919063ffffffff16565b9050919050565b60008060008714158015612ac9575060008514155b612b3b576040517f08c379a00000000000000000000000000000000000000000000000000000000081526004018080602001828103825260158152602001807f612064656e6f6d696e61746f72206973207a65726f000000000000000000000081525060200191505060405180910390fd5b6000806000606060fc73ffffffffffffffffffffffffffffffffffffffff168c8c8c8c8c8c6040516020018087815260200186815260200185815260200184815260200183815260200182815260200196505050505050506040516020818303038152906040526040518082805190602001908083835b60208310612bd55780518252602082019150602081019050602083039250612bb2565b6001836020036101000a038019825116818451168082178552505050505050905001915050600060405180830381855afa9150503d8060008114612c35576040519150601f19603f3d011682016040523d82523d6000602084013e612c3a565b606091505b50809250819350505081612c99576040517f08c379a0000000000000000000000000000000000000000000000000000000008152600401808060200182810382526027815260200180613e2c6027913960400191505060405180910390fd5b612ca4816000612dd6565b9350612cb1816020612dd6565b925083839550955050505050965096945050505050565b612cd0612561565b612d42576040517f08c379a00000000000000000000000000000000000000000000000000000000081526004018080602001828103825260208152602001807f4f776e61626c653a2063616c6c6572206973206e6f7420746865206f776e657281525060200191505060405180910390fd5b612d4b81612e74565b50565b600060066000838152602001908152602001600020549050919050565b60008060009050600083905060008090505b610100811015612dcb5760018083161415612da957612da66001846138ed90919063ffffffff16565b92505b600182901c9150612dc46001826138ed90919063ffffffff16565b9050612d7d565b508192505050919050565b6000612de283836139bf565b60001c905092915050565b600080828481612df957fe5b0490506000838581612e0757fe5b061415612e175780915050612e2f565b612e2b6001826138ed90919063ffffffff16565b9150505b92915050565b600080606490506000818481612e4757fe5b0490506000828581612e5557fe5b061415612e66578092505050612e6f565b60018101925050505b919050565b600073ffffffffffffffffffffffffffffffffffffffff168173ffffffffffffffffffffffffffffffffffffffff161415612efa576040517f08c379a0000000000000000000000000000000000000000000000000000000008152600401808060200182810382526026815260200180613d2b6026913960400191505060405180910390fd5b8073ffffffffffffffffffffffffffffffffffffffff166000809054906101000a900473ffffffffffffffffffffffffffffffffffffffff1673ffffffffffffffffffffffffffffffffffffffff167f8be0079c531659141344cd1fd0a4f28419497f9722a3daafe3b4186f6b6457e060405160405180910390a3806000806101000a81548173ffffffffffffffffffffffffffffffffffffffff021916908373ffffffffffffffffffffffffffffffffffffffff16021790555050565b6000600160009054906101000a900473ffffffffffffffffffffffffffffffffffffffff1673ffffffffffffffffffffffffffffffffffffffff1663dcf0aaed60405160200180807f56616c696461746f727300000000000000000000000000000000000000000000815250600a019050604051602081830303815290604052805190602001206040518263ffffffff1660e01b81526004018082815260200191505060206040518083038186803b15801561307357600080fd5b505afa158015613087573d6000803e3d6000fd5b505050506040513d602081101561309d57600080fd5b8101908080519060200190929190505050905090565b60006130f583836040518060400160405280601e81526020017f536166654d6174683a207375627472616374696f6e206f766572666c6f770000815250613a60565b905092915050565b600061310882611dba565b9050600460008473ffffffffffffffffffffffffffffffffffffffff1673ffffffffffffffffffffffffffffffffffffffff168152602001908152602001600020600082815260200190815260200160002060009054906101000a900460ff16156131db576040517f08c379a000000000000000000000000000000000000000000000000000000000815260040180806020018281038252600f8152602001807f416c726561647920736c6173686564000000000000000000000000000000000081525060200191505060405180910390fd5b6001600460008573ffffffffffffffffffffffffffffffffffffffff1673ffffffffffffffffffffffffffffffffffffffff168152602001908152602001600020600083815260200190815260200160002060006101000a81548160ff021916908315150217905550505050565b6000600160009054906101000a900473ffffffffffffffffffffffffffffffffffffffff1673ffffffffffffffffffffffffffffffffffffffff1663dcf0aaed60405160200180807f4163636f756e74730000000000000000000000000000000000000000000000008152506008019050604051602081830303815290604052805190602001206040518263ffffffff1660e01b81526004018082815260200191505060206040518083038186803b15801561330457600080fd5b505afa158015613318573d6000803e3d6000fd5b505050506040513d602081101561332e57600080fd5b8101908080519060200190929190505050905090565b600061334e613b20565b90508073ffffffffffffffffffffffffffffffffffffffff166331993fc98c6002600001548d6002600101548c8c8c6040518863ffffffff1660e01b8152600401808873ffffffffffffffffffffffffffffffffffffffff1673ffffffffffffffffffffffffffffffffffffffff1681526020018781526020018673ffffffffffffffffffffffffffffffffffffffff1673ffffffffffffffffffffffffffffffffffffffff168152602001858152602001806020018060200180602001848103845287818151815260200191508051906020019060200280838360005b8381101561344757808201518184015260208101905061342c565b50505050905001848103835286818151815260200191508051906020019060200280838360005b8381101561348957808201518184015260208101905061346e565b50505050905001848103825285818151815260200191508051906020019060200280838360005b838110156134cb5780820151818401526020810190506134b0565b505050509050019a5050505050505050505050600060405180830381600087803b1580156134f857600080fd5b505af115801561350c573d6000803e3d6000fd5b50505050600061351d8c8b8b6121ed565b9050600073ffffffffffffffffffffffffffffffffffffffff168173ffffffffffffffffffffffffffffffffffffffff16141561355657fe5b8173ffffffffffffffffffffffffffffffffffffffff166331993fc9826002600001548e6002600101548a8a8a6040518863ffffffff1660e01b8152600401808873ffffffffffffffffffffffffffffffffffffffff1673ffffffffffffffffffffffffffffffffffffffff1681526020018781526020018673ffffffffffffffffffffffffffffffffffffffff1673ffffffffffffffffffffffffffffffffffffffff168152602001858152602001806020018060200180602001848103845287818151815260200191508051906020019060200280838360005b8381101561364d578082015181840152602081019050613632565b50505050905001848103835286818151815260200191508051906020019060200280838360005b8381101561368f578082015181840152602081019050613674565b50505050905001848103825285818151815260200191508051906020019060200280838360005b838110156136d15780820151818401526020810190506136b6565b505050509050019a5050505050505050505050600060405180830381600087803b1580156136fe57600080fd5b505af1158015613712573d6000803e3d6000fd5b505050506000613720612fb8565b90508073ffffffffffffffffffffffffffffffffffffffff1663e33301aa8e6040518263ffffffff1660e01b8152600401808273ffffffffffffffffffffffffffffffffffffffff1673ffffffffffffffffffffffffffffffffffffffff168152602001915050600060405180830381600087803b1580156137a157600080fd5b505af11580156137b5573d6000803e3d6000fd5b505050508073ffffffffffffffffffffffffffffffffffffffff1663c22d3bba836040518263ffffffff1660e01b8152600401808273ffffffffffffffffffffffffffffffffffffffff1673ffffffffffffffffffffffffffffffffffffffff168152602001915050600060405180830381600087803b15801561383857600080fd5b505af115801561384c573d6000803e3d6000fd5b5050505050505050505050505050505050565b600033905090565b60008083141561387a57600090506138e7565b600082840290508284828161388b57fe5b04146138e2576040517f08c379a0000000000000000000000000000000000000000000000000000000008152600401808060200182810382526021815260200180613de46021913960400191505060405180910390fd5b809150505b92915050565b60008082840190508381101561396b576040517f08c379a000000000000000000000000000000000000000000000000000000000815260040180806020018281038252601b8152602001807f536166654d6174683a206164646974696f6e206f766572666c6f77000000000081525060200191505060405180910390fd5b8091505092915050565b60006139b783836040518060400160405280601a81526020017f536166654d6174683a206469766973696f6e206279207a65726f000000000000815250613c1b565b905092915050565b60006139d56020836138ed90919063ffffffff16565b83511015613a4b576040517f08c379a00000000000000000000000000000000000000000000000000000000081526004018080602001828103825260148152602001807f736c6963696e67206f7574206f662072616e676500000000000000000000000081525060200191505060405180910390fd5b60006020830184015190508091505092915050565b6000838311158290613b0d576040517f08c379a00000000000000000000000000000000000000000000000000000000081526004018080602001828103825283818151815260200191508051906020019080838360005b83811015613ad2578082015181840152602081019050613ab7565b50505050905090810190601f168015613aff5780820380516001836020036101000a031916815260200191505b509250505060405180910390fd5b5060008385039050809150509392505050565b6000600160009054906101000a900473ffffffffffffffffffffffffffffffffffffffff1673ffffffffffffffffffffffffffffffffffffffff1663dcf0aaed60405160200180807f4c6f636b6564476f6c6400000000000000000000000000000000000000000000815250600a019050604051602081830303815290604052805190602001206040518263ffffffff1660e01b81526004018082815260200191505060206040518083038186803b158015613bdb57600080fd5b505afa158015613bef573d6000803e3d6000fd5b505050506040513d6020811015613c0557600080fd5b8101908080519060200190929190505050905090565b60008083118290613cc7576040517f08c379a00000000000000000000000000000000000000000000000000000000081526004018080602001828103825283818151815260200191508051906020019080838360005b83811015613c8c578082015181840152602081019050613c71565b50505050905090810190601f168015613cb95780820380516001836020036101000a031916815260200191505b509250505060405180910390fd5b506000838581613cd357fe5b04905080915050939250505056fe4e6f7420656e6f756768207369676e65727320696e2074686520666972737420626c6f636b50656e616c74792068617320746f206265206c6172676572207468616e207265776172644f776e61626c653a206e6577206f776e657220697320746865207a65726f20616464726573736572726f722063616c6c696e672076616c696461746f725369676e65724164647265737346726f6d43757272656e7453657420707265636f6d70696c656572726f722063616c6c696e67206e756d62657256616c696461746f7273496e43757272656e7453657420707265636f6d70696c65426c6f636b20686173686573206861766520746f20626520646966666572656e74536166654d6174683a206d756c7469706c69636174696f6e206f766572666c6f77426c6f636b2068656164657273206172652066726f6d20646966666572656e74206865696768746572726f722063616c6c696e67206672616374696f6e4d756c45787020707265636f6d70696c656572726f722063616c6c696e672067657445706f636853697a6520707265636f6d70696c654e6f7420656e6f756768207369676e65727320696e20746865207365636f6e6420626c6f636ba265627a7a7231582052e9dcbab0785624071931e62774b22e9602fe4117e127de0a8460294ca6814e64736f6c634300050d0032",
  "source": "pragma solidity ^0.5.13;\n\nimport \"../DoubleSigningSlasher.sol\";\nimport \"./MockUsingPrecompiles.sol\";\n\ncontract DoubleSigningSlasherTest is DoubleSigningSlasher(true), MockUsingPrecompiles {}\n",
  "compiler": {
    "name": "solc",
    "version": "0.5.13+commit.5b0b510c.Emscripten.clang"
  },
  "schemaVersion": "3.4.13",
  "updatedAt": "2023-11-21T17:21:12.613Z",
  "devdoc": {
    "methods": {
      "checkForDoubleSigning(address,uint256,bytes,bytes)": {
        "params": {
          "headerA": "First double signed block header.",
          "headerB": "Second double signed block header.",
          "index": "Validator index at the block.",
          "signer": "The signer to be slashed."
        },
        "return": "Block number where double signing occured. Throws if no double signing is detected."
      },
      "checkProofOfPossession(address,bytes,bytes)": {
        "params": {
          "blsKey": "The BLS public key that the validator is using for consensus, should pass proof  of possession. 48 bytes.",
          "blsPop": "The BLS public key proof-of-possession, which consists of a signature on the  account address. 96 bytes.",
          "sender": "The address signed by the BLS key to generate the proof of possession."
        },
        "return": "True upon success."
      },
      "fractionMulExp(uint256,uint256,uint256,uint256,uint256,uint256)": {
        "params": {
          "_decimals": "precision",
          "aDenominator": "Denominator of first fraction",
          "aNumerator": "Numerator of first fraction",
          "bDenominator": "Denominator of exponentiated fraction",
          "bNumerator": "Numerator of exponentiated fraction",
          "exponent": "exponent to raise b to"
        },
        "return": "Numerator of the computed quantity (not reduced).Denominator of the computed quantity (not reduced)."
      },
      "getEpochNumber()": {
        "return": "Current epoch number."
      },
      "getEpochNumberOfBlock(uint256)": {
        "params": {
          "blockNumber": "Block number where epoch number is calculated."
        },
        "return": "Epoch number."
      },
      "getEpochSize()": {
        "return": "The current epoch size in blocks."
      },
      "getVersionNumber()": {
        "return": "Storage version of the contract.Major version of the contract.Minor version of the contract.Patch version of the contract."
      },
      "groupMembershipAtBlock(address,uint256,uint256)": {
        "params": {
          "blockNumber": "Block number associated with slashing.",
          "groupMembershipHistoryIndex": "Index used for history lookup.",
          "validator": "Validator that was slashed."
        },
        "return": "Group to be slashed."
      },
      "initialize(address,uint256,uint256)": {
        "params": {
          "_penalty": "Penalty for the slashed signer.",
          "_reward": "Reward that the observer gets.",
          "registryAddress": "The address of the registry core smart contract."
        }
      },
      "isOwner()": {
        "details": "Returns true if the caller is the current owner."
      },
      "minQuorumSize(uint256)": {
        "details": "Computed in celo-blockchain as int(math.Ceil(float64(2*valSet.Size()) / 3))"
      },
      "minQuorumSizeInCurrentSet()": {
        "return": "Byzantine quorum of validators."
      },
      "numberValidatorsInCurrentSet()": {
        "return": "Size of the current elected validator set."
      },
      "owner()": {
        "details": "Returns the address of the current owner."
      },
      "renounceOwnership()": {
        "details": "Leaves the contract without owner. It will not be possible to call `onlyOwner` functions anymore. Can only be called by the current owner.     * NOTE: Renouncing ownership will leave the contract without an owner, thereby removing any functionality that is only available to the owner."
      },
      "setRegistry(address)": {
        "params": {
          "registryAddress": "The address of a registry contract for routing to other contracts."
        }
      },
      "setSlashingIncentives(uint256,uint256)": {
        "params": {
          "penalty": "Penalty for the slashed signer.",
          "reward": "Reward that the observer gets."
        }
      },
      "slash(address,uint256,bytes,bytes,uint256,address[],address[],uint256[],address[],address[],uint256[])": {
        "params": {
          "groupElectionGreaters": "Greater pointers for group slashing.",
          "groupElectionIndices": "Vote indices for group slashing.",
          "groupElectionLessers": "Lesser pointers for group slashing.",
          "groupMembershipHistoryIndex": "Group membership index from where the group should be found.",
          "headerA": "First double signed block header.",
          "headerB": "Second double signed block header.",
          "index": "Validator index at the block.",
          "signer": "The signer to be slashed.",
          "validatorElectionGreaters": "Greater pointers for validator slashing.",
          "validatorElectionIndices": "Vote indices for validator slashing.",
          "validatorElectionLessers": "Lesser pointers for validator slashing."
        }
      },
      "transferOwnership(address)": {
        "details": "Transfers ownership of the contract to a new account (`newOwner`). Can only be called by the current owner."
      },
      "validatorSignerAddressFromCurrentSet(uint256)": {
        "params": {
          "index": "Index of requested validator in the validator set."
        },
        "return": "Address of validator at the requested index."
      }
    }
  },
  "userdoc": {
    "methods": {
      "checkForDoubleSigning(address,uint256,bytes,bytes)": {
        "notice": "Given two RLP encoded blocks, calls into precompiles to require that the two block hashes are different, have the same height, have a quorum of signatures, and that `signer` was part of the quorum."
      },
      "checkProofOfPossession(address,bytes,bytes)": {
        "notice": "Checks a BLS proof of possession."
      },
      "fractionMulExp(uint256,uint256,uint256,uint256,uint256,uint256)": {
        "notice": "calculate a * b^x for fractions a, b to `decimals` precision"
      },
      "getEpochNumber()": {
        "notice": "Returns the epoch number at a block."
      },
      "getEpochNumberOfBlock(uint256)": {
        "notice": "Returns the epoch number at a block."
      },
      "getEpochSize()": {
        "notice": "Returns the current epoch size in blocks."
      },
      "getVersionNumber()": {
        "notice": "Returns the storage, major, minor, and patch version of the contract."
      },
      "groupMembershipAtBlock(address,uint256,uint256)": {
        "notice": "Returns the group to be slashed."
      },
      "initialize(address,uint256,uint256)": {
        "notice": "Used in place of the constructor to allow the contract to be upgradable via proxy."
      },
      "minQuorumSize(uint256)": {
        "notice": "Returns the minimum number of required signers for a given block number."
      },
      "minQuorumSizeInCurrentSet()": {
        "notice": "Computes byzantine quorum from current validator set size"
      },
      "numberValidatorsInCurrentSet()": {
        "notice": "Gets the size of the current elected validator set."
      },
      "setRegistry(address)": {
        "notice": "Updates the address pointing to a Registry contract."
      },
      "setSlashingIncentives(uint256,uint256)": {
        "notice": "Sets slashing incentives."
      },
      "slash(address,uint256,bytes,bytes,uint256,address[],address[],uint256[],address[],address[],uint256[])": {
        "notice": "Requires that `eval` returns true and that this evidence has not already been used to slash `signer`. If so, fetches the `account` associated with `signer` and the group that `signer` was a member of during the corresponding epoch. Then, calls `LockedGold.slash` on both the validator and group accounts. Calls `Validators.removeSlashedMember` to remove the validator from its current group if it is a member of one. Finally, stores that hash(signer, blockNumber) has been slashed."
      },
      "validatorSignerAddressFromCurrentSet(uint256)": {
        "notice": "Gets a validator address from the current validator set."
      }
    }
  }
}