{
  "contractName": "DowntimeSlasherTest",
  "abi": [
    {
      "anonymous": false,
      "inputs": [
        {
          "indexed": true,
          "internalType": "address",
          "name": "sender",
          "type": "address"
        },
        {
          "indexed": true,
          "internalType": "uint256",
          "name": "startBlock",
          "type": "uint256"
        },
        {
          "indexed": true,
          "internalType": "uint256",
          "name": "endBlock",
          "type": "uint256"
        },
        {
          "indexed": false,
          "internalType": "bytes32",
          "name": "bitmap",
          "type": "bytes32"
        }
      ],
      "name": "BitmapSetForInterval",
      "type": "event"
    },
    {
      "anonymous": false,
      "inputs": [
        {
          "indexed": true,
          "internalType": "address",
          "name": "validator",
          "type": "address"
        },
        {
          "indexed": true,
          "internalType": "uint256",
          "name": "startBlock",
          "type": "uint256"
        },
        {
          "indexed": true,
          "internalType": "uint256",
          "name": "endBlock",
          "type": "uint256"
        }
      ],
      "name": "DowntimeSlashPerformed",
      "type": "event"
    },
    {
      "anonymous": false,
      "inputs": [
        {
          "indexed": true,
          "internalType": "address",
          "name": "previousOwner",
          "type": "address"
        },
        {
          "indexed": true,
          "internalType": "address",
          "name": "newOwner",
          "type": "address"
        }
      ],
      "name": "OwnershipTransferred",
      "type": "event"
    },
    {
      "anonymous": false,
      "inputs": [
        {
          "indexed": true,
          "internalType": "address",
          "name": "registryAddress",
          "type": "address"
        }
      ],
      "name": "RegistrySet",
      "type": "event"
    },
    {
      "anonymous": false,
      "inputs": [
        {
          "indexed": false,
          "internalType": "uint256",
          "name": "interval",
          "type": "uint256"
        }
      ],
      "name": "SlashableDowntimeSet",
      "type": "event"
    },
    {
      "anonymous": false,
      "inputs": [
        {
          "indexed": false,
          "internalType": "uint256",
          "name": "penalty",
          "type": "uint256"
        },
        {
          "indexed": false,
          "internalType": "uint256",
          "name": "reward",
          "type": "uint256"
        }
      ],
      "name": "SlashingIncentivesSet",
      "type": "event"
    },
    {
      "constant": true,
      "inputs": [
        {
          "internalType": "address",
          "name": "",
          "type": "address"
        },
        {
          "internalType": "uint256",
          "name": "",
          "type": "uint256"
        },
        {
          "internalType": "uint256",
          "name": "",
          "type": "uint256"
        }
      ],
      "name": "bitmaps",
      "outputs": [
        {
          "internalType": "bytes32",
          "name": "",
          "type": "bytes32"
        }
      ],
      "payable": false,
      "stateMutability": "view",
      "type": "function"
    },
    {
      "constant": true,
      "inputs": [
        {
          "internalType": "address",
          "name": "sender",
          "type": "address"
        },
        {
          "internalType": "bytes",
          "name": "blsKey",
          "type": "bytes"
        },
        {
          "internalType": "bytes",
          "name": "blsPop",
          "type": "bytes"
        }
      ],
      "name": "checkProofOfPossession",
      "outputs": [
        {
          "internalType": "bool",
          "name": "",
          "type": "bool"
        }
      ],
      "payable": false,
      "stateMutability": "view",
      "type": "function"
    },
    {
      "constant": true,
      "inputs": [
        {
          "internalType": "uint256",
          "name": "aNumerator",
          "type": "uint256"
        },
        {
          "internalType": "uint256",
          "name": "aDenominator",
          "type": "uint256"
        },
        {
          "internalType": "uint256",
          "name": "bNumerator",
          "type": "uint256"
        },
        {
          "internalType": "uint256",
          "name": "bDenominator",
          "type": "uint256"
        },
        {
          "internalType": "uint256",
          "name": "exponent",
          "type": "uint256"
        },
        {
          "internalType": "uint256",
          "name": "_decimals",
          "type": "uint256"
        }
      ],
      "name": "fractionMulExp",
      "outputs": [
        {
          "internalType": "uint256",
          "name": "",
          "type": "uint256"
        },
        {
          "internalType": "uint256",
          "name": "",
          "type": "uint256"
        }
      ],
      "payable": false,
      "stateMutability": "view",
      "type": "function"
    },
    {
      "constant": true,
      "inputs": [
        {
          "internalType": "uint256",
          "name": "startBlock",
          "type": "uint256"
        },
        {
          "internalType": "uint256",
          "name": "endBlock",
          "type": "uint256"
        }
      ],
      "name": "getBitmapForInterval",
      "outputs": [
        {
          "internalType": "bytes32",
          "name": "",
          "type": "bytes32"
        }
      ],
      "payable": false,
      "stateMutability": "view",
      "type": "function"
    },
    {
      "constant": true,
      "inputs": [
        {
          "internalType": "bytes",
          "name": "header",
          "type": "bytes"
        }
      ],
      "name": "getBlockNumberFromHeader",
      "outputs": [
        {
          "internalType": "uint256",
          "name": "",
          "type": "uint256"
        }
      ],
      "payable": false,
      "stateMutability": "view",
      "type": "function"
    },
    {
      "constant": true,
      "inputs": [],
      "name": "getEpochNumber",
      "outputs": [
        {
          "internalType": "uint256",
          "name": "",
          "type": "uint256"
        }
      ],
      "payable": false,
      "stateMutability": "view",
      "type": "function"
    },
    {
      "constant": true,
      "inputs": [
        {
          "internalType": "uint256",
          "name": "blockNumber",
          "type": "uint256"
        }
      ],
      "name": "getEpochNumberOfBlock",
      "outputs": [
        {
          "internalType": "uint256",
          "name": "",
          "type": "uint256"
        }
      ],
      "payable": false,
      "stateMutability": "view",
      "type": "function"
    },
    {
      "constant": true,
      "inputs": [],
      "name": "getEpochSize",
      "outputs": [
        {
          "internalType": "uint256",
          "name": "",
          "type": "uint256"
        }
      ],
      "payable": false,
      "stateMutability": "view",
      "type": "function"
    },
    {
      "constant": true,
      "inputs": [
        {
          "internalType": "uint256",
          "name": "blockNumber",
          "type": "uint256"
        }
      ],
      "name": "getParentSealBitmap",
      "outputs": [
        {
          "internalType": "bytes32",
          "name": "",
          "type": "bytes32"
        }
      ],
      "payable": false,
      "stateMutability": "view",
      "type": "function"
    },
    {
      "constant": true,
      "inputs": [
        {
          "internalType": "bytes",
          "name": "header",
          "type": "bytes"
        }
      ],
      "name": "getVerifiedSealBitmapFromHeader",
      "outputs": [
        {
          "internalType": "bytes32",
          "name": "",
          "type": "bytes32"
        }
      ],
      "payable": false,
      "stateMutability": "view",
      "type": "function"
    },
    {
      "constant": true,
      "inputs": [],
      "name": "getVersionNumber",
      "outputs": [
        {
          "internalType": "uint256",
          "name": "",
          "type": "uint256"
        },
        {
          "internalType": "uint256",
          "name": "",
          "type": "uint256"
        },
        {
          "internalType": "uint256",
          "name": "",
          "type": "uint256"
        },
        {
          "internalType": "uint256",
          "name": "",
          "type": "uint256"
        }
      ],
      "payable": false,
      "stateMutability": "pure",
      "type": "function"
    },
    {
      "constant": true,
      "inputs": [
        {
          "internalType": "address",
          "name": "validator",
          "type": "address"
        },
        {
          "internalType": "uint256",
          "name": "blockNumber",
          "type": "uint256"
        },
        {
          "internalType": "uint256",
          "name": "groupMembershipHistoryIndex",
          "type": "uint256"
        }
      ],
      "name": "groupMembershipAtBlock",
      "outputs": [
        {
          "internalType": "address",
          "name": "",
          "type": "address"
        }
      ],
      "payable": false,
      "stateMutability": "view",
      "type": "function"
    },
    {
      "constant": true,
      "inputs": [
        {
          "internalType": "bytes",
          "name": "header",
          "type": "bytes"
        }
      ],
      "name": "hashHeader",
      "outputs": [
        {
          "internalType": "bytes32",
          "name": "",
          "type": "bytes32"
        }
      ],
      "payable": false,
      "stateMutability": "view",
      "type": "function"
    },
    {
      "constant": false,
      "inputs": [
        {
          "internalType": "address",
          "name": "registryAddress",
          "type": "address"
        },
        {
          "internalType": "uint256",
          "name": "_penalty",
          "type": "uint256"
        },
        {
          "internalType": "uint256",
          "name": "_reward",
          "type": "uint256"
        },
        {
          "internalType": "uint256",
          "name": "_slashableDowntime",
          "type": "uint256"
        }
      ],
      "name": "initialize",
      "outputs": [],
      "payable": false,
      "stateMutability": "nonpayable",
      "type": "function"
    },
    {
      "constant": true,
      "inputs": [],
      "name": "initialized",
      "outputs": [
        {
          "internalType": "bool",
          "name": "",
          "type": "bool"
        }
      ],
      "payable": false,
      "stateMutability": "view",
      "type": "function"
    },
    {
      "constant": true,
      "inputs": [
        {
          "internalType": "uint256",
          "name": "startBlock",
          "type": "uint256"
        },
        {
          "internalType": "uint256",
          "name": "endBlock",
          "type": "uint256"
        }
      ],
      "name": "isBitmapSetForInterval",
      "outputs": [
        {
          "internalType": "bool",
          "name": "",
          "type": "bool"
        }
      ],
      "payable": false,
      "stateMutability": "view",
      "type": "function"
    },
    {
      "constant": true,
      "inputs": [],
      "name": "isOwner",
      "outputs": [
        {
          "internalType": "bool",
          "name": "",
          "type": "bool"
        }
      ],
      "payable": false,
      "stateMutability": "view",
      "type": "function"
    },
    {
      "constant": true,
      "inputs": [
        {
          "internalType": "address",
          "name": "",
          "type": "address"
        }
      ],
      "name": "lastSlashedBlock",
      "outputs": [
        {
          "internalType": "uint256",
          "name": "",
          "type": "uint256"
        }
      ],
      "payable": false,
      "stateMutability": "view",
      "type": "function"
    },
    {
      "constant": true,
      "inputs": [
        {
          "internalType": "uint256",
          "name": "blockNumber",
          "type": "uint256"
        }
      ],
      "name": "minQuorumSize",
      "outputs": [
        {
          "internalType": "uint256",
          "name": "",
          "type": "uint256"
        }
      ],
      "payable": false,
      "stateMutability": "view",
      "type": "function"
    },
    {
      "constant": true,
      "inputs": [],
      "name": "minQuorumSizeInCurrentSet",
      "outputs": [
        {
          "internalType": "uint256",
          "name": "",
          "type": "uint256"
        }
      ],
      "payable": false,
      "stateMutability": "view",
      "type": "function"
    },
    {
      "constant": true,
      "inputs": [],
      "name": "numberValidatorsInCurrentSet",
      "outputs": [
        {
          "internalType": "uint256",
          "name": "",
          "type": "uint256"
        }
      ],
      "payable": false,
      "stateMutability": "view",
      "type": "function"
    },
    {
      "constant": true,
      "inputs": [
        {
          "internalType": "uint256",
          "name": "",
          "type": "uint256"
        }
      ],
      "name": "numberValidatorsInSet",
      "outputs": [
        {
          "internalType": "uint256",
          "name": "",
          "type": "uint256"
        }
      ],
      "payable": false,
      "stateMutability": "view",
      "type": "function"
    },
    {
      "constant": true,
      "inputs": [],
      "name": "owner",
      "outputs": [
        {
          "internalType": "address",
          "name": "",
          "type": "address"
        }
      ],
      "payable": false,
      "stateMutability": "view",
      "type": "function"
    },
    {
      "constant": true,
      "inputs": [],
      "name": "registry",
      "outputs": [
        {
          "internalType": "contract IRegistry",
          "name": "",
          "type": "address"
        }
      ],
      "payable": false,
      "stateMutability": "view",
      "type": "function"
    },
    {
      "constant": false,
      "inputs": [],
      "name": "renounceOwnership",
      "outputs": [],
      "payable": false,
      "stateMutability": "nonpayable",
      "type": "function"
    },
    {
      "constant": false,
      "inputs": [
        {
          "internalType": "uint256",
          "name": "startBlock",
          "type": "uint256"
        },
        {
          "internalType": "uint256",
          "name": "endBlock",
          "type": "uint256"
        }
      ],
      "name": "setBitmapForInterval",
      "outputs": [
        {
          "internalType": "bytes32",
          "name": "",
          "type": "bytes32"
        }
      ],
      "payable": false,
      "stateMutability": "nonpayable",
      "type": "function"
    },
    {
      "constant": false,
      "inputs": [
        {
          "internalType": "bytes",
          "name": "header",
          "type": "bytes"
        },
        {
          "internalType": "uint256",
          "name": "number",
          "type": "uint256"
        }
      ],
      "name": "setBlockNumber",
      "outputs": [
        {
          "internalType": "uint256",
          "name": "",
          "type": "uint256"
        }
      ],
      "payable": false,
      "stateMutability": "nonpayable",
      "type": "function"
    },
    {
      "constant": false,
      "inputs": [
        {
          "internalType": "uint256",
          "name": "epoch",
          "type": "uint256"
        },
        {
          "internalType": "uint256",
          "name": "index",
          "type": "uint256"
        },
        {
          "internalType": "address",
          "name": "signer",
          "type": "address"
        }
      ],
      "name": "setEpochSigner",
      "outputs": [],
      "payable": false,
      "stateMutability": "nonpayable",
      "type": "function"
    },
    {
      "constant": false,
      "inputs": [
        {
          "internalType": "uint256",
          "name": "num",
          "type": "uint256"
        }
      ],
      "name": "setNumberValidators",
      "outputs": [],
      "payable": false,
      "stateMutability": "nonpayable",
      "type": "function"
    },
    {
      "constant": false,
      "inputs": [
        {
          "internalType": "uint256",
          "name": "blockNumber",
          "type": "uint256"
        },
        {
          "internalType": "bytes32",
          "name": "bitmap",
          "type": "bytes32"
        }
      ],
      "name": "setParentSealBitmap",
      "outputs": [],
      "payable": false,
      "stateMutability": "nonpayable",
      "type": "function"
    },
    {
      "constant": false,
      "inputs": [
        {
          "internalType": "address",
          "name": "registryAddress",
          "type": "address"
        }
      ],
      "name": "setRegistry",
      "outputs": [],
      "payable": false,
      "stateMutability": "nonpayable",
      "type": "function"
    },
    {
      "constant": false,
      "inputs": [
        {
          "internalType": "uint256",
          "name": "interval",
          "type": "uint256"
        }
      ],
      "name": "setSlashableDowntime",
      "outputs": [],
      "payable": false,
      "stateMutability": "nonpayable",
      "type": "function"
    },
    {
      "constant": false,
      "inputs": [
        {
          "internalType": "uint256",
          "name": "penalty",
          "type": "uint256"
        },
        {
          "internalType": "uint256",
          "name": "reward",
          "type": "uint256"
        }
      ],
      "name": "setSlashingIncentives",
      "outputs": [],
      "payable": false,
      "stateMutability": "nonpayable",
      "type": "function"
    },
    {
      "constant": false,
      "inputs": [
        {
          "internalType": "bytes",
          "name": "header",
          "type": "bytes"
        },
        {
          "internalType": "bytes32",
          "name": "bitmap",
          "type": "bytes32"
        }
      ],
      "name": "setVerifiedSealBitmap",
      "outputs": [],
      "payable": false,
      "stateMutability": "nonpayable",
      "type": "function"
    },
    {
      "constant": false,
      "inputs": [
        {
          "internalType": "uint256[]",
          "name": "startBlocks",
          "type": "uint256[]"
        },
        {
          "internalType": "uint256[]",
          "name": "endBlocks",
          "type": "uint256[]"
        },
        {
          "internalType": "uint256[]",
          "name": "signerIndices",
          "type": "uint256[]"
        },
        {
          "internalType": "uint256",
          "name": "groupMembershipHistoryIndex",
          "type": "uint256"
        },
        {
          "internalType": "address[]",
          "name": "validatorElectionLessers",
          "type": "address[]"
        },
        {
          "internalType": "address[]",
          "name": "validatorElectionGreaters",
          "type": "address[]"
        },
        {
          "internalType": "uint256[]",
          "name": "validatorElectionIndices",
          "type": "uint256[]"
        },
        {
          "internalType": "address[]",
          "name": "groupElectionLessers",
          "type": "address[]"
        },
        {
          "internalType": "address[]",
          "name": "groupElectionGreaters",
          "type": "address[]"
        },
        {
          "internalType": "uint256[]",
          "name": "groupElectionIndices",
          "type": "uint256[]"
        }
      ],
      "name": "slash",
      "outputs": [],
      "payable": false,
      "stateMutability": "nonpayable",
      "type": "function"
    },
    {
      "constant": true,
      "inputs": [],
      "name": "slashableDowntime",
      "outputs": [
        {
          "internalType": "uint256",
          "name": "",
          "type": "uint256"
        }
      ],
      "payable": false,
      "stateMutability": "view",
      "type": "function"
    },
    {
      "constant": true,
      "inputs": [],
      "name": "slashingIncentives",
      "outputs": [
        {
          "internalType": "uint256",
          "name": "penalty",
          "type": "uint256"
        },
        {
          "internalType": "uint256",
          "name": "reward",
          "type": "uint256"
        }
      ],
      "payable": false,
      "stateMutability": "view",
      "type": "function"
    },
    {
      "constant": false,
      "inputs": [
        {
          "internalType": "address",
          "name": "newOwner",
          "type": "address"
        }
      ],
      "name": "transferOwnership",
      "outputs": [],
      "payable": false,
      "stateMutability": "nonpayable",
      "type": "function"
    },
    {
      "constant": true,
      "inputs": [
        {
          "internalType": "uint256",
          "name": "index",
          "type": "uint256"
        }
      ],
      "name": "validatorSignerAddressFromCurrentSet",
      "outputs": [
        {
          "internalType": "address",
          "name": "",
          "type": "address"
        }
      ],
      "payable": false,
      "stateMutability": "view",
      "type": "function"
    },
    {
      "constant": true,
      "inputs": [
        {
          "internalType": "uint256",
          "name": "index",
          "type": "uint256"
        },
        {
          "internalType": "uint256",
          "name": "blockNumber",
          "type": "uint256"
        }
      ],
      "name": "validatorSignerAddressFromSet",
      "outputs": [
        {
          "internalType": "address",
          "name": "",
          "type": "address"
        }
      ],
      "payable": false,
      "stateMutability": "view",
      "type": "function"
    },
    {
      "constant": true,
      "inputs": [
        {
          "internalType": "uint256",
          "name": "startBlock",
          "type": "uint256"
        },
        {
          "internalType": "uint256",
          "name": "endBlock",
          "type": "uint256"
        },
        {
          "internalType": "uint256",
          "name": "signerIndex",
          "type": "uint256"
        }
      ],
      "name": "wasDownForInterval",
      "outputs": [
        {
          "internalType": "bool",
          "name": "",
          "type": "bool"
        }
      ],
      "payable": false,
      "stateMutability": "view",
      "type": "function"
    },
    {
      "constant": true,
      "inputs": [
        {
          "internalType": "uint256[]",
          "name": "startBlocks",
          "type": "uint256[]"
        },
        {
          "internalType": "uint256[]",
          "name": "endBlocks",
          "type": "uint256[]"
        },
        {
          "internalType": "uint256[]",
          "name": "signerIndices",
          "type": "uint256[]"
        }
      ],
      "name": "wasDownForIntervals",
      "outputs": [
        {
          "internalType": "bool",
          "name": "",
          "type": "bool"
        }
      ],
      "payable": false,
      "stateMutability": "view",
      "type": "function"
    }
  ],
  "bytecode": "0x60806040526001808060006200001a620000e360201b60201c565b9050806000806101000a81548173ffffffffffffffffffffffffffffffffffffffff021916908373ffffffffffffffffffffffffffffffffffffffff1602179055508073ffffffffffffffffffffffffffffffffffffffff16600073ffffffffffffffffffffffffffffffffffffffff167f8be0079c531659141344cd1fd0a4f28419497f9722a3daafe3b4186f6b6457e060405160405180910390a35080620000da576001600060146101000a81548160ff0219169083151502179055505b505050620000eb565b600033905090565b614dba80620000fb6000396000f3fe608060405234801561001057600080fd5b506004361061025e5760003560e01c80637b10399911610146578063a91ee0dc116100c3578063e50e652d11610087578063e50e652d1461164f578063ec611ffc14611691578063ec683072146116eb578063f2fde38b14611766578063fae8db0a146117aa578063fafec0f6146117ec5761025e565b8063a91ee0dc14611365578063bd0d9979146113a9578063d041d18a146113e1578063df4da46114611439578063e252e904146114575761025e565b80638f32d59b1161010a5780638f32d59b1461122b57806391275b4f1461124d5780639a7b3be7146112b95780639b2b592f146112d7578063a654a494146113195761025e565b80637b1039991461101257806387ee8a0f1461105c57806388498aaf1461107a5780638a883626146111125780638da5cb5b146111e15761025e565b8063462450c4116101df5780635d180adb116101a35780635d180adb14610d9257806367960e9114610e0a5780636c56c16d14610ed9578063715018a614610f115780637385e5da14610f1b5780637a3aebe414610f395761025e565b8063462450c414610b3b5780634b2c2f4414610c005780634d643e1714610ccf5780634ec81af114610cfd57806354255be014610d5f5761025e565b8063222d6b9f11610226578063222d6b9f146108cb57806323f0ab651461092357806329d24b6414610aad5780633b1eb4bf14610adb5780634227d97114610b1d5761025e565b80630a05cd8414610263578063123633ea14610288578063158ef93e146102f6578063190ad68b146103185780631bf0925b1461087b575b600080fd5b61026b611838565b604051808381526020018281526020019250505060405180910390f35b6102b46004803603602081101561029e57600080fd5b810190808035906020019092919050505061184a565b604051808273ffffffffffffffffffffffffffffffffffffffff1673ffffffffffffffffffffffffffffffffffffffff16815260200191505060405180910390f35b6102fe61199b565b604051808215151515815260200191505060405180910390f35b610879600480360361014081101561032f57600080fd5b810190808035906020019064010000000081111561034c57600080fd5b82018360208201111561035e57600080fd5b8035906020019184602083028401116401000000008311171561038057600080fd5b919080806020026020016040519081016040528093929190818152602001838360200280828437600081840152601f19601f820116905080830192505050505050509192919290803590602001906401000000008111156103e057600080fd5b8201836020820111156103f257600080fd5b8035906020019184602083028401116401000000008311171561041457600080fd5b919080806020026020016040519081016040528093929190818152602001838360200280828437600081840152601f19601f8201169050808301925050505050505091929192908035906020019064010000000081111561047457600080fd5b82018360208201111561048657600080fd5b803590602001918460208302840111640100000000831117156104a857600080fd5b919080806020026020016040519081016040528093929190818152602001838360200280828437600081840152601f19601f820116905080830192505050505050509192919290803590602001909291908035906020019064010000000081111561051257600080fd5b82018360208201111561052457600080fd5b8035906020019184602083028401116401000000008311171561054657600080fd5b919080806020026020016040519081016040528093929190818152602001838360200280828437600081840152601f19601f820116905080830192505050505050509192919290803590602001906401000000008111156105a657600080fd5b8201836020820111156105b857600080fd5b803590602001918460208302840111640100000000831117156105da57600080fd5b919080806020026020016040519081016040528093929190818152602001838360200280828437600081840152601f19601f8201169050808301925050505050505091929192908035906020019064010000000081111561063a57600080fd5b82018360208201111561064c57600080fd5b8035906020019184602083028401116401000000008311171561066e57600080fd5b919080806020026020016040519081016040528093929190818152602001838360200280828437600081840152601f19601f820116905080830192505050505050509192919290803590602001906401000000008111156106ce57600080fd5b8201836020820111156106e057600080fd5b8035906020019184602083028401116401000000008311171561070257600080fd5b919080806020026020016040519081016040528093929190818152602001838360200280828437600081840152601f19601f8201169050808301925050505050505091929192908035906020019064010000000081111561076257600080fd5b82018360208201111561077457600080fd5b8035906020019184602083028401116401000000008311171561079657600080fd5b919080806020026020016040519081016040528093929190818152602001838360200280828437600081840152601f19601f820116905080830192505050505050509192919290803590602001906401000000008111156107f657600080fd5b82018360208201111561080857600080fd5b8035906020019184602083028401116401000000008311171561082a57600080fd5b919080806020026020016040519081016040528093929190818152602001838360200280828437600081840152601f19601f8201169050808301925050505050505091929192905050506119ae565b005b6108b16004803603604081101561089157600080fd5b810190808035906020019092919080359060200190929190505050611c53565b604051808215151515815260200191505060405180910390f35b61090d600480360360208110156108e157600080fd5b81019080803573ffffffffffffffffffffffffffffffffffffffff169060200190929190505050611cc5565b6040518082815260200191505060405180910390f35b610a936004803603606081101561093957600080fd5b81019080803573ffffffffffffffffffffffffffffffffffffffff1690602001909291908035906020019064010000000081111561097657600080fd5b82018360208201111561098857600080fd5b803590602001918460018302840111640100000000831117156109aa57600080fd5b91908080601f016020809104026020016040519081016040528093929190818152602001838380828437600081840152601f19601f82011690508083019250505050505050919291929080359060200190640100000000811115610a0d57600080fd5b820183602082011115610a1f57600080fd5b80359060200191846001830284011164010000000083111715610a4157600080fd5b91908080601f016020809104026020016040519081016040528093929190818152602001838380828437600081840152601f19601f820116905080830192505050505050509192919290505050611cdd565b604051808215151515815260200191505060405180910390f35b610ad960048036036020811015610ac357600080fd5b8101908080359060200190929190505050611e96565b005b610b0760048036036020811015610af157600080fd5b8101908080359060200190929190505050611ea0565b6040518082815260200191505060405180910390f35b610b25611eba565b6040518082815260200191505060405180910390f35b610bfe60048036036040811015610b5157600080fd5b8101908080359060200190640100000000811115610b6e57600080fd5b820183602082011115610b8057600080fd5b80359060200191846001830284011164010000000083111715610ba257600080fd5b91908080601f016020809104026020016040519081016040528093929190818152602001838380828437600081840152601f19601f82011690508083019250505050505050919291929080359060200190929190505050611ec0565b005b610cb960048036036020811015610c1657600080fd5b8101908080359060200190640100000000811115610c3357600080fd5b820183602082011115610c4557600080fd5b80359060200191846001830284011164010000000083111715610c6757600080fd5b91908080601f016020809104026020016040519081016040528093929190818152602001838380828437600081840152601f19601f820116905080830192505050505050509192919290505050611f4d565b6040518082815260200191505060405180910390f35b610cfb60048036036020811015610ce557600080fd5b8101908080359060200190929190505050611fdb565b005b610d5d60048036036080811015610d1357600080fd5b81019080803573ffffffffffffffffffffffffffffffffffffffff1690602001909291908035906020019092919080359060200190929190803590602001909291905050506120f0565b005b610d676121b9565b6040518085815260200184815260200183815260200182815260200194505050505060405180910390f35b610dc860048036036040811015610da857600080fd5b8101908080359060200190929190803590602001909291905050506121e0565b604051808273ffffffffffffffffffffffffffffffffffffffff1673ffffffffffffffffffffffffffffffffffffffff16815260200191505060405180910390f35b610ec360048036036020811015610e2057600080fd5b8101908080359060200190640100000000811115610e3d57600080fd5b820183602082011115610e4f57600080fd5b80359060200191846001830284011164010000000083111715610e7157600080fd5b91908080601f016020809104026020016040519081016040528093929190818152602001838380828437600081840152601f19601f820116905080830192505050505050509192919290505050612254565b6040518082815260200191505060405180910390f35b610f0f60048036036040811015610eef57600080fd5b810190808035906020019092919080359060200190929190505050612265565b005b610f19612281565b005b610f236123ba565b6040518082815260200191505060405180910390f35b610ffc60048036036040811015610f4f57600080fd5b8101908080359060200190640100000000811115610f6c57600080fd5b820183602082011115610f7e57600080fd5b80359060200191846001830284011164010000000083111715610fa057600080fd5b91908080601f016020809104026020016040519081016040528093929190818152602001838380828437600081840152601f19601f820116905080830192505050505050509192919290803590602001909291905050506123ca565b6040518082815260200191505060405180910390f35b61101a61245b565b604051808273ffffffffffffffffffffffffffffffffffffffff1673ffffffffffffffffffffffffffffffffffffffff16815260200191505060405180910390f35b611064612481565b6040518082815260200191505060405180910390f35b6110d06004803603606081101561109057600080fd5b81019080803573ffffffffffffffffffffffffffffffffffffffff16906020019092919080359060200190929190803590602001909291905050506125c8565b604051808273ffffffffffffffffffffffffffffffffffffffff1673ffffffffffffffffffffffffffffffffffffffff16815260200191505060405180910390f35b6111cb6004803603602081101561112857600080fd5b810190808035906020019064010000000081111561114557600080fd5b82018360208201111561115757600080fd5b8035906020019184600183028401116401000000008311171561117957600080fd5b91908080601f016020809104026020016040519081016040528093929190818152602001838380828437600081840152601f19601f820116905080830192505050505050509192919290505050612739565b6040518082815260200191505060405180910390f35b6111e96127c7565b604051808273ffffffffffffffffffffffffffffffffffffffff1673ffffffffffffffffffffffffffffffffffffffff16815260200191505060405180910390f35b6112336127f0565b604051808215151515815260200191505060405180910390f35b6112a36004803603606081101561126357600080fd5b81019080803573ffffffffffffffffffffffffffffffffffffffff169060200190929190803590602001909291908035906020019092919050505061284e565b6040518082815260200191505060405180910390f35b6112c1612880565b6040518082815260200191505060405180910390f35b611303600480360360208110156112ed57600080fd5b8101908080359060200190929190505050612890565b6040518082815260200191505060405180910390f35b61134f6004803603604081101561132f57600080fd5b81019080803590602001909291908035906020019092919050505061289c565b6040518082815260200191505060405180910390f35b6113a76004803603602081101561137b57600080fd5b81019080803573ffffffffffffffffffffffffffffffffffffffff169060200190929190505050612ab1565b005b6113df600480360360408110156113bf57600080fd5b810190808035906020019092919080359060200190929190505050612c55565b005b611437600480360360608110156113f757600080fd5b810190808035906020019092919080359060200190929190803573ffffffffffffffffffffffffffffffffffffffff169060200190929190505050612d7e565b005b611441612e03565b6040518082815260200191505060405180910390f35b6116356004803603606081101561146d57600080fd5b810190808035906020019064010000000081111561148a57600080fd5b82018360208201111561149c57600080fd5b803590602001918460208302840111640100000000831117156114be57600080fd5b919080806020026020016040519081016040528093929190818152602001838360200280828437600081840152601f19601f8201169050808301925050505050505091929192908035906020019064010000000081111561151e57600080fd5b82018360208201111561153057600080fd5b8035906020019184602083028401116401000000008311171561155257600080fd5b919080806020026020016040519081016040528093929190818152602001838360200280828437600081840152601f19601f820116905080830192505050505050509192919290803590602001906401000000008111156115b257600080fd5b8201836020820111156115c457600080fd5b803590602001918460208302840111640100000000831117156115e657600080fd5b919080806020026020016040519081016040528093929190818152602001838360200280828437600081840152601f19601f820116905080830192505050505050509192919290505050612f3f565b604051808215151515815260200191505060405180910390f35b61167b6004803603602081101561166557600080fd5b8101908080359060200190929190505050613427565b6040518082815260200191505060405180910390f35b6116d1600480360360608110156116a757600080fd5b81019080803590602001909291908035906020019092919080359060200190929190505050613472565b604051808215151515815260200191505060405180910390f35b611749600480360360c081101561170157600080fd5b810190808035906020019092919080359060200190929190803590602001909291908035906020019092919080359060200190929190803590602001909291905050506135ac565b604051808381526020018281526020019250505060405180910390f35b6117a86004803603602081101561177c57600080fd5b81019080803573ffffffffffffffffffffffffffffffffffffffff1690602001909291905050506137c0565b005b6117d6600480360360208110156117c057600080fd5b8101908080359060200190929190505050613846565b6040518082815260200191505060405180910390f35b6118226004803603604081101561180257600080fd5b810190808035906020019092919080359060200190929190505050613863565b6040518082815260200191505060405180910390f35b60028060000154908060010154905082565b60006060600060fa73ffffffffffffffffffffffffffffffffffffffff16844360405160200180838152602001828152602001925050506040516020818303038152906040526040518082805190602001908083835b602083106118c357805182526020820191506020810190506020830392506118a0565b6001836020036101000a038019825116818451168082178552505050505050905001915050600060405180830381855afa9150503d8060008114611923576040519150601f19603f3d011682016040523d82523d6000602084013e611928565b606091505b50809350819250505080611987576040517f08c379a000000000000000000000000000000000000000000000000000000000815260040180806020018281038252603d815260200180614aff603d913960400191505060405180910390fd5b6119928260006139b0565b92505050919050565b600060149054906101000a900460ff1681565b60008a6000815181106119bd57fe5b6020026020010151905060008a6119df60018d516139c790919063ffffffff16565b815181106119e957fe5b60200260200101519050600654611a1c6001611a0e85856139c790919063ffffffff16565b613a1190919063ffffffff16565b1015611a73576040517f08c379a0000000000000000000000000000000000000000000000000000000008152600401808060200182810382526039815260200180614a556039913960400191505060405180910390fd5b6000611a938b600081518110611a8557fe5b602002602001015184613a99565b9050600460008273ffffffffffffffffffffffffffffffffffffffff1673ffffffffffffffffffffffffffffffffffffffff168152602001908152602001600020548311611b2c576040517f08c379a0000000000000000000000000000000000000000000000000000000008152600401808060200182810382526050815260200180614a8e6050913960600191505060405180910390fd5b611b378d8d8d612f3f565b611ba9576040517f08c379a00000000000000000000000000000000000000000000000000000000081526004018080602001828103825260088152602001807f6e6f7420646f776e00000000000000000000000000000000000000000000000081525060200191505060405180910390fd5b81600460008373ffffffffffffffffffffffffffffffffffffffff1673ffffffffffffffffffffffffffffffffffffffff16815260200190815260200160002081905550611bff8133858d8d8d8d8d8d8d613b6b565b81838273ffffffffffffffffffffffffffffffffffffffff167f229d63d990a0f1068a86ee5bdce0b23fe156ff5d5174cc634d5da8ed3618e0c960405160405180910390a450505050505050505050505050565b60008060001b600560003373ffffffffffffffffffffffffffffffffffffffff1673ffffffffffffffffffffffffffffffffffffffff16815260200190815260200160002060008581526020019081526020016000206000848152602001908152602001600020541415905092915050565b60046020528060005260406000206000915090505481565b60008060fb73ffffffffffffffffffffffffffffffffffffffff16858585604051602001808473ffffffffffffffffffffffffffffffffffffffff1673ffffffffffffffffffffffffffffffffffffffff1660601b815260140183805190602001908083835b60208310611d665780518252602082019150602081019050602083039250611d43565b6001836020036101000a03801982511681845116808217855250505050505090500182805190602001908083835b60208310611db75780518252602082019150602081019050602083039250611d94565b6001836020036101000a03801982511681845116808217855250505050505090500193505050506040516020818303038152906040526040518082805190602001908083835b60208310611e205780518252602082019150602081019050602083039250611dfd565b6001836020036101000a038019825116818451168082178552505050505050905001915050600060405180830381855afa9150503d8060008114611e80576040519150601f19603f3d011682016040523d82523d6000602084013e611e85565b606091505b505080915050809150509392505050565b80600a8190555050565b6000611eb382611eae612e03565b614086565b9050919050565b60065481565b8060076000846040516020018082805190602001908083835b60208310611efc5780518252602082019150602081019050602083039250611ed9565b6001836020036101000a038019825116818451168082178552505050505050905001915050604051602081830303815290604052805190602001208152602001908152602001600020819055505050565b600060076000836040516020018082805190602001908083835b60208310611f8a5780518252602082019150602081019050602083039250611f67565b6001836020036101000a038019825116818451168082178552505050505050905001915050604051602081830303815290604052805190602001208152602001908152602001600020549050919050565b611fe36127f0565b612055576040517f08c379a00000000000000000000000000000000000000000000000000000000081526004018080602001828103825260208152602001807f4f776e61626c653a2063616c6c6572206973206e6f7420746865206f776e657281525060200191505060405180910390fd5b60008114156120af576040517f08c379a000000000000000000000000000000000000000000000000000000000815260040180806020018281038252602181526020018061494d6021913960400191505060405180910390fd5b806006819055507fc3293b70d45615822039f6f13747ece88efbbb4e645c42070413a6c3fd21d771816040518082815260200191505060405180910390a150565b600060149054906101000a900460ff1615612173576040517f08c379a000000000000000000000000000000000000000000000000000000000815260040180806020018281038252601c8152602001807f636f6e747261637420616c726561647920696e697469616c697a65640000000081525060200191505060405180910390fd5b6001600060146101000a81548160ff021916908315150217905550612197336140ce565b6121a084612ab1565b6121aa8383612c55565b6121b381611fdb565b50505050565b60008060008060026000806000839350829250819150809050935093509350935090919293565b6000600960006121ef84614212565b85604051602001808381526020018281526020019250505060405160208183030381529060405280519060200120815260200190815260200160002060009054906101000a900473ffffffffffffffffffffffffffffffffffffffff16905092915050565b600081805190602001209050919050565b8060086000848152602001908152602001600020819055505050565b6122896127f0565b6122fb576040517f08c379a00000000000000000000000000000000000000000000000000000000081526004018080602001828103825260208152602001807f4f776e61626c653a2063616c6c6572206973206e6f7420746865206f776e657281525060200191505060405180910390fd5b600073ffffffffffffffffffffffffffffffffffffffff166000809054906101000a900473ffffffffffffffffffffffffffffffffffffffff1673ffffffffffffffffffffffffffffffffffffffff167f8be0079c531659141344cd1fd0a4f28419497f9722a3daafe3b4186f6b6457e060405160405180910390a360008060006101000a81548173ffffffffffffffffffffffffffffffffffffffff021916908373ffffffffffffffffffffffffffffffffffffffff160217905550565b60006123c543613427565b905090565b600081600b6000856040516020018082805190602001908083835b6020831061240857805182526020820191506020810190506020830392506123e5565b6001836020036101000a0380198251168184511680821785525050505050509050019150506040516020818303038152906040528051906020012081526020019081526020016000208190555092915050565b600160009054906101000a900473ffffffffffffffffffffffffffffffffffffffff1681565b60006060600060f973ffffffffffffffffffffffffffffffffffffffff1643604051602001808281526020019150506040516020818303038152906040526040518082805190602001908083835b602083106124f257805182526020820191506020810190506020830392506124cf565b6001836020036101000a038019825116818451168082178552505050505050905001915050600060405180830381855afa9150503d8060008114612552576040519150601f19603f3d011682016040523d82523d6000602084013e612557565b606091505b508093508192505050806125b6576040517f08c379a0000000000000000000000000000000000000000000000000000000008152600401808060200182810382526035815260200180614b3c6035913960400191505060405180910390fd5b6125c18260006139b0565b9250505090565b6000806125d484611ea0565b9050600081141561264d576040517f08c379a00000000000000000000000000000000000000000000000000000000081526004018080602001828103825260178152602001807f43616e6e6f7420736c617368206f6e2065706f6368203000000000000000000081525060200191505060405180910390fd5b612655614251565b73ffffffffffffffffffffffffffffffffffffffff1663eb1d0b42866126856001856139c790919063ffffffff16565b866040518463ffffffff1660e01b8152600401808473ffffffffffffffffffffffffffffffffffffffff1673ffffffffffffffffffffffffffffffffffffffff168152602001838152602001828152602001935050505060206040518083038186803b1580156126f457600080fd5b505afa158015612708573d6000803e3d6000fd5b505050506040513d602081101561271e57600080fd5b81019080805190602001909291905050509150509392505050565b6000600b6000836040516020018082805190602001908083835b602083106127765780518252602082019150602081019050602083039250612753565b6001836020036101000a038019825116818451168082178552505050505050905001915050604051602081830303815290604052805190602001208152602001908152602001600020549050919050565b60008060009054906101000a900473ffffffffffffffffffffffffffffffffffffffff16905090565b60008060009054906101000a900473ffffffffffffffffffffffffffffffffffffffff1673ffffffffffffffffffffffffffffffffffffffff1661283261434c565b73ffffffffffffffffffffffffffffffffffffffff1614905090565b600560205282600052604060002060205281600052604060002060205280600052604060002060009250925050505481565b600061288b43611ea0565b905090565b6000600a549050919050565b6000828210156128f7576040517f08c379a0000000000000000000000000000000000000000000000000000000008152600401808060200182810382526031815260200180614c596031913960400191505060405180910390fd5b600061290d6002436139c790919063ffffffff16565b905080831115612968576040517f08c379a0000000000000000000000000000000000000000000000000000000008152600401808060200182810382526036815260200180614d506036913960400191505060405180910390fd5b6000612972612e03565b905061298860048261435490919063ffffffff16565b61299b86436139c790919063ffffffff16565b106129f1576040517f08c379a0000000000000000000000000000000000000000000000000000000008152600401808060200182810382526036815260200180614ce96036913960400191505060405180910390fd5b6129fb8482614086565b612a058683614086565b14612a5b576040517f08c379a0000000000000000000000000000000000000000000000000000000008152600401808060200182810382526031815260200180614d1f6031913960400191505060405180910390fd5b6000808690505b858111612aa457612a85612a80600183613a1190919063ffffffff16565b613846565b82179150612a9d600182613a1190919063ffffffff16565b9050612a62565b5080935050505092915050565b612ab96127f0565b612b2b576040517f08c379a00000000000000000000000000000000000000000000000000000000081526004018080602001828103825260208152602001807f4f776e61626c653a2063616c6c6572206973206e6f7420746865206f776e657281525060200191505060405180910390fd5b600073ffffffffffffffffffffffffffffffffffffffff168173ffffffffffffffffffffffffffffffffffffffff161415612bce576040517f08c379a00000000000000000000000000000000000000000000000000000000081526004018080602001828103825260208152602001807f43616e6e6f7420726567697374657220746865206e756c6c206164647265737381525060200191505060405180910390fd5b80600160006101000a81548173ffffffffffffffffffffffffffffffffffffffff021916908373ffffffffffffffffffffffffffffffffffffffff1602179055508073ffffffffffffffffffffffffffffffffffffffff167f27fe5f0c1c3b1ed427cc63d0f05759ffdecf9aec9e18d31ef366fc8a6cb5dc3b60405160405180910390a250565b612c5d6127f0565b612ccf576040517f08c379a00000000000000000000000000000000000000000000000000000000081526004018080602001828103825260208152602001807f4f776e61626c653a2063616c6c6572206973206e6f7420746865206f776e657281525060200191505060405180910390fd5b808211612d27576040517f08c379a000000000000000000000000000000000000000000000000000000000815260040180806020018281038252602481526020018061496e6024913960400191505060405180910390fd5b81600260000181905550806002600101819055507f716dc7c34384df36c6ccc5a2949f2ce9b019f5d4075ef39139a80038a4fdd1c38282604051808381526020018281526020019250505060405180910390a15050565b80600960008585604051602001808381526020018281526020019250505060405160208183030381529060405280519060200120815260200190815260200160002060006101000a81548173ffffffffffffffffffffffffffffffffffffffff021916908373ffffffffffffffffffffffffffffffffffffffff160217905550505050565b60006060600060f873ffffffffffffffffffffffffffffffffffffffff166040516020016040516020818303038152906040526040518082805190602001908083835b60208310612e695780518252602082019150602081019050602083039250612e46565b6001836020036101000a038019825116818451168082178552505050505050905001915050600060405180830381855afa9150503d8060008114612ec9576040519150601f19603f3d011682016040523d82523d6000602084013e612ece565b606091505b50809350819250505080612f2d576040517f08c379a0000000000000000000000000000000000000000000000000000000008152600401808060200182810382526025815260200180614c346025913960400191505060405180910390fd5b612f388260006139b0565b9250505090565b600080845111612fb7576040517f08c379a000000000000000000000000000000000000000000000000000000000815260040180806020018281038252601e8152602001807f7265717569726573206174206c65617374206f6e6520696e74657276616c000081525060200191505060405180910390fd5b8251845114613011576040517f08c379a00000000000000000000000000000000000000000000000000000000081526004018080602001828103825260338152602001806149e16033913960400191505060405180910390fd5b600082511161306b576040517f08c379a0000000000000000000000000000000000000000000000000000000008152600401808060200182810382526021815260200180614ade6021913960400191505060405180910390fd5b6000613075612e03565b9050600080905060008090505b86518110156134185760008111156133a9578681815181106130a057fe5b6020026020010151876130bd6001846139c790919063ffffffff16565b815181106130c757fe5b602002602001015110613125576040517f08c379a0000000000000000000000000000000000000000000000000000000008152600401808060200182810382526041815260200180614a146041913960600191505060405180910390fd5b61315f60018761313f6001856139c790919063ffffffff16565b8151811061314957fe5b6020026020010151613a1190919063ffffffff16565b87828151811061316b57fe5b602002602001015111156131ca576040517f08c379a0000000000000000000000000000000000000000000000000000000008152600401808060200182810382526051815260200180614b716051913960600191505060405180910390fd5b8581815181106131d657fe5b6020026020010151866131f36001846139c790919063ffffffff16565b815181106131fd57fe5b60200260200101511061325b576040517f08c379a000000000000000000000000000000000000000000000000000000000815260040180806020018281038252603d815260200180614cac603d913960400191505060405180910390fd5b60016132838489848151811061326d57fe5b60200260200101516143da90919063ffffffff16565b14156133a8576132cc856132a1600185613a1190919063ffffffff16565b815181106132ab57fe5b60200260200101518883815181106132bf57fe5b6020026020010151613a99565b73ffffffffffffffffffffffffffffffffffffffff166133258684815181106132f157fe5b602002602001015161332060018b868151811061330a57fe5b60200260200101516139c790919063ffffffff16565b613a99565b73ffffffffffffffffffffffffffffffffffffffff1614613391576040517f08c379a000000000000000000000000000000000000000000000000000000000815260040180806020018281038252602a815260200180614bc2602a913960400191505060405180910390fd5b6133a5600183613a1190919063ffffffff16565b91505b5b6133ed8782815181106133b857fe5b60200260200101518783815181106133cc57fe5b60200260200101518785815181106133e057fe5b6020026020010151613472565b6133fd5760009350505050613420565b613411600182613a1190919063ffffffff16565b9050613082565b506001925050505b9392505050565b600061346b600361345d600261344f600261344188612890565b61435490919063ffffffff16565b613a1190919063ffffffff16565b61442490919063ffffffff16565b9050919050565b600061347d84612890565b82106134d4576040517f08c379a0000000000000000000000000000000000000000000000000000000008152600401808060200182810382526022815260200180614c8a6022913960400191505060405180910390fd5b6134de8484611c53565b613533576040517f08c379a00000000000000000000000000000000000000000000000000000000081526004018080602001828103825260298152602001806149926029913960400191505060405180910390fd5b6000801b826001901b60001b600560003373ffffffffffffffffffffffffffffffffffffffff1673ffffffffffffffffffffffffffffffffffffffff1681526020019081526020016000206000878152602001908152602001600020600086815260200190815260200160002054161490509392505050565b600080600087141580156135c1575060008514155b613633576040517f08c379a00000000000000000000000000000000000000000000000000000000081526004018080602001828103825260158152602001807f612064656e6f6d696e61746f72206973207a65726f000000000000000000000081525060200191505060405180910390fd5b6000806000606060fc73ffffffffffffffffffffffffffffffffffffffff168c8c8c8c8c8c6040516020018087815260200186815260200185815260200184815260200183815260200182815260200196505050505050506040516020818303038152906040526040518082805190602001908083835b602083106136cd57805182526020820191506020810190506020830392506136aa565b6001836020036101000a038019825116818451168082178552505050505050905001915050600060405180830381855afa9150503d806000811461372d576040519150601f19603f3d011682016040523d82523d6000602084013e613732565b606091505b50809250819350505081613791576040517f08c379a0000000000000000000000000000000000000000000000000000000008152600401808060200182810382526027815260200180614c0d6027913960400191505060405180910390fd5b61379c8160006139b0565b93506137a98160206139b0565b925083839550955050505050965096945050505050565b6137c86127f0565b61383a576040517f08c379a00000000000000000000000000000000000000000000000000000000081526004018080602001828103825260208152602001807f4f776e61626c653a2063616c6c6572206973206e6f7420746865206f776e657281525060200191505060405180910390fd5b613843816140ce565b50565b600060086000838152602001908152602001600020549050919050565b600061386f8383611c53565b156138e2576040517f08c379a00000000000000000000000000000000000000000000000000000000081526004018080602001828103825260128152602001807f6269746d617020616c726561647920736574000000000000000000000000000081525060200191505060405180910390fd5b60006138ee848461289c565b905080600560003373ffffffffffffffffffffffffffffffffffffffff1673ffffffffffffffffffffffffffffffffffffffff168152602001908152602001600020600086815260200190815260200160002060008581526020019081526020016000208190555082843373ffffffffffffffffffffffffffffffffffffffff167f0aa96aa275a5f936eed2a6a01f082594744dcc2510f575101366f8f479f03235846040518082815260200191505060405180910390a48091505092915050565b60006139bc838361446e565b60001c905092915050565b6000613a0983836040518060400160405280601e81526020017f536166654d6174683a207375627472616374696f6e206f766572666c6f77000081525061450f565b905092915050565b600080828401905083811015613a8f576040517f08c379a000000000000000000000000000000000000000000000000000000000815260040180806020018281038252601b8152602001807f536166654d6174683a206164646974696f6e206f766572666c6f77000000000081525060200191505060405180910390fd5b8091505092915050565b6000613aa36145cf565b73ffffffffffffffffffffffffffffffffffffffff166393c5c487613ac885856121e0565b6040518263ffffffff1660e01b8152600401808273ffffffffffffffffffffffffffffffffffffffff1673ffffffffffffffffffffffffffffffffffffffff16815260200191505060206040518083038186803b158015613b2857600080fd5b505afa158015613b3c573d6000803e3d6000fd5b505050506040513d6020811015613b5257600080fd5b8101908080519060200190929190505050905092915050565b6000613b756146ca565b90508073ffffffffffffffffffffffffffffffffffffffff166331993fc98c6002600001548d6002600101548c8c8c6040518863ffffffff1660e01b8152600401808873ffffffffffffffffffffffffffffffffffffffff1673ffffffffffffffffffffffffffffffffffffffff1681526020018781526020018673ffffffffffffffffffffffffffffffffffffffff1673ffffffffffffffffffffffffffffffffffffffff168152602001858152602001806020018060200180602001848103845287818151815260200191508051906020019060200280838360005b83811015613c6e578082015181840152602081019050613c53565b50505050905001848103835286818151815260200191508051906020019060200280838360005b83811015613cb0578082015181840152602081019050613c95565b50505050905001848103825285818151815260200191508051906020019060200280838360005b83811015613cf2578082015181840152602081019050613cd7565b505050509050019a5050505050505050505050600060405180830381600087803b158015613d1f57600080fd5b505af1158015613d33573d6000803e3d6000fd5b505050506000613d448c8b8b6125c8565b9050600073ffffffffffffffffffffffffffffffffffffffff168173ffffffffffffffffffffffffffffffffffffffff161415613d7d57fe5b8173ffffffffffffffffffffffffffffffffffffffff166331993fc9826002600001548e6002600101548a8a8a6040518863ffffffff1660e01b8152600401808873ffffffffffffffffffffffffffffffffffffffff1673ffffffffffffffffffffffffffffffffffffffff1681526020018781526020018673ffffffffffffffffffffffffffffffffffffffff1673ffffffffffffffffffffffffffffffffffffffff168152602001858152602001806020018060200180602001848103845287818151815260200191508051906020019060200280838360005b83811015613e74578082015181840152602081019050613e59565b50505050905001848103835286818151815260200191508051906020019060200280838360005b83811015613eb6578082015181840152602081019050613e9b565b50505050905001848103825285818151815260200191508051906020019060200280838360005b83811015613ef8578082015181840152602081019050613edd565b505050509050019a5050505050505050505050600060405180830381600087803b158015613f2557600080fd5b505af1158015613f39573d6000803e3d6000fd5b505050506000613f47614251565b90508073ffffffffffffffffffffffffffffffffffffffff1663e33301aa8e6040518263ffffffff1660e01b8152600401808273ffffffffffffffffffffffffffffffffffffffff1673ffffffffffffffffffffffffffffffffffffffff168152602001915050600060405180830381600087803b158015613fc857600080fd5b505af1158015613fdc573d6000803e3d6000fd5b505050508073ffffffffffffffffffffffffffffffffffffffff1663c22d3bba836040518263ffffffff1660e01b8152600401808273ffffffffffffffffffffffffffffffffffffffff1673ffffffffffffffffffffffffffffffffffffffff168152602001915050600060405180830381600087803b15801561405f57600080fd5b505af1158015614073573d6000803e3d6000fd5b5050505050505050505050505050505050565b60008082848161409257fe5b04905060008385816140a057fe5b0614156140b057809150506140c8565b6140c4600182613a1190919063ffffffff16565b9150505b92915050565b600073ffffffffffffffffffffffffffffffffffffffff168173ffffffffffffffffffffffffffffffffffffffff161415614154576040517f08c379a00000000000000000000000000000000000000000000000000000000081526004018080602001828103825260268152602001806149bb6026913960400191505060405180910390fd5b8073ffffffffffffffffffffffffffffffffffffffff166000809054906101000a900473ffffffffffffffffffffffffffffffffffffffff1673ffffffffffffffffffffffffffffffffffffffff167f8be0079c531659141344cd1fd0a4f28419497f9722a3daafe3b4186f6b6457e060405160405180910390a3806000806101000a81548173ffffffffffffffffffffffffffffffffffffffff021916908373ffffffffffffffffffffffffffffffffffffffff16021790555050565b60008060649050600081848161422457fe5b049050600082858161423257fe5b06141561424357809250505061424c565b60018101925050505b919050565b6000600160009054906101000a900473ffffffffffffffffffffffffffffffffffffffff1673ffffffffffffffffffffffffffffffffffffffff1663dcf0aaed60405160200180807f56616c696461746f727300000000000000000000000000000000000000000000815250600a019050604051602081830303815290604052805190602001206040518263ffffffff1660e01b81526004018082815260200191505060206040518083038186803b15801561430c57600080fd5b505afa158015614320573d6000803e3d6000fd5b505050506040513d602081101561433657600080fd5b8101908080519060200190929190505050905090565b600033905090565b60008083141561436757600090506143d4565b600082840290508284828161437857fe5b04146143cf576040517f08c379a0000000000000000000000000000000000000000000000000000000008152600401808060200182810382526021815260200180614bec6021913960400191505060405180910390fd5b809150505b92915050565b600061441c83836040518060400160405280601881526020017f536166654d6174683a206d6f64756c6f206279207a65726f00000000000000008152506147c5565b905092915050565b600061446683836040518060400160405280601a81526020017f536166654d6174683a206469766973696f6e206279207a65726f000000000000815250614886565b905092915050565b6000614484602083613a1190919063ffffffff16565b835110156144fa576040517f08c379a00000000000000000000000000000000000000000000000000000000081526004018080602001828103825260148152602001807f736c6963696e67206f7574206f662072616e676500000000000000000000000081525060200191505060405180910390fd5b60006020830184015190508091505092915050565b60008383111582906145bc576040517f08c379a00000000000000000000000000000000000000000000000000000000081526004018080602001828103825283818151815260200191508051906020019080838360005b83811015614581578082015181840152602081019050614566565b50505050905090810190601f1680156145ae5780820380516001836020036101000a031916815260200191505b509250505060405180910390fd5b5060008385039050809150509392505050565b6000600160009054906101000a900473ffffffffffffffffffffffffffffffffffffffff1673ffffffffffffffffffffffffffffffffffffffff1663dcf0aaed60405160200180807f4163636f756e74730000000000000000000000000000000000000000000000008152506008019050604051602081830303815290604052805190602001206040518263ffffffff1660e01b81526004018082815260200191505060206040518083038186803b15801561468a57600080fd5b505afa15801561469e573d6000803e3d6000fd5b505050506040513d60208110156146b457600080fd5b8101908080519060200190929190505050905090565b6000600160009054906101000a900473ffffffffffffffffffffffffffffffffffffffff1673ffffffffffffffffffffffffffffffffffffffff1663dcf0aaed60405160200180807f4c6f636b6564476f6c6400000000000000000000000000000000000000000000815250600a019050604051602081830303815290604052805190602001206040518263ffffffff1660e01b81526004018082815260200191505060206040518083038186803b15801561478557600080fd5b505afa158015614799573d6000803e3d6000fd5b505050506040513d60208110156147af57600080fd5b8101908080519060200190929190505050905090565b6000808314158290614872576040517f08c379a00000000000000000000000000000000000000000000000000000000081526004018080602001828103825283818151815260200191508051906020019080838360005b8381101561483757808201518184015260208101905061481c565b50505050905090810190601f1680156148645780820380516001836020036101000a031916815260200191505b509250505060405180910390fd5b5082848161487c57fe5b0690509392505050565b60008083118290614932576040517f08c379a00000000000000000000000000000000000000000000000000000000081526004018080602001828103825283818151815260200191508051906020019080838360005b838110156148f75780820151818401526020810190506148dc565b50505050905090810190601f1680156149245780820380516001836020036101000a031916815260200191505b509250505060405180910390fd5b50600083858161493e57fe5b04905080915050939250505056fe736c61736861626c6520646f776e74696d652063616e6e6f74206265207a65726f50656e616c74792068617320746f206265206c6172676572207468616e207265776172646269746d617020666f722073706563696669656420696e74657276616c206e6f7420796574207365744f776e61626c653a206e6577206f776e657220697320746865207a65726f20616464726573737374617274426c6f636b7320616e6420656e64426c6f636b73206d7573742068617665207468652073616d65206c656e6774686561636820696e74657276616c206d75737420737461727420616674657220746865207374617274206f66207468652070726576696f757320696e74657276616c7468652070726f766964656420696e74657276616c73206d757374207370616e20736c61736861626c65446f776e74696d6520626c6f636b7363616e6e6f7420736c6173682076616c696461746f7220666f7220646f776e74696d6520666f722077686963682074686579206d617920616c72656164792068617665206265656e20736c61736865647265717569726573206174206c65617374206f6e65207369676e6572496e6465786572726f722063616c6c696e672076616c696461746f725369676e65724164647265737346726f6d43757272656e7453657420707265636f6d70696c656572726f722063616c6c696e67206e756d62657256616c696461746f7273496e43757272656e7453657420707265636f6d70696c656561636820696e74657276616c206d757374207374617274206174206d6f7374206f6e6520626c6f636b2061667465722074686520656e64206f66207468652070726576696f757320696e74657276616c696e646963657320646f206e6f7420706f696e7420746f207468652073616d652076616c696461746f72536166654d6174683a206d756c7469706c69636174696f6e206f766572666c6f776572726f722063616c6c696e67206672616374696f6e4d756c45787020707265636f6d70696c656572726f722063616c6c696e672067657445706f636853697a6520707265636f6d70696c65656e64426c6f636b206d7573742062652067726561746572206f7220657175616c207468616e207374617274426c6f636b6261642076616c696461746f7220696e64657820617420737461727420626c6f636b6561636820696e74657276616c206d75737420656e642061667465722074686520656e64206f66207468652070726576696f757320696e74657276616c7374617274426c6f636b206d7573742062652077697468696e20342065706f636873206f66207468652063757272656e7420686561647374617274426c6f636b20616e6420656e64426c6f636b206d75737420626520696e207468652073616d652065706f6368746865207369676e6174757265206269746d617020666f7220656e64426c6f636b206973206e6f742079657420617661696c61626c65a265627a7a723158200f228fc68b7583914eaf9f3d2fa45d350fa8baed4d7430a889f98935facab0eb64736f6c634300050d0032",
  "source": "pragma solidity ^0.5.13;\n\nimport \"../DowntimeSlasher.sol\";\nimport \"./MockUsingPrecompiles.sol\";\n\ncontract DowntimeSlasherTest is DowntimeSlasher(true), MockUsingPrecompiles {}\n",
  "sourcePath": "/Users/beaver/Development/celo/celo-monorepo/packages/protocol/contracts/governance/test/DowntimeSlasherTest.sol",
  "compiler": {
    "name": "solc",
    "version": "0.5.13+commit.5b0b510c.Emscripten.clang"
  },
  "schemaVersion": "3.4.13",
  "updatedAt": "2024-03-05T15:18:24.376Z",
  "devdoc": {
    "methods": {
      "checkProofOfPossession(address,bytes,bytes)": {
        "params": {
          "blsKey": "The BLS public key that the validator is using for consensus, should pass proof  of possession. 48 bytes.",
          "blsPop": "The BLS public key proof-of-possession, which consists of a signature on the  account address. 96 bytes.",
          "sender": "The address signed by the BLS key to generate the proof of possession."
        },
        "return": "True upon success."
      },
      "fractionMulExp(uint256,uint256,uint256,uint256,uint256,uint256)": {
        "params": {
          "_decimals": "precision",
          "aDenominator": "Denominator of first fraction",
          "aNumerator": "Numerator of first fraction",
          "bDenominator": "Denominator of exponentiated fraction",
          "bNumerator": "Numerator of exponentiated fraction",
          "exponent": "exponent to raise b to"
        },
        "return": "Numerator of the computed quantity (not reduced).Denominator of the computed quantity (not reduced)."
      },
      "getBitmapForInterval(uint256,uint256)": {
        "details": "startBlock and endBlock must be in the same epoch.The getParentSealBitmap precompile requires that startBlock must be within 4 epochs of  the current block.",
        "params": {
          "endBlock": "Last block of the interval.",
          "startBlock": "First block of the interval."
        },
        "return": "The signature uptime bitmap for the specified interval."
      },
      "getEpochNumber()": {
        "return": "Current epoch number."
      },
      "getEpochNumberOfBlock(uint256)": {
        "params": {
          "blockNumber": "Block number where epoch number is calculated."
        },
        "return": "Epoch number."
      },
      "getEpochSize()": {
        "return": "The current epoch size in blocks."
      },
      "getVersionNumber()": {
        "return": "Storage version of the contract.Major version of the contract.Minor version of the contract.Patch version of the contract."
      },
      "groupMembershipAtBlock(address,uint256,uint256)": {
        "params": {
          "blockNumber": "Block number associated with slashing.",
          "groupMembershipHistoryIndex": "Index used for history lookup.",
          "validator": "Validator that was slashed."
        },
        "return": "Group to be slashed."
      },
      "initialize(address,uint256,uint256,uint256)": {
        "params": {
          "_penalty": "Penalty for the slashed validator.",
          "_reward": "Reward that the observer gets.",
          "_slashableDowntime": "Slashable downtime in blocks.",
          "registryAddress": "The address of the registry core smart contract."
        }
      },
      "isBitmapSetForInterval(uint256,uint256)": {
        "params": {
          "endBlock": "Last block of the interval.",
          "startBlock": "First block of the interval."
        },
        "return": "True if the bitmap has been set for the specified interval."
      },
      "isOwner()": {
        "details": "Returns true if the caller is the current owner."
      },
      "minQuorumSize(uint256)": {
        "details": "Computed in celo-blockchain as int(math.Ceil(float64(2*valSet.Size()) / 3))"
      },
      "minQuorumSizeInCurrentSet()": {
        "return": "Byzantine quorum of validators."
      },
      "numberValidatorsInCurrentSet()": {
        "return": "Size of the current elected validator set."
      },
      "owner()": {
        "details": "Returns the address of the current owner."
      },
      "renounceOwnership()": {
        "details": "Leaves the contract without owner. It will not be possible to call `onlyOwner` functions anymore. Can only be called by the current owner.     * NOTE: Renouncing ownership will leave the contract without an owner, thereby removing any functionality that is only available to the owner."
      },
      "setBitmapForInterval(uint256,uint256)": {
        "details": "startBlock and endBlock must be in the same epoch.",
        "params": {
          "endBlock": "Last block of the interval.",
          "startBlock": "First block of the interval."
        },
        "return": "The signature bitmap for the specified interval."
      },
      "setRegistry(address)": {
        "params": {
          "registryAddress": "The address of a registry contract for routing to other contracts."
        }
      },
      "setSlashableDowntime(uint256)": {
        "params": {
          "interval": "Slashable downtime in blocks."
        }
      },
      "setSlashingIncentives(uint256,uint256)": {
        "params": {
          "penalty": "Penalty for the slashed signer.",
          "reward": "Reward that the observer gets."
        }
      },
      "slash(uint256[],uint256[],uint256[],uint256,address[],address[],uint256[],address[],address[],uint256[])": {
        "details": "startBlocks[0] will be use as the startBlock of the slashableDowntime.",
        "params": {
          "endBlocks": "A list of interval end blocks for which signature bitmaps have already been set.",
          "groupElectionGreaters": "Greater pointers for group slashing.",
          "groupElectionIndices": "Vote indices for group slashing.",
          "groupElectionLessers": "Lesser pointers for group slashing.",
          "groupMembershipHistoryIndex": "Group membership index from where the group should be found (For start block).",
          "signerIndices": "The index of the provided validator for each epoch over which the provided intervals span.",
          "startBlocks": "A list of interval start blocks for which signature bitmaps have already been set.",
          "validatorElectionGreaters": "Greater pointers for validator slashing.",
          "validatorElectionIndices": "Vote indices for validator slashing.",
          "validatorElectionLessers": "Lesser pointers for validator slashing."
        }
      },
      "transferOwnership(address)": {
        "details": "Transfers ownership of the contract to a new account (`newOwner`). Can only be called by the current owner."
      },
      "validatorSignerAddressFromCurrentSet(uint256)": {
        "params": {
          "index": "Index of requested validator in the validator set."
        },
        "return": "Address of validator at the requested index."
      },
      "wasDownForInterval(uint256,uint256,uint256)": {
        "details": "Both startBlock and endBlock should be part of the same epoch.",
        "params": {
          "endBlock": "Last block of the interval.",
          "signerIndex": "Index of the signer within the validator set.",
          "startBlock": "First block of the interval."
        },
        "return": "True if the validator did not sign any blocks in the specified interval."
      },
      "wasDownForIntervals(uint256[],uint256[],uint256[])": {
        "params": {
          "endBlocks": "A list of interval end blocks for which signature bitmaps have already been set.",
          "signerIndices": "Indices of the signer within the validator set for every epoch change.",
          "startBlocks": "A list of interval start blocks for which signature bitmaps have already been set."
        },
        "return": "True if the validator signature does not appear in any block within the window."
      }
    }
  },
  "userdoc": {
    "methods": {
      "checkProofOfPossession(address,bytes,bytes)": {
        "notice": "Checks a BLS proof of possession."
      },
      "fractionMulExp(uint256,uint256,uint256,uint256,uint256,uint256)": {
        "notice": "calculate a * b^x for fractions a, b to `decimals` precision"
      },
      "getBitmapForInterval(uint256,uint256)": {
        "notice": "Calculates and returns the signature bitmap for the specified interval. This bitmap will contain a one for any validator that signed at least one block in that interval, and zero otherwise."
      },
      "getEpochNumber()": {
        "notice": "Returns the epoch number at a block."
      },
      "getEpochNumberOfBlock(uint256)": {
        "notice": "Returns the epoch number at a block."
      },
      "getEpochSize()": {
        "notice": "Returns the current epoch size in blocks."
      },
      "getVersionNumber()": {
        "notice": "Returns the storage, major, minor, and patch version of the contract."
      },
      "groupMembershipAtBlock(address,uint256,uint256)": {
        "notice": "Returns the group to be slashed."
      },
      "initialize(address,uint256,uint256,uint256)": {
        "notice": "Used in place of the constructor to allow the contract to be upgradable via proxy."
      },
      "isBitmapSetForInterval(uint256,uint256)": {
        "notice": "Returns true if the bitmap has been set for the specified interval."
      },
      "minQuorumSize(uint256)": {
        "notice": "Returns the minimum number of required signers for a given block number."
      },
      "minQuorumSizeInCurrentSet()": {
        "notice": "Computes byzantine quorum from current validator set size"
      },
      "numberValidatorsInCurrentSet()": {
        "notice": "Gets the size of the current elected validator set."
      },
      "setBitmapForInterval(uint256,uint256)": {
        "notice": "Calculates and sets the signature bitmap for the specified interval."
      },
      "setRegistry(address)": {
        "notice": "Updates the address pointing to a Registry contract."
      },
      "setSlashableDowntime(uint256)": {
        "notice": "Sets the slashable downtime."
      },
      "setSlashingIncentives(uint256,uint256)": {
        "notice": "Sets slashing incentives."
      },
      "slash(uint256[],uint256[],uint256[],uint256,address[],address[],uint256[],address[],address[],uint256[])": {
        "notice": "Slashes a validator that did not sign any blocks for at least `slashableDowntime`."
      },
      "validatorSignerAddressFromCurrentSet(uint256)": {
        "notice": "Gets a validator address from the current validator set."
      },
      "wasDownForInterval(uint256,uint256,uint256)": {
        "notice": "Returns true if the validator did not sign any blocks in the specified interval."
      },
      "wasDownForIntervals(uint256[],uint256[],uint256[])": {
        "notice": "Returns true if a validator has been down for the specified overlapping or adjacent intervals."
      }
    }
  }
}