{
  "contractName": "ElectionTest",
  "abi": [
    {
      "anonymous": false,
      "inputs": [
        {
          "indexed": true,
          "internalType": "address",
          "name": "account",
          "type": "address"
        },
        {
          "indexed": false,
          "internalType": "bool",
          "name": "flag",
          "type": "bool"
        }
      ],
      "name": "AllowedToVoteOverMaxNumberOfGroups",
      "type": "event"
    },
    {
      "anonymous": false,
      "inputs": [
        {
          "indexed": false,
          "internalType": "uint256",
          "name": "electabilityThreshold",
          "type": "uint256"
        }
      ],
      "name": "ElectabilityThresholdSet",
      "type": "event"
    },
    {
      "anonymous": false,
      "inputs": [
        {
          "indexed": false,
          "internalType": "uint256",
          "name": "min",
          "type": "uint256"
        },
        {
          "indexed": false,
          "internalType": "uint256",
          "name": "max",
          "type": "uint256"
        }
      ],
      "name": "ElectableValidatorsSet",
      "type": "event"
    },
    {
      "anonymous": false,
      "inputs": [
        {
          "indexed": true,
          "internalType": "address",
          "name": "group",
          "type": "address"
        },
        {
          "indexed": false,
          "internalType": "uint256",
          "name": "value",
          "type": "uint256"
        }
      ],
      "name": "EpochRewardsDistributedToVoters",
      "type": "event"
    },
    {
      "anonymous": false,
      "inputs": [
        {
          "indexed": false,
          "internalType": "uint256",
          "name": "maxNumGroupsVotedFor",
          "type": "uint256"
        }
      ],
      "name": "MaxNumGroupsVotedForSet",
      "type": "event"
    },
    {
      "anonymous": false,
      "inputs": [
        {
          "indexed": true,
          "internalType": "address",
          "name": "previousOwner",
          "type": "address"
        },
        {
          "indexed": true,
          "internalType": "address",
          "name": "newOwner",
          "type": "address"
        }
      ],
      "name": "OwnershipTransferred",
      "type": "event"
    },
    {
      "anonymous": false,
      "inputs": [
        {
          "indexed": true,
          "internalType": "address",
          "name": "registryAddress",
          "type": "address"
        }
      ],
      "name": "RegistrySet",
      "type": "event"
    },
    {
      "anonymous": false,
      "inputs": [
        {
          "indexed": true,
          "internalType": "address",
          "name": "account",
          "type": "address"
        },
        {
          "indexed": true,
          "internalType": "address",
          "name": "group",
          "type": "address"
        },
        {
          "indexed": false,
          "internalType": "uint256",
          "name": "value",
          "type": "uint256"
        },
        {
          "indexed": false,
          "internalType": "uint256",
          "name": "units",
          "type": "uint256"
        }
      ],
      "name": "ValidatorGroupActiveVoteRevoked",
      "type": "event"
    },
    {
      "anonymous": false,
      "inputs": [
        {
          "indexed": true,
          "internalType": "address",
          "name": "group",
          "type": "address"
        }
      ],
      "name": "ValidatorGroupMarkedEligible",
      "type": "event"
    },
    {
      "anonymous": false,
      "inputs": [
        {
          "indexed": true,
          "internalType": "address",
          "name": "group",
          "type": "address"
        }
      ],
      "name": "ValidatorGroupMarkedIneligible",
      "type": "event"
    },
    {
      "anonymous": false,
      "inputs": [
        {
          "indexed": true,
          "internalType": "address",
          "name": "account",
          "type": "address"
        },
        {
          "indexed": true,
          "internalType": "address",
          "name": "group",
          "type": "address"
        },
        {
          "indexed": false,
          "internalType": "uint256",
          "name": "value",
          "type": "uint256"
        }
      ],
      "name": "ValidatorGroupPendingVoteRevoked",
      "type": "event"
    },
    {
      "anonymous": false,
      "inputs": [
        {
          "indexed": true,
          "internalType": "address",
          "name": "account",
          "type": "address"
        },
        {
          "indexed": true,
          "internalType": "address",
          "name": "group",
          "type": "address"
        },
        {
          "indexed": false,
          "internalType": "uint256",
          "name": "value",
          "type": "uint256"
        },
        {
          "indexed": false,
          "internalType": "uint256",
          "name": "units",
          "type": "uint256"
        }
      ],
      "name": "ValidatorGroupVoteActivated",
      "type": "event"
    },
    {
      "anonymous": false,
      "inputs": [
        {
          "indexed": true,
          "internalType": "address",
          "name": "account",
          "type": "address"
        },
        {
          "indexed": true,
          "internalType": "address",
          "name": "group",
          "type": "address"
        },
        {
          "indexed": false,
          "internalType": "uint256",
          "name": "value",
          "type": "uint256"
        }
      ],
      "name": "ValidatorGroupVoteCast",
      "type": "event"
    },
    {
      "constant": false,
      "inputs": [
        {
          "internalType": "address",
          "name": "group",
          "type": "address"
        }
      ],
      "name": "activate",
      "outputs": [
        {
          "internalType": "bool",
          "name": "",
          "type": "bool"
        }
      ],
      "payable": false,
      "stateMutability": "nonpayable",
      "type": "function"
    },
    {
      "constant": false,
      "inputs": [
        {
          "internalType": "address",
          "name": "group",
          "type": "address"
        },
        {
          "internalType": "address",
          "name": "account",
          "type": "address"
        }
      ],
      "name": "activateForAccount",
      "outputs": [
        {
          "internalType": "bool",
          "name": "",
          "type": "bool"
        }
      ],
      "payable": false,
      "stateMutability": "nonpayable",
      "type": "function"
    },
    {
      "constant": true,
      "inputs": [
        {
          "internalType": "address",
          "name": "",
          "type": "address"
        }
      ],
      "name": "allowedToVoteOverMaxNumberOfGroups",
      "outputs": [
        {
          "internalType": "bool",
          "name": "",
          "type": "bool"
        }
      ],
      "payable": false,
      "stateMutability": "view",
      "type": "function"
    },
    {
      "constant": true,
      "inputs": [
        {
          "internalType": "address",
          "name": "",
          "type": "address"
        }
      ],
      "name": "cachedVotesByAccount",
      "outputs": [
        {
          "internalType": "uint256",
          "name": "totalVotes",
          "type": "uint256"
        }
      ],
      "payable": false,
      "stateMutability": "view",
      "type": "function"
    },
    {
      "constant": true,
      "inputs": [
        {
          "internalType": "address",
          "name": "group",
          "type": "address"
        },
        {
          "internalType": "uint256",
          "name": "value",
          "type": "uint256"
        }
      ],
      "name": "canReceiveVotes",
      "outputs": [
        {
          "internalType": "bool",
          "name": "",
          "type": "bool"
        }
      ],
      "payable": false,
      "stateMutability": "view",
      "type": "function"
    },
    {
      "constant": true,
      "inputs": [
        {
          "internalType": "address",
          "name": "sender",
          "type": "address"
        },
        {
          "internalType": "bytes",
          "name": "blsKey",
          "type": "bytes"
        },
        {
          "internalType": "bytes",
          "name": "blsPop",
          "type": "bytes"
        }
      ],
      "name": "checkProofOfPossession",
      "outputs": [
        {
          "internalType": "bool",
          "name": "",
          "type": "bool"
        }
      ],
      "payable": false,
      "stateMutability": "view",
      "type": "function"
    },
    {
      "constant": true,
      "inputs": [
        {
          "internalType": "uint256",
          "name": "minElectableValidators",
          "type": "uint256"
        },
        {
          "internalType": "uint256",
          "name": "maxElectableValidators",
          "type": "uint256"
        }
      ],
      "name": "electNValidatorSigners",
      "outputs": [
        {
          "internalType": "address[]",
          "name": "",
          "type": "address[]"
        }
      ],
      "payable": false,
      "stateMutability": "view",
      "type": "function"
    },
    {
      "constant": true,
      "inputs": [],
      "name": "electValidatorSigners",
      "outputs": [
        {
          "internalType": "address[]",
          "name": "",
          "type": "address[]"
        }
      ],
      "payable": false,
      "stateMutability": "view",
      "type": "function"
    },
    {
      "constant": true,
      "inputs": [],
      "name": "electabilityThreshold",
      "outputs": [
        {
          "internalType": "uint256",
          "name": "value",
          "type": "uint256"
        }
      ],
      "payable": false,
      "stateMutability": "view",
      "type": "function"
    },
    {
      "constant": true,
      "inputs": [],
      "name": "electableValidators",
      "outputs": [
        {
          "internalType": "uint256",
          "name": "min",
          "type": "uint256"
        },
        {
          "internalType": "uint256",
          "name": "max",
          "type": "uint256"
        }
      ],
      "payable": false,
      "stateMutability": "view",
      "type": "function"
    },
    {
      "constant": false,
      "inputs": [
        {
          "internalType": "address",
          "name": "account",
          "type": "address"
        },
        {
          "internalType": "uint256",
          "name": "value",
          "type": "uint256"
        },
        {
          "internalType": "address[]",
          "name": "lessers",
          "type": "address[]"
        },
        {
          "internalType": "address[]",
          "name": "greaters",
          "type": "address[]"
        },
        {
          "internalType": "uint256[]",
          "name": "indices",
          "type": "uint256[]"
        }
      ],
      "name": "forceDecrementVotes",
      "outputs": [
        {
          "internalType": "uint256",
          "name": "",
          "type": "uint256"
        }
      ],
      "payable": false,
      "stateMutability": "nonpayable",
      "type": "function"
    },
    {
      "constant": true,
      "inputs": [
        {
          "internalType": "uint256",
          "name": "aNumerator",
          "type": "uint256"
        },
        {
          "internalType": "uint256",
          "name": "aDenominator",
          "type": "uint256"
        },
        {
          "internalType": "uint256",
          "name": "bNumerator",
          "type": "uint256"
        },
        {
          "internalType": "uint256",
          "name": "bDenominator",
          "type": "uint256"
        },
        {
          "internalType": "uint256",
          "name": "exponent",
          "type": "uint256"
        },
        {
          "internalType": "uint256",
          "name": "_decimals",
          "type": "uint256"
        }
      ],
      "name": "fractionMulExp",
      "outputs": [
        {
          "internalType": "uint256",
          "name": "",
          "type": "uint256"
        },
        {
          "internalType": "uint256",
          "name": "",
          "type": "uint256"
        }
      ],
      "payable": false,
      "stateMutability": "view",
      "type": "function"
    },
    {
      "constant": true,
      "inputs": [
        {
          "internalType": "address",
          "name": "group",
          "type": "address"
        }
      ],
      "name": "getActiveVoteUnitsForGroup",
      "outputs": [
        {
          "internalType": "uint256",
          "name": "",
          "type": "uint256"
        }
      ],
      "payable": false,
      "stateMutability": "view",
      "type": "function"
    },
    {
      "constant": true,
      "inputs": [
        {
          "internalType": "address",
          "name": "group",
          "type": "address"
        },
        {
          "internalType": "address",
          "name": "account",
          "type": "address"
        }
      ],
      "name": "getActiveVoteUnitsForGroupByAccount",
      "outputs": [
        {
          "internalType": "uint256",
          "name": "",
          "type": "uint256"
        }
      ],
      "payable": false,
      "stateMutability": "view",
      "type": "function"
    },
    {
      "constant": true,
      "inputs": [],
      "name": "getActiveVotes",
      "outputs": [
        {
          "internalType": "uint256",
          "name": "",
          "type": "uint256"
        }
      ],
      "payable": false,
      "stateMutability": "view",
      "type": "function"
    },
    {
      "constant": true,
      "inputs": [
        {
          "internalType": "address",
          "name": "group",
          "type": "address"
        }
      ],
      "name": "getActiveVotesForGroup",
      "outputs": [
        {
          "internalType": "uint256",
          "name": "",
          "type": "uint256"
        }
      ],
      "payable": false,
      "stateMutability": "view",
      "type": "function"
    },
    {
      "constant": true,
      "inputs": [
        {
          "internalType": "address",
          "name": "group",
          "type": "address"
        },
        {
          "internalType": "address",
          "name": "account",
          "type": "address"
        }
      ],
      "name": "getActiveVotesForGroupByAccount",
      "outputs": [
        {
          "internalType": "uint256",
          "name": "",
          "type": "uint256"
        }
      ],
      "payable": false,
      "stateMutability": "view",
      "type": "function"
    },
    {
      "constant": true,
      "inputs": [
        {
          "internalType": "bytes",
          "name": "header",
          "type": "bytes"
        }
      ],
      "name": "getBlockNumberFromHeader",
      "outputs": [
        {
          "internalType": "uint256",
          "name": "",
          "type": "uint256"
        }
      ],
      "payable": false,
      "stateMutability": "view",
      "type": "function"
    },
    {
      "constant": true,
      "inputs": [],
      "name": "getCurrentValidatorSigners",
      "outputs": [
        {
          "internalType": "address[]",
          "name": "",
          "type": "address[]"
        }
      ],
      "payable": false,
      "stateMutability": "view",
      "type": "function"
    },
    {
      "constant": true,
      "inputs": [],
      "name": "getElectabilityThreshold",
      "outputs": [
        {
          "internalType": "uint256",
          "name": "",
          "type": "uint256"
        }
      ],
      "payable": false,
      "stateMutability": "view",
      "type": "function"
    },
    {
      "constant": true,
      "inputs": [],
      "name": "getElectableValidators",
      "outputs": [
        {
          "internalType": "uint256",
          "name": "",
          "type": "uint256"
        },
        {
          "internalType": "uint256",
          "name": "",
          "type": "uint256"
        }
      ],
      "payable": false,
      "stateMutability": "view",
      "type": "function"
    },
    {
      "constant": true,
      "inputs": [],
      "name": "getEligibleValidatorGroups",
      "outputs": [
        {
          "internalType": "address[]",
          "name": "",
          "type": "address[]"
        }
      ],
      "payable": false,
      "stateMutability": "view",
      "type": "function"
    },
    {
      "constant": true,
      "inputs": [],
      "name": "getEpochNumber",
      "outputs": [
        {
          "internalType": "uint256",
          "name": "",
          "type": "uint256"
        }
      ],
      "payable": false,
      "stateMutability": "view",
      "type": "function"
    },
    {
      "constant": true,
      "inputs": [
        {
          "internalType": "uint256",
          "name": "blockNumber",
          "type": "uint256"
        }
      ],
      "name": "getEpochNumberOfBlock",
      "outputs": [
        {
          "internalType": "uint256",
          "name": "",
          "type": "uint256"
        }
      ],
      "payable": false,
      "stateMutability": "view",
      "type": "function"
    },
    {
      "constant": true,
      "inputs": [],
      "name": "getEpochSize",
      "outputs": [
        {
          "internalType": "uint256",
          "name": "",
          "type": "uint256"
        }
      ],
      "payable": false,
      "stateMutability": "view",
      "type": "function"
    },
    {
      "constant": true,
      "inputs": [
        {
          "internalType": "address",
          "name": "group",
          "type": "address"
        }
      ],
      "name": "getGroupEligibility",
      "outputs": [
        {
          "internalType": "bool",
          "name": "",
          "type": "bool"
        }
      ],
      "payable": false,
      "stateMutability": "view",
      "type": "function"
    },
    {
      "constant": true,
      "inputs": [
        {
          "internalType": "address",
          "name": "group",
          "type": "address"
        },
        {
          "internalType": "uint256",
          "name": "totalEpochRewards",
          "type": "uint256"
        },
        {
          "internalType": "uint256[]",
          "name": "uptimes",
          "type": "uint256[]"
        }
      ],
      "name": "getGroupEpochRewards",
      "outputs": [
        {
          "internalType": "uint256",
          "name": "",
          "type": "uint256"
        }
      ],
      "payable": false,
      "stateMutability": "view",
      "type": "function"
    },
    {
      "constant": true,
      "inputs": [
        {
          "internalType": "address",
          "name": "account",
          "type": "address"
        }
      ],
      "name": "getGroupsVotedForByAccount",
      "outputs": [
        {
          "internalType": "address[]",
          "name": "",
          "type": "address[]"
        }
      ],
      "payable": false,
      "stateMutability": "view",
      "type": "function"
    },
    {
      "constant": true,
      "inputs": [
        {
          "internalType": "address",
          "name": "group",
          "type": "address"
        }
      ],
      "name": "getNumVotesReceivable",
      "outputs": [
        {
          "internalType": "uint256",
          "name": "",
          "type": "uint256"
        }
      ],
      "payable": false,
      "stateMutability": "view",
      "type": "function"
    },
    {
      "constant": true,
      "inputs": [
        {
          "internalType": "uint256",
          "name": "blockNumber",
          "type": "uint256"
        }
      ],
      "name": "getParentSealBitmap",
      "outputs": [
        {
          "internalType": "bytes32",
          "name": "",
          "type": "bytes32"
        }
      ],
      "payable": false,
      "stateMutability": "view",
      "type": "function"
    },
    {
      "constant": true,
      "inputs": [
        {
          "internalType": "address",
          "name": "group",
          "type": "address"
        }
      ],
      "name": "getPendingVotesForGroup",
      "outputs": [
        {
          "internalType": "uint256",
          "name": "",
          "type": "uint256"
        }
      ],
      "payable": false,
      "stateMutability": "view",
      "type": "function"
    },
    {
      "constant": true,
      "inputs": [
        {
          "internalType": "address",
          "name": "group",
          "type": "address"
        },
        {
          "internalType": "address",
          "name": "account",
          "type": "address"
        }
      ],
      "name": "getPendingVotesForGroupByAccount",
      "outputs": [
        {
          "internalType": "uint256",
          "name": "",
          "type": "uint256"
        }
      ],
      "payable": false,
      "stateMutability": "view",
      "type": "function"
    },
    {
      "constant": true,
      "inputs": [],
      "name": "getTotalVotes",
      "outputs": [
        {
          "internalType": "uint256",
          "name": "",
          "type": "uint256"
        }
      ],
      "payable": false,
      "stateMutability": "view",
      "type": "function"
    },
    {
      "constant": true,
      "inputs": [
        {
          "internalType": "address",
          "name": "account",
          "type": "address"
        }
      ],
      "name": "getTotalVotesByAccount",
      "outputs": [
        {
          "internalType": "uint256",
          "name": "",
          "type": "uint256"
        }
      ],
      "payable": false,
      "stateMutability": "view",
      "type": "function"
    },
    {
      "constant": true,
      "inputs": [],
      "name": "getTotalVotesForEligibleValidatorGroups",
      "outputs": [
        {
          "internalType": "address[]",
          "name": "groups",
          "type": "address[]"
        },
        {
          "internalType": "uint256[]",
          "name": "values",
          "type": "uint256[]"
        }
      ],
      "payable": false,
      "stateMutability": "view",
      "type": "function"
    },
    {
      "constant": true,
      "inputs": [
        {
          "internalType": "address",
          "name": "group",
          "type": "address"
        }
      ],
      "name": "getTotalVotesForGroup",
      "outputs": [
        {
          "internalType": "uint256",
          "name": "",
          "type": "uint256"
        }
      ],
      "payable": false,
      "stateMutability": "view",
      "type": "function"
    },
    {
      "constant": true,
      "inputs": [
        {
          "internalType": "address",
          "name": "group",
          "type": "address"
        },
        {
          "internalType": "address",
          "name": "account",
          "type": "address"
        }
      ],
      "name": "getTotalVotesForGroupByAccount",
      "outputs": [
        {
          "internalType": "uint256",
          "name": "",
          "type": "uint256"
        }
      ],
      "payable": false,
      "stateMutability": "view",
      "type": "function"
    },
    {
      "constant": true,
      "inputs": [
        {
          "internalType": "bytes",
          "name": "header",
          "type": "bytes"
        }
      ],
      "name": "getVerifiedSealBitmapFromHeader",
      "outputs": [
        {
          "internalType": "bytes32",
          "name": "",
          "type": "bytes32"
        }
      ],
      "payable": false,
      "stateMutability": "view",
      "type": "function"
    },
    {
      "constant": true,
      "inputs": [],
      "name": "getVersionNumber",
      "outputs": [
        {
          "internalType": "uint256",
          "name": "",
          "type": "uint256"
        },
        {
          "internalType": "uint256",
          "name": "",
          "type": "uint256"
        },
        {
          "internalType": "uint256",
          "name": "",
          "type": "uint256"
        },
        {
          "internalType": "uint256",
          "name": "",
          "type": "uint256"
        }
      ],
      "payable": false,
      "stateMutability": "pure",
      "type": "function"
    },
    {
      "constant": true,
      "inputs": [
        {
          "internalType": "address",
          "name": "account",
          "type": "address"
        },
        {
          "internalType": "address",
          "name": "group",
          "type": "address"
        }
      ],
      "name": "hasActivatablePendingVotes",
      "outputs": [
        {
          "internalType": "bool",
          "name": "",
          "type": "bool"
        }
      ],
      "payable": false,
      "stateMutability": "view",
      "type": "function"
    },
    {
      "constant": true,
      "inputs": [
        {
          "internalType": "bytes",
          "name": "header",
          "type": "bytes"
        }
      ],
      "name": "hashHeader",
      "outputs": [
        {
          "internalType": "bytes32",
          "name": "",
          "type": "bytes32"
        }
      ],
      "payable": false,
      "stateMutability": "view",
      "type": "function"
    },
    {
      "constant": false,
      "inputs": [
        {
          "internalType": "address",
          "name": "registryAddress",
          "type": "address"
        },
        {
          "internalType": "uint256",
          "name": "minElectableValidators",
          "type": "uint256"
        },
        {
          "internalType": "uint256",
          "name": "maxElectableValidators",
          "type": "uint256"
        },
        {
          "internalType": "uint256",
          "name": "_maxNumGroupsVotedFor",
          "type": "uint256"
        },
        {
          "internalType": "uint256",
          "name": "_electabilityThreshold",
          "type": "uint256"
        }
      ],
      "name": "initialize",
      "outputs": [],
      "payable": false,
      "stateMutability": "nonpayable",
      "type": "function"
    },
    {
      "constant": true,
      "inputs": [],
      "name": "initialized",
      "outputs": [
        {
          "internalType": "bool",
          "name": "",
          "type": "bool"
        }
      ],
      "payable": false,
      "stateMutability": "view",
      "type": "function"
    },
    {
      "constant": true,
      "inputs": [],
      "name": "isOwner",
      "outputs": [
        {
          "internalType": "bool",
          "name": "",
          "type": "bool"
        }
      ],
      "payable": false,
      "stateMutability": "view",
      "type": "function"
    },
    {
      "constant": false,
      "inputs": [
        {
          "internalType": "address",
          "name": "group",
          "type": "address"
        },
        {
          "internalType": "address",
          "name": "lesser",
          "type": "address"
        },
        {
          "internalType": "address",
          "name": "greater",
          "type": "address"
        }
      ],
      "name": "markGroupEligible",
      "outputs": [],
      "payable": false,
      "stateMutability": "nonpayable",
      "type": "function"
    },
    {
      "constant": false,
      "inputs": [
        {
          "internalType": "address",
          "name": "group",
          "type": "address"
        }
      ],
      "name": "markGroupIneligible",
      "outputs": [],
      "payable": false,
      "stateMutability": "nonpayable",
      "type": "function"
    },
    {
      "constant": true,
      "inputs": [],
      "name": "maxNumGroupsVotedFor",
      "outputs": [
        {
          "internalType": "uint256",
          "name": "",
          "type": "uint256"
        }
      ],
      "payable": false,
      "stateMutability": "view",
      "type": "function"
    },
    {
      "constant": true,
      "inputs": [
        {
          "internalType": "uint256",
          "name": "blockNumber",
          "type": "uint256"
        }
      ],
      "name": "minQuorumSize",
      "outputs": [
        {
          "internalType": "uint256",
          "name": "",
          "type": "uint256"
        }
      ],
      "payable": false,
      "stateMutability": "view",
      "type": "function"
    },
    {
      "constant": true,
      "inputs": [],
      "name": "minQuorumSizeInCurrentSet",
      "outputs": [
        {
          "internalType": "uint256",
          "name": "",
          "type": "uint256"
        }
      ],
      "payable": false,
      "stateMutability": "view",
      "type": "function"
    },
    {
      "constant": true,
      "inputs": [],
      "name": "numberValidatorsInCurrentSet",
      "outputs": [
        {
          "internalType": "uint256",
          "name": "",
          "type": "uint256"
        }
      ],
      "payable": false,
      "stateMutability": "view",
      "type": "function"
    },
    {
      "constant": true,
      "inputs": [
        {
          "internalType": "uint256",
          "name": "blockNumber",
          "type": "uint256"
        }
      ],
      "name": "numberValidatorsInSet",
      "outputs": [
        {
          "internalType": "uint256",
          "name": "",
          "type": "uint256"
        }
      ],
      "payable": false,
      "stateMutability": "view",
      "type": "function"
    },
    {
      "constant": true,
      "inputs": [],
      "name": "owner",
      "outputs": [
        {
          "internalType": "address",
          "name": "",
          "type": "address"
        }
      ],
      "payable": false,
      "stateMutability": "view",
      "type": "function"
    },
    {
      "constant": true,
      "inputs": [],
      "name": "registry",
      "outputs": [
        {
          "internalType": "contract IRegistry",
          "name": "",
          "type": "address"
        }
      ],
      "payable": false,
      "stateMutability": "view",
      "type": "function"
    },
    {
      "constant": false,
      "inputs": [],
      "name": "renounceOwnership",
      "outputs": [],
      "payable": false,
      "stateMutability": "nonpayable",
      "type": "function"
    },
    {
      "constant": false,
      "inputs": [
        {
          "internalType": "address",
          "name": "group",
          "type": "address"
        },
        {
          "internalType": "uint256",
          "name": "value",
          "type": "uint256"
        },
        {
          "internalType": "address",
          "name": "lesser",
          "type": "address"
        },
        {
          "internalType": "address",
          "name": "greater",
          "type": "address"
        },
        {
          "internalType": "uint256",
          "name": "index",
          "type": "uint256"
        }
      ],
      "name": "revokeActive",
      "outputs": [
        {
          "internalType": "bool",
          "name": "",
          "type": "bool"
        }
      ],
      "payable": false,
      "stateMutability": "nonpayable",
      "type": "function"
    },
    {
      "constant": false,
      "inputs": [
        {
          "internalType": "address",
          "name": "group",
          "type": "address"
        },
        {
          "internalType": "address",
          "name": "lesser",
          "type": "address"
        },
        {
          "internalType": "address",
          "name": "greater",
          "type": "address"
        },
        {
          "internalType": "uint256",
          "name": "index",
          "type": "uint256"
        }
      ],
      "name": "revokeAllActive",
      "outputs": [
        {
          "internalType": "bool",
          "name": "",
          "type": "bool"
        }
      ],
      "payable": false,
      "stateMutability": "nonpayable",
      "type": "function"
    },
    {
      "constant": false,
      "inputs": [
        {
          "internalType": "address",
          "name": "group",
          "type": "address"
        },
        {
          "internalType": "uint256",
          "name": "value",
          "type": "uint256"
        },
        {
          "internalType": "address",
          "name": "lesser",
          "type": "address"
        },
        {
          "internalType": "address",
          "name": "greater",
          "type": "address"
        },
        {
          "internalType": "uint256",
          "name": "index",
          "type": "uint256"
        }
      ],
      "name": "revokePending",
      "outputs": [
        {
          "internalType": "bool",
          "name": "",
          "type": "bool"
        }
      ],
      "payable": false,
      "stateMutability": "nonpayable",
      "type": "function"
    },
    {
      "constant": false,
      "inputs": [
        {
          "internalType": "bool",
          "name": "flag",
          "type": "bool"
        }
      ],
      "name": "setAllowedToVoteOverMaxNumberOfGroups",
      "outputs": [],
      "payable": false,
      "stateMutability": "nonpayable",
      "type": "function"
    },
    {
      "constant": false,
      "inputs": [
        {
          "internalType": "uint256",
          "name": "threshold",
          "type": "uint256"
        }
      ],
      "name": "setElectabilityThreshold",
      "outputs": [
        {
          "internalType": "bool",
          "name": "",
          "type": "bool"
        }
      ],
      "payable": false,
      "stateMutability": "nonpayable",
      "type": "function"
    },
    {
      "constant": false,
      "inputs": [
        {
          "internalType": "uint256",
          "name": "min",
          "type": "uint256"
        },
        {
          "internalType": "uint256",
          "name": "max",
          "type": "uint256"
        }
      ],
      "name": "setElectableValidators",
      "outputs": [
        {
          "internalType": "bool",
          "name": "",
          "type": "bool"
        }
      ],
      "payable": false,
      "stateMutability": "nonpayable",
      "type": "function"
    },
    {
      "constant": false,
      "inputs": [
        {
          "internalType": "uint256",
          "name": "_maxNumGroupsVotedFor",
          "type": "uint256"
        }
      ],
      "name": "setMaxNumGroupsVotedFor",
      "outputs": [
        {
          "internalType": "bool",
          "name": "",
          "type": "bool"
        }
      ],
      "payable": false,
      "stateMutability": "nonpayable",
      "type": "function"
    },
    {
      "constant": false,
      "inputs": [
        {
          "internalType": "address",
          "name": "registryAddress",
          "type": "address"
        }
      ],
      "name": "setRegistry",
      "outputs": [],
      "payable": false,
      "stateMutability": "nonpayable",
      "type": "function"
    },
    {
      "constant": false,
      "inputs": [
        {
          "internalType": "address",
          "name": "newOwner",
          "type": "address"
        }
      ],
      "name": "transferOwnership",
      "outputs": [],
      "payable": false,
      "stateMutability": "nonpayable",
      "type": "function"
    },
    {
      "constant": false,
      "inputs": [
        {
          "internalType": "address",
          "name": "account",
          "type": "address"
        },
        {
          "internalType": "address",
          "name": "group",
          "type": "address"
        }
      ],
      "name": "updateTotalVotesByAccountForGroup",
      "outputs": [],
      "payable": false,
      "stateMutability": "nonpayable",
      "type": "function"
    },
    {
      "constant": true,
      "inputs": [
        {
          "internalType": "uint256",
          "name": "index",
          "type": "uint256"
        }
      ],
      "name": "validatorSignerAddressFromCurrentSet",
      "outputs": [
        {
          "internalType": "address",
          "name": "",
          "type": "address"
        }
      ],
      "payable": false,
      "stateMutability": "view",
      "type": "function"
    },
    {
      "constant": true,
      "inputs": [
        {
          "internalType": "uint256",
          "name": "index",
          "type": "uint256"
        },
        {
          "internalType": "uint256",
          "name": "blockNumber",
          "type": "uint256"
        }
      ],
      "name": "validatorSignerAddressFromSet",
      "outputs": [
        {
          "internalType": "address",
          "name": "",
          "type": "address"
        }
      ],
      "payable": false,
      "stateMutability": "view",
      "type": "function"
    },
    {
      "constant": false,
      "inputs": [
        {
          "internalType": "address",
          "name": "group",
          "type": "address"
        },
        {
          "internalType": "uint256",
          "name": "value",
          "type": "uint256"
        },
        {
          "internalType": "address",
          "name": "lesser",
          "type": "address"
        },
        {
          "internalType": "address",
          "name": "greater",
          "type": "address"
        }
      ],
      "name": "vote",
      "outputs": [
        {
          "internalType": "bool",
          "name": "",
          "type": "bool"
        }
      ],
      "payable": false,
      "stateMutability": "nonpayable",
      "type": "function"
    },
    {
      "constant": false,
      "inputs": [
        {
          "internalType": "address",
          "name": "group",
          "type": "address"
        },
        {
          "internalType": "uint256",
          "name": "value",
          "type": "uint256"
        },
        {
          "internalType": "address",
          "name": "lesser",
          "type": "address"
        },
        {
          "internalType": "address",
          "name": "greater",
          "type": "address"
        }
      ],
      "name": "distributeEpochRewards",
      "outputs": [],
      "payable": false,
      "stateMutability": "nonpayable",
      "type": "function"
    }
  ],
  "bytecode": "0x6080604052600180600062000019620000e860201b60201c565b9050806000806101000a81548173ffffffffffffffffffffffffffffffffffffffff021916908373ffffffffffffffffffffffffffffffffffffffff1602179055508073ffffffffffffffffffffffffffffffffffffffff16600073ffffffffffffffffffffffffffffffffffffffff167f8be0079c531659141344cd1fd0a4f28419497f9722a3daafe3b4186f6b6457e060405160405180910390a3506001808190555080620000e0576001600260006101000a81548160ff0219169083151502179055505b5050620000f0565b600033905090565b61ac6b80620001006000396000f3fe608060405234801561001057600080fd5b50600436106103fc5760003560e01c80638f32d59b11610215578063cb08c99311610125578063e59ea3e8116100b8578063f911f0b711610087578063f911f0b714611da8578063f92ad21914611df8578063f9d7daae14611e64578063f9f41a7a14611e89578063fae8db0a14611eae576103fc565b8063e59ea3e814611bcc578063ec68307214611c32578063f23263f914611cad578063f2fde38b14611d64576103fc565b8063dedafeae116100f4578063dedafeae14611a6e578063df4da46114611ac6578063e0a2ab5214611ae4578063e50e652d14611b8a576103fc565b8063cb08c99314611912578063d190d5801461196e578063d3e242a4146119c6578063d52758aa14611a3e576103fc565b80639dfb6081116101a8578063a8e4587111610177578063a8e45871146117d2578063a91ee0dc14611816578063ac839d691461185a578063bdd1431814611878578063c14470c414611896576103fc565b80639dfb6081146115c7578063a18fb2db14611677578063a2fb4ddf146116fb578063a5826ab214611773576103fc565b80639a0e7d66116101e45780639a0e7d66146114d15780639a7b3be7146114ef5780639b2b592f1461150d5780639b95975f1461154f576103fc565b80638f32d59b1461137257806390a4dd5c14611394578063926d00ca1461142157806395128ce314611479576103fc565b806354255be0116103105780637046c96b116102a357806387ee8a0f1161027257806387ee8a0f1461107e5780638a8836261461109c5780638c6667751461116b5780638da5cb5b146111c75780638ef01def14611211576103fc565b80637046c96b14610f65578063715018a61461100c5780637385e5da146110165780637b10399914611034576103fc565b8063631db7e7116102df578063631db7e714610d4857806367960e9114610d8e5780636c781a2c14610e5d5780636e19847514610eb5576103fc565b806354255be014610b9f578063580d747a14610bd25780635bb5acfb14610c785780635d180adb14610cd0576103fc565b80632c3b7916116103935780633c55a73c116103625780633c55a73c14610974578063448144c8146109ba578063457578a314610a195780634b2c2f4414610ab25780634be8843b14610b81576103fc565b80632c3b7916146107fe57806335a8376b1461085657806338617272146108ba5780633b1eb4bf14610932576103fc565b80631f604243116103cf5780631f6042431461057b57806323f0ab6514610599578063263ecf74146107235780632ba38e691461079f576103fc565b8063123633ea1461040157806312541a6b1461046f578063158ef93e146104fd5780631c5a9d9c1461051f575b600080fd5b61042d6004803603602081101561041757600080fd5b8101908080359060200190929190505050611ef0565b604051808273ffffffffffffffffffffffffffffffffffffffff1673ffffffffffffffffffffffffffffffffffffffff16815260200191505060405180910390f35b6104fb6004803603608081101561048557600080fd5b81019080803573ffffffffffffffffffffffffffffffffffffffff16906020019092919080359060200190929190803573ffffffffffffffffffffffffffffffffffffffff169060200190929190803573ffffffffffffffffffffffffffffffffffffffff169060200190929190505050612041565b005b610505612053565b604051808215151515815260200191505060405180910390f35b6105616004803603602081101561053557600080fd5b81019080803573ffffffffffffffffffffffffffffffffffffffff169060200190929190505050612066565b604051808215151515815260200191505060405180910390f35b6105836121cc565b6040518082815260200191505060405180910390f35b610709600480360360608110156105af57600080fd5b81019080803573ffffffffffffffffffffffffffffffffffffffff169060200190929190803590602001906401000000008111156105ec57600080fd5b8201836020820111156105fe57600080fd5b8035906020019184600183028401116401000000008311171561062057600080fd5b91908080601f016020809104026020016040519081016040528093929190818152602001838380828437600081840152601f19601f8201169050808301925050505050505091929192908035906020019064010000000081111561068357600080fd5b82018360208201111561069557600080fd5b803590602001918460018302840111640100000000831117156106b757600080fd5b91908080601f016020809104026020016040519081016040528093929190818152602001838380828437600081840152601f19601f8201169050808301925050505050505091929192905050506121dc565b604051808215151515815260200191505060405180910390f35b6107856004803603604081101561073957600080fd5b81019080803573ffffffffffffffffffffffffffffffffffffffff169060200190929190803573ffffffffffffffffffffffffffffffffffffffff169060200190929190505050612395565b604051808215151515815260200191505060405180910390f35b6107a7612446565b6040518080602001828103825283818151815260200191508051906020019060200280838360005b838110156107ea5780820151818401526020810190506107cf565b505050509050019250505060405180910390f35b6108406004803603602081101561081457600080fd5b81019080803573ffffffffffffffffffffffffffffffffffffffff169060200190929190505050612461565b6040518082815260200191505060405180910390f35b6108b86004803603604081101561086c57600080fd5b81019080803573ffffffffffffffffffffffffffffffffffffffff169060200190929190803573ffffffffffffffffffffffffffffffffffffffff169060200190929190505050612687565b005b61091c600480360360408110156108d057600080fd5b81019080803573ffffffffffffffffffffffffffffffffffffffff169060200190929190803573ffffffffffffffffffffffffffffffffffffffff16906020019092919050505061283d565b6040518082815260200191505060405180910390f35b61095e6004803603602081101561094857600080fd5b8101908080359060200190929190505050612877565b6040518082815260200191505060405180910390f35b6109a06004803603602081101561098a57600080fd5b8101908080359060200190929190505050612891565b604051808215151515815260200191505060405180910390f35b6109c26129cc565b6040518080602001828103825283818151815260200191508051906020019060200280838360005b83811015610a055780820151818401526020810190506109ea565b505050509050019250505060405180910390f35b610a5b60048036036020811015610a2f57600080fd5b81019080803573ffffffffffffffffffffffffffffffffffffffff169060200190929190505050612a8f565b6040518080602001828103825283818151815260200191508051906020019060200280838360005b83811015610a9e578082015181840152602081019050610a83565b505050509050019250505060405180910390f35b610b6b60048036036020811015610ac857600080fd5b8101908080359060200190640100000000811115610ae557600080fd5b820183602082011115610af757600080fd5b80359060200191846001830284011164010000000083111715610b1957600080fd5b91908080601f016020809104026020016040519081016040528093929190818152602001838380828437600081840152601f19601f820116905080830192505050505050509192919290505050612b5f565b6040518082815260200191505060405180910390f35b610b89612cf3565b6040518082815260200191505060405180910390f35b610ba7612cff565b6040518085815260200184815260200183815260200182815260200194505050505060405180910390f35b610c5e60048036036080811015610be857600080fd5b81019080803573ffffffffffffffffffffffffffffffffffffffff16906020019092919080359060200190929190803573ffffffffffffffffffffffffffffffffffffffff169060200190929190803573ffffffffffffffffffffffffffffffffffffffff169060200190929190505050612d26565b604051808215151515815260200191505060405180910390f35b610cba60048036036020811015610c8e57600080fd5b81019080803573ffffffffffffffffffffffffffffffffffffffff1690602001909291905050506133f9565b6040518082815260200191505060405180910390f35b610d0660048036036040811015610ce657600080fd5b81019080803590602001909291908035906020019092919050505061344b565b604051808273ffffffffffffffffffffffffffffffffffffffff1673ffffffffffffffffffffffffffffffffffffffff16815260200191505060405180910390f35b610d7460048036036020811015610d5e57600080fd5b810190808035906020019092919050505061359d565b604051808215151515815260200191505060405180910390f35b610e4760048036036020811015610da457600080fd5b8101908080359060200190640100000000811115610dc157600080fd5b820183602082011115610dd357600080fd5b80359060200191846001830284011164010000000083111715610df557600080fd5b91908080601f016020809104026020016040519081016040528093929190818152602001838380828437600081840152601f19601f8201169050808301925050505050505091929192905050506136f6565b6040518082815260200191505060405180910390f35b610e9f60048036036020811015610e7357600080fd5b81019080803573ffffffffffffffffffffffffffffffffffffffff16906020019092919050505061388a565b6040518082815260200191505060405180910390f35b610f4b600480360360a0811015610ecb57600080fd5b81019080803573ffffffffffffffffffffffffffffffffffffffff16906020019092919080359060200190929190803573ffffffffffffffffffffffffffffffffffffffff169060200190929190803573ffffffffffffffffffffffffffffffffffffffff16906020019092919080359060200190929190505050613a19565b604051808215151515815260200191505060405180910390f35b610f6d613ac2565b604051808060200180602001838103835285818151815260200191508051906020019060200280838360005b83811015610fb4578082015181840152602081019050610f99565b50505050905001838103825284818151815260200191508051906020019060200280838360005b83811015610ff6578082015181840152602081019050610fdb565b5050505090500194505050505060405180910390f35b611014613c8d565b005b61101e613dc6565b6040518082815260200191505060405180910390f35b61103c613dd6565b604051808273ffffffffffffffffffffffffffffffffffffffff1673ffffffffffffffffffffffffffffffffffffffff16815260200191505060405180910390f35b611086613dfc565b6040518082815260200191505060405180910390f35b611155600480360360208110156110b257600080fd5b81019080803590602001906401000000008111156110cf57600080fd5b8201836020820111156110e157600080fd5b8035906020019184600183028401116401000000008311171561110357600080fd5b91908080601f016020809104026020016040519081016040528093929190818152602001838380828437600081840152601f19601f820116905080830192505050505050509192919290505050613f43565b6040518082815260200191505060405180910390f35b6111ad6004803603602081101561118157600080fd5b81019080803573ffffffffffffffffffffffffffffffffffffffff1690602001909291905050506140d7565b604051808215151515815260200191505060405180910390f35b6111cf6141a7565b604051808273ffffffffffffffffffffffffffffffffffffffff1673ffffffffffffffffffffffffffffffffffffffff16815260200191505060405180910390f35b61135c600480360360a081101561122757600080fd5b81019080803573ffffffffffffffffffffffffffffffffffffffff169060200190929190803590602001909291908035906020019064010000000081111561126e57600080fd5b82018360208201111561128057600080fd5b803590602001918460208302840111640100000000831117156112a257600080fd5b9091929391929390803590602001906401000000008111156112c357600080fd5b8201836020820111156112d557600080fd5b803590602001918460208302840111640100000000831117156112f757600080fd5b90919293919293908035906020019064010000000081111561131857600080fd5b82018360208201111561132a57600080fd5b8035906020019184602083028401116401000000008311171561134c57600080fd5b90919293919293905050506141d0565b6040518082815260200191505060405180910390f35b61137a61477a565b604051808215151515815260200191505060405180910390f35b6113ca600480360360408110156113aa57600080fd5b8101908080359060200190929190803590602001909291905050506147d8565b6040518080602001828103825283818151815260200191508051906020019060200280838360005b8381101561140d5780820151818401526020810190506113f2565b505050509050019250505060405180910390f35b6114636004803603602081101561143757600080fd5b81019080803573ffffffffffffffffffffffffffffffffffffffff1690602001909291905050506152b9565b6040518082815260200191505060405180910390f35b6114bb6004803603602081101561148f57600080fd5b81019080803573ffffffffffffffffffffffffffffffffffffffff16906020019092919050505061530b565b6040518082815260200191505060405180910390f35b6114d961535d565b6040518082815260200191505060405180910390f35b6114f7615387565b6040518082815260200191505060405180910390f35b6115396004803603602081101561152357600080fd5b8101908080359060200190929190505050615397565b6040518082815260200191505060405180910390f35b6115b16004803603604081101561156557600080fd5b81019080803573ffffffffffffffffffffffffffffffffffffffff169060200190929190803573ffffffffffffffffffffffffffffffffffffffff1690602001909291905050506154e0565b6040518082815260200191505060405180910390f35b61165d600480360360a08110156115dd57600080fd5b81019080803573ffffffffffffffffffffffffffffffffffffffff16906020019092919080359060200190929190803573ffffffffffffffffffffffffffffffffffffffff169060200190929190803573ffffffffffffffffffffffffffffffffffffffff16906020019092919080359060200190929190505050615573565b604051808215151515815260200191505060405180910390f35b6116f96004803603606081101561168d57600080fd5b81019080803573ffffffffffffffffffffffffffffffffffffffff169060200190929190803573ffffffffffffffffffffffffffffffffffffffff169060200190929190803573ffffffffffffffffffffffffffffffffffffffff1690602001909291905050506159d2565b005b61175d6004803603604081101561171157600080fd5b81019080803573ffffffffffffffffffffffffffffffffffffffff169060200190929190803573ffffffffffffffffffffffffffffffffffffffff169060200190929190505050615cd2565b6040518082815260200191505060405180910390f35b61177b615d62565b6040518080602001828103825283818151815260200191508051906020019060200280838360005b838110156117be5780820151818401526020810190506117a3565b505050509050019250505060405180910390f35b611814600480360360208110156117e857600080fd5b81019080803573ffffffffffffffffffffffffffffffffffffffff169060200190929190505050615e96565b005b6118586004803603602081101561182c57600080fd5b81019080803573ffffffffffffffffffffffffffffffffffffffff169060200190929190505050616116565b005b6118626162ba565b6040518082815260200191505060405180910390f35b6118806162c0565b6040518082815260200191505060405180910390f35b6118f8600480360360408110156118ac57600080fd5b81019080803573ffffffffffffffffffffffffffffffffffffffff169060200190929190803573ffffffffffffffffffffffffffffffffffffffff1690602001909291905050506162e6565b604051808215151515815260200191505060405180910390f35b6119546004803603602081101561192857600080fd5b81019080803573ffffffffffffffffffffffffffffffffffffffff169060200190929190505050616389565b604051808215151515815260200191505060405180910390f35b6119b06004803603602081101561198457600080fd5b81019080803573ffffffffffffffffffffffffffffffffffffffff1690602001909291905050506163a9565b6040518082815260200191505060405180910390f35b611a28600480360360408110156119dc57600080fd5b81019080803573ffffffffffffffffffffffffffffffffffffffff169060200190929190803573ffffffffffffffffffffffffffffffffffffffff1690602001909291905050506163c7565b6040518082815260200191505060405180910390f35b611a6c60048036036020811015611a5457600080fd5b81019080803515159060200190929190505050616460565b005b611ab060048036036020811015611a8457600080fd5b81019080803573ffffffffffffffffffffffffffffffffffffffff1690602001909291905050506168bc565b6040518082815260200191505060405180910390f35b611ace616968565b6040518082815260200191505060405180910390f35b611b7060048036036080811015611afa57600080fd5b81019080803573ffffffffffffffffffffffffffffffffffffffff169060200190929190803573ffffffffffffffffffffffffffffffffffffffff169060200190929190803573ffffffffffffffffffffffffffffffffffffffff16906020019092919080359060200190929190505050616aa4565b604051808215151515815260200191505060405180910390f35b611bb660048036036020811015611ba057600080fd5b8101908080359060200190929190505050616c1f565b6040518082815260200191505060405180910390f35b611c1860048036036040811015611be257600080fd5b81019080803573ffffffffffffffffffffffffffffffffffffffff16906020019092919080359060200190929190505050616c6a565b604051808215151515815260200191505060405180910390f35b611c90600480360360c0811015611c4857600080fd5b81019080803590602001909291908035906020019092919080359060200190929190803590602001909291908035906020019092919080359060200190929190505050616eb4565b604051808381526020018281526020019250505060405180910390f35b611d4e60048036036060811015611cc357600080fd5b81019080803573ffffffffffffffffffffffffffffffffffffffff1690602001909291908035906020019092919080359060200190640100000000811115611d0a57600080fd5b820183602082011115611d1c57600080fd5b80359060200191846020830284011164010000000083111715611d3e57600080fd5b90919293919293905050506170c8565b6040518082815260200191505060405180910390f35b611da660048036036020811015611d7a57600080fd5b81019080803573ffffffffffffffffffffffffffffffffffffffff169060200190929190505050617402565b005b611dde60048036036040811015611dbe57600080fd5b810190808035906020019092919080359060200190929190505050617488565b604051808215151515815260200191505060405180910390f35b611e62600480360360a0811015611e0e57600080fd5b81019080803573ffffffffffffffffffffffffffffffffffffffff169060200190929190803590602001909291908035906020019092919080359060200190929190803590602001909291905050506176b8565b005b611e6c61778e565b604051808381526020018281526020019250505060405180910390f35b611e916177a0565b604051808381526020018281526020019250505060405180910390f35b611eda60048036036020811015611ec457600080fd5b81019080803590602001909291905050506177b7565b6040518082815260200191505060405180910390f35b60006060600060fa73ffffffffffffffffffffffffffffffffffffffff16844360405160200180838152602001828152602001925050506040516020818303038152906040526040518082805190602001908083835b60208310611f695780518252602082019150602081019050602083039250611f46565b6001836020036101000a038019825116818451168082178552505050505050905001915050600060405180830381855afa9150503d8060008114611fc9576040519150601f19603f3d011682016040523d82523d6000602084013e611fce565b606091505b5080935081925050508061202d576040517f08c379a000000000000000000000000000000000000000000000000000000000815260040180806020018281038252603d81526020018061a9d0603d913960400191505060405180910390fd5b612038826000617900565b92505050919050565b61204d84848484617917565b50505050565b600260009054906101000a900460ff1681565b600060018060008282540192505081905550600060015490506000612089617cf8565b73ffffffffffffffffffffffffffffffffffffffff16636642d594336040518263ffffffff1660e01b8152600401808273ffffffffffffffffffffffffffffffffffffffff1673ffffffffffffffffffffffffffffffffffffffff16815260200191505060206040518083038186803b15801561210557600080fd5b505afa158015612119573d6000803e3d6000fd5b505050506040513d602081101561212f57600080fd5b8101908080519060200190929190505050905061214c8482617df3565b92505060015481146121c6576040517f08c379a000000000000000000000000000000000000000000000000000000000815260040180806020018281038252600e8152602001807f7265656e7472616e742063616c6c00000000000000000000000000000000000081525060200191505060405180910390fd5b50919050565b6000600360020160000154905090565b60008060fb73ffffffffffffffffffffffffffffffffffffffff16858585604051602001808473ffffffffffffffffffffffffffffffffffffffff1673ffffffffffffffffffffffffffffffffffffffff1660601b815260140183805190602001908083835b602083106122655780518252602082019150602081019050602083039250612242565b6001836020036101000a03801982511681845116808217855250505050505090500182805190602001908083835b602083106122b65780518252602082019150602081019050602083039250612293565b6001836020036101000a03801982511681845116808217855250505050505090500193505050506040516020818303038152906040526040518082805190602001908083835b6020831061231f57805182526020820191506020810190506020830392506122fc565b6001836020036101000a038019825116818451168082178552505050505050905001915050600060405180830381855afa9150503d806000811461237f576040519150601f19603f3d011682016040523d82523d6000602084013e612384565b606091505b505080915050809150509392505050565b600080600360000160010160008473ffffffffffffffffffffffffffffffffffffffff1673ffffffffffffffffffffffffffffffffffffffff16815260200190815260200160002060010160008573ffffffffffffffffffffffffffffffffffffffff1673ffffffffffffffffffffffffffffffffffffffff1681526020019081526020016000209050612427615387565b816001015410801561243d575060008160000154115b91505092915050565b606061245c600d60000154600d600101546147d8565b905090565b6000806125cf61246f618010565b73ffffffffffffffffffffffffffffffffffffffff166330a61d596040518163ffffffff1660e01b815260040160206040518083038186803b1580156124b457600080fd5b505afa1580156124c8573d6000803e3d6000fd5b505050506040513d60208110156124de57600080fd5b81019080805190602001909291905050506125c160016124fc61810b565b73ffffffffffffffffffffffffffffffffffffffff166339e618e8886040518263ffffffff1660e01b8152600401808273ffffffffffffffffffffffffffffffffffffffff1673ffffffffffffffffffffffffffffffffffffffff16815260200191505060206040518083038186803b15801561257857600080fd5b505afa15801561258c573d6000803e3d6000fd5b505050506040513d60208110156125a257600080fd5b810190808051906020019092919050505061820690919063ffffffff16565b61828e90919063ffffffff16565b90506000612669600d600101546125e461810b565b73ffffffffffffffffffffffffffffffffffffffff1663517f6d336040518163ffffffff1660e01b815260040160206040518083038186803b15801561262957600080fd5b505afa15801561263d573d6000803e3d6000fd5b505050506040513d602081101561265357600080fd5b8101908080519060200190929190505050618314565b905061267e818361832d90919063ffffffff16565b92505050919050565b601260008373ffffffffffffffffffffffffffffffffffffffff1673ffffffffffffffffffffffffffffffffffffffff16815260200190815260200160002060000160008273ffffffffffffffffffffffffffffffffffffffff1673ffffffffffffffffffffffffffffffffffffffff16815260200190815260200160002054601260008473ffffffffffffffffffffffffffffffffffffffff1673ffffffffffffffffffffffffffffffffffffffff168152602001908152602001600020600101600082825403925050819055506000612762828461283d565b905080601260008573ffffffffffffffffffffffffffffffffffffffff1673ffffffffffffffffffffffffffffffffffffffff16815260200190815260200160002060000160008473ffffffffffffffffffffffffffffffffffffffff1673ffffffffffffffffffffffffffffffffffffffff1681526020019081526020016000208190555080601260008573ffffffffffffffffffffffffffffffffffffffff1673ffffffffffffffffffffffffffffffffffffffff16815260200190815260200160002060010160008282540192505081905550505050565b60008061284a84846154e0565b9050600061285885856163c7565b905061286d818361820690919063ffffffff16565b9250505092915050565b600061288a82612885616968565b618377565b9050919050565b600061289b61477a565b61290d576040517f08c379a00000000000000000000000000000000000000000000000000000000081526004018080602001828103825260208152602001807f4f776e61626c653a2063616c6c6572206973206e6f7420746865206f776e657281525060200191505060405180910390fd5b600f54821415612985576040517f08c379a00000000000000000000000000000000000000000000000000000000081526004018080602001828103825260208152602001807f4d61782067726f75707320766f74656420666f72206e6f74206368616e67656481525060200191505060405180910390fd5b81600f819055507f1993a3864c31265ef86eec51d147eff697dee0466c92ac9abddcc4c4c6829348826040518082815260200191505060405180910390a160019050919050565b606060006129d8613dfc565b9050606081604051908082528060200260200182016040528015612a0b5781602001602082028038833980820191505090505b50905060008090505b82811015612a8657612a2581611ef0565b828281518110612a3157fe5b602002602001019073ffffffffffffffffffffffffffffffffffffffff16908173ffffffffffffffffffffffffffffffffffffffff1681525050612a7f60018261820690919063ffffffff16565b9050612a14565b50809250505090565b6060600360090160008373ffffffffffffffffffffffffffffffffffffffff1673ffffffffffffffffffffffffffffffffffffffff168152602001908152602001600020805480602002602001604051908101604052809291908181526020018280548015612b5357602002820191906000526020600020905b8160009054906101000a900473ffffffffffffffffffffffffffffffffffffffff1673ffffffffffffffffffffffffffffffffffffffff1681526020019060010190808311612b09575b50505050509050919050565b60006060600060f473ffffffffffffffffffffffffffffffffffffffff16846040516020018082805190602001908083835b60208310612bb45780518252602082019150602081019050602083039250612b91565b6001836020036101000a0380198251168184511680821785525050505050509050019150506040516020818303038152906040526040518082805190602001908083835b60208310612c1b5780518252602082019150602081019050602083039250612bf8565b6001836020036101000a038019825116818451168082178552505050505050905001915050600060405180830381855afa9150503d8060008114612c7b576040519150601f19603f3d011682016040523d82523d6000602084013e612c80565b606091505b50809350819250505080612cdf576040517f08c379a000000000000000000000000000000000000000000000000000000000815260040180806020018281038252603881526020018061a93f6038913960400191505060405180910390fd5b612cea8260006183bf565b92505050919050565b60108060000154905081565b60008060008060018060036000839350829250819150809050935093509350935090919293565b60006001806000828254019250508190555060006001549050600360040160000173__AddressSortedLinkedList_______________6302f130289091886040518363ffffffff1660e01b8152600401808381526020018273ffffffffffffffffffffffffffffffffffffffff1673ffffffffffffffffffffffffffffffffffffffff1681526020019250505060206040518083038186803b158015612dcb57600080fd5b505af4158015612ddf573d6000803e3d6000fd5b505050506040513d6020811015612df557600080fd5b8101908080519060200190929190505050612e78576040517f08c379a00000000000000000000000000000000000000000000000000000000081526004018080602001828103825260128152602001807f47726f7570206e6f7420656c696769626c65000000000000000000000000000081525060200191505060405180910390fd5b84600010612eee576040517f08c379a00000000000000000000000000000000000000000000000000000000081526004018080602001828103825260198152602001807f566f74652076616c75652063616e6e6f74206265207a65726f0000000000000081525060200191505060405180910390fd5b612ef88686616c6a565b612f6a576040517f08c379a000000000000000000000000000000000000000000000000000000000815260040180806020018281038252601a8152602001807f47726f75702063616e6e6f74207265636569766520766f74657300000000000081525060200191505060405180910390fd5b6000612f74617cf8565b73ffffffffffffffffffffffffffffffffffffffff16636642d594336040518263ffffffff1660e01b8152600401808273ffffffffffffffffffffffffffffffffffffffff1673ffffffffffffffffffffffffffffffffffffffff16815260200191505060206040518083038186803b158015612ff057600080fd5b505afa158015613004573d6000803e3d6000fd5b505050506040513d602081101561301a57600080fd5b8101908080519060200190929190505050905060008090506000600360090160008473ffffffffffffffffffffffffffffffffffffffff1673ffffffffffffffffffffffffffffffffffffffff168152602001908152602001600020905060008090505b81805490508110156131145782806130f757508973ffffffffffffffffffffffffffffffffffffffff168282815481106130b457fe5b9060005260206000200160009054906101000a900473ffffffffffffffffffffffffffffffffffffffff1673ffffffffffffffffffffffffffffffffffffffff16145b925061310d60018261820690919063ffffffff16565b905061307e565b508161324f57601160003373ffffffffffffffffffffffffffffffffffffffff1673ffffffffffffffffffffffffffffffffffffffff16815260200190815260200160002060009054906101000a900460ff16806131775750600f548180549050105b6131e9576040517f08c379a00000000000000000000000000000000000000000000000000000000081526004018080602001828103825260198152602001807f566f74656420666f7220746f6f206d616e792067726f7570730000000000000081525060200191505060405180910390fd5b808990806001815401808255809150509060018203906000526020600020016000909192909190916101000a81548173ffffffffffffffffffffffffffffffffffffffff021916908373ffffffffffffffffffffffffffffffffffffffff160217905550505b61325a89848a618460565b613267838a8a8a8a618568565b61326f618010565b73ffffffffffffffffffffffffffffffffffffffff166318a4ff8c848a6040518363ffffffff1660e01b8152600401808373ffffffffffffffffffffffffffffffffffffffff1673ffffffffffffffffffffffffffffffffffffffff16815260200182815260200192505050600060405180830381600087803b1580156132f557600080fd5b505af1158015613309573d6000803e3d6000fd5b505050508873ffffffffffffffffffffffffffffffffffffffff168373ffffffffffffffffffffffffffffffffffffffff167fd3532f70444893db82221041edb4dc26c94593aeb364b0b14dfc77d5ee9051528a6040518082815260200191505060405180910390a36001945050505060015481146133f0576040517f08c379a000000000000000000000000000000000000000000000000000000000815260040180806020018281038252600e8152602001807f7265656e7472616e742063616c6c00000000000000000000000000000000000081525060200191505060405180910390fd5b50949350505050565b6000600360020160010160008373ffffffffffffffffffffffffffffffffffffffff1673ffffffffffffffffffffffffffffffffffffffff168152602001908152602001600020600101549050919050565b60006060600060fa73ffffffffffffffffffffffffffffffffffffffff16858560405160200180838152602001828152602001925050506040516020818303038152906040526040518082805190602001908083835b602083106134c457805182526020820191506020810190506020830392506134a1565b6001836020036101000a038019825116818451168082178552505050505050905001915050600060405180830381855afa9150503d8060008114613524576040519150601f19603f3d011682016040523d82523d6000602084013e613529565b606091505b50809350819250505080613588576040517f08c379a000000000000000000000000000000000000000000000000000000000815260040180806020018281038252603681526020018061aa426036913960400191505060405180910390fd5b613593826000617900565b9250505092915050565b60006135a761477a565b613619576040517f08c379a00000000000000000000000000000000000000000000000000000000081526004018080602001828103825260208152602001807f4f776e61626c653a2063616c6c6572206973206e6f7420746865206f776e657281525060200191505060405180910390fd5b613622826187be565b60106000820151816000015590505061366161363c6187dc565b601060405180602001604052908160008201548152505061880290919063ffffffff16565b6136b6576040517f08c379a000000000000000000000000000000000000000000000000000000000815260040180806020018281038252602e81526020018061a911602e913960400191505060405180910390fd5b7f9854be03126e38f9c318d8aabe1b150d09cb3a57059b21855b1e11d44e082c1a826040518082815260200191505060405180910390a160019050919050565b60006060600060f673ffffffffffffffffffffffffffffffffffffffff16846040516020018082805190602001908083835b6020831061374b5780518252602082019150602081019050602083039250613728565b6001836020036101000a0380198251168184511680821785525050505050509050019150506040516020818303038152906040526040518082805190602001908083835b602083106137b2578051825260208201915060208101905060208303925061378f565b6001836020036101000a038019825116818451168082178552505050505050905001915050600060405180830381855afa9150503d8060008114613812576040519150601f19603f3d011682016040523d82523d6000602084013e613817565b606091505b50809350819250505080613876576040517f08c379a000000000000000000000000000000000000000000000000000000000815260040180806020018281038252602381526020018061abdb6023913960400191505060405180910390fd5b6138818260006183bf565b92505050919050565b60006060600360090160008473ffffffffffffffffffffffffffffffffffffffff1673ffffffffffffffffffffffffffffffffffffffff16815260200190815260200160002080548060200260200160405190810160405280929190818152602001828054801561395057602002820191906000526020600020905b8160009054906101000a900473ffffffffffffffffffffffffffffffffffffffff1673ffffffffffffffffffffffffffffffffffffffff1681526020019060010190808311613906575b50505050509050600f54815111156139ad57601260008473ffffffffffffffffffffffffffffffffffffffff1673ffffffffffffffffffffffffffffffffffffffff16815260200190815260200160002060010154915050613a14565b600080905060008090505b8251811015613a0d576139f06139e18483815181106139d357fe5b60200260200101518761283d565b8361820690919063ffffffff16565b9150613a0660018261820690919063ffffffff16565b90506139b8565b5080925050505b919050565b60006001806000828254019250508190555060006001549050613a3f8787878787618817565b91506001548114613ab8576040517f08c379a000000000000000000000000000000000000000000000000000000000815260040180806020018281038252600e8152602001807f7265656e7472616e742063616c6c00000000000000000000000000000000000081525060200191505060405180910390fd5b5095945050505050565b606080600360040160000173__AddressSortedLinkedList_______________6369b317e390916040518263ffffffff1660e01b81526004018082815260200191505060006040518083038186803b158015613b1d57600080fd5b505af4158015613b31573d6000803e3d6000fd5b505050506040513d6000823e3d601f19601f820116820180604052506040811015613b5b57600080fd5b8101908080516040519392919084640100000000821115613b7b57600080fd5b83820191506020820185811115613b9157600080fd5b8251866020820283011164010000000082111715613bae57600080fd5b8083526020830192505050908051906020019060200280838360005b83811015613be5578082015181840152602081019050613bca565b5050505090500160405260200180516040519392919084640100000000821115613c0e57600080fd5b83820191506020820185811115613c2457600080fd5b8251866020820283011164010000000082111715613c4157600080fd5b8083526020830192505050908051906020019060200280838360005b83811015613c78578082015181840152602081019050613c5d565b50505050905001604052505050915091509091565b613c9561477a565b613d07576040517f08c379a00000000000000000000000000000000000000000000000000000000081526004018080602001828103825260208152602001807f4f776e61626c653a2063616c6c6572206973206e6f7420746865206f776e657281525060200191505060405180910390fd5b600073ffffffffffffffffffffffffffffffffffffffff166000809054906101000a900473ffffffffffffffffffffffffffffffffffffffff1673ffffffffffffffffffffffffffffffffffffffff167f8be0079c531659141344cd1fd0a4f28419497f9722a3daafe3b4186f6b6457e060405160405180910390a360008060006101000a81548173ffffffffffffffffffffffffffffffffffffffff021916908373ffffffffffffffffffffffffffffffffffffffff160217905550565b6000613dd143616c1f565b905090565b600260019054906101000a900473ffffffffffffffffffffffffffffffffffffffff1681565b60006060600060f973ffffffffffffffffffffffffffffffffffffffff1643604051602001808281526020019150506040516020818303038152906040526040518082805190602001908083835b60208310613e6d5780518252602082019150602081019050602083039250613e4a565b6001836020036101000a038019825116818451168082178552505050505050905001915050600060405180830381855afa9150503d8060008114613ecd576040519150601f19603f3d011682016040523d82523d6000602084013e613ed2565b606091505b50809350819250505080613f31576040517f08c379a000000000000000000000000000000000000000000000000000000000815260040180806020018281038252603581526020018061aa0d6035913960400191505060405180910390fd5b613f3c826000617900565b9250505090565b60006060600060f773ffffffffffffffffffffffffffffffffffffffff16846040516020018082805190602001908083835b60208310613f985780518252602082019150602081019050602083039250613f75565b6001836020036101000a0380198251168184511680821785525050505050509050019150506040516020818303038152906040526040518082805190602001908083835b60208310613fff5780518252602082019150602081019050602083039250613fdc565b6001836020036101000a038019825116818451168082178552505050505050905001915050600060405180830381855afa9150503d806000811461405f576040519150601f19603f3d011682016040523d82523d6000602084013e614064565b606091505b508093508192505050806140c3576040517f08c379a000000000000000000000000000000000000000000000000000000000815260040180806020018281038252603181526020018061ab586031913960400191505060405180910390fd5b6140ce826000617900565b92505050919050565b6000600360040160000173__AddressSortedLinkedList_______________6302f130289091846040518363ffffffff1660e01b8152600401808381526020018273ffffffffffffffffffffffffffffffffffffffff1673ffffffffffffffffffffffffffffffffffffffff1681526020019250505060206040518083038186803b15801561416557600080fd5b505af4158015614179573d6000803e3d6000fd5b505050506040513d602081101561418f57600080fd5b81019080805190602001909291905050509050919050565b60008060009054906101000a900473ffffffffffffffffffffffffffffffffffffffff16905090565b6000600180600082825401925050819055506000600154905060405160200180807f4c6f636b6564476f6c6400000000000000000000000000000000000000000000815250600a019050604051602081830303815290604052805190602001203373ffffffffffffffffffffffffffffffffffffffff16600260019054906101000a900473ffffffffffffffffffffffffffffffffffffffff1673ffffffffffffffffffffffffffffffffffffffff1663dcf0aaed836040518263ffffffff1660e01b81526004018082815260200191505060206040518083038186803b1580156142ba57600080fd5b505afa1580156142ce573d6000803e3d6000fd5b505050506040513d60208110156142e457600080fd5b810190808051906020019092919050505073ffffffffffffffffffffffffffffffffffffffff161461437e576040517f08c379a00000000000000000000000000000000000000000000000000000000081526004018080602001828103825260188152602001807f6f6e6c79207265676973746572656420636f6e7472616374000000000000000081525060200191505060405180910390fd5b60008a116143d7576040517f08c379a000000000000000000000000000000000000000000000000000000000815260040180806020018281038252602781526020018061abb46027913960400191505060405180910390fd5b6143df61a790565b6040518060400160405280600360090160008f73ffffffffffffffffffffffffffffffffffffffff1673ffffffffffffffffffffffffffffffffffffffff1681526020019081526020016000208054806020026020016040519081016040528092919081815260200182805480156144ac57602002820191906000526020600020905b8160009054906101000a900473ffffffffffffffffffffffffffffffffffffffff1673ffffffffffffffffffffffffffffffffffffffff1681526020019060010190808311614462575b505050505081526020018c81525090508060000151518a8a9050111580156144d95750878790508a8a9050145b80156144ea57508585905088889050145b61453f576040517f08c379a000000000000000000000000000000000000000000000000000000000815260040180806020018281038252602181526020018061a8b16021913960400191505060405180910390fd5b600081600001515190505b60008111156146765761464061462d8e8460000151614573600186618bf390919063ffffffff16565b8151811061457d57fe5b602002602001015185602001518f8f6145a0600189618bf390919063ffffffff16565b8181106145a957fe5b9050602002013573ffffffffffffffffffffffffffffffffffffffff168e8e6145dc60018a618bf390919063ffffffff16565b8181106145e557fe5b9050602002013573ffffffffffffffffffffffffffffffffffffffff168d8d61461860018b618bf390919063ffffffff16565b81811061462157fe5b90506020020135618c3d565b8360200151618bf390919063ffffffff16565b82602001818152505060008260200151141561465b57614676565b61466f600182618bf390919063ffffffff16565b905061454a565b5060008160200151146146f1576040517f08c379a000000000000000000000000000000000000000000000000000000000815260040180806020018281038252601f8152602001807f4661696c75726520746f2064656372656d656e7420616c6c20766f7465732e0081525060200191505060405180910390fd5b8a93505050600154811461476d576040517f08c379a000000000000000000000000000000000000000000000000000000000815260040180806020018281038252600e8152602001807f7265656e7472616e742063616c6c00000000000000000000000000000000000081525060200191505060405180910390fd5b5098975050505050505050565b60008060009054906101000a900473ffffffffffffffffffffffffffffffffffffffff1673ffffffffffffffffffffffffffffffffffffffff166147bc618e52565b73ffffffffffffffffffffffffffffffffffffffff1614905090565b6060600061481c6148176147f26147ed61535d565b618e5a565b6010604051806020016040529081600082015481525050618ee490919063ffffffff16565b619343565b90506000600360040160000173__AddressSortedLinkedList_______________6342b6351a909184876040518463ffffffff1660e01b815260040180848152602001838152602001828152602001935050505060206040518083038186803b15801561488857600080fd5b505af415801561489c573d6000803e3d6000fd5b505050506040513d60208110156148b257600080fd5b810190808051906020019092919050505090506060600360040160000173__AddressSortedLinkedList_______________63dcb2a4dd9091846040518363ffffffff1660e01b8152600401808381526020018281526020019250505060006040518083038186803b15801561492757600080fd5b505af415801561493b573d6000803e3d6000fd5b505050506040513d6000823e3d601f19601f82011682018060405250602081101561496557600080fd5b810190808051604051939291908464010000000082111561498557600080fd5b8382019150602082018581111561499b57600080fd5b82518660208202830111640100000000821117156149b857600080fd5b8083526020830192505050908051906020019060200280838360005b838110156149ef5780820151818401526020810190506149d4565b5050505090500160405250505090506060614a0861810b565b73ffffffffffffffffffffffffffffffffffffffff166370447754836040518263ffffffff1660e01b81526004018080602001828103825283818151815260200191508051906020019060200280838360005b83811015614a76578082015181840152602081019050614a5b565b505050509050019250505060006040518083038186803b158015614a9957600080fd5b505afa158015614aad573d6000803e3d6000fd5b505050506040513d6000823e3d601f19601f820116820180604052506020811015614ad757600080fd5b8101908080516040519392919084640100000000821115614af757600080fd5b83820191506020820185811115614b0d57600080fd5b8251866020820283011164010000000082111715614b2a57600080fd5b8083526020830192505050908051906020019060200280838360005b83811015614b61578082015181840152602081019050614b46565b50505050905001604052505050905060608251604051908082528060200260200182016040528015614ba25781602001602082028038833980820191505090505b509050600080905060608451604051908082528060200260200182016040528015614bdc5781602001602082028038833980820191505090505b50905060608551604051908082528060200260200182016040528015614c1c57816020015b614c0961a7aa565b815260200190600190039081614c015790505b50905060008090505b8651811015614d5b5780838281518110614c3b57fe5b602002602001018181525050614d29600360040160000173__AddressSortedLinkedList_______________63e0fe44b390918a8581518110614c7a57fe5b60200260200101516040518363ffffffff1660e01b8152600401808381526020018273ffffffffffffffffffffffffffffffffffffffff1673ffffffffffffffffffffffffffffffffffffffff1681526020019250505060206040518083038186803b158015614ce957600080fd5b505af4158015614cfd573d6000803e3d6000fd5b505050506040513d6020811015614d1357600080fd5b8101908080519060200190929190505050618e5a565b828281518110614d3557fe5b6020026020010181905250614d5460018261820690919063ffffffff16565b9050614c25565b505b8983108015614d6d575060008651115b15614fa757600082600081518110614d8157fe5b602002602001015190506000614da9838381518110614d9c57fe5b6020026020010151619364565b1415614db55750614fa7565b848181518110614dc157fe5b6020026020010151868281518110614dd557fe5b602002602001015111614e0857614dec60006187be565b828281518110614df857fe5b6020026020010181905250614f97565b614e2f6001868381518110614e1957fe5b602002602001015161820690919063ffffffff16565b858281518110614e3b57fe5b602002602001018181525050614e5b60018561820690919063ffffffff16565b9350614f7f614e8f614e8a6001888581518110614e7457fe5b602002602001015161820690919063ffffffff16565b618e5a565b614f71600360040160000173__AddressSortedLinkedList_______________63e0fe44b390918c8781518110614ec257fe5b60200260200101516040518363ffffffff1660e01b8152600401808381526020018273ffffffffffffffffffffffffffffffffffffffff1673ffffffffffffffffffffffffffffffffffffffff1681526020019250505060206040518083038186803b158015614f3157600080fd5b505af4158015614f45573d6000803e3d6000fd5b505050506040513d6020811015614f5b57600080fd5b8101908080519060200190929190505050618e5a565b61937290919063ffffffff16565b828281518110614f8b57fe5b60200260200101819052505b614fa183836194bb565b50614d5d565b8a83101561501d576040517f08c379a000000000000000000000000000000000000000000000000000000000815260040180806020018281038252601d8152602001807f4e6f7420656e6f75676820656c65637465642076616c696461746f727300000081525060200191505060405180910390fd5b60608360405190808252806020026020018201604052801561504e5781602001602082028038833980820191505090505b5090506000935060008090505b87518110156152a657606061506e61810b565b73ffffffffffffffffffffffffffffffffffffffff16638dd31e398a848151811061509557fe5b60200260200101518985815181106150a957fe5b60200260200101516040518363ffffffff1660e01b8152600401808373ffffffffffffffffffffffffffffffffffffffff1673ffffffffffffffffffffffffffffffffffffffff1681526020018281526020019250505060006040518083038186803b15801561511857600080fd5b505afa15801561512c573d6000803e3d6000fd5b505050506040513d6000823e3d601f19601f82011682018060405250602081101561515657600080fd5b810190808051604051939291908464010000000082111561517657600080fd5b8382019150602082018581111561518c57600080fd5b82518660208202830111640100000000821117156151a957600080fd5b8083526020830192505050908051906020019060200280838360005b838110156151e05780820151818401526020810190506151c5565b50505050905001604052505050905060008090505b81518110156152895781818151811061520a57fe5b602002602001015184888151811061521e57fe5b602002602001019073ffffffffffffffffffffffffffffffffffffffff16908173ffffffffffffffffffffffffffffffffffffffff168152505061526c60018861820690919063ffffffff16565b965061528260018261820690919063ffffffff16565b90506151f5565b505061529f60018261820690919063ffffffff16565b905061505b565b5080995050505050505050505092915050565b6000600360020160010160008373ffffffffffffffffffffffffffffffffffffffff1673ffffffffffffffffffffffffffffffffffffffff168152602001908152602001600020600001549050919050565b6000600360000160010160008373ffffffffffffffffffffffffffffffffffffffff1673ffffffffffffffffffffffffffffffffffffffff168152602001908152602001600020600001549050919050565b600061538260036000016000015460036002016000015461820690919063ffffffff16565b905090565b600061539243612877565b905090565b60006060600060f973ffffffffffffffffffffffffffffffffffffffff1684604051602001808281526020019150506040516020818303038152906040526040518082805190602001908083835b6020831061540857805182526020820191506020810190506020830392506153e5565b6001836020036101000a038019825116818451168082178552505050505050905001915050600060405180830381855afa9150503d8060008114615468576040519150601f19603f3d011682016040523d82523d6000602084013e61546d565b606091505b508093508192505050806154cc576040517f08c379a000000000000000000000000000000000000000000000000000000000815260040180806020018281038252602e81526020018061a85d602e913960400191505060405180910390fd5b6154d7826000617900565b92505050919050565b6000600360000160010160008473ffffffffffffffffffffffffffffffffffffffff1673ffffffffffffffffffffffffffffffffffffffff16815260200190815260200160002060010160008373ffffffffffffffffffffffffffffffffffffffff1673ffffffffffffffffffffffffffffffffffffffff16815260200190815260200160002060000154905092915050565b60006001806000828254019250508190555060006001549050600073ffffffffffffffffffffffffffffffffffffffff168773ffffffffffffffffffffffffffffffffffffffff16141561562f576040517f08c379a00000000000000000000000000000000000000000000000000000000081526004018080602001828103825260128152602001807f47726f75702061646472657373207a65726f000000000000000000000000000081525060200191505060405180910390fd5b6000615639617cf8565b73ffffffffffffffffffffffffffffffffffffffff16636642d594336040518263ffffffff1660e01b8152600401808273ffffffffffffffffffffffffffffffffffffffff1673ffffffffffffffffffffffffffffffffffffffff16815260200191505060206040518083038186803b1580156156b557600080fd5b505afa1580156156c9573d6000803e3d6000fd5b505050506040513d60208110156156df57600080fd5b8101908080519060200190929190505050905086600010615768576040517f08c379a00000000000000000000000000000000000000000000000000000000081526004018080602001828103825260198152602001807f566f74652076616c75652063616e6e6f74206265207a65726f0000000000000081525060200191505060405180910390fd5b61577288826154e0565b8711156157ca576040517f08c379a000000000000000000000000000000000000000000000000000000000815260040180806020018281038252602481526020018061aae56024913960400191505060405180910390fd5b6157d58882896194cd565b6157e281898989896195dd565b6157ea618010565b73ffffffffffffffffffffffffffffffffffffffff16636edf77a582896040518363ffffffff1660e01b8152600401808373ffffffffffffffffffffffffffffffffffffffff1673ffffffffffffffffffffffffffffffffffffffff16815260200182815260200192505050600060405180830381600087803b15801561587057600080fd5b505af1158015615884573d6000803e3d6000fd5b505050506000615894898361283d565b14156158e7576158e6600360090160008373ffffffffffffffffffffffffffffffffffffffff1673ffffffffffffffffffffffffffffffffffffffff1681526020019081526020016000208986619900565b5b8773ffffffffffffffffffffffffffffffffffffffff168173ffffffffffffffffffffffffffffffffffffffff167f148075455e24d5cf538793db3e917a157cbadac69dd6a304186daf11b23f76fe896040518082815260200191505060405180910390a3600192505060015481146159c8576040517f08c379a000000000000000000000000000000000000000000000000000000000815260040180806020018281038252600e8152602001807f7265656e7472616e742063616c6c00000000000000000000000000000000000081525060200191505060405180910390fd5b5095945050505050565b60405160200180807f56616c696461746f727300000000000000000000000000000000000000000000815250600a019050604051602081830303815290604052805190602001203373ffffffffffffffffffffffffffffffffffffffff16600260019054906101000a900473ffffffffffffffffffffffffffffffffffffffff1673ffffffffffffffffffffffffffffffffffffffff1663dcf0aaed836040518263ffffffff1660e01b81526004018082815260200191505060206040518083038186803b158015615aa357600080fd5b505afa158015615ab7573d6000803e3d6000fd5b505050506040513d6020811015615acd57600080fd5b810190808051906020019092919050505073ffffffffffffffffffffffffffffffffffffffff1614615b67576040517f08c379a00000000000000000000000000000000000000000000000000000000081526004018080602001828103825260188152602001807f6f6e6c79207265676973746572656420636f6e7472616374000000000000000081525060200191505060405180910390fd5b6000615b72856168bc565b9050600360040160000173__AddressSortedLinkedList_______________632dedbbf09091878488886040518663ffffffff1660e01b8152600401808681526020018573ffffffffffffffffffffffffffffffffffffffff1673ffffffffffffffffffffffffffffffffffffffff1681526020018481526020018373ffffffffffffffffffffffffffffffffffffffff1673ffffffffffffffffffffffffffffffffffffffff1681526020018273ffffffffffffffffffffffffffffffffffffffff1673ffffffffffffffffffffffffffffffffffffffff1681526020019550505050505060006040518083038186803b158015615c7057600080fd5b505af4158015615c84573d6000803e3d6000fd5b505050508473ffffffffffffffffffffffffffffffffffffffff167f8f21dc7ff6f55d73e4fca52a4ef4fcc14fbda43ac338d24922519d51455d39c160405160405180910390a25050505050565b6000600360020160010160008473ffffffffffffffffffffffffffffffffffffffff1673ffffffffffffffffffffffffffffffffffffffff16815260200190815260200160002060020160008373ffffffffffffffffffffffffffffffffffffffff1673ffffffffffffffffffffffffffffffffffffffff16815260200190815260200160002054905092915050565b6060600360040160000173__AddressSortedLinkedList_______________633a72e80290916040518263ffffffff1660e01b81526004018082815260200191505060006040518083038186803b158015615dbc57600080fd5b505af4158015615dd0573d6000803e3d6000fd5b505050506040513d6000823e3d601f19601f820116820180604052506020811015615dfa57600080fd5b8101908080516040519392919084640100000000821115615e1a57600080fd5b83820191506020820185811115615e3057600080fd5b8251866020820283011164010000000082111715615e4d57600080fd5b8083526020830192505050908051906020019060200280838360005b83811015615e84578082015181840152602081019050615e69565b50505050905001604052505050905090565b60405160200180807f56616c696461746f727300000000000000000000000000000000000000000000815250600a019050604051602081830303815290604052805190602001203373ffffffffffffffffffffffffffffffffffffffff16600260019054906101000a900473ffffffffffffffffffffffffffffffffffffffff1673ffffffffffffffffffffffffffffffffffffffff1663dcf0aaed836040518263ffffffff1660e01b81526004018082815260200191505060206040518083038186803b158015615f6757600080fd5b505afa158015615f7b573d6000803e3d6000fd5b505050506040513d6020811015615f9157600080fd5b810190808051906020019092919050505073ffffffffffffffffffffffffffffffffffffffff161461602b576040517f08c379a00000000000000000000000000000000000000000000000000000000081526004018080602001828103825260188152602001807f6f6e6c79207265676973746572656420636f6e7472616374000000000000000081525060200191505060405180910390fd5b600360040160000173__AddressSortedLinkedList_______________63281359299091846040518363ffffffff1660e01b8152600401808381526020018273ffffffffffffffffffffffffffffffffffffffff1673ffffffffffffffffffffffffffffffffffffffff1681526020019250505060006040518083038186803b1580156160b757600080fd5b505af41580156160cb573d6000803e3d6000fd5b505050508173ffffffffffffffffffffffffffffffffffffffff167f5c8cd4e832f3a7d79f9208c2acf25a412143aa3f751cfd3728c42a0fea4921a860405160405180910390a25050565b61611e61477a565b616190576040517f08c379a00000000000000000000000000000000000000000000000000000000081526004018080602001828103825260208152602001807f4f776e61626c653a2063616c6c6572206973206e6f7420746865206f776e657281525060200191505060405180910390fd5b600073ffffffffffffffffffffffffffffffffffffffff168173ffffffffffffffffffffffffffffffffffffffff161415616233576040517f08c379a00000000000000000000000000000000000000000000000000000000081526004018080602001828103825260208152602001807f43616e6e6f7420726567697374657220746865206e756c6c206164647265737381525060200191505060405180910390fd5b80600260016101000a81548173ffffffffffffffffffffffffffffffffffffffff021916908373ffffffffffffffffffffffffffffffffffffffff1602179055508073ffffffffffffffffffffffffffffffffffffffff167f27fe5f0c1c3b1ed427cc63d0f05759ffdecf9aec9e18d31ef366fc8a6cb5dc3b60405160405180910390a250565b600f5481565b60006162e16010604051806020016040529081600082015481525050619364565b905090565b600060018060008282540192505081905550600060015490506163098484617df3565b91506001548114616382576040517f08c379a000000000000000000000000000000000000000000000000000000000815260040180806020018281038252600e8152602001807f7265656e7472616e742063616c6c00000000000000000000000000000000000081525060200191505060405180910390fd5b5092915050565b60116020528060005260406000206000915054906101000a900460ff1681565b60126020528060005260406000206000915090508060010154905081565b600061645883600360020160010160008673ffffffffffffffffffffffffffffffffffffffff1673ffffffffffffffffffffffffffffffffffffffff16815260200190815260200160002060020160008573ffffffffffffffffffffffffffffffffffffffff1673ffffffffffffffffffffffffffffffffffffffff16815260200190815260200160002054619aa1565b905092915050565b600061646a617cf8565b73ffffffffffffffffffffffffffffffffffffffff16636642d594336040518263ffffffff1660e01b8152600401808273ffffffffffffffffffffffffffffffffffffffff1673ffffffffffffffffffffffffffffffffffffffff16815260200191505060206040518083038186803b1580156164e657600080fd5b505afa1580156164fa573d6000803e3d6000fd5b505050506040513d602081101561651057600080fd5b81019080805190602001909291905050509050600061652d61810b565b90508073ffffffffffffffffffffffffffffffffffffffff1663facd743b836040518263ffffffff1660e01b8152600401808273ffffffffffffffffffffffffffffffffffffffff1673ffffffffffffffffffffffffffffffffffffffff16815260200191505060206040518083038186803b1580156165ac57600080fd5b505afa1580156165c0573d6000803e3d6000fd5b505050506040513d60208110156165d657600080fd5b81019080805190602001909291905050501561663d576040517f08c379a000000000000000000000000000000000000000000000000000000000815260040180806020018281038252603981526020018061abfe6039913960400191505060405180910390fd5b8073ffffffffffffffffffffffffffffffffffffffff166352f13a4e836040518263ffffffff1660e01b8152600401808273ffffffffffffffffffffffffffffffffffffffff1673ffffffffffffffffffffffffffffffffffffffff16815260200191505060206040518083038186803b1580156166ba57600080fd5b505afa1580156166ce573d6000803e3d6000fd5b505050506040513d60208110156166e457600080fd5b81019080805190602001909291905050501561674b576040517f08c379a000000000000000000000000000000000000000000000000000000000815260040180806020018281038252603f81526020018061a8d2603f913960400191505060405180910390fd5b8261680e57600f54600360090160008473ffffffffffffffffffffffffffffffffffffffff1673ffffffffffffffffffffffffffffffffffffffff16815260200190815260200160002080549050111561680d576040517f08c379a000000000000000000000000000000000000000000000000000000000815260040180806020018281038252601a8152602001807f546f6f206d616e792067726f75707320766f74656420666f722100000000000081525060200191505060405180910390fd5b5b82601160008473ffffffffffffffffffffffffffffffffffffffff1673ffffffffffffffffffffffffffffffffffffffff16815260200190815260200160002060006101000a81548160ff0219169083151502179055508173ffffffffffffffffffffffffffffffffffffffff167fd9ff9bf9c0aa22c57c14972fe77841756843243a74e331dabcb04a4d8dbf11ff84604051808215151515815260200191505060405180910390a2505050565b6000616961600360020160010160008473ffffffffffffffffffffffffffffffffffffffff1673ffffffffffffffffffffffffffffffffffffffff16815260200190815260200160002060000154600360000160010160008573ffffffffffffffffffffffffffffffffffffffff1673ffffffffffffffffffffffffffffffffffffffff1681526020019081526020016000206000015461820690919063ffffffff16565b9050919050565b60006060600060f873ffffffffffffffffffffffffffffffffffffffff166040516020016040516020818303038152906040526040518082805190602001908083835b602083106169ce57805182526020820191506020810190506020830392506169ab565b6001836020036101000a038019825116818451168082178552505050505050905001915050600060405180830381855afa9150503d8060008114616a2e576040519150601f19603f3d011682016040523d82523d6000602084013e616a33565b606091505b50809350819250505080616a92576040517f08c379a000000000000000000000000000000000000000000000000000000000815260040180806020018281038252602581526020018061aac06025913960400191505060405180910390fd5b616a9d826000617900565b9250505090565b600060018060008282540192505081905550600060015490506000616ac7617cf8565b73ffffffffffffffffffffffffffffffffffffffff16636642d594336040518263ffffffff1660e01b8152600401808273ffffffffffffffffffffffffffffffffffffffff1673ffffffffffffffffffffffffffffffffffffffff16815260200191505060206040518083038186803b158015616b4357600080fd5b505afa158015616b57573d6000803e3d6000fd5b505050506040513d6020811015616b6d57600080fd5b810190808051906020019092919050505090506000616b8c88836163c7565b9050616b9b8882898989618817565b935050506001548114616c16576040517f08c379a000000000000000000000000000000000000000000000000000000000815260040180806020018281038252600e8152602001807f7265656e7472616e742063616c6c00000000000000000000000000000000000081525060200191505060405180910390fd5b50949350505050565b6000616c636003616c556002616c476002616c3988615397565b61828e90919063ffffffff16565b61820690919063ffffffff16565b61832d90919063ffffffff16565b9050919050565b600080616c8883616c7a866168bc565b61820690919063ffffffff16565b90506000616d34616d25600d60010154616ca061810b565b73ffffffffffffffffffffffffffffffffffffffff1663517f6d336040518163ffffffff1660e01b815260040160206040518083038186803b158015616ce557600080fd5b505afa158015616cf9573d6000803e3d6000fd5b505050506040513d6020811015616d0f57600080fd5b8101908080519060200190929190505050618314565b8361828e90919063ffffffff16565b90506000616ea3616d43618010565b73ffffffffffffffffffffffffffffffffffffffff166330a61d596040518163ffffffff1660e01b815260040160206040518083038186803b158015616d8857600080fd5b505afa158015616d9c573d6000803e3d6000fd5b505050506040513d6020811015616db257600080fd5b8101908080519060200190929190505050616e956001616dd061810b565b73ffffffffffffffffffffffffffffffffffffffff166339e618e88b6040518263ffffffff1660e01b8152600401808273ffffffffffffffffffffffffffffffffffffffff1673ffffffffffffffffffffffffffffffffffffffff16815260200191505060206040518083038186803b158015616e4c57600080fd5b505afa158015616e60573d6000803e3d6000fd5b505050506040513d6020811015616e7657600080fd5b810190808051906020019092919050505061820690919063ffffffff16565b61828e90919063ffffffff16565b905080821115935050505092915050565b60008060008714158015616ec9575060008514155b616f3b576040517f08c379a00000000000000000000000000000000000000000000000000000000081526004018080602001828103825260158152602001807f612064656e6f6d696e61746f72206973207a65726f000000000000000000000081525060200191505060405180910390fd5b6000806000606060fc73ffffffffffffffffffffffffffffffffffffffff168c8c8c8c8c8c6040516020018087815260200186815260200185815260200184815260200183815260200182815260200196505050505050506040516020818303038152906040526040518082805190602001908083835b60208310616fd55780518252602082019150602081019050602083039250616fb2565b6001836020036101000a038019825116818451168082178552505050505050905001915050600060405180830381855afa9150503d8060008114617035576040519150601f19603f3d011682016040523d82523d6000602084013e61703a565b606091505b50809250819350505081617099576040517f08c379a000000000000000000000000000000000000000000000000000000000815260040180806020018281038252602781526020018061aa996027913960400191505060405180910390fd5b6170a4816000617900565b93506170b1816020617900565b925083839550955050505050965096945050505050565b6000806170d361810b565b90508073ffffffffffffffffffffffffffffffffffffffff1663c54c1cd4876040518263ffffffff1660e01b8152600401808273ffffffffffffffffffffffffffffffffffffffff1673ffffffffffffffffffffffffffffffffffffffff16815260200191505060206040518083038186803b15801561715257600080fd5b505afa158015617166573d6000803e3d6000fd5b505050506040513d602081101561717c57600080fd5b810190808051906020019092919050505015806171a25750600060036002016000015411155b156171b15760009150506173fa565b6171b961a7bd565b617213600360020160010160008973ffffffffffffffffffffffffffffffffffffffff1673ffffffffffffffffffffffffffffffffffffffff16815260200190815260200160002060000154600360020160000154619bba565b905061721d61a7bd565b6172e08373ffffffffffffffffffffffffffffffffffffffff166376f7425d88886040518363ffffffff1660e01b815260040180806020018281038252848482818152602001925060200280828437600081840152601f19601f820116905080830192505050935050505060206040518083038186803b1580156172a057600080fd5b505afa1580156172b4573d6000803e3d6000fd5b505050506040513d60208110156172ca57600080fd5b81019080805190602001909291905050506187be565b90506172ea61a7bd565b6173aa8473ffffffffffffffffffffffffffffffffffffffff1663dba94fcd8b6040518263ffffffff1660e01b8152600401808273ffffffffffffffffffffffffffffffffffffffff1673ffffffffffffffffffffffffffffffffffffffff16815260200191505060206040518083038186803b15801561736a57600080fd5b505afa15801561737e573d6000803e3d6000fd5b505050506040513d602081101561739457600080fd5b81019080805190602001909291905050506187be565b90506173f36173ee826173e0856173d2886173c48f618e5a565b618ee490919063ffffffff16565b618ee490919063ffffffff16565b618ee490919063ffffffff16565b619343565b9450505050505b949350505050565b61740a61477a565b61747c576040517f08c379a00000000000000000000000000000000000000000000000000000000081526004018080602001828103825260208152602001807f4f776e61626c653a2063616c6c6572206973206e6f7420746865206f776e657281525060200191505060405180910390fd5b61748581619bfc565b50565b600061749261477a565b617504576040517f08c379a00000000000000000000000000000000000000000000000000000000081526004018080602001828103825260208152602001807f4f776e61626c653a2063616c6c6572206973206e6f7420746865206f776e657281525060200191505060405180910390fd5b8260001061755d576040517f08c379a000000000000000000000000000000000000000000000000000000000815260040180806020018281038252602b81526020018061ab89602b913960400191505060405180910390fd5b818311156175b6576040517f08c379a000000000000000000000000000000000000000000000000000000000815260040180806020018281038252603b81526020018061a822603b913960400191505060405180910390fd5b600d60000154831415806175cf5750600d600101548214155b617641576040517f08c379a00000000000000000000000000000000000000000000000000000000081526004018080602001828103825260208152602001807f456c65637461626c652076616c696461746f7273206e6f74206368616e67656481525060200191505060405180910390fd5b604051806040016040528084815260200183815250600d60008201518160000155602082015181600101559050507fb3ae64819ff89f6136eb58b8563cb32c6550f17eaf97f9ecc32f23783229f6de8383604051808381526020018281526020019250505060405180910390a16001905092915050565b600260009054906101000a900460ff161561773b576040517f08c379a000000000000000000000000000000000000000000000000000000000815260040180806020018281038252601c8152602001807f636f6e747261637420616c726561647920696e697469616c697a65640000000081525060200191505060405180910390fd5b6001600260006101000a81548160ff02191690831515021790555061775f33619bfc565b61776885616116565b6177728484617488565b5061777c82612891565b506177868161359d565b505050505050565b600d8060000154908060010154905082565b600080600d60000154600d60010154915091509091565b60006060600060f573ffffffffffffffffffffffffffffffffffffffff1684604051602001808281526020019150506040516020818303038152906040526040518082805190602001908083835b602083106178285780518252602082019150602081019050602083039250617805565b6001836020036101000a038019825116818451168082178552505050505050905001915050600060405180830381855afa9150503d8060008114617888576040519150601f19603f3d011682016040523d82523d6000602084013e61788d565b606091505b508093508192505050806178ec576040517f08c379a000000000000000000000000000000000000000000000000000000000815260040180806020018281038252602c81526020018061ab2c602c913960400191505060405180910390fd5b6178f78260006183bf565b92505050919050565b600061790c83836183bf565b60001c905092915050565b600360040160000173__AddressSortedLinkedList_______________6302f130289091866040518363ffffffff1660e01b8152600401808381526020018273ffffffffffffffffffffffffffffffffffffffff1673ffffffffffffffffffffffffffffffffffffffff1681526020019250505060206040518083038186803b1580156179a357600080fd5b505af41580156179b7573d6000803e3d6000fd5b505050506040513d60208110156179cd57600080fd5b810190808051906020019092919050505015617bd6576000617abe84600360040160000173__AddressSortedLinkedList_______________63e0fe44b39091896040518363ffffffff1660e01b8152600401808381526020018273ffffffffffffffffffffffffffffffffffffffff1673ffffffffffffffffffffffffffffffffffffffff1681526020019250505060206040518083038186803b158015617a7557600080fd5b505af4158015617a89573d6000803e3d6000fd5b505050506040513d6020811015617a9f57600080fd5b810190808051906020019092919050505061820690919063ffffffff16565b9050600360040160000173__AddressSortedLinkedList_______________63cab455ae9091878487876040518663ffffffff1660e01b8152600401808681526020018573ffffffffffffffffffffffffffffffffffffffff1673ffffffffffffffffffffffffffffffffffffffff1681526020018481526020018373ffffffffffffffffffffffffffffffffffffffff1673ffffffffffffffffffffffffffffffffffffffff1681526020018273ffffffffffffffffffffffffffffffffffffffff1673ffffffffffffffffffffffffffffffffffffffff1681526020019550505050505060006040518083038186803b158015617bbc57600080fd5b505af4158015617bd0573d6000803e3d6000fd5b50505050505b617c3183600360020160010160008773ffffffffffffffffffffffffffffffffffffffff1673ffffffffffffffffffffffffffffffffffffffff1681526020019081526020016000206000015461820690919063ffffffff16565b600360020160010160008673ffffffffffffffffffffffffffffffffffffffff1673ffffffffffffffffffffffffffffffffffffffff16815260200190815260200160002060000181905550617c988360036002016000015461820690919063ffffffff16565b6003600201600001819055508373ffffffffffffffffffffffffffffffffffffffff167f91ba34d62474c14d6c623cd322f4256666c7a45b7fdaa3378e009d39dfcec2a7846040518082815260200191505060405180910390a250505050565b6000600260019054906101000a900473ffffffffffffffffffffffffffffffffffffffff1673ffffffffffffffffffffffffffffffffffffffff1663dcf0aaed60405160200180807f4163636f756e74730000000000000000000000000000000000000000000000008152506008019050604051602081830303815290604052805190602001206040518263ffffffff1660e01b81526004018082815260200191505060206040518083038186803b158015617db357600080fd5b505afa158015617dc7573d6000803e3d6000fd5b505050506040513d6020811015617ddd57600080fd5b8101908080519060200190929190505050905090565b600080600360000160010160008573ffffffffffffffffffffffffffffffffffffffff1673ffffffffffffffffffffffffffffffffffffffff16815260200190815260200160002060010160008473ffffffffffffffffffffffffffffffffffffffff1673ffffffffffffffffffffffffffffffffffffffff1681526020019081526020016000209050617e85615387565b816001015410617efd576040517f08c379a000000000000000000000000000000000000000000000000000000000815260040180806020018281038252601d8152602001807f50656e64696e6720766f74652065706f6368206e6f742070617373656400000081525060200191505060405180910390fd5b60008160000154905060008111617f7c576040517f08c379a00000000000000000000000000000000000000000000000000000000081526004018080602001828103825260198152602001807f566f74652076616c75652063616e6e6f74206265207a65726f0000000000000081525060200191505060405180910390fd5b617f878585836194cd565b6000617f94868684619d40565b90508573ffffffffffffffffffffffffffffffffffffffff168573ffffffffffffffffffffffffffffffffffffffff167f45aac85f38083b18efe2d441a65b9c1ae177c78307cb5a5d4aec8f7dbcaeabfe8484604051808381526020018281526020019250505060405180910390a36001935050505092915050565b6000600260019054906101000a900473ffffffffffffffffffffffffffffffffffffffff1673ffffffffffffffffffffffffffffffffffffffff1663dcf0aaed60405160200180807f4c6f636b6564476f6c6400000000000000000000000000000000000000000000815250600a019050604051602081830303815290604052805190602001206040518263ffffffff1660e01b81526004018082815260200191505060206040518083038186803b1580156180cb57600080fd5b505afa1580156180df573d6000803e3d6000fd5b505050506040513d60208110156180f557600080fd5b8101908080519060200190929190505050905090565b6000600260019054906101000a900473ffffffffffffffffffffffffffffffffffffffff1673ffffffffffffffffffffffffffffffffffffffff1663dcf0aaed60405160200180807f56616c696461746f727300000000000000000000000000000000000000000000815250600a019050604051602081830303815290604052805190602001206040518263ffffffff1660e01b81526004018082815260200191505060206040518083038186803b1580156181c657600080fd5b505afa1580156181da573d6000803e3d6000fd5b505050506040513d60208110156181f057600080fd5b8101908080519060200190929190505050905090565b600080828401905083811015618284576040517f08c379a000000000000000000000000000000000000000000000000000000000815260040180806020018281038252601b8152602001807f536166654d6174683a206164646974696f6e206f766572666c6f77000000000081525060200191505060405180910390fd5b8091505092915050565b6000808314156182a1576000905061830e565b60008284029050828482816182b257fe5b0414618309576040517f08c379a000000000000000000000000000000000000000000000000000000000815260040180806020018281038252602181526020018061aa786021913960400191505060405180910390fd5b809150505b92915050565b60008183106183235781618325565b825b905092915050565b600061836f83836040518060400160405280601a81526020017f536166654d6174683a206469766973696f6e206279207a65726f000000000000815250619ea0565b905092915050565b60008082848161838357fe5b049050600083858161839157fe5b0614156183a157809150506183b9565b6183b560018261820690919063ffffffff16565b9150505b92915050565b60006183d560208361820690919063ffffffff16565b8351101561844b576040517f08c379a00000000000000000000000000000000000000000000000000000000081526004018080602001828103825260148152602001807f736c6963696e67206f7574206f662072616e676500000000000000000000000081525060200191505060405180910390fd5b60006020830184015190508091505092915050565b60006003600001905061848082826000015461820690919063ffffffff16565b816000018190555060008160010160008673ffffffffffffffffffffffffffffffffffffffff1673ffffffffffffffffffffffffffffffffffffffff16815260200190815260200160002090506184e483826000015461820690919063ffffffff16565b816000018190555060008160010160008673ffffffffffffffffffffffffffffffffffffffff1673ffffffffffffffffffffffffffffffffffffffff168152602001908152602001600020905061854884826000015461820690919063ffffffff16565b8160000181905550618558615387565b8160010181905550505050505050565b600061864384600360040160000173__AddressSortedLinkedList_______________63e0fe44b39091896040518363ffffffff1660e01b8152600401808381526020018273ffffffffffffffffffffffffffffffffffffffff1673ffffffffffffffffffffffffffffffffffffffff1681526020019250505060206040518083038186803b1580156185fa57600080fd5b505af415801561860e573d6000803e3d6000fd5b505050506040513d602081101561862457600080fd5b810190808051906020019092919050505061820690919063ffffffff16565b9050600360040160000173__AddressSortedLinkedList_______________63cab455ae9091878487876040518663ffffffff1660e01b8152600401808681526020018573ffffffffffffffffffffffffffffffffffffffff1673ffffffffffffffffffffffffffffffffffffffff1681526020018481526020018373ffffffffffffffffffffffffffffffffffffffff1673ffffffffffffffffffffffffffffffffffffffff1681526020018273ffffffffffffffffffffffffffffffffffffffff1673ffffffffffffffffffffffffffffffffffffffff1681526020019550505050505060006040518083038186803b15801561874157600080fd5b505af4158015618755573d6000803e3d6000fd5b50505050601160008773ffffffffffffffffffffffffffffffffffffffff1673ffffffffffffffffffffffffffffffffffffffff16815260200190815260200160002060009054906101000a900460ff16156187b6576187b58686612687565b5b505050505050565b6187c661a7bd565b6040518060200160405280838152509050919050565b6187e461a7bd565b604051806020016040528069d3c21bcecceda1000000815250905090565b60008160000151836000015110905092915050565b60008073ffffffffffffffffffffffffffffffffffffffff168673ffffffffffffffffffffffffffffffffffffffff1614156188bb576040517f08c379a00000000000000000000000000000000000000000000000000000000081526004018080602001828103825260128152602001807f47726f75702061646472657373207a65726f000000000000000000000000000081525060200191505060405180910390fd5b60006188c5617cf8565b73ffffffffffffffffffffffffffffffffffffffff16636642d594336040518263ffffffff1660e01b8152600401808273ffffffffffffffffffffffffffffffffffffffff1673ffffffffffffffffffffffffffffffffffffffff16815260200191505060206040518083038186803b15801561894157600080fd5b505afa158015618955573d6000803e3d6000fd5b505050506040513d602081101561896b57600080fd5b81019080805190602001909291905050509050856000106189f4576040517f08c379a00000000000000000000000000000000000000000000000000000000081526004018080602001828103825260198152602001807f566f74652076616c75652063616e6e6f74206265207a65726f0000000000000081525060200191505060405180910390fd5b6189fe87826163c7565b861115618a56576040517f08c379a000000000000000000000000000000000000000000000000000000000815260040180806020018281038252602381526020018061a9ad6023913960400191505060405180910390fd5b6000618a63888389619f66565b9050618a7282898989896195dd565b618a7a618010565b73ffffffffffffffffffffffffffffffffffffffff16636edf77a583896040518363ffffffff1660e01b8152600401808373ffffffffffffffffffffffffffffffffffffffff1673ffffffffffffffffffffffffffffffffffffffff16815260200182815260200192505050600060405180830381600087803b158015618b0057600080fd5b505af1158015618b14573d6000803e3d6000fd5b505050506000618b24898461283d565b1415618b7757618b76600360090160008473ffffffffffffffffffffffffffffffffffffffff1673ffffffffffffffffffffffffffffffffffffffff1681526020019081526020016000208986619900565b5b8773ffffffffffffffffffffffffffffffffffffffff168273ffffffffffffffffffffffffffffffffffffffff167fae7458f8697a680da6be36406ea0b8f40164915ac9cc40c0dad05a2ff6e8c6a88984604051808381526020018281526020019250505060405180910390a360019250505095945050505050565b6000618c3583836040518060400160405280601e81526020017f536166654d6174683a207375627472616374696f6e206f766572666c6f77000081525061a12a565b905092915050565b6000808590506000618c4f888a6154e0565b90506000811115618cef576000618c668383618314565b9050618c73898b836194cd565b8873ffffffffffffffffffffffffffffffffffffffff168a73ffffffffffffffffffffffffffffffffffffffff167f148075455e24d5cf538793db3e917a157cbadac69dd6a304186daf11b23f76fe836040518082815260200191505060405180910390a3618ceb8184618bf390919063ffffffff16565b9250505b6000618cfb898b6163c7565b9050600081118015618d0d5750600083115b15618db4576000618d1e8483618314565b90506000618d2d8b8d84619f66565b90508a73ffffffffffffffffffffffffffffffffffffffff168c73ffffffffffffffffffffffffffffffffffffffff167fae7458f8697a680da6be36406ea0b8f40164915ac9cc40c0dad05a2ff6e8c6a88484604051808381526020018281526020019250505060405180910390a3618daf8286618bf390919063ffffffff16565b945050505b6000618dc9848a618bf390919063ffffffff16565b90506000811115618e4157618de18b8b838b8b6195dd565b6000618ded8b8d61283d565b1415618e4057618e3f600360090160008d73ffffffffffffffffffffffffffffffffffffffff1673ffffffffffffffffffffffffffffffffffffffff1681526020019081526020016000208b88619900565b5b5b809450505050509695505050505050565b600033905090565b618e6261a7bd565b618e6a61a1ea565b821115618ec2576040517f08c379a000000000000000000000000000000000000000000000000000000000815260040180806020018281038252603681526020018061a9776036913960400191505060405180910390fd5b604051806020016040528069d3c21bcecceda100000084028152509050919050565b618eec61a7bd565b600083600001511480618f03575060008260000151145b15618f1f5760405180602001604052806000815250905061933d565b69d3c21bcecceda100000082600001511415618f3d5782905061933d565b69d3c21bcecceda100000083600001511415618f5b5781905061933d565b600069d3c21bcecceda1000000618f718561a209565b6000015181618f7c57fe5b0490506000618f8a8561a240565b600001519050600069d3c21bcecceda1000000618fa68661a209565b6000015181618fb157fe5b0490506000618fbf8661a240565b60000151905060008285029050600085146190535782858281618fde57fe5b0414619052576040517f08c379a00000000000000000000000000000000000000000000000000000000081526004018080602001828103825260168152602001807f6f766572666c6f7720783179312064657465637465640000000000000000000081525060200191505060405180910390fd5b5b600069d3c21bcecceda100000082029050600082146190f55769d3c21bcecceda100000082828161908057fe5b04146190f4576040517f08c379a000000000000000000000000000000000000000000000000000000000815260040180806020018281038252601f8152602001807f6f766572666c6f772078317931202a206669786564312064657465637465640081525060200191505060405180910390fd5b5b8091506000848602905060008614619186578486828161911157fe5b0414619185576040517f08c379a00000000000000000000000000000000000000000000000000000000081526004018080602001828103825260168152602001807f6f766572666c6f7720783279312064657465637465640000000000000000000081525060200191505060405180910390fd5b5b6000848802905060008814619214578488828161919f57fe5b0414619213576040517f08c379a00000000000000000000000000000000000000000000000000000000081526004018080602001828103825260168152602001807f6f766572666c6f7720783179322064657465637465640000000000000000000081525060200191505060405180910390fd5b5b61921c61a27d565b878161922457fe5b04965061922f61a27d565b858161923757fe5b04945060008588029050600088146192c8578588828161925357fe5b04146192c7576040517f08c379a00000000000000000000000000000000000000000000000000000000081526004018080602001828103825260168152602001807f6f766572666c6f7720783279322064657465637465640000000000000000000081525060200191505060405180910390fd5b5b6192d061a7bd565b60405180602001604052808781525090506192f98160405180602001604052808781525061a28a565b90506193138160405180602001604052808681525061a28a565b905061932d8160405180602001604052808581525061a28a565b9050809a50505050505050505050505b92915050565b600069d3c21bcecceda100000082600001518161935c57fe5b049050919050565b600081600001519050919050565b61937a61a7bd565b6000826000015114156193f5576040517f08c379a00000000000000000000000000000000000000000000000000000000081526004018080602001828103825260118152602001807f63616e277420646976696465206279203000000000000000000000000000000081525060200191505060405180910390fd5b600069d3c21bcecceda10000008460000151029050836000015169d3c21bcecceda1000000828161942257fe5b0414619496576040517f08c379a00000000000000000000000000000000000000000000000000000000081526004018080602001828103825260128152602001807f6f766572666c6f7720617420646976696465000000000000000000000000000081525060200191505060405180910390fd5b6040518060200160405280846000015183816194ae57fe5b0481525091505092915050565b6194c982826000855161a333565b5050565b6000600360000190506194ed828260000154618bf390919063ffffffff16565b816000018190555060008160010160008673ffffffffffffffffffffffffffffffffffffffff1673ffffffffffffffffffffffffffffffffffffffff1681526020019081526020016000209050619551838260000154618bf390919063ffffffff16565b816000018190555060008160010160008673ffffffffffffffffffffffffffffffffffffffff1673ffffffffffffffffffffffffffffffffffffffff16815260200190815260200160002090506195b5848260000154618bf390919063ffffffff16565b81600001819055506000816000015414156195d557600081600101819055505b505050505050565b600360040160000173__AddressSortedLinkedList_______________6302f130289091866040518363ffffffff1660e01b8152600401808381526020018273ffffffffffffffffffffffffffffffffffffffff1673ffffffffffffffffffffffffffffffffffffffff1681526020019250505060206040518083038186803b15801561966957600080fd5b505af415801561967d573d6000803e3d6000fd5b505050506040513d602081101561969357600080fd5b81019080805190602001909291905050501561989c57600061978484600360040160000173__AddressSortedLinkedList_______________63e0fe44b39091896040518363ffffffff1660e01b8152600401808381526020018273ffffffffffffffffffffffffffffffffffffffff1673ffffffffffffffffffffffffffffffffffffffff1681526020019250505060206040518083038186803b15801561973b57600080fd5b505af415801561974f573d6000803e3d6000fd5b505050506040513d602081101561976557600080fd5b8101908080519060200190929190505050618bf390919063ffffffff16565b9050600360040160000173__AddressSortedLinkedList_______________63cab455ae9091878487876040518663ffffffff1660e01b8152600401808681526020018573ffffffffffffffffffffffffffffffffffffffff1673ffffffffffffffffffffffffffffffffffffffff1681526020018481526020018373ffffffffffffffffffffffffffffffffffffffff1673ffffffffffffffffffffffffffffffffffffffff1681526020018273ffffffffffffffffffffffffffffffffffffffff1673ffffffffffffffffffffffffffffffffffffffff1681526020019550505050505060006040518083038186803b15801561988257600080fd5b505af4158015619896573d6000803e3d6000fd5b50505050505b601160008673ffffffffffffffffffffffffffffffffffffffff1673ffffffffffffffffffffffffffffffffffffffff16815260200190815260200160002060009054906101000a900460ff16156198f9576198f88585612687565b5b5050505050565b82805490508110801561997457508173ffffffffffffffffffffffffffffffffffffffff1683828154811061993157fe5b9060005260206000200160009054906101000a900473ffffffffffffffffffffffffffffffffffffffff1673ffffffffffffffffffffffffffffffffffffffff16145b6199e6576040517f08c379a00000000000000000000000000000000000000000000000000000000081526004018080602001828103825260098152602001807f42616420696e646578000000000000000000000000000000000000000000000081525060200191505060405180910390fd5b6000619a0060018580549050618bf390919063ffffffff16565b9050838181548110619a0e57fe5b9060005260206000200160009054906101000a900473ffffffffffffffffffffffffffffffffffffffff16848381548110619a4557fe5b9060005260206000200160006101000a81548173ffffffffffffffffffffffffffffffffffffffff021916908373ffffffffffffffffffffffffffffffffffffffff160217905550808481619a9a919061a7d0565b5050505050565b600080600360020160010160008573ffffffffffffffffffffffffffffffffffffffff1673ffffffffffffffffffffffffffffffffffffffff168152602001908152602001600020600101541415619afc5760009050619bb4565b619bb1600360020160010160008573ffffffffffffffffffffffffffffffffffffffff1673ffffffffffffffffffffffffffffffffffffffff16815260200190815260200160002060010154619ba3600360020160010160008773ffffffffffffffffffffffffffffffffffffffff1673ffffffffffffffffffffffffffffffffffffffff168152602001908152602001600020600001548561828e90919063ffffffff16565b61832d90919063ffffffff16565b90505b92915050565b619bc261a7bd565b619bca61a7bd565b619bd384618e5a565b9050619bdd61a7bd565b619be684618e5a565b9050619bf28282619372565b9250505092915050565b600073ffffffffffffffffffffffffffffffffffffffff168173ffffffffffffffffffffffffffffffffffffffff161415619c82576040517f08c379a000000000000000000000000000000000000000000000000000000000815260040180806020018281038252602681526020018061a88b6026913960400191505060405180910390fd5b8073ffffffffffffffffffffffffffffffffffffffff166000809054906101000a900473ffffffffffffffffffffffffffffffffffffffff1673ffffffffffffffffffffffffffffffffffffffff167f8be0079c531659141344cd1fd0a4f28419497f9722a3daafe3b4186f6b6457e060405160405180910390a3806000806101000a81548173ffffffffffffffffffffffffffffffffffffffff021916908373ffffffffffffffffffffffffffffffffffffffff16021790555050565b60008060036002019050619d6183826000015461820690919063ffffffff16565b81600001819055506000619d75868561a648565b905060008260010160008873ffffffffffffffffffffffffffffffffffffffff1673ffffffffffffffffffffffffffffffffffffffff1681526020019081526020016000209050619dd385826000015461820690919063ffffffff16565b8160000181905550619df282826001015461820690919063ffffffff16565b8160010181905550619e4e828260020160008973ffffffffffffffffffffffffffffffffffffffff1673ffffffffffffffffffffffffffffffffffffffff1681526020019081526020016000205461820690919063ffffffff16565b8160020160008873ffffffffffffffffffffffffffffffffffffffff1673ffffffffffffffffffffffffffffffffffffffff168152602001908152602001600020819055508193505050509392505050565b60008083118290619f4c576040517f08c379a00000000000000000000000000000000000000000000000000000000081526004018080602001828103825283818151815260200191508051906020019080838360005b83811015619f11578082015181840152602081019050619ef6565b50505050905090810190601f168015619f3e5780820380516001836020036101000a031916815260200191505b509250505060405180910390fd5b506000838581619f5857fe5b049050809150509392505050565b60008060036002019050619f87838260000154618bf390919063ffffffff16565b816000018190555060008090506000619fa087876163c7565b905060008360010160008973ffffffffffffffffffffffffffffffffffffffff1673ffffffffffffffffffffffffffffffffffffffff16815260200190815260200160002090508582141561a038578060020160008873ffffffffffffffffffffffffffffffffffffffff1673ffffffffffffffffffffffffffffffffffffffff16815260200190815260200160002054925061a045565b61a042888761a648565b92505b61a05c868260000154618bf390919063ffffffff16565b816000018190555061a07b838260010154618bf390919063ffffffff16565b816001018190555061a0d7838260020160008a73ffffffffffffffffffffffffffffffffffffffff1673ffffffffffffffffffffffffffffffffffffffff16815260200190815260200160002054618bf390919063ffffffff16565b8160020160008973ffffffffffffffffffffffffffffffffffffffff1673ffffffffffffffffffffffffffffffffffffffff16815260200190815260200160002081905550829450505050509392505050565b600083831115829061a1d7576040517f08c379a00000000000000000000000000000000000000000000000000000000081526004018080602001828103825283818151815260200191508051906020019080838360005b8381101561a19c57808201518184015260208101905061a181565b50505050905090810190601f16801561a1c95780820380516001836020036101000a031916815260200191505b509250505060405180910390fd5b5060008385039050809150509392505050565b60007601357c299a88ea76a58924d52ce4f26a85af186c2b9e74905090565b61a21161a7bd565b604051806020016040528069d3c21bcecceda10000008085600001518161a23457fe5b04028152509050919050565b61a24861a7bd565b604051806020016040528069d3c21bcecceda10000008085600001518161a26b57fe5b04028460000151038152509050919050565b600064e8d4a51000905090565b61a29261a7bd565b600082600001518460000151019050836000015181101561a31b576040517f08c379a00000000000000000000000000000000000000000000000000000000081526004018080602001828103825260158152602001807f616464206f766572666c6f77206465746563746564000000000000000000000081525060200191505060405180910390fd5b60405180602001604052808281525091505092915050565b825184511461a38d576040517f08c379a000000000000000000000000000000000000000000000000000000000815260040180806020018281038252602381526020018061ab096023913960400191505060405180910390fd5b8351821061a403576040517f08c379a000000000000000000000000000000000000000000000000000000000815260040180806020018281038252601d8152602001807f6865617020737461727420696e646578206f7574206f662072616e676500000081525060200191505060405180910390fd5b835181111561a47a576040517f08c379a00000000000000000000000000000000000000000000000000000000081526004018080602001828103825260188152602001807f68656170206c656e677468206f7574206f662072616e6765000000000000000081525060200191505060405180910390fd5b60008290505b60011561a64157600061a4b0600161a4a260028561828e90919063ffffffff16565b61820690919063ffffffff16565b9050600061a4db600261a4cd60028661828e90919063ffffffff16565b61820690919063ffffffff16565b90506000839050848310801561a54c575061a54b8789838151811061a4fc57fe5b60200260200101518151811061a50e57fe5b6020026020010151888a868151811061a52357fe5b60200260200101518151811061a53557fe5b602002602001015161a77b90919063ffffffff16565b5b1561a555578290505b848210801561a5bf575061a5be8789838151811061a56f57fe5b60200260200101518151811061a58157fe5b6020026020010151888a858151811061a59657fe5b60200260200101518151811061a5a857fe5b602002602001015161a77b90919063ffffffff16565b5b1561a5c8578190505b8381141561a5d85750505061a641565b600088858151811061a5e657fe5b6020026020010151905088828151811061a5fc57fe5b602002602001015189868151811061a61057fe5b6020026020010181815250508089838151811061a62957fe5b6020026020010181815250508194505050505061a480565b5050505050565b600080600360020160010160008573ffffffffffffffffffffffffffffffffffffffff1673ffffffffffffffffffffffffffffffffffffffff16815260200190815260200160002060010154141561a6bd5761a6b668056bc75e2d631000008361828e90919063ffffffff16565b905061a775565b61a772600360020160010160008573ffffffffffffffffffffffffffffffffffffffff1673ffffffffffffffffffffffffffffffffffffffff1681526020019081526020016000206000015461a764600360020160010160008773ffffffffffffffffffffffffffffffffffffffff1673ffffffffffffffffffffffffffffffffffffffff168152602001908152602001600020600101548561828e90919063ffffffff16565b61832d90919063ffffffff16565b90505b92915050565b60008160000151836000015111905092915050565b604051806040016040528060608152602001600081525090565b6040518060200160405280600081525090565b6040518060200160405280600081525090565b81548183558181111561a7f75781836000526020600020918201910161a7f6919061a7fc565b5b505050565b61a81e91905b8082111561a81a57600081600090555060010161a802565b5090565b9056fe4d6178696d756d20656c65637461626c652076616c696461746f72732063616e6e6f7420626520736d616c6c6572207468616e206d696e696d756d6572726f722063616c6c696e67206e756d62657256616c696461746f7273496e53657420707265636f6d70696c654f776e61626c653a206e6577206f776e657220697320746865207a65726f2061646472657373496e707574206c656e67746873206d75737420626520636f72726573706f6e642e56616c696461746f722067726f7570732063616e6e6f7420766f746520666f72206d6f7265207468616e206d6178206e756d626572206f662067726f757073456c6563746162696c697479207468726573686f6c64206d757374206265206c6f776572207468616e20313030256572726f722063616c6c696e672067657456657269666965645365616c4269746d617046726f6d48656164657220707265636f6d70696c6563616e277420637265617465206669786964697479206e756d626572206c6172676572207468616e206d61784e657746697865642829566f74652076616c7565206c6172676572207468616e2061637469766520766f7465736572726f722063616c6c696e672076616c696461746f725369676e65724164647265737346726f6d43757272656e7453657420707265636f6d70696c656572726f722063616c6c696e67206e756d62657256616c696461746f7273496e43757272656e7453657420707265636f6d70696c656572726f722063616c6c696e672076616c696461746f725369676e65724164647265737346726f6d53657420707265636f6d70696c65536166654d6174683a206d756c7469706c69636174696f6e206f766572666c6f776572726f722063616c6c696e67206672616374696f6e4d756c45787020707265636f6d70696c656572726f722063616c6c696e672067657445706f636853697a6520707265636f6d70696c65566f74652076616c7565206c6172676572207468616e2070656e64696e6720766f7465736b657920616e642076616c7565206172726179206c656e677468206d69736d617463686572726f722063616c6c696e6720676574506172656e745365616c4269746d617020707265636f6d70696c656572726f722063616c6c696e6720676574426c6f636b4e756d62657246726f6d48656164657220707265636f6d70696c654d696e696d756d20656c65637461626c652076616c696461746f72732063616e6e6f74206265207a65726f44656372656d656e742076616c7565206d7573742062652067726561746572207468616e20302e6572726f722063616c6c696e67206861736848656164657220707265636f6d70696c6556616c696461746f72732063616e6e6f7420766f746520666f72206d6f7265207468616e206d6178206e756d626572206f662067726f757073a265627a7a72315820a90696d5c3b40c1cf00fc8b74175702e137f494a71e982522d751d7ce483528364736f6c634300050d0032",
  "source": "pragma solidity ^0.5.13;\n\nimport \"../Election.sol\";\nimport \"../../common/FixidityLib.sol\";\n\n/**\n * @title A wrapper around Election that exposes onlyVm functions for testing.\n */\ncontract ElectionTest is Election(true) {\n  function distributeEpochRewards(address group, uint256 value, address lesser, address greater)\n    external\n  {\n    return _distributeEpochRewards(group, value, lesser, greater);\n  }\n}\n",
  "compiler": {
    "name": "solc",
    "version": "0.5.13+commit.5b0b510c.Emscripten.clang"
  },
  "schemaVersion": "3.4.13",
  "updatedAt": "2023-11-21T17:25:03.824Z",
  "networkType": "ethereum",
  "devdoc": {
    "methods": {
      "activate(address)": {
        "details": "Pending votes cannot be activated until an election has been held.",
        "params": {
          "group": "The validator group to vote for."
        },
        "return": "True upon success."
      },
      "activateForAccount(address,address)": {
        "details": "Pending votes cannot be activated until an election has been held.",
        "params": {
          "account": "The validateor group account's pending votes to active votes",
          "group": "The validator group to vote for."
        },
        "return": "True upon success."
      },
      "canReceiveVotes(address,uint256)": {
        "details": "Votes are not allowed to be cast that would increase a group's proportion of locked gold  voting for it to greater than  (numGroupMembers + 1) / min(maxElectableValidators, numRegisteredValidators)Note that groups may still receive additional votes via rewards even if this function  returns false.",
        "params": {
          "group": "The address of the group.",
          "value": "The number of votes."
        },
        "return": "Whether or not a group can receive the specified number of votes."
      },
      "checkProofOfPossession(address,bytes,bytes)": {
        "params": {
          "blsKey": "The BLS public key that the validator is using for consensus, should pass proof  of possession. 48 bytes.",
          "blsPop": "The BLS public key proof-of-possession, which consists of a signature on the  account address. 96 bytes.",
          "sender": "The address signed by the BLS key to generate the proof of possession."
        },
        "return": "True upon success."
      },
      "electNValidatorSigners(uint256,uint256)": {
        "details": "See https://en.wikipedia.org/wiki/D%27Hondt_method#Allocation for more information.",
        "return": "The list of elected validators."
      },
      "electValidatorSigners()": {
        "return": "The list of elected validators."
      },
      "forceDecrementVotes(address,uint256,address[],address[],uint256[])": {
        "params": {
          "account": "Address to revoke votes from.",
          "greaters": "The groups receivier more votes than the i'th `group`, or 0 if               the i'th `group` has the most votes of any validator group.",
          "indices": "The indices of the i'th group in the account's voting list.",
          "lessers": "The groups receiving fewer votes than the i'th `group`, or 0 if               the i'th `group` has the fewest votes of any validator group.",
          "value": "Maximum amount of votes to revoke."
        },
        "return": "Number of votes successfully decremented."
      },
      "fractionMulExp(uint256,uint256,uint256,uint256,uint256,uint256)": {
        "params": {
          "_decimals": "precision",
          "aDenominator": "Denominator of first fraction",
          "aNumerator": "Numerator of first fraction",
          "bDenominator": "Denominator of exponentiated fraction",
          "bNumerator": "Numerator of exponentiated fraction",
          "exponent": "exponent to raise b to"
        },
        "return": "Numerator of the computed quantity (not reduced).Denominator of the computed quantity (not reduced)."
      },
      "getActiveVoteUnitsForGroup(address)": {
        "params": {
          "group": "The address of the validator group."
        },
        "return": "The total active vote units made for `group`."
      },
      "getActiveVoteUnitsForGroupByAccount(address,address)": {
        "params": {
          "account": "The address of the voting account.",
          "group": "The address of the validator group."
        },
        "return": "The active vote units for `group` made by `account`."
      },
      "getActiveVotes()": {
        "return": "The active votes received across all groups."
      },
      "getActiveVotesForGroup(address)": {
        "params": {
          "group": "The address of the validator group."
        },
        "return": "The active votes made for `group`."
      },
      "getActiveVotesForGroupByAccount(address,address)": {
        "params": {
          "account": "The address of the voting account.",
          "group": "The address of the validator group."
        },
        "return": "The active votes for `group` made by `account`."
      },
      "getBlockNumberFromHeader(bytes)": {
        "params": {
          "header": "RLP encoded header"
        },
        "return": "Block number."
      },
      "getCurrentValidatorSigners()": {
        "return": "List of current validator signers."
      },
      "getElectabilityThreshold()": {
        "return": "Threshold value as unwrapped fraction."
      },
      "getElectableValidators()": {
        "return": "The minimum number of validators that can be elected.The maximum number of validators that can be elected."
      },
      "getEligibleValidatorGroups()": {
        "return": "The list of validator groups eligible to elect validators."
      },
      "getEpochNumber()": {
        "return": "Current epoch number."
      },
      "getEpochNumberOfBlock(uint256)": {
        "params": {
          "blockNumber": "Block number where epoch number is calculated."
        },
        "return": "Epoch number."
      },
      "getEpochSize()": {
        "return": "The current epoch size in blocks."
      },
      "getGroupEligibility(address)": {
        "details": "Eligible groups that have received their maximum number of votes cannot receive more.",
        "return": "Whether or not a group is eligible to receive votes."
      },
      "getGroupEpochRewards(address,uint256,uint256[])": {
        "details": "Eligible groups that have received their maximum number of votes cannot receive more.",
        "params": {
          "group": "The group to calculate epoch rewards for.",
          "totalEpochRewards": "The total amount of rewards going to all voters.",
          "uptimes": "Array of Fixidity representations of the validators' uptimes, between 0 and 1."
        },
        "return": "The amount of rewards that voters for `group` are due at the end of an epoch."
      },
      "getGroupsVotedForByAccount(address)": {
        "params": {
          "account": "The address of the account casting votes."
        },
        "return": "The groups that `account` has voted for."
      },
      "getNumVotesReceivable(address)": {
        "details": "Votes are not allowed to be cast that would increase a group's proportion of locked gold  voting for it to greater than  (numGroupMembers + 1) / min(maxElectableValidators, numRegisteredValidators)Note that a group's vote total may exceed this number through rewards or config changes.",
        "params": {
          "group": "The address of the group."
        },
        "return": "The number of votes that a group can receive."
      },
      "getParentSealBitmap(uint256)": {
        "params": {
          "blockNumber": "Block number to retrieve. Must be within 4 epochs of the current number."
        },
        "return": "Bitmap parent seal with set bits at indices corresponding to signing validators."
      },
      "getPendingVotesForGroup(address)": {
        "params": {
          "group": "The address of the validator group."
        },
        "return": "The pending votes made for `group`."
      },
      "getPendingVotesForGroupByAccount(address,address)": {
        "params": {
          "account": "The address of the voting account.",
          "group": "The address of the validator group."
        },
        "return": "The pending votes for `group` made by `account`."
      },
      "getTotalVotes()": {
        "return": "The total votes received across all groups."
      },
      "getTotalVotesByAccount(address)": {
        "params": {
          "account": "The address of the account."
        },
        "return": "The total number of votes cast by an account."
      },
      "getTotalVotesForEligibleValidatorGroups()": {
        "return": "List of all validator groupsNumber of votes each validator group received."
      },
      "getTotalVotesForGroup(address)": {
        "params": {
          "group": "The address of the validator group."
        },
        "return": "The total votes made for `group`."
      },
      "getTotalVotesForGroupByAccount(address,address)": {
        "params": {
          "account": "The address of the voting account.",
          "group": "The address of the validator group."
        },
        "return": "The total votes for `group` made by `account`."
      },
      "getVerifiedSealBitmapFromHeader(bytes)": {
        "params": {
          "header": "RLP encoded header"
        },
        "return": "Bitmap parent seal with set bits at indices correspoinding to signing validators."
      },
      "getVersionNumber()": {
        "return": "Storage version of the contract.Major version of the contract.Minor version of the contract.Patch version of the contract."
      },
      "hasActivatablePendingVotes(address,address)": {
        "details": "Pending votes cannot be activated until an election has been held.",
        "params": {
          "account": "The account with pending votes.",
          "group": "The validator group that `account` has pending votes for."
        },
        "return": "Whether or not `account` has activatable votes for `group`."
      },
      "hashHeader(bytes)": {
        "params": {
          "header": "RLP encoded header"
        },
        "return": "Header hash."
      },
      "initialize(address,uint256,uint256,uint256,uint256)": {
        "details": "Should be called only once.",
        "params": {
          "_electabilityThreshold": "The minimum ratio of votes a group needs before its members can  be elected.",
          "_maxNumGroupsVotedFor": "The maximum number of groups that an account can vote for at once.",
          "minElectableValidators": "The minimum number of validators that can be elected.",
          "registryAddress": "The address of the registry core smart contract."
        }
      },
      "isOwner()": {
        "details": "Returns true if the caller is the current owner."
      },
      "markGroupEligible(address,address,address)": {
        "params": {
          "greater": "The address of the group that has received more votes than this group.",
          "group": "The address of the validator group.",
          "lesser": "The address of the group that has received fewer votes than this group."
        }
      },
      "markGroupIneligible(address)": {
        "details": "Can only be called by the registered \"Validators\" contract.",
        "params": {
          "group": "The address of the validator group."
        }
      },
      "minQuorumSize(uint256)": {
        "details": "Computed in celo-blockchain as int(math.Ceil(float64(2*valSet.Size()) / 3))"
      },
      "minQuorumSizeInCurrentSet()": {
        "return": "Byzantine quorum of validators."
      },
      "numberValidatorsInCurrentSet()": {
        "return": "Size of the current elected validator set."
      },
      "numberValidatorsInSet(uint256)": {
        "params": {
          "blockNumber": "Block number to retrieve the validator set from."
        },
        "return": "Size of the validator set."
      },
      "owner()": {
        "details": "Returns the address of the current owner."
      },
      "renounceOwnership()": {
        "details": "Leaves the contract without owner. It will not be possible to call `onlyOwner` functions anymore. Can only be called by the current owner.     * NOTE: Renouncing ownership will leave the contract without an owner, thereby removing any functionality that is only available to the owner."
      },
      "revokeActive(address,uint256,address,address,uint256)": {
        "details": "Fails if the account has not voted on a validator group.",
        "params": {
          "greater": "The group receiving more votes than the group for which the vote was revoked,  or 0 if that group has the most votes of any validator group.",
          "group": "The validator group to revoke votes from.",
          "index": "The index of the group in the account's voting list.",
          "lesser": "The group receiving fewer votes than the group for which the vote was revoked,  or 0 if that group has the fewest votes of any validator group.",
          "value": "The number of votes to revoke."
        },
        "return": "True upon success."
      },
      "revokeAllActive(address,address,address,uint256)": {
        "details": "Fails if the account has not voted on a validator group.",
        "params": {
          "greater": "The group receiving more votes than the group for which the vote was revoked,  or 0 if that group has the most votes of any validator group.",
          "group": "The validator group to revoke votes from.",
          "index": "The index of the group in the account's voting list.",
          "lesser": "The group receiving fewer votes than the group for which the vote was revoked,  or 0 if that group has the fewest votes of any validator group."
        },
        "return": "True upon success."
      },
      "revokePending(address,uint256,address,address,uint256)": {
        "details": "Fails if the account has not voted on a validator group.",
        "params": {
          "greater": "The group receiving more votes than the group for which the vote was revoked,  or 0 if that group has the most votes of any validator group.",
          "group": "The validator group to revoke votes from.",
          "index": "The index of the group in the account's voting list.",
          "lesser": "The group receiving fewer votes than the group for which the vote was revoked,  or 0 if that group has the fewest votes of any validator group.",
          "value": "The number of votes to revoke."
        },
        "return": "True upon success."
      },
      "setAllowedToVoteOverMaxNumberOfGroups(bool)": {
        "params": {
          "flag": "The on/off flag."
        }
      },
      "setElectabilityThreshold(uint256)": {
        "params": {
          "threshold": "Electability threshold as unwrapped Fraction."
        },
        "return": "True upon success."
      },
      "setElectableValidators(uint256,uint256)": {
        "params": {
          "max": "The maximum number of validators that can be elected.",
          "min": "The minimum number of validators that can be elected."
        },
        "return": "True upon success."
      },
      "setMaxNumGroupsVotedFor(uint256)": {
        "params": {
          "_maxNumGroupsVotedFor": "The maximum number of groups an account can vote for."
        },
        "return": "True upon success."
      },
      "setRegistry(address)": {
        "params": {
          "registryAddress": "The address of a registry contract for routing to other contracts."
        }
      },
      "transferOwnership(address)": {
        "details": "Transfers ownership of the contract to a new account (`newOwner`). Can only be called by the current owner."
      },
      "updateTotalVotesByAccountForGroup(address,address)": {
        "params": {
          "account": "The address of the voting account.",
          "group": "The address of the validator group."
        }
      },
      "validatorSignerAddressFromCurrentSet(uint256)": {
        "params": {
          "index": "Index of requested validator in the validator set."
        },
        "return": "Address of validator at the requested index."
      },
      "validatorSignerAddressFromSet(uint256,uint256)": {
        "params": {
          "blockNumber": "Block number to retrieve the validator set from.",
          "index": "Index of requested validator in the validator set."
        },
        "return": "Address of validator at the requested index."
      },
      "vote(address,uint256,address,address)": {
        "details": "Fails if `group` is empty or not a validator group.",
        "params": {
          "greater": "The group receiving more votes than `group`, or 0 if `group` has the  most votes of any validator group.",
          "group": "The validator group to vote for.",
          "lesser": "The group receiving fewer votes than `group`, or 0 if `group` has the  fewest votes of any validator group.",
          "value": "The amount of gold to use to vote."
        },
        "return": "True upon success."
      }
    },
    "title": "A wrapper around Election that exposes onlyVm functions for testing."
  },
  "userdoc": {
    "methods": {
      "activate(address)": {
        "notice": "Converts `account`'s pending votes for `group` to active votes."
      },
      "activateForAccount(address,address)": {
        "notice": "Converts `account`'s pending votes for `group` to active votes."
      },
      "canReceiveVotes(address,uint256)": {
        "notice": "Returns whether or not a group can receive the specified number of votes."
      },
      "checkProofOfPossession(address,bytes,bytes)": {
        "notice": "Checks a BLS proof of possession."
      },
      "electNValidatorSigners(uint256,uint256)": {
        "notice": "Returns a list of elected validators with seats allocated to groups via the D'Hondt  method."
      },
      "electValidatorSigners()": {
        "notice": "Returns a list of elected validators with seats allocated to groups via the D'Hondt  method."
      },
      "forceDecrementVotes(address,uint256,address[],address[],uint256[])": {
        "notice": "Reduces the total amount of `account`'s voting gold by `value` by        iterating over all groups voted for by account."
      },
      "fractionMulExp(uint256,uint256,uint256,uint256,uint256,uint256)": {
        "notice": "calculate a * b^x for fractions a, b to `decimals` precision"
      },
      "getActiveVoteUnitsForGroup(address)": {
        "notice": "Returns the total active vote units made for `group`."
      },
      "getActiveVoteUnitsForGroupByAccount(address,address)": {
        "notice": "Returns the active vote units for `group` made by `account`."
      },
      "getActiveVotes()": {
        "notice": "Returns the active votes received across all groups."
      },
      "getActiveVotesForGroup(address)": {
        "notice": "Returns the active votes made for `group`."
      },
      "getActiveVotesForGroupByAccount(address,address)": {
        "notice": "Returns the active votes for `group` made by `account`."
      },
      "getBlockNumberFromHeader(bytes)": {
        "notice": "Parses block number out of header."
      },
      "getCurrentValidatorSigners()": {
        "notice": "Returns get current validator signers using the precompiles."
      },
      "getElectabilityThreshold()": {
        "notice": "Gets the election threshold."
      },
      "getElectableValidators()": {
        "notice": "Returns the minimum and maximum number of validators that can be elected."
      },
      "getEligibleValidatorGroups()": {
        "notice": "Returns the list of validator groups eligible to elect validators."
      },
      "getEpochNumber()": {
        "notice": "Returns the epoch number at a block."
      },
      "getEpochNumberOfBlock(uint256)": {
        "notice": "Returns the epoch number at a block."
      },
      "getEpochSize()": {
        "notice": "Returns the current epoch size in blocks."
      },
      "getGroupEligibility(address)": {
        "notice": "Returns whether or not a group is eligible to receive votes."
      },
      "getGroupEpochRewards(address,uint256,uint256[])": {
        "notice": "Returns the amount of rewards that voters for `group` are due at the end of an epoch."
      },
      "getGroupsVotedForByAccount(address)": {
        "notice": "Returns the groups that `account` has voted for."
      },
      "getNumVotesReceivable(address)": {
        "notice": "Returns the number of votes that a group can receive."
      },
      "getParentSealBitmap(uint256)": {
        "notice": "Gets the parent seal bitmap from the header at the given block number."
      },
      "getPendingVotesForGroup(address)": {
        "notice": "Returns the pending votes made for `group`."
      },
      "getPendingVotesForGroupByAccount(address,address)": {
        "notice": "Returns the pending votes for `group` made by `account`."
      },
      "getTotalVotes()": {
        "notice": "Returns the total votes received across all groups."
      },
      "getTotalVotesByAccount(address)": {
        "notice": "Returns the total number of votes cast by an account."
      },
      "getTotalVotesForEligibleValidatorGroups()": {
        "notice": "Returns list of all validator groups and the number of votes they've received."
      },
      "getTotalVotesForGroup(address)": {
        "notice": "Returns the total votes made for `group`."
      },
      "getTotalVotesForGroupByAccount(address,address)": {
        "notice": "Returns the total votes for `group` made by `account`."
      },
      "getVerifiedSealBitmapFromHeader(bytes)": {
        "notice": "Verifies the BLS signature on the header and returns the seal bitmap. The validator set used for verification is retrieved based on the parent hash field of the header.  If the parent hash is not in the blockchain, verification fails."
      },
      "getVersionNumber()": {
        "notice": "Returns the storage, major, minor, and patch version of the contract."
      },
      "hasActivatablePendingVotes(address,address)": {
        "notice": "Returns whether or not an account's votes for the specified group can be activated."
      },
      "hashHeader(bytes)": {
        "notice": "Computes hash of header."
      },
      "initialize(address,uint256,uint256,uint256,uint256)": {
        "notice": "Used in place of the constructor to allow the contract to be upgradable via proxy."
      },
      "markGroupEligible(address,address,address)": {
        "notice": "Marks a group eligible for electing validators."
      },
      "markGroupIneligible(address)": {
        "notice": "Marks a group ineligible for electing validators."
      },
      "minQuorumSize(uint256)": {
        "notice": "Returns the minimum number of required signers for a given block number."
      },
      "minQuorumSizeInCurrentSet()": {
        "notice": "Computes byzantine quorum from current validator set size"
      },
      "numberValidatorsInCurrentSet()": {
        "notice": "Gets the size of the current elected validator set."
      },
      "numberValidatorsInSet(uint256)": {
        "notice": "Gets the size of the validator set that must sign the given block number."
      },
      "revokeActive(address,uint256,address,address,uint256)": {
        "notice": "Revokes `value` active votes for `group`"
      },
      "revokeAllActive(address,address,address,uint256)": {
        "notice": "Revokes all active votes for `group`"
      },
      "revokePending(address,uint256,address,address,uint256)": {
        "notice": "Revokes `value` pending votes for `group`"
      },
      "setAllowedToVoteOverMaxNumberOfGroups(bool)": {
        "notice": "Allows to turn on/off voting over maxNumGroupsVotedFor. Once this is turned on and account voted for more than maxNumGroupsVotedFor, it is account's obligation to run updateTotalVotesByAccountForGroup once a day. If not run, voting power of account will not reflect rewards awarded."
      },
      "setElectabilityThreshold(uint256)": {
        "notice": "Sets the electability threshold."
      },
      "setElectableValidators(uint256,uint256)": {
        "notice": "Updates the minimum and maximum number of validators that can be elected."
      },
      "setMaxNumGroupsVotedFor(uint256)": {
        "notice": "Updates the maximum number of groups an account can be voting for at once."
      },
      "setRegistry(address)": {
        "notice": "Updates the address pointing to a Registry contract."
      },
      "updateTotalVotesByAccountForGroup(address,address)": {
        "notice": "Counts and caches account's votes for group."
      },
      "validatorSignerAddressFromCurrentSet(uint256)": {
        "notice": "Gets a validator address from the current validator set."
      },
      "validatorSignerAddressFromSet(uint256,uint256)": {
        "notice": "Gets a validator address from the validator set at the given block number."
      },
      "vote(address,uint256,address,address)": {
        "notice": "Increments the number of total and pending votes for `group`."
      }
    }
  }
}