{
  "contractName": "EpochRewardsTest",
  "abi": [
    {
      "anonymous": false,
      "inputs": [
        {
          "indexed": true,
          "internalType": "address",
          "name": "partner",
          "type": "address"
        },
        {
          "indexed": false,
          "internalType": "uint256",
          "name": "fraction",
          "type": "uint256"
        }
      ],
      "name": "CarbonOffsettingFundSet",
      "type": "event"
    },
    {
      "anonymous": false,
      "inputs": [
        {
          "indexed": false,
          "internalType": "uint256",
          "name": "fraction",
          "type": "uint256"
        }
      ],
      "name": "CommunityRewardFractionSet",
      "type": "event"
    },
    {
      "anonymous": false,
      "inputs": [
        {
          "indexed": true,
          "internalType": "address",
          "name": "previousOwner",
          "type": "address"
        },
        {
          "indexed": true,
          "internalType": "address",
          "name": "newOwner",
          "type": "address"
        }
      ],
      "name": "OwnershipTransferred",
      "type": "event"
    },
    {
      "anonymous": false,
      "inputs": [
        {
          "indexed": true,
          "internalType": "address",
          "name": "registryAddress",
          "type": "address"
        }
      ],
      "name": "RegistrySet",
      "type": "event"
    },
    {
      "anonymous": false,
      "inputs": [
        {
          "indexed": false,
          "internalType": "uint256",
          "name": "max",
          "type": "uint256"
        },
        {
          "indexed": false,
          "internalType": "uint256",
          "name": "underspendAdjustmentFactor",
          "type": "uint256"
        },
        {
          "indexed": false,
          "internalType": "uint256",
          "name": "overspendAdjustmentFactor",
          "type": "uint256"
        }
      ],
      "name": "RewardsMultiplierParametersSet",
      "type": "event"
    },
    {
      "anonymous": false,
      "inputs": [
        {
          "indexed": false,
          "internalType": "uint256",
          "name": "payment",
          "type": "uint256"
        }
      ],
      "name": "TargetValidatorEpochPaymentSet",
      "type": "event"
    },
    {
      "anonymous": false,
      "inputs": [
        {
          "indexed": false,
          "internalType": "uint256",
          "name": "fraction",
          "type": "uint256"
        }
      ],
      "name": "TargetVotingGoldFractionSet",
      "type": "event"
    },
    {
      "anonymous": false,
      "inputs": [
        {
          "indexed": false,
          "internalType": "uint256",
          "name": "max",
          "type": "uint256"
        },
        {
          "indexed": false,
          "internalType": "uint256",
          "name": "adjustmentFactor",
          "type": "uint256"
        }
      ],
      "name": "TargetVotingYieldParametersSet",
      "type": "event"
    },
    {
      "anonymous": false,
      "inputs": [
        {
          "indexed": false,
          "internalType": "uint256",
          "name": "target",
          "type": "uint256"
        }
      ],
      "name": "TargetVotingYieldSet",
      "type": "event"
    },
    {
      "anonymous": false,
      "inputs": [
        {
          "indexed": false,
          "internalType": "uint256",
          "name": "fraction",
          "type": "uint256"
        }
      ],
      "name": "TargetVotingYieldUpdated",
      "type": "event"
    },
    {
      "constant": true,
      "inputs": [],
      "name": "calculateTargetEpochRewards",
      "outputs": [
        {
          "internalType": "uint256",
          "name": "",
          "type": "uint256"
        },
        {
          "internalType": "uint256",
          "name": "",
          "type": "uint256"
        },
        {
          "internalType": "uint256",
          "name": "",
          "type": "uint256"
        },
        {
          "internalType": "uint256",
          "name": "",
          "type": "uint256"
        }
      ],
      "payable": false,
      "stateMutability": "view",
      "type": "function"
    },
    {
      "constant": true,
      "inputs": [],
      "name": "carbonOffsettingPartner",
      "outputs": [
        {
          "internalType": "address",
          "name": "",
          "type": "address"
        }
      ],
      "payable": false,
      "stateMutability": "view",
      "type": "function"
    },
    {
      "constant": true,
      "inputs": [
        {
          "internalType": "address",
          "name": "sender",
          "type": "address"
        },
        {
          "internalType": "bytes",
          "name": "blsKey",
          "type": "bytes"
        },
        {
          "internalType": "bytes",
          "name": "blsPop",
          "type": "bytes"
        }
      ],
      "name": "checkProofOfPossession",
      "outputs": [
        {
          "internalType": "bool",
          "name": "",
          "type": "bool"
        }
      ],
      "payable": false,
      "stateMutability": "view",
      "type": "function"
    },
    {
      "constant": true,
      "inputs": [
        {
          "internalType": "uint256",
          "name": "aNumerator",
          "type": "uint256"
        },
        {
          "internalType": "uint256",
          "name": "aDenominator",
          "type": "uint256"
        },
        {
          "internalType": "uint256",
          "name": "bNumerator",
          "type": "uint256"
        },
        {
          "internalType": "uint256",
          "name": "bDenominator",
          "type": "uint256"
        },
        {
          "internalType": "uint256",
          "name": "exponent",
          "type": "uint256"
        },
        {
          "internalType": "uint256",
          "name": "_decimals",
          "type": "uint256"
        }
      ],
      "name": "fractionMulExp",
      "outputs": [
        {
          "internalType": "uint256",
          "name": "",
          "type": "uint256"
        },
        {
          "internalType": "uint256",
          "name": "",
          "type": "uint256"
        }
      ],
      "payable": false,
      "stateMutability": "view",
      "type": "function"
    },
    {
      "constant": true,
      "inputs": [
        {
          "internalType": "bytes",
          "name": "header",
          "type": "bytes"
        }
      ],
      "name": "getBlockNumberFromHeader",
      "outputs": [
        {
          "internalType": "uint256",
          "name": "",
          "type": "uint256"
        }
      ],
      "payable": false,
      "stateMutability": "view",
      "type": "function"
    },
    {
      "constant": true,
      "inputs": [],
      "name": "getCarbonOffsettingFraction",
      "outputs": [
        {
          "internalType": "uint256",
          "name": "",
          "type": "uint256"
        }
      ],
      "payable": false,
      "stateMutability": "view",
      "type": "function"
    },
    {
      "constant": true,
      "inputs": [],
      "name": "getCommunityRewardFraction",
      "outputs": [
        {
          "internalType": "uint256",
          "name": "",
          "type": "uint256"
        }
      ],
      "payable": false,
      "stateMutability": "view",
      "type": "function"
    },
    {
      "constant": true,
      "inputs": [],
      "name": "getEpochNumber",
      "outputs": [
        {
          "internalType": "uint256",
          "name": "",
          "type": "uint256"
        }
      ],
      "payable": false,
      "stateMutability": "view",
      "type": "function"
    },
    {
      "constant": true,
      "inputs": [
        {
          "internalType": "uint256",
          "name": "blockNumber",
          "type": "uint256"
        }
      ],
      "name": "getEpochNumberOfBlock",
      "outputs": [
        {
          "internalType": "uint256",
          "name": "",
          "type": "uint256"
        }
      ],
      "payable": false,
      "stateMutability": "view",
      "type": "function"
    },
    {
      "constant": true,
      "inputs": [],
      "name": "getEpochSize",
      "outputs": [
        {
          "internalType": "uint256",
          "name": "",
          "type": "uint256"
        }
      ],
      "payable": false,
      "stateMutability": "view",
      "type": "function"
    },
    {
      "constant": true,
      "inputs": [
        {
          "internalType": "uint256",
          "name": "blockNumber",
          "type": "uint256"
        }
      ],
      "name": "getParentSealBitmap",
      "outputs": [
        {
          "internalType": "bytes32",
          "name": "",
          "type": "bytes32"
        }
      ],
      "payable": false,
      "stateMutability": "view",
      "type": "function"
    },
    {
      "constant": true,
      "inputs": [],
      "name": "getRewardsMultiplierParameters",
      "outputs": [
        {
          "internalType": "uint256",
          "name": "",
          "type": "uint256"
        },
        {
          "internalType": "uint256",
          "name": "",
          "type": "uint256"
        },
        {
          "internalType": "uint256",
          "name": "",
          "type": "uint256"
        }
      ],
      "payable": false,
      "stateMutability": "view",
      "type": "function"
    },
    {
      "constant": true,
      "inputs": [],
      "name": "getTargetGoldTotalSupply",
      "outputs": [
        {
          "internalType": "uint256",
          "name": "",
          "type": "uint256"
        }
      ],
      "payable": false,
      "stateMutability": "view",
      "type": "function"
    },
    {
      "constant": true,
      "inputs": [],
      "name": "getTargetTotalEpochPaymentsInGold",
      "outputs": [
        {
          "internalType": "uint256",
          "name": "",
          "type": "uint256"
        }
      ],
      "payable": false,
      "stateMutability": "view",
      "type": "function"
    },
    {
      "constant": true,
      "inputs": [],
      "name": "getTargetVoterRewards",
      "outputs": [
        {
          "internalType": "uint256",
          "name": "",
          "type": "uint256"
        }
      ],
      "payable": false,
      "stateMutability": "view",
      "type": "function"
    },
    {
      "constant": true,
      "inputs": [],
      "name": "getTargetVotingGoldFraction",
      "outputs": [
        {
          "internalType": "uint256",
          "name": "",
          "type": "uint256"
        }
      ],
      "payable": false,
      "stateMutability": "view",
      "type": "function"
    },
    {
      "constant": true,
      "inputs": [],
      "name": "getTargetVotingYieldParameters",
      "outputs": [
        {
          "internalType": "uint256",
          "name": "",
          "type": "uint256"
        },
        {
          "internalType": "uint256",
          "name": "",
          "type": "uint256"
        },
        {
          "internalType": "uint256",
          "name": "",
          "type": "uint256"
        }
      ],
      "payable": false,
      "stateMutability": "view",
      "type": "function"
    },
    {
      "constant": true,
      "inputs": [
        {
          "internalType": "bytes",
          "name": "header",
          "type": "bytes"
        }
      ],
      "name": "getVerifiedSealBitmapFromHeader",
      "outputs": [
        {
          "internalType": "bytes32",
          "name": "",
          "type": "bytes32"
        }
      ],
      "payable": false,
      "stateMutability": "view",
      "type": "function"
    },
    {
      "constant": true,
      "inputs": [],
      "name": "getVersionNumber",
      "outputs": [
        {
          "internalType": "uint256",
          "name": "",
          "type": "uint256"
        },
        {
          "internalType": "uint256",
          "name": "",
          "type": "uint256"
        },
        {
          "internalType": "uint256",
          "name": "",
          "type": "uint256"
        },
        {
          "internalType": "uint256",
          "name": "",
          "type": "uint256"
        }
      ],
      "payable": false,
      "stateMutability": "pure",
      "type": "function"
    },
    {
      "constant": true,
      "inputs": [],
      "name": "getVotingGoldFraction",
      "outputs": [
        {
          "internalType": "uint256",
          "name": "",
          "type": "uint256"
        }
      ],
      "payable": false,
      "stateMutability": "view",
      "type": "function"
    },
    {
      "constant": true,
      "inputs": [
        {
          "internalType": "bytes",
          "name": "header",
          "type": "bytes"
        }
      ],
      "name": "hashHeader",
      "outputs": [
        {
          "internalType": "bytes32",
          "name": "",
          "type": "bytes32"
        }
      ],
      "payable": false,
      "stateMutability": "view",
      "type": "function"
    },
    {
      "constant": false,
      "inputs": [
        {
          "internalType": "address",
          "name": "registryAddress",
          "type": "address"
        },
        {
          "internalType": "uint256",
          "name": "targetVotingYieldInitial",
          "type": "uint256"
        },
        {
          "internalType": "uint256",
          "name": "targetVotingYieldMax",
          "type": "uint256"
        },
        {
          "internalType": "uint256",
          "name": "targetVotingYieldAdjustmentFactor",
          "type": "uint256"
        },
        {
          "internalType": "uint256",
          "name": "rewardsMultiplierMax",
          "type": "uint256"
        },
        {
          "internalType": "uint256",
          "name": "rewardsMultiplierUnderspendAdjustmentFactor",
          "type": "uint256"
        },
        {
          "internalType": "uint256",
          "name": "rewardsMultiplierOverspendAdjustmentFactor",
          "type": "uint256"
        },
        {
          "internalType": "uint256",
          "name": "_targetVotingGoldFraction",
          "type": "uint256"
        },
        {
          "internalType": "uint256",
          "name": "_targetValidatorEpochPayment",
          "type": "uint256"
        },
        {
          "internalType": "uint256",
          "name": "_communityRewardFraction",
          "type": "uint256"
        },
        {
          "internalType": "address",
          "name": "_carbonOffsettingPartner",
          "type": "address"
        },
        {
          "internalType": "uint256",
          "name": "_carbonOffsettingFraction",
          "type": "uint256"
        }
      ],
      "name": "initialize",
      "outputs": [],
      "payable": false,
      "stateMutability": "nonpayable",
      "type": "function"
    },
    {
      "constant": true,
      "inputs": [],
      "name": "initialized",
      "outputs": [
        {
          "internalType": "bool",
          "name": "",
          "type": "bool"
        }
      ],
      "payable": false,
      "stateMutability": "view",
      "type": "function"
    },
    {
      "constant": true,
      "inputs": [],
      "name": "isOwner",
      "outputs": [
        {
          "internalType": "bool",
          "name": "",
          "type": "bool"
        }
      ],
      "payable": false,
      "stateMutability": "view",
      "type": "function"
    },
    {
      "constant": true,
      "inputs": [],
      "name": "isReserveLow",
      "outputs": [
        {
          "internalType": "bool",
          "name": "",
          "type": "bool"
        }
      ],
      "payable": false,
      "stateMutability": "view",
      "type": "function"
    },
    {
      "constant": true,
      "inputs": [
        {
          "internalType": "uint256",
          "name": "blockNumber",
          "type": "uint256"
        }
      ],
      "name": "minQuorumSize",
      "outputs": [
        {
          "internalType": "uint256",
          "name": "",
          "type": "uint256"
        }
      ],
      "payable": false,
      "stateMutability": "view",
      "type": "function"
    },
    {
      "constant": true,
      "inputs": [],
      "name": "minQuorumSizeInCurrentSet",
      "outputs": [
        {
          "internalType": "uint256",
          "name": "",
          "type": "uint256"
        }
      ],
      "payable": false,
      "stateMutability": "view",
      "type": "function"
    },
    {
      "constant": true,
      "inputs": [
        {
          "internalType": "uint256",
          "name": "blockNumber",
          "type": "uint256"
        }
      ],
      "name": "numberValidatorsInSet",
      "outputs": [
        {
          "internalType": "uint256",
          "name": "",
          "type": "uint256"
        }
      ],
      "payable": false,
      "stateMutability": "view",
      "type": "function"
    },
    {
      "constant": true,
      "inputs": [],
      "name": "owner",
      "outputs": [
        {
          "internalType": "address",
          "name": "",
          "type": "address"
        }
      ],
      "payable": false,
      "stateMutability": "view",
      "type": "function"
    },
    {
      "constant": true,
      "inputs": [],
      "name": "registry",
      "outputs": [
        {
          "internalType": "contract IRegistry",
          "name": "",
          "type": "address"
        }
      ],
      "payable": false,
      "stateMutability": "view",
      "type": "function"
    },
    {
      "constant": false,
      "inputs": [],
      "name": "renounceOwnership",
      "outputs": [],
      "payable": false,
      "stateMutability": "nonpayable",
      "type": "function"
    },
    {
      "constant": false,
      "inputs": [
        {
          "internalType": "address",
          "name": "partner",
          "type": "address"
        },
        {
          "internalType": "uint256",
          "name": "value",
          "type": "uint256"
        }
      ],
      "name": "setCarbonOffsettingFund",
      "outputs": [
        {
          "internalType": "bool",
          "name": "",
          "type": "bool"
        }
      ],
      "payable": false,
      "stateMutability": "nonpayable",
      "type": "function"
    },
    {
      "constant": false,
      "inputs": [
        {
          "internalType": "uint256",
          "name": "value",
          "type": "uint256"
        }
      ],
      "name": "setCommunityRewardFraction",
      "outputs": [
        {
          "internalType": "bool",
          "name": "",
          "type": "bool"
        }
      ],
      "payable": false,
      "stateMutability": "nonpayable",
      "type": "function"
    },
    {
      "constant": false,
      "inputs": [
        {
          "internalType": "address",
          "name": "registryAddress",
          "type": "address"
        }
      ],
      "name": "setRegistry",
      "outputs": [],
      "payable": false,
      "stateMutability": "nonpayable",
      "type": "function"
    },
    {
      "constant": false,
      "inputs": [
        {
          "internalType": "uint256",
          "name": "max",
          "type": "uint256"
        },
        {
          "internalType": "uint256",
          "name": "underspendAdjustmentFactor",
          "type": "uint256"
        },
        {
          "internalType": "uint256",
          "name": "overspendAdjustmentFactor",
          "type": "uint256"
        }
      ],
      "name": "setRewardsMultiplierParameters",
      "outputs": [
        {
          "internalType": "bool",
          "name": "",
          "type": "bool"
        }
      ],
      "payable": false,
      "stateMutability": "nonpayable",
      "type": "function"
    },
    {
      "constant": false,
      "inputs": [
        {
          "internalType": "uint256",
          "name": "value",
          "type": "uint256"
        }
      ],
      "name": "setTargetValidatorEpochPayment",
      "outputs": [
        {
          "internalType": "bool",
          "name": "",
          "type": "bool"
        }
      ],
      "payable": false,
      "stateMutability": "nonpayable",
      "type": "function"
    },
    {
      "constant": false,
      "inputs": [
        {
          "internalType": "uint256",
          "name": "value",
          "type": "uint256"
        }
      ],
      "name": "setTargetVotingGoldFraction",
      "outputs": [
        {
          "internalType": "bool",
          "name": "",
          "type": "bool"
        }
      ],
      "payable": false,
      "stateMutability": "nonpayable",
      "type": "function"
    },
    {
      "constant": false,
      "inputs": [
        {
          "internalType": "uint256",
          "name": "targetVotingYield",
          "type": "uint256"
        }
      ],
      "name": "setTargetVotingYield",
      "outputs": [
        {
          "internalType": "bool",
          "name": "",
          "type": "bool"
        }
      ],
      "payable": false,
      "stateMutability": "nonpayable",
      "type": "function"
    },
    {
      "constant": false,
      "inputs": [
        {
          "internalType": "uint256",
          "name": "max",
          "type": "uint256"
        },
        {
          "internalType": "uint256",
          "name": "adjustmentFactor",
          "type": "uint256"
        }
      ],
      "name": "setTargetVotingYieldParameters",
      "outputs": [
        {
          "internalType": "bool",
          "name": "",
          "type": "bool"
        }
      ],
      "payable": false,
      "stateMutability": "nonpayable",
      "type": "function"
    },
    {
      "constant": true,
      "inputs": [],
      "name": "startTime",
      "outputs": [
        {
          "internalType": "uint256",
          "name": "",
          "type": "uint256"
        }
      ],
      "payable": false,
      "stateMutability": "view",
      "type": "function"
    },
    {
      "constant": true,
      "inputs": [],
      "name": "targetValidatorEpochPayment",
      "outputs": [
        {
          "internalType": "uint256",
          "name": "",
          "type": "uint256"
        }
      ],
      "payable": false,
      "stateMutability": "view",
      "type": "function"
    },
    {
      "constant": false,
      "inputs": [
        {
          "internalType": "address",
          "name": "newOwner",
          "type": "address"
        }
      ],
      "name": "transferOwnership",
      "outputs": [],
      "payable": false,
      "stateMutability": "nonpayable",
      "type": "function"
    },
    {
      "constant": false,
      "inputs": [],
      "name": "updateTargetVotingYield",
      "outputs": [],
      "payable": false,
      "stateMutability": "nonpayable",
      "type": "function"
    },
    {
      "constant": true,
      "inputs": [
        {
          "internalType": "uint256",
          "name": "index",
          "type": "uint256"
        }
      ],
      "name": "validatorSignerAddressFromCurrentSet",
      "outputs": [
        {
          "internalType": "address",
          "name": "",
          "type": "address"
        }
      ],
      "payable": false,
      "stateMutability": "view",
      "type": "function"
    },
    {
      "constant": true,
      "inputs": [
        {
          "internalType": "uint256",
          "name": "index",
          "type": "uint256"
        },
        {
          "internalType": "uint256",
          "name": "blockNumber",
          "type": "uint256"
        }
      ],
      "name": "validatorSignerAddressFromSet",
      "outputs": [
        {
          "internalType": "address",
          "name": "",
          "type": "address"
        }
      ],
      "payable": false,
      "stateMutability": "view",
      "type": "function"
    },
    {
      "constant": true,
      "inputs": [],
      "name": "getRewardsMultiplier",
      "outputs": [
        {
          "internalType": "uint256",
          "name": "",
          "type": "uint256"
        }
      ],
      "payable": false,
      "stateMutability": "view",
      "type": "function"
    },
    {
      "constant": true,
      "inputs": [
        {
          "internalType": "uint256",
          "name": "targetGoldTotalSupplyIncrease",
          "type": "uint256"
        }
      ],
      "name": "getRewardsMultiplier",
      "outputs": [
        {
          "internalType": "uint256",
          "name": "",
          "type": "uint256"
        }
      ],
      "payable": false,
      "stateMutability": "view",
      "type": "function"
    },
    {
      "constant": true,
      "inputs": [],
      "name": "numberValidatorsInCurrentSet",
      "outputs": [
        {
          "internalType": "uint256",
          "name": "",
          "type": "uint256"
        }
      ],
      "payable": false,
      "stateMutability": "view",
      "type": "function"
    },
    {
      "constant": false,
      "inputs": [
        {
          "internalType": "uint256",
          "name": "value",
          "type": "uint256"
        }
      ],
      "name": "setNumberValidatorsInCurrentSet",
      "outputs": [],
      "payable": false,
      "stateMutability": "nonpayable",
      "type": "function"
    }
  ],
  "bytecode": "0x6080604052600060025560018060006200001e620000e660201b60201c565b9050806000806101000a81548173ffffffffffffffffffffffffffffffffffffffff021916908373ffffffffffffffffffffffffffffffffffffffff1602179055508073ffffffffffffffffffffffffffffffffffffffff16600073ffffffffffffffffffffffffffffffffffffffff167f8be0079c531659141344cd1fd0a4f28419497f9722a3daafe3b4186f6b6457e060405160405180910390a35080620000de576001600060146101000a81548160ff0219169083151502179055505b5050620000ee565b600033905090565b615d9e80620000fe6000396000f3fe608060405234801561001057600080fd5b50600436106102bb5760003560e01c80637d164125116101825780639b2b592f116100e9578063d632994c116100a2578063e50e652d1161007c578063e50e652d14610f80578063ec68307214610fc2578063f2fde38b1461103d578063fae8db0a14611081576102bb565b8063d632994c14610f16578063df4da46114610f44578063e185aaa814610f62576102bb565b80639b2b592f14610dc8578063a1b9596214610e0a578063a91ee0dc14610e28578063ae098de214610e6c578063b63b4a2314610e8a578063cd52782e14610ed0576102bb565b806392ecd7451161013b57806392ecd74514610cd45780639402838414610cde57806396c3d2fd14610d245780639917907f14610d6a5780639a7b3be714610d885780639ad0cce714610da6576102bb565b80637d16412514610b035780638331c1d714610b2157806387ee8a0f14610b7b5780638a88362614610b995780638da5cb5b14610c685780638f32d59b14610cb2576102bb565b806354255be011610226578063715018a6116101df578063715018a6146109685780637385e5da1461097257806376d92bd21461099057806378e97925146109d25780637b103999146109f05780637cca2a3c14610a3a576102bb565b806354255be01461073f5780635918bb58146107725780635d180adb146107c25780635f396e481461083a578063643470431461086657806367960e9114610899576102bb565b80632848f9e3116102785780632848f9e31461056e5780633b1eb4bf1461058c578063434c99c4146105ce5780634901c725146106345780634b2c2f44146106525780635049890f14610721576102bb565b80630203ab24146102c0578063123633ea146102de578063158ef93e1461034c578063171af90f1461036e57806322dae21f1461039a57806323f0ab65146103e4575b600080fd5b6102c86110c3565b6040518082815260200191505060405180910390f35b61030a600480360360208110156102f457600080fd5b81019080803590602001909291905050506110e2565b604051808273ffffffffffffffffffffffffffffffffffffffff1673ffffffffffffffffffffffffffffffffffffffff16815260200191505060405180910390f35b610354611233565b604051808215151515815260200191505060405180910390f35b610376611246565b60405180848152602001838152602001828152602001935050505060405180910390f35b6103a26112bf565b604051808273ffffffffffffffffffffffffffffffffffffffff1673ffffffffffffffffffffffffffffffffffffffff16815260200191505060405180910390f35b610554600480360360608110156103fa57600080fd5b81019080803573ffffffffffffffffffffffffffffffffffffffff1690602001909291908035906020019064010000000081111561043757600080fd5b82018360208201111561044957600080fd5b8035906020019184600183028401116401000000008311171561046b57600080fd5b91908080601f016020809104026020016040519081016040528093929190818152602001838380828437600081840152601f19601f820116905080830192505050505050509192919290803590602001906401000000008111156104ce57600080fd5b8201836020820111156104e057600080fd5b8035906020019184600183028401116401000000008311171561050257600080fd5b91908080601f016020809104026020016040519081016040528093929190818152602001838380828437600081840152601f19601f8201169050808301925050505050505091929192905050506112e5565b604051808215151515815260200191505060405180910390f35b61057661149e565b6040518082815260200191505060405180910390f35b6105b8600480360360208110156105a257600080fd5b8101908080359060200190929190505050611568565b6040518082815260200191505060405180910390f35b61061a600480360360408110156105e457600080fd5b81019080803573ffffffffffffffffffffffffffffffffffffffff16906020019092919080359060200190929190505050611582565b604051808215151515815260200191505060405180910390f35b61063c611803565b6040518082815260200191505060405180910390f35b61070b6004803603602081101561066857600080fd5b810190808035906020019064010000000081111561068557600080fd5b82018360208201111561069757600080fd5b803590602001918460018302840111640100000000831117156106b957600080fd5b91908080601f016020809104026020016040519081016040528093929190818152602001838380828437600081840152601f19601f820116905080830192505050505050509192919290505050611a13565b6040518082815260200191505060405180910390f35b610729611ba7565b6040518082815260200191505060405180910390f35b610747611cd1565b6040518085815260200184815260200183815260200182815260200194505050505060405180910390f35b6107a86004803603604081101561078857600080fd5b810190808035906020019092919080359060200190929190505050611cf8565b604051808215151515815260200191505060405180910390f35b6107f8600480360360408110156107d857600080fd5b810190808035906020019092919080359060200190929190505050611f21565b604051808273ffffffffffffffffffffffffffffffffffffffff1673ffffffffffffffffffffffffffffffffffffffff16815260200191505060405180910390f35b610842612073565b60405180848152602001838152602001828152602001935050505060405180910390f35b61086e6120f2565b6040518085815260200184815260200183815260200182815260200194505050505060405180910390f35b610952600480360360208110156108af57600080fd5b81019080803590602001906401000000008111156108cc57600080fd5b8201836020820111156108de57600080fd5b8035906020019184600183028401116401000000008311171561090057600080fd5b91908080601f016020809104026020016040519081016040528093929190818152602001838380828437600081840152601f19601f820116905080830192505050505050509192919290505050612212565b6040518082815260200191505060405180910390f35b6109706123a6565b005b61097a6124df565b6040518082815260200191505060405180910390f35b6109bc600480360360208110156109a657600080fd5b81019080803590602001909291905050506124ef565b6040518082815260200191505060405180910390f35b6109da612509565b6040518082815260200191505060405180910390f35b6109f861250f565b604051808273ffffffffffffffffffffffffffffffffffffffff1673ffffffffffffffffffffffffffffffffffffffff16815260200191505060405180910390f35b610b016004803603610180811015610a5157600080fd5b81019080803573ffffffffffffffffffffffffffffffffffffffff169060200190929190803590602001909291908035906020019092919080359060200190929190803590602001909291908035906020019092919080359060200190929190803590602001909291908035906020019092919080359060200190929190803573ffffffffffffffffffffffffffffffffffffffff16906020019092919080359060200190929190505050612535565b005b610b0b612644565b6040518082815260200191505060405180910390f35b610b6160048036036060811015610b3757600080fd5b8101908080359060200190929190803590602001909291908035906020019092919050505061266a565b604051808215151515815260200191505060405180910390f35b610b836128a0565b6040518082815260200191505060405180910390f35b610c5260048036036020811015610baf57600080fd5b8101908080359060200190640100000000811115610bcc57600080fd5b820183602082011115610bde57600080fd5b80359060200191846001830284011164010000000083111715610c0057600080fd5b91908080601f016020809104026020016040519081016040528093929190818152602001838380828437600081840152601f19601f8201169050808301925050505050505091929192905050506128aa565b6040518082815260200191505060405180910390f35b610c70612a3e565b604051808273ffffffffffffffffffffffffffffffffffffffff1673ffffffffffffffffffffffffffffffffffffffff16815260200191505060405180910390f35b610cba612a67565b604051808215151515815260200191505060405180910390f35b610cdc612ac5565b005b610d0a60048036036020811015610cf457600080fd5b8101908080359060200190929190505050612c86565b604051808215151515815260200191505060405180910390f35b610d5060048036036020811015610d3a57600080fd5b8101908080359060200190929190505050612e38565b604051808215151515815260200191505060405180910390f35b610d72612f56565b6040518082815260200191505060405180910390f35b610d90612f7c565b6040518082815260200191505060405180910390f35b610dae612f8c565b604051808215151515815260200191505060405180910390f35b610df460048036036020811015610dde57600080fd5b81019080803590602001909291905050506130ee565b6040518082815260200191505060405180910390f35b610e12613237565b6040518082815260200191505060405180910390f35b610e6a60048036036020811015610e3e57600080fd5b81019080803573ffffffffffffffffffffffffffffffffffffffff16906020019092919050505061341b565b005b610e746135bf565b6040518082815260200191505060405180910390f35b610eb660048036036020811015610ea057600080fd5b81019080803590602001909291905050506135e5565b604051808215151515815260200191505060405180910390f35b610efc60048036036020811015610ee657600080fd5b810190808035906020019092919050505061374a565b604051808215151515815260200191505060405180910390f35b610f4260048036036020811015610f2c57600080fd5b81019080803590602001909291905050506138ae565b005b610f4c6138b8565b6040518082815260200191505060405180910390f35b610f6a6139f4565b6040518082815260200191505060405180910390f35b610fac60048036036020811015610f9657600080fd5b81019080803590602001909291905050506139fa565b6040518082815260200191505060405180910390f35b611020600480360360c0811015610fd857600080fd5b81019080803590602001909291908035906020019092919080359060200190929190803590602001909291908035906020019092919080359060200190929190505050613a45565b604051808381526020018281526020019250505060405180910390f35b61107f6004803603602081101561105357600080fd5b81019080803573ffffffffffffffffffffffffffffffffffffffff169060200190929190505050613c59565b005b6110ad6004803603602081101561109757600080fd5b8101908080359060200190929190505050613cdf565b6040518082815260200191505060405180910390f35b60006110dd6110d86110d3613e28565b613edf565b6141e4565b905090565b60006060600060fa73ffffffffffffffffffffffffffffffffffffffff16844360405160200180838152602001828152602001925050506040516020818303038152906040526040518082805190602001908083835b6020831061115b5780518252602082019150602081019050602083039250611138565b6001836020036101000a038019825116818451168082178552505050505050905001915050600060405180830381855afa9150503d80600081146111bb576040519150601f19603f3d011682016040523d82523d6000602084013e6111c0565b606091505b5080935081925050508061121f576040517f08c379a000000000000000000000000000000000000000000000000000000000815260040180806020018281038252603d815260200180615b5e603d913960400191505060405180910390fd5b61122a8260006141f2565b92505050919050565b600060149054906101000a900460ff1681565b60008060008060069050611271816000016040518060200160405290816000820154815250506141e4565b611292826002016040518060200160405290816000820154815250506141e4565b6112b3836001016040518060200160405290816000820154815250506141e4565b93509350935050909192565b600c60009054906101000a900473ffffffffffffffffffffffffffffffffffffffff1681565b60008060fb73ffffffffffffffffffffffffffffffffffffffff16858585604051602001808473ffffffffffffffffffffffffffffffffffffffff1673ffffffffffffffffffffffffffffffffffffffff1660601b815260140183805190602001908083835b6020831061136e578051825260208201915060208101905060208303925061134b565b6001836020036101000a03801982511681845116808217855250505050505090500182805190602001908083835b602083106113bf578051825260208201915060208101905060208303925061139c565b6001836020036101000a03801982511681845116808217855250505050505090500193505050506040516020818303038152906040526040518082805190602001908083835b602083106114285780518252602082019150602081019050602083039250611405565b6001836020036101000a038019825116818451168082178552505050505050905001915050600060405180830381855afa9150503d8060008114611488576040519150601f19603f3d011682016040523d82523d6000602084013e61148d565b606091505b505080915050809150509392505050565b600061156361155e60066000016040518060200160405290816000820154815250506115506114cb614209565b73ffffffffffffffffffffffffffffffffffffffff16631f6042436040518163ffffffff1660e01b815260040160206040518083038186803b15801561151057600080fd5b505afa158015611524573d6000803e3d6000fd5b505050506040513d602081101561153a57600080fd5b8101908080519060200190929190505050614304565b61438e90919063ffffffff16565b6147ed565b905090565b600061157b826115766138b8565b61480e565b9050919050565b600061158c612a67565b6115fe576040517f08c379a00000000000000000000000000000000000000000000000000000000081526004018080602001828103825260208152602001807f4f776e61626c653a2063616c6c6572206973206e6f7420746865206f776e657281525060200191505060405180910390fd5b600c60009054906101000a900473ffffffffffffffffffffffffffffffffffffffff1673ffffffffffffffffffffffffffffffffffffffff168373ffffffffffffffffffffffffffffffffffffffff161415806116795750611675600b6040518060200160405290816000820154815250506141e4565b8214155b6116ce576040517f08c379a0000000000000000000000000000000000000000000000000000000008152600401808060200182810382526048815260200180615cff6048913960600191505060405180910390fd5b6116de6116d9614856565b6141e4565b8210611752576040517f08c379a00000000000000000000000000000000000000000000000000000000081526004018080602001828103825260198152602001807f56616c7565206d757374206265206c657373207468616e20310000000000000081525060200191505060405180910390fd5b82600c60006101000a81548173ffffffffffffffffffffffffffffffffffffffff021916908373ffffffffffffffffffffffffffffffffffffffff16021790555061179c8261487c565b600b600082015181600001559050508273ffffffffffffffffffffffffffffffffffffffff167fe296227209b47bb8f4a76768ebd564dcde1c44be325a5d262f27c1fd4fd4538b836040518082815260200191505060405180910390a26001905092915050565b600080600160009054906101000a900473ffffffffffffffffffffffffffffffffffffffff1673ffffffffffffffffffffffffffffffffffffffff1663dcf0aaed60405160200180807f537461626c65546f6b656e000000000000000000000000000000000000000000815250600b019050604051602081830303815290604052805190602001206040518263ffffffff1660e01b81526004018082815260200191505060206040518083038186803b1580156118bf57600080fd5b505afa1580156118d3573d6000803e3d6000fd5b505050506040513d60208110156118e957600080fd5b8101908080519060200190929190505050905060008061190761489a565b73ffffffffffffffffffffffffffffffffffffffff1663ef90e1b0846040518263ffffffff1660e01b8152600401808273ffffffffffffffffffffffffffffffffffffffff1673ffffffffffffffffffffffffffffffffffffffff168152602001915050604080518083038186803b15801561198257600080fd5b505afa158015611996573d6000803e3d6000fd5b505050506040513d60408110156119ac57600080fd5b81019080805190602001909291908051906020019092919050505091509150611a0b826119fd836119ef600d546119e16128a0565b61499590919063ffffffff16565b61499590919063ffffffff16565b614a1b90919063ffffffff16565b935050505090565b60006060600060f473ffffffffffffffffffffffffffffffffffffffff16846040516020018082805190602001908083835b60208310611a685780518252602082019150602081019050602083039250611a45565b6001836020036101000a0380198251168184511680821785525050505050509050019150506040516020818303038152906040526040518082805190602001908083835b60208310611acf5780518252602082019150602081019050602083039250611aac565b6001836020036101000a038019825116818451168082178552505050505050905001915050600060405180830381855afa9150503d8060008114611b2f576040519150601f19603f3d011682016040523d82523d6000602084013e611b34565b606091505b50809350819250505080611b93576040517f08c379a0000000000000000000000000000000000000000000000000000000008152600401808060200182810382526038815260200180615aac6038913960400191505060405180910390fd5b611b9e826000614a65565b92505050919050565b600080611bbf60025442614b0690919063ffffffff16565b90506201518061016d600f0202811015611c71576000611c136002611c056b01f04ef12cb04cf1580000006b033b2e3c9fd0803ce8000000614b0690919063ffffffff16565b614a1b90919063ffffffff16565b90506000611c466201518061016d600f0202611c38858561499590919063ffffffff16565b614a1b90919063ffffffff16565b9050611c676b01f04ef12cb04cf15800000082614b5090919063ffffffff16565b9350505050611cce565b6000611cc8576040517f08c379a0000000000000000000000000000000000000000000000000000000008152600401808060200182810382526036815260200180615a766036913960400191505060405180910390fd5b60009150505b90565b60008060008060018060016000839350829250819150809050935093509350935090919293565b6000611d02612a67565b611d74576040517f08c379a00000000000000000000000000000000000000000000000000000000081526004018080602001828103825260208152602001807f4f776e61626c653a2063616c6c6572206973206e6f7420746865206f776e657281525060200191505060405180910390fd5b611d9660066002016040518060200160405290816000820154815250506141e4565b83141580611dc55750611dc160066001016040518060200160405290816000820154815250506141e4565b8214155b611e1a576040517f08c379a0000000000000000000000000000000000000000000000000000000008152600401808060200182810382526022815260200180615b3c6022913960400191505060405180910390fd5b611e238361487c565b600660020160008201518160000155905050611e3e8261487c565b600660010160008201518160000155905050611e83611e5b614856565b6006600201604051806020016040529081600082015481525050614bd890919063ffffffff16565b611ed8576040517f08c379a000000000000000000000000000000000000000000000000000000000815260040180806020018281038252602f815260200180615cd0602f913960400191505060405180910390fd5b7f1b76e38f3fdd1f284ed4d47c9d50ff407748c516ff9761616ff638c2331076258383604051808381526020018281526020019250505060405180910390a16001905092915050565b60006060600060fa73ffffffffffffffffffffffffffffffffffffffff16858560405160200180838152602001828152602001925050506040516020818303038152906040526040518082805190602001908083835b60208310611f9a5780518252602082019150602081019050602083039250611f77565b6001836020036101000a038019825116818451168082178552505050505050905001915050600060405180830381855afa9150503d8060008114611ffa576040519150601f19603f3d011682016040523d82523d6000602084013e611fff565b606091505b5080935081925050508061205e576040517f08c379a0000000000000000000000000000000000000000000000000000000008152600401808060200182810382526036815260200180615bd06036913960400191505060405180910390fd5b6120698260006141f2565b9250505092915050565b6000806000806003905061209e816002016040518060200160405290816000820154815250506141e4565b6120c2826000016000016040518060200160405290816000820154815250506141e4565b6120e6836000016001016040518060200160405290816000820154815250506141e4565b93509350935050909192565b600080600080600061210261149e565b9050600061210e613e28565b905061211861591e565b61212182613edf565b905061214861214382612135600d54614304565b61438e90919063ffffffff16565b6147ed565b61216b6121668361215887614304565b61438e90919063ffffffff16565b6147ed565b6121b66121b1846121a3600a60405180602001604052908160008201548152505061219589614304565b61438e90919063ffffffff16565b61438e90919063ffffffff16565b6147ed565b6122016121fc856121ee600b6040518060200160405290816000820154815250506121e08a614304565b61438e90919063ffffffff16565b61438e90919063ffffffff16565b6147ed565b965096509650965050505090919293565b60006060600060f673ffffffffffffffffffffffffffffffffffffffff16846040516020018082805190602001908083835b602083106122675780518252602082019150602081019050602083039250612244565b6001836020036101000a0380198251168184511680821785525050505050509050019150506040516020818303038152906040526040518082805190602001908083835b602083106122ce57805182526020820191506020810190506020830392506122ab565b6001836020036101000a038019825116818451168082178552505050505050905001915050600060405180830381855afa9150503d806000811461232e576040519150601f19603f3d011682016040523d82523d6000602084013e612333565b606091505b50809350819250505080612392576040517f08c379a0000000000000000000000000000000000000000000000000000000008152600401808060200182810382526023815260200180615d476023913960400191505060405180910390fd5b61239d826000614a65565b92505050919050565b6123ae612a67565b612420576040517f08c379a00000000000000000000000000000000000000000000000000000000081526004018080602001828103825260208152602001807f4f776e61626c653a2063616c6c6572206973206e6f7420746865206f776e657281525060200191505060405180910390fd5b600073ffffffffffffffffffffffffffffffffffffffff166000809054906101000a900473ffffffffffffffffffffffffffffffffffffffff1673ffffffffffffffffffffffffffffffffffffffff167f8be0079c531659141344cd1fd0a4f28419497f9722a3daafe3b4186f6b6457e060405160405180910390a360008060006101000a81548173ffffffffffffffffffffffffffffffffffffffff021916908373ffffffffffffffffffffffffffffffffffffffff160217905550565b60006124ea436139fa565b905090565b60006125026124fd83613edf565b6141e4565b9050919050565b60025481565b600160009054906101000a900473ffffffffffffffffffffffffffffffffffffffff1681565b600060149054906101000a900460ff16156125b8576040517f08c379a000000000000000000000000000000000000000000000000000000000815260040180806020018281038252601c8152602001807f636f6e747261637420616c726561647920696e697469616c697a65640000000081525060200191505060405180910390fd5b6001600060146101000a81548160ff0219169083151502179055506125dc33614bed565b6125e58c61341b565b6125ef8a8a611cf8565b506125fb88888861266a565b5061260585612c86565b5061260f84612e38565b50612619836135e5565b506126248282611582565b5061262e8b61374a565b5042600281905550505050505050505050505050565b6000612665600b6040518060200160405290816000820154815250506141e4565b905090565b6000612674612a67565b6126e6576040517f08c379a00000000000000000000000000000000000000000000000000000000081526004018080602001828103825260208152602001807f4f776e61626c653a2063616c6c6572206973206e6f7420746865206f776e657281525060200191505060405180910390fd5b61270860036002016040518060200160405290816000820154815250506141e4565b8414158061273a575061273660036000016001016040518060200160405290816000820154815250506141e4565b8214155b80612769575061276560036000016000016040518060200160405290816000820154815250506141e4565b8314155b6127be576040517f08c379a00000000000000000000000000000000000000000000000000000000081526004018080602001828103825260218152602001806159d76021913960400191505060405180910390fd5b604051806040016040528060405180604001604052806127dd8761487c565b81526020016127eb8661487c565b81525081526020016127fc8661487c565b815250600360008201518160000160008201518160000160008201518160000155505060208201518160010160008201518160000155505050506020820151816002016000820151816000015550509050507f191445ee0115396c9725b9c642b985d63820ca57d54e42e5eb38faec4022f05d84848460405180848152602001838152602001828152602001935050505060405180910390a1600190509392505050565b6000600e54905090565b60006060600060f773ffffffffffffffffffffffffffffffffffffffff16846040516020018082805190602001908083835b602083106128ff57805182526020820191506020810190506020830392506128dc565b6001836020036101000a0380198251168184511680821785525050505050509050019150506040516020818303038152906040526040518082805190602001908083835b602083106129665780518252602082019150602081019050602083039250612943565b6001836020036101000a038019825116818451168082178552505050505050905001915050600060405180830381855afa9150503d80600081146129c6576040519150601f19603f3d011682016040523d82523d6000602084013e6129cb565b606091505b50809350819250505080612a2a576040517f08c379a0000000000000000000000000000000000000000000000000000000008152600401808060200182810382526031815260200180615c9f6031913960400191505060405180910390fd5b612a358260006141f2565b92505050919050565b60008060009054906101000a900473ffffffffffffffffffffffffffffffffffffffff16905090565b60008060009054906101000a900473ffffffffffffffffffffffffffffffffffffffff1673ffffffffffffffffffffffffffffffffffffffff16612aa9614d31565b73ffffffffffffffffffffffffffffffffffffffff1614905090565b600073ffffffffffffffffffffffffffffffffffffffff163373ffffffffffffffffffffffffffffffffffffffff1614612b67576040517f08c379a00000000000000000000000000000000000000000000000000000000081526004018080602001828103825260108152602001807f4f6e6c7920564d2063616e2063616c6c0000000000000000000000000000000081525060200191505060405180910390fd5b612b6f614d39565b73ffffffffffffffffffffffffffffffffffffffff1663e5839836306040518263ffffffff1660e01b8152600401808273ffffffffffffffffffffffffffffffffffffffff1673ffffffffffffffffffffffffffffffffffffffff16815260200191505060206040518083038186803b158015612beb57600080fd5b505afa158015612bff573d6000803e3d6000fd5b505050506040513d6020811015612c1557600080fd5b810190808051906020019092919050505015612c7c576040517f08c379a0000000000000000000000000000000000000000000000000000000008152600401808060200182810382526022815260200180615ae46022913960400191505060405180910390fd5b612c84614e34565b565b6000612c90612a67565b612d02576040517f08c379a00000000000000000000000000000000000000000000000000000000081526004018080602001828103825260208152602001807f4f776e61626c653a2063616c6c6572206973206e6f7420746865206f776e657281525060200191505060405180910390fd5b612d2160096040518060200160405290816000820154815250506141e4565b821415612d79576040517f08c379a00000000000000000000000000000000000000000000000000000000081526004018080602001828103825260258152602001806159f86025913960400191505060405180910390fd5b612d89612d84614856565b6141e4565b8210612de0576040517f08c379a0000000000000000000000000000000000000000000000000000000008152600401808060200182810382526033815260200180615a436033913960400191505060405180910390fd5b612de98261487c565b6009600082015181600001559050507fbae2f33c70949fbc7325c98655f3039e5e1c7f774874c99fd4f31ec5f432b159826040518082815260200191505060405180910390a160019050919050565b6000612e42612a67565b612eb4576040517f08c379a00000000000000000000000000000000000000000000000000000000081526004018080602001828103825260208152602001807f4f776e61626c653a2063616c6c6572206973206e6f7420746865206f776e657281525060200191505060405180910390fd5b600d54821415612f0f576040517f08c379a00000000000000000000000000000000000000000000000000000000081526004018080602001828103825260288152602001806159816028913960400191505060405180910390fd5b81600d819055507fa21d141963bb2c1064b5376f762d22d3e9c4c51617edcf105bcec0f14e36800c826040518082815260200191505060405180910390a160019050919050565b6000612f77600a6040518060200160405290816000820154815250506141e4565b905090565b6000612f8743611568565b905090565b6000612f9661591e565b612fb3612fae60025442614b0690919063ffffffff16565b614304565b9050612fbd61591e565b612fca632efe0780614304565b9050612fd461591e565b612fde6002614304565b9050612fe861591e565b612ffb838561522890919063ffffffff16565b1561300f57613008614856565b9050613037565b613034613025848661523e90919063ffffffff16565b8361538790919063ffffffff16565b90505b61303f61591e565b6130cf61304a61542e565b73ffffffffffffffffffffffffffffffffffffffff166356b6d0d56040518163ffffffff1660e01b815260040160206040518083038186803b15801561308f57600080fd5b505afa1580156130a3573d6000803e3d6000fd5b505050506040513d60208110156130b957600080fd5b810190808051906020019092919050505061487c565b90506130e4828261552990919063ffffffff16565b9550505050505090565b60006060600060f973ffffffffffffffffffffffffffffffffffffffff1684604051602001808281526020019150506040516020818303038152906040526040518082805190602001908083835b6020831061315f578051825260208201915060208101905060208303925061313c565b6001836020036101000a038019825116818451168082178552505050505050905001915050600060405180830381855afa9150503d80600081146131bf576040519150601f19603f3d011682016040523d82523d6000602084013e6131c4565b606091505b50809350819250505080613223576040517f08c379a000000000000000000000000000000000000000000000000000000000815260040180806020018281038252602e8152602001806159a9602e913960400191505060405180910390fd5b61322e8260006141f2565b92505050919050565b60008061335b61324561542e565b73ffffffffffffffffffffffffffffffffffffffff16638d9a5e6f6040518163ffffffff1660e01b815260040160206040518083038186803b15801561328a57600080fd5b505afa15801561329e573d6000803e3d6000fd5b505050506040513d60208110156132b457600080fd5b81019080805190602001909291905050506132cd61553f565b73ffffffffffffffffffffffffffffffffffffffff166318160ddd6040518163ffffffff1660e01b815260040160206040518083038186803b15801561331257600080fd5b505afa158015613326573d6000803e3d6000fd5b505050506040513d602081101561333c57600080fd5b8101908080519060200190929190505050614b0690919063ffffffff16565b90506000613367614209565b73ffffffffffffffffffffffffffffffffffffffff16639a0e7d666040518163ffffffff1660e01b815260040160206040518083038186803b1580156133ac57600080fd5b505afa1580156133c0573d6000803e3d6000fd5b505050506040513d60208110156133d657600080fd5b8101908080519060200190929190505050905061341461340f6133f884614304565b61340184614304565b61523e90919063ffffffff16565b6141e4565b9250505090565b613423612a67565b613495576040517f08c379a00000000000000000000000000000000000000000000000000000000081526004018080602001828103825260208152602001807f4f776e61626c653a2063616c6c6572206973206e6f7420746865206f776e657281525060200191505060405180910390fd5b600073ffffffffffffffffffffffffffffffffffffffff168173ffffffffffffffffffffffffffffffffffffffff161415613538576040517f08c379a00000000000000000000000000000000000000000000000000000000081526004018080602001828103825260208152602001807f43616e6e6f7420726567697374657220746865206e756c6c206164647265737381525060200191505060405180910390fd5b80600160006101000a81548173ffffffffffffffffffffffffffffffffffffffff021916908373ffffffffffffffffffffffffffffffffffffffff1602179055508073ffffffffffffffffffffffffffffffffffffffff167f27fe5f0c1c3b1ed427cc63d0f05759ffdecf9aec9e18d31ef366fc8a6cb5dc3b60405160405180910390a250565b60006135e060096040518060200160405290816000820154815250506141e4565b905090565b60006135ef612a67565b613661576040517f08c379a00000000000000000000000000000000000000000000000000000000081526004018080602001828103825260208152602001807f4f776e61626c653a2063616c6c6572206973206e6f7420746865206f776e657281525060200191505060405180910390fd5b613680600a6040518060200160405290816000820154815250506141e4565b821415801561369d575061369a613695614856565b6141e4565b82105b6136f2576040517f08c379a000000000000000000000000000000000000000000000000000000000815260040180806020018281038252604f815260200180615932604f913960600191505060405180910390fd5b6136fb8261487c565b600a600082015181600001559050507fe6c1b64ad7e601924731051286b7b408b1a6f3ae96dcd6d2d9cd82578372ef9e826040518082815260200191505060405180910390a160019050919050565b6000613754612a67565b6137c6576040517f08c379a00000000000000000000000000000000000000000000000000000000081526004018080602001828103825260208152602001807f4f776e61626c653a2063616c6c6572206973206e6f7420746865206f776e657281525060200191505060405180910390fd5b6137ce61591e565b6137d78361487c565b905061380560066002016040518060200160405290816000820154815250508261552990919063ffffffff16565b61385a576040517f08c379a0000000000000000000000000000000000000000000000000000000008152600401808060200182810382526035815260200180615b9b6035913960400191505060405180910390fd5b806006600001600082015181600001559050507f152c3fc1e1cd415804bc9ae15876b37e62d8909358b940e6f4847ca927f46637836040518082815260200191505060405180910390a16001915050919050565b80600e8190555050565b60006060600060f873ffffffffffffffffffffffffffffffffffffffff166040516020016040516020818303038152906040526040518082805190602001908083835b6020831061391e57805182526020820191506020810190506020830392506138fb565b6001836020036101000a038019825116818451168082178552505050505050905001915050600060405180830381855afa9150503d806000811461397e576040519150601f19603f3d011682016040523d82523d6000602084013e613983565b606091505b508093508192505050806139e2576040517f08c379a0000000000000000000000000000000000000000000000000000000008152600401808060200182810382526025815260200180615c4e6025913960400191505060405180910390fd5b6139ed8260006141f2565b9250505090565b600d5481565b6000613a3e6003613a306002613a226002613a14886130ee565b61499590919063ffffffff16565b614b5090919063ffffffff16565b614a1b90919063ffffffff16565b9050919050565b60008060008714158015613a5a575060008514155b613acc576040517f08c379a00000000000000000000000000000000000000000000000000000000081526004018080602001828103825260158152602001807f612064656e6f6d696e61746f72206973207a65726f000000000000000000000081525060200191505060405180910390fd5b6000806000606060fc73ffffffffffffffffffffffffffffffffffffffff168c8c8c8c8c8c6040516020018087815260200186815260200185815260200184815260200183815260200182815260200196505050505050506040516020818303038152906040526040518082805190602001908083835b60208310613b665780518252602082019150602081019050602083039250613b43565b6001836020036101000a038019825116818451168082178552505050505050905001915050600060405180830381855afa9150503d8060008114613bc6576040519150601f19603f3d011682016040523d82523d6000602084013e613bcb565b606091505b50809250819350505081613c2a576040517f08c379a0000000000000000000000000000000000000000000000000000000008152600401808060200182810382526027815260200180615c276027913960400191505060405180910390fd5b613c358160006141f2565b9350613c428160206141f2565b925083839550955050505050965096945050505050565b613c61612a67565b613cd3576040517f08c379a00000000000000000000000000000000000000000000000000000000081526004018080602001828103825260208152602001807f4f776e61626c653a2063616c6c6572206973206e6f7420746865206f776e657281525060200191505060405180910390fd5b613cdc81614bed565b50565b60006060600060f573ffffffffffffffffffffffffffffffffffffffff1684604051602001808281526020019150506040516020818303038152906040526040518082805190602001908083835b60208310613d505780518252602082019150602081019050602083039250613d2d565b6001836020036101000a038019825116818451168082178552505050505050905001915050600060405180830381855afa9150503d8060008114613db0576040519150601f19603f3d011682016040523d82523d6000602084013e613db5565b606091505b50809350819250505080613e14576040517f08c379a000000000000000000000000000000000000000000000000000000000815260040180806020018281038252602c815260200180615c73602c913960400191505060405180910390fd5b613e1f826000614a65565b92505050919050565b600080613e3361149e565b90506000613e3f611803565b90506000613e568284614b5090919063ffffffff16565b9050613ed4613ecf613eb8600b604051806020016040529081600082015481525050613eaa600a604051806020016040529081600082015481525050613e9c6001614304565b61538790919063ffffffff16565b61538790919063ffffffff16565b613ec184614304565b61523e90919063ffffffff16565b6147ed565b905080935050505090565b613ee761591e565b6000613ef1611ba7565b90506000613efd61553f565b73ffffffffffffffffffffffffffffffffffffffff166318160ddd6040518163ffffffff1660e01b815260040160206040518083038186803b158015613f4257600080fd5b505afa158015613f56573d6000803e3d6000fd5b505050506040513d6020811015613f6c57600080fd5b810190808051906020019092919050505090506000613fb2613f978684614b5090919063ffffffff16565b6b033b2e3c9fd0803ce8000000614b0690919063ffffffff16565b90506000613fd5846b033b2e3c9fd0803ce8000000614b0690919063ffffffff16565b9050613fdf61591e565b614002613feb83614304565b613ff485614304565b61523e90919063ffffffff16565b905061401e61400f614856565b8261563a90919063ffffffff16565b156141015761402b61591e565b6140736003600001600001604051806020016040529081600082015481525050614065614056614856565b8561538790919063ffffffff16565b61438e90919063ffffffff16565b905061407d61591e565b61409782614089614856565b61564f90919063ffffffff16565b90506140c5600360020160405180602001604052908160008201548152505082614bd890919063ffffffff16565b156140d957809750505050505050506141df565b60036002016040518060200160405290816000820154815250509750505050505050506141df565b61411b61410c614856565b82614bd890919063ffffffff16565b156141cf5761412861591e565b614170600360000160010160405180602001604052908160008201548152505061416284614154614856565b61538790919063ffffffff16565b61438e90919063ffffffff16565b905061418c61417d614856565b82614bd890919063ffffffff16565b156141b8576141ab8161419d614856565b61538790919063ffffffff16565b96505050505050506141df565b6141c2600061487c565b96505050505050506141df565b6141d7614856565b955050505050505b919050565b600081600001519050919050565b60006141fe8383614a65565b60001c905092915050565b6000600160009054906101000a900473ffffffffffffffffffffffffffffffffffffffff1673ffffffffffffffffffffffffffffffffffffffff1663dcf0aaed60405160200180807f456c656374696f6e0000000000000000000000000000000000000000000000008152506008019050604051602081830303815290604052805190602001206040518263ffffffff1660e01b81526004018082815260200191505060206040518083038186803b1580156142c457600080fd5b505afa1580156142d8573d6000803e3d6000fd5b505050506040513d60208110156142ee57600080fd5b8101908080519060200190929190505050905090565b61430c61591e565b6143146156f8565b82111561436c576040517f08c379a0000000000000000000000000000000000000000000000000000000008152600401808060200182810382526036815260200180615b066036913960400191505060405180910390fd5b604051806020016040528069d3c21bcecceda100000084028152509050919050565b61439661591e565b6000836000015114806143ad575060008260000151145b156143c9576040518060200160405280600081525090506147e7565b69d3c21bcecceda1000000826000015114156143e7578290506147e7565b69d3c21bcecceda100000083600001511415614405578190506147e7565b600069d3c21bcecceda100000061441b85615717565b600001518161442657fe5b04905060006144348561574e565b600001519050600069d3c21bcecceda100000061445086615717565b600001518161445b57fe5b04905060006144698661574e565b60000151905060008285029050600085146144fd578285828161448857fe5b04146144fc576040517f08c379a00000000000000000000000000000000000000000000000000000000081526004018080602001828103825260168152602001807f6f766572666c6f7720783179312064657465637465640000000000000000000081525060200191505060405180910390fd5b5b600069d3c21bcecceda1000000820290506000821461459f5769d3c21bcecceda100000082828161452a57fe5b041461459e576040517f08c379a000000000000000000000000000000000000000000000000000000000815260040180806020018281038252601f8152602001807f6f766572666c6f772078317931202a206669786564312064657465637465640081525060200191505060405180910390fd5b5b809150600084860290506000861461463057848682816145bb57fe5b041461462f576040517f08c379a00000000000000000000000000000000000000000000000000000000081526004018080602001828103825260168152602001807f6f766572666c6f7720783279312064657465637465640000000000000000000081525060200191505060405180910390fd5b5b60008488029050600088146146be578488828161464957fe5b04146146bd576040517f08c379a00000000000000000000000000000000000000000000000000000000081526004018080602001828103825260168152602001807f6f766572666c6f7720783179322064657465637465640000000000000000000081525060200191505060405180910390fd5b5b6146c661578b565b87816146ce57fe5b0496506146d961578b565b85816146e157fe5b049450600085880290506000881461477257858882816146fd57fe5b0414614771576040517f08c379a00000000000000000000000000000000000000000000000000000000081526004018080602001828103825260168152602001807f6f766572666c6f7720783279322064657465637465640000000000000000000081525060200191505060405180910390fd5b5b61477a61591e565b60405180602001604052808781525090506147a38160405180602001604052808781525061564f565b90506147bd8160405180602001604052808681525061564f565b90506147d78160405180602001604052808581525061564f565b9050809a50505050505050505050505b92915050565b600069d3c21bcecceda100000082600001518161480657fe5b049050919050565b60008082848161481a57fe5b049050600083858161482857fe5b0614156148385780915050614850565b61484c600182614b5090919063ffffffff16565b9150505b92915050565b61485e61591e565b604051806020016040528069d3c21bcecceda1000000815250905090565b61488461591e565b6040518060200160405280838152509050919050565b6000600160009054906101000a900473ffffffffffffffffffffffffffffffffffffffff1673ffffffffffffffffffffffffffffffffffffffff1663dcf0aaed60405160200180807f536f727465644f7261636c657300000000000000000000000000000000000000815250600d019050604051602081830303815290604052805190602001206040518263ffffffff1660e01b81526004018082815260200191505060206040518083038186803b15801561495557600080fd5b505afa158015614969573d6000803e3d6000fd5b505050506040513d602081101561497f57600080fd5b8101908080519060200190929190505050905090565b6000808314156149a85760009050614a15565b60008284029050828482816149b957fe5b0414614a10576040517f08c379a0000000000000000000000000000000000000000000000000000000008152600401808060200182810382526021815260200180615c066021913960400191505060405180910390fd5b809150505b92915050565b6000614a5d83836040518060400160405280601a81526020017f536166654d6174683a206469766973696f6e206279207a65726f000000000000815250615798565b905092915050565b6000614a7b602083614b5090919063ffffffff16565b83511015614af1576040517f08c379a00000000000000000000000000000000000000000000000000000000081526004018080602001828103825260148152602001807f736c6963696e67206f7574206f662072616e676500000000000000000000000081525060200191505060405180910390fd5b60006020830184015190508091505092915050565b6000614b4883836040518060400160405280601e81526020017f536166654d6174683a207375627472616374696f6e206f766572666c6f77000081525061585e565b905092915050565b600080828401905083811015614bce576040517f08c379a000000000000000000000000000000000000000000000000000000000815260040180806020018281038252601b8152602001807f536166654d6174683a206164646974696f6e206f766572666c6f77000000000081525060200191505060405180910390fd5b8091505092915050565b60008160000151836000015110905092915050565b600073ffffffffffffffffffffffffffffffffffffffff168173ffffffffffffffffffffffffffffffffffffffff161415614c73576040517f08c379a0000000000000000000000000000000000000000000000000000000008152600401808060200182810382526026815260200180615a1d6026913960400191505060405180910390fd5b8073ffffffffffffffffffffffffffffffffffffffff166000809054906101000a900473ffffffffffffffffffffffffffffffffffffffff1673ffffffffffffffffffffffffffffffffffffffff167f8be0079c531659141344cd1fd0a4f28419497f9722a3daafe3b4186f6b6457e060405160405180910390a3806000806101000a81548173ffffffffffffffffffffffffffffffffffffffff021916908373ffffffffffffffffffffffffffffffffffffffff16021790555050565b600033905090565b6000600160009054906101000a900473ffffffffffffffffffffffffffffffffffffffff1673ffffffffffffffffffffffffffffffffffffffff1663dcf0aaed60405160200180807f467265657a6572000000000000000000000000000000000000000000000000008152506007019050604051602081830303815290604052805190602001206040518263ffffffff1660e01b81526004018082815260200191505060206040518083038186803b158015614df457600080fd5b505afa158015614e08573d6000803e3d6000fd5b505050506040513d6020811015614e1e57600080fd5b8101908080519060200190929190505050905090565b614e3c614d39565b73ffffffffffffffffffffffffffffffffffffffff1663e5839836306040518263ffffffff1660e01b8152600401808273ffffffffffffffffffffffffffffffffffffffff1673ffffffffffffffffffffffffffffffffffffffff16815260200191505060206040518083038186803b158015614eb857600080fd5b505afa158015614ecc573d6000803e3d6000fd5b505050506040513d6020811015614ee257600080fd5b810190808051906020019092919050505015614f49576040517f08c379a0000000000000000000000000000000000000000000000000000000008152600401808060200182810382526022815260200180615ae46022913960400191505060405180910390fd5b614f5161591e565b614f61614f5c613237565b61487c565b9050614f8c60096040518060200160405290816000820154815250508261563a90919063ffffffff16565b1561509257614f9961591e565b614fc260096040518060200160405290816000820154815250508361538790919063ffffffff16565b9050614fcc61591e565b614ff860066001016040518060200160405290816000820154815250508361438e90919063ffffffff16565b905061502660066000016040518060200160405290816000820154815250508261522890919063ffffffff16565b1561504c576150356000614304565b60066000016000820151816000015590505061508b565b61507881600660000160405180602001604052908160008201548152505061538790919063ffffffff16565b6006600001600082015181600001559050505b50506151cd565b6150bb600960405180602001604052908160008201548152505082614bd890919063ffffffff16565b156151cc576150c861591e565b6150f182600960405180602001604052908160008201548152505061538790919063ffffffff16565b90506150fb61591e565b61512760066001016040518060200160405290816000820154815250508361438e90919063ffffffff16565b905061515581600660000160405180602001604052908160008201548152505061564f90919063ffffffff16565b6006600001600082015181600001559050506151ac6006600201604051806020016040529081600082015481525050600660000160405180602001604052908160008201548152505061563a90919063ffffffff16565b156151c95760066002016006600001600082015481600001559050505b50505b5b7f49d8cdfe05bae61517c234f65f4088454013bafe561115126a8fe0074dc7700e61521060066000016040518060200160405290816000820154815250506141e4565b6040518082815260200191505060405180910390a150565b6000816000015183600001511015905092915050565b61524661591e565b6000826000015114156152c1576040517f08c379a00000000000000000000000000000000000000000000000000000000081526004018080602001828103825260118152602001807f63616e277420646976696465206279203000000000000000000000000000000081525060200191505060405180910390fd5b600069d3c21bcecceda10000008460000151029050836000015169d3c21bcecceda100000082816152ee57fe5b0414615362576040517f08c379a00000000000000000000000000000000000000000000000000000000081526004018080602001828103825260128152602001807f6f766572666c6f7720617420646976696465000000000000000000000000000081525060200191505060405180910390fd5b60405180602001604052808460000151838161537a57fe5b0481525091505092915050565b61538f61591e565b81600001518360000151101561540d576040517f08c379a000000000000000000000000000000000000000000000000000000000815260040180806020018281038252601f8152602001807f737562737472616374696f6e20756e646572666c6f772064657465637465640081525060200191505060405180910390fd5b60405180602001604052808360000151856000015103815250905092915050565b6000600160009054906101000a900473ffffffffffffffffffffffffffffffffffffffff1673ffffffffffffffffffffffffffffffffffffffff1663dcf0aaed60405160200180807f52657365727665000000000000000000000000000000000000000000000000008152506007019050604051602081830303815290604052805190602001206040518263ffffffff1660e01b81526004018082815260200191505060206040518083038186803b1580156154e957600080fd5b505afa1580156154fd573d6000803e3d6000fd5b505050506040513d602081101561551357600080fd5b8101908080519060200190929190505050905090565b6000816000015183600001511115905092915050565b6000600160009054906101000a900473ffffffffffffffffffffffffffffffffffffffff1673ffffffffffffffffffffffffffffffffffffffff1663dcf0aaed60405160200180807f476f6c64546f6b656e00000000000000000000000000000000000000000000008152506009019050604051602081830303815290604052805190602001206040518263ffffffff1660e01b81526004018082815260200191505060206040518083038186803b1580156155fa57600080fd5b505afa15801561560e573d6000803e3d6000fd5b505050506040513d602081101561562457600080fd5b8101908080519060200190929190505050905090565b60008160000151836000015111905092915050565b61565761591e565b60008260000151846000015101905083600001518110156156e0576040517f08c379a00000000000000000000000000000000000000000000000000000000081526004018080602001828103825260158152602001807f616464206f766572666c6f77206465746563746564000000000000000000000081525060200191505060405180910390fd5b60405180602001604052808281525091505092915050565b60007601357c299a88ea76a58924d52ce4f26a85af186c2b9e74905090565b61571f61591e565b604051806020016040528069d3c21bcecceda10000008085600001518161574257fe5b04028152509050919050565b61575661591e565b604051806020016040528069d3c21bcecceda10000008085600001518161577957fe5b04028460000151038152509050919050565b600064e8d4a51000905090565b60008083118290615844576040517f08c379a00000000000000000000000000000000000000000000000000000000081526004018080602001828103825283818151815260200191508051906020019080838360005b838110156158095780820151818401526020810190506157ee565b50505050905090810190601f1680156158365780820380516001836020036101000a031916815260200191505b509250505060405180910390fd5b50600083858161585057fe5b049050809150509392505050565b600083831115829061590b576040517f08c379a00000000000000000000000000000000000000000000000000000000081526004018080602001828103825283818151815260200191508051906020019080838360005b838110156158d05780820151818401526020810190506158b5565b50505050905090810190601f1680156158fd5780820380516001836020036101000a031916815260200191505b509250505060405180910390fd5b5060008385039050809150509392505050565b604051806020016040528060008152509056fe56616c7565206d75737420626520646966666572656e742066726f6d206578697374696e6720636f6d6d756e69747920726577617264206672616374696f6e20616e64206c657373207468616e20315461726765742076616c696461746f722065706f6368207061796d656e7420756e6368616e6765646572726f722063616c6c696e67206e756d62657256616c696461746f7273496e53657420707265636f6d70696c654261642072657761726473206d756c7469706c69657220706172616d657465727354617267657420766f74696e6720676f6c64206672616374696f6e20756e6368616e6765644f776e61626c653a206e6577206f776e657220697320746865207a65726f206164647265737354617267657420766f74696e6720676f6c64206672616374696f6e2063616e6e6f74206265206c6172676572207468616e2031426c6f636b207265776172642063616c63756c6174696f6e20666f722079656172732031352d333020756e696d706c656d656e7465646572726f722063616c6c696e672067657456657269666965645365616c4269746d617046726f6d48656164657220707265636f6d70696c6563616e27742063616c6c207768656e20636f6e74726163742069732066726f7a656e63616e277420637265617465206669786964697479206e756d626572206c6172676572207468616e206d61784e6577466978656428294261642074617267657420766f74696e67207969656c6420706172616d65746572736572726f722063616c6c696e672076616c696461746f725369676e65724164647265737346726f6d43757272656e7453657420707265636f6d70696c6554617267657420766f74696e67207969656c64206d757374206265206c657373207468616e206f7220657175616c20746f206d61786572726f722063616c6c696e672076616c696461746f725369676e65724164647265737346726f6d53657420707265636f6d70696c65536166654d6174683a206d756c7469706c69636174696f6e206f766572666c6f776572726f722063616c6c696e67206672616374696f6e4d756c45787020707265636f6d70696c656572726f722063616c6c696e672067657445706f636853697a6520707265636f6d70696c656572726f722063616c6c696e6720676574506172656e745365616c4269746d617020707265636f6d70696c656572726f722063616c6c696e6720676574426c6f636b4e756d62657246726f6d48656164657220707265636f6d70696c654d61782074617267657420766f74696e67207969656c64206d757374206265206c6f776572207468616e2031303025506172746e657220616e642076616c7565206d75737420626520646966666572656e742066726f6d206578697374696e6720636172626f6e206f666673657474696e672066756e646572726f722063616c6c696e67206861736848656164657220707265636f6d70696c65a265627a7a7231582052f37114c893208937457f95787c4ed64379d7944faadb9e746148af4c1c493c64736f6c634300050d0032",
  "source": "pragma solidity ^0.5.13;\n\nimport \"../EpochRewards.sol\";\n\n/**\n * @title A wrapper around EpochRewards that exposes internal functions for testing.\n */\ncontract EpochRewardsTest is EpochRewards(true) {\n  uint256 private numValidatorsInCurrentSet;\n  function getRewardsMultiplier(uint256 targetGoldTotalSupplyIncrease)\n    external\n    view\n    returns (uint256)\n  {\n    return _getRewardsMultiplier(targetGoldTotalSupplyIncrease).unwrap();\n  }\n\n  // mocks the precompile\n  function numberValidatorsInCurrentSet() public view returns (uint256) {\n    return numValidatorsInCurrentSet;\n  }\n\n  function setNumberValidatorsInCurrentSet(uint256 value) external {\n    numValidatorsInCurrentSet = value;\n  }\n}\n",
  "sourcePath": "/Users/beaver/Development/celo/celo-monorepo/packages/protocol/contracts/governance/test/EpochRewardsTest.sol",
  "compiler": {
    "name": "solc",
    "version": "0.5.13+commit.5b0b510c.Emscripten.clang"
  },
  "schemaVersion": "3.4.13",
  "updatedAt": "2024-03-05T15:18:24.381Z",
  "devdoc": {
    "methods": {
      "calculateTargetEpochRewards()": {
        "return": "The per validator epoch reward.The total rewards to voters.The total community reward.The total carbon offsetting partner reward."
      },
      "checkProofOfPossession(address,bytes,bytes)": {
        "params": {
          "blsKey": "The BLS public key that the validator is using for consensus, should pass proof  of possession. 48 bytes.",
          "blsPop": "The BLS public key proof-of-possession, which consists of a signature on the  account address. 96 bytes.",
          "sender": "The address signed by the BLS key to generate the proof of possession."
        },
        "return": "True upon success."
      },
      "fractionMulExp(uint256,uint256,uint256,uint256,uint256,uint256)": {
        "params": {
          "_decimals": "precision",
          "aDenominator": "Denominator of first fraction",
          "aNumerator": "Numerator of first fraction",
          "bDenominator": "Denominator of exponentiated fraction",
          "bNumerator": "Numerator of exponentiated fraction",
          "exponent": "exponent to raise b to"
        },
        "return": "Numerator of the computed quantity (not reduced).Denominator of the computed quantity (not reduced)."
      },
      "getBlockNumberFromHeader(bytes)": {
        "params": {
          "header": "RLP encoded header"
        },
        "return": "Block number."
      },
      "getCarbonOffsettingFraction()": {
        "return": "The percentage of total reward which goes to the carbon offsetting partner."
      },
      "getCommunityRewardFraction()": {
        "return": "The percentage of total reward which goes to the community funds."
      },
      "getEpochNumber()": {
        "return": "Current epoch number."
      },
      "getEpochNumberOfBlock(uint256)": {
        "params": {
          "blockNumber": "Block number where epoch number is calculated."
        },
        "return": "Epoch number."
      },
      "getEpochSize()": {
        "return": "The current epoch size in blocks."
      },
      "getParentSealBitmap(uint256)": {
        "params": {
          "blockNumber": "Block number to retrieve. Must be within 4 epochs of the current number."
        },
        "return": "Bitmap parent seal with set bits at indices corresponding to signing validators."
      },
      "getRewardsMultiplier()": {
        "return": "The rewards multiplier based on the current and target Gold supplies."
      },
      "getRewardsMultiplierParameters()": {
        "return": "The max multiplier.The underspend adjustment factors.The overspend adjustment factors."
      },
      "getTargetGoldTotalSupply()": {
        "return": "The target Gold supply according to the epoch rewards target schedule."
      },
      "getTargetTotalEpochPaymentsInGold()": {
        "return": "The total target epoch payments to validators, converted to Gold."
      },
      "getTargetVoterRewards()": {
        "return": "the total target epoch rewards for voters."
      },
      "getTargetVotingGoldFraction()": {
        "return": "The percentage of floating Gold voting to target."
      },
      "getTargetVotingYieldParameters()": {
        "return": "The target factor for target voting yield.The max factor for target voting yield.The adjustment factor for target voting yield."
      },
      "getVerifiedSealBitmapFromHeader(bytes)": {
        "params": {
          "header": "RLP encoded header"
        },
        "return": "Bitmap parent seal with set bits at indices correspoinding to signing validators."
      },
      "getVersionNumber()": {
        "return": "Storage version of the contract.Major version of the contract.Minor version of the contract.Patch version of the contract."
      },
      "getVotingGoldFraction()": {
        "return": "The fraction of floating Gold being used for voting in validator elections."
      },
      "hashHeader(bytes)": {
        "params": {
          "header": "RLP encoded header"
        },
        "return": "Header hash."
      },
      "initialize(address,uint256,uint256,uint256,uint256,uint256,uint256,uint256,uint256,uint256,address,uint256)": {
        "details": "Should be called only once.",
        "params": {
          "_carbonOffsettingFraction": "The percentage of rewards going to carbon offsetting partner.",
          "_carbonOffsettingPartner": "The address of the carbon offsetting partner.",
          "_communityRewardFraction": "The percentage of rewards that go the community funds.",
          "_targetValidatorEpochPayment": "The target validator epoch payment.",
          "_targetVotingGoldFraction": "The percentage of floating Gold voting to target.",
          "registryAddress": "The address of the registry contract.",
          "rewardsMultiplierMax": "The max multiplier on target epoch rewards.",
          "rewardsMultiplierOverspendAdjustmentFactor": "Adjusts the multiplier on target epoch  rewards when the protocol is running ahead of the target Gold supply.",
          "rewardsMultiplierUnderspendAdjustmentFactor": "Adjusts the multiplier on target epoch  rewards when the protocol is running behind the target Gold supply.",
          "targetVotingYieldAdjustmentFactor": "The target block reward adjustment factor for voters.",
          "targetVotingYieldInitial": "The initial relative target block reward for voters.",
          "targetVotingYieldMax": "The max relative target block reward for voters."
        }
      },
      "isOwner()": {
        "details": "Returns true if the caller is the current owner."
      },
      "minQuorumSize(uint256)": {
        "details": "Computed in celo-blockchain as int(math.Ceil(float64(2*valSet.Size()) / 3))"
      },
      "minQuorumSizeInCurrentSet()": {
        "return": "Byzantine quorum of validators."
      },
      "numberValidatorsInSet(uint256)": {
        "params": {
          "blockNumber": "Block number to retrieve the validator set from."
        },
        "return": "Size of the validator set."
      },
      "owner()": {
        "details": "Returns the address of the current owner."
      },
      "renounceOwnership()": {
        "details": "Leaves the contract without owner. It will not be possible to call `onlyOwner` functions anymore. Can only be called by the current owner.     * NOTE: Renouncing ownership will leave the contract without an owner, thereby removing any functionality that is only available to the owner."
      },
      "setCarbonOffsettingFund(address,uint256)": {
        "params": {
          "partner": "The address of the carbon offsetting partner.",
          "value": "The percentage of the total reward to be sent to the carbon offsetting partner."
        },
        "return": "True upon success."
      },
      "setCommunityRewardFraction(uint256)": {
        "params": {
          "value": "The percentage of the total reward to be sent to the community funds."
        },
        "return": "True upon success."
      },
      "setRegistry(address)": {
        "params": {
          "registryAddress": "The address of a registry contract for routing to other contracts."
        }
      },
      "setRewardsMultiplierParameters(uint256,uint256,uint256)": {
        "params": {
          "max": "The max multiplier on target epoch rewards.",
          "overspendAdjustmentFactor": "Adjusts the multiplier on target epoch rewards when the  protocol is running ahead of the target Gold supply.",
          "underspendAdjustmentFactor": "Adjusts the multiplier on target epoch rewards when the  protocol is running behind the target Gold supply."
        },
        "return": "True upon success."
      },
      "setTargetValidatorEpochPayment(uint256)": {
        "params": {
          "value": "The value in Celo Dollars."
        },
        "return": "True upon success."
      },
      "setTargetVotingGoldFraction(uint256)": {
        "params": {
          "value": "The percentage of floating Gold voting to target."
        },
        "return": "True upon success."
      },
      "setTargetVotingYield(uint256)": {
        "params": {
          "targetVotingYield": "The relative target block reward for voters."
        },
        "return": "True upon success."
      },
      "setTargetVotingYieldParameters(uint256,uint256)": {
        "params": {
          "adjustmentFactor": "The target block reward adjustment factor for voters.",
          "max": "The max relative target block reward for voters."
        },
        "return": "True upon success."
      },
      "transferOwnership(address)": {
        "details": "Transfers ownership of the contract to a new account (`newOwner`). Can only be called by the current owner."
      },
      "updateTargetVotingYield()": {
        "details": "Only called directly by the protocol."
      },
      "validatorSignerAddressFromCurrentSet(uint256)": {
        "params": {
          "index": "Index of requested validator in the validator set."
        },
        "return": "Address of validator at the requested index."
      },
      "validatorSignerAddressFromSet(uint256,uint256)": {
        "params": {
          "blockNumber": "Block number to retrieve the validator set from.",
          "index": "Index of requested validator in the validator set."
        },
        "return": "Address of validator at the requested index."
      }
    },
    "title": "A wrapper around EpochRewards that exposes internal functions for testing."
  },
  "userdoc": {
    "methods": {
      "calculateTargetEpochRewards()": {
        "notice": "Calculates the per validator epoch payment and the total rewards to voters."
      },
      "checkProofOfPossession(address,bytes,bytes)": {
        "notice": "Checks a BLS proof of possession."
      },
      "fractionMulExp(uint256,uint256,uint256,uint256,uint256,uint256)": {
        "notice": "calculate a * b^x for fractions a, b to `decimals` precision"
      },
      "getBlockNumberFromHeader(bytes)": {
        "notice": "Parses block number out of header."
      },
      "getCarbonOffsettingFraction()": {
        "notice": "Returns the carbon offsetting partner reward fraction."
      },
      "getCommunityRewardFraction()": {
        "notice": "Returns the community reward fraction."
      },
      "getEpochNumber()": {
        "notice": "Returns the epoch number at a block."
      },
      "getEpochNumberOfBlock(uint256)": {
        "notice": "Returns the epoch number at a block."
      },
      "getEpochSize()": {
        "notice": "Returns the current epoch size in blocks."
      },
      "getParentSealBitmap(uint256)": {
        "notice": "Gets the parent seal bitmap from the header at the given block number."
      },
      "getRewardsMultiplier()": {
        "notice": "Returns the rewards multiplier based on the current and target Gold supplies."
      },
      "getRewardsMultiplierParameters()": {
        "notice": "Returns the rewards multiplier parameters."
      },
      "getTargetGoldTotalSupply()": {
        "notice": "Returns the target Gold supply according to the epoch rewards target schedule."
      },
      "getTargetTotalEpochPaymentsInGold()": {
        "notice": "Returns the total target epoch payments to validators, converted to Gold."
      },
      "getTargetVoterRewards()": {
        "notice": "Returns the total target epoch rewards for voters."
      },
      "getTargetVotingGoldFraction()": {
        "notice": "Returns the target voting Gold fraction."
      },
      "getTargetVotingYieldParameters()": {
        "notice": "Returns the target voting yield parameters."
      },
      "getVerifiedSealBitmapFromHeader(bytes)": {
        "notice": "Verifies the BLS signature on the header and returns the seal bitmap. The validator set used for verification is retrieved based on the parent hash field of the header.  If the parent hash is not in the blockchain, verification fails."
      },
      "getVersionNumber()": {
        "notice": "Returns the storage, major, minor, and patch version of the contract."
      },
      "getVotingGoldFraction()": {
        "notice": "Returns the fraction of floating Gold being used for voting in validator elections."
      },
      "hashHeader(bytes)": {
        "notice": "Computes hash of header."
      },
      "initialize(address,uint256,uint256,uint256,uint256,uint256,uint256,uint256,uint256,uint256,address,uint256)": {
        "notice": "Used in place of the constructor to allow the contract to be upgradable via proxy."
      },
      "isReserveLow()": {
        "notice": "Determines if the reserve is low enough to demand a diversion from   the community reward. Targets initial critical ratio of 2 with a linear   decline until 25 years have passed where the critical ratio will be 1."
      },
      "minQuorumSize(uint256)": {
        "notice": "Returns the minimum number of required signers for a given block number."
      },
      "minQuorumSizeInCurrentSet()": {
        "notice": "Computes byzantine quorum from current validator set size"
      },
      "numberValidatorsInSet(uint256)": {
        "notice": "Gets the size of the validator set that must sign the given block number."
      },
      "setCarbonOffsettingFund(address,uint256)": {
        "notice": "Sets the carbon offsetting fund."
      },
      "setCommunityRewardFraction(uint256)": {
        "notice": "Sets the community reward percentage"
      },
      "setRegistry(address)": {
        "notice": "Updates the address pointing to a Registry contract."
      },
      "setRewardsMultiplierParameters(uint256,uint256,uint256)": {
        "notice": "Sets the rewards multiplier parameters."
      },
      "setTargetValidatorEpochPayment(uint256)": {
        "notice": "Sets the target per-epoch payment in Celo Dollars for validators."
      },
      "setTargetVotingGoldFraction(uint256)": {
        "notice": "Sets the target voting Gold fraction."
      },
      "setTargetVotingYield(uint256)": {
        "notice": "Sets the target voting yield.  Uses fixed point arithmetic for protection against overflow."
      },
      "setTargetVotingYieldParameters(uint256,uint256)": {
        "notice": "Sets the target voting yield parameters."
      },
      "updateTargetVotingYield()": {
        "notice": "Updates the target voting yield based on the difference between the target and current  voting Gold fraction."
      },
      "validatorSignerAddressFromCurrentSet(uint256)": {
        "notice": "Gets a validator address from the current validator set."
      },
      "validatorSignerAddressFromSet(uint256,uint256)": {
        "notice": "Gets a validator address from the validator set at the given block number."
      }
    }
  }
}