{
  "contractName": "Escrow",
  "abi": [
    {
      "inputs": [
        {
          "internalType": "bool",
          "name": "test",
          "type": "bool"
        }
      ],
      "payable": false,
      "stateMutability": "nonpayable",
      "type": "constructor"
    },
    {
      "anonymous": false,
      "inputs": [
        {
          "indexed": true,
          "internalType": "address",
          "name": "trustedIssuer",
          "type": "address"
        }
      ],
      "name": "DefaultTrustedIssuerAdded",
      "type": "event"
    },
    {
      "anonymous": false,
      "inputs": [
        {
          "indexed": true,
          "internalType": "address",
          "name": "trustedIssuer",
          "type": "address"
        }
      ],
      "name": "DefaultTrustedIssuerRemoved",
      "type": "event"
    },
    {
      "anonymous": false,
      "inputs": [
        {
          "indexed": true,
          "internalType": "address",
          "name": "previousOwner",
          "type": "address"
        },
        {
          "indexed": true,
          "internalType": "address",
          "name": "newOwner",
          "type": "address"
        }
      ],
      "name": "OwnershipTransferred",
      "type": "event"
    },
    {
      "anonymous": false,
      "inputs": [
        {
          "indexed": true,
          "internalType": "bytes32",
          "name": "identifier",
          "type": "bytes32"
        },
        {
          "indexed": true,
          "internalType": "address",
          "name": "by",
          "type": "address"
        },
        {
          "indexed": true,
          "internalType": "address",
          "name": "token",
          "type": "address"
        },
        {
          "indexed": false,
          "internalType": "uint256",
          "name": "value",
          "type": "uint256"
        },
        {
          "indexed": false,
          "internalType": "address",
          "name": "paymentId",
          "type": "address"
        }
      ],
      "name": "Revocation",
      "type": "event"
    },
    {
      "anonymous": false,
      "inputs": [
        {
          "indexed": true,
          "internalType": "address",
          "name": "from",
          "type": "address"
        },
        {
          "indexed": true,
          "internalType": "bytes32",
          "name": "identifier",
          "type": "bytes32"
        },
        {
          "indexed": true,
          "internalType": "address",
          "name": "token",
          "type": "address"
        },
        {
          "indexed": false,
          "internalType": "uint256",
          "name": "value",
          "type": "uint256"
        },
        {
          "indexed": false,
          "internalType": "address",
          "name": "paymentId",
          "type": "address"
        },
        {
          "indexed": false,
          "internalType": "uint256",
          "name": "minAttestations",
          "type": "uint256"
        }
      ],
      "name": "Transfer",
      "type": "event"
    },
    {
      "anonymous": false,
      "inputs": [
        {
          "indexed": true,
          "internalType": "address",
          "name": "paymentId",
          "type": "address"
        },
        {
          "indexed": false,
          "internalType": "address[]",
          "name": "trustedIssuers",
          "type": "address[]"
        }
      ],
      "name": "TrustedIssuersSet",
      "type": "event"
    },
    {
      "anonymous": false,
      "inputs": [
        {
          "indexed": true,
          "internalType": "address",
          "name": "paymentId",
          "type": "address"
        }
      ],
      "name": "TrustedIssuersUnset",
      "type": "event"
    },
    {
      "anonymous": false,
      "inputs": [
        {
          "indexed": true,
          "internalType": "bytes32",
          "name": "identifier",
          "type": "bytes32"
        },
        {
          "indexed": true,
          "internalType": "address",
          "name": "to",
          "type": "address"
        },
        {
          "indexed": true,
          "internalType": "address",
          "name": "token",
          "type": "address"
        },
        {
          "indexed": false,
          "internalType": "uint256",
          "name": "value",
          "type": "uint256"
        },
        {
          "indexed": false,
          "internalType": "address",
          "name": "paymentId",
          "type": "address"
        }
      ],
      "name": "Withdrawal",
      "type": "event"
    },
    {
      "constant": true,
      "inputs": [],
      "name": "MAX_TRUSTED_ISSUERS_PER_PAYMENT",
      "outputs": [
        {
          "internalType": "uint256",
          "name": "",
          "type": "uint256"
        }
      ],
      "payable": false,
      "stateMutability": "view",
      "type": "function"
    },
    {
      "constant": true,
      "inputs": [
        {
          "internalType": "uint256",
          "name": "",
          "type": "uint256"
        }
      ],
      "name": "defaultTrustedIssuers",
      "outputs": [
        {
          "internalType": "address",
          "name": "",
          "type": "address"
        }
      ],
      "payable": false,
      "stateMutability": "view",
      "type": "function"
    },
    {
      "constant": true,
      "inputs": [
        {
          "internalType": "address",
          "name": "",
          "type": "address"
        }
      ],
      "name": "escrowedPayments",
      "outputs": [
        {
          "internalType": "bytes32",
          "name": "recipientIdentifier",
          "type": "bytes32"
        },
        {
          "internalType": "address",
          "name": "sender",
          "type": "address"
        },
        {
          "internalType": "address",
          "name": "token",
          "type": "address"
        },
        {
          "internalType": "uint256",
          "name": "value",
          "type": "uint256"
        },
        {
          "internalType": "uint256",
          "name": "sentIndex",
          "type": "uint256"
        },
        {
          "internalType": "uint256",
          "name": "receivedIndex",
          "type": "uint256"
        },
        {
          "internalType": "uint256",
          "name": "timestamp",
          "type": "uint256"
        },
        {
          "internalType": "uint256",
          "name": "expirySeconds",
          "type": "uint256"
        },
        {
          "internalType": "uint256",
          "name": "minAttestations",
          "type": "uint256"
        }
      ],
      "payable": false,
      "stateMutability": "view",
      "type": "function"
    },
    {
      "constant": true,
      "inputs": [],
      "name": "initialized",
      "outputs": [
        {
          "internalType": "bool",
          "name": "",
          "type": "bool"
        }
      ],
      "payable": false,
      "stateMutability": "view",
      "type": "function"
    },
    {
      "constant": true,
      "inputs": [],
      "name": "isOwner",
      "outputs": [
        {
          "internalType": "bool",
          "name": "",
          "type": "bool"
        }
      ],
      "payable": false,
      "stateMutability": "view",
      "type": "function"
    },
    {
      "constant": true,
      "inputs": [],
      "name": "owner",
      "outputs": [
        {
          "internalType": "address",
          "name": "",
          "type": "address"
        }
      ],
      "payable": false,
      "stateMutability": "view",
      "type": "function"
    },
    {
      "constant": true,
      "inputs": [
        {
          "internalType": "bytes32",
          "name": "",
          "type": "bytes32"
        },
        {
          "internalType": "uint256",
          "name": "",
          "type": "uint256"
        }
      ],
      "name": "receivedPaymentIds",
      "outputs": [
        {
          "internalType": "address",
          "name": "",
          "type": "address"
        }
      ],
      "payable": false,
      "stateMutability": "view",
      "type": "function"
    },
    {
      "constant": true,
      "inputs": [],
      "name": "registry",
      "outputs": [
        {
          "internalType": "contract IRegistry",
          "name": "",
          "type": "address"
        }
      ],
      "payable": false,
      "stateMutability": "view",
      "type": "function"
    },
    {
      "constant": true,
      "inputs": [],
      "name": "registryContract",
      "outputs": [
        {
          "internalType": "contract IRegistry",
          "name": "",
          "type": "address"
        }
      ],
      "payable": false,
      "stateMutability": "view",
      "type": "function"
    },
    {
      "constant": false,
      "inputs": [],
      "name": "renounceOwnership",
      "outputs": [],
      "payable": false,
      "stateMutability": "nonpayable",
      "type": "function"
    },
    {
      "constant": true,
      "inputs": [
        {
          "internalType": "address",
          "name": "",
          "type": "address"
        },
        {
          "internalType": "uint256",
          "name": "",
          "type": "uint256"
        }
      ],
      "name": "sentPaymentIds",
      "outputs": [
        {
          "internalType": "address",
          "name": "",
          "type": "address"
        }
      ],
      "payable": false,
      "stateMutability": "view",
      "type": "function"
    },
    {
      "constant": false,
      "inputs": [
        {
          "internalType": "address",
          "name": "newOwner",
          "type": "address"
        }
      ],
      "name": "transferOwnership",
      "outputs": [],
      "payable": false,
      "stateMutability": "nonpayable",
      "type": "function"
    },
    {
      "constant": true,
      "inputs": [
        {
          "internalType": "address",
          "name": "",
          "type": "address"
        },
        {
          "internalType": "uint256",
          "name": "",
          "type": "uint256"
        }
      ],
      "name": "trustedIssuersPerPayment",
      "outputs": [
        {
          "internalType": "address",
          "name": "",
          "type": "address"
        }
      ],
      "payable": false,
      "stateMutability": "view",
      "type": "function"
    },
    {
      "constant": true,
      "inputs": [],
      "name": "getVersionNumber",
      "outputs": [
        {
          "internalType": "uint256",
          "name": "",
          "type": "uint256"
        },
        {
          "internalType": "uint256",
          "name": "",
          "type": "uint256"
        },
        {
          "internalType": "uint256",
          "name": "",
          "type": "uint256"
        },
        {
          "internalType": "uint256",
          "name": "",
          "type": "uint256"
        }
      ],
      "payable": false,
      "stateMutability": "pure",
      "type": "function"
    },
    {
      "constant": false,
      "inputs": [],
      "name": "initialize",
      "outputs": [],
      "payable": false,
      "stateMutability": "nonpayable",
      "type": "function"
    },
    {
      "constant": false,
      "inputs": [
        {
          "internalType": "address",
          "name": "trustedIssuer",
          "type": "address"
        }
      ],
      "name": "addDefaultTrustedIssuer",
      "outputs": [],
      "payable": false,
      "stateMutability": "nonpayable",
      "type": "function"
    },
    {
      "constant": false,
      "inputs": [
        {
          "internalType": "address",
          "name": "trustedIssuer",
          "type": "address"
        },
        {
          "internalType": "uint256",
          "name": "index",
          "type": "uint256"
        }
      ],
      "name": "removeDefaultTrustedIssuer",
      "outputs": [],
      "payable": false,
      "stateMutability": "nonpayable",
      "type": "function"
    },
    {
      "constant": false,
      "inputs": [
        {
          "internalType": "bytes32",
          "name": "identifier",
          "type": "bytes32"
        },
        {
          "internalType": "address",
          "name": "token",
          "type": "address"
        },
        {
          "internalType": "uint256",
          "name": "value",
          "type": "uint256"
        },
        {
          "internalType": "uint256",
          "name": "expirySeconds",
          "type": "uint256"
        },
        {
          "internalType": "address",
          "name": "paymentId",
          "type": "address"
        },
        {
          "internalType": "uint256",
          "name": "minAttestations",
          "type": "uint256"
        }
      ],
      "name": "transfer",
      "outputs": [
        {
          "internalType": "bool",
          "name": "",
          "type": "bool"
        }
      ],
      "payable": false,
      "stateMutability": "nonpayable",
      "type": "function"
    },
    {
      "constant": false,
      "inputs": [
        {
          "internalType": "bytes32",
          "name": "identifier",
          "type": "bytes32"
        },
        {
          "internalType": "address",
          "name": "token",
          "type": "address"
        },
        {
          "internalType": "uint256",
          "name": "value",
          "type": "uint256"
        },
        {
          "internalType": "uint256",
          "name": "expirySeconds",
          "type": "uint256"
        },
        {
          "internalType": "address",
          "name": "paymentId",
          "type": "address"
        },
        {
          "internalType": "uint256",
          "name": "minAttestations",
          "type": "uint256"
        },
        {
          "internalType": "address[]",
          "name": "trustedIssuers",
          "type": "address[]"
        }
      ],
      "name": "transferWithTrustedIssuers",
      "outputs": [
        {
          "internalType": "bool",
          "name": "",
          "type": "bool"
        }
      ],
      "payable": false,
      "stateMutability": "nonpayable",
      "type": "function"
    },
    {
      "constant": false,
      "inputs": [
        {
          "internalType": "address",
          "name": "paymentId",
          "type": "address"
        },
        {
          "internalType": "uint8",
          "name": "v",
          "type": "uint8"
        },
        {
          "internalType": "bytes32",
          "name": "r",
          "type": "bytes32"
        },
        {
          "internalType": "bytes32",
          "name": "s",
          "type": "bytes32"
        }
      ],
      "name": "withdraw",
      "outputs": [
        {
          "internalType": "bool",
          "name": "",
          "type": "bool"
        }
      ],
      "payable": false,
      "stateMutability": "nonpayable",
      "type": "function"
    },
    {
      "constant": false,
      "inputs": [
        {
          "internalType": "address",
          "name": "paymentId",
          "type": "address"
        }
      ],
      "name": "revoke",
      "outputs": [
        {
          "internalType": "bool",
          "name": "",
          "type": "bool"
        }
      ],
      "payable": false,
      "stateMutability": "nonpayable",
      "type": "function"
    },
    {
      "constant": true,
      "inputs": [
        {
          "internalType": "bytes32",
          "name": "identifier",
          "type": "bytes32"
        }
      ],
      "name": "getReceivedPaymentIds",
      "outputs": [
        {
          "internalType": "address[]",
          "name": "",
          "type": "address[]"
        }
      ],
      "payable": false,
      "stateMutability": "view",
      "type": "function"
    },
    {
      "constant": true,
      "inputs": [
        {
          "internalType": "address",
          "name": "sender",
          "type": "address"
        }
      ],
      "name": "getSentPaymentIds",
      "outputs": [
        {
          "internalType": "address[]",
          "name": "",
          "type": "address[]"
        }
      ],
      "payable": false,
      "stateMutability": "view",
      "type": "function"
    },
    {
      "constant": true,
      "inputs": [
        {
          "internalType": "address",
          "name": "paymentId",
          "type": "address"
        }
      ],
      "name": "getTrustedIssuersPerPayment",
      "outputs": [
        {
          "internalType": "address[]",
          "name": "",
          "type": "address[]"
        }
      ],
      "payable": false,
      "stateMutability": "view",
      "type": "function"
    },
    {
      "constant": true,
      "inputs": [],
      "name": "getDefaultTrustedIssuers",
      "outputs": [
        {
          "internalType": "address[]",
          "name": "",
          "type": "address[]"
        }
      ],
      "payable": false,
      "stateMutability": "view",
      "type": "function"
    }
  ],
  "bytecode": "0x60806040523480156200001157600080fd5b506040516200471738038062004717833981810160405260208110156200003757600080fd5b81019080805190602001909291905050508060016000819055506000620000636200012b60201b60201c565b905080600160006101000a81548173ffffffffffffffffffffffffffffffffffffffff021916908373ffffffffffffffffffffffffffffffffffffffff1602179055508073ffffffffffffffffffffffffffffffffffffffff16600073ffffffffffffffffffffffffffffffffffffffff167f8be0079c531659141344cd1fd0a4f28419497f9722a3daafe3b4186f6b6457e060405160405180910390a35080620001235760018060146101000a81548160ff0219169083151502179055505b505062000133565b600033905090565b6145d480620001436000396000f3fe608060405234801561001057600080fd5b50600436106101735760003560e01c8063696e3fb1116100de5780638129fc1c116100975780638f80c33e116100715780638f80c33e146109b1578063e1d9a08014610a29578063f2fde38b14610ab7578063f782878914610afb57610173565b80638129fc1c1461093b5780638da5cb5b146109455780638f32d59b1461098f57610173565b8063696e3fb114610735578063702cb75d14610779578063715018a61461081d57806371f7f6d41461082757806374a8f103146108955780637b103999146108f157610173565b806354255be01161013057806354255be0146104525780635b57b65b146104855780635cb516e9146105085780635fb2076f1461059657806360a2a152146105b4578063680d782c1461064d57610173565b8063158ef93e1461017857806318d465321461019a5780631ea153dd1461023357806328c1f99b1461032c5780632c21c7f6146103765780633e68d5d7146103d5575b600080fd5b610180610b49565b604051808215151515815260200191505060405180910390f35b6101dc600480360360208110156101b057600080fd5b81019080803573ffffffffffffffffffffffffffffffffffffffff169060200190929190505050610b5c565b6040518080602001828103825283818151815260200191508051906020019060200280838360005b8381101561021f578082015181840152602081019050610204565b505050509050019250505060405180910390f35b610312600480360360e081101561024957600080fd5b8101908080359060200190929190803573ffffffffffffffffffffffffffffffffffffffff1690602001909291908035906020019092919080359060200190929190803573ffffffffffffffffffffffffffffffffffffffff16906020019092919080359060200190929190803590602001906401000000008111156102ce57600080fd5b8201836020820111156102e057600080fd5b8035906020019184602083028401116401000000008311171561030257600080fd5b9091929391929390505050610c29565b604051808215151515815260200191505060405180910390f35b610334610d17565b604051808273ffffffffffffffffffffffffffffffffffffffff1673ffffffffffffffffffffffffffffffffffffffff16815260200191505060405180910390f35b61037e610d1d565b6040518080602001828103825283818151815260200191508051906020019060200280838360005b838110156103c15780820151818401526020810190506103a6565b505050509050019250505060405180910390f35b610438600480360360808110156103eb57600080fd5b81019080803573ffffffffffffffffffffffffffffffffffffffff169060200190929190803560ff1690602001909291908035906020019092919080359060200190929190505050610dab565b604051808215151515815260200191505060405180910390f35b61045a6114e7565b6040518085815260200184815260200183815260200182815260200194505050505060405180910390f35b6104b16004803603602081101561049b57600080fd5b810190808035906020019092919050505061150e565b6040518080602001828103825283818151815260200191508051906020019060200280838360005b838110156104f45780820151818401526020810190506104d9565b505050509050019250505060405180910390f35b6105546004803603604081101561051e57600080fd5b81019080803573ffffffffffffffffffffffffffffffffffffffff169060200190929190803590602001909291905050506115af565b604051808273ffffffffffffffffffffffffffffffffffffffff1673ffffffffffffffffffffffffffffffffffffffff16815260200191505060405180910390f35b61059e6115fa565b6040518082815260200191505060405180910390f35b6105f6600480360360208110156105ca57600080fd5b81019080803573ffffffffffffffffffffffffffffffffffffffff1690602001909291905050506115ff565b6040518080602001828103825283818151815260200191508051906020019060200280838360005b8381101561063957808201518184015260208101905061061e565b505050509050019250505060405180910390f35b61068f6004803603602081101561066357600080fd5b81019080803573ffffffffffffffffffffffffffffffffffffffff1690602001909291905050506116cc565b604051808a81526020018973ffffffffffffffffffffffffffffffffffffffff1673ffffffffffffffffffffffffffffffffffffffff1681526020018873ffffffffffffffffffffffffffffffffffffffff1673ffffffffffffffffffffffffffffffffffffffff168152602001878152602001868152602001858152602001848152602001838152602001828152602001995050505050505050505060405180910390f35b6107776004803603602081101561074b57600080fd5b81019080803573ffffffffffffffffffffffffffffffffffffffff16906020019092919050505061175a565b005b610803600480360360c081101561078f57600080fd5b8101908080359060200190929190803573ffffffffffffffffffffffffffffffffffffffff1690602001909291908035906020019092919080359060200190929190803573ffffffffffffffffffffffffffffffffffffffff16906020019092919080359060200190929190505050611a80565b604051808215151515815260200191505060405180910390f35b610825611bc1565b005b6108536004803603602081101561083d57600080fd5b8101908080359060200190929190505050611cfc565b604051808273ffffffffffffffffffffffffffffffffffffffff1673ffffffffffffffffffffffffffffffffffffffff16815260200191505060405180910390f35b6108d7600480360360208110156108ab57600080fd5b81019080803573ffffffffffffffffffffffffffffffffffffffff169060200190929190505050611d38565b604051808215151515815260200191505060405180910390f35b6108f96120fa565b604051808273ffffffffffffffffffffffffffffffffffffffff1673ffffffffffffffffffffffffffffffffffffffff16815260200191505060405180910390f35b610943612120565b005b61094d6121c8565b604051808273ffffffffffffffffffffffffffffffffffffffff1673ffffffffffffffffffffffffffffffffffffffff16815260200191505060405180910390f35b6109976121f2565b604051808215151515815260200191505060405180910390f35b6109e7600480360360408110156109c757600080fd5b810190808035906020019092919080359060200190929190505050612251565b604051808273ffffffffffffffffffffffffffffffffffffffff1673ffffffffffffffffffffffffffffffffffffffff16815260200191505060405180910390f35b610a7560048036036040811015610a3f57600080fd5b81019080803573ffffffffffffffffffffffffffffffffffffffff1690602001909291908035906020019092919050505061229c565b604051808273ffffffffffffffffffffffffffffffffffffffff1673ffffffffffffffffffffffffffffffffffffffff16815260200191505060405180910390f35b610af960048036036020811015610acd57600080fd5b81019080803573ffffffffffffffffffffffffffffffffffffffff1690602001909291905050506122e7565b005b610b4760048036036040811015610b1157600080fd5b81019080803573ffffffffffffffffffffffffffffffffffffffff1690602001909291908035906020019092919050505061236d565b005b600160149054906101000a900460ff1681565b6060600560008373ffffffffffffffffffffffffffffffffffffffff1673ffffffffffffffffffffffffffffffffffffffff168152602001908152602001600020805480602002602001604051908101604052809291908181526020018280548015610c1d57602002820191906000526020600020905b8160009054906101000a900473ffffffffffffffffffffffffffffffffffffffff1673ffffffffffffffffffffffffffffffffffffffff1681526020019060010190808311610bd3575b50505050509050919050565b600060016000808282540192505081905550600080549050610c918a8a8a8a8a8a8a8a80806020026020016040519081016040528093929190818152602001838360200280828437600081840152601f19601f82011690508083019250505050505050612644565b91506000548114610d0a576040517f08c379a000000000000000000000000000000000000000000000000000000000815260040180806020018281038252600e8152602001807f7265656e7472616e742063616c6c00000000000000000000000000000000000081525060200191505060405180910390fd5b5098975050505050505050565b61ce1081565b60606007805480602002602001604051908101604052809291908181526020018280548015610da157602002820191906000526020600020905b8160009054906101000a900473ffffffffffffffffffffffffffffffffffffffff1673ffffffffffffffffffffffffffffffffffffffff1681526020019060010190808311610d57575b5050505050905090565b600060016000808282540192505081905550600080549050600073__Signatures____________________________6396ef41a1338888886040518563ffffffff1660e01b8152600401808573ffffffffffffffffffffffffffffffffffffffff1673ffffffffffffffffffffffffffffffffffffffff1681526020018460ff1660ff16815260200183815260200182815260200194505050505060206040518083038186803b158015610e5e57600080fd5b505af4158015610e72573d6000803e3d6000fd5b505050506040513d6020811015610e8857600080fd5b810190808051906020019092919050505090508673ffffffffffffffffffffffffffffffffffffffff168173ffffffffffffffffffffffffffffffffffffffff1614610f1f576040517f08c379a000000000000000000000000000000000000000000000000000000000815260040180806020018281038252602d815260200180614468602d913960400191505060405180910390fd5b610f27614158565b600360008973ffffffffffffffffffffffffffffffffffffffff1673ffffffffffffffffffffffffffffffffffffffff16815260200190815260200160002060405180610120016040529081600082015481526020016001820160009054906101000a900473ffffffffffffffffffffffffffffffffffffffff1673ffffffffffffffffffffffffffffffffffffffff1673ffffffffffffffffffffffffffffffffffffffff1681526020016002820160009054906101000a900473ffffffffffffffffffffffffffffffffffffffff1673ffffffffffffffffffffffffffffffffffffffff1673ffffffffffffffffffffffffffffffffffffffff16815260200160038201548152602001600482015481526020016005820154815260200160068201548152602001600782015481526020016008820154815250509050600073ffffffffffffffffffffffffffffffffffffffff16816040015173ffffffffffffffffffffffffffffffffffffffff16141580156110ab575060008160600151115b61111d576040517f08c379a00000000000000000000000000000000000000000000000000000000081526004018080602001828103825260178152602001807f496e76616c69642077697468647261772076616c75652e00000000000000000081525060200191505060405180910390fd5b6000816101000151111561137f5760008090506060600660008b73ffffffffffffffffffffffffffffffffffffffff1673ffffffffffffffffffffffffffffffffffffffff1681526020019081526020016000208054806020026020016040519081016040528092919081815260200182805480156111f157602002820191906000526020600020905b8160009054906101000a900473ffffffffffffffffffffffffffffffffffffffff1673ffffffffffffffffffffffffffffffffffffffff16815260200190600101908083116111a7575b50505050509050600061ce1073ffffffffffffffffffffffffffffffffffffffff1663dcf0aaed60405160200180807f4174746573746174696f6e730000000000000000000000000000000000000000815250600c019050604051602081830303815290604052805190602001206040518263ffffffff1660e01b81526004018082815260200191505060206040518083038186803b15801561129357600080fd5b505afa1580156112a7573d6000803e3d6000fd5b505050506040513d60208110156112bd57600080fd5b8101908080519060200190929190505050905060008251111561130d576112f08185600001513387610100015186612dc4565b80611306575061130584600001513384612e5e565b5b9250611325565b611322818560000151338761010001516132ba565b92505b8261137b576040517f08c379a000000000000000000000000000000000000000000000000000000000815260040180806020018281038252604e81526020018061451d604e913960600191505060405180910390fd5b5050505b611388886133ae565b6113bb338260600151836040015173ffffffffffffffffffffffffffffffffffffffff166138559092919063ffffffff16565b806040015173ffffffffffffffffffffffffffffffffffffffff163373ffffffffffffffffffffffffffffffffffffffff1682600001517fab4f92d461fdbd1af5db2375223d65edb43bcb99129b19ab4954004883e5202584606001518c604051808381526020018273ffffffffffffffffffffffffffffffffffffffff1673ffffffffffffffffffffffffffffffffffffffff1681526020019250505060405180910390a460019350505060005481146114de576040517f08c379a000000000000000000000000000000000000000000000000000000000815260040180806020018281038252600e8152602001807f7265656e7472616e742063616c6c00000000000000000000000000000000000081525060200191505060405180910390fd5b50949350505050565b60008060008060016002600080839350829250819150809050935093509350935090919293565b6060600460008381526020019081526020016000208054806020026020016040519081016040528092919081815260200182805480156115a357602002820191906000526020600020905b8160009054906101000a900473ffffffffffffffffffffffffffffffffffffffff1673ffffffffffffffffffffffffffffffffffffffff1681526020019060010190808311611559575b50505050509050919050565b600660205281600052604060002081815481106115c857fe5b906000526020600020016000915091509054906101000a900473ffffffffffffffffffffffffffffffffffffffff1681565b606481565b6060600660008373ffffffffffffffffffffffffffffffffffffffff1673ffffffffffffffffffffffffffffffffffffffff1681526020019081526020016000208054806020026020016040519081016040528092919081815260200182805480156116c057602002820191906000526020600020905b8160009054906101000a900473ffffffffffffffffffffffffffffffffffffffff1673ffffffffffffffffffffffffffffffffffffffff1681526020019060010190808311611676575b50505050509050919050565b60036020528060005260406000206000915090508060000154908060010160009054906101000a900473ffffffffffffffffffffffffffffffffffffffff16908060020160009054906101000a900473ffffffffffffffffffffffffffffffffffffffff16908060030154908060040154908060050154908060060154908060070154908060080154905089565b6117626121f2565b6117d4576040517f08c379a00000000000000000000000000000000000000000000000000000000081526004018080602001828103825260208152602001807f4f776e61626c653a2063616c6c6572206973206e6f7420746865206f776e657281525060200191505060405180910390fd5b8073ffffffffffffffffffffffffffffffffffffffff16600073ffffffffffffffffffffffffffffffffffffffff161415611877576040517f08c379a000000000000000000000000000000000000000000000000000000000815260040180806020018281038252601b8152602001807f747275737465644973737565722063616e2774206265206e756c6c000000000081525060200191505060405180910390fd5b6064611892600160078054905061392690919063ffffffff16565b11156118e9576040517f08c379a000000000000000000000000000000000000000000000000000000000815260040180806020018281038252604a8152602001806143ad604a913960600191505060405180910390fd5b60008090505b6007805490508110156119d3578173ffffffffffffffffffffffffffffffffffffffff166007828154811061192057fe5b9060005260206000200160009054906101000a900473ffffffffffffffffffffffffffffffffffffffff1673ffffffffffffffffffffffffffffffffffffffff1614156119b8576040517f08c379a000000000000000000000000000000000000000000000000000000000815260040180806020018281038252602e81526020018061443a602e913960400191505060405180910390fd5b6119cc60018261392690919063ffffffff16565b90506118ef565b5060078190806001815401808255809150509060018203906000526020600020016000909192909190916101000a81548173ffffffffffffffffffffffffffffffffffffffff021916908373ffffffffffffffffffffffffffffffffffffffff160217905550508073ffffffffffffffffffffffffffffffffffffffff167fad14c01336ff6a84f45f0edc75306d67694dbe035d43d40805d363bf42a1fcf960405160405180910390a250565b60006001600080828254019250508190555060008054905060606000841115611b2d576007805480602002602001604051908101604052809291908181526020018280548015611b2557602002820191906000526020600020905b8160009054906101000a900473ffffffffffffffffffffffffffffffffffffffff1673ffffffffffffffffffffffffffffffffffffffff1681526020019060010190808311611adb575b505050505090505b611b3c89898989898987612644565b9250506000548114611bb6576040517f08c379a000000000000000000000000000000000000000000000000000000000815260040180806020018281038252600e8152602001807f7265656e7472616e742063616c6c00000000000000000000000000000000000081525060200191505060405180910390fd5b509695505050505050565b611bc96121f2565b611c3b576040517f08c379a00000000000000000000000000000000000000000000000000000000081526004018080602001828103825260208152602001807f4f776e61626c653a2063616c6c6572206973206e6f7420746865206f776e657281525060200191505060405180910390fd5b600073ffffffffffffffffffffffffffffffffffffffff16600160009054906101000a900473ffffffffffffffffffffffffffffffffffffffff1673ffffffffffffffffffffffffffffffffffffffff167f8be0079c531659141344cd1fd0a4f28419497f9722a3daafe3b4186f6b6457e060405160405180910390a36000600160006101000a81548173ffffffffffffffffffffffffffffffffffffffff021916908373ffffffffffffffffffffffffffffffffffffffff160217905550565b60078181548110611d0957fe5b906000526020600020016000915054906101000a900473ffffffffffffffffffffffffffffffffffffffff1681565b600060016000808282540192505081905550600080549050611d58614158565b600360008573ffffffffffffffffffffffffffffffffffffffff1673ffffffffffffffffffffffffffffffffffffffff16815260200190815260200160002060405180610120016040529081600082015481526020016001820160009054906101000a900473ffffffffffffffffffffffffffffffffffffffff1673ffffffffffffffffffffffffffffffffffffffff1673ffffffffffffffffffffffffffffffffffffffff1681526020016002820160009054906101000a900473ffffffffffffffffffffffffffffffffffffffff1673ffffffffffffffffffffffffffffffffffffffff1673ffffffffffffffffffffffffffffffffffffffff168152602001600382015481526020016004820154815260200160058201548152602001600682015481526020016007820154815260200160088201548152505090503373ffffffffffffffffffffffffffffffffffffffff16816020015173ffffffffffffffffffffffffffffffffffffffff1614611f1f576040517f08c379a000000000000000000000000000000000000000000000000000000000815260040180806020018281038252603581526020018061456b6035913960400191505060405180910390fd5b611f3a8160e001518260c0015161392690919063ffffffff16565b421015611f92576040517f08c379a000000000000000000000000000000000000000000000000000000000815260040180806020018281038252602a815260200180614383602a913960400191505060405180910390fd5b611f9b846133ae565b611fce338260600151836040015173ffffffffffffffffffffffffffffffffffffffff166138559092919063ffffffff16565b806040015173ffffffffffffffffffffffffffffffffffffffff16816020015173ffffffffffffffffffffffffffffffffffffffff1682600001517f6c464fad8039e6f09ec3a57a29f132cf2573d166833256960e2407eefff8f592846060015188604051808381526020018273ffffffffffffffffffffffffffffffffffffffff1673ffffffffffffffffffffffffffffffffffffffff1681526020019250505060405180910390a4600192505060005481146120f4576040517f08c379a000000000000000000000000000000000000000000000000000000000815260040180806020018281038252600e8152602001807f7265656e7472616e742063616c6c00000000000000000000000000000000000081525060200191505060405180910390fd5b50919050565b600260009054906101000a900473ffffffffffffffffffffffffffffffffffffffff1681565b600160149054906101000a900460ff16156121a3576040517f08c379a000000000000000000000000000000000000000000000000000000000815260040180806020018281038252601c8152602001807f636f6e747261637420616c726561647920696e697469616c697a65640000000081525060200191505060405180910390fd5b60018060146101000a81548160ff0219169083151502179055506121c6336139ae565b565b6000600160009054906101000a900473ffffffffffffffffffffffffffffffffffffffff16905090565b6000600160009054906101000a900473ffffffffffffffffffffffffffffffffffffffff1673ffffffffffffffffffffffffffffffffffffffff16612235613af4565b73ffffffffffffffffffffffffffffffffffffffff1614905090565b6004602052816000526040600020818154811061226a57fe5b906000526020600020016000915091509054906101000a900473ffffffffffffffffffffffffffffffffffffffff1681565b600560205281600052604060002081815481106122b557fe5b906000526020600020016000915091509054906101000a900473ffffffffffffffffffffffffffffffffffffffff1681565b6122ef6121f2565b612361576040517f08c379a00000000000000000000000000000000000000000000000000000000081526004018080602001828103825260208152602001807f4f776e61626c653a2063616c6c6572206973206e6f7420746865206f776e657281525060200191505060405180910390fd5b61236a816139ae565b50565b6123756121f2565b6123e7576040517f08c379a00000000000000000000000000000000000000000000000000000000081526004018080602001828103825260208152602001807f4f776e61626c653a2063616c6c6572206973206e6f7420746865206f776e657281525060200191505060405180910390fd5b60006007805490509050808210612466576040517f08c379a00000000000000000000000000000000000000000000000000000000081526004018080602001828103825260108152602001807f696e64657820697320696e76616c69640000000000000000000000000000000081525060200191505060405180910390fd5b8273ffffffffffffffffffffffffffffffffffffffff166007838154811061248a57fe5b9060005260206000200160009054906101000a900473ffffffffffffffffffffffffffffffffffffffff1673ffffffffffffffffffffffffffffffffffffffff1614612521576040517f08c379a000000000000000000000000000000000000000000000000000000000815260040180806020018281038252604a815260200180614339604a913960600191505060405180910390fd5b6001810382146125bc576007600182038154811061253b57fe5b9060005260206000200160009054906101000a900473ffffffffffffffffffffffffffffffffffffffff166007838154811061257357fe5b9060005260206000200160006101000a81548173ffffffffffffffffffffffffffffffffffffffff021916908373ffffffffffffffffffffffffffffffffffffffff1602179055505b60078054806125c757fe5b6001900381819060005260206000200160006101000a81549073ffffffffffffffffffffffffffffffffffffffff021916905590558273ffffffffffffffffffffffffffffffffffffffff167f73b0b5acdae4b4df2c8d85a2b1c23acc9e729494c0a1dab7f81e3d73f0c84c0860405160405180910390a2505050565b60008073ffffffffffffffffffffffffffffffffffffffff168773ffffffffffffffffffffffffffffffffffffffff16141580156126825750600086115b801561268e5750600085115b612700576040517f08c379a00000000000000000000000000000000000000000000000000000000081526004018080602001828103825260188152602001807f496e76616c6964207472616e7366657220696e707574732e000000000000000081525060200191505060405180910390fd5b6000801b881480156127125750600083115b15612768576040517f08c379a00000000000000000000000000000000000000000000000000000000081526004018080602001828103825260438152602001806143f76043913960600191505060405180910390fd5b600083148015612779575060008251115b156127cf576040517f08c379a000000000000000000000000000000000000000000000000000000000815260040180806020018281038252603d8152602001806144b6603d913960400191505060405180910390fd5b606482511115612847576040517f08c379a00000000000000000000000000000000000000000000000000000000081526004018080602001828103825260208152602001807f546f6f206d616e792074727573746564497373756572732070726f766964656481525060200191505060405180910390fd5b6000612851613afc565b90508073ffffffffffffffffffffffffffffffffffffffff16637796a6846040518163ffffffff1660e01b815260040160206040518083038186803b15801561289957600080fd5b505afa1580156128ad573d6000803e3d6000fd5b505050506040513d60208110156128c357600080fd5b810190808051906020019092919050505084111561292c576040517f08c379a00000000000000000000000000000000000000000000000000000000081526004018080602001828103825260218152602001806144956021913960400191505060405180910390fd5b60006129e36001600560003373ffffffffffffffffffffffffffffffffffffffff1673ffffffffffffffffffffffffffffffffffffffff1681526020019081526020016000208890806001815401808255809150509060018203906000526020600020016000909192909190916101000a81548173ffffffffffffffffffffffffffffffffffffffff021916908373ffffffffffffffffffffffffffffffffffffffff160217905550613bd790919063ffffffff16565b90506000612a706001600460008e81526020019081526020016000208990806001815401808255809150509060018203906000526020600020016000909192909190916101000a81548173ffffffffffffffffffffffffffffffffffffffff021916908373ffffffffffffffffffffffffffffffffffffffff160217905550613bd790919063ffffffff16565b90506000600360008973ffffffffffffffffffffffffffffffffffffffff1673ffffffffffffffffffffffffffffffffffffffff16815260200190815260200160002090506000816006015414612b2f576040517f08c379a00000000000000000000000000000000000000000000000000000000081526004018080602001828103825260168152602001807f7061796d656e74496420616c726561647920757365640000000000000000000081525060200191505060405180910390fd5b8b8160000181905550338160010160006101000a81548173ffffffffffffffffffffffffffffffffffffffff021916908373ffffffffffffffffffffffffffffffffffffffff1602179055508a8160020160006101000a81548173ffffffffffffffffffffffffffffffffffffffff021916908373ffffffffffffffffffffffffffffffffffffffff160217905550898160030181905550828160040181905550818160050181905550428160060181905550888160070181905550868160080181905550600086511115612c535785600660008a73ffffffffffffffffffffffffffffffffffffffff1673ffffffffffffffffffffffffffffffffffffffff1681526020019081526020016000209080519060200190612c519291906141d3565b505b612c8033308c8e73ffffffffffffffffffffffffffffffffffffffff16613c21909392919063ffffffff16565b8a73ffffffffffffffffffffffffffffffffffffffff168c3373ffffffffffffffffffffffffffffffffffffffff167f0fc2463e82c3b8a7868e75b68a76a144816d772687e5b09f45c02db37eedf4f68d8c8c604051808481526020018373ffffffffffffffffffffffffffffffffffffffff1673ffffffffffffffffffffffffffffffffffffffff168152602001828152602001935050505060405180910390a48773ffffffffffffffffffffffffffffffffffffffff167fcab1568169bf0442f60fe89e06961cd74fbb1630c0ef54cd00562ff0ded2c2c0876040518080602001828103825283818151815260200191508051906020019060200280838360005b83811015612d9e578082015181840152602081019050612d83565b505050509050019250505060405180910390a26001945050505050979650505050505050565b600080600090505b8251811015612e4f578673ffffffffffffffffffffffffffffffffffffffff16838281518110612df857fe5b602002602001015173ffffffffffffffffffffffffffffffffffffffff1614612e2057612e34565b612e2c878787876132ba565b915050612e55565b612e4860018261392690919063ffffffff16565b9050612dcc565b50600090505b95945050505050565b600080612e69613d27565b905060608173ffffffffffffffffffffffffffffffffffffffff1663a862e12e87866040518363ffffffff1660e01b81526004018083815260200180602001828103825283818151815260200191508051906020019060200280838360005b83811015612ee3578082015181840152602081019050612ec8565b50505050905001935050505060006040518083038186803b158015612f0757600080fd5b505afa158015612f1b573d6000803e3d6000fd5b505050506040513d6000823e3d601f19601f8201168201806040525060a0811015612f4557600080fd5b8101908080516040519392919084640100000000821115612f6557600080fd5b83820191506020820185811115612f7b57600080fd5b8251866020820283011164010000000082111715612f9857600080fd5b8083526020830192505050908051906020019060200280838360005b83811015612fcf578082015181840152602081019050612fb4565b5050505090500160405260200180516040519392919084640100000000821115612ff857600080fd5b8382019150602082018581111561300e57600080fd5b825186602082028301116401000000008211171561302b57600080fd5b8083526020830192505050908051906020019060200280838360005b83811015613062578082015181840152602081019050613047565b505050509050016040526020018051604051939291908464010000000082111561308b57600080fd5b838201915060208201858111156130a157600080fd5b82518660208202830111640100000000821117156130be57600080fd5b8083526020830192505050908051906020019060200280838360005b838110156130f55780820151818401526020810190506130da565b505050509050016040526020018051604051939291908464010000000082111561311e57600080fd5b8382019150602082018581111561313457600080fd5b825186602082028301116401000000008211171561315157600080fd5b8083526020830192505050908051906020019060200280838360005b8381101561318857808201518184015260208101905061316d565b50505050905001604052602001805160405193929190846401000000008211156131b157600080fd5b838201915060208201858111156131c757600080fd5b82518660208202830111640100000000821117156131e457600080fd5b8083526020830192505050908051906020019060200280838360005b8381101561321b578082015181840152602081019050613200565b5050505090500160405250505050505091505060008090505b81518110156132ab578573ffffffffffffffffffffffffffffffffffffffff1682828151811061326057fe5b602002602001015173ffffffffffffffffffffffffffffffffffffffff16141561329057600193505050506132b3565b6132a460018261392690919063ffffffff16565b9050613234565b506000925050505b9392505050565b60008085905060008173ffffffffffffffffffffffffffffffffffffffff1663596abea587876040518363ffffffff1660e01b8152600401808381526020018273ffffffffffffffffffffffffffffffffffffffff1673ffffffffffffffffffffffffffffffffffffffff16815260200192505050604080518083038186803b15801561334657600080fd5b505afa15801561335a573d6000803e3d6000fd5b505050506040513d604081101561337057600080fd5b8101908080519060200190929190805190602001909291905050505063ffffffff169050838167ffffffffffffffff16101592505050949350505050565b6000600360008373ffffffffffffffffffffffffffffffffffffffff1673ffffffffffffffffffffffffffffffffffffffff16815260200190815260200160002090506000600460008360000154815260200190815260200160002090506000600560008460010160009054906101000a900473ffffffffffffffffffffffffffffffffffffffff1673ffffffffffffffffffffffffffffffffffffffff1673ffffffffffffffffffffffffffffffffffffffff16815260200190815260200160002090508260050154600360008460018680549050038154811061348f57fe5b9060005260206000200160009054906101000a900473ffffffffffffffffffffffffffffffffffffffff1673ffffffffffffffffffffffffffffffffffffffff1673ffffffffffffffffffffffffffffffffffffffff168152602001908152602001600020600501819055508160018380549050038154811061350e57fe5b9060005260206000200160009054906101000a900473ffffffffffffffffffffffffffffffffffffffff168284600501548154811061354957fe5b9060005260206000200160006101000a81548173ffffffffffffffffffffffffffffffffffffffff021916908373ffffffffffffffffffffffffffffffffffffffff1602179055506135a960018380549050613bd790919063ffffffff16565b82816135b5919061425d565b50826004015460036000836001858054905003815481106135d257fe5b9060005260206000200160009054906101000a900473ffffffffffffffffffffffffffffffffffffffff1673ffffffffffffffffffffffffffffffffffffffff1673ffffffffffffffffffffffffffffffffffffffff168152602001908152602001600020600401819055508060018280549050038154811061365157fe5b9060005260206000200160009054906101000a900473ffffffffffffffffffffffffffffffffffffffff168184600401548154811061368c57fe5b9060005260206000200160006101000a81548173ffffffffffffffffffffffffffffffffffffffff021916908373ffffffffffffffffffffffffffffffffffffffff1602179055506136ec60018280549050613bd790919063ffffffff16565b81816136f8919061425d565b50600360008573ffffffffffffffffffffffffffffffffffffffff1673ffffffffffffffffffffffffffffffffffffffff1681526020019081526020016000206000808201600090556001820160006101000a81549073ffffffffffffffffffffffffffffffffffffffff02191690556002820160006101000a81549073ffffffffffffffffffffffffffffffffffffffff02191690556003820160009055600482016000905560058201600090556006820160009055600782016000905560088201600090555050600660008573ffffffffffffffffffffffffffffffffffffffff1673ffffffffffffffffffffffffffffffffffffffff168152602001908152602001600020600061380c9190614289565b8373ffffffffffffffffffffffffffffffffffffffff167fbe92782e8f0fc2eaba574c74ef88e93ee08abda36dd1889acb0065d4af631d8860405160405180910390a250505050565b613921838473ffffffffffffffffffffffffffffffffffffffff1663a9059cbb905060e01b8484604051602401808373ffffffffffffffffffffffffffffffffffffffff1673ffffffffffffffffffffffffffffffffffffffff16815260200182815260200192505050604051602081830303815290604052907bffffffffffffffffffffffffffffffffffffffffffffffffffffffff19166020820180517bffffffffffffffffffffffffffffffffffffffffffffffffffffffff8381831617835250505050613e02565b505050565b6000808284019050838110156139a4576040517f08c379a000000000000000000000000000000000000000000000000000000000815260040180806020018281038252601b8152602001807f536166654d6174683a206164646974696f6e206f766572666c6f77000000000081525060200191505060405180910390fd5b8091505092915050565b600073ffffffffffffffffffffffffffffffffffffffff168173ffffffffffffffffffffffffffffffffffffffff161415613a34576040517f08c379a00000000000000000000000000000000000000000000000000000000081526004018080602001828103825260268152602001806143136026913960400191505060405180910390fd5b8073ffffffffffffffffffffffffffffffffffffffff16600160009054906101000a900473ffffffffffffffffffffffffffffffffffffffff1673ffffffffffffffffffffffffffffffffffffffff167f8be0079c531659141344cd1fd0a4f28419497f9722a3daafe3b4186f6b6457e060405160405180910390a380600160006101000a81548173ffffffffffffffffffffffffffffffffffffffff021916908373ffffffffffffffffffffffffffffffffffffffff16021790555050565b600033905090565b600061ce1073ffffffffffffffffffffffffffffffffffffffff1663dcf0aaed60405160200180807f4174746573746174696f6e730000000000000000000000000000000000000000815250600c019050604051602081830303815290604052805190602001206040518263ffffffff1660e01b81526004018082815260200191505060206040518083038186803b158015613b9757600080fd5b505afa158015613bab573d6000803e3d6000fd5b505050506040513d6020811015613bc157600080fd5b8101908080519060200190929190505050905090565b6000613c1983836040518060400160405280601e81526020017f536166654d6174683a207375627472616374696f6e206f766572666c6f77000081525061404d565b905092915050565b613d21848573ffffffffffffffffffffffffffffffffffffffff166323b872dd905060e01b858585604051602401808473ffffffffffffffffffffffffffffffffffffffff1673ffffffffffffffffffffffffffffffffffffffff1681526020018373ffffffffffffffffffffffffffffffffffffffff1673ffffffffffffffffffffffffffffffffffffffff1681526020018281526020019350505050604051602081830303815290604052907bffffffffffffffffffffffffffffffffffffffffffffffffffffffff19166020820180517bffffffffffffffffffffffffffffffffffffffffffffffffffffffff8381831617835250505050613e02565b50505050565b600061ce1073ffffffffffffffffffffffffffffffffffffffff1663dcf0aaed60405160200180807f4665646572617465644174746573746174696f6e7300000000000000000000008152506015019050604051602081830303815290604052805190602001206040518263ffffffff1660e01b81526004018082815260200191505060206040518083038186803b158015613dc257600080fd5b505afa158015613dd6573d6000803e3d6000fd5b505050506040513d6020811015613dec57600080fd5b8101908080519060200190929190505050905090565b613e218273ffffffffffffffffffffffffffffffffffffffff1661410d565b613e93576040517f08c379a000000000000000000000000000000000000000000000000000000000815260040180806020018281038252601f8152602001807f5361666545524332303a2063616c6c20746f206e6f6e2d636f6e74726163740081525060200191505060405180910390fd5b600060608373ffffffffffffffffffffffffffffffffffffffff16836040518082805190602001908083835b60208310613ee25780518252602082019150602081019050602083039250613ebf565b6001836020036101000a0380198251168184511680821785525050505050509050019150506000604051808303816000865af19150503d8060008114613f44576040519150601f19603f3d011682016040523d82523d6000602084013e613f49565b606091505b509150915081613fc1576040517f08c379a00000000000000000000000000000000000000000000000000000000081526004018080602001828103825260208152602001807f5361666545524332303a206c6f772d6c6576656c2063616c6c206661696c656481525060200191505060405180910390fd5b60008151111561404757808060200190516020811015613fe057600080fd5b8101908080519060200190929190505050614046576040517f08c379a000000000000000000000000000000000000000000000000000000000815260040180806020018281038252602a8152602001806144f3602a913960400191505060405180910390fd5b5b50505050565b60008383111582906140fa576040517f08c379a00000000000000000000000000000000000000000000000000000000081526004018080602001828103825283818151815260200191508051906020019080838360005b838110156140bf5780820151818401526020810190506140a4565b50505050905090810190601f1680156140ec5780820380516001836020036101000a031916815260200191505b509250505060405180910390fd5b5060008385039050809150509392505050565b60008060007fc5d2460186f7233c927e7db2dcc703c0e500b653ca82273b7bfad8045d85a47060001b9050833f915080821415801561414f57506000801b8214155b92505050919050565b60405180610120016040528060008019168152602001600073ffffffffffffffffffffffffffffffffffffffff168152602001600073ffffffffffffffffffffffffffffffffffffffff1681526020016000815260200160008152602001600081526020016000815260200160008152602001600081525090565b82805482825590600052602060002090810192821561424c579160200282015b8281111561424b5782518260006101000a81548173ffffffffffffffffffffffffffffffffffffffff021916908373ffffffffffffffffffffffffffffffffffffffff160217905550916020019190600101906141f3565b5b50905061425991906142aa565b5090565b8154818355818111156142845781836000526020600020918201910161428391906142ed565b5b505050565b50805460008255906000526020600020908101906142a791906142ed565b50565b6142ea91905b808211156142e657600081816101000a81549073ffffffffffffffffffffffffffffffffffffffff0219169055506001016142b0565b5090565b90565b61430f91905b8082111561430b5760008160009055506001016142f3565b5090565b9056fe4f776e61626c653a206e6577206f776e657220697320746865207a65726f20616464726573737472757374656449737375657220646f6573206e6f74206d61746368206164647265737320666f756e642061742064656661756c7454727573746564497373756572735b696e6465785d5472616e73616374696f6e206e6f742072656465656d61626c6520666f722073656e646572207965742e64656661756c7454727573746564497373756572732e6c656e6774682063616e27742065786365656420616c6c6f776564206e756d626572206f66207472757374656449737375657273496e76616c6964207072697661637920696e707574733a2043616e27742072657175697265206174746573746174696f6e73206966206e6f206964656e7469666965727472757374656449737375657220616c726561647920696e2064656661756c7454727573746564497373756572734661696c656420746f2070726f7665206f776e657273686970206f6620746865207769746864726177206b65796d696e4174746573746174696f6e73206c6172676572207468616e206c696d69747472757374656449737375657273206d6179206f6e6c7920626520736574207768656e206174746573746174696f6e73206172652072657175697265645361666545524332303a204552433230206f7065726174696f6e20646964206e6f74207375636365656454686973206163636f756e7420646f6573206e6f74206861766520746865207265717569726564206174746573746174696f6e7320746f2077697468647261772074686973207061796d656e742e4f6e6c792073656e646572206f66207061796d656e742063616e20617474656d707420746f207265766f6b65207061796d656e742ea265627a7a72315820d395b02906e32da44075aafe7c246867b03a0985172aad6d59dce1a4bcafcb6664736f6c634300050d0032",
  "source": "pragma solidity ^0.5.13;\n\nimport \"openzeppelin-solidity/contracts/math/SafeMath.sol\";\nimport \"openzeppelin-solidity/contracts/ownership/Ownable.sol\";\nimport \"openzeppelin-solidity/contracts/token/ERC20/ERC20.sol\";\nimport \"openzeppelin-solidity/contracts/token/ERC20/SafeERC20.sol\";\n\nimport \"./interfaces/IAttestations.sol\";\nimport \"./interfaces/IFederatedAttestations.sol\";\nimport \"./interfaces/IEscrow.sol\";\nimport \"../common/Initializable.sol\";\nimport \"../common/interfaces/ICeloVersionedContract.sol\";\nimport \"../common/UsingRegistryV2BackwardsCompatible.sol\";\nimport \"../common/Signatures.sol\";\nimport \"../common/libraries/ReentrancyGuard.sol\";\n\ncontract Escrow is\n  IEscrow,\n  ICeloVersionedContract,\n  ReentrancyGuard,\n  Ownable,\n  Initializable,\n  // Maintain storage alignment since Escrow was initially deployed with UsingRegistry.sol\n  UsingRegistryV2BackwardsCompatible\n{\n  using SafeMath for uint256;\n  using SafeERC20 for ERC20;\n\n  event DefaultTrustedIssuerAdded(address indexed trustedIssuer);\n  event DefaultTrustedIssuerRemoved(address indexed trustedIssuer);\n\n  event Transfer(\n    address indexed from,\n    bytes32 indexed identifier,\n    address indexed token,\n    uint256 value,\n    address paymentId,\n    uint256 minAttestations\n  );\n\n  event TrustedIssuersSet(address indexed paymentId, address[] trustedIssuers);\n  event TrustedIssuersUnset(address indexed paymentId);\n\n  event Withdrawal(\n    bytes32 indexed identifier,\n    // Note that in previous versions of Escrow.sol, `to` referenced\n    // the original sender of the payment\n    address indexed to,\n    address indexed token,\n    uint256 value,\n    address paymentId\n  );\n\n  event Revocation(\n    bytes32 indexed identifier,\n    address indexed by,\n    address indexed token,\n    uint256 value,\n    address paymentId\n  );\n\n  struct EscrowedPayment {\n    bytes32 recipientIdentifier;\n    address sender;\n    address token;\n    uint256 value;\n    uint256 sentIndex; // Location of this payment in sender's list of sent payments.\n    uint256 receivedIndex; // Location of this payment in receivers's list of received payments.\n    uint256 timestamp;\n    uint256 expirySeconds;\n    uint256 minAttestations;\n  }\n\n  // Maps unique payment IDs to escrowed payments.\n  // These payment IDs are the temporary wallet addresses created with the escrowed payments.\n  mapping(address => EscrowedPayment) public escrowedPayments;\n\n  // Maps receivers' identifiers to a list of received escrowed payment IDs.\n  mapping(bytes32 => address[]) public receivedPaymentIds;\n\n  // Maps senders' addresses to a list of sent escrowed payment IDs.\n  mapping(address => address[]) public sentPaymentIds;\n\n  // Maps payment ID to a list of issuers whose attestations will be accepted.\n  mapping(address => address[]) public trustedIssuersPerPayment;\n\n  // Governable list of trustedIssuers to set for payments by default.\n  address[] public defaultTrustedIssuers;\n\n  // Based on benchmarking of FederatedAttestations lookup gas consumption\n  // in the worst case (with a significant amount of buffer).\n  uint256 public constant MAX_TRUSTED_ISSUERS_PER_PAYMENT = 100;\n\n  /**\n   * @notice Sets initialized == true on implementation contracts\n   * @param test Set to true to skip implementation initialization\n   */\n  constructor(bool test) public Initializable(test) {}\n\n  /**\n   * @notice Returns the storage, major, minor, and patch version of the contract.\n   * @return Storage version of the contract.\n   * @return Major version of the contract.\n   * @return Minor version of the contract.\n   * @return Patch version of the contract.\n   */\n  function getVersionNumber() external pure returns (uint256, uint256, uint256, uint256) {\n    return (1, 2, 0, 0);\n  }\n\n  /**\n   * @notice Used in place of the constructor to allow the contract to be upgradable via proxy.\n   */\n  function initialize() external initializer {\n    _transferOwnership(msg.sender);\n  }\n\n  /**\n   * @notice Add an address to the defaultTrustedIssuers list.\n   * @param trustedIssuer Address of the trustedIssuer to add.\n   * @dev Throws if trustedIssuer is null or already in defaultTrustedIssuers.\n   * @dev Throws if defaultTrustedIssuers is already at max allowed length.\n   */\n  function addDefaultTrustedIssuer(address trustedIssuer) external onlyOwner {\n    require(address(0) != trustedIssuer, \"trustedIssuer can't be null\");\n    require(\n      defaultTrustedIssuers.length.add(1) <= MAX_TRUSTED_ISSUERS_PER_PAYMENT,\n      \"defaultTrustedIssuers.length can't exceed allowed number of trustedIssuers\"\n    );\n\n    // Ensure list of trusted issuers is unique\n    for (uint256 i = 0; i < defaultTrustedIssuers.length; i = i.add(1)) {\n      require(\n        defaultTrustedIssuers[i] != trustedIssuer,\n        \"trustedIssuer already in defaultTrustedIssuers\"\n      );\n    }\n    defaultTrustedIssuers.push(trustedIssuer);\n    emit DefaultTrustedIssuerAdded(trustedIssuer);\n  }\n\n  /**\n   * @notice Remove an address from the defaultTrustedIssuers list.\n   * @param trustedIssuer Address of the trustedIssuer to remove.\n   * @param index Index of trustedIssuer in defaultTrustedIssuers.\n   * @dev Throws if trustedIssuer is not in defaultTrustedIssuers at index.\n   */\n  function removeDefaultTrustedIssuer(address trustedIssuer, uint256 index) external onlyOwner {\n    uint256 numDefaultTrustedIssuers = defaultTrustedIssuers.length;\n    require(index < numDefaultTrustedIssuers, \"index is invalid\");\n    require(\n      defaultTrustedIssuers[index] == trustedIssuer,\n      \"trustedIssuer does not match address found at defaultTrustedIssuers[index]\"\n    );\n    if (index != numDefaultTrustedIssuers - 1) {\n      // Swap last index with index-to-remove\n      defaultTrustedIssuers[index] = defaultTrustedIssuers[numDefaultTrustedIssuers - 1];\n    }\n    defaultTrustedIssuers.pop();\n    emit DefaultTrustedIssuerRemoved(trustedIssuer);\n  }\n\n  /**\n  * @notice Transfer tokens to a specific user. Supports both identity with privacy (an empty\n  *         identifier and 0 minAttestations) and without (with identifier and minAttestations).\n  *         Sets trustedIssuers to the issuers listed in `defaultTrustedIssuers`.\n  *         (To override this and set custom trusted issuers, use `transferWithTrustedIssuers`.)\n  * @param identifier The hashed identifier of a user to transfer to.\n  * @param token The token to be transferred.\n  * @param value The amount to be transferred.\n  * @param expirySeconds The number of seconds before the sender can revoke the payment.\n  * @param paymentId The address of the temporary wallet associated with this payment. Users must\n  *        prove ownership of the corresponding private key to withdraw from escrow.\n  * @param minAttestations The min number of attestations required to withdraw the payment.\n  * @return True if transfer succeeded.\n  * @dev Throws if 'token' or 'value' is 0.\n  * @dev Throws if identifier is null and minAttestations > 0.\n  * @dev If minAttestations is 0, trustedIssuers will be set to empty list.\n  * @dev msg.sender needs to have already approved this contract to transfer\n  */\n  // solhint-disable-next-line no-simple-event-func-name\n  function transfer(\n    bytes32 identifier,\n    address token,\n    uint256 value,\n    uint256 expirySeconds,\n    address paymentId,\n    uint256 minAttestations\n  ) external nonReentrant returns (bool) {\n    address[] memory trustedIssuers;\n    // If minAttestations == 0, trustedIssuers should remain empty\n    if (minAttestations > 0) {\n      trustedIssuers = defaultTrustedIssuers;\n    }\n    return\n      _transfer(\n        identifier,\n        token,\n        value,\n        expirySeconds,\n        paymentId,\n        minAttestations,\n        trustedIssuers\n      );\n  }\n\n  /**\n  * @notice Transfer tokens to a specific user. Supports both identity with privacy (an empty\n  *         identifier and 0 minAttestations) and without (with identifier\n  *         and attestations completed by trustedIssuers).\n  * @param identifier The hashed identifier of a user to transfer to.\n  * @param token The token to be transferred.\n  * @param value The amount to be transferred.\n  * @param expirySeconds The number of seconds before the sender can revoke the payment.\n  * @param paymentId The address of the temporary wallet associated with this payment. Users must\n  *        prove ownership of the corresponding private key to withdraw from escrow.\n  * @param minAttestations The min number of attestations required to withdraw the payment.\n  * @param trustedIssuers Array of issuers whose attestations in FederatedAttestations.sol\n  *        will be accepted to prove ownership over an identifier.\n  * @return True if transfer succeeded.\n  * @dev Throws if 'token' or 'value' is 0.\n  * @dev Throws if identifier is null and minAttestations > 0.\n  * @dev Throws if minAttestations == 0 but trustedIssuers are provided.\n  * @dev msg.sender needs to have already approved this contract to transfer.\n  */\n  function transferWithTrustedIssuers(\n    bytes32 identifier,\n    address token,\n    uint256 value,\n    uint256 expirySeconds,\n    address paymentId,\n    uint256 minAttestations,\n    address[] calldata trustedIssuers\n  ) external nonReentrant returns (bool) {\n    return\n      _transfer(\n        identifier,\n        token,\n        value,\n        expirySeconds,\n        paymentId,\n        minAttestations,\n        trustedIssuers\n      );\n  }\n\n  /**\n  * @notice Withdraws tokens for a verified user.\n  * @param paymentId The ID for the EscrowedPayment struct that contains all relevant information.\n  * @param v The recovery id of the incoming ECDSA signature.\n  * @param r Output value r of the ECDSA signature.\n  * @param s Output value s of the ECDSA signature.\n  * @return True if withdraw succeeded.\n  * @dev Throws if 'token' or 'value' is 0.\n  * @dev Throws if msg.sender does not prove ownership of the withdraw key.\n  */\n  function withdraw(address paymentId, uint8 v, bytes32 r, bytes32 s)\n    external\n    nonReentrant\n    returns (bool)\n  {\n    address signer = Signatures.getSignerOfAddress(msg.sender, v, r, s);\n    require(signer == paymentId, \"Failed to prove ownership of the withdraw key\");\n    EscrowedPayment memory payment = escrowedPayments[paymentId];\n    require(payment.token != address(0) && payment.value > 0, \"Invalid withdraw value.\");\n\n    // Due to an old bug, there may exist payments with no identifier and minAttestations > 0\n    // So ensure that these fail the attestations check, as they previously would have\n    if (payment.minAttestations > 0) {\n      bool passedCheck = false;\n      address[] memory trustedIssuers = trustedIssuersPerPayment[paymentId];\n      address attestationsAddress = registryContract.getAddressForOrDie(ATTESTATIONS_REGISTRY_ID);\n\n      if (trustedIssuers.length > 0) {\n        passedCheck =\n          hasCompletedV1AttestationsAsTrustedIssuer(\n            attestationsAddress,\n            payment.recipientIdentifier,\n            msg.sender,\n            payment.minAttestations,\n            trustedIssuers\n          ) ||\n          hasCompletedV2Attestations(payment.recipientIdentifier, msg.sender, trustedIssuers);\n      } else {\n        // This is for backwards compatibility, not default/fallback behavior\n        passedCheck = hasCompletedV1Attestations(\n          attestationsAddress,\n          payment.recipientIdentifier,\n          msg.sender,\n          payment.minAttestations\n        );\n      }\n      require(\n        passedCheck,\n        \"This account does not have the required attestations to withdraw this payment.\"\n      );\n    }\n\n    deletePayment(paymentId);\n\n    ERC20(payment.token).safeTransfer(msg.sender, payment.value);\n\n    emit Withdrawal(\n      payment.recipientIdentifier,\n      msg.sender,\n      payment.token,\n      payment.value,\n      paymentId\n    );\n\n    return true;\n  }\n\n  /**\n  * @notice Revokes tokens for a sender who is redeeming a payment after it has expired.\n  * @param paymentId The ID for the EscrowedPayment struct that contains all relevant information.\n  * @dev Throws if 'token' or 'value' is 0.\n  * @dev Throws if msg.sender is not the sender of payment.\n  * @dev Throws if redeem time hasn't been reached yet.\n  */\n  function revoke(address paymentId) external nonReentrant returns (bool) {\n    EscrowedPayment memory payment = escrowedPayments[paymentId];\n    require(payment.sender == msg.sender, \"Only sender of payment can attempt to revoke payment.\");\n    require(\n      now >= (payment.timestamp.add(payment.expirySeconds)),\n      \"Transaction not redeemable for sender yet.\"\n    );\n\n    deletePayment(paymentId);\n\n    ERC20(payment.token).safeTransfer(msg.sender, payment.value);\n\n    emit Revocation(\n      payment.recipientIdentifier,\n      payment.sender,\n      payment.token,\n      payment.value,\n      paymentId\n    );\n\n    return true;\n\n  }\n\n  /**\n  * @notice Gets array of all Escrowed Payments received by identifier.\n  * @param identifier The hash of an identifier of the receiver of the escrowed payment.\n  * @return An array containing all the IDs of the Escrowed Payments that were received\n  * by the specified receiver.\n  */\n  function getReceivedPaymentIds(bytes32 identifier) external view returns (address[] memory) {\n    return receivedPaymentIds[identifier];\n  }\n\n  /**\n  * @notice Gets array of all Escrowed Payment IDs sent by sender.\n  * @param sender The address of the sender of the escrowed payments.\n  * @return An array containing all the IDs of the Escrowed Payments that were sent by the\n  * specified sender.\n  */\n  function getSentPaymentIds(address sender) external view returns (address[] memory) {\n    return sentPaymentIds[sender];\n  }\n\n  /**\n  * @notice Gets array of all trusted issuers set per paymentId.\n  * @param paymentId The ID of the payment to get.\n  * @return An array of addresses of trusted issuers set for an escrowed payment.\n  */\n  function getTrustedIssuersPerPayment(address paymentId) external view returns (address[] memory) {\n    return trustedIssuersPerPayment[paymentId];\n  }\n\n  /**\n  * @notice Gets trusted issuers set as default for payments by `transfer` function.\n  * @return An array of addresses of trusted issuers.\n  */\n  function getDefaultTrustedIssuers() public view returns (address[] memory) {\n    return defaultTrustedIssuers;\n  }\n\n  /**\n  * @notice Checks if account has completed minAttestations for identifier in Attestations.sol.\n  * @param attestationsAddress The address of Attestations.sol.\n  * @param identifier The hash of an identifier for which to look up attestations.\n  * @param account The account for which to look up attestations.\n  * @param minAttestations The minimum number of attestations to have completed.\n  * @return Whether or not attestations in Attestations.sol\n  *         exceeds minAttestations for (identifier, account).\n  */\n  function hasCompletedV1Attestations(\n    address attestationsAddress,\n    bytes32 identifier,\n    address account,\n    uint256 minAttestations\n  ) internal view returns (bool) {\n    IAttestations attestations = IAttestations(attestationsAddress);\n    (uint64 completedAttestations, ) = attestations.getAttestationStats(identifier, account);\n    return (uint256(completedAttestations) >= minAttestations);\n  }\n\n  /**\n  * @notice Helper function that checks if one of the trustedIssuers is the old Attestations.sol\n  *         contract and applies the escrow V1 check against minAttestations.\n  * @param attestationsAddress The address of Attestations.sol.\n  * @param identifier The hash of an identifier for which to look up attestations.\n  * @param account The account for which to look up attestations.\n  * @param minAttestations The minimum number of attestations to have completed.\n  * @param trustedIssuers The trustedIssuer addresses to search through.\n  * @return Whether or not a trustedIssuer is Attestations.sol & attestations\n  *         exceed minAttestations for (identifier, account).\n  */\n  function hasCompletedV1AttestationsAsTrustedIssuer(\n    address attestationsAddress,\n    bytes32 identifier,\n    address account,\n    uint256 minAttestations,\n    address[] memory trustedIssuers\n  ) internal view returns (bool) {\n    for (uint256 i = 0; i < trustedIssuers.length; i = i.add(1)) {\n      if (trustedIssuers[i] != attestationsAddress) {\n        continue;\n      }\n      // This can be false; one of the several trustedIssuers listed needs to prove attestations\n      return hasCompletedV1Attestations(attestationsAddress, identifier, account, minAttestations);\n    }\n    return false;\n  }\n\n  /**\n  * @notice Checks if there are attestations for account <-> identifier from\n  *         any of trustedIssuers in FederatedAttestations.sol.\n  * @param identifier The hash of an identifier for which to look up attestations.\n  * @param account The account for which to look up attestations.\n  * @param trustedIssuers Issuer addresses whose attestations to trust.\n  * @return Whether or not attestations exist in FederatedAttestations.sol\n  *         for (identifier, account).\n  */\n  function hasCompletedV2Attestations(\n    bytes32 identifier,\n    address account,\n    address[] memory trustedIssuers\n  ) internal view returns (bool) {\n    // Check for an attestation from a trusted issuer\n    IFederatedAttestations federatedAttestations = getFederatedAttestations();\n    (, address[] memory accounts, , , ) = federatedAttestations.lookupAttestations(\n      identifier,\n      trustedIssuers\n    );\n    // Check if an attestation was found for recipientIdentifier -> account\n    for (uint256 i = 0; i < accounts.length; i = i.add(1)) {\n      if (accounts[i] == account) {\n        return true;\n      }\n    }\n    return false;\n  }\n\n  /**\n  * @notice Helper function for `transferWithTrustedIssuers` and `transfer`, to\n  *         enable backwards-compatible function signature for `transfer`,\n  *         and since `transfer` cannot directly call `transferWithTrustedIssuers`\n  *         due to reentrancy guard.\n  * @param identifier The hashed identifier of a user to transfer to.\n  * @param token The token to be transferred.\n  * @param value The amount to be transferred.\n  * @param expirySeconds The number of seconds before the sender can revoke the payment.\n  * @param paymentId The address of the temporary wallet associated with this payment. Users must\n  *        prove ownership of the corresponding private key to withdraw from escrow.\n  * @param minAttestations The min number of attestations required to withdraw the payment.\n  * @param trustedIssuers Array of issuers whose attestations in FederatedAttestations.sol\n  *        will be accepted to prove ownership over an identifier.\n  * @return True if transfer succeeded.\n  * @dev Throws if 'token' or 'value' is 0.\n  * @dev Throws if identifier is null and minAttestations > 0.\n  * @dev Throws if minAttestations == 0 but trustedIssuers are provided.\n  * @dev msg.sender needs to have already approved this contract to transfer.\n   */\n  function _transfer(\n    bytes32 identifier,\n    address token,\n    uint256 value,\n    uint256 expirySeconds,\n    address paymentId,\n    uint256 minAttestations,\n    address[] memory trustedIssuers\n  ) private returns (bool) {\n    require(token != address(0) && value > 0 && expirySeconds > 0, \"Invalid transfer inputs.\");\n    require(\n      !(identifier == 0 && minAttestations > 0),\n      \"Invalid privacy inputs: Can't require attestations if no identifier\"\n    );\n    // Withdraw logic with trustedIssuers in FederatedAttestations disregards\n    // minAttestations, so ensure that this is not set to 0 to prevent confusing behavior\n    // This also implies: if identifier == 0 => trustedIssuers.length == 0\n    require(\n      !(minAttestations == 0 && trustedIssuers.length > 0),\n      \"trustedIssuers may only be set when attestations are required\"\n    );\n\n    // Ensure that withdrawal will not fail due to exceeding trustedIssuer limit\n    // in FederatedAttestations.lookupAttestations\n    require(\n      trustedIssuers.length <= MAX_TRUSTED_ISSUERS_PER_PAYMENT,\n      \"Too many trustedIssuers provided\"\n    );\n\n    IAttestations attestations = getAttestations();\n    require(\n      minAttestations <= attestations.getMaxAttestations(),\n      \"minAttestations larger than limit\"\n    );\n\n    uint256 sentIndex = sentPaymentIds[msg.sender].push(paymentId).sub(1);\n    uint256 receivedIndex = receivedPaymentIds[identifier].push(paymentId).sub(1);\n\n    EscrowedPayment storage newPayment = escrowedPayments[paymentId];\n    require(newPayment.timestamp == 0, \"paymentId already used\");\n    newPayment.recipientIdentifier = identifier;\n    newPayment.sender = msg.sender;\n    newPayment.token = token;\n    newPayment.value = value;\n    newPayment.sentIndex = sentIndex;\n    newPayment.receivedIndex = receivedIndex;\n    newPayment.timestamp = block.timestamp;\n    newPayment.expirySeconds = expirySeconds;\n    newPayment.minAttestations = minAttestations;\n\n    // Avoid unnecessary storage write\n    if (trustedIssuers.length > 0) {\n      trustedIssuersPerPayment[paymentId] = trustedIssuers;\n    }\n\n    ERC20(token).safeTransferFrom(msg.sender, address(this), value);\n    emit Transfer(msg.sender, identifier, token, value, paymentId, minAttestations);\n    // Split into a second event for ABI backwards compatibility\n    emit TrustedIssuersSet(paymentId, trustedIssuers);\n    return true;\n  }\n\n  /**\n  * @notice Deletes the payment from its receiver's and sender's lists of payments,\n  * and zeroes out all the data in the struct.\n  * @param paymentId The ID of the payment to be deleted.\n  */\n  function deletePayment(address paymentId) private {\n    EscrowedPayment storage payment = escrowedPayments[paymentId];\n    address[] storage received = receivedPaymentIds[payment.recipientIdentifier];\n    address[] storage sent = sentPaymentIds[payment.sender];\n\n    escrowedPayments[received[received.length - 1]].receivedIndex = payment.receivedIndex;\n    received[payment.receivedIndex] = received[received.length - 1];\n    received.length = received.length.sub(1);\n\n    escrowedPayments[sent[sent.length - 1]].sentIndex = payment.sentIndex;\n    sent[payment.sentIndex] = sent[sent.length - 1];\n    sent.length = sent.length.sub(1);\n\n    delete escrowedPayments[paymentId];\n    delete trustedIssuersPerPayment[paymentId];\n    emit TrustedIssuersUnset(paymentId);\n  }\n}\n",
  "sourcePath": "/Users/beaver/Development/celo/celo-monorepo/packages/protocol/contracts/identity/Escrow.sol",
  "compiler": {
    "name": "solc",
    "version": "0.5.13+commit.5b0b510c.Emscripten.clang"
  },
  "schemaVersion": "3.4.13",
  "updatedAt": "2024-03-05T15:27:45.454Z",
  "networkType": "ethereum",
  "devdoc": {
    "methods": {
      "addDefaultTrustedIssuer(address)": {
        "details": "Throws if trustedIssuer is null or already in defaultTrustedIssuers.Throws if defaultTrustedIssuers is already at max allowed length.",
        "params": {
          "trustedIssuer": "Address of the trustedIssuer to add."
        }
      },
      "constructor": {
        "params": {
          "test": "Set to true to skip implementation initialization"
        }
      },
      "getDefaultTrustedIssuers()": {
        "return": "An array of addresses of trusted issuers."
      },
      "getReceivedPaymentIds(bytes32)": {
        "params": {
          "identifier": "The hash of an identifier of the receiver of the escrowed payment."
        },
        "return": "An array containing all the IDs of the Escrowed Payments that were received by the specified receiver."
      },
      "getSentPaymentIds(address)": {
        "params": {
          "sender": "The address of the sender of the escrowed payments."
        },
        "return": "An array containing all the IDs of the Escrowed Payments that were sent by the specified sender."
      },
      "getTrustedIssuersPerPayment(address)": {
        "params": {
          "paymentId": "The ID of the payment to get."
        },
        "return": "An array of addresses of trusted issuers set for an escrowed payment."
      },
      "getVersionNumber()": {
        "return": "Storage version of the contract.Major version of the contract.Minor version of the contract.Patch version of the contract."
      },
      "isOwner()": {
        "details": "Returns true if the caller is the current owner."
      },
      "owner()": {
        "details": "Returns the address of the current owner."
      },
      "removeDefaultTrustedIssuer(address,uint256)": {
        "details": "Throws if trustedIssuer is not in defaultTrustedIssuers at index.",
        "params": {
          "index": "Index of trustedIssuer in defaultTrustedIssuers.",
          "trustedIssuer": "Address of the trustedIssuer to remove."
        }
      },
      "renounceOwnership()": {
        "details": "Leaves the contract without owner. It will not be possible to call `onlyOwner` functions anymore. Can only be called by the current owner.     * NOTE: Renouncing ownership will leave the contract without an owner, thereby removing any functionality that is only available to the owner."
      },
      "revoke(address)": {
        "details": "Throws if 'token' or 'value' is 0.Throws if msg.sender is not the sender of payment.Throws if redeem time hasn't been reached yet.",
        "params": {
          "paymentId": "The ID for the EscrowedPayment struct that contains all relevant information."
        }
      },
      "transfer(bytes32,address,uint256,uint256,address,uint256)": {
        "details": "Throws if 'token' or 'value' is 0.Throws if identifier is null and minAttestations > 0.If minAttestations is 0, trustedIssuers will be set to empty list.msg.sender needs to have already approved this contract to transfer",
        "params": {
          "expirySeconds": "The number of seconds before the sender can revoke the payment.",
          "identifier": "The hashed identifier of a user to transfer to.",
          "minAttestations": "The min number of attestations required to withdraw the payment.",
          "paymentId": "The address of the temporary wallet associated with this payment. Users must       prove ownership of the corresponding private key to withdraw from escrow.",
          "token": "The token to be transferred.",
          "value": "The amount to be transferred."
        },
        "return": "True if transfer succeeded."
      },
      "transferOwnership(address)": {
        "details": "Transfers ownership of the contract to a new account (`newOwner`). Can only be called by the current owner."
      },
      "transferWithTrustedIssuers(bytes32,address,uint256,uint256,address,uint256,address[])": {
        "details": "Throws if 'token' or 'value' is 0.Throws if identifier is null and minAttestations > 0.Throws if minAttestations == 0 but trustedIssuers are provided.msg.sender needs to have already approved this contract to transfer.",
        "params": {
          "expirySeconds": "The number of seconds before the sender can revoke the payment.",
          "identifier": "The hashed identifier of a user to transfer to.",
          "minAttestations": "The min number of attestations required to withdraw the payment.",
          "paymentId": "The address of the temporary wallet associated with this payment. Users must       prove ownership of the corresponding private key to withdraw from escrow.",
          "token": "The token to be transferred.",
          "trustedIssuers": "Array of issuers whose attestations in FederatedAttestations.sol       will be accepted to prove ownership over an identifier.",
          "value": "The amount to be transferred."
        },
        "return": "True if transfer succeeded."
      },
      "withdraw(address,uint8,bytes32,bytes32)": {
        "details": "Throws if 'token' or 'value' is 0.Throws if msg.sender does not prove ownership of the withdraw key.",
        "params": {
          "paymentId": "The ID for the EscrowedPayment struct that contains all relevant information.",
          "r": "Output value r of the ECDSA signature.",
          "s": "Output value s of the ECDSA signature.",
          "v": "The recovery id of the incoming ECDSA signature."
        },
        "return": "True if withdraw succeeded."
      }
    }
  },
  "userdoc": {
    "methods": {
      "addDefaultTrustedIssuer(address)": {
        "notice": "Add an address to the defaultTrustedIssuers list."
      },
      "constructor": "Sets initialized == true on implementation contracts",
      "getDefaultTrustedIssuers()": {
        "notice": "Gets trusted issuers set as default for payments by `transfer` function."
      },
      "getReceivedPaymentIds(bytes32)": {
        "notice": "Gets array of all Escrowed Payments received by identifier."
      },
      "getSentPaymentIds(address)": {
        "notice": "Gets array of all Escrowed Payment IDs sent by sender."
      },
      "getTrustedIssuersPerPayment(address)": {
        "notice": "Gets array of all trusted issuers set per paymentId."
      },
      "getVersionNumber()": {
        "notice": "Returns the storage, major, minor, and patch version of the contract."
      },
      "initialize()": {
        "notice": "Used in place of the constructor to allow the contract to be upgradable via proxy."
      },
      "removeDefaultTrustedIssuer(address,uint256)": {
        "notice": "Remove an address from the defaultTrustedIssuers list."
      },
      "revoke(address)": {
        "notice": "Revokes tokens for a sender who is redeeming a payment after it has expired."
      },
      "transfer(bytes32,address,uint256,uint256,address,uint256)": {
        "notice": "Transfer tokens to a specific user. Supports both identity with privacy (an empty        identifier and 0 minAttestations) and without (with identifier and minAttestations).        Sets trustedIssuers to the issuers listed in `defaultTrustedIssuers`.        (To override this and set custom trusted issuers, use `transferWithTrustedIssuers`.)"
      },
      "transferWithTrustedIssuers(bytes32,address,uint256,uint256,address,uint256,address[])": {
        "notice": "Transfer tokens to a specific user. Supports both identity with privacy (an empty        identifier and 0 minAttestations) and without (with identifier        and attestations completed by trustedIssuers)."
      },
      "withdraw(address,uint8,bytes32,bytes32)": {
        "notice": "Withdraws tokens for a verified user."
      }
    }
  }
}