{
  "contractName": "FederatedAttestations",
  "abi": [
    {
      "inputs": [
        {
          "internalType": "bool",
          "name": "test",
          "type": "bool"
        }
      ],
      "payable": false,
      "stateMutability": "nonpayable",
      "type": "constructor"
    },
    {
      "anonymous": false,
      "inputs": [
        {
          "indexed": true,
          "internalType": "bytes32",
          "name": "identifier",
          "type": "bytes32"
        },
        {
          "indexed": true,
          "internalType": "address",
          "name": "issuer",
          "type": "address"
        },
        {
          "indexed": true,
          "internalType": "address",
          "name": "account",
          "type": "address"
        },
        {
          "indexed": false,
          "internalType": "address",
          "name": "signer",
          "type": "address"
        },
        {
          "indexed": false,
          "internalType": "uint64",
          "name": "issuedOn",
          "type": "uint64"
        },
        {
          "indexed": false,
          "internalType": "uint64",
          "name": "publishedOn",
          "type": "uint64"
        }
      ],
      "name": "AttestationRegistered",
      "type": "event"
    },
    {
      "anonymous": false,
      "inputs": [
        {
          "indexed": true,
          "internalType": "bytes32",
          "name": "identifier",
          "type": "bytes32"
        },
        {
          "indexed": true,
          "internalType": "address",
          "name": "issuer",
          "type": "address"
        },
        {
          "indexed": true,
          "internalType": "address",
          "name": "account",
          "type": "address"
        },
        {
          "indexed": false,
          "internalType": "address",
          "name": "signer",
          "type": "address"
        },
        {
          "indexed": false,
          "internalType": "uint64",
          "name": "issuedOn",
          "type": "uint64"
        },
        {
          "indexed": false,
          "internalType": "uint64",
          "name": "publishedOn",
          "type": "uint64"
        }
      ],
      "name": "AttestationRevoked",
      "type": "event"
    },
    {
      "anonymous": false,
      "inputs": [
        {
          "indexed": false,
          "internalType": "bytes32",
          "name": "eip712DomainSeparator",
          "type": "bytes32"
        }
      ],
      "name": "EIP712DomainSeparatorSet",
      "type": "event"
    },
    {
      "anonymous": false,
      "inputs": [
        {
          "indexed": true,
          "internalType": "address",
          "name": "previousOwner",
          "type": "address"
        },
        {
          "indexed": true,
          "internalType": "address",
          "name": "newOwner",
          "type": "address"
        }
      ],
      "name": "OwnershipTransferred",
      "type": "event"
    },
    {
      "constant": true,
      "inputs": [],
      "name": "EIP712_OWNERSHIP_ATTESTATION_TYPEHASH",
      "outputs": [
        {
          "internalType": "bytes32",
          "name": "",
          "type": "bytes32"
        }
      ],
      "payable": false,
      "stateMutability": "view",
      "type": "function"
    },
    {
      "constant": true,
      "inputs": [],
      "name": "MAX_ATTESTATIONS_PER_IDENTIFIER",
      "outputs": [
        {
          "internalType": "uint256",
          "name": "",
          "type": "uint256"
        }
      ],
      "payable": false,
      "stateMutability": "view",
      "type": "function"
    },
    {
      "constant": true,
      "inputs": [],
      "name": "MAX_IDENTIFIERS_PER_ADDRESS",
      "outputs": [
        {
          "internalType": "uint256",
          "name": "",
          "type": "uint256"
        }
      ],
      "payable": false,
      "stateMutability": "view",
      "type": "function"
    },
    {
      "constant": true,
      "inputs": [
        {
          "internalType": "address",
          "name": "",
          "type": "address"
        },
        {
          "internalType": "address",
          "name": "",
          "type": "address"
        },
        {
          "internalType": "uint256",
          "name": "",
          "type": "uint256"
        }
      ],
      "name": "addressToIdentifiers",
      "outputs": [
        {
          "internalType": "bytes32",
          "name": "",
          "type": "bytes32"
        }
      ],
      "payable": false,
      "stateMutability": "view",
      "type": "function"
    },
    {
      "constant": true,
      "inputs": [],
      "name": "eip712DomainSeparator",
      "outputs": [
        {
          "internalType": "bytes32",
          "name": "",
          "type": "bytes32"
        }
      ],
      "payable": false,
      "stateMutability": "view",
      "type": "function"
    },
    {
      "constant": true,
      "inputs": [
        {
          "internalType": "bytes32",
          "name": "",
          "type": "bytes32"
        },
        {
          "internalType": "address",
          "name": "",
          "type": "address"
        },
        {
          "internalType": "uint256",
          "name": "",
          "type": "uint256"
        }
      ],
      "name": "identifierToAttestations",
      "outputs": [
        {
          "internalType": "address",
          "name": "account",
          "type": "address"
        },
        {
          "internalType": "address",
          "name": "signer",
          "type": "address"
        },
        {
          "internalType": "uint64",
          "name": "issuedOn",
          "type": "uint64"
        },
        {
          "internalType": "uint64",
          "name": "publishedOn",
          "type": "uint64"
        }
      ],
      "payable": false,
      "stateMutability": "view",
      "type": "function"
    },
    {
      "constant": true,
      "inputs": [],
      "name": "initialized",
      "outputs": [
        {
          "internalType": "bool",
          "name": "",
          "type": "bool"
        }
      ],
      "payable": false,
      "stateMutability": "view",
      "type": "function"
    },
    {
      "constant": true,
      "inputs": [],
      "name": "isOwner",
      "outputs": [
        {
          "internalType": "bool",
          "name": "",
          "type": "bool"
        }
      ],
      "payable": false,
      "stateMutability": "view",
      "type": "function"
    },
    {
      "constant": true,
      "inputs": [],
      "name": "owner",
      "outputs": [
        {
          "internalType": "address",
          "name": "",
          "type": "address"
        }
      ],
      "payable": false,
      "stateMutability": "view",
      "type": "function"
    },
    {
      "constant": true,
      "inputs": [],
      "name": "registryContract",
      "outputs": [
        {
          "internalType": "contract IRegistry",
          "name": "",
          "type": "address"
        }
      ],
      "payable": false,
      "stateMutability": "view",
      "type": "function"
    },
    {
      "constant": false,
      "inputs": [],
      "name": "renounceOwnership",
      "outputs": [],
      "payable": false,
      "stateMutability": "nonpayable",
      "type": "function"
    },
    {
      "constant": true,
      "inputs": [
        {
          "internalType": "bytes32",
          "name": "",
          "type": "bytes32"
        }
      ],
      "name": "revokedAttestations",
      "outputs": [
        {
          "internalType": "bool",
          "name": "",
          "type": "bool"
        }
      ],
      "payable": false,
      "stateMutability": "view",
      "type": "function"
    },
    {
      "constant": false,
      "inputs": [
        {
          "internalType": "address",
          "name": "newOwner",
          "type": "address"
        }
      ],
      "name": "transferOwnership",
      "outputs": [],
      "payable": false,
      "stateMutability": "nonpayable",
      "type": "function"
    },
    {
      "constant": true,
      "inputs": [],
      "name": "getVersionNumber",
      "outputs": [
        {
          "internalType": "uint256",
          "name": "",
          "type": "uint256"
        },
        {
          "internalType": "uint256",
          "name": "",
          "type": "uint256"
        },
        {
          "internalType": "uint256",
          "name": "",
          "type": "uint256"
        },
        {
          "internalType": "uint256",
          "name": "",
          "type": "uint256"
        }
      ],
      "payable": false,
      "stateMutability": "pure",
      "type": "function"
    },
    {
      "constant": false,
      "inputs": [],
      "name": "initialize",
      "outputs": [],
      "payable": false,
      "stateMutability": "nonpayable",
      "type": "function"
    },
    {
      "constant": false,
      "inputs": [
        {
          "internalType": "bytes32",
          "name": "identifier",
          "type": "bytes32"
        },
        {
          "internalType": "address",
          "name": "account",
          "type": "address"
        },
        {
          "internalType": "uint64",
          "name": "issuedOn",
          "type": "uint64"
        }
      ],
      "name": "registerAttestationAsIssuer",
      "outputs": [],
      "payable": false,
      "stateMutability": "nonpayable",
      "type": "function"
    },
    {
      "constant": false,
      "inputs": [
        {
          "internalType": "bytes32",
          "name": "identifier",
          "type": "bytes32"
        },
        {
          "internalType": "address",
          "name": "issuer",
          "type": "address"
        },
        {
          "internalType": "address",
          "name": "account",
          "type": "address"
        },
        {
          "internalType": "address",
          "name": "signer",
          "type": "address"
        },
        {
          "internalType": "uint64",
          "name": "issuedOn",
          "type": "uint64"
        },
        {
          "internalType": "uint8",
          "name": "v",
          "type": "uint8"
        },
        {
          "internalType": "bytes32",
          "name": "r",
          "type": "bytes32"
        },
        {
          "internalType": "bytes32",
          "name": "s",
          "type": "bytes32"
        }
      ],
      "name": "registerAttestation",
      "outputs": [],
      "payable": false,
      "stateMutability": "nonpayable",
      "type": "function"
    },
    {
      "constant": false,
      "inputs": [
        {
          "internalType": "bytes32",
          "name": "identifier",
          "type": "bytes32"
        },
        {
          "internalType": "address",
          "name": "issuer",
          "type": "address"
        },
        {
          "internalType": "address",
          "name": "account",
          "type": "address"
        }
      ],
      "name": "revokeAttestation",
      "outputs": [],
      "payable": false,
      "stateMutability": "nonpayable",
      "type": "function"
    },
    {
      "constant": false,
      "inputs": [
        {
          "internalType": "address",
          "name": "issuer",
          "type": "address"
        },
        {
          "internalType": "bytes32[]",
          "name": "identifiers",
          "type": "bytes32[]"
        },
        {
          "internalType": "address[]",
          "name": "accounts",
          "type": "address[]"
        }
      ],
      "name": "batchRevokeAttestations",
      "outputs": [],
      "payable": false,
      "stateMutability": "nonpayable",
      "type": "function"
    },
    {
      "constant": true,
      "inputs": [
        {
          "internalType": "bytes32",
          "name": "identifier",
          "type": "bytes32"
        },
        {
          "internalType": "address[]",
          "name": "trustedIssuers",
          "type": "address[]"
        }
      ],
      "name": "lookupAttestations",
      "outputs": [
        {
          "internalType": "uint256[]",
          "name": "countsPerIssuer",
          "type": "uint256[]"
        },
        {
          "internalType": "address[]",
          "name": "accounts",
          "type": "address[]"
        },
        {
          "internalType": "address[]",
          "name": "signers",
          "type": "address[]"
        },
        {
          "internalType": "uint64[]",
          "name": "issuedOns",
          "type": "uint64[]"
        },
        {
          "internalType": "uint64[]",
          "name": "publishedOns",
          "type": "uint64[]"
        }
      ],
      "payable": false,
      "stateMutability": "view",
      "type": "function"
    },
    {
      "constant": true,
      "inputs": [
        {
          "internalType": "address",
          "name": "account",
          "type": "address"
        },
        {
          "internalType": "address[]",
          "name": "trustedIssuers",
          "type": "address[]"
        }
      ],
      "name": "lookupIdentifiers",
      "outputs": [
        {
          "internalType": "uint256[]",
          "name": "countsPerIssuer",
          "type": "uint256[]"
        },
        {
          "internalType": "bytes32[]",
          "name": "identifiers",
          "type": "bytes32[]"
        }
      ],
      "payable": false,
      "stateMutability": "view",
      "type": "function"
    },
    {
      "constant": true,
      "inputs": [
        {
          "internalType": "bytes32",
          "name": "identifier",
          "type": "bytes32"
        },
        {
          "internalType": "address",
          "name": "issuer",
          "type": "address"
        },
        {
          "internalType": "address",
          "name": "account",
          "type": "address"
        },
        {
          "internalType": "address",
          "name": "signer",
          "type": "address"
        },
        {
          "internalType": "uint64",
          "name": "issuedOn",
          "type": "uint64"
        },
        {
          "internalType": "uint8",
          "name": "v",
          "type": "uint8"
        },
        {
          "internalType": "bytes32",
          "name": "r",
          "type": "bytes32"
        },
        {
          "internalType": "bytes32",
          "name": "s",
          "type": "bytes32"
        }
      ],
      "name": "validateAttestationSig",
      "outputs": [],
      "payable": false,
      "stateMutability": "view",
      "type": "function"
    },
    {
      "constant": true,
      "inputs": [
        {
          "internalType": "bytes32",
          "name": "identifier",
          "type": "bytes32"
        },
        {
          "internalType": "address",
          "name": "issuer",
          "type": "address"
        },
        {
          "internalType": "address",
          "name": "account",
          "type": "address"
        },
        {
          "internalType": "address",
          "name": "signer",
          "type": "address"
        },
        {
          "internalType": "uint64",
          "name": "issuedOn",
          "type": "uint64"
        }
      ],
      "name": "getUniqueAttestationHash",
      "outputs": [
        {
          "internalType": "bytes32",
          "name": "",
          "type": "bytes32"
        }
      ],
      "payable": false,
      "stateMutability": "pure",
      "type": "function"
    }
  ],
  "bytecode": "0x60806040523480156200001157600080fd5b506040516200389e3803806200389e833981810160405260208110156200003757600080fd5b81019080805190602001909291905050508060006200005b6200012360201b60201c565b9050806000806101000a81548173ffffffffffffffffffffffffffffffffffffffff021916908373ffffffffffffffffffffffffffffffffffffffff1602179055508073ffffffffffffffffffffffffffffffffffffffff16600073ffffffffffffffffffffffffffffffffffffffff167f8be0079c531659141344cd1fd0a4f28419497f9722a3daafe3b4186f6b6457e060405160405180910390a350806200011b576001600060146101000a81548160ff0219169083151502179055505b50506200012b565b600033905090565b613763806200013b6000396000f3fe608060405234801561001057600080fd5b506004361061014d5760003560e01c80638129fc1c116100c3578063b4b773421161007c578063b4b7734214610889578063b71aae46146108a7578063cba33ce01461096b578063e27ff311146109ed578063e3a1b7c614610adb578063f2fde38b14610bdc5761014d565b80638129fc1c146105395780638da5cb5b146105435780638f32d59b1461058d57806394b09057146105af5780639b43e48014610673578063a862e12e146106915761014d565b80635b07fdd8116101155780635b07fdd8146103155780635fa2fc30146103335780636125a6c214610379578063715018a6146104af57806373dfde98146104b95780637e68298d1461051b5761014d565b80630ab3ddc6146101525780631100b32414610208578063158ef93e1461027657806328c1f99b1461029857806354255be0146102e2575b600080fd5b6101f2600480360360a081101561016857600080fd5b8101908080359060200190929190803573ffffffffffffffffffffffffffffffffffffffff169060200190929190803573ffffffffffffffffffffffffffffffffffffffff169060200190929190803573ffffffffffffffffffffffffffffffffffffffff169060200190929190803567ffffffffffffffff169060200190929190505050610c20565b6040518082815260200191505060405180910390f35b6102746004803603606081101561021e57600080fd5b8101908080359060200190929190803573ffffffffffffffffffffffffffffffffffffffff169060200190929190803573ffffffffffffffffffffffffffffffffffffffff169060200190929190505050610d48565b005b61027e610f06565b604051808215151515815260200191505060405180910390f35b6102a0610f19565b604051808273ffffffffffffffffffffffffffffffffffffffff1673ffffffffffffffffffffffffffffffffffffffff16815260200191505060405180910390f35b6102ea610f1f565b6040518085815260200184815260200183815260200182815260200194505050505060405180910390f35b61031d610f45565b6040518082815260200191505060405180910390f35b61035f6004803603602081101561034957600080fd5b8101908080359060200190929190505050610f4b565b604051808215151515815260200191505060405180910390f35b6104106004803603604081101561038f57600080fd5b81019080803573ffffffffffffffffffffffffffffffffffffffff169060200190929190803590602001906401000000008111156103cc57600080fd5b8201836020820111156103de57600080fd5b8035906020019184602083028401116401000000008311171561040057600080fd5b9091929391929390505050610f6b565b604051808060200180602001838103835285818151815260200191508051906020019060200280838360005b8381101561045757808201518184015260208101905061043c565b50505050905001838103825284818151815260200191508051906020019060200280838360005b8381101561049957808201518184015260208101905061047e565b5050505090500194505050505060405180910390f35b6104b761119c565b005b610519600480360360608110156104cf57600080fd5b8101908080359060200190929190803573ffffffffffffffffffffffffffffffffffffffff169060200190929190803567ffffffffffffffff1690602001909291905050506112d5565b005b6105236112e7565b6040518082815260200191505060405180910390f35b61054161131f565b005b61054b6113d0565b604051808273ffffffffffffffffffffffffffffffffffffffff1673ffffffffffffffffffffffffffffffffffffffff16815260200191505060405180910390f35b6105956113f9565b604051808215151515815260200191505060405180910390f35b61067160048036036101008110156105c657600080fd5b8101908080359060200190929190803573ffffffffffffffffffffffffffffffffffffffff169060200190929190803573ffffffffffffffffffffffffffffffffffffffff169060200190929190803573ffffffffffffffffffffffffffffffffffffffff169060200190929190803567ffffffffffffffff169060200190929190803560ff1690602001909291908035906020019092919080359060200190929190505050611457565b005b61067b61170d565b6040518082815260200191505060405180910390f35b610712600480360360408110156106a757600080fd5b8101908080359060200190929190803590602001906401000000008111156106ce57600080fd5b8201836020820111156106e057600080fd5b8035906020019184602083028401116401000000008311171561070257600080fd5b9091929391929390505050611712565b60405180806020018060200180602001806020018060200186810386528b818151815260200191508051906020019060200280838360005b8381101561076557808201518184015260208101905061074a565b5050505090500186810385528a818151815260200191508051906020019060200280838360005b838110156107a757808201518184015260208101905061078c565b50505050905001868103845289818151815260200191508051906020019060200280838360005b838110156107e95780820151818401526020810190506107ce565b50505050905001868103835288818151815260200191508051906020019060200280838360005b8381101561082b578082015181840152602081019050610810565b50505050905001868103825287818151815260200191508051906020019060200280838360005b8381101561086d578082015181840152602081019050610852565b505050509050019a505050505050505050505060405180910390f35b610891611bef565b6040518082815260200191505060405180910390f35b61096960048036036101008110156108be57600080fd5b8101908080359060200190929190803573ffffffffffffffffffffffffffffffffffffffff169060200190929190803573ffffffffffffffffffffffffffffffffffffffff169060200190929190803573ffffffffffffffffffffffffffffffffffffffff169060200190929190803567ffffffffffffffff169060200190929190803560ff1690602001909291908035906020019092919080359060200190929190505050611bf4565b005b6109d76004803603606081101561098157600080fd5b81019080803573ffffffffffffffffffffffffffffffffffffffff169060200190929190803573ffffffffffffffffffffffffffffffffffffffff16906020019092919080359060200190929190505050611c1b565b6040518082815260200191505060405180910390f35b610ad960048036036060811015610a0357600080fd5b81019080803573ffffffffffffffffffffffffffffffffffffffff16906020019092919080359060200190640100000000811115610a4057600080fd5b820183602082011115610a5257600080fd5b80359060200191846020830284011164010000000083111715610a7457600080fd5b909192939192939080359060200190640100000000811115610a9557600080fd5b820183602082011115610aa757600080fd5b80359060200191846020830284011164010000000083111715610ac957600080fd5b9091929391929390505050611c56565b005b610b3160048036036060811015610af157600080fd5b8101908080359060200190929190803573ffffffffffffffffffffffffffffffffffffffff16906020019092919080359060200190929190505050611ea5565b604051808573ffffffffffffffffffffffffffffffffffffffff1673ffffffffffffffffffffffffffffffffffffffff1681526020018473ffffffffffffffffffffffffffffffffffffffff1673ffffffffffffffffffffffffffffffffffffffff1681526020018367ffffffffffffffff1667ffffffffffffffff1681526020018267ffffffffffffffff1667ffffffffffffffff16815260200194505050505060405180910390f35b610c1e60048036036020811015610bf257600080fd5b81019080803573ffffffffffffffffffffffffffffffffffffffff169060200190929190505050611f64565b005b600060405160200180806136be6037913960370180613572602f9139602f019050604051602081830303815290604052805190602001208686868686604051602001808781526020018681526020018573ffffffffffffffffffffffffffffffffffffffff1673ffffffffffffffffffffffffffffffffffffffff1681526020018473ffffffffffffffffffffffffffffffffffffffff1673ffffffffffffffffffffffffffffffffffffffff1681526020018373ffffffffffffffffffffffffffffffffffffffff1673ffffffffffffffffffffffffffffffffffffffff1681526020018267ffffffffffffffff1667ffffffffffffffff168152602001965050505050505060405160208183030381529060405280519060200120905095945050505050565b3373ffffffffffffffffffffffffffffffffffffffff168173ffffffffffffffffffffffffffffffffffffffff161480610dad57503373ffffffffffffffffffffffffffffffffffffffff168273ffffffffffffffffffffffffffffffffffffffff16145b80610ea157508173ffffffffffffffffffffffffffffffffffffffff16610dd2611fea565b73ffffffffffffffffffffffffffffffffffffffff16637b2434cb336040518263ffffffff1660e01b8152600401808273ffffffffffffffffffffffffffffffffffffffff1673ffffffffffffffffffffffffffffffffffffffff16815260200191505060206040518083038186803b158015610e4e57600080fd5b505afa158015610e62573d6000803e3d6000fd5b505050506040513d6020811015610e7857600080fd5b810190808051906020019092919050505073ffffffffffffffffffffffffffffffffffffffff16145b610ef6576040517f08c379a000000000000000000000000000000000000000000000000000000000815260040180806020018281038252603a8152602001806136f5603a913960400191505060405180910390fd5b610f018383836120c5565b505050565b600060149054906101000a900460ff1681565b61ce1081565b600080600080600180600080839350829250819150809050935093509350935090919293565b60045481565b60036020528060005260406000206000915054906101000a900460ff1681565b6060806000610fbb86868680806020026020016040519081016040528093929190818152602001838360200280828437600081840152601f19601f82011690508083019250505050505050612807565b809450819250505080604051908082528060200260200182016040528015610ff25781602001602082028038833980820191505090505b5091506060600080905060008090505b8787905081101561118a57600260008a73ffffffffffffffffffffffffffffffffffffffff1673ffffffffffffffffffffffffffffffffffffffff168152602001908152602001600020600089898481811061105a57fe5b9050602002013573ffffffffffffffffffffffffffffffffffffffff1673ffffffffffffffffffffffffffffffffffffffff1673ffffffffffffffffffffffffffffffffffffffff1681526020019081526020016000208054806020026020016040519081016040528092919081815260200182805480156110fb57602002820191906000526020600020905b8154815260200190600101908083116110e7575b5050505050925060008090505b835181101561116e5783818151811061111d57fe5b602002602001015186848151811061113157fe5b60200260200101818152505061115160018461294090919063ffffffff16565b925061116760018261294090919063ffffffff16565b9050611108565b5061118360018261294090919063ffffffff16565b9050611002565b50848494509450505050935093915050565b6111a46113f9565b611216576040517f08c379a00000000000000000000000000000000000000000000000000000000081526004018080602001828103825260208152602001807f4f776e61626c653a2063616c6c6572206973206e6f7420746865206f776e657281525060200191505060405180910390fd5b600073ffffffffffffffffffffffffffffffffffffffff166000809054906101000a900473ffffffffffffffffffffffffffffffffffffffff1673ffffffffffffffffffffffffffffffffffffffff167f8be0079c531659141344cd1fd0a4f28419497f9722a3daafe3b4186f6b6457e060405160405180910390a360008060006101000a81548173ffffffffffffffffffffffffffffffffffffffff021916908373ffffffffffffffffffffffffffffffffffffffff160217905550565b6112e283338433856129c8565b505050565b60405160200180806136be6037913960370180613572602f9139602f0190506040516020818303038152906040528051906020012081565b600060149054906101000a900460ff16156113a2576040517f08c379a000000000000000000000000000000000000000000000000000000000815260040180806020018281038252601c8152602001807f636f6e747261637420616c726561647920696e697469616c697a65640000000081525060200191505060405180910390fd5b6001600060146101000a81548160ff0219169083151502179055506113c6336130a9565b6113ce6131ed565b565b60008060009054906101000a900473ffffffffffffffffffffffffffffffffffffffff16905090565b60008060009054906101000a900473ffffffffffffffffffffffffffffffffffffffff1673ffffffffffffffffffffffffffffffffffffffff1661143b613330565b73ffffffffffffffffffffffffffffffffffffffff1614905090565b8673ffffffffffffffffffffffffffffffffffffffff16611476611fea565b73ffffffffffffffffffffffffffffffffffffffff16637b2434cb876040518263ffffffff1660e01b8152600401808273ffffffffffffffffffffffffffffffffffffffff1673ffffffffffffffffffffffffffffffffffffffff16815260200191505060206040518083038186803b1580156114f257600080fd5b505afa158015611506573d6000803e3d6000fd5b505050506040513d602081101561151c57600080fd5b810190808051906020019092919050505073ffffffffffffffffffffffffffffffffffffffff1614611599576040517f08c379a00000000000000000000000000000000000000000000000000000000081526004018080602001828103825260458152602001806134ae6045913960600191505060405180910390fd5b60006115a88989898989610c20565b9050600073__Signatures____________________________6334d1a233600454848888886040518663ffffffff1660e01b8152600401808681526020018581526020018460ff1660ff1681526020018381526020018281526020019550505050505060206040518083038186803b15801561162357600080fd5b505af4158015611637573d6000803e3d6000fd5b505050506040513d602081101561164d57600080fd5b810190808051906020019092919050505090508673ffffffffffffffffffffffffffffffffffffffff168173ffffffffffffffffffffffffffffffffffffffff1614611701576040517f08c379a00000000000000000000000000000000000000000000000000000000081526004018080602001828103825260148152602001807f5369676e617475726520697320696e76616c696400000000000000000000000081525060200191505060405180910390fd5b50505050505050505050565b601481565b6060806060806060600061176789898980806020026020016040519081016040528093929190818152602001838360200280828437600081840152601f19601f82011690508083019250505050505050613338565b80975081925050508060405190808252806020026020018201604052801561179e5781602001602082028038833980820191505090505b509450806040519080825280602002602001820160405280156117d05781602001602082028038833980820191505090505b509350806040519080825280602002602001820160405280156118025781602001602082028038833980820191505090505b509250806040519080825280602002602001820160405280156118345781602001602082028038833980820191505090505b50915060009050606060008090505b89899050811015611bd257600160008c815260200190815260200160002060008b8b8481811061186f57fe5b9050602002013573ffffffffffffffffffffffffffffffffffffffff1673ffffffffffffffffffffffffffffffffffffffff1673ffffffffffffffffffffffffffffffffffffffff168152602001908152602001600020805480602002602001604051908101604052809291908181526020016000905b82821015611a2857838290600052602060002090600302016040518060800160405290816000820160009054906101000a900473ffffffffffffffffffffffffffffffffffffffff1673ffffffffffffffffffffffffffffffffffffffff1673ffffffffffffffffffffffffffffffffffffffff1681526020016001820160009054906101000a900473ffffffffffffffffffffffffffffffffffffffff1673ffffffffffffffffffffffffffffffffffffffff1673ffffffffffffffffffffffffffffffffffffffff1681526020016001820160149054906101000a900467ffffffffffffffff1667ffffffffffffffff1667ffffffffffffffff1681526020016002820160009054906101000a900467ffffffffffffffff1667ffffffffffffffff1667ffffffffffffffff1681525050815260200190600101906118e6565b50505050915060008090505b8251811015611bb657828181518110611a4957fe5b602002602001015160000151888581518110611a6157fe5b602002602001019073ffffffffffffffffffffffffffffffffffffffff16908173ffffffffffffffffffffffffffffffffffffffff1681525050828181518110611aa757fe5b602002602001015160200151878581518110611abf57fe5b602002602001019073ffffffffffffffffffffffffffffffffffffffff16908173ffffffffffffffffffffffffffffffffffffffff1681525050828181518110611b0557fe5b602002602001015160400151868581518110611b1d57fe5b602002602001019067ffffffffffffffff16908167ffffffffffffffff1681525050828181518110611b4b57fe5b602002602001015160600151858581518110611b6357fe5b602002602001019067ffffffffffffffff16908167ffffffffffffffff1681525050611b9960018561294090919063ffffffff16565b9350611baf60018261294090919063ffffffff16565b9050611a34565b50611bcb60018261294090919063ffffffff16565b9050611843565b508686868686965096509650965096505050939792965093509350565b601481565b611c048888888888888888611457565b611c1188888888886129c8565b5050505050505050565b60026020528260005260406000206020528160005260406000208181548110611c4057fe5b9060005260206000200160009250925050505481565b818190508484905014611cb4576040517f08c379a000000000000000000000000000000000000000000000000000000000815260040180806020018281038252602a815260200180613625602a913960400191505060405180910390fd5b3373ffffffffffffffffffffffffffffffffffffffff168573ffffffffffffffffffffffffffffffffffffffff161480611dd757508473ffffffffffffffffffffffffffffffffffffffff16611d08611fea565b73ffffffffffffffffffffffffffffffffffffffff16637b2434cb336040518263ffffffff1660e01b8152600401808273ffffffffffffffffffffffffffffffffffffffff1673ffffffffffffffffffffffffffffffffffffffff16815260200191505060206040518083038186803b158015611d8457600080fd5b505afa158015611d98573d6000803e3d6000fd5b505050506040513d6020811015611dae57600080fd5b810190808051906020019092919050505073ffffffffffffffffffffffffffffffffffffffff16145b611e2c576040517f08c379a00000000000000000000000000000000000000000000000000000000081526004018080602001828103825260478152602001806136776047913960600191505060405180910390fd5b60008090505b84849050811015611e9d57611e82858583818110611e4c57fe5b9050602002013587858585818110611e6057fe5b9050602002013573ffffffffffffffffffffffffffffffffffffffff166120c5565b611e9660018261294090919063ffffffff16565b9050611e32565b505050505050565b60016020528260005260406000206020528160005260406000208181548110611eca57fe5b906000526020600020906003020160009250925050508060000160009054906101000a900473ffffffffffffffffffffffffffffffffffffffff16908060010160009054906101000a900473ffffffffffffffffffffffffffffffffffffffff16908060010160149054906101000a900467ffffffffffffffff16908060020160009054906101000a900467ffffffffffffffff16905084565b611f6c6113f9565b611fde576040517f08c379a00000000000000000000000000000000000000000000000000000000081526004018080602001828103825260208152602001807f4f776e61626c653a2063616c6c6572206973206e6f7420746865206f776e657281525060200191505060405180910390fd5b611fe7816130a9565b50565b600061ce1073ffffffffffffffffffffffffffffffffffffffff1663dcf0aaed60405160200180807f4163636f756e74730000000000000000000000000000000000000000000000008152506008019050604051602081830303815290604052805190602001206040518263ffffffff1660e01b81526004018082815260200191505060206040518083038186803b15801561208557600080fd5b505afa158015612099573d6000803e3d6000fd5b505050506040513d60208110156120af57600080fd5b8101908080519060200190929190505050905090565b60006001600085815260200190815260200160002060008473ffffffffffffffffffffffffffffffffffffffff1673ffffffffffffffffffffffffffffffffffffffff168152602001908152602001600020905060008180549050905060008090505b818110156127b0578373ffffffffffffffffffffffffffffffffffffffff1683828154811061215357fe5b906000526020600020906003020160000160009054906101000a900473ffffffffffffffffffffffffffffffffffffffff1673ffffffffffffffffffffffffffffffffffffffff16146121a557612795565b6121ad613445565b8382815481106121b957fe5b90600052602060002090600302016040518060800160405290816000820160009054906101000a900473ffffffffffffffffffffffffffffffffffffffff1673ffffffffffffffffffffffffffffffffffffffff1673ffffffffffffffffffffffffffffffffffffffff1681526020016001820160009054906101000a900473ffffffffffffffffffffffffffffffffffffffff1673ffffffffffffffffffffffffffffffffffffffff1673ffffffffffffffffffffffffffffffffffffffff1681526020016001820160149054906101000a900467ffffffffffffffff1667ffffffffffffffff1667ffffffffffffffff1681526020016002820160009054906101000a900467ffffffffffffffff1667ffffffffffffffff1667ffffffffffffffff1681525050905060018303821461247d578360018403815481106122fd57fe5b906000526020600020906003020184838154811061231757fe5b90600052602060002090600302016000820160009054906101000a900473ffffffffffffffffffffffffffffffffffffffff168160000160006101000a81548173ffffffffffffffffffffffffffffffffffffffff021916908373ffffffffffffffffffffffffffffffffffffffff1602179055506001820160009054906101000a900473ffffffffffffffffffffffffffffffffffffffff168160010160006101000a81548173ffffffffffffffffffffffffffffffffffffffff021916908373ffffffffffffffffffffffffffffffffffffffff1602179055506001820160149054906101000a900467ffffffffffffffff168160010160146101000a81548167ffffffffffffffff021916908367ffffffffffffffff1602179055506002820160009054906101000a900467ffffffffffffffff168160020160006101000a81548167ffffffffffffffff021916908367ffffffffffffffff1602179055509050505b8380548061248757fe5b6001900381819060005260206000209060030201600080820160006101000a81549073ffffffffffffffffffffffffffffffffffffffff02191690556001820160006101000a81549073ffffffffffffffffffffffffffffffffffffffff02191690556001820160146101000a81549067ffffffffffffffff02191690556002820160006101000a81549067ffffffffffffffff02191690555050905560008090506000600260008873ffffffffffffffffffffffffffffffffffffffff1673ffffffffffffffffffffffffffffffffffffffff16815260200190815260200160002060008973ffffffffffffffffffffffffffffffffffffffff1673ffffffffffffffffffffffffffffffffffffffff168152602001908152602001600020905060008180549050905060008090505b81811015612665578a8382815481106125cd57fe5b9060005260206000200154146125e25761264a565b600182038114612621578260018303815481106125fb57fe5b906000526020600020015483828154811061261257fe5b90600052602060002001819055505b8280548061262b57fe5b6001900381819060005260206000200160009055905560019350612665565b61265e60018261294090919063ffffffff16565b90506125b8565b508261266d57fe5b60006126848b8b8b88602001518960400151610c20565b905060016003600083815260200190815260200160002060006101000a81548160ff0219169083151502179055508873ffffffffffffffffffffffffffffffffffffffff168a73ffffffffffffffffffffffffffffffffffffffff168c7f0e809784d3b3d167f6c74498bc305f88df3512e888b4f0b7fa5f6d06c10a962e886020015189604001518a60600151604051808473ffffffffffffffffffffffffffffffffffffffff1673ffffffffffffffffffffffffffffffffffffffff1681526020018367ffffffffffffffff1667ffffffffffffffff1681526020018267ffffffffffffffff1667ffffffffffffffff168152602001935050505060405180910390a45050505050505050612802565b6127a960018261294090919063ffffffff16565b9050612128565b506040517f08c379a000000000000000000000000000000000000000000000000000000000815260040180806020018281038252602881526020018061364f6028913960400191505060405180910390fd5b505050565b6000606060009150600083516040519080825280602002602001820160405280156128415781602001602082028038833980820191505090505b50915060008090505b845181101561293157600260008773ffffffffffffffffffffffffffffffffffffffff1673ffffffffffffffffffffffffffffffffffffffff16815260200190815260200160002060008683815181106128a057fe5b602002602001015173ffffffffffffffffffffffffffffffffffffffff1673ffffffffffffffffffffffffffffffffffffffff1681526020019081526020016000208054905091506128fb828561294090919063ffffffff16565b93508183828151811061290a57fe5b60200260200101818152505061292a60018261294090919063ffffffff16565b905061284a565b50828292509250509250929050565b6000808284019050838110156129be576040517f08c379a000000000000000000000000000000000000000000000000000000000815260040180806020018281038252601b8152602001807f536166654d6174683a206164646974696f6e206f766572666c6f77000000000081525060200191505060405180910390fd5b8091505092915050565b600360006129d98787878787610c20565b815260200190815260200160002060009054906101000a900460ff1615612a68576040517f08c379a000000000000000000000000000000000000000000000000000000000815260040180806020018281038252601c8152602001807f4174746573746174696f6e20686173206265656e207265766f6b65640000000081525060200191505060405180910390fd5b60006001600087815260200190815260200160002060008673ffffffffffffffffffffffffffffffffffffffff1673ffffffffffffffffffffffffffffffffffffffff1681526020019081526020016000208054905090506014612ad660018361294090919063ffffffff16565b1115612b2d576040517f08c379a00000000000000000000000000000000000000000000000000000000081526004018080602001828103825260328152602001806135a16032913960400191505060405180910390fd5b6014612bc26001600260008873ffffffffffffffffffffffffffffffffffffffff1673ffffffffffffffffffffffffffffffffffffffff16815260200190815260200160002060008973ffffffffffffffffffffffffffffffffffffffff1673ffffffffffffffffffffffffffffffffffffffff1681526020019081526020016000208054905061294090919063ffffffff16565b1115612c19576040517f08c379a000000000000000000000000000000000000000000000000000000000815260040180806020018281038252602e815260200180613544602e913960400191505060405180910390fd5b60008090505b81811015612d53578473ffffffffffffffffffffffffffffffffffffffff166001600089815260200190815260200160002060008873ffffffffffffffffffffffffffffffffffffffff1673ffffffffffffffffffffffffffffffffffffffff1681526020019081526020016000208281548110612c9957fe5b906000526020600020906003020160000160009054906101000a900473ffffffffffffffffffffffffffffffffffffffff1673ffffffffffffffffffffffffffffffffffffffff161415612d38576040517f08c379a000000000000000000000000000000000000000000000000000000000815260040180806020018281038252602b815260200180613519602b913960400191505060405180910390fd5b612d4c60018261294090919063ffffffff16565b9050612c1f565b506000429050612d61613445565b60405180608001604052808773ffffffffffffffffffffffffffffffffffffffff1681526020018673ffffffffffffffffffffffffffffffffffffffff1681526020018567ffffffffffffffff1681526020018367ffffffffffffffff1681525090506001600089815260200190815260200160002060008873ffffffffffffffffffffffffffffffffffffffff1673ffffffffffffffffffffffffffffffffffffffff168152602001908152602001600020819080600181540180825580915050906001820390600052602060002090600302016000909192909190915060008201518160000160006101000a81548173ffffffffffffffffffffffffffffffffffffffff021916908373ffffffffffffffffffffffffffffffffffffffff16021790555060208201518160010160006101000a81548173ffffffffffffffffffffffffffffffffffffffff021916908373ffffffffffffffffffffffffffffffffffffffff16021790555060408201518160010160146101000a81548167ffffffffffffffff021916908367ffffffffffffffff16021790555060608201518160020160006101000a81548167ffffffffffffffff021916908367ffffffffffffffff160217905550505050600260008773ffffffffffffffffffffffffffffffffffffffff1673ffffffffffffffffffffffffffffffffffffffff16815260200190815260200160002060008873ffffffffffffffffffffffffffffffffffffffff1673ffffffffffffffffffffffffffffffffffffffff1681526020019081526020016000208890806001815401808255809150509060018203906000526020600020016000909192909190915055508573ffffffffffffffffffffffffffffffffffffffff168773ffffffffffffffffffffffffffffffffffffffff16897f3ed7f328925f9f666cc51d584ea4f0260f040f224d26993c6f89a6eb9845ed6f888887604051808473ffffffffffffffffffffffffffffffffffffffff1673ffffffffffffffffffffffffffffffffffffffff1681526020018367ffffffffffffffff1667ffffffffffffffff1681526020018267ffffffffffffffff1667ffffffffffffffff168152602001935050505060405180910390a45050505050505050565b600073ffffffffffffffffffffffffffffffffffffffff168173ffffffffffffffffffffffffffffffffffffffff16141561312f576040517f08c379a00000000000000000000000000000000000000000000000000000000081526004018080602001828103825260268152602001806134f36026913960400191505060405180910390fd5b8073ffffffffffffffffffffffffffffffffffffffff166000809054906101000a900473ffffffffffffffffffffffffffffffffffffffff1673ffffffffffffffffffffffffffffffffffffffff167f8be0079c531659141344cd1fd0a4f28419497f9722a3daafe3b4186f6b6457e060405160405180910390a3806000806101000a81548173ffffffffffffffffffffffffffffffffffffffff021916908373ffffffffffffffffffffffffffffffffffffffff16021790555050565b600046905060405180806135d360529139605201905060405180910390206040518060400160405280601581526020017f4665646572617465644174746573746174696f6e7300000000000000000000008152508051906020012060405180807f312e300000000000000000000000000000000000000000000000000000000000815250600301905060405180910390208330604051602001808681526020018581526020018481526020018381526020018273ffffffffffffffffffffffffffffffffffffffff1673ffffffffffffffffffffffffffffffffffffffff16815260200195505050505050604051602081830303815290604052805190602001206004819055507ffc0bad7bd2704c62e2e5e69325dc36cb761ace9063381f1bf0152485a052526e6004546040518082815260200191505060405180910390a150565b600033905090565b6000606060009150600083516040519080825280602002602001820160405280156133725781602001602082028038833980820191505090505b50915060008090505b8451811015613436576001600087815260200190815260200160002060008683815181106133a557fe5b602002602001015173ffffffffffffffffffffffffffffffffffffffff1673ffffffffffffffffffffffffffffffffffffffff168152602001908152602001600020805490509150613400828561294090919063ffffffff16565b93508183828151811061340f57fe5b60200260200101818152505061342f60018261294090919063ffffffff16565b905061337b565b50828292509250509250929050565b6040518060800160405280600073ffffffffffffffffffffffffffffffffffffffff168152602001600073ffffffffffffffffffffffffffffffffffffffff168152602001600067ffffffffffffffff168152602001600067ffffffffffffffff168152509056fe5369676e6572206973206e6f7420612063757272656e746c7920617574686f72697a6564204174746573746174696f6e5369676e657220666f7220746865206973737565724f776e61626c653a206e6577206f776e657220697320746865207a65726f20616464726573734174746573746174696f6e20666f722074686973206163636f756e7420616c7265616479206578697374734d6178206964656e7469666965727320616c7265616479207265676973746572656420666f72206163636f756e7461646472657373206163636f756e742c61646472657373207369676e65722c75696e743634206973737565644f6e294d6178206174746573746174696f6e7320616c7265616479207265676973746572656420666f72206964656e746966696572454950373132446f6d61696e28737472696e67206e616d652c737472696e672076657273696f6e2c75696e7432353620636861696e49642c6164647265737320766572696679696e67436f6e747261637429556e657175616c206e756d626572206f66206964656e7469666965727320616e64206163636f756e74734174746573746174696f6e20746f206265207265766f6b656420646f6573206e6f7420657869737453656e64657220646f6573206e6f742068617665207065726d697373696f6e20746f207265766f6b65206174746573746174696f6e732066726f6d2074686973206973737565724f776e6572736869704174746573746174696f6e2862797465733332206964656e7469666965722c61646472657373206973737565722c53656e64657220646f6573206e6f742068617665207065726d697373696f6e20746f207265766f6b652074686973206174746573746174696f6ea265627a7a72315820fba0a8ce7a5876a9d5ee508135713cb2539ecd9a512c8baa7b8631811c8f6b3464736f6c634300050d0032",
  "source": "pragma solidity ^0.5.13;\n\nimport \"openzeppelin-solidity/contracts/math/SafeMath.sol\";\nimport \"openzeppelin-solidity/contracts/ownership/Ownable.sol\";\nimport \"openzeppelin-solidity/contracts/token/ERC20/IERC20.sol\";\nimport \"openzeppelin-solidity/contracts/utils/SafeCast.sol\";\n\nimport \"./interfaces/IFederatedAttestations.sol\";\nimport \"../common/interfaces/IAccounts.sol\";\nimport \"../common/interfaces/ICeloVersionedContract.sol\";\n\nimport \"../common/Initializable.sol\";\nimport \"../common/UsingRegistryV2.sol\";\nimport \"../common/Signatures.sol\";\n\n/**\n * @title Contract mapping identifiers to accounts\n */\ncontract FederatedAttestations is\n  IFederatedAttestations,\n  ICeloVersionedContract,\n  Ownable,\n  Initializable,\n  UsingRegistryV2\n{\n  using SafeMath for uint256;\n  using SafeCast for uint256;\n\n  struct OwnershipAttestation {\n    address account;\n    address signer;\n    uint64 issuedOn;\n    uint64 publishedOn;\n    // using uint64 to allow for extra space to add parameters\n  }\n\n  // Mappings from identifier <-> attestation are separated by issuer,\n  // *requiring* users to specify issuers when retrieving attestations.\n  // Maintaining bidirectional mappings (vs. in Attestations.sol) makes it possible\n  // to perform lookups by identifier or account without indexing event data.\n\n  // identifier -> issuer -> attestations\n  mapping(bytes32 => mapping(address => OwnershipAttestation[])) public identifierToAttestations;\n  // account -> issuer -> identifiers\n  mapping(address => mapping(address => bytes32[])) public addressToIdentifiers;\n\n  // unique attestation hash -> isRevoked\n  mapping(bytes32 => bool) public revokedAttestations;\n\n  bytes32 public eip712DomainSeparator;\n  bytes32 public constant EIP712_OWNERSHIP_ATTESTATION_TYPEHASH = keccak256(\n    abi.encodePacked(\n      \"OwnershipAttestation(bytes32 identifier,address issuer,\",\n      \"address account,address signer,uint64 issuedOn)\"\n    )\n  );\n\n  // Changing any of these constraints will require re-benchmarking\n  // and checking assumptions for batch revocation.\n  // These can only be modified by releasing a new version of this contract.\n  uint256 public constant MAX_ATTESTATIONS_PER_IDENTIFIER = 20;\n  uint256 public constant MAX_IDENTIFIERS_PER_ADDRESS = 20;\n\n  event EIP712DomainSeparatorSet(bytes32 eip712DomainSeparator);\n  event AttestationRegistered(\n    bytes32 indexed identifier,\n    address indexed issuer,\n    address indexed account,\n    address signer,\n    uint64 issuedOn,\n    uint64 publishedOn\n  );\n  event AttestationRevoked(\n    bytes32 indexed identifier,\n    address indexed issuer,\n    address indexed account,\n    address signer,\n    uint64 issuedOn,\n    uint64 publishedOn\n  );\n\n  /**\n   * @notice Sets initialized == true on implementation contracts\n   * @param test Set to true to skip implementation initialization\n   */\n  constructor(bool test) public Initializable(test) {}\n\n  /**\n   * @notice Returns the storage, major, minor, and patch version of the contract.\n   * @return The storage, major, minor, and patch version of the contract.\n   */\n  function getVersionNumber() external pure returns (uint256, uint256, uint256, uint256) {\n    return (1, 1, 0, 0);\n  }\n\n  /**\n   * @notice Used in place of the constructor to allow the contract to be upgradable via proxy.\n   */\n  function initialize() external initializer {\n    _transferOwnership(msg.sender);\n    setEip712DomainSeparator();\n  }\n\n  /**\n   * @notice Registers an attestation directly from the issuer\n   * @param identifier Hash of the identifier to be attested\n   * @param account Address of the account being mapped to the identifier\n   * @param issuedOn Time at which the issuer issued the attestation in Unix time \n   * @dev Attestation signer and issuer in storage is set to msg.sender\n   * @dev Throws if an attestation with the same (identifier, issuer, account) already exists\n   */\n  function registerAttestationAsIssuer(bytes32 identifier, address account, uint64 issuedOn)\n    external\n  {\n    _registerAttestation(identifier, msg.sender, account, msg.sender, issuedOn);\n  }\n\n  /**\n   * @notice Registers an attestation with a valid signature\n   * @param identifier Hash of the identifier to be attested\n   * @param issuer Address of the attestation issuer\n   * @param account Address of the account being mapped to the identifier\n   * @param issuedOn Time at which the issuer issued the attestation in Unix time \n   * @param signer Address of the signer of the attestation\n   * @param v The recovery id of the incoming ECDSA signature\n   * @param r Output value r of the ECDSA signature\n   * @param s Output value s of the ECDSA signature\n   * @dev Throws if an attestation with the same (identifier, issuer, account) already exists\n   */\n  function registerAttestation(\n    bytes32 identifier,\n    address issuer,\n    address account,\n    address signer,\n    uint64 issuedOn,\n    uint8 v,\n    bytes32 r,\n    bytes32 s\n  ) external {\n    validateAttestationSig(identifier, issuer, account, signer, issuedOn, v, r, s);\n    _registerAttestation(identifier, issuer, account, signer, issuedOn);\n  }\n\n  /**\n   * @notice Revokes an attestation \n   * @param identifier Hash of the identifier to be revoked\n   * @param issuer Address of the attestation issuer\n   * @param account Address of the account mapped to the identifier\n   * @dev Throws if sender is not the issuer, signer, or account\n   */\n  function revokeAttestation(bytes32 identifier, address issuer, address account) external {\n    require(\n      account == msg.sender ||\n        // Minor gas optimization to prevent storage lookup in Accounts.sol if issuer == msg.sender\n        issuer == msg.sender ||\n        getAccounts().attestationSignerToAccount(msg.sender) == issuer,\n      \"Sender does not have permission to revoke this attestation\"\n    );\n    _revokeAttestation(identifier, issuer, account);\n  }\n\n  /**\n   * @notice Revokes attestations [identifiers <-> accounts] from issuer\n   * @param issuer Address of the issuer of all attestations to be revoked\n   * @param identifiers Hash of the identifiers\n   * @param accounts Addresses of the accounts mapped to the identifiers\n   *   at the same indices\n   * @dev Throws if the number of identifiers and accounts is not the same\n   * @dev Throws if sender is not the issuer or currently registered signer of issuer\n   * @dev Throws if an attestation is not found for identifiers[i] <-> accounts[i]\n   */\n  function batchRevokeAttestations(\n    address issuer,\n    bytes32[] calldata identifiers,\n    address[] calldata accounts\n  ) external {\n    require(identifiers.length == accounts.length, \"Unequal number of identifiers and accounts\");\n    require(\n      issuer == msg.sender || getAccounts().attestationSignerToAccount(msg.sender) == issuer,\n      \"Sender does not have permission to revoke attestations from this issuer\"\n    );\n\n    for (uint256 i = 0; i < identifiers.length; i = i.add(1)) {\n      _revokeAttestation(identifiers[i], issuer, accounts[i]);\n    }\n  }\n\n  /**\n   * @notice Returns info about attestations for `identifier` produced by \n   *    signers of `trustedIssuers`\n   * @param identifier Hash of the identifier\n   * @param trustedIssuers Array of n issuers whose attestations will be included\n   * @return countsPerIssuer Array of number of attestations returned per issuer\n   *          For m (== sum([0])) found attestations: \n   * @return accounts Array of m accounts \n   * @return signers Array of m signers\n   * @return issuedOns Array of m issuedOns\n   * @return publishedOns Array of m publishedOns\n   * @dev Adds attestation info to the arrays in order of provided trustedIssuers\n   * @dev Expectation that only one attestation exists per (identifier, issuer, account)\n   */\n  function lookupAttestations(bytes32 identifier, address[] calldata trustedIssuers)\n    external\n    view\n    returns (\n      uint256[] memory countsPerIssuer,\n      address[] memory accounts,\n      address[] memory signers,\n      uint64[] memory issuedOns,\n      uint64[] memory publishedOns\n    )\n  {\n    uint256 totalAttestations;\n    (totalAttestations, countsPerIssuer) = getNumAttestations(identifier, trustedIssuers);\n\n    accounts = new address[](totalAttestations);\n    signers = new address[](totalAttestations);\n    issuedOns = new uint64[](totalAttestations);\n    publishedOns = new uint64[](totalAttestations);\n\n    totalAttestations = 0;\n    OwnershipAttestation[] memory attestationsPerIssuer;\n\n    for (uint256 i = 0; i < trustedIssuers.length; i = i.add(1)) {\n      attestationsPerIssuer = identifierToAttestations[identifier][trustedIssuers[i]];\n      for (uint256 j = 0; j < attestationsPerIssuer.length; j = j.add(1)) {\n        accounts[totalAttestations] = attestationsPerIssuer[j].account;\n        signers[totalAttestations] = attestationsPerIssuer[j].signer;\n        issuedOns[totalAttestations] = attestationsPerIssuer[j].issuedOn;\n        publishedOns[totalAttestations] = attestationsPerIssuer[j].publishedOn;\n        totalAttestations = totalAttestations.add(1);\n      }\n    }\n    return (countsPerIssuer, accounts, signers, issuedOns, publishedOns);\n  }\n\n  /**\n   * @notice Returns identifiers mapped to `account` by signers of `trustedIssuers`\n   * @param account Address of the account\n   * @param trustedIssuers Array of n issuers whose identifier mappings will be used\n   * @return countsPerIssuer Array of number of identifiers returned per issuer\n   * @return identifiers Array (length == sum([0])) of identifiers\n   * @dev Adds identifier info to the arrays in order of provided trustedIssuers\n   * @dev Expectation that only one attestation exists per (identifier, issuer, account)\n   */\n  function lookupIdentifiers(address account, address[] calldata trustedIssuers)\n    external\n    view\n    returns (uint256[] memory countsPerIssuer, bytes32[] memory identifiers)\n  {\n    uint256 totalIdentifiers;\n    (totalIdentifiers, countsPerIssuer) = getNumIdentifiers(account, trustedIssuers);\n\n    identifiers = new bytes32[](totalIdentifiers);\n    bytes32[] memory identifiersPerIssuer;\n\n    uint256 currIndex = 0;\n\n    for (uint256 i = 0; i < trustedIssuers.length; i = i.add(1)) {\n      identifiersPerIssuer = addressToIdentifiers[account][trustedIssuers[i]];\n      for (uint256 j = 0; j < identifiersPerIssuer.length; j = j.add(1)) {\n        identifiers[currIndex] = identifiersPerIssuer[j];\n        currIndex = currIndex.add(1);\n      }\n    }\n    return (countsPerIssuer, identifiers);\n  }\n\n  /**\n   * @notice Validates the given attestation and signature\n   * @param identifier Hash of the identifier to be attested\n   * @param issuer Address of the attestation issuer\n   * @param account Address of the account being mapped to the identifier\n   * @param issuedOn Time at which the issuer issued the attestation in Unix time \n   * @param signer Address of the signer of the attestation\n   * @param v The recovery id of the incoming ECDSA signature\n   * @param r Output value r of the ECDSA signature\n   * @param s Output value s of the ECDSA signature\n   * @dev Throws if attestation has been revoked\n   * @dev Throws if signer is not an authorized AttestationSigner of the issuer\n   */\n  function validateAttestationSig(\n    bytes32 identifier,\n    address issuer,\n    address account,\n    address signer,\n    uint64 issuedOn,\n    uint8 v,\n    bytes32 r,\n    bytes32 s\n  ) public view {\n    // attestationSignerToAccount instead of isSigner allows the issuer to act as its own signer\n    require(\n      getAccounts().attestationSignerToAccount(signer) == issuer,\n      \"Signer is not a currently authorized AttestationSigner for the issuer\"\n    );\n    bytes32 structHash = getUniqueAttestationHash(identifier, issuer, account, signer, issuedOn);\n    address guessedSigner = Signatures.getSignerOfTypedDataHash(\n      eip712DomainSeparator,\n      structHash,\n      v,\n      r,\n      s\n    );\n    require(guessedSigner == signer, \"Signature is invalid\");\n  }\n\n  function getUniqueAttestationHash(\n    bytes32 identifier,\n    address issuer,\n    address account,\n    address signer,\n    uint64 issuedOn\n  ) public pure returns (bytes32) {\n    return\n      keccak256(\n        abi.encode(\n          EIP712_OWNERSHIP_ATTESTATION_TYPEHASH,\n          identifier,\n          issuer,\n          account,\n          signer,\n          issuedOn\n        )\n      );\n  }\n\n  /**\n   * @notice Sets the EIP712 domain separator for the Celo FederatedAttestations abstraction.\n   */\n  function setEip712DomainSeparator() internal {\n    uint256 chainId;\n    assembly {\n      chainId := chainid\n    }\n\n    eip712DomainSeparator = keccak256(\n      abi.encode(\n        keccak256(\n          \"EIP712Domain(string name,string version,uint256 chainId,address verifyingContract)\"\n        ),\n        keccak256(bytes(\"FederatedAttestations\")),\n        keccak256(\"1.0\"),\n        chainId,\n        address(this)\n      )\n    );\n    emit EIP712DomainSeparatorSet(eip712DomainSeparator);\n  }\n\n  /**\n   * @notice Helper function for lookupAttestations to calculate the\n             total number of attestations completed for an identifier\n             by each trusted issuer\n   * @param identifier Hash of the identifier\n   * @param trustedIssuers Array of n issuers whose attestations will be included\n   * @return totalAttestations Sum total of attestations found\n   * @return countsPerIssuer Array of number of attestations found per issuer\n   */\n  function getNumAttestations(bytes32 identifier, address[] memory trustedIssuers)\n    internal\n    view\n    returns (uint256 totalAttestations, uint256[] memory countsPerIssuer)\n  {\n    totalAttestations = 0;\n    uint256 numAttestationsForIssuer;\n    countsPerIssuer = new uint256[](trustedIssuers.length);\n\n    for (uint256 i = 0; i < trustedIssuers.length; i = i.add(1)) {\n      numAttestationsForIssuer = identifierToAttestations[identifier][trustedIssuers[i]].length;\n      totalAttestations = totalAttestations.add(numAttestationsForIssuer);\n      countsPerIssuer[i] = numAttestationsForIssuer;\n    }\n    return (totalAttestations, countsPerIssuer);\n  }\n\n  /**\n   * @notice Helper function for lookupIdentifiers to calculate the\n             total number of identifiers completed for an identifier\n             by each trusted issuer\n   * @param account Address of the account\n   * @param trustedIssuers Array of n issuers whose identifiers will be included\n   * @return totalIdentifiers Sum total of identifiers found\n   * @return countsPerIssuer Array of number of identifiers found per issuer\n   */\n  function getNumIdentifiers(address account, address[] memory trustedIssuers)\n    internal\n    view\n    returns (uint256 totalIdentifiers, uint256[] memory countsPerIssuer)\n  {\n    totalIdentifiers = 0;\n    uint256 numIdentifiersForIssuer;\n    countsPerIssuer = new uint256[](trustedIssuers.length);\n\n    for (uint256 i = 0; i < trustedIssuers.length; i = i.add(1)) {\n      numIdentifiersForIssuer = addressToIdentifiers[account][trustedIssuers[i]].length;\n      totalIdentifiers = totalIdentifiers.add(numIdentifiersForIssuer);\n      countsPerIssuer[i] = numIdentifiersForIssuer;\n    }\n    return (totalIdentifiers, countsPerIssuer);\n  }\n\n  /**\n   * @notice Registers an attestation\n   * @param identifier Hash of the identifier to be attested\n   * @param issuer Address of the attestation issuer\n   * @param account Address of the account being mapped to the identifier\n   * @param issuedOn Time at which the issuer issued the attestation in Unix time \n   * @param signer Address of the signer of the attestation\n   */\n  function _registerAttestation(\n    bytes32 identifier,\n    address issuer,\n    address account,\n    address signer,\n    uint64 issuedOn\n  ) private {\n    require(\n      !revokedAttestations[getUniqueAttestationHash(identifier, issuer, account, signer, issuedOn)],\n      \"Attestation has been revoked\"\n    );\n    uint256 numExistingAttestations = identifierToAttestations[identifier][issuer].length;\n    require(\n      numExistingAttestations.add(1) <= MAX_ATTESTATIONS_PER_IDENTIFIER,\n      \"Max attestations already registered for identifier\"\n    );\n    require(\n      addressToIdentifiers[account][issuer].length.add(1) <= MAX_IDENTIFIERS_PER_ADDRESS,\n      \"Max identifiers already registered for account\"\n    );\n\n    for (uint256 i = 0; i < numExistingAttestations; i = i.add(1)) {\n      // This enforces only one attestation to be uploaded\n      // for a given set of (identifier, issuer, account)\n      // Editing/upgrading an attestation requires that it be revoked before a new one is registered\n      require(\n        identifierToAttestations[identifier][issuer][i].account != account,\n        \"Attestation for this account already exists\"\n      );\n    }\n    uint64 publishedOn = uint64(block.timestamp);\n    OwnershipAttestation memory attestation = OwnershipAttestation(\n      account,\n      signer,\n      issuedOn,\n      publishedOn\n    );\n    identifierToAttestations[identifier][issuer].push(attestation);\n    addressToIdentifiers[account][issuer].push(identifier);\n    emit AttestationRegistered(identifier, issuer, account, signer, issuedOn, publishedOn);\n  }\n\n  /**\n   * @notice Revokes an attestation:\n   *  helper function for revokeAttestation and batchRevokeAttestations\n   * @param identifier Hash of the identifier to be revoked\n   * @param issuer Address of the attestation issuer\n   * @param account Address of the account mapped to the identifier\n   * @dev Reverts if attestation is not found mapping identifier <-> account\n   */\n  function _revokeAttestation(bytes32 identifier, address issuer, address account) private {\n    OwnershipAttestation[] storage attestations = identifierToAttestations[identifier][issuer];\n    uint256 lenAttestations = attestations.length;\n    for (uint256 i = 0; i < lenAttestations; i = i.add(1)) {\n      if (attestations[i].account != account) {\n        continue;\n      }\n\n      OwnershipAttestation memory attestation = attestations[i];\n      // This is meant to delete the attestations in the array\n      // and then move the last element in the array to that empty spot,\n      // to avoid having empty elements in the array\n      if (i != lenAttestations - 1) {\n        attestations[i] = attestations[lenAttestations - 1];\n      }\n      attestations.pop();\n\n      bool deletedIdentifier = false;\n      bytes32[] storage identifiers = addressToIdentifiers[account][issuer];\n      uint256 lenIdentifiers = identifiers.length;\n\n      for (uint256 j = 0; j < lenIdentifiers; j = j.add(1)) {\n        if (identifiers[j] != identifier) {\n          continue;\n        }\n        if (j != lenIdentifiers - 1) {\n          identifiers[j] = identifiers[lenIdentifiers - 1];\n        }\n        identifiers.pop();\n        deletedIdentifier = true;\n        break;\n      }\n      // Should never be false - both mappings should always be updated in unison\n      assert(deletedIdentifier);\n\n      bytes32 attestationHash = getUniqueAttestationHash(\n        identifier,\n        issuer,\n        account,\n        attestation.signer,\n        attestation.issuedOn\n      );\n      revokedAttestations[attestationHash] = true;\n\n      emit AttestationRevoked(\n        identifier,\n        issuer,\n        account,\n        attestation.signer,\n        attestation.issuedOn,\n        attestation.publishedOn\n      );\n      return;\n    }\n    revert(\"Attestation to be revoked does not exist\");\n  }\n}\n",
  "sourcePath": "/Users/beaver/Development/celo/celo-monorepo/packages/protocol/contracts/identity/FederatedAttestations.sol",
  "compiler": {
    "name": "solc",
    "version": "0.5.13+commit.5b0b510c.Emscripten.clang"
  },
  "schemaVersion": "3.4.13",
  "updatedAt": "2024-03-05T15:27:45.467Z",
  "networkType": "ethereum",
  "devdoc": {
    "methods": {
      "batchRevokeAttestations(address,bytes32[],address[])": {
        "details": "Throws if the number of identifiers and accounts is not the sameThrows if sender is not the issuer or currently registered signer of issuerThrows if an attestation is not found for identifiers[i] <-> accounts[i]",
        "params": {
          "accounts": "Addresses of the accounts mapped to the identifiers  at the same indices",
          "identifiers": "Hash of the identifiers",
          "issuer": "Address of the issuer of all attestations to be revoked"
        }
      },
      "constructor": {
        "params": {
          "test": "Set to true to skip implementation initialization"
        }
      },
      "getVersionNumber()": {
        "return": "The storage, major, minor, and patch version of the contract."
      },
      "isOwner()": {
        "details": "Returns true if the caller is the current owner."
      },
      "lookupAttestations(bytes32,address[])": {
        "details": "Adds attestation info to the arrays in order of provided trustedIssuersExpectation that only one attestation exists per (identifier, issuer, account)",
        "params": {
          "identifier": "Hash of the identifier",
          "trustedIssuers": "Array of n issuers whose attestations will be included"
        },
        "return": "countsPerIssuer Array of number of attestations returned per issuer         For m (== sum([0])) found attestations: accounts Array of m accounts signers Array of m signersissuedOns Array of m issuedOnspublishedOns Array of m publishedOns"
      },
      "lookupIdentifiers(address,address[])": {
        "details": "Adds identifier info to the arrays in order of provided trustedIssuersExpectation that only one attestation exists per (identifier, issuer, account)",
        "params": {
          "account": "Address of the account",
          "trustedIssuers": "Array of n issuers whose identifier mappings will be used"
        },
        "return": "countsPerIssuer Array of number of identifiers returned per issueridentifiers Array (length == sum([0])) of identifiers"
      },
      "owner()": {
        "details": "Returns the address of the current owner."
      },
      "registerAttestation(bytes32,address,address,address,uint64,uint8,bytes32,bytes32)": {
        "details": "Throws if an attestation with the same (identifier, issuer, account) already exists",
        "params": {
          "account": "Address of the account being mapped to the identifier",
          "identifier": "Hash of the identifier to be attested",
          "issuedOn": "Time at which the issuer issued the attestation in Unix time ",
          "issuer": "Address of the attestation issuer",
          "r": "Output value r of the ECDSA signature",
          "s": "Output value s of the ECDSA signature",
          "signer": "Address of the signer of the attestation",
          "v": "The recovery id of the incoming ECDSA signature"
        }
      },
      "registerAttestationAsIssuer(bytes32,address,uint64)": {
        "details": "Attestation signer and issuer in storage is set to msg.senderThrows if an attestation with the same (identifier, issuer, account) already exists",
        "params": {
          "account": "Address of the account being mapped to the identifier",
          "identifier": "Hash of the identifier to be attested",
          "issuedOn": "Time at which the issuer issued the attestation in Unix time "
        }
      },
      "renounceOwnership()": {
        "details": "Leaves the contract without owner. It will not be possible to call `onlyOwner` functions anymore. Can only be called by the current owner.     * NOTE: Renouncing ownership will leave the contract without an owner, thereby removing any functionality that is only available to the owner."
      },
      "revokeAttestation(bytes32,address,address)": {
        "details": "Throws if sender is not the issuer, signer, or account",
        "params": {
          "account": "Address of the account mapped to the identifier",
          "identifier": "Hash of the identifier to be revoked",
          "issuer": "Address of the attestation issuer"
        }
      },
      "transferOwnership(address)": {
        "details": "Transfers ownership of the contract to a new account (`newOwner`). Can only be called by the current owner."
      },
      "validateAttestationSig(bytes32,address,address,address,uint64,uint8,bytes32,bytes32)": {
        "details": "Throws if attestation has been revokedThrows if signer is not an authorized AttestationSigner of the issuer",
        "params": {
          "account": "Address of the account being mapped to the identifier",
          "identifier": "Hash of the identifier to be attested",
          "issuedOn": "Time at which the issuer issued the attestation in Unix time ",
          "issuer": "Address of the attestation issuer",
          "r": "Output value r of the ECDSA signature",
          "s": "Output value s of the ECDSA signature",
          "signer": "Address of the signer of the attestation",
          "v": "The recovery id of the incoming ECDSA signature"
        }
      }
    },
    "title": "Contract mapping identifiers to accounts"
  },
  "userdoc": {
    "methods": {
      "batchRevokeAttestations(address,bytes32[],address[])": {
        "notice": "Revokes attestations [identifiers <-> accounts] from issuer"
      },
      "constructor": "Sets initialized == true on implementation contracts",
      "getVersionNumber()": {
        "notice": "Returns the storage, major, minor, and patch version of the contract."
      },
      "initialize()": {
        "notice": "Used in place of the constructor to allow the contract to be upgradable via proxy."
      },
      "lookupAttestations(bytes32,address[])": {
        "notice": "Returns info about attestations for `identifier` produced by    signers of `trustedIssuers`"
      },
      "lookupIdentifiers(address,address[])": {
        "notice": "Returns identifiers mapped to `account` by signers of `trustedIssuers`"
      },
      "registerAttestation(bytes32,address,address,address,uint64,uint8,bytes32,bytes32)": {
        "notice": "Registers an attestation with a valid signature"
      },
      "registerAttestationAsIssuer(bytes32,address,uint64)": {
        "notice": "Registers an attestation directly from the issuer"
      },
      "revokeAttestation(bytes32,address,address)": {
        "notice": "Revokes an attestation "
      },
      "validateAttestationSig(bytes32,address,address,address,uint64,uint8,bytes32,bytes32)": {
        "notice": "Validates the given attestation and signature"
      }
    }
  }
}