{
  "contractName": "FeeHandler",
  "abi": [
    {
      "inputs": [
        {
          "internalType": "bool",
          "name": "test",
          "type": "bool"
        }
      ],
      "payable": false,
      "stateMutability": "nonpayable",
      "type": "constructor"
    },
    {
      "anonymous": false,
      "inputs": [
        {
          "indexed": false,
          "internalType": "uint256",
          "name": "fraction",
          "type": "uint256"
        }
      ],
      "name": "BurnFractionSet",
      "type": "event"
    },
    {
      "anonymous": false,
      "inputs": [
        {
          "indexed": false,
          "internalType": "address",
          "name": "token",
          "type": "address"
        },
        {
          "indexed": false,
          "internalType": "uint256",
          "name": "burning",
          "type": "uint256"
        }
      ],
      "name": "DailyLimitHit",
      "type": "event"
    },
    {
      "anonymous": false,
      "inputs": [
        {
          "indexed": false,
          "internalType": "address",
          "name": "tokenAddress",
          "type": "address"
        },
        {
          "indexed": false,
          "internalType": "uint256",
          "name": "newLimit",
          "type": "uint256"
        }
      ],
      "name": "DailyLimitSet",
      "type": "event"
    },
    {
      "anonymous": false,
      "inputs": [
        {
          "indexed": false,
          "internalType": "uint256",
          "name": "amount",
          "type": "uint256"
        }
      ],
      "name": "DailySellLimitUpdated",
      "type": "event"
    },
    {
      "anonymous": false,
      "inputs": [
        {
          "indexed": false,
          "internalType": "address",
          "name": "newBeneficiary",
          "type": "address"
        }
      ],
      "name": "FeeBeneficiarySet",
      "type": "event"
    },
    {
      "anonymous": false,
      "inputs": [
        {
          "indexed": false,
          "internalType": "address",
          "name": "token",
          "type": "address"
        },
        {
          "indexed": false,
          "internalType": "uint256",
          "name": "maxSlippage",
          "type": "uint256"
        }
      ],
      "name": "MaxSlippageSet",
      "type": "event"
    },
    {
      "anonymous": false,
      "inputs": [
        {
          "indexed": true,
          "internalType": "address",
          "name": "previousOwner",
          "type": "address"
        },
        {
          "indexed": true,
          "internalType": "address",
          "name": "newOwner",
          "type": "address"
        }
      ],
      "name": "OwnershipTransferred",
      "type": "event"
    },
    {
      "anonymous": false,
      "inputs": [
        {
          "indexed": true,
          "internalType": "address",
          "name": "registryAddress",
          "type": "address"
        }
      ],
      "name": "RegistrySet",
      "type": "event"
    },
    {
      "anonymous": false,
      "inputs": [
        {
          "indexed": false,
          "internalType": "address",
          "name": "token",
          "type": "address"
        },
        {
          "indexed": false,
          "internalType": "uint256",
          "name": "value",
          "type": "uint256"
        }
      ],
      "name": "SoldAndBurnedToken",
      "type": "event"
    },
    {
      "anonymous": false,
      "inputs": [
        {
          "indexed": false,
          "internalType": "address",
          "name": "tokenAddress",
          "type": "address"
        },
        {
          "indexed": false,
          "internalType": "address",
          "name": "handlerAddress",
          "type": "address"
        }
      ],
      "name": "TokenAdded",
      "type": "event"
    },
    {
      "anonymous": false,
      "inputs": [
        {
          "indexed": false,
          "internalType": "address",
          "name": "tokenAddress",
          "type": "address"
        }
      ],
      "name": "TokenRemoved",
      "type": "event"
    },
    {
      "payable": true,
      "stateMutability": "payable",
      "type": "fallback"
    },
    {
      "constant": true,
      "inputs": [],
      "name": "FIXED1_UINT",
      "outputs": [
        {
          "internalType": "uint256",
          "name": "",
          "type": "uint256"
        }
      ],
      "payable": false,
      "stateMutability": "view",
      "type": "function"
    },
    {
      "constant": true,
      "inputs": [],
      "name": "MIN_BURN",
      "outputs": [
        {
          "internalType": "uint256",
          "name": "",
          "type": "uint256"
        }
      ],
      "payable": false,
      "stateMutability": "view",
      "type": "function"
    },
    {
      "constant": true,
      "inputs": [],
      "name": "burnFraction",
      "outputs": [
        {
          "internalType": "uint256",
          "name": "value",
          "type": "uint256"
        }
      ],
      "payable": false,
      "stateMutability": "view",
      "type": "function"
    },
    {
      "constant": true,
      "inputs": [],
      "name": "celoToBeBurned",
      "outputs": [
        {
          "internalType": "uint256",
          "name": "",
          "type": "uint256"
        }
      ],
      "payable": false,
      "stateMutability": "view",
      "type": "function"
    },
    {
      "constant": true,
      "inputs": [],
      "name": "feeBeneficiary",
      "outputs": [
        {
          "internalType": "address",
          "name": "",
          "type": "address"
        }
      ],
      "payable": false,
      "stateMutability": "view",
      "type": "function"
    },
    {
      "constant": true,
      "inputs": [],
      "name": "initialized",
      "outputs": [
        {
          "internalType": "bool",
          "name": "",
          "type": "bool"
        }
      ],
      "payable": false,
      "stateMutability": "view",
      "type": "function"
    },
    {
      "constant": true,
      "inputs": [],
      "name": "isOwner",
      "outputs": [
        {
          "internalType": "bool",
          "name": "",
          "type": "bool"
        }
      ],
      "payable": false,
      "stateMutability": "view",
      "type": "function"
    },
    {
      "constant": true,
      "inputs": [],
      "name": "lastLimitDay",
      "outputs": [
        {
          "internalType": "uint256",
          "name": "",
          "type": "uint256"
        }
      ],
      "payable": false,
      "stateMutability": "view",
      "type": "function"
    },
    {
      "constant": true,
      "inputs": [],
      "name": "owner",
      "outputs": [
        {
          "internalType": "address",
          "name": "",
          "type": "address"
        }
      ],
      "payable": false,
      "stateMutability": "view",
      "type": "function"
    },
    {
      "constant": true,
      "inputs": [],
      "name": "registry",
      "outputs": [
        {
          "internalType": "contract IRegistry",
          "name": "",
          "type": "address"
        }
      ],
      "payable": false,
      "stateMutability": "view",
      "type": "function"
    },
    {
      "constant": false,
      "inputs": [],
      "name": "renounceOwnership",
      "outputs": [],
      "payable": false,
      "stateMutability": "nonpayable",
      "type": "function"
    },
    {
      "constant": false,
      "inputs": [
        {
          "internalType": "address",
          "name": "registryAddress",
          "type": "address"
        }
      ],
      "name": "setRegistry",
      "outputs": [],
      "payable": false,
      "stateMutability": "nonpayable",
      "type": "function"
    },
    {
      "constant": false,
      "inputs": [
        {
          "internalType": "address",
          "name": "newOwner",
          "type": "address"
        }
      ],
      "name": "transferOwnership",
      "outputs": [],
      "payable": false,
      "stateMutability": "nonpayable",
      "type": "function"
    },
    {
      "constant": false,
      "inputs": [
        {
          "internalType": "address",
          "name": "_registryAddress",
          "type": "address"
        },
        {
          "internalType": "address",
          "name": "newFeeBeneficiary",
          "type": "address"
        },
        {
          "internalType": "uint256",
          "name": "newBurnFraction",
          "type": "uint256"
        },
        {
          "internalType": "address[]",
          "name": "tokens",
          "type": "address[]"
        },
        {
          "internalType": "address[]",
          "name": "handlers",
          "type": "address[]"
        },
        {
          "internalType": "uint256[]",
          "name": "newLimits",
          "type": "uint256[]"
        },
        {
          "internalType": "uint256[]",
          "name": "newMaxSlippages",
          "type": "uint256[]"
        }
      ],
      "name": "initialize",
      "outputs": [],
      "payable": false,
      "stateMutability": "nonpayable",
      "type": "function"
    },
    {
      "constant": true,
      "inputs": [
        {
          "internalType": "address",
          "name": "tokenAddress",
          "type": "address"
        }
      ],
      "name": "getTokenHandler",
      "outputs": [
        {
          "internalType": "address",
          "name": "",
          "type": "address"
        }
      ],
      "payable": false,
      "stateMutability": "view",
      "type": "function"
    },
    {
      "constant": true,
      "inputs": [
        {
          "internalType": "address",
          "name": "tokenAddress",
          "type": "address"
        }
      ],
      "name": "getTokenActive",
      "outputs": [
        {
          "internalType": "bool",
          "name": "",
          "type": "bool"
        }
      ],
      "payable": false,
      "stateMutability": "view",
      "type": "function"
    },
    {
      "constant": true,
      "inputs": [
        {
          "internalType": "address",
          "name": "tokenAddress",
          "type": "address"
        }
      ],
      "name": "getTokenMaxSlippage",
      "outputs": [
        {
          "internalType": "uint256",
          "name": "",
          "type": "uint256"
        }
      ],
      "payable": false,
      "stateMutability": "view",
      "type": "function"
    },
    {
      "constant": true,
      "inputs": [
        {
          "internalType": "address",
          "name": "tokenAddress",
          "type": "address"
        }
      ],
      "name": "getTokenDailySellLimit",
      "outputs": [
        {
          "internalType": "uint256",
          "name": "",
          "type": "uint256"
        }
      ],
      "payable": false,
      "stateMutability": "view",
      "type": "function"
    },
    {
      "constant": true,
      "inputs": [
        {
          "internalType": "address",
          "name": "tokenAddress",
          "type": "address"
        }
      ],
      "name": "getTokenCurrentDaySellLimit",
      "outputs": [
        {
          "internalType": "uint256",
          "name": "",
          "type": "uint256"
        }
      ],
      "payable": false,
      "stateMutability": "view",
      "type": "function"
    },
    {
      "constant": true,
      "inputs": [
        {
          "internalType": "address",
          "name": "tokenAddress",
          "type": "address"
        }
      ],
      "name": "getTokenToDistribute",
      "outputs": [
        {
          "internalType": "uint256",
          "name": "",
          "type": "uint256"
        }
      ],
      "payable": false,
      "stateMutability": "view",
      "type": "function"
    },
    {
      "constant": true,
      "inputs": [],
      "name": "getActiveTokens",
      "outputs": [
        {
          "internalType": "address[]",
          "name": "",
          "type": "address[]"
        }
      ],
      "payable": false,
      "stateMutability": "view",
      "type": "function"
    },
    {
      "constant": false,
      "inputs": [
        {
          "internalType": "address",
          "name": "beneficiary",
          "type": "address"
        }
      ],
      "name": "setFeeBeneficiary",
      "outputs": [],
      "payable": false,
      "stateMutability": "nonpayable",
      "type": "function"
    },
    {
      "constant": false,
      "inputs": [
        {
          "internalType": "uint256",
          "name": "fraction",
          "type": "uint256"
        }
      ],
      "name": "setBurnFraction",
      "outputs": [],
      "payable": false,
      "stateMutability": "nonpayable",
      "type": "function"
    },
    {
      "constant": false,
      "inputs": [
        {
          "internalType": "address",
          "name": "tokenAddress",
          "type": "address"
        }
      ],
      "name": "sell",
      "outputs": [],
      "payable": false,
      "stateMutability": "nonpayable",
      "type": "function"
    },
    {
      "constant": false,
      "inputs": [
        {
          "internalType": "address",
          "name": "tokenAddress",
          "type": "address"
        },
        {
          "internalType": "address",
          "name": "handlerAddress",
          "type": "address"
        }
      ],
      "name": "addToken",
      "outputs": [],
      "payable": false,
      "stateMutability": "nonpayable",
      "type": "function"
    },
    {
      "constant": false,
      "inputs": [
        {
          "internalType": "address",
          "name": "tokenAddress",
          "type": "address"
        }
      ],
      "name": "activateToken",
      "outputs": [],
      "payable": false,
      "stateMutability": "nonpayable",
      "type": "function"
    },
    {
      "constant": false,
      "inputs": [
        {
          "internalType": "address",
          "name": "tokenAddress",
          "type": "address"
        }
      ],
      "name": "deactivateToken",
      "outputs": [],
      "payable": false,
      "stateMutability": "nonpayable",
      "type": "function"
    },
    {
      "constant": false,
      "inputs": [
        {
          "internalType": "address",
          "name": "tokenAddress",
          "type": "address"
        },
        {
          "internalType": "address",
          "name": "handlerAddress",
          "type": "address"
        }
      ],
      "name": "setHandler",
      "outputs": [],
      "payable": false,
      "stateMutability": "nonpayable",
      "type": "function"
    },
    {
      "constant": false,
      "inputs": [
        {
          "internalType": "address",
          "name": "tokenAddress",
          "type": "address"
        }
      ],
      "name": "removeToken",
      "outputs": [],
      "payable": false,
      "stateMutability": "nonpayable",
      "type": "function"
    },
    {
      "constant": false,
      "inputs": [
        {
          "internalType": "address",
          "name": "tokenAddress",
          "type": "address"
        }
      ],
      "name": "distribute",
      "outputs": [],
      "payable": false,
      "stateMutability": "nonpayable",
      "type": "function"
    },
    {
      "constant": true,
      "inputs": [],
      "name": "getVersionNumber",
      "outputs": [
        {
          "internalType": "uint256",
          "name": "",
          "type": "uint256"
        },
        {
          "internalType": "uint256",
          "name": "",
          "type": "uint256"
        },
        {
          "internalType": "uint256",
          "name": "",
          "type": "uint256"
        },
        {
          "internalType": "uint256",
          "name": "",
          "type": "uint256"
        }
      ],
      "payable": false,
      "stateMutability": "pure",
      "type": "function"
    },
    {
      "constant": false,
      "inputs": [
        {
          "internalType": "address",
          "name": "token",
          "type": "address"
        },
        {
          "internalType": "uint256",
          "name": "newMax",
          "type": "uint256"
        }
      ],
      "name": "setMaxSplippage",
      "outputs": [],
      "payable": false,
      "stateMutability": "nonpayable",
      "type": "function"
    },
    {
      "constant": false,
      "inputs": [
        {
          "internalType": "address",
          "name": "token",
          "type": "address"
        },
        {
          "internalType": "uint256",
          "name": "newLimit",
          "type": "uint256"
        }
      ],
      "name": "setDailySellLimit",
      "outputs": [],
      "payable": false,
      "stateMutability": "nonpayable",
      "type": "function"
    },
    {
      "constant": false,
      "inputs": [],
      "name": "burnCelo",
      "outputs": [],
      "payable": false,
      "stateMutability": "nonpayable",
      "type": "function"
    },
    {
      "constant": false,
      "inputs": [],
      "name": "distributeAll",
      "outputs": [],
      "payable": false,
      "stateMutability": "nonpayable",
      "type": "function"
    },
    {
      "constant": false,
      "inputs": [],
      "name": "handleAll",
      "outputs": [],
      "payable": false,
      "stateMutability": "nonpayable",
      "type": "function"
    },
    {
      "constant": false,
      "inputs": [
        {
          "internalType": "address",
          "name": "tokenAddress",
          "type": "address"
        }
      ],
      "name": "handle",
      "outputs": [],
      "payable": false,
      "stateMutability": "nonpayable",
      "type": "function"
    },
    {
      "constant": true,
      "inputs": [
        {
          "internalType": "address",
          "name": "token",
          "type": "address"
        }
      ],
      "name": "getPastBurnForToken",
      "outputs": [
        {
          "internalType": "uint256",
          "name": "",
          "type": "uint256"
        }
      ],
      "payable": false,
      "stateMutability": "view",
      "type": "function"
    },
    {
      "constant": false,
      "inputs": [
        {
          "internalType": "address",
          "name": "token",
          "type": "address"
        },
        {
          "internalType": "uint256",
          "name": "amountToBurn",
          "type": "uint256"
        }
      ],
      "name": "dailySellLimitHit",
      "outputs": [
        {
          "internalType": "bool",
          "name": "",
          "type": "bool"
        }
      ],
      "payable": false,
      "stateMutability": "nonpayable",
      "type": "function"
    },
    {
      "constant": false,
      "inputs": [
        {
          "internalType": "address",
          "name": "token",
          "type": "address"
        },
        {
          "internalType": "address",
          "name": "recipient",
          "type": "address"
        },
        {
          "internalType": "uint256",
          "name": "value",
          "type": "uint256"
        }
      ],
      "name": "transfer",
      "outputs": [
        {
          "internalType": "bool",
          "name": "",
          "type": "bool"
        }
      ],
      "payable": false,
      "stateMutability": "nonpayable",
      "type": "function"
    }
  ],
  "bytecode": "0x60806040523480156200001157600080fd5b506040516200540e3803806200540e833981810160405260208110156200003757600080fd5b81019080805190602001909291905050508060006200005b6200012b60201b60201c565b9050806000806101000a81548173ffffffffffffffffffffffffffffffffffffffff021916908373ffffffffffffffffffffffffffffffffffffffff1602179055508073ffffffffffffffffffffffffffffffffffffffff16600073ffffffffffffffffffffffffffffffffffffffff167f8be0079c531659141344cd1fd0a4f28419497f9722a3daafe3b4186f6b6457e060405160405180910390a350806200011b576001600060146101000a81548160ff0219169083151502179055505b5060016002819055505062000133565b600033905090565b6152cb80620001436000396000f3fe60806040526004361061023b5760003560e01c806368173bcf1161012e578063a91ee0dc116100ab578063df3712e41161006f578063df3712e414610e8a578063e9f1bbde14610eb5578063ec4bd8ae14610f26578063ee8df72d14610f8b578063f2fde38b14610fa25761023b565b8063a91ee0dc14610ccf578063b8b99e4d14610d20578063beabacc814610d37578063c558df3814610dca578063ce4773d314610e255761023b565b80638da5cb5b116100f25780638da5cb5b14610b685780638de065b614610bbf5780638f32d59b14610bea57806392f8bce314610c1957806394b6f9d414610c7e5761023b565b806368173bcf146109ef5780636c6c65ad14610a40578063715018a614610aa95780637b10399914610ac05780637b76314014610b175761023b565b806349844b1c116101bc5780635f5817e3116101805780635f5817e3146106ad5780635fa7b5841461071957806363453ae11461076a578063650a1605146107bb5780636654f4351461098a5761023b565b806349844b1c146105255780634e73db991461055057806354255be0146105ab5780635476bd72146105eb5780635a0a3d821461065c5761023b565b806331828a5b1161020357806331828a5b14610378578063384995cd146103eb5780633b9e3ad614610426578063436596c4146104b7578063492fb343146104ce5761023b565b8063036235a61461023d57806308906111146102685780630d1ce2d21461029357806313e33cea146102e4578063158ef93e14610349575b005b34801561024957600080fd5b50610252610ff3565b6040518082815260200191505060405180910390f35b34801561027457600080fd5b5061027d611001565b6040518082815260200191505060405180910390f35b34801561029f57600080fd5b506102e2600480360360208110156102b657600080fd5b81019080803573ffffffffffffffffffffffffffffffffffffffff169060200190929190505050611007565b005b3480156102f057600080fd5b506103336004803603602081101561030757600080fd5b81019080803573ffffffffffffffffffffffffffffffffffffffff16906020019092919050505061108d565b6040518082815260200191505060405180910390f35b34801561035557600080fd5b5061035e6110d9565b604051808215151515815260200191505060405180910390f35b34801561038457600080fd5b506103d16004803603604081101561039b57600080fd5b81019080803573ffffffffffffffffffffffffffffffffffffffff169060200190929190803590602001909291905050506110ec565b604051808215151515815260200191505060405180910390f35b3480156103f757600080fd5b506104246004803603602081101561040e57600080fd5b810190808035906020019092919050505061118a565b005b34801561043257600080fd5b506104756004803603602081101561044957600080fd5b81019080803573ffffffffffffffffffffffffffffffffffffffff169060200190929190505050611210565b604051808273ffffffffffffffffffffffffffffffffffffffff1673ffffffffffffffffffffffffffffffffffffffff16815260200191505060405180910390f35b3480156104c357600080fd5b506104cc61127c565b005b3480156104da57600080fd5b506104e3611286565b604051808273ffffffffffffffffffffffffffffffffffffffff1673ffffffffffffffffffffffffffffffffffffffff16815260200191505060405180910390f35b34801561053157600080fd5b5061053a6112ac565b6040518082815260200191505060405180910390f35b34801561055c57600080fd5b506105a96004803603604081101561057357600080fd5b81019080803573ffffffffffffffffffffffffffffffffffffffff169060200190929190803590602001909291905050506112b1565b005b3480156105b757600080fd5b506105c0611339565b6040518085815260200184815260200183815260200182815260200194505050505060405180910390f35b3480156105f757600080fd5b5061065a6004803603604081101561060e57600080fd5b81019080803573ffffffffffffffffffffffffffffffffffffffff169060200190929190803573ffffffffffffffffffffffffffffffffffffffff16906020019092919050505061135f565b005b34801561066857600080fd5b506106ab6004803603602081101561067f57600080fd5b81019080803573ffffffffffffffffffffffffffffffffffffffff1690602001909291905050506113e7565b005b3480156106b957600080fd5b506106c261146d565b6040518080602001828103825283818151815260200191508051906020019060200280838360005b838110156107055780820151818401526020810190506106ea565b505050509050019250505060405180910390f35b34801561072557600080fd5b506107686004803603602081101561073c57600080fd5b81019080803573ffffffffffffffffffffffffffffffffffffffff1690602001909291905050506114fe565b005b34801561077657600080fd5b506107b96004803603602081101561078d57600080fd5b81019080803573ffffffffffffffffffffffffffffffffffffffff169060200190929190505050611584565b005b3480156107c757600080fd5b50610988600480360360e08110156107de57600080fd5b81019080803573ffffffffffffffffffffffffffffffffffffffff169060200190929190803573ffffffffffffffffffffffffffffffffffffffff169060200190929190803590602001909291908035906020019064010000000081111561084557600080fd5b82018360208201111561085757600080fd5b8035906020019184602083028401116401000000008311171561087957600080fd5b90919293919293908035906020019064010000000081111561089a57600080fd5b8201836020820111156108ac57600080fd5b803590602001918460208302840111640100000000831117156108ce57600080fd5b9091929391929390803590602001906401000000008111156108ef57600080fd5b82018360208201111561090157600080fd5b8035906020019184602083028401116401000000008311171561092357600080fd5b90919293919293908035906020019064010000000081111561094457600080fd5b82018360208201111561095657600080fd5b8035906020019184602083028401116401000000008311171561097857600080fd5b9091929391929390505050611590565b005b34801561099657600080fd5b506109d9600480360360208110156109ad57600080fd5b81019080803573ffffffffffffffffffffffffffffffffffffffff16906020019092919050505061187a565b6040518082815260200191505060405180910390f35b3480156109fb57600080fd5b50610a3e60048036036020811015610a1257600080fd5b81019080803573ffffffffffffffffffffffffffffffffffffffff1690602001909291905050506118c6565b005b348015610a4c57600080fd5b50610a8f60048036036020811015610a6357600080fd5b81019080803573ffffffffffffffffffffffffffffffffffffffff16906020019092919050505061194c565b604051808215151515815260200191505060405180910390f35b348015610ab557600080fd5b50610abe611969565b005b348015610acc57600080fd5b50610ad5611aa2565b604051808273ffffffffffffffffffffffffffffffffffffffff1673ffffffffffffffffffffffffffffffffffffffff16815260200191505060405180910390f35b348015610b2357600080fd5b50610b6660048036036020811015610b3a57600080fd5b81019080803573ffffffffffffffffffffffffffffffffffffffff169060200190929190505050611ac8565b005b348015610b7457600080fd5b50610b7d611ad4565b604051808273ffffffffffffffffffffffffffffffffffffffff1673ffffffffffffffffffffffffffffffffffffffff16815260200191505060405180910390f35b348015610bcb57600080fd5b50610bd4611afd565b6040518082815260200191505060405180910390f35b348015610bf657600080fd5b50610bff611b09565b604051808215151515815260200191505060405180910390f35b348015610c2557600080fd5b50610c6860048036036020811015610c3c57600080fd5b81019080803573ffffffffffffffffffffffffffffffffffffffff169060200190929190505050611b67565b6040518082815260200191505060405180910390f35b348015610c8a57600080fd5b50610ccd60048036036020811015610ca157600080fd5b81019080803573ffffffffffffffffffffffffffffffffffffffff169060200190929190505050611bcf565b005b348015610cdb57600080fd5b50610d1e60048036036020811015610cf257600080fd5b81019080803573ffffffffffffffffffffffffffffffffffffffff169060200190929190505050611bdb565b005b348015610d2c57600080fd5b50610d35611d7f565b005b348015610d4357600080fd5b50610db060048036036060811015610d5a57600080fd5b81019080803573ffffffffffffffffffffffffffffffffffffffff169060200190929190803573ffffffffffffffffffffffffffffffffffffffff16906020019092919080359060200190929190505050611d89565b604051808215151515815260200191505060405180910390f35b348015610dd657600080fd5b50610e2360048036036040811015610ded57600080fd5b81019080803573ffffffffffffffffffffffffffffffffffffffff16906020019092919080359060200190929190505050611ed0565b005b348015610e3157600080fd5b50610e7460048036036020811015610e4857600080fd5b81019080803573ffffffffffffffffffffffffffffffffffffffff169060200190929190505050611f58565b6040518082815260200191505060405180910390f35b348015610e9657600080fd5b50610e9f611fa4565b6040518082815260200191505060405180910390f35b348015610ec157600080fd5b50610f2460048036036040811015610ed857600080fd5b81019080803573ffffffffffffffffffffffffffffffffffffffff169060200190929190803573ffffffffffffffffffffffffffffffffffffffff169060200190929190505050611faa565b005b348015610f3257600080fd5b50610f7560048036036020811015610f4957600080fd5b81019080803573ffffffffffffffffffffffffffffffffffffffff169060200190929190505050612032565b6040518082815260200191505060405180910390f35b348015610f9757600080fd5b50610fa061207e565b005b348015610fae57600080fd5b50610ff160048036036020811015610fc557600080fd5b81019080803573ffffffffffffffffffffffffffffffffffffffff169060200190929190505050612088565b005b69d3c21bcecceda100000081565b60065481565b61100f611b09565b611081576040517f08c379a00000000000000000000000000000000000000000000000000000000081526004018080602001828103825260208152602001807f4f776e61626c653a2063616c6c6572206973206e6f7420746865206f776e657281525060200191505060405180910390fd5b61108a8161210e565b50565b6000600760008373ffffffffffffffffffffffffffffffffffffffff1673ffffffffffffffffffffffffffffffffffffffff168152602001908152602001600020600301549050919050565b600060149054906101000a900460ff1681565b600080600760008573ffffffffffffffffffffffffffffffffffffffff1673ffffffffffffffffffffffffffffffffffffffff1681526020019081526020016000209050600081600201541415611147576000915050611184565b600062015180428161115557fe5b0490506003548111156111775780600381905550816002015482600301819055505b8160030154841015925050505b92915050565b611192611b09565b611204576040517f08c379a00000000000000000000000000000000000000000000000000000000081526004018080602001828103825260208152602001807f4f776e61626c653a2063616c6c6572206973206e6f7420746865206f776e657281525060200191505060405180910390fd5b61120d8161233d565b50565b6000600760008373ffffffffffffffffffffffffffffffffffffffff1673ffffffffffffffffffffffffffffffffffffffff16815260200190815260200160002060000160009054906101000a900473ffffffffffffffffffffffffffffffffffffffff169050919050565b611284612401565b565b600560009054906101000a900473ffffffffffffffffffffffffffffffffffffffff1681565b60c881565b6112b9611b09565b61132b576040517f08c379a00000000000000000000000000000000000000000000000000000000081526004018080602001828103825260208152602001807f4f776e61626c653a2063616c6c6572206973206e6f7420746865206f776e657281525060200191505060405180910390fd5b6113358282612546565b5050565b600080600080600180600080839350829250819150809050935093509350935090919293565b611367611b09565b6113d9576040517f08c379a00000000000000000000000000000000000000000000000000000000081526004018080602001828103825260208152602001807f4f776e61626c653a2063616c6c6572206973206e6f7420746865206f776e657281525060200191505060405180910390fd5b6113e38282612708565b5050565b6113ef611b09565b611461576040517f08c379a00000000000000000000000000000000000000000000000000000000081526004018080602001828103825260208152602001807f4f776e61626c653a2063616c6c6572206973206e6f7420746865206f776e657281525060200191505060405180910390fd5b61146a816128e2565b50565b606060086001018054806020026020016040519081016040528092919081815260200182805480156114f457602002820191906000526020600020905b8160009054906101000a900473ffffffffffffffffffffffffffffffffffffffff1673ffffffffffffffffffffffffffffffffffffffff16815260200190600101908083116114aa575b5050505050905090565b611506611b09565b611578576040517f08c379a00000000000000000000000000000000000000000000000000000000081526004018080602001828103825260208152602001807f4f776e61626c653a2063616c6c6572206973206e6f7420746865206f776e657281525060200191505060405180910390fd5b61158181612989565b50565b61158d81612a80565b50565b600060149054906101000a900460ff1615611613576040517f08c379a000000000000000000000000000000000000000000000000000000000815260040180806020018281038252601c8152602001807f636f6e747261637420616c726561647920696e697469616c697a65640000000081525060200191505060405180910390fd5b6001600060146101000a81548160ff02191690831515021790555085859050888890501461168c576040517f08c379a000000000000000000000000000000000000000000000000000000000815260040180806020018281038252602a815260200180615080602a913960400191505060405180910390fd5b8383905088889050146116ea576040517f08c379a00000000000000000000000000000000000000000000000000000000081526004018080602001828103825260288152602001806150f36028913960400191505060405180910390fd5b818190508888905014611748576040517f08c379a000000000000000000000000000000000000000000000000000000000815260040180806020018281038252602d81526020018061511b602d913960400191505060405180910390fd5b611751336130d4565b61175a8b611bdb565b6117638a6128e2565b61176c8961233d565b60008090505b8888905081101561186c576117d789898381811061178c57fe5b9050602002013573ffffffffffffffffffffffffffffffffffffffff168888848181106117b557fe5b9050602002013573ffffffffffffffffffffffffffffffffffffffff16612708565b61181b8989838181106117e657fe5b9050602002013573ffffffffffffffffffffffffffffffffffffffff1686868481811061180f57fe5b90506020020135613218565b61185f89898381811061182a57fe5b9050602002013573ffffffffffffffffffffffffffffffffffffffff1684848481811061185357fe5b90506020020135612546565b8080600101915050611772565b505050505050505050505050565b6000600760008373ffffffffffffffffffffffffffffffffffffffff1673ffffffffffffffffffffffffffffffffffffffff168152602001908152602001600020600401549050919050565b6118ce611b09565b611940576040517f08c379a00000000000000000000000000000000000000000000000000000000081526004018080602001828103825260208152602001807f4f776e61626c653a2063616c6c6572206973206e6f7420746865206f776e657281525060200191505060405180910390fd5b611949816132d4565b50565b60006119628260086132ec90919063ffffffff16565b9050919050565b611971611b09565b6119e3576040517f08c379a00000000000000000000000000000000000000000000000000000000081526004018080602001828103825260208152602001807f4f776e61626c653a2063616c6c6572206973206e6f7420746865206f776e657281525060200191505060405180910390fd5b600073ffffffffffffffffffffffffffffffffffffffff166000809054906101000a900473ffffffffffffffffffffffffffffffffffffffff1673ffffffffffffffffffffffffffffffffffffffff167f8be0079c531659141344cd1fd0a4f28419497f9722a3daafe3b4186f6b6457e060405160405180910390a360008060006101000a81548173ffffffffffffffffffffffffffffffffffffffff021916908373ffffffffffffffffffffffffffffffffffffffff160217905550565b600160009054906101000a900473ffffffffffffffffffffffffffffffffffffffff1681565b611ad18161333b565b50565b60008060009054906101000a900473ffffffffffffffffffffffffffffffffffffffff16905090565b60048060000154905081565b60008060009054906101000a900473ffffffffffffffffffffffffffffffffffffffff1673ffffffffffffffffffffffffffffffffffffffff16611b4b61357b565b73ffffffffffffffffffffffffffffffffffffffff1614905090565b6000611bc8600760008473ffffffffffffffffffffffffffffffffffffffff1673ffffffffffffffffffffffffffffffffffffffff168152602001908152602001600020600101604051806020016040529081600082015481525050613583565b9050919050565b611bd881613591565b50565b611be3611b09565b611c55576040517f08c379a00000000000000000000000000000000000000000000000000000000081526004018080602001828103825260208152602001807f4f776e61626c653a2063616c6c6572206973206e6f7420746865206f776e657281525060200191505060405180910390fd5b600073ffffffffffffffffffffffffffffffffffffffff168173ffffffffffffffffffffffffffffffffffffffff161415611cf8576040517f08c379a00000000000000000000000000000000000000000000000000000000081526004018080602001828103825260208152602001807f43616e6e6f7420726567697374657220746865206e756c6c206164647265737381525060200191505060405180910390fd5b80600160006101000a81548173ffffffffffffffffffffffffffffffffffffffff021916908373ffffffffffffffffffffffffffffffffffffffff1602179055508073ffffffffffffffffffffffffffffffffffffffff167f27fe5f0c1c3b1ed427cc63d0f05759ffdecf9aec9e18d31ef366fc8a6cb5dc3b60405160405180910390a250565b611d87613e62565b565b6000611d93611b09565b611e05576040517f08c379a00000000000000000000000000000000000000000000000000000000081526004018080602001828103825260208152602001807f4f776e61626c653a2063616c6c6572206973206e6f7420746865206f776e657281525060200191505060405180910390fd5b8373ffffffffffffffffffffffffffffffffffffffff1663a9059cbb84846040518363ffffffff1660e01b8152600401808373ffffffffffffffffffffffffffffffffffffffff1673ffffffffffffffffffffffffffffffffffffffff16815260200182815260200192505050602060405180830381600087803b158015611e8c57600080fd5b505af1158015611ea0573d6000803e3d6000fd5b505050506040513d6020811015611eb657600080fd5b810190808051906020019092919050505090509392505050565b611ed8611b09565b611f4a576040517f08c379a00000000000000000000000000000000000000000000000000000000081526004018080602001828103825260208152602001807f4f776e61626c653a2063616c6c6572206973206e6f7420746865206f776e657281525060200191505060405180910390fd5b611f548282613218565b5050565b6000600760008373ffffffffffffffffffffffffffffffffffffffff1673ffffffffffffffffffffffffffffffffffffffff168152602001908152602001600020600201549050919050565b60035481565b611fb2611b09565b612024576040517f08c379a00000000000000000000000000000000000000000000000000000000081526004018080602001828103825260208152602001807f4f776e61626c653a2063616c6c6572206973206e6f7420746865206f776e657281525060200191505060405180910390fd5b61202e82826141ea565b5050565b6000600760008373ffffffffffffffffffffffffffffffffffffffff1673ffffffffffffffffffffffffffffffffffffffff168152602001908152602001600020600501549050919050565b6120866142fb565b565b612090611b09565b612102576040517f08c379a00000000000000000000000000000000000000000000000000000000081526004018080602001828103825260208152602001807f4f776e61626c653a2063616c6c6572206973206e6f7420746865206f776e657281525060200191505060405180910390fd5b61210b816130d4565b50565b6000600760008373ffffffffffffffffffffffffffffffffffffffff1673ffffffffffffffffffffffffffffffffffffffff1681526020019081526020016000209050600073ffffffffffffffffffffffffffffffffffffffff168160000160009054906101000a900473ffffffffffffffffffffffffffffffffffffffff1673ffffffffffffffffffffffffffffffffffffffff161415806122cf5750600160009054906101000a900473ffffffffffffffffffffffffffffffffffffffff1673ffffffffffffffffffffffffffffffffffffffff1663dcf0aaed60405160200180807f476f6c64546f6b656e00000000000000000000000000000000000000000000008152506009019050604051602081830303815290604052805190602001206040518263ffffffff1660e01b81526004018082815260200191505060206040518083038186803b15801561226557600080fd5b505afa158015612279573d6000803e3d6000fd5b505050506040513d602081101561228f57600080fd5b810190808051906020019092919050505073ffffffffffffffffffffffffffffffffffffffff168273ffffffffffffffffffffffffffffffffffffffff16145b612324576040517f08c379a00000000000000000000000000000000000000000000000000000000081526004018080602001828103825260278152602001806152706027913960400191505060405180910390fd5b61233882600861435490919063ffffffff16565b505050565b61234561506c565b61234e82614424565b90506123618161235c614442565b614468565b6123b6576040517f08c379a000000000000000000000000000000000000000000000000000000000815260040180806020018281038252602d815260200180615243602d913960400191505060405180910390fd5b806004600082015181600001559050507f41c679f4bcdc2c95f79a3647e2237162d9763d86685ef6c667781230c8ba9157826040518082815260200191505060405180910390a15050565b60008090505b612411600861447e565b81101561244757600061242e82600861448f90919063ffffffff16565b905061243981612a80565b508080600101915050612407565b50612544600160009054906101000a900473ffffffffffffffffffffffffffffffffffffffff1673ffffffffffffffffffffffffffffffffffffffff1663dcf0aaed60405160200180807f476f6c64546f6b656e00000000000000000000000000000000000000000000008152506009019050604051602081830303815290604052805190602001206040518263ffffffff1660e01b81526004018082815260200191505060206040518083038186803b15801561250457600080fd5b505afa158015612518573d6000803e3d6000fd5b505050506040513d602081101561252e57600080fd5b8101908080519060200190929190505050612a80565b565b6000600760008473ffffffffffffffffffffffffffffffffffffffff1673ffffffffffffffffffffffffffffffffffffffff16815260200190815260200160002090506000821415612600576040517f08c379a000000000000000000000000000000000000000000000000000000000815260040180806020018281038252601f8152602001807f43616e6e6f7420736574206d617820736c69707061676520746f207a65726f0081525060200191505060405180910390fd5b61260982614424565b81600101600082015181600001559050506126438160010160405180602001604052908160008201548152505061263e614442565b614468565b612698576040517f08c379a000000000000000000000000000000000000000000000000000000000815260040180806020018281038252602981526020018061521a6029913960400191505060405180910390fd5b7fd8df93d785f3d0d4294fd7b61e5d749c20eec95a2fed5b6b502a4cad09199ca68383604051808373ffffffffffffffffffffffffffffffffffffffff1673ffffffffffffffffffffffffffffffffffffffff1681526020018281526020019250505060405180910390a1505050565b600073ffffffffffffffffffffffffffffffffffffffff168173ffffffffffffffffffffffffffffffffffffffff1614156127ab576040517f08c379a00000000000000000000000000000000000000000000000000000000081526004018080602001828103825260198152602001807f43616e2774207365742068616e646c657220746f207a65726f0000000000000081525060200191505060405180910390fd5b6000600760008473ffffffffffffffffffffffffffffffffffffffff1673ffffffffffffffffffffffffffffffffffffffff1681526020019081526020016000209050818160000160006101000a81548173ffffffffffffffffffffffffffffffffffffffff021916908373ffffffffffffffffffffffffffffffffffffffff16021790555061284583600861435490919063ffffffff16565b507fdffbd9ded1c09446f09377de547142dcce7dc541c8b0b028142b1eba7026b9e78383604051808373ffffffffffffffffffffffffffffffffffffffff1673ffffffffffffffffffffffffffffffffffffffff1681526020018273ffffffffffffffffffffffffffffffffffffffff1673ffffffffffffffffffffffffffffffffffffffff1681526020019250505060405180910390a1505050565b80600560006101000a81548173ffffffffffffffffffffffffffffffffffffffff021916908373ffffffffffffffffffffffffffffffffffffffff1602179055507ff7015098f8d6fa48f0560725ffd5f81bf687ee5ac45153b590bdcb04648bbdd381604051808273ffffffffffffffffffffffffffffffffffffffff1673ffffffffffffffffffffffffffffffffffffffff16815260200191505060405180910390a150565b612992816132d4565b6000600760008373ffffffffffffffffffffffffffffffffffffffff1673ffffffffffffffffffffffffffffffffffffffff168152602001908152602001600020905060008160000160006101000a81548173ffffffffffffffffffffffffffffffffffffffff021916908373ffffffffffffffffffffffffffffffffffffffff1602179055507f4c910b69fe65a61f7531b9c5042b2329ca7179c77290aa7e2eb3afa3c8511fd382604051808273ffffffffffffffffffffffffffffffffffffffff1673ffffffffffffffffffffffffffffffffffffffff16815260200191505060405180910390a15050565b612a886144d3565b73ffffffffffffffffffffffffffffffffffffffff1663e5839836306040518263ffffffff1660e01b8152600401808273ffffffffffffffffffffffffffffffffffffffff1673ffffffffffffffffffffffffffffffffffffffff16815260200191505060206040518083038186803b158015612b0457600080fd5b505afa158015612b18573d6000803e3d6000fd5b505050506040513d6020811015612b2e57600080fd5b810190808051906020019092919050505015612b95576040517f08c379a000000000000000000000000000000000000000000000000000000000815260040180806020018281038252602281526020018061516c6022913960400191505060405180910390fd5b600160026000828254019250508190555060006002549050600073ffffffffffffffffffffffffffffffffffffffff16600560009054906101000a900473ffffffffffffffffffffffffffffffffffffffff1673ffffffffffffffffffffffffffffffffffffffff161415612c55576040517f08c379a00000000000000000000000000000000000000000000000000000000081526004018080602001828103825260248152602001806151486024913960400191505060405180910390fd5b600082905060008173ffffffffffffffffffffffffffffffffffffffff166370a08231306040518263ffffffff1660e01b8152600401808273ffffffffffffffffffffffffffffffffffffffff1673ffffffffffffffffffffffffffffffffffffffff16815260200191505060206040518083038186803b158015612cd957600080fd5b505afa158015612ced573d6000803e3d6000fd5b505050506040513d6020811015612d0357600080fd5b810190808051906020019092919050505090506000600760008673ffffffffffffffffffffffffffffffffffffffff1673ffffffffffffffffffffffffffffffffffffffff1681526020019081526020016000209050600073ffffffffffffffffffffffffffffffffffffffff168160000160009054906101000a900473ffffffffffffffffffffffffffffffffffffffff1673ffffffffffffffffffffffffffffffffffffffff16141580612ed75750600160009054906101000a900473ffffffffffffffffffffffffffffffffffffffff1673ffffffffffffffffffffffffffffffffffffffff1663dcf0aaed60405160200180807f476f6c64546f6b656e00000000000000000000000000000000000000000000008152506009019050604051602081830303815290604052805190602001206040518263ffffffff1660e01b81526004018082815260200191505060206040518083038186803b158015612e6d57600080fd5b505afa158015612e81573d6000803e3d6000fd5b505050506040513d6020811015612e9757600080fd5b810190808051906020019092919050505073ffffffffffffffffffffffffffffffffffffffff168573ffffffffffffffffffffffffffffffffffffffff16145b612f2c576040517f08c379a00000000000000000000000000000000000000000000000000000000081526004018080602001828103825260238152602001806150d06023913960400191505060405180910390fd5b6000612f3c8383600401546145ce565b90506000811415612f505750505050613059565b8373ffffffffffffffffffffffffffffffffffffffff1663a9059cbb600560009054906101000a900473ffffffffffffffffffffffffffffffffffffffff16836040518363ffffffff1660e01b8152600401808373ffffffffffffffffffffffffffffffffffffffff1673ffffffffffffffffffffffffffffffffffffffff16815260200182815260200192505050602060405180830381600087803b158015612ff957600080fd5b505af115801561300d573d6000803e3d6000fd5b505050506040513d602081101561302357600080fd5b81019080805190602001909291905050505061304c8183600401546145e790919063ffffffff16565b8260040181905550505050505b60025481146130d0576040517f08c379a000000000000000000000000000000000000000000000000000000000815260040180806020018281038252600e8152602001807f7265656e7472616e742063616c6c00000000000000000000000000000000000081525060200191505060405180910390fd5b5050565b600073ffffffffffffffffffffffffffffffffffffffff168173ffffffffffffffffffffffffffffffffffffffff16141561315a576040517f08c379a00000000000000000000000000000000000000000000000000000000081526004018080602001828103825260268152602001806150aa6026913960400191505060405180910390fd5b8073ffffffffffffffffffffffffffffffffffffffff166000809054906101000a900473ffffffffffffffffffffffffffffffffffffffff1673ffffffffffffffffffffffffffffffffffffffff167f8be0079c531659141344cd1fd0a4f28419497f9722a3daafe3b4186f6b6457e060405160405180910390a3806000806101000a81548173ffffffffffffffffffffffffffffffffffffffff021916908373ffffffffffffffffffffffffffffffffffffffff16021790555050565b6000600760008473ffffffffffffffffffffffffffffffffffffffff1673ffffffffffffffffffffffffffffffffffffffff16815260200190815260200160002090508181600201819055507fd3d22ffd28b02735cf411bd7f925bd8da01212c7028153e0d632e2953ac3088e8383604051808373ffffffffffffffffffffffffffffffffffffffff1673ffffffffffffffffffffffffffffffffffffffff1681526020018281526020019250505060405180910390a1505050565b6132e881600861463190919063ffffffff16565b5050565b6000808360000160008473ffffffffffffffffffffffffffffffffffffffff1673ffffffffffffffffffffffffffffffffffffffff168152602001908152602001600020541415905092915050565b600160009054906101000a900473ffffffffffffffffffffffffffffffffffffffff1673ffffffffffffffffffffffffffffffffffffffff1663dcf0aaed60405160200180807f476f6c64546f6b656e00000000000000000000000000000000000000000000008152506009019050604051602081830303815290604052805190602001206040518263ffffffff1660e01b81526004018082815260200191505060206040518083038186803b1580156133f457600080fd5b505afa158015613408573d6000803e3d6000fd5b505050506040513d602081101561341e57600080fd5b810190808051906020019092919050505073ffffffffffffffffffffffffffffffffffffffff168173ffffffffffffffffffffffffffffffffffffffff161461346b5761346a81613591565b5b613473613e62565b61347c81612a80565b613578600160009054906101000a900473ffffffffffffffffffffffffffffffffffffffff1673ffffffffffffffffffffffffffffffffffffffff1663dcf0aaed60405160200180807f476f6c64546f6b656e00000000000000000000000000000000000000000000008152506009019050604051602081830303815290604052805190602001206040518263ffffffff1660e01b81526004018082815260200191505060206040518083038186803b15801561353857600080fd5b505afa15801561354c573d6000803e3d6000fd5b505050506040513d602081101561356257600080fd5b8101908080519060200190929190505050612a80565b50565b600033905090565b600081600001519050919050565b6135996144d3565b73ffffffffffffffffffffffffffffffffffffffff1663e5839836306040518263ffffffff1660e01b8152600401808273ffffffffffffffffffffffffffffffffffffffff1673ffffffffffffffffffffffffffffffffffffffff16815260200191505060206040518083038186803b15801561361557600080fd5b505afa158015613629573d6000803e3d6000fd5b505050506040513d602081101561363f57600080fd5b8101908080519060200190929190505050156136a6576040517f08c379a000000000000000000000000000000000000000000000000000000000815260040180806020018281038252602281526020018061516c6022913960400191505060405180910390fd5b60016002600082825401925050819055506000600254905060008290506000600760008573ffffffffffffffffffffffffffffffffffffffff1673ffffffffffffffffffffffffffffffffffffffff1681526020019081526020016000209050600073ffffffffffffffffffffffffffffffffffffffff168160000160009054906101000a900473ffffffffffffffffffffffffffffffffffffffff1673ffffffffffffffffffffffffffffffffffffffff1614156137b0576040517f08c379a00000000000000000000000000000000000000000000000000000000081526004018080602001828103825260238152602001806150d06023913960400191505060405180910390fd5b60006137d382600101604051806020016040529081600082015481525050613583565b141561382a576040517f08c379a00000000000000000000000000000000000000000000000000000000081526004018080602001828103825260288152602001806151c46028913960400191505060405180910390fd5b61383261506c565b61390861390383600401548573ffffffffffffffffffffffffffffffffffffffff166370a08231306040518263ffffffff1660e01b8152600401808273ffffffffffffffffffffffffffffffffffffffff1673ffffffffffffffffffffffffffffffffffffffff16815260200191505060206040518083038186803b1580156138ba57600080fd5b505afa1580156138ce573d6000803e3d6000fd5b505050506040513d60208110156138e457600080fd5b81019080805190602001909291905050506145e790919063ffffffff16565b61481f565b9050600061393d6139388360046040518060200160405290816000820154815250506148a990919063ffffffff16565b614d08565b905061397061395d8261394f85614d08565b6145e790919063ffffffff16565b8460040154614d2990919063ffffffff16565b836004018190555060c881101561398a5750505050613de7565b61399486826110ec565b15613a0c57826003015490507fb1a68b0b66260ca392f760fd4dda4a94818d69c89a4eeb6610eb41db7bab8c378682604051808373ffffffffffffffffffffffffffffffffffffffff1673ffffffffffffffffffffffffffffffffffffffff1681526020018281526020019250505060405180910390a15b8373ffffffffffffffffffffffffffffffffffffffff1663a9059cbb8460000160009054906101000a900473ffffffffffffffffffffffffffffffffffffffff16836040518363ffffffff1660e01b8152600401808373ffffffffffffffffffffffffffffffffffffffff1673ffffffffffffffffffffffffffffffffffffffff16815260200182815260200192505050602060405180830381600087803b158015613ab757600080fd5b505af1158015613acb573d6000803e3d6000fd5b505050506040513d6020811015613ae157600080fd5b81019080805190602001909291905050505060008360000160009054906101000a900473ffffffffffffffffffffffffffffffffffffffff16905060008173ffffffffffffffffffffffffffffffffffffffff166331de7d1589600160009054906101000a900473ffffffffffffffffffffffffffffffffffffffff1673ffffffffffffffffffffffffffffffffffffffff1663dcf0aaed60405160200180807f476f6c64546f6b656e00000000000000000000000000000000000000000000008152506009019050604051602081830303815290604052805190602001206040518263ffffffff1660e01b81526004018082815260200191505060206040518083038186803b158015613bf457600080fd5b505afa158015613c08573d6000803e3d6000fd5b505050506040513d6020811015613c1e57600080fd5b810190808051906020019092919050505086613c518a600101604051806020016040529081600082015481525050613583565b6040518563ffffffff1660e01b8152600401808573ffffffffffffffffffffffffffffffffffffffff1673ffffffffffffffffffffffffffffffffffffffff1681526020018473ffffffffffffffffffffffffffffffffffffffff1673ffffffffffffffffffffffffffffffffffffffff168152602001838152602001828152602001945050505050602060405180830381600087803b158015613cf457600080fd5b505af1158015613d08573d6000803e3d6000fd5b505050506040513d6020811015613d1e57600080fd5b81019080805190602001909291905050509050613d4681600654614d2990919063ffffffff16565b600681905550613d63838660050154614d2990919063ffffffff16565b8560050181905550613d758884614db1565b7fac094032b4e9dccb3a000eedb94cf30146ca0d7c39be85229f478413fa21d1d88884604051808373ffffffffffffffffffffffffffffffffffffffff1673ffffffffffffffffffffffffffffffffffffffff1681526020018281526020019250505060405180910390a15050505050505b6002548114613e5e576040517f08c379a000000000000000000000000000000000000000000000000000000000815260040180806020018281038252600e8152602001807f7265656e7472616e742063616c6c00000000000000000000000000000000000081525060200191505060405180910390fd5b5050565b600060076000600160009054906101000a900473ffffffffffffffffffffffffffffffffffffffff1673ffffffffffffffffffffffffffffffffffffffff1663dcf0aaed60405160200180807f476f6c64546f6b656e00000000000000000000000000000000000000000000008152506009019050604051602081830303815290604052805190602001206040518263ffffffff1660e01b81526004018082815260200191505060206040518083038186803b158015613f2157600080fd5b505afa158015613f35573d6000803e3d6000fd5b505050506040513d6020811015613f4b57600080fd5b810190808051906020019092919050505073ffffffffffffffffffffffffffffffffffffffff1673ffffffffffffffffffffffffffffffffffffffff16815260200190815260200160002090506000600160009054906101000a900473ffffffffffffffffffffffffffffffffffffffff1673ffffffffffffffffffffffffffffffffffffffff1663dcf0aaed60405160200180807f476f6c64546f6b656e00000000000000000000000000000000000000000000008152506009019050604051602081830303815290604052805190602001206040518263ffffffff1660e01b81526004018082815260200191505060206040518083038186803b15801561405357600080fd5b505afa158015614067573d6000803e3d6000fd5b505050506040513d602081101561407d57600080fd5b81019080805190602001909291905050509050600047905060006140c26006546140b48660040154856145e790919063ffffffff16565b6145e790919063ffffffff16565b905060006140ff6140fa60046040518060200160405290816000820154815250506140ec8561481f565b6148a990919063ffffffff16565b614d08565b9050600061411860065483614d2990919063ffffffff16565b90508473ffffffffffffffffffffffffffffffffffffffff166342966c68826040518263ffffffff1660e01b815260040180828152602001915050602060405180830381600087803b15801561416d57600080fd5b505af1158015614181573d6000803e3d6000fd5b505050506040513d602081101561419757600080fd5b81019080805190602001909291905050505060006006819055506141da6141c783856145e790919063ffffffff16565b8760040154614d2990919063ffffffff16565b8660040181905550505050505050565b600073ffffffffffffffffffffffffffffffffffffffff168173ffffffffffffffffffffffffffffffffffffffff161415614270576040517f08c379a000000000000000000000000000000000000000000000000000000000815260040180806020018281038252602e8152602001806151ec602e913960400191505060405180910390fd5b6000600760008473ffffffffffffffffffffffffffffffffffffffff1673ffffffffffffffffffffffffffffffffffffffff1681526020019081526020016000209050818160000160006101000a81548173ffffffffffffffffffffffffffffffffffffffff021916908373ffffffffffffffffffffffffffffffffffffffff160217905550505050565b60008090505b61430b600861447e565b81101561434157600061432882600861448f90919063ffffffff16565b905061433381613591565b508080600101915050614301565b5061434a612401565b614352613e62565b565b600061436083836132ec565b61441957826001018290806001815401808255809150509060018203906000526020600020016000909192909190916101000a81548173ffffffffffffffffffffffffffffffffffffffff021916908373ffffffffffffffffffffffffffffffffffffffff1602179055508360000160008473ffffffffffffffffffffffffffffffffffffffff1673ffffffffffffffffffffffffffffffffffffffff168152602001908152602001600020819055506001905061441e565b600090505b92915050565b61442c61506c565b6040518060200160405280838152509050919050565b61444a61506c565b604051806020016040528069d3c21bcecceda1000000815250905090565b6000816000015183600001511115905092915050565b600081600101805490509050919050565b60008260010182815481106144a057fe5b9060005260206000200160009054906101000a900473ffffffffffffffffffffffffffffffffffffffff16905092915050565b6000600160009054906101000a900473ffffffffffffffffffffffffffffffffffffffff1673ffffffffffffffffffffffffffffffffffffffff1663dcf0aaed60405160200180807f467265657a6572000000000000000000000000000000000000000000000000008152506007019050604051602081830303815290604052805190602001206040518263ffffffff1660e01b81526004018082815260200191505060206040518083038186803b15801561458e57600080fd5b505afa1580156145a2573d6000803e3d6000fd5b505050506040513d60208110156145b857600080fd5b8101908080519060200190929190505050905090565b60008183106145dd57816145df565b825b905092915050565b600061462983836040518060400160405280601e81526020017f536166654d6174683a207375627472616374696f6e206f766572666c6f770000815250614e63565b905092915050565b600061463d83836132ec565b1561481457600060018460000160008573ffffffffffffffffffffffffffffffffffffffff1673ffffffffffffffffffffffffffffffffffffffff168152602001908152602001600020540390506000600185600101805490500390508181146147825760008560010182815481106146b257fe5b9060005260206000200160009054906101000a900473ffffffffffffffffffffffffffffffffffffffff169050808660010184815481106146ef57fe5b9060005260206000200160006101000a81548173ffffffffffffffffffffffffffffffffffffffff021916908373ffffffffffffffffffffffffffffffffffffffff160217905550600183018660000160008373ffffffffffffffffffffffffffffffffffffffff1673ffffffffffffffffffffffffffffffffffffffff16815260200190815260200160002081905550505b8460000160008573ffffffffffffffffffffffffffffffffffffffff1673ffffffffffffffffffffffffffffffffffffffff16815260200190815260200160002060009055846001018054806147d457fe5b6001900381819060005260206000200160006101000a81549073ffffffffffffffffffffffffffffffffffffffff02191690559055600192505050614819565b600090505b92915050565b61482761506c565b61482f614f23565b821115614887576040517f08c379a000000000000000000000000000000000000000000000000000000000815260040180806020018281038252603681526020018061518e6036913960400191505060405180910390fd5b604051806020016040528069d3c21bcecceda100000084028152509050919050565b6148b161506c565b6000836000015114806148c8575060008260000151145b156148e457604051806020016040528060008152509050614d02565b69d3c21bcecceda10000008260000151141561490257829050614d02565b69d3c21bcecceda10000008360000151141561492057819050614d02565b600069d3c21bcecceda100000061493685614f42565b600001518161494157fe5b049050600061494f85614f79565b600001519050600069d3c21bcecceda100000061496b86614f42565b600001518161497657fe5b049050600061498486614f79565b6000015190506000828502905060008514614a1857828582816149a357fe5b0414614a17576040517f08c379a00000000000000000000000000000000000000000000000000000000081526004018080602001828103825260168152602001807f6f766572666c6f7720783179312064657465637465640000000000000000000081525060200191505060405180910390fd5b5b600069d3c21bcecceda10000008202905060008214614aba5769d3c21bcecceda1000000828281614a4557fe5b0414614ab9576040517f08c379a000000000000000000000000000000000000000000000000000000000815260040180806020018281038252601f8152602001807f6f766572666c6f772078317931202a206669786564312064657465637465640081525060200191505060405180910390fd5b5b8091506000848602905060008614614b4b5784868281614ad657fe5b0414614b4a576040517f08c379a00000000000000000000000000000000000000000000000000000000081526004018080602001828103825260168152602001807f6f766572666c6f7720783279312064657465637465640000000000000000000081525060200191505060405180910390fd5b5b6000848802905060008814614bd95784888281614b6457fe5b0414614bd8576040517f08c379a00000000000000000000000000000000000000000000000000000000081526004018080602001828103825260168152602001807f6f766572666c6f7720783179322064657465637465640000000000000000000081525060200191505060405180910390fd5b5b614be1614fb6565b8781614be957fe5b049650614bf4614fb6565b8581614bfc57fe5b0494506000858802905060008814614c8d5785888281614c1857fe5b0414614c8c576040517f08c379a00000000000000000000000000000000000000000000000000000000081526004018080602001828103825260168152602001807f6f766572666c6f7720783279322064657465637465640000000000000000000081525060200191505060405180910390fd5b5b614c9561506c565b6040518060200160405280878152509050614cbe81604051806020016040528087815250614fc3565b9050614cd881604051806020016040528086815250614fc3565b9050614cf281604051806020016040528085815250614fc3565b9050809a50505050505050505050505b92915050565b600069d3c21bcecceda1000000826000015181614d2157fe5b049050919050565b600080828401905083811015614da7576040517f08c379a000000000000000000000000000000000000000000000000000000000815260040180806020018281038252601b8152602001807f536166654d6174683a206164646974696f6e206f766572666c6f77000000000081525060200191505060405180910390fd5b8091505092915050565b6000600760008473ffffffffffffffffffffffffffffffffffffffff1673ffffffffffffffffffffffffffffffffffffffff1681526020019081526020016000209050600081600201541415614e075750614e5f565b614e1e8282600301546145e790919063ffffffff16565b81600301819055507fcdcea7139bd245b1c7468bc1cfb59ad732b3b0909bafa9f9436ad74c81d0aafb826040518082815260200191505060405180910390a1505b5050565b6000838311158290614f10576040517f08c379a00000000000000000000000000000000000000000000000000000000081526004018080602001828103825283818151815260200191508051906020019080838360005b83811015614ed5578082015181840152602081019050614eba565b50505050905090810190601f168015614f025780820380516001836020036101000a031916815260200191505b509250505060405180910390fd5b5060008385039050809150509392505050565b60007601357c299a88ea76a58924d52ce4f26a85af186c2b9e74905090565b614f4a61506c565b604051806020016040528069d3c21bcecceda100000080856000015181614f6d57fe5b04028152509050919050565b614f8161506c565b604051806020016040528069d3c21bcecceda100000080856000015181614fa457fe5b04028460000151038152509050919050565b600064e8d4a51000905090565b614fcb61506c565b6000826000015184600001510190508360000151811015615054576040517f08c379a00000000000000000000000000000000000000000000000000000000081526004018080602001828103825260158152602001807f616464206f766572666c6f77206465746563746564000000000000000000000081525060200191505060405180910390fd5b60405180602001604052808281525091505092915050565b604051806020016040528060008152509056fe68616e646c657273206c656e6774682073686f756c64206d6174636820746f6b656e73206c656e6774684f776e61626c653a206e6577206f776e657220697320746865207a65726f206164647265737348616e646c65722068617320746f2062652073657420746f2073656c6c20746f6b656e6c696d697473206c656e6774682073686f756c64206d6174636820746f6b656e73206c656e6774686d6178536c697070616765206c656e6774682073686f756c64206d6174636820746f6b656e73206c656e67746843616e2774206469737472696275746520746f20746865207a65726f206164647265737363616e27742063616c6c207768656e20636f6e74726163742069732066726f7a656e63616e277420637265617465206669786964697479206e756d626572206c6172676572207468616e206d61784e6577466978656428294d617820736c6970706167652068617320746f2062652073657420746f2073656c6c20746f6b656e43616e2774207365742068616e646c657220746f207a65726f2c207573652064656163746976617465546f6b656e53706c697070616765206d757374206265206c657373207468616e206f7220657175616c20746f20314275726e206672616374696f6e206d757374206265206c657373207468616e206f7220657175616c20746f203148616e646c65722068617320746f2062652073657420746f20616374697661746520746f6b656ea265627a7a72315820557f293af7575e78e686e68bb82eaf3b1ea1d7d79a767906b388ee207322cc7664736f6c634300050d0032",
  "source": "pragma solidity ^0.5.13;\n\nimport \"openzeppelin-solidity/contracts/math/SafeMath.sol\";\nimport \"openzeppelin-solidity/contracts/math/Math.sol\";\nimport \"openzeppelin-solidity/contracts/ownership/Ownable.sol\";\nimport \"openzeppelin-solidity/contracts/token/ERC20/IERC20.sol\";\nimport \"openzeppelin-solidity/contracts/utils/EnumerableSet.sol\";\n\nimport \"./UsingRegistry.sol\";\nimport \"../common/Freezable.sol\";\nimport \"../common/FixidityLib.sol\";\nimport \"../common/Initializable.sol\";\n\nimport \"../common/interfaces/IFeeHandler.sol\";\nimport \"../common/interfaces/IFeeHandlerSeller.sol\";\n\n// TODO move to IStableToken when it adds method getExchangeRegistryId\nimport \"./interfaces/IStableTokenMento.sol\";\nimport \"../common/interfaces/ICeloVersionedContract.sol\";\nimport \"../common/interfaces/ICeloToken.sol\";\nimport \"../stability/interfaces/ISortedOracles.sol\";\n\n// Using the minimal required signatures in the interfaces so more contracts could be compatible\nimport \"../common/libraries/ReentrancyGuard.sol\";\n\n// An implementation of FeeHandler as described in CIP-52\n// See https://github.com/celo-org/celo-proposals/blob/master/CIPs/cip-0052.md\ncontract FeeHandler is\n  Ownable,\n  Initializable,\n  UsingRegistry,\n  ICeloVersionedContract,\n  Freezable,\n  IFeeHandler,\n  ReentrancyGuard\n{\n  using SafeMath for uint256;\n  using FixidityLib for FixidityLib.Fraction;\n  using EnumerableSet for EnumerableSet.AddressSet;\n\n  uint256 public constant FIXED1_UINT = 1000000000000000000000000; // TODO move to FIX and add check\n\n  // Min units that can be burned\n  uint256 public constant MIN_BURN = 200;\n\n  // last day the daily limits were updated\n  uint256 public lastLimitDay;\n\n  FixidityLib.Fraction public burnFraction; // 80%\n\n  address public feeBeneficiary;\n\n  uint256 public celoToBeBurned;\n\n  // This mapping can not be public because it contains a FixidityLib.Fraction\n  // and that'd be only supported with experimental features in this\n  // compiler version\n  mapping(address => TokenState) private tokenStates;\n\n  struct TokenState {\n    address handler;\n    FixidityLib.Fraction maxSlippage;\n    // Max amounts that can be burned in a day for a token\n    uint256 dailySellLimit;\n    // Max amounts that can be burned today for a token\n    uint256 currentDaySellLimit;\n    uint256 toDistribute;\n    // Historical amounts burned by this contract\n    uint256 pastBurn;\n  }\n\n  EnumerableSet.AddressSet private activeTokens;\n\n  event SoldAndBurnedToken(address token, uint256 value);\n  event DailyLimitSet(address tokenAddress, uint256 newLimit);\n  event DailyLimitHit(address token, uint256 burning);\n  event MaxSlippageSet(address token, uint256 maxSlippage);\n  event DailySellLimitUpdated(uint256 amount);\n  event FeeBeneficiarySet(address newBeneficiary);\n  event BurnFractionSet(uint256 fraction);\n  event TokenAdded(address tokenAddress, address handlerAddress);\n  event TokenRemoved(address tokenAddress);\n\n  /**\n   * @notice Sets initialized == true on implementation contracts.\n   * @param test Set to true to skip implementation initialisation.\n   */\n  constructor(bool test) public Initializable(test) {}\n\n  /**\n   * @notice Used in place of the constructor to allow the contract to be upgradable via proxy.\n   */\n  function initialize(\n    address _registryAddress,\n    address newFeeBeneficiary,\n    uint256 newBurnFraction,\n    address[] calldata tokens,\n    address[] calldata handlers,\n    uint256[] calldata newLimits,\n    uint256[] calldata newMaxSlippages\n  ) external initializer {\n    require(tokens.length == handlers.length, \"handlers length should match tokens length\");\n    require(tokens.length == newLimits.length, \"limits length should match tokens length\");\n    require(\n      tokens.length == newMaxSlippages.length,\n      \"maxSlippage length should match tokens length\"\n    );\n\n    _transferOwnership(msg.sender);\n    setRegistry(_registryAddress);\n    _setFeeBeneficiary(newFeeBeneficiary);\n    _setBurnFraction(newBurnFraction);\n\n    for (uint256 i = 0; i < tokens.length; i++) {\n      _addToken(tokens[i], handlers[i]);\n      _setDailySellLimit(tokens[i], newLimits[i]);\n      _setMaxSplippage(tokens[i], newMaxSlippages[i]);\n    }\n  }\n\n  // Without this the contract cant receive Celo as native transfer\n  function() external payable {}\n\n  /**\n    @dev Returns the handler address for the specified token.\n    @param tokenAddress The address of the token for which to return the handler.\n    @return The address of the handler contract for the specified token.\n  */\n  function getTokenHandler(address tokenAddress) external view returns (address) {\n    return tokenStates[tokenAddress].handler;\n  }\n\n  /**\n    @dev Returns a boolean indicating whether the specified token is active or not.\n    @param tokenAddress The address of the token for which to retrieve the active status.\n    @return A boolean representing the active status of the specified token.\n  */\n  function getTokenActive(address tokenAddress) external view returns (bool) {\n    return activeTokens.contains(tokenAddress);\n  }\n\n  /**\n    @dev Returns the maximum slippage percentage for the specified token.\n    @param tokenAddress The address of the token for which to retrieve the maximum\n     slippage percentage.\n    @return The maximum slippage percentage as a uint256 value.\n  */\n  function getTokenMaxSlippage(address tokenAddress) external view returns (uint256) {\n    return FixidityLib.unwrap(tokenStates[tokenAddress].maxSlippage);\n  }\n\n  /**\n    @dev Returns the daily burn limit for the specified token.\n    @param tokenAddress The address of the token for which to retrieve the daily burn limit.\n    @return The daily burn limit as a uint256 value.\n  */\n\n  function getTokenDailySellLimit(address tokenAddress) external view returns (uint256) {\n    return tokenStates[tokenAddress].dailySellLimit;\n  }\n\n  /**\n    @dev Returns the current daily sell limit for the specified token.\n    @param tokenAddress The address of the token for which to retrieve the current daily limit.\n    @return The current daily limit as a uint256 value.\n  */\n  function getTokenCurrentDaySellLimit(address tokenAddress) external view returns (uint256) {\n    return tokenStates[tokenAddress].currentDaySellLimit;\n  }\n\n  /**\n    @dev Returns the amount of tokens available to distribute for the specified token.\n    @param tokenAddress The address of the token for which to retrieve the amount of\n    tokens available to distribute.\n    @return The amount of tokens available to distribute as a uint256 value.\n  */\n  function getTokenToDistribute(address tokenAddress) external view returns (uint256) {\n    return tokenStates[tokenAddress].toDistribute;\n  }\n\n  function getActiveTokens() public view returns (address[] memory) {\n    return activeTokens.values;\n  }\n\n  /**\n    @dev Sets the fee beneficiary address to the specified address.\n    @param beneficiary The address to set as the fee beneficiary.\n  */\n  function setFeeBeneficiary(address beneficiary) external onlyOwner {\n    return _setFeeBeneficiary(beneficiary);\n  }\n\n  function _setFeeBeneficiary(address beneficiary) private {\n    feeBeneficiary = beneficiary;\n    emit FeeBeneficiarySet(beneficiary);\n  }\n\n  /**\n    @dev Sets the burn fraction to the specified value.\n    @param fraction The value to set as the burn fraction.\n  */\n  function setBurnFraction(uint256 fraction) external onlyOwner {\n    return _setBurnFraction(fraction);\n  }\n\n  function _setBurnFraction(uint256 newFraction) private {\n    FixidityLib.Fraction memory fraction = FixidityLib.wrap(newFraction);\n    require(\n      FixidityLib.lte(fraction, FixidityLib.fixed1()),\n      \"Burn fraction must be less than or equal to 1\"\n    );\n    burnFraction = fraction;\n    emit BurnFractionSet(newFraction);\n  }\n\n  /**\n    @dev Sets the burn fraction to the specified value. Token has to have a handler set.\n    @param tokenAddress The address of the token to sell\n  */\n  function sell(address tokenAddress) external {\n    return _sell(tokenAddress);\n  }\n\n  /**\n    @dev Adds a new token to the contract with the specified token and handler addresses.\n    @param tokenAddress The address of the token to add.\n    @param handlerAddress The address of the handler contract for the specified token.\n  */\n  function addToken(address tokenAddress, address handlerAddress) external onlyOwner {\n    _addToken(tokenAddress, handlerAddress);\n  }\n\n  function _addToken(address tokenAddress, address handlerAddress) private {\n    require(handlerAddress != address(0), \"Can't set handler to zero\");\n    TokenState storage tokenState = tokenStates[tokenAddress];\n    tokenState.handler = handlerAddress;\n\n    activeTokens.add(tokenAddress);\n    emit TokenAdded(tokenAddress, handlerAddress);\n  }\n\n  /**\n    @notice Allows the owner to activate a specified token.\n    @param tokenAddress The address of the token to be activated.\n  */\n  function activateToken(address tokenAddress) external onlyOwner {\n    _activateToken(tokenAddress);\n  }\n\n  function _activateToken(address tokenAddress) private {\n    TokenState storage tokenState = tokenStates[tokenAddress];\n    require(\n      tokenState.handler != address(0) ||\n        tokenAddress == registry.getAddressForOrDie(GOLD_TOKEN_REGISTRY_ID),\n      \"Handler has to be set to activate token\"\n    );\n    activeTokens.add(tokenAddress);\n  }\n\n  /**\n    @dev Deactivates the specified token by marking it as inactive.\n    @param tokenAddress The address of the token to deactivate.\n  */\n  function deactivateToken(address tokenAddress) external onlyOwner {\n    _deactivateToken(tokenAddress);\n  }\n\n  function _deactivateToken(address tokenAddress) private {\n    activeTokens.remove(tokenAddress);\n  }\n\n  /**\n    @notice Allows the owner to set a handler contract for a specified token.\n    @param tokenAddress The address of the token to set the handler for.\n    @param handlerAddress The address of the handler contract to be set.\n  */\n  function setHandler(address tokenAddress, address handlerAddress) external onlyOwner {\n    _setHandler(tokenAddress, handlerAddress);\n  }\n\n  function _setHandler(address tokenAddress, address handlerAddress) private {\n    require(handlerAddress != address(0), \"Can't set handler to zero, use deactivateToken\");\n    TokenState storage tokenState = tokenStates[tokenAddress];\n    tokenState.handler = handlerAddress;\n  }\n\n  function removeToken(address tokenAddress) external onlyOwner {\n    _removeToken(tokenAddress);\n  }\n\n  function _removeToken(address tokenAddress) private {\n    _deactivateToken(tokenAddress);\n    TokenState storage tokenState = tokenStates[tokenAddress];\n    tokenState.handler = address(0);\n    emit TokenRemoved(tokenAddress);\n  }\n\n  function _sell(address tokenAddress) private onlyWhenNotFrozen nonReentrant {\n    IERC20 token = IERC20(tokenAddress);\n\n    TokenState storage tokenState = tokenStates[tokenAddress];\n    require(tokenState.handler != address(0), \"Handler has to be set to sell token\");\n    require(\n      FixidityLib.unwrap(tokenState.maxSlippage) != 0,\n      \"Max slippage has to be set to sell token\"\n    );\n    FixidityLib.Fraction memory balanceToProcess = FixidityLib.newFixed(\n      token.balanceOf(address(this)).sub(tokenState.toDistribute)\n    );\n\n    uint256 balanceToBurn = (burnFraction.multiply(balanceToProcess).fromFixed());\n\n    tokenState.toDistribute = tokenState.toDistribute.add(\n      balanceToProcess.fromFixed().sub(balanceToBurn)\n    );\n\n    // small numbers cause rounding errors and zero case should be skipped\n    if (balanceToBurn < MIN_BURN) {\n      return;\n    }\n\n    if (dailySellLimitHit(tokenAddress, balanceToBurn)) {\n      // in case the limit is hit, burn the max possible\n      balanceToBurn = tokenState.currentDaySellLimit;\n      emit DailyLimitHit(tokenAddress, balanceToBurn);\n    }\n\n    token.transfer(tokenState.handler, balanceToBurn);\n    IFeeHandlerSeller handler = IFeeHandlerSeller(tokenState.handler);\n\n    uint256 celoReceived = handler.sell(\n      tokenAddress,\n      registry.getAddressForOrDie(GOLD_TOKEN_REGISTRY_ID),\n      balanceToBurn,\n      FixidityLib.unwrap(tokenState.maxSlippage)\n    );\n\n    celoToBeBurned = celoToBeBurned.add(celoReceived);\n    tokenState.pastBurn = tokenState.pastBurn.add(balanceToBurn);\n    updateLimits(tokenAddress, balanceToBurn);\n\n    emit SoldAndBurnedToken(tokenAddress, balanceToBurn);\n  }\n\n  /**\n    @dev Distributes the available tokens for the specified token address to the fee beneficiary.\n    @param tokenAddress The address of the token for which to distribute the available tokens.\n  */\n  function distribute(address tokenAddress) external {\n    return _distribute(tokenAddress);\n  }\n\n  function _distribute(address tokenAddress) private onlyWhenNotFrozen nonReentrant {\n    require(feeBeneficiary != address(0), \"Can't distribute to the zero address\");\n    IERC20 token = IERC20(tokenAddress);\n    uint256 tokenBalance = token.balanceOf(address(this));\n\n    TokenState storage tokenState = tokenStates[tokenAddress];\n    require(\n      tokenState.handler != address(0) ||\n        tokenAddress == registry.getAddressForOrDie(GOLD_TOKEN_REGISTRY_ID),\n      \"Handler has to be set to sell token\"\n    );\n\n    // safty check to avoid a revert due balance\n    uint256 balanceToDistribute = Math.min(tokenBalance, tokenState.toDistribute);\n\n    if (balanceToDistribute == 0) {\n      // don't distribute with zero balance\n      return;\n    }\n\n    token.transfer(feeBeneficiary, balanceToDistribute);\n    tokenState.toDistribute = tokenState.toDistribute.sub(balanceToDistribute);\n  }\n\n  /**\n   * @notice Returns the storage, major, minor, and patch version of the contract.\n   * @return Storage version of the contract.\n   * @return Major version of the contract.\n   * @return Minor version of the contract.\n   * @return Patch version of the contract.\n   */\n  function getVersionNumber() external pure returns (uint256, uint256, uint256, uint256) {\n    return (1, 1, 0, 0);\n  }\n\n  /**\n    * @notice Allows owner to set max slippage for a token.\n    * @param token Address of the token to set.\n    * @param newMax New sllipage to set, as Fixidity fraction.\n    */\n  function setMaxSplippage(address token, uint256 newMax) external onlyOwner {\n    _setMaxSplippage(token, newMax);\n  }\n\n  function _setMaxSplippage(address token, uint256 newMax) private {\n    TokenState storage tokenState = tokenStates[token];\n    require(newMax != 0, \"Cannot set max slippage to zero\");\n    tokenState.maxSlippage = FixidityLib.wrap(newMax);\n    require(\n      FixidityLib.lte(tokenState.maxSlippage, FixidityLib.fixed1()),\n      \"Splippage must be less than or equal to 1\"\n    );\n    emit MaxSlippageSet(token, newMax);\n  }\n\n  /**\n    * @notice Allows owner to set the daily burn limit for a token.\n    * @param token Address of the token to set.\n    * @param newLimit The new limit to set, in the token units.\n    */\n  function setDailySellLimit(address token, uint256 newLimit) external onlyOwner {\n    _setDailySellLimit(token, newLimit);\n  }\n\n  function _setDailySellLimit(address token, uint256 newLimit) private {\n    TokenState storage tokenState = tokenStates[token];\n    tokenState.dailySellLimit = newLimit;\n    emit DailyLimitSet(token, newLimit);\n  }\n\n  /**\n  @dev Burns CELO tokens according to burnFraction.\n  */\n  function burnCelo() external {\n    return _burnCelo();\n  }\n\n  /**\n    @dev Distributes the available tokens for all registered tokens to the feeBeneficiary.\n  */\n  function distributeAll() external {\n    return _distributeAll();\n  }\n\n  function _distributeAll() private {\n    for (uint256 i = 0; i < EnumerableSet.length(activeTokens); i++) {\n      address token = activeTokens.get(i);\n      _distribute(token);\n    }\n    // distribute Celo\n    _distribute(registry.getAddressForOrDie(GOLD_TOKEN_REGISTRY_ID));\n  }\n\n  /**\n    @dev Distributes the available tokens for all registered tokens to the feeBeneficiary.\n  */\n  function handleAll() external {\n    return _handleAll();\n  }\n\n  function _handleAll() private {\n    for (uint256 i = 0; i < EnumerableSet.length(activeTokens); i++) {\n      // calling _handle would trigger may burn Celo and distributions\n      // that can be just batched at the end\n      address token = activeTokens.get(i);\n      _sell(token);\n    }\n    _distributeAll(); // distributes Celo as well\n    _burnCelo();\n  }\n\n  /**\n    @dev Distributes the the token for to the feeBeneficiary.\n  */\n  function handle(address tokenAddress) external {\n    return _handle(tokenAddress);\n  }\n\n  function _handle(address tokenAddress) private {\n    // Celo doesn't have to be exchanged for anything\n    if (tokenAddress != registry.getAddressForOrDie(GOLD_TOKEN_REGISTRY_ID)) {\n      _sell(tokenAddress);\n    }\n    _burnCelo();\n    _distribute(tokenAddress);\n    _distribute(registry.getAddressForOrDie(GOLD_TOKEN_REGISTRY_ID));\n  }\n\n  /**\n    * @notice Burns all the Celo balance of this contract.\n    */\n  function _burnCelo() private {\n    TokenState storage tokenState = tokenStates[registry.getAddressForOrDie(\n      GOLD_TOKEN_REGISTRY_ID\n    )];\n    ICeloToken celo = ICeloToken(registry.getAddressForOrDie(GOLD_TOKEN_REGISTRY_ID));\n\n    uint256 balanceOfCelo = address(this).balance;\n\n    uint256 balanceToProcess = balanceOfCelo.sub(tokenState.toDistribute).sub(celoToBeBurned);\n    uint256 currentBalanceToBurn = FixidityLib\n      .newFixed(balanceToProcess)\n      .multiply(burnFraction)\n      .fromFixed();\n    uint256 totalBalanceToBurn = currentBalanceToBurn.add(celoToBeBurned);\n    celo.burn(totalBalanceToBurn);\n\n    celoToBeBurned = 0;\n    tokenState.toDistribute = tokenState.toDistribute.add(\n      balanceToProcess.sub(currentBalanceToBurn)\n    );\n  }\n\n  /**\n    * @param token The address of the token to query.\n    * @return The amount burned for a token.\n    */\n  function getPastBurnForToken(address token) external view returns (uint256) {\n    return tokenStates[token].pastBurn;\n  }\n\n  /**\n    * @param token The address of the token to query.\n    * @param amountToBurn The amount of the token to burn.\n    * @return Returns true if burning amountToBurn would exceed the daily limit.\n    */\n  function dailySellLimitHit(address token, uint256 amountToBurn) public returns (bool) {\n    TokenState storage tokenState = tokenStates[token];\n\n    if (tokenState.dailySellLimit == 0) {\n      // if no limit set, assume uncapped\n      return false;\n    }\n\n    uint256 currentDay = now / 1 days;\n    // Pattern borrowed from Reserve.sol\n    if (currentDay > lastLimitDay) {\n      lastLimitDay = currentDay;\n      tokenState.currentDaySellLimit = tokenState.dailySellLimit;\n    }\n\n    return amountToBurn >= tokenState.currentDaySellLimit;\n  }\n\n  /**\n    * @notice Updates the current day limit for a token.\n    * @param token The address of the token to query.\n    * @param amountBurned the amount of the token that was burned.\n    */\n  function updateLimits(address token, uint256 amountBurned) private {\n    TokenState storage tokenState = tokenStates[token];\n\n    if (tokenState.dailySellLimit == 0) {\n      // if no limit set, assume uncapped\n      return;\n    }\n    tokenState.currentDaySellLimit = tokenState.currentDaySellLimit.sub(amountBurned);\n    emit DailySellLimitUpdated(amountBurned);\n  }\n\n  /**\n    * @notice Allows owner to transfer tokens of this contract. It's meant for governance to\n      trigger use cases not contemplated in this contract.\n      @param token The address of the token to transfer.\n      @param recipient The address of the recipient to transfer the tokens to.\n      @param value The amount of tokens to transfer.\n      @return A boolean indicating whether the transfer was successful or not.\n    */\n  function transfer(address token, address recipient, uint256 value)\n    external\n    onlyOwner\n    returns (bool)\n  {\n    return IERC20(token).transfer(recipient, value);\n  }\n}\n",
  "sourcePath": "/Users/beaver/Development/celo/celo-monorepo/packages/protocol/contracts/common/FeeHandler.sol",
  "compiler": {
    "name": "solc",
    "version": "0.5.13+commit.5b0b510c.Emscripten.clang"
  },
  "schemaVersion": "3.4.13",
  "updatedAt": "2024-03-05T15:27:45.586Z",
  "networkType": "ethereum",
  "devdoc": {
    "methods": {
      "activateToken(address)": {
        "params": {
          "tokenAddress": "The address of the token to be activated."
        }
      },
      "addToken(address,address)": {
        "details": "Adds a new token to the contract with the specified token and handler addresses.",
        "params": {
          "handlerAddress": "The address of the handler contract for the specified token.",
          "tokenAddress": "The address of the token to add."
        }
      },
      "burnCelo()": {
        "details": "Burns CELO tokens according to burnFraction."
      },
      "constructor": {
        "params": {
          "test": "Set to true to skip implementation initialisation."
        }
      },
      "dailySellLimitHit(address,uint256)": {
        "params": {
          "amountToBurn": "The amount of the token to burn.",
          "token": "The address of the token to query."
        },
        "return": "Returns true if burning amountToBurn would exceed the daily limit."
      },
      "deactivateToken(address)": {
        "details": "Deactivates the specified token by marking it as inactive.",
        "params": {
          "tokenAddress": "The address of the token to deactivate."
        }
      },
      "distribute(address)": {
        "details": "Distributes the available tokens for the specified token address to the fee beneficiary.",
        "params": {
          "tokenAddress": "The address of the token for which to distribute the available tokens."
        }
      },
      "distributeAll()": {
        "details": "Distributes the available tokens for all registered tokens to the feeBeneficiary."
      },
      "getPastBurnForToken(address)": {
        "params": {
          "token": "The address of the token to query."
        },
        "return": "The amount burned for a token."
      },
      "getTokenActive(address)": {
        "details": "Returns a boolean indicating whether the specified token is active or not.",
        "params": {
          "tokenAddress": "The address of the token for which to retrieve the active status."
        },
        "return": "A boolean representing the active status of the specified token."
      },
      "getTokenCurrentDaySellLimit(address)": {
        "details": "Returns the current daily sell limit for the specified token.",
        "params": {
          "tokenAddress": "The address of the token for which to retrieve the current daily limit."
        },
        "return": "The current daily limit as a uint256 value."
      },
      "getTokenDailySellLimit(address)": {
        "details": "Returns the daily burn limit for the specified token.",
        "params": {
          "tokenAddress": "The address of the token for which to retrieve the daily burn limit."
        },
        "return": "The daily burn limit as a uint256 value."
      },
      "getTokenHandler(address)": {
        "details": "Returns the handler address for the specified token.",
        "params": {
          "tokenAddress": "The address of the token for which to return the handler."
        },
        "return": "The address of the handler contract for the specified token."
      },
      "getTokenMaxSlippage(address)": {
        "details": "Returns the maximum slippage percentage for the specified token.",
        "params": {
          "tokenAddress": "The address of the token for which to retrieve the maximum slippage percentage."
        },
        "return": "The maximum slippage percentage as a uint256 value."
      },
      "getTokenToDistribute(address)": {
        "details": "Returns the amount of tokens available to distribute for the specified token.",
        "params": {
          "tokenAddress": "The address of the token for which to retrieve the amount of tokens available to distribute."
        },
        "return": "The amount of tokens available to distribute as a uint256 value."
      },
      "getVersionNumber()": {
        "return": "Storage version of the contract.Major version of the contract.Minor version of the contract.Patch version of the contract."
      },
      "handle(address)": {
        "details": "Distributes the the token for to the feeBeneficiary."
      },
      "handleAll()": {
        "details": "Distributes the available tokens for all registered tokens to the feeBeneficiary."
      },
      "isOwner()": {
        "details": "Returns true if the caller is the current owner."
      },
      "owner()": {
        "details": "Returns the address of the current owner."
      },
      "renounceOwnership()": {
        "details": "Leaves the contract without owner. It will not be possible to call `onlyOwner` functions anymore. Can only be called by the current owner.     * NOTE: Renouncing ownership will leave the contract without an owner, thereby removing any functionality that is only available to the owner."
      },
      "sell(address)": {
        "details": "Sets the burn fraction to the specified value. Token has to have a handler set.",
        "params": {
          "tokenAddress": "The address of the token to sell"
        }
      },
      "setBurnFraction(uint256)": {
        "details": "Sets the burn fraction to the specified value.",
        "params": {
          "fraction": "The value to set as the burn fraction."
        }
      },
      "setDailySellLimit(address,uint256)": {
        "params": {
          "newLimit": "The new limit to set, in the token units.",
          "token": "Address of the token to set."
        }
      },
      "setFeeBeneficiary(address)": {
        "details": "Sets the fee beneficiary address to the specified address.",
        "params": {
          "beneficiary": "The address to set as the fee beneficiary."
        }
      },
      "setHandler(address,address)": {
        "params": {
          "handlerAddress": "The address of the handler contract to be set.",
          "tokenAddress": "The address of the token to set the handler for."
        }
      },
      "setMaxSplippage(address,uint256)": {
        "params": {
          "newMax": "New sllipage to set, as Fixidity fraction.",
          "token": "Address of the token to set."
        }
      },
      "setRegistry(address)": {
        "params": {
          "registryAddress": "The address of a registry contract for routing to other contracts."
        }
      },
      "transfer(address,address,uint256)": {
        "params": {
          "recipient": "The address of the recipient to transfer the tokens to.",
          "token": "The address of the token to transfer.",
          "value": "The amount of tokens to transfer."
        },
        "return": "A boolean indicating whether the transfer was successful or not."
      },
      "transferOwnership(address)": {
        "details": "Transfers ownership of the contract to a new account (`newOwner`). Can only be called by the current owner."
      }
    }
  },
  "userdoc": {
    "methods": {
      "activateToken(address)": {
        "notice": "Allows the owner to activate a specified token."
      },
      "constructor": "Sets initialized == true on implementation contracts.",
      "getVersionNumber()": {
        "notice": "Returns the storage, major, minor, and patch version of the contract."
      },
      "initialize(address,address,uint256,address[],address[],uint256[],uint256[])": {
        "notice": "Used in place of the constructor to allow the contract to be upgradable via proxy."
      },
      "setDailySellLimit(address,uint256)": {
        "notice": "Allows owner to set the daily burn limit for a token."
      },
      "setHandler(address,address)": {
        "notice": "Allows the owner to set a handler contract for a specified token."
      },
      "setMaxSplippage(address,uint256)": {
        "notice": "Allows owner to set max slippage for a token."
      },
      "setRegistry(address)": {
        "notice": "Updates the address pointing to a Registry contract."
      },
      "transfer(address,address,uint256)": {
        "notice": "Allows owner to transfer tokens of this contract. It's meant for governance to trigger use cases not contemplated in this contract."
      }
    }
  }
}