{
  "contractName": "FixidityWrapper",
  "abi": [
    {
      "constant": true,
      "inputs": [
        {
          "internalType": "uint256",
          "name": "a",
          "type": "uint256"
        }
      ],
      "name": "newFixed",
      "outputs": [
        {
          "internalType": "uint256",
          "name": "",
          "type": "uint256"
        }
      ],
      "payable": false,
      "stateMutability": "pure",
      "type": "function"
    },
    {
      "constant": true,
      "inputs": [
        {
          "internalType": "uint256",
          "name": "a",
          "type": "uint256"
        },
        {
          "internalType": "uint256",
          "name": "b",
          "type": "uint256"
        }
      ],
      "name": "newFixedFraction",
      "outputs": [
        {
          "internalType": "uint256",
          "name": "",
          "type": "uint256"
        }
      ],
      "payable": false,
      "stateMutability": "pure",
      "type": "function"
    },
    {
      "constant": true,
      "inputs": [
        {
          "internalType": "uint256",
          "name": "a",
          "type": "uint256"
        },
        {
          "internalType": "uint256",
          "name": "b",
          "type": "uint256"
        }
      ],
      "name": "add",
      "outputs": [
        {
          "internalType": "uint256",
          "name": "",
          "type": "uint256"
        }
      ],
      "payable": false,
      "stateMutability": "pure",
      "type": "function"
    },
    {
      "constant": true,
      "inputs": [
        {
          "internalType": "uint256",
          "name": "a",
          "type": "uint256"
        },
        {
          "internalType": "uint256",
          "name": "b",
          "type": "uint256"
        }
      ],
      "name": "subtract",
      "outputs": [
        {
          "internalType": "uint256",
          "name": "",
          "type": "uint256"
        }
      ],
      "payable": false,
      "stateMutability": "pure",
      "type": "function"
    },
    {
      "constant": true,
      "inputs": [
        {
          "internalType": "uint256",
          "name": "a",
          "type": "uint256"
        },
        {
          "internalType": "uint256",
          "name": "b",
          "type": "uint256"
        }
      ],
      "name": "multiply",
      "outputs": [
        {
          "internalType": "uint256",
          "name": "",
          "type": "uint256"
        }
      ],
      "payable": false,
      "stateMutability": "pure",
      "type": "function"
    },
    {
      "constant": true,
      "inputs": [
        {
          "internalType": "uint256",
          "name": "a",
          "type": "uint256"
        }
      ],
      "name": "reciprocal",
      "outputs": [
        {
          "internalType": "uint256",
          "name": "",
          "type": "uint256"
        }
      ],
      "payable": false,
      "stateMutability": "pure",
      "type": "function"
    },
    {
      "constant": true,
      "inputs": [
        {
          "internalType": "uint256",
          "name": "a",
          "type": "uint256"
        },
        {
          "internalType": "uint256",
          "name": "b",
          "type": "uint256"
        }
      ],
      "name": "divide",
      "outputs": [
        {
          "internalType": "uint256",
          "name": "",
          "type": "uint256"
        }
      ],
      "payable": false,
      "stateMutability": "pure",
      "type": "function"
    },
    {
      "constant": true,
      "inputs": [
        {
          "internalType": "uint256",
          "name": "a",
          "type": "uint256"
        },
        {
          "internalType": "uint256",
          "name": "b",
          "type": "uint256"
        }
      ],
      "name": "gt",
      "outputs": [
        {
          "internalType": "bool",
          "name": "",
          "type": "bool"
        }
      ],
      "payable": false,
      "stateMutability": "pure",
      "type": "function"
    },
    {
      "constant": true,
      "inputs": [
        {
          "internalType": "uint256",
          "name": "a",
          "type": "uint256"
        },
        {
          "internalType": "uint256",
          "name": "b",
          "type": "uint256"
        }
      ],
      "name": "gte",
      "outputs": [
        {
          "internalType": "bool",
          "name": "",
          "type": "bool"
        }
      ],
      "payable": false,
      "stateMutability": "pure",
      "type": "function"
    },
    {
      "constant": true,
      "inputs": [
        {
          "internalType": "uint256",
          "name": "a",
          "type": "uint256"
        },
        {
          "internalType": "uint256",
          "name": "b",
          "type": "uint256"
        }
      ],
      "name": "lt",
      "outputs": [
        {
          "internalType": "bool",
          "name": "",
          "type": "bool"
        }
      ],
      "payable": false,
      "stateMutability": "pure",
      "type": "function"
    },
    {
      "constant": true,
      "inputs": [
        {
          "internalType": "uint256",
          "name": "a",
          "type": "uint256"
        },
        {
          "internalType": "uint256",
          "name": "b",
          "type": "uint256"
        }
      ],
      "name": "lte",
      "outputs": [
        {
          "internalType": "bool",
          "name": "",
          "type": "bool"
        }
      ],
      "payable": false,
      "stateMutability": "pure",
      "type": "function"
    }
  ],
  "bytecode": "0x608060405234801561001057600080fd5b50610fe4806100206000396000f3fe608060405234801561001057600080fd5b50600436106100a95760003560e01c8063771602f711610071578063771602f714610232578063b47733291461027e578063b7573114146102ce578063ea6515c414610310578063f1e3bfe514610360578063f88e9fbf146103a2576100a9565b8063118fc88c146100ae578063165c4a16146100fe57806321e5749b1461014a57806332c709731461019a5780633ef5e445146101e6575b600080fd5b6100e4600480360360408110156100c457600080fd5b8101908080359060200190929190803590602001909291905050506103ee565b604051808215151515815260200191505060405180910390f35b6101346004803603604081101561011457600080fd5b81019080803590602001909291908035906020019092919050505061041b565b6040518082815260200191505060405180910390f35b6101806004803603604081101561016057600080fd5b810190808035906020019092919080359060200190929190505050610450565b604051808215151515815260200191505060405180910390f35b6101d0600480360360408110156101b057600080fd5b81019080803590602001909291908035906020019092919050505061047d565b6040518082815260200191505060405180910390f35b61021c600480360360408110156101fc57600080fd5b810190808035906020019092919080359060200190929190505050610499565b6040518082815260200191505060405180910390f35b6102686004803603604081101561024857600080fd5b8101908080359060200190929190803590602001909291905050506104ce565b6040518082815260200191505060405180910390f35b6102b46004803603604081101561029457600080fd5b810190808035906020019092919080359060200190929190505050610503565b604051808215151515815260200191505060405180910390f35b6102fa600480360360208110156102e457600080fd5b8101908080359060200190929190505050610530565b6040518082815260200191505060405180910390f35b6103466004803603604081101561032657600080fd5b81019080803590602001909291908035906020019092919050505061054a565b604051808215151515815260200191505060405180910390f35b61038c6004803603602081101561037657600080fd5b8101908080359060200190929190505050610577565b6040518082815260200191505060405180910390f35b6103d8600480360360408110156103b857600080fd5b810190808035906020019092919080359060200190929190505050610599565b6040518082815260200191505060405180910390f35b60006104136103fc836105ce565b610405856105ce565b6105ec90919063ffffffff16565b905092915050565b600061044861044361042c846105ce565b610435866105ce565b61060190919063ffffffff16565b610a60565b905092915050565b600061047561045e836105ce565b610467856105ce565b610a6e90919063ffffffff16565b905092915050565b600061049161048c8484610a83565b610a60565b905092915050565b60006104c66104c16104aa846105ce565b6104b3866105ce565b610ac590919063ffffffff16565b610a60565b905092915050565b60006104fb6104f66104df846105ce565b6104e8866105ce565b610b6c90919063ffffffff16565b610a60565b905092915050565b6000610528610511836105ce565b61051a856105ce565b610c1590919063ffffffff16565b905092915050565b600061054361053e83610c2b565b610a60565b9050919050565b600061056f610558836105ce565b610561856105ce565b610cb590919063ffffffff16565b905092915050565b600061059261058d610588846105ce565b610ccb565b610a60565b9050919050565b60006105c66105c16105aa846105ce565b6105b3866105ce565b610d7d90919063ffffffff16565b610a60565b905092915050565b6105d6610f66565b6040518060200160405280838152509050919050565b60008160000151836000015110905092915050565b610609610f66565b600083600001511480610620575060008260000151145b1561063c57604051806020016040528060008152509050610a5a565b69d3c21bcecceda10000008260000151141561065a57829050610a5a565b69d3c21bcecceda10000008360000151141561067857819050610a5a565b600069d3c21bcecceda100000061068e85610ec6565b600001518161069957fe5b04905060006106a785610efd565b600001519050600069d3c21bcecceda10000006106c386610ec6565b60000151816106ce57fe5b04905060006106dc86610efd565b600001519050600082850290506000851461077057828582816106fb57fe5b041461076f576040517f08c379a00000000000000000000000000000000000000000000000000000000081526004018080602001828103825260168152602001807f6f766572666c6f7720783179312064657465637465640000000000000000000081525060200191505060405180910390fd5b5b600069d3c21bcecceda100000082029050600082146108125769d3c21bcecceda100000082828161079d57fe5b0414610811576040517f08c379a000000000000000000000000000000000000000000000000000000000815260040180806020018281038252601f8152602001807f6f766572666c6f772078317931202a206669786564312064657465637465640081525060200191505060405180910390fd5b5b80915060008486029050600086146108a3578486828161082e57fe5b04146108a2576040517f08c379a00000000000000000000000000000000000000000000000000000000081526004018080602001828103825260168152602001807f6f766572666c6f7720783279312064657465637465640000000000000000000081525060200191505060405180910390fd5b5b600084880290506000881461093157848882816108bc57fe5b0414610930576040517f08c379a00000000000000000000000000000000000000000000000000000000081526004018080602001828103825260168152602001807f6f766572666c6f7720783179322064657465637465640000000000000000000081525060200191505060405180910390fd5b5b610939610f3a565b878161094157fe5b04965061094c610f3a565b858161095457fe5b04945060008588029050600088146109e5578588828161097057fe5b04146109e4576040517f08c379a00000000000000000000000000000000000000000000000000000000081526004018080602001828103825260168152602001807f6f766572666c6f7720783279322064657465637465640000000000000000000081525060200191505060405180910390fd5b5b6109ed610f66565b6040518060200160405280878152509050610a1681604051806020016040528087815250610b6c565b9050610a3081604051806020016040528086815250610b6c565b9050610a4a81604051806020016040528085815250610b6c565b9050809a50505050505050505050505b92915050565b600081600001519050919050565b60008160000151836000015111905092915050565b610a8b610f66565b610a93610f66565b610a9c84610c2b565b9050610aa6610f66565b610aaf84610c2b565b9050610abb8282610d7d565b9250505092915050565b610acd610f66565b816000015183600001511015610b4b576040517f08c379a000000000000000000000000000000000000000000000000000000000815260040180806020018281038252601f8152602001807f737562737472616374696f6e20756e646572666c6f772064657465637465640081525060200191505060405180910390fd5b60405180602001604052808360000151856000015103815250905092915050565b610b74610f66565b6000826000015184600001510190508360000151811015610bfd576040517f08c379a00000000000000000000000000000000000000000000000000000000081526004018080602001828103825260158152602001807f616464206f766572666c6f77206465746563746564000000000000000000000081525060200191505060405180910390fd5b60405180602001604052808281525091505092915050565b6000816000015183600001511015905092915050565b610c33610f66565b610c3b610f47565b821115610c93576040517f08c379a0000000000000000000000000000000000000000000000000000000008152600401808060200182810382526036815260200180610f7a6036913960400191505060405180910390fd5b604051806020016040528069d3c21bcecceda100000084028152509050919050565b6000816000015183600001511115905092915050565b610cd3610f66565b600082600001511415610d4e576040517f08c379a00000000000000000000000000000000000000000000000000000000081526004018080602001828103825260188152602001807f63616e27742063616c6c207265636970726f63616c283029000000000000000081525060200191505060405180910390fd5b6040518060200160405280836000015169d3c21bcecceda1000000800281610d7257fe5b048152509050919050565b610d85610f66565b600082600001511415610e00576040517f08c379a00000000000000000000000000000000000000000000000000000000081526004018080602001828103825260118152602001807f63616e277420646976696465206279203000000000000000000000000000000081525060200191505060405180910390fd5b600069d3c21bcecceda10000008460000151029050836000015169d3c21bcecceda10000008281610e2d57fe5b0414610ea1576040517f08c379a00000000000000000000000000000000000000000000000000000000081526004018080602001828103825260128152602001807f6f766572666c6f7720617420646976696465000000000000000000000000000081525060200191505060405180910390fd5b604051806020016040528084600001518381610eb957fe5b0481525091505092915050565b610ece610f66565b604051806020016040528069d3c21bcecceda100000080856000015181610ef157fe5b04028152509050919050565b610f05610f66565b604051806020016040528069d3c21bcecceda100000080856000015181610f2857fe5b04028460000151038152509050919050565b600064e8d4a51000905090565b60007601357c299a88ea76a58924d52ce4f26a85af186c2b9e74905090565b604051806020016040528060008152509056fe63616e277420637265617465206669786964697479206e756d626572206c6172676572207468616e206d61784e657746697865642829a265627a7a723158207859321ae6d0e02b609bff8943b909416fa20bab7dbd8ccdd1b7c36e66c06eef64736f6c634300050d0032",
  "source": "pragma solidity ^0.5.13;\n\nimport \"../FixidityLib.sol\";\n\n// Fixidity needs a wrapper as it is a library\n\ncontract FixidityWrapper {\n  using FixidityLib for FixidityLib.Fraction;\n\n  function newFixed(uint256 a) external pure returns (uint256) {\n    return FixidityLib.newFixed(a).unwrap();\n  }\n\n  function newFixedFraction(uint256 a, uint256 b) external pure returns (uint256) {\n    return FixidityLib.newFixedFraction(a, b).unwrap();\n  }\n\n  function add(uint256 a, uint256 b) external pure returns (uint256) {\n    return FixidityLib.wrap(a).add(FixidityLib.wrap(b)).unwrap();\n  }\n\n  function subtract(uint256 a, uint256 b) external pure returns (uint256) {\n    return FixidityLib.wrap(a).subtract(FixidityLib.wrap(b)).unwrap();\n  }\n\n  function multiply(uint256 a, uint256 b) external pure returns (uint256) {\n    return FixidityLib.wrap(a).multiply(FixidityLib.wrap(b)).unwrap();\n  }\n\n  function reciprocal(uint256 a) external pure returns (uint256) {\n    return FixidityLib.wrap(a).reciprocal().unwrap();\n  }\n\n  function divide(uint256 a, uint256 b) external pure returns (uint256) {\n    return FixidityLib.wrap(a).divide(FixidityLib.wrap(b)).unwrap();\n  }\n\n  function gt(uint256 a, uint256 b) external pure returns (bool) {\n    return FixidityLib.wrap(a).gt(FixidityLib.wrap(b));\n  }\n\n  function gte(uint256 a, uint256 b) external pure returns (bool) {\n    return FixidityLib.wrap(a).gte(FixidityLib.wrap(b));\n  }\n\n  function lt(uint256 a, uint256 b) external pure returns (bool) {\n    return FixidityLib.wrap(a).lt(FixidityLib.wrap(b));\n  }\n\n  function lte(uint256 a, uint256 b) external pure returns (bool) {\n    return FixidityLib.wrap(a).lte(FixidityLib.wrap(b));\n  }\n}\n",
  "sourcePath": "/Users/beaver/Development/celo/celo-monorepo/packages/protocol/contracts/common/test/FixidityWrapper.sol",
  "compiler": {
    "name": "solc",
    "version": "0.5.13+commit.5b0b510c.Emscripten.clang"
  },
  "schemaVersion": "3.4.13",
  "updatedAt": "2024-03-05T15:18:24.185Z",
  "devdoc": {
    "methods": {}
  },
  "userdoc": {
    "methods": {}
  }
}