{
  "contractName": "GoldToken",
  "abi": [
    {
      "inputs": [
        {
          "internalType": "bool",
          "name": "test",
          "type": "bool"
        }
      ],
      "payable": false,
      "stateMutability": "nonpayable",
      "type": "constructor"
    },
    {
      "anonymous": false,
      "inputs": [
        {
          "indexed": true,
          "internalType": "address",
          "name": "owner",
          "type": "address"
        },
        {
          "indexed": true,
          "internalType": "address",
          "name": "spender",
          "type": "address"
        },
        {
          "indexed": false,
          "internalType": "uint256",
          "name": "value",
          "type": "uint256"
        }
      ],
      "name": "Approval",
      "type": "event"
    },
    {
      "anonymous": false,
      "inputs": [
        {
          "indexed": true,
          "internalType": "address",
          "name": "previousOwner",
          "type": "address"
        },
        {
          "indexed": true,
          "internalType": "address",
          "name": "newOwner",
          "type": "address"
        }
      ],
      "name": "OwnershipTransferred",
      "type": "event"
    },
    {
      "anonymous": false,
      "inputs": [
        {
          "indexed": true,
          "internalType": "address",
          "name": "registryAddress",
          "type": "address"
        }
      ],
      "name": "RegistrySet",
      "type": "event"
    },
    {
      "anonymous": false,
      "inputs": [
        {
          "indexed": true,
          "internalType": "address",
          "name": "from",
          "type": "address"
        },
        {
          "indexed": true,
          "internalType": "address",
          "name": "to",
          "type": "address"
        },
        {
          "indexed": false,
          "internalType": "uint256",
          "name": "value",
          "type": "uint256"
        }
      ],
      "name": "Transfer",
      "type": "event"
    },
    {
      "anonymous": false,
      "inputs": [
        {
          "indexed": false,
          "internalType": "string",
          "name": "comment",
          "type": "string"
        }
      ],
      "name": "TransferComment",
      "type": "event"
    },
    {
      "constant": true,
      "inputs": [],
      "name": "initialized",
      "outputs": [
        {
          "internalType": "bool",
          "name": "",
          "type": "bool"
        }
      ],
      "payable": false,
      "stateMutability": "view",
      "type": "function"
    },
    {
      "constant": true,
      "inputs": [],
      "name": "isOwner",
      "outputs": [
        {
          "internalType": "bool",
          "name": "",
          "type": "bool"
        }
      ],
      "payable": false,
      "stateMutability": "view",
      "type": "function"
    },
    {
      "constant": true,
      "inputs": [],
      "name": "owner",
      "outputs": [
        {
          "internalType": "address",
          "name": "",
          "type": "address"
        }
      ],
      "payable": false,
      "stateMutability": "view",
      "type": "function"
    },
    {
      "constant": true,
      "inputs": [],
      "name": "registry",
      "outputs": [
        {
          "internalType": "contract IRegistry",
          "name": "",
          "type": "address"
        }
      ],
      "payable": false,
      "stateMutability": "view",
      "type": "function"
    },
    {
      "constant": false,
      "inputs": [],
      "name": "renounceOwnership",
      "outputs": [],
      "payable": false,
      "stateMutability": "nonpayable",
      "type": "function"
    },
    {
      "constant": false,
      "inputs": [
        {
          "internalType": "address",
          "name": "registryAddress",
          "type": "address"
        }
      ],
      "name": "setRegistry",
      "outputs": [],
      "payable": false,
      "stateMutability": "nonpayable",
      "type": "function"
    },
    {
      "constant": false,
      "inputs": [
        {
          "internalType": "address",
          "name": "newOwner",
          "type": "address"
        }
      ],
      "name": "transferOwnership",
      "outputs": [],
      "payable": false,
      "stateMutability": "nonpayable",
      "type": "function"
    },
    {
      "constant": true,
      "inputs": [],
      "name": "getVersionNumber",
      "outputs": [
        {
          "internalType": "uint256",
          "name": "",
          "type": "uint256"
        },
        {
          "internalType": "uint256",
          "name": "",
          "type": "uint256"
        },
        {
          "internalType": "uint256",
          "name": "",
          "type": "uint256"
        },
        {
          "internalType": "uint256",
          "name": "",
          "type": "uint256"
        }
      ],
      "payable": false,
      "stateMutability": "pure",
      "type": "function"
    },
    {
      "constant": false,
      "inputs": [
        {
          "internalType": "address",
          "name": "registryAddress",
          "type": "address"
        }
      ],
      "name": "initialize",
      "outputs": [],
      "payable": false,
      "stateMutability": "nonpayable",
      "type": "function"
    },
    {
      "constant": false,
      "inputs": [
        {
          "internalType": "address",
          "name": "to",
          "type": "address"
        },
        {
          "internalType": "uint256",
          "name": "value",
          "type": "uint256"
        }
      ],
      "name": "transfer",
      "outputs": [
        {
          "internalType": "bool",
          "name": "",
          "type": "bool"
        }
      ],
      "payable": false,
      "stateMutability": "nonpayable",
      "type": "function"
    },
    {
      "constant": false,
      "inputs": [
        {
          "internalType": "address",
          "name": "to",
          "type": "address"
        },
        {
          "internalType": "uint256",
          "name": "value",
          "type": "uint256"
        },
        {
          "internalType": "string",
          "name": "comment",
          "type": "string"
        }
      ],
      "name": "transferWithComment",
      "outputs": [
        {
          "internalType": "bool",
          "name": "",
          "type": "bool"
        }
      ],
      "payable": false,
      "stateMutability": "nonpayable",
      "type": "function"
    },
    {
      "constant": false,
      "inputs": [
        {
          "internalType": "uint256",
          "name": "value",
          "type": "uint256"
        }
      ],
      "name": "burn",
      "outputs": [
        {
          "internalType": "bool",
          "name": "",
          "type": "bool"
        }
      ],
      "payable": false,
      "stateMutability": "nonpayable",
      "type": "function"
    },
    {
      "constant": false,
      "inputs": [
        {
          "internalType": "address",
          "name": "spender",
          "type": "address"
        },
        {
          "internalType": "uint256",
          "name": "value",
          "type": "uint256"
        }
      ],
      "name": "approve",
      "outputs": [
        {
          "internalType": "bool",
          "name": "",
          "type": "bool"
        }
      ],
      "payable": false,
      "stateMutability": "nonpayable",
      "type": "function"
    },
    {
      "constant": false,
      "inputs": [
        {
          "internalType": "address",
          "name": "spender",
          "type": "address"
        },
        {
          "internalType": "uint256",
          "name": "value",
          "type": "uint256"
        }
      ],
      "name": "increaseAllowance",
      "outputs": [
        {
          "internalType": "bool",
          "name": "",
          "type": "bool"
        }
      ],
      "payable": false,
      "stateMutability": "nonpayable",
      "type": "function"
    },
    {
      "constant": false,
      "inputs": [
        {
          "internalType": "address",
          "name": "spender",
          "type": "address"
        },
        {
          "internalType": "uint256",
          "name": "value",
          "type": "uint256"
        }
      ],
      "name": "decreaseAllowance",
      "outputs": [
        {
          "internalType": "bool",
          "name": "",
          "type": "bool"
        }
      ],
      "payable": false,
      "stateMutability": "nonpayable",
      "type": "function"
    },
    {
      "constant": false,
      "inputs": [
        {
          "internalType": "address",
          "name": "from",
          "type": "address"
        },
        {
          "internalType": "address",
          "name": "to",
          "type": "address"
        },
        {
          "internalType": "uint256",
          "name": "value",
          "type": "uint256"
        }
      ],
      "name": "transferFrom",
      "outputs": [
        {
          "internalType": "bool",
          "name": "",
          "type": "bool"
        }
      ],
      "payable": false,
      "stateMutability": "nonpayable",
      "type": "function"
    },
    {
      "constant": false,
      "inputs": [
        {
          "internalType": "address",
          "name": "to",
          "type": "address"
        },
        {
          "internalType": "uint256",
          "name": "value",
          "type": "uint256"
        }
      ],
      "name": "mint",
      "outputs": [
        {
          "internalType": "bool",
          "name": "",
          "type": "bool"
        }
      ],
      "payable": false,
      "stateMutability": "nonpayable",
      "type": "function"
    },
    {
      "constant": true,
      "inputs": [],
      "name": "name",
      "outputs": [
        {
          "internalType": "string",
          "name": "",
          "type": "string"
        }
      ],
      "payable": false,
      "stateMutability": "view",
      "type": "function"
    },
    {
      "constant": true,
      "inputs": [],
      "name": "symbol",
      "outputs": [
        {
          "internalType": "string",
          "name": "",
          "type": "string"
        }
      ],
      "payable": false,
      "stateMutability": "view",
      "type": "function"
    },
    {
      "constant": true,
      "inputs": [],
      "name": "decimals",
      "outputs": [
        {
          "internalType": "uint8",
          "name": "",
          "type": "uint8"
        }
      ],
      "payable": false,
      "stateMutability": "view",
      "type": "function"
    },
    {
      "constant": true,
      "inputs": [],
      "name": "totalSupply",
      "outputs": [
        {
          "internalType": "uint256",
          "name": "",
          "type": "uint256"
        }
      ],
      "payable": false,
      "stateMutability": "view",
      "type": "function"
    },
    {
      "constant": true,
      "inputs": [],
      "name": "circulatingSupply",
      "outputs": [
        {
          "internalType": "uint256",
          "name": "",
          "type": "uint256"
        }
      ],
      "payable": false,
      "stateMutability": "view",
      "type": "function"
    },
    {
      "constant": true,
      "inputs": [
        {
          "internalType": "address",
          "name": "owner",
          "type": "address"
        },
        {
          "internalType": "address",
          "name": "spender",
          "type": "address"
        }
      ],
      "name": "allowance",
      "outputs": [
        {
          "internalType": "uint256",
          "name": "",
          "type": "uint256"
        }
      ],
      "payable": false,
      "stateMutability": "view",
      "type": "function"
    },
    {
      "constant": false,
      "inputs": [
        {
          "internalType": "uint256",
          "name": "amount",
          "type": "uint256"
        }
      ],
      "name": "increaseSupply",
      "outputs": [],
      "payable": false,
      "stateMutability": "nonpayable",
      "type": "function"
    },
    {
      "constant": true,
      "inputs": [],
      "name": "getBurnedAmount",
      "outputs": [
        {
          "internalType": "uint256",
          "name": "",
          "type": "uint256"
        }
      ],
      "payable": false,
      "stateMutability": "view",
      "type": "function"
    },
    {
      "constant": true,
      "inputs": [
        {
          "internalType": "address",
          "name": "owner",
          "type": "address"
        }
      ],
      "name": "balanceOf",
      "outputs": [
        {
          "internalType": "uint256",
          "name": "",
          "type": "uint256"
        }
      ],
      "payable": false,
      "stateMutability": "view",
      "type": "function"
    }
  ],
  "bytecode": "0x60806040523480156200001157600080fd5b506040516200277c3803806200277c833981810160405260208110156200003757600080fd5b810190808051906020019092919050505080806200006a5760016000806101000a81548160ff0219169083151502179055505b5060006200007d6200012360201b60201c565b905080600060016101000a81548173ffffffffffffffffffffffffffffffffffffffff021916908373ffffffffffffffffffffffffffffffffffffffff1602179055508073ffffffffffffffffffffffffffffffffffffffff16600073ffffffffffffffffffffffffffffffffffffffff167f8be0079c531659141344cd1fd0a4f28419497f9722a3daafe3b4186f6b6457e060405160405180910390a350506200012b565b600033905090565b612641806200013b6000396000f3fe608060405234801561001057600080fd5b506004361061018e5760003560e01c80637b103999116100de578063a9059cbb11610097578063c4d66de811610071578063c4d66de8146107c0578063dd62ed3e14610804578063e1d6aceb1461087c578063f2fde38b146109375761018e565b8063a9059cbb146106e8578063a91ee0dc1461074e578063b921e163146107925761018e565b80637b1039991461052b5780638da5cb5b146105755780638f32d59b146105bf5780639358928b146105e157806395d89b41146105ff578063a457c2d7146106825761018e565b8063313ce5671161014b57806342966c681161012557806342966c681461045057806354255be01461049657806370a08231146104c9578063715018a6146105215761018e565b8063313ce56714610360578063395093511461038457806340c10f19146103ea5761018e565b806306fdde0314610193578063095ea7b314610216578063158ef93e1461027c57806318160ddd1461029e57806323b872dd146102bc578063265126bd14610342575b600080fd5b61019b61097b565b6040518080602001828103825283818151815260200191508051906020019080838360005b838110156101db5780820151818401526020810190506101c0565b50505050905090810190601f1680156102085780820380516001836020036101000a031916815260200191505b509250505060405180910390f35b6102626004803603604081101561022c57600080fd5b81019080803573ffffffffffffffffffffffffffffffffffffffff169060200190929190803590602001909291905050506109b8565b604051808215151515815260200191505060405180910390f35b610284610b4c565b604051808215151515815260200191505060405180910390f35b6102a6610b5e565b6040518082815260200191505060405180910390f35b610328600480360360608110156102d257600080fd5b81019080803573ffffffffffffffffffffffffffffffffffffffff169060200190929190803573ffffffffffffffffffffffffffffffffffffffff16906020019092919080359060200190929190505050610b68565b604051808215151515815260200191505060405180910390f35b61034a61105f565b6040518082815260200191505060405180910390f35b610368611071565b604051808260ff1660ff16815260200191505060405180910390f35b6103d06004803603604081101561039a57600080fd5b81019080803573ffffffffffffffffffffffffffffffffffffffff1690602001909291908035906020019092919050505061107a565b604051808215151515815260200191505060405180910390f35b6104366004803603604081101561040057600080fd5b81019080803573ffffffffffffffffffffffffffffffffffffffff169060200190929190803590602001909291905050506112a8565b604051808215151515815260200191505060405180910390f35b61047c6004803603602081101561046657600080fd5b810190808035906020019092919050505061162b565b604051808215151515815260200191505060405180910390f35b61049e611640565b6040518085815260200184815260200183815260200182815260200194505050505060405180910390f35b61050b600480360360208110156104df57600080fd5b81019080803573ffffffffffffffffffffffffffffffffffffffff169060200190929190505050611667565b6040518082815260200191505060405180910390f35b610529611688565b005b6105336117c2565b604051808273ffffffffffffffffffffffffffffffffffffffff1673ffffffffffffffffffffffffffffffffffffffff16815260200191505060405180910390f35b61057d6117e8565b604051808273ffffffffffffffffffffffffffffffffffffffff1673ffffffffffffffffffffffffffffffffffffffff16815260200191505060405180910390f35b6105c7611811565b604051808215151515815260200191505060405180910390f35b6105e961186f565b6040518082815260200191505060405180910390f35b6106076118ad565b6040518080602001828103825283818151815260200191508051906020019080838360005b8381101561064757808201518184015260208101905061062c565b50505050905090810190601f1680156106745780820380516001836020036101000a031916815260200191505b509250505060405180910390f35b6106ce6004803603604081101561069857600080fd5b81019080803573ffffffffffffffffffffffffffffffffffffffff169060200190929190803590602001909291905050506118ea565b604051808215151515815260200191505060405180910390f35b610734600480360360408110156106fe57600080fd5b81019080803573ffffffffffffffffffffffffffffffffffffffff16906020019092919080359060200190929190505050611a75565b604051808215151515815260200191505060405180910390f35b6107906004803603602081101561076457600080fd5b81019080803573ffffffffffffffffffffffffffffffffffffffff169060200190929190505050611a89565b005b6107be600480360360208110156107a857600080fd5b8101908080359060200190929190505050611c2d565b005b610802600480360360208110156107d657600080fd5b81019080803573ffffffffffffffffffffffffffffffffffffffff169060200190929190505050611ced565b005b6108666004803603604081101561081a57600080fd5b81019080803573ffffffffffffffffffffffffffffffffffffffff169060200190929190803573ffffffffffffffffffffffffffffffffffffffff169060200190929190505050611da6565b6040518082815260200191505060405180910390f35b61091d6004803603606081101561089257600080fd5b81019080803573ffffffffffffffffffffffffffffffffffffffff16906020019092919080359060200190929190803590602001906401000000008111156108d957600080fd5b8201836020820111156108eb57600080fd5b8035906020019184600183028401116401000000008311171561090d57600080fd5b9091929391929390505050611e2d565b604051808215151515815260200191505060405180910390f35b6109796004803603602081101561094d57600080fd5b81019080803573ffffffffffffffffffffffffffffffffffffffff169060200190929190505050611eab565b005b60606040518060400160405280601181526020017f43656c6f206e6174697665206173736574000000000000000000000000000000815250905090565b60008073ffffffffffffffffffffffffffffffffffffffff168373ffffffffffffffffffffffffffffffffffffffff161415610a5c576040517f08c379a000000000000000000000000000000000000000000000000000000000815260040180806020018281038252601a8152602001807f63616e6e6f742073657420616c6c6f77616e636520666f72203000000000000081525060200191505060405180910390fd5b81600360003373ffffffffffffffffffffffffffffffffffffffff1673ffffffffffffffffffffffffffffffffffffffff16815260200190815260200160002060008573ffffffffffffffffffffffffffffffffffffffff1673ffffffffffffffffffffffffffffffffffffffff168152602001908152602001600020819055508273ffffffffffffffffffffffffffffffffffffffff163373ffffffffffffffffffffffffffffffffffffffff167f8c5be1e5ebec7d5bd14f71427d1e84f3dd0314c0f7b2291e5b200ac8c7c3b925846040518082815260200191505060405180910390a36001905092915050565b6000809054906101000a900460ff1681565b6000600254905090565b60008073ffffffffffffffffffffffffffffffffffffffff168373ffffffffffffffffffffffffffffffffffffffff161415610bef576040517f08c379a000000000000000000000000000000000000000000000000000000000815260040180806020018281038252602a8152602001806125ad602a913960400191505060405180910390fd5b610bf884611667565b821115610c50576040517f08c379a00000000000000000000000000000000000000000000000000000000081526004018080602001828103825260298152602001806125846029913960400191505060405180910390fd5b600360008573ffffffffffffffffffffffffffffffffffffffff1673ffffffffffffffffffffffffffffffffffffffff16815260200190815260200160002060003373ffffffffffffffffffffffffffffffffffffffff1673ffffffffffffffffffffffffffffffffffffffff16815260200190815260200160002054821115610d25576040517f08c379a00000000000000000000000000000000000000000000000000000000081526004018080602001828103825260368152602001806125d76036913960400191505060405180910390fd5b600060fd73ffffffffffffffffffffffffffffffffffffffff1660005a90878787604051602001808473ffffffffffffffffffffffffffffffffffffffff1673ffffffffffffffffffffffffffffffffffffffff1681526020018373ffffffffffffffffffffffffffffffffffffffff1673ffffffffffffffffffffffffffffffffffffffff16815260200182815260200193505050506040516020818303038152906040526040518082805190602001908083835b60208310610dfe5780518252602082019150602081019050602083039250610ddb565b6001836020036101000a038019825116818451168082178552505050505050905001915050600060405180830381858888f193505050503d8060008114610e61576040519150601f19603f3d011682016040523d82523d6000602084013e610e66565b606091505b50508091505080610edf576040517f08c379a00000000000000000000000000000000000000000000000000000000081526004018080602001828103825260148152602001807f43454c4f207472616e73666572206661696c656400000000000000000000000081525060200191505060405180910390fd5b610f6e83600360008873ffffffffffffffffffffffffffffffffffffffff1673ffffffffffffffffffffffffffffffffffffffff16815260200190815260200160002060003373ffffffffffffffffffffffffffffffffffffffff1673ffffffffffffffffffffffffffffffffffffffff16815260200190815260200160002054611f3190919063ffffffff16565b600360008773ffffffffffffffffffffffffffffffffffffffff1673ffffffffffffffffffffffffffffffffffffffff16815260200190815260200160002060003373ffffffffffffffffffffffffffffffffffffffff1673ffffffffffffffffffffffffffffffffffffffff168152602001908152602001600020819055508373ffffffffffffffffffffffffffffffffffffffff168573ffffffffffffffffffffffffffffffffffffffff167fddf252ad1be2c89b69c2b068fc378daa952ba7f163c4a11628f55a4df523b3ef856040518082815260200191505060405180910390a360019150509392505050565b600061106c61dead611667565b905090565b60006012905090565b60008073ffffffffffffffffffffffffffffffffffffffff168373ffffffffffffffffffffffffffffffffffffffff16141561111e576040517f08c379a000000000000000000000000000000000000000000000000000000000815260040180806020018281038252601a8152602001807f63616e6e6f742073657420616c6c6f77616e636520666f72203000000000000081525060200191505060405180910390fd5b6000600360003373ffffffffffffffffffffffffffffffffffffffff1673ffffffffffffffffffffffffffffffffffffffff16815260200190815260200160002060008573ffffffffffffffffffffffffffffffffffffffff1673ffffffffffffffffffffffffffffffffffffffff16815260200190815260200160002054905060006111b48483611f7b90919063ffffffff16565b905080600360003373ffffffffffffffffffffffffffffffffffffffff1673ffffffffffffffffffffffffffffffffffffffff16815260200190815260200160002060008773ffffffffffffffffffffffffffffffffffffffff1673ffffffffffffffffffffffffffffffffffffffff168152602001908152602001600020819055508473ffffffffffffffffffffffffffffffffffffffff163373ffffffffffffffffffffffffffffffffffffffff167f8c5be1e5ebec7d5bd14f71427d1e84f3dd0314c0f7b2291e5b200ac8c7c3b925836040518082815260200191505060405180910390a360019250505092915050565b60008073ffffffffffffffffffffffffffffffffffffffff163373ffffffffffffffffffffffffffffffffffffffff161461134b576040517f08c379a00000000000000000000000000000000000000000000000000000000081526004018080602001828103825260108152602001807f4f6e6c7920564d2063616e2063616c6c0000000000000000000000000000000081525060200191505060405180910390fd5b600082141561135d5760019050611625565b600073ffffffffffffffffffffffffffffffffffffffff168373ffffffffffffffffffffffffffffffffffffffff1614156113e3576040517f08c379a00000000000000000000000000000000000000000000000000000000081526004018080602001828103825260268152602001806125386026913960400191505060405180910390fd5b6113f882600254611f7b90919063ffffffff16565b600281905550600060fd73ffffffffffffffffffffffffffffffffffffffff1660005a9060008787604051602001808473ffffffffffffffffffffffffffffffffffffffff1673ffffffffffffffffffffffffffffffffffffffff1681526020018373ffffffffffffffffffffffffffffffffffffffff1673ffffffffffffffffffffffffffffffffffffffff16815260200182815260200193505050506040516020818303038152906040526040518082805190602001908083835b602083106114d857805182526020820191506020810190506020830392506114b5565b6001836020036101000a038019825116818451168082178552505050505050905001915050600060405180830381858888f193505050503d806000811461153b576040519150601f19603f3d011682016040523d82523d6000602084013e611540565b606091505b505080915050806115b9576040517f08c379a00000000000000000000000000000000000000000000000000000000081526004018080602001828103825260148152602001807f43454c4f207472616e73666572206661696c656400000000000000000000000081525060200191505060405180910390fd5b8373ffffffffffffffffffffffffffffffffffffffff16600073ffffffffffffffffffffffffffffffffffffffff167fddf252ad1be2c89b69c2b068fc378daa952ba7f163c4a11628f55a4df523b3ef856040518082815260200191505060405180910390a360019150505b92915050565b600061163961dead83612003565b9050919050565b60008060008060018060026000839350829250819150809050935093509350935090919293565b60008173ffffffffffffffffffffffffffffffffffffffff16319050919050565b611690611811565b611702576040517f08c379a00000000000000000000000000000000000000000000000000000000081526004018080602001828103825260208152602001807f4f776e61626c653a2063616c6c6572206973206e6f7420746865206f776e657281525060200191505060405180910390fd5b600073ffffffffffffffffffffffffffffffffffffffff16600060019054906101000a900473ffffffffffffffffffffffffffffffffffffffff1673ffffffffffffffffffffffffffffffffffffffff167f8be0079c531659141344cd1fd0a4f28419497f9722a3daafe3b4186f6b6457e060405160405180910390a360008060016101000a81548173ffffffffffffffffffffffffffffffffffffffff021916908373ffffffffffffffffffffffffffffffffffffffff160217905550565b600160009054906101000a900473ffffffffffffffffffffffffffffffffffffffff1681565b60008060019054906101000a900473ffffffffffffffffffffffffffffffffffffffff16905090565b60008060019054906101000a900473ffffffffffffffffffffffffffffffffffffffff1673ffffffffffffffffffffffffffffffffffffffff16611853612290565b73ffffffffffffffffffffffffffffffffffffffff1614905090565b60006118a861187e6000611667565b61189a61188961105f565b600254611f3190919063ffffffff16565b611f3190919063ffffffff16565b905090565b60606040518060400160405280600481526020017f43454c4f00000000000000000000000000000000000000000000000000000000815250905090565b600080600360003373ffffffffffffffffffffffffffffffffffffffff1673ffffffffffffffffffffffffffffffffffffffff16815260200190815260200160002060008573ffffffffffffffffffffffffffffffffffffffff1673ffffffffffffffffffffffffffffffffffffffff16815260200190815260200160002054905060006119818483611f3190919063ffffffff16565b905080600360003373ffffffffffffffffffffffffffffffffffffffff1673ffffffffffffffffffffffffffffffffffffffff16815260200190815260200160002060008773ffffffffffffffffffffffffffffffffffffffff1673ffffffffffffffffffffffffffffffffffffffff168152602001908152602001600020819055508473ffffffffffffffffffffffffffffffffffffffff163373ffffffffffffffffffffffffffffffffffffffff167f8c5be1e5ebec7d5bd14f71427d1e84f3dd0314c0f7b2291e5b200ac8c7c3b925836040518082815260200191505060405180910390a360019250505092915050565b6000611a818383612298565b905092915050565b611a91611811565b611b03576040517f08c379a00000000000000000000000000000000000000000000000000000000081526004018080602001828103825260208152602001807f4f776e61626c653a2063616c6c6572206973206e6f7420746865206f776e657281525060200191505060405180910390fd5b600073ffffffffffffffffffffffffffffffffffffffff168173ffffffffffffffffffffffffffffffffffffffff161415611ba6576040517f08c379a00000000000000000000000000000000000000000000000000000000081526004018080602001828103825260208152602001807f43616e6e6f7420726567697374657220746865206e756c6c206164647265737381525060200191505060405180910390fd5b80600160006101000a81548173ffffffffffffffffffffffffffffffffffffffff021916908373ffffffffffffffffffffffffffffffffffffffff1602179055508073ffffffffffffffffffffffffffffffffffffffff167f27fe5f0c1c3b1ed427cc63d0f05759ffdecf9aec9e18d31ef366fc8a6cb5dc3b60405160405180910390a250565b600073ffffffffffffffffffffffffffffffffffffffff163373ffffffffffffffffffffffffffffffffffffffff1614611ccf576040517f08c379a00000000000000000000000000000000000000000000000000000000081526004018080602001828103825260108152602001807f4f6e6c7920564d2063616e2063616c6c0000000000000000000000000000000081525060200191505060405180910390fd5b611ce481600254611f7b90919063ffffffff16565b60028190555050565b6000809054906101000a900460ff1615611d6f576040517f08c379a000000000000000000000000000000000000000000000000000000000815260040180806020018281038252601c8152602001807f636f6e747261637420616c726561647920696e697469616c697a65640000000081525060200191505060405180910390fd5b60016000806101000a81548160ff0219169083151502179055506000600281905550611d9a33612331565b611da381611a89565b50565b6000600360008473ffffffffffffffffffffffffffffffffffffffff1673ffffffffffffffffffffffffffffffffffffffff16815260200190815260200160002060008373ffffffffffffffffffffffffffffffffffffffff1673ffffffffffffffffffffffffffffffffffffffff16815260200190815260200160002054905092915050565b600080611e3a8686612298565b90507fe5d4e30fb8364e57bc4d662a07d0cf36f4c34552004c4c3624620a2c1d1c03dc848460405180806020018281038252848482818152602001925080828437600081840152601f19601f820116905080830192505050935050505060405180910390a180915050949350505050565b611eb3611811565b611f25576040517f08c379a00000000000000000000000000000000000000000000000000000000081526004018080602001828103825260208152602001807f4f776e61626c653a2063616c6c6572206973206e6f7420746865206f776e657281525060200191505060405180910390fd5b611f2e81612331565b50565b6000611f7383836040518060400160405280601e81526020017f536166654d6174683a207375627472616374696f6e206f766572666c6f770000815250612477565b905092915050565b600080828401905083811015611ff9576040517f08c379a000000000000000000000000000000000000000000000000000000000815260040180806020018281038252601b8152602001807f536166654d6174683a206164646974696f6e206f766572666c6f77000000000081525060200191505060405180910390fd5b8091505092915050565b600061200e33611667565b821115612066576040517f08c379a00000000000000000000000000000000000000000000000000000000081526004018080602001828103825260298152602001806125846029913960400191505060405180910390fd5b600060fd73ffffffffffffffffffffffffffffffffffffffff1660005a90338787604051602001808473ffffffffffffffffffffffffffffffffffffffff1673ffffffffffffffffffffffffffffffffffffffff1681526020018373ffffffffffffffffffffffffffffffffffffffff1673ffffffffffffffffffffffffffffffffffffffff16815260200182815260200193505050506040516020818303038152906040526040518082805190602001908083835b6020831061213f578051825260208201915060208101905060208303925061211c565b6001836020036101000a038019825116818451168082178552505050505050905001915050600060405180830381858888f193505050503d80600081146121a2576040519150601f19603f3d011682016040523d82523d6000602084013e6121a7565b606091505b50508091505080612220576040517f08c379a00000000000000000000000000000000000000000000000000000000081526004018080602001828103825260148152602001807f43454c4f207472616e73666572206661696c656400000000000000000000000081525060200191505060405180910390fd5b8373ffffffffffffffffffffffffffffffffffffffff163373ffffffffffffffffffffffffffffffffffffffff167fddf252ad1be2c89b69c2b068fc378daa952ba7f163c4a11628f55a4df523b3ef856040518082815260200191505060405180910390a3600191505092915050565b600033905090565b60008073ffffffffffffffffffffffffffffffffffffffff168373ffffffffffffffffffffffffffffffffffffffff16141561231f576040517f08c379a000000000000000000000000000000000000000000000000000000000815260040180806020018281038252602a8152602001806125ad602a913960400191505060405180910390fd5b6123298383612003565b905092915050565b600073ffffffffffffffffffffffffffffffffffffffff168173ffffffffffffffffffffffffffffffffffffffff1614156123b7576040517f08c379a000000000000000000000000000000000000000000000000000000000815260040180806020018281038252602681526020018061255e6026913960400191505060405180910390fd5b8073ffffffffffffffffffffffffffffffffffffffff16600060019054906101000a900473ffffffffffffffffffffffffffffffffffffffff1673ffffffffffffffffffffffffffffffffffffffff167f8be0079c531659141344cd1fd0a4f28419497f9722a3daafe3b4186f6b6457e060405160405180910390a380600060016101000a81548173ffffffffffffffffffffffffffffffffffffffff021916908373ffffffffffffffffffffffffffffffffffffffff16021790555050565b6000838311158290612524576040517f08c379a00000000000000000000000000000000000000000000000000000000081526004018080602001828103825283818151815260200191508051906020019080838360005b838110156124e95780820151818401526020810190506124ce565b50505050905090810190601f1680156125165780820380516001836020036101000a031916815260200191505b509250505060405180910390fd5b506000838503905080915050939250505056fe6d696e7420617474656d7074656420746f2072657365727665642061646472657373203078304f776e61626c653a206e6577206f776e657220697320746865207a65726f20616464726573737472616e736665722076616c75652065786365656465642062616c616e6365206f662073656e6465727472616e7366657220617474656d7074656420746f2072657365727665642061646472657373203078307472616e736665722076616c75652065786365656465642073656e646572277320616c6c6f77616e636520666f72207370656e646572a265627a7a72315820f1c4b6747f936ea80e8667a511aca1063adaf37aef4c1e9b119b6aa639839e5b64736f6c634300050d0032",
  "source": "pragma solidity ^0.5.13;\n\nimport \"openzeppelin-solidity/contracts/ownership/Ownable.sol\";\nimport \"openzeppelin-solidity/contracts/math/SafeMath.sol\";\nimport \"openzeppelin-solidity/contracts/token/ERC20/IERC20.sol\";\n\nimport \"./UsingRegistry.sol\";\nimport \"./CalledByVm.sol\";\nimport \"./Initializable.sol\";\nimport \"./interfaces/ICeloToken.sol\";\nimport \"../common/interfaces/ICeloVersionedContract.sol\";\n\ncontract GoldToken is\n  Initializable,\n  CalledByVm,\n  UsingRegistry,\n  IERC20,\n  ICeloToken,\n  ICeloVersionedContract\n{\n  using SafeMath for uint256;\n\n  // Address of the TRANSFER precompiled contract.\n  // solhint-disable state-visibility\n  address constant TRANSFER = address(0xff - 2);\n  string constant NAME = \"Celo native asset\";\n  string constant SYMBOL = \"CELO\";\n  uint8 constant DECIMALS = 18;\n  uint256 internal totalSupply_;\n  // solhint-enable state-visibility\n\n  mapping(address => mapping(address => uint256)) internal allowed;\n\n  // Burn address is 0xdEaD because truffle is having buggy behaviour with the zero address\n  address constant BURN_ADDRESS = address(0x000000000000000000000000000000000000dEaD);\n\n  event Transfer(address indexed from, address indexed to, uint256 value);\n\n  event TransferComment(string comment);\n\n  event Approval(address indexed owner, address indexed spender, uint256 value);\n\n  /**\n   * @notice Sets initialized == true on implementation contracts\n   * @param test Set to true to skip implementation initialization\n   */\n  constructor(bool test) public Initializable(test) {}\n\n  /**\n   * @notice Returns the storage, major, minor, and patch version of the contract.\n   * @return Storage version of the contract.\n   * @return Major version of the contract.\n   * @return Minor version of the contract.\n   * @return Patch version of the contract.\n   */\n  function getVersionNumber() external pure returns (uint256, uint256, uint256, uint256) {\n    return (1, 1, 2, 0);\n  }\n\n  /**\n   * @notice Used in place of the constructor to allow the contract to be upgradable via proxy.\n   * @param registryAddress Address of the Registry contract.\n   */\n  function initialize(address registryAddress) external initializer {\n    totalSupply_ = 0;\n    _transferOwnership(msg.sender);\n    setRegistry(registryAddress);\n  }\n\n  /**\n   * @notice Transfers CELO from one address to another.\n   * @param to The address to transfer CELO to.\n   * @param value The amount of CELO to transfer.\n   * @return True if the transaction succeeds.\n   */\n  // solhint-disable-next-line no-simple-event-func-name\n  function transfer(address to, uint256 value) external returns (bool) {\n    return _transferWithCheck(to, value);\n  }\n\n  /**\n   * @notice Transfers CELO from one address to another with a comment.\n   * @param to The address to transfer CELO to.\n   * @param value The amount of CELO to transfer.\n   * @param comment The transfer comment\n   * @return True if the transaction succeeds.\n   */\n  function transferWithComment(address to, uint256 value, string calldata comment)\n    external\n    returns (bool)\n  {\n    bool succeeded = _transferWithCheck(to, value);\n    emit TransferComment(comment);\n    return succeeded;\n  }\n\n  /**\n   * @notice This function allows a user to burn a specific amount of tokens.\n     Burning is implemented by sending tokens to the burn address.\n   * @param value: The amount of CELO to burn.\n   * @return True if burn was successful.\n   */\n  function burn(uint256 value) external returns (bool) {\n    // not using transferWithCheck as the burn address can potentially be the zero address\n    return _transfer(BURN_ADDRESS, value);\n  }\n\n  /**\n   * @notice Approve a user to transfer CELO on behalf of another user.\n   * @param spender The address which is being approved to spend CELO.\n   * @param value The amount of CELO approved to the spender.\n   * @return True if the transaction succeeds.\n   */\n  function approve(address spender, uint256 value) external returns (bool) {\n    require(spender != address(0), \"cannot set allowance for 0\");\n    allowed[msg.sender][spender] = value;\n    emit Approval(msg.sender, spender, value);\n    return true;\n  }\n\n  /**\n   * @notice Increases the allowance of another user.\n   * @param spender The address which is being approved to spend CELO.\n   * @param value The increment of the amount of CELO approved to the spender.\n   * @return True if the transaction succeeds.\n   */\n  function increaseAllowance(address spender, uint256 value) external returns (bool) {\n    require(spender != address(0), \"cannot set allowance for 0\");\n    uint256 oldValue = allowed[msg.sender][spender];\n    uint256 newValue = oldValue.add(value);\n    allowed[msg.sender][spender] = newValue;\n    emit Approval(msg.sender, spender, newValue);\n    return true;\n  }\n\n  /**\n   * @notice Decreases the allowance of another user.\n   * @param spender The address which is being approved to spend CELO.\n   * @param value The decrement of the amount of CELO approved to the spender.\n   * @return True if the transaction succeeds.\n   */\n  function decreaseAllowance(address spender, uint256 value) external returns (bool) {\n    uint256 oldValue = allowed[msg.sender][spender];\n    uint256 newValue = oldValue.sub(value);\n    allowed[msg.sender][spender] = newValue;\n    emit Approval(msg.sender, spender, newValue);\n    return true;\n  }\n\n  /**\n   * @notice Transfers CELO from one address to another on behalf of a user.\n   * @param from The address to transfer CELO from.\n   * @param to The address to transfer CELO to.\n   * @param value The amount of CELO to transfer.\n   * @return True if the transaction succeeds.\n   */\n  function transferFrom(address from, address to, uint256 value) external returns (bool) {\n    require(to != address(0), \"transfer attempted to reserved address 0x0\");\n    require(value <= balanceOf(from), \"transfer value exceeded balance of sender\");\n    require(\n      value <= allowed[from][msg.sender],\n      \"transfer value exceeded sender's allowance for spender\"\n    );\n\n    bool success;\n    (success, ) = TRANSFER.call.value(0).gas(gasleft())(abi.encode(from, to, value));\n    require(success, \"CELO transfer failed\");\n\n    allowed[from][msg.sender] = allowed[from][msg.sender].sub(value);\n    emit Transfer(from, to, value);\n    return true;\n  }\n\n  /**\n   * @notice Mints new CELO and gives it to 'to'.\n   * @param to The account for which to mint tokens.\n   * @param value The amount of CELO to mint.\n   */\n  function mint(address to, uint256 value) external onlyVm returns (bool) {\n    if (value == 0) {\n      return true;\n    }\n\n    require(to != address(0), \"mint attempted to reserved address 0x0\");\n    totalSupply_ = totalSupply_.add(value);\n\n    bool success;\n    (success, ) = TRANSFER.call.value(0).gas(gasleft())(abi.encode(address(0), to, value));\n    require(success, \"CELO transfer failed\");\n\n    emit Transfer(address(0), to, value);\n    return true;\n  }\n\n  /**\n   * @return The name of the CELO token.\n   */\n  function name() external view returns (string memory) {\n    return NAME;\n  }\n\n  /**\n   * @return The symbol of the CELO token.\n   */\n  function symbol() external view returns (string memory) {\n    return SYMBOL;\n  }\n\n  /**\n   * @return The number of decimal places to which CELO is divisible.\n   */\n  function decimals() external view returns (uint8) {\n    return DECIMALS;\n  }\n\n  /**\n   * @return The total amount of CELO in existence, including what the burn address holds.\n   */\n  function totalSupply() external view returns (uint256) {\n    return totalSupply_;\n  }\n\n  /**\n   * @return The total amount of CELO in existence, not including what the burn address holds.\n   */\n  function circulatingSupply() external view returns (uint256) {\n    return totalSupply_.sub(getBurnedAmount()).sub(balanceOf(address(0)));\n  }\n\n  /**\n   * @notice Gets the amount of owner's CELO allowed to be spent by spender.\n   * @param owner The owner of the CELO.\n   * @param spender The spender of the CELO.\n   * @return The amount of CELO owner is allowing spender to spend.\n   */\n  function allowance(address owner, address spender) external view returns (uint256) {\n    return allowed[owner][spender];\n  }\n\n  /**\n   * @notice Increases the variable for total amount of CELO in existence.\n   * @param amount The amount to increase counter by\n   */\n  function increaseSupply(uint256 amount) external onlyVm {\n    totalSupply_ = totalSupply_.add(amount);\n  }\n\n  /**\n   * @notice Gets the amount of CELO that has been burned.\n   * @return The total amount of Celo that has been sent to the burn address.\n   */\n  function getBurnedAmount() public view returns (uint256) {\n    return balanceOf(BURN_ADDRESS);\n  }\n\n  /**\n   * @notice Gets the balance of the specified address.\n   * @param owner The address to query the balance of.\n   * @return The balance of the specified address.\n   */\n  function balanceOf(address owner) public view returns (uint256) {\n    return owner.balance;\n  }\n\n  /**\n   * @notice internal CELO transfer from one address to another.\n   * @param to The address to transfer CELO to.\n   * @param value The amount of CELO to transfer.\n   * @return True if the transaction succeeds.\n   */\n  function _transfer(address to, uint256 value) internal returns (bool) {\n    require(value <= balanceOf(msg.sender), \"transfer value exceeded balance of sender\");\n\n    bool success;\n    (success, ) = TRANSFER.call.value(0).gas(gasleft())(abi.encode(msg.sender, to, value));\n    require(success, \"CELO transfer failed\");\n    emit Transfer(msg.sender, to, value);\n    return true;\n  }\n\n  /**\n   * @notice Internal CELO transfer from one address to another.\n   * @param to The address to transfer CELO to. Zero address will revert.\n   * @param value The amount of CELO to transfer.\n   * @return True if the transaction succeeds.\n   */\n  function _transferWithCheck(address to, uint256 value) internal returns (bool) {\n    require(to != address(0), \"transfer attempted to reserved address 0x0\");\n    return _transfer(to, value);\n  }\n}\n",
  "compiler": {
    "name": "solc",
    "version": "0.5.13+commit.5b0b510c.Emscripten.clang"
  },
  "schemaVersion": "3.4.13",
  "updatedAt": "2023-11-21T17:26:04.024Z",
  "networkType": "ethereum",
  "devdoc": {
    "methods": {
      "allowance(address,address)": {
        "params": {
          "owner": "The owner of the CELO.",
          "spender": "The spender of the CELO."
        },
        "return": "The amount of CELO owner is allowing spender to spend."
      },
      "approve(address,uint256)": {
        "params": {
          "spender": "The address which is being approved to spend CELO.",
          "value": "The amount of CELO approved to the spender."
        },
        "return": "True if the transaction succeeds."
      },
      "balanceOf(address)": {
        "params": {
          "owner": "The address to query the balance of."
        },
        "return": "The balance of the specified address."
      },
      "burn(uint256)": {
        "params": {
          "value": ": The amount of CELO to burn."
        },
        "return": "True if burn was successful."
      },
      "circulatingSupply()": {
        "return": "The total amount of CELO in existence, not including what the burn address holds."
      },
      "constructor": {
        "params": {
          "test": "Set to true to skip implementation initialization"
        }
      },
      "decimals()": {
        "return": "The number of decimal places to which CELO is divisible."
      },
      "decreaseAllowance(address,uint256)": {
        "params": {
          "spender": "The address which is being approved to spend CELO.",
          "value": "The decrement of the amount of CELO approved to the spender."
        },
        "return": "True if the transaction succeeds."
      },
      "getBurnedAmount()": {
        "return": "The total amount of Celo that has been sent to the burn address."
      },
      "getVersionNumber()": {
        "return": "Storage version of the contract.Major version of the contract.Minor version of the contract.Patch version of the contract."
      },
      "increaseAllowance(address,uint256)": {
        "params": {
          "spender": "The address which is being approved to spend CELO.",
          "value": "The increment of the amount of CELO approved to the spender."
        },
        "return": "True if the transaction succeeds."
      },
      "increaseSupply(uint256)": {
        "params": {
          "amount": "The amount to increase counter by"
        }
      },
      "initialize(address)": {
        "params": {
          "registryAddress": "Address of the Registry contract."
        }
      },
      "isOwner()": {
        "details": "Returns true if the caller is the current owner."
      },
      "mint(address,uint256)": {
        "params": {
          "to": "The account for which to mint tokens.",
          "value": "The amount of CELO to mint."
        }
      },
      "name()": {
        "return": "The name of the CELO token."
      },
      "owner()": {
        "details": "Returns the address of the current owner."
      },
      "renounceOwnership()": {
        "details": "Leaves the contract without owner. It will not be possible to call `onlyOwner` functions anymore. Can only be called by the current owner.     * NOTE: Renouncing ownership will leave the contract without an owner, thereby removing any functionality that is only available to the owner."
      },
      "setRegistry(address)": {
        "params": {
          "registryAddress": "The address of a registry contract for routing to other contracts."
        }
      },
      "symbol()": {
        "return": "The symbol of the CELO token."
      },
      "totalSupply()": {
        "return": "The total amount of CELO in existence, including what the burn address holds."
      },
      "transfer(address,uint256)": {
        "params": {
          "to": "The address to transfer CELO to.",
          "value": "The amount of CELO to transfer."
        },
        "return": "True if the transaction succeeds."
      },
      "transferFrom(address,address,uint256)": {
        "params": {
          "from": "The address to transfer CELO from.",
          "to": "The address to transfer CELO to.",
          "value": "The amount of CELO to transfer."
        },
        "return": "True if the transaction succeeds."
      },
      "transferOwnership(address)": {
        "details": "Transfers ownership of the contract to a new account (`newOwner`). Can only be called by the current owner."
      },
      "transferWithComment(address,uint256,string)": {
        "params": {
          "comment": "The transfer comment",
          "to": "The address to transfer CELO to.",
          "value": "The amount of CELO to transfer."
        },
        "return": "True if the transaction succeeds."
      }
    }
  },
  "userdoc": {
    "methods": {
      "allowance(address,address)": {
        "notice": "Gets the amount of owner's CELO allowed to be spent by spender."
      },
      "approve(address,uint256)": {
        "notice": "Approve a user to transfer CELO on behalf of another user."
      },
      "balanceOf(address)": {
        "notice": "Gets the balance of the specified address."
      },
      "burn(uint256)": {
        "notice": "This function allows a user to burn a specific amount of tokens. Burning is implemented by sending tokens to the burn address."
      },
      "constructor": "Sets initialized == true on implementation contracts",
      "decreaseAllowance(address,uint256)": {
        "notice": "Decreases the allowance of another user."
      },
      "getBurnedAmount()": {
        "notice": "Gets the amount of CELO that has been burned."
      },
      "getVersionNumber()": {
        "notice": "Returns the storage, major, minor, and patch version of the contract."
      },
      "increaseAllowance(address,uint256)": {
        "notice": "Increases the allowance of another user."
      },
      "increaseSupply(uint256)": {
        "notice": "Increases the variable for total amount of CELO in existence."
      },
      "initialize(address)": {
        "notice": "Used in place of the constructor to allow the contract to be upgradable via proxy."
      },
      "mint(address,uint256)": {
        "notice": "Mints new CELO and gives it to 'to'."
      },
      "setRegistry(address)": {
        "notice": "Updates the address pointing to a Registry contract."
      },
      "transfer(address,uint256)": {
        "notice": "Transfers CELO from one address to another."
      },
      "transferFrom(address,address,uint256)": {
        "notice": "Transfers CELO from one address to another on behalf of a user."
      },
      "transferWithComment(address,uint256,string)": {
        "notice": "Transfers CELO from one address to another with a comment."
      }
    }
  }
}