{
  "contractName": "GovernanceTest",
  "abi": [
    {
      "anonymous": false,
      "inputs": [
        {
          "indexed": true,
          "internalType": "address",
          "name": "approver",
          "type": "address"
        }
      ],
      "name": "ApproverSet",
      "type": "event"
    },
    {
      "anonymous": false,
      "inputs": [
        {
          "indexed": false,
          "internalType": "uint256",
          "name": "concurrentProposals",
          "type": "uint256"
        }
      ],
      "name": "ConcurrentProposalsSet",
      "type": "event"
    },
    {
      "anonymous": false,
      "inputs": [
        {
          "indexed": true,
          "internalType": "address",
          "name": "destination",
          "type": "address"
        },
        {
          "indexed": true,
          "internalType": "bytes4",
          "name": "functionId",
          "type": "bytes4"
        },
        {
          "indexed": false,
          "internalType": "uint256",
          "name": "threshold",
          "type": "uint256"
        }
      ],
      "name": "ConstitutionSet",
      "type": "event"
    },
    {
      "anonymous": false,
      "inputs": [
        {
          "indexed": false,
          "internalType": "uint256",
          "name": "dequeueFrequency",
          "type": "uint256"
        }
      ],
      "name": "DequeueFrequencySet",
      "type": "event"
    },
    {
      "anonymous": false,
      "inputs": [
        {
          "indexed": false,
          "internalType": "uint256",
          "name": "executionStageDuration",
          "type": "uint256"
        }
      ],
      "name": "ExecutionStageDurationSet",
      "type": "event"
    },
    {
      "anonymous": false,
      "inputs": [
        {
          "indexed": true,
          "internalType": "bytes32",
          "name": "hash",
          "type": "bytes32"
        }
      ],
      "name": "HotfixApproved",
      "type": "event"
    },
    {
      "anonymous": false,
      "inputs": [
        {
          "indexed": true,
          "internalType": "bytes32",
          "name": "hash",
          "type": "bytes32"
        }
      ],
      "name": "HotfixExecuted",
      "type": "event"
    },
    {
      "anonymous": false,
      "inputs": [
        {
          "indexed": true,
          "internalType": "bytes32",
          "name": "hash",
          "type": "bytes32"
        },
        {
          "indexed": true,
          "internalType": "uint256",
          "name": "epoch",
          "type": "uint256"
        }
      ],
      "name": "HotfixPrepared",
      "type": "event"
    },
    {
      "anonymous": false,
      "inputs": [
        {
          "indexed": true,
          "internalType": "bytes32",
          "name": "hash",
          "type": "bytes32"
        },
        {
          "indexed": false,
          "internalType": "address",
          "name": "whitelister",
          "type": "address"
        }
      ],
      "name": "HotfixWhitelisted",
      "type": "event"
    },
    {
      "anonymous": false,
      "inputs": [
        {
          "indexed": false,
          "internalType": "uint256",
          "name": "minDeposit",
          "type": "uint256"
        }
      ],
      "name": "MinDepositSet",
      "type": "event"
    },
    {
      "anonymous": false,
      "inputs": [
        {
          "indexed": true,
          "internalType": "address",
          "name": "previousOwner",
          "type": "address"
        },
        {
          "indexed": true,
          "internalType": "address",
          "name": "newOwner",
          "type": "address"
        }
      ],
      "name": "OwnershipTransferred",
      "type": "event"
    },
    {
      "anonymous": false,
      "inputs": [
        {
          "indexed": false,
          "internalType": "uint256",
          "name": "baselineQuorumFactor",
          "type": "uint256"
        }
      ],
      "name": "ParticipationBaselineQuorumFactorSet",
      "type": "event"
    },
    {
      "anonymous": false,
      "inputs": [
        {
          "indexed": false,
          "internalType": "uint256",
          "name": "baselineUpdateFactor",
          "type": "uint256"
        }
      ],
      "name": "ParticipationBaselineUpdateFactorSet",
      "type": "event"
    },
    {
      "anonymous": false,
      "inputs": [
        {
          "indexed": false,
          "internalType": "uint256",
          "name": "participationBaseline",
          "type": "uint256"
        }
      ],
      "name": "ParticipationBaselineUpdated",
      "type": "event"
    },
    {
      "anonymous": false,
      "inputs": [
        {
          "indexed": false,
          "internalType": "uint256",
          "name": "participationFloor",
          "type": "uint256"
        }
      ],
      "name": "ParticipationFloorSet",
      "type": "event"
    },
    {
      "anonymous": false,
      "inputs": [
        {
          "indexed": true,
          "internalType": "uint256",
          "name": "proposalId",
          "type": "uint256"
        }
      ],
      "name": "ProposalApproved",
      "type": "event"
    },
    {
      "anonymous": false,
      "inputs": [
        {
          "indexed": true,
          "internalType": "uint256",
          "name": "proposalId",
          "type": "uint256"
        },
        {
          "indexed": false,
          "internalType": "uint256",
          "name": "timestamp",
          "type": "uint256"
        }
      ],
      "name": "ProposalDequeued",
      "type": "event"
    },
    {
      "anonymous": false,
      "inputs": [
        {
          "indexed": true,
          "internalType": "uint256",
          "name": "proposalId",
          "type": "uint256"
        }
      ],
      "name": "ProposalExecuted",
      "type": "event"
    },
    {
      "anonymous": false,
      "inputs": [
        {
          "indexed": true,
          "internalType": "uint256",
          "name": "proposalId",
          "type": "uint256"
        }
      ],
      "name": "ProposalExpired",
      "type": "event"
    },
    {
      "anonymous": false,
      "inputs": [
        {
          "indexed": true,
          "internalType": "uint256",
          "name": "proposalId",
          "type": "uint256"
        },
        {
          "indexed": true,
          "internalType": "address",
          "name": "proposer",
          "type": "address"
        },
        {
          "indexed": false,
          "internalType": "uint256",
          "name": "transactionCount",
          "type": "uint256"
        },
        {
          "indexed": false,
          "internalType": "uint256",
          "name": "deposit",
          "type": "uint256"
        },
        {
          "indexed": false,
          "internalType": "uint256",
          "name": "timestamp",
          "type": "uint256"
        }
      ],
      "name": "ProposalQueued",
      "type": "event"
    },
    {
      "anonymous": false,
      "inputs": [
        {
          "indexed": true,
          "internalType": "uint256",
          "name": "proposalId",
          "type": "uint256"
        },
        {
          "indexed": true,
          "internalType": "address",
          "name": "account",
          "type": "address"
        },
        {
          "indexed": false,
          "internalType": "uint256",
          "name": "revokedUpvotes",
          "type": "uint256"
        }
      ],
      "name": "ProposalUpvoteRevoked",
      "type": "event"
    },
    {
      "anonymous": false,
      "inputs": [
        {
          "indexed": true,
          "internalType": "uint256",
          "name": "proposalId",
          "type": "uint256"
        },
        {
          "indexed": true,
          "internalType": "address",
          "name": "account",
          "type": "address"
        },
        {
          "indexed": false,
          "internalType": "uint256",
          "name": "upvotes",
          "type": "uint256"
        }
      ],
      "name": "ProposalUpvoted",
      "type": "event"
    },
    {
      "anonymous": false,
      "inputs": [
        {
          "indexed": true,
          "internalType": "uint256",
          "name": "proposalId",
          "type": "uint256"
        },
        {
          "indexed": true,
          "internalType": "address",
          "name": "account",
          "type": "address"
        },
        {
          "indexed": false,
          "internalType": "uint256",
          "name": "value",
          "type": "uint256"
        },
        {
          "indexed": false,
          "internalType": "uint256",
          "name": "weight",
          "type": "uint256"
        }
      ],
      "name": "ProposalVoteRevoked",
      "type": "event"
    },
    {
      "anonymous": false,
      "inputs": [
        {
          "indexed": true,
          "internalType": "uint256",
          "name": "proposalId",
          "type": "uint256"
        },
        {
          "indexed": true,
          "internalType": "address",
          "name": "account",
          "type": "address"
        },
        {
          "indexed": false,
          "internalType": "uint256",
          "name": "yesVotes",
          "type": "uint256"
        },
        {
          "indexed": false,
          "internalType": "uint256",
          "name": "noVotes",
          "type": "uint256"
        },
        {
          "indexed": false,
          "internalType": "uint256",
          "name": "abstainVotes",
          "type": "uint256"
        }
      ],
      "name": "ProposalVoteRevokedV2",
      "type": "event"
    },
    {
      "anonymous": false,
      "inputs": [
        {
          "indexed": true,
          "internalType": "uint256",
          "name": "proposalId",
          "type": "uint256"
        },
        {
          "indexed": true,
          "internalType": "address",
          "name": "account",
          "type": "address"
        },
        {
          "indexed": false,
          "internalType": "uint256",
          "name": "value",
          "type": "uint256"
        },
        {
          "indexed": false,
          "internalType": "uint256",
          "name": "weight",
          "type": "uint256"
        }
      ],
      "name": "ProposalVoted",
      "type": "event"
    },
    {
      "anonymous": false,
      "inputs": [
        {
          "indexed": true,
          "internalType": "uint256",
          "name": "proposalId",
          "type": "uint256"
        },
        {
          "indexed": true,
          "internalType": "address",
          "name": "account",
          "type": "address"
        },
        {
          "indexed": false,
          "internalType": "uint256",
          "name": "yesVotes",
          "type": "uint256"
        },
        {
          "indexed": false,
          "internalType": "uint256",
          "name": "noVotes",
          "type": "uint256"
        },
        {
          "indexed": false,
          "internalType": "uint256",
          "name": "abstainVotes",
          "type": "uint256"
        }
      ],
      "name": "ProposalVotedV2",
      "type": "event"
    },
    {
      "anonymous": false,
      "inputs": [
        {
          "indexed": false,
          "internalType": "uint256",
          "name": "queueExpiry",
          "type": "uint256"
        }
      ],
      "name": "QueueExpirySet",
      "type": "event"
    },
    {
      "anonymous": false,
      "inputs": [
        {
          "indexed": false,
          "internalType": "uint256",
          "name": "referendumStageDuration",
          "type": "uint256"
        }
      ],
      "name": "ReferendumStageDurationSet",
      "type": "event"
    },
    {
      "anonymous": false,
      "inputs": [
        {
          "indexed": true,
          "internalType": "address",
          "name": "registryAddress",
          "type": "address"
        }
      ],
      "name": "RegistrySet",
      "type": "event"
    },
    {
      "payable": true,
      "stateMutability": "payable",
      "type": "fallback"
    },
    {
      "constant": false,
      "inputs": [
        {
          "internalType": "uint256",
          "name": "proposalId",
          "type": "uint256"
        },
        {
          "internalType": "uint256",
          "name": "index",
          "type": "uint256"
        }
      ],
      "name": "approve",
      "outputs": [
        {
          "internalType": "bool",
          "name": "",
          "type": "bool"
        }
      ],
      "payable": false,
      "stateMutability": "nonpayable",
      "type": "function"
    },
    {
      "constant": false,
      "inputs": [
        {
          "internalType": "bytes32",
          "name": "hash",
          "type": "bytes32"
        }
      ],
      "name": "approveHotfix",
      "outputs": [],
      "payable": false,
      "stateMutability": "nonpayable",
      "type": "function"
    },
    {
      "constant": true,
      "inputs": [],
      "name": "approver",
      "outputs": [
        {
          "internalType": "address",
          "name": "",
          "type": "address"
        }
      ],
      "payable": false,
      "stateMutability": "view",
      "type": "function"
    },
    {
      "constant": true,
      "inputs": [
        {
          "internalType": "address",
          "name": "sender",
          "type": "address"
        },
        {
          "internalType": "bytes",
          "name": "blsKey",
          "type": "bytes"
        },
        {
          "internalType": "bytes",
          "name": "blsPop",
          "type": "bytes"
        }
      ],
      "name": "checkProofOfPossession",
      "outputs": [
        {
          "internalType": "bool",
          "name": "",
          "type": "bool"
        }
      ],
      "payable": false,
      "stateMutability": "view",
      "type": "function"
    },
    {
      "constant": true,
      "inputs": [],
      "name": "concurrentProposals",
      "outputs": [
        {
          "internalType": "uint256",
          "name": "",
          "type": "uint256"
        }
      ],
      "payable": false,
      "stateMutability": "view",
      "type": "function"
    },
    {
      "constant": true,
      "inputs": [],
      "name": "dequeueFrequency",
      "outputs": [
        {
          "internalType": "uint256",
          "name": "",
          "type": "uint256"
        }
      ],
      "payable": false,
      "stateMutability": "view",
      "type": "function"
    },
    {
      "constant": false,
      "inputs": [],
      "name": "dequeueProposalsIfReady",
      "outputs": [],
      "payable": false,
      "stateMutability": "nonpayable",
      "type": "function"
    },
    {
      "constant": true,
      "inputs": [
        {
          "internalType": "uint256",
          "name": "",
          "type": "uint256"
        }
      ],
      "name": "dequeued",
      "outputs": [
        {
          "internalType": "uint256",
          "name": "",
          "type": "uint256"
        }
      ],
      "payable": false,
      "stateMutability": "view",
      "type": "function"
    },
    {
      "constant": true,
      "inputs": [
        {
          "internalType": "uint256",
          "name": "",
          "type": "uint256"
        }
      ],
      "name": "emptyIndices",
      "outputs": [
        {
          "internalType": "uint256",
          "name": "",
          "type": "uint256"
        }
      ],
      "payable": false,
      "stateMutability": "view",
      "type": "function"
    },
    {
      "constant": false,
      "inputs": [
        {
          "internalType": "uint256",
          "name": "proposalId",
          "type": "uint256"
        },
        {
          "internalType": "uint256",
          "name": "index",
          "type": "uint256"
        }
      ],
      "name": "execute",
      "outputs": [
        {
          "internalType": "bool",
          "name": "",
          "type": "bool"
        }
      ],
      "payable": false,
      "stateMutability": "nonpayable",
      "type": "function"
    },
    {
      "constant": false,
      "inputs": [
        {
          "internalType": "uint256[]",
          "name": "values",
          "type": "uint256[]"
        },
        {
          "internalType": "address[]",
          "name": "destinations",
          "type": "address[]"
        },
        {
          "internalType": "bytes",
          "name": "data",
          "type": "bytes"
        },
        {
          "internalType": "uint256[]",
          "name": "dataLengths",
          "type": "uint256[]"
        },
        {
          "internalType": "bytes32",
          "name": "salt",
          "type": "bytes32"
        }
      ],
      "name": "executeHotfix",
      "outputs": [],
      "payable": false,
      "stateMutability": "nonpayable",
      "type": "function"
    },
    {
      "constant": true,
      "inputs": [
        {
          "internalType": "uint256",
          "name": "aNumerator",
          "type": "uint256"
        },
        {
          "internalType": "uint256",
          "name": "aDenominator",
          "type": "uint256"
        },
        {
          "internalType": "uint256",
          "name": "bNumerator",
          "type": "uint256"
        },
        {
          "internalType": "uint256",
          "name": "bDenominator",
          "type": "uint256"
        },
        {
          "internalType": "uint256",
          "name": "exponent",
          "type": "uint256"
        },
        {
          "internalType": "uint256",
          "name": "_decimals",
          "type": "uint256"
        }
      ],
      "name": "fractionMulExp",
      "outputs": [
        {
          "internalType": "uint256",
          "name": "",
          "type": "uint256"
        },
        {
          "internalType": "uint256",
          "name": "",
          "type": "uint256"
        }
      ],
      "payable": false,
      "stateMutability": "view",
      "type": "function"
    },
    {
      "constant": true,
      "inputs": [
        {
          "internalType": "address",
          "name": "account",
          "type": "address"
        }
      ],
      "name": "getAmountOfGoldUsedForVoting",
      "outputs": [
        {
          "internalType": "uint256",
          "name": "",
          "type": "uint256"
        }
      ],
      "payable": false,
      "stateMutability": "view",
      "type": "function"
    },
    {
      "constant": true,
      "inputs": [
        {
          "internalType": "bytes",
          "name": "header",
          "type": "bytes"
        }
      ],
      "name": "getBlockNumberFromHeader",
      "outputs": [
        {
          "internalType": "uint256",
          "name": "",
          "type": "uint256"
        }
      ],
      "payable": false,
      "stateMutability": "view",
      "type": "function"
    },
    {
      "constant": true,
      "inputs": [
        {
          "internalType": "address",
          "name": "destination",
          "type": "address"
        },
        {
          "internalType": "bytes4",
          "name": "functionId",
          "type": "bytes4"
        }
      ],
      "name": "getConstitution",
      "outputs": [
        {
          "internalType": "uint256",
          "name": "",
          "type": "uint256"
        }
      ],
      "payable": false,
      "stateMutability": "view",
      "type": "function"
    },
    {
      "constant": true,
      "inputs": [],
      "name": "getDequeue",
      "outputs": [
        {
          "internalType": "uint256[]",
          "name": "",
          "type": "uint256[]"
        }
      ],
      "payable": false,
      "stateMutability": "view",
      "type": "function"
    },
    {
      "constant": true,
      "inputs": [],
      "name": "getEpochNumber",
      "outputs": [
        {
          "internalType": "uint256",
          "name": "",
          "type": "uint256"
        }
      ],
      "payable": false,
      "stateMutability": "view",
      "type": "function"
    },
    {
      "constant": true,
      "inputs": [
        {
          "internalType": "uint256",
          "name": "blockNumber",
          "type": "uint256"
        }
      ],
      "name": "getEpochNumberOfBlock",
      "outputs": [
        {
          "internalType": "uint256",
          "name": "",
          "type": "uint256"
        }
      ],
      "payable": false,
      "stateMutability": "view",
      "type": "function"
    },
    {
      "constant": true,
      "inputs": [],
      "name": "getEpochSize",
      "outputs": [
        {
          "internalType": "uint256",
          "name": "",
          "type": "uint256"
        }
      ],
      "payable": false,
      "stateMutability": "view",
      "type": "function"
    },
    {
      "constant": true,
      "inputs": [],
      "name": "getExecutionStageDuration",
      "outputs": [
        {
          "internalType": "uint256",
          "name": "",
          "type": "uint256"
        }
      ],
      "payable": false,
      "stateMutability": "view",
      "type": "function"
    },
    {
      "constant": true,
      "inputs": [
        {
          "internalType": "bytes32",
          "name": "hash",
          "type": "bytes32"
        }
      ],
      "name": "getHotfixRecord",
      "outputs": [
        {
          "internalType": "bool",
          "name": "",
          "type": "bool"
        },
        {
          "internalType": "bool",
          "name": "",
          "type": "bool"
        },
        {
          "internalType": "uint256",
          "name": "",
          "type": "uint256"
        }
      ],
      "payable": false,
      "stateMutability": "view",
      "type": "function"
    },
    {
      "constant": true,
      "inputs": [
        {
          "internalType": "address",
          "name": "account",
          "type": "address"
        }
      ],
      "name": "getMostRecentReferendumProposal",
      "outputs": [
        {
          "internalType": "uint256",
          "name": "",
          "type": "uint256"
        }
      ],
      "payable": false,
      "stateMutability": "view",
      "type": "function"
    },
    {
      "constant": true,
      "inputs": [
        {
          "internalType": "uint256",
          "name": "blockNumber",
          "type": "uint256"
        }
      ],
      "name": "getParentSealBitmap",
      "outputs": [
        {
          "internalType": "bytes32",
          "name": "",
          "type": "bytes32"
        }
      ],
      "payable": false,
      "stateMutability": "view",
      "type": "function"
    },
    {
      "constant": true,
      "inputs": [],
      "name": "getParticipationParameters",
      "outputs": [
        {
          "internalType": "uint256",
          "name": "",
          "type": "uint256"
        },
        {
          "internalType": "uint256",
          "name": "",
          "type": "uint256"
        },
        {
          "internalType": "uint256",
          "name": "",
          "type": "uint256"
        },
        {
          "internalType": "uint256",
          "name": "",
          "type": "uint256"
        }
      ],
      "payable": false,
      "stateMutability": "view",
      "type": "function"
    },
    {
      "constant": true,
      "inputs": [
        {
          "internalType": "uint256",
          "name": "proposalId",
          "type": "uint256"
        }
      ],
      "name": "getProposal",
      "outputs": [
        {
          "internalType": "address",
          "name": "",
          "type": "address"
        },
        {
          "internalType": "uint256",
          "name": "",
          "type": "uint256"
        },
        {
          "internalType": "uint256",
          "name": "",
          "type": "uint256"
        },
        {
          "internalType": "uint256",
          "name": "",
          "type": "uint256"
        },
        {
          "internalType": "string",
          "name": "",
          "type": "string"
        },
        {
          "internalType": "uint256",
          "name": "",
          "type": "uint256"
        },
        {
          "internalType": "bool",
          "name": "",
          "type": "bool"
        }
      ],
      "payable": false,
      "stateMutability": "view",
      "type": "function"
    },
    {
      "constant": true,
      "inputs": [
        {
          "internalType": "uint256",
          "name": "proposalId",
          "type": "uint256"
        }
      ],
      "name": "getProposalStage",
      "outputs": [
        {
          "internalType": "enum Proposals.Stage",
          "name": "",
          "type": "uint8"
        }
      ],
      "payable": false,
      "stateMutability": "view",
      "type": "function"
    },
    {
      "constant": true,
      "inputs": [
        {
          "internalType": "uint256",
          "name": "proposalId",
          "type": "uint256"
        },
        {
          "internalType": "uint256",
          "name": "index",
          "type": "uint256"
        }
      ],
      "name": "getProposalTransaction",
      "outputs": [
        {
          "internalType": "uint256",
          "name": "",
          "type": "uint256"
        },
        {
          "internalType": "address",
          "name": "",
          "type": "address"
        },
        {
          "internalType": "bytes",
          "name": "",
          "type": "bytes"
        }
      ],
      "payable": false,
      "stateMutability": "view",
      "type": "function"
    },
    {
      "constant": true,
      "inputs": [],
      "name": "getQueue",
      "outputs": [
        {
          "internalType": "uint256[]",
          "name": "",
          "type": "uint256[]"
        },
        {
          "internalType": "uint256[]",
          "name": "",
          "type": "uint256[]"
        }
      ],
      "payable": false,
      "stateMutability": "view",
      "type": "function"
    },
    {
      "constant": true,
      "inputs": [],
      "name": "getQueueLength",
      "outputs": [
        {
          "internalType": "uint256",
          "name": "",
          "type": "uint256"
        }
      ],
      "payable": false,
      "stateMutability": "view",
      "type": "function"
    },
    {
      "constant": true,
      "inputs": [],
      "name": "getReferendumStageDuration",
      "outputs": [
        {
          "internalType": "uint256",
          "name": "",
          "type": "uint256"
        }
      ],
      "payable": false,
      "stateMutability": "view",
      "type": "function"
    },
    {
      "constant": true,
      "inputs": [
        {
          "internalType": "address",
          "name": "account",
          "type": "address"
        }
      ],
      "name": "getUpvoteRecord",
      "outputs": [
        {
          "internalType": "uint256",
          "name": "",
          "type": "uint256"
        },
        {
          "internalType": "uint256",
          "name": "",
          "type": "uint256"
        }
      ],
      "payable": false,
      "stateMutability": "view",
      "type": "function"
    },
    {
      "constant": true,
      "inputs": [
        {
          "internalType": "uint256",
          "name": "proposalId",
          "type": "uint256"
        }
      ],
      "name": "getUpvotes",
      "outputs": [
        {
          "internalType": "uint256",
          "name": "",
          "type": "uint256"
        }
      ],
      "payable": false,
      "stateMutability": "view",
      "type": "function"
    },
    {
      "constant": true,
      "inputs": [
        {
          "internalType": "bytes",
          "name": "header",
          "type": "bytes"
        }
      ],
      "name": "getVerifiedSealBitmapFromHeader",
      "outputs": [
        {
          "internalType": "bytes32",
          "name": "",
          "type": "bytes32"
        }
      ],
      "payable": false,
      "stateMutability": "view",
      "type": "function"
    },
    {
      "constant": true,
      "inputs": [],
      "name": "getVersionNumber",
      "outputs": [
        {
          "internalType": "uint256",
          "name": "",
          "type": "uint256"
        },
        {
          "internalType": "uint256",
          "name": "",
          "type": "uint256"
        },
        {
          "internalType": "uint256",
          "name": "",
          "type": "uint256"
        },
        {
          "internalType": "uint256",
          "name": "",
          "type": "uint256"
        }
      ],
      "payable": false,
      "stateMutability": "pure",
      "type": "function"
    },
    {
      "constant": true,
      "inputs": [
        {
          "internalType": "address",
          "name": "account",
          "type": "address"
        },
        {
          "internalType": "uint256",
          "name": "index",
          "type": "uint256"
        }
      ],
      "name": "getVoteRecord",
      "outputs": [
        {
          "internalType": "uint256",
          "name": "",
          "type": "uint256"
        },
        {
          "internalType": "uint256",
          "name": "",
          "type": "uint256"
        },
        {
          "internalType": "uint256",
          "name": "",
          "type": "uint256"
        },
        {
          "internalType": "uint256",
          "name": "",
          "type": "uint256"
        },
        {
          "internalType": "uint256",
          "name": "",
          "type": "uint256"
        },
        {
          "internalType": "uint256",
          "name": "",
          "type": "uint256"
        }
      ],
      "payable": false,
      "stateMutability": "view",
      "type": "function"
    },
    {
      "constant": true,
      "inputs": [
        {
          "internalType": "uint256",
          "name": "proposalId",
          "type": "uint256"
        }
      ],
      "name": "getVoteTotals",
      "outputs": [
        {
          "internalType": "uint256",
          "name": "",
          "type": "uint256"
        },
        {
          "internalType": "uint256",
          "name": "",
          "type": "uint256"
        },
        {
          "internalType": "uint256",
          "name": "",
          "type": "uint256"
        }
      ],
      "payable": false,
      "stateMutability": "view",
      "type": "function"
    },
    {
      "constant": true,
      "inputs": [
        {
          "internalType": "bytes",
          "name": "header",
          "type": "bytes"
        }
      ],
      "name": "hashHeader",
      "outputs": [
        {
          "internalType": "bytes32",
          "name": "",
          "type": "bytes32"
        }
      ],
      "payable": false,
      "stateMutability": "view",
      "type": "function"
    },
    {
      "constant": true,
      "inputs": [
        {
          "internalType": "bytes32",
          "name": "hash",
          "type": "bytes32"
        }
      ],
      "name": "hotfixWhitelistValidatorTally",
      "outputs": [
        {
          "internalType": "uint256",
          "name": "",
          "type": "uint256"
        }
      ],
      "payable": false,
      "stateMutability": "view",
      "type": "function"
    },
    {
      "constant": true,
      "inputs": [
        {
          "internalType": "bytes32",
          "name": "",
          "type": "bytes32"
        }
      ],
      "name": "hotfixes",
      "outputs": [
        {
          "internalType": "bool",
          "name": "executed",
          "type": "bool"
        },
        {
          "internalType": "bool",
          "name": "approved",
          "type": "bool"
        },
        {
          "internalType": "uint256",
          "name": "preparedEpoch",
          "type": "uint256"
        }
      ],
      "payable": false,
      "stateMutability": "view",
      "type": "function"
    },
    {
      "constant": false,
      "inputs": [
        {
          "internalType": "address",
          "name": "registryAddress",
          "type": "address"
        },
        {
          "internalType": "address",
          "name": "_approver",
          "type": "address"
        },
        {
          "internalType": "uint256",
          "name": "_concurrentProposals",
          "type": "uint256"
        },
        {
          "internalType": "uint256",
          "name": "_minDeposit",
          "type": "uint256"
        },
        {
          "internalType": "uint256",
          "name": "_queueExpiry",
          "type": "uint256"
        },
        {
          "internalType": "uint256",
          "name": "_dequeueFrequency",
          "type": "uint256"
        },
        {
          "internalType": "uint256",
          "name": "referendumStageDuration",
          "type": "uint256"
        },
        {
          "internalType": "uint256",
          "name": "executionStageDuration",
          "type": "uint256"
        },
        {
          "internalType": "uint256",
          "name": "participationBaseline",
          "type": "uint256"
        },
        {
          "internalType": "uint256",
          "name": "participationFloor",
          "type": "uint256"
        },
        {
          "internalType": "uint256",
          "name": "baselineUpdateFactor",
          "type": "uint256"
        },
        {
          "internalType": "uint256",
          "name": "baselineQuorumFactor",
          "type": "uint256"
        }
      ],
      "name": "initialize",
      "outputs": [],
      "payable": false,
      "stateMutability": "nonpayable",
      "type": "function"
    },
    {
      "constant": true,
      "inputs": [],
      "name": "initialized",
      "outputs": [
        {
          "internalType": "bool",
          "name": "",
          "type": "bool"
        }
      ],
      "payable": false,
      "stateMutability": "view",
      "type": "function"
    },
    {
      "constant": true,
      "inputs": [
        {
          "internalType": "uint256",
          "name": "proposalId",
          "type": "uint256"
        }
      ],
      "name": "isApproved",
      "outputs": [
        {
          "internalType": "bool",
          "name": "",
          "type": "bool"
        }
      ],
      "payable": false,
      "stateMutability": "view",
      "type": "function"
    },
    {
      "constant": true,
      "inputs": [
        {
          "internalType": "uint256",
          "name": "proposalId",
          "type": "uint256"
        },
        {
          "internalType": "uint256",
          "name": "index",
          "type": "uint256"
        }
      ],
      "name": "isDequeuedProposal",
      "outputs": [
        {
          "internalType": "bool",
          "name": "",
          "type": "bool"
        }
      ],
      "payable": false,
      "stateMutability": "view",
      "type": "function"
    },
    {
      "constant": true,
      "inputs": [
        {
          "internalType": "uint256",
          "name": "proposalId",
          "type": "uint256"
        }
      ],
      "name": "isDequeuedProposalExpired",
      "outputs": [
        {
          "internalType": "bool",
          "name": "",
          "type": "bool"
        }
      ],
      "payable": false,
      "stateMutability": "view",
      "type": "function"
    },
    {
      "constant": true,
      "inputs": [
        {
          "internalType": "bytes32",
          "name": "hash",
          "type": "bytes32"
        }
      ],
      "name": "isHotfixPassing",
      "outputs": [
        {
          "internalType": "bool",
          "name": "",
          "type": "bool"
        }
      ],
      "payable": false,
      "stateMutability": "view",
      "type": "function"
    },
    {
      "constant": true,
      "inputs": [
        {
          "internalType": "bytes32",
          "name": "hash",
          "type": "bytes32"
        },
        {
          "internalType": "address",
          "name": "whitelister",
          "type": "address"
        }
      ],
      "name": "isHotfixWhitelistedBy",
      "outputs": [
        {
          "internalType": "bool",
          "name": "",
          "type": "bool"
        }
      ],
      "payable": false,
      "stateMutability": "view",
      "type": "function"
    },
    {
      "constant": true,
      "inputs": [],
      "name": "isOwner",
      "outputs": [
        {
          "internalType": "bool",
          "name": "",
          "type": "bool"
        }
      ],
      "payable": false,
      "stateMutability": "view",
      "type": "function"
    },
    {
      "constant": true,
      "inputs": [
        {
          "internalType": "uint256",
          "name": "proposalId",
          "type": "uint256"
        }
      ],
      "name": "isProposalPassing",
      "outputs": [
        {
          "internalType": "bool",
          "name": "",
          "type": "bool"
        }
      ],
      "payable": false,
      "stateMutability": "view",
      "type": "function"
    },
    {
      "constant": true,
      "inputs": [
        {
          "internalType": "uint256",
          "name": "proposalId",
          "type": "uint256"
        }
      ],
      "name": "isQueued",
      "outputs": [
        {
          "internalType": "bool",
          "name": "",
          "type": "bool"
        }
      ],
      "payable": false,
      "stateMutability": "view",
      "type": "function"
    },
    {
      "constant": true,
      "inputs": [
        {
          "internalType": "uint256",
          "name": "proposalId",
          "type": "uint256"
        }
      ],
      "name": "isQueuedProposalExpired",
      "outputs": [
        {
          "internalType": "bool",
          "name": "",
          "type": "bool"
        }
      ],
      "payable": false,
      "stateMutability": "view",
      "type": "function"
    },
    {
      "constant": true,
      "inputs": [
        {
          "internalType": "address",
          "name": "account",
          "type": "address"
        }
      ],
      "name": "isVoting",
      "outputs": [
        {
          "internalType": "bool",
          "name": "",
          "type": "bool"
        }
      ],
      "payable": false,
      "stateMutability": "view",
      "type": "function"
    },
    {
      "constant": true,
      "inputs": [],
      "name": "lastDequeue",
      "outputs": [
        {
          "internalType": "uint256",
          "name": "",
          "type": "uint256"
        }
      ],
      "payable": false,
      "stateMutability": "view",
      "type": "function"
    },
    {
      "constant": true,
      "inputs": [],
      "name": "minDeposit",
      "outputs": [
        {
          "internalType": "uint256",
          "name": "",
          "type": "uint256"
        }
      ],
      "payable": false,
      "stateMutability": "view",
      "type": "function"
    },
    {
      "constant": true,
      "inputs": [
        {
          "internalType": "uint256",
          "name": "blockNumber",
          "type": "uint256"
        }
      ],
      "name": "minQuorumSize",
      "outputs": [
        {
          "internalType": "uint256",
          "name": "",
          "type": "uint256"
        }
      ],
      "payable": false,
      "stateMutability": "view",
      "type": "function"
    },
    {
      "constant": true,
      "inputs": [],
      "name": "minQuorumSizeInCurrentSet",
      "outputs": [
        {
          "internalType": "uint256",
          "name": "",
          "type": "uint256"
        }
      ],
      "payable": false,
      "stateMutability": "view",
      "type": "function"
    },
    {
      "constant": true,
      "inputs": [],
      "name": "owner",
      "outputs": [
        {
          "internalType": "address",
          "name": "",
          "type": "address"
        }
      ],
      "payable": false,
      "stateMutability": "view",
      "type": "function"
    },
    {
      "constant": false,
      "inputs": [
        {
          "internalType": "bytes32",
          "name": "hash",
          "type": "bytes32"
        }
      ],
      "name": "prepareHotfix",
      "outputs": [],
      "payable": false,
      "stateMutability": "nonpayable",
      "type": "function"
    },
    {
      "constant": true,
      "inputs": [],
      "name": "proposalCount",
      "outputs": [
        {
          "internalType": "uint256",
          "name": "",
          "type": "uint256"
        }
      ],
      "payable": false,
      "stateMutability": "view",
      "type": "function"
    },
    {
      "constant": true,
      "inputs": [
        {
          "internalType": "uint256",
          "name": "proposalId",
          "type": "uint256"
        }
      ],
      "name": "proposalExists",
      "outputs": [
        {
          "internalType": "bool",
          "name": "",
          "type": "bool"
        }
      ],
      "payable": false,
      "stateMutability": "view",
      "type": "function"
    },
    {
      "constant": false,
      "inputs": [
        {
          "internalType": "uint256[]",
          "name": "values",
          "type": "uint256[]"
        },
        {
          "internalType": "address[]",
          "name": "destinations",
          "type": "address[]"
        },
        {
          "internalType": "bytes",
          "name": "data",
          "type": "bytes"
        },
        {
          "internalType": "uint256[]",
          "name": "dataLengths",
          "type": "uint256[]"
        },
        {
          "internalType": "string",
          "name": "descriptionUrl",
          "type": "string"
        }
      ],
      "name": "propose",
      "outputs": [
        {
          "internalType": "uint256",
          "name": "",
          "type": "uint256"
        }
      ],
      "payable": true,
      "stateMutability": "payable",
      "type": "function"
    },
    {
      "constant": true,
      "inputs": [],
      "name": "queueExpiry",
      "outputs": [
        {
          "internalType": "uint256",
          "name": "",
          "type": "uint256"
        }
      ],
      "payable": false,
      "stateMutability": "view",
      "type": "function"
    },
    {
      "constant": true,
      "inputs": [
        {
          "internalType": "address",
          "name": "",
          "type": "address"
        }
      ],
      "name": "refundedDeposits",
      "outputs": [
        {
          "internalType": "uint256",
          "name": "",
          "type": "uint256"
        }
      ],
      "payable": false,
      "stateMutability": "view",
      "type": "function"
    },
    {
      "constant": true,
      "inputs": [],
      "name": "registry",
      "outputs": [
        {
          "internalType": "contract IRegistry",
          "name": "",
          "type": "address"
        }
      ],
      "payable": false,
      "stateMutability": "view",
      "type": "function"
    },
    {
      "constant": false,
      "inputs": [
        {
          "internalType": "address",
          "name": "account",
          "type": "address"
        },
        {
          "internalType": "uint256",
          "name": "newVotingPower",
          "type": "uint256"
        }
      ],
      "name": "removeVotesWhenRevokingDelegatedVotes",
      "outputs": [],
      "payable": false,
      "stateMutability": "nonpayable",
      "type": "function"
    },
    {
      "constant": false,
      "inputs": [],
      "name": "renounceOwnership",
      "outputs": [],
      "payable": false,
      "stateMutability": "nonpayable",
      "type": "function"
    },
    {
      "constant": false,
      "inputs": [
        {
          "internalType": "uint256",
          "name": "lesser",
          "type": "uint256"
        },
        {
          "internalType": "uint256",
          "name": "greater",
          "type": "uint256"
        }
      ],
      "name": "revokeUpvote",
      "outputs": [
        {
          "internalType": "bool",
          "name": "",
          "type": "bool"
        }
      ],
      "payable": false,
      "stateMutability": "nonpayable",
      "type": "function"
    },
    {
      "constant": false,
      "inputs": [],
      "name": "revokeVotes",
      "outputs": [
        {
          "internalType": "bool",
          "name": "",
          "type": "bool"
        }
      ],
      "payable": false,
      "stateMutability": "nonpayable",
      "type": "function"
    },
    {
      "constant": false,
      "inputs": [
        {
          "internalType": "address",
          "name": "_approver",
          "type": "address"
        }
      ],
      "name": "setApprover",
      "outputs": [],
      "payable": false,
      "stateMutability": "nonpayable",
      "type": "function"
    },
    {
      "constant": false,
      "inputs": [
        {
          "internalType": "uint256",
          "name": "baselineQuorumFactor",
          "type": "uint256"
        }
      ],
      "name": "setBaselineQuorumFactor",
      "outputs": [],
      "payable": false,
      "stateMutability": "nonpayable",
      "type": "function"
    },
    {
      "constant": false,
      "inputs": [
        {
          "internalType": "uint256",
          "name": "baselineUpdateFactor",
          "type": "uint256"
        }
      ],
      "name": "setBaselineUpdateFactor",
      "outputs": [],
      "payable": false,
      "stateMutability": "nonpayable",
      "type": "function"
    },
    {
      "constant": false,
      "inputs": [
        {
          "internalType": "uint256",
          "name": "_concurrentProposals",
          "type": "uint256"
        }
      ],
      "name": "setConcurrentProposals",
      "outputs": [],
      "payable": false,
      "stateMutability": "nonpayable",
      "type": "function"
    },
    {
      "constant": false,
      "inputs": [
        {
          "internalType": "address",
          "name": "destination",
          "type": "address"
        },
        {
          "internalType": "bytes4",
          "name": "functionId",
          "type": "bytes4"
        },
        {
          "internalType": "uint256",
          "name": "threshold",
          "type": "uint256"
        }
      ],
      "name": "setConstitution",
      "outputs": [],
      "payable": false,
      "stateMutability": "nonpayable",
      "type": "function"
    },
    {
      "constant": false,
      "inputs": [
        {
          "internalType": "uint256",
          "name": "_dequeueFrequency",
          "type": "uint256"
        }
      ],
      "name": "setDequeueFrequency",
      "outputs": [],
      "payable": false,
      "stateMutability": "nonpayable",
      "type": "function"
    },
    {
      "constant": false,
      "inputs": [
        {
          "internalType": "uint256",
          "name": "executionStageDuration",
          "type": "uint256"
        }
      ],
      "name": "setExecutionStageDuration",
      "outputs": [],
      "payable": false,
      "stateMutability": "nonpayable",
      "type": "function"
    },
    {
      "constant": false,
      "inputs": [
        {
          "internalType": "uint256",
          "name": "_minDeposit",
          "type": "uint256"
        }
      ],
      "name": "setMinDeposit",
      "outputs": [],
      "payable": false,
      "stateMutability": "nonpayable",
      "type": "function"
    },
    {
      "constant": false,
      "inputs": [
        {
          "internalType": "uint256",
          "name": "participationBaseline",
          "type": "uint256"
        }
      ],
      "name": "setParticipationBaseline",
      "outputs": [],
      "payable": false,
      "stateMutability": "nonpayable",
      "type": "function"
    },
    {
      "constant": false,
      "inputs": [
        {
          "internalType": "uint256",
          "name": "participationFloor",
          "type": "uint256"
        }
      ],
      "name": "setParticipationFloor",
      "outputs": [],
      "payable": false,
      "stateMutability": "nonpayable",
      "type": "function"
    },
    {
      "constant": false,
      "inputs": [
        {
          "internalType": "uint256",
          "name": "_queueExpiry",
          "type": "uint256"
        }
      ],
      "name": "setQueueExpiry",
      "outputs": [],
      "payable": false,
      "stateMutability": "nonpayable",
      "type": "function"
    },
    {
      "constant": false,
      "inputs": [
        {
          "internalType": "uint256",
          "name": "referendumStageDuration",
          "type": "uint256"
        }
      ],
      "name": "setReferendumStageDuration",
      "outputs": [],
      "payable": false,
      "stateMutability": "nonpayable",
      "type": "function"
    },
    {
      "constant": false,
      "inputs": [
        {
          "internalType": "address",
          "name": "registryAddress",
          "type": "address"
        }
      ],
      "name": "setRegistry",
      "outputs": [],
      "payable": false,
      "stateMutability": "nonpayable",
      "type": "function"
    },
    {
      "constant": true,
      "inputs": [],
      "name": "stageDurations",
      "outputs": [
        {
          "internalType": "uint256",
          "name": "approval",
          "type": "uint256"
        },
        {
          "internalType": "uint256",
          "name": "referendum",
          "type": "uint256"
        },
        {
          "internalType": "uint256",
          "name": "execution",
          "type": "uint256"
        }
      ],
      "payable": false,
      "stateMutability": "view",
      "type": "function"
    },
    {
      "constant": false,
      "inputs": [
        {
          "internalType": "address",
          "name": "newOwner",
          "type": "address"
        }
      ],
      "name": "transferOwnership",
      "outputs": [],
      "payable": false,
      "stateMutability": "nonpayable",
      "type": "function"
    },
    {
      "constant": false,
      "inputs": [
        {
          "internalType": "uint256",
          "name": "proposalId",
          "type": "uint256"
        },
        {
          "internalType": "uint256",
          "name": "lesser",
          "type": "uint256"
        },
        {
          "internalType": "uint256",
          "name": "greater",
          "type": "uint256"
        }
      ],
      "name": "upvote",
      "outputs": [
        {
          "internalType": "bool",
          "name": "",
          "type": "bool"
        }
      ],
      "payable": false,
      "stateMutability": "nonpayable",
      "type": "function"
    },
    {
      "constant": true,
      "inputs": [
        {
          "internalType": "uint256",
          "name": "index",
          "type": "uint256"
        },
        {
          "internalType": "uint256",
          "name": "blockNumber",
          "type": "uint256"
        }
      ],
      "name": "validatorSignerAddressFromSet",
      "outputs": [
        {
          "internalType": "address",
          "name": "",
          "type": "address"
        }
      ],
      "payable": false,
      "stateMutability": "view",
      "type": "function"
    },
    {
      "constant": false,
      "inputs": [
        {
          "internalType": "uint256",
          "name": "proposalId",
          "type": "uint256"
        },
        {
          "internalType": "uint256",
          "name": "index",
          "type": "uint256"
        },
        {
          "internalType": "enum Proposals.VoteValue",
          "name": "value",
          "type": "uint8"
        }
      ],
      "name": "vote",
      "outputs": [
        {
          "internalType": "bool",
          "name": "",
          "type": "bool"
        }
      ],
      "payable": false,
      "stateMutability": "nonpayable",
      "type": "function"
    },
    {
      "constant": false,
      "inputs": [
        {
          "internalType": "uint256",
          "name": "proposalId",
          "type": "uint256"
        },
        {
          "internalType": "uint256",
          "name": "index",
          "type": "uint256"
        },
        {
          "internalType": "uint256",
          "name": "yesVotes",
          "type": "uint256"
        },
        {
          "internalType": "uint256",
          "name": "noVotes",
          "type": "uint256"
        },
        {
          "internalType": "uint256",
          "name": "abstainVotes",
          "type": "uint256"
        }
      ],
      "name": "votePartially",
      "outputs": [
        {
          "internalType": "bool",
          "name": "",
          "type": "bool"
        }
      ],
      "payable": false,
      "stateMutability": "nonpayable",
      "type": "function"
    },
    {
      "constant": false,
      "inputs": [
        {
          "internalType": "bytes32",
          "name": "hash",
          "type": "bytes32"
        }
      ],
      "name": "whitelistHotfix",
      "outputs": [],
      "payable": false,
      "stateMutability": "nonpayable",
      "type": "function"
    },
    {
      "constant": false,
      "inputs": [],
      "name": "withdraw",
      "outputs": [
        {
          "internalType": "bool",
          "name": "",
          "type": "bool"
        }
      ],
      "payable": false,
      "stateMutability": "nonpayable",
      "type": "function"
    },
    {
      "constant": true,
      "inputs": [],
      "name": "numberValidatorsInCurrentSet",
      "outputs": [
        {
          "internalType": "uint256",
          "name": "",
          "type": "uint256"
        }
      ],
      "payable": false,
      "stateMutability": "view",
      "type": "function"
    },
    {
      "constant": true,
      "inputs": [
        {
          "internalType": "uint256",
          "name": "",
          "type": "uint256"
        }
      ],
      "name": "numberValidatorsInSet",
      "outputs": [
        {
          "internalType": "uint256",
          "name": "",
          "type": "uint256"
        }
      ],
      "payable": false,
      "stateMutability": "view",
      "type": "function"
    },
    {
      "constant": true,
      "inputs": [
        {
          "internalType": "uint256",
          "name": "index",
          "type": "uint256"
        }
      ],
      "name": "validatorSignerAddressFromCurrentSet",
      "outputs": [
        {
          "internalType": "address",
          "name": "",
          "type": "address"
        }
      ],
      "payable": false,
      "stateMutability": "view",
      "type": "function"
    },
    {
      "constant": false,
      "inputs": [
        {
          "internalType": "address",
          "name": "validator",
          "type": "address"
        }
      ],
      "name": "addValidator",
      "outputs": [],
      "payable": false,
      "stateMutability": "nonpayable",
      "type": "function"
    },
    {
      "constant": false,
      "inputs": [
        {
          "internalType": "address",
          "name": "account",
          "type": "address"
        },
        {
          "internalType": "uint256",
          "name": "maxAmountAllowed",
          "type": "uint256"
        }
      ],
      "name": "removeVotesWhenRevokingDelegatedVotesTest",
      "outputs": [],
      "payable": false,
      "stateMutability": "nonpayable",
      "type": "function"
    },
    {
      "constant": false,
      "inputs": [
        {
          "internalType": "address",
          "name": "voterAddress",
          "type": "address"
        },
        {
          "internalType": "uint256",
          "name": "proposalIndex",
          "type": "uint256"
        },
        {
          "internalType": "uint256",
          "name": "weight",
          "type": "uint256"
        }
      ],
      "name": "setDeprecatedWeight",
      "outputs": [],
      "payable": false,
      "stateMutability": "nonpayable",
      "type": "function"
    }
  ],
  "bytecode": "0x6080604052600180600062000019620000e860201b60201c565b9050806000806101000a81548173ffffffffffffffffffffffffffffffffffffffff021916908373ffffffffffffffffffffffffffffffffffffffff1602179055508073ffffffffffffffffffffffffffffffffffffffff16600073ffffffffffffffffffffffffffffffffffffffff167f8be0079c531659141344cd1fd0a4f28419497f9722a3daafe3b4186f6b6457e060405160405180910390a35080620000d9576001600060146101000a81548160ff0219169083151502179055505b506001808190555050620000f0565b600033905090565b61cd9a80620001006000396000f3fe60806040526004361061050d5760003560e01c80637385e5da11610297578063af20311011610165578063cea69e74116100cc578063e50e652d11610085578063e50e652d146127a2578063ec683072146127f1578063ed38527414612879578063f2fde38b146128fd578063f3f6da2c1461294e578063fae8db0a146129a95761050d565b8063cea69e741461242d578063cf48eb9414612468578063d704f0c5146125f7578063da35c664146126ef578063df4da4611461271a578063e41db455146127455761050d565b8063c134b2fc1161011e578063c134b2fc14612192578063c73a6d78146121e5578063c7f758a814612238578063c805956d14612346578063c8d8d2b514612386578063cd845a76146123c15761050d565b8063af20311014611f86578063b0f998421461205c578063b15f0f5814612097578063b8f77005146120d2578063bbb2eab9146120fd578063c0aee5f4146121675761050d565b80638fcc9cfb116102095780639cb02dfc116101c25780639cb02dfc14611dd4578063a91ee0dc14611e0f578063aa2feb8314611e60578063ad78c10914611eaf578063add004df14611eda578063af108a0e14611f295761050d565b80638fcc9cfb14611c135780639381ab2514611c4e57806397b9eba614611c7d57806398f4270214611d0b5780639a7b3be714611d5a5780639b2b592f14611d855761050d565b806381d4728d1161025b57806381d4728d14611a0c57806387ee8a0f14611a5b5780638a88362614611a865780638da5cb5b14611b625780638e905ed614611bb95780638f32d59b14611be45761050d565b80637385e5da146118d157806377d26a2a146118fc5780637910867b146119275780637b1039991461197a5780638018556e146119d15761050d565b80633db9dd9a116103df5780635d35a3d91161034657806366547163116102ff578063665471631461165557806367960e91146116ba5780636de8a63b146117965780636f2ab69314611802578063715018a614611855578063718f12751461186c5761050d565b80635d35a3d91461127c5780635f115a85146112d95780635f8dd6491461136b57806360b4d34d146113d457806365bbdaa0146114395780636643ac581461161a5761050d565b806354255be01161039857806354255be01461105b5780635601eaea1461109b57806357333978146110f8578063582ae53b1461115f5780635c759394146111bc5780635d180adb146111f75761050d565b80633db9dd9a14610df05780633fa5fed014610e2b57806341b3d18514610e9e57806345a7849914610ec95780634b2c2f4414610f2e5780634d238c8e1461100a5761050d565b806323f0ab651161048357806330a095d01161043c57806330a095d014610c8c5780633156560e14610cb7578063344944cf14610d085780633b1eb4bf14610d5b5780633bb0ed2b14610daa5780633ccfd60b14610dc15761050d565b806323f0ab651461092c5780632762132114610ac3578063283aaefb14610b165780632c05235514610b7b5780632edfd12e14610bb65780632fee852814610c315761050d565b8063123633ea116104d5578063123633ea146107405780631374b22d146107bb578063141a8dd81461080e578063152b483414610865578063158ef93e146108c25780631c65bc61146108f15761050d565b806301fce27e1461058857806304acaec91461063c5780630e0b78ae146106775780630f717e42146106dc5780631201a0fb14610715575b60008036905014610586576040517f08c379a000000000000000000000000000000000000000000000000000000000815260040180806020018281038252600e8152602001807f756e6b6e6f776e206d6574686f6400000000000000000000000000000000000081525060200191505060405180910390fd5b005b34801561059457600080fd5b5061059d6129f8565b604051808060200180602001838103835285818151815260200191508051906020019060200280838360005b838110156105e45780820151818401526020810190506105c9565b50505050905001838103825284818151815260200191508051906020019060200280838360005b8381101561062657808201518184015260208101905061060b565b5050505090500194505050505060405180910390f35b34801561064857600080fd5b506106756004803603602081101561065f57600080fd5b8101908080359060200190929190505050612bbd565b005b34801561068357600080fd5b506106b06004803603602081101561069a57600080fd5b8101908080359060200190929190505050612d95565b604051808415151515815260200183151515158152602001828152602001935050505060405180910390f35b3480156106e857600080fd5b506106f1612e06565b60405180848152602001838152602001828152602001935050505060405180910390f35b34801561072157600080fd5b5061072a612e1e565b6040518082815260200191505060405180910390f35b34801561074c57600080fd5b506107796004803603602081101561076357600080fd5b8101908080359060200190929190505050612e24565b604051808273ffffffffffffffffffffffffffffffffffffffff1673ffffffffffffffffffffffffffffffffffffffff16815260200191505060405180910390f35b3480156107c757600080fd5b506107f4600480360360208110156107de57600080fd5b8101908080359060200190929190505050612e65565b604051808215151515815260200191505060405180910390f35b34801561081a57600080fd5b50610823612e89565b604051808273ffffffffffffffffffffffffffffffffffffffff1673ffffffffffffffffffffffffffffffffffffffff16815260200191505060405180910390f35b34801561087157600080fd5b506108a86004803603604081101561088857600080fd5b810190808035906020019092919080359060200190929190505050612eaf565b604051808215151515815260200191505060405180910390f35b3480156108ce57600080fd5b506108d7612ed6565b604051808215151515815260200191505060405180910390f35b3480156108fd57600080fd5b5061092a6004803603602081101561091457600080fd5b8101908080359060200190929190505050612ee9565b005b34801561093857600080fd5b50610aa96004803603606081101561094f57600080fd5b81019080803573ffffffffffffffffffffffffffffffffffffffff1690602001909291908035906020019064010000000081111561098c57600080fd5b82018360208201111561099e57600080fd5b803590602001918460018302840111640100000000831117156109c057600080fd5b91908080601f016020809104026020016040519081016040528093929190818152602001838380828437600081840152601f19601f82011690508083019250505050505050919291929080359060200190640100000000811115610a2357600080fd5b820183602082011115610a3557600080fd5b80359060200191846001830284011164010000000083111715610a5757600080fd5b91908080601f016020809104026020016040519081016040528093929190818152602001838380828437600081840152601f19601f8201169050808301925050505050505091929192905050506130a4565b604051808215151515815260200191505060405180910390f35b348015610acf57600080fd5b50610afc60048036036020811015610ae657600080fd5b810190808035906020019092919050505061325d565b604051808215151515815260200191505060405180910390f35b348015610b2257600080fd5b50610b6560048036036020811015610b3957600080fd5b81019080803573ffffffffffffffffffffffffffffffffffffffff169060200190929190505050613281565b6040518082815260200191505060405180910390f35b348015610b8757600080fd5b50610bb460048036036020811015610b9e57600080fd5b81019080803590602001909291905050506132cd565b005b348015610bc257600080fd5b50610c17600480360360a0811015610bd957600080fd5b81019080803590602001909291908035906020019092919080359060200190929190803590602001909291908035906020019092919050505061345a565b604051808215151515815260200191505060405180910390f35b348015610c3d57600080fd5b50610c8a60048036036040811015610c5457600080fd5b81019080803573ffffffffffffffffffffffffffffffffffffffff169060200190929190803590602001909291905050506137cc565b005b348015610c9857600080fd5b50610ca16137da565b6040518082815260200191505060405180910390f35b348015610cc357600080fd5b50610d0660048036036020811015610cda57600080fd5b81019080803573ffffffffffffffffffffffffffffffffffffffff1690602001909291905050506137e7565b005b348015610d1457600080fd5b50610d4160048036036020811015610d2b57600080fd5b8101908080359060200190929190505050613a4f565b604051808215151515815260200191505060405180910390f35b348015610d6757600080fd5b50610d9460048036036020811015610d7e57600080fd5b8101908080359060200190929190505050613a6b565b6040518082815260200191505060405180910390f35b348015610db657600080fd5b50610dbf613a85565b005b348015610dcd57600080fd5b50610dd6613e84565b604051808215151515815260200191505060405180910390f35b348015610dfc57600080fd5b50610e2960048036036020811015610e1357600080fd5b81019080803590602001909291905050506140bc565b005b348015610e3757600080fd5b50610e8460048036036040811015610e4e57600080fd5b8101908080359060200190929190803573ffffffffffffffffffffffffffffffffffffffff169060200190929190505050614294565b604051808215151515815260200191505060405180910390f35b348015610eaa57600080fd5b50610eb36142ff565b6040518082815260200191505060405180910390f35b348015610ed557600080fd5b50610f0260048036036020811015610eec57600080fd5b8101908080359060200190929190505050614305565b604051808415151515815260200183151515158152602001828152602001935050505060405180910390f35b348015610f3a57600080fd5b50610ff460048036036020811015610f5157600080fd5b8101908080359060200190640100000000811115610f6e57600080fd5b820183602082011115610f8057600080fd5b80359060200191846001830284011164010000000083111715610fa257600080fd5b91908080601f016020809104026020016040519081016040528093929190818152602001838380828437600081840152601f19601f820116905080830192505050505050509192919290505050614349565b6040518082815260200191505060405180910390f35b34801561101657600080fd5b506110596004803603602081101561102d57600080fd5b81019080803573ffffffffffffffffffffffffffffffffffffffff1690602001909291905050506144dd565b005b34801561106757600080fd5b50611070614546565b6040518085815260200184815260200183815260200182815260200194505050505060405180910390f35b3480156110a757600080fd5b506110de600480360360408110156110be57600080fd5b81019080803590602001909291908035906020019092919050505061456d565b604051808215151515815260200191505060405180910390f35b34801561110457600080fd5b506111456004803603606081101561111b57600080fd5b810190808035906020019092919080359060200190929190803590602001909291905050506147d3565b604051808215151515815260200191505060405180910390f35b34801561116b57600080fd5b506111986004803603602081101561118257600080fd5b8101908080359060200190929190505050614e68565b604051808260058111156111a857fe5b60ff16815260200191505060405180910390f35b3480156111c857600080fd5b506111f5600480360360208110156111df57600080fd5b8101908080359060200190929190505050614ef9565b005b34801561120357600080fd5b5061123a6004803603604081101561121a57600080fd5b8101908080359060200190929190803590602001909291905050506150d1565b604051808273ffffffffffffffffffffffffffffffffffffffff1673ffffffffffffffffffffffffffffffffffffffff16815260200191505060405180910390f35b34801561128857600080fd5b506112bf6004803603604081101561129f57600080fd5b810190808035906020019092919080359060200190929190505050615223565b604051808215151515815260200191505060405180910390f35b3480156112e557600080fd5b50611332600480360360408110156112fc57600080fd5b81019080803573ffffffffffffffffffffffffffffffffffffffff16906020019092919080359060200190929190505050615529565b60405180878152602001868152602001858152602001848152602001838152602001828152602001965050505050505060405180910390f35b34801561137757600080fd5b506113ba6004803603602081101561138e57600080fd5b81019080803573ffffffffffffffffffffffffffffffffffffffff1690602001909291905050506155d6565b604051808215151515815260200191505060405180910390f35b3480156113e057600080fd5b50611423600480360360208110156113f757600080fd5b81019080803573ffffffffffffffffffffffffffffffffffffffff1690602001909291905050506156a7565b6040518082815260200191505060405180910390f35b611604600480360360a081101561144f57600080fd5b810190808035906020019064010000000081111561146c57600080fd5b82018360208201111561147e57600080fd5b803590602001918460208302840111640100000000831117156114a057600080fd5b9091929391929390803590602001906401000000008111156114c157600080fd5b8201836020820111156114d357600080fd5b803590602001918460208302840111640100000000831117156114f557600080fd5b90919293919293908035906020019064010000000081111561151657600080fd5b82018360208201111561152857600080fd5b8035906020019184600183028401116401000000008311171561154a57600080fd5b90919293919293908035906020019064010000000081111561156b57600080fd5b82018360208201111561157d57600080fd5b8035906020019184602083028401116401000000008311171561159f57600080fd5b9091929391929390803590602001906401000000008111156115c057600080fd5b8201836020820111156115d257600080fd5b803590602001918460018302840111640100000000831117156115f457600080fd5b90919293919293905050506156bf565b6040518082815260200191505060405180910390f35b34801561162657600080fd5b506116536004803603602081101561163d57600080fd5b8101908080359060200190929190505050615a3b565b005b34801561166157600080fd5b506116a46004803603602081101561167857600080fd5b81019080803573ffffffffffffffffffffffffffffffffffffffff169060200190929190505050615beb565b6040518082815260200191505060405180910390f35b3480156116c657600080fd5b50611780600480360360208110156116dd57600080fd5b81019080803590602001906401000000008111156116fa57600080fd5b82018360208201111561170c57600080fd5b8035906020019184600183028401116401000000008311171561172e57600080fd5b91908080601f016020809104026020016040519081016040528093929190818152602001838380828437600081840152601f19601f820116905080830192505050505050509192919290505050615e4e565b6040518082815260200191505060405180910390f35b3480156117a257600080fd5b506117ab615fe2565b6040518080602001828103825283818151815260200191508051906020019060200280838360005b838110156117ee5780820151818401526020810190506117d3565b505050509050019250505060405180910390f35b34801561180e57600080fd5b5061183b6004803603602081101561182557600080fd5b810190808035906020019092919050505061603a565b604051808215151515815260200191505060405180910390f35b34801561186157600080fd5b5061186a61606c565b005b34801561187857600080fd5b506118cf6004803603606081101561188f57600080fd5b81019080803573ffffffffffffffffffffffffffffffffffffffff16906020019092919080359060200190929190803590602001909291905050506161a5565b005b3480156118dd57600080fd5b506118e6616211565b6040518082815260200191505060405180910390f35b34801561190857600080fd5b50611911616221565b6040518082815260200191505060405180910390f35b34801561193357600080fd5b506119606004803603602081101561194a57600080fd5b8101908080359060200190929190505050616227565b604051808215151515815260200191505060405180910390f35b34801561198657600080fd5b5061198f61624b565b604051808273ffffffffffffffffffffffffffffffffffffffff1673ffffffffffffffffffffffffffffffffffffffff16815260200191505060405180910390f35b3480156119dd57600080fd5b50611a0a600480360360208110156119f457600080fd5b8101908080359060200190929190505050616271565b005b348015611a1857600080fd5b50611a4560048036036020811015611a2f57600080fd5b81019080803590602001909291905050506163fe565b6040518082815260200191505060405180910390f35b348015611a6757600080fd5b50611a70616554565b6040518082815260200191505060405180910390f35b348015611a9257600080fd5b50611b4c60048036036020811015611aa957600080fd5b8101908080359060200190640100000000811115611ac657600080fd5b820183602082011115611ad857600080fd5b80359060200191846001830284011164010000000083111715611afa57600080fd5b91908080601f016020809104026020016040519081016040528093929190818152602001838380828437600081840152601f19601f820116905080830192505050505050509192919290505050616561565b6040518082815260200191505060405180910390f35b348015611b6e57600080fd5b50611b776166f5565b604051808273ffffffffffffffffffffffffffffffffffffffff1673ffffffffffffffffffffffffffffffffffffffff16815260200191505060405180910390f35b348015611bc557600080fd5b50611bce61671e565b6040518082815260200191505060405180910390f35b348015611bf057600080fd5b50611bf9616724565b604051808215151515815260200191505060405180910390f35b348015611c1f57600080fd5b50611c4c60048036036020811015611c3657600080fd5b8101908080359060200190929190505050616782565b005b348015611c5a57600080fd5b50611c6361692c565b604051808215151515815260200191505060405180910390f35b348015611c8957600080fd5b50611cf560048036036040811015611ca057600080fd5b81019080803573ffffffffffffffffffffffffffffffffffffffff16906020019092919080357bffffffffffffffffffffffffffffffffffffffffffffffffffffffff19169060200190929190505050617017565b6040518082815260200191505060405180910390f35b348015611d1757600080fd5b50611d4460048036036020811015611d2e57600080fd5b8101908080359060200190929190505050617033565b6040518082815260200191505060405180910390f35b348015611d6657600080fd5b50611d6f61714c565b6040518082815260200191505060405180910390f35b348015611d9157600080fd5b50611dbe60048036036020811015611da857600080fd5b810190808035906020019092919050505061715c565b6040518082815260200191505060405180910390f35b348015611de057600080fd5b50611e0d60048036036020811015611df757600080fd5b810190808035906020019092919050505061716b565b005b348015611e1b57600080fd5b50611e5e60048036036020811015611e3257600080fd5b81019080803573ffffffffffffffffffffffffffffffffffffffff169060200190929190505050617329565b005b348015611e6c57600080fd5b50611e9960048036036020811015611e8357600080fd5b81019080803590602001909291905050506174cd565b6040518082815260200191505060405180910390f35b348015611ebb57600080fd5b50611ec46174ee565b6040518082815260200191505060405180910390f35b348015611ee657600080fd5b50611f1360048036036020811015611efd57600080fd5b81019080803590602001909291905050506174fb565b6040518082815260200191505060405180910390f35b348015611f3557600080fd5b50611f6c60048036036040811015611f4c57600080fd5b81019080803590602001909291908035906020019092919050505061751c565b604051808215151515815260200191505060405180910390f35b348015611f9257600080fd5b5061205a6004803603610180811015611faa57600080fd5b81019080803573ffffffffffffffffffffffffffffffffffffffff169060200190929190803573ffffffffffffffffffffffffffffffffffffffff169060200190929190803590602001909291908035906020019092919080359060200190929190803590602001909291908035906020019092919080359060200190929190803590602001909291908035906020019092919080359060200190929190803590602001909291905050506179af565b005b34801561206857600080fd5b506120956004803603602081101561207f57600080fd5b8101908080359060200190929190505050617ad7565b005b3480156120a357600080fd5b506120d0600480360360208110156120ba57600080fd5b8101908080359060200190929190505050617c92565b005b3480156120de57600080fd5b506120e7617dfe565b6040518082815260200191505060405180910390f35b34801561210957600080fd5b5061214d6004803603606081101561212057600080fd5b810190808035906020019092919080359060200190929190803560ff169060200190929190505050617e0e565b604051808215151515815260200191505060405180910390f35b34801561217357600080fd5b5061217c618276565b6040518082815260200191505060405180910390f35b34801561219e57600080fd5b506121cb600480360360208110156121b557600080fd5b810190808035906020019092919050505061827c565b604051808215151515815260200191505060405180910390f35b3480156121f157600080fd5b5061221e6004803603602081101561220857600080fd5b81019080803590602001909291905050506182a0565b604051808215151515815260200191505060405180910390f35b34801561224457600080fd5b506122716004803603602081101561225b57600080fd5b810190808035906020019092919050505061833e565b604051808873ffffffffffffffffffffffffffffffffffffffff1673ffffffffffffffffffffffffffffffffffffffff1681526020018781526020018681526020018581526020018060200184815260200183151515158152602001828103825285818151815260200191508051906020019080838360005b838110156123055780820151818401526020810190506122ea565b50505050905090810190601f1680156123325780820380516001836020036101000a031916815260200191505b509850505050505050505060405180910390f35b34801561235257600080fd5b5061235b618419565b6040518085815260200184815260200183815260200182815260200194505050505060405180910390f35b34801561239257600080fd5b506123bf600480360360208110156123a957600080fd5b81019080803590602001909291905050506184b5565b005b3480156123cd57600080fd5b50612410600480360360208110156123e457600080fd5b81019080803573ffffffffffffffffffffffffffffffffffffffff169060200190929190505050618642565b604051808381526020018281526020019250505060405180910390f35b34801561243957600080fd5b506124666004803603602081101561245057600080fd5b81019080803590602001909291905050506186c4565b005b34801561247457600080fd5b506125f5600480360360a081101561248b57600080fd5b81019080803590602001906401000000008111156124a857600080fd5b8201836020820111156124ba57600080fd5b803590602001918460208302840111640100000000831117156124dc57600080fd5b9091929391929390803590602001906401000000008111156124fd57600080fd5b82018360208201111561250f57600080fd5b8035906020019184602083028401116401000000008311171561253157600080fd5b90919293919293908035906020019064010000000081111561255257600080fd5b82018360208201111561256457600080fd5b8035906020019184600183028401116401000000008311171561258657600080fd5b9091929391929390803590602001906401000000008111156125a757600080fd5b8201836020820111156125b957600080fd5b803590602001918460208302840111640100000000831117156125db57600080fd5b909192939192939080359060200190929190505050618874565b005b34801561260357600080fd5b5061263a6004803603604081101561261a57600080fd5b810190808035906020019092919080359060200190929190505050618c5b565b604051808481526020018373ffffffffffffffffffffffffffffffffffffffff1673ffffffffffffffffffffffffffffffffffffffff16815260200180602001828103825283818151815260200191508051906020019080838360005b838110156126b2578082015181840152602081019050612697565b50505050905090810190601f1680156126df5780820380516001836020036101000a031916815260200191505b5094505050505060405180910390f35b3480156126fb57600080fd5b50612704618de5565b6040518082815260200191505060405180910390f35b34801561272657600080fd5b5061272f618deb565b6040518082815260200191505060405180910390f35b34801561275157600080fd5b5061277e6004803603602081101561276857600080fd5b8101908080359060200190929190505050618f27565b60405180848152602001838152602001828152602001935050505060405180910390f35b3480156127ae57600080fd5b506127db600480360360208110156127c557600080fd5b8101908080359060200190929190505050618f54565b6040518082815260200191505060405180910390f35b3480156127fd57600080fd5b5061285c600480360360c081101561281457600080fd5b81019080803590602001909291908035906020019092919080359060200190929190803590602001909291908035906020019092919080359060200190929190505050618f9f565b604051808381526020018281526020019250505060405180910390f35b34801561288557600080fd5b506128fb6004803603606081101561289c57600080fd5b81019080803573ffffffffffffffffffffffffffffffffffffffff16906020019092919080357bffffffffffffffffffffffffffffffffffffffffffffffffffffffff19169060200190929190803590602001909291905050506191b3565b005b34801561290957600080fd5b5061294c6004803603602081101561292057600080fd5b81019080803573ffffffffffffffffffffffffffffffffffffffff1690602001909291905050506194f0565b005b34801561295a57600080fd5b506129a76004803603604081101561297157600080fd5b81019080803573ffffffffffffffffffffffffffffffffffffffff16906020019092919080359060200190929190505050619576565b005b3480156129b557600080fd5b506129e2600480360360208110156129cc57600080fd5b810190808035906020019092919050505061962c565b6040518082815260200191505060405180910390f35b606080601273__IntegerSortedLinkedList_______________6369b317e390916040518263ffffffff1660e01b81526004018082815260200191505060006040518083038186803b158015612a4d57600080fd5b505af4158015612a61573d6000803e3d6000fd5b505050506040513d6000823e3d601f19601f820116820180604052506040811015612a8b57600080fd5b8101908080516040519392919084640100000000821115612aab57600080fd5b83820191506020820185811115612ac157600080fd5b8251866020820283011164010000000082111715612ade57600080fd5b8083526020830192505050908051906020019060200280838360005b83811015612b15578082015181840152602081019050612afa565b5050505090500160405260200180516040519392919084640100000000821115612b3e57600080fd5b83820191506020820185811115612b5457600080fd5b8251866020820283011164010000000082111715612b7157600080fd5b8083526020830192505050908051906020019060200280838360005b83811015612ba8578082015181840152602081019050612b8d565b50505050905001604052505050915091509091565b612bc5616724565b612c37576040517f08c379a00000000000000000000000000000000000000000000000000000000081526004018080602001828103825260208152602001807f4f776e61626c653a2063616c6c6572206973206e6f7420746865206f776e657281525060200191505060405180910390fd5b612c3f61c57f565b612c4882619775565b9050612c5381619793565b612ca8576040517f08c379a000000000000000000000000000000000000000000000000000000000815260040180806020018281038252602781526020018061c9346027913960400191505060405180910390fd5b612cd46019600301604051806020016040529081600082015481525050826197ad90919063ffffffff16565b15612d47576040517f08c379a00000000000000000000000000000000000000000000000000000000081526004018080602001828103825260208152602001807f426173656c696e652071756f72756d20666163746f7220756e6368616e67656481525060200191505060405180910390fd5b806019600301600082015181600001559050507fddfdbe55eaaa70fe2b8bc82a9b0734c25cabe7cb6f1457f9644019f0b5ff91fc826040518082815260200191505060405180910390a15050565b60008060006011600085815260200190815260200160002060000160019054906101000a900460ff166011600086815260200190815260200160002060000160009054906101000a900460ff1660116000878152602001908152602001600020600101549250925092509193909250565b60038060000154908060010154908060020154905083565b600a5481565b6000601d8281548110612e3357fe5b9060005260206000200160009054906101000a900473ffffffffffffffffffffffffffffffffffffffff169050919050565b6000612e82600f60008481526020019081526020016000206197c2565b9050919050565b600860009054906101000a900473ffffffffffffffffffffffffffffffffffffffff1681565b6000612ece600f600085815260200190815260200160002084846197d2565b905092915050565b600060149054906101000a900460ff1681565b612ef1616724565b612f63576040517f08c379a00000000000000000000000000000000000000000000000000000000081526004018080602001828103825260208152602001807f4f776e61626c653a2063616c6c6572206973206e6f7420746865206f776e657281525060200191505060405180910390fd5b612f6b61c57f565b612f7482619775565b9050612f7f81619793565b612fd4576040517f08c379a000000000000000000000000000000000000000000000000000000000815260040180806020018281038252602481526020018061cc296024913960400191505060405180910390fd5b6130006019600101604051806020016040529081600082015481525050826197ad90919063ffffffff16565b15613056576040517f08c379a000000000000000000000000000000000000000000000000000000000815260040180806020018281038252602681526020018061c9a36026913960400191505060405180910390fd5b806019600101600082015181600001559050507f122a37b609e0f758b6a23c43506cb567017a4d18b21fa91312fb42b44975a5b5826040518082815260200191505060405180910390a15050565b60008060fb73ffffffffffffffffffffffffffffffffffffffff16858585604051602001808473ffffffffffffffffffffffffffffffffffffffff1673ffffffffffffffffffffffffffffffffffffffff1660601b815260140183805190602001908083835b6020831061312d578051825260208201915060208101905060208303925061310a565b6001836020036101000a03801982511681845116808217855250505050505090500182805190602001908083835b6020831061317e578051825260208201915060208101905060208303925061315b565b6001836020036101000a03801982511681845116808217855250505050505090500193505050506040516020818303038152906040526040518082805190602001908083835b602083106131e757805182526020820191506020810190506020830392506131c4565b6001836020036101000a038019825116818451168082178552505050505050905001915050600060405180830381855afa9150503d8060008114613247576040519150601f19603f3d011682016040523d82523d6000602084013e61324c565b606091505b505080915050809150509392505050565b600061327a600f6000848152602001908152602001600020619865565b9050919050565b6000601060008373ffffffffffffffffffffffffffffffffffffffff1673ffffffffffffffffffffffffffffffffffffffff168152602001908152602001600020600201549050919050565b6132d5616724565b613347576040517f08c379a00000000000000000000000000000000000000000000000000000000081526004018080602001828103825260208152602001807f4f776e61626c653a2063616c6c6572206973206e6f7420746865206f776e657281525060200191505060405180910390fd5b60008114156133a1576040517f08c379a000000000000000000000000000000000000000000000000000000000815260040180806020018281038252602181526020018061c8716021913960400191505060405180910390fd5b600654811415613419576040517f08c379a00000000000000000000000000000000000000000000000000000000081526004018080602001828103825260158152602001807f517565756545787069727920756e6368616e676564000000000000000000000081525060200191505060405180910390fd5b806006819055507f4ecbf0bb0701615e2d6f9b0a0996056c959fe359ce76aa7ce06c5f1d57dae4d7816040518082815260200191505060405180910390a150565b6000600180600082825401925050819055506000600154905061347b613a85565b6000806134888989619a85565b91509150613495826197c2565b6134a45760009350505061374b565b600360058111156134b157fe5b8160058111156134bd57fe5b14613530576040517f08c379a00000000000000000000000000000000000000000000000000000000081526004018080602001828103825260188152602001807f496e636f72726563742070726f706f73616c207374617465000000000000000081525060200191505060405180910390fd5b600061353a619b61565b73ffffffffffffffffffffffffffffffffffffffff16636642d594336040518263ffffffff1660e01b8152600401808273ffffffffffffffffffffffffffffffffffffffff1673ffffffffffffffffffffffffffffffffffffffff16815260200191505060206040518083038186803b1580156135b657600080fd5b505afa1580156135ca573d6000803e3d6000fd5b505050506040513d60208110156135e057600080fd5b8101908080519060200190929190505050905060006135fd619c5c565b73ffffffffffffffffffffffffffffffffffffffff166361d5c570836040518263ffffffff1660e01b8152600401808273ffffffffffffffffffffffffffffffffffffffff1673ffffffffffffffffffffffffffffffffffffffff16815260200191505060206040518083038186803b15801561367957600080fd5b505afa15801561368d573d6000803e3d6000fd5b505050506040513d60208110156136a357600080fd5b810190808051906020019092919050505090506136db876136cd8a8c619d5790919063ffffffff16565b619d5790919063ffffffff16565b811015613733576040517f08c379a000000000000000000000000000000000000000000000000000000000815260040180806020018281038252604381526020018061ccd56043913960600191505060405180910390fd5b613742848c8c858d8d8d619ddf565b60019550505050505b60015481146137c2576040517f08c379a000000000000000000000000000000000000000000000000000000000815260040180806020018281038252600e8152602001807f7265656e7472616e742063616c6c00000000000000000000000000000000000081525060200191505060405180910390fd5b5095945050505050565b6137d6828261a2be565b5050565b6000600360020154905090565b6137ef616724565b613861576040517f08c379a00000000000000000000000000000000000000000000000000000000081526004018080602001828103825260208152602001807f4f776e61626c653a2063616c6c6572206973206e6f7420746865206f776e657281525060200191505060405180910390fd5b600073ffffffffffffffffffffffffffffffffffffffff168173ffffffffffffffffffffffffffffffffffffffff161415613904576040517f08c379a00000000000000000000000000000000000000000000000000000000081526004018080602001828103825260148152602001807f417070726f7665722063616e6e6f74206265203000000000000000000000000081525060200191505060405180910390fd5b600860009054906101000a900473ffffffffffffffffffffffffffffffffffffffff1673ffffffffffffffffffffffffffffffffffffffff168173ffffffffffffffffffffffffffffffffffffffff1614156139c8576040517f08c379a00000000000000000000000000000000000000000000000000000000081526004018080602001828103825260128152602001807f417070726f76657220756e6368616e676564000000000000000000000000000081525060200191505060405180910390fd5b80600860006101000a81548173ffffffffffffffffffffffffffffffffffffffff021916908373ffffffffffffffffffffffffffffffffffffffff1602179055508073ffffffffffffffffffffffffffffffffffffffff167fa03757d836cb0b61c0fbba2147f5d51d6071ff3dd5bf6963beb55563d64878e160405160405180910390a250565b6000613a59616211565b613a62836163fe565b10159050919050565b6000613a7e82613a79618deb565b61a646565b9050919050565b613a9c600754600954619d5790919063ffffffff16565b4210613e82576000613ab8600a5460126000016002015461a68e565b90506060601273__IntegerSortedLinkedList_______________6377b024799091846040518363ffffffff1660e01b8152600401808381526020018281526020019250505060006040518083038186803b158015613b1657600080fd5b505af4158015613b2a573d6000803e3d6000fd5b505050506040513d6000823e3d601f19601f820116820180604052506020811015613b5457600080fd5b8101908080516040519392919084640100000000821115613b7457600080fd5b83820191506020820185811115613b8a57600080fd5b8251866020820283011164010000000082111715613ba757600080fd5b8083526020830192505050908051906020019060200280838360005b83811015613bde578082015181840152602081019050613bc3565b505050509050016040525050509050600080905060008090505b83811015613e6f576000838281518110613c0e57fe5b602002602001015190506000600f60008381526020019081526020016000209050613c388161a6a7565b15613c7157817f88e53c486703527139dfc8d97a1e559d9bd93d3f9d52cda4e06564111e7a264360405160405180910390a25050613e54565b613ceb8160010154600d60008460000160009054906101000a900473ffffffffffffffffffffffffffffffffffffffff1673ffffffffffffffffffffffffffffffffffffffff1673ffffffffffffffffffffffffffffffffffffffff16815260200190815260200160002054619d5790919063ffffffff16565b600d60008360000160009054906101000a900473ffffffffffffffffffffffffffffffffffffffff1673ffffffffffffffffffffffffffffffffffffffff1673ffffffffffffffffffffffffffffffffffffffff16815260200190815260200160002081905550428160020181905550600060188054905014613de8576000613d83600160188054905061a6cc90919063ffffffff16565b905082601760188381548110613d9557fe5b906000526020600020015481548110613daa57fe5b906000526020600020018190555060188181548110613dc557fe5b906000526020600020016000905580601881613de1919061c592565b5050613e15565b60178290806001815401808255809150509060018203906000526020600020016000909192909190915055505b817f3e069fb74dcf5fbc07740b0d40d7f7fc48e9c0ca5dc3d19eb34d2e05d74c5543426040518082815260200191505060405180910390a26001935050505b613e68600182619d5790919063ffffffff16565b9050613bf8565b508015613e7e57426009819055505b5050505b565b600060018060008282540192505081905550600060015490506000600d60003373ffffffffffffffffffffffffffffffffffffffff1673ffffffffffffffffffffffffffffffffffffffff1681526020019081526020016000205490506000811415613f58576040517f08c379a00000000000000000000000000000000000000000000000000000000081526004018080602001828103825260138152602001807f4e6f7468696e6720746f2077697468647261770000000000000000000000000081525060200191505060405180910390fd5b47811115613fce576040517f08c379a00000000000000000000000000000000000000000000000000000000081526004018080602001828103825260148152602001807f496e636f6e73697374656e742062616c616e636500000000000000000000000081525060200191505060405180910390fd5b6000600d60003373ffffffffffffffffffffffffffffffffffffffff1673ffffffffffffffffffffffffffffffffffffffff1681526020019081526020016000208190555061403c813373ffffffffffffffffffffffffffffffffffffffff1661a71690919063ffffffff16565b600192505060015481146140b8576040517f08c379a000000000000000000000000000000000000000000000000000000000815260040180806020018281038252600e8152602001807f7265656e7472616e742063616c6c00000000000000000000000000000000000081525060200191505060405180910390fd5b5090565b6140c4616724565b614136576040517f08c379a00000000000000000000000000000000000000000000000000000000081526004018080602001828103825260208152602001807f4f776e61626c653a2063616c6c6572206973206e6f7420746865206f776e657281525060200191505060405180910390fd5b61413e61c57f565b61414782619775565b905061415281619793565b6141a7576040517f08c379a000000000000000000000000000000000000000000000000000000000815260040180806020018281038252602781526020018061c8926027913960400191505060405180910390fd5b6141d36019600001604051806020016040529081600082015481525050826197ad90919063ffffffff16565b15614246576040517f08c379a00000000000000000000000000000000000000000000000000000000081526004018080602001828103825260208152602001807f50617274696369706174696f6e20626173656c696e6520756e6368616e67656481525060200191505060405180910390fd5b806019600001600082015181600001559050507f51131d2820f04a6b6edd20e22a07d5bf847e265a3906e85256fca7d6043417c5826040518082815260200191505060405180910390a15050565b60006011600084815260200190815260200160002060020160008373ffffffffffffffffffffffffffffffffffffffff1673ffffffffffffffffffffffffffffffffffffffff16815260200190815260200160002060009054906101000a900460ff16905092915050565b600c5481565b60116020528060005260406000206000915090508060000160009054906101000a900460ff16908060000160019054906101000a900460ff16908060010154905083565b60006060600060f473ffffffffffffffffffffffffffffffffffffffff16846040516020018082805190602001908083835b6020831061439e578051825260208201915060208101905060208303925061437b565b6001836020036101000a0380198251168184511680821785525050505050509050019150506040516020818303038152906040526040518082805190602001908083835b6020831061440557805182526020820191506020810190506020830392506143e2565b6001836020036101000a038019825116818451168082178552505050505050905001915050600060405180830381855afa9150503d8060008114614465576040519150601f19603f3d011682016040523d82523d6000602084013e61446a565b606091505b508093508192505050806144c9576040517f08c379a000000000000000000000000000000000000000000000000000000000815260040180806020018281038252603881526020018061ca2a6038913960400191505060405180910390fd5b6144d482600061a850565b92505050919050565b601d8190806001815401808255809150509060018203906000526020600020016000909192909190916101000a81548173ffffffffffffffffffffffffffffffffffffffff021916908373ffffffffffffffffffffffffffffffffffffffff1602179055505050565b60008060008060016004600080839350829250819150809050935093509350935090919293565b6000600180600082825401925050819055506000600154905061458e613a85565b60008061459b8686619a85565b9150915060006145aa836197c2565b9050801561474f576145bb8361a8f1565b61462d576040517f08c379a00000000000000000000000000000000000000000000000000000000081526004018080602001828103825260158152602001807f50726f706f73616c206e6f7420617070726f766564000000000000000000000081525060200191505060405180910390fd5b6004600581111561463a57fe5b82600581111561464657fe5b148015614658575061465783619865565b5b6146ad576040517f08c379a000000000000000000000000000000000000000000000000000000000815260040180806020018281038252602e81526020018061caf7602e913960400191505060405180910390fd5b8273__Proposals_____________________________63c67e7b4b90916040518263ffffffff1660e01b81526004018082815260200191505060006040518083038186803b1580156146fe57600080fd5b505af4158015614712573d6000803e3d6000fd5b50505050867f712ae1383f79ac853f8d882153778e0260ef8f03b504e2866e0593e04d2b291f60405160405180910390a261474e83888861a90c565b5b80945050505060015481146147cc576040517f08c379a000000000000000000000000000000000000000000000000000000000815260040180806020018281038252600e8152602001807f7265656e7472616e742063616c6c00000000000000000000000000000000000081525060200191505060405180910390fd5b5092915050565b600060018060008282540192505081905550600060015490506147f4613a85565b6147fd8561aa2b565b1561480b5760009150614de9565b6000614815619b61565b73ffffffffffffffffffffffffffffffffffffffff16636642d594336040518263ffffffff1660e01b8152600401808273ffffffffffffffffffffffffffffffffffffffff1673ffffffffffffffffffffffffffffffffffffffff16815260200191505060206040518083038186803b15801561489157600080fd5b505afa1580156148a5573d6000803e3d6000fd5b505050506040513d60208110156148bb57600080fd5b810190808051906020019092919050505090506000601060008373ffffffffffffffffffffffffffffffffffffffff1673ffffffffffffffffffffffffffffffffffffffff1681526020019081526020016000209050614921816000016000015461aa2b565b50600061492c619c5c565b73ffffffffffffffffffffffffffffffffffffffff166330ec70f5846040518263ffffffff1660e01b8152600401808273ffffffffffffffffffffffffffffffffffffffff1673ffffffffffffffffffffffffffffffffffffffff16815260200191505060206040518083038186803b1580156149a857600080fd5b505afa1580156149bc573d6000803e3d6000fd5b505050506040513d60208110156149d257600080fd5b8101908080519060200190929190505050905060008111614a3e576040517f08c379a000000000000000000000000000000000000000000000000000000000815260040180806020018281038252602281526020018061cb956022913960400191505060405180910390fd5b601273__IntegerSortedLinkedList_______________63bfc5163890918a6040518363ffffffff1660e01b8152600401808381526020018281526020019250505060206040518083038186803b158015614a9857600080fd5b505af4158015614aac573d6000803e3d6000fd5b505050506040513d6020811015614ac257600080fd5b8101908080519060200190929190505050614b28576040517f08c379a000000000000000000000000000000000000000000000000000000000815260040180806020018281038252602981526020018061ca986029913960400191505060405180910390fd5b600082600001600001541480614bd75750601273__IntegerSortedLinkedList_______________63bfc51638909184600001600001546040518363ffffffff1660e01b8152600401808381526020018281526020019250505060206040518083038186803b158015614b9a57600080fd5b505af4158015614bae573d6000803e3d6000fd5b505050506040513d6020811015614bc457600080fd5b8101908080519060200190929190505050155b614c2c576040517f08c379a000000000000000000000000000000000000000000000000000000000815260040180806020018281038252602b81526020018061ccaa602b913960400191505060405180910390fd5b6000614cd582601273__IntegerSortedLinkedList_______________637577759990918d6040518363ffffffff1660e01b8152600401808381526020018281526020019250505060206040518083038186803b158015614c8c57600080fd5b505af4158015614ca0573d6000803e3d6000fd5b505050506040513d6020811015614cb657600080fd5b8101908080519060200190929190505050619d5790919063ffffffff16565b9050601273__IntegerSortedLinkedList_______________63239491ba90918b848c8c6040518663ffffffff1660e01b8152600401808681526020018581526020018481526020018381526020018281526020019550505050505060006040518083038186803b158015614d4957600080fd5b505af4158015614d5d573d6000803e3d6000fd5b5050505060405180604001604052808a8152602001838152508360000160008201518160000155602082015181600101559050508373ffffffffffffffffffffffffffffffffffffffff16897fd19965d25ef670a1e322fbf05475924b7b12d81fd6b96ab718b261782efb3d62846040518082815260200191505060405180910390a360019550505050505b6001548114614e60576040517f08c379a000000000000000000000000000000000000000000000000000000000815260040180806020018281038252600e8152602001807f7265656e7472616e742063616c6c00000000000000000000000000000000000081525060200191505060405180910390fd5b509392505050565b600080821480614e795750600b5482115b15614e875760009050614ef4565b6000600f60008481526020019081526020016000209050614ea7836182a0565b15614ecb57614eb58161a6a7565b614ec0576001614ec3565b60055b915050614ef4565b6000614ed68261aafe565b9050614ee2828261abb5565b614eec5780614eef565b60055b925050505b919050565b614f01616724565b614f73576040517f08c379a00000000000000000000000000000000000000000000000000000000081526004018080602001828103825260208152602001807f4f776e61626c653a2063616c6c6572206973206e6f7420746865206f776e657281525060200191505060405180910390fd5b614f7b61c57f565b614f8482619775565b9050614f8f81619793565b614fe4576040517f08c379a000000000000000000000000000000000000000000000000000000000815260040180806020018281038252602781526020018061ca036027913960400191505060405180910390fd5b6150106019600201604051806020016040529081600082015481525050826197ad90919063ffffffff16565b15615083576040517f08c379a00000000000000000000000000000000000000000000000000000000081526004018080602001828103825260208152602001807f426173656c696e652075706461746520666163746f7220756e6368616e67656481525060200191505060405180910390fd5b806019600201600082015181600001559050507f8dedb4d995dd500718c7c5f6a077fba6153a7ee063da961d9fcab90ff528ac1f826040518082815260200191505060405180910390a15050565b60006060600060fa73ffffffffffffffffffffffffffffffffffffffff16858560405160200180838152602001828152602001925050506040516020818303038152906040526040518082805190602001908083835b6020831061514a5780518252602082019150602081019050602083039250615127565b6001836020036101000a038019825116818451168082178552505050505050905001915050600060405180830381855afa9150503d80600081146151aa576040519150601f19603f3d011682016040523d82523d6000602084013e6151af565b606091505b5080935081925050508061520e576040517f08c379a000000000000000000000000000000000000000000000000000000000815260040180806020018281038252603681526020018061cac16036913960400191505060405180910390fd5b61521982600061ac0c565b9250505092915050565b6000600860009054906101000a900473ffffffffffffffffffffffffffffffffffffffff1673ffffffffffffffffffffffffffffffffffffffff163373ffffffffffffffffffffffffffffffffffffffff16146152e8576040517f08c379a00000000000000000000000000000000000000000000000000000000081526004018080602001828103825260178152602001807f6d73672e73656e646572206e6f7420617070726f76657200000000000000000081525060200191505060405180910390fd5b6152f0613a85565b6000806152fd8585619a85565b9150915061530a826197c2565b61531957600092505050615523565b6153228261a8f1565b15615395576040517f08c379a00000000000000000000000000000000000000000000000000000000081526004018080602001828103825260198152602001807f50726f706f73616c20616c726561647920617070726f7665640000000000000081525060200191505060405180910390fd5b600360058111156153a257fe5b8160058111156153ae57fe5b14806153d05750600460058111156153c257fe5b8160058111156153ce57fe5b145b615442576040517f08c379a000000000000000000000000000000000000000000000000000000000815260040180806020018281038252601d8152602001807f50726f706f73616c206e6f7420696e20636f727265637420737461676500000081525060200191505060405180910390fd5b60018260070160006101000a81548160ff021916908315150217905550615467619c5c565b73ffffffffffffffffffffffffffffffffffffffff166330a61d596040518163ffffffff1660e01b815260040160206040518083038186803b1580156154ac57600080fd5b505afa1580156154c0573d6000803e3d6000fd5b505050506040513d60208110156154d657600080fd5b81019080805190602001909291905050508260080181905550847f28ec9e38ba73636ceb2f6c1574136f83bd46284a3c74734b711bf45e12f8d92960405160405180910390a26001925050505b92915050565b6000806000806000806000601060008a73ffffffffffffffffffffffffffffffffffffffff1673ffffffffffffffffffffffffffffffffffffffff1681526020019081526020016000206003016000898152602001908152602001600020905080600101548160000160009054906101000a900460ff1660038111156155ab57fe5b8260020154836003015484600401548560050154965096509650965096509650509295509295509295565b600080601060008473ffffffffffffffffffffffffffffffffffffffff1673ffffffffffffffffffffffffffffffffffffffff1681526020019081526020016000209050600081600001600001549050600080821415801561563d575061563c826182a0565b5b801561564f575061564d8261827c565b155b90506000600f600085600201548152602001908152602001600020905060006003600581111561567b57fe5b6156848361aafe565b600581111561568f57fe5b149050828061569b5750805b95505050505050919050565b600d6020528060005260406000206000915090505481565b60006156c9613a85565b600c54341015615741576040517f08c379a00000000000000000000000000000000000000000000000000000000081526004018080602001828103825260118152602001807f546f6f20736d616c6c206465706f73697400000000000000000000000000000081525060200191505060405180910390fd5b6157576001600b54619d5790919063ffffffff16565b600b819055506000600f6000600b54815260200190815260200160002090508073__Proposals_____________________________633053123f90918e8e8e8e8e8e8e8e33346040518c63ffffffff1660e01b8152600401808c8152602001806020018060200180602001806020018773ffffffffffffffffffffffffffffffffffffffff1673ffffffffffffffffffffffffffffffffffffffff16815260200186815260200185810385528f8f82818152602001925060200280828437600081840152601f19601f82011690508083019250505085810384528d8d82818152602001925060200280828437600081840152601f19601f82011690508083019250505085810383528b8b82818152602001925080828437600081840152601f19601f8201169050808301925050508581038252898982818152602001925060200280828437600081840152601f19601f8201169050808301925050509f5050505050505050505050505050505060006040518083038186803b1580156158dc57600080fd5b505af41580156158f0573d6000803e3d6000fd5b5050505061594b84848080601f016020809104026020016040519081016040528093929190818152602001838380828437600081840152601f19601f820116905080830192505050505050508261ac2390919063ffffffff16565b601273__IntegerSortedLinkedList_______________63d7a8acc19091600b546040518363ffffffff1660e01b8152600401808381526020018281526020019250505060006040518083038186803b1580156159a757600080fd5b505af41580156159bb573d6000803e3d6000fd5b505050503373ffffffffffffffffffffffffffffffffffffffff16600b547f1bfe527f3548d9258c2512b6689f0acfccdd0557d80a53845db25fc57e93d8fe8360060180549050344260405180848152602001838152602001828152602001935050505060405180910390a3600b549150509a9950505050505050505050565b615a43616724565b615ab5576040517f08c379a00000000000000000000000000000000000000000000000000000000081526004018080602001828103825260208152602001807f4f776e61626c653a2063616c6c6572206973206e6f7420746865206f776e657281525060200191505060405180910390fd5b6000811415615b2c576040517f08c379a000000000000000000000000000000000000000000000000000000000815260040180806020018281038252601e8152602001807f4475726174696f6e206d757374206265206c6172676572207468616e2030000081525060200191505060405180910390fd5b600360020154811415615ba7576040517f08c379a00000000000000000000000000000000000000000000000000000000081526004018080602001828103825260128152602001807f4475726174696f6e20756e6368616e676564000000000000000000000000000081525060200191505060405180910390fd5b806003600201819055507f7819c8059302d1d66abc7fe228ecc02214e0bc5c529956c13717aabefce937d8816040518082815260200191505060405180910390a150565b600080601060008473ffffffffffffffffffffffffffffffffffffffff1673ffffffffffffffffffffffffffffffffffffffff16815260200190815260200160002090506000816000016000015490506000808214158015615c525750615c51826182a0565b5b8015615c645750615c628261827c565b155b90508015615d3b576000615c76619c5c565b73ffffffffffffffffffffffffffffffffffffffff166330ec70f5876040518263ffffffff1660e01b8152600401808273ffffffffffffffffffffffffffffffffffffffff1673ffffffffffffffffffffffffffffffffffffffff16815260200191505060206040518083038186803b158015615cf257600080fd5b505afa158015615d06573d6000803e3d6000fd5b505050506040513d6020811015615d1c57600080fd5b8101908080519060200190929190505050905080945050505050615e49565b600080905060008090505b601780549050811015615e40576000600f600060178481548110615d6657fe5b906000526020600020015481526020019081526020016000209050600060036005811115615d9057fe5b615d998361aafe565b6005811115615da457fe5b14905080615db3575050615e25565b600087600301600085815260200190815260200160002090506000615dff8260050154615df184600401548560030154619d5790919063ffffffff16565b619d5790919063ffffffff16565b9050615e1e8660008314615e135782615e19565b83600201545b61ac9b565b9550505050505b615e39600182619d5790919063ffffffff16565b9050615d46565b50809450505050505b919050565b60006060600060f673ffffffffffffffffffffffffffffffffffffffff16846040516020018082805190602001908083835b60208310615ea35780518252602082019150602081019050602083039250615e80565b6001836020036101000a0380198251168184511680821785525050505050509050019150506040516020818303038152906040526040518082805190602001908083835b60208310615f0a5780518252602082019150602081019050602083039250615ee7565b6001836020036101000a038019825116818451168082178552505050505050905001915050600060405180830381855afa9150503d8060008114615f6a576040519150601f19603f3d011682016040523d82523d6000602084013e615f6f565b606091505b50809350819250505080615fce576040517f08c379a000000000000000000000000000000000000000000000000000000000815260040180806020018281038252602381526020018061cd186023913960400191505060405180910390fd5b615fd982600061a850565b92505050919050565b6060601780548060200260200160405190810160405280929190818152602001828054801561603057602002820191906000526020600020905b81548152602001906001019080831161601c575b5050505050905090565b600080600f600084815260200190815260200160002090506160648161605f8361aafe565b61abb5565b915050919050565b616074616724565b6160e6576040517f08c379a00000000000000000000000000000000000000000000000000000000081526004018080602001828103825260208152602001807f4f776e61626c653a2063616c6c6572206973206e6f7420746865206f776e657281525060200191505060405180910390fd5b600073ffffffffffffffffffffffffffffffffffffffff166000809054906101000a900473ffffffffffffffffffffffffffffffffffffffff1673ffffffffffffffffffffffffffffffffffffffff167f8be0079c531659141344cd1fd0a4f28419497f9722a3daafe3b4186f6b6457e060405160405180910390a360008060006101000a81548173ffffffffffffffffffffffffffffffffffffffff021916908373ffffffffffffffffffffffffffffffffffffffff160217905550565b6000601060008573ffffffffffffffffffffffffffffffffffffffff1673ffffffffffffffffffffffffffffffffffffffff1681526020019081526020016000209050600081600301600085815260200190815260200160002090508281600201819055505050505050565b600061621c43618f54565b905090565b60075481565b6000616244600f600084815260200190815260200160002061a8f1565b9050919050565b600260009054906101000a900473ffffffffffffffffffffffffffffffffffffffff1681565b616279616724565b6162eb576040517f08c379a00000000000000000000000000000000000000000000000000000000081526004018080602001828103825260208152602001807f4f776e61626c653a2063616c6c6572206973206e6f7420746865206f776e657281525060200191505060405180910390fd5b6000811415616345576040517f08c379a000000000000000000000000000000000000000000000000000000000815260040180806020018281038252602681526020018061cb256026913960400191505060405180910390fd5b6007548114156163bd576040517f08c379a000000000000000000000000000000000000000000000000000000000815260040180806020018281038252601a8152602001807f646571756575654672657175656e637920756e6368616e67656400000000000081525060200191505060405180910390fd5b806007819055507f391e82aae76c653cd640ad1b6028e2ee39ca4f29b30152e3d0a9ddd7e1169c34816040518082815260200191505060405180910390a150565b60008060009050600061640f616554565b9050600061641b619b61565b905060008090505b8281101561654857600061643682612e24565b905060008373ffffffffffffffffffffffffffffffffffffffff166393c5c487836040518263ffffffff1660e01b8152600401808273ffffffffffffffffffffffffffffffffffffffff1673ffffffffffffffffffffffffffffffffffffffff16815260200191505060206040518083038186803b1580156164b757600080fd5b505afa1580156164cb573d6000803e3d6000fd5b505050506040513d60208110156164e157600080fd5b810190808051906020019092919050505090506164fe8883614294565b8061650f575061650e8882614294565b5b1561652b57616528600187619d5790919063ffffffff16565b95505b5050616541600182619d5790919063ffffffff16565b9050616423565b50829350505050919050565b6000601d80549050905090565b60006060600060f773ffffffffffffffffffffffffffffffffffffffff16846040516020018082805190602001908083835b602083106165b65780518252602082019150602081019050602083039250616593565b6001836020036101000a0380198251168184511680821785525050505050509050019150506040516020818303038152906040526040518082805190602001908083835b6020831061661d57805182526020820191506020810190506020830392506165fa565b6001836020036101000a038019825116818451168082178552505050505050905001915050600060405180830381855afa9150503d806000811461667d576040519150601f19603f3d011682016040523d82523d6000602084013e616682565b606091505b508093508192505050806166e1576040517f08c379a000000000000000000000000000000000000000000000000000000000815260040180806020018281038252603181526020018061cc796031913960400191505060405180910390fd5b6166ec82600061ac0c565b92505050919050565b60008060009054906101000a900473ffffffffffffffffffffffffffffffffffffffff16905090565b60065481565b60008060009054906101000a900473ffffffffffffffffffffffffffffffffffffffff1673ffffffffffffffffffffffffffffffffffffffff1661676661acb5565b73ffffffffffffffffffffffffffffffffffffffff1614905090565b61678a616724565b6167fc576040517f08c379a00000000000000000000000000000000000000000000000000000000081526004018080602001828103825260208152602001807f4f776e61626c653a2063616c6c6572206973206e6f7420746865206f776e657281525060200191505060405180910390fd5b6000811415616873576040517f08c379a00000000000000000000000000000000000000000000000000000000081526004018080602001828103825260208152602001807f6d696e4465706f736974206d757374206265206c6172676572207468616e203081525060200191505060405180910390fd5b600c548114156168eb576040517f08c379a00000000000000000000000000000000000000000000000000000000081526004018080602001828103825260198152602001807f4d696e696d756d206465706f73697420756e6368616e6765640000000000000081525060200191505060405180910390fd5b80600c819055507fc50a7f0bdf88c216b2541b0bdea26f22305460e39ffc672ec1a7501732c5ba81816040518082815260200191505060405180910390a150565b60006001806000828254019250508190555060006001549050600061694f619b61565b73ffffffffffffffffffffffffffffffffffffffff16636642d594336040518263ffffffff1660e01b8152600401808273ffffffffffffffffffffffffffffffffffffffff1673ffffffffffffffffffffffffffffffffffffffff16815260200191505060206040518083038186803b1580156169cb57600080fd5b505afa1580156169df573d6000803e3d6000fd5b505050506040513d60208110156169f557600080fd5b810190808051906020019092919050505090506000601060008373ffffffffffffffffffffffffffffffffffffffff1673ffffffffffffffffffffffffffffffffffffffff168152602001908152602001600020905060008090505b601780549050811015616f8b576000826003016000838152602001908152602001600020905060178281548110616a8457fe5b90600052602060002001548160010154148015616ad6575060008160030154141580616ab557506000816004015414155b80616ac557506000816005015414155b80616ad557506000816002015414155b5b15616f6f57600080616aec836001015485619a85565b9150915060036005811115616afd57fe5b816005811115616b0957fe5b1415616f18576000836002015414616d70576000600380811115616b2957fe5b8460000160009054906101000a900460ff166003811115616b4657fe5b14616b52576000616b58565b83600201545b9050600060026003811115616b6957fe5b8560000160009054906101000a900460ff166003811115616b8657fe5b14616b92576000616b98565b84600201545b9050600060016003811115616ba957fe5b8660000160009054906101000a900460ff166003811115616bc657fe5b14616bd2576000616bd8565b85600201545b90508473__Proposals_____________________________63cd150a6d909185858560008060006040518863ffffffff1660e01b81526004018088815260200187815260200186815260200185815260200184815260200183815260200182815260200197505050505050505060006040518083038186803b158015616c5d57600080fd5b505af4158015616c71573d6000803e3d6000fd5b50505050616c7d619c5c565b73ffffffffffffffffffffffffffffffffffffffff166330a61d596040518163ffffffff1660e01b815260040160206040518083038186803b158015616cc257600080fd5b505afa158015616cd6573d6000803e3d6000fd5b505050506040513d6020811015616cec57600080fd5b810190808051906020019092919050505085600801819055508873ffffffffffffffffffffffffffffffffffffffff1686600101547f6791653c96b4863b3768c664e9a03e1094ae334ba9d35862627ceeebd1abcc1f85858560405180848152602001838152602001828152602001935050505060405180910390a3505050616f17565b8173__Proposals_____________________________63cd150a6d909185600301548660040154876005015460008060006040518863ffffffff1660e01b81526004018088815260200187815260200186815260200185815260200184815260200183815260200182815260200197505050505050505060006040518083038186803b158015616dff57600080fd5b505af4158015616e13573d6000803e3d6000fd5b50505050616e1f619c5c565b73ffffffffffffffffffffffffffffffffffffffff166330a61d596040518163ffffffff1660e01b815260040160206040518083038186803b158015616e6457600080fd5b505afa158015616e78573d6000803e3d6000fd5b505050506040513d6020811015616e8e57600080fd5b810190808051906020019092919050505082600801819055508573ffffffffffffffffffffffffffffffffffffffff1683600101547f6791653c96b4863b3768c664e9a03e1094ae334ba9d35862627ceeebd1abcc1f85600301548660040154876005015460405180848152602001838152602001828152602001935050505060405180910390a35b5b846003016000858152602001908152602001600020600080820160006101000a81549060ff021916905560018201600090556002820160009055600382016000905560048201600090556005820160009055505050505b50616f84600182619d5790919063ffffffff16565b9050616a51565b50600081600201819055506001935050506001548114617013576040517f08c379a000000000000000000000000000000000000000000000000000000000815260040180806020018281038252600e8152602001807f7265656e7472616e742063616c6c00000000000000000000000000000000000081525060200191505060405180910390fd5b5090565b600061702b617026848461acbd565b61af0f565b905092915050565b600061703e826182a0565b6170b0576040517f08c379a00000000000000000000000000000000000000000000000000000000081526004018080602001828103825260138152602001807f50726f706f73616c206e6f74207175657565640000000000000000000000000081525060200191505060405180910390fd5b601273__IntegerSortedLinkedList_______________63757775999091846040518363ffffffff1660e01b8152600401808381526020018281526020019250505060206040518083038186803b15801561710a57600080fd5b505af415801561711e573d6000803e3d6000fd5b505050506040513d602081101561713457600080fd5b81019080805190602001909291905050509050919050565b600061715743613a6b565b905090565b6000601d805490509050919050565b806011600082815260200190815260200160002060000160009054906101000a900460ff1615617203576040517f08c379a00000000000000000000000000000000000000000000000000000000081526004018080602001828103825260178152602001807f686f7466697820616c726561647920657865637574656400000000000000000081525060200191505060405180910390fd5b61720c82613a4f565b617261576040517f08c379a000000000000000000000000000000000000000000000000000000000815260040180806020018281038252602981526020018061cb6c6029913960400191505060405180910390fd5b600061726b61714c565b9050806011600085815260200190815260200160002060010154106172db576040517f08c379a000000000000000000000000000000000000000000000000000000000815260040180806020018281038252602681526020018061cbde6026913960400191505060405180910390fd5b80601160008581526020019081526020016000206001018190555080837f6f184ec313435b3307a4fe59e2293381f08419a87214464c875a2a247e8af5e060405160405180910390a3505050565b617331616724565b6173a3576040517f08c379a00000000000000000000000000000000000000000000000000000000081526004018080602001828103825260208152602001807f4f776e61626c653a2063616c6c6572206973206e6f7420746865206f776e657281525060200191505060405180910390fd5b600073ffffffffffffffffffffffffffffffffffffffff168173ffffffffffffffffffffffffffffffffffffffff161415617446576040517f08c379a00000000000000000000000000000000000000000000000000000000081526004018080602001828103825260208152602001807f43616e6e6f7420726567697374657220746865206e756c6c206164647265737381525060200191505060405180910390fd5b80600260006101000a81548173ffffffffffffffffffffffffffffffffffffffff021916908373ffffffffffffffffffffffffffffffffffffffff1602179055508073ffffffffffffffffffffffffffffffffffffffff167f27fe5f0c1c3b1ed427cc63d0f05759ffdecf9aec9e18d31ef366fc8a6cb5dc3b60405160405180910390a250565b601881815481106174da57fe5b906000526020600020016000915090505481565b6000600360010154905090565b6017818154811061750857fe5b906000526020600020016000915090505481565b6000600180600082825401925050819055506000600154905061753d613a85565b6000617547619b61565b73ffffffffffffffffffffffffffffffffffffffff16636642d594336040518263ffffffff1660e01b8152600401808273ffffffffffffffffffffffffffffffffffffffff1673ffffffffffffffffffffffffffffffffffffffff16815260200191505060206040518083038186803b1580156175c357600080fd5b505afa1580156175d7573d6000803e3d6000fd5b505050506040513d60208110156175ed57600080fd5b810190808051906020019092919050505090506000601060008373ffffffffffffffffffffffffffffffffffffffff1673ffffffffffffffffffffffffffffffffffffffff168152602001908152602001600020905060008160000160000154905060008114156176c6576040517f08c379a00000000000000000000000000000000000000000000000000000000081526004018080602001828103825260208152602001807f4163636f756e7420686173206e6f20686973746f726963616c207570766f746581525060200191505060405180910390fd5b6176cf8161aa2b565b50601273__IntegerSortedLinkedList_______________63bfc516389091836040518363ffffffff1660e01b8152600401808381526020018281526020019250505060206040518083038186803b15801561772a57600080fd5b505af415801561773e573d6000803e3d6000fd5b505050506040513d602081101561775457600080fd5b8101908080519060200190929190505050156178f857601273__IntegerSortedLinkedList_______________63239491ba9091836178378660000160010154601273__IntegerSortedLinkedList_______________63757775999091896040518363ffffffff1660e01b8152600401808381526020018281526020019250505060206040518083038186803b1580156177ee57600080fd5b505af4158015617802573d6000803e3d6000fd5b505050506040513d602081101561781857600080fd5b810190808051906020019092919050505061a6cc90919063ffffffff16565b8b8b6040518663ffffffff1660e01b8152600401808681526020018581526020018481526020018381526020018281526020019550505050505060006040518083038186803b15801561788957600080fd5b505af415801561789d573d6000803e3d6000fd5b505050508273ffffffffffffffffffffffffffffffffffffffff16817f7dc46237a819c9171a9c037ec98928e563892905c4d23373ca0f3f500f4ed11484600001600101546040518082815260200191505060405180910390a35b60405180604001604052806000815260200160008152508260000160008201518160000155602082015181600101559050506001945050505060015481146179a8576040517f08c379a000000000000000000000000000000000000000000000000000000000815260040180806020018281038252600e8152602001807f7265656e7472616e742063616c6c00000000000000000000000000000000000081525060200191505060405180910390fd5b5092915050565b600060149054906101000a900460ff1615617a32576040517f08c379a000000000000000000000000000000000000000000000000000000000815260040180806020018281038252601c8152602001807f636f6e747261637420616c726561647920696e697469616c697a65640000000081525060200191505060405180910390fd5b6001600060146101000a81548160ff021916908315150217905550617a563361af1d565b617a5f8c617329565b617a688b6137e7565b617a718a6184b5565b617a7a89616782565b617a83886132cd565b617a8c87616271565b617a95866186c4565b617a9e85615a3b565b617aa7846140bc565b617ab083612ee9565b617ab982614ef9565b617ac281612bbd565b42600981905550505050505050505050505050565b806011600082815260200190815260200160002060000160009054906101000a900460ff1615617b6f576040517f08c379a00000000000000000000000000000000000000000000000000000000081526004018080602001828103825260178152602001807f686f7466697820616c726561647920657865637574656400000000000000000081525060200191505060405180910390fd5b600860009054906101000a900473ffffffffffffffffffffffffffffffffffffffff1673ffffffffffffffffffffffffffffffffffffffff163373ffffffffffffffffffffffffffffffffffffffff1614617c32576040517f08c379a00000000000000000000000000000000000000000000000000000000081526004018080602001828103825260178152602001807f6d73672e73656e646572206e6f7420617070726f76657200000000000000000081525060200191505060405180910390fd5b60016011600084815260200190815260200160002060000160016101000a81548160ff021916908315150217905550817f36bc158cba244a94dc9b8c08d327e8f7e3c2ab5f1925454c577527466f04851f60405160405180910390a25050565b806011600082815260200190815260200160002060000160009054906101000a900460ff1615617d2a576040517f08c379a00000000000000000000000000000000000000000000000000000000081526004018080602001828103825260178152602001807f686f7466697820616c726561647920657865637574656400000000000000000081525060200191505060405180910390fd5b60016011600084815260200190815260200160002060020160003373ffffffffffffffffffffffffffffffffffffffff1673ffffffffffffffffffffffffffffffffffffffff16815260200190815260200160002060006101000a81548160ff021916908315150217905550817ff6d22d0b43a6753880b8f9511b82b86cd0fe349cd580bbe6a25b6dc063ef496f33604051808273ffffffffffffffffffffffffffffffffffffffff1673ffffffffffffffffffffffffffffffffffffffff16815260200191505060405180910390a25050565b6000601260000160020154905090565b60006001806000828254019250508190555060006001549050617e2f613a85565b600080617e3c8787619a85565b91509150617e49826197c2565b617e58576000935050506181f7565b60036005811115617e6557fe5b816005811115617e7157fe5b14617ee4576040517f08c379a00000000000000000000000000000000000000000000000000000000081526004018080602001828103825260188152602001807f496e636f72726563742070726f706f73616c207374617465000000000000000081525060200191505060405180910390fd5b60006003811115617ef157fe5b856003811115617efd57fe5b1415617f71576040517f08c379a00000000000000000000000000000000000000000000000000000000081526004018080602001828103825260108152602001807f566f74652076616c756520756e7365740000000000000000000000000000000081525060200191505060405180910390fd5b6000617f7b619b61565b73ffffffffffffffffffffffffffffffffffffffff16636642d594336040518263ffffffff1660e01b8152600401808273ffffffffffffffffffffffffffffffffffffffff1673ffffffffffffffffffffffffffffffffffffffff16815260200191505060206040518083038186803b158015617ff757600080fd5b505afa15801561800b573d6000803e3d6000fd5b505050506040513d602081101561802157600080fd5b81019080805190602001909291905050509050600061803e619c5c565b73ffffffffffffffffffffffffffffffffffffffff166361d5c570836040518263ffffffff1660e01b8152600401808273ffffffffffffffffffffffffffffffffffffffff1673ffffffffffffffffffffffffffffffffffffffff16815260200191505060206040518083038186803b1580156180ba57600080fd5b505afa1580156180ce573d6000803e3d6000fd5b505050506040513d60208110156180e457600080fd5b81019080805190602001909291905050509050600081141561816e576040517f08c379a00000000000000000000000000000000000000000000000000000000081526004018080602001828103825260118152602001807f566f74657220776569676874207a65726f00000000000000000000000000000081525060200191505060405180910390fd5b6181ee848a8a8560038081111561818157fe5b8c600381111561818d57fe5b1461819957600061819b565b855b600260038111156181a857fe5b8d60038111156181b457fe5b146181c05760006181c2565b865b600160038111156181cf57fe5b8e60038111156181db57fe5b146181e75760006181e9565b875b619ddf565b60019550505050505b600154811461826e576040517f08c379a000000000000000000000000000000000000000000000000000000000815260040180806020018281038252600e8152602001807f7265656e7472616e742063616c6c00000000000000000000000000000000000081525060200191505060405180910390fd5b509392505050565b60095481565b6000618299600f600084815260200190815260200160002061a6a7565b9050919050565b6000601273__IntegerSortedLinkedList_______________63bfc516389091846040518363ffffffff1660e01b8152600401808381526020018281526020019250505060206040518083038186803b1580156182fc57600080fd5b505af4158015618310573d6000803e3d6000fd5b505050506040513d602081101561832657600080fd5b81019080805190602001909291905050509050919050565b6000806000806060600080618364600f60008a815260200190815260200160002061b061565b828054600181600116156101000203166002900480601f0160208091040260200160405190810160405280929190818152602001828054600181600116156101000203166002900480156183f95780601f106183ce576101008083540402835291602001916183f9565b820191906000526020600020905b8154815290600101906020018083116183dc57829003601f168201915b505050505092509650965096509650965096509650919395979092949650565b600080600080618441601960000160405180602001604052908160008201548152505061af0f565b618463601960010160405180602001604052908160008201548152505061af0f565b618485601960020160405180602001604052908160008201548152505061af0f565b6184a7601960030160405180602001604052908160008201548152505061af0f565b935093509350935090919293565b6184bd616724565b61852f576040517f08c379a00000000000000000000000000000000000000000000000000000000081526004018080602001828103825260208152602001807f4f776e61626c653a2063616c6c6572206973206e6f7420746865206f776e657281525060200191505060405180910390fd5b6000811415618589576040517f08c379a000000000000000000000000000000000000000000000000000000000815260040180806020018281038252602c81526020018061c8b9602c913960400191505060405180910390fd5b600a54811415618601576040517f08c379a000000000000000000000000000000000000000000000000000000000815260040180806020018281038252601d8152602001807f4e756d626572206f662070726f706f73616c7320756e6368616e67656400000081525060200191505060405180910390fd5b80600a819055507f85399b9b2595eb13c392e1638ca77730156cd8d48d4733df4db068e4aa6b93a6816040518082815260200191505060405180910390a150565b60008061864d61c5be565b601060008573ffffffffffffffffffffffffffffffffffffffff1673ffffffffffffffffffffffffffffffffffffffff168152602001908152602001600020600001604051806040016040529081600082015481526020016001820154815250509050806000015181602001519250925050915091565b6186cc616724565b61873e576040517f08c379a00000000000000000000000000000000000000000000000000000000081526004018080602001828103825260208152602001807f4f776e61626c653a2063616c6c6572206973206e6f7420746865206f776e657281525060200191505060405180910390fd5b60008114156187b5576040517f08c379a000000000000000000000000000000000000000000000000000000000815260040180806020018281038252601e8152602001807f4475726174696f6e206d757374206265206c6172676572207468616e2030000081525060200191505060405180910390fd5b600360010154811415618830576040517f08c379a00000000000000000000000000000000000000000000000000000000081526004018080602001828103825260128152602001807f4475726174696f6e20756e6368616e676564000000000000000000000000000081525060200191505060405180910390fd5b806003600101819055507f90290eb9b27055e686a69fb810bada5381e544d07b8270021da2d355a6c96ed6816040518082815260200191505060405180910390a150565b6000898989898989898989604051602001808060200180602001806020018060200186815260200185810385528e8e82818152602001925060200280828437600081840152601f19601f82011690508083019250505085810384528c8c82818152602001925060200280828437600081840152601f19601f82011690508083019250505085810383528a8a82818152602001925080828437600081840152601f19601f8201169050808301925050508581038252888882818152602001925060200280828437600081840152601f19601f8201169050808301925050509d5050505050505050505050505050604051602081830303815290604052805190602001209050600080600061898684612d95565b9250925092508115618a00576040517f08c379a00000000000000000000000000000000000000000000000000000000081526004018080602001828103825260178152602001807f686f7466697820616c726561647920657865637574656400000000000000000081525060200191505060405180910390fd5b82618a73576040517f08c379a00000000000000000000000000000000000000000000000000000000081526004018080602001828103825260138152602001807f686f74666978206e6f7420617070726f7665640000000000000000000000000081525060200191505060405180910390fd5b618a7b61714c565b8114618ad2576040517f08c379a000000000000000000000000000000000000000000000000000000000815260040180806020018281038252602681526020018061c84b6026913960400191505060405180910390fd5b618bf0618beb8e8e80806020026020016040519081016040528093929190818152602001838360200280828437600081840152601f19601f820116905080830192505050505050508d8d80806020026020016040519081016040528093929190818152602001838360200280828437600081840152601f19601f820116905080830192505050505050508c8c8080601f016020809104026020016040519081016040528093929190818152602001838380828437600081840152601f19601f820116905080830192505050505050508b8b80806020026020016040519081016040528093929190818152602001838360200280828437600081840152601f19601f8201169050808301925050505050505033600061b0da565b61b303565b60016011600086815260200190815260200160002060000160006101000a81548160ff021916908315150217905550837f708a7934acb657a77a617b1fcd5f6d7d9ad592b72934841bff01acefd10f9b6360405160405180910390a250505050505050505050505050565b6000806060600f600086815260200190815260200160002073__Proposals_____________________________63e6a5192f9091866040518363ffffffff1660e01b8152600401808381526020018281526020019250505060006040518083038186803b158015618ccb57600080fd5b505af4158015618cdf573d6000803e3d6000fd5b505050506040513d6000823e3d601f19601f820116820180604052506060811015618d0957600080fd5b81019080805190602001909291908051906020019092919080516040519392919084640100000000821115618d3d57600080fd5b83820191506020820185811115618d5357600080fd5b8251866001820283011164010000000082111715618d7057600080fd5b8083526020830192505050908051906020019080838360005b83811015618da4578082015181840152602081019050618d89565b50505050905090810190601f168015618dd15780820380516001836020036101000a031916815260200191505b506040525050509250925092509250925092565b600b5481565b60006060600060f873ffffffffffffffffffffffffffffffffffffffff166040516020016040516020818303038152906040526040518082805190602001908083835b60208310618e515780518252602082019150602081019050602083039250618e2e565b6001836020036101000a038019825116818451168082178552505050505050905001915050600060405180830381855afa9150503d8060008114618eb1576040519150601f19603f3d011682016040523d82523d6000602084013e618eb6565b606091505b50809350819250505080618f15576040517f08c379a000000000000000000000000000000000000000000000000000000000815260040180806020018281038252602581526020018061cc046025913960400191505060405180910390fd5b618f2082600061ac0c565b9250505090565b6000806000618f47600f600086815260200190815260200160002061b313565b9250925092509193909250565b6000618f986003618f8a6002618f7c6002618f6e8861715c565b61b33d90919063ffffffff16565b619d5790919063ffffffff16565b61b3c390919063ffffffff16565b9050919050565b60008060008714158015618fb4575060008514155b619026576040517f08c379a00000000000000000000000000000000000000000000000000000000081526004018080602001828103825260158152602001807f612064656e6f6d696e61746f72206973207a65726f000000000000000000000081525060200191505060405180910390fd5b6000806000606060fc73ffffffffffffffffffffffffffffffffffffffff168c8c8c8c8c8c6040516020018087815260200186815260200185815260200184815260200183815260200182815260200196505050505050506040516020818303038152906040526040518082805190602001908083835b602083106190c0578051825260208201915060208101905060208303925061909d565b6001836020036101000a038019825116818451168082178552505050505050905001915050600060405180830381855afa9150503d8060008114619120576040519150601f19603f3d011682016040523d82523d6000602084013e619125565b606091505b50809250819350505081619184576040517f08c379a000000000000000000000000000000000000000000000000000000000815260040180806020018281038252602781526020018061cbb76027913960400191505060405180910390fd5b61918f81600061ac0c565b935061919c81602061ac0c565b925083839550955050505050965096945050505050565b6191bb616724565b61922d576040517f08c379a00000000000000000000000000000000000000000000000000000000081526004018080602001828103825260208152602001807f4f776e61626c653a2063616c6c6572206973206e6f7420746865206f776e657281525060200191505060405180910390fd5b600073ffffffffffffffffffffffffffffffffffffffff168373ffffffffffffffffffffffffffffffffffffffff1614156192d0576040517f08c379a000000000000000000000000000000000000000000000000000000000815260040180806020018281038252601a8152602001807f44657374696e6174696f6e2063616e6e6f74206265207a65726f00000000000081525060200191505060405180910390fd5b6969e10de76676d0800000811180156192f857506192f46192ef61b40d565b61af0f565b8111155b61934d576040517f08c379a000000000000000000000000000000000000000000000000000000000815260040180806020018281038252604881526020018061c95b6048913960600191505060405180910390fd5b600060e01b827bffffffffffffffffffffffffffffffffffffffffffffffffffffffff191614156193d55761938181619775565b600e60008573ffffffffffffffffffffffffffffffffffffffff1673ffffffffffffffffffffffffffffffffffffffff1681526020019081526020016000206000016000820151816000015590505061947d565b6193de81619775565b600e60008573ffffffffffffffffffffffffffffffffffffffff1673ffffffffffffffffffffffffffffffffffffffff1681526020019081526020016000206001016000847bffffffffffffffffffffffffffffffffffffffffffffffffffffffff19167bffffffffffffffffffffffffffffffffffffffffffffffffffffffff19168152602001908152602001600020600082015181600001559050505b817bffffffffffffffffffffffffffffffffffffffffffffffffffffffff19168373ffffffffffffffffffffffffffffffffffffffff167f60c5b4756af49d7b071b00dbf0f87af605cce11896ecd3b760d19f0f9d3fbcef836040518082815260200191505060405180910390a3505050565b6194f8616724565b61956a576040517f08c379a00000000000000000000000000000000000000000000000000000000081526004018080602001828103825260208152602001807f4f776e61626c653a2063616c6c6572206973206e6f7420746865206f776e657281525060200191505060405180910390fd5b6195738161af1d565b50565b61957e619c5c565b73ffffffffffffffffffffffffffffffffffffffff163373ffffffffffffffffffffffffffffffffffffffff161461961e576040517f08c379a00000000000000000000000000000000000000000000000000000000081526004018080602001828103825260198152602001807f6d73672e73656e646572206e6f74206c6f636b6564476f6c640000000000000081525060200191505060405180910390fd5b619628828261a2be565b5050565b60006060600060f573ffffffffffffffffffffffffffffffffffffffff1684604051602001808281526020019150506040516020818303038152906040526040518082805190602001908083835b6020831061969d578051825260208201915060208101905060208303925061967a565b6001836020036101000a038019825116818451168082178552505050505050905001915050600060405180830381855afa9150503d80600081146196fd576040519150601f19603f3d011682016040523d82523d6000602084013e619702565b606091505b50809350819250505080619761576040517f08c379a000000000000000000000000000000000000000000000000000000000815260040180806020018281038252602c81526020018061cc4d602c913960400191505060405180910390fd5b61976c82600061a850565b92505050919050565b61977d61c57f565b6040518060200160405280838152509050919050565b60006197a6826197a161b40d565b61b433565b9050919050565b60008160000151836000015114905092915050565b6000808260020154119050919050565b60006017805490508210619831576040517f08c379a000000000000000000000000000000000000000000000000000000000815260040180806020018281038252602b81526020018061cd3b602b913960400191505060405180910390fd5b61983a846197c2565b801561985c5750826017838154811061984f57fe5b9060005260206000200154145b90509392505050565b600061986f61c57f565b6198c66198b76019600301604051806020016040529081600082015481525050601960000160405180602001604052908160008201548152505061b44990919063ffffffff16565b8461b8a890919063ffffffff16565b9050600083600601805490501415619909576198e061c57f565b6198eb60008061acbd565b9050619900818361b99790919063ffffffff16565b92505050619a80565b60008090505b8360060180549050811015619a795760006199e185600601838154811061993257fe5b90600052602060002090600302016002018054600181600116156101000203166002900480601f0160208091040260200160405190810160405280929190818152602001828054600181600116156101000203166002900480156199d75780601f106199ac576101008083540402835291602001916199d7565b820191906000526020600020905b8154815290600101906020018083116199ba57829003601f168201915b505050505061b9ac565b90506199eb61c57f565b619a358660060184815481106199fd57fe5b906000526020600020906003020160010160009054906101000a900473ffffffffffffffffffffffffffffffffffffffff168361acbd565b9050619a4a818561b43390919063ffffffff16565b15619a5c576000945050505050619a80565b5050619a72600182619d5790919063ffffffff16565b905061990f565b5060019150505b919050565b6000806000600f60008681526020019081526020016000209050619aaa8186866197d2565b619b1c576040517f08c379a00000000000000000000000000000000000000000000000000000000081526004018080602001828103825260158152602001807f50726f706f73616c206e6f74206465717565756564000000000000000000000081525060200191505060405180910390fd5b6000619b278261aafe565b9050619b33828261abb5565b15619b5157619b4382878761a90c565b816005935093505050619b5a565b81819350935050505b9250929050565b6000600260009054906101000a900473ffffffffffffffffffffffffffffffffffffffff1673ffffffffffffffffffffffffffffffffffffffff1663dcf0aaed60405160200180807f4163636f756e74730000000000000000000000000000000000000000000000008152506008019050604051602081830303815290604052805190602001206040518263ffffffff1660e01b81526004018082815260200191505060206040518083038186803b158015619c1c57600080fd5b505afa158015619c30573d6000803e3d6000fd5b505050506040513d6020811015619c4657600080fd5b8101908080519060200190929190505050905090565b6000600260009054906101000a900473ffffffffffffffffffffffffffffffffffffffff1673ffffffffffffffffffffffffffffffffffffffff1663dcf0aaed60405160200180807f4c6f636b6564476f6c6400000000000000000000000000000000000000000000815250600a019050604051602081830303815290604052805190602001206040518263ffffffff1660e01b81526004018082815260200191505060206040518083038186803b158015619d1757600080fd5b505afa158015619d2b573d6000803e3d6000fd5b505050506040513d6020811015619d4157600080fd5b8101908080519060200190929190505050905090565b600080828401905083811015619dd5576040517f08c379a000000000000000000000000000000000000000000000000000000000815260040180806020018281038252601b8152602001807f536166654d6174683a206164646974696f6e206f766572666c6f77000000000081525060200191505060405180910390fd5b8091505092915050565b6000601060008673ffffffffffffffffffffffffffffffffffffffff1673ffffffffffffffffffffffffffffffffffffffff16815260200190815260200160002090506000816003016000888152602001908152602001600020905087816001015414619ee6578873__Proposals_____________________________63cd150a6d909160008060008a8a8a6040518863ffffffff1660e01b81526004018088815260200187815260200186815260200185815260200184815260200183815260200182815260200197505050505050505060006040518083038186803b158015619ec957600080fd5b505af4158015619edd573d6000803e3d6000fd5b5050505061a0e7565b600081600201541461a040578873__Proposals_____________________________63cd150a6d9091600380811115619f1b57fe5b8460000160009054906101000a900460ff166003811115619f3857fe5b14619f44576000619f4a565b83600201545b60026003811115619f5757fe5b8560000160009054906101000a900460ff166003811115619f7457fe5b14619f80576000619f86565b84600201545b60016003811115619f9357fe5b8660000160009054906101000a900460ff166003811115619fb057fe5b14619fbc576000619fc2565b85600201545b8a8a8a6040518863ffffffff1660e01b81526004018088815260200187815260200186815260200185815260200184815260200183815260200182815260200197505050505050505060006040518083038186803b15801561a02357600080fd5b505af415801561a037573d6000803e3d6000fd5b5050505061a0e6565b8873__Proposals_____________________________63cd150a6d90918360030154846004015485600501548a8a8a6040518863ffffffff1660e01b81526004018088815260200187815260200186815260200185815260200184815260200183815260200182815260200197505050505050505060006040518083038186803b15801561a0cd57600080fd5b505af415801561a0e1573d6000803e3d6000fd5b505050505b5b61a0ef619c5c565b73ffffffffffffffffffffffffffffffffffffffff166330a61d596040518163ffffffff1660e01b815260040160206040518083038186803b15801561a13457600080fd5b505afa15801561a148573d6000803e3d6000fd5b505050506040513d602081101561a15e57600080fd5b810190808051906020019092919050505089600801819055506040518060c001604052806000600381111561a18f57fe5b8152602001898152602001600081526020018681526020018581526020018481525082600301600089815260200190815260200160002060008201518160000160006101000a81548160ff0219169083600381111561a1ea57fe5b02179055506020820151816001015560408201518160020155606082015181600301556080820151816004015560a08201518160050155905050600f600083600201548152602001908152602001600020600201548960020154111561a254578782600201819055505b8573ffffffffffffffffffffffffffffffffffffffff16887f683ebddc94b5b0a7dae3d1b6c168ad05684fcfd831b24ecb5ea9ecdf5524d02887878760405180848152602001838152602001828152602001935050505060405180910390a3505050505050505050565b6000601060008473ffffffffffffffffffffffffffffffffffffffff1673ffffffffffffffffffffffffffffffffffffffff168152602001908152602001600020905060008090505b60178054905081101561a640576000600f60006017848154811061a32757fe5b90600052602060002001548152602001908152602001600020905060006003600581111561a35157fe5b61a35a8361aafe565b600581111561a36557fe5b1490508061a37457505061a625565b60008460030160008581526020019081526020016000209050600061a3c0826005015461a3b284600401548560030154619d5790919063ffffffff16565b619d5790919063ffffffff16565b90508681111561a62057600061a3df888361a6cc90919063ffffffff16565b9050600061a3f28285600501548561bb09565b9050600061a4058386600301548661bb09565b9050600061a4188487600401548761bb09565b9050600061a4418261a4338587619d5790919063ffffffff16565b619d5790919063ffffffff16565b9050600061a45c84896003015461a6cc90919063ffffffff16565b9050600061a477848a6004015461a6cc90919063ffffffff16565b9050600061a492878b6005015461a6cc90919063ffffffff16565b90508784101561a55757600061a4b1858a61a6cc90919063ffffffff16565b9050600061a4bf828661a68e565b905061a4d4818661a6cc90919063ffffffff16565b945061a4e9818361a6cc90919063ffffffff16565b91506000821461a52a5761a4fd828561a68e565b905061a512818561a6cc90919063ffffffff16565b935061a527818361a6cc90919063ffffffff16565b91505b6000821461a5545761a53c828461a68e565b905061a551818461a6cc90919063ffffffff16565b92505b50505b8b73__Proposals_____________________________63cd150a6d90918c600301548d600401548e600501548888886040518863ffffffff1660e01b81526004018088815260200187815260200186815260200185815260200184815260200183815260200182815260200197505050505050505060006040518083038186803b15801561a5e457600080fd5b505af415801561a5f8573d6000803e3d6000fd5b50505050808a60050181905550828a60030181905550818a6004018190555050505050505050505b505050505b61a639600182619d5790919063ffffffff16565b905061a307565b50505050565b60008082848161a65257fe5b049050600083858161a66057fe5b06141561a670578091505061a688565b61a684600182619d5790919063ffffffff16565b9150505b92915050565b600081831061a69d578161a69f565b825b905092915050565b600061a6c26006548360020154619d5790919063ffffffff16565b4210159050919050565b600061a70e83836040518060400160405280601e81526020017f536166654d6174683a207375627472616374696f6e206f766572666c6f77000081525061bb40565b905092915050565b8047101561a78c576040517f08c379a000000000000000000000000000000000000000000000000000000000815260040180806020018281038252601d8152602001807f416464726573733a20696e73756666696369656e742062616c616e636500000081525060200191505060405180910390fd5b60008273ffffffffffffffffffffffffffffffffffffffff168260405180600001905060006040518083038185875af1925050503d806000811461a7ec576040519150601f19603f3d011682016040523d82523d6000602084013e61a7f1565b606091505b505090508061a84b576040517f08c379a000000000000000000000000000000000000000000000000000000000815260040180806020018281038252603a81526020018061c9c9603a913960400191505060405180910390fd5b505050565b600061a866602083619d5790919063ffffffff16565b8351101561a8dc576040517f08c379a00000000000000000000000000000000000000000000000000000000081526004018080602001828103825260148152602001807f736c6963696e67206f7574206f662072616e676500000000000000000000000081525060200191505060405180910390fd5b60006020830184015190508091505092915050565b60008160070160009054906101000a900460ff169050919050565b61a9158361a8f1565b801561a92657506000836008015414155b1561a9355761a9348361bc00565b5b60006017828154811061a94457fe5b90600052602060002001819055506018819080600181540180825580915050906001820390600052602060002001600090919290919091505550600f6000838152602001908152602001600020600080820160006101000a81549073ffffffffffffffffffffffffffffffffffffffff0219169055600182016000905560028201600090556003820160008082016000905560018201600090556002820160009055505060068201600061a9f8919061c5d8565b6007820160006101000a81549060ff0219169055600882016000905560098201600061aa24919061c5fc565b5050505050565b600061aa36826182a0565b801561aa47575061aa468261827c565b5b1561aaf457601273__IntegerSortedLinkedList_______________63eed5f7be9091846040518363ffffffff1660e01b8152600401808381526020018281526020019250505060006040518083038186803b15801561aaa657600080fd5b505af415801561aaba573d6000803e3d6000fd5b50505050817f88e53c486703527139dfc8d97a1e559d9bd93d3f9d52cda4e06564111e7a264360405160405180910390a26001905061aaf9565b600090505b919050565b60008061ab3460036002015461ab266003600101548660020154619d5790919063ffffffff16565b619d5790919063ffffffff16565b905080421015801561ab7057506000836006018054905014158061ab5e575061ab5c8361a8f1565b155b8061ab6f575061ab6d83619865565b155b5b1561ab7f57600591505061abb0565b61ab976003600201548261a6cc90919063ffffffff16565b905080421061abaa57600491505061abb0565b60039150505b919050565b60006004600581111561abc457fe5b82600581111561abd057fe5b118061ac0457506003600581111561abe457fe5b82600581111561abf057fe5b11801561ac03575061ac0183619865565b155b5b905092915050565b600061ac18838361a850565b60001c905092915050565b60008151141561ac7e576040517f08c379a000000000000000000000000000000000000000000000000000000000815260040180806020018281038252602981526020018061c90b6029913960400191505060405180910390fd5b8082600901908051906020019061ac9692919061c644565b505050565b60008183101561acab578161acad565b825b905092915050565b600033905090565b61acc561c57f565b61accd61c57f565b61ace06969e10de76676d0800000619775565b9050600061ad92600e60008773ffffffffffffffffffffffffffffffffffffffff1673ffffffffffffffffffffffffffffffffffffffff1681526020019081526020016000206001016000867bffffffffffffffffffffffffffffffffffffffffffffffffffffffff19167bffffffffffffffffffffffffffffffffffffffffffffffffffffffff1916815260200190815260200160002060405180602001604052908160008201548152505061af0f565b1461ae4457600e60008573ffffffffffffffffffffffffffffffffffffffff1673ffffffffffffffffffffffffffffffffffffffff1681526020019081526020016000206001016000847bffffffffffffffffffffffffffffffffffffffffffffffffffffffff19167bffffffffffffffffffffffffffffffffffffffffffffffffffffffff19168152602001908152602001600020604051806020016040529081600082015481525050905061af05565b600061aea5600e60008773ffffffffffffffffffffffffffffffffffffffff1673ffffffffffffffffffffffffffffffffffffffff16815260200190815260200160002060000160405180602001604052908160008201548152505061af0f565b1461af0457600e60008573ffffffffffffffffffffffffffffffffffffffff1673ffffffffffffffffffffffffffffffffffffffff16815260200190815260200160002060000160405180602001604052908160008201548152505090505b5b8091505092915050565b600081600001519050919050565b600073ffffffffffffffffffffffffffffffffffffffff168173ffffffffffffffffffffffffffffffffffffffff16141561afa3576040517f08c379a000000000000000000000000000000000000000000000000000000000815260040180806020018281038252602681526020018061c8e56026913960400191505060405180910390fd5b8073ffffffffffffffffffffffffffffffffffffffff166000809054906101000a900473ffffffffffffffffffffffffffffffffffffffff1673ffffffffffffffffffffffffffffffffffffffff167f8be0079c531659141344cd1fd0a4f28419497f9722a3daafe3b4186f6b6457e060405160405180910390a3806000806101000a81548173ffffffffffffffffffffffffffffffffffffffff021916908373ffffffffffffffffffffffffffffffffffffffff16021790555050565b60008060008060008060008760000160009054906101000a900473ffffffffffffffffffffffffffffffffffffffff16886001015489600201548a600601805490508b6009018c600801548d60070160009054906101000a900460ff168292509650965096509650965096509650919395979092949650565b61b0e261c6c4565b8551875114801561b0f4575083518651145b61b166576040517f08c379a00000000000000000000000000000000000000000000000000000000081526004018080602001828103825260158152602001807f4172726179206c656e677468206d69736d61746368000000000000000000000081525060200191505060405180910390fd5b60008751905061b17461c6c4565b84816000019073ffffffffffffffffffffffffffffffffffffffff16908173ffffffffffffffffffffffffffffffffffffffff1681525050838160200181815250504281604001818152505060008090508260405190808252806020026020018201604052801561b1ff57816020015b61b1ec61c727565b81526020019060019003908161b1e45790505b50826080018190525060008090505b8381101561b2f25760405180606001604052808c838151811061b22d57fe5b602002602001015181526020018b838151811061b24657fe5b602002602001015173ffffffffffffffffffffffffffffffffffffffff16815260200161b291848b858151811061b27957fe5b60200260200101518d61bd969092919063ffffffff16565b8152508360800151828151811061b2a457fe5b602002602001018190525061b2d588828151811061b2be57fe5b602002602001015183619d5790919063ffffffff16565b915061b2eb600182619d5790919063ffffffff16565b905061b20e565b508193505050509695505050505050565b61b310816080015161be22565b50565b60008060008360030160000154846003016001015485600301600201549250925092509193909250565b60008083141561b350576000905061b3bd565b600082840290508284828161b36157fe5b041461b3b8576040517f08c379a000000000000000000000000000000000000000000000000000000000815260040180806020018281038252602181526020018061cb4b6021913960400191505060405180910390fd5b809150505b92915050565b600061b40583836040518060400160405280601a81526020017f536166654d6174683a206469766973696f6e206279207a65726f00000000000081525061bf2b565b905092915050565b61b41561c57f565b604051806020016040528069d3c21bcecceda1000000815250905090565b6000816000015183600001511115905092915050565b61b45161c57f565b60008360000151148061b468575060008260000151145b1561b4845760405180602001604052806000815250905061b8a2565b69d3c21bcecceda10000008260000151141561b4a25782905061b8a2565b69d3c21bcecceda10000008360000151141561b4c05781905061b8a2565b600069d3c21bcecceda100000061b4d68561bff1565b600001518161b4e157fe5b049050600061b4ef8561c028565b600001519050600069d3c21bcecceda100000061b50b8661bff1565b600001518161b51657fe5b049050600061b5248661c028565b600001519050600082850290506000851461b5b8578285828161b54357fe5b041461b5b7576040517f08c379a00000000000000000000000000000000000000000000000000000000081526004018080602001828103825260168152602001807f6f766572666c6f7720783179312064657465637465640000000000000000000081525060200191505060405180910390fd5b5b600069d3c21bcecceda1000000820290506000821461b65a5769d3c21bcecceda100000082828161b5e557fe5b041461b659576040517f08c379a000000000000000000000000000000000000000000000000000000000815260040180806020018281038252601f8152602001807f6f766572666c6f772078317931202a206669786564312064657465637465640081525060200191505060405180910390fd5b5b809150600084860290506000861461b6eb578486828161b67657fe5b041461b6ea576040517f08c379a00000000000000000000000000000000000000000000000000000000081526004018080602001828103825260168152602001807f6f766572666c6f7720783279312064657465637465640000000000000000000081525060200191505060405180910390fd5b5b600084880290506000881461b779578488828161b70457fe5b041461b778576040517f08c379a00000000000000000000000000000000000000000000000000000000081526004018080602001828103825260168152602001807f6f766572666c6f7720783179322064657465637465640000000000000000000081525060200191505060405180910390fd5b5b61b78161c065565b878161b78957fe5b04965061b79461c065565b858161b79c57fe5b049450600085880290506000881461b82d578588828161b7b857fe5b041461b82c576040517f08c379a00000000000000000000000000000000000000000000000000000000081526004018080602001828103825260168152602001807f6f766572666c6f7720783279322064657465637465640000000000000000000081525060200191505060405180910390fd5b5b61b83561c57f565b604051806020016040528087815250905061b85e8160405180602001604052808781525061c072565b905061b8788160405180602001604052808681525061c072565b905061b8928160405180602001604052808581525061c072565b9050809a50505050505050505050505b92915050565b61b8b061c57f565b600083600301600001549050600081141561b8d75761b8cf600061c11b565b91505061b991565b600084600301600101549050600061b911866003016002015461b9038486619d5790919063ffffffff16565b619d5790919063ffffffff16565b9050600061b93c61b93761b928896008015461c11b565b8861b44990919063ffffffff16565b61c1a5565b90508181111561b96e5761b96b61b95c838361a6cc90919063ffffffff16565b84619d5790919063ffffffff16565b92505b61b98a8461b9858587619d5790919063ffffffff16565b61c1c6565b9450505050505b92915050565b60008160000151836000015111905092915050565b600060188260038151811061b9bd57fe5b602001015160f81c60f81b7effffffffffffffffffffffffffffffffffffffffffffffffffffffffffffff19167bffffffffffffffffffffffffffffffffffffffffffffffffffffffff1916901c60108360028151811061ba1a57fe5b602001015160f81c60f81b7effffffffffffffffffffffffffffffffffffffffffffffffffffffffffffff19167bffffffffffffffffffffffffffffffffffffffffffffffffffffffff1916901c60088460018151811061ba7757fe5b602001015160f81c60f81b7effffffffffffffffffffffffffffffffffffffffffffffffffffffffffffff19167bffffffffffffffffffffffffffffffffffffffffffffffffffffffff1916901c8460008151811061bad257fe5b602001015160f81c60f81b7effffffffffffffffffffffffffffffffffffffffffffffffffffffffffffff19161717179050919050565b600061bb3761bb3261bb1b858561c1c6565b61bb248761c11b565b61b44990919063ffffffff16565b61c1a5565b90509392505050565b600083831115829061bbed576040517f08c379a00000000000000000000000000000000000000000000000000000000081526004018080602001828103825283818151815260200191508051906020019080838360005b8381101561bbb257808201518184015260208101905061bb97565b50505050905090810190601f16801561bbdf5780820380516001836020036101000a031916815260200191505b509250505060405180910390fd5b5060008385039050809150509392505050565b61bc0861c57f565b61bc118261c208565b905061bc1b61c57f565b61bc4760196002016040518060200160405290816000820154815250508361b44990919063ffffffff16565b905061bc5161c57f565b61bcaf61bc87601960020160405180602001604052908160008201548152505061bc7961b40d565b61c26490919063ffffffff16565b601960000160405180602001604052908160008201548152505061b44990919063ffffffff16565b905061bcc4818361c07290919063ffffffff16565b60196000016000820151816000015590505061bd1b6019600101604051806020016040529081600082015481525050601960000160405180602001604052908160008201548152505061c30b90919063ffffffff16565b1561bd385760196001016019600001600082015481600001559050505b7f51131d2820f04a6b6edd20e22a07d5bf847e265a3906e85256fca7d6043417c561bd7b601960000160405180602001604052908160008201548152505061af0f565b6040518082815260200191505060405180910390a150505050565b60608183018451101561bda857600080fd5b606082156000811461bdc55760405191506020820160405261be16565b6040519150601f8416801560200281840101858101878315602002848b0101015b8183101561be03578051835260208301925060208101905061bde6565b50868552601f19601f8301166040525050505b50809150509392505050565b60008090505b815181101561bf275761be9a82828151811061be4057fe5b60200260200101516020015183838151811061be5857fe5b60200260200101516000015184848151811061be7057fe5b6020026020010151604001515185858151811061be8957fe5b60200260200101516040015161c320565b61bf0c576040517f08c379a00000000000000000000000000000000000000000000000000000000081526004018080602001828103825260198152602001807f50726f706f73616c20657865637574696f6e206661696c65640000000000000081525060200191505060405180910390fd5b61bf20600182619d5790919063ffffffff16565b905061be28565b5050565b6000808311829061bfd7576040517f08c379a00000000000000000000000000000000000000000000000000000000081526004018080602001828103825283818151815260200191508051906020019080838360005b8381101561bf9c57808201518184015260208101905061bf81565b50505050905090810190601f16801561bfc95780820380516001836020036101000a031916815260200191505b509250505060405180910390fd5b50600083858161bfe357fe5b049050809150509392505050565b61bff961c57f565b604051806020016040528069d3c21bcecceda10000008085600001518161c01c57fe5b04028152509050919050565b61c03061c57f565b604051806020016040528069d3c21bcecceda10000008085600001518161c05357fe5b04028460000151038152509050919050565b600064e8d4a51000905090565b61c07a61c57f565b600082600001518460000151019050836000015181101561c103576040517f08c379a00000000000000000000000000000000000000000000000000000000081526004018080602001828103825260158152602001807f616464206f766572666c6f77206465746563746564000000000000000000000081525060200191505060405180910390fd5b60405180602001604052808281525091505092915050565b61c12361c57f565b61c12b61c3cc565b82111561c183576040517f08c379a000000000000000000000000000000000000000000000000000000000815260040180806020018281038252603681526020018061ca626036913960400191505060405180910390fd5b604051806020016040528069d3c21bcecceda100000084028152509050919050565b600069d3c21bcecceda100000082600001518161c1be57fe5b049050919050565b61c1ce61c57f565b61c1d661c57f565b61c1df8461c11b565b905061c1e961c57f565b61c1f28461c11b565b905061c1fe828261c3eb565b9250505092915050565b61c21061c57f565b600061c24c836003016002015461c23e85600301600101548660030160000154619d5790919063ffffffff16565b619d5790919063ffffffff16565b905061c25c81846008015461c1c6565b915050919050565b61c26c61c57f565b81600001518360000151101561c2ea576040517f08c379a000000000000000000000000000000000000000000000000000000000815260040180806020018281038252601f8152602001807f737562737472616374696f6e20756e646572666c6f772064657465637465640081525060200191505060405180910390fd5b60405180602001604052808360000151856000015103815250905092915050565b60008160000151836000015110905092915050565b600080600084111561c3a85761c3358661c534565b61c3a7576040517f08c379a00000000000000000000000000000000000000000000000000000000081526004018080602001828103825260188152602001807f496e76616c696420636f6e74726163742061646472657373000000000000000081525060200191505060405180910390fd5b5b6040516020840160008287838a8c6187965a03f19250505080915050949350505050565b60007601357c299a88ea76a58924d52ce4f26a85af186c2b9e74905090565b61c3f361c57f565b60008260000151141561c46e576040517f08c379a00000000000000000000000000000000000000000000000000000000081526004018080602001828103825260118152602001807f63616e277420646976696465206279203000000000000000000000000000000081525060200191505060405180910390fd5b600069d3c21bcecceda10000008460000151029050836000015169d3c21bcecceda1000000828161c49b57fe5b041461c50f576040517f08c379a00000000000000000000000000000000000000000000000000000000081526004018080602001828103825260128152602001807f6f766572666c6f7720617420646976696465000000000000000000000000000081525060200191505060405180910390fd5b60405180602001604052808460000151838161c52757fe5b0481525091505092915050565b60008060007fc5d2460186f7233c927e7db2dcc703c0e500b653ca82273b7bfad8045d85a47060001b9050833f915080821415801561c57657506000801b8214155b92505050919050565b6040518060200160405280600081525090565b81548183558181111561c5b95781836000526020600020918201910161c5b8919061c75e565b5b505050565b604051806040016040528060008152602001600081525090565b508054600082556003029060005260206000209081019061c5f9919061c783565b50565b50805460018160011615610100020316600290046000825580601f1061c622575061c641565b601f01602090049060005260206000209081019061c640919061c75e565b5b50565b828054600181600116156101000203166002900490600052602060002090601f016020900481019282601f1061c68557805160ff191683800117855561c6b3565b8280016001018555821561c6b3579182015b8281111561c6b257825182559160200191906001019061c697565b5b50905061c6c0919061c75e565b5090565b604051806101000160405280600073ffffffffffffffffffffffffffffffffffffffff168152602001600081526020016000815260200161c70361c7e1565b81526020016060815260200160001515815260200160008152602001606081525090565b604051806060016040528060008152602001600073ffffffffffffffffffffffffffffffffffffffff168152602001606081525090565b61c78091905b8082111561c77c57600081600090555060010161c764565b5090565b90565b61c7de91905b8082111561c7da576000808201600090556001820160006101000a81549073ffffffffffffffffffffffffffffffffffffffff021916905560028201600061c7d1919061c802565b5060030161c789565b5090565b90565b60405180606001604052806000815260200160008152602001600081525090565b50805460018160011615610100020316600290046000825580601f1061c828575061c847565b601f01602090049060005260206000209081019061c846919061c75e565b5b5056fe686f74666978206d75737420626520707265706172656420666f7220746869732065706f63685175657565457870697279206d757374206265206c6172676572207468616e203050617274696369706174696f6e20626173656c696e652067726561746572207468616e206f6e654e756d626572206f662070726f706f73616c73206d757374206265206c6172676572207468616e207a65726f4f776e61626c653a206e6577206f776e657220697320746865207a65726f20616464726573734465736372697074696f6e2075726c206d7573742068617665206e6f6e2d7a65726f206c656e677468426173656c696e652071756f72756d20666163746f722067726561746572207468616e206f6e655468726573686f6c642068617320746f2062652067726561746572207468616e206d616a6f7269747920616e64206e6f742067726561746572207468616e20756e616e696d69747950617274696369706174696f6e20626173656c696e6520666c6f6f7220756e6368616e676564416464726573733a20756e61626c6520746f2073656e642076616c75652c20726563697069656e74206d61792068617665207265766572746564426173656c696e652075706461746520666163746f722067726561746572207468616e206f6e656572726f722063616c6c696e672067657456657269666965645365616c4269746d617046726f6d48656164657220707265636f6d70696c6563616e277420637265617465206669786964697479206e756d626572206c6172676572207468616e206d61784e65774669786564282963616e6e6f74207570766f746520612070726f706f73616c206e6f7420696e207468652071756575656572726f722063616c6c696e672076616c696461746f725369676e65724164647265737346726f6d53657420707265636f6d70696c6550726f706f73616c206e6f7420696e20657865637574696f6e207374616765206f72206e6f742070617373696e67646571756575654672657175656e6379206d757374206265206c6172676572207468616e2030536166654d6174683a206d756c7469706c69636174696f6e206f766572666c6f77686f74666978206e6f742077686974656c69737465642062792032662b312076616c696461746f727363616e6e6f74207570766f746520776974686f7574206c6f636b696e6720676f6c646572726f722063616c6c696e67206672616374696f6e4d756c45787020707265636f6d70696c65686f7466697820616c726561647920707265706172656420666f7220746869732065706f63686572726f722063616c6c696e672067657445706f636853697a6520707265636f6d70696c6550617274696369706174696f6e20666c6f6f722067726561746572207468616e206f6e656572726f722063616c6c696e6720676574506172656e745365616c4269746d617020707265636f6d70696c656572726f722063616c6c696e6720676574426c6f636b4e756d62657246726f6d48656164657220707265636f6d70696c6563616e6e6f74207570766f7465206d6f7265207468616e206f6e65207175657565642070726f706f73616c566f74657220646f65736e2774206861766520656e6f756768206c6f636b65642043656c6f2028666f726d65726c79206b6e6f776e2061732043656c6f20476f6c64296572726f722063616c6c696e67206861736848656164657220707265636f6d70696c6550726f766964656420696e6465782067726561746572207468616e2064657175657565206c656e6774682ea265627a7a723158201c2d28020f18855bfa8d9dcffda016230736b02c7ff1513498a6764a2b233b2664736f6c634300050d0032",
  "source": "pragma solidity ^0.5.13;\n\nimport \"../Governance.sol\";\n\ncontract GovernanceTest is Governance(true) {\n  address[] validatorSet;\n\n  // Minimally override core functions from UsingPrecompiles\n  function numberValidatorsInCurrentSet() public view returns (uint256) {\n    return validatorSet.length;\n  }\n\n  function numberValidatorsInSet(uint256) public view returns (uint256) {\n    return validatorSet.length;\n  }\n\n  function validatorSignerAddressFromCurrentSet(uint256 index) public view returns (address) {\n    return validatorSet[index];\n  }\n\n  // Expose test utilities\n  function addValidator(address validator) external {\n    validatorSet.push(validator);\n  }\n\n  // exposes removeVotesWhenRevokingDelegatedVotes for tests\n  function removeVotesWhenRevokingDelegatedVotesTest(address account, uint256 maxAmountAllowed)\n    public\n  {\n    _removeVotesWhenRevokingDelegatedVotes(account, maxAmountAllowed);\n  }\n\n  function setDeprecatedWeight(address voterAddress, uint256 proposalIndex, uint256 weight)\n    external\n  {\n    Voter storage voter = voters[voterAddress];\n    VoteRecord storage voteRecord = voter.referendumVotes[proposalIndex];\n    voteRecord.deprecated_weight = weight;\n  }\n}\n",
  "compiler": {
    "name": "solc",
    "version": "0.5.13+commit.5b0b510c.Emscripten.clang"
  },
  "schemaVersion": "3.4.13",
  "updatedAt": "2023-11-21T17:25:03.734Z",
  "networkType": "ethereum",
  "devdoc": {
    "methods": {
      "approve(uint256,uint256)": {
        "params": {
          "index": "The index of the proposal ID in `dequeued`.",
          "proposalId": "The ID of the proposal to approve."
        },
        "return": "Whether or not the approval was made successfully."
      },
      "approveHotfix(bytes32)": {
        "params": {
          "hash": "The abi encoded keccak256 hash of the hotfix transaction(s) to be approved."
        }
      },
      "checkProofOfPossession(address,bytes,bytes)": {
        "params": {
          "blsKey": "The BLS public key that the validator is using for consensus, should pass proof  of possession. 48 bytes.",
          "blsPop": "The BLS public key proof-of-possession, which consists of a signature on the  account address. 96 bytes.",
          "sender": "The address signed by the BLS key to generate the proof of possession."
        },
        "return": "True upon success."
      },
      "dequeueProposalsIfReady()": {
        "details": "If any of the top proposals have expired, they are deleted."
      },
      "execute(uint256,uint256)": {
        "details": "Does not remove the proposal if the execution fails.",
        "params": {
          "index": "The index of the proposal ID in `dequeued`.",
          "proposalId": "The ID of the proposal to vote on."
        },
        "return": "Whether or not the proposal was executed successfully."
      },
      "executeHotfix(uint256[],address[],bytes,uint256[],bytes32)": {
        "details": "Reverts if hotfix is already executed, not approved, or not prepared for current epoch.",
        "params": {
          "data": "The concatenated data to be included in the proposed transactions.",
          "dataLengths": "The lengths of each transaction's data.",
          "destinations": "The destination addresses of the proposed transactions.",
          "salt": "Arbitrary salt associated with hotfix which guarantees uniqueness of hash.",
          "values": "The values of CELO to be sent in the proposed transactions."
        }
      },
      "fractionMulExp(uint256,uint256,uint256,uint256,uint256,uint256)": {
        "params": {
          "_decimals": "precision",
          "aDenominator": "Denominator of first fraction",
          "aNumerator": "Numerator of first fraction",
          "bDenominator": "Denominator of exponentiated fraction",
          "bNumerator": "Numerator of exponentiated fraction",
          "exponent": "exponent to raise b to"
        },
        "return": "Numerator of the computed quantity (not reduced).Denominator of the computed quantity (not reduced)."
      },
      "getAmountOfGoldUsedForVoting(address)": {
        "params": {
          "account": "The address of the account."
        },
        "return": "The total number of votes cast by an account."
      },
      "getBlockNumberFromHeader(bytes)": {
        "params": {
          "header": "RLP encoded header"
        },
        "return": "Block number."
      },
      "getConstitution(address,bytes4)": {
        "params": {
          "destination": "The destination address to get the constitution for.",
          "functionId": "The function ID to get the constitution for, zero for the destination  default."
        },
        "return": "The ratio of yes:no votes needed to exceed in order to pass the proposal."
      },
      "getDequeue()": {
        "details": "Note that this includes unused indices with proposalId == 0 from deleted proposals.",
        "return": "The dequeued proposal IDs."
      },
      "getEpochNumber()": {
        "return": "Current epoch number."
      },
      "getEpochNumberOfBlock(uint256)": {
        "params": {
          "blockNumber": "Block number where epoch number is calculated."
        },
        "return": "Epoch number."
      },
      "getEpochSize()": {
        "return": "The current epoch size in blocks."
      },
      "getExecutionStageDuration()": {
        "return": "The number of seconds proposals stay in the execution stage."
      },
      "getHotfixRecord(bytes32)": {
        "params": {
          "hash": "The abi encoded keccak256 hash of the hotfix transaction."
        },
        "return": "Hotfix approved.Hotfix executed.Hotfix preparedEpoch."
      },
      "getMostRecentReferendumProposal(address)": {
        "params": {
          "account": "The address of the account."
        },
        "return": "The ID of the most recently dequeued proposal voted on by `account`.."
      },
      "getParentSealBitmap(uint256)": {
        "params": {
          "blockNumber": "Block number to retrieve. Must be within 4 epochs of the current number."
        },
        "return": "Bitmap parent seal with set bits at indices corresponding to signing validators."
      },
      "getParticipationParameters()": {
        "return": "baseline The participation baseline parameter.baselineFloor The participation baseline floor parameter.baselineUpdateFactor The participation baseline update factor parameter.baselineQuorumFactor The participation baseline quorum factor parameter."
      },
      "getProposal(uint256)": {
        "params": {
          "proposalId": "The ID of the proposal to unpack."
        },
        "return": "proposerdeposittimestamptransaction Transaction count.description Description url."
      },
      "getProposalStage(uint256)": {
        "params": {
          "proposalId": "The ID of the proposal to query."
        },
        "return": "proposal stage"
      },
      "getProposalTransaction(uint256,uint256)": {
        "params": {
          "index": "The index of the specified transaction in the proposal's transaction list.",
          "proposalId": "The ID of the proposal to query."
        },
        "return": "value Transaction value.destination Transaction destination.data Transaction data."
      },
      "getQueue()": {
        "details": "Note that this includes expired proposals that have yet to be removed from the queue.",
        "return": "proposalID The proposal ID for all queued proposals.total The upvote total for all queued proposals."
      },
      "getQueueLength()": {
        "return": "The number of proposals in the queue."
      },
      "getReferendumStageDuration()": {
        "return": "The number of seconds proposals stay in the referendum stage."
      },
      "getUpvoteRecord(address)": {
        "params": {
          "account": "The address of the account."
        },
        "return": "The ID of the proposal upvoted by `account`.The weight of that upvote."
      },
      "getUpvotes(uint256)": {
        "params": {
          "proposalId": "The ID of the proposal."
        },
        "return": "The number of upvotes a queued proposal has received."
      },
      "getVerifiedSealBitmapFromHeader(bytes)": {
        "params": {
          "header": "RLP encoded header"
        },
        "return": "Bitmap parent seal with set bits at indices correspoinding to signing validators."
      },
      "getVersionNumber()": {
        "return": "Storage version of the contract.Major version of the contract.Minor version of the contract.Patch version of the contract."
      },
      "getVoteRecord(address,uint256)": {
        "params": {
          "account": "The address of the account to get the record for.",
          "index": "The index in `dequeued`."
        },
        "return": "The corresponding proposal ID, vote value, and weight.The depreciated vote value.The deprecieated weight.The yes weight.The no weight.The abstain weight."
      },
      "getVoteTotals(uint256)": {
        "params": {
          "proposalId": "The ID of the proposal."
        },
        "return": "yes The yes vote totals.no The no vote totals.abstain The abstain vote totals."
      },
      "hashHeader(bytes)": {
        "params": {
          "header": "RLP encoded header"
        },
        "return": "Header hash."
      },
      "hotfixWhitelistValidatorTally(bytes32)": {
        "params": {
          "hash": "The abi encoded keccak256 hash of the hotfix transaction."
        },
        "return": "Whitelist tally"
      },
      "initialize(address,address,uint256,uint256,uint256,uint256,uint256,uint256,uint256,uint256,uint256,uint256)": {
        "details": "Should be called only once.",
        "params": {
          "_approver": "The address that needs to approve proposals to move to the referendum stage.",
          "_concurrentProposals": "The number of proposals to dequeue at once.",
          "_dequeueFrequency": "The number of seconds before the next batch of proposals can be  dequeued.",
          "_minDeposit": "The minimum CELO deposit needed to make a proposal.",
          "_queueExpiry": "The number of seconds a proposal can stay in the queue before expiring.",
          "baselineQuorumFactor": "The proportion of the baseline that constitutes quorum.",
          "baselineUpdateFactor": "The weight of the new participation in the baseline update rule.",
          "executionStageDuration": "The number of seconds users have to execute a passed proposal  after the referendum stage ends.",
          "participationBaseline": "The initial value of the participation baseline.",
          "participationFloor": "The participation floor.",
          "referendumStageDuration": "The number of seconds users have to vote on a dequeued proposal  after the approval stage ends.",
          "registryAddress": "The address of the registry contract."
        }
      },
      "isApproved(uint256)": {
        "params": {
          "proposalId": "The ID of the proposal."
        },
        "return": "Whether or not the proposal has been approved."
      },
      "isDequeuedProposal(uint256,uint256)": {
        "params": {
          "index": "The index of the proposal ID in `dequeued`.",
          "proposalId": "The ID of the proposal."
        },
        "return": "Whether the proposal is in `dequeued`."
      },
      "isDequeuedProposalExpired(uint256)": {
        "params": {
          "proposalId": "The ID of the proposal."
        },
        "return": "Whether or not the dequeued proposal has expired."
      },
      "isHotfixPassing(bytes32)": {
        "params": {
          "hash": "The abi encoded keccak256 hash of the hotfix transaction."
        },
        "return": "Whether validator whitelist tally >= validator byzantine quorum"
      },
      "isHotfixWhitelistedBy(bytes32,address)": {
        "params": {
          "hash": "The abi encoded keccak256 hash of the hotfix transaction(s) to be whitelisted.",
          "whitelister": "Address to check whitelist status of."
        }
      },
      "isOwner()": {
        "details": "Returns true if the caller is the current owner."
      },
      "isProposalPassing(uint256)": {
        "params": {
          "proposalId": "The ID of the proposal."
        },
        "return": "Whether or not the proposal is passing."
      },
      "isQueued(uint256)": {
        "details": "NOTE: proposal may be expired",
        "params": {
          "proposalId": "The ID of the proposal."
        },
        "return": "Whether or not the proposal is in the queue."
      },
      "isQueuedProposalExpired(uint256)": {
        "params": {
          "proposalId": "The ID of the proposal."
        },
        "return": "Whether or not the dequeued proposal has expired."
      },
      "isVoting(address)": {
        "params": {
          "account": "The address of the account."
        },
        "return": "Whether or not the account is voting on proposals."
      },
      "minQuorumSize(uint256)": {
        "details": "Computed in celo-blockchain as int(math.Ceil(float64(2*valSet.Size()) / 3))"
      },
      "minQuorumSizeInCurrentSet()": {
        "return": "Byzantine quorum of validators."
      },
      "owner()": {
        "details": "Returns the address of the current owner."
      },
      "prepareHotfix(bytes32)": {
        "params": {
          "hash": "The hash of the hotfix to be prepared."
        }
      },
      "proposalExists(uint256)": {
        "params": {
          "proposalId": "The ID of the proposal."
        },
        "return": "Whether or not the proposal exists."
      },
      "propose(uint256[],address[],bytes,uint256[],string)": {
        "details": "The minimum deposit must be included with the proposal, returned if/when the proposal is  dequeued.",
        "params": {
          "data": "The concatenated data to be included in the proposed transactions.",
          "dataLengths": "The lengths of each transaction's data.",
          "destinations": "The destination addresses of the proposed transactions.",
          "values": "The values of CELO to be sent in the proposed transactions."
        },
        "return": "The ID of the newly proposed proposal."
      },
      "removeVotesWhenRevokingDelegatedVotes(address,uint256)": {
        "params": {
          "account": "The address of the account.",
          "newVotingPower": "The adjusted voting power of delegatee."
        }
      },
      "renounceOwnership()": {
        "details": "Leaves the contract without owner. It will not be possible to call `onlyOwner` functions anymore. Can only be called by the current owner.     * NOTE: Renouncing ownership will leave the contract without an owner, thereby removing any functionality that is only available to the owner."
      },
      "revokeUpvote(uint256,uint256)": {
        "details": "Provide 0 for `lesser`/`greater` when the proposal will be at the tail/head of the queue.",
        "params": {
          "greater": "The ID of the proposal that will be just ahead of the previously upvoted  proposal in the queue.",
          "lesser": "The ID of the proposal that will be just behind the previously upvoted proposal  in the queue."
        },
        "return": "Whether or not the upvote was revoked successfully."
      },
      "revokeVotes()": {
        "return": "Whether or not all votes of an account were successfully revoked."
      },
      "setApprover(address)": {
        "params": {
          "_approver": "The address that has permission to approve proposals in the approval stage."
        }
      },
      "setBaselineQuorumFactor(uint256)": {
        "params": {
          "baselineQuorumFactor": "The new baseline quorum factor."
        }
      },
      "setBaselineUpdateFactor(uint256)": {
        "params": {
          "baselineUpdateFactor": "The new baseline update factor."
        }
      },
      "setConcurrentProposals(uint256)": {
        "params": {
          "_concurrentProposals": "The number of proposals to dequeue at at a time."
        }
      },
      "setConstitution(address,bytes4,uint256)": {
        "details": "If no constitution is explicitly set the default is a simple majority, i.e. 1:2.",
        "params": {
          "destination": "The destination of proposals for which this threshold should apply.",
          "functionId": "The function ID of proposals for which this threshold should apply. Zero  will set the default.",
          "threshold": "The threshold."
        }
      },
      "setDequeueFrequency(uint256)": {
        "params": {
          "_dequeueFrequency": "The number of seconds before the next batch of proposals can be  dequeued."
        }
      },
      "setExecutionStageDuration(uint256)": {
        "params": {
          "executionStageDuration": "The number of seconds proposals stay in the execution stage."
        }
      },
      "setMinDeposit(uint256)": {
        "params": {
          "_minDeposit": "The minimum CELO deposit needed to make a proposal."
        }
      },
      "setParticipationBaseline(uint256)": {
        "params": {
          "participationBaseline": "The value of the baseline."
        }
      },
      "setParticipationFloor(uint256)": {
        "params": {
          "participationFloor": "The value at which the baseline is floored."
        }
      },
      "setQueueExpiry(uint256)": {
        "params": {
          "_queueExpiry": "The number of seconds a proposal can stay in the queue before expiring."
        }
      },
      "setReferendumStageDuration(uint256)": {
        "params": {
          "referendumStageDuration": "The number of seconds proposals stay in the referendum stage."
        }
      },
      "setRegistry(address)": {
        "params": {
          "registryAddress": "The address of a registry contract for routing to other contracts."
        }
      },
      "transferOwnership(address)": {
        "details": "Transfers ownership of the contract to a new account (`newOwner`). Can only be called by the current owner."
      },
      "upvote(uint256,uint256,uint256)": {
        "details": "Provide 0 for `lesser`/`greater` when the proposal will be at the tail/head of the queue.Reverts if the account has already upvoted a proposal in the queue.",
        "params": {
          "greater": "The ID of the proposal that will be just ahead `proposalId` in the queue.",
          "lesser": "The ID of the proposal that will be just behind `proposalId` in the queue.",
          "proposalId": "The ID of the proposal to upvote."
        },
        "return": "Whether or not the upvote was made successfully."
      },
      "validatorSignerAddressFromSet(uint256,uint256)": {
        "params": {
          "blockNumber": "Block number to retrieve the validator set from.",
          "index": "Index of requested validator in the validator set."
        },
        "return": "Address of validator at the requested index."
      },
      "vote(uint256,uint256,uint8)": {
        "params": {
          "index": "The index of the proposal ID in `dequeued`.",
          "proposalId": "The ID of the proposal to vote on.",
          "value": "Whether to vote yes, no, or abstain."
        },
        "return": "Whether or not the vote was cast successfully."
      },
      "votePartially(uint256,uint256,uint256,uint256,uint256)": {
        "params": {
          "abstainVotes": "The abstain votes weight.",
          "index": "The index of the proposal ID in `dequeued`.",
          "noVotes": "The no votes weight.",
          "proposalId": "The ID of the proposal to vote on.",
          "yesVotes": "The yes votes weight."
        },
        "return": "Whether or not the vote was cast successfully."
      },
      "whitelistHotfix(bytes32)": {
        "params": {
          "hash": "The abi encoded keccak256 hash of the hotfix transaction(s) to be whitelisted."
        }
      },
      "withdraw()": {
        "return": "Whether or not the withdraw was successful."
      }
    }
  },
  "userdoc": {
    "methods": {
      "approve(uint256,uint256)": {
        "notice": "Approves a proposal in the approval stage."
      },
      "approveHotfix(bytes32)": {
        "notice": "Approves the hash of a hotfix transaction(s)."
      },
      "checkProofOfPossession(address,bytes,bytes)": {
        "notice": "Checks a BLS proof of possession."
      },
      "dequeueProposalsIfReady()": {
        "notice": "Removes the proposals with the most upvotes from the queue, moving them to the  approval stage."
      },
      "execute(uint256,uint256)": {
        "notice": "Executes a proposal in the execution stage, removing it from `dequeued`."
      },
      "executeHotfix(uint256[],address[],bytes,uint256[],bytes32)": {
        "notice": "Executes a whitelisted proposal."
      },
      "fractionMulExp(uint256,uint256,uint256,uint256,uint256,uint256)": {
        "notice": "calculate a * b^x for fractions a, b to `decimals` precision"
      },
      "getAmountOfGoldUsedForVoting(address)": {
        "notice": "Returns max number of votes cast by an account."
      },
      "getBlockNumberFromHeader(bytes)": {
        "notice": "Parses block number out of header."
      },
      "getConstitution(address,bytes4)": {
        "notice": "Returns the constitution for a particular destination and function ID."
      },
      "getDequeue()": {
        "notice": "Returns the dequeued proposal IDs."
      },
      "getEpochNumber()": {
        "notice": "Returns the epoch number at a block."
      },
      "getEpochNumberOfBlock(uint256)": {
        "notice": "Returns the epoch number at a block."
      },
      "getEpochSize()": {
        "notice": "Returns the current epoch size in blocks."
      },
      "getExecutionStageDuration()": {
        "notice": "Returns the number of seconds proposals stay in the execution stage."
      },
      "getHotfixRecord(bytes32)": {
        "notice": "Gets information about a hotfix."
      },
      "getMostRecentReferendumProposal(address)": {
        "notice": "Returns the ID of the most recently dequeued proposal voted on by `account`."
      },
      "getParentSealBitmap(uint256)": {
        "notice": "Gets the parent seal bitmap from the header at the given block number."
      },
      "getParticipationParameters()": {
        "notice": "Returns the participation parameters."
      },
      "getProposal(uint256)": {
        "notice": "Returns an unpacked proposal struct with its transaction count."
      },
      "getProposalStage(uint256)": {
        "notice": "Returns stage of governance process given proposal is in"
      },
      "getProposalTransaction(uint256,uint256)": {
        "notice": "Returns a specified transaction in a proposal."
      },
      "getQueue()": {
        "notice": "Returns the proposal ID and upvote total for all queued proposals."
      },
      "getQueueLength()": {
        "notice": "Returns the number of proposals in the queue."
      },
      "getReferendumStageDuration()": {
        "notice": "Returns the number of seconds proposals stay in the referendum stage."
      },
      "getUpvoteRecord(address)": {
        "notice": "Returns the ID of the proposal upvoted by `account` and the weight of that upvote."
      },
      "getUpvotes(uint256)": {
        "notice": "Returns the number of upvotes the queued proposal has received."
      },
      "getVerifiedSealBitmapFromHeader(bytes)": {
        "notice": "Verifies the BLS signature on the header and returns the seal bitmap. The validator set used for verification is retrieved based on the parent hash field of the header.  If the parent hash is not in the blockchain, verification fails."
      },
      "getVersionNumber()": {
        "notice": "Returns the storage, major, minor, and patch version of the contract."
      },
      "getVoteRecord(address,uint256)": {
        "notice": "Returns an accounts vote record on a particular index in `dequeued`."
      },
      "getVoteTotals(uint256)": {
        "notice": "Returns the referendum vote totals for a proposal."
      },
      "hashHeader(bytes)": {
        "notice": "Computes hash of header."
      },
      "hotfixWhitelistValidatorTally(bytes32)": {
        "notice": "Returns number of validators from current set which have whitelisted the given hotfix."
      },
      "initialize(address,address,uint256,uint256,uint256,uint256,uint256,uint256,uint256,uint256,uint256,uint256)": {
        "notice": "Used in place of the constructor to allow the contract to be upgradable via proxy."
      },
      "isApproved(uint256)": {
        "notice": "Returns whether or not a proposal has been approved."
      },
      "isDequeuedProposal(uint256,uint256)": {
        "notice": "Returns whether a proposal is dequeued at the given index."
      },
      "isDequeuedProposalExpired(uint256)": {
        "notice": "Returns whether or not a dequeued proposal has expired."
      },
      "isHotfixPassing(bytes32)": {
        "notice": "Checks if a byzantine quorum of validators has whitelisted the given hotfix."
      },
      "isHotfixWhitelistedBy(bytes32,address)": {
        "notice": "Returns whether given hotfix hash has been whitelisted by given address."
      },
      "isProposalPassing(uint256)": {
        "notice": "Returns whether or not a particular proposal is passing according to the constitution  and the participation levels."
      },
      "isQueued(uint256)": {
        "notice": "Returns whether or not a proposal is in the queue."
      },
      "isQueuedProposalExpired(uint256)": {
        "notice": "Returns whether or not a queued proposal has expired."
      },
      "isVoting(address)": {
        "notice": "Returns whether or not a particular account is voting on proposals."
      },
      "minQuorumSize(uint256)": {
        "notice": "Returns the minimum number of required signers for a given block number."
      },
      "minQuorumSizeInCurrentSet()": {
        "notice": "Computes byzantine quorum from current validator set size"
      },
      "prepareHotfix(bytes32)": {
        "notice": "Gives hotfix a prepared epoch for execution."
      },
      "proposalExists(uint256)": {
        "notice": "Returns whether or not a proposal exists."
      },
      "propose(uint256[],address[],bytes,uint256[],string)": {
        "notice": "Creates a new proposal and adds it to end of the queue with no upvotes."
      },
      "removeVotesWhenRevokingDelegatedVotes(address,uint256)": {
        "notice": "When delegator removes votes from delegatee during the time when delegator is voting for governance proposal, this method will remove votes from voted proposal proportionally."
      },
      "revokeUpvote(uint256,uint256)": {
        "notice": "Revokes an upvote on a queued proposal."
      },
      "revokeVotes()": {
        "notice": "Revoke votes on all proposals of sender in the referendum stage."
      },
      "setApprover(address)": {
        "notice": "Updates the address that has permission to approve proposals in the approval stage."
      },
      "setBaselineQuorumFactor(uint256)": {
        "notice": "Updates the proportion of the baseline that constitutes quorum."
      },
      "setBaselineUpdateFactor(uint256)": {
        "notice": "Updates the weight of the new participation in the baseline update rule."
      },
      "setConcurrentProposals(uint256)": {
        "notice": "Updates the number of proposals to dequeue at a time."
      },
      "setConstitution(address,bytes4,uint256)": {
        "notice": "Updates the ratio of yes:yes+no votes needed for a specific class of proposals to pass."
      },
      "setDequeueFrequency(uint256)": {
        "notice": "Updates the minimum number of seconds before the next batch of proposals can be  dequeued."
      },
      "setExecutionStageDuration(uint256)": {
        "notice": "Updates the number of seconds proposals stay in the execution stage."
      },
      "setMinDeposit(uint256)": {
        "notice": "Updates the minimum deposit needed to make a proposal."
      },
      "setParticipationBaseline(uint256)": {
        "notice": "Updates the participation baseline."
      },
      "setParticipationFloor(uint256)": {
        "notice": "Updates the floor of the participation baseline."
      },
      "setQueueExpiry(uint256)": {
        "notice": "Updates the number of seconds before a queued proposal expires."
      },
      "setReferendumStageDuration(uint256)": {
        "notice": "Updates the number of seconds proposals stay in the referendum stage."
      },
      "setRegistry(address)": {
        "notice": "Updates the address pointing to a Registry contract."
      },
      "upvote(uint256,uint256,uint256)": {
        "notice": "Upvotes a queued proposal."
      },
      "validatorSignerAddressFromSet(uint256,uint256)": {
        "notice": "Gets a validator address from the validator set at the given block number."
      },
      "vote(uint256,uint256,uint8)": {
        "notice": "Votes on a proposal in the referendum stage."
      },
      "votePartially(uint256,uint256,uint256,uint256,uint256)": {
        "notice": "Votes partially on a proposal in the referendum stage."
      },
      "whitelistHotfix(bytes32)": {
        "notice": "Whitelists the hash of a hotfix transaction(s)."
      },
      "withdraw()": {
        "notice": "Withdraws refunded CELO deposits."
      }
    }
  }
}