{
  "contractName": "IdentityProxy",
  "abi": [
    {
      "inputs": [],
      "payable": false,
      "stateMutability": "nonpayable",
      "type": "constructor"
    },
    {
      "constant": true,
      "inputs": [],
      "name": "deployer",
      "outputs": [
        {
          "internalType": "address",
          "name": "",
          "type": "address"
        }
      ],
      "payable": false,
      "stateMutability": "view",
      "type": "function"
    },
    {
      "constant": false,
      "inputs": [
        {
          "internalType": "address",
          "name": "destination",
          "type": "address"
        },
        {
          "internalType": "bytes",
          "name": "data",
          "type": "bytes"
        }
      ],
      "name": "makeCall",
      "outputs": [
        {
          "internalType": "bytes",
          "name": "",
          "type": "bytes"
        }
      ],
      "payable": true,
      "stateMutability": "payable",
      "type": "function"
    }
  ],
  "bytecode": "0x608060405234801561001057600080fd5b50336000806101000a81548173ffffffffffffffffffffffffffffffffffffffff021916908373ffffffffffffffffffffffffffffffffffffffff160217905550610524806100606000396000f3fe6080604052600436106100295760003560e01c80631cb9ce631461002e578063d5f3948814610140575b600080fd5b6100c56004803603604081101561004457600080fd5b81019080803573ffffffffffffffffffffffffffffffffffffffff1690602001909291908035906020019064010000000081111561008157600080fd5b82018360208201111561009357600080fd5b803590602001918460018302840111640100000000831117156100b557600080fd5b9091929391929390505050610197565b6040518080602001828103825283818151815260200191508051906020019080838360005b838110156101055780820151818401526020810190506100ea565b50505050905090810190601f1680156101325780820380516001836020036101000a031916815260200191505b509250505060405180910390f35b34801561014c57600080fd5b50610155610296565b604051808273ffffffffffffffffffffffffffffffffffffffff1673ffffffffffffffffffffffffffffffffffffffff16815260200191505060405180910390f35b60606000809054906101000a900473ffffffffffffffffffffffffffffffffffffffff1673ffffffffffffffffffffffffffffffffffffffff163373ffffffffffffffffffffffffffffffffffffffff161461023e576040517f08c379a00000000000000000000000000000000000000000000000000000000081526004018080602001828103825260228152602001806104ce6022913960400191505060405180910390fd5b61028d843485858080601f016020809104026020016040519081016040528093929190818152602001838380828437600081840152601f19601f820116905080830192505050505050506102bb565b90509392505050565b6000809054906101000a900473ffffffffffffffffffffffffffffffffffffffff1681565b6060600082511115610343576102d084610482565b610342576040517f08c379a00000000000000000000000000000000000000000000000000000000081526004018080602001828103825260188152602001807f496e76616c696420636f6e74726163742061646472657373000000000000000081525060200191505060405180910390fd5b5b600060608573ffffffffffffffffffffffffffffffffffffffff1685856040518082805190602001908083835b602083106103935780518252602082019150602081019050602083039250610370565b6001836020036101000a03801982511681845116808217855250505050505090500191505060006040518083038185875af1925050503d80600081146103f5576040519150601f19603f3d011682016040523d82523d6000602084013e6103fa565b606091505b50809250819350505081610476576040517f08c379a000000000000000000000000000000000000000000000000000000000815260040180806020018281038252601d8152602001807f5472616e73616374696f6e20657865637574696f6e206661696c65642e00000081525060200191505060405180910390fd5b80925050509392505050565b60008060007fc5d2460186f7233c927e7db2dcc703c0e500b653ca82273b7bfad8045d85a47060001b9050833f91508082141580156104c457506000801b8214155b9250505091905056fe4f6e6c792063616c6c61626c65206279206f726967696e616c206465706c6f796572a265627a7a723158206c4f1a43a59831af7b45b14445caeff596e54cdc752fc84eeddd34f55670c3a264736f6c634300050d0032",
  "source": "pragma solidity ^0.5.13;\n\nimport \"../common/ExternalCall.sol\";\n\ncontract IdentityProxy {\n  address public deployer;\n\n  constructor() public {\n    deployer = msg.sender;\n  }\n\n  modifier onlyDeployer() {\n    require(msg.sender == deployer, \"Only callable by original deployer\");\n    _;\n  }\n\n  /**\n   * @notice Performs an arbitrary call.\n   * @param destination The address to call.\n   * @param data The calldata to send with the call.\n   * @dev This can only be called by the deployer of this contract, presumably\n   * the IdentityProxyHub after it checks the identity heuristic.\n   * @return The return value of the external call.\n   */\n  function makeCall(address destination, bytes calldata data)\n    external\n    payable\n    onlyDeployer\n    returns (bytes memory)\n  {\n    return ExternalCall.execute(destination, msg.value, data);\n  }\n}\n",
  "compiler": {
    "name": "solc",
    "version": "0.5.13+commit.5b0b510c.Emscripten.clang"
  },
  "schemaVersion": "3.4.13",
  "updatedAt": "2023-11-21T17:21:12.666Z",
  "devdoc": {
    "methods": {
      "makeCall(address,bytes)": {
        "details": "This can only be called by the deployer of this contract, presumably the IdentityProxyHub after it checks the identity heuristic.",
        "params": {
          "data": "The calldata to send with the call.",
          "destination": "The address to call."
        },
        "return": "The return value of the external call."
      }
    }
  },
  "userdoc": {
    "methods": {
      "makeCall(address,bytes)": {
        "notice": "Performs an arbitrary call."
      }
    }
  }
}