{
  "contractName": "InitializableProxy",
  "abi": [
    {
      "inputs": [],
      "payable": false,
      "stateMutability": "nonpayable",
      "type": "constructor"
    },
    {
      "anonymous": false,
      "inputs": [
        {
          "indexed": true,
          "internalType": "address",
          "name": "implementation",
          "type": "address"
        }
      ],
      "name": "ImplementationSet",
      "type": "event"
    },
    {
      "anonymous": false,
      "inputs": [
        {
          "indexed": true,
          "internalType": "address",
          "name": "owner",
          "type": "address"
        }
      ],
      "name": "OwnerSet",
      "type": "event"
    },
    {
      "payable": true,
      "stateMutability": "payable",
      "type": "fallback"
    },
    {
      "constant": true,
      "inputs": [],
      "name": "_getImplementation",
      "outputs": [
        {
          "internalType": "address",
          "name": "implementation",
          "type": "address"
        }
      ],
      "payable": false,
      "stateMutability": "view",
      "type": "function"
    },
    {
      "constant": true,
      "inputs": [],
      "name": "_getOwner",
      "outputs": [
        {
          "internalType": "address",
          "name": "owner",
          "type": "address"
        }
      ],
      "payable": false,
      "stateMutability": "view",
      "type": "function"
    },
    {
      "constant": false,
      "inputs": [
        {
          "internalType": "address",
          "name": "implementation",
          "type": "address"
        },
        {
          "internalType": "bytes",
          "name": "callbackData",
          "type": "bytes"
        }
      ],
      "name": "_setAndInitializeImplementation",
      "outputs": [],
      "payable": true,
      "stateMutability": "payable",
      "type": "function"
    },
    {
      "constant": false,
      "inputs": [
        {
          "internalType": "address",
          "name": "implementation",
          "type": "address"
        }
      ],
      "name": "_setImplementation",
      "outputs": [],
      "payable": false,
      "stateMutability": "nonpayable",
      "type": "function"
    },
    {
      "constant": false,
      "inputs": [
        {
          "internalType": "address",
          "name": "newOwner",
          "type": "address"
        }
      ],
      "name": "_transferOwnership",
      "outputs": [],
      "payable": false,
      "stateMutability": "nonpayable",
      "type": "function"
    },
    {
      "constant": false,
      "inputs": [
        {
          "internalType": "address",
          "name": "owner",
          "type": "address"
        }
      ],
      "name": "_initialize",
      "outputs": [],
      "payable": false,
      "stateMutability": "nonpayable",
      "type": "function"
    }
  ],
  "bytecode": "0x608060405234801561001057600080fd5b506100203361003560201b60201c565b610030600161003560201b60201c565b610165565b600073ffffffffffffffffffffffffffffffffffffffff168173ffffffffffffffffffffffffffffffffffffffff1614156100d8576040517f08c379a00000000000000000000000000000000000000000000000000000000081526004018080602001828103825260118152602001807f6f776e65722063616e6e6f74206265203000000000000000000000000000000081525060200191505060405180910390fd5b6000600160405180807f656970313936372e70726f78792e61646d696e000000000000000000000000008152506013019050604051809103902060001c0360001b90508181558173ffffffffffffffffffffffffffffffffffffffff167f50146d0e3c60aa1d17a70635b05494f864e86144a2201275021014fbf08bafe260405160405180910390a25050565b610b33806101746000396000f3fe6080604052600436106100555760003560e01c806303386ba3146101f2578063319775c41461028b57806342404e07146102dc578063bb913f4114610333578063d29d44ee14610384578063f7e6af80146103d5575b6000600160405180807f656970313936372e70726f78792e696d706c656d656e746174696f6e00000000815250601c019050604051809103902060001c0360001b9050600081549050600073ffffffffffffffffffffffffffffffffffffffff168173ffffffffffffffffffffffffffffffffffffffff161415610141576040517f08c379a00000000000000000000000000000000000000000000000000000000081526004018080602001828103825260158152602001807f4e6f20496d706c656d656e746174696f6e20736574000000000000000000000081525060200191505060405180910390fd5b61014a8161042c565b6101bc576040517f08c379a00000000000000000000000000000000000000000000000000000000081526004018080602001828103825260188152602001807f496e76616c696420636f6e74726163742061646472657373000000000000000081525060200191505060405180910390fd5b60405136810160405236600082376000803683855af43d604051818101604052816000823e82600081146101ee578282f35b8282fd5b6102896004803603604081101561020857600080fd5b81019080803573ffffffffffffffffffffffffffffffffffffffff1690602001909291908035906020019064010000000081111561024557600080fd5b82018360208201111561025757600080fd5b8035906020019184600183028401116401000000008311171561027957600080fd5b9091929391929390505050610477565b005b34801561029757600080fd5b506102da600480360360208110156102ae57600080fd5b81019080803573ffffffffffffffffffffffffffffffffffffffff16906020019092919050505061061d565b005b3480156102e857600080fd5b506102f16106d2565b604051808273ffffffffffffffffffffffffffffffffffffffff1673ffffffffffffffffffffffffffffffffffffffff16815260200191505060405180910390f35b34801561033f57600080fd5b506103826004803603602081101561035657600080fd5b81019080803573ffffffffffffffffffffffffffffffffffffffff16906020019092919050505061071e565b005b34801561039057600080fd5b506103d3600480360360208110156103a757600080fd5b81019080803573ffffffffffffffffffffffffffffffffffffffff1690602001909291905050506108ce565b005b3480156103e157600080fd5b506103ea610982565b604051808273ffffffffffffffffffffffffffffffffffffffff1673ffffffffffffffffffffffffffffffffffffffff16815260200191505060405180910390f35b60008060007fc5d2460186f7233c927e7db2dcc703c0e500b653ca82273b7bfad8045d85a47060001b9050833f915080821415801561046e57506000801b8214155b92505050919050565b61047f610982565b73ffffffffffffffffffffffffffffffffffffffff163373ffffffffffffffffffffffffffffffffffffffff161461051f576040517f08c379a00000000000000000000000000000000000000000000000000000000081526004018080602001828103825260148152602001807f73656e64657220776173206e6f74206f776e657200000000000000000000000081525060200191505060405180910390fd5b6105288361071e565b600060608473ffffffffffffffffffffffffffffffffffffffff168484604051808383808284378083019250505092505050600060405180830381855af49150503d8060008114610595576040519150601f19603f3d011682016040523d82523d6000602084013e61059a565b606091505b50809250819350505081610616576040517f08c379a000000000000000000000000000000000000000000000000000000000815260040180806020018281038252601e8152602001807f696e697469616c697a6174696f6e2063616c6c6261636b206661696c6564000081525060200191505060405180910390fd5b5050505050565b600073ffffffffffffffffffffffffffffffffffffffff1661063d610982565b73ffffffffffffffffffffffffffffffffffffffff16146106c6576040517f08c379a00000000000000000000000000000000000000000000000000000000081526004018080602001828103825260118152602001807f4f776e657220616c72656164792073657400000000000000000000000000000081525060200191505060405180910390fd5b6106cf816109ce565b50565b600080600160405180807f656970313936372e70726f78792e696d706c656d656e746174696f6e00000000815250601c019050604051809103902060001c0360001b9050805491505090565b610726610982565b73ffffffffffffffffffffffffffffffffffffffff163373ffffffffffffffffffffffffffffffffffffffff16146107c6576040517f08c379a00000000000000000000000000000000000000000000000000000000081526004018080602001828103825260148152602001807f73656e64657220776173206e6f74206f776e657200000000000000000000000081525060200191505060405180910390fd5b6000600160405180807f656970313936372e70726f78792e696d706c656d656e746174696f6e00000000815250601c019050604051809103902060001c0360001b90506108128261042c565b610884576040517f08c379a00000000000000000000000000000000000000000000000000000000081526004018080602001828103825260188152602001807f496e76616c696420636f6e74726163742061646472657373000000000000000081525060200191505060405180910390fd5b8181558173ffffffffffffffffffffffffffffffffffffffff167fab64f92ab780ecbf4f3866f57cee465ff36c89450dcce20237ca7a8d81fb7d1360405160405180910390a25050565b6108d6610982565b73ffffffffffffffffffffffffffffffffffffffff163373ffffffffffffffffffffffffffffffffffffffff1614610976576040517f08c379a00000000000000000000000000000000000000000000000000000000081526004018080602001828103825260148152602001807f73656e64657220776173206e6f74206f776e657200000000000000000000000081525060200191505060405180910390fd5b61097f816109ce565b50565b600080600160405180807f656970313936372e70726f78792e61646d696e000000000000000000000000008152506013019050604051809103902060001c0360001b9050805491505090565b600073ffffffffffffffffffffffffffffffffffffffff168173ffffffffffffffffffffffffffffffffffffffff161415610a71576040517f08c379a00000000000000000000000000000000000000000000000000000000081526004018080602001828103825260118152602001807f6f776e65722063616e6e6f74206265203000000000000000000000000000000081525060200191505060405180910390fd5b6000600160405180807f656970313936372e70726f78792e61646d696e000000000000000000000000008152506013019050604051809103902060001c0360001b90508181558173ffffffffffffffffffffffffffffffffffffffff167f50146d0e3c60aa1d17a70635b05494f864e86144a2201275021014fbf08bafe260405160405180910390a2505056fea265627a7a723158205ea38da23f75732a9d53636946d9d408a0d033b097432c39265f344b0953e19164736f6c634300050d0032",
  "source": "pragma solidity ^0.5.13;\n\nimport \"./Proxy.sol\";\n\n/**\n * @title A Proxy utilizing the Unstructured Storage pattern.\n * @dev This proxy is intended to be used in conjunction with EIP-1167 minimal proxies.\n */\ncontract InitializableProxy is Proxy {\n  /**\n   * @notice Sets proxy ownership to an unrecoverable address.\n   * @dev This contract is intended to be the target of delegatecalls from EIP-1167 proxies.\n   *      As such, we take precautions here to ensure that this contract can never be pointed to\n   *      an implementation, which would then risk that this contract could be selfdestructed,\n   *      which would \"brick\" all EIP-1167 clones of this contract.\n   */\n  constructor() public {\n    // We cannot set the owner to 0x0 as that is both explicitly prevented in `_setOwner`, and as\n    // that would result in `_initialize` being callable, exposing the very vulnerability this\n    // constructor is intended to prevent.\n    _setOwner(address(0x1));\n  }\n\n  /**\n   * @notice Sets the proxy owner if it hasn't already been set.\n   * @param owner The address allowed to repoint the proxy to a new implementation.\n   * @dev Note that anyone is allowed to set the proxy owner if it is set to the null address.\n   */\n  function _initialize(address owner) external {\n    require(_getOwner() == address(0), \"Owner already set\");\n    _setOwner(owner);\n  }\n}\n",
  "compiler": {
    "name": "solc",
    "version": "0.5.13+commit.5b0b510c.Emscripten.clang"
  },
  "schemaVersion": "3.4.13",
  "updatedAt": "2023-11-21T17:21:12.250Z",
  "devdoc": {
    "details": "This proxy is intended to be used in conjunction with EIP-1167 minimal proxies.",
    "methods": {
      "_initialize(address)": {
        "details": "Note that anyone is allowed to set the proxy owner if it is set to the null address.",
        "params": {
          "owner": "The address allowed to repoint the proxy to a new implementation."
        }
      },
      "_setAndInitializeImplementation(address,bytes)": {
        "details": "Throws if the initialization callback fails.If the target contract does not need initialization, use setImplementation instead.",
        "params": {
          "callbackData": "The abi-encoded function call to perform in the implementation contract.",
          "implementation": "Address of the new target contract."
        }
      },
      "_setImplementation(address)": {
        "details": "If the target contract needs to be initialized, call setAndInitializeImplementation instead.",
        "params": {
          "implementation": "Address of the new target contract."
        }
      },
      "_transferOwnership(address)": {
        "params": {
          "newOwner": "Address of the new owner account."
        }
      },
      "constructor": {
        "details": "This contract is intended to be the target of delegatecalls from EIP-1167 proxies.     As such, we take precautions here to ensure that this contract can never be pointed to     an implementation, which would then risk that this contract could be selfdestructed,     which would \"brick\" all EIP-1167 clones of this contract."
      }
    },
    "title": "A Proxy utilizing the Unstructured Storage pattern."
  },
  "userdoc": {
    "methods": {
      "_getImplementation()": {
        "notice": "Returns the implementation address."
      },
      "_getOwner()": {
        "notice": "Returns the Proxy owner's address."
      },
      "_initialize(address)": {
        "notice": "Sets the proxy owner if it hasn't already been set."
      },
      "_setAndInitializeImplementation(address,bytes)": {
        "notice": "Sets the address of the implementation contract and calls into it."
      },
      "_setImplementation(address)": {
        "notice": "Sets the address of the implementation contract."
      },
      "_transferOwnership(address)": {
        "notice": "Transfers ownership of Proxy to a new owner."
      },
      "constructor": "Sets proxy ownership to an unrecoverable address."
    }
  }
}