{
  "contractName": "LockedGold",
  "abi": [
    {
      "inputs": [
        {
          "internalType": "bool",
          "name": "test",
          "type": "bool"
        }
      ],
      "payable": false,
      "stateMutability": "nonpayable",
      "type": "constructor"
    },
    {
      "anonymous": false,
      "inputs": [
        {
          "indexed": true,
          "internalType": "address",
          "name": "slashed",
          "type": "address"
        },
        {
          "indexed": false,
          "internalType": "uint256",
          "name": "penalty",
          "type": "uint256"
        },
        {
          "indexed": true,
          "internalType": "address",
          "name": "reporter",
          "type": "address"
        },
        {
          "indexed": false,
          "internalType": "uint256",
          "name": "reward",
          "type": "uint256"
        }
      ],
      "name": "AccountSlashed",
      "type": "event"
    },
    {
      "anonymous": false,
      "inputs": [
        {
          "indexed": true,
          "internalType": "address",
          "name": "delegator",
          "type": "address"
        },
        {
          "indexed": true,
          "internalType": "address",
          "name": "delegatee",
          "type": "address"
        },
        {
          "indexed": false,
          "internalType": "uint256",
          "name": "percent",
          "type": "uint256"
        },
        {
          "indexed": false,
          "internalType": "uint256",
          "name": "amount",
          "type": "uint256"
        }
      ],
      "name": "CeloDelegated",
      "type": "event"
    },
    {
      "anonymous": false,
      "inputs": [
        {
          "indexed": true,
          "internalType": "address",
          "name": "delegator",
          "type": "address"
        },
        {
          "indexed": true,
          "internalType": "address",
          "name": "delegatee",
          "type": "address"
        },
        {
          "indexed": false,
          "internalType": "uint256",
          "name": "percent",
          "type": "uint256"
        },
        {
          "indexed": false,
          "internalType": "uint256",
          "name": "amount",
          "type": "uint256"
        }
      ],
      "name": "DelegatedCeloRevoked",
      "type": "event"
    },
    {
      "anonymous": false,
      "inputs": [
        {
          "indexed": true,
          "internalType": "address",
          "name": "account",
          "type": "address"
        },
        {
          "indexed": false,
          "internalType": "uint256",
          "name": "value",
          "type": "uint256"
        }
      ],
      "name": "GoldLocked",
      "type": "event"
    },
    {
      "anonymous": false,
      "inputs": [
        {
          "indexed": true,
          "internalType": "address",
          "name": "account",
          "type": "address"
        },
        {
          "indexed": false,
          "internalType": "uint256",
          "name": "value",
          "type": "uint256"
        }
      ],
      "name": "GoldRelocked",
      "type": "event"
    },
    {
      "anonymous": false,
      "inputs": [
        {
          "indexed": true,
          "internalType": "address",
          "name": "account",
          "type": "address"
        },
        {
          "indexed": false,
          "internalType": "uint256",
          "name": "value",
          "type": "uint256"
        },
        {
          "indexed": false,
          "internalType": "uint256",
          "name": "available",
          "type": "uint256"
        }
      ],
      "name": "GoldUnlocked",
      "type": "event"
    },
    {
      "anonymous": false,
      "inputs": [
        {
          "indexed": true,
          "internalType": "address",
          "name": "account",
          "type": "address"
        },
        {
          "indexed": false,
          "internalType": "uint256",
          "name": "value",
          "type": "uint256"
        }
      ],
      "name": "GoldWithdrawn",
      "type": "event"
    },
    {
      "anonymous": false,
      "inputs": [
        {
          "indexed": false,
          "internalType": "uint256",
          "name": "value",
          "type": "uint256"
        }
      ],
      "name": "MaxDelegateesCountSet",
      "type": "event"
    },
    {
      "anonymous": false,
      "inputs": [
        {
          "indexed": true,
          "internalType": "address",
          "name": "previousOwner",
          "type": "address"
        },
        {
          "indexed": true,
          "internalType": "address",
          "name": "newOwner",
          "type": "address"
        }
      ],
      "name": "OwnershipTransferred",
      "type": "event"
    },
    {
      "anonymous": false,
      "inputs": [
        {
          "indexed": true,
          "internalType": "address",
          "name": "registryAddress",
          "type": "address"
        }
      ],
      "name": "RegistrySet",
      "type": "event"
    },
    {
      "anonymous": false,
      "inputs": [
        {
          "indexed": true,
          "internalType": "string",
          "name": "slasherIdentifier",
          "type": "string"
        }
      ],
      "name": "SlasherWhitelistAdded",
      "type": "event"
    },
    {
      "anonymous": false,
      "inputs": [
        {
          "indexed": true,
          "internalType": "string",
          "name": "slasherIdentifier",
          "type": "string"
        }
      ],
      "name": "SlasherWhitelistRemoved",
      "type": "event"
    },
    {
      "anonymous": false,
      "inputs": [
        {
          "indexed": false,
          "internalType": "uint256",
          "name": "period",
          "type": "uint256"
        }
      ],
      "name": "UnlockingPeriodSet",
      "type": "event"
    },
    {
      "constant": true,
      "inputs": [],
      "name": "initialized",
      "outputs": [
        {
          "internalType": "bool",
          "name": "",
          "type": "bool"
        }
      ],
      "payable": false,
      "stateMutability": "view",
      "type": "function"
    },
    {
      "constant": true,
      "inputs": [],
      "name": "isOwner",
      "outputs": [
        {
          "internalType": "bool",
          "name": "",
          "type": "bool"
        }
      ],
      "payable": false,
      "stateMutability": "view",
      "type": "function"
    },
    {
      "constant": true,
      "inputs": [],
      "name": "owner",
      "outputs": [
        {
          "internalType": "address",
          "name": "",
          "type": "address"
        }
      ],
      "payable": false,
      "stateMutability": "view",
      "type": "function"
    },
    {
      "constant": true,
      "inputs": [],
      "name": "registry",
      "outputs": [
        {
          "internalType": "contract IRegistry",
          "name": "",
          "type": "address"
        }
      ],
      "payable": false,
      "stateMutability": "view",
      "type": "function"
    },
    {
      "constant": false,
      "inputs": [],
      "name": "renounceOwnership",
      "outputs": [],
      "payable": false,
      "stateMutability": "nonpayable",
      "type": "function"
    },
    {
      "constant": false,
      "inputs": [
        {
          "internalType": "address",
          "name": "registryAddress",
          "type": "address"
        }
      ],
      "name": "setRegistry",
      "outputs": [],
      "payable": false,
      "stateMutability": "nonpayable",
      "type": "function"
    },
    {
      "constant": true,
      "inputs": [
        {
          "internalType": "uint256",
          "name": "",
          "type": "uint256"
        }
      ],
      "name": "slashingWhitelist",
      "outputs": [
        {
          "internalType": "bytes32",
          "name": "",
          "type": "bytes32"
        }
      ],
      "payable": false,
      "stateMutability": "view",
      "type": "function"
    },
    {
      "constant": true,
      "inputs": [
        {
          "internalType": "address",
          "name": "",
          "type": "address"
        }
      ],
      "name": "totalDelegatedCelo",
      "outputs": [
        {
          "internalType": "uint256",
          "name": "",
          "type": "uint256"
        }
      ],
      "payable": false,
      "stateMutability": "view",
      "type": "function"
    },
    {
      "constant": true,
      "inputs": [],
      "name": "totalNonvoting",
      "outputs": [
        {
          "internalType": "uint256",
          "name": "",
          "type": "uint256"
        }
      ],
      "payable": false,
      "stateMutability": "view",
      "type": "function"
    },
    {
      "constant": false,
      "inputs": [
        {
          "internalType": "address",
          "name": "newOwner",
          "type": "address"
        }
      ],
      "name": "transferOwnership",
      "outputs": [],
      "payable": false,
      "stateMutability": "nonpayable",
      "type": "function"
    },
    {
      "constant": true,
      "inputs": [],
      "name": "unlockingPeriod",
      "outputs": [
        {
          "internalType": "uint256",
          "name": "",
          "type": "uint256"
        }
      ],
      "payable": false,
      "stateMutability": "view",
      "type": "function"
    },
    {
      "constant": true,
      "inputs": [
        {
          "internalType": "address",
          "name": "slasher",
          "type": "address"
        }
      ],
      "name": "isSlasher",
      "outputs": [
        {
          "internalType": "bool",
          "name": "",
          "type": "bool"
        }
      ],
      "payable": false,
      "stateMutability": "view",
      "type": "function"
    },
    {
      "constant": true,
      "inputs": [],
      "name": "getVersionNumber",
      "outputs": [
        {
          "internalType": "uint256",
          "name": "",
          "type": "uint256"
        },
        {
          "internalType": "uint256",
          "name": "",
          "type": "uint256"
        },
        {
          "internalType": "uint256",
          "name": "",
          "type": "uint256"
        },
        {
          "internalType": "uint256",
          "name": "",
          "type": "uint256"
        }
      ],
      "payable": false,
      "stateMutability": "pure",
      "type": "function"
    },
    {
      "constant": false,
      "inputs": [
        {
          "internalType": "address",
          "name": "registryAddress",
          "type": "address"
        },
        {
          "internalType": "uint256",
          "name": "_unlockingPeriod",
          "type": "uint256"
        }
      ],
      "name": "initialize",
      "outputs": [],
      "payable": false,
      "stateMutability": "nonpayable",
      "type": "function"
    },
    {
      "constant": false,
      "inputs": [
        {
          "internalType": "uint256",
          "name": "value",
          "type": "uint256"
        }
      ],
      "name": "setUnlockingPeriod",
      "outputs": [],
      "payable": false,
      "stateMutability": "nonpayable",
      "type": "function"
    },
    {
      "constant": false,
      "inputs": [
        {
          "internalType": "uint256",
          "name": "value",
          "type": "uint256"
        }
      ],
      "name": "setMaxDelegateesCount",
      "outputs": [],
      "payable": false,
      "stateMutability": "nonpayable",
      "type": "function"
    },
    {
      "constant": false,
      "inputs": [],
      "name": "lock",
      "outputs": [],
      "payable": true,
      "stateMutability": "payable",
      "type": "function"
    },
    {
      "constant": false,
      "inputs": [
        {
          "internalType": "address",
          "name": "account",
          "type": "address"
        },
        {
          "internalType": "uint256",
          "name": "value",
          "type": "uint256"
        }
      ],
      "name": "incrementNonvotingAccountBalance",
      "outputs": [],
      "payable": false,
      "stateMutability": "nonpayable",
      "type": "function"
    },
    {
      "constant": false,
      "inputs": [
        {
          "internalType": "address",
          "name": "account",
          "type": "address"
        },
        {
          "internalType": "uint256",
          "name": "value",
          "type": "uint256"
        }
      ],
      "name": "decrementNonvotingAccountBalance",
      "outputs": [],
      "payable": false,
      "stateMutability": "nonpayable",
      "type": "function"
    },
    {
      "constant": false,
      "inputs": [
        {
          "internalType": "uint256",
          "name": "value",
          "type": "uint256"
        }
      ],
      "name": "unlock",
      "outputs": [],
      "payable": false,
      "stateMutability": "nonpayable",
      "type": "function"
    },
    {
      "constant": false,
      "inputs": [
        {
          "internalType": "uint256",
          "name": "index",
          "type": "uint256"
        },
        {
          "internalType": "uint256",
          "name": "value",
          "type": "uint256"
        }
      ],
      "name": "relock",
      "outputs": [],
      "payable": false,
      "stateMutability": "nonpayable",
      "type": "function"
    },
    {
      "constant": false,
      "inputs": [
        {
          "internalType": "uint256",
          "name": "index",
          "type": "uint256"
        }
      ],
      "name": "withdraw",
      "outputs": [],
      "payable": false,
      "stateMutability": "nonpayable",
      "type": "function"
    },
    {
      "constant": true,
      "inputs": [],
      "name": "getTotalLockedGold",
      "outputs": [
        {
          "internalType": "uint256",
          "name": "",
          "type": "uint256"
        }
      ],
      "payable": false,
      "stateMutability": "view",
      "type": "function"
    },
    {
      "constant": true,
      "inputs": [],
      "name": "getNonvotingLockedGold",
      "outputs": [
        {
          "internalType": "uint256",
          "name": "",
          "type": "uint256"
        }
      ],
      "payable": false,
      "stateMutability": "view",
      "type": "function"
    },
    {
      "constant": false,
      "inputs": [
        {
          "internalType": "address",
          "name": "delegatee",
          "type": "address"
        },
        {
          "internalType": "uint256",
          "name": "delegateFraction",
          "type": "uint256"
        }
      ],
      "name": "delegateGovernanceVotes",
      "outputs": [],
      "payable": false,
      "stateMutability": "nonpayable",
      "type": "function"
    },
    {
      "constant": false,
      "inputs": [
        {
          "internalType": "address",
          "name": "delegatee",
          "type": "address"
        },
        {
          "internalType": "uint256",
          "name": "revokeFraction",
          "type": "uint256"
        }
      ],
      "name": "revokeDelegatedGovernanceVotes",
      "outputs": [],
      "payable": false,
      "stateMutability": "nonpayable",
      "type": "function"
    },
    {
      "constant": false,
      "inputs": [
        {
          "internalType": "address",
          "name": "delegator",
          "type": "address"
        },
        {
          "internalType": "address",
          "name": "delegatee",
          "type": "address"
        }
      ],
      "name": "updateDelegatedAmount",
      "outputs": [
        {
          "internalType": "uint256",
          "name": "",
          "type": "uint256"
        }
      ],
      "payable": false,
      "stateMutability": "nonpayable",
      "type": "function"
    },
    {
      "constant": false,
      "inputs": [
        {
          "internalType": "address",
          "name": "delegator",
          "type": "address"
        }
      ],
      "name": "updateDelegatedAmount",
      "outputs": [],
      "payable": false,
      "stateMutability": "nonpayable",
      "type": "function"
    },
    {
      "constant": true,
      "inputs": [
        {
          "internalType": "address",
          "name": "account",
          "type": "address"
        }
      ],
      "name": "getAccountTotalDelegatedFraction",
      "outputs": [
        {
          "internalType": "uint256",
          "name": "",
          "type": "uint256"
        }
      ],
      "payable": false,
      "stateMutability": "view",
      "type": "function"
    },
    {
      "constant": true,
      "inputs": [
        {
          "internalType": "address",
          "name": "account",
          "type": "address"
        }
      ],
      "name": "getAccountTotalLockedGold",
      "outputs": [
        {
          "internalType": "uint256",
          "name": "",
          "type": "uint256"
        }
      ],
      "payable": false,
      "stateMutability": "view",
      "type": "function"
    },
    {
      "constant": true,
      "inputs": [
        {
          "internalType": "address",
          "name": "account",
          "type": "address"
        }
      ],
      "name": "getAccountTotalGovernanceVotingPower",
      "outputs": [
        {
          "internalType": "uint256",
          "name": "",
          "type": "uint256"
        }
      ],
      "payable": false,
      "stateMutability": "view",
      "type": "function"
    },
    {
      "constant": true,
      "inputs": [
        {
          "internalType": "address",
          "name": "delegator",
          "type": "address"
        },
        {
          "internalType": "address",
          "name": "delegatee",
          "type": "address"
        }
      ],
      "name": "getDelegatorDelegateeInfo",
      "outputs": [
        {
          "internalType": "uint256",
          "name": "fraction",
          "type": "uint256"
        },
        {
          "internalType": "uint256",
          "name": "currentAmount",
          "type": "uint256"
        }
      ],
      "payable": false,
      "stateMutability": "view",
      "type": "function"
    },
    {
      "constant": true,
      "inputs": [
        {
          "internalType": "address",
          "name": "delegator",
          "type": "address"
        },
        {
          "internalType": "address",
          "name": "delegatee",
          "type": "address"
        }
      ],
      "name": "getDelegatorDelegateeExpectedAndRealAmount",
      "outputs": [
        {
          "internalType": "uint256",
          "name": "expected",
          "type": "uint256"
        },
        {
          "internalType": "uint256",
          "name": "real",
          "type": "uint256"
        }
      ],
      "payable": false,
      "stateMutability": "view",
      "type": "function"
    },
    {
      "constant": true,
      "inputs": [
        {
          "internalType": "address",
          "name": "delegator",
          "type": "address"
        }
      ],
      "name": "getDelegateesOfDelegator",
      "outputs": [
        {
          "internalType": "address[]",
          "name": "",
          "type": "address[]"
        }
      ],
      "payable": false,
      "stateMutability": "view",
      "type": "function"
    },
    {
      "constant": true,
      "inputs": [
        {
          "internalType": "address",
          "name": "account",
          "type": "address"
        }
      ],
      "name": "getAccountNonvotingLockedGold",
      "outputs": [
        {
          "internalType": "uint256",
          "name": "",
          "type": "uint256"
        }
      ],
      "payable": false,
      "stateMutability": "view",
      "type": "function"
    },
    {
      "constant": true,
      "inputs": [
        {
          "internalType": "address",
          "name": "account",
          "type": "address"
        }
      ],
      "name": "getPendingWithdrawals",
      "outputs": [
        {
          "internalType": "uint256[]",
          "name": "",
          "type": "uint256[]"
        },
        {
          "internalType": "uint256[]",
          "name": "",
          "type": "uint256[]"
        }
      ],
      "payable": false,
      "stateMutability": "view",
      "type": "function"
    },
    {
      "constant": true,
      "inputs": [
        {
          "internalType": "address",
          "name": "account",
          "type": "address"
        },
        {
          "internalType": "uint256",
          "name": "index",
          "type": "uint256"
        }
      ],
      "name": "getPendingWithdrawal",
      "outputs": [
        {
          "internalType": "uint256",
          "name": "",
          "type": "uint256"
        },
        {
          "internalType": "uint256",
          "name": "",
          "type": "uint256"
        }
      ],
      "payable": false,
      "stateMutability": "view",
      "type": "function"
    },
    {
      "constant": true,
      "inputs": [
        {
          "internalType": "address",
          "name": "account",
          "type": "address"
        }
      ],
      "name": "getTotalPendingWithdrawalsCount",
      "outputs": [
        {
          "internalType": "uint256",
          "name": "",
          "type": "uint256"
        }
      ],
      "payable": false,
      "stateMutability": "view",
      "type": "function"
    },
    {
      "constant": true,
      "inputs": [
        {
          "internalType": "address",
          "name": "account",
          "type": "address"
        }
      ],
      "name": "getTotalPendingWithdrawals",
      "outputs": [
        {
          "internalType": "uint256",
          "name": "",
          "type": "uint256"
        }
      ],
      "payable": false,
      "stateMutability": "view",
      "type": "function"
    },
    {
      "constant": true,
      "inputs": [],
      "name": "getSlashingWhitelist",
      "outputs": [
        {
          "internalType": "bytes32[]",
          "name": "",
          "type": "bytes32[]"
        }
      ],
      "payable": false,
      "stateMutability": "view",
      "type": "function"
    },
    {
      "constant": false,
      "inputs": [
        {
          "internalType": "string",
          "name": "slasherIdentifier",
          "type": "string"
        }
      ],
      "name": "addSlasher",
      "outputs": [],
      "payable": false,
      "stateMutability": "nonpayable",
      "type": "function"
    },
    {
      "constant": false,
      "inputs": [
        {
          "internalType": "string",
          "name": "slasherIdentifier",
          "type": "string"
        },
        {
          "internalType": "uint256",
          "name": "index",
          "type": "uint256"
        }
      ],
      "name": "removeSlasher",
      "outputs": [],
      "payable": false,
      "stateMutability": "nonpayable",
      "type": "function"
    },
    {
      "constant": false,
      "inputs": [
        {
          "internalType": "address",
          "name": "account",
          "type": "address"
        },
        {
          "internalType": "uint256",
          "name": "penalty",
          "type": "uint256"
        },
        {
          "internalType": "address",
          "name": "reporter",
          "type": "address"
        },
        {
          "internalType": "uint256",
          "name": "reward",
          "type": "uint256"
        },
        {
          "internalType": "address[]",
          "name": "lessers",
          "type": "address[]"
        },
        {
          "internalType": "address[]",
          "name": "greaters",
          "type": "address[]"
        },
        {
          "internalType": "uint256[]",
          "name": "indices",
          "type": "uint256[]"
        }
      ],
      "name": "slash",
      "outputs": [],
      "payable": false,
      "stateMutability": "nonpayable",
      "type": "function"
    }
  ],
  "bytecode": "0x60806040523480156200001157600080fd5b50604051620081e6380380620081e6833981810160405260208110156200003757600080fd5b810190808051906020019092919050505080600160008190555080620000725760018060006101000a81548160ff0219169083151502179055505b506000620000856200012a60201b60201c565b9050806001806101000a81548173ffffffffffffffffffffffffffffffffffffffff021916908373ffffffffffffffffffffffffffffffffffffffff1602179055508073ffffffffffffffffffffffffffffffffffffffff16600073ffffffffffffffffffffffffffffffffffffffff167f8be0079c531659141344cd1fd0a4f28419497f9722a3daafe3b4186f6b6457e060405160405180910390a3505062000132565b600033905090565b6180a480620001426000396000f3fe60806040526004361061025c5760003560e01c80636489119811610144578063b2fb30cb116100b6578063cd6dc6871161007a578063cd6dc68714611022578063d15ca4ed1461107d578063f24b39fc146110f3578063f2fde38b14611144578063f340c0d014611195578063f83d08ba146112835761025c565b8063b2fb30cb14610e83578063b6e1e49d14610ec8578063c1867f6d14610f2d578063c70f35ea14610f58578063c95b241b14610fbd5761025c565b80637b103999116101085780637b10399914610c84578063807876b714610cdb5780638a9c2bbe14610d065780638da5cb5b14610dac5780638f32d59b14610e03578063a91ee0dc14610e325761025c565b80636489119814610b0257806366f0633b14610b885780636adcc93814610bc35780636edf77a514610c12578063715018a614610c6d5761025c565b8063296673a9116101dd5780633f199b40116101a15780633f199b40146108f957806354255be01461095e57806357601c5d1461099e57806358f84a7814610a075780636198e33914610a6257806361d5c57014610a9d5761025c565b8063296673a91461061e5780632e1a7d4d146106aa57806330a61d59146106e557806330ec70f51461071057806331993fc9146107755761025c565b806318a4ff8c1161022457806318a4ff8c146104485780631d1dd1a7146104a35780631fe2dfda146104de57806320637d8e1461056e578063227320a7146105995761025c565b806308764ee2146102615780630cdbac28146102cd578063158ef93e1461035957806315952ae71461038857806318629a92146103ed575b600080fd5b34801561026d57600080fd5b5061027661128d565b6040518080602001828103825283818151815260200191508051906020019060200280838360005b838110156102b957808201518184015260208101905061029e565b505050509050019250505060405180910390f35b3480156102d957600080fd5b5061033c600480360360408110156102f057600080fd5b81019080803573ffffffffffffffffffffffffffffffffffffffff169060200190929190803573ffffffffffffffffffffffffffffffffffffffff1690602001909291905050506112e5565b604051808381526020018281526020019250505060405180910390f35b34801561036557600080fd5b5061036e611489565b604051808215151515815260200191505060405180910390f35b34801561039457600080fd5b506103d7600480360360208110156103ab57600080fd5b81019080803573ffffffffffffffffffffffffffffffffffffffff16906020019092919050505061149c565b6040518082815260200191505060405180910390f35b3480156103f957600080fd5b506104466004803603604081101561041057600080fd5b81019080803573ffffffffffffffffffffffffffffffffffffffff16906020019092919080359060200190929190505050611509565b005b34801561045457600080fd5b506104a16004803603604081101561046b57600080fd5b81019080803573ffffffffffffffffffffffffffffffffffffffff16906020019092919080359060200190929190505050611a5d565b005b3480156104af57600080fd5b506104dc600480360360208110156104c657600080fd5b8101908080359060200190929190505050611c01565b005b3480156104ea57600080fd5b5061056c6004803603604081101561050157600080fd5b810190808035906020019064010000000081111561051e57600080fd5b82018360208201111561053057600080fd5b8035906020019184600183028401116401000000008311171561055257600080fd5b909192939192939080359060200190929190505050611cbc565b005b34801561057a57600080fd5b50610583611fa2565b6040518082815260200191505060405180910390f35b3480156105a557600080fd5b50610608600480360360408110156105bc57600080fd5b81019080803573ffffffffffffffffffffffffffffffffffffffff169060200190929190803573ffffffffffffffffffffffffffffffffffffffff169060200190929190505050611fa8565b6040518082815260200191505060405180910390f35b34801561062a57600080fd5b5061068d6004803603604081101561064157600080fd5b81019080803573ffffffffffffffffffffffffffffffffffffffff169060200190929190803573ffffffffffffffffffffffffffffffffffffffff169060200190929190505050612143565b604051808381526020018281526020019250505060405180910390f35b3480156106b657600080fd5b506106e3600480360360208110156106cd57600080fd5b81019080803590602001909291905050506121fb565b005b3480156106f157600080fd5b506106fa612600565b6040518082815260200191505060405180910390f35b34801561071c57600080fd5b5061075f6004803603602081101561073357600080fd5b81019080803573ffffffffffffffffffffffffffffffffffffffff1690602001909291905050506126a3565b6040518082815260200191505060405180910390f35b34801561078157600080fd5b506108f7600480360360e081101561079857600080fd5b81019080803573ffffffffffffffffffffffffffffffffffffffff16906020019092919080359060200190929190803573ffffffffffffffffffffffffffffffffffffffff169060200190929190803590602001909291908035906020019064010000000081111561080957600080fd5b82018360208201111561081b57600080fd5b8035906020019184602083028401116401000000008311171561083d57600080fd5b90919293919293908035906020019064010000000081111561085e57600080fd5b82018360208201111561087057600080fd5b8035906020019184602083028401116401000000008311171561089257600080fd5b9091929391929390803590602001906401000000008111156108b357600080fd5b8201836020820111156108c557600080fd5b803590602001918460208302840111640100000000831117156108e757600080fd5b90919293919293905050506127c4565b005b34801561090557600080fd5b506109486004803603602081101561091c57600080fd5b81019080803573ffffffffffffffffffffffffffffffffffffffff169060200190929190505050612f4f565b6040518082815260200191505060405180910390f35b34801561096a57600080fd5b50610973612f9b565b6040518085815260200184815260200183815260200182815260200194505050505060405180910390f35b3480156109aa57600080fd5b506109ed600480360360208110156109c157600080fd5b81019080803573ffffffffffffffffffffffffffffffffffffffff169060200190929190505050612fc2565b604051808215151515815260200191505060405180910390f35b348015610a1357600080fd5b50610a6060048036036040811015610a2a57600080fd5b81019080803573ffffffffffffffffffffffffffffffffffffffff169060200190929190803590602001909291905050506130ec565b005b348015610a6e57600080fd5b50610a9b60048036036020811015610a8557600080fd5b8101908080359060200190929190505050613bf4565b005b348015610aa957600080fd5b50610aec60048036036020811015610ac057600080fd5b81019080803573ffffffffffffffffffffffffffffffffffffffff1690602001909291905050506141a2565b6040518082815260200191505060405180910390f35b348015610b0e57600080fd5b50610b8660048036036020811015610b2557600080fd5b8101908080359060200190640100000000811115610b4257600080fd5b820183602082011115610b5457600080fd5b80359060200191846001830284011164010000000083111715610b7657600080fd5b9091929391929390505050614268565b005b348015610b9457600080fd5b50610bc160048036036020811015610bab57600080fd5b81019080803590602001909291905050506145a2565b005b348015610bcf57600080fd5b50610bfc60048036036020811015610be657600080fd5b81019080803590602001909291905050506146d5565b6040518082815260200191505060405180910390f35b348015610c1e57600080fd5b50610c6b60048036036040811015610c3557600080fd5b81019080803573ffffffffffffffffffffffffffffffffffffffff169060200190929190803590602001909291905050506146f6565b005b348015610c7957600080fd5b50610c8261489a565b005b348015610c9057600080fd5b50610c996149d3565b604051808273ffffffffffffffffffffffffffffffffffffffff1673ffffffffffffffffffffffffffffffffffffffff16815260200191505060405180910390f35b348015610ce757600080fd5b50610cf06149f9565b6040518082815260200191505060405180910390f35b348015610d1257600080fd5b50610d5560048036036020811015610d2957600080fd5b81019080803573ffffffffffffffffffffffffffffffffffffffff169060200190929190505050614a03565b6040518080602001828103825283818151815260200191508051906020019060200280838360005b83811015610d98578082015181840152602081019050610d7d565b505050509050019250505060405180910390f35b348015610db857600080fd5b50610dc1614a5b565b604051808273ffffffffffffffffffffffffffffffffffffffff1673ffffffffffffffffffffffffffffffffffffffff16815260200191505060405180910390f35b348015610e0f57600080fd5b50610e18614a84565b604051808215151515815260200191505060405180910390f35b348015610e3e57600080fd5b50610e8160048036036020811015610e5557600080fd5b81019080803573ffffffffffffffffffffffffffffffffffffffff169060200190929190505050614ae2565b005b348015610e8f57600080fd5b50610ec660048036036040811015610ea657600080fd5b810190808035906020019092919080359060200190929190505050614c86565b005b348015610ed457600080fd5b50610f1760048036036020811015610eeb57600080fd5b81019080803573ffffffffffffffffffffffffffffffffffffffff16906020019092919050505061500a565b6040518082815260200191505060405180910390f35b348015610f3957600080fd5b50610f42615122565b6040518082815260200191505060405180910390f35b348015610f6457600080fd5b50610fa760048036036020811015610f7b57600080fd5b81019080803573ffffffffffffffffffffffffffffffffffffffff169060200190929190505050615128565b6040518082815260200191505060405180910390f35b348015610fc957600080fd5b5061100c60048036036020811015610fe057600080fd5b81019080803573ffffffffffffffffffffffffffffffffffffffff169060200190929190505050615140565b6040518082815260200191505060405180910390f35b34801561102e57600080fd5b5061107b6004803603604081101561104557600080fd5b81019080803573ffffffffffffffffffffffffffffffffffffffff1690602001909291908035906020019092919050505061518f565b005b34801561108957600080fd5b506110d6600480360360408110156110a057600080fd5b81019080803573ffffffffffffffffffffffffffffffffffffffff16906020019092919080359060200190929190505050615252565b604051808381526020018281526020019250505060405180910390f35b3480156110ff57600080fd5b506111426004803603602081101561111657600080fd5b81019080803573ffffffffffffffffffffffffffffffffffffffff1690602001909291905050506154bd565b005b34801561115057600080fd5b506111936004803603602081101561116757600080fd5b81019080803573ffffffffffffffffffffffffffffffffffffffff16906020019092919050505061558d565b005b3480156111a157600080fd5b506111e4600480360360208110156111b857600080fd5b81019080803573ffffffffffffffffffffffffffffffffffffffff169060200190929190505050615613565b604051808060200180602001838103835285818151815260200191508051906020019060200280838360005b8381101561122b578082015181840152602081019050611210565b50505050905001838103825284818151815260200191508051906020019060200280838360005b8381101561126d578082015181840152602081019050611252565b5050505090500194505050505060405180910390f35b61128b6158d3565b005b606060058054806020026020016040519081016040528092919081815260200182805480156112db57602002820191906000526020600020905b8154815260200190600101908083116112c7575b5050505050905090565b60008060006112f2615ad8565b73ffffffffffffffffffffffffffffffffffffffff16636642d594866040518263ffffffff1660e01b8152600401808273ffffffffffffffffffffffffffffffffffffffff1673ffffffffffffffffffffffffffffffffffffffff16815260200191505060206040518083038186803b15801561136e57600080fd5b505afa158015611382573d6000803e3d6000fd5b505050506040513d602081101561139857600080fd5b8101908080519060200190929190505050905060006113b5615ad8565b73ffffffffffffffffffffffffffffffffffffffff16636642d594866040518263ffffffff1660e01b8152600401808273ffffffffffffffffffffffffffffffffffffffff1673ffffffffffffffffffffffffffffffffffffffff16815260200191505060206040518083038186803b15801561143157600080fd5b505afa158015611445573d6000803e3d6000fd5b505050506040513d602081101561145b57600080fd5b810190808051906020019092919050505090506114788282615bd3565b809450819550505050509250929050565b600160009054906101000a900460ff1681565b600080600860008473ffffffffffffffffffffffffffffffffffffffff1673ffffffffffffffffffffffffffffffffffffffff168152602001908152602001600020905061150181600301604051806020016040529081600082015481525050615cb3565b915050919050565b611511617b51565b61151a82615cc1565b905061152d81611528615cdf565b615d05565b611582576040517f08c379a000000000000000000000000000000000000000000000000000000000815260040180806020018281038252602f815260200180617f55602f913960400191505060405180910390fd5b600061158c615ad8565b73ffffffffffffffffffffffffffffffffffffffff16636642d594336040518263ffffffff1660e01b8152600401808273ffffffffffffffffffffffffffffffffffffffff1673ffffffffffffffffffffffffffffffffffffffff16815260200191505060206040518083038186803b15801561160857600080fd5b505afa15801561161c573d6000803e3d6000fd5b505050506040513d602081101561163257600080fd5b810190808051906020019092919050505090506000600860008373ffffffffffffffffffffffffffffffffffffffff1673ffffffffffffffffffffffffffffffffffffffff16815260200190815260200160002090506116aa8160030160405180602001604052908160008201548152505084615d1b565b6116ff576040517f08c379a0000000000000000000000000000000000000000000000000000000008152600401808060200182810382526023815260200180617cc76023913960400191505060405180910390fd5b6000611709615ad8565b73ffffffffffffffffffffffffffffffffffffffff16636642d594876040518263ffffffff1660e01b8152600401808273ffffffffffffffffffffffffffffffffffffffff1673ffffffffffffffffffffffffffffffffffffffff16815260200191505060206040518083038186803b15801561178557600080fd5b505afa158015611799573d6000803e3d6000fd5b505050506040513d60208110156117af57600080fd5b810190808051906020019092919050505090506117cc8382615d31565b5060008260020160008373ffffffffffffffffffffffffffffffffffffffff1673ffffffffffffffffffffffffffffffffffffffff16815260200190815260200160002090506118348160000160405180602001604052908160008201548152505086615d1b565b6118a6576040517f08c379a000000000000000000000000000000000000000000000000000000000815260040180806020018281038252601d8152602001807f4e6f7420656e6f7567682064656c6567617465642070657263656e747300000081525060200191505060405180910390fd5b6118d18582600001604051806020016040529081600082015481525050615f9990919063ffffffff16565b816000016000820151816000015590505060006118ed856126a3565b905060008061191384600001604051806020016040529081600082015481525050615cb3565b1461194d5761194861193e6119398961192b86616040565b6160ca90919063ffffffff16565b616529565b846001015461654a565b611953565b82600101545b9050611960848285616563565b61198b8786600301604051806020016040529081600082015481525050615f9990919063ffffffff16565b856003016000820151816000015590505060006119bf84600001604051806020016040529081600082015481525050615cb3565b14156119dd576119db84866000016167c790919063ffffffff16565b505b8373ffffffffffffffffffffffffffffffffffffffff168673ffffffffffffffffffffffffffffffffffffffff167fc27c2c089d7c6709b0a8e68031ecc1c43dd5e4146d5d3aadad05f72a90bbf8ba611a358a615cb3565b84604051808381526020018281526020019250505060405180910390a3505050505050505050565b60405160200180807f456c656374696f6e0000000000000000000000000000000000000000000000008152506008019050604051602081830303815290604052805190602001203373ffffffffffffffffffffffffffffffffffffffff16600260009054906101000a900473ffffffffffffffffffffffffffffffffffffffff1673ffffffffffffffffffffffffffffffffffffffff1663dcf0aaed836040518263ffffffff1660e01b81526004018082815260200191505060206040518083038186803b158015611b2e57600080fd5b505afa158015611b42573d6000803e3d6000fd5b505050506040513d6020811015611b5857600080fd5b810190808051906020019092919050505073ffffffffffffffffffffffffffffffffffffffff1614611bf2576040517f08c379a00000000000000000000000000000000000000000000000000000000081526004018080602001828103825260188152602001807f6f6e6c79207265676973746572656420636f6e7472616374000000000000000081525060200191505060405180910390fd5b611bfc83836169b5565b505050565b611c09614a84565b611c7b576040517f08c379a00000000000000000000000000000000000000000000000000000000081526004018080602001828103825260208152602001807f4f776e61626c653a2063616c6c6572206973206e6f7420746865206f776e657281525060200191505060405180910390fd5b80600a819055507f7e524139f5fe281f1ed40d0f650ab4edfb555978755a170ceda325e8968641b0816040518082815260200191505060405180910390a150565b611cc4614a84565b611d36576040517f08c379a00000000000000000000000000000000000000000000000000000000081526004018080602001828103825260208152602001807f4f776e61626c653a2063616c6c6572206973206e6f7420746865206f776e657281525060200191505060405180910390fd5b600083836040516020018083838082843780830192505050925050506040516020818303038152906040528051906020012090506004600082815260200190815260200160002060009054906101000a900460ff16611de0576040517f08c379a0000000000000000000000000000000000000000000000000000000008152600401808060200182810382526027815260200180617f2e6027913960400191505060405180910390fd5b6005805490508210611e3d576040517f08c379a0000000000000000000000000000000000000000000000000000000008152600401808060200182810382526028815260200180617ed36028913960400191505060405180910390fd5b8060058381548110611e4b57fe5b906000526020600020015414611ec9576040517f08c379a000000000000000000000000000000000000000000000000000000000815260040180806020018281038252601e8152602001807f496e64657820646f65736e2774206d61746368206964656e746966696572000081525060200191505060405180910390fd5b600560016005805490500381548110611ede57fe5b906000526020600020015460058381548110611ef657fe5b90600052602060002001819055506005805480611f0f57fe5b6001900381819060005260206000200160009055905560006004600083815260200190815260200160002060006101000a81548160ff021916908315150217905550838360405180838380828437808301925050509250505060405180910390207faee8df56d95b5766042c2ff4dcb39a120f0a09dd21bb9c143f86a314eff4b71460405160405180910390a250505050565b60075481565b600080611fb3615ad8565b73ffffffffffffffffffffffffffffffffffffffff16636642d594856040518263ffffffff1660e01b8152600401808273ffffffffffffffffffffffffffffffffffffffff1673ffffffffffffffffffffffffffffffffffffffff16815260200191505060206040518083038186803b15801561202f57600080fd5b505afa158015612043573d6000803e3d6000fd5b505050506040513d602081101561205957600080fd5b810190808051906020019092919050505090506000612076615ad8565b73ffffffffffffffffffffffffffffffffffffffff16636642d594856040518263ffffffff1660e01b8152600401808273ffffffffffffffffffffffffffffffffffffffff1673ffffffffffffffffffffffffffffffffffffffff16815260200191505060206040518083038186803b1580156120f257600080fd5b505afa158015612106573d6000803e3d6000fd5b505050506040513d602081101561211c57600080fd5b810190808051906020019092919050505090506121398282615d31565b9250505092915050565b6000806000600860008673ffffffffffffffffffffffffffffffffffffffff1673ffffffffffffffffffffffffffffffffffffffff16815260200190815260200160002060020160008573ffffffffffffffffffffffffffffffffffffffff1673ffffffffffffffffffffffffffffffffffffffff16815260200190815260200160002090506121ea81600001604051806020016040529081600082015481525050615cb3565b925080600101549150509250929050565b60016000808282540192505081905550600080549050612219615ad8565b73ffffffffffffffffffffffffffffffffffffffff166325ca4c9c336040518263ffffffff1660e01b8152600401808273ffffffffffffffffffffffffffffffffffffffff1673ffffffffffffffffffffffffffffffffffffffff16815260200191505060206040518083038186803b15801561229557600080fd5b505afa1580156122a9573d6000803e3d6000fd5b505050506040513d60208110156122bf57600080fd5b8101908080519060200190929190505050612325576040517f08c379a0000000000000000000000000000000000000000000000000000000008152600401808060200182810382526040815260200180617de26040913960400191505060405180910390fd5b6000600360003373ffffffffffffffffffffffffffffffffffffffff1673ffffffffffffffffffffffffffffffffffffffff1681526020019081526020016000209050806001018054905083106123e4576040517f08c379a000000000000000000000000000000000000000000000000000000000815260040180806020018281038252601c8152602001807f4261642070656e64696e67207769746864726177616c20696e6465780000000081525060200191505060405180910390fd5b60008160010184815481106123f557fe5b90600052602060002090600202019050806001015442101561247f576040517f08c379a00000000000000000000000000000000000000000000000000000000081526004018080602001828103825260208152602001807f50656e64696e67207769746864726177616c206e6f7420617661696c61626c6581525060200191505060405180910390fd5b6000816000015490506124958360010186616a6f565b4781111561250b576040517f08c379a00000000000000000000000000000000000000000000000000000000081526004018080602001828103825260148152602001807f496e636f6e73697374656e742062616c616e636500000000000000000000000081525060200191505060405180910390fd5b612534813373ffffffffffffffffffffffffffffffffffffffff16616ae990919063ffffffff16565b3373ffffffffffffffffffffffffffffffffffffffff167f292d39ba701489b7f640c83806d3eeabe0a32c9f0a61b49e95612ebad42211cd826040518082815260200191505060405180910390a250505060005481146125fc576040517f08c379a000000000000000000000000000000000000000000000000000000000815260040180806020018281038252600e8152602001807f7265656e7472616e742063616c6c00000000000000000000000000000000000081525060200191505060405180910390fd5b5050565b600061269e61260d616c23565b73ffffffffffffffffffffffffffffffffffffffff16639a0e7d666040518163ffffffff1660e01b815260040160206040518083038186803b15801561265257600080fd5b505afa158015612666573d6000803e3d6000fd5b505050506040513d602081101561267c57600080fd5b8101908080519060200190929190505050600654616d1e90919063ffffffff16565b905090565b600080600360008473ffffffffffffffffffffffffffffffffffffffff1673ffffffffffffffffffffffffffffffffffffffff1681526020019081526020016000206000015490506127bc6126f6616c23565b73ffffffffffffffffffffffffffffffffffffffff16636c781a2c856040518263ffffffff1660e01b8152600401808273ffffffffffffffffffffffffffffffffffffffff1673ffffffffffffffffffffffffffffffffffffffff16815260200191505060206040518083038186803b15801561277257600080fd5b505afa158015612786573d6000803e3d6000fd5b505050506040513d602081101561279c57600080fd5b810190808051906020019092919050505082616d1e90919063ffffffff16565b915050919050565b600260009054906101000a900473ffffffffffffffffffffffffffffffffffffffff1673ffffffffffffffffffffffffffffffffffffffff166317c508186005336040518363ffffffff1660e01b815260040180806020018373ffffffffffffffffffffffffffffffffffffffff1673ffffffffffffffffffffffffffffffffffffffff168152602001828103825284818154815260200191508054801561288b57602002820191906000526020600020905b815481526020019060010190808311612877575b5050935050505060206040518083038186803b1580156128aa57600080fd5b505afa1580156128be573d6000803e3d6000fd5b505050506040513d60208110156128d457600080fd5b810190808051906020019092919050505061293a576040517f08c379a0000000000000000000000000000000000000000000000000000000008152600401808060200182810382526024815260200180617c7d6024913960400191505060405180910390fd5b600061294e8a6129498d6126a3565b61654a565b9050878110156129c6576040517f08c379a000000000000000000000000000000000000000000000000000000000815260040180806020018281038252601d8152602001807f7265776172642063616e6e6f74206578636565642070656e616c74792e00000081525060200191505060405180910390fd5b600073ffffffffffffffffffffffffffffffffffffffff168973ffffffffffffffffffffffffffffffffffffffff1614612abc57612a02615ad8565b73ffffffffffffffffffffffffffffffffffffffff166393c5c4878a6040518263ffffffff1660e01b8152600401808273ffffffffffffffffffffffffffffffffffffffff1673ffffffffffffffffffffffffffffffffffffffff16815260200191505060206040518083038186803b158015612a7e57600080fd5b505afa158015612a92573d6000803e3d6000fd5b505050506040513d6020811015612aa857600080fd5b810190808051906020019092919050505098505b6000600360008d73ffffffffffffffffffffffffffffffffffffffff1673ffffffffffffffffffffffffffffffffffffffff168152602001908152602001600020600001549050600080905082821015612ceb57612b238284616da690919063ffffffff16565b905080612b2e616c23565b73ffffffffffffffffffffffffffffffffffffffff16638ef01def8f848d8d8d8d8d8d6040518963ffffffff1660e01b8152600401808973ffffffffffffffffffffffffffffffffffffffff1673ffffffffffffffffffffffffffffffffffffffff16815260200188815260200180602001806020018060200184810384528a8a82818152602001925060200280828437600081840152601f19601f8201169050808301925050508481038352888882818152602001925060200280828437600081840152601f19601f8201169050808301925050508481038252868682818152602001925060200280828437600081840152601f19601f8201169050808301925050509b505050505050505050505050602060405180830381600087803b158015612c5957600080fd5b505af1158015612c6d573d6000803e3d6000fd5b505050506040513d6020811015612c8357600080fd5b810190808051906020019092919050505014612cea576040517f08c379a000000000000000000000000000000000000000000000000000000000815260040180806020018281038252602181526020018061804f6021913960400191505060405180910390fd5b5b612d078d612d028386616da690919063ffffffff16565b6169b5565b612d118b8b616df0565b50506000600260009054906101000a900473ffffffffffffffffffffffffffffffffffffffff1673ffffffffffffffffffffffffffffffffffffffff1663dcf0aaed60405160200180807f476f7665726e616e636500000000000000000000000000000000000000000000815250600a019050604051602081830303815290604052805190602001206040518263ffffffff1660e01b81526004018082815260200191505060206040518083038186803b158015612dce57600080fd5b505afa158015612de2573d6000803e3d6000fd5b505050506040513d6020811015612df857600080fd5b81019080805190602001909291905050509050600081905047612e248b85616da690919063ffffffff16565b1115612e98576040517f08c379a00000000000000000000000000000000000000000000000000000000081526004018080602001828103825260148152602001807f496e636f6e73697374656e742062616c616e636500000000000000000000000081525060200191505060405180910390fd5b612ed3612eae8b85616da690919063ffffffff16565b8273ffffffffffffffffffffffffffffffffffffffff16616ae990919063ffffffff16565b8a73ffffffffffffffffffffffffffffffffffffffff168d73ffffffffffffffffffffffffffffffffffffffff167f7abcb995a115c34a67528d58d5fc5ce02c22cb835ce1685046163f7d366d7111858d604051808381526020018281526020019250505060405180910390a350505050505050505050505050565b6000600360008373ffffffffffffffffffffffffffffffffffffffff1673ffffffffffffffffffffffffffffffffffffffff168152602001908152602001600020600001549050919050565b60008060008060018060046000839350829250819150809050935093509350935090919293565b6000600260009054906101000a900473ffffffffffffffffffffffffffffffffffffffff1673ffffffffffffffffffffffffffffffffffffffff166317c508186005846040518363ffffffff1660e01b815260040180806020018373ffffffffffffffffffffffffffffffffffffffff1673ffffffffffffffffffffffffffffffffffffffff168152602001828103825284818154815260200191508054801561308b57602002820191906000526020600020905b815481526020019060010190808311613077575b5050935050505060206040518083038186803b1580156130aa57600080fd5b505afa1580156130be573d6000803e3d6000fd5b505050506040513d60208110156130d457600080fd5b81019080805190602001909291905050509050919050565b6130f4617b51565b6130fd82615cc1565b90506131108161310b615cdf565b615d05565b613165576040517f08c379a0000000000000000000000000000000000000000000000000000000008152600401808060200182810382526031815260200180617e796031913960400191505060405180910390fd5b600061316f615ad8565b73ffffffffffffffffffffffffffffffffffffffff16636642d594336040518263ffffffff1660e01b8152600401808273ffffffffffffffffffffffffffffffffffffffff1673ffffffffffffffffffffffffffffffffffffffff16815260200191505060206040518083038186803b1580156131eb57600080fd5b505afa1580156131ff573d6000803e3d6000fd5b505050506040513d602081101561321557600080fd5b810190808051906020019092919050505090506000613232615ad8565b73ffffffffffffffffffffffffffffffffffffffff16636642d594866040518263ffffffff1660e01b8152600401808273ffffffffffffffffffffffffffffffffffffffff1673ffffffffffffffffffffffffffffffffffffffff16815260200191505060206040518083038186803b1580156132ae57600080fd5b505afa1580156132c2573d6000803e3d6000fd5b505050506040513d60208110156132d857600080fd5b8101908080519060200190929190505050905060006132f5616eaa565b90508073ffffffffffffffffffffffffffffffffffffffff1663facd743b846040518263ffffffff1660e01b8152600401808273ffffffffffffffffffffffffffffffffffffffff1673ffffffffffffffffffffffffffffffffffffffff16815260200191505060206040518083038186803b15801561337457600080fd5b505afa158015613388573d6000803e3d6000fd5b505050506040513d602081101561339e57600080fd5b810190808051906020019092919050505015613405576040517f08c379a0000000000000000000000000000000000000000000000000000000008152600401808060200182810382526021815260200180617c5c6021913960400191505060405180910390fd5b8073ffffffffffffffffffffffffffffffffffffffff166352f13a4e846040518263ffffffff1660e01b8152600401808273ffffffffffffffffffffffffffffffffffffffff1673ffffffffffffffffffffffffffffffffffffffff16815260200191505060206040518083038186803b15801561348257600080fd5b505afa158015613496573d6000803e3d6000fd5b505050506040513d60208110156134ac57600080fd5b810190808051906020019092919050505015613513576040517f08c379a0000000000000000000000000000000000000000000000000000000008152600401808060200182810382526027815260200180617fca6027913960400191505060405180910390fd5b6000600860008573ffffffffffffffffffffffffffffffffffffffff1673ffffffffffffffffffffffffffffffffffffffff168152602001908152602001600020905061356c8382600001616fa590919063ffffffff16565b50600a5461357c82600001617075565b11156135f0576040517f08c379a00000000000000000000000000000000000000000000000000000000081526004018080602001828103825260138152602001807f546f6f206d616e792064656c656761746565730000000000000000000000000081525060200191505060405180910390fd5b60008160020160008573ffffffffffffffffffffffffffffffffffffffff1673ffffffffffffffffffffffffffffffffffffffff16815260200190815260200160002090506136578682600001604051806020016040529081600082015481525050615d1b565b6136ac576040517f08c379a0000000000000000000000000000000000000000000000000000000008152600401808060200182810382526046815260200180617c166046913960600191505060405180910390fd5b6136b4617b51565b613709876136fb8460000160405180602001604052908160008201548152505086600301604051806020016040529081600082015481525050615f9990919063ffffffff16565b61708690919063ffffffff16565b905061371c81613717615cdf565b615d05565b61378e576040517f08c379a000000000000000000000000000000000000000000000000000000000815260040180806020018281038252601e8152602001807f43616e6e6f742064656c6567617465206d6f7265207468616e2031303025000081525060200191505060405180910390fd5b6000613799876126a3565b905060008114156138a2576137f9886137eb8560000160405180602001604052908160008201548152505087600301604051806020016040529081600082015481525050615f9990919063ffffffff16565b61708690919063ffffffff16565b84600301600082015181600001559050508783600001600082015181600001559050508573ffffffffffffffffffffffffffffffffffffffff168773ffffffffffffffffffffffffffffffffffffffff167fc4ed9e859cb808c8bf287ad013d5178069b5e94d91819c335ba2e407fbed90446138748b615cb3565b8660010154604051808381526020018281526020019250505060405180910390a35050505050505050613bf0565b60006138ac61712f565b73ffffffffffffffffffffffffffffffffffffffff166366547163896040518263ffffffff1660e01b8152600401808273ffffffffffffffffffffffffffffffffffffffff1673ffffffffffffffffffffffffffffffffffffffff16815260200191505060206040518083038186803b15801561392857600080fd5b505afa15801561393c573d6000803e3d6000fd5b505050506040513d602081101561395257600080fd5b81019080805190602001909291905050509050600081146139fb57613975617b51565b61397f828461722a565b90506139a4613997858361708690919063ffffffff16565b61399f615cdf565b615d05565b6139f9576040517f08c379a0000000000000000000000000000000000000000000000000000000008152600401808060200182810382526033815260200180617efb6033913960400191505060405180910390fd5b505b6000613a3e613a39613a108760010154616040565b613a2b8d613a1d88616040565b6160ca90919063ffffffff16565b615f9990919063ffffffff16565b616529565b9050613a958a613a878760000160405180602001604052908160008201548152505089600301604051806020016040529081600082015481525050615f9990919063ffffffff16565b61708690919063ffffffff16565b8660030160008201518160000155905050898560000160008201518160000155905050613acf818660010154616d1e90919063ffffffff16565b8560010181905550613b2981600960008b73ffffffffffffffffffffffffffffffffffffffff1673ffffffffffffffffffffffffffffffffffffffff16815260200190815260200160002054616d1e90919063ffffffff16565b600960008a73ffffffffffffffffffffffffffffffffffffffff1673ffffffffffffffffffffffffffffffffffffffff168152602001908152602001600020819055508773ffffffffffffffffffffffffffffffffffffffff168973ffffffffffffffffffffffffffffffffffffffff167fc4ed9e859cb808c8bf287ad013d5178069b5e94d91819c335ba2e407fbed9044613bc48d615cb3565b8860010154604051808381526020018281526020019250505060405180910390a3505050505050505050505b5050565b60016000808282540192505081905550600080549050613c12615ad8565b73ffffffffffffffffffffffffffffffffffffffff166325ca4c9c336040518263ffffffff1660e01b8152600401808273ffffffffffffffffffffffffffffffffffffffff1673ffffffffffffffffffffffffffffffffffffffff16815260200191505060206040518083038186803b158015613c8e57600080fd5b505afa158015613ca2573d6000803e3d6000fd5b505050506040513d6020811015613cb857600080fd5b8101908080519060200190929190505050613d1e576040517f08c379a0000000000000000000000000000000000000000000000000000000008152600401808060200182810382526046815260200180617f846046913960600191505060405180910390fd5b6000600360003373ffffffffffffffffffffffffffffffffffffffff1673ffffffffffffffffffffffffffffffffffffffff16815260200190815260200160002090506000613d6c336126a3565b90506000613d838583616da690919063ffffffff16565b90506000613d8f61712f565b73ffffffffffffffffffffffffffffffffffffffff166366547163336040518263ffffffff1660e01b8152600401808273ffffffffffffffffffffffffffffffffffffffff1673ffffffffffffffffffffffffffffffffffffffff16815260200191505060206040518083038186803b158015613e0b57600080fd5b505afa158015613e1f573d6000803e3d6000fd5b505050506040513d6020811015613e3557600080fd5b8101908080519060200190929190505050905080821015613ea1576040517f08c379a000000000000000000000000000000000000000000000000000000000815260040180806020018281038252603581526020018061801a6035913960400191505060405180910390fd5b613ea9617b51565b600860003373ffffffffffffffffffffffffffffffffffffffff1673ffffffffffffffffffffffffffffffffffffffff1681526020019081526020016000206003016040518060200160405290816000820154815250509050613f1581613f106000616040565b61726c565b15613f2557613f243388617281565b5b6000613f2f616eaa565b73ffffffffffffffffffffffffffffffffffffffff1663dcff4cf6336040518263ffffffff1660e01b8152600401808273ffffffffffffffffffffffffffffffffffffffff1673ffffffffffffffffffffffffffffffffffffffff16815260200191505060206040518083038186803b158015613fab57600080fd5b505afa158015613fbf573d6000803e3d6000fd5b505050506040513d6020811015613fd557600080fd5b810190808051906020019092919050505090506000811480613ff75750838111155b61404c576040517f08c379a0000000000000000000000000000000000000000000000000000000008152600401808060200182810382526057815260200180617e226057913960600191505060405180910390fd5b61405633896169b5565b600061406d60075442616d1e90919063ffffffff16565b90508660010160405180604001604052808b8152602001838152509080600181540180825580915050906001820390600052602060002090600202016000909192909190915060008201518160000155602082015181600101555050503373ffffffffffffffffffffffffffffffffffffffff167fb1a3aef2a332070da206ad1868a5e327f5aa5144e00e9a7b40717c153158a5888a83604051808381526020018281526020019250505060405180910390a250505050505050600054811461419e576040517f08c379a000000000000000000000000000000000000000000000000000000000815260040180806020018281038252600e8152602001807f7265656e7472616e742063616c6c00000000000000000000000000000000000081525060200191505060405180910390fd5b5050565b60006141ac617b51565b6141d66141c06141bb8561149c565b615cc1565b6141c8615cdf565b615f9990919063ffffffff16565b905060006141e3846126a3565b9050600061420a614205846141f785616040565b6160ca90919063ffffffff16565b616529565b905061425e600960008773ffffffffffffffffffffffffffffffffffffffff1673ffffffffffffffffffffffffffffffffffffffff1681526020019081526020016000205482616d1e90919063ffffffff16565b9350505050919050565b614270614a84565b6142e2576040517f08c379a00000000000000000000000000000000000000000000000000000000081526004018080602001828103825260208152602001807f4f776e61626c653a2063616c6c6572206973206e6f7420746865206f776e657281525060200191505060405180910390fd5b60008282604051602001808383808284378083019250505092505050604051602081830303815290604052805190602001209050600073ffffffffffffffffffffffffffffffffffffffff16600260009054906101000a900473ffffffffffffffffffffffffffffffffffffffff1673ffffffffffffffffffffffffffffffffffffffff1663dd927233836040518263ffffffff1660e01b81526004018082815260200191505060206040518083038186803b1580156143a157600080fd5b505afa1580156143b5573d6000803e3d6000fd5b505050506040513d60208110156143cb57600080fd5b810190808051906020019092919050505073ffffffffffffffffffffffffffffffffffffffff161415614466576040517f08c379a000000000000000000000000000000000000000000000000000000000815260040180806020018281038252601c8152602001807f4964656e746966696572206973206e6f7420726567697374657265640000000081525060200191505060405180910390fd5b6004600082815260200190815260200160002060009054906101000a900460ff16156144fa576040517f08c379a000000000000000000000000000000000000000000000000000000000815260040180806020018281038252601c8152602001807f43616e6e6f742061646420736c61736865722049442074776963652e0000000081525060200191505060405180910390fd5b600581908060018154018082558091505090600182039060005260206000200160009091929091909150555060016004600083815260200190815260200160002060006101000a81548160ff021916908315150217905550828260405180838380828437808301925050509250505060405180910390207f92a16cb9e1846d175c3007fc61953d186452c9ea1aa34183eb4b7f88cd3f07bb60405160405180910390a2505050565b6145aa614a84565b61461c576040517f08c379a00000000000000000000000000000000000000000000000000000000081526004018080602001828103825260208152602001807f4f776e61626c653a2063616c6c6572206973206e6f7420746865206f776e657281525060200191505060405180910390fd5b600754811415614694576040517f08c379a000000000000000000000000000000000000000000000000000000000815260040180806020018281038252601c8152602001807f556e6c6f636b696e6720706572696f64206e6f74206368616e6765640000000081525060200191505060405180910390fd5b806007819055507fd9274a7c98edc7c66931fc71872764091e7023fe3867358f8504d4c21b161fc5816040518082815260200191505060405180910390a150565b600581815481106146e257fe5b906000526020600020016000915090505481565b60405160200180807f456c656374696f6e0000000000000000000000000000000000000000000000008152506008019050604051602081830303815290604052805190602001203373ffffffffffffffffffffffffffffffffffffffff16600260009054906101000a900473ffffffffffffffffffffffffffffffffffffffff1673ffffffffffffffffffffffffffffffffffffffff1663dcf0aaed836040518263ffffffff1660e01b81526004018082815260200191505060206040518083038186803b1580156147c757600080fd5b505afa1580156147db573d6000803e3d6000fd5b505050506040513d60208110156147f157600080fd5b810190808051906020019092919050505073ffffffffffffffffffffffffffffffffffffffff161461488b576040517f08c379a00000000000000000000000000000000000000000000000000000000081526004018080602001828103825260188152602001807f6f6e6c79207265676973746572656420636f6e7472616374000000000000000081525060200191505060405180910390fd5b6148958383616df0565b505050565b6148a2614a84565b614914576040517f08c379a00000000000000000000000000000000000000000000000000000000081526004018080602001828103825260208152602001807f4f776e61626c653a2063616c6c6572206973206e6f7420746865206f776e657281525060200191505060405180910390fd5b600073ffffffffffffffffffffffffffffffffffffffff166001809054906101000a900473ffffffffffffffffffffffffffffffffffffffff1673ffffffffffffffffffffffffffffffffffffffff167f8be0079c531659141344cd1fd0a4f28419497f9722a3daafe3b4186f6b6457e060405160405180910390a360006001806101000a81548173ffffffffffffffffffffffffffffffffffffffff021916908373ffffffffffffffffffffffffffffffffffffffff160217905550565b600260009054906101000a900473ffffffffffffffffffffffffffffffffffffffff1681565b6000600654905090565b606080614a50600860008573ffffffffffffffffffffffffffffffffffffffff1673ffffffffffffffffffffffffffffffffffffffff168152602001908152602001600020600001617487565b905080915050919050565b60006001809054906101000a900473ffffffffffffffffffffffffffffffffffffffff16905090565b60006001809054906101000a900473ffffffffffffffffffffffffffffffffffffffff1673ffffffffffffffffffffffffffffffffffffffff16614ac661756c565b73ffffffffffffffffffffffffffffffffffffffff1614905090565b614aea614a84565b614b5c576040517f08c379a00000000000000000000000000000000000000000000000000000000081526004018080602001828103825260208152602001807f4f776e61626c653a2063616c6c6572206973206e6f7420746865206f776e657281525060200191505060405180910390fd5b600073ffffffffffffffffffffffffffffffffffffffff168173ffffffffffffffffffffffffffffffffffffffff161415614bff576040517f08c379a00000000000000000000000000000000000000000000000000000000081526004018080602001828103825260208152602001807f43616e6e6f7420726567697374657220746865206e756c6c206164647265737381525060200191505060405180910390fd5b80600260006101000a81548173ffffffffffffffffffffffffffffffffffffffff021916908373ffffffffffffffffffffffffffffffffffffffff1602179055508073ffffffffffffffffffffffffffffffffffffffff167f27fe5f0c1c3b1ed427cc63d0f05759ffdecf9aec9e18d31ef366fc8a6cb5dc3b60405160405180910390a250565b60016000808282540192505081905550600080549050614ca4615ad8565b73ffffffffffffffffffffffffffffffffffffffff166325ca4c9c336040518263ffffffff1660e01b8152600401808273ffffffffffffffffffffffffffffffffffffffff1673ffffffffffffffffffffffffffffffffffffffff16815260200191505060206040518083038186803b158015614d2057600080fd5b505afa158015614d34573d6000803e3d6000fd5b505050506040513d6020811015614d4a57600080fd5b8101908080519060200190929190505050614db0576040517f08c379a0000000000000000000000000000000000000000000000000000000008152600401808060200182810382526046815260200180617d2c6046913960600191505060405180910390fd5b6000600360003373ffffffffffffffffffffffffffffffffffffffff1673ffffffffffffffffffffffffffffffffffffffff168152602001908152602001600020905080600101805490508410614e6f576040517f08c379a000000000000000000000000000000000000000000000000000000000815260040180806020018281038252601c8152602001807f4261642070656e64696e67207769746864726177616c20696e6465780000000081525060200191505060405180910390fd5b6000816001018581548110614e8057fe5b906000526020600020906002020190508060000154841115614eed576040517f08c379a0000000000000000000000000000000000000000000000000000000008152600401808060200182810382526029815260200180617eaa6029913960400191505060405180910390fd5b8060000154841415614f0b57614f068260010186616a6f565b614f2b565b614f22848260000154616da690919063ffffffff16565b81600001819055505b614f353385616df0565b614f3e33617574565b3373ffffffffffffffffffffffffffffffffffffffff167fa823fc38a01c2f76d7057a79bb5c317710f26f7dbdea78634598d5519d0f7cb0856040518082815260200191505060405180910390a250506000548114615005576040517f08c379a000000000000000000000000000000000000000000000000000000000815260040180806020018281038252600e8152602001807f7265656e7472616e742063616c6c00000000000000000000000000000000000081525060200191505060405180910390fd5b505050565b600080600090506060600360008573ffffffffffffffffffffffffffffffffffffffff1673ffffffffffffffffffffffffffffffffffffffff168152602001908152602001600020600101805480602002602001604051908101604052809291908181526020016000905b828210156150bb57838290600052602060002090600202016040518060400160405290816000820154815260200160018201548152505081526020019060010190615075565b50505050905060008090505b8151811015615117576150fa8282815181106150df57fe5b60200260200101516000015184616d1e90919063ffffffff16565b9250615110600182616d1e90919063ffffffff16565b90506150c7565b508192505050919050565b60065481565b60096020528060005260406000206000915090505481565b6000600360008373ffffffffffffffffffffffffffffffffffffffff1673ffffffffffffffffffffffffffffffffffffffff168152602001908152602001600020600101805490509050919050565b600160009054906101000a900460ff1615615212576040517f08c379a000000000000000000000000000000000000000000000000000000000815260040180806020018281038252601c8152602001807f636f6e747261637420616c726561647920696e697469616c697a65640000000081525060200191505060405180910390fd5b60018060006101000a81548160ff021916908315150217905550615235336176d1565b61523e82614ae2565b615247816145a2565b600a80819055505050565b60008061525d615ad8565b73ffffffffffffffffffffffffffffffffffffffff166325ca4c9c856040518263ffffffff1660e01b8152600401808273ffffffffffffffffffffffffffffffffffffffff1673ffffffffffffffffffffffffffffffffffffffff16815260200191505060206040518083038186803b1580156152d957600080fd5b505afa1580156152ed573d6000803e3d6000fd5b505050506040513d602081101561530357600080fd5b8101908080519060200190929190505050615369576040517f08c379a0000000000000000000000000000000000000000000000000000000008152600401808060200182810382526042815260200180617cea6042913960600191505060405180910390fd5b600360008573ffffffffffffffffffffffffffffffffffffffff1673ffffffffffffffffffffffffffffffffffffffff168152602001908152602001600020600101805490508310615423576040517f08c379a000000000000000000000000000000000000000000000000000000000815260040180806020018281038252601c8152602001807f4261642070656e64696e67207769746864726177616c20696e6465780000000081525060200191505060405180910390fd5b61542b617b64565b600360008673ffffffffffffffffffffffffffffffffffffffff1673ffffffffffffffffffffffffffffffffffffffff168152602001908152602001600020600101848154811061547857fe5b90600052602060002090600202016040518060400160405290816000820154815260200160018201548152505090508060000151816020015192509250509250929050565b60006154c7615ad8565b73ffffffffffffffffffffffffffffffffffffffff16636642d594836040518263ffffffff1660e01b8152600401808273ffffffffffffffffffffffffffffffffffffffff1673ffffffffffffffffffffffffffffffffffffffff16815260200191505060206040518083038186803b15801561554357600080fd5b505afa158015615557573d6000803e3d6000fd5b505050506040513d602081101561556d57600080fd5b8101908080519060200190929190505050905061558981617574565b5050565b615595614a84565b615607576040517f08c379a00000000000000000000000000000000000000000000000000000000081526004018080602001828103825260208152602001807f4f776e61626c653a2063616c6c6572206973206e6f7420746865206f776e657281525060200191505060405180910390fd5b615610816176d1565b50565b60608061561e615ad8565b73ffffffffffffffffffffffffffffffffffffffff166325ca4c9c846040518263ffffffff1660e01b8152600401808273ffffffffffffffffffffffffffffffffffffffff1673ffffffffffffffffffffffffffffffffffffffff16815260200191505060206040518083038186803b15801561569a57600080fd5b505afa1580156156ae573d6000803e3d6000fd5b505050506040513d60208110156156c457600080fd5b810190808051906020019092919050505061572a576040517f08c379a0000000000000000000000000000000000000000000000000000000008152600401808060200182810382526042815260200180617cea6042913960600191505060405180910390fd5b6000600360008573ffffffffffffffffffffffffffffffffffffffff1673ffffffffffffffffffffffffffffffffffffffff1681526020019081526020016000206001018054905090506060816040519080825280602002602001820160405280156157a55781602001602082028038833980820191505090505b5090506060826040519080825280602002602001820160405280156157d95781602001602082028038833980820191505090505b50905060008090505b838110156158c4576157f2617b64565b600360008973ffffffffffffffffffffffffffffffffffffffff1673ffffffffffffffffffffffffffffffffffffffff168152602001908152602001600020600101828154811061583f57fe5b9060005260206000209060020201604051806040016040529081600082015481526020016001820154815250509050806000015184838151811061587f57fe5b602002602001018181525050806020015183838151811061589c57fe5b602002602001018181525050506158bd600182616d1e90919063ffffffff16565b90506157e2565b50818194509450505050915091565b600160008082825401925050819055506000805490506158f1615ad8565b73ffffffffffffffffffffffffffffffffffffffff166325ca4c9c336040518263ffffffff1660e01b8152600401808273ffffffffffffffffffffffffffffffffffffffff1673ffffffffffffffffffffffffffffffffffffffff16815260200191505060206040518083038186803b15801561596d57600080fd5b505afa158015615981573d6000803e3d6000fd5b505050506040513d602081101561599757600080fd5b81019080805190602001909291905050506159fd576040517f08c379a0000000000000000000000000000000000000000000000000000000008152600401808060200182810382526036815260200180617be06036913960400191505060405180910390fd5b615a073334616df0565b615a1033617574565b3373ffffffffffffffffffffffffffffffffffffffff167f0f0f2fc5b4c987a49e1663ce2c2d65de12f3b701ff02b4d09461421e63e609e7346040518082815260200191505060405180910390a26000548114615ad5576040517f08c379a000000000000000000000000000000000000000000000000000000000815260040180806020018281038252600e8152602001807f7265656e7472616e742063616c6c00000000000000000000000000000000000081525060200191505060405180910390fd5b50565b6000600260009054906101000a900473ffffffffffffffffffffffffffffffffffffffff1673ffffffffffffffffffffffffffffffffffffffff1663dcf0aaed60405160200180807f4163636f756e74730000000000000000000000000000000000000000000000008152506008019050604051602081830303815290604052805190602001206040518263ffffffff1660e01b81526004018082815260200191505060206040518083038186803b158015615b9357600080fd5b505afa158015615ba7573d6000803e3d6000fd5b505050506040513d6020811015615bbd57600080fd5b8101908080519060200190929190505050905090565b6000806000600860008673ffffffffffffffffffffffffffffffffffffffff1673ffffffffffffffffffffffffffffffffffffffff16815260200190815260200160002060020160008573ffffffffffffffffffffffffffffffffffffffff1673ffffffffffffffffffffffffffffffffffffffff16815260200190815260200160002090506000615c9e615c9983600001604051806020016040529081600082015481525050615c8b615c868a6126a3565b616040565b6160ca90919063ffffffff16565b616529565b90508093508160010154925050509250929050565b600081600001519050919050565b615cc9617b51565b6040518060200160405280838152509050919050565b615ce7617b51565b604051806020016040528069d3c21bcecceda1000000815250905090565b6000816000015183600001511115905092915050565b6000816000015183600001511015905092915050565b600080600860008573ffffffffffffffffffffffffffffffffffffffff1673ffffffffffffffffffffffffffffffffffffffff16815260200190815260200160002090506000615d9882600301604051806020016040529081600082015481525050615cb3565b1415615e0c576040517f08c379a000000000000000000000000000000000000000000000000000000000815260040180806020018281038252601b8152602001807f64656c656761746f72206973206e6f742064656c65676174696e67000000000081525060200191505060405180910390fd5b60008160020160008573ffffffffffffffffffffffffffffffffffffffff1673ffffffffffffffffffffffffffffffffffffffff16815260200190815260200160002090506000615e7482600001604051806020016040529081600082015481525050615cb3565b1415615ecb576040517f08c379a0000000000000000000000000000000000000000000000000000000008152600401808060200182810382526029815260200180617ff16029913960400191505060405180910390fd5b600080615ed887876112e5565b91509150818360010181905550615f4982615f3b83600960008b73ffffffffffffffffffffffffffffffffffffffff1673ffffffffffffffffffffffffffffffffffffffff16815260200190815260200160002054616da690919063ffffffff16565b616d1e90919063ffffffff16565b600960008873ffffffffffffffffffffffffffffffffffffffff1673ffffffffffffffffffffffffffffffffffffffff168152602001908152602001600020819055508194505050505092915050565b615fa1617b51565b81600001518360000151101561601f576040517f08c379a000000000000000000000000000000000000000000000000000000000815260040180806020018281038252601f8152602001807f737562737472616374696f6e20756e646572666c6f772064657465637465640081525060200191505060405180910390fd5b60405180602001604052808360000151856000015103815250905092915050565b616048617b51565b616050617815565b8211156160a8576040517f08c379a0000000000000000000000000000000000000000000000000000000008152600401808060200182810382526036815260200180617dac6036913960400191505060405180910390fd5b604051806020016040528069d3c21bcecceda100000084028152509050919050565b6160d2617b51565b6000836000015114806160e9575060008260000151145b1561610557604051806020016040528060008152509050616523565b69d3c21bcecceda10000008260000151141561612357829050616523565b69d3c21bcecceda10000008360000151141561614157819050616523565b600069d3c21bcecceda100000061615785617834565b600001518161616257fe5b04905060006161708561786b565b600001519050600069d3c21bcecceda100000061618c86617834565b600001518161619757fe5b04905060006161a58661786b565b600001519050600082850290506000851461623957828582816161c457fe5b0414616238576040517f08c379a00000000000000000000000000000000000000000000000000000000081526004018080602001828103825260168152602001807f6f766572666c6f7720783179312064657465637465640000000000000000000081525060200191505060405180910390fd5b5b600069d3c21bcecceda100000082029050600082146162db5769d3c21bcecceda100000082828161626657fe5b04146162da576040517f08c379a000000000000000000000000000000000000000000000000000000000815260040180806020018281038252601f8152602001807f6f766572666c6f772078317931202a206669786564312064657465637465640081525060200191505060405180910390fd5b5b809150600084860290506000861461636c57848682816162f757fe5b041461636b576040517f08c379a00000000000000000000000000000000000000000000000000000000081526004018080602001828103825260168152602001807f6f766572666c6f7720783279312064657465637465640000000000000000000081525060200191505060405180910390fd5b5b60008488029050600088146163fa578488828161638557fe5b04146163f9576040517f08c379a00000000000000000000000000000000000000000000000000000000081526004018080602001828103825260168152602001807f6f766572666c6f7720783179322064657465637465640000000000000000000081525060200191505060405180910390fd5b5b6164026178a8565b878161640a57fe5b0496506164156178a8565b858161641d57fe5b04945060008588029050600088146164ae578588828161643957fe5b04146164ad576040517f08c379a00000000000000000000000000000000000000000000000000000000081526004018080602001828103825260168152602001807f6f766572666c6f7720783279322064657465637465640000000000000000000081525060200191505060405180910390fd5b5b6164b6617b51565b60405180602001604052808781525090506164df81604051806020016040528087815250617086565b90506164f981604051806020016040528086815250617086565b905061651381604051806020016040528085815250617086565b9050809a50505050505050505050505b92915050565b600069d3c21bcecceda100000082600001518161654257fe5b049050919050565b6000818310616559578161655b565b825b905092915050565b600061656e846141a2565b9050600061657a61712f565b73ffffffffffffffffffffffffffffffffffffffff166366547163866040518263ffffffff1660e01b8152600401808273ffffffffffffffffffffffffffffffffffffffff1673ffffffffffffffffffffffffffffffffffffffff16815260200191505060206040518083038186803b1580156165f657600080fd5b505afa15801561660a573d6000803e3d6000fd5b505050506040513d602081101561662057600080fd5b8101908080519060200190929190505050905060006166488284616da690919063ffffffff16565b90508481101561670b5761665a61712f565b73ffffffffffffffffffffffffffffffffffffffff1663f3f6da2c876166898887616da690919063ffffffff16565b6040518363ffffffff1660e01b8152600401808373ffffffffffffffffffffffffffffffffffffffff1673ffffffffffffffffffffffffffffffffffffffff16815260200182815260200192505050600060405180830381600087803b1580156166f257600080fd5b505af1158015616706573d6000803e3d6000fd5b505050505b616722858560010154616da690919063ffffffff16565b846001018190555061677c85600960008973ffffffffffffffffffffffffffffffffffffffff1673ffffffffffffffffffffffffffffffffffffffff16815260200190815260200160002054616da690919063ffffffff16565b600960008873ffffffffffffffffffffffffffffffffffffffff1673ffffffffffffffffffffffffffffffffffffffff16815260200190815260200160002081905550505050505050565b60006167d383836178b5565b156169aa57600060018460000160008573ffffffffffffffffffffffffffffffffffffffff1673ffffffffffffffffffffffffffffffffffffffff1681526020019081526020016000205403905060006001856001018054905003905081811461691857600085600101828154811061684857fe5b9060005260206000200160009054906101000a900473ffffffffffffffffffffffffffffffffffffffff1690508086600101848154811061688557fe5b9060005260206000200160006101000a81548173ffffffffffffffffffffffffffffffffffffffff021916908373ffffffffffffffffffffffffffffffffffffffff160217905550600183018660000160008373ffffffffffffffffffffffffffffffffffffffff1673ffffffffffffffffffffffffffffffffffffffff16815260200190815260200160002081905550505b8460000160008573ffffffffffffffffffffffffffffffffffffffff1673ffffffffffffffffffffffffffffffffffffffff168152602001908152602001600020600090558460010180548061696a57fe5b6001900381819060005260206000200160006101000a81549073ffffffffffffffffffffffffffffffffffffffff021916905590556001925050506169af565b600090505b92915050565b616a0a81600360008573ffffffffffffffffffffffffffffffffffffffff1673ffffffffffffffffffffffffffffffffffffffff16815260200190815260200160002060000154616da690919063ffffffff16565b600360008473ffffffffffffffffffffffffffffffffffffffff1673ffffffffffffffffffffffffffffffffffffffff16815260200190815260200160002060000181905550616a6581600654616da690919063ffffffff16565b6006819055505050565b6000616a8960018480549050616da690919063ffffffff16565b9050828181548110616a9757fe5b9060005260206000209060020201838381548110616ab157fe5b90600052602060002090600202016000820154816000015560018201548160010155905050808381616ae39190617b7e565b50505050565b80471015616b5f576040517f08c379a000000000000000000000000000000000000000000000000000000000815260040180806020018281038252601d8152602001807f416464726573733a20696e73756666696369656e742062616c616e636500000081525060200191505060405180910390fd5b60008273ffffffffffffffffffffffffffffffffffffffff168260405180600001905060006040518083038185875af1925050503d8060008114616bbf576040519150601f19603f3d011682016040523d82523d6000602084013e616bc4565b606091505b5050905080616c1e576040517f08c379a000000000000000000000000000000000000000000000000000000000815260040180806020018281038252603a815260200180617d72603a913960400191505060405180910390fd5b505050565b6000600260009054906101000a900473ffffffffffffffffffffffffffffffffffffffff1673ffffffffffffffffffffffffffffffffffffffff1663dcf0aaed60405160200180807f456c656374696f6e0000000000000000000000000000000000000000000000008152506008019050604051602081830303815290604052805190602001206040518263ffffffff1660e01b81526004018082815260200191505060206040518083038186803b158015616cde57600080fd5b505afa158015616cf2573d6000803e3d6000fd5b505050506040513d6020811015616d0857600080fd5b8101908080519060200190929190505050905090565b600080828401905083811015616d9c576040517f08c379a000000000000000000000000000000000000000000000000000000000815260040180806020018281038252601b8152602001807f536166654d6174683a206164646974696f6e206f766572666c6f77000000000081525060200191505060405180910390fd5b8091505092915050565b6000616de883836040518060400160405280601e81526020017f536166654d6174683a207375627472616374696f6e206f766572666c6f770000815250617904565b905092915050565b616e4581600360008573ffffffffffffffffffffffffffffffffffffffff1673ffffffffffffffffffffffffffffffffffffffff16815260200190815260200160002060000154616d1e90919063ffffffff16565b600360008473ffffffffffffffffffffffffffffffffffffffff1673ffffffffffffffffffffffffffffffffffffffff16815260200190815260200160002060000181905550616ea081600654616d1e90919063ffffffff16565b6006819055505050565b6000600260009054906101000a900473ffffffffffffffffffffffffffffffffffffffff1673ffffffffffffffffffffffffffffffffffffffff1663dcf0aaed60405160200180807f56616c696461746f727300000000000000000000000000000000000000000000815250600a019050604051602081830303815290604052805190602001206040518263ffffffff1660e01b81526004018082815260200191505060206040518083038186803b158015616f6557600080fd5b505afa158015616f79573d6000803e3d6000fd5b505050506040513d6020811015616f8f57600080fd5b8101908080519060200190929190505050905090565b6000616fb183836178b5565b61706a57826001018290806001815401808255809150509060018203906000526020600020016000909192909190916101000a81548173ffffffffffffffffffffffffffffffffffffffff021916908373ffffffffffffffffffffffffffffffffffffffff1602179055508360000160008473ffffffffffffffffffffffffffffffffffffffff1673ffffffffffffffffffffffffffffffffffffffff168152602001908152602001600020819055506001905061706f565b600090505b92915050565b600081600101805490509050919050565b61708e617b51565b6000826000015184600001510190508360000151811015617117576040517f08c379a00000000000000000000000000000000000000000000000000000000081526004018080602001828103825260158152602001807f616464206f766572666c6f77206465746563746564000000000000000000000081525060200191505060405180910390fd5b60405180602001604052808281525091505092915050565b6000600260009054906101000a900473ffffffffffffffffffffffffffffffffffffffff1673ffffffffffffffffffffffffffffffffffffffff1663dcf0aaed60405160200180807f476f7665726e616e636500000000000000000000000000000000000000000000815250600a019050604051602081830303815290604052805190602001206040518263ffffffff1660e01b81526004018082815260200191505060206040518083038186803b1580156171ea57600080fd5b505afa1580156171fe573d6000803e3d6000fd5b505050506040513d602081101561721457600080fd5b8101908080519060200190929190505050905090565b617232617b51565b61723a617b51565b61724384616040565b905061724d617b51565b61725684616040565b905061726282826179c4565b9250505092915050565b60008160000151836000015111905092915050565b606061728c83614a03565b90506000600860008573ffffffffffffffffffffffffffffffffffffffff1673ffffffffffffffffffffffffffffffffffffffff168152602001908152602001600020905060008090505b82518110156174805760008260020160008584815181106172f457fe5b602002602001015173ffffffffffffffffffffffffffffffffffffffff1673ffffffffffffffffffffffffffffffffffffffff16815260200190815260200160002090506000806173588887868151811061734b57fe5b6020026020010151615bd3565b915091506000617399617394856000016040518060200160405290816000820154815250506173868b616040565b6160ca90919063ffffffff16565b616529565b90506173c06173b18385616da690919063ffffffff16565b82616da690919063ffffffff16565b90506173e08786815181106173d157fe5b60200260200101518286616563565b8685815181106173ec57fe5b602002602001015173ffffffffffffffffffffffffffffffffffffffff168973ffffffffffffffffffffffffffffffffffffffff167fc27c2c089d7c6709b0a8e68031ecc1c43dd5e4146d5d3aadad05f72a90bbf8ba600084604051808381526020018281526020019250505060405180910390a350505050617479600182616d1e90919063ffffffff16565b90506172d7565b5050505050565b60608082600101805490506040519080825280602002602001820160405280156174c05781602001602082028038833980820191505090505b50905060005b8360010180549050811015617562578360010181815481106174e457fe5b9060005260206000200160009054906101000a900473ffffffffffffffffffffffffffffffffffffffff1682828151811061751b57fe5b602002602001019073ffffffffffffffffffffffffffffffffffffffff16908173ffffffffffffffffffffffffffffffffffffffff168152505080806001019150506174c6565b5080915050919050565b600033905090565b600061757e615ad8565b73ffffffffffffffffffffffffffffffffffffffff16636642d594836040518263ffffffff1660e01b8152600401808273ffffffffffffffffffffffffffffffffffffffff1673ffffffffffffffffffffffffffffffffffffffff16815260200191505060206040518083038186803b1580156175fa57600080fd5b505afa15801561760e573d6000803e3d6000fd5b505050506040513d602081101561762457600080fd5b810190808051906020019092919050505090506000600860008373ffffffffffffffffffffffffffffffffffffffff1673ffffffffffffffffffffffffffffffffffffffff168152602001908152602001600020600001905060008090505b61768c82617075565b8110156176cb576176af836176aa8385617b0d90919063ffffffff16565b615d31565b506176c4600182616d1e90919063ffffffff16565b9050617683565b50505050565b600073ffffffffffffffffffffffffffffffffffffffff168173ffffffffffffffffffffffffffffffffffffffff161415617757576040517f08c379a0000000000000000000000000000000000000000000000000000000008152600401808060200182810382526026815260200180617ca16026913960400191505060405180910390fd5b8073ffffffffffffffffffffffffffffffffffffffff166001809054906101000a900473ffffffffffffffffffffffffffffffffffffffff1673ffffffffffffffffffffffffffffffffffffffff167f8be0079c531659141344cd1fd0a4f28419497f9722a3daafe3b4186f6b6457e060405160405180910390a3806001806101000a81548173ffffffffffffffffffffffffffffffffffffffff021916908373ffffffffffffffffffffffffffffffffffffffff16021790555050565b60007601357c299a88ea76a58924d52ce4f26a85af186c2b9e74905090565b61783c617b51565b604051806020016040528069d3c21bcecceda10000008085600001518161785f57fe5b04028152509050919050565b617873617b51565b604051806020016040528069d3c21bcecceda10000008085600001518161789657fe5b04028460000151038152509050919050565b600064e8d4a51000905090565b6000808360000160008473ffffffffffffffffffffffffffffffffffffffff1673ffffffffffffffffffffffffffffffffffffffff168152602001908152602001600020541415905092915050565b60008383111582906179b1576040517f08c379a00000000000000000000000000000000000000000000000000000000081526004018080602001828103825283818151815260200191508051906020019080838360005b8381101561797657808201518184015260208101905061795b565b50505050905090810190601f1680156179a35780820380516001836020036101000a031916815260200191505b509250505060405180910390fd5b5060008385039050809150509392505050565b6179cc617b51565b600082600001511415617a47576040517f08c379a00000000000000000000000000000000000000000000000000000000081526004018080602001828103825260118152602001807f63616e277420646976696465206279203000000000000000000000000000000081525060200191505060405180910390fd5b600069d3c21bcecceda10000008460000151029050836000015169d3c21bcecceda10000008281617a7457fe5b0414617ae8576040517f08c379a00000000000000000000000000000000000000000000000000000000081526004018080602001828103825260128152602001807f6f766572666c6f7720617420646976696465000000000000000000000000000081525060200191505060405180910390fd5b604051806020016040528084600001518381617b0057fe5b0481525091505092915050565b6000826001018281548110617b1e57fe5b9060005260206000200160009054906101000a900473ffffffffffffffffffffffffffffffffffffffff16905092915050565b6040518060200160405280600081525090565b604051806040016040528060008152602001600081525090565b815481835581811115617bab57600202816002028360005260206000209182019101617baa9190617bb0565b5b505050565b617bdc91905b80821115617bd857600080820160009055600182016000905550600201617bb6565b5090565b9056fe4d75737420666972737420726567697374657220616464726573732077697468204163636f756e742e6372656174654163636f756e7443616e6e6f742064656372656173652064656c65676174656420616d6f756e74202d20757365207265766f6b6544656c656761746564476f7665726e616e6365566f7465732e56616c696461746f72732063616e6e6f742064656c656761746520766f7465732e43616c6c6572206973206e6f7420612077686974656c697374656420736c61736865722e4f776e61626c653a206e6577206f776e657220697320746865207a65726f20616464726573734e6f7420656e6f75676820746f74616c2064656c6567617465642070657263656e7473556e6b6e6f776e206163636f756e743a206f6e6c792072656769737465726564206163636f756e747320686176652070656e64696e67207769746864726177616c7353656e646572206d75737420626520726567697374657265642077697468204163636f756e742e6372656174654163636f756e7420746f206c6f636b206f722072656c6f636b416464726573733a20756e61626c6520746f2073656e642076616c75652c20726563697069656e74206d6179206861766520726576657274656463616e277420637265617465206669786964697479206e756d626572206c6172676572207468616e206d61784e65774669786564282953656e646572206d75737420626520726567697374657265642077697468204163636f756e742e6372656174654163636f756e7420746f207769746864726177456974686572206163636f756e7420646f65736e2774206861766520656e6f756768206c6f636b65642043656c6f206f72206c6f636b65642043656c6f206973206265696e67207573656420666f7220766f74696e672e44656c6567617465206672616374696f6e206d757374206265206c657373207468616e206f7220657175616c20746f20315265717565737465642076616c7565206c6172676572207468616e2070656e64696e672076616c756550726f766964656420696e64657820657863656564732077686974656c69737420626f756e64732e43616e6e6f742064656c656761746520766f74657320746861742061726520766f74696e6720696e207265666572656e64756d43616e6e6f742072656d6f766520736c6173686572204944206e6f74207965742061646465642e5265766f6b65206672616374696f6e206d757374206265206c657373207468616e206f7220657175616c20746f203153656e646572206d75737420626520726567697374657265642077697468204163636f756e742e6372656174654163636f756e7420746f206c6f636b206f7220756e6c6f636b56616c696461746f722067726f7570732063616e6e6f742064656c656761746520766f7465732e64656c656761746f72206973206e6f742064656c65676174696e6720666f722064656c6567617465654e6f7420656e6f75676820756e6c6f636b61626c652063656c6f2e2043656c6f206973206c6f636b656420696e20766f74696e672e43616e6e6f74207265766f6b6520656e6f75676820766f74696e6720676f6c642ea265627a7a72315820fa955df143e228c48555be73b4ae9451b451b9538eb849f1c7d36b0f5e2d85f064736f6c634300050d0032",
  "source": "pragma solidity ^0.5.13;\n\nimport \"openzeppelin-solidity/contracts/math/Math.sol\";\nimport \"openzeppelin-solidity/contracts/math/SafeMath.sol\";\nimport \"openzeppelin-solidity/contracts/ownership/Ownable.sol\";\nimport \"openzeppelin-solidity/contracts/utils/Address.sol\";\nimport \"openzeppelin-solidity/contracts/utils/EnumerableSet.sol\";\n\nimport \"./interfaces/ILockedGold.sol\";\n\nimport \"../common/FixidityLib.sol\";\nimport \"../common/Initializable.sol\";\nimport \"../common/Signatures.sol\";\nimport \"../common/UsingRegistry.sol\";\nimport \"../common/interfaces/ICeloVersionedContract.sol\";\nimport \"../common/libraries/ReentrancyGuard.sol\";\n\ncontract LockedGold is\n  ILockedGold,\n  ICeloVersionedContract,\n  ReentrancyGuard,\n  Initializable,\n  UsingRegistry\n{\n  using SafeMath for uint256;\n  using Address for address payable; // prettier-ignore\n  using FixidityLib for FixidityLib.Fraction;\n  using EnumerableSet for EnumerableSet.AddressSet;\n\n  struct PendingWithdrawal {\n    // The value of the pending withdrawal.\n    uint256 value;\n    // The timestamp at which the pending withdrawal becomes available.\n    uint256 timestamp;\n  }\n\n  // NOTE: This contract does not store an account's locked gold that is being used in electing\n  // validators.\n  struct Balances {\n    // The amount of locked gold that this account has that is not currently participating in\n    // validator elections.\n    uint256 nonvoting;\n    // Gold that has been unlocked and will become available for withdrawal.\n    PendingWithdrawal[] pendingWithdrawals;\n  }\n\n  struct DelegatedInfo {\n    FixidityLib.Fraction percentage;\n    uint256 currentAmount;\n  }\n\n  struct Delegated {\n    EnumerableSet.AddressSet delegatees;\n    // delegatees with how much percent delegatees are getting\n    // Celo at the time of delegation/latest update\n    mapping(address => DelegatedInfo) delegateesWithPercentagesAndAmount;\n    FixidityLib.Fraction totalDelegatedCeloFraction;\n  }\n\n  mapping(address => Balances) internal balances;\n\n  // Iterable map to store whitelisted identifiers.\n  // Necessary to allow iterating over whitelisted IDs to check ID's address at runtime.\n  mapping(bytes32 => bool) internal slashingMap;\n  bytes32[] public slashingWhitelist;\n\n  modifier onlySlasher {\n    require(\n      registry.isOneOf(slashingWhitelist, msg.sender),\n      \"Caller is not a whitelisted slasher.\"\n    );\n    _;\n  }\n\n  function isSlasher(address slasher) external view returns (bool) {\n    return (registry.isOneOf(slashingWhitelist, slasher));\n  }\n\n  uint256 public totalNonvoting;\n  uint256 public unlockingPeriod;\n\n  // Info about delegator\n  mapping(address => Delegated) delegatorInfo;\n  // Celo that was delegated to this particular address\n  mapping(address => uint256) public totalDelegatedCelo;\n\n  // maximum amount of allowed delegatees\n  uint256 maxDelegateesCount;\n\n  event UnlockingPeriodSet(uint256 period);\n  event GoldLocked(address indexed account, uint256 value);\n  event GoldUnlocked(address indexed account, uint256 value, uint256 available);\n  event GoldRelocked(address indexed account, uint256 value);\n  event GoldWithdrawn(address indexed account, uint256 value);\n  event SlasherWhitelistAdded(string indexed slasherIdentifier);\n  event SlasherWhitelistRemoved(string indexed slasherIdentifier);\n  event AccountSlashed(\n    address indexed slashed,\n    uint256 penalty,\n    address indexed reporter,\n    uint256 reward\n  );\n  event CeloDelegated(\n    address indexed delegator,\n    address indexed delegatee,\n    uint256 percent,\n    uint256 amount\n  );\n  event DelegatedCeloRevoked(\n    address indexed delegator,\n    address indexed delegatee,\n    uint256 percent,\n    uint256 amount\n  );\n  event MaxDelegateesCountSet(uint256 value);\n\n  /**\n  * @notice Returns the storage, major, minor, and patch version of the contract.\n  * @return Storage version of the contract.\n  * @return Major version of the contract.\n  * @return Minor version of the contract.\n  * @return Patch version of the contract.\n  */\n  function getVersionNumber() external pure returns (uint256, uint256, uint256, uint256) {\n    return (1, 1, 4, 0);\n  }\n\n  /**\n   * @notice Sets initialized == true on implementation contracts\n   * @param test Set to true to skip implementation initialization\n   */\n  constructor(bool test) public Initializable(test) {}\n\n  /**\n   * @notice Used in place of the constructor to allow the contract to be upgradable via proxy.\n   * @param registryAddress The address of the registry core smart contract.\n   * @param _unlockingPeriod The unlocking period in seconds.\n   */\n  function initialize(address registryAddress, uint256 _unlockingPeriod) external initializer {\n    _transferOwnership(msg.sender);\n    setRegistry(registryAddress);\n    setUnlockingPeriod(_unlockingPeriod);\n    maxDelegateesCount = 10;\n  }\n\n  /**\n   * @notice Sets the duration in seconds users must wait before withdrawing gold after unlocking.\n   * @param value The unlocking period in seconds.\n   */\n  function setUnlockingPeriod(uint256 value) public onlyOwner {\n    require(value != unlockingPeriod, \"Unlocking period not changed\");\n    unlockingPeriod = value;\n    emit UnlockingPeriodSet(value);\n  }\n\n  /**\n   * @notice Sets max delegatees count.\n   * @param value The max delegatees count.\n   */\n  function setMaxDelegateesCount(uint256 value) public onlyOwner {\n    maxDelegateesCount = value;\n    emit MaxDelegateesCountSet(value);\n  }\n\n  /**\n   * @notice Locks gold to be used for voting.\n   */\n  function lock() external payable nonReentrant {\n    require(\n      getAccounts().isAccount(msg.sender),\n      \"Must first register address with Account.createAccount\"\n    );\n    _incrementNonvotingAccountBalance(msg.sender, msg.value);\n    _updateDelegatedAmount(msg.sender);\n    emit GoldLocked(msg.sender, msg.value);\n  }\n\n  /**\n   * @notice Increments the non-voting balance for an account.\n   * @param account The account whose non-voting balance should be incremented.\n   * @param value The amount by which to increment.\n   * @dev Can only be called by the registered Election smart contract.\n   */\n  function incrementNonvotingAccountBalance(address account, uint256 value)\n    external\n    onlyRegisteredContract(ELECTION_REGISTRY_ID)\n  {\n    _incrementNonvotingAccountBalance(account, value);\n  }\n\n  /**\n   * @notice Decrements the non-voting balance for an account.\n   * @param account The account whose non-voting balance should be decremented.\n   * @param value The amount by which to decrement.\n   * @dev Can only be called by the registered \"Election\" smart contract.\n   */\n  function decrementNonvotingAccountBalance(address account, uint256 value)\n    external\n    onlyRegisteredContract(ELECTION_REGISTRY_ID)\n  {\n    _decrementNonvotingAccountBalance(account, value);\n  }\n\n  /**\n   * @notice Increments the non-voting balance for an account.\n   * @param account The account whose non-voting balance should be incremented.\n   * @param value The amount by which to increment.\n   */\n  function _incrementNonvotingAccountBalance(address account, uint256 value) private {\n    balances[account].nonvoting = balances[account].nonvoting.add(value);\n    totalNonvoting = totalNonvoting.add(value);\n  }\n\n  /**\n   * @notice Decrements the non-voting balance for an account.\n   * @param account The account whose non-voting balance should be decremented.\n   * @param value The amount by which to decrement.\n   */\n  function _decrementNonvotingAccountBalance(address account, uint256 value) private {\n    balances[account].nonvoting = balances[account].nonvoting.sub(value);\n    totalNonvoting = totalNonvoting.sub(value);\n  }\n\n  /**\n   * @notice Unlocks gold that becomes withdrawable after the unlocking period.\n   * @param value The amount of gold to unlock.\n   */\n  function unlock(uint256 value) external nonReentrant {\n    require(\n      getAccounts().isAccount(msg.sender),\n      \"Sender must be registered with Account.createAccount to lock or unlock\"\n    );\n    Balances storage account = balances[msg.sender];\n\n    uint256 totalLockedGold = getAccountTotalLockedGold(msg.sender);\n    // Prevent unlocking gold when voting on governance proposals so that the gold cannot be\n    // used to vote more than once.\n    uint256 remainingLockedGold = totalLockedGold.sub(value);\n\n    uint256 totalReferendumVotes = getGovernance().getAmountOfGoldUsedForVoting(msg.sender);\n    require(\n      remainingLockedGold >= totalReferendumVotes,\n      \"Not enough unlockable celo. Celo is locked in voting.\"\n    );\n\n    FixidityLib.Fraction memory delegatedPercentage = delegatorInfo[msg.sender]\n      .totalDelegatedCeloFraction;\n\n    if (FixidityLib.gt(delegatedPercentage, FixidityLib.newFixed(0))) {\n      revokeFromDelegatedWhenUnlocking(msg.sender, value);\n    }\n\n    uint256 balanceRequirement = getValidators().getAccountLockedGoldRequirement(msg.sender);\n    require(\n      balanceRequirement == 0 || balanceRequirement <= remainingLockedGold,\n      \"Either account doesn't have enough locked Celo or locked Celo is being used for voting.\"\n    );\n    _decrementNonvotingAccountBalance(msg.sender, value);\n    uint256 available = now.add(unlockingPeriod);\n    // CERTORA: the slot containing the length could be MAX_UINT\n    account.pendingWithdrawals.push(PendingWithdrawal(value, available));\n    emit GoldUnlocked(msg.sender, value, available);\n  }\n\n  /**\n   * @notice Relocks gold that has been unlocked but not withdrawn.\n   * @param index The index of the pending withdrawal to relock from.\n   * @param value The value to relock from the specified pending withdrawal.\n   */\n  function relock(uint256 index, uint256 value) external nonReentrant {\n    require(\n      getAccounts().isAccount(msg.sender),\n      \"Sender must be registered with Account.createAccount to lock or relock\"\n    );\n    Balances storage account = balances[msg.sender];\n    require(index < account.pendingWithdrawals.length, \"Bad pending withdrawal index\");\n    PendingWithdrawal storage pendingWithdrawal = account.pendingWithdrawals[index];\n    require(value <= pendingWithdrawal.value, \"Requested value larger than pending value\");\n    if (value == pendingWithdrawal.value) {\n      deletePendingWithdrawal(account.pendingWithdrawals, index);\n    } else {\n      pendingWithdrawal.value = pendingWithdrawal.value.sub(value);\n    }\n    _incrementNonvotingAccountBalance(msg.sender, value);\n    _updateDelegatedAmount(msg.sender);\n    emit GoldRelocked(msg.sender, value);\n  }\n\n  /**\n   * @notice Withdraws gold that has been unlocked after the unlocking period has passed.\n   * @param index The index of the pending withdrawal to withdraw.\n   */\n  function withdraw(uint256 index) external nonReentrant {\n    require(\n      getAccounts().isAccount(msg.sender),\n      \"Sender must be registered with Account.createAccount to withdraw\"\n    );\n    Balances storage account = balances[msg.sender];\n    require(index < account.pendingWithdrawals.length, \"Bad pending withdrawal index\");\n    PendingWithdrawal storage pendingWithdrawal = account.pendingWithdrawals[index];\n    require(now >= pendingWithdrawal.timestamp, \"Pending withdrawal not available\");\n    uint256 value = pendingWithdrawal.value;\n    deletePendingWithdrawal(account.pendingWithdrawals, index);\n    require(value <= address(this).balance, \"Inconsistent balance\");\n    msg.sender.sendValue(value);\n    emit GoldWithdrawn(msg.sender, value);\n  }\n\n  /**\n   * @notice Returns the total amount of locked gold in the system. Note that this does not include\n   *   gold that has been unlocked but not yet withdrawn.\n   * @return The total amount of locked gold in the system.\n   */\n  function getTotalLockedGold() external view returns (uint256) {\n    return totalNonvoting.add(getElection().getTotalVotes());\n  }\n\n  /**\n   * @notice Returns the total amount of locked gold not being used to vote in elections.\n   * @return The total amount of locked gold not being used to vote in elections.\n   */\n  function getNonvotingLockedGold() external view returns (uint256) {\n    return totalNonvoting;\n  }\n\n  /**\n   * Delegates CELO to delegatee.\n   * @param delegatee The delegatee account.\n   * @param delegateFraction Fraction of total CELO that will be delegated from delegatee. Fixidity fraction\n   */\n  function delegateGovernanceVotes(address delegatee, uint256 delegateFraction) external {\n    FixidityLib.Fraction memory percentageToDelegate = FixidityLib.wrap(delegateFraction);\n    require(\n      FixidityLib.lte(percentageToDelegate, FixidityLib.fixed1()),\n      \"Delegate fraction must be less than or equal to 1\"\n    );\n    address delegatorAccount = getAccounts().voteSignerToAccount(msg.sender);\n    address delegateeAccount = getAccounts().voteSignerToAccount(delegatee);\n\n    IValidators validators = getValidators();\n    require(!validators.isValidator(delegatorAccount), \"Validators cannot delegate votes.\");\n    require(\n      !validators.isValidatorGroup(delegatorAccount),\n      \"Validator groups cannot delegate votes.\"\n    );\n\n    Delegated storage delegated = delegatorInfo[delegatorAccount];\n    delegated.delegatees.add(delegateeAccount);\n    require(delegated.delegatees.length() <= maxDelegateesCount, \"Too many delegatees\");\n\n    DelegatedInfo storage currentDelegateeInfo = delegated\n      .delegateesWithPercentagesAndAmount[delegateeAccount];\n\n    require(\n      FixidityLib.gte(percentageToDelegate, currentDelegateeInfo.percentage),\n      \"Cannot decrease delegated amount - use revokeDelegatedGovernanceVotes.\"\n    );\n\n    FixidityLib.Fraction memory requestedToDelegate = delegated\n      .totalDelegatedCeloFraction\n      .subtract(currentDelegateeInfo.percentage)\n      .add(percentageToDelegate);\n\n    require(\n      FixidityLib.lte(requestedToDelegate, FixidityLib.fixed1()),\n      \"Cannot delegate more than 100%\"\n    );\n\n    uint256 totalLockedGold = getAccountTotalLockedGold(delegatorAccount);\n    if (totalLockedGold == 0) {\n      delegated.totalDelegatedCeloFraction = delegated\n        .totalDelegatedCeloFraction\n        .subtract(currentDelegateeInfo.percentage)\n        .add(percentageToDelegate);\n      currentDelegateeInfo.percentage = percentageToDelegate;\n\n      emit CeloDelegated(\n        delegatorAccount,\n        delegateeAccount,\n        FixidityLib.unwrap(percentageToDelegate),\n        currentDelegateeInfo.currentAmount\n      );\n      return;\n    }\n\n    uint256 totalReferendumVotes = getGovernance().getAmountOfGoldUsedForVoting(delegatorAccount);\n\n    if (totalReferendumVotes != 0) {\n      FixidityLib.Fraction memory referendumVotesInPercents = FixidityLib.newFixedFraction(\n        totalReferendumVotes,\n        totalLockedGold\n      );\n      require(\n        FixidityLib.lte(referendumVotesInPercents.add(requestedToDelegate), FixidityLib.fixed1()),\n        \"Cannot delegate votes that are voting in referendum\"\n      );\n    }\n\n    // amount that will really be delegated - whatever is already\n    // delegated to this particular delagatee is already subracted from this\n    uint256 amountToDelegate = FixidityLib\n      .newFixed(totalLockedGold)\n      .multiply(percentageToDelegate)\n      .subtract(FixidityLib.newFixed(currentDelegateeInfo.currentAmount))\n      .fromFixed();\n\n    delegated.totalDelegatedCeloFraction = delegated\n      .totalDelegatedCeloFraction\n      .subtract(currentDelegateeInfo.percentage)\n      .add(percentageToDelegate);\n    currentDelegateeInfo.percentage = percentageToDelegate;\n\n    currentDelegateeInfo.currentAmount = currentDelegateeInfo.currentAmount.add(amountToDelegate);\n    totalDelegatedCelo[delegateeAccount] = totalDelegatedCelo[delegateeAccount].add(\n      amountToDelegate\n    );\n\n    emit CeloDelegated(\n      delegatorAccount,\n      delegateeAccount,\n      FixidityLib.unwrap(percentageToDelegate),\n      currentDelegateeInfo.currentAmount\n    );\n  }\n\n  /**\n   * Revokes delegated CELO.\n   * @param delegatee The delegatee acount.\n   * @param revokeFraction Fraction of total CELO that will be revoked from delegatee. Fixidity fraction\n   */\n  function revokeDelegatedGovernanceVotes(address delegatee, uint256 revokeFraction) external {\n    FixidityLib.Fraction memory percentageToRevoke = FixidityLib.wrap(revokeFraction);\n\n    require(\n      FixidityLib.lte(percentageToRevoke, FixidityLib.fixed1()),\n      \"Revoke fraction must be less than or equal to 1\"\n    );\n\n    address delegatorAccount = getAccounts().voteSignerToAccount(msg.sender);\n    Delegated storage delegated = delegatorInfo[delegatorAccount];\n    require(\n      FixidityLib.gte(delegated.totalDelegatedCeloFraction, percentageToRevoke),\n      \"Not enough total delegated percents\"\n    );\n\n    address delegateeAccount = getAccounts().voteSignerToAccount(delegatee);\n    _updateDelegatedAmount(delegatorAccount, delegateeAccount);\n\n    DelegatedInfo storage currentDelegateeInfo = delegated\n      .delegateesWithPercentagesAndAmount[delegateeAccount];\n\n    require(\n      FixidityLib.gte(currentDelegateeInfo.percentage, percentageToRevoke),\n      \"Not enough delegated percents\"\n    );\n\n    currentDelegateeInfo.percentage = currentDelegateeInfo.percentage.subtract(percentageToRevoke);\n\n    uint256 totalLockedGold = getAccountTotalLockedGold(delegatorAccount);\n\n    uint256 amountToRevoke = FixidityLib.unwrap(currentDelegateeInfo.percentage) == 0\n      ? currentDelegateeInfo.currentAmount\n      : Math.min(\n        FixidityLib.newFixed(totalLockedGold).multiply(percentageToRevoke).fromFixed(),\n        currentDelegateeInfo.currentAmount\n      );\n\n    _decreaseDelegateeVotingPower(delegateeAccount, amountToRevoke, currentDelegateeInfo);\n\n    delegated.totalDelegatedCeloFraction = delegated.totalDelegatedCeloFraction.subtract(\n      percentageToRevoke\n    );\n\n    if (FixidityLib.unwrap(currentDelegateeInfo.percentage) == 0) {\n      delegated.delegatees.remove(delegateeAccount);\n    }\n\n    emit DelegatedCeloRevoked(\n      delegatorAccount,\n      delegateeAccount,\n      FixidityLib.unwrap(percentageToRevoke),\n      amountToRevoke\n    );\n  }\n\n  /**\n   * Revokes amount during unlocking. It will revoke votes from voted proposals if necessary.\n   * @param delegator The delegator account.\n   * @param amountToRevoke The amount to revoke.\n   */\n  function revokeFromDelegatedWhenUnlocking(address delegator, uint256 amountToRevoke) private {\n    address[] memory delegatees = getDelegateesOfDelegator(delegator);\n\n    Delegated storage delegated = delegatorInfo[delegator];\n\n    for (uint256 i = 0; i < delegatees.length; i = i.add(1)) {\n      DelegatedInfo storage currentDelegateeInfo = delegated\n        .delegateesWithPercentagesAndAmount[delegatees[i]];\n      (uint256 expected, uint256 real) = _getDelegatorDelegateeExpectedAndRealAmount(\n        delegator,\n        delegatees[i]\n      );\n      uint256 delegateeAmountToRevoke = FixidityLib\n        .newFixed(amountToRevoke)\n        .multiply(currentDelegateeInfo.percentage)\n        .fromFixed();\n      delegateeAmountToRevoke = delegateeAmountToRevoke.sub(expected.sub(real));\n      _decreaseDelegateeVotingPower(delegatees[i], delegateeAmountToRevoke, currentDelegateeInfo);\n      emit DelegatedCeloRevoked(delegator, delegatees[i], 0, delegateeAmountToRevoke);\n    }\n  }\n\n  /**\n   * Decreases delegatee voting power when removing or unlocking delegated votes.\n   * @param delegatee The delegatee.\n   * @param amountToRevoke Amount to revoke.\n   * @param delegateeInfo Delegatee info.\n   */\n  function _decreaseDelegateeVotingPower(\n    address delegatee,\n    uint256 amountToRevoke,\n    DelegatedInfo storage delegateeInfo\n  ) private {\n    uint256 delegateeTotalVotingPower = getAccountTotalGovernanceVotingPower(delegatee);\n    uint256 totalReferendumVotes = getGovernance().getAmountOfGoldUsedForVoting(delegatee);\n    uint256 unusedReferendumVotes = delegateeTotalVotingPower.sub(totalReferendumVotes);\n    if (unusedReferendumVotes < amountToRevoke) {\n      getGovernance().removeVotesWhenRevokingDelegatedVotes(\n        delegatee,\n        delegateeTotalVotingPower.sub(amountToRevoke)\n      );\n    }\n    delegateeInfo.currentAmount = delegateeInfo.currentAmount.sub(amountToRevoke);\n    totalDelegatedCelo[delegatee] = totalDelegatedCelo[delegatee].sub(amountToRevoke);\n  }\n\n  /**\n   * Updates real delegated amount to all delegator's delegatees.\n   * There might be discrepancy because of validator rewards or extra locked gold.\n   * @param delegator The delegator address.\n   */\n  function updateDelegatedAmount(address delegator) public {\n    address delegatorAccount = getAccounts().voteSignerToAccount(delegator);\n    _updateDelegatedAmount(delegatorAccount);\n  }\n\n  function _updateDelegatedAmount(address delegator) private {\n    address delegatorAccount = getAccounts().voteSignerToAccount(delegator);\n    EnumerableSet.AddressSet storage delegatees = delegatorInfo[delegatorAccount].delegatees;\n    for (uint256 i = 0; i < delegatees.length(); i = i.add(1)) {\n      _updateDelegatedAmount(delegatorAccount, delegatees.get(i));\n    }\n  }\n\n  /**\n   * Updates real delegated amount to delegatee.\n   * There might be discrepancy because of validator rewards or extra locked gold.\n   * Voting power will always be smaller or equal to what it is supposed to be.\n   * @param delegator The delegator address.\n   * @param delegatee The delegatee address.\n   */\n  function updateDelegatedAmount(address delegator, address delegatee) public returns (uint256) {\n    address delegatorAccount = getAccounts().voteSignerToAccount(delegator);\n    address delegateeAccount = getAccounts().voteSignerToAccount(delegatee);\n\n    return _updateDelegatedAmount(delegatorAccount, delegateeAccount);\n  }\n\n  /**\n   * Updates real delegated amount to delegatee.\n   * There might be discrepancy because of validator rewards or extra locked gold.\n   * Voting power will always be smaller or equal to what it is supposed to be.\n   * @param delegator The delegator address.\n   * @param delegatee The delegatee address.\n   */\n  function _updateDelegatedAmount(address delegator, address delegatee) internal returns (uint256) {\n    Delegated storage delegated = delegatorInfo[delegator];\n    require(\n      FixidityLib.unwrap(delegated.totalDelegatedCeloFraction) != 0,\n      \"delegator is not delegating\"\n    );\n    DelegatedInfo storage currentDelegateeInfo = delegated\n      .delegateesWithPercentagesAndAmount[delegatee];\n    require(\n      FixidityLib.unwrap(currentDelegateeInfo.percentage) != 0,\n      \"delegator is not delegating for delegatee\"\n    );\n\n    (uint256 expected, uint256 real) = getDelegatorDelegateeExpectedAndRealAmount(\n      delegator,\n      delegatee\n    );\n\n    currentDelegateeInfo.currentAmount = expected;\n    totalDelegatedCelo[delegatee] = totalDelegatedCelo[delegatee].sub(real).add(expected);\n\n    return expected;\n  }\n\n  /**\n   * Returns how many percents of CELO is account delegating.\n   * @param account The account address.\n   */\n  function getAccountTotalDelegatedFraction(address account) public view returns (uint256) {\n    Delegated storage delegated = delegatorInfo[account];\n    return FixidityLib.unwrap(delegated.totalDelegatedCeloFraction);\n  }\n\n  /**\n   * @notice Returns the total amount of locked gold for an account.\n   * @param account The account.\n   * @return The total amount of locked gold for an account.\n   */\n  function getAccountTotalLockedGold(address account) public view returns (uint256) {\n    uint256 total = balances[account].nonvoting;\n    return total.add(getElection().getTotalVotesByAccount(account));\n  }\n\n  /**\n   * @notice Returns the total amount of locked gold + delegated gold for an account.\n   * @param account The account.\n   * @return The total amount of locked gold + delegated gold for an account.\n   */\n  function getAccountTotalGovernanceVotingPower(address account) public view returns (uint256) {\n    FixidityLib.Fraction memory availableUndelegatedPercents = FixidityLib.fixed1().subtract(\n      FixidityLib.wrap(getAccountTotalDelegatedFraction(account))\n    );\n    uint256 totalLockedGold = getAccountTotalLockedGold(account);\n\n    uint256 availableForVoting = FixidityLib\n      .newFixed(totalLockedGold)\n      .multiply(availableUndelegatedPercents)\n      .fromFixed();\n\n    return availableForVoting.add(totalDelegatedCelo[account]);\n  }\n\n  /**\n * Return percentage and amount that delegator assigned to delegateee.\n * Please note that amount doesn't have to be up to date. \n * In such case please use `updateDelegatedBalance`.\n * @param delegator The delegator address.\n * @param delegatee The delegatee address.\n * @return fraction The fraction that is delegator asigning to delegatee.\n * @return currentAmount The current actual Celo amount that is assigned to delegatee.\n */\n  function getDelegatorDelegateeInfo(address delegator, address delegatee)\n    external\n    view\n    returns (uint256 fraction, uint256 currentAmount)\n  {\n    DelegatedInfo storage currentDelegateeInfo = delegatorInfo[delegator]\n      .delegateesWithPercentagesAndAmount[delegatee];\n\n    fraction = FixidityLib.unwrap(currentDelegateeInfo.percentage);\n    currentAmount = currentDelegateeInfo.currentAmount;\n  }\n\n  /**\n   * Returns expected vs real delegated amount. \n   * If there is a discrepancy it can be fixed by calling `updateDelegatedAmount` function.\n   * @param delegator The delegator address.\n   * @param delegatee The delegatee address.\n   * @return expected The expected amount.\n   * @return real The real amount. \n   */\n  function getDelegatorDelegateeExpectedAndRealAmount(address delegator, address delegatee)\n    public\n    view\n    returns (uint256 expected, uint256 real)\n  {\n    address delegatorAccount = getAccounts().voteSignerToAccount(delegator);\n    address delegateeAccount = getAccounts().voteSignerToAccount(delegatee);\n\n    (expected, real) = _getDelegatorDelegateeExpectedAndRealAmount(\n      delegatorAccount,\n      delegateeAccount\n    );\n  }\n\n  /**\n   * Returns expected vs real delegated amount. \n   * If there is a discrepancy it can be fixed by calling `updateDelegatedAmount` function.\n   * @param delegator The delegator address.\n   * @param delegatee The delegatee address.\n   * @return expected The expected amount.\n   * @return real The real amount. \n   */\n  function _getDelegatorDelegateeExpectedAndRealAmount(address delegator, address delegatee)\n    private\n    view\n    returns (uint256 expected, uint256 real)\n  {\n    DelegatedInfo storage currentDelegateeInfo = delegatorInfo[delegator]\n      .delegateesWithPercentagesAndAmount[delegatee];\n\n    uint256 amountToDelegate = FixidityLib\n      .newFixed(getAccountTotalLockedGold(delegator))\n      .multiply(currentDelegateeInfo.percentage)\n      .fromFixed();\n\n    expected = amountToDelegate;\n    real = currentDelegateeInfo.currentAmount;\n  }\n\n  /**\n   * Retuns all delegatees of delegator\n   * @param delegator The delegator address.\n   */\n  function getDelegateesOfDelegator(address delegator) public view returns (address[] memory) {\n    address[] memory values = delegatorInfo[delegator].delegatees.enumerate();\n    return values;\n  }\n\n  /**\n   * @notice Returns the total amount of non-voting locked gold for an account.\n   * @param account The account.\n   * @return The total amount of non-voting locked gold for an account.\n   */\n  function getAccountNonvotingLockedGold(address account) external view returns (uint256) {\n    return balances[account].nonvoting;\n  }\n\n  /**\n   * @notice Returns the pending withdrawals from unlocked gold for an account.\n   * @param account The address of the account.\n   * @return The value for each pending withdrawal.\n   * @return The timestamp for each pending withdrawal.\n   */\n  function getPendingWithdrawals(address account)\n    external\n    view\n    returns (uint256[] memory, uint256[] memory)\n  {\n    require(\n      getAccounts().isAccount(account),\n      \"Unknown account: only registered accounts have pending withdrawals\"\n    );\n    uint256 length = balances[account].pendingWithdrawals.length;\n    uint256[] memory values = new uint256[](length);\n    uint256[] memory timestamps = new uint256[](length);\n    for (uint256 i = 0; i < length; i = i.add(1)) {\n      PendingWithdrawal memory pendingWithdrawal = (balances[account].pendingWithdrawals[i]);\n      values[i] = pendingWithdrawal.value;\n      timestamps[i] = pendingWithdrawal.timestamp;\n    }\n    return (values, timestamps);\n  }\n\n  /**\n   * @notice Returns the pending withdrawal at a given index for a given account.\n   * @param account The address of the account.\n   * @param index The index of the pending withdrawal.\n   * @return The value of the pending withdrawal.\n   * @return The timestamp of the pending withdrawal.\n   */\n  function getPendingWithdrawal(address account, uint256 index)\n    external\n    view\n    returns (uint256, uint256)\n  {\n    require(\n      getAccounts().isAccount(account),\n      \"Unknown account: only registered accounts have pending withdrawals\"\n    );\n    require(index < balances[account].pendingWithdrawals.length, \"Bad pending withdrawal index\");\n    PendingWithdrawal memory pendingWithdrawal = (balances[account].pendingWithdrawals[index]);\n\n    return (pendingWithdrawal.value, pendingWithdrawal.timestamp);\n  }\n\n  /**\n    * @notice Returns the number of pending withdrawals for the specified account.\n    * @param account The address of the account.\n    * @return The count of pending withdrawals.\n    */\n  function getTotalPendingWithdrawalsCount(address account) external view returns (uint256) {\n    return balances[account].pendingWithdrawals.length;\n  }\n\n  /**\n   * @notice Returns the total amount to withdraw from unlocked gold for an account.\n   * @param account The address of the account.\n   * @return Total amount to withdraw.\n   */\n  function getTotalPendingWithdrawals(address account) external view returns (uint256) {\n    uint256 pendingWithdrawalSum = 0;\n    PendingWithdrawal[] memory withdrawals = balances[account].pendingWithdrawals;\n    for (uint256 i = 0; i < withdrawals.length; i = i.add(1)) {\n      pendingWithdrawalSum = pendingWithdrawalSum.add(withdrawals[i].value);\n    }\n    return pendingWithdrawalSum;\n  }\n\n  function getSlashingWhitelist() external view returns (bytes32[] memory) {\n    return slashingWhitelist;\n  }\n\n  /**\n   * @notice Deletes a pending withdrawal.\n   * @param list The list of pending withdrawals from which to delete.\n   * @param index The index of the pending withdrawal to delete.\n   */\n  function deletePendingWithdrawal(PendingWithdrawal[] storage list, uint256 index) private {\n    uint256 lastIndex = list.length.sub(1);\n    list[index] = list[lastIndex];\n    list.length = lastIndex;\n  }\n\n  /**\n   * @notice Adds `slasher` to whitelist of approved slashing addresses.\n   * @param slasherIdentifier Identifier to whitelist.\n   */\n  function addSlasher(string calldata slasherIdentifier) external onlyOwner {\n    bytes32 keyBytes = keccak256(abi.encodePacked(slasherIdentifier));\n    require(registry.getAddressFor(keyBytes) != address(0), \"Identifier is not registered\");\n    require(!slashingMap[keyBytes], \"Cannot add slasher ID twice.\");\n    slashingWhitelist.push(keyBytes);\n    slashingMap[keyBytes] = true;\n    emit SlasherWhitelistAdded(slasherIdentifier);\n  }\n\n  /**\n   * @notice Removes `slasher` from whitelist of approved slashing addresses.\n   * @param slasherIdentifier Identifier to remove from whitelist.\n   * @param index Index of the provided identifier in slashingWhiteList array.\n   */\n  function removeSlasher(string calldata slasherIdentifier, uint256 index) external onlyOwner {\n    bytes32 keyBytes = keccak256(abi.encodePacked(slasherIdentifier));\n    require(slashingMap[keyBytes], \"Cannot remove slasher ID not yet added.\");\n    require(index < slashingWhitelist.length, \"Provided index exceeds whitelist bounds.\");\n    require(slashingWhitelist[index] == keyBytes, \"Index doesn't match identifier\");\n    slashingWhitelist[index] = slashingWhitelist[slashingWhitelist.length - 1];\n    slashingWhitelist.pop();\n    slashingMap[keyBytes] = false;\n    emit SlasherWhitelistRemoved(slasherIdentifier);\n  }\n\n  /**\n   * @notice Slashes `account` by reducing its nonvoting locked gold by `penalty`.\n   *         If there is not enough nonvoting locked gold to slash, calls into\n   *         `Election.slashVotes` to slash the remaining gold. If `account` does not have\n   *         `penalty` worth of locked gold, slashes `account`'s total locked gold.\n   *         Also sends `reward` gold to the reporter, and penalty-reward to the Community Fund.\n   * @param account Address of account being slashed.\n   * @param penalty Amount to slash account.\n   * @param reporter Address of account reporting the slasher.\n   * @param reward Reward to give reporter.\n   * @param lessers The groups receiving fewer votes than i'th group, or 0 if the i'th group has\n   *                the fewest votes of any validator group.\n   * @param greaters The groups receiving more votes than the i'th group, or 0 if the i'th group\n   *                 has the most votes of any validator group.\n   * @param indices The indices of the i'th group in `account`'s voting list.\n   * @dev Fails if `reward` is greater than `account`'s total locked gold.\n   */\n  function slash(\n    address account,\n    uint256 penalty,\n    address reporter,\n    uint256 reward,\n    address[] calldata lessers,\n    address[] calldata greaters,\n    uint256[] calldata indices\n  ) external onlySlasher {\n    uint256 maxSlash = Math.min(penalty, getAccountTotalLockedGold(account));\n    require(maxSlash >= reward, \"reward cannot exceed penalty.\");\n    // `reporter` receives the reward in locked CELO, so it must be given to an account\n    // There is no reward for slashing via the GovernanceSlasher, and `reporter`\n    // is set to 0x0.\n    if (reporter != address(0)) {\n      reporter = getAccounts().signerToAccount(reporter);\n    }\n    // Local scoping is required to avoid Solc \"stack too deep\" error from too many locals.\n    {\n      uint256 nonvotingBalance = balances[account].nonvoting;\n      uint256 difference = 0;\n      // If not enough nonvoting, revoke the difference\n      if (nonvotingBalance < maxSlash) {\n        difference = maxSlash.sub(nonvotingBalance);\n        require(\n          getElection().forceDecrementVotes(account, difference, lessers, greaters, indices) ==\n            difference,\n          \"Cannot revoke enough voting gold.\"\n        );\n      }\n      // forceDecrementVotes does not increment nonvoting account balance, so we can't double count\n      _decrementNonvotingAccountBalance(account, maxSlash.sub(difference));\n      _incrementNonvotingAccountBalance(reporter, reward);\n    }\n    address communityFund = registry.getAddressForOrDie(GOVERNANCE_REGISTRY_ID);\n    address payable communityFundPayable = address(uint160(communityFund));\n    require(maxSlash.sub(reward) <= address(this).balance, \"Inconsistent balance\");\n    communityFundPayable.sendValue(maxSlash.sub(reward));\n    emit AccountSlashed(account, maxSlash, reporter, reward);\n  }\n}\n",
  "sourcePath": "/Users/beaver/Development/celo/celo-monorepo/packages/protocol/contracts/governance/LockedGold.sol",
  "compiler": {
    "name": "solc",
    "version": "0.5.13+commit.5b0b510c.Emscripten.clang"
  },
  "schemaVersion": "3.4.13",
  "updatedAt": "2024-03-05T15:27:45.500Z",
  "networkType": "ethereum",
  "devdoc": {
    "methods": {
      "addSlasher(string)": {
        "params": {
          "slasherIdentifier": "Identifier to whitelist."
        }
      },
      "constructor": {
        "params": {
          "test": "Set to true to skip implementation initialization"
        }
      },
      "decrementNonvotingAccountBalance(address,uint256)": {
        "details": "Can only be called by the registered \"Election\" smart contract.",
        "params": {
          "account": "The account whose non-voting balance should be decremented.",
          "value": "The amount by which to decrement."
        }
      },
      "delegateGovernanceVotes(address,uint256)": {
        "params": {
          "delegateFraction": "Fraction of total CELO that will be delegated from delegatee. Fixidity fraction",
          "delegatee": "The delegatee account."
        }
      },
      "getAccountNonvotingLockedGold(address)": {
        "params": {
          "account": "The account."
        },
        "return": "The total amount of non-voting locked gold for an account."
      },
      "getAccountTotalDelegatedFraction(address)": {
        "params": {
          "account": "The account address."
        }
      },
      "getAccountTotalGovernanceVotingPower(address)": {
        "params": {
          "account": "The account."
        },
        "return": "The total amount of locked gold + delegated gold for an account."
      },
      "getAccountTotalLockedGold(address)": {
        "params": {
          "account": "The account."
        },
        "return": "The total amount of locked gold for an account."
      },
      "getDelegateesOfDelegator(address)": {
        "params": {
          "delegator": "The delegator address."
        }
      },
      "getDelegatorDelegateeExpectedAndRealAmount(address,address)": {
        "params": {
          "delegatee": "The delegatee address.",
          "delegator": "The delegator address."
        },
        "return": "expected The expected amount.real The real amount. "
      },
      "getDelegatorDelegateeInfo(address,address)": {
        "params": {
          "delegatee": "The delegatee address.",
          "delegator": "The delegator address."
        },
        "return": "fraction The fraction that is delegator asigning to delegatee.currentAmount The current actual Celo amount that is assigned to delegatee."
      },
      "getNonvotingLockedGold()": {
        "return": "The total amount of locked gold not being used to vote in elections."
      },
      "getPendingWithdrawal(address,uint256)": {
        "params": {
          "account": "The address of the account.",
          "index": "The index of the pending withdrawal."
        },
        "return": "The value of the pending withdrawal.The timestamp of the pending withdrawal."
      },
      "getPendingWithdrawals(address)": {
        "params": {
          "account": "The address of the account."
        },
        "return": "The value for each pending withdrawal.The timestamp for each pending withdrawal."
      },
      "getTotalLockedGold()": {
        "return": "The total amount of locked gold in the system."
      },
      "getTotalPendingWithdrawals(address)": {
        "params": {
          "account": "The address of the account."
        },
        "return": "Total amount to withdraw."
      },
      "getTotalPendingWithdrawalsCount(address)": {
        "params": {
          "account": "The address of the account."
        },
        "return": "The count of pending withdrawals."
      },
      "getVersionNumber()": {
        "return": "Storage version of the contract.Major version of the contract.Minor version of the contract.Patch version of the contract."
      },
      "incrementNonvotingAccountBalance(address,uint256)": {
        "details": "Can only be called by the registered Election smart contract.",
        "params": {
          "account": "The account whose non-voting balance should be incremented.",
          "value": "The amount by which to increment."
        }
      },
      "initialize(address,uint256)": {
        "params": {
          "_unlockingPeriod": "The unlocking period in seconds.",
          "registryAddress": "The address of the registry core smart contract."
        }
      },
      "isOwner()": {
        "details": "Returns true if the caller is the current owner."
      },
      "owner()": {
        "details": "Returns the address of the current owner."
      },
      "relock(uint256,uint256)": {
        "params": {
          "index": "The index of the pending withdrawal to relock from.",
          "value": "The value to relock from the specified pending withdrawal."
        }
      },
      "removeSlasher(string,uint256)": {
        "params": {
          "index": "Index of the provided identifier in slashingWhiteList array.",
          "slasherIdentifier": "Identifier to remove from whitelist."
        }
      },
      "renounceOwnership()": {
        "details": "Leaves the contract without owner. It will not be possible to call `onlyOwner` functions anymore. Can only be called by the current owner.     * NOTE: Renouncing ownership will leave the contract without an owner, thereby removing any functionality that is only available to the owner."
      },
      "revokeDelegatedGovernanceVotes(address,uint256)": {
        "params": {
          "delegatee": "The delegatee acount.",
          "revokeFraction": "Fraction of total CELO that will be revoked from delegatee. Fixidity fraction"
        }
      },
      "setMaxDelegateesCount(uint256)": {
        "params": {
          "value": "The max delegatees count."
        }
      },
      "setRegistry(address)": {
        "params": {
          "registryAddress": "The address of a registry contract for routing to other contracts."
        }
      },
      "setUnlockingPeriod(uint256)": {
        "params": {
          "value": "The unlocking period in seconds."
        }
      },
      "slash(address,uint256,address,uint256,address[],address[],uint256[])": {
        "details": "Fails if `reward` is greater than `account`'s total locked gold.",
        "params": {
          "account": "Address of account being slashed.",
          "greaters": "The groups receiving more votes than the i'th group, or 0 if the i'th group                has the most votes of any validator group.",
          "indices": "The indices of the i'th group in `account`'s voting list.",
          "lessers": "The groups receiving fewer votes than i'th group, or 0 if the i'th group has               the fewest votes of any validator group.",
          "penalty": "Amount to slash account.",
          "reporter": "Address of account reporting the slasher.",
          "reward": "Reward to give reporter."
        }
      },
      "transferOwnership(address)": {
        "details": "Transfers ownership of the contract to a new account (`newOwner`). Can only be called by the current owner."
      },
      "unlock(uint256)": {
        "params": {
          "value": "The amount of gold to unlock."
        }
      },
      "updateDelegatedAmount(address)": {
        "params": {
          "delegator": "The delegator address."
        }
      },
      "updateDelegatedAmount(address,address)": {
        "params": {
          "delegatee": "The delegatee address.",
          "delegator": "The delegator address."
        }
      },
      "withdraw(uint256)": {
        "params": {
          "index": "The index of the pending withdrawal to withdraw."
        }
      }
    }
  },
  "userdoc": {
    "methods": {
      "addSlasher(string)": {
        "notice": "Adds `slasher` to whitelist of approved slashing addresses."
      },
      "constructor": "Sets initialized == true on implementation contracts",
      "decrementNonvotingAccountBalance(address,uint256)": {
        "notice": "Decrements the non-voting balance for an account."
      },
      "delegateGovernanceVotes(address,uint256)": {
        "notice": "Delegates CELO to delegatee."
      },
      "getAccountNonvotingLockedGold(address)": {
        "notice": "Returns the total amount of non-voting locked gold for an account."
      },
      "getAccountTotalDelegatedFraction(address)": {
        "notice": "Returns how many percents of CELO is account delegating."
      },
      "getAccountTotalGovernanceVotingPower(address)": {
        "notice": "Returns the total amount of locked gold + delegated gold for an account."
      },
      "getAccountTotalLockedGold(address)": {
        "notice": "Returns the total amount of locked gold for an account."
      },
      "getDelegateesOfDelegator(address)": {
        "notice": "Retuns all delegatees of delegator"
      },
      "getDelegatorDelegateeExpectedAndRealAmount(address,address)": {
        "notice": "Returns expected vs real delegated amount.  If there is a discrepancy it can be fixed by calling `updateDelegatedAmount` function."
      },
      "getDelegatorDelegateeInfo(address,address)": {
        "notice": "Return percentage and amount that delegator assigned to delegateee. Please note that amount doesn't have to be up to date.  In such case please use `updateDelegatedBalance`."
      },
      "getNonvotingLockedGold()": {
        "notice": "Returns the total amount of locked gold not being used to vote in elections."
      },
      "getPendingWithdrawal(address,uint256)": {
        "notice": "Returns the pending withdrawal at a given index for a given account."
      },
      "getPendingWithdrawals(address)": {
        "notice": "Returns the pending withdrawals from unlocked gold for an account."
      },
      "getTotalLockedGold()": {
        "notice": "Returns the total amount of locked gold in the system. Note that this does not include  gold that has been unlocked but not yet withdrawn."
      },
      "getTotalPendingWithdrawals(address)": {
        "notice": "Returns the total amount to withdraw from unlocked gold for an account."
      },
      "getTotalPendingWithdrawalsCount(address)": {
        "notice": "Returns the number of pending withdrawals for the specified account."
      },
      "getVersionNumber()": {
        "notice": "Returns the storage, major, minor, and patch version of the contract."
      },
      "incrementNonvotingAccountBalance(address,uint256)": {
        "notice": "Increments the non-voting balance for an account."
      },
      "initialize(address,uint256)": {
        "notice": "Used in place of the constructor to allow the contract to be upgradable via proxy."
      },
      "lock()": {
        "notice": "Locks gold to be used for voting."
      },
      "relock(uint256,uint256)": {
        "notice": "Relocks gold that has been unlocked but not withdrawn."
      },
      "removeSlasher(string,uint256)": {
        "notice": "Removes `slasher` from whitelist of approved slashing addresses."
      },
      "revokeDelegatedGovernanceVotes(address,uint256)": {
        "notice": "Revokes delegated CELO."
      },
      "setMaxDelegateesCount(uint256)": {
        "notice": "Sets max delegatees count."
      },
      "setRegistry(address)": {
        "notice": "Updates the address pointing to a Registry contract."
      },
      "setUnlockingPeriod(uint256)": {
        "notice": "Sets the duration in seconds users must wait before withdrawing gold after unlocking."
      },
      "slash(address,uint256,address,uint256,address[],address[],uint256[])": {
        "notice": "Slashes `account` by reducing its nonvoting locked gold by `penalty`.        If there is not enough nonvoting locked gold to slash, calls into        `Election.slashVotes` to slash the remaining gold. If `account` does not have        `penalty` worth of locked gold, slashes `account`'s total locked gold.        Also sends `reward` gold to the reporter, and penalty-reward to the Community Fund."
      },
      "unlock(uint256)": {
        "notice": "Unlocks gold that becomes withdrawable after the unlocking period."
      },
      "updateDelegatedAmount(address)": {
        "notice": "Updates real delegated amount to all delegator's delegatees. There might be discrepancy because of validator rewards or extra locked gold."
      },
      "updateDelegatedAmount(address,address)": {
        "notice": "Updates real delegated amount to delegatee. There might be discrepancy because of validator rewards or extra locked gold. Voting power will always be smaller or equal to what it is supposed to be."
      },
      "withdraw(uint256)": {
        "notice": "Withdraws gold that has been unlocked after the unlocking period has passed."
      }
    }
  }
}