{
  "contractName": "MockUsingPrecompiles",
  "abi": [
    {
      "constant": false,
      "inputs": [
        {
          "internalType": "bytes",
          "name": "header",
          "type": "bytes"
        },
        {
          "internalType": "bytes32",
          "name": "bitmap",
          "type": "bytes32"
        }
      ],
      "name": "setVerifiedSealBitmap",
      "outputs": [],
      "payable": false,
      "stateMutability": "nonpayable",
      "type": "function"
    },
    {
      "constant": true,
      "inputs": [
        {
          "internalType": "bytes",
          "name": "header",
          "type": "bytes"
        }
      ],
      "name": "getVerifiedSealBitmapFromHeader",
      "outputs": [
        {
          "internalType": "bytes32",
          "name": "",
          "type": "bytes32"
        }
      ],
      "payable": false,
      "stateMutability": "view",
      "type": "function"
    },
    {
      "constant": true,
      "inputs": [
        {
          "internalType": "uint256",
          "name": "blockNumber",
          "type": "uint256"
        }
      ],
      "name": "getParentSealBitmap",
      "outputs": [
        {
          "internalType": "bytes32",
          "name": "",
          "type": "bytes32"
        }
      ],
      "payable": false,
      "stateMutability": "view",
      "type": "function"
    },
    {
      "constant": false,
      "inputs": [
        {
          "internalType": "uint256",
          "name": "blockNumber",
          "type": "uint256"
        },
        {
          "internalType": "bytes32",
          "name": "bitmap",
          "type": "bytes32"
        }
      ],
      "name": "setParentSealBitmap",
      "outputs": [],
      "payable": false,
      "stateMutability": "nonpayable",
      "type": "function"
    },
    {
      "constant": true,
      "inputs": [
        {
          "internalType": "uint256",
          "name": "index",
          "type": "uint256"
        },
        {
          "internalType": "uint256",
          "name": "blockNumber",
          "type": "uint256"
        }
      ],
      "name": "validatorSignerAddressFromSet",
      "outputs": [
        {
          "internalType": "address",
          "name": "",
          "type": "address"
        }
      ],
      "payable": false,
      "stateMutability": "view",
      "type": "function"
    },
    {
      "constant": false,
      "inputs": [
        {
          "internalType": "uint256",
          "name": "epoch",
          "type": "uint256"
        },
        {
          "internalType": "uint256",
          "name": "index",
          "type": "uint256"
        },
        {
          "internalType": "address",
          "name": "signer",
          "type": "address"
        }
      ],
      "name": "setEpochSigner",
      "outputs": [],
      "payable": false,
      "stateMutability": "nonpayable",
      "type": "function"
    },
    {
      "constant": false,
      "inputs": [
        {
          "internalType": "uint256",
          "name": "num",
          "type": "uint256"
        }
      ],
      "name": "setNumberValidators",
      "outputs": [],
      "payable": false,
      "stateMutability": "nonpayable",
      "type": "function"
    },
    {
      "constant": true,
      "inputs": [
        {
          "internalType": "uint256",
          "name": "",
          "type": "uint256"
        }
      ],
      "name": "numberValidatorsInSet",
      "outputs": [
        {
          "internalType": "uint256",
          "name": "",
          "type": "uint256"
        }
      ],
      "payable": false,
      "stateMutability": "view",
      "type": "function"
    },
    {
      "constant": true,
      "inputs": [
        {
          "internalType": "bytes",
          "name": "header",
          "type": "bytes"
        }
      ],
      "name": "getBlockNumberFromHeader",
      "outputs": [
        {
          "internalType": "uint256",
          "name": "",
          "type": "uint256"
        }
      ],
      "payable": false,
      "stateMutability": "view",
      "type": "function"
    },
    {
      "constant": false,
      "inputs": [
        {
          "internalType": "bytes",
          "name": "header",
          "type": "bytes"
        },
        {
          "internalType": "uint256",
          "name": "number",
          "type": "uint256"
        }
      ],
      "name": "setBlockNumber",
      "outputs": [
        {
          "internalType": "uint256",
          "name": "",
          "type": "uint256"
        }
      ],
      "payable": false,
      "stateMutability": "nonpayable",
      "type": "function"
    },
    {
      "constant": true,
      "inputs": [
        {
          "internalType": "bytes",
          "name": "header",
          "type": "bytes"
        }
      ],
      "name": "hashHeader",
      "outputs": [
        {
          "internalType": "bytes32",
          "name": "",
          "type": "bytes32"
        }
      ],
      "payable": false,
      "stateMutability": "view",
      "type": "function"
    }
  ],
  "bytecode": "0x608060405234801561001057600080fd5b50610a78806100206000396000f3fe608060405234801561001057600080fd5b50600436106100a95760003560e01c80636c56c16d116100715780636c56c16d146103b75780637a3aebe4146103ef5780638a883626146104c85780639b2b592f14610597578063d041d18a146105d9578063fae8db0a14610631576100a9565b806329d24b64146100ae578063462450c4146100dc5780634b2c2f44146101a15780635d180adb1461027057806367960e91146102e8575b600080fd5b6100da600480360360208110156100c457600080fd5b8101908080359060200190929190505050610673565b005b61019f600480360360408110156100f257600080fd5b810190808035906020019064010000000081111561010f57600080fd5b82018360208201111561012157600080fd5b8035906020019184600183028401116401000000008311171561014357600080fd5b91908080601f016020809104026020016040519081016040528093929190818152602001838380828437600081840152601f19601f8201169050808301925050505050505091929192908035906020019092919050505061067d565b005b61025a600480360360208110156101b757600080fd5b81019080803590602001906401000000008111156101d457600080fd5b8201836020820111156101e657600080fd5b8035906020019184600183028401116401000000008311171561020857600080fd5b91908080601f016020809104026020016040519081016040528093929190818152602001838380828437600081840152601f19601f820116905080830192505050505050509192919290505050610709565b6040518082815260200191505060405180910390f35b6102a66004803603604081101561028657600080fd5b810190808035906020019092919080359060200190929190505050610796565b604051808273ffffffffffffffffffffffffffffffffffffffff1673ffffffffffffffffffffffffffffffffffffffff16815260200191505060405180910390f35b6103a1600480360360208110156102fe57600080fd5b810190808035906020019064010000000081111561031b57600080fd5b82018360208201111561032d57600080fd5b8035906020019184600183028401116401000000008311171561034f57600080fd5b91908080601f016020809104026020016040519081016040528093929190818152602001838380828437600081840152601f19601f82011690508083019250505050505050919291929050505061080a565b6040518082815260200191505060405180910390f35b6103ed600480360360408110156103cd57600080fd5b81019080803590602001909291908035906020019092919050505061081b565b005b6104b26004803603604081101561040557600080fd5b810190808035906020019064010000000081111561042257600080fd5b82018360208201111561043457600080fd5b8035906020019184600183028401116401000000008311171561045657600080fd5b91908080601f016020809104026020016040519081016040528093929190818152602001838380828437600081840152601f19601f82011690508083019250505050505050919291929080359060200190929190505050610837565b6040518082815260200191505060405180910390f35b610581600480360360208110156104de57600080fd5b81019080803590602001906401000000008111156104fb57600080fd5b82018360208201111561050d57600080fd5b8035906020019184600183028401116401000000008311171561052f57600080fd5b91908080601f016020809104026020016040519081016040528093929190818152602001838380828437600081840152601f19601f8201169050808301925050505050505091929192905050506108c8565b6040518082815260200191505060405180910390f35b6105c3600480360360208110156105ad57600080fd5b8101908080359060200190929190505050610956565b6040518082815260200191505060405180910390f35b61062f600480360360608110156105ef57600080fd5b810190808035906020019092919080359060200190929190803573ffffffffffffffffffffffffffffffffffffffff169060200190929190505050610962565b005b61065d6004803603602081101561064757600080fd5b81019080803590602001909291905050506109e7565b6040518082815260200191505060405180910390f35b8060038190555050565b80600080846040516020018082805190602001908083835b602083106106b85780518252602082019150602081019050602083039250610695565b6001836020036101000a038019825116818451168082178552505050505050905001915050604051602081830303815290604052805190602001208152602001908152602001600020819055505050565b6000806000836040516020018082805190602001908083835b602083106107455780518252602082019150602081019050602083039250610722565b6001836020036101000a038019825116818451168082178552505050505050905001915050604051602081830303815290604052805190602001208152602001908152602001600020549050919050565b6000600260006107a584610a04565b85604051602001808381526020018281526020019250505060405160208183030381529060405280519060200120815260200190815260200160002060009054906101000a900473ffffffffffffffffffffffffffffffffffffffff16905092915050565b600081805190602001209050919050565b8060016000848152602001908152602001600020819055505050565b60008160046000856040516020018082805190602001908083835b602083106108755780518252602082019150602081019050602083039250610852565b6001836020036101000a0380198251168184511680821785525050505050509050019150506040516020818303038152906040528051906020012081526020019081526020016000208190555092915050565b600060046000836040516020018082805190602001908083835b6020831061090557805182526020820191506020810190506020830392506108e2565b6001836020036101000a038019825116818451168082178552505050505050905001915050604051602081830303815290604052805190602001208152602001908152602001600020549050919050565b60006003549050919050565b80600260008585604051602001808381526020018281526020019250505060405160208183030381529060405280519060200120815260200190815260200160002060006101000a81548173ffffffffffffffffffffffffffffffffffffffff021916908373ffffffffffffffffffffffffffffffffffffffff160217905550505050565b600060016000838152602001908152602001600020549050919050565b600080606490506000818481610a1657fe5b0490506000828581610a2457fe5b061415610a35578092505050610a3e565b60018101925050505b91905056fea265627a7a72315820e5b7f95194f1bcf259912a062e4297e4a7caf1eeb573de88a04dff8046623f4564736f6c634300050d0032",
  "source": "pragma solidity ^0.5.13;\n\nimport \"../DoubleSigningSlasher.sol\";\n\ncontract MockUsingPrecompiles {\n  mapping(bytes32 => bytes32) verifiedSealBitmap;\n  mapping(uint256 => bytes32) parentSealBitmap;\n  mapping(bytes32 => address) epochSigner;\n\n  uint256 numValidators;\n\n  function setVerifiedSealBitmap(bytes memory header, bytes32 bitmap) public {\n    verifiedSealBitmap[keccak256(abi.encodePacked(header))] = bitmap;\n  }\n\n  function getVerifiedSealBitmapFromHeader(bytes memory header) public view returns (bytes32) {\n    return verifiedSealBitmap[keccak256(abi.encodePacked(header))];\n  }\n\n  function getParentSealBitmap(uint256 blockNumber) public view returns (bytes32) {\n    return parentSealBitmap[blockNumber];\n  }\n\n  function setParentSealBitmap(uint256 blockNumber, bytes32 bitmap) public {\n    parentSealBitmap[blockNumber] = bitmap;\n  }\n\n  function calcEpoch(uint256 blockNumber) internal pure returns (uint256) {\n    uint256 epochSize = 100;\n    // Follows GetEpochNumber from celo-blockchain/blob/master/consensus/istanbul/utils.go\n    uint256 epochNumber = blockNumber / epochSize;\n    if (blockNumber % epochSize == 0) {\n      return epochNumber;\n    } else {\n      return epochNumber + 1;\n    }\n  }\n\n  function validatorSignerAddressFromSet(uint256 index, uint256 blockNumber)\n    public\n    view\n    returns (address)\n  {\n    return epochSigner[keccak256(abi.encodePacked(calcEpoch(blockNumber), index))];\n  }\n\n  function setEpochSigner(uint256 epoch, uint256 index, address signer) public {\n    epochSigner[keccak256(abi.encodePacked(epoch, index))] = signer;\n  }\n\n  function setNumberValidators(uint256 num) public {\n    numValidators = num;\n  }\n\n  function numberValidatorsInSet(uint256) public view returns (uint256) {\n    return numValidators;\n  }\n\n  mapping(bytes32 => uint256) blockNumbers;\n\n  function getBlockNumberFromHeader(bytes memory header) public view returns (uint256) {\n    return blockNumbers[keccak256(abi.encodePacked(header))];\n  }\n\n  function setBlockNumber(bytes memory header, uint256 number) public returns (uint256) {\n    blockNumbers[keccak256(abi.encodePacked(header))] = number;\n  }\n\n  function hashHeader(bytes memory header) public view returns (bytes32) {\n    return keccak256(header);\n  }\n}\n",
  "compiler": {
    "name": "solc",
    "version": "0.5.13+commit.5b0b510c.Emscripten.clang"
  },
  "schemaVersion": "3.4.13",
  "updatedAt": "2023-11-21T17:21:12.630Z",
  "devdoc": {
    "methods": {}
  },
  "userdoc": {
    "methods": {}
  }
}