{
  "contractName": "MockStableToken",
  "abi": [
    {
      "inputs": [],
      "payable": false,
      "stateMutability": "nonpayable",
      "type": "constructor"
    },
    {
      "constant": true,
      "inputs": [],
      "name": "_totalSupply",
      "outputs": [
        {
          "internalType": "uint256",
          "name": "",
          "type": "uint256"
        }
      ],
      "payable": false,
      "stateMutability": "view",
      "type": "function"
    },
    {
      "constant": true,
      "inputs": [
        {
          "internalType": "address",
          "name": "",
          "type": "address"
        }
      ],
      "name": "balances",
      "outputs": [
        {
          "internalType": "uint256",
          "name": "",
          "type": "uint256"
        }
      ],
      "payable": false,
      "stateMutability": "view",
      "type": "function"
    },
    {
      "constant": true,
      "inputs": [],
      "name": "decimals",
      "outputs": [
        {
          "internalType": "uint8",
          "name": "",
          "type": "uint8"
        }
      ],
      "payable": false,
      "stateMutability": "view",
      "type": "function"
    },
    {
      "constant": true,
      "inputs": [],
      "name": "inflationFactor",
      "outputs": [
        {
          "internalType": "uint256",
          "name": "value",
          "type": "uint256"
        }
      ],
      "payable": false,
      "stateMutability": "view",
      "type": "function"
    },
    {
      "constant": false,
      "inputs": [
        {
          "internalType": "uint256",
          "name": "newInflationFactor",
          "type": "uint256"
        }
      ],
      "name": "setInflationFactor",
      "outputs": [],
      "payable": false,
      "stateMutability": "nonpayable",
      "type": "function"
    },
    {
      "constant": false,
      "inputs": [
        {
          "internalType": "uint256",
          "name": "value",
          "type": "uint256"
        }
      ],
      "name": "setTotalSupply",
      "outputs": [],
      "payable": false,
      "stateMutability": "nonpayable",
      "type": "function"
    },
    {
      "constant": false,
      "inputs": [
        {
          "internalType": "address",
          "name": "to",
          "type": "address"
        },
        {
          "internalType": "uint256",
          "name": "value",
          "type": "uint256"
        }
      ],
      "name": "mint",
      "outputs": [
        {
          "internalType": "bool",
          "name": "",
          "type": "bool"
        }
      ],
      "payable": false,
      "stateMutability": "nonpayable",
      "type": "function"
    },
    {
      "constant": false,
      "inputs": [
        {
          "internalType": "uint256",
          "name": "value",
          "type": "uint256"
        }
      ],
      "name": "burn",
      "outputs": [
        {
          "internalType": "bool",
          "name": "",
          "type": "bool"
        }
      ],
      "payable": false,
      "stateMutability": "nonpayable",
      "type": "function"
    },
    {
      "constant": true,
      "inputs": [],
      "name": "totalSupply",
      "outputs": [
        {
          "internalType": "uint256",
          "name": "",
          "type": "uint256"
        }
      ],
      "payable": false,
      "stateMutability": "view",
      "type": "function"
    },
    {
      "constant": false,
      "inputs": [
        {
          "internalType": "address",
          "name": "to",
          "type": "address"
        },
        {
          "internalType": "uint256",
          "name": "value",
          "type": "uint256"
        }
      ],
      "name": "transfer",
      "outputs": [
        {
          "internalType": "bool",
          "name": "",
          "type": "bool"
        }
      ],
      "payable": false,
      "stateMutability": "nonpayable",
      "type": "function"
    },
    {
      "constant": false,
      "inputs": [
        {
          "internalType": "address",
          "name": "from",
          "type": "address"
        },
        {
          "internalType": "address",
          "name": "to",
          "type": "address"
        },
        {
          "internalType": "uint256",
          "name": "value",
          "type": "uint256"
        }
      ],
      "name": "transferFrom",
      "outputs": [
        {
          "internalType": "bool",
          "name": "",
          "type": "bool"
        }
      ],
      "payable": false,
      "stateMutability": "nonpayable",
      "type": "function"
    },
    {
      "constant": true,
      "inputs": [
        {
          "internalType": "address",
          "name": "account",
          "type": "address"
        }
      ],
      "name": "balanceOf",
      "outputs": [
        {
          "internalType": "uint256",
          "name": "",
          "type": "uint256"
        }
      ],
      "payable": false,
      "stateMutability": "view",
      "type": "function"
    },
    {
      "constant": true,
      "inputs": [
        {
          "internalType": "uint256",
          "name": "units",
          "type": "uint256"
        }
      ],
      "name": "unitsToValue",
      "outputs": [
        {
          "internalType": "uint256",
          "name": "",
          "type": "uint256"
        }
      ],
      "payable": false,
      "stateMutability": "view",
      "type": "function"
    },
    {
      "constant": true,
      "inputs": [
        {
          "internalType": "uint256",
          "name": "value",
          "type": "uint256"
        }
      ],
      "name": "valueToUnits",
      "outputs": [
        {
          "internalType": "uint256",
          "name": "",
          "type": "uint256"
        }
      ],
      "payable": false,
      "stateMutability": "view",
      "type": "function"
    }
  ],
  "bytecode": "0x60806040523480156200001157600080fd5b506200004c620000406200002f6200005260201b620012df1760201c565b6200007a60201b620013051760201c565b6200008860201b60201c565b620000e3565b6200005c620000d0565b604051806020016040528069d3c21bcecceda1000000815250905090565b600081600001519050919050565b6200009e81620000b060201b62000d251760201c565b60016000820151816000015590505050565b620000ba620000d0565b6040518060200160405280838152509050919050565b6040518060200160405280600081525090565b61137e80620000f36000396000f3fe608060405234801561001057600080fd5b50600436106100ea5760003560e01c806340c10f191161008c578063a9059cbb11610066578063a9059cbb146103a1578063af31f58714610407578063e4a063c314610449578063f7ea7a3d14610467576100ea565b806340c10f191461029d57806342966c681461030357806370a0823114610349576100ea565b806323b872dd116100c857806323b872dd1461017d57806327e235e314610203578063313ce5671461025b5780633eaaf86b1461027f576100ea565b806312c6c099146100ef57806315ccf5981461013157806318160ddd1461015f575b600080fd5b61011b6004803603602081101561010557600080fd5b8101908080359060200190929190505050610495565b6040518082815260200191505060405180910390f35b61015d6004803603602081101561014757600080fd5b81019080803590602001909291905050506104d7565b005b6101676104f2565b6040518082815260200191505060405180910390f35b6101e96004803603606081101561019357600080fd5b81019080803573ffffffffffffffffffffffffffffffffffffffff169060200190929190803573ffffffffffffffffffffffffffffffffffffffff169060200190929190803590602001909291905050506104fb565b604051808215151515815260200191505060405180910390f35b6102456004803603602081101561021957600080fd5b81019080803573ffffffffffffffffffffffffffffffffffffffff169060200190929190505050610511565b6040518082815260200191505060405180910390f35b610263610529565b604051808260ff1660ff16815260200191505060405180910390f35b61028761052e565b6040518082815260200191505060405180910390f35b6102e9600480360360408110156102b357600080fd5b81019080803573ffffffffffffffffffffffffffffffffffffffff16906020019092919080359060200190929190505050610534565b604051808215151515815260200191505060405180910390f35b61032f6004803603602081101561031957600080fd5b810190808035906020019092919050505061069a565b604051808215151515815260200191505060405180910390f35b61038b6004803603602081101561035f57600080fd5b81019080803573ffffffffffffffffffffffffffffffffffffffff16906020019092919050505061075d565b6040518082815260200191505060405180910390f35b6103ed600480360360408110156103b757600080fd5b81019080803573ffffffffffffffffffffffffffffffffffffffff169060200190929190803590602001909291905050506107ae565b604051808215151515815260200191505060405180910390f35b6104336004803603602081101561041d57600080fd5b81019080803590602001909291905050506107c3565b6040518082815260200191505060405180910390f35b610451610805565b6040518082815260200191505060405180910390f35b6104936004803603602081101561047d57600080fd5b8101908080359060200190929190505050610811565b005b60006104d06104cb6104a68461081b565b60016040518060200160405290816000820154815250506108a590919063ffffffff16565b610d04565b9050919050565b6104e081610d25565b60016000820151816000015590505050565b60008054905090565b6000610508848484610d43565b90509392505050565b60026020528060005260406000206000915090505481565b601281565b60005481565b60008073ffffffffffffffffffffffffffffffffffffffff168373ffffffffffffffffffffffffffffffffffffffff1614156105d8576040517f08c379a00000000000000000000000000000000000000000000000000000000081526004018080602001828103825260178152602001807f302069732061207265736572766564206164647265737300000000000000000081525060200191505060405180910390fd5b6106326105e483610495565b600260008673ffffffffffffffffffffffffffffffffffffffff1673ffffffffffffffffffffffffffffffffffffffff16815260200190815260200160002054610ea890919063ffffffff16565b600260008573ffffffffffffffffffffffffffffffffffffffff1673ffffffffffffffffffffffffffffffffffffffff1681526020019081526020016000208190555061068a82600054610ea890919063ffffffff16565b6000819055506001905092915050565b60006106f66106a883610495565b600260003373ffffffffffffffffffffffffffffffffffffffff1673ffffffffffffffffffffffffffffffffffffffff16815260200190815260200160002054610f3090919063ffffffff16565b600260003373ffffffffffffffffffffffffffffffffffffffff1673ffffffffffffffffffffffffffffffffffffffff1681526020019081526020016000208190555061074e82600054610f3090919063ffffffff16565b60008190555060019050919050565b60006107a7600260008473ffffffffffffffffffffffffffffffffffffffff1673ffffffffffffffffffffffffffffffffffffffff168152602001908152602001600020546107c3565b9050919050565b60006107bb338484610d43565b905092915050565b60006107fe6107f960016040518060200160405290816000820154815250506107eb8561081b565b610f7a90919063ffffffff16565b610d04565b9050919050565b60018060000154905081565b8060008190555050565b6108236112cc565b61082b6110c3565b821115610883576040517f08c379a00000000000000000000000000000000000000000000000000000000081526004018080602001828103825260368152602001806113146036913960400191505060405180910390fd5b604051806020016040528069d3c21bcecceda100000084028152509050919050565b6108ad6112cc565b6000836000015114806108c4575060008260000151145b156108e057604051806020016040528060008152509050610cfe565b69d3c21bcecceda1000000826000015114156108fe57829050610cfe565b69d3c21bcecceda10000008360000151141561091c57819050610cfe565b600069d3c21bcecceda1000000610932856110e2565b600001518161093d57fe5b049050600061094b85611119565b600001519050600069d3c21bcecceda1000000610967866110e2565b600001518161097257fe5b049050600061098086611119565b6000015190506000828502905060008514610a14578285828161099f57fe5b0414610a13576040517f08c379a00000000000000000000000000000000000000000000000000000000081526004018080602001828103825260168152602001807f6f766572666c6f7720783179312064657465637465640000000000000000000081525060200191505060405180910390fd5b5b600069d3c21bcecceda10000008202905060008214610ab65769d3c21bcecceda1000000828281610a4157fe5b0414610ab5576040517f08c379a000000000000000000000000000000000000000000000000000000000815260040180806020018281038252601f8152602001807f6f766572666c6f772078317931202a206669786564312064657465637465640081525060200191505060405180910390fd5b5b8091506000848602905060008614610b475784868281610ad257fe5b0414610b46576040517f08c379a00000000000000000000000000000000000000000000000000000000081526004018080602001828103825260168152602001807f6f766572666c6f7720783279312064657465637465640000000000000000000081525060200191505060405180910390fd5b5b6000848802905060008814610bd55784888281610b6057fe5b0414610bd4576040517f08c379a00000000000000000000000000000000000000000000000000000000081526004018080602001828103825260168152602001807f6f766572666c6f7720783179322064657465637465640000000000000000000081525060200191505060405180910390fd5b5b610bdd611156565b8781610be557fe5b049650610bf0611156565b8581610bf857fe5b0494506000858802905060008814610c895785888281610c1457fe5b0414610c88576040517f08c379a00000000000000000000000000000000000000000000000000000000081526004018080602001828103825260168152602001807f6f766572666c6f7720783279322064657465637465640000000000000000000081525060200191505060405180910390fd5b5b610c916112cc565b6040518060200160405280878152509050610cba81604051806020016040528087815250611163565b9050610cd481604051806020016040528086815250611163565b9050610cee81604051806020016040528085815250611163565b9050809a50505050505050505050505b92915050565b600069d3c21bcecceda1000000826000015181610d1d57fe5b049050919050565b610d2d6112cc565b6040518060200160405280838152509050919050565b600080610d4f8561075d565b905082811015610d63576000915050610ea1565b6000610d6e84610495565b9050610dc281600260008973ffffffffffffffffffffffffffffffffffffffff1673ffffffffffffffffffffffffffffffffffffffff16815260200190815260200160002054610f3090919063ffffffff16565b600260008873ffffffffffffffffffffffffffffffffffffffff1673ffffffffffffffffffffffffffffffffffffffff16815260200190815260200160002081905550610e5781600260008873ffffffffffffffffffffffffffffffffffffffff1673ffffffffffffffffffffffffffffffffffffffff16815260200190815260200160002054610ea890919063ffffffff16565b600260008773ffffffffffffffffffffffffffffffffffffffff1673ffffffffffffffffffffffffffffffffffffffff168152602001908152602001600020819055506001925050505b9392505050565b600080828401905083811015610f26576040517f08c379a000000000000000000000000000000000000000000000000000000000815260040180806020018281038252601b8152602001807f536166654d6174683a206164646974696f6e206f766572666c6f77000000000081525060200191505060405180910390fd5b8091505092915050565b6000610f7283836040518060400160405280601e81526020017f536166654d6174683a207375627472616374696f6e206f766572666c6f77000081525061120c565b905092915050565b610f826112cc565b600082600001511415610ffd576040517f08c379a00000000000000000000000000000000000000000000000000000000081526004018080602001828103825260118152602001807f63616e277420646976696465206279203000000000000000000000000000000081525060200191505060405180910390fd5b600069d3c21bcecceda10000008460000151029050836000015169d3c21bcecceda1000000828161102a57fe5b041461109e576040517f08c379a00000000000000000000000000000000000000000000000000000000081526004018080602001828103825260128152602001807f6f766572666c6f7720617420646976696465000000000000000000000000000081525060200191505060405180910390fd5b6040518060200160405280846000015183816110b657fe5b0481525091505092915050565b60007601357c299a88ea76a58924d52ce4f26a85af186c2b9e74905090565b6110ea6112cc565b604051806020016040528069d3c21bcecceda10000008085600001518161110d57fe5b04028152509050919050565b6111216112cc565b604051806020016040528069d3c21bcecceda10000008085600001518161114457fe5b04028460000151038152509050919050565b600064e8d4a51000905090565b61116b6112cc565b60008260000151846000015101905083600001518110156111f4576040517f08c379a00000000000000000000000000000000000000000000000000000000081526004018080602001828103825260158152602001807f616464206f766572666c6f77206465746563746564000000000000000000000081525060200191505060405180910390fd5b60405180602001604052808281525091505092915050565b60008383111582906112b9576040517f08c379a00000000000000000000000000000000000000000000000000000000081526004018080602001828103825283818151815260200191508051906020019080838360005b8381101561127e578082015181840152602081019050611263565b50505050905090810190601f1680156112ab5780820380516001836020036101000a031916815260200191505b509250505060405180910390fd5b5060008385039050809150509392505050565b6040518060200160405280600081525090565b6112e76112cc565b604051806020016040528069d3c21bcecceda1000000815250905090565b60008160000151905091905056fe63616e277420637265617465206669786964697479206e756d626572206c6172676572207468616e206d61784e657746697865642829a265627a7a72315820c244fabf46232e0ad7e1fe0bf4f4b5218b33d82104abf2d99d83ee4b0b67dbcd64736f6c634300050d0032",
  "source": "pragma solidity ^0.5.13;\n// solhint-disable no-unused-vars\n\nimport \"openzeppelin-solidity/contracts/math/SafeMath.sol\";\n\nimport \"../../common/FixidityLib.sol\";\n\n/**\n * @title A mock StableToken for testing.\n */\ncontract MockStableToken {\n  using FixidityLib for FixidityLib.Fraction;\n  using SafeMath for uint256;\n\n  uint8 public constant decimals = 18;\n  uint256 public _totalSupply;\n  FixidityLib.Fraction public inflationFactor;\n\n  // Stored as units. Value can be found using unitsToValue().\n  mapping(address => uint256) public balances;\n\n  constructor() public {\n    setInflationFactor(FixidityLib.fixed1().unwrap());\n  }\n\n  function setInflationFactor(uint256 newInflationFactor) public {\n    inflationFactor = FixidityLib.wrap(newInflationFactor);\n  }\n\n  function setTotalSupply(uint256 value) external {\n    _totalSupply = value;\n  }\n\n  function mint(address to, uint256 value) external returns (bool) {\n    require(to != address(0), \"0 is a reserved address\");\n    balances[to] = balances[to].add(valueToUnits(value));\n    _totalSupply = _totalSupply.add(value);\n    return true;\n  }\n\n  function burn(uint256 value) external returns (bool) {\n    balances[msg.sender] = balances[msg.sender].sub(valueToUnits(value));\n    _totalSupply = _totalSupply.sub(value);\n    return true;\n  }\n\n  function totalSupply() external view returns (uint256) {\n    return _totalSupply;\n  }\n\n  function transfer(address to, uint256 value) external returns (bool) {\n    return _transfer(msg.sender, to, value);\n  }\n\n  function transferFrom(address from, address to, uint256 value) external returns (bool) {\n    return _transfer(from, to, value);\n  }\n\n  function _transfer(address from, address to, uint256 value) internal returns (bool) {\n    uint256 balanceValue = balanceOf(from);\n    if (balanceValue < value) {\n      return false;\n    }\n    uint256 units = valueToUnits(value);\n    balances[from] = balances[from].sub(units);\n    balances[to] = balances[to].add(units);\n    return true;\n  }\n\n  function balanceOf(address account) public view returns (uint256) {\n    return unitsToValue(balances[account]);\n  }\n\n  function unitsToValue(uint256 units) public view returns (uint256) {\n    return FixidityLib.newFixed(units).divide(inflationFactor).fromFixed();\n  }\n\n  function valueToUnits(uint256 value) public view returns (uint256) {\n    return inflationFactor.multiply(FixidityLib.newFixed(value)).fromFixed();\n  }\n}\n",
  "sourcePath": "/Users/beaver/Development/celo/celo-monorepo/packages/protocol/contracts/stability/test/MockStableToken.sol",
  "compiler": {
    "name": "solc",
    "version": "0.5.13+commit.5b0b510c.Emscripten.clang"
  },
  "schemaVersion": "3.4.13",
  "updatedAt": "2024-03-05T15:18:24.458Z",
  "devdoc": {
    "methods": {},
    "title": "A mock StableToken for testing."
  },
  "userdoc": {
    "methods": {}
  }
}