{
  "contractName": "MockUniswapV2Router02",
  "abi": [
    {
      "inputs": [
        {
          "internalType": "address",
          "name": "_factory",
          "type": "address"
        },
        {
          "internalType": "address",
          "name": "_WETH",
          "type": "address"
        },
        {
          "internalType": "bytes32",
          "name": "initCodePairHash",
          "type": "bytes32"
        }
      ],
      "payable": false,
      "stateMutability": "nonpayable",
      "type": "constructor"
    },
    {
      "anonymous": false,
      "inputs": [
        {
          "indexed": false,
          "internalType": "address",
          "name": "pair",
          "type": "address"
        }
      ],
      "name": "Pair",
      "type": "event"
    },
    {
      "constant": true,
      "inputs": [],
      "name": "INIT_CODE_PAIR_HASH",
      "outputs": [
        {
          "internalType": "bytes32",
          "name": "",
          "type": "bytes32"
        }
      ],
      "payable": false,
      "stateMutability": "view",
      "type": "function"
    },
    {
      "constant": true,
      "inputs": [],
      "name": "WETH",
      "outputs": [
        {
          "internalType": "address",
          "name": "",
          "type": "address"
        }
      ],
      "payable": false,
      "stateMutability": "view",
      "type": "function"
    },
    {
      "constant": true,
      "inputs": [],
      "name": "factory",
      "outputs": [
        {
          "internalType": "address",
          "name": "",
          "type": "address"
        }
      ],
      "payable": false,
      "stateMutability": "view",
      "type": "function"
    },
    {
      "constant": false,
      "inputs": [
        {
          "internalType": "address",
          "name": "tokenA",
          "type": "address"
        },
        {
          "internalType": "address",
          "name": "tokenB",
          "type": "address"
        },
        {
          "internalType": "uint256",
          "name": "amountADesired",
          "type": "uint256"
        },
        {
          "internalType": "uint256",
          "name": "amountBDesired",
          "type": "uint256"
        },
        {
          "internalType": "uint256",
          "name": "amountAMin",
          "type": "uint256"
        },
        {
          "internalType": "uint256",
          "name": "amountBMin",
          "type": "uint256"
        },
        {
          "internalType": "address",
          "name": "to",
          "type": "address"
        },
        {
          "internalType": "uint256",
          "name": "deadline",
          "type": "uint256"
        }
      ],
      "name": "addLiquidity",
      "outputs": [
        {
          "internalType": "uint256",
          "name": "amountA",
          "type": "uint256"
        },
        {
          "internalType": "uint256",
          "name": "amountB",
          "type": "uint256"
        },
        {
          "internalType": "uint256",
          "name": "liquidity",
          "type": "uint256"
        }
      ],
      "payable": false,
      "stateMutability": "nonpayable",
      "type": "function"
    },
    {
      "constant": false,
      "inputs": [
        {
          "internalType": "address",
          "name": "token",
          "type": "address"
        },
        {
          "internalType": "uint256",
          "name": "amountTokenDesired",
          "type": "uint256"
        },
        {
          "internalType": "uint256",
          "name": "amountTokenMin",
          "type": "uint256"
        },
        {
          "internalType": "uint256",
          "name": "amountETHMin",
          "type": "uint256"
        },
        {
          "internalType": "address",
          "name": "to",
          "type": "address"
        },
        {
          "internalType": "uint256",
          "name": "deadline",
          "type": "uint256"
        }
      ],
      "name": "addLiquidityETH",
      "outputs": [
        {
          "internalType": "uint256",
          "name": "amountToken",
          "type": "uint256"
        },
        {
          "internalType": "uint256",
          "name": "amountETH",
          "type": "uint256"
        },
        {
          "internalType": "uint256",
          "name": "liquidity",
          "type": "uint256"
        }
      ],
      "payable": true,
      "stateMutability": "payable",
      "type": "function"
    },
    {
      "constant": false,
      "inputs": [
        {
          "internalType": "address",
          "name": "tokenA",
          "type": "address"
        },
        {
          "internalType": "address",
          "name": "tokenB",
          "type": "address"
        },
        {
          "internalType": "uint256",
          "name": "liquidity",
          "type": "uint256"
        },
        {
          "internalType": "uint256",
          "name": "amountAMin",
          "type": "uint256"
        },
        {
          "internalType": "uint256",
          "name": "amountBMin",
          "type": "uint256"
        },
        {
          "internalType": "address",
          "name": "to",
          "type": "address"
        },
        {
          "internalType": "uint256",
          "name": "deadline",
          "type": "uint256"
        }
      ],
      "name": "removeLiquidity",
      "outputs": [
        {
          "internalType": "uint256",
          "name": "amountA",
          "type": "uint256"
        },
        {
          "internalType": "uint256",
          "name": "amountB",
          "type": "uint256"
        }
      ],
      "payable": false,
      "stateMutability": "nonpayable",
      "type": "function"
    },
    {
      "constant": false,
      "inputs": [
        {
          "internalType": "address",
          "name": "token",
          "type": "address"
        },
        {
          "internalType": "uint256",
          "name": "liquidity",
          "type": "uint256"
        },
        {
          "internalType": "uint256",
          "name": "amountTokenMin",
          "type": "uint256"
        },
        {
          "internalType": "uint256",
          "name": "amountETHMin",
          "type": "uint256"
        },
        {
          "internalType": "address",
          "name": "to",
          "type": "address"
        },
        {
          "internalType": "uint256",
          "name": "deadline",
          "type": "uint256"
        }
      ],
      "name": "removeLiquidityETH",
      "outputs": [
        {
          "internalType": "uint256",
          "name": "amountToken",
          "type": "uint256"
        },
        {
          "internalType": "uint256",
          "name": "amountETH",
          "type": "uint256"
        }
      ],
      "payable": false,
      "stateMutability": "nonpayable",
      "type": "function"
    },
    {
      "constant": false,
      "inputs": [
        {
          "internalType": "address",
          "name": "tokenA",
          "type": "address"
        },
        {
          "internalType": "address",
          "name": "tokenB",
          "type": "address"
        },
        {
          "internalType": "uint256",
          "name": "liquidity",
          "type": "uint256"
        },
        {
          "internalType": "uint256",
          "name": "amountAMin",
          "type": "uint256"
        },
        {
          "internalType": "uint256",
          "name": "amountBMin",
          "type": "uint256"
        },
        {
          "internalType": "address",
          "name": "to",
          "type": "address"
        },
        {
          "internalType": "uint256",
          "name": "deadline",
          "type": "uint256"
        },
        {
          "internalType": "bool",
          "name": "approveMax",
          "type": "bool"
        },
        {
          "internalType": "uint8",
          "name": "v",
          "type": "uint8"
        },
        {
          "internalType": "bytes32",
          "name": "r",
          "type": "bytes32"
        },
        {
          "internalType": "bytes32",
          "name": "s",
          "type": "bytes32"
        }
      ],
      "name": "removeLiquidityWithPermit",
      "outputs": [
        {
          "internalType": "uint256",
          "name": "amountA",
          "type": "uint256"
        },
        {
          "internalType": "uint256",
          "name": "amountB",
          "type": "uint256"
        }
      ],
      "payable": false,
      "stateMutability": "nonpayable",
      "type": "function"
    },
    {
      "constant": false,
      "inputs": [
        {
          "internalType": "address",
          "name": "token",
          "type": "address"
        },
        {
          "internalType": "uint256",
          "name": "liquidity",
          "type": "uint256"
        },
        {
          "internalType": "uint256",
          "name": "amountTokenMin",
          "type": "uint256"
        },
        {
          "internalType": "uint256",
          "name": "amountETHMin",
          "type": "uint256"
        },
        {
          "internalType": "address",
          "name": "to",
          "type": "address"
        },
        {
          "internalType": "uint256",
          "name": "deadline",
          "type": "uint256"
        },
        {
          "internalType": "bool",
          "name": "approveMax",
          "type": "bool"
        },
        {
          "internalType": "uint8",
          "name": "v",
          "type": "uint8"
        },
        {
          "internalType": "bytes32",
          "name": "r",
          "type": "bytes32"
        },
        {
          "internalType": "bytes32",
          "name": "s",
          "type": "bytes32"
        }
      ],
      "name": "removeLiquidityETHWithPermit",
      "outputs": [
        {
          "internalType": "uint256",
          "name": "amountToken",
          "type": "uint256"
        },
        {
          "internalType": "uint256",
          "name": "amountETH",
          "type": "uint256"
        }
      ],
      "payable": false,
      "stateMutability": "nonpayable",
      "type": "function"
    },
    {
      "constant": false,
      "inputs": [
        {
          "internalType": "address",
          "name": "token",
          "type": "address"
        },
        {
          "internalType": "uint256",
          "name": "liquidity",
          "type": "uint256"
        },
        {
          "internalType": "uint256",
          "name": "amountTokenMin",
          "type": "uint256"
        },
        {
          "internalType": "uint256",
          "name": "amountETHMin",
          "type": "uint256"
        },
        {
          "internalType": "address",
          "name": "to",
          "type": "address"
        },
        {
          "internalType": "uint256",
          "name": "deadline",
          "type": "uint256"
        }
      ],
      "name": "removeLiquidityETHSupportingFeeOnTransferTokens",
      "outputs": [
        {
          "internalType": "uint256",
          "name": "amountETH",
          "type": "uint256"
        }
      ],
      "payable": false,
      "stateMutability": "nonpayable",
      "type": "function"
    },
    {
      "constant": false,
      "inputs": [
        {
          "internalType": "address",
          "name": "token",
          "type": "address"
        },
        {
          "internalType": "uint256",
          "name": "liquidity",
          "type": "uint256"
        },
        {
          "internalType": "uint256",
          "name": "amountTokenMin",
          "type": "uint256"
        },
        {
          "internalType": "uint256",
          "name": "amountETHMin",
          "type": "uint256"
        },
        {
          "internalType": "address",
          "name": "to",
          "type": "address"
        },
        {
          "internalType": "uint256",
          "name": "deadline",
          "type": "uint256"
        },
        {
          "internalType": "bool",
          "name": "approveMax",
          "type": "bool"
        },
        {
          "internalType": "uint8",
          "name": "v",
          "type": "uint8"
        },
        {
          "internalType": "bytes32",
          "name": "r",
          "type": "bytes32"
        },
        {
          "internalType": "bytes32",
          "name": "s",
          "type": "bytes32"
        }
      ],
      "name": "removeLiquidityETHWithPermitSupportingFeeOnTransferTokens",
      "outputs": [
        {
          "internalType": "uint256",
          "name": "amountETH",
          "type": "uint256"
        }
      ],
      "payable": false,
      "stateMutability": "nonpayable",
      "type": "function"
    },
    {
      "constant": false,
      "inputs": [
        {
          "internalType": "uint256",
          "name": "amountIn",
          "type": "uint256"
        },
        {
          "internalType": "uint256",
          "name": "amountOutMin",
          "type": "uint256"
        },
        {
          "internalType": "address[]",
          "name": "path",
          "type": "address[]"
        },
        {
          "internalType": "address",
          "name": "to",
          "type": "address"
        },
        {
          "internalType": "uint256",
          "name": "deadline",
          "type": "uint256"
        }
      ],
      "name": "swapExactTokensForTokens",
      "outputs": [
        {
          "internalType": "uint256[]",
          "name": "amounts",
          "type": "uint256[]"
        }
      ],
      "payable": false,
      "stateMutability": "nonpayable",
      "type": "function"
    },
    {
      "constant": false,
      "inputs": [
        {
          "internalType": "uint256",
          "name": "amountOut",
          "type": "uint256"
        },
        {
          "internalType": "uint256",
          "name": "amountInMax",
          "type": "uint256"
        },
        {
          "internalType": "address[]",
          "name": "path",
          "type": "address[]"
        },
        {
          "internalType": "address",
          "name": "to",
          "type": "address"
        },
        {
          "internalType": "uint256",
          "name": "deadline",
          "type": "uint256"
        }
      ],
      "name": "swapTokensForExactTokens",
      "outputs": [
        {
          "internalType": "uint256[]",
          "name": "amounts",
          "type": "uint256[]"
        }
      ],
      "payable": false,
      "stateMutability": "nonpayable",
      "type": "function"
    },
    {
      "constant": false,
      "inputs": [
        {
          "internalType": "uint256",
          "name": "amountOutMin",
          "type": "uint256"
        },
        {
          "internalType": "address[]",
          "name": "path",
          "type": "address[]"
        },
        {
          "internalType": "address",
          "name": "to",
          "type": "address"
        },
        {
          "internalType": "uint256",
          "name": "deadline",
          "type": "uint256"
        }
      ],
      "name": "swapExactETHForTokens",
      "outputs": [
        {
          "internalType": "uint256[]",
          "name": "amounts",
          "type": "uint256[]"
        }
      ],
      "payable": true,
      "stateMutability": "payable",
      "type": "function"
    },
    {
      "constant": false,
      "inputs": [
        {
          "internalType": "uint256",
          "name": "amountOut",
          "type": "uint256"
        },
        {
          "internalType": "uint256",
          "name": "amountInMax",
          "type": "uint256"
        },
        {
          "internalType": "address[]",
          "name": "path",
          "type": "address[]"
        },
        {
          "internalType": "address",
          "name": "to",
          "type": "address"
        },
        {
          "internalType": "uint256",
          "name": "deadline",
          "type": "uint256"
        }
      ],
      "name": "swapTokensForExactETH",
      "outputs": [
        {
          "internalType": "uint256[]",
          "name": "amounts",
          "type": "uint256[]"
        }
      ],
      "payable": false,
      "stateMutability": "nonpayable",
      "type": "function"
    },
    {
      "constant": false,
      "inputs": [
        {
          "internalType": "uint256",
          "name": "amountIn",
          "type": "uint256"
        },
        {
          "internalType": "uint256",
          "name": "amountOutMin",
          "type": "uint256"
        },
        {
          "internalType": "address[]",
          "name": "path",
          "type": "address[]"
        },
        {
          "internalType": "address",
          "name": "to",
          "type": "address"
        },
        {
          "internalType": "uint256",
          "name": "deadline",
          "type": "uint256"
        }
      ],
      "name": "swapExactTokensForETH",
      "outputs": [
        {
          "internalType": "uint256[]",
          "name": "amounts",
          "type": "uint256[]"
        }
      ],
      "payable": false,
      "stateMutability": "nonpayable",
      "type": "function"
    },
    {
      "constant": false,
      "inputs": [
        {
          "internalType": "uint256",
          "name": "amountOut",
          "type": "uint256"
        },
        {
          "internalType": "address[]",
          "name": "path",
          "type": "address[]"
        },
        {
          "internalType": "address",
          "name": "to",
          "type": "address"
        },
        {
          "internalType": "uint256",
          "name": "deadline",
          "type": "uint256"
        }
      ],
      "name": "swapETHForExactTokens",
      "outputs": [
        {
          "internalType": "uint256[]",
          "name": "amounts",
          "type": "uint256[]"
        }
      ],
      "payable": true,
      "stateMutability": "payable",
      "type": "function"
    },
    {
      "constant": false,
      "inputs": [
        {
          "internalType": "uint256",
          "name": "amountIn",
          "type": "uint256"
        },
        {
          "internalType": "uint256",
          "name": "amountOutMin",
          "type": "uint256"
        },
        {
          "internalType": "address[]",
          "name": "path",
          "type": "address[]"
        },
        {
          "internalType": "address",
          "name": "to",
          "type": "address"
        },
        {
          "internalType": "uint256",
          "name": "deadline",
          "type": "uint256"
        }
      ],
      "name": "swapExactTokensForTokensSupportingFeeOnTransferTokens",
      "outputs": [],
      "payable": false,
      "stateMutability": "nonpayable",
      "type": "function"
    },
    {
      "constant": false,
      "inputs": [
        {
          "internalType": "uint256",
          "name": "amountOutMin",
          "type": "uint256"
        },
        {
          "internalType": "address[]",
          "name": "path",
          "type": "address[]"
        },
        {
          "internalType": "address",
          "name": "to",
          "type": "address"
        },
        {
          "internalType": "uint256",
          "name": "deadline",
          "type": "uint256"
        }
      ],
      "name": "swapExactETHForTokensSupportingFeeOnTransferTokens",
      "outputs": [],
      "payable": true,
      "stateMutability": "payable",
      "type": "function"
    },
    {
      "constant": false,
      "inputs": [
        {
          "internalType": "uint256",
          "name": "amountIn",
          "type": "uint256"
        },
        {
          "internalType": "uint256",
          "name": "amountOutMin",
          "type": "uint256"
        },
        {
          "internalType": "address[]",
          "name": "path",
          "type": "address[]"
        },
        {
          "internalType": "address",
          "name": "to",
          "type": "address"
        },
        {
          "internalType": "uint256",
          "name": "deadline",
          "type": "uint256"
        }
      ],
      "name": "swapExactTokensForETHSupportingFeeOnTransferTokens",
      "outputs": [],
      "payable": false,
      "stateMutability": "nonpayable",
      "type": "function"
    },
    {
      "constant": true,
      "inputs": [
        {
          "internalType": "uint256",
          "name": "amountA",
          "type": "uint256"
        },
        {
          "internalType": "uint256",
          "name": "reserveA",
          "type": "uint256"
        },
        {
          "internalType": "uint256",
          "name": "reserveB",
          "type": "uint256"
        }
      ],
      "name": "quote",
      "outputs": [
        {
          "internalType": "uint256",
          "name": "amountB",
          "type": "uint256"
        }
      ],
      "payable": false,
      "stateMutability": "pure",
      "type": "function"
    },
    {
      "constant": true,
      "inputs": [
        {
          "internalType": "uint256",
          "name": "amountIn",
          "type": "uint256"
        },
        {
          "internalType": "uint256",
          "name": "reserveIn",
          "type": "uint256"
        },
        {
          "internalType": "uint256",
          "name": "reserveOut",
          "type": "uint256"
        }
      ],
      "name": "getAmountOut",
      "outputs": [
        {
          "internalType": "uint256",
          "name": "amountOut",
          "type": "uint256"
        }
      ],
      "payable": false,
      "stateMutability": "pure",
      "type": "function"
    },
    {
      "constant": true,
      "inputs": [
        {
          "internalType": "uint256",
          "name": "amountOut",
          "type": "uint256"
        },
        {
          "internalType": "uint256",
          "name": "reserveIn",
          "type": "uint256"
        },
        {
          "internalType": "uint256",
          "name": "reserveOut",
          "type": "uint256"
        }
      ],
      "name": "getAmountIn",
      "outputs": [
        {
          "internalType": "uint256",
          "name": "amountIn",
          "type": "uint256"
        }
      ],
      "payable": false,
      "stateMutability": "pure",
      "type": "function"
    },
    {
      "constant": true,
      "inputs": [
        {
          "internalType": "uint256",
          "name": "amountIn",
          "type": "uint256"
        },
        {
          "internalType": "address[]",
          "name": "path",
          "type": "address[]"
        }
      ],
      "name": "getAmountsOut",
      "outputs": [
        {
          "internalType": "uint256[]",
          "name": "amounts",
          "type": "uint256[]"
        }
      ],
      "payable": false,
      "stateMutability": "view",
      "type": "function"
    },
    {
      "constant": true,
      "inputs": [
        {
          "internalType": "uint256",
          "name": "amountOut",
          "type": "uint256"
        },
        {
          "internalType": "address[]",
          "name": "path",
          "type": "address[]"
        }
      ],
      "name": "getAmountsIn",
      "outputs": [
        {
          "internalType": "uint256[]",
          "name": "amounts",
          "type": "uint256[]"
        }
      ],
      "payable": false,
      "stateMutability": "view",
      "type": "function"
    }
  ],
  "bytecode": "0x60806040523480156200001157600080fd5b506040516200668838038062006688833981810160405260608110156200003757600080fd5b81019080805190602001909291908051906020019092919080519060200190929190505050826000806101000a81548173ffffffffffffffffffffffffffffffffffffffff021916908373ffffffffffffffffffffffffffffffffffffffff16021790555081600160006101000a81548173ffffffffffffffffffffffffffffffffffffffff021916908373ffffffffffffffffffffffffffffffffffffffff1602179055508060028190555050505061659180620000f76000396000f3fe6080604052600436106101665760003560e01c806385f8c259116100d1578063baa2abde1161008a578063ded9382a11610064578063ded9382a14611162578063e8e3370014611244578063f305d7191461132a578063fb3bdb41146113d857610166565b8063baa2abde14610f13578063c45a015514610fe7578063d06ca61f1461103e57610166565b806385f8c25914610b835780638803dbee14610be6578063ad5c464814610cff578063ad615dec14610d56578063af2979eb14610db9578063b6f9de9514610e6657610166565b80634a25d94a116101235780634a25d94a146106da5780635855a25a146107f35780635b0d59841461081e5780635c11d795146108f9578063791ac947146109bd5780637ff36ab514610a8157610166565b806302751cec1461016b578063054d50d41461021f57806318cbafe5146102825780631f00ca741461039b5780632195995c146104bf57806338ed1739146105c1575b600080fd5b34801561017757600080fd5b50610202600480360360c081101561018e57600080fd5b81019080803573ffffffffffffffffffffffffffffffffffffffff169060200190929190803590602001909291908035906020019092919080359060200190929190803573ffffffffffffffffffffffffffffffffffffffff169060200190929190803590602001909291905050506114da565b604051808381526020018281526020019250505060405180910390f35b34801561022b57600080fd5b5061026c6004803603606081101561024257600080fd5b8101908080359060200190929190803590602001909291908035906020019092919050505061163b565b6040518082815260200191505060405180910390f35b34801561028e57600080fd5b50610344600480360360a08110156102a557600080fd5b810190808035906020019092919080359060200190929190803590602001906401000000008111156102d657600080fd5b8201836020820111156102e857600080fd5b8035906020019184602083028401116401000000008311171561030a57600080fd5b9091929391929390803573ffffffffffffffffffffffffffffffffffffffff16906020019092919080359060200190929190505050611651565b6040518080602001828103825283818151815260200191508051906020019060200280838360005b8381101561038757808201518184015260208101905061036c565b505050509050019250505060405180910390f35b3480156103a757600080fd5b50610468600480360360408110156103be57600080fd5b8101908080359060200190929190803590602001906401000000008111156103e557600080fd5b8201836020820111156103f757600080fd5b8035906020019184602083028401116401000000008311171561041957600080fd5b919080806020026020016040519081016040528093929190818152602001838360200280828437600081840152601f19601f820116905080830192505050505050509192919290505050611a82565b6040518080602001828103825283818151815260200191508051906020019060200280838360005b838110156104ab578082015181840152602081019050610490565b505050509050019250505060405180910390f35b3480156104cb57600080fd5b506105a460048036036101608110156104e357600080fd5b81019080803573ffffffffffffffffffffffffffffffffffffffff169060200190929190803573ffffffffffffffffffffffffffffffffffffffff169060200190929190803590602001909291908035906020019092919080359060200190929190803573ffffffffffffffffffffffffffffffffffffffff16906020019092919080359060200190929190803515159060200190929190803560ff1690602001909291908035906020019092919080359060200190929190505050611abb565b604051808381526020018281526020019250505060405180910390f35b3480156105cd57600080fd5b50610683600480360360a08110156105e457600080fd5b8101908080359060200190929190803590602001909291908035906020019064010000000081111561061557600080fd5b82018360208201111561062757600080fd5b8035906020019184602083028401116401000000008311171561064957600080fd5b9091929391929390803573ffffffffffffffffffffffffffffffffffffffff16906020019092919080359060200190929190505050611c44565b6040518080602001828103825283818151815260200191508051906020019060200280838360005b838110156106c65780820151818401526020810190506106ab565b505050509050019250505060405180910390f35b3480156106e657600080fd5b5061079c600480360360a08110156106fd57600080fd5b8101908080359060200190929190803590602001909291908035906020019064010000000081111561072e57600080fd5b82018360208201111561074057600080fd5b8035906020019184602083028401116401000000008311171561076257600080fd5b9091929391929390803573ffffffffffffffffffffffffffffffffffffffff16906020019092919080359060200190929190505050611ebf565b6040518080602001828103825283818151815260200191508051906020019060200280838360005b838110156107df5780820151818401526020810190506107c4565b505050509050019250505060405180910390f35b3480156107ff57600080fd5b506108086122ed565b6040518082815260200191505060405180910390f35b34801561082a57600080fd5b506108e3600480360361014081101561084257600080fd5b81019080803573ffffffffffffffffffffffffffffffffffffffff169060200190929190803590602001909291908035906020019092919080359060200190929190803573ffffffffffffffffffffffffffffffffffffffff16906020019092919080359060200190929190803515159060200190929190803560ff16906020019092919080359060200190929190803590602001909291905050506122f3565b6040518082815260200191505060405180910390f35b34801561090557600080fd5b506109bb600480360360a081101561091c57600080fd5b8101908080359060200190929190803590602001909291908035906020019064010000000081111561094d57600080fd5b82018360208201111561095f57600080fd5b8035906020019184602083028401116401000000008311171561098157600080fd5b9091929391929390803573ffffffffffffffffffffffffffffffffffffffff16906020019092919080359060200190929190505050612493565b005b3480156109c957600080fd5b50610a7f600480360360a08110156109e057600080fd5b81019080803590602001909291908035906020019092919080359060200190640100000000811115610a1157600080fd5b820183602082011115610a2357600080fd5b80359060200191846020830284011164010000000083111715610a4557600080fd5b9091929391929390803573ffffffffffffffffffffffffffffffffffffffff1690602001909291908035906020019092919050505061284e565b005b610b2c60048036036080811015610a9757600080fd5b810190808035906020019092919080359060200190640100000000811115610abe57600080fd5b820183602082011115610ad057600080fd5b80359060200191846020830284011164010000000083111715610af257600080fd5b9091929391929390803573ffffffffffffffffffffffffffffffffffffffff16906020019092919080359060200190929190505050612c8e565b6040518080602001828103825283818151815260200191508051906020019060200280838360005b83811015610b6f578082015181840152602081019050610b54565b505050509050019250505060405180910390f35b348015610b8f57600080fd5b50610bd060048036036060811015610ba657600080fd5b810190808035906020019092919080359060200190929190803590602001909291905050506130a9565b6040518082815260200191505060405180910390f35b348015610bf257600080fd5b50610ca8600480360360a0811015610c0957600080fd5b81019080803590602001909291908035906020019092919080359060200190640100000000811115610c3a57600080fd5b820183602082011115610c4c57600080fd5b80359060200191846020830284011164010000000083111715610c6e57600080fd5b9091929391929390803573ffffffffffffffffffffffffffffffffffffffff169060200190929190803590602001909291905050506130bf565b6040518080602001828103825283818151815260200191508051906020019060200280838360005b83811015610ceb578082015181840152602081019050610cd0565b505050509050019250505060405180910390f35b348015610d0b57600080fd5b50610d14613337565b604051808273ffffffffffffffffffffffffffffffffffffffff1673ffffffffffffffffffffffffffffffffffffffff16815260200191505060405180910390f35b348015610d6257600080fd5b50610da360048036036060811015610d7957600080fd5b8101908080359060200190929190803590602001909291908035906020019092919050505061335d565b6040518082815260200191505060405180910390f35b348015610dc557600080fd5b50610e50600480360360c0811015610ddc57600080fd5b81019080803573ffffffffffffffffffffffffffffffffffffffff169060200190929190803590602001909291908035906020019092919080359060200190929190803573ffffffffffffffffffffffffffffffffffffffff16906020019092919080359060200190929190505050613373565b6040518082815260200191505060405180910390f35b610f1160048036036080811015610e7c57600080fd5b810190808035906020019092919080359060200190640100000000811115610ea357600080fd5b820183602082011115610eb557600080fd5b80359060200191846020830284011164010000000083111715610ed757600080fd5b9091929391929390803573ffffffffffffffffffffffffffffffffffffffff16906020019092919080359060200190929190505050613587565b005b348015610f1f57600080fd5b50610fca600480360360e0811015610f3657600080fd5b81019080803573ffffffffffffffffffffffffffffffffffffffff169060200190929190803573ffffffffffffffffffffffffffffffffffffffff169060200190929190803590602001909291908035906020019092919080359060200190929190803573ffffffffffffffffffffffffffffffffffffffff16906020019092919080359060200190929190505050613ae8565b604051808381526020018281526020019250505060405180910390f35b348015610ff357600080fd5b50610ffc613e6d565b604051808273ffffffffffffffffffffffffffffffffffffffff1673ffffffffffffffffffffffffffffffffffffffff16815260200191505060405180910390f35b34801561104a57600080fd5b5061110b6004803603604081101561106157600080fd5b81019080803590602001909291908035906020019064010000000081111561108857600080fd5b82018360208201111561109a57600080fd5b803590602001918460208302840111640100000000831117156110bc57600080fd5b919080806020026020016040519081016040528093929190818152602001838360200280828437600081840152601f19601f820116905080830192505050505050509192919290505050613e92565b6040518080602001828103825283818151815260200191508051906020019060200280838360005b8381101561114e578082015181840152602081019050611133565b505050509050019250505060405180910390f35b34801561116e57600080fd5b50611227600480360361014081101561118657600080fd5b81019080803573ffffffffffffffffffffffffffffffffffffffff169060200190929190803590602001909291908035906020019092919080359060200190929190803573ffffffffffffffffffffffffffffffffffffffff16906020019092919080359060200190929190803515159060200190929190803560ff1690602001909291908035906020019092919080359060200190929190505050613ecb565b604051808381526020018281526020019250505060405180910390f35b34801561125057600080fd5b50611306600480360361010081101561126857600080fd5b81019080803573ffffffffffffffffffffffffffffffffffffffff169060200190929190803573ffffffffffffffffffffffffffffffffffffffff16906020019092919080359060200190929190803590602001909291908035906020019092919080359060200190929190803573ffffffffffffffffffffffffffffffffffffffff16906020019092919080359060200190929190505050614074565b60405180848152602001838152602001828152602001935050505060405180910390f35b6113b4600480360360c081101561134057600080fd5b81019080803573ffffffffffffffffffffffffffffffffffffffff169060200190929190803590602001909291908035906020019092919080359060200190929190803573ffffffffffffffffffffffffffffffffffffffff1690602001909291908035906020019092919050505061421d565b60405180848152602001838152602001828152602001935050505060405180910390f35b611483600480360360808110156113ee57600080fd5b81019080803590602001909291908035906020019064010000000081111561141557600080fd5b82018360208201111561142757600080fd5b8035906020019184602083028401116401000000008311171561144957600080fd5b9091929391929390803573ffffffffffffffffffffffffffffffffffffffff169060200190929190803590602001909291905050506144fb565b6040518080602001828103825283818151815260200191508051906020019060200280838360005b838110156114c65780820151818401526020810190506114ab565b505050509050019250505060405180910390f35b6000808242811015611554576040517f08c379a00000000000000000000000000000000000000000000000000000000081526004018080602001828103825260188152602001807f556e69737761705632526f757465723a2045585049524544000000000000000081525060200191505060405180910390fd5b61158589600160009054906101000a900473ffffffffffffffffffffffffffffffffffffffff168a8a8a308a613ae8565b8093508194505050611598898685614950565b600160009054906101000a900473ffffffffffffffffffffffffffffffffffffffff1673ffffffffffffffffffffffffffffffffffffffff16632e1a7d4d836040518263ffffffff1660e01b815260040180828152602001915050600060405180830381600087803b15801561160d57600080fd5b505af1158015611621573d6000803e3d6000fd5b5050505061162f8583614b2c565b50965096945050505050565b6000611648848484614b30565b90509392505050565b606081428110156116ca576040517f08c379a00000000000000000000000000000000000000000000000000000000081526004018080602001828103825260188152602001807f556e69737761705632526f757465723a2045585049524544000000000000000081525060200191505060405180910390fd5b600160009054906101000a900473ffffffffffffffffffffffffffffffffffffffff1673ffffffffffffffffffffffffffffffffffffffff1686866001898990500381811061171557fe5b9050602002013573ffffffffffffffffffffffffffffffffffffffff1673ffffffffffffffffffffffffffffffffffffffff16146117bb576040517f08c379a000000000000000000000000000000000000000000000000000000000815260040180806020018281038252601d8152602001807f556e69737761705632526f757465723a20494e56414c49445f5041544800000081525060200191505060405180910390fd5b61182b6000809054906101000a900473ffffffffffffffffffffffffffffffffffffffff1689888880806020026020016040519081016040528093929190818152602001838360200280828437600081840152601f19601f82011690508083019250505050505050600254614c60565b9150868260018451038151811061183e57fe5b6020026020010151101561189d576040517f08c379a000000000000000000000000000000000000000000000000000000000815260040180806020018281038252602b8152602001806164da602b913960400191505060405180910390fd5b611966868660008181106118ad57fe5b9050602002013573ffffffffffffffffffffffffffffffffffffffff163361194c6000809054906101000a900473ffffffffffffffffffffffffffffffffffffffff168a8a60008181106118fd57fe5b9050602002013573ffffffffffffffffffffffffffffffffffffffff168b8b600181811061192757fe5b9050602002013573ffffffffffffffffffffffffffffffffffffffff16600254614dc3565b8560008151811061195957fe5b6020026020010151614eff565b6119b282878780806020026020016040519081016040528093929190818152602001838360200280828437600081840152601f19601f8201169050808301925050505050505030615110565b600160009054906101000a900473ffffffffffffffffffffffffffffffffffffffff1673ffffffffffffffffffffffffffffffffffffffff16632e1a7d4d83600185510381518110611a0057fe5b60200260200101516040518263ffffffff1660e01b815260040180828152602001915050600060405180830381600087803b158015611a3e57600080fd5b505af1158015611a52573d6000803e3d6000fd5b50505050611a778483600185510381518110611a6a57fe5b6020026020010151614b2c565b509695505050505050565b6060611ab36000809054906101000a900473ffffffffffffffffffffffffffffffffffffffff1684846002546153ac565b905092915050565b6000806000611aef6000809054906101000a900473ffffffffffffffffffffffffffffffffffffffff168f8f600254614dc3565b9050600087611afe578c611b20565b7fffffffffffffffffffffffffffffffffffffffffffffffffffffffffffffffff5b90508173ffffffffffffffffffffffffffffffffffffffff1663d505accf3330848d8c8c8c6040518863ffffffff1660e01b8152600401808873ffffffffffffffffffffffffffffffffffffffff1673ffffffffffffffffffffffffffffffffffffffff1681526020018773ffffffffffffffffffffffffffffffffffffffff1673ffffffffffffffffffffffffffffffffffffffff1681526020018681526020018581526020018460ff1660ff168152602001838152602001828152602001975050505050505050600060405180830381600087803b158015611c0357600080fd5b505af1158015611c17573d6000803e3d6000fd5b50505050611c2a8f8f8f8f8f8f8f613ae8565b809450819550505050509b509b9950505050505050505050565b60608142811015611cbd576040517f08c379a00000000000000000000000000000000000000000000000000000000081526004018080602001828103825260188152602001807f556e69737761705632526f757465723a2045585049524544000000000000000081525060200191505060405180910390fd5b611d2d6000809054906101000a900473ffffffffffffffffffffffffffffffffffffffff1689888880806020026020016040519081016040528093929190818152602001838360200280828437600081840152601f19601f82011690508083019250505050505050600254614c60565b91508682600184510381518110611d4057fe5b60200260200101511015611d9f576040517f08c379a000000000000000000000000000000000000000000000000000000000815260040180806020018281038252602b8152602001806164da602b913960400191505060405180910390fd5b611e6886866000818110611daf57fe5b9050602002013573ffffffffffffffffffffffffffffffffffffffff1633611e4e6000809054906101000a900473ffffffffffffffffffffffffffffffffffffffff168a8a6000818110611dff57fe5b9050602002013573ffffffffffffffffffffffffffffffffffffffff168b8b6001818110611e2957fe5b9050602002013573ffffffffffffffffffffffffffffffffffffffff16600254614dc3565b85600081518110611e5b57fe5b6020026020010151614eff565b611eb482878780806020026020016040519081016040528093929190818152602001838360200280828437600081840152601f19601f8201169050808301925050505050505086615110565b509695505050505050565b60608142811015611f38576040517f08c379a00000000000000000000000000000000000000000000000000000000081526004018080602001828103825260188152602001807f556e69737761705632526f757465723a2045585049524544000000000000000081525060200191505060405180910390fd5b600160009054906101000a900473ffffffffffffffffffffffffffffffffffffffff1673ffffffffffffffffffffffffffffffffffffffff16868660018989905003818110611f8357fe5b9050602002013573ffffffffffffffffffffffffffffffffffffffff1673ffffffffffffffffffffffffffffffffffffffff1614612029576040517f08c379a000000000000000000000000000000000000000000000000000000000815260040180806020018281038252601d8152602001807f556e69737761705632526f757465723a20494e56414c49445f5041544800000081525060200191505060405180910390fd5b6120996000809054906101000a900473ffffffffffffffffffffffffffffffffffffffff1689888880806020026020016040519081016040528093929190818152602001838360200280828437600081840152601f19601f820116905080830192505050505050506002546153ac565b915086826000815181106120a957fe5b60200260200101511115612108576040517f08c379a000000000000000000000000000000000000000000000000000000000815260040180806020018281038252602781526020018061648d6027913960400191505060405180910390fd5b6121d18686600081811061211857fe5b9050602002013573ffffffffffffffffffffffffffffffffffffffff16336121b76000809054906101000a900473ffffffffffffffffffffffffffffffffffffffff168a8a600081811061216857fe5b9050602002013573ffffffffffffffffffffffffffffffffffffffff168b8b600181811061219257fe5b9050602002013573ffffffffffffffffffffffffffffffffffffffff16600254614dc3565b856000815181106121c457fe5b6020026020010151614eff565b61221d82878780806020026020016040519081016040528093929190818152602001838360200280828437600081840152601f19601f8201169050808301925050505050505030615110565b600160009054906101000a900473ffffffffffffffffffffffffffffffffffffffff1673ffffffffffffffffffffffffffffffffffffffff16632e1a7d4d8360018551038151811061226b57fe5b60200260200101516040518263ffffffff1660e01b815260040180828152602001915050600060405180830381600087803b1580156122a957600080fd5b505af11580156122bd573d6000803e3d6000fd5b505050506122e284836001855103815181106122d557fe5b6020026020010151614b2c565b509695505050505050565b60025481565b6000806123476000809054906101000a900473ffffffffffffffffffffffffffffffffffffffff168d600160009054906101000a900473ffffffffffffffffffffffffffffffffffffffff16600254614dc3565b9050600086612356578b612378565b7fffffffffffffffffffffffffffffffffffffffffffffffffffffffffffffffff5b90508173ffffffffffffffffffffffffffffffffffffffff1663d505accf3330848c8b8b8b6040518863ffffffff1660e01b8152600401808873ffffffffffffffffffffffffffffffffffffffff1673ffffffffffffffffffffffffffffffffffffffff1681526020018773ffffffffffffffffffffffffffffffffffffffff1673ffffffffffffffffffffffffffffffffffffffff1681526020018681526020018581526020018460ff1660ff168152602001838152602001828152602001975050505050505050600060405180830381600087803b15801561245b57600080fd5b505af115801561246f573d6000803e3d6000fd5b505050506124818d8d8d8d8d8d613373565b925050509a9950505050505050505050565b804281101561250a576040517f08c379a00000000000000000000000000000000000000000000000000000000081526004018080602001828103825260188152602001807f556e69737761705632526f757465723a2045585049524544000000000000000081525060200191505060405180910390fd5b6125bf8585600081811061251a57fe5b9050602002013573ffffffffffffffffffffffffffffffffffffffff16336125b96000809054906101000a900473ffffffffffffffffffffffffffffffffffffffff168989600081811061256a57fe5b9050602002013573ffffffffffffffffffffffffffffffffffffffff168a8a600181811061259457fe5b9050602002013573ffffffffffffffffffffffffffffffffffffffff16600254614dc3565b8a614eff565b60008585600188889050038181106125d357fe5b9050602002013573ffffffffffffffffffffffffffffffffffffffff1673ffffffffffffffffffffffffffffffffffffffff166370a08231856040518263ffffffff1660e01b8152600401808273ffffffffffffffffffffffffffffffffffffffff1673ffffffffffffffffffffffffffffffffffffffff16815260200191505060206040518083038186803b15801561266c57600080fd5b505afa158015612680573d6000803e3d6000fd5b505050506040513d602081101561269657600080fd5b810190808051906020019092919050505090506126f4868680806020026020016040519081016040528093929190818152602001838360200280828437600081840152601f19601f8201169050808301925050505050505085615517565b866127ed82888860018b8b90500381811061270b57fe5b9050602002013573ffffffffffffffffffffffffffffffffffffffff1673ffffffffffffffffffffffffffffffffffffffff166370a08231886040518263ffffffff1660e01b8152600401808273ffffffffffffffffffffffffffffffffffffffff1673ffffffffffffffffffffffffffffffffffffffff16815260200191505060206040518083038186803b1580156127a457600080fd5b505afa1580156127b8573d6000803e3d6000fd5b505050506040513d60208110156127ce57600080fd5b810190808051906020019092919050505061597f90919063ffffffff16565b1015612844576040517f08c379a000000000000000000000000000000000000000000000000000000000815260040180806020018281038252602b8152602001806164da602b913960400191505060405180910390fd5b5050505050505050565b80428110156128c5576040517f08c379a00000000000000000000000000000000000000000000000000000000081526004018080602001828103825260188152602001807f556e69737761705632526f757465723a2045585049524544000000000000000081525060200191505060405180910390fd5b600160009054906101000a900473ffffffffffffffffffffffffffffffffffffffff1673ffffffffffffffffffffffffffffffffffffffff1685856001888890500381811061291057fe5b9050602002013573ffffffffffffffffffffffffffffffffffffffff1673ffffffffffffffffffffffffffffffffffffffff16146129b6576040517f08c379a000000000000000000000000000000000000000000000000000000000815260040180806020018281038252601d8152602001807f556e69737761705632526f757465723a20494e56414c49445f5041544800000081525060200191505060405180910390fd5b612a6b858560008181106129c657fe5b9050602002013573ffffffffffffffffffffffffffffffffffffffff1633612a656000809054906101000a900473ffffffffffffffffffffffffffffffffffffffff1689896000818110612a1657fe5b9050602002013573ffffffffffffffffffffffffffffffffffffffff168a8a6001818110612a4057fe5b9050602002013573ffffffffffffffffffffffffffffffffffffffff16600254614dc3565b8a614eff565b612ab6858580806020026020016040519081016040528093929190818152602001838360200280828437600081840152601f19601f8201169050808301925050505050505030615517565b6000600160009054906101000a900473ffffffffffffffffffffffffffffffffffffffff1673ffffffffffffffffffffffffffffffffffffffff166370a08231306040518263ffffffff1660e01b8152600401808273ffffffffffffffffffffffffffffffffffffffff1673ffffffffffffffffffffffffffffffffffffffff16815260200191505060206040518083038186803b158015612b5757600080fd5b505afa158015612b6b573d6000803e3d6000fd5b505050506040513d6020811015612b8157600080fd5b8101908080519060200190929190505050905086811015612bed576040517f08c379a000000000000000000000000000000000000000000000000000000000815260040180806020018281038252602b8152602001806164da602b913960400191505060405180910390fd5b600160009054906101000a900473ffffffffffffffffffffffffffffffffffffffff1673ffffffffffffffffffffffffffffffffffffffff16632e1a7d4d826040518263ffffffff1660e01b815260040180828152602001915050600060405180830381600087803b158015612c6257600080fd5b505af1158015612c76573d6000803e3d6000fd5b50505050612c848482614b2c565b5050505050505050565b60608142811015612d07576040517f08c379a00000000000000000000000000000000000000000000000000000000081526004018080602001828103825260188152602001807f556e69737761705632526f757465723a2045585049524544000000000000000081525060200191505060405180910390fd5b600160009054906101000a900473ffffffffffffffffffffffffffffffffffffffff1673ffffffffffffffffffffffffffffffffffffffff1686866000818110612d4d57fe5b9050602002013573ffffffffffffffffffffffffffffffffffffffff1673ffffffffffffffffffffffffffffffffffffffff1614612df3576040517f08c379a000000000000000000000000000000000000000000000000000000000815260040180806020018281038252601d8152602001807f556e69737761705632526f757465723a20494e56414c49445f5041544800000081525060200191505060405180910390fd5b612e636000809054906101000a900473ffffffffffffffffffffffffffffffffffffffff1634888880806020026020016040519081016040528093929190818152602001838360200280828437600081840152601f19601f82011690508083019250505050505050600254614c60565b91508682600184510381518110612e7657fe5b60200260200101511015612ed5576040517f08c379a000000000000000000000000000000000000000000000000000000000815260040180806020018281038252602b8152602001806164da602b913960400191505060405180910390fd5b600160009054906101000a900473ffffffffffffffffffffffffffffffffffffffff1673ffffffffffffffffffffffffffffffffffffffff1663a9059cbb612f946000809054906101000a900473ffffffffffffffffffffffffffffffffffffffff1689896000818110612f4557fe5b9050602002013573ffffffffffffffffffffffffffffffffffffffff168a8a6001818110612f6f57fe5b9050602002013573ffffffffffffffffffffffffffffffffffffffff16600254614dc3565b84600081518110612fa157fe5b60200260200101516040518363ffffffff1660e01b8152600401808373ffffffffffffffffffffffffffffffffffffffff1673ffffffffffffffffffffffffffffffffffffffff16815260200182815260200192505050602060405180830381600087803b15801561301257600080fd5b505af1158015613026573d6000803e3d6000fd5b505050506040513d602081101561303c57600080fd5b810190808051906020019092919050505061305357fe5b61309f82878780806020026020016040519081016040528093929190818152602001838360200280828437600081840152601f19601f8201169050808301925050505050505086615110565b5095945050505050565b60006130b6848484615a02565b90509392505050565b60608142811015613138576040517f08c379a00000000000000000000000000000000000000000000000000000000081526004018080602001828103825260188152602001807f556e69737761705632526f757465723a2045585049524544000000000000000081525060200191505060405180910390fd5b6131a86000809054906101000a900473ffffffffffffffffffffffffffffffffffffffff1689888880806020026020016040519081016040528093929190818152602001838360200280828437600081840152601f19601f820116905080830192505050505050506002546153ac565b915086826000815181106131b857fe5b60200260200101511115613217576040517f08c379a000000000000000000000000000000000000000000000000000000000815260040180806020018281038252602781526020018061648d6027913960400191505060405180910390fd5b6132e08686600081811061322757fe5b9050602002013573ffffffffffffffffffffffffffffffffffffffff16336132c66000809054906101000a900473ffffffffffffffffffffffffffffffffffffffff168a8a600081811061327757fe5b9050602002013573ffffffffffffffffffffffffffffffffffffffff168b8b60018181106132a157fe5b9050602002013573ffffffffffffffffffffffffffffffffffffffff16600254614dc3565b856000815181106132d357fe5b6020026020010151614eff565b61332c82878780806020026020016040519081016040528093929190818152602001838360200280828437600081840152601f19601f8201169050808301925050505050505086615110565b509695505050505050565b600160009054906101000a900473ffffffffffffffffffffffffffffffffffffffff1681565b600061336a848484615b3f565b90509392505050565b600081428110156133ec576040517f08c379a00000000000000000000000000000000000000000000000000000000081526004018080602001828103825260188152602001807f556e69737761705632526f757465723a2045585049524544000000000000000081525060200191505060405180910390fd5b61341d88600160009054906101000a900473ffffffffffffffffffffffffffffffffffffffff168989893089613ae8565b9050809250506134e588858a73ffffffffffffffffffffffffffffffffffffffff166370a08231306040518263ffffffff1660e01b8152600401808273ffffffffffffffffffffffffffffffffffffffff1673ffffffffffffffffffffffffffffffffffffffff16815260200191505060206040518083038186803b1580156134a557600080fd5b505afa1580156134b9573d6000803e3d6000fd5b505050506040513d60208110156134cf57600080fd5b8101908080519060200190929190505050614950565b600160009054906101000a900473ffffffffffffffffffffffffffffffffffffffff1673ffffffffffffffffffffffffffffffffffffffff16632e1a7d4d836040518263ffffffff1660e01b815260040180828152602001915050600060405180830381600087803b15801561355a57600080fd5b505af115801561356e573d6000803e3d6000fd5b5050505061357c8483614b2c565b509695505050505050565b80428110156135fe576040517f08c379a00000000000000000000000000000000000000000000000000000000081526004018080602001828103825260188152602001807f556e69737761705632526f757465723a2045585049524544000000000000000081525060200191505060405180910390fd5b600160009054906101000a900473ffffffffffffffffffffffffffffffffffffffff1673ffffffffffffffffffffffffffffffffffffffff168585600081811061364457fe5b9050602002013573ffffffffffffffffffffffffffffffffffffffff1673ffffffffffffffffffffffffffffffffffffffff16146136ea576040517f08c379a000000000000000000000000000000000000000000000000000000000815260040180806020018281038252601d8152602001807f556e69737761705632526f757465723a20494e56414c49445f5041544800000081525060200191505060405180910390fd5b6000349050600160009054906101000a900473ffffffffffffffffffffffffffffffffffffffff1673ffffffffffffffffffffffffffffffffffffffff1663a9059cbb6137ae6000809054906101000a900473ffffffffffffffffffffffffffffffffffffffff168989600081811061375f57fe5b9050602002013573ffffffffffffffffffffffffffffffffffffffff168a8a600181811061378957fe5b9050602002013573ffffffffffffffffffffffffffffffffffffffff16600254614dc3565b836040518363ffffffff1660e01b8152600401808373ffffffffffffffffffffffffffffffffffffffff1673ffffffffffffffffffffffffffffffffffffffff16815260200182815260200192505050602060405180830381600087803b15801561381857600080fd5b505af115801561382c573d6000803e3d6000fd5b505050506040513d602081101561384257600080fd5b810190808051906020019092919050505061385957fe5b600086866001898990500381811061386d57fe5b9050602002013573ffffffffffffffffffffffffffffffffffffffff1673ffffffffffffffffffffffffffffffffffffffff166370a08231866040518263ffffffff1660e01b8152600401808273ffffffffffffffffffffffffffffffffffffffff1673ffffffffffffffffffffffffffffffffffffffff16815260200191505060206040518083038186803b15801561390657600080fd5b505afa15801561391a573d6000803e3d6000fd5b505050506040513d602081101561393057600080fd5b8101908080519060200190929190505050905061398e878780806020026020016040519081016040528093929190818152602001838360200280828437600081840152601f19601f8201169050808301925050505050505086615517565b87613a8782898960018c8c9050038181106139a557fe5b9050602002013573ffffffffffffffffffffffffffffffffffffffff1673ffffffffffffffffffffffffffffffffffffffff166370a08231896040518263ffffffff1660e01b8152600401808273ffffffffffffffffffffffffffffffffffffffff1673ffffffffffffffffffffffffffffffffffffffff16815260200191505060206040518083038186803b158015613a3e57600080fd5b505afa158015613a52573d6000803e3d6000fd5b505050506040513d6020811015613a6857600080fd5b810190808051906020019092919050505061597f90919063ffffffff16565b1015613ade576040517f08c379a000000000000000000000000000000000000000000000000000000000815260040180806020018281038252602b8152602001806164da602b913960400191505060405180910390fd5b5050505050505050565b6000808242811015613b62576040517f08c379a00000000000000000000000000000000000000000000000000000000081526004018080602001828103825260188152602001807f556e69737761705632526f757465723a2045585049524544000000000000000081525060200191505060405180910390fd5b6000613b936000809054906101000a900473ffffffffffffffffffffffffffffffffffffffff168c8c600254614dc3565b90508073ffffffffffffffffffffffffffffffffffffffff166323b872dd33838c6040518463ffffffff1660e01b8152600401808473ffffffffffffffffffffffffffffffffffffffff1673ffffffffffffffffffffffffffffffffffffffff1681526020018373ffffffffffffffffffffffffffffffffffffffff1673ffffffffffffffffffffffffffffffffffffffff1681526020018281526020019350505050602060405180830381600087803b158015613c5057600080fd5b505af1158015613c64573d6000803e3d6000fd5b505050506040513d6020811015613c7a57600080fd5b8101908080519060200190929190505050506000808273ffffffffffffffffffffffffffffffffffffffff166389afcb44896040518263ffffffff1660e01b8152600401808273ffffffffffffffffffffffffffffffffffffffff1673ffffffffffffffffffffffffffffffffffffffff1681526020019150506040805180830381600087803b158015613d0d57600080fd5b505af1158015613d21573d6000803e3d6000fd5b505050506040513d6040811015613d3757600080fd5b810190808051906020019092919080519060200190929190505050915091506000613d628e8e615c23565b5090508073ffffffffffffffffffffffffffffffffffffffff168e73ffffffffffffffffffffffffffffffffffffffff1614613d9f578183613da2565b82825b80975081985050508a871015613e03576040517f08c379a00000000000000000000000000000000000000000000000000000000081526004018080602001828103825260268152602001806164b46026913960400191505060405180910390fd5b89861015613e5c576040517f08c379a000000000000000000000000000000000000000000000000000000000815260040180806020018281038252602681526020018061641a6026913960400191505060405180910390fd5b505050505097509795505050505050565b6000809054906101000a900473ffffffffffffffffffffffffffffffffffffffff1681565b6060613ec36000809054906101000a900473ffffffffffffffffffffffffffffffffffffffff168484600254614c60565b905092915050565b6000806000613f216000809054906101000a900473ffffffffffffffffffffffffffffffffffffffff168e600160009054906101000a900473ffffffffffffffffffffffffffffffffffffffff16600254614dc3565b9050600087613f30578c613f52565b7fffffffffffffffffffffffffffffffffffffffffffffffffffffffffffffffff5b90508173ffffffffffffffffffffffffffffffffffffffff1663d505accf3330848d8c8c8c6040518863ffffffff1660e01b8152600401808873ffffffffffffffffffffffffffffffffffffffff1673ffffffffffffffffffffffffffffffffffffffff1681526020018773ffffffffffffffffffffffffffffffffffffffff1673ffffffffffffffffffffffffffffffffffffffff1681526020018681526020018581526020018460ff1660ff168152602001838152602001828152602001975050505050505050600060405180830381600087803b15801561403557600080fd5b505af1158015614049573d6000803e3d6000fd5b5050505061405b8e8e8e8e8e8e6114da565b809450819550505050509a509a98505050505050505050565b600080600083428110156140f0576040517f08c379a00000000000000000000000000000000000000000000000000000000081526004018080602001828103825260188152602001807f556e69737761705632526f757465723a2045585049524544000000000000000081525060200191505060405180910390fd5b6140fe8c8c8c8c8c8c615d9a565b809450819550505060006141376000809054906101000a900473ffffffffffffffffffffffffffffffffffffffff168e8e600254614dc3565b90506141458d338388614eff565b6141518c338387614eff565b8073ffffffffffffffffffffffffffffffffffffffff16636a627842886040518263ffffffff1660e01b8152600401808273ffffffffffffffffffffffffffffffffffffffff1673ffffffffffffffffffffffffffffffffffffffff168152602001915050602060405180830381600087803b1580156141d057600080fd5b505af11580156141e4573d6000803e3d6000fd5b505050506040513d60208110156141fa57600080fd5b810190808051906020019092919050505092505050985098509895505050505050565b60008060008342811015614299576040517f08c379a00000000000000000000000000000000000000000000000000000000081526004018080602001828103825260188152602001807f556e69737761705632526f757465723a2045585049524544000000000000000081525060200191505060405180910390fd5b6142c98a600160009054906101000a900473ffffffffffffffffffffffffffffffffffffffff168b348c8c615d9a565b809450819550505060006143246000809054906101000a900473ffffffffffffffffffffffffffffffffffffffff168c600160009054906101000a900473ffffffffffffffffffffffffffffffffffffffff16600254614dc3565b90506143328b338388614eff565b600160009054906101000a900473ffffffffffffffffffffffffffffffffffffffff1673ffffffffffffffffffffffffffffffffffffffff1663a9059cbb82866040518363ffffffff1660e01b8152600401808373ffffffffffffffffffffffffffffffffffffffff1673ffffffffffffffffffffffffffffffffffffffff16815260200182815260200192505050602060405180830381600087803b1580156143db57600080fd5b505af11580156143ef573d6000803e3d6000fd5b505050506040513d602081101561440557600080fd5b810190808051906020019092919050505061441c57fe5b8073ffffffffffffffffffffffffffffffffffffffff16636a627842886040518263ffffffff1660e01b8152600401808273ffffffffffffffffffffffffffffffffffffffff1673ffffffffffffffffffffffffffffffffffffffff168152602001915050602060405180830381600087803b15801561449b57600080fd5b505af11580156144af573d6000803e3d6000fd5b505050506040513d60208110156144c557600080fd5b81019080805190602001909291905050509250833411156144ed576144ec33853403614b2c565b5b505096509650969350505050565b60608142811015614574576040517f08c379a00000000000000000000000000000000000000000000000000000000081526004018080602001828103825260188152602001807f556e69737761705632526f757465723a2045585049524544000000000000000081525060200191505060405180910390fd5b600160009054906101000a900473ffffffffffffffffffffffffffffffffffffffff1673ffffffffffffffffffffffffffffffffffffffff16868660008181106145ba57fe5b9050602002013573ffffffffffffffffffffffffffffffffffffffff1673ffffffffffffffffffffffffffffffffffffffff1614614660576040517f08c379a000000000000000000000000000000000000000000000000000000000815260040180806020018281038252601d8152602001807f556e69737761705632526f757465723a20494e56414c49445f5041544800000081525060200191505060405180910390fd5b6146d06000809054906101000a900473ffffffffffffffffffffffffffffffffffffffff1688888880806020026020016040519081016040528093929190818152602001838360200280828437600081840152601f19601f820116905080830192505050505050506002546153ac565b915034826000815181106146e057fe5b6020026020010151111561473f576040517f08c379a000000000000000000000000000000000000000000000000000000000815260040180806020018281038252602781526020018061648d6027913960400191505060405180910390fd5b600160009054906101000a900473ffffffffffffffffffffffffffffffffffffffff1673ffffffffffffffffffffffffffffffffffffffff1663a9059cbb6147fe6000809054906101000a900473ffffffffffffffffffffffffffffffffffffffff16898960008181106147af57fe5b9050602002013573ffffffffffffffffffffffffffffffffffffffff168a8a60018181106147d957fe5b9050602002013573ffffffffffffffffffffffffffffffffffffffff16600254614dc3565b8460008151811061480b57fe5b60200260200101516040518363ffffffff1660e01b8152600401808373ffffffffffffffffffffffffffffffffffffffff1673ffffffffffffffffffffffffffffffffffffffff16815260200182815260200192505050602060405180830381600087803b15801561487c57600080fd5b505af1158015614890573d6000803e3d6000fd5b505050506040513d60208110156148a657600080fd5b81019080805190602001909291905050506148bd57fe5b61490982878780806020026020016040519081016040528093929190818152602001838360200280828437600081840152601f19601f8201169050808301925050505050505086615110565b8160008151811061491657fe5b602002602001015134111561494657614945338360008151811061493657fe5b60200260200101513403614b2c565b5b5095945050505050565b600060608473ffffffffffffffffffffffffffffffffffffffff1663a9059cbb8585604051602401808373ffffffffffffffffffffffffffffffffffffffff1673ffffffffffffffffffffffffffffffffffffffff168152602001828152602001925050506040516020818303038152906040529060e01b6020820180517bffffffffffffffffffffffffffffffffffffffffffffffffffffffff83818316178352505050506040518082805190602001908083835b60208310614a295780518252602082019150602081019050602083039250614a06565b6001836020036101000a0380198251168184511680821785525050505050509050019150506000604051808303816000865af19150503d8060008114614a8b576040519150601f19603f3d011682016040523d82523d6000602084013e614a90565b606091505b5091509150818015614ad05750600081511480614acf5750808060200190516020811015614abd57600080fd5b81019080805190602001909291905050505b5b614b25576040517f08c379a000000000000000000000000000000000000000000000000000000000815260040180806020018281038252602d815260200180616505602d913960400191505060405180910390fd5b5050505050565b5050565b6000808411614b8a576040517f08c379a000000000000000000000000000000000000000000000000000000000815260040180806020018281038252602b815260200180616532602b913960400191505060405180910390fd5b600083118015614b9a5750600082115b614bef576040517f08c379a00000000000000000000000000000000000000000000000000000000081526004018080602001828103825260288152602001806164406028913960400191505060405180910390fd5b6000614c066103e58661615490919063ffffffff16565b90506000614c1d848361615490919063ffffffff16565b90506000614c4883614c3a6103e88961615490919063ffffffff16565b6161e990919063ffffffff16565b9050808281614c5357fe5b0493505050509392505050565b6060600283511015614cda576040517f08c379a000000000000000000000000000000000000000000000000000000000815260040180806020018281038252601e8152602001807f556e697377617056324c6962726172793a20494e56414c49445f50415448000081525060200191505060405180910390fd5b8251604051908082528060200260200182016040528015614d0a5781602001602082028038833980820191505090505b5090508381600081518110614d1b57fe5b60200260200101818152505060005b6001845103811015614dba57600080614d6e88878581518110614d4957fe5b6020026020010151886001870181518110614d6057fe5b60200260200101518861626c565b91509150614d90848481518110614d8157fe5b60200260200101518383614b30565b846001850181518110614d9f57fe5b60200260200101818152505050508080600101915050614d2a565b50949350505050565b6000806000614dd28686615c23565b91509150868282604051602001808373ffffffffffffffffffffffffffffffffffffffff1673ffffffffffffffffffffffffffffffffffffffff1660601b81526014018273ffffffffffffffffffffffffffffffffffffffff1673ffffffffffffffffffffffffffffffffffffffff1660601b815260140192505050604051602081830303815290604052805190602001208560405160200180807fff000000000000000000000000000000000000000000000000000000000000008152506001018473ffffffffffffffffffffffffffffffffffffffff1673ffffffffffffffffffffffffffffffffffffffff1660601b815260140183815260200182815260200193505050506040516020818303038152906040528051906020012060001c92505050949350505050565b600060608573ffffffffffffffffffffffffffffffffffffffff166323b872dd868686604051602401808473ffffffffffffffffffffffffffffffffffffffff1673ffffffffffffffffffffffffffffffffffffffff1681526020018373ffffffffffffffffffffffffffffffffffffffff1673ffffffffffffffffffffffffffffffffffffffff16815260200182815260200193505050506040516020818303038152906040529060e01b6020820180517bffffffffffffffffffffffffffffffffffffffffffffffffffffffff83818316178352505050506040518082805190602001908083835b6020831061500c5780518252602082019150602081019050602083039250614fe9565b6001836020036101000a0380198251168184511680821785525050505050509050019150506000604051808303816000865af19150503d806000811461506e576040519150601f19603f3d011682016040523d82523d6000602084013e615073565b606091505b50915091508180156150b357506000815114806150b257508080602001905160208110156150a057600080fd5b81019080805190602001909291905050505b5b615108576040517f08c379a00000000000000000000000000000000000000000000000000000000081526004018080602001828103825260318152602001806163c46031913960400191505060405180910390fd5b505050505050565b60005b60018351038110156153a65760008084838151811061512e57fe5b602002602001015185600185018151811061514557fe5b602002602001015191509150600061515d8383615c23565b509050600087600186018151811061517157fe5b602002602001015190506000808373ffffffffffffffffffffffffffffffffffffffff168673ffffffffffffffffffffffffffffffffffffffff16146151b9578260006151bd565b6000835b91509150600060028a510388106151d4578861521a565b6152196000809054906101000a900473ffffffffffffffffffffffffffffffffffffffff16878c60028c018151811061520957fe5b6020026020010151600254614dc3565b5b905061524b6000809054906101000a900473ffffffffffffffffffffffffffffffffffffffff168888600254614dc3565b73ffffffffffffffffffffffffffffffffffffffff1663022c0d9f84848460006040519080825280601f01601f19166020018201604052801561529d5781602001600182028038833980820191505090505b506040518563ffffffff1660e01b8152600401808581526020018481526020018373ffffffffffffffffffffffffffffffffffffffff1673ffffffffffffffffffffffffffffffffffffffff16815260200180602001828103825283818151815260200191508051906020019080838360005b8381101561532b578082015181840152602081019050615310565b50505050905090810190601f1680156153585780820380516001836020036101000a031916815260200191505b5095505050505050600060405180830381600087803b15801561537a57600080fd5b505af115801561538e573d6000803e3d6000fd5b50505050505050505050508080600101915050615113565b50505050565b6060600283511015615426576040517f08c379a000000000000000000000000000000000000000000000000000000000815260040180806020018281038252601e8152602001807f556e697377617056324c6962726172793a20494e56414c49445f50415448000081525060200191505060405180910390fd5b82516040519080825280602002602001820160405280156154565781602001602082028038833980820191505090505b509050838160018351038151811061546a57fe5b6020026020010181815250506000600184510390505b600081111561550e576000806154c18887600186038151811061549f57fe5b60200260200101518886815181106154b357fe5b60200260200101518861626c565b915091506154e38484815181106154d457fe5b60200260200101518383615a02565b8460018503815181106154f257fe5b6020026020010181815250505050808060019003915050615480565b50949350505050565b60005b600183510381101561597a5760008084838151811061553557fe5b602002602001015185600185018151811061554c57fe5b60200260200101519150915060006155648383615c23565b50905060006155986000809054906101000a900473ffffffffffffffffffffffffffffffffffffffff168585600254614dc3565b90506000806000808473ffffffffffffffffffffffffffffffffffffffff16630902f1ac6040518163ffffffff1660e01b815260040160606040518083038186803b1580156155e657600080fd5b505afa1580156155fa573d6000803e3d6000fd5b505050506040513d606081101561561057600080fd5b81019080805190602001909291908051906020019092919080519060200190929190505050506dffffffffffffffffffffffffffff1691506dffffffffffffffffffffffffffff1691506000808773ffffffffffffffffffffffffffffffffffffffff168a73ffffffffffffffffffffffffffffffffffffffff161461569757828461569a565b83835b91509150615768828b73ffffffffffffffffffffffffffffffffffffffff166370a082318a6040518263ffffffff1660e01b8152600401808273ffffffffffffffffffffffffffffffffffffffff1673ffffffffffffffffffffffffffffffffffffffff16815260200191505060206040518083038186803b15801561571f57600080fd5b505afa158015615733573d6000803e3d6000fd5b505050506040513d602081101561574957600080fd5b810190808051906020019092919050505061597f90919063ffffffff16565b9550615775868383614b30565b9450505050506000808573ffffffffffffffffffffffffffffffffffffffff168873ffffffffffffffffffffffffffffffffffffffff16146157b9578260006157bd565b6000835b91509150600060028c51038a106157d4578a61581a565b6158196000809054906101000a900473ffffffffffffffffffffffffffffffffffffffff16898e60028e018151811061580957fe5b6020026020010151600254614dc3565b5b90508573ffffffffffffffffffffffffffffffffffffffff1663022c0d9f84848460006040519080825280601f01601f19166020018201604052801561586f5781602001600182028038833980820191505090505b506040518563ffffffff1660e01b8152600401808581526020018481526020018373ffffffffffffffffffffffffffffffffffffffff1673ffffffffffffffffffffffffffffffffffffffff16815260200180602001828103825283818151815260200191508051906020019080838360005b838110156158fd5780820151818401526020810190506158e2565b50505050905090810190601f16801561592a5780820380516001836020036101000a031916815260200191505b5095505050505050600060405180830381600087803b15801561594c57600080fd5b505af1158015615960573d6000803e3d6000fd5b50505050505050505050505050808060010191505061551a565b505050565b60008282840391508111156159fc576040517f08c379a00000000000000000000000000000000000000000000000000000000081526004018080602001828103825260158152602001807f64732d6d6174682d7375622d756e646572666c6f77000000000000000000000081525060200191505060405180910390fd5b92915050565b6000808411615a5c576040517f08c379a000000000000000000000000000000000000000000000000000000000815260040180806020018281038252602c815260200180616398602c913960400191505060405180910390fd5b600083118015615a6c5750600082115b615ac1576040517f08c379a00000000000000000000000000000000000000000000000000000000081526004018080602001828103825260288152602001806164406028913960400191505060405180910390fd5b6000615aea6103e8615adc878761615490919063ffffffff16565b61615490919063ffffffff16565b90506000615b156103e5615b07888761597f90919063ffffffff16565b61615490919063ffffffff16565b9050615b346001828481615b2557fe5b046161e990919063ffffffff16565b925050509392505050565b6000808411615b99576040517f08c379a00000000000000000000000000000000000000000000000000000000081526004018080602001828103825260258152602001806164686025913960400191505060405180910390fd5b600083118015615ba95750600082115b615bfe576040517f08c379a00000000000000000000000000000000000000000000000000000000081526004018080602001828103825260288152602001806164406028913960400191505060405180910390fd5b82615c12838661615490919063ffffffff16565b81615c1957fe5b0490509392505050565b6000808273ffffffffffffffffffffffffffffffffffffffff168473ffffffffffffffffffffffffffffffffffffffff161415615cab576040517f08c379a00000000000000000000000000000000000000000000000000000000081526004018080602001828103825260258152602001806163f56025913960400191505060405180910390fd5b8273ffffffffffffffffffffffffffffffffffffffff168473ffffffffffffffffffffffffffffffffffffffff1610615ce5578284615ce8565b83835b8092508193505050600073ffffffffffffffffffffffffffffffffffffffff168273ffffffffffffffffffffffffffffffffffffffff161415615d93576040517f08c379a000000000000000000000000000000000000000000000000000000000815260040180806020018281038252601e8152602001807f556e697377617056324c6962726172793a205a45524f5f41444452455353000081525060200191505060405180910390fd5b9250929050565b600080600073ffffffffffffffffffffffffffffffffffffffff166000809054906101000a900473ffffffffffffffffffffffffffffffffffffffff1673ffffffffffffffffffffffffffffffffffffffff1663e6a439058a8a6040518363ffffffff1660e01b8152600401808373ffffffffffffffffffffffffffffffffffffffff1673ffffffffffffffffffffffffffffffffffffffff1681526020018273ffffffffffffffffffffffffffffffffffffffff1673ffffffffffffffffffffffffffffffffffffffff1681526020019250505060206040518083038186803b158015615e8757600080fd5b505afa158015615e9b573d6000803e3d6000fd5b505050506040513d6020811015615eb157600080fd5b810190808051906020019092919050505073ffffffffffffffffffffffffffffffffffffffff161415615fef576000809054906101000a900473ffffffffffffffffffffffffffffffffffffffff1673ffffffffffffffffffffffffffffffffffffffff1663c9c6539689896040518363ffffffff1660e01b8152600401808373ffffffffffffffffffffffffffffffffffffffff1673ffffffffffffffffffffffffffffffffffffffff1681526020018273ffffffffffffffffffffffffffffffffffffffff1673ffffffffffffffffffffffffffffffffffffffff16815260200192505050602060405180830381600087803b158015615fb257600080fd5b505af1158015615fc6573d6000803e3d6000fd5b505050506040513d6020811015615fdc57600080fd5b8101908080519060200190929190505050505b6000806160216000809054906101000a900473ffffffffffffffffffffffffffffffffffffffff168b8b60025461626c565b915091506000821480156160355750600081145b156160495787878094508195505050616147565b6000616056898484615b3f565b90508781116160c757858110156160b8576040517f08c379a000000000000000000000000000000000000000000000000000000000815260040180806020018281038252602681526020018061641a6026913960400191505060405180910390fd5b88818095508196505050616145565b60006160d4898486615b3f565b9050898111156160e057fe5b87811015616139576040517f08c379a00000000000000000000000000000000000000000000000000000000081526004018080602001828103825260268152602001806164b46026913960400191505060405180910390fd5b80898096508197505050505b505b5050965096945050505050565b600080821480616171575082828385029250828161616e57fe5b04145b6161e3576040517f08c379a00000000000000000000000000000000000000000000000000000000081526004018080602001828103825260148152602001807f64732d6d6174682d6d756c2d6f766572666c6f7700000000000000000000000081525060200191505060405180910390fd5b92915050565b6000828284019150811015616266576040517f08c379a00000000000000000000000000000000000000000000000000000000081526004018080602001828103825260148152602001807f64732d6d6174682d6164642d6f766572666c6f7700000000000000000000000081525060200191505060405180910390fd5b92915050565b600080600061627b8686615c23565b50905060008061628d89898989614dc3565b73ffffffffffffffffffffffffffffffffffffffff16630902f1ac6040518163ffffffff1660e01b815260040160606040518083038186803b1580156162d257600080fd5b505afa1580156162e6573d6000803e3d6000fd5b505050506040513d60608110156162fc57600080fd5b81019080805190602001909291908051906020019092919080519060200190929190505050506dffffffffffffffffffffffffffff1691506dffffffffffffffffffffffffffff1691508273ffffffffffffffffffffffffffffffffffffffff168873ffffffffffffffffffffffffffffffffffffffff1614616380578082616383565b81815b80955081965050505050509450949250505056fe556e697377617056324c6962726172793a20494e53554646494349454e545f4f55545055545f414d4f554e545472616e7366657248656c7065723a3a7472616e7366657246726f6d3a207472616e7366657246726f6d206661696c6564556e697377617056324c6962726172793a204944454e544943414c5f414444524553534553556e69737761705632526f757465723a20494e53554646494349454e545f425f414d4f554e54556e697377617056324c6962726172793a20494e53554646494349454e545f4c4951554944495459556e697377617056324c6962726172793a20494e53554646494349454e545f414d4f554e54556e69737761705632526f757465723a204558434553534956455f494e5055545f414d4f554e54556e69737761705632526f757465723a20494e53554646494349454e545f415f414d4f554e54556e69737761705632526f757465723a20494e53554646494349454e545f4f55545055545f414d4f554e545472616e7366657248656c7065723a3a736166655472616e736665723a207472616e73666572206661696c6564556e697377617056324c6962726172793a20494e53554646494349454e545f494e5055545f414d4f554e54a265627a7a723158205d6b6be30175c20614a6f0f03c20b43c93ef7a7068e5f17a624796912ed8e3e764736f6c634300050d0032",
  "source": "pragma solidity ^0.5.13;\n\n// Lines with line with a comment `CHANGED` was changed from original\n// implementation to make it compatible with Solidity 0.5.\n// As this is a mock, security is not a concern.\n\nimport \"../interfaces/IUniswapV2Factory.sol\";\nimport \".//libraries/TransferHelper.sol\";\n\nimport \"../interfaces/IUniswapV2Router02.sol\";\nimport \"./libraries/UniswapV2Library.sol\";\nimport \"./libraries/SafeMathUni.sol\";\nimport \"openzeppelin-solidity/contracts/token/ERC20/IERC20.sol\";\nimport \"../interfaces/IWETH.sol\";\n\ncontract MockUniswapV2Router02 is IUniswapV2Router02 {\n  using SafeMathUni for uint256;\n\n  address public factory; // CHANGED\n  address public WETH; // CHANGED\n\n  bytes32 public INIT_CODE_PAIR_HASH;\n\n  event Pair(address pair);\n  modifier ensure(uint256 deadline) {\n    require(deadline >= block.timestamp, \"UniswapV2Router: EXPIRED\");\n    _;\n  }\n\n  constructor(address _factory, address _WETH, bytes32 initCodePairHash) public {\n    factory = _factory;\n    WETH = _WETH;\n    INIT_CODE_PAIR_HASH = initCodePairHash;\n  }\n\n  // receive() external payable {\n  //     assert(msg.sender == WETH); // only accept ETH via fallback from the WETH contract\n  // }\n\n  // **** ADD LIQUIDITY ****\n  function _addLiquidity(\n    address tokenA,\n    address tokenB,\n    uint256 amountADesired,\n    uint256 amountBDesired,\n    uint256 amountAMin,\n    uint256 amountBMin\n  ) internal returns (uint256 amountA, uint256 amountB) {\n    // create the pair if it doesn't exist yet\n    if (IUniswapV2Factory(factory).getPair(tokenA, tokenB) == address(0)) {\n      IUniswapV2Factory(factory).createPair(tokenA, tokenB);\n    }\n    // emit Pair(UniswapV2Library.pairFor(factory, tokenA, tokenB)), INIT_CODE_PAIR_HASH;\n    // require(false, \"revert here\");\n    (amountA, amountA);\n    (uint256 reserveA, uint256 reserveB) = UniswapV2Library.getReserves(\n      factory,\n      tokenA,\n      tokenB,\n      INIT_CODE_PAIR_HASH\n    );\n    if (reserveA == 0 && reserveB == 0) {\n      (amountA, amountB) = (amountADesired, amountBDesired);\n    } else {\n      uint256 amountBOptimal = UniswapV2Library.quote(amountADesired, reserveA, reserveB);\n      if (amountBOptimal <= amountBDesired) {\n        require(amountBOptimal >= amountBMin, \"UniswapV2Router: INSUFFICIENT_B_AMOUNT\");\n        (amountA, amountB) = (amountADesired, amountBOptimal);\n      } else {\n        uint256 amountAOptimal = UniswapV2Library.quote(amountBDesired, reserveB, reserveA);\n        assert(amountAOptimal <= amountADesired);\n        require(amountAOptimal >= amountAMin, \"UniswapV2Router: INSUFFICIENT_A_AMOUNT\");\n        (amountA, amountB) = (amountAOptimal, amountBDesired);\n      }\n    }\n  }\n  function addLiquidity(\n    address tokenA,\n    address tokenB,\n    uint256 amountADesired,\n    uint256 amountBDesired,\n    uint256 amountAMin,\n    uint256 amountBMin,\n    address to,\n    uint256 deadline\n  ) external ensure(deadline) returns (uint256 amountA, uint256 amountB, uint256 liquidity) {\n    (amountA, amountB) = _addLiquidity(\n      tokenA,\n      tokenB,\n      amountADesired,\n      amountBDesired,\n      amountAMin,\n      amountBMin\n    );\n    // require(false, \"revert here\");\n    address pair = UniswapV2Library.pairFor(factory, tokenA, tokenB, INIT_CODE_PAIR_HASH);\n    TransferHelper.safeTransferFrom(tokenA, msg.sender, pair, amountA);\n    TransferHelper.safeTransferFrom(tokenB, msg.sender, pair, amountB);\n    liquidity = IUniswapV2Pair(pair).mint(to);\n  }\n  function addLiquidityETH(\n    address token,\n    uint256 amountTokenDesired,\n    uint256 amountTokenMin,\n    uint256 amountETHMin,\n    address to,\n    uint256 deadline\n  )\n    external\n    payable\n    ensure(deadline)\n    returns (uint256 amountToken, uint256 amountETH, uint256 liquidity)\n  {\n    (amountToken, amountETH) = _addLiquidity(\n      token,\n      WETH,\n      amountTokenDesired,\n      msg.value,\n      amountTokenMin,\n      amountETHMin\n    );\n    address pair = UniswapV2Library.pairFor(factory, token, WETH, INIT_CODE_PAIR_HASH);\n    TransferHelper.safeTransferFrom(token, msg.sender, pair, amountToken);\n    // IWETH(WETH).deposit{value: amountETH}(); // CHANGED\n    assert(IWETH(WETH).transfer(pair, amountETH));\n    liquidity = IUniswapV2Pair(pair).mint(to);\n    // refund dust eth, if any\n    if (msg.value > amountETH) TransferHelper.safeTransferETH(msg.sender, msg.value - amountETH);\n  }\n\n  // **** REMOVE LIQUIDITY ****\n  function removeLiquidity(\n    address tokenA,\n    address tokenB,\n    uint256 liquidity,\n    uint256 amountAMin,\n    uint256 amountBMin,\n    address to,\n    uint256 deadline\n  ) public ensure(deadline) returns (uint256 amountA, uint256 amountB) {\n    address pair = UniswapV2Library.pairFor(factory, tokenA, tokenB, INIT_CODE_PAIR_HASH);\n    IUniswapV2Pair(pair).transferFrom(msg.sender, pair, liquidity); // send liquidity to pair\n    (uint256 amount0, uint256 amount1) = IUniswapV2Pair(pair).burn(to);\n    (address token0, ) = UniswapV2Library.sortTokens(tokenA, tokenB);\n    (amountA, amountB) = tokenA == token0 ? (amount0, amount1) : (amount1, amount0);\n    require(amountA >= amountAMin, \"UniswapV2Router: INSUFFICIENT_A_AMOUNT\");\n    require(amountB >= amountBMin, \"UniswapV2Router: INSUFFICIENT_B_AMOUNT\");\n  }\n  function removeLiquidityETH(\n    address token,\n    uint256 liquidity,\n    uint256 amountTokenMin,\n    uint256 amountETHMin,\n    address to,\n    uint256 deadline\n  ) public ensure(deadline) returns (uint256 amountToken, uint256 amountETH) {\n    (amountToken, amountETH) = removeLiquidity(\n      token,\n      WETH,\n      liquidity,\n      amountTokenMin,\n      amountETHMin,\n      address(this),\n      deadline\n    );\n    TransferHelper.safeTransfer(token, to, amountToken);\n    IWETH(WETH).withdraw(amountETH);\n    TransferHelper.safeTransferETH(to, amountETH);\n  }\n  function removeLiquidityWithPermit(\n    address tokenA,\n    address tokenB,\n    uint256 liquidity,\n    uint256 amountAMin,\n    uint256 amountBMin,\n    address to,\n    uint256 deadline,\n    bool approveMax,\n    uint8 v,\n    bytes32 r,\n    bytes32 s\n  ) external returns (uint256 amountA, uint256 amountB) {\n    address pair = UniswapV2Library.pairFor(factory, tokenA, tokenB, INIT_CODE_PAIR_HASH);\n    uint256 value = approveMax ? uint256(-1) : liquidity;\n    IUniswapV2Pair(pair).permit(msg.sender, address(this), value, deadline, v, r, s);\n    (amountA, amountB) = removeLiquidity(\n      tokenA,\n      tokenB,\n      liquidity,\n      amountAMin,\n      amountBMin,\n      to,\n      deadline\n    );\n  }\n  function removeLiquidityETHWithPermit(\n    address token,\n    uint256 liquidity,\n    uint256 amountTokenMin,\n    uint256 amountETHMin,\n    address to,\n    uint256 deadline,\n    bool approveMax,\n    uint8 v,\n    bytes32 r,\n    bytes32 s\n  ) external returns (uint256 amountToken, uint256 amountETH) {\n    address pair = UniswapV2Library.pairFor(factory, token, WETH, INIT_CODE_PAIR_HASH);\n    uint256 value = approveMax ? uint256(-1) : liquidity;\n    IUniswapV2Pair(pair).permit(msg.sender, address(this), value, deadline, v, r, s);\n    (amountToken, amountETH) = removeLiquidityETH(\n      token,\n      liquidity,\n      amountTokenMin,\n      amountETHMin,\n      to,\n      deadline\n    );\n  }\n\n  // **** REMOVE LIQUIDITY (supporting fee-on-transfer tokens) ****\n  function removeLiquidityETHSupportingFeeOnTransferTokens(\n    address token,\n    uint256 liquidity,\n    uint256 amountTokenMin,\n    uint256 amountETHMin,\n    address to,\n    uint256 deadline\n  ) public ensure(deadline) returns (uint256 amountETH) {\n    (, amountETH) = removeLiquidity(\n      token,\n      WETH,\n      liquidity,\n      amountTokenMin,\n      amountETHMin,\n      address(this),\n      deadline\n    );\n    TransferHelper.safeTransfer(token, to, IERC20(token).balanceOf(address(this)));\n    IWETH(WETH).withdraw(amountETH);\n    TransferHelper.safeTransferETH(to, amountETH);\n  }\n  function removeLiquidityETHWithPermitSupportingFeeOnTransferTokens(\n    address token,\n    uint256 liquidity,\n    uint256 amountTokenMin,\n    uint256 amountETHMin,\n    address to,\n    uint256 deadline,\n    bool approveMax,\n    uint8 v,\n    bytes32 r,\n    bytes32 s\n  ) external returns (uint256 amountETH) {\n    address pair = UniswapV2Library.pairFor(factory, token, WETH, INIT_CODE_PAIR_HASH);\n    uint256 value = approveMax ? uint256(-1) : liquidity;\n    IUniswapV2Pair(pair).permit(msg.sender, address(this), value, deadline, v, r, s);\n    amountETH = removeLiquidityETHSupportingFeeOnTransferTokens(\n      token,\n      liquidity,\n      amountTokenMin,\n      amountETHMin,\n      to,\n      deadline\n    );\n  }\n\n  // **** SWAP ****\n  // requires the initial amount to have already been sent to the first pair\n  function _swap(uint256[] memory amounts, address[] memory path, address _to) internal {\n    for (uint256 i; i < path.length - 1; i++) {\n      (address input, address output) = (path[i], path[i + 1]);\n      (address token0, ) = UniswapV2Library.sortTokens(input, output);\n      uint256 amountOut = amounts[i + 1];\n      (uint256 amount0Out, uint256 amount1Out) = input == token0\n        ? (uint256(0), amountOut)\n        : (amountOut, uint256(0));\n      address to = i < path.length - 2\n        ? UniswapV2Library.pairFor(factory, output, path[i + 2], INIT_CODE_PAIR_HASH)\n        : _to;\n      IUniswapV2Pair(UniswapV2Library.pairFor(factory, input, output, INIT_CODE_PAIR_HASH)).swap(\n        amount0Out,\n        amount1Out,\n        to,\n        new bytes(0)\n      );\n    }\n  }\n  function swapExactTokensForTokens(\n    uint256 amountIn,\n    uint256 amountOutMin,\n    address[] calldata path,\n    address to,\n    uint256 deadline\n  ) external ensure(deadline) returns (uint256[] memory amounts) {\n    amounts = UniswapV2Library.getAmountsOut(factory, amountIn, path, INIT_CODE_PAIR_HASH);\n    require(\n      amounts[amounts.length - 1] >= amountOutMin,\n      \"UniswapV2Router: INSUFFICIENT_OUTPUT_AMOUNT\"\n    );\n    TransferHelper.safeTransferFrom(\n      path[0],\n      msg.sender,\n      UniswapV2Library.pairFor(factory, path[0], path[1], INIT_CODE_PAIR_HASH),\n      amounts[0]\n    );\n    _swap(amounts, path, to);\n  }\n  function swapTokensForExactTokens(\n    uint256 amountOut,\n    uint256 amountInMax,\n    address[] calldata path,\n    address to,\n    uint256 deadline\n  ) external ensure(deadline) returns (uint256[] memory amounts) {\n    amounts = UniswapV2Library.getAmountsIn(factory, amountOut, path, INIT_CODE_PAIR_HASH);\n    require(amounts[0] <= amountInMax, \"UniswapV2Router: EXCESSIVE_INPUT_AMOUNT\");\n    TransferHelper.safeTransferFrom(\n      path[0],\n      msg.sender,\n      UniswapV2Library.pairFor(factory, path[0], path[1], INIT_CODE_PAIR_HASH),\n      amounts[0]\n    );\n    _swap(amounts, path, to);\n  }\n  function swapExactETHForTokens(\n    uint256 amountOutMin,\n    address[] calldata path,\n    address to,\n    uint256 deadline\n  ) external payable ensure(deadline) returns (uint256[] memory amounts) {\n    require(path[0] == WETH, \"UniswapV2Router: INVALID_PATH\");\n    amounts = UniswapV2Library.getAmountsOut(factory, msg.value, path, INIT_CODE_PAIR_HASH);\n    require(\n      amounts[amounts.length - 1] >= amountOutMin,\n      \"UniswapV2Router: INSUFFICIENT_OUTPUT_AMOUNT\"\n    );\n    // IWETH(WETH).deposit{value: amounts[0]}(); // CHANGED\n    assert(\n      IWETH(WETH).transfer(\n        UniswapV2Library.pairFor(factory, path[0], path[1], INIT_CODE_PAIR_HASH),\n        amounts[0]\n      )\n    );\n    _swap(amounts, path, to);\n  }\n  function swapTokensForExactETH(\n    uint256 amountOut,\n    uint256 amountInMax,\n    address[] calldata path,\n    address to,\n    uint256 deadline\n  ) external ensure(deadline) returns (uint256[] memory amounts) {\n    require(path[path.length - 1] == WETH, \"UniswapV2Router: INVALID_PATH\");\n    amounts = UniswapV2Library.getAmountsIn(factory, amountOut, path, INIT_CODE_PAIR_HASH);\n    require(amounts[0] <= amountInMax, \"UniswapV2Router: EXCESSIVE_INPUT_AMOUNT\");\n    TransferHelper.safeTransferFrom(\n      path[0],\n      msg.sender,\n      UniswapV2Library.pairFor(factory, path[0], path[1], INIT_CODE_PAIR_HASH),\n      amounts[0]\n    );\n    _swap(amounts, path, address(this));\n    IWETH(WETH).withdraw(amounts[amounts.length - 1]);\n    TransferHelper.safeTransferETH(to, amounts[amounts.length - 1]);\n  }\n  function swapExactTokensForETH(\n    uint256 amountIn,\n    uint256 amountOutMin,\n    address[] calldata path,\n    address to,\n    uint256 deadline\n  ) external ensure(deadline) returns (uint256[] memory amounts) {\n    require(path[path.length - 1] == WETH, \"UniswapV2Router: INVALID_PATH\");\n    amounts = UniswapV2Library.getAmountsOut(factory, amountIn, path, INIT_CODE_PAIR_HASH);\n    require(\n      amounts[amounts.length - 1] >= amountOutMin,\n      \"UniswapV2Router: INSUFFICIENT_OUTPUT_AMOUNT\"\n    );\n    TransferHelper.safeTransferFrom(\n      path[0],\n      msg.sender,\n      UniswapV2Library.pairFor(factory, path[0], path[1], INIT_CODE_PAIR_HASH),\n      amounts[0]\n    );\n    _swap(amounts, path, address(this));\n    IWETH(WETH).withdraw(amounts[amounts.length - 1]);\n    TransferHelper.safeTransferETH(to, amounts[amounts.length - 1]);\n  }\n  function swapETHForExactTokens(\n    uint256 amountOut,\n    address[] calldata path,\n    address to,\n    uint256 deadline\n  ) external payable ensure(deadline) returns (uint256[] memory amounts) {\n    require(path[0] == WETH, \"UniswapV2Router: INVALID_PATH\");\n    amounts = UniswapV2Library.getAmountsIn(factory, amountOut, path, INIT_CODE_PAIR_HASH);\n    require(amounts[0] <= msg.value, \"UniswapV2Router: EXCESSIVE_INPUT_AMOUNT\");\n    // IWETH(WETH).deposit{value: amounts[0]}(); // CHANGED\n    assert(\n      IWETH(WETH).transfer(\n        UniswapV2Library.pairFor(factory, path[0], path[1], INIT_CODE_PAIR_HASH),\n        amounts[0]\n      )\n    );\n    _swap(amounts, path, to);\n    // refund dust eth, if any\n    if (msg.value > amounts[0]) TransferHelper.safeTransferETH(msg.sender, msg.value - amounts[0]);\n  }\n\n  // **** SWAP (supporting fee-on-transfer tokens) ****\n  // requires the initial amount to have already been sent to the first pair\n  function _swapSupportingFeeOnTransferTokens(address[] memory path, address _to) internal {\n    for (uint256 i; i < path.length - 1; i++) {\n      (address input, address output) = (path[i], path[i + 1]);\n      (address token0, ) = UniswapV2Library.sortTokens(input, output);\n      IUniswapV2Pair pair = IUniswapV2Pair(\n        UniswapV2Library.pairFor(factory, input, output, INIT_CODE_PAIR_HASH)\n      );\n      uint256 amountInput;\n      uint256 amountOutput;\n      {\n        // scope to avoid stack too deep errors\n        (uint256 reserve0, uint256 reserve1, ) = pair.getReserves();\n        (uint256 reserveInput, uint256 reserveOutput) = input == token0\n          ? (reserve0, reserve1)\n          : (reserve1, reserve0);\n        amountInput = IERC20(input).balanceOf(address(pair)).sub(reserveInput);\n        amountOutput = UniswapV2Library.getAmountOut(amountInput, reserveInput, reserveOutput);\n      }\n      (uint256 amount0Out, uint256 amount1Out) = input == token0\n        ? (uint256(0), amountOutput)\n        : (amountOutput, uint256(0));\n      address to = i < path.length - 2\n        ? UniswapV2Library.pairFor(factory, output, path[i + 2], INIT_CODE_PAIR_HASH)\n        : _to;\n      pair.swap(amount0Out, amount1Out, to, new bytes(0));\n    }\n  }\n  function swapExactTokensForTokensSupportingFeeOnTransferTokens(\n    uint256 amountIn,\n    uint256 amountOutMin,\n    address[] calldata path,\n    address to,\n    uint256 deadline\n  ) external ensure(deadline) {\n    TransferHelper.safeTransferFrom(\n      path[0],\n      msg.sender,\n      UniswapV2Library.pairFor(factory, path[0], path[1], INIT_CODE_PAIR_HASH),\n      amountIn\n    );\n    uint256 balanceBefore = IERC20(path[path.length - 1]).balanceOf(to);\n    _swapSupportingFeeOnTransferTokens(path, to);\n    require(\n      IERC20(path[path.length - 1]).balanceOf(to).sub(balanceBefore) >= amountOutMin,\n      \"UniswapV2Router: INSUFFICIENT_OUTPUT_AMOUNT\"\n    );\n  }\n  function swapExactETHForTokensSupportingFeeOnTransferTokens(\n    uint256 amountOutMin,\n    address[] calldata path,\n    address to,\n    uint256 deadline\n  ) external payable ensure(deadline) {\n    require(path[0] == WETH, \"UniswapV2Router: INVALID_PATH\");\n    uint256 amountIn = msg.value;\n    // IWETH(WETH).deposit{value: amountIn}(); // CHANGED\n    assert(\n      IWETH(WETH).transfer(\n        UniswapV2Library.pairFor(factory, path[0], path[1], INIT_CODE_PAIR_HASH),\n        amountIn\n      )\n    );\n    uint256 balanceBefore = IERC20(path[path.length - 1]).balanceOf(to);\n    _swapSupportingFeeOnTransferTokens(path, to);\n    require(\n      IERC20(path[path.length - 1]).balanceOf(to).sub(balanceBefore) >= amountOutMin,\n      \"UniswapV2Router: INSUFFICIENT_OUTPUT_AMOUNT\"\n    );\n  }\n  function swapExactTokensForETHSupportingFeeOnTransferTokens(\n    uint256 amountIn,\n    uint256 amountOutMin,\n    address[] calldata path,\n    address to,\n    uint256 deadline\n  ) external ensure(deadline) {\n    require(path[path.length - 1] == WETH, \"UniswapV2Router: INVALID_PATH\");\n    TransferHelper.safeTransferFrom(\n      path[0],\n      msg.sender,\n      UniswapV2Library.pairFor(factory, path[0], path[1], INIT_CODE_PAIR_HASH),\n      amountIn\n    );\n    _swapSupportingFeeOnTransferTokens(path, address(this));\n    uint256 amountOut = IERC20(WETH).balanceOf(address(this));\n    require(amountOut >= amountOutMin, \"UniswapV2Router: INSUFFICIENT_OUTPUT_AMOUNT\");\n    IWETH(WETH).withdraw(amountOut);\n    TransferHelper.safeTransferETH(to, amountOut);\n  }\n\n  // **** LIBRARY FUNCTIONS ****\n  function quote(uint256 amountA, uint256 reserveA, uint256 reserveB)\n    public\n    pure\n    returns (uint256 amountB)\n  {\n    return UniswapV2Library.quote(amountA, reserveA, reserveB);\n  }\n\n  function getAmountOut(uint256 amountIn, uint256 reserveIn, uint256 reserveOut)\n    public\n    pure\n    returns (uint256 amountOut)\n  {\n    return UniswapV2Library.getAmountOut(amountIn, reserveIn, reserveOut);\n  }\n\n  function getAmountIn(uint256 amountOut, uint256 reserveIn, uint256 reserveOut)\n    public\n    pure\n    returns (uint256 amountIn)\n  {\n    return UniswapV2Library.getAmountIn(amountOut, reserveIn, reserveOut);\n  }\n\n  function getAmountsOut(uint256 amountIn, address[] memory path)\n    public\n    view\n    returns (uint256[] memory amounts)\n  {\n    return UniswapV2Library.getAmountsOut(factory, amountIn, path, INIT_CODE_PAIR_HASH);\n  }\n\n  function getAmountsIn(uint256 amountOut, address[] memory path)\n    public\n    view\n    returns (uint256[] memory amounts)\n  {\n    return UniswapV2Library.getAmountsIn(factory, amountOut, path, INIT_CODE_PAIR_HASH);\n  }\n}\n",
  "sourcePath": "/Users/beaver/Development/celo/celo-monorepo/packages/protocol/contracts/uniswap/test/MockUniswapV2Router02.sol",
  "compiler": {
    "name": "solc",
    "version": "0.5.13+commit.5b0b510c.Emscripten.clang"
  },
  "schemaVersion": "3.4.13",
  "updatedAt": "2024-03-05T15:18:24.477Z",
  "devdoc": {
    "methods": {}
  },
  "userdoc": {
    "methods": {}
  }
}