{
  "contractName": "MockElection",
  "abi": [
    {
      "constant": true,
      "inputs": [
        {
          "internalType": "address",
          "name": "",
          "type": "address"
        }
      ],
      "name": "allowedToVoteOverMaxNumberOfGroups",
      "outputs": [
        {
          "internalType": "bool",
          "name": "",
          "type": "bool"
        }
      ],
      "payable": false,
      "stateMutability": "view",
      "type": "function"
    },
    {
      "constant": true,
      "inputs": [
        {
          "internalType": "uint256",
          "name": "",
          "type": "uint256"
        }
      ],
      "name": "electedValidators",
      "outputs": [
        {
          "internalType": "address",
          "name": "",
          "type": "address"
        }
      ],
      "payable": false,
      "stateMutability": "view",
      "type": "function"
    },
    {
      "constant": true,
      "inputs": [
        {
          "internalType": "address",
          "name": "",
          "type": "address"
        }
      ],
      "name": "isEligible",
      "outputs": [
        {
          "internalType": "bool",
          "name": "",
          "type": "bool"
        }
      ],
      "payable": false,
      "stateMutability": "view",
      "type": "function"
    },
    {
      "constant": true,
      "inputs": [
        {
          "internalType": "address",
          "name": "",
          "type": "address"
        }
      ],
      "name": "isIneligible",
      "outputs": [
        {
          "internalType": "bool",
          "name": "",
          "type": "bool"
        }
      ],
      "payable": false,
      "stateMutability": "view",
      "type": "function"
    },
    {
      "constant": false,
      "inputs": [
        {
          "internalType": "address",
          "name": "account",
          "type": "address"
        }
      ],
      "name": "markGroupIneligible",
      "outputs": [],
      "payable": false,
      "stateMutability": "nonpayable",
      "type": "function"
    },
    {
      "constant": false,
      "inputs": [
        {
          "internalType": "address",
          "name": "account",
          "type": "address"
        },
        {
          "internalType": "address",
          "name": "",
          "type": "address"
        },
        {
          "internalType": "address",
          "name": "",
          "type": "address"
        }
      ],
      "name": "markGroupEligible",
      "outputs": [],
      "payable": false,
      "stateMutability": "nonpayable",
      "type": "function"
    },
    {
      "constant": true,
      "inputs": [],
      "name": "getTotalVotes",
      "outputs": [
        {
          "internalType": "uint256",
          "name": "",
          "type": "uint256"
        }
      ],
      "payable": false,
      "stateMutability": "view",
      "type": "function"
    },
    {
      "constant": true,
      "inputs": [],
      "name": "getActiveVotes",
      "outputs": [
        {
          "internalType": "uint256",
          "name": "",
          "type": "uint256"
        }
      ],
      "payable": false,
      "stateMutability": "view",
      "type": "function"
    },
    {
      "constant": true,
      "inputs": [
        {
          "internalType": "address",
          "name": "",
          "type": "address"
        }
      ],
      "name": "getTotalVotesByAccount",
      "outputs": [
        {
          "internalType": "uint256",
          "name": "",
          "type": "uint256"
        }
      ],
      "payable": false,
      "stateMutability": "view",
      "type": "function"
    },
    {
      "constant": false,
      "inputs": [
        {
          "internalType": "uint256",
          "name": "value",
          "type": "uint256"
        }
      ],
      "name": "setActiveVotes",
      "outputs": [],
      "payable": false,
      "stateMutability": "nonpayable",
      "type": "function"
    },
    {
      "constant": false,
      "inputs": [
        {
          "internalType": "uint256",
          "name": "value",
          "type": "uint256"
        }
      ],
      "name": "setTotalVotes",
      "outputs": [],
      "payable": false,
      "stateMutability": "nonpayable",
      "type": "function"
    },
    {
      "constant": false,
      "inputs": [
        {
          "internalType": "address[]",
          "name": "_electedValidators",
          "type": "address[]"
        }
      ],
      "name": "setElectedValidators",
      "outputs": [],
      "payable": false,
      "stateMutability": "nonpayable",
      "type": "function"
    },
    {
      "constant": true,
      "inputs": [],
      "name": "electValidatorSigners",
      "outputs": [
        {
          "internalType": "address[]",
          "name": "",
          "type": "address[]"
        }
      ],
      "payable": false,
      "stateMutability": "view",
      "type": "function"
    },
    {
      "constant": false,
      "inputs": [
        {
          "internalType": "address",
          "name": "",
          "type": "address"
        },
        {
          "internalType": "uint256",
          "name": "",
          "type": "uint256"
        },
        {
          "internalType": "address",
          "name": "",
          "type": "address"
        },
        {
          "internalType": "address",
          "name": "",
          "type": "address"
        }
      ],
      "name": "vote",
      "outputs": [
        {
          "internalType": "bool",
          "name": "",
          "type": "bool"
        }
      ],
      "payable": false,
      "stateMutability": "nonpayable",
      "type": "function"
    },
    {
      "constant": false,
      "inputs": [
        {
          "internalType": "address",
          "name": "",
          "type": "address"
        }
      ],
      "name": "activate",
      "outputs": [
        {
          "internalType": "bool",
          "name": "",
          "type": "bool"
        }
      ],
      "payable": false,
      "stateMutability": "nonpayable",
      "type": "function"
    },
    {
      "constant": false,
      "inputs": [
        {
          "internalType": "address",
          "name": "",
          "type": "address"
        },
        {
          "internalType": "address",
          "name": "",
          "type": "address"
        },
        {
          "internalType": "address",
          "name": "",
          "type": "address"
        },
        {
          "internalType": "uint256",
          "name": "",
          "type": "uint256"
        }
      ],
      "name": "revokeAllActive",
      "outputs": [
        {
          "internalType": "bool",
          "name": "",
          "type": "bool"
        }
      ],
      "payable": false,
      "stateMutability": "nonpayable",
      "type": "function"
    },
    {
      "constant": false,
      "inputs": [
        {
          "internalType": "address",
          "name": "",
          "type": "address"
        },
        {
          "internalType": "uint256",
          "name": "",
          "type": "uint256"
        },
        {
          "internalType": "address",
          "name": "",
          "type": "address"
        },
        {
          "internalType": "address",
          "name": "",
          "type": "address"
        },
        {
          "internalType": "uint256",
          "name": "",
          "type": "uint256"
        }
      ],
      "name": "revokeActive",
      "outputs": [
        {
          "internalType": "bool",
          "name": "",
          "type": "bool"
        }
      ],
      "payable": false,
      "stateMutability": "nonpayable",
      "type": "function"
    },
    {
      "constant": false,
      "inputs": [
        {
          "internalType": "address",
          "name": "",
          "type": "address"
        },
        {
          "internalType": "uint256",
          "name": "",
          "type": "uint256"
        },
        {
          "internalType": "address",
          "name": "",
          "type": "address"
        },
        {
          "internalType": "address",
          "name": "",
          "type": "address"
        },
        {
          "internalType": "uint256",
          "name": "",
          "type": "uint256"
        }
      ],
      "name": "revokePending",
      "outputs": [
        {
          "internalType": "bool",
          "name": "",
          "type": "bool"
        }
      ],
      "payable": false,
      "stateMutability": "nonpayable",
      "type": "function"
    },
    {
      "constant": false,
      "inputs": [
        {
          "internalType": "address",
          "name": "account",
          "type": "address"
        },
        {
          "internalType": "bool",
          "name": "flag",
          "type": "bool"
        }
      ],
      "name": "setAllowedToVoteOverMaxNumberOfGroups",
      "outputs": [],
      "payable": false,
      "stateMutability": "nonpayable",
      "type": "function"
    },
    {
      "constant": false,
      "inputs": [
        {
          "internalType": "address",
          "name": "",
          "type": "address"
        },
        {
          "internalType": "uint256",
          "name": "value",
          "type": "uint256"
        },
        {
          "internalType": "address[]",
          "name": "",
          "type": "address[]"
        },
        {
          "internalType": "address[]",
          "name": "",
          "type": "address[]"
        },
        {
          "internalType": "uint256[]",
          "name": "",
          "type": "uint256[]"
        }
      ],
      "name": "forceDecrementVotes",
      "outputs": [
        {
          "internalType": "uint256",
          "name": "",
          "type": "uint256"
        }
      ],
      "payable": false,
      "stateMutability": "nonpayable",
      "type": "function"
    }
  ],
  "bytecode": "0x608060405234801561001057600080fd5b50610eda806100206000396000f3fe608060405234801561001057600080fd5b506004361061012c5760003560e01c80638ef01def116100ad578063adfe759911610071578063adfe7599146107d5578063b801cf7814610825578063bcbf308e14610881578063cb08c993146108fa578063e0a2ab52146109565761012c565b80638ef01def146104de5780639a0e7d661461063f5780639dfb60811461065d578063a18fb2db1461070d578063a8e45871146107915761012c565b80632d85246a116100f45780632d85246a14610266578063580d747a146102d457806366e305fd1461037a5780636c781a2c146103d65780636e1984751461042e5761012c565b806307bd88b3146101315780631c5a9d9c1461015f5780631c9c6636146101bb5780631f604243146101e95780632ba38e6914610207575b600080fd5b61015d6004803603602081101561014757600080fd5b81019080803590602001909291905050506109fc565b005b6101a16004803603602081101561017557600080fd5b81019080803573ffffffffffffffffffffffffffffffffffffffff169060200190929190505050610a06565b604051808215151515815260200191505060405180910390f35b6101e7600480360360208110156101d157600080fd5b8101908080359060200190929190505050610a11565b005b6101f1610a1b565b6040518082815260200191505060405180910390f35b61020f610a25565b6040518080602001828103825283818151815260200191508051906020019060200280838360005b83811015610252578082015181840152602081019050610237565b505050509050019250505060405180910390f35b6102926004803603602081101561027c57600080fd5b8101908080359060200190929190505050610ab3565b604051808273ffffffffffffffffffffffffffffffffffffffff1673ffffffffffffffffffffffffffffffffffffffff16815260200191505060405180910390f35b610360600480360360808110156102ea57600080fd5b81019080803573ffffffffffffffffffffffffffffffffffffffff16906020019092919080359060200190929190803573ffffffffffffffffffffffffffffffffffffffff169060200190929190803573ffffffffffffffffffffffffffffffffffffffff169060200190929190505050610aef565b604051808215151515815260200191505060405180910390f35b6103bc6004803603602081101561039057600080fd5b81019080803573ffffffffffffffffffffffffffffffffffffffff169060200190929190505050610afd565b604051808215151515815260200191505060405180910390f35b610418600480360360208110156103ec57600080fd5b81019080803573ffffffffffffffffffffffffffffffffffffffff169060200190929190505050610b1d565b6040518082815260200191505060405180910390f35b6104c4600480360360a081101561044457600080fd5b81019080803573ffffffffffffffffffffffffffffffffffffffff16906020019092919080359060200190929190803573ffffffffffffffffffffffffffffffffffffffff169060200190929190803573ffffffffffffffffffffffffffffffffffffffff16906020019092919080359060200190929190505050610b27565b604051808215151515815260200191505060405180910390f35b610629600480360360a08110156104f457600080fd5b81019080803573ffffffffffffffffffffffffffffffffffffffff169060200190929190803590602001909291908035906020019064010000000081111561053b57600080fd5b82018360208201111561054d57600080fd5b8035906020019184602083028401116401000000008311171561056f57600080fd5b90919293919293908035906020019064010000000081111561059057600080fd5b8201836020820111156105a257600080fd5b803590602001918460208302840111640100000000831117156105c457600080fd5b9091929391929390803590602001906401000000008111156105e557600080fd5b8201836020820111156105f757600080fd5b8035906020019184602083028401116401000000008311171561061957600080fd5b9091929391929390505050610b36565b6040518082815260200191505060405180910390f35b610647610c34565b6040518082815260200191505060405180910390f35b6106f3600480360360a081101561067357600080fd5b81019080803573ffffffffffffffffffffffffffffffffffffffff16906020019092919080359060200190929190803573ffffffffffffffffffffffffffffffffffffffff169060200190929190803573ffffffffffffffffffffffffffffffffffffffff16906020019092919080359060200190929190505050610c3e565b604051808215151515815260200191505060405180910390f35b61078f6004803603606081101561072357600080fd5b81019080803573ffffffffffffffffffffffffffffffffffffffff169060200190929190803573ffffffffffffffffffffffffffffffffffffffff169060200190929190803573ffffffffffffffffffffffffffffffffffffffff169060200190929190505050610c4d565b005b6107d3600480360360208110156107a757600080fd5b81019080803573ffffffffffffffffffffffffffffffffffffffff169060200190929190505050610ca9565b005b610823600480360360408110156107eb57600080fd5b81019080803573ffffffffffffffffffffffffffffffffffffffff169060200190929190803515159060200190929190505050610d03565b005b6108676004803603602081101561083b57600080fd5b81019080803573ffffffffffffffffffffffffffffffffffffffff169060200190929190505050610d5e565b604051808215151515815260200191505060405180910390f35b6108f86004803603602081101561089757600080fd5b81019080803590602001906401000000008111156108b457600080fd5b8201836020820111156108c657600080fd5b803590602001918460208302840111640100000000831117156108e857600080fd5b9091929391929390505050610d7e565b005b61093c6004803603602081101561091057600080fd5b81019080803573ffffffffffffffffffffffffffffffffffffffff169060200190929190505050610d94565b604051808215151515815260200191505060405180910390f35b6109e26004803603608081101561096c57600080fd5b81019080803573ffffffffffffffffffffffffffffffffffffffff169060200190929190803573ffffffffffffffffffffffffffffffffffffffff169060200190929190803573ffffffffffffffffffffffffffffffffffffffff16906020019092919080359060200190929190505050610db4565b604051808215151515815260200191505060405180910390f35b8060058190555050565b600060019050919050565b8060048190555050565b6000600454905090565b60606003805480602002602001604051908101604052809291908181526020018280548015610aa957602002820191906000526020600020905b8160009054906101000a900473ffffffffffffffffffffffffffffffffffffffff1673ffffffffffffffffffffffffffffffffffffffff1681526020019060010190808311610a5f575b5050505050905090565b60038181548110610ac057fe5b906000526020600020016000915054906101000a900473ffffffffffffffffffffffffffffffffffffffff1681565b600060019050949350505050565b60016020528060005260406000206000915054906101000a900460ff1681565b6000809050919050565b60006001905095945050505050565b60003073ffffffffffffffffffffffffffffffffffffffff16631c9c6636893073ffffffffffffffffffffffffffffffffffffffff16631f6042436040518163ffffffff1660e01b815260040160206040518083038186803b158015610b9b57600080fd5b505afa158015610baf573d6000803e3d6000fd5b505050506040513d6020811015610bc557600080fd5b8101908080519060200190929190505050036040518263ffffffff1660e01b815260040180828152602001915050600060405180830381600087803b158015610c0d57600080fd5b505af1158015610c21573d6000803e3d6000fd5b5050505087905098975050505050505050565b6000600554905090565b60006001905095945050505050565b60018060008573ffffffffffffffffffffffffffffffffffffffff1673ffffffffffffffffffffffffffffffffffffffff16815260200190815260200160002060006101000a81548160ff021916908315150217905550505050565b60016000808373ffffffffffffffffffffffffffffffffffffffff1673ffffffffffffffffffffffffffffffffffffffff16815260200190815260200160002060006101000a81548160ff02191690831515021790555050565b80600260008473ffffffffffffffffffffffffffffffffffffffff1673ffffffffffffffffffffffffffffffffffffffff16815260200190815260200160002060006101000a81548160ff0219169083151502179055505050565b60006020528060005260406000206000915054906101000a900460ff1681565b818160039190610d8f929190610dc2565b505050565b60026020528060005260406000206000915054906101000a900460ff1681565b600060019050949350505050565b828054828255906000526020600020908101928215610e51579160200282015b82811115610e5057823573ffffffffffffffffffffffffffffffffffffffff168260006101000a81548173ffffffffffffffffffffffffffffffffffffffff021916908373ffffffffffffffffffffffffffffffffffffffff16021790555091602001919060010190610de2565b5b509050610e5e9190610e62565b5090565b610ea291905b80821115610e9e57600081816101000a81549073ffffffffffffffffffffffffffffffffffffffff021916905550600101610e68565b5090565b9056fea265627a7a723158203b161d4db6eae36c0a2b5bf8c0f56cc5ced1bd97a83d66eb8c2355d7e00f02f464736f6c634300050d0032",
  "source": "pragma solidity ^0.5.13;\n\n/**\n * @title Holds a list of addresses of validators\n */\ncontract MockElection {\n  mapping(address => bool) public isIneligible;\n  mapping(address => bool) public isEligible;\n  mapping(address => bool) public allowedToVoteOverMaxNumberOfGroups;\n  address[] public electedValidators;\n  uint256 active;\n  uint256 total;\n\n  function markGroupIneligible(address account) external {\n    isIneligible[account] = true;\n  }\n\n  function markGroupEligible(address account, address, address) external {\n    isEligible[account] = true;\n  }\n\n  function getTotalVotes() external view returns (uint256) {\n    return total;\n  }\n\n  function getActiveVotes() external view returns (uint256) {\n    return active;\n  }\n\n  function getTotalVotesByAccount(address) external view returns (uint256) {\n    return 0;\n  }\n\n  function setActiveVotes(uint256 value) external {\n    active = value;\n  }\n\n  function setTotalVotes(uint256 value) external {\n    total = value;\n  }\n\n  function setElectedValidators(address[] calldata _electedValidators) external {\n    electedValidators = _electedValidators;\n  }\n\n  function electValidatorSigners() external view returns (address[] memory) {\n    return electedValidators;\n  }\n\n  function vote(address, uint256, address, address) external returns (bool) {\n    return true;\n  }\n\n  function activate(address) external returns (bool) {\n    return true;\n  }\n\n  function revokeAllActive(address, address, address, uint256) external returns (bool) {\n    return true;\n  }\n\n  function revokeActive(address, uint256, address, address, uint256) external returns (bool) {\n    return true;\n  }\n\n  function revokePending(address, uint256, address, address, uint256) external returns (bool) {\n    return true;\n  }\n\n  function setAllowedToVoteOverMaxNumberOfGroups(address account, bool flag) public {\n    allowedToVoteOverMaxNumberOfGroups[account] = flag;\n  }\n\n  function forceDecrementVotes(\n    address,\n    uint256 value,\n    address[] calldata,\n    address[] calldata,\n    uint256[] calldata\n  ) external returns (uint256) {\n    this.setActiveVotes(this.getActiveVotes() - value);\n    return value;\n  }\n}\n",
  "compiler": {
    "name": "solc",
    "version": "0.5.13+commit.5b0b510c.Emscripten.clang"
  },
  "schemaVersion": "3.4.13",
  "updatedAt": "2023-11-21T17:21:12.625Z",
  "devdoc": {
    "methods": {},
    "title": "Holds a list of addresses of validators"
  },
  "userdoc": {
    "methods": {}
  }
}