{
  "contractName": "MsgSenderCheck",
  "abi": [
    {
      "constant": true,
      "inputs": [
        {
          "internalType": "address",
          "name": "addr",
          "type": "address"
        }
      ],
      "name": "checkMsgSender",
      "outputs": [],
      "payable": false,
      "stateMutability": "view",
      "type": "function"
    }
  ],
  "bytecode": "0x608060405234801561001057600080fd5b5061014d806100206000396000f3fe608060405234801561001057600080fd5b506004361061002b5760003560e01c8063979aaf9914610030575b600080fd5b6100726004803603602081101561004657600080fd5b81019080803573ffffffffffffffffffffffffffffffffffffffff169060200190929190505050610074565b005b3373ffffffffffffffffffffffffffffffffffffffff168173ffffffffffffffffffffffffffffffffffffffff1614610115576040517f08c379a000000000000000000000000000000000000000000000000000000000815260040180806020018281038252601a8152602001807f6164647265737320776173206e6f74206d73672e73656e64657200000000000081525060200191505060405180910390fd5b5056fea265627a7a72315820df4772d0be493f681e7c84f7f9132d88e2e1ff7a6095c3b7f3b2a2947f7fc5a764736f6c634300050d0032",
  "source": "pragma solidity ^0.5.13;\n\ncontract MsgSenderCheck {\n  function checkMsgSender(address addr) external view {\n    require(addr == msg.sender, \"address was not msg.sender\");\n  }\n}\n",
  "sourcePath": "/Users/beaver/Development/celo/celo-monorepo/packages/protocol/contracts/common/test/MsgSenderCheck.sol",
  "compiler": {
    "name": "solc",
    "version": "0.5.13+commit.5b0b510c.Emscripten.clang"
  },
  "schemaVersion": "3.4.13",
  "updatedAt": "2024-03-05T15:18:24.192Z",
  "devdoc": {
    "methods": {}
  },
  "userdoc": {
    "methods": {}
  }
}