{
  "contractName": "ProposalsTest",
  "abi": [
    {
      "constant": false,
      "inputs": [
        {
          "internalType": "uint256",
          "name": "networkWeight",
          "type": "uint256"
        }
      ],
      "name": "setNetworkWeight",
      "outputs": [],
      "payable": false,
      "stateMutability": "nonpayable",
      "type": "function"
    },
    {
      "constant": false,
      "inputs": [
        {
          "internalType": "uint256",
          "name": "yes",
          "type": "uint256"
        },
        {
          "internalType": "uint256",
          "name": "no",
          "type": "uint256"
        },
        {
          "internalType": "uint256",
          "name": "abstain",
          "type": "uint256"
        }
      ],
      "name": "setVotes",
      "outputs": [],
      "payable": false,
      "stateMutability": "nonpayable",
      "type": "function"
    },
    {
      "constant": true,
      "inputs": [
        {
          "internalType": "uint256",
          "name": "criticalBaseline",
          "type": "uint256"
        }
      ],
      "name": "getSupportWithQuorumPadding",
      "outputs": [
        {
          "internalType": "uint256",
          "name": "",
          "type": "uint256"
        }
      ],
      "payable": false,
      "stateMutability": "view",
      "type": "function"
    }
  ],
  "bytecode": "0x608060405234801561001057600080fd5b50610c67806100206000396000f3fe608060405234801561001057600080fd5b50600436106100415760003560e01c80631d3bee681461004657806347dffa9314610074578063f2ed1728146100b6575b600080fd5b6100726004803603602081101561005c57600080fd5b81019080803590602001909291905050506100f8565b005b6100b46004803603606081101561008a57600080fd5b81019080803590602001909291908035906020019092919080359060200190929190505050610105565b005b6100e2600480360360208110156100cc57600080fd5b8101908080359060200190929190505050610131565b6040518082815260200191505060405180910390f35b8060006008018190555050565b826000600301600001819055508160006003016001018190555080600060030160020181905550505050565b60006101576101526101428461015e565b600061017c90919063ffffffff16565b61026b565b9050919050565b610166610be9565b6040518060200160405280838152509050919050565b610184610be9565b60008360030160000154905060008114156101ab576101a36000610279565b915050610265565b60008460030160010154905060006101e586600301600201546101d7848661030390919063ffffffff16565b61030390919063ffffffff16565b9050600061021061020b6101fc8960080154610279565b8861038b90919063ffffffff16565b6107ea565b9050818111156102425761023f610230838361080b90919063ffffffff16565b8461030390919063ffffffff16565b92505b61025e84610259858761030390919063ffffffff16565b610855565b9450505050505b92915050565b600081600001519050919050565b610281610be9565b610289610897565b8211156102e1576040517f08c379a0000000000000000000000000000000000000000000000000000000008152600401808060200182810382526036815260200180610bfd6036913960400191505060405180910390fd5b604051806020016040528069d3c21bcecceda100000084028152509050919050565b600080828401905083811015610381576040517f08c379a000000000000000000000000000000000000000000000000000000000815260040180806020018281038252601b8152602001807f536166654d6174683a206164646974696f6e206f766572666c6f77000000000081525060200191505060405180910390fd5b8091505092915050565b610393610be9565b6000836000015114806103aa575060008260000151145b156103c6576040518060200160405280600081525090506107e4565b69d3c21bcecceda1000000826000015114156103e4578290506107e4565b69d3c21bcecceda100000083600001511415610402578190506107e4565b600069d3c21bcecceda1000000610418856108b6565b600001518161042357fe5b0490506000610431856108ed565b600001519050600069d3c21bcecceda100000061044d866108b6565b600001518161045857fe5b0490506000610466866108ed565b60000151905060008285029050600085146104fa578285828161048557fe5b04146104f9576040517f08c379a00000000000000000000000000000000000000000000000000000000081526004018080602001828103825260168152602001807f6f766572666c6f7720783179312064657465637465640000000000000000000081525060200191505060405180910390fd5b5b600069d3c21bcecceda1000000820290506000821461059c5769d3c21bcecceda100000082828161052757fe5b041461059b576040517f08c379a000000000000000000000000000000000000000000000000000000000815260040180806020018281038252601f8152602001807f6f766572666c6f772078317931202a206669786564312064657465637465640081525060200191505060405180910390fd5b5b809150600084860290506000861461062d57848682816105b857fe5b041461062c576040517f08c379a00000000000000000000000000000000000000000000000000000000081526004018080602001828103825260168152602001807f6f766572666c6f7720783279312064657465637465640000000000000000000081525060200191505060405180910390fd5b5b60008488029050600088146106bb578488828161064657fe5b04146106ba576040517f08c379a00000000000000000000000000000000000000000000000000000000081526004018080602001828103825260168152602001807f6f766572666c6f7720783179322064657465637465640000000000000000000081525060200191505060405180910390fd5b5b6106c361092a565b87816106cb57fe5b0496506106d661092a565b85816106de57fe5b049450600085880290506000881461076f57858882816106fa57fe5b041461076e576040517f08c379a00000000000000000000000000000000000000000000000000000000081526004018080602001828103825260168152602001807f6f766572666c6f7720783279322064657465637465640000000000000000000081525060200191505060405180910390fd5b5b610777610be9565b60405180602001604052808781525090506107a081604051806020016040528087815250610937565b90506107ba81604051806020016040528086815250610937565b90506107d481604051806020016040528085815250610937565b9050809a50505050505050505050505b92915050565b600069d3c21bcecceda100000082600001518161080357fe5b049050919050565b600061084d83836040518060400160405280601e81526020017f536166654d6174683a207375627472616374696f6e206f766572666c6f7700008152506109e0565b905092915050565b61085d610be9565b610865610be9565b61086e84610279565b9050610878610be9565b61088184610279565b905061088d8282610aa0565b9250505092915050565b60007601357c299a88ea76a58924d52ce4f26a85af186c2b9e74905090565b6108be610be9565b604051806020016040528069d3c21bcecceda1000000808560000151816108e157fe5b04028152509050919050565b6108f5610be9565b604051806020016040528069d3c21bcecceda10000008085600001518161091857fe5b04028460000151038152509050919050565b600064e8d4a51000905090565b61093f610be9565b60008260000151846000015101905083600001518110156109c8576040517f08c379a00000000000000000000000000000000000000000000000000000000081526004018080602001828103825260158152602001807f616464206f766572666c6f77206465746563746564000000000000000000000081525060200191505060405180910390fd5b60405180602001604052808281525091505092915050565b6000838311158290610a8d576040517f08c379a00000000000000000000000000000000000000000000000000000000081526004018080602001828103825283818151815260200191508051906020019080838360005b83811015610a52578082015181840152602081019050610a37565b50505050905090810190601f168015610a7f5780820380516001836020036101000a031916815260200191505b509250505060405180910390fd5b5060008385039050809150509392505050565b610aa8610be9565b600082600001511415610b23576040517f08c379a00000000000000000000000000000000000000000000000000000000081526004018080602001828103825260118152602001807f63616e277420646976696465206279203000000000000000000000000000000081525060200191505060405180910390fd5b600069d3c21bcecceda10000008460000151029050836000015169d3c21bcecceda10000008281610b5057fe5b0414610bc4576040517f08c379a00000000000000000000000000000000000000000000000000000000081526004018080602001828103825260128152602001807f6f766572666c6f7720617420646976696465000000000000000000000000000081525060200191505060405180910390fd5b604051806020016040528084600001518381610bdc57fe5b0481525091505092915050565b604051806020016040528060008152509056fe63616e277420637265617465206669786964697479206e756d626572206c6172676572207468616e206d61784e657746697865642829a265627a7a723158208d54cf6327d3b967127df718d3f13109cc24407e0181fc721d48fda4e6719ca664736f6c634300050d0032",
  "source": "pragma solidity ^0.5.13;\n\nimport \"../Proposals.sol\";\nimport \"../../common/FixidityLib.sol\";\n\ncontract ProposalsTest {\n  using Proposals for Proposals.Proposal;\n\n  Proposals.Proposal private proposal;\n\n  function setNetworkWeight(uint256 networkWeight) external {\n    proposal.networkWeight = networkWeight;\n  }\n\n  function setVotes(uint256 yes, uint256 no, uint256 abstain) external {\n    proposal.votes.yes = yes;\n    proposal.votes.no = no;\n    proposal.votes.abstain = abstain;\n  }\n\n  function getSupportWithQuorumPadding(uint256 criticalBaseline) external view returns (uint256) {\n    return\n      FixidityLib.unwrap(proposal.getSupportWithQuorumPadding(FixidityLib.wrap(criticalBaseline)));\n  }\n}\n",
  "compiler": {
    "name": "solc",
    "version": "0.5.13+commit.5b0b510c.Emscripten.clang"
  },
  "schemaVersion": "3.4.13",
  "updatedAt": "2023-11-21T17:25:03.740Z",
  "networkType": "ethereum",
  "devdoc": {
    "methods": {}
  },
  "userdoc": {
    "methods": {}
  }
}