{
  "contractName": "RandomTest",
  "abi": [
    {
      "anonymous": false,
      "inputs": [
        {
          "indexed": true,
          "internalType": "address",
          "name": "previousOwner",
          "type": "address"
        },
        {
          "indexed": true,
          "internalType": "address",
          "name": "newOwner",
          "type": "address"
        }
      ],
      "name": "OwnershipTransferred",
      "type": "event"
    },
    {
      "anonymous": false,
      "inputs": [
        {
          "indexed": false,
          "internalType": "uint256",
          "name": "value",
          "type": "uint256"
        }
      ],
      "name": "RandomnessBlockRetentionWindowSet",
      "type": "event"
    },
    {
      "constant": true,
      "inputs": [
        {
          "internalType": "address",
          "name": "sender",
          "type": "address"
        },
        {
          "internalType": "bytes",
          "name": "blsKey",
          "type": "bytes"
        },
        {
          "internalType": "bytes",
          "name": "blsPop",
          "type": "bytes"
        }
      ],
      "name": "checkProofOfPossession",
      "outputs": [
        {
          "internalType": "bool",
          "name": "",
          "type": "bool"
        }
      ],
      "payable": false,
      "stateMutability": "view",
      "type": "function"
    },
    {
      "constant": true,
      "inputs": [
        {
          "internalType": "address",
          "name": "",
          "type": "address"
        }
      ],
      "name": "commitments",
      "outputs": [
        {
          "internalType": "bytes32",
          "name": "",
          "type": "bytes32"
        }
      ],
      "payable": false,
      "stateMutability": "view",
      "type": "function"
    },
    {
      "constant": true,
      "inputs": [
        {
          "internalType": "bytes32",
          "name": "randomness",
          "type": "bytes32"
        }
      ],
      "name": "computeCommitment",
      "outputs": [
        {
          "internalType": "bytes32",
          "name": "",
          "type": "bytes32"
        }
      ],
      "payable": false,
      "stateMutability": "pure",
      "type": "function"
    },
    {
      "constant": true,
      "inputs": [
        {
          "internalType": "uint256",
          "name": "aNumerator",
          "type": "uint256"
        },
        {
          "internalType": "uint256",
          "name": "aDenominator",
          "type": "uint256"
        },
        {
          "internalType": "uint256",
          "name": "bNumerator",
          "type": "uint256"
        },
        {
          "internalType": "uint256",
          "name": "bDenominator",
          "type": "uint256"
        },
        {
          "internalType": "uint256",
          "name": "exponent",
          "type": "uint256"
        },
        {
          "internalType": "uint256",
          "name": "_decimals",
          "type": "uint256"
        }
      ],
      "name": "fractionMulExp",
      "outputs": [
        {
          "internalType": "uint256",
          "name": "",
          "type": "uint256"
        },
        {
          "internalType": "uint256",
          "name": "",
          "type": "uint256"
        }
      ],
      "payable": false,
      "stateMutability": "view",
      "type": "function"
    },
    {
      "constant": true,
      "inputs": [
        {
          "internalType": "bytes",
          "name": "header",
          "type": "bytes"
        }
      ],
      "name": "getBlockNumberFromHeader",
      "outputs": [
        {
          "internalType": "uint256",
          "name": "",
          "type": "uint256"
        }
      ],
      "payable": false,
      "stateMutability": "view",
      "type": "function"
    },
    {
      "constant": true,
      "inputs": [
        {
          "internalType": "uint256",
          "name": "blockNumber",
          "type": "uint256"
        }
      ],
      "name": "getBlockRandomness",
      "outputs": [
        {
          "internalType": "bytes32",
          "name": "",
          "type": "bytes32"
        }
      ],
      "payable": false,
      "stateMutability": "view",
      "type": "function"
    },
    {
      "constant": true,
      "inputs": [],
      "name": "getEpochNumber",
      "outputs": [
        {
          "internalType": "uint256",
          "name": "",
          "type": "uint256"
        }
      ],
      "payable": false,
      "stateMutability": "view",
      "type": "function"
    },
    {
      "constant": true,
      "inputs": [
        {
          "internalType": "uint256",
          "name": "blockNumber",
          "type": "uint256"
        }
      ],
      "name": "getEpochNumberOfBlock",
      "outputs": [
        {
          "internalType": "uint256",
          "name": "",
          "type": "uint256"
        }
      ],
      "payable": false,
      "stateMutability": "view",
      "type": "function"
    },
    {
      "constant": true,
      "inputs": [],
      "name": "getEpochSize",
      "outputs": [
        {
          "internalType": "uint256",
          "name": "",
          "type": "uint256"
        }
      ],
      "payable": false,
      "stateMutability": "view",
      "type": "function"
    },
    {
      "constant": true,
      "inputs": [
        {
          "internalType": "uint256",
          "name": "blockNumber",
          "type": "uint256"
        }
      ],
      "name": "getParentSealBitmap",
      "outputs": [
        {
          "internalType": "bytes32",
          "name": "",
          "type": "bytes32"
        }
      ],
      "payable": false,
      "stateMutability": "view",
      "type": "function"
    },
    {
      "constant": true,
      "inputs": [
        {
          "internalType": "bytes",
          "name": "header",
          "type": "bytes"
        }
      ],
      "name": "getVerifiedSealBitmapFromHeader",
      "outputs": [
        {
          "internalType": "bytes32",
          "name": "",
          "type": "bytes32"
        }
      ],
      "payable": false,
      "stateMutability": "view",
      "type": "function"
    },
    {
      "constant": true,
      "inputs": [],
      "name": "getVersionNumber",
      "outputs": [
        {
          "internalType": "uint256",
          "name": "",
          "type": "uint256"
        },
        {
          "internalType": "uint256",
          "name": "",
          "type": "uint256"
        },
        {
          "internalType": "uint256",
          "name": "",
          "type": "uint256"
        },
        {
          "internalType": "uint256",
          "name": "",
          "type": "uint256"
        }
      ],
      "payable": false,
      "stateMutability": "pure",
      "type": "function"
    },
    {
      "constant": true,
      "inputs": [
        {
          "internalType": "bytes",
          "name": "header",
          "type": "bytes"
        }
      ],
      "name": "hashHeader",
      "outputs": [
        {
          "internalType": "bytes32",
          "name": "",
          "type": "bytes32"
        }
      ],
      "payable": false,
      "stateMutability": "view",
      "type": "function"
    },
    {
      "constant": false,
      "inputs": [
        {
          "internalType": "uint256",
          "name": "_randomnessBlockRetentionWindow",
          "type": "uint256"
        }
      ],
      "name": "initialize",
      "outputs": [],
      "payable": false,
      "stateMutability": "nonpayable",
      "type": "function"
    },
    {
      "constant": true,
      "inputs": [],
      "name": "initialized",
      "outputs": [
        {
          "internalType": "bool",
          "name": "",
          "type": "bool"
        }
      ],
      "payable": false,
      "stateMutability": "view",
      "type": "function"
    },
    {
      "constant": true,
      "inputs": [],
      "name": "isOwner",
      "outputs": [
        {
          "internalType": "bool",
          "name": "",
          "type": "bool"
        }
      ],
      "payable": false,
      "stateMutability": "view",
      "type": "function"
    },
    {
      "constant": true,
      "inputs": [
        {
          "internalType": "uint256",
          "name": "blockNumber",
          "type": "uint256"
        }
      ],
      "name": "minQuorumSize",
      "outputs": [
        {
          "internalType": "uint256",
          "name": "",
          "type": "uint256"
        }
      ],
      "payable": false,
      "stateMutability": "view",
      "type": "function"
    },
    {
      "constant": true,
      "inputs": [],
      "name": "minQuorumSizeInCurrentSet",
      "outputs": [
        {
          "internalType": "uint256",
          "name": "",
          "type": "uint256"
        }
      ],
      "payable": false,
      "stateMutability": "view",
      "type": "function"
    },
    {
      "constant": true,
      "inputs": [],
      "name": "numberValidatorsInCurrentSet",
      "outputs": [
        {
          "internalType": "uint256",
          "name": "",
          "type": "uint256"
        }
      ],
      "payable": false,
      "stateMutability": "view",
      "type": "function"
    },
    {
      "constant": true,
      "inputs": [
        {
          "internalType": "uint256",
          "name": "blockNumber",
          "type": "uint256"
        }
      ],
      "name": "numberValidatorsInSet",
      "outputs": [
        {
          "internalType": "uint256",
          "name": "",
          "type": "uint256"
        }
      ],
      "payable": false,
      "stateMutability": "view",
      "type": "function"
    },
    {
      "constant": true,
      "inputs": [],
      "name": "owner",
      "outputs": [
        {
          "internalType": "address",
          "name": "",
          "type": "address"
        }
      ],
      "payable": false,
      "stateMutability": "view",
      "type": "function"
    },
    {
      "constant": true,
      "inputs": [],
      "name": "random",
      "outputs": [
        {
          "internalType": "bytes32",
          "name": "",
          "type": "bytes32"
        }
      ],
      "payable": false,
      "stateMutability": "view",
      "type": "function"
    },
    {
      "constant": true,
      "inputs": [],
      "name": "randomnessBlockRetentionWindow",
      "outputs": [
        {
          "internalType": "uint256",
          "name": "",
          "type": "uint256"
        }
      ],
      "payable": false,
      "stateMutability": "view",
      "type": "function"
    },
    {
      "constant": false,
      "inputs": [],
      "name": "renounceOwnership",
      "outputs": [],
      "payable": false,
      "stateMutability": "nonpayable",
      "type": "function"
    },
    {
      "constant": false,
      "inputs": [
        {
          "internalType": "bytes32",
          "name": "randomness",
          "type": "bytes32"
        },
        {
          "internalType": "bytes32",
          "name": "newCommitment",
          "type": "bytes32"
        },
        {
          "internalType": "address",
          "name": "proposer",
          "type": "address"
        }
      ],
      "name": "revealAndCommit",
      "outputs": [],
      "payable": false,
      "stateMutability": "nonpayable",
      "type": "function"
    },
    {
      "constant": false,
      "inputs": [
        {
          "internalType": "uint256",
          "name": "value",
          "type": "uint256"
        }
      ],
      "name": "setRandomnessBlockRetentionWindow",
      "outputs": [],
      "payable": false,
      "stateMutability": "nonpayable",
      "type": "function"
    },
    {
      "constant": false,
      "inputs": [
        {
          "internalType": "address",
          "name": "newOwner",
          "type": "address"
        }
      ],
      "name": "transferOwnership",
      "outputs": [],
      "payable": false,
      "stateMutability": "nonpayable",
      "type": "function"
    },
    {
      "constant": true,
      "inputs": [
        {
          "internalType": "uint256",
          "name": "index",
          "type": "uint256"
        }
      ],
      "name": "validatorSignerAddressFromCurrentSet",
      "outputs": [
        {
          "internalType": "address",
          "name": "",
          "type": "address"
        }
      ],
      "payable": false,
      "stateMutability": "view",
      "type": "function"
    },
    {
      "constant": true,
      "inputs": [
        {
          "internalType": "uint256",
          "name": "index",
          "type": "uint256"
        },
        {
          "internalType": "uint256",
          "name": "blockNumber",
          "type": "uint256"
        }
      ],
      "name": "validatorSignerAddressFromSet",
      "outputs": [
        {
          "internalType": "address",
          "name": "",
          "type": "address"
        }
      ],
      "payable": false,
      "stateMutability": "view",
      "type": "function"
    },
    {
      "constant": false,
      "inputs": [
        {
          "internalType": "uint256",
          "name": "blockNumber",
          "type": "uint256"
        },
        {
          "internalType": "bytes32",
          "name": "randomness",
          "type": "bytes32"
        }
      ],
      "name": "addTestRandomness",
      "outputs": [],
      "payable": false,
      "stateMutability": "nonpayable",
      "type": "function"
    },
    {
      "constant": true,
      "inputs": [
        {
          "internalType": "uint256",
          "name": "blockNumber",
          "type": "uint256"
        },
        {
          "internalType": "uint256",
          "name": "cur",
          "type": "uint256"
        }
      ],
      "name": "getTestRandomness",
      "outputs": [
        {
          "internalType": "bytes32",
          "name": "",
          "type": "bytes32"
        }
      ],
      "payable": false,
      "stateMutability": "view",
      "type": "function"
    },
    {
      "constant": false,
      "inputs": [
        {
          "internalType": "bytes32",
          "name": "randomness",
          "type": "bytes32"
        },
        {
          "internalType": "bytes32",
          "name": "newCommitment",
          "type": "bytes32"
        },
        {
          "internalType": "address",
          "name": "proposer",
          "type": "address"
        }
      ],
      "name": "testRevealAndCommit",
      "outputs": [],
      "payable": false,
      "stateMutability": "nonpayable",
      "type": "function"
    }
  ],
  "bytecode": "0x608060405260018060006100176100dd60201b60201c565b9050806000806101000a81548173ffffffffffffffffffffffffffffffffffffffff021916908373ffffffffffffffffffffffffffffffffffffffff1602179055508073ffffffffffffffffffffffffffffffffffffffff16600073ffffffffffffffffffffffffffffffffffffffff167f8be0079c531659141344cd1fd0a4f28419497f9722a3daafe3b4186f6b6457e060405160405180910390a350806100d6576001600060146101000a81548160ff0219169083151502179055505b50506100e5565b600033905090565b61315580620000f56000396000f3fe608060405234801561001057600080fd5b50600436106101f05760003560e01c80638da5cb5b1161010f578063e50e652d116100a2578063f2fde38b11610071578063f2fde38b14610b8e578063fae8db0a14610bd2578063fc48472614610c14578063fe4b84df14610c56576101f0565b8063e50e652d14610a2d578063e626642514610a6f578063e8fcf72314610abb578063ec68307214610b13576101f0565b80639b2b592f116100de5780639b2b592f1461096d578063c387742b146109af578063df4da461146109f1578063e45def9514610a0f576101f0565b80638da5cb5b146108b55780638f32d59b146108ff57806392e5d98f146109215780639a7b3be71461094f576101f0565b80635ec01e4d1161018757806375832efc1161015657806375832efc1461073857806387ca71661461079057806387ee8a0f146107c85780638a883626146107e6576101f0565b80635ec01e4d1461062357806367960e9114610641578063715018a6146107105780637385e5da1461071a576101f0565b80633b1eb4bf116101c35780633b1eb4bf146104675780634b2c2f44146104a957806354255be0146105785780635d180adb146105ab576101f0565b80630c0dd6c1146101f5578063123633ea1461024d578063158ef93e146102bb57806323f0ab65146102dd575b600080fd5b61024b6004803603606081101561020b57600080fd5b810190808035906020019092919080359060200190929190803573ffffffffffffffffffffffffffffffffffffffff169060200190929190505050610c84565b005b6102796004803603602081101561026357600080fd5b8101908080359060200190929190505050610c94565b604051808273ffffffffffffffffffffffffffffffffffffffff1673ffffffffffffffffffffffffffffffffffffffff16815260200191505060405180910390f35b6102c3610de5565b604051808215151515815260200191505060405180910390f35b61044d600480360360608110156102f357600080fd5b81019080803573ffffffffffffffffffffffffffffffffffffffff1690602001909291908035906020019064010000000081111561033057600080fd5b82018360208201111561034257600080fd5b8035906020019184600183028401116401000000008311171561036457600080fd5b91908080601f016020809104026020016040519081016040528093929190818152602001838380828437600081840152601f19601f820116905080830192505050505050509192919290803590602001906401000000008111156103c757600080fd5b8201836020820111156103d957600080fd5b803590602001918460018302840111640100000000831117156103fb57600080fd5b91908080601f016020809104026020016040519081016040528093929190818152602001838380828437600081840152601f19601f820116905080830192505050505050509192919290505050610df8565b604051808215151515815260200191505060405180910390f35b6104936004803603602081101561047d57600080fd5b8101908080359060200190929190505050610fb1565b6040518082815260200191505060405180910390f35b610562600480360360208110156104bf57600080fd5b81019080803590602001906401000000008111156104dc57600080fd5b8201836020820111156104ee57600080fd5b8035906020019184600183028401116401000000008311171561051057600080fd5b91908080601f016020809104026020016040519081016040528093929190818152602001838380828437600081840152601f19601f820116905080830192505050505050509192919290505050610fcb565b6040518082815260200191505060405180910390f35b61058061115f565b6040518085815260200184815260200183815260200182815260200194505050505060405180910390f35b6105e1600480360360408110156105c157600080fd5b810190808035906020019092919080359060200190929190505050611186565b604051808273ffffffffffffffffffffffffffffffffffffffff1673ffffffffffffffffffffffffffffffffffffffff16815260200191505060405180910390f35b61062b6112d8565b6040518082815260200191505060405180910390f35b6106fa6004803603602081101561065757600080fd5b810190808035906020019064010000000081111561067457600080fd5b82018360208201111561068657600080fd5b803590602001918460018302840111640100000000831117156106a857600080fd5b91908080601f016020809104026020016040519081016040528093929190818152602001838380828437600081840152601f19601f8201169050808301925050505050505091929192905050506112e9565b6040518082815260200191505060405180910390f35b61071861147d565b005b6107226115b6565b6040518082815260200191505060405180910390f35b61078e6004803603606081101561074e57600080fd5b810190808035906020019092919080359060200190929190803573ffffffffffffffffffffffffffffffffffffffff1690602001909291905050506115c6565b005b6107c6600480360360408110156107a657600080fd5b810190808035906020019092919080359060200190929190505050611678565b005b6107d0611686565b6040518082815260200191505060405180910390f35b61089f600480360360208110156107fc57600080fd5b810190808035906020019064010000000081111561081957600080fd5b82018360208201111561082b57600080fd5b8035906020019184600183028401116401000000008311171561084d57600080fd5b91908080601f016020809104026020016040519081016040528093929190818152602001838380828437600081840152601f19601f8201169050808301925050505050505091929192905050506117cd565b6040518082815260200191505060405180910390f35b6108bd611961565b604051808273ffffffffffffffffffffffffffffffffffffffff1673ffffffffffffffffffffffffffffffffffffffff16815260200191505060405180910390f35b61090761198a565b604051808215151515815260200191505060405180910390f35b61094d6004803603602081101561093757600080fd5b81019080803590602001909291905050506119e8565b005b610957611afc565b6040518082815260200191505060405180910390f35b6109996004803603602081101561098357600080fd5b8101908080359060200190929190505050611b0c565b6040518082815260200191505060405180910390f35b6109db600480360360208110156109c557600080fd5b8101908080359060200190929190505050611c55565b6040518082815260200191505060405180910390f35b6109f9611c85565b6040518082815260200191505060405180910390f35b610a17611dc1565b6040518082815260200191505060405180910390f35b610a5960048036036020811015610a4357600080fd5b8101908080359060200190929190505050611dc7565b6040518082815260200191505060405180910390f35b610aa560048036036040811015610a8557600080fd5b810190808035906020019092919080359060200190929190505050611e12565b6040518082815260200191505060405180910390f35b610afd60048036036020811015610ad157600080fd5b81019080803573ffffffffffffffffffffffffffffffffffffffff169060200190929190505050611e26565b6040518082815260200191505060405180910390f35b610b71600480360360c0811015610b2957600080fd5b81019080803590602001909291908035906020019092919080359060200190929190803590602001909291908035906020019092919080359060200190929190505050611e3e565b604051808381526020018281526020019250505060405180910390f35b610bd060048036036020811015610ba457600080fd5b81019080803573ffffffffffffffffffffffffffffffffffffffff169060200190929190505050612052565b005b610bfe60048036036020811015610be857600080fd5b81019080803590602001909291905050506120d8565b6040518082815260200191505060405180910390f35b610c4060048036036020811015610c2a57600080fd5b8101908080359060200190929190505050612221565b6040518082815260200191505060405180910390f35b610c8260048036036020811015610c6c57600080fd5b8101908080359060200190929190505050612234565b005b610c8f8383836122e7565b505050565b60006060600060fa73ffffffffffffffffffffffffffffffffffffffff16844360405160200180838152602001828152602001925050506040516020818303038152906040526040518082805190602001908083835b60208310610d0d5780518252602082019150602081019050602083039250610cea565b6001836020036101000a038019825116818451168082178552505050505050905001915050600060405180830381855afa9150503d8060008114610d6d576040519150601f19603f3d011682016040523d82523d6000602084013e610d72565b606091505b50809350819250505080610dd1576040517f08c379a000000000000000000000000000000000000000000000000000000000815260040180806020018281038252603d815260200180612ef4603d913960400191505060405180910390fd5b610ddc8260006125cf565b92505050919050565b600060149054906101000a900460ff1681565b60008060fb73ffffffffffffffffffffffffffffffffffffffff16858585604051602001808473ffffffffffffffffffffffffffffffffffffffff1673ffffffffffffffffffffffffffffffffffffffff1660601b815260140183805190602001908083835b60208310610e815780518252602082019150602081019050602083039250610e5e565b6001836020036101000a03801982511681845116808217855250505050505090500182805190602001908083835b60208310610ed25780518252602082019150602081019050602083039250610eaf565b6001836020036101000a03801982511681845116808217855250505050505090500193505050506040516020818303038152906040526040518082805190602001908083835b60208310610f3b5780518252602082019150602081019050602083039250610f18565b6001836020036101000a038019825116818451168082178552505050505050905001915050600060405180830381855afa9150503d8060008114610f9b576040519150601f19603f3d011682016040523d82523d6000602084013e610fa0565b606091505b505080915050809150509392505050565b6000610fc482610fbf611c85565b6125e6565b9050919050565b60006060600060f473ffffffffffffffffffffffffffffffffffffffff16846040516020018082805190602001908083835b602083106110205780518252602082019150602081019050602083039250610ffd565b6001836020036101000a0380198251168184511680821785525050505050509050019150506040516020818303038152906040526040518082805190602001908083835b602083106110875780518252602082019150602081019050602083039250611064565b6001836020036101000a038019825116818451168082178552505050505050905001915050600060405180830381855afa9150503d80600081146110e7576040519150601f19603f3d011682016040523d82523d6000602084013e6110ec565b606091505b5080935081925050508061114b576040517f08c379a0000000000000000000000000000000000000000000000000000000008152600401808060200182810382526038815260200180612ebc6038913960400191505060405180910390fd5b61115682600061262e565b92505050919050565b60008060008060018060016000839350829250819150809050935093509350935090919293565b60006060600060fa73ffffffffffffffffffffffffffffffffffffffff16858560405160200180838152602001828152602001925050506040516020818303038152906040526040518082805190602001908083835b602083106111ff57805182526020820191506020810190506020830392506111dc565b6001836020036101000a038019825116818451168082178552505050505050905001915050600060405180830381855afa9150503d806000811461125f576040519150601f19603f3d011682016040523d82523d6000602084013e611264565b606091505b508093508192505050806112c3576040517f08c379a0000000000000000000000000000000000000000000000000000000008152600401808060200182810382526036815260200180612f666036913960400191505060405180910390fd5b6112ce8260006125cf565b9250505092915050565b60006112e443436126cf565b905090565b60006060600060f673ffffffffffffffffffffffffffffffffffffffff16846040516020018082805190602001908083835b6020831061133e578051825260208201915060208101905060208303925061131b565b6001836020036101000a0380198251168184511680821785525050505050509050019150506040516020818303038152906040526040518082805190602001908083835b602083106113a55780518252602082019150602081019050602083039250611382565b6001836020036101000a038019825116818451168082178552505050505050905001915050600060405180830381855afa9150503d8060008114611405576040519150601f19603f3d011682016040523d82523d6000602084013e61140a565b606091505b50809350819250505080611469576040517f08c379a00000000000000000000000000000000000000000000000000000000081526004018080602001828103825260238152602001806130c96023913960400191505060405180910390fd5b61147482600061262e565b92505050919050565b61148561198a565b6114f7576040517f08c379a00000000000000000000000000000000000000000000000000000000081526004018080602001828103825260208152602001807f4f776e61626c653a2063616c6c6572206973206e6f7420746865206f776e657281525060200191505060405180910390fd5b600073ffffffffffffffffffffffffffffffffffffffff166000809054906101000a900473ffffffffffffffffffffffffffffffffffffffff1673ffffffffffffffffffffffffffffffffffffffff167f8be0079c531659141344cd1fd0a4f28419497f9722a3daafe3b4186f6b6457e060405160405180910390a360008060006101000a81548173ffffffffffffffffffffffffffffffffffffffff021916908373ffffffffffffffffffffffffffffffffffffffff160217905550565b60006115c143611dc7565b905090565b600073ffffffffffffffffffffffffffffffffffffffff163373ffffffffffffffffffffffffffffffffffffffff1614611668576040517f08c379a00000000000000000000000000000000000000000000000000000000081526004018080602001828103825260108152602001807f4f6e6c7920564d2063616e2063616c6c0000000000000000000000000000000081525060200191505060405180910390fd5b6116738383836122e7565b505050565b61168282826127ea565b5050565b60006060600060f973ffffffffffffffffffffffffffffffffffffffff1643604051602001808281526020019150506040516020818303038152906040526040518082805190602001908083835b602083106116f757805182526020820191506020810190506020830392506116d4565b6001836020036101000a038019825116818451168082178552505050505050905001915050600060405180830381855afa9150503d8060008114611757576040519150601f19603f3d011682016040523d82523d6000602084013e61175c565b606091505b508093508192505050806117bb576040517f08c379a0000000000000000000000000000000000000000000000000000000008152600401808060200182810382526035815260200180612f316035913960400191505060405180910390fd5b6117c68260006125cf565b9250505090565b60006060600060f773ffffffffffffffffffffffffffffffffffffffff16846040516020018082805190602001908083835b6020831061182257805182526020820191506020810190506020830392506117ff565b6001836020036101000a0380198251168184511680821785525050505050509050019150506040516020818303038152906040526040518082805190602001908083835b602083106118895780518252602082019150602081019050602083039250611866565b6001836020036101000a038019825116818451168082178552505050505050905001915050600060405180830381855afa9150503d80600081146118e9576040519150601f19603f3d011682016040523d82523d6000602084013e6118ee565b606091505b5080935081925050508061194d576040517f08c379a00000000000000000000000000000000000000000000000000000000081526004018080602001828103825260318152602001806130986031913960400191505060405180910390fd5b6119588260006125cf565b92505050919050565b60008060009054906101000a900473ffffffffffffffffffffffffffffffffffffffff16905090565b60008060009054906101000a900473ffffffffffffffffffffffffffffffffffffffff1673ffffffffffffffffffffffffffffffffffffffff166119cc61293a565b73ffffffffffffffffffffffffffffffffffffffff1614905090565b6119f061198a565b611a62576040517f08c379a00000000000000000000000000000000000000000000000000000000081526004018080602001828103825260208152602001807f4f776e61626c653a2063616c6c6572206973206e6f7420746865206f776e657281525060200191505060405180910390fd5b60008111611abb576040517f08c379a000000000000000000000000000000000000000000000000000000000815260040180806020018281038252602c815260200180612e63602c913960400191505060405180910390fd5b806002819055507f337b24e614d34558109f3dee80fbcb3c5a4b08a6611bee45581772f64d1681e5816040518082815260200191505060405180910390a150565b6000611b0743610fb1565b905090565b60006060600060f973ffffffffffffffffffffffffffffffffffffffff1684604051602001808281526020019150506040516020818303038152906040526040518082805190602001908083835b60208310611b7d5780518252602082019150602081019050602083039250611b5a565b6001836020036101000a038019825116818451168082178552505050505050905001915050600060405180830381855afa9150503d8060008114611bdd576040519150601f19603f3d011682016040523d82523d6000602084013e611be2565b606091505b50809350819250505080611c41576040517f08c379a000000000000000000000000000000000000000000000000000000000815260040180806020018281038252602e815260200180612e0f602e913960400191505060405180910390fd5b611c4c8260006125cf565b92505050919050565b60008160405160200180828152602001915050604051602081830303815290604052805190602001209050919050565b60006060600060f873ffffffffffffffffffffffffffffffffffffffff166040516020016040516020818303038152906040526040518082805190602001908083835b60208310611ceb5780518252602082019150602081019050602083039250611cc8565b6001836020036101000a038019825116818451168082178552505050505050905001915050600060405180830381855afa9150503d8060008114611d4b576040519150601f19603f3d011682016040523d82523d6000602084013e611d50565b606091505b50809350819250505080611daf576040517f08c379a000000000000000000000000000000000000000000000000000000000815260040180806020018281038252602581526020018061300c6025913960400191505060405180910390fd5b611dba8260006125cf565b9250505090565b60025481565b6000611e0b6003611dfd6002611def6002611de188611b0c565b61294290919063ffffffff16565b6129c890919063ffffffff16565b612a5090919063ffffffff16565b9050919050565b6000611e1e83836126cf565b905092915050565b60016020528060005260406000206000915090505481565b60008060008714158015611e53575060008514155b611ec5576040517f08c379a00000000000000000000000000000000000000000000000000000000081526004018080602001828103825260158152602001807f612064656e6f6d696e61746f72206973207a65726f000000000000000000000081525060200191505060405180910390fd5b6000806000606060fc73ffffffffffffffffffffffffffffffffffffffff168c8c8c8c8c8c6040516020018087815260200186815260200185815260200184815260200183815260200182815260200196505050505050506040516020818303038152906040526040518082805190602001908083835b60208310611f5f5780518252602082019150602081019050602083039250611f3c565b6001836020036101000a038019825116818451168082178552505050505050905001915050600060405180830381855afa9150503d8060008114611fbf576040519150601f19603f3d011682016040523d82523d6000602084013e611fc4565b606091505b50809250819350505081612023576040517f08c379a0000000000000000000000000000000000000000000000000000000008152600401808060200182810382526027815260200180612fe56027913960400191505060405180910390fd5b61202e8160006125cf565b935061203b8160206125cf565b925083839550955050505050965096945050505050565b61205a61198a565b6120cc576040517f08c379a00000000000000000000000000000000000000000000000000000000081526004018080602001828103825260208152602001807f4f776e61626c653a2063616c6c6572206973206e6f7420746865206f776e657281525060200191505060405180910390fd5b6120d581612a9a565b50565b60006060600060f573ffffffffffffffffffffffffffffffffffffffff1684604051602001808281526020019150506040516020818303038152906040526040518082805190602001908083835b602083106121495780518252602082019150602081019050602083039250612126565b6001836020036101000a038019825116818451168082178552505050505050905001915050600060405180830381855afa9150503d80600081146121a9576040519150601f19603f3d011682016040523d82523d6000602084013e6121ae565b606091505b5080935081925050508061220d576040517f08c379a000000000000000000000000000000000000000000000000000000000815260040180806020018281038252602c81526020018061306c602c913960400191505060405180910390fd5b61221882600061262e565b92505050919050565b600061222d82436126cf565b9050919050565b600060149054906101000a900460ff16156122b7576040517f08c379a000000000000000000000000000000000000000000000000000000000815260040180806020018281038252601c8152602001807f636f6e747261637420616c726561647920696e697469616c697a65640000000081525060200191505060405180910390fd5b6001600060146101000a81548160ff0219169083151502179055506122db33612a9a565b6122e4816119e8565b50565b6122f36000801b611c55565b821415612368576040517f08c379a000000000000000000000000000000000000000000000000000000000815260040180806020018281038252601d8152602001807f63616e6e6f7420636f6d6d6974207a65726f2072616e646f6d6e65737300000081525060200191505060405180910390fd5b6000801b600160008373ffffffffffffffffffffffffffffffffffffffff1673ffffffffffffffffffffffffffffffffffffffff16815260200190815260200160002054146124b7576000801b83141561240d576040517f08c379a000000000000000000000000000000000000000000000000000000000815260040180806020018281038252603b815260200180613031603b913960400191505060405180910390fd5b600061241884611c55565b9050600160008373ffffffffffffffffffffffffffffffffffffffff1673ffffffffffffffffffffffffffffffffffffffff1681526020019081526020016000205481146124b1576040517f08c379a000000000000000000000000000000000000000000000000000000000815260040180806020018281038252602d815260200180612e8f602d913960400191505060405180910390fd5b50612513565b6000801b8314612512576040517f08c379a000000000000000000000000000000000000000000000000000000000815260040180806020018281038252603c815260200180612dd3603c913960400191505060405180910390fd5b5b600080431461253557612530600143612bde90919063ffffffff16565b612538565b60005b9050612585436003600084815260200190815260200160002054866040516020018083815260200182815260200192505050604051602081830303815290604052805190602001206127ea565b82600160008473ffffffffffffffffffffffffffffffffffffffff1673ffffffffffffffffffffffffffffffffffffffff1681526020019081526020016000208190555050505050565b60006125db838361262e565b60001c905092915050565b6000808284816125f257fe5b049050600083858161260057fe5b0614156126105780915050612628565b6126246001826129c890919063ffffffff16565b9150505b92915050565b60006126446020836129c890919063ffffffff16565b835110156126ba576040517f08c379a00000000000000000000000000000000000000000000000000000000081526004018080602001828103825260148152602001807f736c6963696e67206f7574206f662072616e676500000000000000000000000081525060200191505060405180910390fd5b60006020830184015190508091505092915050565b60008183111561272a576040517f08c379a0000000000000000000000000000000000000000000000000000000008152600401808060200182810382526028815260200180612fbd6028913960400191505060405180910390fd5b600654831480612779575061274a60055483612bde90919063ffffffff16565b83118015612778575081600254101580612777575061277460025483612bde90919063ffffffff16565b83115b5b5b6127ce576040517f08c379a00000000000000000000000000000000000000000000000000000000081526004018080602001828103825260358152602001806130ec6035913960400191505060405180910390fd5b6003600084815260200190815260200160002054905092915050565b806003600084815260200190815260200160002081905550600061280c611c85565b838161281457fe5b06141561284d57600454600654101561284157600360006006548152602001908152602001600020600090555b81600681905550612936565b6000600554141561286c57816004819055506001600581905550612935565b60025460055411156128de57612883600454612c28565b6128a161289c60016004546129c890919063ffffffff16565b612c28565b6128b760026004546129c890919063ffffffff16565b6004819055506128d36001600554612bde90919063ffffffff16565b600581905550612934565b6002546005541415612916576128f5600454612c28565b61290b60016004546129c890919063ffffffff16565b600481905550612933565b61292c60016005546129c890919063ffffffff16565b6005819055505b5b5b5b5050565b600033905090565b60008083141561295557600090506129c2565b600082840290508284828161296657fe5b04146129bd576040517f08c379a0000000000000000000000000000000000000000000000000000000008152600401808060200182810382526021815260200180612f9c6021913960400191505060405180910390fd5b809150505b92915050565b600080828401905083811015612a46576040517f08c379a000000000000000000000000000000000000000000000000000000000815260040180806020018281038252601b8152602001807f536166654d6174683a206164646974696f6e206f766572666c6f77000000000081525060200191505060405180910390fd5b8091505092915050565b6000612a9283836040518060400160405280601a81526020017f536166654d6174683a206469766973696f6e206279207a65726f000000000000815250612c4c565b905092915050565b600073ffffffffffffffffffffffffffffffffffffffff168173ffffffffffffffffffffffffffffffffffffffff161415612b20576040517f08c379a0000000000000000000000000000000000000000000000000000000008152600401808060200182810382526026815260200180612e3d6026913960400191505060405180910390fd5b8073ffffffffffffffffffffffffffffffffffffffff166000809054906101000a900473ffffffffffffffffffffffffffffffffffffffff1673ffffffffffffffffffffffffffffffffffffffff167f8be0079c531659141344cd1fd0a4f28419497f9722a3daafe3b4186f6b6457e060405160405180910390a3806000806101000a81548173ffffffffffffffffffffffffffffffffffffffff021916908373ffffffffffffffffffffffffffffffffffffffff16021790555050565b6000612c2083836040518060400160405280601e81526020017f536166654d6174683a207375627472616374696f6e206f766572666c6f770000815250612d12565b905092915050565b6006548114612c495760036000828152602001908152602001600020600090555b50565b60008083118290612cf8576040517f08c379a00000000000000000000000000000000000000000000000000000000081526004018080602001828103825283818151815260200191508051906020019080838360005b83811015612cbd578082015181840152602081019050612ca2565b50505050905090810190601f168015612cea5780820380516001836020036101000a031916815260200191505b509250505060405180910390fd5b506000838581612d0457fe5b049050809150509392505050565b6000838311158290612dbf576040517f08c379a00000000000000000000000000000000000000000000000000000000081526004018080602001828103825283818151815260200191508051906020019080838360005b83811015612d84578082015181840152602081019050612d69565b50505050905090810190601f168015612db15780820380516001836020036101000a031916815260200191505b509250505060405180910390fd5b506000838503905080915050939250505056fe72616e646f6d6e6573732073686f756c64206265207a65726f206966207468657265206973206e6f2070726576696f757320636f6d6d69746d656e746572726f722063616c6c696e67206e756d62657256616c696461746f7273496e53657420707265636f6d70696c654f776e61626c653a206e6577206f776e657220697320746865207a65726f206164647265737372616e646f6d6e657373426c6f636b5265746574696f6e57696e646f772063616e6e6f74206265207a65726f636f6d6d69746d656e74206469646e2774206d617463682074686520706f737465642072616e646f6d6e6573736572726f722063616c6c696e672067657456657269666965645365616c4269746d617046726f6d48656164657220707265636f6d70696c656572726f722063616c6c696e672076616c696461746f725369676e65724164647265737346726f6d43757272656e7453657420707265636f6d70696c656572726f722063616c6c696e67206e756d62657256616c696461746f7273496e43757272656e7453657420707265636f6d70696c656572726f722063616c6c696e672076616c696461746f725369676e65724164647265737346726f6d53657420707265636f6d70696c65536166654d6174683a206d756c7469706c69636174696f6e206f766572666c6f7743616e6e6f742071756572792072616e646f6d6e657373206f662066757475726520626c6f636b736572726f722063616c6c696e67206672616374696f6e4d756c45787020707265636f6d70696c656572726f722063616c6c696e672067657445706f636853697a6520707265636f6d70696c6572616e646f6d6e6573732063616e6e6f74206265207a65726f20696620746865726520697320612070726576696f757320636f6d6d69746d656e746572726f722063616c6c696e6720676574506172656e745365616c4269746d617020707265636f6d70696c656572726f722063616c6c696e6720676574426c6f636b4e756d62657246726f6d48656164657220707265636f6d70696c656572726f722063616c6c696e67206861736848656164657220707265636f6d70696c6543616e6e6f742071756572792072616e646f6d6e657373206f6c646572207468616e207468652073746f72656420686973746f7279a265627a7a723158208ce5e56bfe9f8bc6c56bf93ec2a47fd1ff05e78b38dd86ae02ae752977c679c664736f6c634300050d0032",
  "source": "pragma solidity ^0.5.13;\n\nimport \"../Random.sol\";\n\ncontract RandomTest is Random(true) {\n  function addTestRandomness(uint256 blockNumber, bytes32 randomness) external {\n    addRandomness(blockNumber, randomness);\n  }\n  function getTestRandomness(uint256 blockNumber, uint256 cur) external view returns (bytes32) {\n    return _getBlockRandomness(blockNumber, cur);\n  }\n  function testRevealAndCommit(bytes32 randomness, bytes32 newCommitment, address proposer)\n    external\n  {\n    _revealAndCommit(randomness, newCommitment, proposer);\n  }\n}\n",
  "sourcePath": "/Users/beaver/Development/celo/celo-monorepo/packages/protocol/contracts/identity/test/RandomTest.sol",
  "compiler": {
    "name": "solc",
    "version": "0.5.13+commit.5b0b510c.Emscripten.clang"
  },
  "schemaVersion": "3.4.13",
  "updatedAt": "2024-03-05T15:18:24.446Z",
  "devdoc": {
    "methods": {
      "checkProofOfPossession(address,bytes,bytes)": {
        "params": {
          "blsKey": "The BLS public key that the validator is using for consensus, should pass proof  of possession. 48 bytes.",
          "blsPop": "The BLS public key proof-of-possession, which consists of a signature on the  account address. 96 bytes.",
          "sender": "The address signed by the BLS key to generate the proof of possession."
        },
        "return": "True upon success."
      },
      "computeCommitment(bytes32)": {
        "params": {
          "randomness": "The value for which the commitment hash is computed."
        },
        "return": "Commitment parameter."
      },
      "fractionMulExp(uint256,uint256,uint256,uint256,uint256,uint256)": {
        "params": {
          "_decimals": "precision",
          "aDenominator": "Denominator of first fraction",
          "aNumerator": "Numerator of first fraction",
          "bDenominator": "Denominator of exponentiated fraction",
          "bNumerator": "Numerator of exponentiated fraction",
          "exponent": "exponent to raise b to"
        },
        "return": "Numerator of the computed quantity (not reduced).Denominator of the computed quantity (not reduced)."
      },
      "getBlockNumberFromHeader(bytes)": {
        "params": {
          "header": "RLP encoded header"
        },
        "return": "Block number."
      },
      "getBlockRandomness(uint256)": {
        "params": {
          "blockNumber": "The number of block whose randomness value we want to know."
        },
        "return": "The associated randomness value."
      },
      "getEpochNumber()": {
        "return": "Current epoch number."
      },
      "getEpochNumberOfBlock(uint256)": {
        "params": {
          "blockNumber": "Block number where epoch number is calculated."
        },
        "return": "Epoch number."
      },
      "getEpochSize()": {
        "return": "The current epoch size in blocks."
      },
      "getParentSealBitmap(uint256)": {
        "params": {
          "blockNumber": "Block number to retrieve. Must be within 4 epochs of the current number."
        },
        "return": "Bitmap parent seal with set bits at indices corresponding to signing validators."
      },
      "getVerifiedSealBitmapFromHeader(bytes)": {
        "params": {
          "header": "RLP encoded header"
        },
        "return": "Bitmap parent seal with set bits at indices correspoinding to signing validators."
      },
      "getVersionNumber()": {
        "return": "Storage version of the contract.Major version of the contract.Minor version of the contract.Patch version of the contract."
      },
      "hashHeader(bytes)": {
        "params": {
          "header": "RLP encoded header"
        },
        "return": "Header hash."
      },
      "initialize(uint256)": {
        "params": {
          "_randomnessBlockRetentionWindow": "Number of old random blocks whose randomness values can be queried."
        }
      },
      "isOwner()": {
        "details": "Returns true if the caller is the current owner."
      },
      "minQuorumSize(uint256)": {
        "details": "Computed in celo-blockchain as int(math.Ceil(float64(2*valSet.Size()) / 3))"
      },
      "minQuorumSizeInCurrentSet()": {
        "return": "Byzantine quorum of validators."
      },
      "numberValidatorsInCurrentSet()": {
        "return": "Size of the current elected validator set."
      },
      "numberValidatorsInSet(uint256)": {
        "params": {
          "blockNumber": "Block number to retrieve the validator set from."
        },
        "return": "Size of the validator set."
      },
      "owner()": {
        "details": "Returns the address of the current owner."
      },
      "random()": {
        "return": "Returns the current randomness value."
      },
      "renounceOwnership()": {
        "details": "Leaves the contract without owner. It will not be possible to call `onlyOwner` functions anymore. Can only be called by the current owner.     * NOTE: Renouncing ownership will leave the contract without an owner, thereby removing any functionality that is only available to the owner."
      },
      "revealAndCommit(bytes32,bytes32,address)": {
        "details": "If the Random contract is pointed to by the Registry, the first transaction in a block should be a special transaction to address 0x0 with 64 bytes of data - the concatenated `randomness` and `newCommitment`. Before running regular transactions, this function should be called.",
        "params": {
          "newCommitment": "The hash of randomness that will be revealed in the future.",
          "proposer": "Address of the block proposer.",
          "randomness": "Bytes that will be added to the entropy pool."
        }
      },
      "setRandomnessBlockRetentionWindow(uint256)": {
        "params": {
          "value": "Number of old random blocks whose randomness values can be queried."
        }
      },
      "transferOwnership(address)": {
        "details": "Transfers ownership of the contract to a new account (`newOwner`). Can only be called by the current owner."
      },
      "validatorSignerAddressFromCurrentSet(uint256)": {
        "params": {
          "index": "Index of requested validator in the validator set."
        },
        "return": "Address of validator at the requested index."
      },
      "validatorSignerAddressFromSet(uint256,uint256)": {
        "params": {
          "blockNumber": "Block number to retrieve the validator set from.",
          "index": "Index of requested validator in the validator set."
        },
        "return": "Address of validator at the requested index."
      }
    }
  },
  "userdoc": {
    "methods": {
      "checkProofOfPossession(address,bytes,bytes)": {
        "notice": "Checks a BLS proof of possession."
      },
      "computeCommitment(bytes32)": {
        "notice": "Compute the commitment hash for a given randomness value."
      },
      "fractionMulExp(uint256,uint256,uint256,uint256,uint256,uint256)": {
        "notice": "calculate a * b^x for fractions a, b to `decimals` precision"
      },
      "getBlockNumberFromHeader(bytes)": {
        "notice": "Parses block number out of header."
      },
      "getBlockRandomness(uint256)": {
        "notice": "Get randomness values of previous blocks."
      },
      "getEpochNumber()": {
        "notice": "Returns the epoch number at a block."
      },
      "getEpochNumberOfBlock(uint256)": {
        "notice": "Returns the epoch number at a block."
      },
      "getEpochSize()": {
        "notice": "Returns the current epoch size in blocks."
      },
      "getParentSealBitmap(uint256)": {
        "notice": "Gets the parent seal bitmap from the header at the given block number."
      },
      "getVerifiedSealBitmapFromHeader(bytes)": {
        "notice": "Verifies the BLS signature on the header and returns the seal bitmap. The validator set used for verification is retrieved based on the parent hash field of the header.  If the parent hash is not in the blockchain, verification fails."
      },
      "getVersionNumber()": {
        "notice": "Returns the storage, major, minor, and patch version of the contract."
      },
      "hashHeader(bytes)": {
        "notice": "Computes hash of header."
      },
      "initialize(uint256)": {
        "notice": "Used in place of the constructor to allow the contract to be upgradable via proxy."
      },
      "minQuorumSize(uint256)": {
        "notice": "Returns the minimum number of required signers for a given block number."
      },
      "minQuorumSizeInCurrentSet()": {
        "notice": "Computes byzantine quorum from current validator set size"
      },
      "numberValidatorsInCurrentSet()": {
        "notice": "Gets the size of the current elected validator set."
      },
      "numberValidatorsInSet(uint256)": {
        "notice": "Gets the size of the validator set that must sign the given block number."
      },
      "random()": {
        "notice": "Querying the current randomness value."
      },
      "revealAndCommit(bytes32,bytes32,address)": {
        "notice": "Implements step of the randomness protocol."
      },
      "setRandomnessBlockRetentionWindow(uint256)": {
        "notice": "Sets the number of old random blocks whose randomness values can be queried."
      },
      "validatorSignerAddressFromCurrentSet(uint256)": {
        "notice": "Gets a validator address from the current validator set."
      },
      "validatorSignerAddressFromSet(uint256,uint256)": {
        "notice": "Gets a validator address from the validator set at the given block number."
      }
    }
  }
}