{
  "contractName": "UniswapFeeHandlerSeller",
  "abi": [
    {
      "inputs": [
        {
          "internalType": "bool",
          "name": "test",
          "type": "bool"
        }
      ],
      "payable": false,
      "stateMutability": "nonpayable",
      "type": "constructor"
    },
    {
      "anonymous": false,
      "inputs": [
        {
          "indexed": false,
          "internalType": "address",
          "name": "tokenAddress",
          "type": "address"
        },
        {
          "indexed": false,
          "internalType": "uint256",
          "name": "minimumReports",
          "type": "uint256"
        }
      ],
      "name": "MinimumReportsSet",
      "type": "event"
    },
    {
      "anonymous": false,
      "inputs": [
        {
          "indexed": true,
          "internalType": "address",
          "name": "previousOwner",
          "type": "address"
        },
        {
          "indexed": true,
          "internalType": "address",
          "name": "newOwner",
          "type": "address"
        }
      ],
      "name": "OwnershipTransferred",
      "type": "event"
    },
    {
      "anonymous": false,
      "inputs": [
        {
          "indexed": true,
          "internalType": "address",
          "name": "tokneAddress",
          "type": "address"
        },
        {
          "indexed": true,
          "internalType": "address",
          "name": "router",
          "type": "address"
        },
        {
          "indexed": false,
          "internalType": "uint256",
          "name": "quote",
          "type": "uint256"
        }
      ],
      "name": "ReceivedQuote",
      "type": "event"
    },
    {
      "anonymous": false,
      "inputs": [
        {
          "indexed": true,
          "internalType": "address",
          "name": "registryAddress",
          "type": "address"
        }
      ],
      "name": "RegistrySet",
      "type": "event"
    },
    {
      "anonymous": false,
      "inputs": [
        {
          "indexed": false,
          "internalType": "address",
          "name": "token",
          "type": "address"
        },
        {
          "indexed": false,
          "internalType": "address",
          "name": "router",
          "type": "address"
        }
      ],
      "name": "RouterAddressRemoved",
      "type": "event"
    },
    {
      "anonymous": false,
      "inputs": [
        {
          "indexed": false,
          "internalType": "address",
          "name": "token",
          "type": "address"
        },
        {
          "indexed": false,
          "internalType": "address",
          "name": "router",
          "type": "address"
        }
      ],
      "name": "RouterAddressSet",
      "type": "event"
    },
    {
      "anonymous": false,
      "inputs": [
        {
          "indexed": false,
          "internalType": "address",
          "name": "router",
          "type": "address"
        }
      ],
      "name": "RouterUsed",
      "type": "event"
    },
    {
      "anonymous": false,
      "inputs": [
        {
          "indexed": false,
          "internalType": "address",
          "name": "soldTokenAddress",
          "type": "address"
        },
        {
          "indexed": false,
          "internalType": "address",
          "name": "boughtTokenAddress",
          "type": "address"
        },
        {
          "indexed": false,
          "internalType": "uint256",
          "name": "amount",
          "type": "uint256"
        }
      ],
      "name": "TokenSold",
      "type": "event"
    },
    {
      "payable": true,
      "stateMutability": "payable",
      "type": "fallback"
    },
    {
      "constant": true,
      "inputs": [
        {
          "internalType": "uint256",
          "name": "midPriceNumerator",
          "type": "uint256"
        },
        {
          "internalType": "uint256",
          "name": "midPriceDenominator",
          "type": "uint256"
        },
        {
          "internalType": "uint256",
          "name": "amount",
          "type": "uint256"
        },
        {
          "internalType": "uint256",
          "name": "maxSlippage",
          "type": "uint256"
        }
      ],
      "name": "calculateMinAmount",
      "outputs": [
        {
          "internalType": "uint256",
          "name": "",
          "type": "uint256"
        }
      ],
      "payable": false,
      "stateMutability": "pure",
      "type": "function"
    },
    {
      "constant": false,
      "inputs": [
        {
          "internalType": "address",
          "name": "_registryAddress",
          "type": "address"
        },
        {
          "internalType": "address[]",
          "name": "tokenAddresses",
          "type": "address[]"
        },
        {
          "internalType": "uint256[]",
          "name": "newMininumReports",
          "type": "uint256[]"
        }
      ],
      "name": "initialize",
      "outputs": [],
      "payable": false,
      "stateMutability": "nonpayable",
      "type": "function"
    },
    {
      "constant": true,
      "inputs": [],
      "name": "initialized",
      "outputs": [
        {
          "internalType": "bool",
          "name": "",
          "type": "bool"
        }
      ],
      "payable": false,
      "stateMutability": "view",
      "type": "function"
    },
    {
      "constant": true,
      "inputs": [],
      "name": "isOwner",
      "outputs": [
        {
          "internalType": "bool",
          "name": "",
          "type": "bool"
        }
      ],
      "payable": false,
      "stateMutability": "view",
      "type": "function"
    },
    {
      "constant": true,
      "inputs": [
        {
          "internalType": "address",
          "name": "",
          "type": "address"
        }
      ],
      "name": "minimumReports",
      "outputs": [
        {
          "internalType": "uint256",
          "name": "",
          "type": "uint256"
        }
      ],
      "payable": false,
      "stateMutability": "view",
      "type": "function"
    },
    {
      "constant": true,
      "inputs": [],
      "name": "owner",
      "outputs": [
        {
          "internalType": "address",
          "name": "",
          "type": "address"
        }
      ],
      "payable": false,
      "stateMutability": "view",
      "type": "function"
    },
    {
      "constant": true,
      "inputs": [],
      "name": "registry",
      "outputs": [
        {
          "internalType": "contract IRegistry",
          "name": "",
          "type": "address"
        }
      ],
      "payable": false,
      "stateMutability": "view",
      "type": "function"
    },
    {
      "constant": false,
      "inputs": [],
      "name": "renounceOwnership",
      "outputs": [],
      "payable": false,
      "stateMutability": "nonpayable",
      "type": "function"
    },
    {
      "constant": false,
      "inputs": [
        {
          "internalType": "address",
          "name": "tokenAddress",
          "type": "address"
        },
        {
          "internalType": "uint256",
          "name": "newMininumReports",
          "type": "uint256"
        }
      ],
      "name": "setMinimumReports",
      "outputs": [],
      "payable": false,
      "stateMutability": "nonpayable",
      "type": "function"
    },
    {
      "constant": false,
      "inputs": [
        {
          "internalType": "address",
          "name": "registryAddress",
          "type": "address"
        }
      ],
      "name": "setRegistry",
      "outputs": [],
      "payable": false,
      "stateMutability": "nonpayable",
      "type": "function"
    },
    {
      "constant": false,
      "inputs": [
        {
          "internalType": "address",
          "name": "token",
          "type": "address"
        },
        {
          "internalType": "uint256",
          "name": "amount",
          "type": "uint256"
        },
        {
          "internalType": "address",
          "name": "to",
          "type": "address"
        }
      ],
      "name": "transfer",
      "outputs": [
        {
          "internalType": "bool",
          "name": "",
          "type": "bool"
        }
      ],
      "payable": false,
      "stateMutability": "nonpayable",
      "type": "function"
    },
    {
      "constant": false,
      "inputs": [
        {
          "internalType": "address",
          "name": "newOwner",
          "type": "address"
        }
      ],
      "name": "transferOwnership",
      "outputs": [],
      "payable": false,
      "stateMutability": "nonpayable",
      "type": "function"
    },
    {
      "constant": true,
      "inputs": [],
      "name": "getVersionNumber",
      "outputs": [
        {
          "internalType": "uint256",
          "name": "",
          "type": "uint256"
        },
        {
          "internalType": "uint256",
          "name": "",
          "type": "uint256"
        },
        {
          "internalType": "uint256",
          "name": "",
          "type": "uint256"
        },
        {
          "internalType": "uint256",
          "name": "",
          "type": "uint256"
        }
      ],
      "payable": false,
      "stateMutability": "pure",
      "type": "function"
    },
    {
      "constant": false,
      "inputs": [
        {
          "internalType": "address",
          "name": "token",
          "type": "address"
        },
        {
          "internalType": "address",
          "name": "router",
          "type": "address"
        }
      ],
      "name": "setRouter",
      "outputs": [],
      "payable": false,
      "stateMutability": "nonpayable",
      "type": "function"
    },
    {
      "constant": false,
      "inputs": [
        {
          "internalType": "address",
          "name": "token",
          "type": "address"
        },
        {
          "internalType": "address",
          "name": "router",
          "type": "address"
        }
      ],
      "name": "removeRouter",
      "outputs": [],
      "payable": false,
      "stateMutability": "nonpayable",
      "type": "function"
    },
    {
      "constant": true,
      "inputs": [
        {
          "internalType": "address",
          "name": "token",
          "type": "address"
        }
      ],
      "name": "getRoutersForToken",
      "outputs": [
        {
          "internalType": "address[]",
          "name": "",
          "type": "address[]"
        }
      ],
      "payable": false,
      "stateMutability": "view",
      "type": "function"
    },
    {
      "constant": false,
      "inputs": [
        {
          "internalType": "address",
          "name": "sellTokenAddress",
          "type": "address"
        },
        {
          "internalType": "address",
          "name": "buyTokenAddress",
          "type": "address"
        },
        {
          "internalType": "uint256",
          "name": "amount",
          "type": "uint256"
        },
        {
          "internalType": "uint256",
          "name": "maxSlippage",
          "type": "uint256"
        }
      ],
      "name": "sell",
      "outputs": [
        {
          "internalType": "uint256",
          "name": "",
          "type": "uint256"
        }
      ],
      "payable": false,
      "stateMutability": "nonpayable",
      "type": "function"
    }
  ],
  "bytecode": "0x60806040523480156200001157600080fd5b50604051620037bf380380620037bf833981810160405260208110156200003757600080fd5b81019080805190602001909291905050508060006200005b6200012360201b60201c565b9050806000806101000a81548173ffffffffffffffffffffffffffffffffffffffff021916908373ffffffffffffffffffffffffffffffffffffffff1602179055508073ffffffffffffffffffffffffffffffffffffffff16600073ffffffffffffffffffffffffffffffffffffffff167f8be0079c531659141344cd1fd0a4f28419497f9722a3daafe3b4186f6b6457e060405160405180910390a350806200011b576001600060146101000a81548160ff0219169083151502179055505b50506200012b565b600033905090565b613684806200013b6000396000f3fe6080604052600436106100fe5760003560e01c806373f0a07011610095578063a91ee0dc11610064578063a91ee0dc14610544578063dbba0f0114610595578063e4187b1314610628578063f2fde38b14610695578063ff1d5752146106e6576100fe565b806373f0a070146103f65780637b103999146104675780638da5cb5b146104be5780638f32d59b14610515576100fe565b806341d68b8f116100d157806341d68b8f146102c95780634e008cdb1461033a57806354255be01461039f578063715018a6146103df576100fe565b80630c2fef1414610100578063158ef93e146101a65780632f257aa0146101d557806331de7d1514610230575b005b34801561010c57600080fd5b5061014f6004803603602081101561012357600080fd5b81019080803573ffffffffffffffffffffffffffffffffffffffff1690602001909291905050506107e1565b6040518080602001828103825283818151815260200191508051906020019060200280838360005b83811015610192578082015181840152602081019050610177565b505050509050019250505060405180910390f35b3480156101b257600080fd5b506101bb6108b1565b604051808215151515815260200191505060405180910390f35b3480156101e157600080fd5b5061022e600480360360408110156101f857600080fd5b81019080803573ffffffffffffffffffffffffffffffffffffffff169060200190929190803590602001909291905050506108c4565b005b34801561023c57600080fd5b506102b36004803603608081101561025357600080fd5b81019080803573ffffffffffffffffffffffffffffffffffffffff169060200190929190803573ffffffffffffffffffffffffffffffffffffffff169060200190929190803590602001909291908035906020019092919050505061094c565b6040518082815260200191505060405180910390f35b3480156102d557600080fd5b50610338600480360360408110156102ec57600080fd5b81019080803573ffffffffffffffffffffffffffffffffffffffff169060200190929190803573ffffffffffffffffffffffffffffffffffffffff1690602001909291905050506114a9565b005b34801561034657600080fd5b506103896004803603602081101561035d57600080fd5b81019080803573ffffffffffffffffffffffffffffffffffffffff169060200190929190505050611531565b6040518082815260200191505060405180910390f35b3480156103ab57600080fd5b506103b4611549565b6040518085815260200184815260200183815260200182815260200194505050505060405180910390f35b3480156103eb57600080fd5b506103f461156f565b005b34801561040257600080fd5b506104656004803603604081101561041957600080fd5b81019080803573ffffffffffffffffffffffffffffffffffffffff169060200190929190803573ffffffffffffffffffffffffffffffffffffffff1690602001909291905050506116a8565b005b34801561047357600080fd5b5061047c61180f565b604051808273ffffffffffffffffffffffffffffffffffffffff1673ffffffffffffffffffffffffffffffffffffffff16815260200191505060405180910390f35b3480156104ca57600080fd5b506104d3611835565b604051808273ffffffffffffffffffffffffffffffffffffffff1673ffffffffffffffffffffffffffffffffffffffff16815260200191505060405180910390f35b34801561052157600080fd5b5061052a61185e565b604051808215151515815260200191505060405180910390f35b34801561055057600080fd5b506105936004803603602081101561056757600080fd5b81019080803573ffffffffffffffffffffffffffffffffffffffff1690602001909291905050506118bc565b005b3480156105a157600080fd5b5061060e600480360360608110156105b857600080fd5b81019080803573ffffffffffffffffffffffffffffffffffffffff16906020019092919080359060200190929190803573ffffffffffffffffffffffffffffffffffffffff169060200190929190505050611a60565b604051808215151515815260200191505060405180910390f35b34801561063457600080fd5b5061067f6004803603608081101561064b57600080fd5b8101908080359060200190929190803590602001909291908035906020019092919080359060200190929190505050611ba7565b6040518082815260200191505060405180910390f35b3480156106a157600080fd5b506106e4600480360360208110156106b857600080fd5b81019080803573ffffffffffffffffffffffffffffffffffffffff169060200190929190505050611c4d565b005b3480156106f257600080fd5b506107df6004803603606081101561070957600080fd5b81019080803573ffffffffffffffffffffffffffffffffffffffff1690602001909291908035906020019064010000000081111561074657600080fd5b82018360208201111561075857600080fd5b8035906020019184602083028401116401000000008311171561077a57600080fd5b90919293919293908035906020019064010000000081111561079b57600080fd5b8201836020820111156107ad57600080fd5b803590602001918460208302840111640100000000831117156107cf57600080fd5b9091929391929390505050611cd3565b005b6060600360008373ffffffffffffffffffffffffffffffffffffffff1673ffffffffffffffffffffffffffffffffffffffff1681526020019081526020016000206001018054806020026020016040519081016040528092919081815260200182805480156108a557602002820191906000526020600020905b8160009054906101000a900473ffffffffffffffffffffffffffffffffffffffff1673ffffffffffffffffffffffffffffffffffffffff168152602001906001019080831161085b575b50505050509050919050565b600060149054906101000a900460ff1681565b6108cc61185e565b61093e576040517f08c379a00000000000000000000000000000000000000000000000000000000081526004018080602001828103825260208152602001807f4f776e61626c653a2063616c6c6572206973206e6f7420746865206f776e657281525060200191505060405180910390fd5b6109488282611ded565b5050565b6000600160009054906101000a900473ffffffffffffffffffffffffffffffffffffffff1673ffffffffffffffffffffffffffffffffffffffff1663dcf0aaed60405160200180807f476f6c64546f6b656e00000000000000000000000000000000000000000000008152506009019050604051602081830303815290604052805190602001206040518263ffffffff1660e01b81526004018082815260200191505060206040518083038186803b158015610a0757600080fd5b505afa158015610a1b573d6000803e3d6000fd5b505050506040513d6020811015610a3157600080fd5b810190808051906020019092919050505073ffffffffffffffffffffffffffffffffffffffff168473ffffffffffffffffffffffffffffffffffffffff1614610ae2576040517f08c379a00000000000000000000000000000000000000000000000000000000081526004018080602001828103825260208152602001807f42757920746f6b656e2063616e206f6e6c7920626520676f6c6420746f6b656e81525060200191505060405180910390fd5b6000600360008773ffffffffffffffffffffffffffffffffffffffff1673ffffffffffffffffffffffffffffffffffffffff1681526020019081526020016000206001018054905011610b80576040517f08c379a00000000000000000000000000000000000000000000000000000000081526004018080602001828103825260238152602001806135ab6023913960400191505060405180910390fd5b6000610b8a611ea0565b90506000806000905060606002604051908082528060200260200182016040528015610bc55781602001602082028038833980820191505090505b5090508881600081518110610bd657fe5b602002602001019073ffffffffffffffffffffffffffffffffffffffff16908173ffffffffffffffffffffffffffffffffffffffff16815250508381600181518110610c1e57fe5b602002602001019073ffffffffffffffffffffffffffffffffffffffff16908173ffffffffffffffffffffffffffffffffffffffff168152505060008090505b600360008b73ffffffffffffffffffffffffffffffffffffffff1673ffffffffffffffffffffffffffffffffffffffff16815260200190815260200160002060010180549050811015610f10576000610cfe82600360008e73ffffffffffffffffffffffffffffffffffffffff1673ffffffffffffffffffffffffffffffffffffffff168152602001908152602001600020611f9b90919063ffffffff16565b9050600081905060008173ffffffffffffffffffffffffffffffffffffffff1663d06ca61f8c876040518363ffffffff1660e01b81526004018083815260200180602001828103825283818151815260200191508051906020019060200280838360005b83811015610d7d578082015181840152602081019050610d62565b50505050905001935050505060006040518083038186803b158015610da157600080fd5b505afa158015610db5573d6000803e3d6000fd5b505050506040513d6000823e3d601f19601f820116820180604052506020811015610ddf57600080fd5b8101908080516040519392919084640100000000821115610dff57600080fd5b83820191506020820185811115610e1557600080fd5b8251866020820283011164010000000082111715610e3257600080fd5b8083526020830192505050908051906020019060200280838360005b83811015610e69578082015181840152602081019050610e4e565b50505050905001604052505050600181518110610e8257fe5b602002602001015190508273ffffffffffffffffffffffffffffffffffffffff168d73ffffffffffffffffffffffffffffffffffffffff167fba55c28acee19777ec6c603117b386d3e3b39886c0d3d53bc244be24ee6e7c84836040518082815260200191505060405180910390a385811115610f00578095508196505b5050508080600101915050610c5e565b506000821415610f88576040517f08c379a000000000000000000000000000000000000000000000000000000000815260040180806020018281038252601e8152602001807f43616e27742065786368616e67652077697468207a65726f2071756f7465000081525060200191505060405180910390fd5b6000809050610f998a888a87611fdf565b90508973ffffffffffffffffffffffffffffffffffffffff1663095ea7b3858a6040518363ffffffff1660e01b8152600401808373ffffffffffffffffffffffffffffffffffffffff1673ffffffffffffffffffffffffffffffffffffffff16815260200182815260200192505050602060405180830381600087803b15801561102257600080fd5b505af1158015611036573d6000803e3d6000fd5b505050506040513d602081101561104c57600080fd5b8101908080519060200190929190505050508373ffffffffffffffffffffffffffffffffffffffff166338ed173989838530601442016040518663ffffffff1660e01b815260040180868152602001858152602001806020018473ffffffffffffffffffffffffffffffffffffffff1673ffffffffffffffffffffffffffffffffffffffff168152602001838152602001828103825285818151815260200191508051906020019060200280838360005b838110156111185780820151818401526020810190506110fd565b505050509050019650505050505050600060405180830381600087803b15801561114157600080fd5b505af1158015611155573d6000803e3d6000fd5b505050506040513d6000823e3d601f19601f82011682018060405250602081101561117f57600080fd5b810190808051604051939291908464010000000082111561119f57600080fd5b838201915060208201858111156111b557600080fd5b82518660208202830111640100000000821117156111d257600080fd5b8083526020830192505050908051906020019060200280838360005b838110156112095780820151818401526020810190506111ee565b505050509050016040525050505060008573ffffffffffffffffffffffffffffffffffffffff166370a08231306040518263ffffffff1660e01b8152600401808273ffffffffffffffffffffffffffffffffffffffff1673ffffffffffffffffffffffffffffffffffffffff16815260200191505060206040518083038186803b15801561129657600080fd5b505afa1580156112aa573d6000803e3d6000fd5b505050506040513d60208110156112c057600080fd5b810190808051906020019092919050505090508573ffffffffffffffffffffffffffffffffffffffff1663a9059cbb33836040518363ffffffff1660e01b8152600401808373ffffffffffffffffffffffffffffffffffffffff1673ffffffffffffffffffffffffffffffffffffffff16815260200182815260200192505050602060405180830381600087803b15801561135a57600080fd5b505af115801561136e573d6000803e3d6000fd5b505050506040513d602081101561138457600080fd5b8101908080519060200190929190505050507f59afd9b3bf745a06d8739721397432b9f161243cee13868b9d6d6fca05b6e55185604051808273ffffffffffffffffffffffffffffffffffffffff1673ffffffffffffffffffffffffffffffffffffffff16815260200191505060405180910390a17fd4cffd6979677853b45a7a17f455188a434e975ba474c5a2613c94beacea537a8b8b8b604051808473ffffffffffffffffffffffffffffffffffffffff1673ffffffffffffffffffffffffffffffffffffffff1681526020018373ffffffffffffffffffffffffffffffffffffffff1673ffffffffffffffffffffffffffffffffffffffff168152602001828152602001935050505060405180910390a1809650505050505050949350505050565b6114b161185e565b611523576040517f08c379a00000000000000000000000000000000000000000000000000000000081526004018080602001828103825260208152602001807f4f776e61626c653a2063616c6c6572206973206e6f7420746865206f776e657281525060200191505060405180910390fd5b61152d828261253b565b5050565b60026020528060005260406000206000915090505481565b600080600080600180600080839350829250819150809050935093509350935090919293565b61157761185e565b6115e9576040517f08c379a00000000000000000000000000000000000000000000000000000000081526004018080602001828103825260208152602001807f4f776e61626c653a2063616c6c6572206973206e6f7420746865206f776e657281525060200191505060405180910390fd5b600073ffffffffffffffffffffffffffffffffffffffff166000809054906101000a900473ffffffffffffffffffffffffffffffffffffffff1673ffffffffffffffffffffffffffffffffffffffff167f8be0079c531659141344cd1fd0a4f28419497f9722a3daafe3b4186f6b6457e060405160405180910390a360008060006101000a81548173ffffffffffffffffffffffffffffffffffffffff021916908373ffffffffffffffffffffffffffffffffffffffff160217905550565b6116b061185e565b611722576040517f08c379a00000000000000000000000000000000000000000000000000000000081526004018080602001828103825260208152602001807f4f776e61626c653a2063616c6c6572206973206e6f7420746865206f776e657281525060200191505060405180910390fd5b61177381600360008573ffffffffffffffffffffffffffffffffffffffff1673ffffffffffffffffffffffffffffffffffffffff16815260200190815260200160002061278690919063ffffffff16565b507f044c4b00bcc14b6c00430f73b8bc07f33aecb2387c7b188142d6d497342de89a8282604051808373ffffffffffffffffffffffffffffffffffffffff1673ffffffffffffffffffffffffffffffffffffffff1681526020018273ffffffffffffffffffffffffffffffffffffffff1673ffffffffffffffffffffffffffffffffffffffff1681526020019250505060405180910390a15050565b600160009054906101000a900473ffffffffffffffffffffffffffffffffffffffff1681565b60008060009054906101000a900473ffffffffffffffffffffffffffffffffffffffff16905090565b60008060009054906101000a900473ffffffffffffffffffffffffffffffffffffffff1673ffffffffffffffffffffffffffffffffffffffff166118a0612974565b73ffffffffffffffffffffffffffffffffffffffff1614905090565b6118c461185e565b611936576040517f08c379a00000000000000000000000000000000000000000000000000000000081526004018080602001828103825260208152602001807f4f776e61626c653a2063616c6c6572206973206e6f7420746865206f776e657281525060200191505060405180910390fd5b600073ffffffffffffffffffffffffffffffffffffffff168173ffffffffffffffffffffffffffffffffffffffff1614156119d9576040517f08c379a00000000000000000000000000000000000000000000000000000000081526004018080602001828103825260208152602001807f43616e6e6f7420726567697374657220746865206e756c6c206164647265737381525060200191505060405180910390fd5b80600160006101000a81548173ffffffffffffffffffffffffffffffffffffffff021916908373ffffffffffffffffffffffffffffffffffffffff1602179055508073ffffffffffffffffffffffffffffffffffffffff167f27fe5f0c1c3b1ed427cc63d0f05759ffdecf9aec9e18d31ef366fc8a6cb5dc3b60405160405180910390a250565b6000611a6a61185e565b611adc576040517f08c379a00000000000000000000000000000000000000000000000000000000081526004018080602001828103825260208152602001807f4f776e61626c653a2063616c6c6572206973206e6f7420746865206f776e657281525060200191505060405180910390fd5b8373ffffffffffffffffffffffffffffffffffffffff1663a9059cbb83856040518363ffffffff1660e01b8152600401808373ffffffffffffffffffffffffffffffffffffffff1673ffffffffffffffffffffffffffffffffffffffff16815260200182815260200192505050602060405180830381600087803b158015611b6357600080fd5b505af1158015611b77573d6000803e3d6000fd5b505050506040513d6020811015611b8d57600080fd5b810190808051906020019092919050505090509392505050565b6000611bb1613597565b611bba8361297c565b9050611bc4613597565b611bce878761299a565b9050611bd8613597565b611be1866129dc565b9050611beb613597565b611bfe8284612a6690919063ffffffff16565b9050611c3f611c3a611c2b84611c1d8888612a6690919063ffffffff16565b612a6690919063ffffffff16565b83612ec590919063ffffffff16565b612f6c565b945050505050949350505050565b611c5561185e565b611cc7576040517f08c379a00000000000000000000000000000000000000000000000000000000081526004018080602001828103825260208152602001807f4f776e61626c653a2063616c6c6572206973206e6f7420746865206f776e657281525060200191505060405180910390fd5b611cd081612f8d565b50565b600060149054906101000a900460ff1615611d56576040517f08c379a000000000000000000000000000000000000000000000000000000000815260040180806020018281038252601c8152602001807f636f6e747261637420616c726561647920696e697469616c697a65640000000081525060200191505060405180910390fd5b6001600060146101000a81548160ff021916908315150217905550611d7a33612f8d565b611d83856118bc565b60008090505b84849050811015611de557611dd8858583818110611da357fe5b9050602002013573ffffffffffffffffffffffffffffffffffffffff16848484818110611dcc57fe5b90506020020135611ded565b8080600101915050611d89565b505050505050565b80600260008473ffffffffffffffffffffffffffffffffffffffff1673ffffffffffffffffffffffffffffffffffffffff168152602001908152602001600020819055507f03cc7dddcb89dd90027bd8fa62d09d1b5c49ce5d20f8c9bb6bdeaaa62ea1718b8282604051808373ffffffffffffffffffffffffffffffffffffffff1673ffffffffffffffffffffffffffffffffffffffff1681526020018281526020019250505060405180910390a15050565b6000600160009054906101000a900473ffffffffffffffffffffffffffffffffffffffff1673ffffffffffffffffffffffffffffffffffffffff1663dcf0aaed60405160200180807f476f6c64546f6b656e00000000000000000000000000000000000000000000008152506009019050604051602081830303815290604052805190602001206040518263ffffffff1660e01b81526004018082815260200191505060206040518083038186803b158015611f5b57600080fd5b505afa158015611f6f573d6000803e3d6000fd5b505050506040513d6020811015611f8557600080fd5b8101908080519060200190929190505050905090565b6000826001018281548110611fac57fe5b9060005260206000200160009054906101000a900473ffffffffffffffffffffffffffffffffffffffff16905092915050565b600080611fea6130d1565b90506000600260008873ffffffffffffffffffffffffffffffffffffffff1673ffffffffffffffffffffffffffffffffffffffff168152602001908152602001600020549050808273ffffffffffffffffffffffffffffffffffffffff1663bbc66a94896040518263ffffffff1660e01b8152600401808273ffffffffffffffffffffffffffffffffffffffff1673ffffffffffffffffffffffffffffffffffffffff16815260200191505060206040518083038186803b1580156120ae57600080fd5b505afa1580156120c2573d6000803e3d6000fd5b505050506040513d60208110156120d857600080fd5b81019080805190602001909291905050501015612140576040517f08c379a000000000000000000000000000000000000000000000000000000000815260040180806020018281038252602681526020018061362a6026913960400191505060405180910390fd5b60008090506000821115612227576000808473ffffffffffffffffffffffffffffffffffffffff1663ef90e1b08b6040518263ffffffff1660e01b8152600401808273ffffffffffffffffffffffffffffffffffffffff1673ffffffffffffffffffffffffffffffffffffffff168152602001915050604080518083038186803b1580156121cd57600080fd5b505afa1580156121e1573d6000803e3d6000fd5b505050506040513d60408110156121f757600080fd5b8101908080519060200190929190805190602001909291905050509150915061222282828a8c611ba7565b925050505b6000612231611ea0565b905060008673ffffffffffffffffffffffffffffffffffffffff1663c45a01556040518163ffffffff1660e01b815260040160206040518083038186803b15801561227b57600080fd5b505afa15801561228f573d6000803e3d6000fd5b505050506040513d60208110156122a557600080fd5b810190808051906020019092919050505073ffffffffffffffffffffffffffffffffffffffff1663e6a439058b846040518363ffffffff1660e01b8152600401808373ffffffffffffffffffffffffffffffffffffffff1673ffffffffffffffffffffffffffffffffffffffff1681526020018273ffffffffffffffffffffffffffffffffffffffff1673ffffffffffffffffffffffffffffffffffffffff1681526020019250505060206040518083038186803b15801561236657600080fd5b505afa15801561237a573d6000803e3d6000fd5b505050506040513d602081101561239057600080fd5b81019080805190602001909291905050509050600061251f8b73ffffffffffffffffffffffffffffffffffffffff166370a08231846040518263ffffffff1660e01b8152600401808273ffffffffffffffffffffffffffffffffffffffff1673ffffffffffffffffffffffffffffffffffffffff16815260200191505060206040518083038186803b15801561242557600080fd5b505afa158015612439573d6000803e3d6000fd5b505050506040513d602081101561244f57600080fd5b81019080805190602001909291905050508473ffffffffffffffffffffffffffffffffffffffff166370a08231856040518263ffffffff1660e01b8152600401808273ffffffffffffffffffffffffffffffffffffffff1673ffffffffffffffffffffffffffffffffffffffff16815260200191505060206040518083038186803b1580156124dd57600080fd5b505afa1580156124f1573d6000803e3d6000fd5b505050506040513d602081101561250757600080fd5b81019080805190602001909291905050508b8d611ba7565b905061252b81856131cc565b9650505050505050949350505050565b600073ffffffffffffffffffffffffffffffffffffffff168173ffffffffffffffffffffffffffffffffffffffff1614156125de576040517f08c379a000000000000000000000000000000000000000000000000000000000815260040180806020018281038252601c8152602001807f526f757465722063616e27742062652061646472657373207a65726f0000000081525060200191505060405180910390fd5b61262f81600360008573ffffffffffffffffffffffffffffffffffffffff1673ffffffffffffffffffffffffffffffffffffffff1681526020019081526020016000206131e690919063ffffffff16565b5060038060008473ffffffffffffffffffffffffffffffffffffffff1673ffffffffffffffffffffffffffffffffffffffff1681526020019081526020016000206001018054905011156126eb576040517f08c379a000000000000000000000000000000000000000000000000000000000815260040180806020018281038252601d8152602001807f4d6178206e756d626572206f6620726f7574657273207265616368656400000081525060200191505060405180910390fd5b7fb3cbb74e835466bdbf8838b1acb70fa4a8b73e1a00cd5bacb9f68cf4dfc79cf38282604051808373ffffffffffffffffffffffffffffffffffffffff1673ffffffffffffffffffffffffffffffffffffffff1681526020018273ffffffffffffffffffffffffffffffffffffffff1673ffffffffffffffffffffffffffffffffffffffff1681526020019250505060405180910390a15050565b600061279283836132b6565b1561296957600060018460000160008573ffffffffffffffffffffffffffffffffffffffff1673ffffffffffffffffffffffffffffffffffffffff168152602001908152602001600020540390506000600185600101805490500390508181146128d757600085600101828154811061280757fe5b9060005260206000200160009054906101000a900473ffffffffffffffffffffffffffffffffffffffff1690508086600101848154811061284457fe5b9060005260206000200160006101000a81548173ffffffffffffffffffffffffffffffffffffffff021916908373ffffffffffffffffffffffffffffffffffffffff160217905550600183018660000160008373ffffffffffffffffffffffffffffffffffffffff1673ffffffffffffffffffffffffffffffffffffffff16815260200190815260200160002081905550505b8460000160008573ffffffffffffffffffffffffffffffffffffffff1673ffffffffffffffffffffffffffffffffffffffff168152602001908152602001600020600090558460010180548061292957fe5b6001900381819060005260206000200160006101000a81549073ffffffffffffffffffffffffffffffffffffffff0219169055905560019250505061296e565b600090505b92915050565b600033905090565b612984613597565b6040518060200160405280838152509050919050565b6129a2613597565b6129aa613597565b6129b3846129dc565b90506129bd613597565b6129c6846129dc565b90506129d28282613305565b9250505092915050565b6129e4613597565b6129ec61344e565b821115612a44576040517f08c379a00000000000000000000000000000000000000000000000000000000081526004018080602001828103825260368152602001806135f46036913960400191505060405180910390fd5b604051806020016040528069d3c21bcecceda100000084028152509050919050565b612a6e613597565b600083600001511480612a85575060008260000151145b15612aa157604051806020016040528060008152509050612ebf565b69d3c21bcecceda100000082600001511415612abf57829050612ebf565b69d3c21bcecceda100000083600001511415612add57819050612ebf565b600069d3c21bcecceda1000000612af38561346d565b6000015181612afe57fe5b0490506000612b0c856134a4565b600001519050600069d3c21bcecceda1000000612b288661346d565b6000015181612b3357fe5b0490506000612b41866134a4565b6000015190506000828502905060008514612bd55782858281612b6057fe5b0414612bd4576040517f08c379a00000000000000000000000000000000000000000000000000000000081526004018080602001828103825260168152602001807f6f766572666c6f7720783179312064657465637465640000000000000000000081525060200191505060405180910390fd5b5b600069d3c21bcecceda10000008202905060008214612c775769d3c21bcecceda1000000828281612c0257fe5b0414612c76576040517f08c379a000000000000000000000000000000000000000000000000000000000815260040180806020018281038252601f8152602001807f6f766572666c6f772078317931202a206669786564312064657465637465640081525060200191505060405180910390fd5b5b8091506000848602905060008614612d085784868281612c9357fe5b0414612d07576040517f08c379a00000000000000000000000000000000000000000000000000000000081526004018080602001828103825260168152602001807f6f766572666c6f7720783279312064657465637465640000000000000000000081525060200191505060405180910390fd5b5b6000848802905060008814612d965784888281612d2157fe5b0414612d95576040517f08c379a00000000000000000000000000000000000000000000000000000000081526004018080602001828103825260168152602001807f6f766572666c6f7720783179322064657465637465640000000000000000000081525060200191505060405180910390fd5b5b612d9e6134e1565b8781612da657fe5b049650612db16134e1565b8581612db957fe5b0494506000858802905060008814612e4a5785888281612dd557fe5b0414612e49576040517f08c379a00000000000000000000000000000000000000000000000000000000081526004018080602001828103825260168152602001807f6f766572666c6f7720783279322064657465637465640000000000000000000081525060200191505060405180910390fd5b5b612e52613597565b6040518060200160405280878152509050612e7b816040518060200160405280878152506134ee565b9050612e95816040518060200160405280868152506134ee565b9050612eaf816040518060200160405280858152506134ee565b9050809a50505050505050505050505b92915050565b612ecd613597565b816000015183600001511015612f4b576040517f08c379a000000000000000000000000000000000000000000000000000000000815260040180806020018281038252601f8152602001807f737562737472616374696f6e20756e646572666c6f772064657465637465640081525060200191505060405180910390fd5b60405180602001604052808360000151856000015103815250905092915050565b600069d3c21bcecceda1000000826000015181612f8557fe5b049050919050565b600073ffffffffffffffffffffffffffffffffffffffff168173ffffffffffffffffffffffffffffffffffffffff161415613013576040517f08c379a00000000000000000000000000000000000000000000000000000000081526004018080602001828103825260268152602001806135ce6026913960400191505060405180910390fd5b8073ffffffffffffffffffffffffffffffffffffffff166000809054906101000a900473ffffffffffffffffffffffffffffffffffffffff1673ffffffffffffffffffffffffffffffffffffffff167f8be0079c531659141344cd1fd0a4f28419497f9722a3daafe3b4186f6b6457e060405160405180910390a3806000806101000a81548173ffffffffffffffffffffffffffffffffffffffff021916908373ffffffffffffffffffffffffffffffffffffffff16021790555050565b6000600160009054906101000a900473ffffffffffffffffffffffffffffffffffffffff1673ffffffffffffffffffffffffffffffffffffffff1663dcf0aaed60405160200180807f536f727465644f7261636c657300000000000000000000000000000000000000815250600d019050604051602081830303815290604052805190602001206040518263ffffffff1660e01b81526004018082815260200191505060206040518083038186803b15801561318c57600080fd5b505afa1580156131a0573d6000803e3d6000fd5b505050506040513d60208110156131b657600080fd5b8101908080519060200190929190505050905090565b6000818310156131dc57816131de565b825b905092915050565b60006131f283836132b6565b6132ab57826001018290806001815401808255809150509060018203906000526020600020016000909192909190916101000a81548173ffffffffffffffffffffffffffffffffffffffff021916908373ffffffffffffffffffffffffffffffffffffffff1602179055508360000160008473ffffffffffffffffffffffffffffffffffffffff1673ffffffffffffffffffffffffffffffffffffffff16815260200190815260200160002081905550600190506132b0565b600090505b92915050565b6000808360000160008473ffffffffffffffffffffffffffffffffffffffff1673ffffffffffffffffffffffffffffffffffffffff168152602001908152602001600020541415905092915050565b61330d613597565b600082600001511415613388576040517f08c379a00000000000000000000000000000000000000000000000000000000081526004018080602001828103825260118152602001807f63616e277420646976696465206279203000000000000000000000000000000081525060200191505060405180910390fd5b600069d3c21bcecceda10000008460000151029050836000015169d3c21bcecceda100000082816133b557fe5b0414613429576040517f08c379a00000000000000000000000000000000000000000000000000000000081526004018080602001828103825260128152602001807f6f766572666c6f7720617420646976696465000000000000000000000000000081525060200191505060405180910390fd5b60405180602001604052808460000151838161344157fe5b0481525091505092915050565b60007601357c299a88ea76a58924d52ce4f26a85af186c2b9e74905090565b613475613597565b604051806020016040528069d3c21bcecceda10000008085600001518161349857fe5b04028152509050919050565b6134ac613597565b604051806020016040528069d3c21bcecceda1000000808560000151816134cf57fe5b04028460000151038152509050919050565b600064e8d4a51000905090565b6134f6613597565b600082600001518460000151019050836000015181101561357f576040517f08c379a00000000000000000000000000000000000000000000000000000000081526004018080602001828103825260158152602001807f616464206f766572666c6f77206465746563746564000000000000000000000081525060200191505060405180910390fd5b60405180602001604052808281525091505092915050565b604051806020016040528060008152509056fe726f757465724164647265737365732073686f756c64206265206e6f6e20656d7074794f776e61626c653a206e6577206f776e657220697320746865207a65726f206164647265737363616e277420637265617465206669786964697479206e756d626572206c6172676572207468616e206d61784e6577466978656428294e756d626572206f66207265706f72747320666f7220746f6b656e206e6f7420656e6f756768a265627a7a72315820cb9164d30c542cce20338d1c11c6c3f60cd08a27b0b5a0e8a33f5393393417a164736f6c634300050d0032",
  "source": "pragma solidity ^0.5.13;\n\nimport \"openzeppelin-solidity/contracts/math/SafeMath.sol\";\nimport \"openzeppelin-solidity/contracts/token/ERC20/IERC20.sol\";\nimport \"openzeppelin-solidity/contracts/utils/EnumerableSet.sol\";\nimport \"openzeppelin-solidity/contracts/ownership/Ownable.sol\";\nimport \"openzeppelin-solidity/contracts/math/Math.sol\";\n\nimport \"./UsingRegistry.sol\";\n\nimport \"../common/interfaces/IFeeHandlerSeller.sol\";\nimport \"../stability/interfaces/ISortedOracles.sol\";\nimport \"../common/FixidityLib.sol\";\nimport \"../common/Initializable.sol\";\nimport \"./FeeHandlerSeller.sol\";\n\nimport \"../uniswap/interfaces/IUniswapV2RouterMin.sol\";\nimport \"../uniswap/interfaces/IUniswapV2FactoryMin.sol\";\n\n// An implementation of FeeHandlerSeller supporting interfaces compatible with\n// Uniswap V2 API\n// See https://github.com/celo-org/celo-proposals/blob/master/CIPs/cip-0052.md\ncontract UniswapFeeHandlerSeller is IFeeHandlerSeller, FeeHandlerSeller {\n  using SafeMath for uint256;\n  using FixidityLib for FixidityLib.Fraction;\n  using EnumerableSet for EnumerableSet.AddressSet;\n\n  uint256 constant MAX_TIMESTAMP_BLOCK_EXCHANGE = 20;\n  uint256 constant MAX_NUMBER_ROUTERS_PER_TOKEN = 3;\n  mapping(address => EnumerableSet.AddressSet) private routerAddresses;\n\n  event ReceivedQuote(address indexed tokneAddress, address indexed router, uint256 quote);\n  event RouterUsed(address router);\n  event RouterAddressSet(address token, address router);\n  event RouterAddressRemoved(address token, address router);\n\n  /**\n   * @notice Sets initialized == true on implementation contracts.\n   * @param test Set to true to skip implementation initialisation.\n   */\n  constructor(bool test) public Initializable(test) {}\n\n  // without this line the contract can't receive native Celo transfers\n  function() external payable {}\n\n  /**\n   * @notice Returns the storage, major, minor, and patch version of the contract.\n   * @return Storage version of the contract.\n   * @return Major version of the contract.\n   * @return Minor version of the contract.\n   * @return Patch version of the contract.\n   */\n  function getVersionNumber() external pure returns (uint256, uint256, uint256, uint256) {\n    return (1, 1, 0, 0);\n  }\n\n  /**\n    * @notice Allows owner to set the router for a token.\n    * @param token Address of the token to set.\n    * @param router The new router.\n    */\n  function setRouter(address token, address router) external onlyOwner {\n    _setRouter(token, router);\n  }\n\n  function _setRouter(address token, address router) private {\n    require(router != address(0), \"Router can't be address zero\");\n    routerAddresses[token].add(router);\n    require(\n      routerAddresses[token].values.length <= MAX_NUMBER_ROUTERS_PER_TOKEN,\n      \"Max number of routers reached\"\n    );\n    emit RouterAddressSet(token, router);\n  }\n\n  /**\n    * @notice Allows owner to remove a router for a token.\n    * @param token Address of the token.\n    * @param router Address of the router to remove.\n    */\n  function removeRouter(address token, address router) external onlyOwner {\n    routerAddresses[token].remove(router);\n    emit RouterAddressRemoved(token, router);\n  }\n\n  /**\n    * @notice Get the list of routers for a token.\n    * @param token The address of the token to query.\n    * @return An array of all the allowed router.\n    */\n  function getRoutersForToken(address token) external view returns (address[] memory) {\n    return routerAddresses[token].values;\n  }\n\n  /**\n  * @dev Calculates the minimum amount of tokens that can be received for a given amount of sell tokens, \n          taking into account the slippage and the rates of the sell token and CELO token on the Uniswap V2 pair.\n  * @param sellTokenAddress The address of the sell token.\n  * @param maxSlippage The maximum slippage allowed.\n  * @param amount The amount of sell tokens to be traded.\n  * @param bestRouter The Uniswap V2 router with the best price.\n  * @return The minimum amount of tokens that can be received.\n  */\n  function calculateAllMinAmount(\n    address sellTokenAddress,\n    uint256 maxSlippage,\n    uint256 amount,\n    IUniswapV2RouterMin bestRouter\n  ) private view returns (uint256) {\n    ISortedOracles sortedOracles = getSortedOracles();\n    uint256 minReports = minimumReports[sellTokenAddress];\n\n    require(\n      sortedOracles.numRates(sellTokenAddress) >= minReports,\n      \"Number of reports for token not enough\"\n    );\n\n    uint256 minimalSortedOracles = 0;\n    // if minimumReports for this token is zero, assume the check is not needed\n    if (minReports > 0) {\n      (uint256 rateNumerator, uint256 rateDenominator) = sortedOracles.medianRate(sellTokenAddress);\n\n      minimalSortedOracles = calculateMinAmount(\n        rateNumerator,\n        rateDenominator,\n        amount,\n        maxSlippage\n      );\n    }\n\n    IERC20 celoToken = getGoldToken();\n    address pair = IUniswapV2FactoryMin(bestRouter.factory()).getPair(\n      sellTokenAddress,\n      address(celoToken)\n    );\n    uint256 minAmountPair = calculateMinAmount(\n      IERC20(sellTokenAddress).balanceOf(pair),\n      celoToken.balanceOf(pair),\n      amount,\n      maxSlippage\n    );\n\n    return Math.max(minAmountPair, minimalSortedOracles);\n  }\n\n  // This function explicitly defines few variables because it was getting error \"stack too deep\"\n  function sell(\n    address sellTokenAddress,\n    address buyTokenAddress,\n    uint256 amount,\n    uint256 maxSlippage // as fraction,\n  ) external returns (uint256) {\n    require(\n      buyTokenAddress == registry.getAddressForOrDie(GOLD_TOKEN_REGISTRY_ID),\n      \"Buy token can only be gold token\"\n    );\n\n    require(\n      routerAddresses[sellTokenAddress].values.length > 0,\n      \"routerAddresses should be non empty\"\n    );\n\n    // An improvement to this function would be to allow the user to pass a path as argument\n    // and if it generates a better outcome that the ones enabled that gets used\n    // and the user gets a reward\n\n    IERC20 celoToken = getGoldToken();\n\n    IUniswapV2RouterMin bestRouter;\n    uint256 bestRouterQuote = 0;\n\n    address[] memory path = new address[](2);\n\n    path[0] = sellTokenAddress;\n    path[1] = address(celoToken);\n\n    for (uint256 i = 0; i < routerAddresses[sellTokenAddress].values.length; i++) {\n      address poolAddress = routerAddresses[sellTokenAddress].get(i);\n      IUniswapV2RouterMin router = IUniswapV2RouterMin(poolAddress);\n\n      // Using the second return value becuase it's the last argument,\n      // the previous values show how many tokens are exchanged in each path\n      // so the first value would be equivalent to balanceToBurn\n      uint256 wouldGet = router.getAmountsOut(amount, path)[1];\n\n      emit ReceivedQuote(sellTokenAddress, poolAddress, wouldGet);\n      if (wouldGet > bestRouterQuote) {\n        bestRouterQuote = wouldGet;\n        bestRouter = router;\n      }\n    }\n\n    require(bestRouterQuote != 0, \"Can't exchange with zero quote\");\n\n    uint256 minAmount = 0;\n    minAmount = calculateAllMinAmount(sellTokenAddress, maxSlippage, amount, bestRouter);\n\n    IERC20(sellTokenAddress).approve(address(bestRouter), amount);\n    bestRouter.swapExactTokensForTokens(\n      amount,\n      minAmount,\n      path,\n      address(this),\n      block.timestamp + MAX_TIMESTAMP_BLOCK_EXCHANGE\n    );\n\n    uint256 celoAmount = celoToken.balanceOf(address(this));\n    celoToken.transfer(msg.sender, celoAmount);\n    emit RouterUsed(address(bestRouter));\n    emit TokenSold(sellTokenAddress, buyTokenAddress, amount);\n    return celoAmount;\n  }\n}\n",
  "sourcePath": "/Users/beaver/Development/celo/celo-monorepo/packages/protocol/contracts/common/UniswapFeeHandlerSeller.sol",
  "compiler": {
    "name": "solc",
    "version": "0.5.13+commit.5b0b510c.Emscripten.clang"
  },
  "schemaVersion": "3.4.13",
  "updatedAt": "2024-03-05T15:27:27.743Z",
  "networkType": "ethereum",
  "devdoc": {
    "methods": {
      "calculateMinAmount(uint256,uint256,uint256,uint256)": {
        "details": "Calculates the minimum amount of tokens that should be received for the specified  amount with the given mid-price and maximum slippage.",
        "params": {
          "amount": "The amount of tokens to be exchanged.",
          "maxSlippage": "The maximum slippage percentage as a fraction of the mid-price.",
          "midPriceDenominator": "The denominator of the mid-price for the token pair.",
          "midPriceNumerator": "The numerator of the mid-price for the token pair."
        },
        "return": "The minimum amount of tokens that should be received as a uint256 value."
      },
      "constructor": {
        "params": {
          "test": "Set to true to skip implementation initialisation."
        }
      },
      "getRoutersForToken(address)": {
        "params": {
          "token": "The address of the token to query."
        },
        "return": "An array of all the allowed router."
      },
      "getVersionNumber()": {
        "return": "Storage version of the contract.Major version of the contract.Minor version of the contract.Patch version of the contract."
      },
      "isOwner()": {
        "details": "Returns true if the caller is the current owner."
      },
      "owner()": {
        "details": "Returns the address of the current owner."
      },
      "removeRouter(address,address)": {
        "params": {
          "router": "Address of the router to remove.",
          "token": "Address of the token."
        }
      },
      "renounceOwnership()": {
        "details": "Leaves the contract without owner. It will not be possible to call `onlyOwner` functions anymore. Can only be called by the current owner.     * NOTE: Renouncing ownership will leave the contract without an owner, thereby removing any functionality that is only available to the owner."
      },
      "setMinimumReports(address,uint256)": {
        "params": {
          "newMininumReports": "The new update minimum number of reports required."
        }
      },
      "setRegistry(address)": {
        "params": {
          "registryAddress": "The address of a registry contract for routing to other contracts."
        }
      },
      "setRouter(address,address)": {
        "params": {
          "router": "The new router.",
          "token": "Address of the token to set."
        }
      },
      "transfer(address,uint256,address)": {
        "params": {
          "amount": "The amount of tokens to transfer.",
          "to": "The address of the recipient to transfer the tokens to.",
          "token": "The address of the token to transfer."
        },
        "return": "A boolean indicating whether the transfer was successful or not."
      },
      "transferOwnership(address)": {
        "details": "Transfers ownership of the contract to a new account (`newOwner`). Can only be called by the current owner."
      }
    }
  },
  "userdoc": {
    "methods": {
      "constructor": "Sets initialized == true on implementation contracts.",
      "getRoutersForToken(address)": {
        "notice": "Get the list of routers for a token."
      },
      "getVersionNumber()": {
        "notice": "Returns the storage, major, minor, and patch version of the contract."
      },
      "removeRouter(address,address)": {
        "notice": "Allows owner to remove a router for a token."
      },
      "setMinimumReports(address,uint256)": {
        "notice": "Allows owner to set the minimum number of reports required."
      },
      "setRegistry(address)": {
        "notice": "Updates the address pointing to a Registry contract."
      },
      "setRouter(address,address)": {
        "notice": "Allows owner to set the router for a token."
      },
      "transfer(address,uint256,address)": {
        "notice": "Allows owner to transfer tokens of this contract. It's meant for governance to  trigger use cases not contemplated in this contract."
      }
    }
  }
}