{
  "contractName": "UsingRegistryV2",
  "abi": [
    {
      "constant": true,
      "inputs": [],
      "name": "registryContract",
      "outputs": [
        {
          "internalType": "contract IRegistry",
          "name": "",
          "type": "address"
        }
      ],
      "payable": false,
      "stateMutability": "view",
      "type": "function"
    }
  ],
  "bytecode": "0x608060405234801561001057600080fd5b5060b08061001f6000396000f3fe6080604052348015600f57600080fd5b506004361060285760003560e01c806328c1f99b14602d575b600080fd5b60336075565b604051808273ffffffffffffffffffffffffffffffffffffffff1673ffffffffffffffffffffffffffffffffffffffff16815260200191505060405180910390f35b61ce108156fea265627a7a7231582069530991a5340ad5cbe86c82b0ca91f886661be72b3ffb0374c022b7964dcdf964736f6c634300050d0032",
  "source": "pragma solidity ^0.5.13;\n\nimport \"openzeppelin-solidity/contracts/ownership/Ownable.sol\";\nimport \"openzeppelin-solidity/contracts/token/ERC20/IERC20.sol\";\n\nimport \"./interfaces/IAccounts.sol\";\nimport \"./interfaces/IFeeCurrencyWhitelist.sol\";\nimport \"./interfaces/IFreezer.sol\";\nimport \"./interfaces/IRegistry.sol\";\n\nimport \"../governance/interfaces/IElection.sol\";\nimport \"../governance/interfaces/IGovernance.sol\";\nimport \"../governance/interfaces/ILockedGold.sol\";\nimport \"../governance/interfaces/IValidators.sol\";\n\nimport \"../identity/interfaces/IRandom.sol\";\nimport \"../identity/interfaces/IAttestations.sol\";\nimport \"../identity/interfaces/IFederatedAttestations.sol\";\n\nimport \"../../lib/mento-core/contracts/interfaces/IExchange.sol\";\nimport \"../../lib/mento-core/contracts/interfaces/IReserve.sol\";\nimport \"../../lib/mento-core/contracts/interfaces/IStableToken.sol\";\nimport \"../stability/interfaces/ISortedOracles.sol\";\n\ncontract UsingRegistryV2 {\n  address internal constant registryAddress = 0x000000000000000000000000000000000000ce10;\n  IRegistry public constant registryContract = IRegistry(registryAddress);\n\n  bytes32 internal constant ACCOUNTS_REGISTRY_ID = keccak256(abi.encodePacked(\"Accounts\"));\n  bytes32 internal constant ATTESTATIONS_REGISTRY_ID = keccak256(abi.encodePacked(\"Attestations\"));\n  bytes32 internal constant DOWNTIME_SLASHER_REGISTRY_ID = keccak256(\n    abi.encodePacked(\"DowntimeSlasher\")\n  );\n  bytes32 internal constant DOUBLE_SIGNING_SLASHER_REGISTRY_ID = keccak256(\n    abi.encodePacked(\"DoubleSigningSlasher\")\n  );\n  bytes32 internal constant ELECTION_REGISTRY_ID = keccak256(abi.encodePacked(\"Election\"));\n  bytes32 internal constant EXCHANGE_REGISTRY_ID = keccak256(abi.encodePacked(\"Exchange\"));\n  bytes32 internal constant EXCHANGE_EURO_REGISTRY_ID = keccak256(abi.encodePacked(\"ExchangeEUR\"));\n  bytes32 internal constant EXCHANGE_REAL_REGISTRY_ID = keccak256(abi.encodePacked(\"ExchangeBRL\"));\n\n  bytes32 internal constant FEE_CURRENCY_WHITELIST_REGISTRY_ID = keccak256(\n    abi.encodePacked(\"FeeCurrencyWhitelist\")\n  );\n  bytes32 internal constant FEDERATED_ATTESTATIONS_REGISTRY_ID = keccak256(\n    abi.encodePacked(\"FederatedAttestations\")\n  );\n  bytes32 internal constant FREEZER_REGISTRY_ID = keccak256(abi.encodePacked(\"Freezer\"));\n  bytes32 internal constant GOLD_TOKEN_REGISTRY_ID = keccak256(abi.encodePacked(\"GoldToken\"));\n  bytes32 internal constant GOVERNANCE_REGISTRY_ID = keccak256(abi.encodePacked(\"Governance\"));\n  bytes32 internal constant GOVERNANCE_SLASHER_REGISTRY_ID = keccak256(\n    abi.encodePacked(\"GovernanceSlasher\")\n  );\n  bytes32 internal constant LOCKED_GOLD_REGISTRY_ID = keccak256(abi.encodePacked(\"LockedGold\"));\n  bytes32 internal constant RESERVE_REGISTRY_ID = keccak256(abi.encodePacked(\"Reserve\"));\n  bytes32 internal constant RANDOM_REGISTRY_ID = keccak256(abi.encodePacked(\"Random\"));\n  bytes32 internal constant SORTED_ORACLES_REGISTRY_ID = keccak256(\n    abi.encodePacked(\"SortedOracles\")\n  );\n  bytes32 internal constant STABLE_TOKEN_REGISTRY_ID = keccak256(abi.encodePacked(\"StableToken\"));\n  bytes32 internal constant STABLE_EURO_TOKEN_REGISTRY_ID = keccak256(\n    abi.encodePacked(\"StableTokenEUR\")\n  );\n  bytes32 internal constant STABLE_REAL_TOKEN_REGISTRY_ID = keccak256(\n    abi.encodePacked(\"StableTokenBRL\")\n  );\n  bytes32 internal constant VALIDATORS_REGISTRY_ID = keccak256(abi.encodePacked(\"Validators\"));\n\n  modifier onlyRegisteredContract(bytes32 identifierHash) {\n    require(\n      registryContract.getAddressForOrDie(identifierHash) == msg.sender,\n      \"only registered contract\"\n    );\n    _;\n  }\n\n  modifier onlyRegisteredContracts(bytes32[] memory identifierHashes) {\n    require(registryContract.isOneOf(identifierHashes, msg.sender), \"only registered contracts\");\n    _;\n  }\n\n  function getAccounts() internal view returns (IAccounts) {\n    return IAccounts(registryContract.getAddressForOrDie(ACCOUNTS_REGISTRY_ID));\n  }\n\n  function getAttestations() internal view returns (IAttestations) {\n    return IAttestations(registryContract.getAddressForOrDie(ATTESTATIONS_REGISTRY_ID));\n  }\n\n  function getElection() internal view returns (IElection) {\n    return IElection(registryContract.getAddressForOrDie(ELECTION_REGISTRY_ID));\n  }\n\n  function getExchange() internal view returns (IExchange) {\n    return IExchange(registryContract.getAddressForOrDie(EXCHANGE_REGISTRY_ID));\n  }\n\n  function getExchangeDollar() internal view returns (IExchange) {\n    return getExchange();\n  }\n\n  function getExchangeEuro() internal view returns (IExchange) {\n    return IExchange(registryContract.getAddressForOrDie(EXCHANGE_EURO_REGISTRY_ID));\n  }\n\n  function getExchangeREAL() internal view returns (IExchange) {\n    return IExchange(registryContract.getAddressForOrDie(EXCHANGE_REAL_REGISTRY_ID));\n  }\n\n  function getFeeCurrencyWhitelistRegistry() internal view returns (IFeeCurrencyWhitelist) {\n    return\n      IFeeCurrencyWhitelist(\n        registryContract.getAddressForOrDie(FEE_CURRENCY_WHITELIST_REGISTRY_ID)\n      );\n  }\n\n  function getFederatedAttestations() internal view returns (IFederatedAttestations) {\n    return\n      IFederatedAttestations(\n        registryContract.getAddressForOrDie(FEDERATED_ATTESTATIONS_REGISTRY_ID)\n      );\n  }\n\n  function getFreezer() internal view returns (IFreezer) {\n    return IFreezer(registryContract.getAddressForOrDie(FREEZER_REGISTRY_ID));\n  }\n\n  function getGoldToken() internal view returns (IERC20) {\n    return IERC20(registryContract.getAddressForOrDie(GOLD_TOKEN_REGISTRY_ID));\n  }\n\n  function getGovernance() internal view returns (IGovernance) {\n    return IGovernance(registryContract.getAddressForOrDie(GOVERNANCE_REGISTRY_ID));\n  }\n\n  function getLockedGold() internal view returns (ILockedGold) {\n    return ILockedGold(registryContract.getAddressForOrDie(LOCKED_GOLD_REGISTRY_ID));\n  }\n\n  function getRandom() internal view returns (IRandom) {\n    return IRandom(registryContract.getAddressForOrDie(RANDOM_REGISTRY_ID));\n  }\n\n  function getReserve() internal view returns (IReserve) {\n    return IReserve(registryContract.getAddressForOrDie(RESERVE_REGISTRY_ID));\n  }\n\n  function getSortedOracles() internal view returns (ISortedOracles) {\n    return ISortedOracles(registryContract.getAddressForOrDie(SORTED_ORACLES_REGISTRY_ID));\n  }\n\n  function getStableToken() internal view returns (IStableToken) {\n    return IStableToken(registryContract.getAddressForOrDie(STABLE_TOKEN_REGISTRY_ID));\n  }\n\n  function getStableDollarToken() internal view returns (IStableToken) {\n    return getStableToken();\n  }\n\n  function getStableEuroToken() internal view returns (IStableToken) {\n    return IStableToken(registryContract.getAddressForOrDie(STABLE_EURO_TOKEN_REGISTRY_ID));\n  }\n\n  function getStableRealToken() internal view returns (IStableToken) {\n    return IStableToken(registryContract.getAddressForOrDie(STABLE_REAL_TOKEN_REGISTRY_ID));\n  }\n\n  function getValidators() internal view returns (IValidators) {\n    return IValidators(registryContract.getAddressForOrDie(VALIDATORS_REGISTRY_ID));\n  }\n}\n",
  "sourcePath": "/Users/beaver/Development/celo/celo-monorepo/packages/protocol/contracts/common/UsingRegistryV2.sol",
  "compiler": {
    "name": "solc",
    "version": "0.5.13+commit.5b0b510c.Emscripten.clang"
  },
  "schemaVersion": "3.4.13",
  "updatedAt": "2024-03-05T15:18:24.022Z",
  "devdoc": {
    "methods": {}
  },
  "userdoc": {
    "methods": {}
  }
}