{
  "contractName": "Registry",
  "abi": [
    {
      "inputs": [
        {
          "internalType": "bool",
          "name": "test",
          "type": "bool"
        }
      ],
      "payable": false,
      "stateMutability": "nonpayable",
      "type": "constructor"
    },
    {
      "anonymous": false,
      "inputs": [
        {
          "indexed": true,
          "internalType": "address",
          "name": "previousOwner",
          "type": "address"
        },
        {
          "indexed": true,
          "internalType": "address",
          "name": "newOwner",
          "type": "address"
        }
      ],
      "name": "OwnershipTransferred",
      "type": "event"
    },
    {
      "anonymous": false,
      "inputs": [
        {
          "indexed": false,
          "internalType": "string",
          "name": "identifier",
          "type": "string"
        },
        {
          "indexed": true,
          "internalType": "bytes32",
          "name": "identifierHash",
          "type": "bytes32"
        },
        {
          "indexed": true,
          "internalType": "address",
          "name": "addr",
          "type": "address"
        }
      ],
      "name": "RegistryUpdated",
      "type": "event"
    },
    {
      "constant": true,
      "inputs": [],
      "name": "initialized",
      "outputs": [
        {
          "internalType": "bool",
          "name": "",
          "type": "bool"
        }
      ],
      "payable": false,
      "stateMutability": "view",
      "type": "function"
    },
    {
      "constant": true,
      "inputs": [],
      "name": "isOwner",
      "outputs": [
        {
          "internalType": "bool",
          "name": "",
          "type": "bool"
        }
      ],
      "payable": false,
      "stateMutability": "view",
      "type": "function"
    },
    {
      "constant": true,
      "inputs": [],
      "name": "owner",
      "outputs": [
        {
          "internalType": "address",
          "name": "",
          "type": "address"
        }
      ],
      "payable": false,
      "stateMutability": "view",
      "type": "function"
    },
    {
      "constant": true,
      "inputs": [
        {
          "internalType": "bytes32",
          "name": "",
          "type": "bytes32"
        }
      ],
      "name": "registry",
      "outputs": [
        {
          "internalType": "address",
          "name": "",
          "type": "address"
        }
      ],
      "payable": false,
      "stateMutability": "view",
      "type": "function"
    },
    {
      "constant": false,
      "inputs": [],
      "name": "renounceOwnership",
      "outputs": [],
      "payable": false,
      "stateMutability": "nonpayable",
      "type": "function"
    },
    {
      "constant": false,
      "inputs": [
        {
          "internalType": "address",
          "name": "newOwner",
          "type": "address"
        }
      ],
      "name": "transferOwnership",
      "outputs": [],
      "payable": false,
      "stateMutability": "nonpayable",
      "type": "function"
    },
    {
      "constant": false,
      "inputs": [],
      "name": "initialize",
      "outputs": [],
      "payable": false,
      "stateMutability": "nonpayable",
      "type": "function"
    },
    {
      "constant": false,
      "inputs": [
        {
          "internalType": "string",
          "name": "identifier",
          "type": "string"
        },
        {
          "internalType": "address",
          "name": "addr",
          "type": "address"
        }
      ],
      "name": "setAddressFor",
      "outputs": [],
      "payable": false,
      "stateMutability": "nonpayable",
      "type": "function"
    },
    {
      "constant": true,
      "inputs": [
        {
          "internalType": "bytes32",
          "name": "identifierHash",
          "type": "bytes32"
        }
      ],
      "name": "getAddressForOrDie",
      "outputs": [
        {
          "internalType": "address",
          "name": "",
          "type": "address"
        }
      ],
      "payable": false,
      "stateMutability": "view",
      "type": "function"
    },
    {
      "constant": true,
      "inputs": [
        {
          "internalType": "bytes32",
          "name": "identifierHash",
          "type": "bytes32"
        }
      ],
      "name": "getAddressFor",
      "outputs": [
        {
          "internalType": "address",
          "name": "",
          "type": "address"
        }
      ],
      "payable": false,
      "stateMutability": "view",
      "type": "function"
    },
    {
      "constant": true,
      "inputs": [
        {
          "internalType": "string",
          "name": "identifier",
          "type": "string"
        }
      ],
      "name": "getAddressForStringOrDie",
      "outputs": [
        {
          "internalType": "address",
          "name": "",
          "type": "address"
        }
      ],
      "payable": false,
      "stateMutability": "view",
      "type": "function"
    },
    {
      "constant": true,
      "inputs": [
        {
          "internalType": "string",
          "name": "identifier",
          "type": "string"
        }
      ],
      "name": "getAddressForString",
      "outputs": [
        {
          "internalType": "address",
          "name": "",
          "type": "address"
        }
      ],
      "payable": false,
      "stateMutability": "view",
      "type": "function"
    },
    {
      "constant": true,
      "inputs": [
        {
          "internalType": "bytes32[]",
          "name": "identifierHashes",
          "type": "bytes32[]"
        },
        {
          "internalType": "address",
          "name": "sender",
          "type": "address"
        }
      ],
      "name": "isOneOf",
      "outputs": [
        {
          "internalType": "bool",
          "name": "",
          "type": "bool"
        }
      ],
      "payable": false,
      "stateMutability": "view",
      "type": "function"
    }
  ],
  "bytecode": "0x608060405234801561001057600080fd5b5060405161119e38038061119e8339818101604052602081101561003357600080fd5b810190808051906020019092919050505080600061005561011b60201b60201c565b9050806000806101000a81548173ffffffffffffffffffffffffffffffffffffffff021916908373ffffffffffffffffffffffffffffffffffffffff1602179055508073ffffffffffffffffffffffffffffffffffffffff16600073ffffffffffffffffffffffffffffffffffffffff167f8be0079c531659141344cd1fd0a4f28419497f9722a3daafe3b4186f6b6457e060405160405180910390a35080610114576001600060146101000a81548160ff0219169083151502179055505b5050610123565b600033905090565b61106c806101326000396000f3fe608060405234801561001057600080fd5b50600436106100cf5760003560e01c80638932cbf41161008c578063c586579311610066578063c586579314610407578063dcf0aaed146104a0578063dd9272331461050e578063f2fde38b1461057c576100cf565b80638932cbf4146102e25780638da5cb5b1461039b5780638f32d59b146103e5576100cf565b8063158ef93e146100d457806317c50818146100f6578063715018a6146101a75780637ef50298146101b15780638129fc1c1461021f578063853db32314610229575b600080fd5b6100dc6105c0565b604051808215151515815260200191505060405180910390f35b61018d6004803603604081101561010c57600080fd5b810190808035906020019064010000000081111561012957600080fd5b82018360208201111561013b57600080fd5b8035906020019184602083028401116401000000008311171561015d57600080fd5b9091929391929390803573ffffffffffffffffffffffffffffffffffffffff1690602001909291905050506105d3565b604051808215151515815260200191505060405180910390f35b6101af610691565b005b6101dd600480360360208110156101c757600080fd5b81019080803590602001909291905050506107ca565b604051808273ffffffffffffffffffffffffffffffffffffffff1673ffffffffffffffffffffffffffffffffffffffff16815260200191505060405180910390f35b6102276107fd565b005b6102a06004803603602081101561023f57600080fd5b810190808035906020019064010000000081111561025c57600080fd5b82018360208201111561026e57600080fd5b8035906020019184600183028401116401000000008311171561029057600080fd5b90919293919293905050506108a6565b604051808273ffffffffffffffffffffffffffffffffffffffff1673ffffffffffffffffffffffffffffffffffffffff16815260200191505060405180910390f35b610359600480360360208110156102f857600080fd5b810190808035906020019064010000000081111561031557600080fd5b82018360208201111561032757600080fd5b8035906020019184600183028401116401000000008311171561034957600080fd5b9091929391929390505050610918565b604051808273ffffffffffffffffffffffffffffffffffffffff1673ffffffffffffffffffffffffffffffffffffffff16815260200191505060405180910390f35b6103a3610a60565b604051808273ffffffffffffffffffffffffffffffffffffffff1673ffffffffffffffffffffffffffffffffffffffff16815260200191505060405180910390f35b6103ed610a89565b604051808215151515815260200191505060405180910390f35b61049e6004803603604081101561041d57600080fd5b810190808035906020019064010000000081111561043a57600080fd5b82018360208201111561044c57600080fd5b8035906020019184600183028401116401000000008311171561046e57600080fd5b9091929391929390803573ffffffffffffffffffffffffffffffffffffffff169060200190929190505050610ae7565b005b6104cc600480360360208110156104b657600080fd5b8101908080359060200190929190505050610c68565b604051808273ffffffffffffffffffffffffffffffffffffffff1673ffffffffffffffffffffffffffffffffffffffff16815260200191505060405180910390f35b61053a6004803603602081101561052457600080fd5b8101908080359060200190929190505050610d7a565b604051808273ffffffffffffffffffffffffffffffffffffffff1673ffffffffffffffffffffffffffffffffffffffff16815260200191505060405180910390f35b6105be6004803603602081101561059257600080fd5b81019080803573ffffffffffffffffffffffffffffffffffffffff169060200190929190505050610db7565b005b600060149054906101000a900460ff1681565b600080600090505b84849050811015610684578273ffffffffffffffffffffffffffffffffffffffff166001600087878581811061060d57fe5b90506020020135815260200190815260200160002060009054906101000a900473ffffffffffffffffffffffffffffffffffffffff1673ffffffffffffffffffffffffffffffffffffffff16141561066957600191505061068a565b61067d600182610e3d90919063ffffffff16565b90506105db565b50600090505b9392505050565b610699610a89565b61070b576040517f08c379a00000000000000000000000000000000000000000000000000000000081526004018080602001828103825260208152602001807f4f776e61626c653a2063616c6c6572206973206e6f7420746865206f776e657281525060200191505060405180910390fd5b600073ffffffffffffffffffffffffffffffffffffffff166000809054906101000a900473ffffffffffffffffffffffffffffffffffffffff1673ffffffffffffffffffffffffffffffffffffffff167f8be0079c531659141344cd1fd0a4f28419497f9722a3daafe3b4186f6b6457e060405160405180910390a360008060006101000a81548173ffffffffffffffffffffffffffffffffffffffff021916908373ffffffffffffffffffffffffffffffffffffffff160217905550565b60016020528060005260406000206000915054906101000a900473ffffffffffffffffffffffffffffffffffffffff1681565b600060149054906101000a900460ff1615610880576040517f08c379a000000000000000000000000000000000000000000000000000000000815260040180806020018281038252601c8152602001807f636f6e747261637420616c726561647920696e697469616c697a65640000000081525060200191505060405180910390fd5b6001600060146101000a81548160ff0219169083151502179055506108a433610ec5565b565b60008083836040516020018083838082843780830192505050925050506040516020818303038152906040528051906020012090506001600082815260200190815260200160002060009054906101000a900473ffffffffffffffffffffffffffffffffffffffff1691505092915050565b6000808383604051602001808383808284378083019250505092505050604051602081830303815290604052805190602001209050600073ffffffffffffffffffffffffffffffffffffffff166001600083815260200190815260200160002060009054906101000a900473ffffffffffffffffffffffffffffffffffffffff1673ffffffffffffffffffffffffffffffffffffffff161415610a23576040517f08c379a00000000000000000000000000000000000000000000000000000000081526004018080602001828103825260208152602001807f6964656e74696669657220686173206e6f20726567697374727920656e74727981525060200191505060405180910390fd5b6001600082815260200190815260200160002060009054906101000a900473ffffffffffffffffffffffffffffffffffffffff1691505092915050565b60008060009054906101000a900473ffffffffffffffffffffffffffffffffffffffff16905090565b60008060009054906101000a900473ffffffffffffffffffffffffffffffffffffffff1673ffffffffffffffffffffffffffffffffffffffff16610acb611009565b73ffffffffffffffffffffffffffffffffffffffff1614905090565b610aef610a89565b610b61576040517f08c379a00000000000000000000000000000000000000000000000000000000081526004018080602001828103825260208152602001807f4f776e61626c653a2063616c6c6572206973206e6f7420746865206f776e657281525060200191505060405180910390fd5b60008383604051602001808383808284378083019250505092505050604051602081830303815290604052805190602001209050816001600083815260200190815260200160002060006101000a81548173ffffffffffffffffffffffffffffffffffffffff021916908373ffffffffffffffffffffffffffffffffffffffff1602179055508173ffffffffffffffffffffffffffffffffffffffff16817f4166d073a7a5e704ce0db7113320f88da2457f872d46dc020c805c562c1582a0868660405180806020018281038252848482818152602001925080828437600081840152601f19601f820116905080830192505050935050505060405180910390a350505050565b60008073ffffffffffffffffffffffffffffffffffffffff166001600084815260200190815260200160002060009054906101000a900473ffffffffffffffffffffffffffffffffffffffff1673ffffffffffffffffffffffffffffffffffffffff161415610d3f576040517f08c379a00000000000000000000000000000000000000000000000000000000081526004018080602001828103825260208152602001807f6964656e74696669657220686173206e6f20726567697374727920656e74727981525060200191505060405180910390fd5b6001600083815260200190815260200160002060009054906101000a900473ffffffffffffffffffffffffffffffffffffffff169050919050565b60006001600083815260200190815260200160002060009054906101000a900473ffffffffffffffffffffffffffffffffffffffff169050919050565b610dbf610a89565b610e31576040517f08c379a00000000000000000000000000000000000000000000000000000000081526004018080602001828103825260208152602001807f4f776e61626c653a2063616c6c6572206973206e6f7420746865206f776e657281525060200191505060405180910390fd5b610e3a81610ec5565b50565b600080828401905083811015610ebb576040517f08c379a000000000000000000000000000000000000000000000000000000000815260040180806020018281038252601b8152602001807f536166654d6174683a206164646974696f6e206f766572666c6f77000000000081525060200191505060405180910390fd5b8091505092915050565b600073ffffffffffffffffffffffffffffffffffffffff168173ffffffffffffffffffffffffffffffffffffffff161415610f4b576040517f08c379a00000000000000000000000000000000000000000000000000000000081526004018080602001828103825260268152602001806110126026913960400191505060405180910390fd5b8073ffffffffffffffffffffffffffffffffffffffff166000809054906101000a900473ffffffffffffffffffffffffffffffffffffffff1673ffffffffffffffffffffffffffffffffffffffff167f8be0079c531659141344cd1fd0a4f28419497f9722a3daafe3b4186f6b6457e060405160405180910390a3806000806101000a81548173ffffffffffffffffffffffffffffffffffffffff021916908373ffffffffffffffffffffffffffffffffffffffff16021790555050565b60003390509056fe4f776e61626c653a206e6577206f776e657220697320746865207a65726f2061646472657373a265627a7a72315820d67728e11ecd7a1a52e772975f111dd3a5e7717e78d378a2fdf2d4bc465ffc0f64736f6c634300050d0032",
  "source": "pragma solidity ^0.5.13;\n\nimport \"openzeppelin-solidity/contracts/math/SafeMath.sol\";\nimport \"openzeppelin-solidity/contracts/ownership/Ownable.sol\";\n\nimport \"./interfaces/IRegistry.sol\";\nimport \"./Initializable.sol\";\n\n/**\n * @title Routes identifiers to addresses.\n */\ncontract Registry is IRegistry, Ownable, Initializable {\n  using SafeMath for uint256;\n\n  mapping(bytes32 => address) public registry;\n\n  event RegistryUpdated(string identifier, bytes32 indexed identifierHash, address indexed addr);\n\n  /**\n   * @notice Sets initialized == true on implementation contracts\n   * @param test Set to true to skip implementation initialization\n   */\n  constructor(bool test) public Initializable(test) {}\n\n  /**\n   * @notice Used in place of the constructor to allow the contract to be upgradable via proxy.\n   */\n  function initialize() external initializer {\n    _transferOwnership(msg.sender);\n  }\n\n  /**\n   * @notice Associates the given address with the given identifier.\n   * @param identifier Identifier of contract whose address we want to set.\n   * @param addr Address of contract.\n   */\n  function setAddressFor(string calldata identifier, address addr) external onlyOwner {\n    bytes32 identifierHash = keccak256(abi.encodePacked(identifier));\n    registry[identifierHash] = addr;\n    emit RegistryUpdated(identifier, identifierHash, addr);\n  }\n\n  /**\n   * @notice Gets address associated with the given identifierHash.\n   * @param identifierHash Identifier hash of contract whose address we want to look up.\n   * @dev Throws if address not set.\n   */\n  function getAddressForOrDie(bytes32 identifierHash) external view returns (address) {\n    require(registry[identifierHash] != address(0), \"identifier has no registry entry\");\n    return registry[identifierHash];\n  }\n\n  /**\n   * @notice Gets address associated with the given identifierHash.\n   * @param identifierHash Identifier hash of contract whose address we want to look up.\n   */\n  function getAddressFor(bytes32 identifierHash) external view returns (address) {\n    return registry[identifierHash];\n  }\n\n  /**\n   * @notice Gets address associated with the given identifier.\n   * @param identifier Identifier of contract whose address we want to look up.\n   * @dev Throws if address not set.\n   */\n  function getAddressForStringOrDie(string calldata identifier) external view returns (address) {\n    bytes32 identifierHash = keccak256(abi.encodePacked(identifier));\n    require(registry[identifierHash] != address(0), \"identifier has no registry entry\");\n    return registry[identifierHash];\n  }\n\n  /**\n   * @notice Gets address associated with the given identifier.\n   * @param identifier Identifier of contract whose address we want to look up.\n   */\n  function getAddressForString(string calldata identifier) external view returns (address) {\n    bytes32 identifierHash = keccak256(abi.encodePacked(identifier));\n    return registry[identifierHash];\n  }\n\n  /**\n   * @notice Iterates over provided array of identifiers, getting the address for each.\n   *         Returns true if `sender` matches the address of one of the provided identifiers.\n   * @param identifierHashes Array of hashes of approved identifiers.\n   * @param sender Address in question to verify membership.\n   * @return True if `sender` corresponds to the address of any of `identifiers`\n   *         registry entries.\n   */\n  function isOneOf(bytes32[] calldata identifierHashes, address sender) external view returns (bool) {\n    for (uint256 i = 0; i < identifierHashes.length; i = i.add(1)) {\n      if (registry[identifierHashes[i]] == sender) {\n        return true;\n      }\n    }\n    return false;\n  }\n}\n",
  "sourcePath": "/Users/beaver/Development/celo/celo-monorepo/packages/protocol/lib/mento-core/contracts/common/Registry.sol",
  "compiler": {
    "name": "solc",
    "version": "0.5.13+commit.5b0b510c.Emscripten.clang"
  },
  "schemaVersion": "3.4.13",
  "updatedAt": "2024-03-05T15:18:03.911Z",
  "devdoc": {
    "methods": {
      "constructor": {
        "params": {
          "test": "Set to true to skip implementation initialization"
        }
      },
      "getAddressFor(bytes32)": {
        "params": {
          "identifierHash": "Identifier hash of contract whose address we want to look up."
        }
      },
      "getAddressForOrDie(bytes32)": {
        "details": "Throws if address not set.",
        "params": {
          "identifierHash": "Identifier hash of contract whose address we want to look up."
        }
      },
      "getAddressForString(string)": {
        "params": {
          "identifier": "Identifier of contract whose address we want to look up."
        }
      },
      "getAddressForStringOrDie(string)": {
        "details": "Throws if address not set.",
        "params": {
          "identifier": "Identifier of contract whose address we want to look up."
        }
      },
      "isOneOf(bytes32[],address)": {
        "params": {
          "identifierHashes": "Array of hashes of approved identifiers.",
          "sender": "Address in question to verify membership."
        },
        "return": "True if `sender` corresponds to the address of any of `identifiers`        registry entries."
      },
      "isOwner()": {
        "details": "Returns true if the caller is the current owner."
      },
      "owner()": {
        "details": "Returns the address of the current owner."
      },
      "renounceOwnership()": {
        "details": "Leaves the contract without owner. It will not be possible to call `onlyOwner` functions anymore. Can only be called by the current owner.     * NOTE: Renouncing ownership will leave the contract without an owner, thereby removing any functionality that is only available to the owner."
      },
      "setAddressFor(string,address)": {
        "params": {
          "addr": "Address of contract.",
          "identifier": "Identifier of contract whose address we want to set."
        }
      },
      "transferOwnership(address)": {
        "details": "Transfers ownership of the contract to a new account (`newOwner`). Can only be called by the current owner."
      }
    },
    "title": "Routes identifiers to addresses."
  },
  "userdoc": {
    "methods": {
      "constructor": "Sets initialized == true on implementation contracts",
      "getAddressFor(bytes32)": {
        "notice": "Gets address associated with the given identifierHash."
      },
      "getAddressForOrDie(bytes32)": {
        "notice": "Gets address associated with the given identifierHash."
      },
      "getAddressForString(string)": {
        "notice": "Gets address associated with the given identifier."
      },
      "getAddressForStringOrDie(string)": {
        "notice": "Gets address associated with the given identifier."
      },
      "initialize()": {
        "notice": "Used in place of the constructor to allow the contract to be upgradable via proxy."
      },
      "isOneOf(bytes32[],address)": {
        "notice": "Iterates over provided array of identifiers, getting the address for each.        Returns true if `sender` matches the address of one of the provided identifiers."
      },
      "setAddressFor(string,address)": {
        "notice": "Associates the given address with the given identifier."
      }
    }
  }
}