{
  "contractName": "SortedOracles",
  "abi": [
    {
      "inputs": [
        {
          "internalType": "bool",
          "name": "test",
          "type": "bool"
        }
      ],
      "payable": false,
      "stateMutability": "nonpayable",
      "type": "constructor"
    },
    {
      "anonymous": false,
      "inputs": [
        {
          "indexed": true,
          "internalType": "address",
          "name": "token",
          "type": "address"
        },
        {
          "indexed": false,
          "internalType": "uint256",
          "name": "value",
          "type": "uint256"
        }
      ],
      "name": "MedianUpdated",
      "type": "event"
    },
    {
      "anonymous": false,
      "inputs": [
        {
          "indexed": true,
          "internalType": "address",
          "name": "token",
          "type": "address"
        },
        {
          "indexed": true,
          "internalType": "address",
          "name": "oracleAddress",
          "type": "address"
        }
      ],
      "name": "OracleAdded",
      "type": "event"
    },
    {
      "anonymous": false,
      "inputs": [
        {
          "indexed": true,
          "internalType": "address",
          "name": "token",
          "type": "address"
        },
        {
          "indexed": true,
          "internalType": "address",
          "name": "oracleAddress",
          "type": "address"
        }
      ],
      "name": "OracleRemoved",
      "type": "event"
    },
    {
      "anonymous": false,
      "inputs": [
        {
          "indexed": true,
          "internalType": "address",
          "name": "token",
          "type": "address"
        },
        {
          "indexed": true,
          "internalType": "address",
          "name": "oracle",
          "type": "address"
        }
      ],
      "name": "OracleReportRemoved",
      "type": "event"
    },
    {
      "anonymous": false,
      "inputs": [
        {
          "indexed": true,
          "internalType": "address",
          "name": "token",
          "type": "address"
        },
        {
          "indexed": true,
          "internalType": "address",
          "name": "oracle",
          "type": "address"
        },
        {
          "indexed": false,
          "internalType": "uint256",
          "name": "timestamp",
          "type": "uint256"
        },
        {
          "indexed": false,
          "internalType": "uint256",
          "name": "value",
          "type": "uint256"
        }
      ],
      "name": "OracleReported",
      "type": "event"
    },
    {
      "anonymous": false,
      "inputs": [
        {
          "indexed": true,
          "internalType": "address",
          "name": "previousOwner",
          "type": "address"
        },
        {
          "indexed": true,
          "internalType": "address",
          "name": "newOwner",
          "type": "address"
        }
      ],
      "name": "OwnershipTransferred",
      "type": "event"
    },
    {
      "anonymous": false,
      "inputs": [
        {
          "indexed": false,
          "internalType": "uint256",
          "name": "reportExpiry",
          "type": "uint256"
        }
      ],
      "name": "ReportExpirySet",
      "type": "event"
    },
    {
      "anonymous": false,
      "inputs": [
        {
          "indexed": false,
          "internalType": "address",
          "name": "token",
          "type": "address"
        },
        {
          "indexed": false,
          "internalType": "uint256",
          "name": "reportExpiry",
          "type": "uint256"
        }
      ],
      "name": "TokenReportExpirySet",
      "type": "event"
    },
    {
      "constant": true,
      "inputs": [],
      "name": "initialized",
      "outputs": [
        {
          "internalType": "bool",
          "name": "",
          "type": "bool"
        }
      ],
      "payable": false,
      "stateMutability": "view",
      "type": "function"
    },
    {
      "constant": true,
      "inputs": [
        {
          "internalType": "address",
          "name": "",
          "type": "address"
        },
        {
          "internalType": "address",
          "name": "",
          "type": "address"
        }
      ],
      "name": "isOracle",
      "outputs": [
        {
          "internalType": "bool",
          "name": "",
          "type": "bool"
        }
      ],
      "payable": false,
      "stateMutability": "view",
      "type": "function"
    },
    {
      "constant": true,
      "inputs": [],
      "name": "isOwner",
      "outputs": [
        {
          "internalType": "bool",
          "name": "",
          "type": "bool"
        }
      ],
      "payable": false,
      "stateMutability": "view",
      "type": "function"
    },
    {
      "constant": true,
      "inputs": [
        {
          "internalType": "address",
          "name": "",
          "type": "address"
        },
        {
          "internalType": "uint256",
          "name": "",
          "type": "uint256"
        }
      ],
      "name": "oracles",
      "outputs": [
        {
          "internalType": "address",
          "name": "",
          "type": "address"
        }
      ],
      "payable": false,
      "stateMutability": "view",
      "type": "function"
    },
    {
      "constant": true,
      "inputs": [],
      "name": "owner",
      "outputs": [
        {
          "internalType": "address",
          "name": "",
          "type": "address"
        }
      ],
      "payable": false,
      "stateMutability": "view",
      "type": "function"
    },
    {
      "constant": false,
      "inputs": [],
      "name": "renounceOwnership",
      "outputs": [],
      "payable": false,
      "stateMutability": "nonpayable",
      "type": "function"
    },
    {
      "constant": true,
      "inputs": [],
      "name": "reportExpirySeconds",
      "outputs": [
        {
          "internalType": "uint256",
          "name": "",
          "type": "uint256"
        }
      ],
      "payable": false,
      "stateMutability": "view",
      "type": "function"
    },
    {
      "constant": true,
      "inputs": [
        {
          "internalType": "address",
          "name": "",
          "type": "address"
        }
      ],
      "name": "tokenReportExpirySeconds",
      "outputs": [
        {
          "internalType": "uint256",
          "name": "",
          "type": "uint256"
        }
      ],
      "payable": false,
      "stateMutability": "view",
      "type": "function"
    },
    {
      "constant": false,
      "inputs": [
        {
          "internalType": "address",
          "name": "newOwner",
          "type": "address"
        }
      ],
      "name": "transferOwnership",
      "outputs": [],
      "payable": false,
      "stateMutability": "nonpayable",
      "type": "function"
    },
    {
      "constant": true,
      "inputs": [],
      "name": "getVersionNumber",
      "outputs": [
        {
          "internalType": "uint256",
          "name": "",
          "type": "uint256"
        },
        {
          "internalType": "uint256",
          "name": "",
          "type": "uint256"
        },
        {
          "internalType": "uint256",
          "name": "",
          "type": "uint256"
        },
        {
          "internalType": "uint256",
          "name": "",
          "type": "uint256"
        }
      ],
      "payable": false,
      "stateMutability": "pure",
      "type": "function"
    },
    {
      "constant": false,
      "inputs": [
        {
          "internalType": "uint256",
          "name": "_reportExpirySeconds",
          "type": "uint256"
        }
      ],
      "name": "initialize",
      "outputs": [],
      "payable": false,
      "stateMutability": "nonpayable",
      "type": "function"
    },
    {
      "constant": false,
      "inputs": [
        {
          "internalType": "uint256",
          "name": "_reportExpirySeconds",
          "type": "uint256"
        }
      ],
      "name": "setReportExpiry",
      "outputs": [],
      "payable": false,
      "stateMutability": "nonpayable",
      "type": "function"
    },
    {
      "constant": false,
      "inputs": [
        {
          "internalType": "address",
          "name": "_token",
          "type": "address"
        },
        {
          "internalType": "uint256",
          "name": "_reportExpirySeconds",
          "type": "uint256"
        }
      ],
      "name": "setTokenReportExpiry",
      "outputs": [],
      "payable": false,
      "stateMutability": "nonpayable",
      "type": "function"
    },
    {
      "constant": false,
      "inputs": [
        {
          "internalType": "address",
          "name": "token",
          "type": "address"
        },
        {
          "internalType": "address",
          "name": "oracleAddress",
          "type": "address"
        }
      ],
      "name": "addOracle",
      "outputs": [],
      "payable": false,
      "stateMutability": "nonpayable",
      "type": "function"
    },
    {
      "constant": false,
      "inputs": [
        {
          "internalType": "address",
          "name": "token",
          "type": "address"
        },
        {
          "internalType": "address",
          "name": "oracleAddress",
          "type": "address"
        },
        {
          "internalType": "uint256",
          "name": "index",
          "type": "uint256"
        }
      ],
      "name": "removeOracle",
      "outputs": [],
      "payable": false,
      "stateMutability": "nonpayable",
      "type": "function"
    },
    {
      "constant": false,
      "inputs": [
        {
          "internalType": "address",
          "name": "token",
          "type": "address"
        },
        {
          "internalType": "uint256",
          "name": "n",
          "type": "uint256"
        }
      ],
      "name": "removeExpiredReports",
      "outputs": [],
      "payable": false,
      "stateMutability": "nonpayable",
      "type": "function"
    },
    {
      "constant": true,
      "inputs": [
        {
          "internalType": "address",
          "name": "token",
          "type": "address"
        }
      ],
      "name": "isOldestReportExpired",
      "outputs": [
        {
          "internalType": "bool",
          "name": "",
          "type": "bool"
        },
        {
          "internalType": "address",
          "name": "",
          "type": "address"
        }
      ],
      "payable": false,
      "stateMutability": "view",
      "type": "function"
    },
    {
      "constant": false,
      "inputs": [
        {
          "internalType": "address",
          "name": "token",
          "type": "address"
        },
        {
          "internalType": "uint256",
          "name": "value",
          "type": "uint256"
        },
        {
          "internalType": "address",
          "name": "lesserKey",
          "type": "address"
        },
        {
          "internalType": "address",
          "name": "greaterKey",
          "type": "address"
        }
      ],
      "name": "report",
      "outputs": [],
      "payable": false,
      "stateMutability": "nonpayable",
      "type": "function"
    },
    {
      "constant": true,
      "inputs": [
        {
          "internalType": "address",
          "name": "token",
          "type": "address"
        }
      ],
      "name": "numRates",
      "outputs": [
        {
          "internalType": "uint256",
          "name": "",
          "type": "uint256"
        }
      ],
      "payable": false,
      "stateMutability": "view",
      "type": "function"
    },
    {
      "constant": true,
      "inputs": [
        {
          "internalType": "address",
          "name": "token",
          "type": "address"
        }
      ],
      "name": "medianRate",
      "outputs": [
        {
          "internalType": "uint256",
          "name": "",
          "type": "uint256"
        },
        {
          "internalType": "uint256",
          "name": "",
          "type": "uint256"
        }
      ],
      "payable": false,
      "stateMutability": "view",
      "type": "function"
    },
    {
      "constant": true,
      "inputs": [
        {
          "internalType": "address",
          "name": "token",
          "type": "address"
        }
      ],
      "name": "getRates",
      "outputs": [
        {
          "internalType": "address[]",
          "name": "",
          "type": "address[]"
        },
        {
          "internalType": "uint256[]",
          "name": "",
          "type": "uint256[]"
        },
        {
          "internalType": "enum SortedLinkedListWithMedian.MedianRelation[]",
          "name": "",
          "type": "uint8[]"
        }
      ],
      "payable": false,
      "stateMutability": "view",
      "type": "function"
    },
    {
      "constant": true,
      "inputs": [
        {
          "internalType": "address",
          "name": "token",
          "type": "address"
        }
      ],
      "name": "numTimestamps",
      "outputs": [
        {
          "internalType": "uint256",
          "name": "",
          "type": "uint256"
        }
      ],
      "payable": false,
      "stateMutability": "view",
      "type": "function"
    },
    {
      "constant": true,
      "inputs": [
        {
          "internalType": "address",
          "name": "token",
          "type": "address"
        }
      ],
      "name": "medianTimestamp",
      "outputs": [
        {
          "internalType": "uint256",
          "name": "",
          "type": "uint256"
        }
      ],
      "payable": false,
      "stateMutability": "view",
      "type": "function"
    },
    {
      "constant": true,
      "inputs": [
        {
          "internalType": "address",
          "name": "token",
          "type": "address"
        }
      ],
      "name": "getTimestamps",
      "outputs": [
        {
          "internalType": "address[]",
          "name": "",
          "type": "address[]"
        },
        {
          "internalType": "uint256[]",
          "name": "",
          "type": "uint256[]"
        },
        {
          "internalType": "enum SortedLinkedListWithMedian.MedianRelation[]",
          "name": "",
          "type": "uint8[]"
        }
      ],
      "payable": false,
      "stateMutability": "view",
      "type": "function"
    },
    {
      "constant": true,
      "inputs": [
        {
          "internalType": "address",
          "name": "token",
          "type": "address"
        }
      ],
      "name": "getOracles",
      "outputs": [
        {
          "internalType": "address[]",
          "name": "",
          "type": "address[]"
        }
      ],
      "payable": false,
      "stateMutability": "view",
      "type": "function"
    },
    {
      "constant": true,
      "inputs": [
        {
          "internalType": "address",
          "name": "token",
          "type": "address"
        }
      ],
      "name": "getTokenReportExpirySeconds",
      "outputs": [
        {
          "internalType": "uint256",
          "name": "",
          "type": "uint256"
        }
      ],
      "payable": false,
      "stateMutability": "view",
      "type": "function"
    }
  ],
  "bytecode": "0x60806040523480156200001157600080fd5b506040516200400d3803806200400d833981810160405260208110156200003757600080fd5b81019080805190602001909291905050508060006200005b6200012360201b60201c565b9050806000806101000a81548173ffffffffffffffffffffffffffffffffffffffff021916908373ffffffffffffffffffffffffffffffffffffffff1602179055508073ffffffffffffffffffffffffffffffffffffffff16600073ffffffffffffffffffffffffffffffffffffffff167f8be0079c531659141344cd1fd0a4f28419497f9722a3daafe3b4186f6b6457e060405160405180910390a350806200011b576001600060146101000a81548160ff0219169083151502179055505b50506200012b565b600033905090565b613ed2806200013b6000396000f3fe608060405234801561001057600080fd5b506004361061018e5760003560e01c80638e749281116100de578063ebc1d6bb11610097578063f2fde38b11610071578063f2fde38b14610a64578063fc20935d14610aa8578063fe4b84df14610af6578063ffe736bf14610b245761018e565b8063ebc1d6bb14610973578063ef90e1b0146109a1578063f0ca4adb14610a005761018e565b80638e7492811461065b5780638f32d59b146106f4578063a00a8b2c14610716578063b9292158146107a4578063bbc66a94146108cd578063dd34ca3b146109255761018e565b806353a572971161014b5780636deb6799116101255780636deb679914610521578063715018a61461057957806380e50744146105835780638da5cb5b146106115761018e565b806353a572971461042857806354255be0146104965780636dd6ef0c146104c95761018e565b806302f55b6114610193578063071b48fc146102bc578063158ef93e146103145780632e86bc0114610336578063370c998e1461038e578063493a353c1461040a575b600080fd5b6101d5600480360360208110156101a957600080fd5b81019080803573ffffffffffffffffffffffffffffffffffffffff169060200190929190505050610bb3565b60405180806020018060200180602001848103845287818151815260200191508051906020019060200280838360005b83811015610220578082015181840152602081019050610205565b50505050905001848103835286818151815260200191508051906020019060200280838360005b83811015610262578082015181840152602081019050610247565b50505050905001848103825285818151815260200191508051906020019060200280838360005b838110156102a4578082015181840152602081019050610289565b50505050905001965050505050505060405180910390f35b6102fe600480360360208110156102d257600080fd5b81019080803573ffffffffffffffffffffffffffffffffffffffff169060200190929190505050610e4f565b6040518082815260200191505060405180910390f35b61031c610f22565b604051808215151515815260200191505060405180910390f35b6103786004803603602081101561034c57600080fd5b81019080803573ffffffffffffffffffffffffffffffffffffffff169060200190929190505050610f35565b6040518082815260200191505060405180910390f35b6103f0600480360360408110156103a457600080fd5b81019080803573ffffffffffffffffffffffffffffffffffffffff169060200190929190803573ffffffffffffffffffffffffffffffffffffffff169060200190929190505050610f4d565b604051808215151515815260200191505060405180910390f35b610412610f7c565b6040518082815260200191505060405180910390f35b6104946004803603606081101561043e57600080fd5b81019080803573ffffffffffffffffffffffffffffffffffffffff169060200190929190803573ffffffffffffffffffffffffffffffffffffffff16906020019092919080359060200190929190505050610f82565b005b61049e6114be565b6040518085815260200184815260200183815260200182815260200194505050505060405180910390f35b61050b600480360360208110156104df57600080fd5b81019080803573ffffffffffffffffffffffffffffffffffffffff1690602001909291905050506114e5565b6040518082815260200191505060405180910390f35b6105636004803603602081101561053757600080fd5b81019080803573ffffffffffffffffffffffffffffffffffffffff1690602001909291905050506115b8565b6040518082815260200191505060405180910390f35b610581611653565b005b61060f6004803603608081101561059957600080fd5b81019080803573ffffffffffffffffffffffffffffffffffffffff16906020019092919080359060200190929190803573ffffffffffffffffffffffffffffffffffffffff169060200190929190803573ffffffffffffffffffffffffffffffffffffffff16906020019092919050505061178c565b005b610619612163565b604051808273ffffffffffffffffffffffffffffffffffffffff1673ffffffffffffffffffffffffffffffffffffffff16815260200191505060405180910390f35b61069d6004803603602081101561067157600080fd5b81019080803573ffffffffffffffffffffffffffffffffffffffff16906020019092919050505061218c565b6040518080602001828103825283818151815260200191508051906020019060200280838360005b838110156106e05780820151818401526020810190506106c5565b505050509050019250505060405180910390f35b6106fc612259565b604051808215151515815260200191505060405180910390f35b6107626004803603604081101561072c57600080fd5b81019080803573ffffffffffffffffffffffffffffffffffffffff169060200190929190803590602001909291905050506122b7565b604051808273ffffffffffffffffffffffffffffffffffffffff1673ffffffffffffffffffffffffffffffffffffffff16815260200191505060405180910390f35b6107e6600480360360208110156107ba57600080fd5b81019080803573ffffffffffffffffffffffffffffffffffffffff169060200190929190505050612302565b60405180806020018060200180602001848103845287818151815260200191508051906020019060200280838360005b83811015610831578082015181840152602081019050610816565b50505050905001848103835286818151815260200191508051906020019060200280838360005b83811015610873578082015181840152602081019050610858565b50505050905001848103825285818151815260200191508051906020019060200280838360005b838110156108b557808201518184015260208101905061089a565b50505050905001965050505050505060405180910390f35b61090f600480360360208110156108e357600080fd5b81019080803573ffffffffffffffffffffffffffffffffffffffff16906020019092919050505061259e565b6040518082815260200191505060405180910390f35b6109716004803603604081101561093b57600080fd5b81019080803573ffffffffffffffffffffffffffffffffffffffff16906020019092919080359060200190929190505050612671565b005b61099f6004803603602081101561098957600080fd5b8101908080359060200190929190505050612827565b005b6109e3600480360360208110156109b757600080fd5b81019080803573ffffffffffffffffffffffffffffffffffffffff169060200190929190505050612996565b604051808381526020018281526020019250505060405180910390f35b610a6260048036036040811015610a1657600080fd5b81019080803573ffffffffffffffffffffffffffffffffffffffff169060200190929190803573ffffffffffffffffffffffffffffffffffffffff169060200190929190505050612a8f565b005b610aa660048036036020811015610a7a57600080fd5b81019080803573ffffffffffffffffffffffffffffffffffffffff169060200190929190505050612df1565b005b610af460048036036040811015610abe57600080fd5b81019080803573ffffffffffffffffffffffffffffffffffffffff16906020019092919080359060200190929190505050612e77565b005b610b2260048036036020811015610b0c57600080fd5b8101908080359060200190929190505050613095565b005b610b6660048036036020811015610b3a57600080fd5b81019080803573ffffffffffffffffffffffffffffffffffffffff169060200190929190505050613148565b60405180831515151581526020018273ffffffffffffffffffffffffffffffffffffffff1673ffffffffffffffffffffffffffffffffffffffff1681526020019250505060405180910390f35b6060806060600160008573ffffffffffffffffffffffffffffffffffffffff1673ffffffffffffffffffffffffffffffffffffffff16815260200190815260200160002073__AddressSortedLinkedListWithMedian_____636cfa387390916040518263ffffffff1660e01b81526004018082815260200191505060006040518083038186803b158015610c4757600080fd5b505af4158015610c5b573d6000803e3d6000fd5b505050506040513d6000823e3d601f19601f820116820180604052506060811015610c8557600080fd5b8101908080516040519392919084640100000000821115610ca557600080fd5b83820191506020820185811115610cbb57600080fd5b8251866020820283011164010000000082111715610cd857600080fd5b8083526020830192505050908051906020019060200280838360005b83811015610d0f578082015181840152602081019050610cf4565b5050505090500160405260200180516040519392919084640100000000821115610d3857600080fd5b83820191506020820185811115610d4e57600080fd5b8251866020820283011164010000000082111715610d6b57600080fd5b8083526020830192505050908051906020019060200280838360005b83811015610da2578082015181840152602081019050610d87565b5050505090500160405260200180516040519392919084640100000000821115610dcb57600080fd5b83820191506020820185811115610de157600080fd5b8251866020820283011164010000000082111715610dfe57600080fd5b8083526020830192505050908051906020019060200280838360005b83811015610e35578082015181840152602081019050610e1a565b505050509050016040525050509250925092509193909250565b6000600260008373ffffffffffffffffffffffffffffffffffffffff1673ffffffffffffffffffffffffffffffffffffffff16815260200190815260200160002073__AddressSortedLinkedListWithMedian_____6359d556a890916040518263ffffffff1660e01b81526004018082815260200191505060206040518083038186803b158015610ee057600080fd5b505af4158015610ef4573d6000803e3d6000fd5b505050506040513d6020811015610f0a57600080fd5b81019080805190602001909291905050509050919050565b600060149054906101000a900460ff1681565b60066020528060005260406000206000915090505481565b60036020528160005260406000206020528060005260406000206000915091509054906101000a900460ff1681565b60055481565b610f8a612259565b610ffc576040517f08c379a00000000000000000000000000000000000000000000000000000000081526004018080602001828103825260208152602001807f4f776e61626c653a2063616c6c6572206973206e6f7420746865206f776e657281525060200191505060405180910390fd5b600073ffffffffffffffffffffffffffffffffffffffff168373ffffffffffffffffffffffffffffffffffffffff16141580156110665750600073ffffffffffffffffffffffffffffffffffffffff168273ffffffffffffffffffffffffffffffffffffffff1614155b80156110b3575080600460008573ffffffffffffffffffffffffffffffffffffffff1673ffffffffffffffffffffffffffffffffffffffff16815260200190815260200160002080549050115b801561115e57508173ffffffffffffffffffffffffffffffffffffffff16600460008573ffffffffffffffffffffffffffffffffffffffff1673ffffffffffffffffffffffffffffffffffffffff168152602001908152602001600020828154811061111b57fe5b9060005260206000200160009054906101000a900473ffffffffffffffffffffffffffffffffffffffff1673ffffffffffffffffffffffffffffffffffffffff16145b6111b3576040517f08c379a0000000000000000000000000000000000000000000000000000000008152600401808060200182810382526056815260200180613d5c6056913960600191505060405180910390fd5b6000600360008573ffffffffffffffffffffffffffffffffffffffff1673ffffffffffffffffffffffffffffffffffffffff16815260200190815260200160002060008473ffffffffffffffffffffffffffffffffffffffff1673ffffffffffffffffffffffffffffffffffffffff16815260200190815260200160002060006101000a81548160ff021916908315150217905550600460008473ffffffffffffffffffffffffffffffffffffffff1673ffffffffffffffffffffffffffffffffffffffff1681526020019081526020016000206112dd6001600460008773ffffffffffffffffffffffffffffffffffffffff1673ffffffffffffffffffffffffffffffffffffffff1681526020019081526020016000208054905061339390919063ffffffff16565b815481106112e757fe5b9060005260206000200160009054906101000a900473ffffffffffffffffffffffffffffffffffffffff16600460008573ffffffffffffffffffffffffffffffffffffffff1673ffffffffffffffffffffffffffffffffffffffff168152602001908152602001600020828154811061135c57fe5b9060005260206000200160006101000a81548173ffffffffffffffffffffffffffffffffffffffff021916908373ffffffffffffffffffffffffffffffffffffffff1602179055506113fa6001600460008673ffffffffffffffffffffffffffffffffffffffff1673ffffffffffffffffffffffffffffffffffffffff1681526020019081526020016000208054905061339390919063ffffffff16565b600460008573ffffffffffffffffffffffffffffffffffffffff1673ffffffffffffffffffffffffffffffffffffffff168152602001908152602001600020816114449190613cb0565b5061144f83836133dd565b1561145f5761145e83836135eb565b5b8173ffffffffffffffffffffffffffffffffffffffff168373ffffffffffffffffffffffffffffffffffffffff167f6dc84b66cc948d847632b9d829f7cb1cb904fbf2c084554a9bc22ad9d845334060405160405180910390a3505050565b60008060008060018060026001839350829250819150809050935093509350935090919293565b6000600260008373ffffffffffffffffffffffffffffffffffffffff1673ffffffffffffffffffffffffffffffffffffffff16815260200190815260200160002073__AddressSortedLinkedListWithMedian_____636eafa6c390916040518263ffffffff1660e01b81526004018082815260200191505060206040518083038186803b15801561157657600080fd5b505af415801561158a573d6000803e3d6000fd5b505050506040513d60208110156115a057600080fd5b81019080805190602001909291905050509050919050565b600080600660008473ffffffffffffffffffffffffffffffffffffffff1673ffffffffffffffffffffffffffffffffffffffff16815260200190815260200160002054141561160b57600554905061164e565b600660008373ffffffffffffffffffffffffffffffffffffffff1673ffffffffffffffffffffffffffffffffffffffff1681526020019081526020016000205490505b919050565b61165b612259565b6116cd576040517f08c379a00000000000000000000000000000000000000000000000000000000081526004018080602001828103825260208152602001807f4f776e61626c653a2063616c6c6572206973206e6f7420746865206f776e657281525060200191505060405180910390fd5b600073ffffffffffffffffffffffffffffffffffffffff166000809054906101000a900473ffffffffffffffffffffffffffffffffffffffff1673ffffffffffffffffffffffffffffffffffffffff167f8be0079c531659141344cd1fd0a4f28419497f9722a3daafe3b4186f6b6457e060405160405180910390a360008060006101000a81548173ffffffffffffffffffffffffffffffffffffffff021916908373ffffffffffffffffffffffffffffffffffffffff160217905550565b83600360008273ffffffffffffffffffffffffffffffffffffffff1673ffffffffffffffffffffffffffffffffffffffff16815260200190815260200160002060003373ffffffffffffffffffffffffffffffffffffffff1673ffffffffffffffffffffffffffffffffffffffff16815260200190815260200160002060009054906101000a900460ff1661186c576040517f08c379a0000000000000000000000000000000000000000000000000000000008152600401808060200182810382526027815260200180613e0c6027913960400191505060405180910390fd5b6000600160008773ffffffffffffffffffffffffffffffffffffffff1673ffffffffffffffffffffffffffffffffffffffff16815260200190815260200160002073__AddressSortedLinkedListWithMedian_____6359d556a890916040518263ffffffff1660e01b81526004018082815260200191505060206040518083038186803b1580156118fd57600080fd5b505af4158015611911573d6000803e3d6000fd5b505050506040513d602081101561192757600080fd5b81019080805190602001909291905050509050600160008773ffffffffffffffffffffffffffffffffffffffff1673ffffffffffffffffffffffffffffffffffffffff16815260200190815260200160002073__AddressSortedLinkedListWithMedian_____6395073a799091336040518363ffffffff1660e01b8152600401808381526020018273ffffffffffffffffffffffffffffffffffffffff1673ffffffffffffffffffffffffffffffffffffffff1681526020019250505060206040518083038186803b1580156119fd57600080fd5b505af4158015611a11573d6000803e3d6000fd5b505050506040513d6020811015611a2757600080fd5b810190808051906020019092919050505015611c6857600160008773ffffffffffffffffffffffffffffffffffffffff1673ffffffffffffffffffffffffffffffffffffffff16815260200190815260200160002073__AddressSortedLinkedListWithMedian_____63832a21479091338888886040518663ffffffff1660e01b8152600401808681526020018573ffffffffffffffffffffffffffffffffffffffff1673ffffffffffffffffffffffffffffffffffffffff1681526020018481526020018373ffffffffffffffffffffffffffffffffffffffff1673ffffffffffffffffffffffffffffffffffffffff1681526020018273ffffffffffffffffffffffffffffffffffffffff1673ffffffffffffffffffffffffffffffffffffffff1681526020019550505050505060006040518083038186803b158015611b7057600080fd5b505af4158015611b84573d6000803e3d6000fd5b50505050600260008773ffffffffffffffffffffffffffffffffffffffff1673ffffffffffffffffffffffffffffffffffffffff16815260200190815260200160002073__AddressSortedLinkedListWithMedian_____63c1e728e99091336040518363ffffffff1660e01b8152600401808381526020018273ffffffffffffffffffffffffffffffffffffffff1673ffffffffffffffffffffffffffffffffffffffff1681526020019250505060006040518083038186803b158015611c4b57600080fd5b505af4158015611c5f573d6000803e3d6000fd5b50505050611db4565b600160008773ffffffffffffffffffffffffffffffffffffffff1673ffffffffffffffffffffffffffffffffffffffff16815260200190815260200160002073__AddressSortedLinkedListWithMedian_____63d4a092729091338888886040518663ffffffff1660e01b8152600401808681526020018573ffffffffffffffffffffffffffffffffffffffff1673ffffffffffffffffffffffffffffffffffffffff1681526020018481526020018373ffffffffffffffffffffffffffffffffffffffff1673ffffffffffffffffffffffffffffffffffffffff1681526020018273ffffffffffffffffffffffffffffffffffffffff1673ffffffffffffffffffffffffffffffffffffffff1681526020019550505050505060006040518083038186803b158015611d9b57600080fd5b505af4158015611daf573d6000803e3d6000fd5b505050505b600260008773ffffffffffffffffffffffffffffffffffffffff1673ffffffffffffffffffffffffffffffffffffffff16815260200190815260200160002073__AddressSortedLinkedListWithMedian_____63d4a0927290913342600260008c73ffffffffffffffffffffffffffffffffffffffff1673ffffffffffffffffffffffffffffffffffffffff16815260200190815260200160002073__AddressSortedLinkedListWithMedian_____630944c59490916040518263ffffffff1660e01b81526004018082815260200191505060206040518083038186803b158015611ea057600080fd5b505af4158015611eb4573d6000803e3d6000fd5b505050506040513d6020811015611eca57600080fd5b810190808051906020019092919050505060006040518663ffffffff1660e01b8152600401808681526020018573ffffffffffffffffffffffffffffffffffffffff1673ffffffffffffffffffffffffffffffffffffffff1681526020018481526020018373ffffffffffffffffffffffffffffffffffffffff1673ffffffffffffffffffffffffffffffffffffffff1681526020018273ffffffffffffffffffffffffffffffffffffffff1673ffffffffffffffffffffffffffffffffffffffff1681526020019550505050505060006040518083038186803b158015611fb157600080fd5b505af4158015611fc5573d6000803e3d6000fd5b505050503373ffffffffffffffffffffffffffffffffffffffff168673ffffffffffffffffffffffffffffffffffffffff167f7cebb17173a9ed273d2b7538f64395c0ebf352ff743f1cf8ce66b437a61442134288604051808381526020018281526020019250505060405180910390a36000600160008873ffffffffffffffffffffffffffffffffffffffff1673ffffffffffffffffffffffffffffffffffffffff16815260200190815260200160002073__AddressSortedLinkedListWithMedian_____6359d556a890916040518263ffffffff1660e01b81526004018082815260200191505060206040518083038186803b1580156120c757600080fd5b505af41580156120db573d6000803e3d6000fd5b505050506040513d60208110156120f157600080fd5b8101908080519060200190929190505050905081811461215a578673ffffffffffffffffffffffffffffffffffffffff167fa9981ebfc3b766a742486e898f54959b050a66006dbce1a4155c1f84a08bcf41826040518082815260200191505060405180910390a25b50505050505050565b60008060009054906101000a900473ffffffffffffffffffffffffffffffffffffffff16905090565b6060600460008373ffffffffffffffffffffffffffffffffffffffff1673ffffffffffffffffffffffffffffffffffffffff16815260200190815260200160002080548060200260200160405190810160405280929190818152602001828054801561224d57602002820191906000526020600020905b8160009054906101000a900473ffffffffffffffffffffffffffffffffffffffff1673ffffffffffffffffffffffffffffffffffffffff1681526020019060010190808311612203575b50505050509050919050565b60008060009054906101000a900473ffffffffffffffffffffffffffffffffffffffff1673ffffffffffffffffffffffffffffffffffffffff1661229b613a1c565b73ffffffffffffffffffffffffffffffffffffffff1614905090565b600460205281600052604060002081815481106122d057fe5b906000526020600020016000915091509054906101000a900473ffffffffffffffffffffffffffffffffffffffff1681565b6060806060600260008573ffffffffffffffffffffffffffffffffffffffff1673ffffffffffffffffffffffffffffffffffffffff16815260200190815260200160002073__AddressSortedLinkedListWithMedian_____636cfa387390916040518263ffffffff1660e01b81526004018082815260200191505060006040518083038186803b15801561239657600080fd5b505af41580156123aa573d6000803e3d6000fd5b505050506040513d6000823e3d601f19601f8201168201806040525060608110156123d457600080fd5b81019080805160405193929190846401000000008211156123f457600080fd5b8382019150602082018581111561240a57600080fd5b825186602082028301116401000000008211171561242757600080fd5b8083526020830192505050908051906020019060200280838360005b8381101561245e578082015181840152602081019050612443565b505050509050016040526020018051604051939291908464010000000082111561248757600080fd5b8382019150602082018581111561249d57600080fd5b82518660208202830111640100000000821117156124ba57600080fd5b8083526020830192505050908051906020019060200280838360005b838110156124f15780820151818401526020810190506124d6565b505050509050016040526020018051604051939291908464010000000082111561251a57600080fd5b8382019150602082018581111561253057600080fd5b825186602082028301116401000000008211171561254d57600080fd5b8083526020830192505050908051906020019060200280838360005b83811015612584578082015181840152602081019050612569565b505050509050016040525050509250925092509193909250565b6000600160008373ffffffffffffffffffffffffffffffffffffffff1673ffffffffffffffffffffffffffffffffffffffff16815260200190815260200160002073__AddressSortedLinkedListWithMedian_____636eafa6c390916040518263ffffffff1660e01b81526004018082815260200191505060206040518083038186803b15801561262f57600080fd5b505af4158015612643573d6000803e3d6000fd5b505050506040513d602081101561265957600080fd5b81019080805190602001909291905050509050919050565b600073ffffffffffffffffffffffffffffffffffffffff168273ffffffffffffffffffffffffffffffffffffffff16141580156127765750600260008373ffffffffffffffffffffffffffffffffffffffff1673ffffffffffffffffffffffffffffffffffffffff16815260200190815260200160002073__AddressSortedLinkedListWithMedian_____636eafa6c390916040518263ffffffff1660e01b81526004018082815260200191505060206040518083038186803b15801561273857600080fd5b505af415801561274c573d6000803e3d6000fd5b505050506040513d602081101561276257600080fd5b810190808051906020019092919050505081105b6127cb576040517f08c379a0000000000000000000000000000000000000000000000000000000008152600401808060200182810382526034815260200180613d286034913960400191505060405180910390fd5b60008090505b81811015612822576000806127e585613148565b9150915081156127fe576127f985826135eb565b612805565b5050612822565b505061281b600182613a2490919063ffffffff16565b90506127d1565b505050565b61282f612259565b6128a1576040517f08c379a00000000000000000000000000000000000000000000000000000000081526004018080602001828103825260208152602001807f4f776e61626c653a2063616c6c6572206973206e6f7420746865206f776e657281525060200191505060405180910390fd5b600081116128fa576040517f08c379a0000000000000000000000000000000000000000000000000000000008152600401808060200182810382526021815260200180613e7d6021913960400191505060405180910390fd5b600554811415612955576040517f08c379a0000000000000000000000000000000000000000000000000000000008152600401808060200182810382526022815260200180613e5b6022913960400191505060405180910390fd5b806005819055507fc68a9b88effd8a11611ff410efbc83569f0031b7bc70dd455b61344c7f0a042f816040518082815260200191505060405180910390a150565b600080600160008473ffffffffffffffffffffffffffffffffffffffff1673ffffffffffffffffffffffffffffffffffffffff16815260200190815260200160002073__AddressSortedLinkedListWithMedian_____6359d556a890916040518263ffffffff1660e01b81526004018082815260200191505060206040518083038186803b158015612a2857600080fd5b505af4158015612a3c573d6000803e3d6000fd5b505050506040513d6020811015612a5257600080fd5b81019080805190602001909291905050506000612a6e8561259e565b14612a835769d3c21bcecceda1000000612a86565b60005b91509150915091565b612a97612259565b612b09576040517f08c379a00000000000000000000000000000000000000000000000000000000081526004018080602001828103825260208152602001807f4f776e61626c653a2063616c6c6572206973206e6f7420746865206f776e657281525060200191505060405180910390fd5b600073ffffffffffffffffffffffffffffffffffffffff168273ffffffffffffffffffffffffffffffffffffffff1614158015612b735750600073ffffffffffffffffffffffffffffffffffffffff168173ffffffffffffffffffffffffffffffffffffffff1614155b8015612c065750600360008373ffffffffffffffffffffffffffffffffffffffff1673ffffffffffffffffffffffffffffffffffffffff16815260200190815260200160002060008273ffffffffffffffffffffffffffffffffffffffff1673ffffffffffffffffffffffffffffffffffffffff16815260200190815260200160002060009054906101000a900460ff16155b612c5b576040517f08c379a000000000000000000000000000000000000000000000000000000000815260040180806020018281038252605a815260200180613db2605a913960600191505060405180910390fd5b6001600360008473ffffffffffffffffffffffffffffffffffffffff1673ffffffffffffffffffffffffffffffffffffffff16815260200190815260200160002060008373ffffffffffffffffffffffffffffffffffffffff1673ffffffffffffffffffffffffffffffffffffffff16815260200190815260200160002060006101000a81548160ff021916908315150217905550600460008373ffffffffffffffffffffffffffffffffffffffff1673ffffffffffffffffffffffffffffffffffffffff1681526020019081526020016000208190806001815401808255809150509060018203906000526020600020016000909192909190916101000a81548173ffffffffffffffffffffffffffffffffffffffff021916908373ffffffffffffffffffffffffffffffffffffffff160217905550508073ffffffffffffffffffffffffffffffffffffffff168273ffffffffffffffffffffffffffffffffffffffff167f828d2be040dede7698182e08dfa8bfbd663c879aee772509c4a2bd961d0ed43f60405160405180910390a35050565b612df9612259565b612e6b576040517f08c379a00000000000000000000000000000000000000000000000000000000081526004018080602001828103825260208152602001807f4f776e61626c653a2063616c6c6572206973206e6f7420746865206f776e657281525060200191505060405180910390fd5b612e7481613aac565b50565b612e7f612259565b612ef1576040517f08c379a00000000000000000000000000000000000000000000000000000000081526004018080602001828103825260208152602001807f4f776e61626c653a2063616c6c6572206973206e6f7420746865206f776e657281525060200191505060405180910390fd5b60008111612f4a576040517f08c379a0000000000000000000000000000000000000000000000000000000008152600401808060200182810382526021815260200180613e7d6021913960400191505060405180910390fd5b600660008373ffffffffffffffffffffffffffffffffffffffff1673ffffffffffffffffffffffffffffffffffffffff16815260200190815260200160002054811415612fe2576040517f08c379a0000000000000000000000000000000000000000000000000000000008152600401808060200182810382526028815260200180613e336028913960400191505060405180910390fd5b80600660008473ffffffffffffffffffffffffffffffffffffffff1673ffffffffffffffffffffffffffffffffffffffff168152602001908152602001600020819055507ff8324c8592dfd9991ee3e717351afe0a964605257959e3d99b0eb3d45bff94228282604051808373ffffffffffffffffffffffffffffffffffffffff1673ffffffffffffffffffffffffffffffffffffffff1681526020018281526020019250505060405180910390a15050565b600060149054906101000a900460ff1615613118576040517f08c379a000000000000000000000000000000000000000000000000000000000815260040180806020018281038252601c8152602001807f636f6e747261637420616c726561647920696e697469616c697a65640000000081525060200191505060405180910390fd5b6001600060146101000a81548160ff02191690831515021790555061313c33613aac565b61314581612827565b50565b600080600073ffffffffffffffffffffffffffffffffffffffff168373ffffffffffffffffffffffffffffffffffffffff16141561318557600080fd5b6000600260008573ffffffffffffffffffffffffffffffffffffffff1673ffffffffffffffffffffffffffffffffffffffff16815260200190815260200160002073__AddressSortedLinkedListWithMedian_____63d938ec7b90916040518263ffffffff1660e01b81526004018082815260200191505060206040518083038186803b15801561321657600080fd5b505af415801561322a573d6000803e3d6000fd5b505050506040513d602081101561324057600080fd5b810190808051906020019092919050505090506000600260008673ffffffffffffffffffffffffffffffffffffffff1673ffffffffffffffffffffffffffffffffffffffff16815260200190815260200160002073__AddressSortedLinkedListWithMedian_____637c6bb8629091846040518363ffffffff1660e01b8152600401808381526020018273ffffffffffffffffffffffffffffffffffffffff1673ffffffffffffffffffffffffffffffffffffffff1681526020019250505060206040518083038186803b15801561331857600080fd5b505af415801561332c573d6000803e3d6000fd5b505050506040513d602081101561334257600080fd5b8101908080519060200190929190505050905061335e856115b8565b613371824261339390919063ffffffff16565b106133845760018293509350505061338e565b6000829350935050505b915091565b60006133d583836040518060400160405280601e81526020017f536166654d6174683a207375627472616374696f6e206f766572666c6f770000815250613bf0565b905092915050565b6000600160008473ffffffffffffffffffffffffffffffffffffffff1673ffffffffffffffffffffffffffffffffffffffff16815260200190815260200160002073__AddressSortedLinkedListWithMedian_____6395073a799091846040518363ffffffff1660e01b8152600401808381526020018273ffffffffffffffffffffffffffffffffffffffff1673ffffffffffffffffffffffffffffffffffffffff1681526020019250505060206040518083038186803b1580156134a257600080fd5b505af41580156134b6573d6000803e3d6000fd5b505050506040513d60208110156134cc57600080fd5b810190808051906020019092919050505080156135e35750600260008473ffffffffffffffffffffffffffffffffffffffff1673ffffffffffffffffffffffffffffffffffffffff16815260200190815260200160002073__AddressSortedLinkedListWithMedian_____6395073a799091846040518363ffffffff1660e01b8152600401808381526020018273ffffffffffffffffffffffffffffffffffffffff1673ffffffffffffffffffffffffffffffffffffffff1681526020019250505060206040518083038186803b1580156135a757600080fd5b505af41580156135bb573d6000803e3d6000fd5b505050506040513d60208110156135d157600080fd5b81019080805190602001909291905050505b905092915050565b60016135f6836114e5565b148015613609575061360882826133dd565b5b1561361357613a18565b6000600160008473ffffffffffffffffffffffffffffffffffffffff1673ffffffffffffffffffffffffffffffffffffffff16815260200190815260200160002073__AddressSortedLinkedListWithMedian_____6359d556a890916040518263ffffffff1660e01b81526004018082815260200191505060206040518083038186803b1580156136a457600080fd5b505af41580156136b8573d6000803e3d6000fd5b505050506040513d60208110156136ce57600080fd5b81019080805190602001909291905050509050600160008473ffffffffffffffffffffffffffffffffffffffff1673ffffffffffffffffffffffffffffffffffffffff16815260200190815260200160002073__AddressSortedLinkedListWithMedian_____63c1e728e99091846040518363ffffffff1660e01b8152600401808381526020018273ffffffffffffffffffffffffffffffffffffffff1673ffffffffffffffffffffffffffffffffffffffff1681526020019250505060006040518083038186803b1580156137a457600080fd5b505af41580156137b8573d6000803e3d6000fd5b50505050600260008473ffffffffffffffffffffffffffffffffffffffff1673ffffffffffffffffffffffffffffffffffffffff16815260200190815260200160002073__AddressSortedLinkedListWithMedian_____63c1e728e99091846040518363ffffffff1660e01b8152600401808381526020018273ffffffffffffffffffffffffffffffffffffffff1673ffffffffffffffffffffffffffffffffffffffff1681526020019250505060006040518083038186803b15801561387f57600080fd5b505af4158015613893573d6000803e3d6000fd5b505050508173ffffffffffffffffffffffffffffffffffffffff168373ffffffffffffffffffffffffffffffffffffffff167fe21a44017b6fa1658d84e937d56ff408501facdb4ff7427c479ac460d76f789360405160405180910390a36000600160008573ffffffffffffffffffffffffffffffffffffffff1673ffffffffffffffffffffffffffffffffffffffff16815260200190815260200160002073__AddressSortedLinkedListWithMedian_____6359d556a890916040518263ffffffff1660e01b81526004018082815260200191505060206040518083038186803b15801561398257600080fd5b505af4158015613996573d6000803e3d6000fd5b505050506040513d60208110156139ac57600080fd5b81019080805190602001909291905050509050818114613a15578373ffffffffffffffffffffffffffffffffffffffff167fa9981ebfc3b766a742486e898f54959b050a66006dbce1a4155c1f84a08bcf41826040518082815260200191505060405180910390a25b50505b5050565b600033905090565b600080828401905083811015613aa2576040517f08c379a000000000000000000000000000000000000000000000000000000000815260040180806020018281038252601b8152602001807f536166654d6174683a206164646974696f6e206f766572666c6f77000000000081525060200191505060405180910390fd5b8091505092915050565b600073ffffffffffffffffffffffffffffffffffffffff168173ffffffffffffffffffffffffffffffffffffffff161415613b32576040517f08c379a0000000000000000000000000000000000000000000000000000000008152600401808060200182810382526026815260200180613d026026913960400191505060405180910390fd5b8073ffffffffffffffffffffffffffffffffffffffff166000809054906101000a900473ffffffffffffffffffffffffffffffffffffffff1673ffffffffffffffffffffffffffffffffffffffff167f8be0079c531659141344cd1fd0a4f28419497f9722a3daafe3b4186f6b6457e060405160405180910390a3806000806101000a81548173ffffffffffffffffffffffffffffffffffffffff021916908373ffffffffffffffffffffffffffffffffffffffff16021790555050565b6000838311158290613c9d576040517f08c379a00000000000000000000000000000000000000000000000000000000081526004018080602001828103825283818151815260200191508051906020019080838360005b83811015613c62578082015181840152602081019050613c47565b50505050905090810190601f168015613c8f5780820380516001836020036101000a031916815260200191505b509250505060405180910390fd5b5060008385039050809150509392505050565b815481835581811115613cd757818360005260206000209182019101613cd69190613cdc565b5b505050565b613cfe91905b80821115613cfa576000816000905550600101613ce2565b5090565b9056fe4f776e61626c653a206e6577206f776e657220697320746865207a65726f2061646472657373746f6b656e2061646472206e756c6c206f7220747279696e6720746f2072656d6f766520746f6f206d616e79207265706f727473746f6b656e2061646472206e756c6c206f72206f7261636c652061646472206e756c6c206f7220696e646578206f6620746f6b656e206f7261636c65206e6f74206d617070656420746f206f7261636c652061646472746f6b656e206164647220776173206e756c6c206f72206f7261636c65206164647220776173206e756c6c206f72206f7261636c652061646472206973206e6f7420616e206f7261636c6520666f7220746f6b656e206164647273656e64657220776173206e6f7420616e206f7261636c6520666f7220746f6b656e2061646472746f6b656e207265706f72744578706972795365636f6e6473206861736e2774206368616e6765647265706f72744578706972795365636f6e6473206861736e2774206368616e6765647265706f727420657870697279207365636f6e6473206d757374206265203e2030a265627a7a723158201f6ae53d265c3df2dee611b6e3c0cc18bcfb30eac52ff2c8f7b8d52d1465ff3d64736f6c634300050d0032",
  "source": "pragma solidity ^0.5.13;\n\nimport \"openzeppelin-solidity/contracts/math/SafeMath.sol\";\nimport \"openzeppelin-solidity/contracts/ownership/Ownable.sol\";\n\nimport \"./interfaces/ISortedOracles.sol\";\nimport \"./common/interfaces/ICeloVersionedContract.sol\";\n\nimport \"./common/FixidityLib.sol\";\nimport \"./common/Initializable.sol\";\nimport \"./common/linkedlists/AddressSortedLinkedListWithMedian.sol\";\nimport \"./common/linkedlists/SortedLinkedListWithMedian.sol\";\n\n/**\n * @title Maintains a sorted list of oracle exchange rates between CELO and other currencies.\n */\ncontract SortedOracles is ISortedOracles, ICeloVersionedContract, Ownable, Initializable {\n    using SafeMath for uint256;\n    using AddressSortedLinkedListWithMedian for SortedLinkedListWithMedian.List;\n    using FixidityLib for FixidityLib.Fraction;\n\n    uint256 private constant FIXED1_UINT = 1000000000000000000000000;\n\n    // Maps a token address to a sorted list of report values.\n    mapping(address => SortedLinkedListWithMedian.List) private rates;\n    // Maps a token address to a sorted list of report timestamps.\n    mapping(address => SortedLinkedListWithMedian.List) private timestamps;\n    mapping(address => mapping(address => bool)) public isOracle;\n    mapping(address => address[]) public oracles;\n\n    // `reportExpirySeconds` is the fallback value used to determine reporting\n    // frequency. Initially it was the _only_ value but we later introduced\n    // the per token mapping in `tokenReportExpirySeconds`. If a token\n    // doesn't have a value in the mapping (i.e. it's 0), the fallback is used.\n    // See: #getTokenReportExpirySeconds\n    uint256 public reportExpirySeconds;\n    mapping(address => uint256) public tokenReportExpirySeconds;\n\n    event OracleAdded(address indexed token, address indexed oracleAddress);\n    event OracleRemoved(address indexed token, address indexed oracleAddress);\n    event OracleReported(address indexed token, address indexed oracle, uint256 timestamp, uint256 value);\n    event OracleReportRemoved(address indexed token, address indexed oracle);\n    event MedianUpdated(address indexed token, uint256 value);\n    event ReportExpirySet(uint256 reportExpiry);\n    event TokenReportExpirySet(address token, uint256 reportExpiry);\n\n    modifier onlyOracle(address token) {\n        require(isOracle[token][msg.sender], \"sender was not an oracle for token addr\");\n        _;\n    }\n\n    /**\n     * @notice Returns the storage, major, minor, and patch version of the contract.\n     * @return Storage version of the contract.\n     * @return Major version of the contract.\n     * @return Minor version of the contract.\n     * @return Patch version of the contract.\n     */\n    function getVersionNumber()\n        external\n        pure\n        returns (\n            uint256,\n            uint256,\n            uint256,\n            uint256\n        )\n    {\n        return (1, 1, 2, 1);\n    }\n\n    /**\n     * @notice Sets initialized == true on implementation contracts\n     * @param test Set to true to skip implementation initialization\n     */\n    constructor(bool test) public Initializable(test) {}\n\n    /**\n     * @notice Used in place of the constructor to allow the contract to be upgradable via proxy.\n     * @param _reportExpirySeconds The number of seconds before a report is considered expired.\n     */\n    function initialize(uint256 _reportExpirySeconds) external initializer {\n        _transferOwnership(msg.sender);\n        setReportExpiry(_reportExpirySeconds);\n    }\n\n    /**\n     * @notice Sets the report expiry parameter.\n     * @param _reportExpirySeconds The number of seconds before a report is considered expired.\n     */\n    function setReportExpiry(uint256 _reportExpirySeconds) public onlyOwner {\n        require(_reportExpirySeconds > 0, \"report expiry seconds must be > 0\");\n        require(_reportExpirySeconds != reportExpirySeconds, \"reportExpirySeconds hasn't changed\");\n        reportExpirySeconds = _reportExpirySeconds;\n        emit ReportExpirySet(_reportExpirySeconds);\n    }\n\n    /**\n     * @notice Sets the report expiry parameter for a token.\n     * @param _token The address of the token to set expiry for.\n     * @param _reportExpirySeconds The number of seconds before a report is considered expired.\n     */\n    function setTokenReportExpiry(address _token, uint256 _reportExpirySeconds) external onlyOwner {\n        require(_reportExpirySeconds > 0, \"report expiry seconds must be > 0\");\n        require(_reportExpirySeconds != tokenReportExpirySeconds[_token], \"token reportExpirySeconds hasn't changed\");\n        tokenReportExpirySeconds[_token] = _reportExpirySeconds;\n        emit TokenReportExpirySet(_token, _reportExpirySeconds);\n    }\n\n    /**\n     * @notice Adds a new Oracle.\n     * @param token The address of the token.\n     * @param oracleAddress The address of the oracle.\n     */\n    function addOracle(address token, address oracleAddress) external onlyOwner {\n        require(\n            token != address(0) && oracleAddress != address(0) && !isOracle[token][oracleAddress],\n            \"token addr was null or oracle addr was null or oracle addr is not an oracle for token addr\"\n        );\n        isOracle[token][oracleAddress] = true;\n        oracles[token].push(oracleAddress);\n        emit OracleAdded(token, oracleAddress);\n    }\n\n    /**\n     * @notice Removes an Oracle.\n     * @param token The address of the token.\n     * @param oracleAddress The address of the oracle.\n     * @param index The index of `oracleAddress` in the list of oracles.\n     */\n    function removeOracle(\n        address token,\n        address oracleAddress,\n        uint256 index\n    ) external onlyOwner {\n        require(\n            token != address(0) &&\n                oracleAddress != address(0) &&\n                oracles[token].length > index &&\n                oracles[token][index] == oracleAddress,\n            \"token addr null or oracle addr null or index of token oracle not mapped to oracle addr\"\n        );\n        isOracle[token][oracleAddress] = false;\n        oracles[token][index] = oracles[token][oracles[token].length.sub(1)];\n        oracles[token].length = oracles[token].length.sub(1);\n        if (reportExists(token, oracleAddress)) {\n            removeReport(token, oracleAddress);\n        }\n        emit OracleRemoved(token, oracleAddress);\n    }\n\n    /**\n     * @notice Removes a report that is expired.\n     * @param token The address of the token for which the CELO exchange rate is being reported.\n     * @param n The number of expired reports to remove, at most (deterministic upper gas bound).\n     */\n    function removeExpiredReports(address token, uint256 n) external {\n        require(\n            token != address(0) && n < timestamps[token].getNumElements(),\n            \"token addr null or trying to remove too many reports\"\n        );\n        for (uint256 i = 0; i < n; i = i.add(1)) {\n            (bool isExpired, address oldestAddress) = isOldestReportExpired(token);\n            if (isExpired) {\n                removeReport(token, oldestAddress);\n            } else {\n                break;\n            }\n        }\n    }\n\n    /**\n     * @notice Check if last report is expired.\n     * @param token The address of the token for which the CELO exchange rate is being reported.\n     * @return isExpired\n     * @return The address of the last report.\n     */\n    function isOldestReportExpired(address token) public view returns (bool, address) {\n        require(token != address(0));\n        address oldest = timestamps[token].getTail();\n        uint256 timestamp = timestamps[token].getValue(oldest);\n        // solhint-disable-next-line not-rely-on-time\n        if (now.sub(timestamp) >= getTokenReportExpirySeconds(token)) {\n            return (true, oldest);\n        }\n        return (false, oldest);\n    }\n\n    /**\n     * @notice Updates an oracle value and the median.\n     * @param token The address of the token for which the CELO exchange rate is being reported.\n     * @param value The amount of `token` equal to one CELO, expressed as a fixidity value.\n     * @param lesserKey The element which should be just left of the new oracle value.\n     * @param greaterKey The element which should be just right of the new oracle value.\n     * @dev Note that only one of `lesserKey` or `greaterKey` needs to be correct to reduce friction.\n     */\n    function report(\n        address token,\n        uint256 value,\n        address lesserKey,\n        address greaterKey\n    ) external onlyOracle(token) {\n        uint256 originalMedian = rates[token].getMedianValue();\n        if (rates[token].contains(msg.sender)) {\n            rates[token].update(msg.sender, value, lesserKey, greaterKey);\n\n            // Rather than update the timestamp, we remove it and re-add it at the\n            // head of the list later. The reason for this is that we need to handle\n            // a few different cases:\n            //   1. This oracle is the only one to report so far. lesserKey = address(0)\n            //   2. Other oracles have reported since this one's last report. lesserKey = getHead()\n            //   3. Other oracles have reported, but the most recent is this one.\n            //      lesserKey = key immediately after getHead()\n            //\n            // However, if we just remove this timestamp, timestamps[token].getHead()\n            // does the right thing in all cases.\n            timestamps[token].remove(msg.sender);\n        } else {\n            rates[token].insert(msg.sender, value, lesserKey, greaterKey);\n        }\n        timestamps[token].insert(\n            msg.sender,\n            // solhint-disable-next-line not-rely-on-time\n            now,\n            timestamps[token].getHead(),\n            address(0)\n        );\n        emit OracleReported(token, msg.sender, now, value);\n        uint256 newMedian = rates[token].getMedianValue();\n        if (newMedian != originalMedian) {\n            emit MedianUpdated(token, newMedian);\n        }\n    }\n\n    /**\n     * @notice Returns the number of rates.\n     * @param token The address of the token for which the CELO exchange rate is being reported.\n     * @return The number of reported oracle rates for `token`.\n     */\n    function numRates(address token) public view returns (uint256) {\n        return rates[token].getNumElements();\n    }\n\n    /**\n     * @notice Returns the median rate.\n     * @param token The address of the token for which the CELO exchange rate is being reported.\n     * @return The median exchange rate for `token`.\n     * @return fixidity\n     */\n    function medianRate(address token) external view returns (uint256, uint256) {\n        return (rates[token].getMedianValue(), numRates(token) == 0 ? 0 : FIXED1_UINT);\n    }\n\n    /**\n     * @notice Gets all elements from the doubly linked list.\n     * @param token The address of the token for which the CELO exchange rate is being reported.\n     * @return keys Keys of nn unpacked list of elements from largest to smallest.\n     * @return values Values of an unpacked list of elements from largest to smallest.\n     * @return relations Relations of an unpacked list of elements from largest to smallest.\n     */\n    function getRates(address token)\n        external\n        view\n        returns (\n            address[] memory,\n            uint256[] memory,\n            SortedLinkedListWithMedian.MedianRelation[] memory\n        )\n    {\n        return rates[token].getElements();\n    }\n\n    /**\n     * @notice Returns the number of timestamps.\n     * @param token The address of the token for which the CELO exchange rate is being reported.\n     * @return The number of oracle report timestamps for `token`.\n     */\n    function numTimestamps(address token) public view returns (uint256) {\n        return timestamps[token].getNumElements();\n    }\n\n    /**\n     * @notice Returns the median timestamp.\n     * @param token The address of the token for which the CELO exchange rate is being reported.\n     * @return The median report timestamp for `token`.\n     */\n    function medianTimestamp(address token) external view returns (uint256) {\n        return timestamps[token].getMedianValue();\n    }\n\n    /**\n     * @notice Gets all elements from the doubly linked list.\n     * @param token The address of the token for which the CELO exchange rate is being reported.\n     * @return keys Keys of nn unpacked list of elements from largest to smallest.\n     * @return values Values of an unpacked list of elements from largest to smallest.\n     * @return relations Relations of an unpacked list of elements from largest to smallest.\n     */\n    function getTimestamps(address token)\n        external\n        view\n        returns (\n            address[] memory,\n            uint256[] memory,\n            SortedLinkedListWithMedian.MedianRelation[] memory\n        )\n    {\n        return timestamps[token].getElements();\n    }\n\n    /**\n     * @notice Returns whether a report exists on token from oracle.\n     * @param token The address of the token for which the CELO exchange rate is being reported.\n     * @param oracle The oracle whose report should be checked.\n     */\n    function reportExists(address token, address oracle) internal view returns (bool) {\n        return rates[token].contains(oracle) && timestamps[token].contains(oracle);\n    }\n\n    /**\n     * @notice Returns the list of oracles for a particular token.\n     * @param token The address of the token whose oracles should be returned.\n     * @return The list of oracles for a particular token.\n     */\n    function getOracles(address token) external view returns (address[] memory) {\n        return oracles[token];\n    }\n\n    /**\n     * @notice Returns the expiry for the token if exists, if not the default.\n     * @param token The address of the token.\n     * @return The report expiry in seconds.\n     */\n    function getTokenReportExpirySeconds(address token) public view returns (uint256) {\n        if (tokenReportExpirySeconds[token] == 0) {\n            return reportExpirySeconds;\n        }\n\n        return tokenReportExpirySeconds[token];\n    }\n\n    /**\n     * @notice Removes an oracle value and updates the median.\n     * @param token The address of the token for which the CELO exchange rate is being reported.\n     * @param oracle The oracle whose value should be removed.\n     * @dev This can be used to delete elements for oracles that have been removed.\n     * However, a > 1 elements reports list should always be maintained\n     */\n    function removeReport(address token, address oracle) private {\n        if (numTimestamps(token) == 1 && reportExists(token, oracle)) return;\n        uint256 originalMedian = rates[token].getMedianValue();\n        rates[token].remove(oracle);\n        timestamps[token].remove(oracle);\n        emit OracleReportRemoved(token, oracle);\n        uint256 newMedian = rates[token].getMedianValue();\n        if (newMedian != originalMedian) {\n            emit MedianUpdated(token, newMedian);\n        }\n    }\n}\n",
  "compiler": {
    "name": "solc",
    "version": "0.5.13+commit.5b0b510c.Emscripten.clang"
  },
  "schemaVersion": "3.4.13",
  "updatedAt": "2023-11-21T17:20:51.953Z",
  "devdoc": {
    "methods": {
      "addOracle(address,address)": {
        "params": {
          "oracleAddress": "The address of the oracle.",
          "token": "The address of the token."
        }
      },
      "constructor": {
        "params": {
          "test": "Set to true to skip implementation initialization"
        }
      },
      "getOracles(address)": {
        "params": {
          "token": "The address of the token whose oracles should be returned."
        },
        "return": "The list of oracles for a particular token."
      },
      "getRates(address)": {
        "params": {
          "token": "The address of the token for which the CELO exchange rate is being reported."
        },
        "return": "keys Keys of nn unpacked list of elements from largest to smallest.values Values of an unpacked list of elements from largest to smallest.relations Relations of an unpacked list of elements from largest to smallest."
      },
      "getTimestamps(address)": {
        "params": {
          "token": "The address of the token for which the CELO exchange rate is being reported."
        },
        "return": "keys Keys of nn unpacked list of elements from largest to smallest.values Values of an unpacked list of elements from largest to smallest.relations Relations of an unpacked list of elements from largest to smallest."
      },
      "getTokenReportExpirySeconds(address)": {
        "params": {
          "token": "The address of the token."
        },
        "return": "The report expiry in seconds."
      },
      "getVersionNumber()": {
        "return": "Storage version of the contract.Major version of the contract.Minor version of the contract.Patch version of the contract."
      },
      "initialize(uint256)": {
        "params": {
          "_reportExpirySeconds": "The number of seconds before a report is considered expired."
        }
      },
      "isOldestReportExpired(address)": {
        "params": {
          "token": "The address of the token for which the CELO exchange rate is being reported."
        },
        "return": "isExpiredThe address of the last report."
      },
      "isOwner()": {
        "details": "Returns true if the caller is the current owner."
      },
      "medianRate(address)": {
        "params": {
          "token": "The address of the token for which the CELO exchange rate is being reported."
        },
        "return": "The median exchange rate for `token`.fixidity"
      },
      "medianTimestamp(address)": {
        "params": {
          "token": "The address of the token for which the CELO exchange rate is being reported."
        },
        "return": "The median report timestamp for `token`."
      },
      "numRates(address)": {
        "params": {
          "token": "The address of the token for which the CELO exchange rate is being reported."
        },
        "return": "The number of reported oracle rates for `token`."
      },
      "numTimestamps(address)": {
        "params": {
          "token": "The address of the token for which the CELO exchange rate is being reported."
        },
        "return": "The number of oracle report timestamps for `token`."
      },
      "owner()": {
        "details": "Returns the address of the current owner."
      },
      "removeExpiredReports(address,uint256)": {
        "params": {
          "n": "The number of expired reports to remove, at most (deterministic upper gas bound).",
          "token": "The address of the token for which the CELO exchange rate is being reported."
        }
      },
      "removeOracle(address,address,uint256)": {
        "params": {
          "index": "The index of `oracleAddress` in the list of oracles.",
          "oracleAddress": "The address of the oracle.",
          "token": "The address of the token."
        }
      },
      "renounceOwnership()": {
        "details": "Leaves the contract without owner. It will not be possible to call `onlyOwner` functions anymore. Can only be called by the current owner.     * NOTE: Renouncing ownership will leave the contract without an owner, thereby removing any functionality that is only available to the owner."
      },
      "report(address,uint256,address,address)": {
        "details": "Note that only one of `lesserKey` or `greaterKey` needs to be correct to reduce friction.",
        "params": {
          "greaterKey": "The element which should be just right of the new oracle value.",
          "lesserKey": "The element which should be just left of the new oracle value.",
          "token": "The address of the token for which the CELO exchange rate is being reported.",
          "value": "The amount of `token` equal to one CELO, expressed as a fixidity value."
        }
      },
      "setReportExpiry(uint256)": {
        "params": {
          "_reportExpirySeconds": "The number of seconds before a report is considered expired."
        }
      },
      "setTokenReportExpiry(address,uint256)": {
        "params": {
          "_reportExpirySeconds": "The number of seconds before a report is considered expired.",
          "_token": "The address of the token to set expiry for."
        }
      },
      "transferOwnership(address)": {
        "details": "Transfers ownership of the contract to a new account (`newOwner`). Can only be called by the current owner."
      }
    },
    "title": "Maintains a sorted list of oracle exchange rates between CELO and other currencies."
  },
  "userdoc": {
    "methods": {
      "addOracle(address,address)": {
        "notice": "Adds a new Oracle."
      },
      "constructor": "Sets initialized == true on implementation contracts",
      "getOracles(address)": {
        "notice": "Returns the list of oracles for a particular token."
      },
      "getRates(address)": {
        "notice": "Gets all elements from the doubly linked list."
      },
      "getTimestamps(address)": {
        "notice": "Gets all elements from the doubly linked list."
      },
      "getTokenReportExpirySeconds(address)": {
        "notice": "Returns the expiry for the token if exists, if not the default."
      },
      "getVersionNumber()": {
        "notice": "Returns the storage, major, minor, and patch version of the contract."
      },
      "initialize(uint256)": {
        "notice": "Used in place of the constructor to allow the contract to be upgradable via proxy."
      },
      "isOldestReportExpired(address)": {
        "notice": "Check if last report is expired."
      },
      "medianRate(address)": {
        "notice": "Returns the median rate."
      },
      "medianTimestamp(address)": {
        "notice": "Returns the median timestamp."
      },
      "numRates(address)": {
        "notice": "Returns the number of rates."
      },
      "numTimestamps(address)": {
        "notice": "Returns the number of timestamps."
      },
      "removeExpiredReports(address,uint256)": {
        "notice": "Removes a report that is expired."
      },
      "removeOracle(address,address,uint256)": {
        "notice": "Removes an Oracle."
      },
      "report(address,uint256,address,address)": {
        "notice": "Updates an oracle value and the median."
      },
      "setReportExpiry(uint256)": {
        "notice": "Sets the report expiry parameter."
      },
      "setTokenReportExpiry(address,uint256)": {
        "notice": "Sets the report expiry parameter for a token."
      }
    }
  }
}