{
  "contractName": "StableTokenEUR",
  "abi": [
    {
      "inputs": [
        {
          "internalType": "bool",
          "name": "test",
          "type": "bool"
        }
      ],
      "payable": false,
      "stateMutability": "nonpayable",
      "type": "constructor"
    },
    {
      "anonymous": false,
      "inputs": [
        {
          "indexed": true,
          "internalType": "address",
          "name": "owner",
          "type": "address"
        },
        {
          "indexed": true,
          "internalType": "address",
          "name": "spender",
          "type": "address"
        },
        {
          "indexed": false,
          "internalType": "uint256",
          "name": "value",
          "type": "uint256"
        }
      ],
      "name": "Approval",
      "type": "event"
    },
    {
      "anonymous": false,
      "inputs": [
        {
          "indexed": false,
          "internalType": "uint256",
          "name": "factor",
          "type": "uint256"
        },
        {
          "indexed": false,
          "internalType": "uint256",
          "name": "lastUpdated",
          "type": "uint256"
        }
      ],
      "name": "InflationFactorUpdated",
      "type": "event"
    },
    {
      "anonymous": false,
      "inputs": [
        {
          "indexed": false,
          "internalType": "uint256",
          "name": "rate",
          "type": "uint256"
        },
        {
          "indexed": false,
          "internalType": "uint256",
          "name": "updatePeriod",
          "type": "uint256"
        },
        {
          "indexed": false,
          "internalType": "uint256",
          "name": "lastUpdated",
          "type": "uint256"
        }
      ],
      "name": "InflationParametersUpdated",
      "type": "event"
    },
    {
      "anonymous": false,
      "inputs": [
        {
          "indexed": true,
          "internalType": "address",
          "name": "previousOwner",
          "type": "address"
        },
        {
          "indexed": true,
          "internalType": "address",
          "name": "newOwner",
          "type": "address"
        }
      ],
      "name": "OwnershipTransferred",
      "type": "event"
    },
    {
      "anonymous": false,
      "inputs": [
        {
          "indexed": true,
          "internalType": "address",
          "name": "registryAddress",
          "type": "address"
        }
      ],
      "name": "RegistrySet",
      "type": "event"
    },
    {
      "anonymous": false,
      "inputs": [
        {
          "indexed": true,
          "internalType": "address",
          "name": "from",
          "type": "address"
        },
        {
          "indexed": true,
          "internalType": "address",
          "name": "to",
          "type": "address"
        },
        {
          "indexed": false,
          "internalType": "uint256",
          "name": "value",
          "type": "uint256"
        }
      ],
      "name": "Transfer",
      "type": "event"
    },
    {
      "anonymous": false,
      "inputs": [
        {
          "indexed": false,
          "internalType": "string",
          "name": "comment",
          "type": "string"
        }
      ],
      "name": "TransferComment",
      "type": "event"
    },
    {
      "constant": true,
      "inputs": [
        {
          "internalType": "address",
          "name": "accountOwner",
          "type": "address"
        },
        {
          "internalType": "address",
          "name": "spender",
          "type": "address"
        }
      ],
      "name": "allowance",
      "outputs": [
        {
          "internalType": "uint256",
          "name": "",
          "type": "uint256"
        }
      ],
      "payable": false,
      "stateMutability": "view",
      "type": "function"
    },
    {
      "constant": false,
      "inputs": [
        {
          "internalType": "address",
          "name": "spender",
          "type": "address"
        },
        {
          "internalType": "uint256",
          "name": "value",
          "type": "uint256"
        }
      ],
      "name": "approve",
      "outputs": [
        {
          "internalType": "bool",
          "name": "",
          "type": "bool"
        }
      ],
      "payable": false,
      "stateMutability": "nonpayable",
      "type": "function"
    },
    {
      "constant": true,
      "inputs": [
        {
          "internalType": "address",
          "name": "accountOwner",
          "type": "address"
        }
      ],
      "name": "balanceOf",
      "outputs": [
        {
          "internalType": "uint256",
          "name": "",
          "type": "uint256"
        }
      ],
      "payable": false,
      "stateMutability": "view",
      "type": "function"
    },
    {
      "constant": false,
      "inputs": [
        {
          "internalType": "uint256",
          "name": "value",
          "type": "uint256"
        }
      ],
      "name": "burn",
      "outputs": [
        {
          "internalType": "bool",
          "name": "",
          "type": "bool"
        }
      ],
      "payable": false,
      "stateMutability": "nonpayable",
      "type": "function"
    },
    {
      "constant": true,
      "inputs": [
        {
          "internalType": "address",
          "name": "sender",
          "type": "address"
        },
        {
          "internalType": "bytes",
          "name": "blsKey",
          "type": "bytes"
        },
        {
          "internalType": "bytes",
          "name": "blsPop",
          "type": "bytes"
        }
      ],
      "name": "checkProofOfPossession",
      "outputs": [
        {
          "internalType": "bool",
          "name": "",
          "type": "bool"
        }
      ],
      "payable": false,
      "stateMutability": "view",
      "type": "function"
    },
    {
      "constant": false,
      "inputs": [
        {
          "internalType": "address",
          "name": "from",
          "type": "address"
        },
        {
          "internalType": "address",
          "name": "feeRecipient",
          "type": "address"
        },
        {
          "internalType": "address",
          "name": "gatewayFeeRecipient",
          "type": "address"
        },
        {
          "internalType": "address",
          "name": "communityFund",
          "type": "address"
        },
        {
          "internalType": "uint256",
          "name": "refund",
          "type": "uint256"
        },
        {
          "internalType": "uint256",
          "name": "tipTxFee",
          "type": "uint256"
        },
        {
          "internalType": "uint256",
          "name": "gatewayFee",
          "type": "uint256"
        },
        {
          "internalType": "uint256",
          "name": "baseTxFee",
          "type": "uint256"
        }
      ],
      "name": "creditGasFees",
      "outputs": [],
      "payable": false,
      "stateMutability": "nonpayable",
      "type": "function"
    },
    {
      "constant": false,
      "inputs": [
        {
          "internalType": "address",
          "name": "from",
          "type": "address"
        },
        {
          "internalType": "uint256",
          "name": "value",
          "type": "uint256"
        }
      ],
      "name": "debitGasFees",
      "outputs": [],
      "payable": false,
      "stateMutability": "nonpayable",
      "type": "function"
    },
    {
      "constant": true,
      "inputs": [],
      "name": "decimals",
      "outputs": [
        {
          "internalType": "uint8",
          "name": "",
          "type": "uint8"
        }
      ],
      "payable": false,
      "stateMutability": "view",
      "type": "function"
    },
    {
      "constant": false,
      "inputs": [
        {
          "internalType": "address",
          "name": "spender",
          "type": "address"
        },
        {
          "internalType": "uint256",
          "name": "value",
          "type": "uint256"
        }
      ],
      "name": "decreaseAllowance",
      "outputs": [
        {
          "internalType": "bool",
          "name": "",
          "type": "bool"
        }
      ],
      "payable": false,
      "stateMutability": "nonpayable",
      "type": "function"
    },
    {
      "constant": true,
      "inputs": [
        {
          "internalType": "uint256",
          "name": "aNumerator",
          "type": "uint256"
        },
        {
          "internalType": "uint256",
          "name": "aDenominator",
          "type": "uint256"
        },
        {
          "internalType": "uint256",
          "name": "bNumerator",
          "type": "uint256"
        },
        {
          "internalType": "uint256",
          "name": "bDenominator",
          "type": "uint256"
        },
        {
          "internalType": "uint256",
          "name": "exponent",
          "type": "uint256"
        },
        {
          "internalType": "uint256",
          "name": "_decimals",
          "type": "uint256"
        }
      ],
      "name": "fractionMulExp",
      "outputs": [
        {
          "internalType": "uint256",
          "name": "",
          "type": "uint256"
        },
        {
          "internalType": "uint256",
          "name": "",
          "type": "uint256"
        }
      ],
      "payable": false,
      "stateMutability": "view",
      "type": "function"
    },
    {
      "constant": true,
      "inputs": [
        {
          "internalType": "bytes",
          "name": "header",
          "type": "bytes"
        }
      ],
      "name": "getBlockNumberFromHeader",
      "outputs": [
        {
          "internalType": "uint256",
          "name": "",
          "type": "uint256"
        }
      ],
      "payable": false,
      "stateMutability": "view",
      "type": "function"
    },
    {
      "constant": true,
      "inputs": [],
      "name": "getEpochNumber",
      "outputs": [
        {
          "internalType": "uint256",
          "name": "",
          "type": "uint256"
        }
      ],
      "payable": false,
      "stateMutability": "view",
      "type": "function"
    },
    {
      "constant": true,
      "inputs": [
        {
          "internalType": "uint256",
          "name": "blockNumber",
          "type": "uint256"
        }
      ],
      "name": "getEpochNumberOfBlock",
      "outputs": [
        {
          "internalType": "uint256",
          "name": "",
          "type": "uint256"
        }
      ],
      "payable": false,
      "stateMutability": "view",
      "type": "function"
    },
    {
      "constant": true,
      "inputs": [],
      "name": "getEpochSize",
      "outputs": [
        {
          "internalType": "uint256",
          "name": "",
          "type": "uint256"
        }
      ],
      "payable": false,
      "stateMutability": "view",
      "type": "function"
    },
    {
      "constant": true,
      "inputs": [],
      "name": "getExchangeRegistryId",
      "outputs": [
        {
          "internalType": "bytes32",
          "name": "",
          "type": "bytes32"
        }
      ],
      "payable": false,
      "stateMutability": "view",
      "type": "function"
    },
    {
      "constant": true,
      "inputs": [],
      "name": "getInflationParameters",
      "outputs": [
        {
          "internalType": "uint256",
          "name": "",
          "type": "uint256"
        },
        {
          "internalType": "uint256",
          "name": "",
          "type": "uint256"
        },
        {
          "internalType": "uint256",
          "name": "",
          "type": "uint256"
        },
        {
          "internalType": "uint256",
          "name": "",
          "type": "uint256"
        }
      ],
      "payable": false,
      "stateMutability": "view",
      "type": "function"
    },
    {
      "constant": true,
      "inputs": [
        {
          "internalType": "uint256",
          "name": "blockNumber",
          "type": "uint256"
        }
      ],
      "name": "getParentSealBitmap",
      "outputs": [
        {
          "internalType": "bytes32",
          "name": "",
          "type": "bytes32"
        }
      ],
      "payable": false,
      "stateMutability": "view",
      "type": "function"
    },
    {
      "constant": true,
      "inputs": [
        {
          "internalType": "bytes",
          "name": "header",
          "type": "bytes"
        }
      ],
      "name": "getVerifiedSealBitmapFromHeader",
      "outputs": [
        {
          "internalType": "bytes32",
          "name": "",
          "type": "bytes32"
        }
      ],
      "payable": false,
      "stateMutability": "view",
      "type": "function"
    },
    {
      "constant": true,
      "inputs": [
        {
          "internalType": "bytes",
          "name": "header",
          "type": "bytes"
        }
      ],
      "name": "hashHeader",
      "outputs": [
        {
          "internalType": "bytes32",
          "name": "",
          "type": "bytes32"
        }
      ],
      "payable": false,
      "stateMutability": "view",
      "type": "function"
    },
    {
      "constant": false,
      "inputs": [
        {
          "internalType": "address",
          "name": "spender",
          "type": "address"
        },
        {
          "internalType": "uint256",
          "name": "value",
          "type": "uint256"
        }
      ],
      "name": "increaseAllowance",
      "outputs": [
        {
          "internalType": "bool",
          "name": "",
          "type": "bool"
        }
      ],
      "payable": false,
      "stateMutability": "nonpayable",
      "type": "function"
    },
    {
      "constant": false,
      "inputs": [
        {
          "internalType": "string",
          "name": "_name",
          "type": "string"
        },
        {
          "internalType": "string",
          "name": "_symbol",
          "type": "string"
        },
        {
          "internalType": "uint8",
          "name": "_decimals",
          "type": "uint8"
        },
        {
          "internalType": "address",
          "name": "registryAddress",
          "type": "address"
        },
        {
          "internalType": "uint256",
          "name": "inflationRate",
          "type": "uint256"
        },
        {
          "internalType": "uint256",
          "name": "inflationFactorUpdatePeriod",
          "type": "uint256"
        },
        {
          "internalType": "address[]",
          "name": "initialBalanceAddresses",
          "type": "address[]"
        },
        {
          "internalType": "uint256[]",
          "name": "initialBalanceValues",
          "type": "uint256[]"
        },
        {
          "internalType": "string",
          "name": "exchangeIdentifier",
          "type": "string"
        }
      ],
      "name": "initialize",
      "outputs": [],
      "payable": false,
      "stateMutability": "nonpayable",
      "type": "function"
    },
    {
      "constant": true,
      "inputs": [],
      "name": "initialized",
      "outputs": [
        {
          "internalType": "bool",
          "name": "",
          "type": "bool"
        }
      ],
      "payable": false,
      "stateMutability": "view",
      "type": "function"
    },
    {
      "constant": true,
      "inputs": [],
      "name": "isOwner",
      "outputs": [
        {
          "internalType": "bool",
          "name": "",
          "type": "bool"
        }
      ],
      "payable": false,
      "stateMutability": "view",
      "type": "function"
    },
    {
      "constant": true,
      "inputs": [
        {
          "internalType": "uint256",
          "name": "blockNumber",
          "type": "uint256"
        }
      ],
      "name": "minQuorumSize",
      "outputs": [
        {
          "internalType": "uint256",
          "name": "",
          "type": "uint256"
        }
      ],
      "payable": false,
      "stateMutability": "view",
      "type": "function"
    },
    {
      "constant": true,
      "inputs": [],
      "name": "minQuorumSizeInCurrentSet",
      "outputs": [
        {
          "internalType": "uint256",
          "name": "",
          "type": "uint256"
        }
      ],
      "payable": false,
      "stateMutability": "view",
      "type": "function"
    },
    {
      "constant": false,
      "inputs": [
        {
          "internalType": "address",
          "name": "to",
          "type": "address"
        },
        {
          "internalType": "uint256",
          "name": "value",
          "type": "uint256"
        }
      ],
      "name": "mint",
      "outputs": [
        {
          "internalType": "bool",
          "name": "",
          "type": "bool"
        }
      ],
      "payable": false,
      "stateMutability": "nonpayable",
      "type": "function"
    },
    {
      "constant": true,
      "inputs": [],
      "name": "name",
      "outputs": [
        {
          "internalType": "string",
          "name": "",
          "type": "string"
        }
      ],
      "payable": false,
      "stateMutability": "view",
      "type": "function"
    },
    {
      "constant": true,
      "inputs": [],
      "name": "numberValidatorsInCurrentSet",
      "outputs": [
        {
          "internalType": "uint256",
          "name": "",
          "type": "uint256"
        }
      ],
      "payable": false,
      "stateMutability": "view",
      "type": "function"
    },
    {
      "constant": true,
      "inputs": [
        {
          "internalType": "uint256",
          "name": "blockNumber",
          "type": "uint256"
        }
      ],
      "name": "numberValidatorsInSet",
      "outputs": [
        {
          "internalType": "uint256",
          "name": "",
          "type": "uint256"
        }
      ],
      "payable": false,
      "stateMutability": "view",
      "type": "function"
    },
    {
      "constant": true,
      "inputs": [],
      "name": "owner",
      "outputs": [
        {
          "internalType": "address",
          "name": "",
          "type": "address"
        }
      ],
      "payable": false,
      "stateMutability": "view",
      "type": "function"
    },
    {
      "constant": true,
      "inputs": [],
      "name": "registry",
      "outputs": [
        {
          "internalType": "contract IRegistry",
          "name": "",
          "type": "address"
        }
      ],
      "payable": false,
      "stateMutability": "view",
      "type": "function"
    },
    {
      "constant": false,
      "inputs": [],
      "name": "renounceOwnership",
      "outputs": [],
      "payable": false,
      "stateMutability": "nonpayable",
      "type": "function"
    },
    {
      "constant": false,
      "inputs": [
        {
          "internalType": "uint256",
          "name": "rate",
          "type": "uint256"
        },
        {
          "internalType": "uint256",
          "name": "updatePeriod",
          "type": "uint256"
        }
      ],
      "name": "setInflationParameters",
      "outputs": [],
      "payable": false,
      "stateMutability": "nonpayable",
      "type": "function"
    },
    {
      "constant": false,
      "inputs": [
        {
          "internalType": "address",
          "name": "registryAddress",
          "type": "address"
        }
      ],
      "name": "setRegistry",
      "outputs": [],
      "payable": false,
      "stateMutability": "nonpayable",
      "type": "function"
    },
    {
      "constant": true,
      "inputs": [],
      "name": "symbol",
      "outputs": [
        {
          "internalType": "string",
          "name": "",
          "type": "string"
        }
      ],
      "payable": false,
      "stateMutability": "view",
      "type": "function"
    },
    {
      "constant": true,
      "inputs": [],
      "name": "totalSupply",
      "outputs": [
        {
          "internalType": "uint256",
          "name": "",
          "type": "uint256"
        }
      ],
      "payable": false,
      "stateMutability": "view",
      "type": "function"
    },
    {
      "constant": false,
      "inputs": [
        {
          "internalType": "address",
          "name": "to",
          "type": "address"
        },
        {
          "internalType": "uint256",
          "name": "value",
          "type": "uint256"
        }
      ],
      "name": "transfer",
      "outputs": [
        {
          "internalType": "bool",
          "name": "",
          "type": "bool"
        }
      ],
      "payable": false,
      "stateMutability": "nonpayable",
      "type": "function"
    },
    {
      "constant": false,
      "inputs": [
        {
          "internalType": "address",
          "name": "from",
          "type": "address"
        },
        {
          "internalType": "address",
          "name": "to",
          "type": "address"
        },
        {
          "internalType": "uint256",
          "name": "value",
          "type": "uint256"
        }
      ],
      "name": "transferFrom",
      "outputs": [
        {
          "internalType": "bool",
          "name": "",
          "type": "bool"
        }
      ],
      "payable": false,
      "stateMutability": "nonpayable",
      "type": "function"
    },
    {
      "constant": false,
      "inputs": [
        {
          "internalType": "address",
          "name": "newOwner",
          "type": "address"
        }
      ],
      "name": "transferOwnership",
      "outputs": [],
      "payable": false,
      "stateMutability": "nonpayable",
      "type": "function"
    },
    {
      "constant": false,
      "inputs": [
        {
          "internalType": "address",
          "name": "to",
          "type": "address"
        },
        {
          "internalType": "uint256",
          "name": "value",
          "type": "uint256"
        },
        {
          "internalType": "string",
          "name": "comment",
          "type": "string"
        }
      ],
      "name": "transferWithComment",
      "outputs": [
        {
          "internalType": "bool",
          "name": "",
          "type": "bool"
        }
      ],
      "payable": false,
      "stateMutability": "nonpayable",
      "type": "function"
    },
    {
      "constant": true,
      "inputs": [
        {
          "internalType": "uint256",
          "name": "units",
          "type": "uint256"
        }
      ],
      "name": "unitsToValue",
      "outputs": [
        {
          "internalType": "uint256",
          "name": "",
          "type": "uint256"
        }
      ],
      "payable": false,
      "stateMutability": "view",
      "type": "function"
    },
    {
      "constant": true,
      "inputs": [
        {
          "internalType": "uint256",
          "name": "index",
          "type": "uint256"
        }
      ],
      "name": "validatorSignerAddressFromCurrentSet",
      "outputs": [
        {
          "internalType": "address",
          "name": "",
          "type": "address"
        }
      ],
      "payable": false,
      "stateMutability": "view",
      "type": "function"
    },
    {
      "constant": true,
      "inputs": [
        {
          "internalType": "uint256",
          "name": "index",
          "type": "uint256"
        },
        {
          "internalType": "uint256",
          "name": "blockNumber",
          "type": "uint256"
        }
      ],
      "name": "validatorSignerAddressFromSet",
      "outputs": [
        {
          "internalType": "address",
          "name": "",
          "type": "address"
        }
      ],
      "payable": false,
      "stateMutability": "view",
      "type": "function"
    },
    {
      "constant": true,
      "inputs": [
        {
          "internalType": "uint256",
          "name": "value",
          "type": "uint256"
        }
      ],
      "name": "valueToUnits",
      "outputs": [
        {
          "internalType": "uint256",
          "name": "",
          "type": "uint256"
        }
      ],
      "payable": false,
      "stateMutability": "view",
      "type": "function"
    },
    {
      "constant": true,
      "inputs": [],
      "name": "getVersionNumber",
      "outputs": [
        {
          "internalType": "uint256",
          "name": "",
          "type": "uint256"
        },
        {
          "internalType": "uint256",
          "name": "",
          "type": "uint256"
        },
        {
          "internalType": "uint256",
          "name": "",
          "type": "uint256"
        },
        {
          "internalType": "uint256",
          "name": "",
          "type": "uint256"
        }
      ],
      "payable": false,
      "stateMutability": "pure",
      "type": "function"
    }
  ],
  "bytecode": "0x60806040523480156200001157600080fd5b50604051620070bf380380620070bf833981810160405260208110156200003757600080fd5b8101908080519060200190929190505050808060006200005c6200012560201b60201c565b9050806000806101000a81548173ffffffffffffffffffffffffffffffffffffffff021916908373ffffffffffffffffffffffffffffffffffffffff1602179055508073ffffffffffffffffffffffffffffffffffffffff16600073ffffffffffffffffffffffffffffffffffffffff167f8be0079c531659141344cd1fd0a4f28419497f9722a3daafe3b4186f6b6457e060405160405180910390a350806200011c576001600060146101000a81548160ff0219169083151502179055505b5050506200012d565b600033905090565b616f82806200013d6000396000f3fe608060405234801561001057600080fd5b506004361061027f5760003560e01c806370a082311161015c578063a457c2d7116100ce578063df4da46111610087578063df4da461146112b1578063e1d6aceb146112cf578063e50e652d1461138a578063ec683072146113cc578063f2fde38b14611447578063fae8db0a1461148b5761027f565b8063a457c2d7146110b4578063a67f87471461111a578063a9059cbb1461114d578063a91ee0dc146111b3578063af31f587146111f7578063dd62ed3e146112395761027f565b80638a883626116101205780638a88362614610e965780638da5cb5b14610f655780638f32d59b14610faf57806395d89b4114610fd15780639a7b3be7146110545780639b2b592f146110725761027f565b806370a0823114610dae578063715018a614610e065780637385e5da14610e105780637b10399914610e2e57806387ee8a0f14610e785761027f565b806339509351116101f55780634b2c2f44116101b95780634b2c2f4414610a4a57806354255be014610b1957806358cf967214610b4c5780635d180adb14610b9a57806367960e9114610c125780636a30b25314610ce15761027f565b806339509351146108d85780633b1eb4bf1461093e57806340a12f641461098057806340c10f191461099e57806342966c6814610a045761027f565b806318160ddd1161024757806318160ddd1461043f5780631e4f0e031461045d578063222836ad1461066c57806323b872dd146106a457806323f0ab651461072a578063313ce567146108b45761027f565b806306fdde0314610284578063095ea7b314610307578063123633ea1461036d57806312c6c099146103db578063158ef93e1461041d575b600080fd5b61028c6114cd565b6040518080602001828103825283818151815260200191508051906020019080838360005b838110156102cc5780820151818401526020810190506102b1565b50505050905090810190601f1680156102f95780820380516001836020036101000a031916815260200191505b509250505060405180910390f35b6103536004803603604081101561031d57600080fd5b81019080803573ffffffffffffffffffffffffffffffffffffffff1690602001909291908035906020019092919050505061156f565b604051808215151515815260200191505060405180910390f35b6103996004803603602081101561038357600080fd5b8101908080359060200190929190505050611792565b604051808273ffffffffffffffffffffffffffffffffffffffff1673ffffffffffffffffffffffffffffffffffffffff16815260200191505060405180910390f35b610407600480360360208110156103f157600080fd5b81019080803590602001909291905050506118e3565b6040518082815260200191505060405180910390f35b61042561190c565b604051808215151515815260200191505060405180910390f35b61044761191f565b6040518082815260200191505060405180910390f35b61066a600480360361012081101561047457600080fd5b810190808035906020019064010000000081111561049157600080fd5b8201836020820111156104a357600080fd5b803590602001918460018302840111640100000000831117156104c557600080fd5b9091929391929390803590602001906401000000008111156104e657600080fd5b8201836020820111156104f857600080fd5b8035906020019184600183028401116401000000008311171561051a57600080fd5b9091929391929390803560ff169060200190929190803573ffffffffffffffffffffffffffffffffffffffff16906020019092919080359060200190929190803590602001909291908035906020019064010000000081111561057c57600080fd5b82018360208201111561058e57600080fd5b803590602001918460208302840111640100000000831117156105b057600080fd5b9091929391929390803590602001906401000000008111156105d157600080fd5b8201836020820111156105e357600080fd5b8035906020019184602083028401116401000000008311171561060557600080fd5b90919293919293908035906020019064010000000081111561062657600080fd5b82018360208201111561063857600080fd5b8035906020019184600183028401116401000000008311171561065a57600080fd5b9091929391929390505050611931565b005b6106a26004803603604081101561068257600080fd5b810190808035906020019092919080359060200190929190505050611c57565b005b610710600480360360608110156106ba57600080fd5b81019080803573ffffffffffffffffffffffffffffffffffffffff169060200190929190803573ffffffffffffffffffffffffffffffffffffffff16906020019092919080359060200190929190505050611ebc565b604051808215151515815260200191505060405180910390f35b61089a6004803603606081101561074057600080fd5b81019080803573ffffffffffffffffffffffffffffffffffffffff1690602001909291908035906020019064010000000081111561077d57600080fd5b82018360208201111561078f57600080fd5b803590602001918460018302840111640100000000831117156107b157600080fd5b91908080601f016020809104026020016040519081016040528093929190818152602001838380828437600081840152601f19601f8201169050808301925050505050505091929192908035906020019064010000000081111561081457600080fd5b82018360208201111561082657600080fd5b8035906020019184600183028401116401000000008311171561084857600080fd5b91908080601f016020809104026020016040519081016040528093929190818152602001838380828437600081840152601f19601f820116905080830192505050505050509192919290505050612542565b604051808215151515815260200191505060405180910390f35b6108bc6126fb565b604051808260ff1660ff16815260200191505060405180910390f35b610924600480360360408110156108ee57600080fd5b81019080803573ffffffffffffffffffffffffffffffffffffffff16906020019092919080359060200190929190505050612712565b604051808215151515815260200191505060405180910390f35b61096a6004803603602081101561095457600080fd5b81019080803590602001909291905050506129cf565b6040518082815260200191505060405180910390f35b6109886129e9565b6040518082815260200191505060405180910390f35b6109ea600480360360408110156109b457600080fd5b81019080803573ffffffffffffffffffffffffffffffffffffffff16906020019092919080359060200190929190505050612a4f565b604051808215151515815260200191505060405180910390f35b610a3060048036036020811015610a1a57600080fd5b8101908080359060200190929190505050612eb5565b604051808215151515815260200191505060405180910390f35b610b0360048036036020811015610a6057600080fd5b8101908080359060200190640100000000811115610a7d57600080fd5b820183602082011115610a8f57600080fd5b80359060200191846001830284011164010000000083111715610ab157600080fd5b91908080601f016020809104026020016040519081016040528093929190818152602001838380828437600081840152601f19601f8201169050808301925050505050505091929192905050506133dc565b6040518082815260200191505060405180910390f35b610b21613570565b6040518085815260200184815260200183815260200182815260200194505050505060405180910390f35b610b9860048036036040811015610b6257600080fd5b81019080803573ffffffffffffffffffffffffffffffffffffffff16906020019092919080359060200190929190505050613597565b005b610bd060048036036040811015610bb057600080fd5b8101908080359060200190929190803590602001909291905050506138d5565b604051808273ffffffffffffffffffffffffffffffffffffffff1673ffffffffffffffffffffffffffffffffffffffff16815260200191505060405180910390f35b610ccb60048036036020811015610c2857600080fd5b8101908080359060200190640100000000811115610c4557600080fd5b820183602082011115610c5757600080fd5b80359060200191846001830284011164010000000083111715610c7957600080fd5b91908080601f016020809104026020016040519081016040528093929190818152602001838380828437600081840152601f19601f820116905080830192505050505050509192919290505050613a27565b6040518082815260200191505060405180910390f35b610dac6004803603610100811015610cf857600080fd5b81019080803573ffffffffffffffffffffffffffffffffffffffff169060200190929190803573ffffffffffffffffffffffffffffffffffffffff169060200190929190803573ffffffffffffffffffffffffffffffffffffffff169060200190929190803573ffffffffffffffffffffffffffffffffffffffff16906020019092919080359060200190929190803590602001909291908035906020019092919080359060200190929190505050613bbb565b005b610df060048036036020811015610dc457600080fd5b81019080803573ffffffffffffffffffffffffffffffffffffffff169060200190929190505050613eb1565b6040518082815260200191505060405180910390f35b610e0e613f02565b005b610e1861403b565b6040518082815260200191505060405180910390f35b610e3661404b565b604051808273ffffffffffffffffffffffffffffffffffffffff1673ffffffffffffffffffffffffffffffffffffffff16815260200191505060405180910390f35b610e80614071565b6040518082815260200191505060405180910390f35b610f4f60048036036020811015610eac57600080fd5b8101908080359060200190640100000000811115610ec957600080fd5b820183602082011115610edb57600080fd5b80359060200191846001830284011164010000000083111715610efd57600080fd5b91908080601f016020809104026020016040519081016040528093929190818152602001838380828437600081840152601f19601f8201169050808301925050505050505091929192905050506141b8565b6040518082815260200191505060405180910390f35b610f6d61434c565b604051808273ffffffffffffffffffffffffffffffffffffffff1673ffffffffffffffffffffffffffffffffffffffff16815260200191505060405180910390f35b610fb7614375565b604051808215151515815260200191505060405180910390f35b610fd96143d3565b6040518080602001828103825283818151815260200191508051906020019080838360005b83811015611019578082015181840152602081019050610ffe565b50505050905090810190601f1680156110465780820380516001836020036101000a031916815260200191505b509250505060405180910390f35b61105c614475565b6040518082815260200191505060405180910390f35b61109e6004803603602081101561108857600080fd5b8101908080359060200190929190505050614485565b6040518082815260200191505060405180910390f35b611100600480360360408110156110ca57600080fd5b81019080803573ffffffffffffffffffffffffffffffffffffffff169060200190929190803590602001909291905050506145ce565b604051808215151515815260200191505060405180910390f35b611122614805565b6040518085815260200184815260200183815260200182815260200194505050505060405180910390f35b6111996004803603604081101561116357600080fd5b81019080803573ffffffffffffffffffffffffffffffffffffffff16906020019092919080359060200190929190505050614869565b604051808215151515815260200191505060405180910390f35b6111f5600480360360208110156111c957600080fd5b81019080803573ffffffffffffffffffffffffffffffffffffffff169060200190929190505050614a3d565b005b6112236004803603602081101561120d57600080fd5b8101908080359060200190929190505050614be1565b6040518082815260200191505060405180910390f35b61129b6004803603604081101561124f57600080fd5b81019080803573ffffffffffffffffffffffffffffffffffffffff169060200190929190803573ffffffffffffffffffffffffffffffffffffffff169060200190929190505050614c23565b6040518082815260200191505060405180910390f35b6112b9614caa565b6040518082815260200191505060405180910390f35b611370600480360360608110156112e557600080fd5b81019080803573ffffffffffffffffffffffffffffffffffffffff169060200190929190803590602001909291908035906020019064010000000081111561132c57600080fd5b82018360208201111561133e57600080fd5b8035906020019184600183028401116401000000008311171561136057600080fd5b9091929391929390505050614de6565b604051808215151515815260200191505060405180910390f35b6113b6600480360360208110156113a057600080fd5b8101908080359060200190929190505050615025565b6040518082815260200191505060405180910390f35b61142a600480360360c08110156113e257600080fd5b81019080803590602001909291908035906020019092919080359060200190929190803590602001909291908035906020019092919080359060200190929190505050615070565b604051808381526020018281526020019250505060405180910390f35b6114896004803603602081101561145d57600080fd5b81019080803573ffffffffffffffffffffffffffffffffffffffff169060200190929190505050615284565b005b6114b7600480360360208110156114a157600080fd5b810190808035906020019092919050505061530a565b6040518082815260200191505060405180910390f35b606060028054600181600116156101000203166002900480601f0160208091040260200160405190810160405280929190818152602001828054600181600116156101000203166002900480156115655780601f1061153a57610100808354040283529160200191611565565b820191906000526020600020905b81548152906001019060200180831161154857829003601f168201915b5050505050905090565b6000611579616af3565b6000611583615453565b8092508193505050600860030154811461161a5781600860010160008201518160000155905050806008600301819055507f08f3ed03ec9e579d1f6ab2f9e0d3dc661704696deabe37a6b6df7014f1b30a976115f7600860010160405180602001604052908160008201548152505061561e565b600860030154604051808381526020018281526020019250505060405180910390a15b600073ffffffffffffffffffffffffffffffffffffffff168573ffffffffffffffffffffffffffffffffffffffff1614156116a0576040517f08c379a000000000000000000000000000000000000000000000000000000000815260040180806020018281038252602a815260200180616dac602a913960400191505060405180910390fd5b83600760003373ffffffffffffffffffffffffffffffffffffffff1673ffffffffffffffffffffffffffffffffffffffff16815260200190815260200160002060008773ffffffffffffffffffffffffffffffffffffffff1673ffffffffffffffffffffffffffffffffffffffff168152602001908152602001600020819055508473ffffffffffffffffffffffffffffffffffffffff163373ffffffffffffffffffffffffffffffffffffffff167f8c5be1e5ebec7d5bd14f71427d1e84f3dd0314c0f7b2291e5b200ac8c7c3b925866040518082815260200191505060405180910390a360019250505092915050565b60006060600060fa73ffffffffffffffffffffffffffffffffffffffff16844360405160200180838152602001828152602001925050506040516020818303038152906040526040518082805190602001908083835b6020831061180b57805182526020820191506020810190506020830392506117e8565b6001836020036101000a038019825116818451168082178552505050505050905001915050600060405180830381855afa9150503d806000811461186b576040519150601f19603f3d011682016040523d82523d6000602084013e611870565b606091505b508093508192505050806118cf576040517f08c379a000000000000000000000000000000000000000000000000000000000815260040180806020018281038252603d815260200180616d04603d913960400191505060405180910390fd5b6118da82600061562c565b92505050919050565b60006118ed616af3565b6118f5615453565b50809150506119048184615643565b915050919050565b600060149054906101000a900460ff1681565b600061192c600654614be1565b905090565b600060149054906101000a900460ff16156119b4576040517f08c379a000000000000000000000000000000000000000000000000000000000815260040180806020018281038252601c8152602001807f636f6e747261637420616c726561647920696e697469616c697a65640000000081525060200191505060405180910390fd5b6001600060146101000a81548160ff0219169083151502179055506000881415611a29576040517f08c379a0000000000000000000000000000000000000000000000000000000008152600401808060200182810382526026815260200180616c276026913960400191505060405180910390fd5b60008711611a82576040517f08c379a0000000000000000000000000000000000000000000000000000000008152600401808060200182810382526027815260200180616bda6027913960400191505060405180910390fd5b611a8b33615670565b60006006819055508d8d60029190611aa4929190616b06565b508b8b60039190611ab6929190616b06565b5089600460006101000a81548160ff021916908360ff160217905550611adb886157b4565b600860000160008201518160000155905050611af56157d2565b6008600101600082015181600001559050508660086002018190555042600860030181905550838390508686905014611b96576040517f08c379a00000000000000000000000000000000000000000000000000000000081526004018080602001828103825260158152602001807f4172726179206c656e677468206d69736d61746368000000000000000000000081525060200191505060405180910390fd5b60008090505b86869050811015611c0757611beb878783818110611bb657fe5b9050602002013573ffffffffffffffffffffffffffffffffffffffff16868684818110611bdf57fe5b905060200201356157f8565b50611c006001826159f790919063ffffffff16565b9050611b9c565b50611c1189614a3d565b818160405160200180838380828437808301925050509250505060405160208183030381529060405280519060200120600c819055505050505050505050505050505050565b611c5f614375565b611cd1576040517f08c379a00000000000000000000000000000000000000000000000000000000081526004018080602001828103825260208152602001807f4f776e61626c653a2063616c6c6572206973206e6f7420746865206f776e657281525060200191505060405180910390fd5b611cd9616af3565b6000611ce3615453565b80925081935050506008600301548114611d7a5781600860010160008201518160000155905050806008600301819055507f08f3ed03ec9e579d1f6ab2f9e0d3dc661704696deabe37a6b6df7014f1b30a97611d57600860010160405180602001604052908160008201548152505061561e565b600860030154604051808381526020018281526020019250505060405180910390a15b6000841415611dd4576040517f08c379a0000000000000000000000000000000000000000000000000000000008152600401808060200182810382526027815260200180616c4d6027913960400191505060405180910390fd5b60008311611e4a576040517f08c379a00000000000000000000000000000000000000000000000000000000081526004018080602001828103825260188152602001807f757064617465506572696f64206d757374206265203e2030000000000000000081525060200191505060405180910390fd5b611e53846157b4565b600860000160008201518160000155905050826008600201819055507fa0035d6667ffb7d387c86c7228141c4a877e8ed831b267ac928a2f5b651c155d84844260405180848152602001838152602001828152602001935050505060405180910390a150505050565b6000611ec6616af3565b6000611ed0615453565b80925081935050506008600301548114611f675781600860010160008201518160000155905050806008600301819055507f08f3ed03ec9e579d1f6ab2f9e0d3dc661704696deabe37a6b6df7014f1b30a97611f44600860010160405180602001604052908160008201548152505061561e565b600860030154604051808381526020018281526020019250505060405180910390a15b611f6f615a7f565b73ffffffffffffffffffffffffffffffffffffffff1663e5839836306040518263ffffffff1660e01b8152600401808273ffffffffffffffffffffffffffffffffffffffff1673ffffffffffffffffffffffffffffffffffffffff16815260200191505060206040518083038186803b158015611feb57600080fd5b505afa158015611fff573d6000803e3d6000fd5b505050506040513d602081101561201557600080fd5b81019080805190602001909291905050501561207c576040517f08c379a0000000000000000000000000000000000000000000000000000000008152600401808060200182810382526022815260200180616cac6022913960400191505060405180910390fd5b60006120a1600860010160405180602001604052908160008201548152505086615643565b9050600073ffffffffffffffffffffffffffffffffffffffff168673ffffffffffffffffffffffffffffffffffffffff161415612129576040517f08c379a000000000000000000000000000000000000000000000000000000000815260040180806020018281038252602a815260200180616f01602a913960400191505060405180910390fd5b600560008873ffffffffffffffffffffffffffffffffffffffff1673ffffffffffffffffffffffffffffffffffffffff168152602001908152602001600020548111156121c1576040517f08c379a0000000000000000000000000000000000000000000000000000000008152600401808060200182810382526029815260200180616df76029913960400191505060405180910390fd5b600760008873ffffffffffffffffffffffffffffffffffffffff1673ffffffffffffffffffffffffffffffffffffffff16815260200190815260200160002060003373ffffffffffffffffffffffffffffffffffffffff1673ffffffffffffffffffffffffffffffffffffffff16815260200190815260200160002054851115612296576040517f08c379a0000000000000000000000000000000000000000000000000000000008152600401808060200182810382526038815260200180616e206038913960400191505060405180910390fd5b6122e881600560008973ffffffffffffffffffffffffffffffffffffffff1673ffffffffffffffffffffffffffffffffffffffff168152602001908152602001600020546159f790919063ffffffff16565b600560008873ffffffffffffffffffffffffffffffffffffffff1673ffffffffffffffffffffffffffffffffffffffff1681526020019081526020016000208190555061237d81600560008a73ffffffffffffffffffffffffffffffffffffffff1673ffffffffffffffffffffffffffffffffffffffff16815260200190815260200160002054615b7a90919063ffffffff16565b600560008973ffffffffffffffffffffffffffffffffffffffff1673ffffffffffffffffffffffffffffffffffffffff1681526020019081526020016000208190555061244f85600760008a73ffffffffffffffffffffffffffffffffffffffff1673ffffffffffffffffffffffffffffffffffffffff16815260200190815260200160002060003373ffffffffffffffffffffffffffffffffffffffff1673ffffffffffffffffffffffffffffffffffffffff16815260200190815260200160002054615b7a90919063ffffffff16565b600760008973ffffffffffffffffffffffffffffffffffffffff1673ffffffffffffffffffffffffffffffffffffffff16815260200190815260200160002060003373ffffffffffffffffffffffffffffffffffffffff1673ffffffffffffffffffffffffffffffffffffffff168152602001908152602001600020819055508573ffffffffffffffffffffffffffffffffffffffff168773ffffffffffffffffffffffffffffffffffffffff167fddf252ad1be2c89b69c2b068fc378daa952ba7f163c4a11628f55a4df523b3ef876040518082815260200191505060405180910390a3600193505050509392505050565b60008060fb73ffffffffffffffffffffffffffffffffffffffff16858585604051602001808473ffffffffffffffffffffffffffffffffffffffff1673ffffffffffffffffffffffffffffffffffffffff1660601b815260140183805190602001908083835b602083106125cb57805182526020820191506020810190506020830392506125a8565b6001836020036101000a03801982511681845116808217855250505050505090500182805190602001908083835b6020831061261c57805182526020820191506020810190506020830392506125f9565b6001836020036101000a03801982511681845116808217855250505050505090500193505050506040516020818303038152906040526040518082805190602001908083835b602083106126855780518252602082019150602081019050602083039250612662565b6001836020036101000a038019825116818451168082178552505050505050905001915050600060405180830381855afa9150503d80600081146126e5576040519150601f19603f3d011682016040523d82523d6000602084013e6126ea565b606091505b505080915050809150509392505050565b6000600460009054906101000a900460ff16905090565b600061271c616af3565b6000612726615453565b809250819350505060086003015481146127bd5781600860010160008201518160000155905050806008600301819055507f08f3ed03ec9e579d1f6ab2f9e0d3dc661704696deabe37a6b6df7014f1b30a9761279a600860010160405180602001604052908160008201548152505061561e565b600860030154604051808381526020018281526020019250505060405180910390a15b600073ffffffffffffffffffffffffffffffffffffffff168573ffffffffffffffffffffffffffffffffffffffff161415612843576040517f08c379a000000000000000000000000000000000000000000000000000000000815260040180806020018281038252602a815260200180616dac602a913960400191505060405180910390fd5b6000600760003373ffffffffffffffffffffffffffffffffffffffff1673ffffffffffffffffffffffffffffffffffffffff16815260200190815260200160002060008773ffffffffffffffffffffffffffffffffffffffff1673ffffffffffffffffffffffffffffffffffffffff16815260200190815260200160002054905060006128d986836159f790919063ffffffff16565b905080600760003373ffffffffffffffffffffffffffffffffffffffff1673ffffffffffffffffffffffffffffffffffffffff16815260200190815260200160002060008973ffffffffffffffffffffffffffffffffffffffff1673ffffffffffffffffffffffffffffffffffffffff168152602001908152602001600020819055508673ffffffffffffffffffffffffffffffffffffffff163373ffffffffffffffffffffffffffffffffffffffff167f8c5be1e5ebec7d5bd14f71427d1e84f3dd0314c0f7b2291e5b200ac8c7c3b925836040518082815260200191505060405180910390a3600194505050505092915050565b60006129e2826129dd614caa565b615bc4565b9050919050565b60008060001b600c541415612a465760405160200180807f45786368616e67650000000000000000000000000000000000000000000000008152506008019050604051602081830303815290604052805190602001209050612a4c565b600c5490505b90565b6000612a59616af3565b6000612a63615453565b80925081935050506008600301548114612afa5781600860010160008201518160000155905050806008600301819055507f08f3ed03ec9e579d1f6ab2f9e0d3dc661704696deabe37a6b6df7014f1b30a97612ad7600860010160405180602001604052908160008201548152505061561e565b600860030154604051808381526020018281526020019250505060405180910390a15b600160009054906101000a900473ffffffffffffffffffffffffffffffffffffffff1673ffffffffffffffffffffffffffffffffffffffff1663dcf0aaed612b406129e9565b6040518263ffffffff1660e01b81526004018082815260200191505060206040518083038186803b158015612b7457600080fd5b505afa158015612b88573d6000803e3d6000fd5b505050506040513d6020811015612b9e57600080fd5b810190808051906020019092919050505073ffffffffffffffffffffffffffffffffffffffff163373ffffffffffffffffffffffffffffffffffffffff161480612d065750600160009054906101000a900473ffffffffffffffffffffffffffffffffffffffff1673ffffffffffffffffffffffffffffffffffffffff1663dd92723360405160200180807f56616c696461746f727300000000000000000000000000000000000000000000815250600a019050604051602081830303815290604052805190602001206040518263ffffffff1660e01b81526004018082815260200191505060206040518083038186803b158015612c9c57600080fd5b505afa158015612cb0573d6000803e3d6000fd5b505050506040513d6020811015612cc657600080fd5b810190808051906020019092919050505073ffffffffffffffffffffffffffffffffffffffff163373ffffffffffffffffffffffffffffffffffffffff16145b80612e2f5750600160009054906101000a900473ffffffffffffffffffffffffffffffffffffffff1673ffffffffffffffffffffffffffffffffffffffff1663dd92723360405160200180807f4772616e64614d656e746f000000000000000000000000000000000000000000815250600b019050604051602081830303815290604052805190602001206040518263ffffffff1660e01b81526004018082815260200191505060206040518083038186803b158015612dc557600080fd5b505afa158015612dd9573d6000803e3d6000fd5b505050506040513d6020811015612def57600080fd5b810190808051906020019092919050505073ffffffffffffffffffffffffffffffffffffffff163373ffffffffffffffffffffffffffffffffffffffff16145b612ea1576040517f08c379a000000000000000000000000000000000000000000000000000000000815260040180806020018281038252601d8152602001807f53656e646572206e6f7420617574686f72697a656420746f206d696e7400000081525060200191505060405180910390fd5b612eab85856157f8565b9250505092915050565b6000612ebf616af3565b6000612ec9615453565b80925081935050506008600301548114612f605781600860010160008201518160000155905050806008600301819055507f08f3ed03ec9e579d1f6ab2f9e0d3dc661704696deabe37a6b6df7014f1b30a97612f3d600860010160405180602001604052908160008201548152505061561e565b600860030154604051808381526020018281526020019250505060405180910390a15b600160009054906101000a900473ffffffffffffffffffffffffffffffffffffffff1673ffffffffffffffffffffffffffffffffffffffff1663dcf0aaed612fa66129e9565b6040518263ffffffff1660e01b81526004018082815260200191505060206040518083038186803b158015612fda57600080fd5b505afa158015612fee573d6000803e3d6000fd5b505050506040513d602081101561300457600080fd5b810190808051906020019092919050505073ffffffffffffffffffffffffffffffffffffffff163373ffffffffffffffffffffffffffffffffffffffff16148061316c5750600160009054906101000a900473ffffffffffffffffffffffffffffffffffffffff1673ffffffffffffffffffffffffffffffffffffffff1663dd92723360405160200180807f4772616e64614d656e746f000000000000000000000000000000000000000000815250600b019050604051602081830303815290604052805190602001206040518263ffffffff1660e01b81526004018082815260200191505060206040518083038186803b15801561310257600080fd5b505afa158015613116573d6000803e3d6000fd5b505050506040513d602081101561312c57600080fd5b810190808051906020019092919050505073ffffffffffffffffffffffffffffffffffffffff163373ffffffffffffffffffffffffffffffffffffffff16145b6131de576040517f08c379a000000000000000000000000000000000000000000000000000000000815260040180806020018281038252601d8152602001807f53656e646572206e6f7420617574686f72697a656420746f206275726e00000081525060200191505060405180910390fd5b6000613203600860010160405180602001604052908160008201548152505086615643565b9050600560003373ffffffffffffffffffffffffffffffffffffffff1673ffffffffffffffffffffffffffffffffffffffff168152602001908152602001600020548111156132ba576040517f08c379a00000000000000000000000000000000000000000000000000000000081526004018080602001828103825260208152602001807f76616c75652065786365656465642062616c616e6365206f662073656e64657281525060200191505060405180910390fd5b6132cf81600654615b7a90919063ffffffff16565b60068190555061332781600560003373ffffffffffffffffffffffffffffffffffffffff1673ffffffffffffffffffffffffffffffffffffffff16815260200190815260200160002054615b7a90919063ffffffff16565b600560003373ffffffffffffffffffffffffffffffffffffffff1673ffffffffffffffffffffffffffffffffffffffff16815260200190815260200160002081905550600073ffffffffffffffffffffffffffffffffffffffff163373ffffffffffffffffffffffffffffffffffffffff167fddf252ad1be2c89b69c2b068fc378daa952ba7f163c4a11628f55a4df523b3ef836040518082815260200191505060405180910390a360019350505050919050565b60006060600060f473ffffffffffffffffffffffffffffffffffffffff16846040516020018082805190602001908083835b60208310613431578051825260208201915060208101905060208303925061340e565b6001836020036101000a0380198251168184511680821785525050505050509050019150506040516020818303038152906040526040518082805190602001908083835b602083106134985780518252602082019150602081019050602083039250613475565b6001836020036101000a038019825116818451168082178552505050505050905001915050600060405180830381855afa9150503d80600081146134f8576040519150601f19603f3d011682016040523d82523d6000602084013e6134fd565b606091505b5080935081925050508061355c576040517f08c379a0000000000000000000000000000000000000000000000000000000008152600401808060200182810382526038815260200180616c746038913960400191505060405180910390fd5b613567826000615c0c565b92505050919050565b60008060008060018060006001839350829250819150809050935093509350935090919293565b600073ffffffffffffffffffffffffffffffffffffffff163373ffffffffffffffffffffffffffffffffffffffff1614613639576040517f08c379a00000000000000000000000000000000000000000000000000000000081526004018080602001828103825260108152602001807f4f6e6c7920564d2063616e2063616c6c0000000000000000000000000000000081525060200191505060405180910390fd5b613641615a7f565b73ffffffffffffffffffffffffffffffffffffffff1663e5839836306040518263ffffffff1660e01b8152600401808273ffffffffffffffffffffffffffffffffffffffff1673ffffffffffffffffffffffffffffffffffffffff16815260200191505060206040518083038186803b1580156136bd57600080fd5b505afa1580156136d1573d6000803e3d6000fd5b505050506040513d60208110156136e757600080fd5b81019080805190602001909291905050501561374e576040517f08c379a0000000000000000000000000000000000000000000000000000000008152600401808060200182810382526022815260200180616cac6022913960400191505060405180910390fd5b613756616af3565b6000613760615453565b809250819350505060086003015481146137f75781600860010160008201518160000155905050806008600301819055507f08f3ed03ec9e579d1f6ab2f9e0d3dc661704696deabe37a6b6df7014f1b30a976137d4600860010160405180602001604052908160008201548152505061561e565b600860030154604051808381526020018281526020019250505060405180910390a15b600061381c600860010160405180602001604052908160008201548152505085615643565b905061387081600560008873ffffffffffffffffffffffffffffffffffffffff1673ffffffffffffffffffffffffffffffffffffffff16815260200190815260200160002054615b7a90919063ffffffff16565b600560008773ffffffffffffffffffffffffffffffffffffffff1673ffffffffffffffffffffffffffffffffffffffff168152602001908152602001600020819055506138c881600654615b7a90919063ffffffff16565b6006819055505050505050565b60006060600060fa73ffffffffffffffffffffffffffffffffffffffff16858560405160200180838152602001828152602001925050506040516020818303038152906040526040518082805190602001908083835b6020831061394e578051825260208201915060208101905060208303925061392b565b6001836020036101000a038019825116818451168082178552505050505050905001915050600060405180830381855afa9150503d80600081146139ae576040519150601f19603f3d011682016040523d82523d6000602084013e6139b3565b606091505b50809350819250505080613a12576040517f08c379a0000000000000000000000000000000000000000000000000000000008152600401808060200182810382526036815260200180616d766036913960400191505060405180910390fd5b613a1d82600061562c565b9250505092915050565b60006060600060f673ffffffffffffffffffffffffffffffffffffffff16846040516020018082805190602001908083835b60208310613a7c5780518252602082019150602081019050602083039250613a59565b6001836020036101000a0380198251168184511680821785525050505050509050019150506040516020818303038152906040526040518082805190602001908083835b60208310613ae35780518252602082019150602081019050602083039250613ac0565b6001836020036101000a038019825116818451168082178552505050505050905001915050600060405180830381855afa9150503d8060008114613b43576040519150601f19603f3d011682016040523d82523d6000602084013e613b48565b606091505b50809350819250505080613ba7576040517f08c379a0000000000000000000000000000000000000000000000000000000008152600401808060200182810382526023815260200180616f2b6023913960400191505060405180910390fd5b613bb2826000615c0c565b92505050919050565b600073ffffffffffffffffffffffffffffffffffffffff163373ffffffffffffffffffffffffffffffffffffffff1614613c5d576040517f08c379a00000000000000000000000000000000000000000000000000000000081526004018080602001828103825260108152602001807f4f6e6c7920564d2063616e2063616c6c0000000000000000000000000000000081525060200191505060405180910390fd5b613c65615a7f565b73ffffffffffffffffffffffffffffffffffffffff1663e5839836306040518263ffffffff1660e01b8152600401808273ffffffffffffffffffffffffffffffffffffffff1673ffffffffffffffffffffffffffffffffffffffff16815260200191505060206040518083038186803b158015613ce157600080fd5b505afa158015613cf5573d6000803e3d6000fd5b505050506040513d6020811015613d0b57600080fd5b810190808051906020019092919050505015613d72576040517f08c379a0000000000000000000000000000000000000000000000000000000008152600401808060200182810382526022815260200180616cac6022913960400191505060405180910390fd5b6000613d97600860010160405180602001604052908160008201548152505086615643565b9050613deb81600560008c73ffffffffffffffffffffffffffffffffffffffff1673ffffffffffffffffffffffffffffffffffffffff168152602001908152602001600020546159f790919063ffffffff16565b600560008b73ffffffffffffffffffffffffffffffffffffffff1673ffffffffffffffffffffffffffffffffffffffff16815260200190815260200160002081905550613e4b613e3c8a8885615cad565b826159f790919063ffffffff16565b9050613e6a613e5b8a8a87615cad565b826159f790919063ffffffff16565b9050613e89613e7a8a8986615cad565b826159f790919063ffffffff16565b9050613ea0816006546159f790919063ffffffff16565b600681905550505050505050505050565b6000613efb600560008473ffffffffffffffffffffffffffffffffffffffff1673ffffffffffffffffffffffffffffffffffffffff16815260200190815260200160002054614be1565b9050919050565b613f0a614375565b613f7c576040517f08c379a00000000000000000000000000000000000000000000000000000000081526004018080602001828103825260208152602001807f4f776e61626c653a2063616c6c6572206973206e6f7420746865206f776e657281525060200191505060405180910390fd5b600073ffffffffffffffffffffffffffffffffffffffff166000809054906101000a900473ffffffffffffffffffffffffffffffffffffffff1673ffffffffffffffffffffffffffffffffffffffff167f8be0079c531659141344cd1fd0a4f28419497f9722a3daafe3b4186f6b6457e060405160405180910390a360008060006101000a81548173ffffffffffffffffffffffffffffffffffffffff021916908373ffffffffffffffffffffffffffffffffffffffff160217905550565b600061404643615025565b905090565b600160009054906101000a900473ffffffffffffffffffffffffffffffffffffffff1681565b60006060600060f973ffffffffffffffffffffffffffffffffffffffff1643604051602001808281526020019150506040516020818303038152906040526040518082805190602001908083835b602083106140e257805182526020820191506020810190506020830392506140bf565b6001836020036101000a038019825116818451168082178552505050505050905001915050600060405180830381855afa9150503d8060008114614142576040519150601f19603f3d011682016040523d82523d6000602084013e614147565b606091505b508093508192505050806141a6576040517f08c379a0000000000000000000000000000000000000000000000000000000008152600401808060200182810382526035815260200180616d416035913960400191505060405180910390fd5b6141b182600061562c565b9250505090565b60006060600060f773ffffffffffffffffffffffffffffffffffffffff16846040516020018082805190602001908083835b6020831061420d57805182526020820191506020810190506020830392506141ea565b6001836020036101000a0380198251168184511680821785525050505050509050019150506040516020818303038152906040526040518082805190602001908083835b602083106142745780518252602082019150602081019050602083039250614251565b6001836020036101000a038019825116818451168082178552505050505050905001915050600060405180830381855afa9150503d80600081146142d4576040519150601f19603f3d011682016040523d82523d6000602084013e6142d9565b606091505b50809350819250505080614338576040517f08c379a0000000000000000000000000000000000000000000000000000000008152600401808060200182810382526031815260200180616ed06031913960400191505060405180910390fd5b61434382600061562c565b92505050919050565b60008060009054906101000a900473ffffffffffffffffffffffffffffffffffffffff16905090565b60008060009054906101000a900473ffffffffffffffffffffffffffffffffffffffff1673ffffffffffffffffffffffffffffffffffffffff166143b7615e19565b73ffffffffffffffffffffffffffffffffffffffff1614905090565b606060038054600181600116156101000203166002900480601f01602080910402602001604051908101604052809291908181526020018280546001816001161561010002031660029004801561446b5780601f106144405761010080835404028352916020019161446b565b820191906000526020600020905b81548152906001019060200180831161444e57829003601f168201915b5050505050905090565b6000614480436129cf565b905090565b60006060600060f973ffffffffffffffffffffffffffffffffffffffff1684604051602001808281526020019150506040516020818303038152906040526040518082805190602001908083835b602083106144f657805182526020820191506020810190506020830392506144d3565b6001836020036101000a038019825116818451168082178552505050505050905001915050600060405180830381855afa9150503d8060008114614556576040519150601f19603f3d011682016040523d82523d6000602084013e61455b565b606091505b508093508192505050806145ba576040517f08c379a000000000000000000000000000000000000000000000000000000000815260040180806020018281038252602e815260200180616bac602e913960400191505060405180910390fd5b6145c582600061562c565b92505050919050565b60006145d8616af3565b60006145e2615453565b809250819350505060086003015481146146795781600860010160008201518160000155905050806008600301819055507f08f3ed03ec9e579d1f6ab2f9e0d3dc661704696deabe37a6b6df7014f1b30a97614656600860010160405180602001604052908160008201548152505061561e565b600860030154604051808381526020018281526020019250505060405180910390a15b6000600760003373ffffffffffffffffffffffffffffffffffffffff1673ffffffffffffffffffffffffffffffffffffffff16815260200190815260200160002060008773ffffffffffffffffffffffffffffffffffffffff1673ffffffffffffffffffffffffffffffffffffffff168152602001908152602001600020549050600061470f8683615b7a90919063ffffffff16565b905080600760003373ffffffffffffffffffffffffffffffffffffffff1673ffffffffffffffffffffffffffffffffffffffff16815260200190815260200160002060008973ffffffffffffffffffffffffffffffffffffffff1673ffffffffffffffffffffffffffffffffffffffff168152602001908152602001600020819055508673ffffffffffffffffffffffffffffffffffffffff163373ffffffffffffffffffffffffffffffffffffffff167f8c5be1e5ebec7d5bd14f71427d1e84f3dd0314c0f7b2291e5b200ac8c7c3b925836040518082815260200191505060405180910390a3600194505050505092915050565b60008060008061482d600860000160405180602001604052908160008201548152505061561e565b61484f600860010160405180602001604052908160008201548152505061561e565b600860020154600860030154935093509350935090919293565b6000614873616af3565b600061487d615453565b809250819350505060086003015481146149145781600860010160008201518160000155905050806008600301819055507f08f3ed03ec9e579d1f6ab2f9e0d3dc661704696deabe37a6b6df7014f1b30a976148f1600860010160405180602001604052908160008201548152505061561e565b600860030154604051808381526020018281526020019250505060405180910390a15b61491c615a7f565b73ffffffffffffffffffffffffffffffffffffffff1663e5839836306040518263ffffffff1660e01b8152600401808273ffffffffffffffffffffffffffffffffffffffff1673ffffffffffffffffffffffffffffffffffffffff16815260200191505060206040518083038186803b15801561499857600080fd5b505afa1580156149ac573d6000803e3d6000fd5b505050506040513d60208110156149c257600080fd5b810190808051906020019092919050505015614a29576040517f08c379a0000000000000000000000000000000000000000000000000000000008152600401808060200182810382526022815260200180616cac6022913960400191505060405180910390fd5b614a338585615e21565b9250505092915050565b614a45614375565b614ab7576040517f08c379a00000000000000000000000000000000000000000000000000000000081526004018080602001828103825260208152602001807f4f776e61626c653a2063616c6c6572206973206e6f7420746865206f776e657281525060200191505060405180910390fd5b600073ffffffffffffffffffffffffffffffffffffffff168173ffffffffffffffffffffffffffffffffffffffff161415614b5a576040517f08c379a00000000000000000000000000000000000000000000000000000000081526004018080602001828103825260208152602001807f43616e6e6f7420726567697374657220746865206e756c6c206164647265737381525060200191505060405180910390fd5b80600160006101000a81548173ffffffffffffffffffffffffffffffffffffffff021916908373ffffffffffffffffffffffffffffffffffffffff1602179055508073ffffffffffffffffffffffffffffffffffffffff167f27fe5f0c1c3b1ed427cc63d0f05759ffdecf9aec9e18d31ef366fc8a6cb5dc3b60405160405180910390a250565b6000614beb616af3565b614bf3615453565b5080915050614c1b614c1682614c0886616101565b61618b90919063ffffffff16565b6162d4565b915050919050565b6000600760008473ffffffffffffffffffffffffffffffffffffffff1673ffffffffffffffffffffffffffffffffffffffff16815260200190815260200160002060008373ffffffffffffffffffffffffffffffffffffffff1673ffffffffffffffffffffffffffffffffffffffff16815260200190815260200160002054905092915050565b60006060600060f873ffffffffffffffffffffffffffffffffffffffff166040516020016040516020818303038152906040526040518082805190602001908083835b60208310614d105780518252602082019150602081019050602083039250614ced565b6001836020036101000a038019825116818451168082178552505050505050905001915050600060405180830381855afa9150503d8060008114614d70576040519150601f19603f3d011682016040523d82523d6000602084013e614d75565b606091505b50809350819250505080614dd4576040517f08c379a0000000000000000000000000000000000000000000000000000000008152600401808060200182810382526025815260200180616e7f6025913960400191505060405180910390fd5b614ddf82600061562c565b9250505090565b6000614df0616af3565b6000614dfa615453565b80925081935050506008600301548114614e915781600860010160008201518160000155905050806008600301819055507f08f3ed03ec9e579d1f6ab2f9e0d3dc661704696deabe37a6b6df7014f1b30a97614e6e600860010160405180602001604052908160008201548152505061561e565b600860030154604051808381526020018281526020019250505060405180910390a15b614e99615a7f565b73ffffffffffffffffffffffffffffffffffffffff1663e5839836306040518263ffffffff1660e01b8152600401808273ffffffffffffffffffffffffffffffffffffffff1673ffffffffffffffffffffffffffffffffffffffff16815260200191505060206040518083038186803b158015614f1557600080fd5b505afa158015614f29573d6000803e3d6000fd5b505050506040513d6020811015614f3f57600080fd5b810190808051906020019092919050505015614fa6576040517f08c379a0000000000000000000000000000000000000000000000000000000008152600401808060200182810382526022815260200180616cac6022913960400191505060405180910390fd5b6000614fb28888614869565b90507fe5d4e30fb8364e57bc4d662a07d0cf36f4c34552004c4c3624620a2c1d1c03dc868660405180806020018281038252848482818152602001925080828437600081840152601f19601f820116905080830192505050935050505060405180910390a1809350505050949350505050565b6000615069600361505b600261504d600261503f88614485565b6162f590919063ffffffff16565b6159f790919063ffffffff16565b61637b90919063ffffffff16565b9050919050565b60008060008714158015615085575060008514155b6150f7576040517f08c379a00000000000000000000000000000000000000000000000000000000081526004018080602001828103825260158152602001807f612064656e6f6d696e61746f72206973207a65726f000000000000000000000081525060200191505060405180910390fd5b6000806000606060fc73ffffffffffffffffffffffffffffffffffffffff168c8c8c8c8c8c6040516020018087815260200186815260200185815260200184815260200183815260200182815260200196505050505050506040516020818303038152906040526040518082805190602001908083835b60208310615191578051825260208201915060208101905060208303925061516e565b6001836020036101000a038019825116818451168082178552505050505050905001915050600060405180830381855afa9150503d80600081146151f1576040519150601f19603f3d011682016040523d82523d6000602084013e6151f6565b606091505b50809250819350505081615255576040517f08c379a0000000000000000000000000000000000000000000000000000000008152600401808060200182810382526027815260200180616e586027913960400191505060405180910390fd5b61526081600061562c565b935061526d81602061562c565b925083839550955050505050965096945050505050565b61528c614375565b6152fe576040517f08c379a00000000000000000000000000000000000000000000000000000000081526004018080602001828103825260208152602001807f4f776e61626c653a2063616c6c6572206973206e6f7420746865206f776e657281525060200191505060405180910390fd5b61530781615670565b50565b60006060600060f573ffffffffffffffffffffffffffffffffffffffff1684604051602001808281526020019150506040516020818303038152906040526040518082805190602001908083835b6020831061537b5780518252602082019150602081019050602083039250615358565b6001836020036101000a038019825116818451168082178552505050505050905001915050600060405180830381855afa9150503d80600081146153db576040519150601f19603f3d011682016040523d82523d6000602084013e6153e0565b606091505b5080935081925050508061543f576040517f08c379a000000000000000000000000000000000000000000000000000000000815260040180806020018281038252602c815260200180616ea4602c913960400191505060405180910390fd5b61544a826000615c0c565b92505050919050565b61545b616af3565b600061547a6008600201546008600301546159f790919063ffffffff16565b4210156154ad5760086001016008600301548160405180602001604052908160008201548152505091509150915061561a565b60008060006154e16008600201546154d360086003015442615b7a90919063ffffffff16565b61637b90919063ffffffff16565b9050615563615508600860010160405180602001604052908160008201548152505061561e565b6155186155136157d2565b61561e565b61553a600860000160405180602001604052908160008201548152505061561e565b61554a6155456157d2565b61561e565b85600460009054906101000a900460ff1660ff16615070565b8093508194505050600083148061557a5750600082145b156155ae5760086001016008600301548160405180602001604052908160008201548152505091509450945050505061561a565b6155b6616af3565b6155d96155c2846157b4565b6155cb866157b4565b61618b90919063ffffffff16565b9050600061560c6155f8846008600201546162f590919063ffffffff16565b6008600301546159f790919063ffffffff16565b905081819650965050505050505b9091565b600081600001519050919050565b60006156388383615c0c565b60001c905092915050565b600061566861566361565484616101565b856163c590919063ffffffff16565b6162d4565b905092915050565b600073ffffffffffffffffffffffffffffffffffffffff168173ffffffffffffffffffffffffffffffffffffffff1614156156f6576040517f08c379a0000000000000000000000000000000000000000000000000000000008152600401808060200182810382526026815260200180616c016026913960400191505060405180910390fd5b8073ffffffffffffffffffffffffffffffffffffffff166000809054906101000a900473ffffffffffffffffffffffffffffffffffffffff1673ffffffffffffffffffffffffffffffffffffffff167f8be0079c531659141344cd1fd0a4f28419497f9722a3daafe3b4186f6b6457e060405160405180910390a3806000806101000a81548173ffffffffffffffffffffffffffffffffffffffff021916908373ffffffffffffffffffffffffffffffffffffffff16021790555050565b6157bc616af3565b6040518060200160405280838152509050919050565b6157da616af3565b604051806020016040528069d3c21bcecceda1000000815250905090565b60008073ffffffffffffffffffffffffffffffffffffffff168373ffffffffffffffffffffffffffffffffffffffff16141561589c576040517f08c379a00000000000000000000000000000000000000000000000000000000081526004018080602001828103825260178152602001807f302069732061207265736572766564206164647265737300000000000000000081525060200191505060405180910390fd5b60008214156158ae57600190506159f1565b60006158d3600860010160405180602001604052908160008201548152505084615643565b90506158ea816006546159f790919063ffffffff16565b60068190555061594281600560008773ffffffffffffffffffffffffffffffffffffffff1673ffffffffffffffffffffffffffffffffffffffff168152602001908152602001600020546159f790919063ffffffff16565b600560008673ffffffffffffffffffffffffffffffffffffffff1673ffffffffffffffffffffffffffffffffffffffff168152602001908152602001600020819055508373ffffffffffffffffffffffffffffffffffffffff16600073ffffffffffffffffffffffffffffffffffffffff167fddf252ad1be2c89b69c2b068fc378daa952ba7f163c4a11628f55a4df523b3ef856040518082815260200191505060405180910390a360019150505b92915050565b600080828401905083811015615a75576040517f08c379a000000000000000000000000000000000000000000000000000000000815260040180806020018281038252601b8152602001807f536166654d6174683a206164646974696f6e206f766572666c6f77000000000081525060200191505060405180910390fd5b8091505092915050565b6000600160009054906101000a900473ffffffffffffffffffffffffffffffffffffffff1673ffffffffffffffffffffffffffffffffffffffff1663dcf0aaed60405160200180807f467265657a6572000000000000000000000000000000000000000000000000008152506007019050604051602081830303815290604052805190602001206040518263ffffffff1660e01b81526004018082815260200191505060206040518083038186803b158015615b3a57600080fd5b505afa158015615b4e573d6000803e3d6000fd5b505050506040513d6020811015615b6457600080fd5b8101908080519060200190929190505050905090565b6000615bbc83836040518060400160405280601e81526020017f536166654d6174683a207375627472616374696f6e206f766572666c6f770000815250616824565b905092915050565b600080828481615bd057fe5b0490506000838581615bde57fe5b061415615bee5780915050615c06565b615c026001826159f790919063ffffffff16565b9150505b92915050565b6000615c226020836159f790919063ffffffff16565b83511015615c98576040517f08c379a00000000000000000000000000000000000000000000000000000000081526004018080602001828103825260148152602001807f736c6963696e67206f7574206f662072616e676500000000000000000000000081525060200191505060405180910390fd5b60006020830184015190508091505092915050565b60008073ffffffffffffffffffffffffffffffffffffffff168373ffffffffffffffffffffffffffffffffffffffff161415615cec5760009050615e12565b6000615d11600860010160405180602001604052908160008201548152505084615643565b9050615d6581600560008773ffffffffffffffffffffffffffffffffffffffff1673ffffffffffffffffffffffffffffffffffffffff168152602001908152602001600020546159f790919063ffffffff16565b600560008673ffffffffffffffffffffffffffffffffffffffff1673ffffffffffffffffffffffffffffffffffffffff168152602001908152602001600020819055508373ffffffffffffffffffffffffffffffffffffffff168573ffffffffffffffffffffffffffffffffffffffff167fddf252ad1be2c89b69c2b068fc378daa952ba7f163c4a11628f55a4df523b3ef856040518082815260200191505060405180910390a3809150505b9392505050565b600033905090565b60008073ffffffffffffffffffffffffffffffffffffffff168373ffffffffffffffffffffffffffffffffffffffff161415615ea8576040517f08c379a000000000000000000000000000000000000000000000000000000000815260040180806020018281038252602a815260200180616f01602a913960400191505060405180910390fd5b6000615ecd600860010160405180602001604052908160008201548152505084615643565b905080600560003373ffffffffffffffffffffffffffffffffffffffff1673ffffffffffffffffffffffffffffffffffffffff168152602001908152602001600020541015615f67576040517f08c379a0000000000000000000000000000000000000000000000000000000008152600401808060200182810382526029815260200180616df76029913960400191505060405180910390fd5b615fb981600560003373ffffffffffffffffffffffffffffffffffffffff1673ffffffffffffffffffffffffffffffffffffffff16815260200190815260200160002054615b7a90919063ffffffff16565b600560003373ffffffffffffffffffffffffffffffffffffffff1673ffffffffffffffffffffffffffffffffffffffff1681526020019081526020016000208190555061604e81600560008773ffffffffffffffffffffffffffffffffffffffff1673ffffffffffffffffffffffffffffffffffffffff168152602001908152602001600020546159f790919063ffffffff16565b600560008673ffffffffffffffffffffffffffffffffffffffff1673ffffffffffffffffffffffffffffffffffffffff168152602001908152602001600020819055508373ffffffffffffffffffffffffffffffffffffffff163373ffffffffffffffffffffffffffffffffffffffff167fddf252ad1be2c89b69c2b068fc378daa952ba7f163c4a11628f55a4df523b3ef856040518082815260200191505060405180910390a3600191505092915050565b616109616af3565b6161116168e4565b821115616169576040517f08c379a0000000000000000000000000000000000000000000000000000000008152600401808060200182810382526036815260200180616cce6036913960400191505060405180910390fd5b604051806020016040528069d3c21bcecceda100000084028152509050919050565b616193616af3565b60008260000151141561620e576040517f08c379a00000000000000000000000000000000000000000000000000000000081526004018080602001828103825260118152602001807f63616e277420646976696465206279203000000000000000000000000000000081525060200191505060405180910390fd5b600069d3c21bcecceda10000008460000151029050836000015169d3c21bcecceda1000000828161623b57fe5b04146162af576040517f08c379a00000000000000000000000000000000000000000000000000000000081526004018080602001828103825260128152602001807f6f766572666c6f7720617420646976696465000000000000000000000000000081525060200191505060405180910390fd5b6040518060200160405280846000015183816162c757fe5b0481525091505092915050565b600069d3c21bcecceda10000008260000151816162ed57fe5b049050919050565b6000808314156163085760009050616375565b600082840290508284828161631957fe5b0414616370576040517f08c379a0000000000000000000000000000000000000000000000000000000008152600401808060200182810382526021815260200180616dd66021913960400191505060405180910390fd5b809150505b92915050565b60006163bd83836040518060400160405280601a81526020017f536166654d6174683a206469766973696f6e206279207a65726f000000000000815250616903565b905092915050565b6163cd616af3565b6000836000015114806163e4575060008260000151145b156164005760405180602001604052806000815250905061681e565b69d3c21bcecceda10000008260000151141561641e5782905061681e565b69d3c21bcecceda10000008360000151141561643c5781905061681e565b600069d3c21bcecceda1000000616452856169c9565b600001518161645d57fe5b049050600061646b85616a00565b600001519050600069d3c21bcecceda1000000616487866169c9565b600001518161649257fe5b04905060006164a086616a00565b600001519050600082850290506000851461653457828582816164bf57fe5b0414616533576040517f08c379a00000000000000000000000000000000000000000000000000000000081526004018080602001828103825260168152602001807f6f766572666c6f7720783179312064657465637465640000000000000000000081525060200191505060405180910390fd5b5b600069d3c21bcecceda100000082029050600082146165d65769d3c21bcecceda100000082828161656157fe5b04146165d5576040517f08c379a000000000000000000000000000000000000000000000000000000000815260040180806020018281038252601f8152602001807f6f766572666c6f772078317931202a206669786564312064657465637465640081525060200191505060405180910390fd5b5b809150600084860290506000861461666757848682816165f257fe5b0414616666576040517f08c379a00000000000000000000000000000000000000000000000000000000081526004018080602001828103825260168152602001807f6f766572666c6f7720783279312064657465637465640000000000000000000081525060200191505060405180910390fd5b5b60008488029050600088146166f5578488828161668057fe5b04146166f4576040517f08c379a00000000000000000000000000000000000000000000000000000000081526004018080602001828103825260168152602001807f6f766572666c6f7720783179322064657465637465640000000000000000000081525060200191505060405180910390fd5b5b6166fd616a3d565b878161670557fe5b049650616710616a3d565b858161671857fe5b04945060008588029050600088146167a9578588828161673457fe5b04146167a8576040517f08c379a00000000000000000000000000000000000000000000000000000000081526004018080602001828103825260168152602001807f6f766572666c6f7720783279322064657465637465640000000000000000000081525060200191505060405180910390fd5b5b6167b1616af3565b60405180602001604052808781525090506167da81604051806020016040528087815250616a4a565b90506167f481604051806020016040528086815250616a4a565b905061680e81604051806020016040528085815250616a4a565b9050809a50505050505050505050505b92915050565b60008383111582906168d1576040517f08c379a00000000000000000000000000000000000000000000000000000000081526004018080602001828103825283818151815260200191508051906020019080838360005b8381101561689657808201518184015260208101905061687b565b50505050905090810190601f1680156168c35780820380516001836020036101000a031916815260200191505b509250505060405180910390fd5b5060008385039050809150509392505050565b60007601357c299a88ea76a58924d52ce4f26a85af186c2b9e74905090565b600080831182906169af576040517f08c379a00000000000000000000000000000000000000000000000000000000081526004018080602001828103825283818151815260200191508051906020019080838360005b83811015616974578082015181840152602081019050616959565b50505050905090810190601f1680156169a15780820380516001836020036101000a031916815260200191505b509250505060405180910390fd5b5060008385816169bb57fe5b049050809150509392505050565b6169d1616af3565b604051806020016040528069d3c21bcecceda1000000808560000151816169f457fe5b04028152509050919050565b616a08616af3565b604051806020016040528069d3c21bcecceda100000080856000015181616a2b57fe5b04028460000151038152509050919050565b600064e8d4a51000905090565b616a52616af3565b6000826000015184600001510190508360000151811015616adb576040517f08c379a00000000000000000000000000000000000000000000000000000000081526004018080602001828103825260158152602001807f616464206f766572666c6f77206465746563746564000000000000000000000081525060200191505060405180910390fd5b60405180602001604052808281525091505092915050565b6040518060200160405280600081525090565b828054600181600116156101000203166002900490600052602060002090601f016020900481019282601f10616b4757803560ff1916838001178555616b75565b82800160010185558215616b75579182015b82811115616b74578235825591602001919060010190616b59565b5b509050616b829190616b86565b5090565b616ba891905b80821115616ba4576000816000905550600101616b8c565b5090565b9056fe6572726f722063616c6c696e67206e756d62657256616c696461746f7273496e53657420707265636f6d70696c65696e666c6174696f6e466163746f72557064617465506572696f64206d757374206265203e20304f776e61626c653a206e6577206f776e657220697320746865207a65726f20616464726573734d7573742070726f766964652061206e6f6e2d7a65726f20696e666c6174696f6e20726174654d7573742070726f766964652061206e6f6e2d7a65726f20696e666c6174696f6e20726174652e6572726f722063616c6c696e672067657456657269666965645365616c4269746d617046726f6d48656164657220707265636f6d70696c6563616e27742063616c6c207768656e20636f6e74726163742069732066726f7a656e63616e277420637265617465206669786964697479206e756d626572206c6172676572207468616e206d61784e6577466978656428296572726f722063616c6c696e672076616c696461746f725369676e65724164647265737346726f6d43757272656e7453657420707265636f6d70696c656572726f722063616c6c696e67206e756d62657256616c696461746f7273496e43757272656e7453657420707265636f6d70696c656572726f722063616c6c696e672076616c696461746f725369676e65724164647265737346726f6d53657420707265636f6d70696c6572657365727665642061646472657373203078302063616e6e6f74206861766520616c6c6f77616e6365536166654d6174683a206d756c7469706c69636174696f6e206f766572666c6f777472616e736665722076616c75652065786365656465642062616c616e6365206f662073656e6465727472616e736665722076616c75652065786365656465642073656e646572277320616c6c6f77616e636520666f7220726563697069656e746572726f722063616c6c696e67206672616374696f6e4d756c45787020707265636f6d70696c656572726f722063616c6c696e672067657445706f636853697a6520707265636f6d70696c656572726f722063616c6c696e6720676574506172656e745365616c4269746d617020707265636f6d70696c656572726f722063616c6c696e6720676574426c6f636b4e756d62657246726f6d48656164657220707265636f6d70696c657472616e7366657220617474656d7074656420746f2072657365727665642061646472657373203078306572726f722063616c6c696e67206861736848656164657220707265636f6d70696c65a265627a7a72315820e7f7282a7cc6970b0651d982d5304db6d7747c333bd202171bbed152d82b2aba64736f6c634300050d0032",
  "source": "pragma solidity ^0.5.13;\n\nimport \"./StableToken.sol\";\n\ncontract StableTokenEUR is StableToken {\n    /**\n     * @notice Sets initialized == true on implementation contracts.\n     * @param test Set to true to skip implementation initialization.\n     */\n    constructor(bool test) public StableToken(test) {}\n\n    /**\n     * @notice Returns the storage, major, minor, and patch version of the contract.\n     * @dev This function is overloaded to maintain a distinct version from StableToken.sol.\n     * @return Storage version of the contract.\n     * @return Major version of the contract.\n     * @return Minor version of the contract.\n     * @return Patch version of the contract.\n     */\n    function getVersionNumber()\n        external\n        pure\n        returns (\n            uint256,\n            uint256,\n            uint256,\n            uint256\n        )\n    {\n        return (1, 1, 0, 1);\n    }\n}\n",
  "sourcePath": "/Users/beaver/Development/celo/celo-monorepo/packages/protocol/lib/mento-core/contracts/StableTokenEUR.sol",
  "compiler": {
    "name": "solc",
    "version": "0.5.13+commit.5b0b510c.Emscripten.clang"
  },
  "schemaVersion": "3.4.13",
  "updatedAt": "2024-03-05T15:18:03.885Z",
  "devdoc": {
    "methods": {
      "allowance(address,address)": {
        "params": {
          "accountOwner": "The owner of the StableToken.",
          "spender": "The spender of the StableToken."
        },
        "return": "The amount of StableToken owner is allowing spender to spend."
      },
      "approve(address,uint256)": {
        "params": {
          "spender": "The address which is being approved to spend StableToken.",
          "value": "The amount of StableToken approved to the spender."
        },
        "return": "True if the transaction succeeds."
      },
      "balanceOf(address)": {
        "params": {
          "accountOwner": "The address to query the balance of."
        },
        "return": "The balance of the specified address."
      },
      "burn(uint256)": {
        "params": {
          "value": "The amount of StableToken to burn."
        }
      },
      "checkProofOfPossession(address,bytes,bytes)": {
        "params": {
          "blsKey": "The BLS public key that the validator is using for consensus, should pass proof  of possession. 48 bytes.",
          "blsPop": "The BLS public key proof-of-possession, which consists of a signature on the  account address. 96 bytes.",
          "sender": "The address signed by the BLS key to generate the proof of possession."
        },
        "return": "True upon success."
      },
      "constructor": {
        "params": {
          "test": "Set to true to skip implementation initialization."
        }
      },
      "creditGasFees(address,address,address,address,uint256,uint256,uint256,uint256)": {
        "details": "Note that this function is called by the protocol when paying for tx fees in this currency. Before the tx is executed, gas is debited from the sender via a call to `debitGasFees`. Note too that the events emitted by `creditGasFees` reflect the *net* gas fee payments for the transaction.",
        "params": {
          "baseTxFee": "Community fund fee",
          "communityFund": "Community fund address",
          "feeRecipient": "Coinbase address",
          "from": "The account to debit balance from",
          "gatewayFee": "Gateway fee",
          "gatewayFeeRecipient": "Gateway address",
          "tipTxFee": "Coinbase fee"
        }
      },
      "debitGasFees(address,uint256)": {
        "details": "Note that this function is called by the protocol when paying for tx fees in this currency. After the tx is executed, gas is refunded to the sender and credited to the various tx fee recipients via a call to `creditGasFees`. Note too that the events emitted by `creditGasFees` reflect the *net* gas fee payments for the transaction.",
        "params": {
          "from": "The account to reserve balance from",
          "value": "The amount of balance to reserve"
        }
      },
      "decimals()": {
        "return": "The number of decimal places to which StableToken is divisible."
      },
      "decreaseAllowance(address,uint256)": {
        "params": {
          "spender": "The address which is being approved to spend StableToken.",
          "value": "The decrement of the amount of StableToken approved to the spender."
        },
        "return": "True if the transaction succeeds."
      },
      "fractionMulExp(uint256,uint256,uint256,uint256,uint256,uint256)": {
        "params": {
          "_decimals": "precision",
          "aDenominator": "Denominator of first fraction",
          "aNumerator": "Numerator of first fraction",
          "bDenominator": "Denominator of exponentiated fraction",
          "bNumerator": "Numerator of exponentiated fraction",
          "exponent": "exponent to raise b to"
        },
        "return": "Numerator of the computed quantity (not reduced).Denominator of the computed quantity (not reduced)."
      },
      "getBlockNumberFromHeader(bytes)": {
        "params": {
          "header": "RLP encoded header"
        },
        "return": "Block number."
      },
      "getEpochNumber()": {
        "return": "Current epoch number."
      },
      "getEpochNumberOfBlock(uint256)": {
        "params": {
          "blockNumber": "Block number where epoch number is calculated."
        },
        "return": "Epoch number."
      },
      "getEpochSize()": {
        "return": "The current epoch size in blocks."
      },
      "getExchangeRegistryId()": {
        "details": "When this storage is uninitialized, it falls back to the default EXCHANGE_REGISTRY_ID. exchangeRegistryId was introduced after the initial release of cUSD's StableToken, so exchangeRegistryId will be uninitialized for that contract. If cUSD's StableToken exchangeRegistryId were to be correctly initialized, this function could be deprecated in favor of using exchangeRegistryId directly.",
        "return": "Registry id for the corresponding exchange."
      },
      "getInflationParameters()": {
        "return": "ratefactorupdatePeriodfactorLastUpdated"
      },
      "getParentSealBitmap(uint256)": {
        "params": {
          "blockNumber": "Block number to retrieve. Must be within 4 epochs of the current number."
        },
        "return": "Bitmap parent seal with set bits at indices corresponding to signing validators."
      },
      "getVerifiedSealBitmapFromHeader(bytes)": {
        "params": {
          "header": "RLP encoded header"
        },
        "return": "Bitmap parent seal with set bits at indices correspoinding to signing validators."
      },
      "getVersionNumber()": {
        "details": "This function is overloaded to maintain a distinct version from StableToken.sol.",
        "return": "Storage version of the contract.Major version of the contract.Minor version of the contract.Patch version of the contract."
      },
      "hashHeader(bytes)": {
        "params": {
          "header": "RLP encoded header"
        },
        "return": "Header hash."
      },
      "increaseAllowance(address,uint256)": {
        "params": {
          "spender": "The address which is being approved to spend StableToken.",
          "value": "The increment of the amount of StableToken approved to the spender."
        },
        "return": "True if the transaction succeeds."
      },
      "initialize(string,string,uint8,address,uint256,uint256,address[],uint256[],string)": {
        "params": {
          "_decimals": "Tokens are divisible to this many decimal places.",
          "_name": "The name of the stable token (English)",
          "_symbol": "A short symbol identifying the token (e.g. \"cUSD\")",
          "exchangeIdentifier": "String identifier of exchange in registry (for specific fiat pairs)",
          "inflationFactorUpdatePeriod": "How often the inflation factor is updated, in seconds.",
          "inflationRate": "Weekly inflation rate.",
          "initialBalanceAddresses": "Array of addresses with an initial balance.",
          "initialBalanceValues": "Array of balance values corresponding to initialBalanceAddresses.",
          "registryAddress": "Address of the Registry contract."
        }
      },
      "isOwner()": {
        "details": "Returns true if the caller is the current owner."
      },
      "minQuorumSize(uint256)": {
        "details": "Computed in celo-blockchain as int(math.Ceil(float64(2*valSet.Size()) / 3))"
      },
      "minQuorumSizeInCurrentSet()": {
        "return": "Byzantine quorum of validators."
      },
      "mint(address,uint256)": {
        "params": {
          "to": "The account for which to mint tokens.",
          "value": "The amount of StableToken to mint."
        }
      },
      "name()": {
        "return": "The name of the stable token."
      },
      "numberValidatorsInCurrentSet()": {
        "return": "Size of the current elected validator set."
      },
      "numberValidatorsInSet(uint256)": {
        "params": {
          "blockNumber": "Block number to retrieve the validator set from."
        },
        "return": "Size of the validator set."
      },
      "owner()": {
        "details": "Returns the address of the current owner."
      },
      "renounceOwnership()": {
        "details": "Leaves the contract without owner. It will not be possible to call `onlyOwner` functions anymore. Can only be called by the current owner.     * NOTE: Renouncing ownership will leave the contract without an owner, thereby removing any functionality that is only available to the owner."
      },
      "setInflationParameters(uint256,uint256)": {
        "params": {
          "rate": "New rate.",
          "updatePeriod": "How often inflationFactor is updated."
        }
      },
      "setRegistry(address)": {
        "params": {
          "registryAddress": "The address of a registry contract for routing to other contracts."
        }
      },
      "symbol()": {
        "return": "The symbol of the stable token."
      },
      "totalSupply()": {
        "details": "Though totalSupply_ is stored in units, this returns value.",
        "return": "The total value of StableToken in existence"
      },
      "transfer(address,uint256)": {
        "params": {
          "to": "The address to transfer to.",
          "value": "The amount to be transferred."
        }
      },
      "transferFrom(address,address,uint256)": {
        "params": {
          "from": "The address to transfer StableToken from.",
          "to": "The address to transfer StableToken to.",
          "value": "The amount of StableToken to transfer."
        },
        "return": "True if the transaction succeeds."
      },
      "transferOwnership(address)": {
        "details": "Transfers ownership of the contract to a new account (`newOwner`). Can only be called by the current owner."
      },
      "transferWithComment(address,uint256,string)": {
        "params": {
          "comment": "The transfer comment.",
          "to": "The address to transfer to.",
          "value": "The amount to be transferred."
        },
        "return": "True if the transaction succeeds."
      },
      "unitsToValue(uint256)": {
        "params": {
          "units": "The units to convert to value."
        },
        "return": "The value corresponding to `units` given the current inflation factor."
      },
      "validatorSignerAddressFromCurrentSet(uint256)": {
        "params": {
          "index": "Index of requested validator in the validator set."
        },
        "return": "Address of validator at the requested index."
      },
      "validatorSignerAddressFromSet(uint256,uint256)": {
        "params": {
          "blockNumber": "Block number to retrieve the validator set from.",
          "index": "Index of requested validator in the validator set."
        },
        "return": "Address of validator at the requested index."
      },
      "valueToUnits(uint256)": {
        "details": "We don't compute the updated inflationFactor here because we assume any function calling this will have updated the inflation factor.",
        "params": {
          "value": "The value to convert to units."
        },
        "return": "The units corresponding to `value` given the current inflation factor."
      }
    }
  },
  "userdoc": {
    "methods": {
      "allowance(address,address)": {
        "notice": "Gets the amount of owner's StableToken allowed to be spent by spender."
      },
      "approve(address,uint256)": {
        "notice": "Approve a user to transfer StableToken on behalf of another user."
      },
      "balanceOf(address)": {
        "notice": "Gets the balance of the specified address using the presently stored inflation factor."
      },
      "burn(uint256)": {
        "notice": "Burns StableToken from the balance of msg.sender."
      },
      "checkProofOfPossession(address,bytes,bytes)": {
        "notice": "Checks a BLS proof of possession."
      },
      "constructor": "Sets initialized == true on implementation contracts.",
      "creditGasFees(address,address,address,address,uint256,uint256,uint256,uint256)": {
        "notice": "Alternative function to credit balance after making payments for gas in this StableToken currency."
      },
      "debitGasFees(address,uint256)": {
        "notice": "Reserve balance for making payments for gas in this StableToken currency."
      },
      "decreaseAllowance(address,uint256)": {
        "notice": "Decrease the allowance of another user."
      },
      "fractionMulExp(uint256,uint256,uint256,uint256,uint256,uint256)": {
        "notice": "calculate a * b^x for fractions a, b to `decimals` precision"
      },
      "getBlockNumberFromHeader(bytes)": {
        "notice": "Parses block number out of header."
      },
      "getEpochNumber()": {
        "notice": "Returns the epoch number at a block."
      },
      "getEpochNumberOfBlock(uint256)": {
        "notice": "Returns the epoch number at a block."
      },
      "getEpochSize()": {
        "notice": "Returns the current epoch size in blocks."
      },
      "getExchangeRegistryId()": {
        "notice": "Returns the exchange id in the registry of the corresponding fiat pair exchange."
      },
      "getInflationParameters()": {
        "notice": "gets inflation parameters."
      },
      "getParentSealBitmap(uint256)": {
        "notice": "Gets the parent seal bitmap from the header at the given block number."
      },
      "getVerifiedSealBitmapFromHeader(bytes)": {
        "notice": "Verifies the BLS signature on the header and returns the seal bitmap. The validator set used for verification is retrieved based on the parent hash field of the header.  If the parent hash is not in the blockchain, verification fails."
      },
      "getVersionNumber()": {
        "notice": "Returns the storage, major, minor, and patch version of the contract."
      },
      "hashHeader(bytes)": {
        "notice": "Computes hash of header."
      },
      "increaseAllowance(address,uint256)": {
        "notice": "Increase the allowance of another user."
      },
      "minQuorumSize(uint256)": {
        "notice": "Returns the minimum number of required signers for a given block number."
      },
      "minQuorumSizeInCurrentSet()": {
        "notice": "Computes byzantine quorum from current validator set size"
      },
      "mint(address,uint256)": {
        "notice": "Mints new StableToken and gives it to 'to'."
      },
      "numberValidatorsInCurrentSet()": {
        "notice": "Gets the size of the current elected validator set."
      },
      "numberValidatorsInSet(uint256)": {
        "notice": "Gets the size of the validator set that must sign the given block number."
      },
      "setInflationParameters(uint256,uint256)": {
        "notice": "Updates Inflation Parameters."
      },
      "setRegistry(address)": {
        "notice": "Updates the address pointing to a Registry contract."
      },
      "transfer(address,uint256)": {
        "notice": "Transfers `value` from `msg.sender` to `to`"
      },
      "transferFrom(address,address,uint256)": {
        "notice": "Transfers StableToken from one address to another on behalf of a user."
      },
      "transferWithComment(address,uint256,string)": {
        "notice": "Transfer token for a specified address"
      },
      "unitsToValue(uint256)": {
        "notice": "Returns the value of a given number of units given the current inflation factor."
      },
      "validatorSignerAddressFromCurrentSet(uint256)": {
        "notice": "Gets a validator address from the current validator set."
      },
      "validatorSignerAddressFromSet(uint256,uint256)": {
        "notice": "Gets a validator address from the validator set at the given block number."
      },
      "valueToUnits(uint256)": {
        "notice": "Returns the units for a given value given the current inflation factor."
      }
    }
  }
}