{
  "contractName": "StableToken",
  "abi": [
    {
      "inputs": [
        {
          "internalType": "bool",
          "name": "test",
          "type": "bool"
        }
      ],
      "payable": false,
      "stateMutability": "nonpayable",
      "type": "constructor"
    },
    {
      "anonymous": false,
      "inputs": [
        {
          "indexed": true,
          "internalType": "address",
          "name": "owner",
          "type": "address"
        },
        {
          "indexed": true,
          "internalType": "address",
          "name": "spender",
          "type": "address"
        },
        {
          "indexed": false,
          "internalType": "uint256",
          "name": "value",
          "type": "uint256"
        }
      ],
      "name": "Approval",
      "type": "event"
    },
    {
      "anonymous": false,
      "inputs": [
        {
          "indexed": false,
          "internalType": "uint256",
          "name": "factor",
          "type": "uint256"
        },
        {
          "indexed": false,
          "internalType": "uint256",
          "name": "lastUpdated",
          "type": "uint256"
        }
      ],
      "name": "InflationFactorUpdated",
      "type": "event"
    },
    {
      "anonymous": false,
      "inputs": [
        {
          "indexed": false,
          "internalType": "uint256",
          "name": "rate",
          "type": "uint256"
        },
        {
          "indexed": false,
          "internalType": "uint256",
          "name": "updatePeriod",
          "type": "uint256"
        },
        {
          "indexed": false,
          "internalType": "uint256",
          "name": "lastUpdated",
          "type": "uint256"
        }
      ],
      "name": "InflationParametersUpdated",
      "type": "event"
    },
    {
      "anonymous": false,
      "inputs": [
        {
          "indexed": true,
          "internalType": "address",
          "name": "previousOwner",
          "type": "address"
        },
        {
          "indexed": true,
          "internalType": "address",
          "name": "newOwner",
          "type": "address"
        }
      ],
      "name": "OwnershipTransferred",
      "type": "event"
    },
    {
      "anonymous": false,
      "inputs": [
        {
          "indexed": true,
          "internalType": "address",
          "name": "registryAddress",
          "type": "address"
        }
      ],
      "name": "RegistrySet",
      "type": "event"
    },
    {
      "anonymous": false,
      "inputs": [
        {
          "indexed": true,
          "internalType": "address",
          "name": "from",
          "type": "address"
        },
        {
          "indexed": true,
          "internalType": "address",
          "name": "to",
          "type": "address"
        },
        {
          "indexed": false,
          "internalType": "uint256",
          "name": "value",
          "type": "uint256"
        }
      ],
      "name": "Transfer",
      "type": "event"
    },
    {
      "anonymous": false,
      "inputs": [
        {
          "indexed": false,
          "internalType": "string",
          "name": "comment",
          "type": "string"
        }
      ],
      "name": "TransferComment",
      "type": "event"
    },
    {
      "constant": true,
      "inputs": [
        {
          "internalType": "address",
          "name": "sender",
          "type": "address"
        },
        {
          "internalType": "bytes",
          "name": "blsKey",
          "type": "bytes"
        },
        {
          "internalType": "bytes",
          "name": "blsPop",
          "type": "bytes"
        }
      ],
      "name": "checkProofOfPossession",
      "outputs": [
        {
          "internalType": "bool",
          "name": "",
          "type": "bool"
        }
      ],
      "payable": false,
      "stateMutability": "view",
      "type": "function"
    },
    {
      "constant": true,
      "inputs": [
        {
          "internalType": "uint256",
          "name": "aNumerator",
          "type": "uint256"
        },
        {
          "internalType": "uint256",
          "name": "aDenominator",
          "type": "uint256"
        },
        {
          "internalType": "uint256",
          "name": "bNumerator",
          "type": "uint256"
        },
        {
          "internalType": "uint256",
          "name": "bDenominator",
          "type": "uint256"
        },
        {
          "internalType": "uint256",
          "name": "exponent",
          "type": "uint256"
        },
        {
          "internalType": "uint256",
          "name": "_decimals",
          "type": "uint256"
        }
      ],
      "name": "fractionMulExp",
      "outputs": [
        {
          "internalType": "uint256",
          "name": "",
          "type": "uint256"
        },
        {
          "internalType": "uint256",
          "name": "",
          "type": "uint256"
        }
      ],
      "payable": false,
      "stateMutability": "view",
      "type": "function"
    },
    {
      "constant": true,
      "inputs": [
        {
          "internalType": "bytes",
          "name": "header",
          "type": "bytes"
        }
      ],
      "name": "getBlockNumberFromHeader",
      "outputs": [
        {
          "internalType": "uint256",
          "name": "",
          "type": "uint256"
        }
      ],
      "payable": false,
      "stateMutability": "view",
      "type": "function"
    },
    {
      "constant": true,
      "inputs": [],
      "name": "getEpochNumber",
      "outputs": [
        {
          "internalType": "uint256",
          "name": "",
          "type": "uint256"
        }
      ],
      "payable": false,
      "stateMutability": "view",
      "type": "function"
    },
    {
      "constant": true,
      "inputs": [
        {
          "internalType": "uint256",
          "name": "blockNumber",
          "type": "uint256"
        }
      ],
      "name": "getEpochNumberOfBlock",
      "outputs": [
        {
          "internalType": "uint256",
          "name": "",
          "type": "uint256"
        }
      ],
      "payable": false,
      "stateMutability": "view",
      "type": "function"
    },
    {
      "constant": true,
      "inputs": [],
      "name": "getEpochSize",
      "outputs": [
        {
          "internalType": "uint256",
          "name": "",
          "type": "uint256"
        }
      ],
      "payable": false,
      "stateMutability": "view",
      "type": "function"
    },
    {
      "constant": true,
      "inputs": [
        {
          "internalType": "uint256",
          "name": "blockNumber",
          "type": "uint256"
        }
      ],
      "name": "getParentSealBitmap",
      "outputs": [
        {
          "internalType": "bytes32",
          "name": "",
          "type": "bytes32"
        }
      ],
      "payable": false,
      "stateMutability": "view",
      "type": "function"
    },
    {
      "constant": true,
      "inputs": [
        {
          "internalType": "bytes",
          "name": "header",
          "type": "bytes"
        }
      ],
      "name": "getVerifiedSealBitmapFromHeader",
      "outputs": [
        {
          "internalType": "bytes32",
          "name": "",
          "type": "bytes32"
        }
      ],
      "payable": false,
      "stateMutability": "view",
      "type": "function"
    },
    {
      "constant": true,
      "inputs": [
        {
          "internalType": "bytes",
          "name": "header",
          "type": "bytes"
        }
      ],
      "name": "hashHeader",
      "outputs": [
        {
          "internalType": "bytes32",
          "name": "",
          "type": "bytes32"
        }
      ],
      "payable": false,
      "stateMutability": "view",
      "type": "function"
    },
    {
      "constant": true,
      "inputs": [],
      "name": "initialized",
      "outputs": [
        {
          "internalType": "bool",
          "name": "",
          "type": "bool"
        }
      ],
      "payable": false,
      "stateMutability": "view",
      "type": "function"
    },
    {
      "constant": true,
      "inputs": [],
      "name": "isOwner",
      "outputs": [
        {
          "internalType": "bool",
          "name": "",
          "type": "bool"
        }
      ],
      "payable": false,
      "stateMutability": "view",
      "type": "function"
    },
    {
      "constant": true,
      "inputs": [
        {
          "internalType": "uint256",
          "name": "blockNumber",
          "type": "uint256"
        }
      ],
      "name": "minQuorumSize",
      "outputs": [
        {
          "internalType": "uint256",
          "name": "",
          "type": "uint256"
        }
      ],
      "payable": false,
      "stateMutability": "view",
      "type": "function"
    },
    {
      "constant": true,
      "inputs": [],
      "name": "minQuorumSizeInCurrentSet",
      "outputs": [
        {
          "internalType": "uint256",
          "name": "",
          "type": "uint256"
        }
      ],
      "payable": false,
      "stateMutability": "view",
      "type": "function"
    },
    {
      "constant": true,
      "inputs": [],
      "name": "numberValidatorsInCurrentSet",
      "outputs": [
        {
          "internalType": "uint256",
          "name": "",
          "type": "uint256"
        }
      ],
      "payable": false,
      "stateMutability": "view",
      "type": "function"
    },
    {
      "constant": true,
      "inputs": [
        {
          "internalType": "uint256",
          "name": "blockNumber",
          "type": "uint256"
        }
      ],
      "name": "numberValidatorsInSet",
      "outputs": [
        {
          "internalType": "uint256",
          "name": "",
          "type": "uint256"
        }
      ],
      "payable": false,
      "stateMutability": "view",
      "type": "function"
    },
    {
      "constant": true,
      "inputs": [],
      "name": "owner",
      "outputs": [
        {
          "internalType": "address",
          "name": "",
          "type": "address"
        }
      ],
      "payable": false,
      "stateMutability": "view",
      "type": "function"
    },
    {
      "constant": true,
      "inputs": [],
      "name": "registry",
      "outputs": [
        {
          "internalType": "contract IRegistry",
          "name": "",
          "type": "address"
        }
      ],
      "payable": false,
      "stateMutability": "view",
      "type": "function"
    },
    {
      "constant": false,
      "inputs": [],
      "name": "renounceOwnership",
      "outputs": [],
      "payable": false,
      "stateMutability": "nonpayable",
      "type": "function"
    },
    {
      "constant": false,
      "inputs": [
        {
          "internalType": "address",
          "name": "registryAddress",
          "type": "address"
        }
      ],
      "name": "setRegistry",
      "outputs": [],
      "payable": false,
      "stateMutability": "nonpayable",
      "type": "function"
    },
    {
      "constant": false,
      "inputs": [
        {
          "internalType": "address",
          "name": "newOwner",
          "type": "address"
        }
      ],
      "name": "transferOwnership",
      "outputs": [],
      "payable": false,
      "stateMutability": "nonpayable",
      "type": "function"
    },
    {
      "constant": true,
      "inputs": [
        {
          "internalType": "uint256",
          "name": "index",
          "type": "uint256"
        }
      ],
      "name": "validatorSignerAddressFromCurrentSet",
      "outputs": [
        {
          "internalType": "address",
          "name": "",
          "type": "address"
        }
      ],
      "payable": false,
      "stateMutability": "view",
      "type": "function"
    },
    {
      "constant": true,
      "inputs": [
        {
          "internalType": "uint256",
          "name": "index",
          "type": "uint256"
        },
        {
          "internalType": "uint256",
          "name": "blockNumber",
          "type": "uint256"
        }
      ],
      "name": "validatorSignerAddressFromSet",
      "outputs": [
        {
          "internalType": "address",
          "name": "",
          "type": "address"
        }
      ],
      "payable": false,
      "stateMutability": "view",
      "type": "function"
    },
    {
      "constant": true,
      "inputs": [],
      "name": "getVersionNumber",
      "outputs": [
        {
          "internalType": "uint256",
          "name": "",
          "type": "uint256"
        },
        {
          "internalType": "uint256",
          "name": "",
          "type": "uint256"
        },
        {
          "internalType": "uint256",
          "name": "",
          "type": "uint256"
        },
        {
          "internalType": "uint256",
          "name": "",
          "type": "uint256"
        }
      ],
      "payable": false,
      "stateMutability": "pure",
      "type": "function"
    },
    {
      "constant": false,
      "inputs": [
        {
          "internalType": "string",
          "name": "_name",
          "type": "string"
        },
        {
          "internalType": "string",
          "name": "_symbol",
          "type": "string"
        },
        {
          "internalType": "uint8",
          "name": "_decimals",
          "type": "uint8"
        },
        {
          "internalType": "address",
          "name": "registryAddress",
          "type": "address"
        },
        {
          "internalType": "uint256",
          "name": "inflationRate",
          "type": "uint256"
        },
        {
          "internalType": "uint256",
          "name": "inflationFactorUpdatePeriod",
          "type": "uint256"
        },
        {
          "internalType": "address[]",
          "name": "initialBalanceAddresses",
          "type": "address[]"
        },
        {
          "internalType": "uint256[]",
          "name": "initialBalanceValues",
          "type": "uint256[]"
        },
        {
          "internalType": "string",
          "name": "exchangeIdentifier",
          "type": "string"
        }
      ],
      "name": "initialize",
      "outputs": [],
      "payable": false,
      "stateMutability": "nonpayable",
      "type": "function"
    },
    {
      "constant": false,
      "inputs": [
        {
          "internalType": "uint256",
          "name": "rate",
          "type": "uint256"
        },
        {
          "internalType": "uint256",
          "name": "updatePeriod",
          "type": "uint256"
        }
      ],
      "name": "setInflationParameters",
      "outputs": [],
      "payable": false,
      "stateMutability": "nonpayable",
      "type": "function"
    },
    {
      "constant": false,
      "inputs": [
        {
          "internalType": "address",
          "name": "spender",
          "type": "address"
        },
        {
          "internalType": "uint256",
          "name": "value",
          "type": "uint256"
        }
      ],
      "name": "increaseAllowance",
      "outputs": [
        {
          "internalType": "bool",
          "name": "",
          "type": "bool"
        }
      ],
      "payable": false,
      "stateMutability": "nonpayable",
      "type": "function"
    },
    {
      "constant": false,
      "inputs": [
        {
          "internalType": "address",
          "name": "spender",
          "type": "address"
        },
        {
          "internalType": "uint256",
          "name": "value",
          "type": "uint256"
        }
      ],
      "name": "decreaseAllowance",
      "outputs": [
        {
          "internalType": "bool",
          "name": "",
          "type": "bool"
        }
      ],
      "payable": false,
      "stateMutability": "nonpayable",
      "type": "function"
    },
    {
      "constant": false,
      "inputs": [
        {
          "internalType": "address",
          "name": "spender",
          "type": "address"
        },
        {
          "internalType": "uint256",
          "name": "value",
          "type": "uint256"
        }
      ],
      "name": "approve",
      "outputs": [
        {
          "internalType": "bool",
          "name": "",
          "type": "bool"
        }
      ],
      "payable": false,
      "stateMutability": "nonpayable",
      "type": "function"
    },
    {
      "constant": false,
      "inputs": [
        {
          "internalType": "address",
          "name": "to",
          "type": "address"
        },
        {
          "internalType": "uint256",
          "name": "value",
          "type": "uint256"
        }
      ],
      "name": "mint",
      "outputs": [
        {
          "internalType": "bool",
          "name": "",
          "type": "bool"
        }
      ],
      "payable": false,
      "stateMutability": "nonpayable",
      "type": "function"
    },
    {
      "constant": false,
      "inputs": [
        {
          "internalType": "address",
          "name": "to",
          "type": "address"
        },
        {
          "internalType": "uint256",
          "name": "value",
          "type": "uint256"
        },
        {
          "internalType": "string",
          "name": "comment",
          "type": "string"
        }
      ],
      "name": "transferWithComment",
      "outputs": [
        {
          "internalType": "bool",
          "name": "",
          "type": "bool"
        }
      ],
      "payable": false,
      "stateMutability": "nonpayable",
      "type": "function"
    },
    {
      "constant": false,
      "inputs": [
        {
          "internalType": "uint256",
          "name": "value",
          "type": "uint256"
        }
      ],
      "name": "burn",
      "outputs": [
        {
          "internalType": "bool",
          "name": "",
          "type": "bool"
        }
      ],
      "payable": false,
      "stateMutability": "nonpayable",
      "type": "function"
    },
    {
      "constant": false,
      "inputs": [
        {
          "internalType": "address",
          "name": "from",
          "type": "address"
        },
        {
          "internalType": "address",
          "name": "to",
          "type": "address"
        },
        {
          "internalType": "uint256",
          "name": "value",
          "type": "uint256"
        }
      ],
      "name": "transferFrom",
      "outputs": [
        {
          "internalType": "bool",
          "name": "",
          "type": "bool"
        }
      ],
      "payable": false,
      "stateMutability": "nonpayable",
      "type": "function"
    },
    {
      "constant": true,
      "inputs": [],
      "name": "name",
      "outputs": [
        {
          "internalType": "string",
          "name": "",
          "type": "string"
        }
      ],
      "payable": false,
      "stateMutability": "view",
      "type": "function"
    },
    {
      "constant": true,
      "inputs": [],
      "name": "symbol",
      "outputs": [
        {
          "internalType": "string",
          "name": "",
          "type": "string"
        }
      ],
      "payable": false,
      "stateMutability": "view",
      "type": "function"
    },
    {
      "constant": true,
      "inputs": [],
      "name": "decimals",
      "outputs": [
        {
          "internalType": "uint8",
          "name": "",
          "type": "uint8"
        }
      ],
      "payable": false,
      "stateMutability": "view",
      "type": "function"
    },
    {
      "constant": true,
      "inputs": [
        {
          "internalType": "address",
          "name": "accountOwner",
          "type": "address"
        },
        {
          "internalType": "address",
          "name": "spender",
          "type": "address"
        }
      ],
      "name": "allowance",
      "outputs": [
        {
          "internalType": "uint256",
          "name": "",
          "type": "uint256"
        }
      ],
      "payable": false,
      "stateMutability": "view",
      "type": "function"
    },
    {
      "constant": true,
      "inputs": [
        {
          "internalType": "address",
          "name": "accountOwner",
          "type": "address"
        }
      ],
      "name": "balanceOf",
      "outputs": [
        {
          "internalType": "uint256",
          "name": "",
          "type": "uint256"
        }
      ],
      "payable": false,
      "stateMutability": "view",
      "type": "function"
    },
    {
      "constant": true,
      "inputs": [],
      "name": "totalSupply",
      "outputs": [
        {
          "internalType": "uint256",
          "name": "",
          "type": "uint256"
        }
      ],
      "payable": false,
      "stateMutability": "view",
      "type": "function"
    },
    {
      "constant": true,
      "inputs": [],
      "name": "getInflationParameters",
      "outputs": [
        {
          "internalType": "uint256",
          "name": "",
          "type": "uint256"
        },
        {
          "internalType": "uint256",
          "name": "",
          "type": "uint256"
        },
        {
          "internalType": "uint256",
          "name": "",
          "type": "uint256"
        },
        {
          "internalType": "uint256",
          "name": "",
          "type": "uint256"
        }
      ],
      "payable": false,
      "stateMutability": "view",
      "type": "function"
    },
    {
      "constant": true,
      "inputs": [
        {
          "internalType": "uint256",
          "name": "value",
          "type": "uint256"
        }
      ],
      "name": "valueToUnits",
      "outputs": [
        {
          "internalType": "uint256",
          "name": "",
          "type": "uint256"
        }
      ],
      "payable": false,
      "stateMutability": "view",
      "type": "function"
    },
    {
      "constant": true,
      "inputs": [],
      "name": "getExchangeRegistryId",
      "outputs": [
        {
          "internalType": "bytes32",
          "name": "",
          "type": "bytes32"
        }
      ],
      "payable": false,
      "stateMutability": "view",
      "type": "function"
    },
    {
      "constant": true,
      "inputs": [
        {
          "internalType": "uint256",
          "name": "units",
          "type": "uint256"
        }
      ],
      "name": "unitsToValue",
      "outputs": [
        {
          "internalType": "uint256",
          "name": "",
          "type": "uint256"
        }
      ],
      "payable": false,
      "stateMutability": "view",
      "type": "function"
    },
    {
      "constant": false,
      "inputs": [
        {
          "internalType": "address",
          "name": "to",
          "type": "address"
        },
        {
          "internalType": "uint256",
          "name": "value",
          "type": "uint256"
        }
      ],
      "name": "transfer",
      "outputs": [
        {
          "internalType": "bool",
          "name": "",
          "type": "bool"
        }
      ],
      "payable": false,
      "stateMutability": "nonpayable",
      "type": "function"
    },
    {
      "constant": false,
      "inputs": [
        {
          "internalType": "address",
          "name": "from",
          "type": "address"
        },
        {
          "internalType": "uint256",
          "name": "value",
          "type": "uint256"
        }
      ],
      "name": "debitGasFees",
      "outputs": [],
      "payable": false,
      "stateMutability": "nonpayable",
      "type": "function"
    },
    {
      "constant": false,
      "inputs": [
        {
          "internalType": "address",
          "name": "from",
          "type": "address"
        },
        {
          "internalType": "address",
          "name": "feeRecipient",
          "type": "address"
        },
        {
          "internalType": "address",
          "name": "gatewayFeeRecipient",
          "type": "address"
        },
        {
          "internalType": "address",
          "name": "communityFund",
          "type": "address"
        },
        {
          "internalType": "uint256",
          "name": "refund",
          "type": "uint256"
        },
        {
          "internalType": "uint256",
          "name": "tipTxFee",
          "type": "uint256"
        },
        {
          "internalType": "uint256",
          "name": "gatewayFee",
          "type": "uint256"
        },
        {
          "internalType": "uint256",
          "name": "baseTxFee",
          "type": "uint256"
        }
      ],
      "name": "creditGasFees",
      "outputs": [],
      "payable": false,
      "stateMutability": "nonpayable",
      "type": "function"
    }
  ],
  "bytecode": "0x60806040523480156200001157600080fd5b50604051620070be380380620070be833981810160405260208110156200003757600080fd5b81019080805190602001909291905050508060006200005b6200012360201b60201c565b9050806000806101000a81548173ffffffffffffffffffffffffffffffffffffffff021916908373ffffffffffffffffffffffffffffffffffffffff1602179055508073ffffffffffffffffffffffffffffffffffffffff16600073ffffffffffffffffffffffffffffffffffffffff167f8be0079c531659141344cd1fd0a4f28419497f9722a3daafe3b4186f6b6457e060405160405180910390a350806200011b576001600060146101000a81548160ff0219169083151502179055505b50506200012b565b600033905090565b616f83806200013b6000396000f3fe608060405234801561001057600080fd5b506004361061027f5760003560e01c806370a082311161015c578063a457c2d7116100ce578063df4da46111610087578063df4da461146112b1578063e1d6aceb146112cf578063e50e652d1461138a578063ec683072146113cc578063f2fde38b14611447578063fae8db0a1461148b5761027f565b8063a457c2d7146110b4578063a67f87471461111a578063a9059cbb1461114d578063a91ee0dc146111b3578063af31f587146111f7578063dd62ed3e146112395761027f565b80638a883626116101205780638a88362614610e965780638da5cb5b14610f655780638f32d59b14610faf57806395d89b4114610fd15780639a7b3be7146110545780639b2b592f146110725761027f565b806370a0823114610dae578063715018a614610e065780637385e5da14610e105780637b10399914610e2e57806387ee8a0f14610e785761027f565b806339509351116101f55780634b2c2f44116101b95780634b2c2f4414610a4a57806354255be014610b1957806358cf967214610b4c5780635d180adb14610b9a57806367960e9114610c125780636a30b25314610ce15761027f565b806339509351146108d85780633b1eb4bf1461093e57806340a12f641461098057806340c10f191461099e57806342966c6814610a045761027f565b806318160ddd1161024757806318160ddd1461043f5780631e4f0e031461045d578063222836ad1461066c57806323b872dd146106a457806323f0ab651461072a578063313ce567146108b45761027f565b806306fdde0314610284578063095ea7b314610307578063123633ea1461036d57806312c6c099146103db578063158ef93e1461041d575b600080fd5b61028c6114cd565b6040518080602001828103825283818151815260200191508051906020019080838360005b838110156102cc5780820151818401526020810190506102b1565b50505050905090810190601f1680156102f95780820380516001836020036101000a031916815260200191505b509250505060405180910390f35b6103536004803603604081101561031d57600080fd5b81019080803573ffffffffffffffffffffffffffffffffffffffff1690602001909291908035906020019092919050505061156f565b604051808215151515815260200191505060405180910390f35b6103996004803603602081101561038357600080fd5b8101908080359060200190929190505050611792565b604051808273ffffffffffffffffffffffffffffffffffffffff1673ffffffffffffffffffffffffffffffffffffffff16815260200191505060405180910390f35b610407600480360360208110156103f157600080fd5b81019080803590602001909291905050506118e3565b6040518082815260200191505060405180910390f35b61042561190c565b604051808215151515815260200191505060405180910390f35b61044761191f565b6040518082815260200191505060405180910390f35b61066a600480360361012081101561047457600080fd5b810190808035906020019064010000000081111561049157600080fd5b8201836020820111156104a357600080fd5b803590602001918460018302840111640100000000831117156104c557600080fd5b9091929391929390803590602001906401000000008111156104e657600080fd5b8201836020820111156104f857600080fd5b8035906020019184600183028401116401000000008311171561051a57600080fd5b9091929391929390803560ff169060200190929190803573ffffffffffffffffffffffffffffffffffffffff16906020019092919080359060200190929190803590602001909291908035906020019064010000000081111561057c57600080fd5b82018360208201111561058e57600080fd5b803590602001918460208302840111640100000000831117156105b057600080fd5b9091929391929390803590602001906401000000008111156105d157600080fd5b8201836020820111156105e357600080fd5b8035906020019184602083028401116401000000008311171561060557600080fd5b90919293919293908035906020019064010000000081111561062657600080fd5b82018360208201111561063857600080fd5b8035906020019184600183028401116401000000008311171561065a57600080fd5b9091929391929390505050611931565b005b6106a26004803603604081101561068257600080fd5b810190808035906020019092919080359060200190929190505050611c57565b005b610710600480360360608110156106ba57600080fd5b81019080803573ffffffffffffffffffffffffffffffffffffffff169060200190929190803573ffffffffffffffffffffffffffffffffffffffff16906020019092919080359060200190929190505050611ebc565b604051808215151515815260200191505060405180910390f35b61089a6004803603606081101561074057600080fd5b81019080803573ffffffffffffffffffffffffffffffffffffffff1690602001909291908035906020019064010000000081111561077d57600080fd5b82018360208201111561078f57600080fd5b803590602001918460018302840111640100000000831117156107b157600080fd5b91908080601f016020809104026020016040519081016040528093929190818152602001838380828437600081840152601f19601f8201169050808301925050505050505091929192908035906020019064010000000081111561081457600080fd5b82018360208201111561082657600080fd5b8035906020019184600183028401116401000000008311171561084857600080fd5b91908080601f016020809104026020016040519081016040528093929190818152602001838380828437600081840152601f19601f820116905080830192505050505050509192919290505050612542565b604051808215151515815260200191505060405180910390f35b6108bc6126fb565b604051808260ff1660ff16815260200191505060405180910390f35b610924600480360360408110156108ee57600080fd5b81019080803573ffffffffffffffffffffffffffffffffffffffff16906020019092919080359060200190929190505050612712565b604051808215151515815260200191505060405180910390f35b61096a6004803603602081101561095457600080fd5b81019080803590602001909291905050506129cf565b6040518082815260200191505060405180910390f35b6109886129e9565b6040518082815260200191505060405180910390f35b6109ea600480360360408110156109b457600080fd5b81019080803573ffffffffffffffffffffffffffffffffffffffff16906020019092919080359060200190929190505050612a4f565b604051808215151515815260200191505060405180910390f35b610a3060048036036020811015610a1a57600080fd5b8101908080359060200190929190505050612eb5565b604051808215151515815260200191505060405180910390f35b610b0360048036036020811015610a6057600080fd5b8101908080359060200190640100000000811115610a7d57600080fd5b820183602082011115610a8f57600080fd5b80359060200191846001830284011164010000000083111715610ab157600080fd5b91908080601f016020809104026020016040519081016040528093929190818152602001838380828437600081840152601f19601f8201169050808301925050505050505091929192905050506133dc565b6040518082815260200191505060405180910390f35b610b21613570565b6040518085815260200184815260200183815260200182815260200194505050505060405180910390f35b610b9860048036036040811015610b6257600080fd5b81019080803573ffffffffffffffffffffffffffffffffffffffff16906020019092919080359060200190929190505050613598565b005b610bd060048036036040811015610bb057600080fd5b8101908080359060200190929190803590602001909291905050506138d6565b604051808273ffffffffffffffffffffffffffffffffffffffff1673ffffffffffffffffffffffffffffffffffffffff16815260200191505060405180910390f35b610ccb60048036036020811015610c2857600080fd5b8101908080359060200190640100000000811115610c4557600080fd5b820183602082011115610c5757600080fd5b80359060200191846001830284011164010000000083111715610c7957600080fd5b91908080601f016020809104026020016040519081016040528093929190818152602001838380828437600081840152601f19601f820116905080830192505050505050509192919290505050613a28565b6040518082815260200191505060405180910390f35b610dac6004803603610100811015610cf857600080fd5b81019080803573ffffffffffffffffffffffffffffffffffffffff169060200190929190803573ffffffffffffffffffffffffffffffffffffffff169060200190929190803573ffffffffffffffffffffffffffffffffffffffff169060200190929190803573ffffffffffffffffffffffffffffffffffffffff16906020019092919080359060200190929190803590602001909291908035906020019092919080359060200190929190505050613bbc565b005b610df060048036036020811015610dc457600080fd5b81019080803573ffffffffffffffffffffffffffffffffffffffff169060200190929190505050613eb2565b6040518082815260200191505060405180910390f35b610e0e613f03565b005b610e1861403c565b6040518082815260200191505060405180910390f35b610e3661404c565b604051808273ffffffffffffffffffffffffffffffffffffffff1673ffffffffffffffffffffffffffffffffffffffff16815260200191505060405180910390f35b610e80614072565b6040518082815260200191505060405180910390f35b610f4f60048036036020811015610eac57600080fd5b8101908080359060200190640100000000811115610ec957600080fd5b820183602082011115610edb57600080fd5b80359060200191846001830284011164010000000083111715610efd57600080fd5b91908080601f016020809104026020016040519081016040528093929190818152602001838380828437600081840152601f19601f8201169050808301925050505050505091929192905050506141b9565b6040518082815260200191505060405180910390f35b610f6d61434d565b604051808273ffffffffffffffffffffffffffffffffffffffff1673ffffffffffffffffffffffffffffffffffffffff16815260200191505060405180910390f35b610fb7614376565b604051808215151515815260200191505060405180910390f35b610fd96143d4565b6040518080602001828103825283818151815260200191508051906020019080838360005b83811015611019578082015181840152602081019050610ffe565b50505050905090810190601f1680156110465780820380516001836020036101000a031916815260200191505b509250505060405180910390f35b61105c614476565b6040518082815260200191505060405180910390f35b61109e6004803603602081101561108857600080fd5b8101908080359060200190929190505050614486565b6040518082815260200191505060405180910390f35b611100600480360360408110156110ca57600080fd5b81019080803573ffffffffffffffffffffffffffffffffffffffff169060200190929190803590602001909291905050506145cf565b604051808215151515815260200191505060405180910390f35b611122614806565b6040518085815260200184815260200183815260200182815260200194505050505060405180910390f35b6111996004803603604081101561116357600080fd5b81019080803573ffffffffffffffffffffffffffffffffffffffff1690602001909291908035906020019092919050505061486a565b604051808215151515815260200191505060405180910390f35b6111f5600480360360208110156111c957600080fd5b81019080803573ffffffffffffffffffffffffffffffffffffffff169060200190929190505050614a3e565b005b6112236004803603602081101561120d57600080fd5b8101908080359060200190929190505050614be2565b6040518082815260200191505060405180910390f35b61129b6004803603604081101561124f57600080fd5b81019080803573ffffffffffffffffffffffffffffffffffffffff169060200190929190803573ffffffffffffffffffffffffffffffffffffffff169060200190929190505050614c24565b6040518082815260200191505060405180910390f35b6112b9614cab565b6040518082815260200191505060405180910390f35b611370600480360360608110156112e557600080fd5b81019080803573ffffffffffffffffffffffffffffffffffffffff169060200190929190803590602001909291908035906020019064010000000081111561132c57600080fd5b82018360208201111561133e57600080fd5b8035906020019184600183028401116401000000008311171561136057600080fd5b9091929391929390505050614de7565b604051808215151515815260200191505060405180910390f35b6113b6600480360360208110156113a057600080fd5b8101908080359060200190929190505050615026565b6040518082815260200191505060405180910390f35b61142a600480360360c08110156113e257600080fd5b81019080803590602001909291908035906020019092919080359060200190929190803590602001909291908035906020019092919080359060200190929190505050615071565b604051808381526020018281526020019250505060405180910390f35b6114896004803603602081101561145d57600080fd5b81019080803573ffffffffffffffffffffffffffffffffffffffff169060200190929190505050615285565b005b6114b7600480360360208110156114a157600080fd5b810190808035906020019092919050505061530b565b6040518082815260200191505060405180910390f35b606060028054600181600116156101000203166002900480601f0160208091040260200160405190810160405280929190818152602001828054600181600116156101000203166002900480156115655780601f1061153a57610100808354040283529160200191611565565b820191906000526020600020905b81548152906001019060200180831161154857829003601f168201915b5050505050905090565b6000611579616af4565b6000611583615454565b8092508193505050600860030154811461161a5781600860010160008201518160000155905050806008600301819055507f08f3ed03ec9e579d1f6ab2f9e0d3dc661704696deabe37a6b6df7014f1b30a976115f7600860010160405180602001604052908160008201548152505061561f565b600860030154604051808381526020018281526020019250505060405180910390a15b600073ffffffffffffffffffffffffffffffffffffffff168573ffffffffffffffffffffffffffffffffffffffff1614156116a0576040517f08c379a000000000000000000000000000000000000000000000000000000000815260040180806020018281038252602a815260200180616dad602a913960400191505060405180910390fd5b83600760003373ffffffffffffffffffffffffffffffffffffffff1673ffffffffffffffffffffffffffffffffffffffff16815260200190815260200160002060008773ffffffffffffffffffffffffffffffffffffffff1673ffffffffffffffffffffffffffffffffffffffff168152602001908152602001600020819055508473ffffffffffffffffffffffffffffffffffffffff163373ffffffffffffffffffffffffffffffffffffffff167f8c5be1e5ebec7d5bd14f71427d1e84f3dd0314c0f7b2291e5b200ac8c7c3b925866040518082815260200191505060405180910390a360019250505092915050565b60006060600060fa73ffffffffffffffffffffffffffffffffffffffff16844360405160200180838152602001828152602001925050506040516020818303038152906040526040518082805190602001908083835b6020831061180b57805182526020820191506020810190506020830392506117e8565b6001836020036101000a038019825116818451168082178552505050505050905001915050600060405180830381855afa9150503d806000811461186b576040519150601f19603f3d011682016040523d82523d6000602084013e611870565b606091505b508093508192505050806118cf576040517f08c379a000000000000000000000000000000000000000000000000000000000815260040180806020018281038252603d815260200180616d05603d913960400191505060405180910390fd5b6118da82600061562d565b92505050919050565b60006118ed616af4565b6118f5615454565b50809150506119048184615644565b915050919050565b600060149054906101000a900460ff1681565b600061192c600654614be2565b905090565b600060149054906101000a900460ff16156119b4576040517f08c379a000000000000000000000000000000000000000000000000000000000815260040180806020018281038252601c8152602001807f636f6e747261637420616c726561647920696e697469616c697a65640000000081525060200191505060405180910390fd5b6001600060146101000a81548160ff0219169083151502179055506000881415611a29576040517f08c379a0000000000000000000000000000000000000000000000000000000008152600401808060200182810382526026815260200180616c286026913960400191505060405180910390fd5b60008711611a82576040517f08c379a0000000000000000000000000000000000000000000000000000000008152600401808060200182810382526027815260200180616bdb6027913960400191505060405180910390fd5b611a8b33615671565b60006006819055508d8d60029190611aa4929190616b07565b508b8b60039190611ab6929190616b07565b5089600460006101000a81548160ff021916908360ff160217905550611adb886157b5565b600860000160008201518160000155905050611af56157d3565b6008600101600082015181600001559050508660086002018190555042600860030181905550838390508686905014611b96576040517f08c379a00000000000000000000000000000000000000000000000000000000081526004018080602001828103825260158152602001807f4172726179206c656e677468206d69736d61746368000000000000000000000081525060200191505060405180910390fd5b60008090505b86869050811015611c0757611beb878783818110611bb657fe5b9050602002013573ffffffffffffffffffffffffffffffffffffffff16868684818110611bdf57fe5b905060200201356157f9565b50611c006001826159f890919063ffffffff16565b9050611b9c565b50611c1189614a3e565b818160405160200180838380828437808301925050509250505060405160208183030381529060405280519060200120600c819055505050505050505050505050505050565b611c5f614376565b611cd1576040517f08c379a00000000000000000000000000000000000000000000000000000000081526004018080602001828103825260208152602001807f4f776e61626c653a2063616c6c6572206973206e6f7420746865206f776e657281525060200191505060405180910390fd5b611cd9616af4565b6000611ce3615454565b80925081935050506008600301548114611d7a5781600860010160008201518160000155905050806008600301819055507f08f3ed03ec9e579d1f6ab2f9e0d3dc661704696deabe37a6b6df7014f1b30a97611d57600860010160405180602001604052908160008201548152505061561f565b600860030154604051808381526020018281526020019250505060405180910390a15b6000841415611dd4576040517f08c379a0000000000000000000000000000000000000000000000000000000008152600401808060200182810382526027815260200180616c4e6027913960400191505060405180910390fd5b60008311611e4a576040517f08c379a00000000000000000000000000000000000000000000000000000000081526004018080602001828103825260188152602001807f757064617465506572696f64206d757374206265203e2030000000000000000081525060200191505060405180910390fd5b611e53846157b5565b600860000160008201518160000155905050826008600201819055507fa0035d6667ffb7d387c86c7228141c4a877e8ed831b267ac928a2f5b651c155d84844260405180848152602001838152602001828152602001935050505060405180910390a150505050565b6000611ec6616af4565b6000611ed0615454565b80925081935050506008600301548114611f675781600860010160008201518160000155905050806008600301819055507f08f3ed03ec9e579d1f6ab2f9e0d3dc661704696deabe37a6b6df7014f1b30a97611f44600860010160405180602001604052908160008201548152505061561f565b600860030154604051808381526020018281526020019250505060405180910390a15b611f6f615a80565b73ffffffffffffffffffffffffffffffffffffffff1663e5839836306040518263ffffffff1660e01b8152600401808273ffffffffffffffffffffffffffffffffffffffff1673ffffffffffffffffffffffffffffffffffffffff16815260200191505060206040518083038186803b158015611feb57600080fd5b505afa158015611fff573d6000803e3d6000fd5b505050506040513d602081101561201557600080fd5b81019080805190602001909291905050501561207c576040517f08c379a0000000000000000000000000000000000000000000000000000000008152600401808060200182810382526022815260200180616cad6022913960400191505060405180910390fd5b60006120a1600860010160405180602001604052908160008201548152505086615644565b9050600073ffffffffffffffffffffffffffffffffffffffff168673ffffffffffffffffffffffffffffffffffffffff161415612129576040517f08c379a000000000000000000000000000000000000000000000000000000000815260040180806020018281038252602a815260200180616f02602a913960400191505060405180910390fd5b600560008873ffffffffffffffffffffffffffffffffffffffff1673ffffffffffffffffffffffffffffffffffffffff168152602001908152602001600020548111156121c1576040517f08c379a0000000000000000000000000000000000000000000000000000000008152600401808060200182810382526029815260200180616df86029913960400191505060405180910390fd5b600760008873ffffffffffffffffffffffffffffffffffffffff1673ffffffffffffffffffffffffffffffffffffffff16815260200190815260200160002060003373ffffffffffffffffffffffffffffffffffffffff1673ffffffffffffffffffffffffffffffffffffffff16815260200190815260200160002054851115612296576040517f08c379a0000000000000000000000000000000000000000000000000000000008152600401808060200182810382526038815260200180616e216038913960400191505060405180910390fd5b6122e881600560008973ffffffffffffffffffffffffffffffffffffffff1673ffffffffffffffffffffffffffffffffffffffff168152602001908152602001600020546159f890919063ffffffff16565b600560008873ffffffffffffffffffffffffffffffffffffffff1673ffffffffffffffffffffffffffffffffffffffff1681526020019081526020016000208190555061237d81600560008a73ffffffffffffffffffffffffffffffffffffffff1673ffffffffffffffffffffffffffffffffffffffff16815260200190815260200160002054615b7b90919063ffffffff16565b600560008973ffffffffffffffffffffffffffffffffffffffff1673ffffffffffffffffffffffffffffffffffffffff1681526020019081526020016000208190555061244f85600760008a73ffffffffffffffffffffffffffffffffffffffff1673ffffffffffffffffffffffffffffffffffffffff16815260200190815260200160002060003373ffffffffffffffffffffffffffffffffffffffff1673ffffffffffffffffffffffffffffffffffffffff16815260200190815260200160002054615b7b90919063ffffffff16565b600760008973ffffffffffffffffffffffffffffffffffffffff1673ffffffffffffffffffffffffffffffffffffffff16815260200190815260200160002060003373ffffffffffffffffffffffffffffffffffffffff1673ffffffffffffffffffffffffffffffffffffffff168152602001908152602001600020819055508573ffffffffffffffffffffffffffffffffffffffff168773ffffffffffffffffffffffffffffffffffffffff167fddf252ad1be2c89b69c2b068fc378daa952ba7f163c4a11628f55a4df523b3ef876040518082815260200191505060405180910390a3600193505050509392505050565b60008060fb73ffffffffffffffffffffffffffffffffffffffff16858585604051602001808473ffffffffffffffffffffffffffffffffffffffff1673ffffffffffffffffffffffffffffffffffffffff1660601b815260140183805190602001908083835b602083106125cb57805182526020820191506020810190506020830392506125a8565b6001836020036101000a03801982511681845116808217855250505050505090500182805190602001908083835b6020831061261c57805182526020820191506020810190506020830392506125f9565b6001836020036101000a03801982511681845116808217855250505050505090500193505050506040516020818303038152906040526040518082805190602001908083835b602083106126855780518252602082019150602081019050602083039250612662565b6001836020036101000a038019825116818451168082178552505050505050905001915050600060405180830381855afa9150503d80600081146126e5576040519150601f19603f3d011682016040523d82523d6000602084013e6126ea565b606091505b505080915050809150509392505050565b6000600460009054906101000a900460ff16905090565b600061271c616af4565b6000612726615454565b809250819350505060086003015481146127bd5781600860010160008201518160000155905050806008600301819055507f08f3ed03ec9e579d1f6ab2f9e0d3dc661704696deabe37a6b6df7014f1b30a9761279a600860010160405180602001604052908160008201548152505061561f565b600860030154604051808381526020018281526020019250505060405180910390a15b600073ffffffffffffffffffffffffffffffffffffffff168573ffffffffffffffffffffffffffffffffffffffff161415612843576040517f08c379a000000000000000000000000000000000000000000000000000000000815260040180806020018281038252602a815260200180616dad602a913960400191505060405180910390fd5b6000600760003373ffffffffffffffffffffffffffffffffffffffff1673ffffffffffffffffffffffffffffffffffffffff16815260200190815260200160002060008773ffffffffffffffffffffffffffffffffffffffff1673ffffffffffffffffffffffffffffffffffffffff16815260200190815260200160002054905060006128d986836159f890919063ffffffff16565b905080600760003373ffffffffffffffffffffffffffffffffffffffff1673ffffffffffffffffffffffffffffffffffffffff16815260200190815260200160002060008973ffffffffffffffffffffffffffffffffffffffff1673ffffffffffffffffffffffffffffffffffffffff168152602001908152602001600020819055508673ffffffffffffffffffffffffffffffffffffffff163373ffffffffffffffffffffffffffffffffffffffff167f8c5be1e5ebec7d5bd14f71427d1e84f3dd0314c0f7b2291e5b200ac8c7c3b925836040518082815260200191505060405180910390a3600194505050505092915050565b60006129e2826129dd614cab565b615bc5565b9050919050565b60008060001b600c541415612a465760405160200180807f45786368616e67650000000000000000000000000000000000000000000000008152506008019050604051602081830303815290604052805190602001209050612a4c565b600c5490505b90565b6000612a59616af4565b6000612a63615454565b80925081935050506008600301548114612afa5781600860010160008201518160000155905050806008600301819055507f08f3ed03ec9e579d1f6ab2f9e0d3dc661704696deabe37a6b6df7014f1b30a97612ad7600860010160405180602001604052908160008201548152505061561f565b600860030154604051808381526020018281526020019250505060405180910390a15b600160009054906101000a900473ffffffffffffffffffffffffffffffffffffffff1673ffffffffffffffffffffffffffffffffffffffff1663dcf0aaed612b406129e9565b6040518263ffffffff1660e01b81526004018082815260200191505060206040518083038186803b158015612b7457600080fd5b505afa158015612b88573d6000803e3d6000fd5b505050506040513d6020811015612b9e57600080fd5b810190808051906020019092919050505073ffffffffffffffffffffffffffffffffffffffff163373ffffffffffffffffffffffffffffffffffffffff161480612d065750600160009054906101000a900473ffffffffffffffffffffffffffffffffffffffff1673ffffffffffffffffffffffffffffffffffffffff1663dd92723360405160200180807f56616c696461746f727300000000000000000000000000000000000000000000815250600a019050604051602081830303815290604052805190602001206040518263ffffffff1660e01b81526004018082815260200191505060206040518083038186803b158015612c9c57600080fd5b505afa158015612cb0573d6000803e3d6000fd5b505050506040513d6020811015612cc657600080fd5b810190808051906020019092919050505073ffffffffffffffffffffffffffffffffffffffff163373ffffffffffffffffffffffffffffffffffffffff16145b80612e2f5750600160009054906101000a900473ffffffffffffffffffffffffffffffffffffffff1673ffffffffffffffffffffffffffffffffffffffff1663dd92723360405160200180807f4772616e64614d656e746f000000000000000000000000000000000000000000815250600b019050604051602081830303815290604052805190602001206040518263ffffffff1660e01b81526004018082815260200191505060206040518083038186803b158015612dc557600080fd5b505afa158015612dd9573d6000803e3d6000fd5b505050506040513d6020811015612def57600080fd5b810190808051906020019092919050505073ffffffffffffffffffffffffffffffffffffffff163373ffffffffffffffffffffffffffffffffffffffff16145b612ea1576040517f08c379a000000000000000000000000000000000000000000000000000000000815260040180806020018281038252601d8152602001807f53656e646572206e6f7420617574686f72697a656420746f206d696e7400000081525060200191505060405180910390fd5b612eab85856157f9565b9250505092915050565b6000612ebf616af4565b6000612ec9615454565b80925081935050506008600301548114612f605781600860010160008201518160000155905050806008600301819055507f08f3ed03ec9e579d1f6ab2f9e0d3dc661704696deabe37a6b6df7014f1b30a97612f3d600860010160405180602001604052908160008201548152505061561f565b600860030154604051808381526020018281526020019250505060405180910390a15b600160009054906101000a900473ffffffffffffffffffffffffffffffffffffffff1673ffffffffffffffffffffffffffffffffffffffff1663dcf0aaed612fa66129e9565b6040518263ffffffff1660e01b81526004018082815260200191505060206040518083038186803b158015612fda57600080fd5b505afa158015612fee573d6000803e3d6000fd5b505050506040513d602081101561300457600080fd5b810190808051906020019092919050505073ffffffffffffffffffffffffffffffffffffffff163373ffffffffffffffffffffffffffffffffffffffff16148061316c5750600160009054906101000a900473ffffffffffffffffffffffffffffffffffffffff1673ffffffffffffffffffffffffffffffffffffffff1663dd92723360405160200180807f4772616e64614d656e746f000000000000000000000000000000000000000000815250600b019050604051602081830303815290604052805190602001206040518263ffffffff1660e01b81526004018082815260200191505060206040518083038186803b15801561310257600080fd5b505afa158015613116573d6000803e3d6000fd5b505050506040513d602081101561312c57600080fd5b810190808051906020019092919050505073ffffffffffffffffffffffffffffffffffffffff163373ffffffffffffffffffffffffffffffffffffffff16145b6131de576040517f08c379a000000000000000000000000000000000000000000000000000000000815260040180806020018281038252601d8152602001807f53656e646572206e6f7420617574686f72697a656420746f206275726e00000081525060200191505060405180910390fd5b6000613203600860010160405180602001604052908160008201548152505086615644565b9050600560003373ffffffffffffffffffffffffffffffffffffffff1673ffffffffffffffffffffffffffffffffffffffff168152602001908152602001600020548111156132ba576040517f08c379a00000000000000000000000000000000000000000000000000000000081526004018080602001828103825260208152602001807f76616c75652065786365656465642062616c616e6365206f662073656e64657281525060200191505060405180910390fd5b6132cf81600654615b7b90919063ffffffff16565b60068190555061332781600560003373ffffffffffffffffffffffffffffffffffffffff1673ffffffffffffffffffffffffffffffffffffffff16815260200190815260200160002054615b7b90919063ffffffff16565b600560003373ffffffffffffffffffffffffffffffffffffffff1673ffffffffffffffffffffffffffffffffffffffff16815260200190815260200160002081905550600073ffffffffffffffffffffffffffffffffffffffff163373ffffffffffffffffffffffffffffffffffffffff167fddf252ad1be2c89b69c2b068fc378daa952ba7f163c4a11628f55a4df523b3ef836040518082815260200191505060405180910390a360019350505050919050565b60006060600060f473ffffffffffffffffffffffffffffffffffffffff16846040516020018082805190602001908083835b60208310613431578051825260208201915060208101905060208303925061340e565b6001836020036101000a0380198251168184511680821785525050505050509050019150506040516020818303038152906040526040518082805190602001908083835b602083106134985780518252602082019150602081019050602083039250613475565b6001836020036101000a038019825116818451168082178552505050505050905001915050600060405180830381855afa9150503d80600081146134f8576040519150601f19603f3d011682016040523d82523d6000602084013e6134fd565b606091505b5080935081925050508061355c576040517f08c379a0000000000000000000000000000000000000000000000000000000008152600401808060200182810382526038815260200180616c756038913960400191505060405180910390fd5b613567826000615c0d565b92505050919050565b6000806000806001600260006001839350829250819150809050935093509350935090919293565b600073ffffffffffffffffffffffffffffffffffffffff163373ffffffffffffffffffffffffffffffffffffffff161461363a576040517f08c379a00000000000000000000000000000000000000000000000000000000081526004018080602001828103825260108152602001807f4f6e6c7920564d2063616e2063616c6c0000000000000000000000000000000081525060200191505060405180910390fd5b613642615a80565b73ffffffffffffffffffffffffffffffffffffffff1663e5839836306040518263ffffffff1660e01b8152600401808273ffffffffffffffffffffffffffffffffffffffff1673ffffffffffffffffffffffffffffffffffffffff16815260200191505060206040518083038186803b1580156136be57600080fd5b505afa1580156136d2573d6000803e3d6000fd5b505050506040513d60208110156136e857600080fd5b81019080805190602001909291905050501561374f576040517f08c379a0000000000000000000000000000000000000000000000000000000008152600401808060200182810382526022815260200180616cad6022913960400191505060405180910390fd5b613757616af4565b6000613761615454565b809250819350505060086003015481146137f85781600860010160008201518160000155905050806008600301819055507f08f3ed03ec9e579d1f6ab2f9e0d3dc661704696deabe37a6b6df7014f1b30a976137d5600860010160405180602001604052908160008201548152505061561f565b600860030154604051808381526020018281526020019250505060405180910390a15b600061381d600860010160405180602001604052908160008201548152505085615644565b905061387181600560008873ffffffffffffffffffffffffffffffffffffffff1673ffffffffffffffffffffffffffffffffffffffff16815260200190815260200160002054615b7b90919063ffffffff16565b600560008773ffffffffffffffffffffffffffffffffffffffff1673ffffffffffffffffffffffffffffffffffffffff168152602001908152602001600020819055506138c981600654615b7b90919063ffffffff16565b6006819055505050505050565b60006060600060fa73ffffffffffffffffffffffffffffffffffffffff16858560405160200180838152602001828152602001925050506040516020818303038152906040526040518082805190602001908083835b6020831061394f578051825260208201915060208101905060208303925061392c565b6001836020036101000a038019825116818451168082178552505050505050905001915050600060405180830381855afa9150503d80600081146139af576040519150601f19603f3d011682016040523d82523d6000602084013e6139b4565b606091505b50809350819250505080613a13576040517f08c379a0000000000000000000000000000000000000000000000000000000008152600401808060200182810382526036815260200180616d776036913960400191505060405180910390fd5b613a1e82600061562d565b9250505092915050565b60006060600060f673ffffffffffffffffffffffffffffffffffffffff16846040516020018082805190602001908083835b60208310613a7d5780518252602082019150602081019050602083039250613a5a565b6001836020036101000a0380198251168184511680821785525050505050509050019150506040516020818303038152906040526040518082805190602001908083835b60208310613ae45780518252602082019150602081019050602083039250613ac1565b6001836020036101000a038019825116818451168082178552505050505050905001915050600060405180830381855afa9150503d8060008114613b44576040519150601f19603f3d011682016040523d82523d6000602084013e613b49565b606091505b50809350819250505080613ba8576040517f08c379a0000000000000000000000000000000000000000000000000000000008152600401808060200182810382526023815260200180616f2c6023913960400191505060405180910390fd5b613bb3826000615c0d565b92505050919050565b600073ffffffffffffffffffffffffffffffffffffffff163373ffffffffffffffffffffffffffffffffffffffff1614613c5e576040517f08c379a00000000000000000000000000000000000000000000000000000000081526004018080602001828103825260108152602001807f4f6e6c7920564d2063616e2063616c6c0000000000000000000000000000000081525060200191505060405180910390fd5b613c66615a80565b73ffffffffffffffffffffffffffffffffffffffff1663e5839836306040518263ffffffff1660e01b8152600401808273ffffffffffffffffffffffffffffffffffffffff1673ffffffffffffffffffffffffffffffffffffffff16815260200191505060206040518083038186803b158015613ce257600080fd5b505afa158015613cf6573d6000803e3d6000fd5b505050506040513d6020811015613d0c57600080fd5b810190808051906020019092919050505015613d73576040517f08c379a0000000000000000000000000000000000000000000000000000000008152600401808060200182810382526022815260200180616cad6022913960400191505060405180910390fd5b6000613d98600860010160405180602001604052908160008201548152505086615644565b9050613dec81600560008c73ffffffffffffffffffffffffffffffffffffffff1673ffffffffffffffffffffffffffffffffffffffff168152602001908152602001600020546159f890919063ffffffff16565b600560008b73ffffffffffffffffffffffffffffffffffffffff1673ffffffffffffffffffffffffffffffffffffffff16815260200190815260200160002081905550613e4c613e3d8a8885615cae565b826159f890919063ffffffff16565b9050613e6b613e5c8a8a87615cae565b826159f890919063ffffffff16565b9050613e8a613e7b8a8986615cae565b826159f890919063ffffffff16565b9050613ea1816006546159f890919063ffffffff16565b600681905550505050505050505050565b6000613efc600560008473ffffffffffffffffffffffffffffffffffffffff1673ffffffffffffffffffffffffffffffffffffffff16815260200190815260200160002054614be2565b9050919050565b613f0b614376565b613f7d576040517f08c379a00000000000000000000000000000000000000000000000000000000081526004018080602001828103825260208152602001807f4f776e61626c653a2063616c6c6572206973206e6f7420746865206f776e657281525060200191505060405180910390fd5b600073ffffffffffffffffffffffffffffffffffffffff166000809054906101000a900473ffffffffffffffffffffffffffffffffffffffff1673ffffffffffffffffffffffffffffffffffffffff167f8be0079c531659141344cd1fd0a4f28419497f9722a3daafe3b4186f6b6457e060405160405180910390a360008060006101000a81548173ffffffffffffffffffffffffffffffffffffffff021916908373ffffffffffffffffffffffffffffffffffffffff160217905550565b600061404743615026565b905090565b600160009054906101000a900473ffffffffffffffffffffffffffffffffffffffff1681565b60006060600060f973ffffffffffffffffffffffffffffffffffffffff1643604051602001808281526020019150506040516020818303038152906040526040518082805190602001908083835b602083106140e357805182526020820191506020810190506020830392506140c0565b6001836020036101000a038019825116818451168082178552505050505050905001915050600060405180830381855afa9150503d8060008114614143576040519150601f19603f3d011682016040523d82523d6000602084013e614148565b606091505b508093508192505050806141a7576040517f08c379a0000000000000000000000000000000000000000000000000000000008152600401808060200182810382526035815260200180616d426035913960400191505060405180910390fd5b6141b282600061562d565b9250505090565b60006060600060f773ffffffffffffffffffffffffffffffffffffffff16846040516020018082805190602001908083835b6020831061420e57805182526020820191506020810190506020830392506141eb565b6001836020036101000a0380198251168184511680821785525050505050509050019150506040516020818303038152906040526040518082805190602001908083835b602083106142755780518252602082019150602081019050602083039250614252565b6001836020036101000a038019825116818451168082178552505050505050905001915050600060405180830381855afa9150503d80600081146142d5576040519150601f19603f3d011682016040523d82523d6000602084013e6142da565b606091505b50809350819250505080614339576040517f08c379a0000000000000000000000000000000000000000000000000000000008152600401808060200182810382526031815260200180616ed16031913960400191505060405180910390fd5b61434482600061562d565b92505050919050565b60008060009054906101000a900473ffffffffffffffffffffffffffffffffffffffff16905090565b60008060009054906101000a900473ffffffffffffffffffffffffffffffffffffffff1673ffffffffffffffffffffffffffffffffffffffff166143b8615e1a565b73ffffffffffffffffffffffffffffffffffffffff1614905090565b606060038054600181600116156101000203166002900480601f01602080910402602001604051908101604052809291908181526020018280546001816001161561010002031660029004801561446c5780601f106144415761010080835404028352916020019161446c565b820191906000526020600020905b81548152906001019060200180831161444f57829003601f168201915b5050505050905090565b6000614481436129cf565b905090565b60006060600060f973ffffffffffffffffffffffffffffffffffffffff1684604051602001808281526020019150506040516020818303038152906040526040518082805190602001908083835b602083106144f757805182526020820191506020810190506020830392506144d4565b6001836020036101000a038019825116818451168082178552505050505050905001915050600060405180830381855afa9150503d8060008114614557576040519150601f19603f3d011682016040523d82523d6000602084013e61455c565b606091505b508093508192505050806145bb576040517f08c379a000000000000000000000000000000000000000000000000000000000815260040180806020018281038252602e815260200180616bad602e913960400191505060405180910390fd5b6145c682600061562d565b92505050919050565b60006145d9616af4565b60006145e3615454565b8092508193505050600860030154811461467a5781600860010160008201518160000155905050806008600301819055507f08f3ed03ec9e579d1f6ab2f9e0d3dc661704696deabe37a6b6df7014f1b30a97614657600860010160405180602001604052908160008201548152505061561f565b600860030154604051808381526020018281526020019250505060405180910390a15b6000600760003373ffffffffffffffffffffffffffffffffffffffff1673ffffffffffffffffffffffffffffffffffffffff16815260200190815260200160002060008773ffffffffffffffffffffffffffffffffffffffff1673ffffffffffffffffffffffffffffffffffffffff16815260200190815260200160002054905060006147108683615b7b90919063ffffffff16565b905080600760003373ffffffffffffffffffffffffffffffffffffffff1673ffffffffffffffffffffffffffffffffffffffff16815260200190815260200160002060008973ffffffffffffffffffffffffffffffffffffffff1673ffffffffffffffffffffffffffffffffffffffff168152602001908152602001600020819055508673ffffffffffffffffffffffffffffffffffffffff163373ffffffffffffffffffffffffffffffffffffffff167f8c5be1e5ebec7d5bd14f71427d1e84f3dd0314c0f7b2291e5b200ac8c7c3b925836040518082815260200191505060405180910390a3600194505050505092915050565b60008060008061482e600860000160405180602001604052908160008201548152505061561f565b614850600860010160405180602001604052908160008201548152505061561f565b600860020154600860030154935093509350935090919293565b6000614874616af4565b600061487e615454565b809250819350505060086003015481146149155781600860010160008201518160000155905050806008600301819055507f08f3ed03ec9e579d1f6ab2f9e0d3dc661704696deabe37a6b6df7014f1b30a976148f2600860010160405180602001604052908160008201548152505061561f565b600860030154604051808381526020018281526020019250505060405180910390a15b61491d615a80565b73ffffffffffffffffffffffffffffffffffffffff1663e5839836306040518263ffffffff1660e01b8152600401808273ffffffffffffffffffffffffffffffffffffffff1673ffffffffffffffffffffffffffffffffffffffff16815260200191505060206040518083038186803b15801561499957600080fd5b505afa1580156149ad573d6000803e3d6000fd5b505050506040513d60208110156149c357600080fd5b810190808051906020019092919050505015614a2a576040517f08c379a0000000000000000000000000000000000000000000000000000000008152600401808060200182810382526022815260200180616cad6022913960400191505060405180910390fd5b614a348585615e22565b9250505092915050565b614a46614376565b614ab8576040517f08c379a00000000000000000000000000000000000000000000000000000000081526004018080602001828103825260208152602001807f4f776e61626c653a2063616c6c6572206973206e6f7420746865206f776e657281525060200191505060405180910390fd5b600073ffffffffffffffffffffffffffffffffffffffff168173ffffffffffffffffffffffffffffffffffffffff161415614b5b576040517f08c379a00000000000000000000000000000000000000000000000000000000081526004018080602001828103825260208152602001807f43616e6e6f7420726567697374657220746865206e756c6c206164647265737381525060200191505060405180910390fd5b80600160006101000a81548173ffffffffffffffffffffffffffffffffffffffff021916908373ffffffffffffffffffffffffffffffffffffffff1602179055508073ffffffffffffffffffffffffffffffffffffffff167f27fe5f0c1c3b1ed427cc63d0f05759ffdecf9aec9e18d31ef366fc8a6cb5dc3b60405160405180910390a250565b6000614bec616af4565b614bf4615454565b5080915050614c1c614c1782614c0986616102565b61618c90919063ffffffff16565b6162d5565b915050919050565b6000600760008473ffffffffffffffffffffffffffffffffffffffff1673ffffffffffffffffffffffffffffffffffffffff16815260200190815260200160002060008373ffffffffffffffffffffffffffffffffffffffff1673ffffffffffffffffffffffffffffffffffffffff16815260200190815260200160002054905092915050565b60006060600060f873ffffffffffffffffffffffffffffffffffffffff166040516020016040516020818303038152906040526040518082805190602001908083835b60208310614d115780518252602082019150602081019050602083039250614cee565b6001836020036101000a038019825116818451168082178552505050505050905001915050600060405180830381855afa9150503d8060008114614d71576040519150601f19603f3d011682016040523d82523d6000602084013e614d76565b606091505b50809350819250505080614dd5576040517f08c379a0000000000000000000000000000000000000000000000000000000008152600401808060200182810382526025815260200180616e806025913960400191505060405180910390fd5b614de082600061562d565b9250505090565b6000614df1616af4565b6000614dfb615454565b80925081935050506008600301548114614e925781600860010160008201518160000155905050806008600301819055507f08f3ed03ec9e579d1f6ab2f9e0d3dc661704696deabe37a6b6df7014f1b30a97614e6f600860010160405180602001604052908160008201548152505061561f565b600860030154604051808381526020018281526020019250505060405180910390a15b614e9a615a80565b73ffffffffffffffffffffffffffffffffffffffff1663e5839836306040518263ffffffff1660e01b8152600401808273ffffffffffffffffffffffffffffffffffffffff1673ffffffffffffffffffffffffffffffffffffffff16815260200191505060206040518083038186803b158015614f1657600080fd5b505afa158015614f2a573d6000803e3d6000fd5b505050506040513d6020811015614f4057600080fd5b810190808051906020019092919050505015614fa7576040517f08c379a0000000000000000000000000000000000000000000000000000000008152600401808060200182810382526022815260200180616cad6022913960400191505060405180910390fd5b6000614fb3888861486a565b90507fe5d4e30fb8364e57bc4d662a07d0cf36f4c34552004c4c3624620a2c1d1c03dc868660405180806020018281038252848482818152602001925080828437600081840152601f19601f820116905080830192505050935050505060405180910390a1809350505050949350505050565b600061506a600361505c600261504e600261504088614486565b6162f690919063ffffffff16565b6159f890919063ffffffff16565b61637c90919063ffffffff16565b9050919050565b60008060008714158015615086575060008514155b6150f8576040517f08c379a00000000000000000000000000000000000000000000000000000000081526004018080602001828103825260158152602001807f612064656e6f6d696e61746f72206973207a65726f000000000000000000000081525060200191505060405180910390fd5b6000806000606060fc73ffffffffffffffffffffffffffffffffffffffff168c8c8c8c8c8c6040516020018087815260200186815260200185815260200184815260200183815260200182815260200196505050505050506040516020818303038152906040526040518082805190602001908083835b60208310615192578051825260208201915060208101905060208303925061516f565b6001836020036101000a038019825116818451168082178552505050505050905001915050600060405180830381855afa9150503d80600081146151f2576040519150601f19603f3d011682016040523d82523d6000602084013e6151f7565b606091505b50809250819350505081615256576040517f08c379a0000000000000000000000000000000000000000000000000000000008152600401808060200182810382526027815260200180616e596027913960400191505060405180910390fd5b61526181600061562d565b935061526e81602061562d565b925083839550955050505050965096945050505050565b61528d614376565b6152ff576040517f08c379a00000000000000000000000000000000000000000000000000000000081526004018080602001828103825260208152602001807f4f776e61626c653a2063616c6c6572206973206e6f7420746865206f776e657281525060200191505060405180910390fd5b61530881615671565b50565b60006060600060f573ffffffffffffffffffffffffffffffffffffffff1684604051602001808281526020019150506040516020818303038152906040526040518082805190602001908083835b6020831061537c5780518252602082019150602081019050602083039250615359565b6001836020036101000a038019825116818451168082178552505050505050905001915050600060405180830381855afa9150503d80600081146153dc576040519150601f19603f3d011682016040523d82523d6000602084013e6153e1565b606091505b50809350819250505080615440576040517f08c379a000000000000000000000000000000000000000000000000000000000815260040180806020018281038252602c815260200180616ea5602c913960400191505060405180910390fd5b61544b826000615c0d565b92505050919050565b61545c616af4565b600061547b6008600201546008600301546159f890919063ffffffff16565b4210156154ae5760086001016008600301548160405180602001604052908160008201548152505091509150915061561b565b60008060006154e26008600201546154d460086003015442615b7b90919063ffffffff16565b61637c90919063ffffffff16565b9050615564615509600860010160405180602001604052908160008201548152505061561f565b6155196155146157d3565b61561f565b61553b600860000160405180602001604052908160008201548152505061561f565b61554b6155466157d3565b61561f565b85600460009054906101000a900460ff1660ff16615071565b8093508194505050600083148061557b5750600082145b156155af5760086001016008600301548160405180602001604052908160008201548152505091509450945050505061561b565b6155b7616af4565b6155da6155c3846157b5565b6155cc866157b5565b61618c90919063ffffffff16565b9050600061560d6155f9846008600201546162f690919063ffffffff16565b6008600301546159f890919063ffffffff16565b905081819650965050505050505b9091565b600081600001519050919050565b60006156398383615c0d565b60001c905092915050565b600061566961566461565584616102565b856163c690919063ffffffff16565b6162d5565b905092915050565b600073ffffffffffffffffffffffffffffffffffffffff168173ffffffffffffffffffffffffffffffffffffffff1614156156f7576040517f08c379a0000000000000000000000000000000000000000000000000000000008152600401808060200182810382526026815260200180616c026026913960400191505060405180910390fd5b8073ffffffffffffffffffffffffffffffffffffffff166000809054906101000a900473ffffffffffffffffffffffffffffffffffffffff1673ffffffffffffffffffffffffffffffffffffffff167f8be0079c531659141344cd1fd0a4f28419497f9722a3daafe3b4186f6b6457e060405160405180910390a3806000806101000a81548173ffffffffffffffffffffffffffffffffffffffff021916908373ffffffffffffffffffffffffffffffffffffffff16021790555050565b6157bd616af4565b6040518060200160405280838152509050919050565b6157db616af4565b604051806020016040528069d3c21bcecceda1000000815250905090565b60008073ffffffffffffffffffffffffffffffffffffffff168373ffffffffffffffffffffffffffffffffffffffff16141561589d576040517f08c379a00000000000000000000000000000000000000000000000000000000081526004018080602001828103825260178152602001807f302069732061207265736572766564206164647265737300000000000000000081525060200191505060405180910390fd5b60008214156158af57600190506159f2565b60006158d4600860010160405180602001604052908160008201548152505084615644565b90506158eb816006546159f890919063ffffffff16565b60068190555061594381600560008773ffffffffffffffffffffffffffffffffffffffff1673ffffffffffffffffffffffffffffffffffffffff168152602001908152602001600020546159f890919063ffffffff16565b600560008673ffffffffffffffffffffffffffffffffffffffff1673ffffffffffffffffffffffffffffffffffffffff168152602001908152602001600020819055508373ffffffffffffffffffffffffffffffffffffffff16600073ffffffffffffffffffffffffffffffffffffffff167fddf252ad1be2c89b69c2b068fc378daa952ba7f163c4a11628f55a4df523b3ef856040518082815260200191505060405180910390a360019150505b92915050565b600080828401905083811015615a76576040517f08c379a000000000000000000000000000000000000000000000000000000000815260040180806020018281038252601b8152602001807f536166654d6174683a206164646974696f6e206f766572666c6f77000000000081525060200191505060405180910390fd5b8091505092915050565b6000600160009054906101000a900473ffffffffffffffffffffffffffffffffffffffff1673ffffffffffffffffffffffffffffffffffffffff1663dcf0aaed60405160200180807f467265657a6572000000000000000000000000000000000000000000000000008152506007019050604051602081830303815290604052805190602001206040518263ffffffff1660e01b81526004018082815260200191505060206040518083038186803b158015615b3b57600080fd5b505afa158015615b4f573d6000803e3d6000fd5b505050506040513d6020811015615b6557600080fd5b8101908080519060200190929190505050905090565b6000615bbd83836040518060400160405280601e81526020017f536166654d6174683a207375627472616374696f6e206f766572666c6f770000815250616825565b905092915050565b600080828481615bd157fe5b0490506000838581615bdf57fe5b061415615bef5780915050615c07565b615c036001826159f890919063ffffffff16565b9150505b92915050565b6000615c236020836159f890919063ffffffff16565b83511015615c99576040517f08c379a00000000000000000000000000000000000000000000000000000000081526004018080602001828103825260148152602001807f736c6963696e67206f7574206f662072616e676500000000000000000000000081525060200191505060405180910390fd5b60006020830184015190508091505092915050565b60008073ffffffffffffffffffffffffffffffffffffffff168373ffffffffffffffffffffffffffffffffffffffff161415615ced5760009050615e13565b6000615d12600860010160405180602001604052908160008201548152505084615644565b9050615d6681600560008773ffffffffffffffffffffffffffffffffffffffff1673ffffffffffffffffffffffffffffffffffffffff168152602001908152602001600020546159f890919063ffffffff16565b600560008673ffffffffffffffffffffffffffffffffffffffff1673ffffffffffffffffffffffffffffffffffffffff168152602001908152602001600020819055508373ffffffffffffffffffffffffffffffffffffffff168573ffffffffffffffffffffffffffffffffffffffff167fddf252ad1be2c89b69c2b068fc378daa952ba7f163c4a11628f55a4df523b3ef856040518082815260200191505060405180910390a3809150505b9392505050565b600033905090565b60008073ffffffffffffffffffffffffffffffffffffffff168373ffffffffffffffffffffffffffffffffffffffff161415615ea9576040517f08c379a000000000000000000000000000000000000000000000000000000000815260040180806020018281038252602a815260200180616f02602a913960400191505060405180910390fd5b6000615ece600860010160405180602001604052908160008201548152505084615644565b905080600560003373ffffffffffffffffffffffffffffffffffffffff1673ffffffffffffffffffffffffffffffffffffffff168152602001908152602001600020541015615f68576040517f08c379a0000000000000000000000000000000000000000000000000000000008152600401808060200182810382526029815260200180616df86029913960400191505060405180910390fd5b615fba81600560003373ffffffffffffffffffffffffffffffffffffffff1673ffffffffffffffffffffffffffffffffffffffff16815260200190815260200160002054615b7b90919063ffffffff16565b600560003373ffffffffffffffffffffffffffffffffffffffff1673ffffffffffffffffffffffffffffffffffffffff1681526020019081526020016000208190555061604f81600560008773ffffffffffffffffffffffffffffffffffffffff1673ffffffffffffffffffffffffffffffffffffffff168152602001908152602001600020546159f890919063ffffffff16565b600560008673ffffffffffffffffffffffffffffffffffffffff1673ffffffffffffffffffffffffffffffffffffffff168152602001908152602001600020819055508373ffffffffffffffffffffffffffffffffffffffff163373ffffffffffffffffffffffffffffffffffffffff167fddf252ad1be2c89b69c2b068fc378daa952ba7f163c4a11628f55a4df523b3ef856040518082815260200191505060405180910390a3600191505092915050565b61610a616af4565b6161126168e5565b82111561616a576040517f08c379a0000000000000000000000000000000000000000000000000000000008152600401808060200182810382526036815260200180616ccf6036913960400191505060405180910390fd5b604051806020016040528069d3c21bcecceda100000084028152509050919050565b616194616af4565b60008260000151141561620f576040517f08c379a00000000000000000000000000000000000000000000000000000000081526004018080602001828103825260118152602001807f63616e277420646976696465206279203000000000000000000000000000000081525060200191505060405180910390fd5b600069d3c21bcecceda10000008460000151029050836000015169d3c21bcecceda1000000828161623c57fe5b04146162b0576040517f08c379a00000000000000000000000000000000000000000000000000000000081526004018080602001828103825260128152602001807f6f766572666c6f7720617420646976696465000000000000000000000000000081525060200191505060405180910390fd5b6040518060200160405280846000015183816162c857fe5b0481525091505092915050565b600069d3c21bcecceda10000008260000151816162ee57fe5b049050919050565b6000808314156163095760009050616376565b600082840290508284828161631a57fe5b0414616371576040517f08c379a0000000000000000000000000000000000000000000000000000000008152600401808060200182810382526021815260200180616dd76021913960400191505060405180910390fd5b809150505b92915050565b60006163be83836040518060400160405280601a81526020017f536166654d6174683a206469766973696f6e206279207a65726f000000000000815250616904565b905092915050565b6163ce616af4565b6000836000015114806163e5575060008260000151145b156164015760405180602001604052806000815250905061681f565b69d3c21bcecceda10000008260000151141561641f5782905061681f565b69d3c21bcecceda10000008360000151141561643d5781905061681f565b600069d3c21bcecceda1000000616453856169ca565b600001518161645e57fe5b049050600061646c85616a01565b600001519050600069d3c21bcecceda1000000616488866169ca565b600001518161649357fe5b04905060006164a186616a01565b600001519050600082850290506000851461653557828582816164c057fe5b0414616534576040517f08c379a00000000000000000000000000000000000000000000000000000000081526004018080602001828103825260168152602001807f6f766572666c6f7720783179312064657465637465640000000000000000000081525060200191505060405180910390fd5b5b600069d3c21bcecceda100000082029050600082146165d75769d3c21bcecceda100000082828161656257fe5b04146165d6576040517f08c379a000000000000000000000000000000000000000000000000000000000815260040180806020018281038252601f8152602001807f6f766572666c6f772078317931202a206669786564312064657465637465640081525060200191505060405180910390fd5b5b809150600084860290506000861461666857848682816165f357fe5b0414616667576040517f08c379a00000000000000000000000000000000000000000000000000000000081526004018080602001828103825260168152602001807f6f766572666c6f7720783279312064657465637465640000000000000000000081525060200191505060405180910390fd5b5b60008488029050600088146166f6578488828161668157fe5b04146166f5576040517f08c379a00000000000000000000000000000000000000000000000000000000081526004018080602001828103825260168152602001807f6f766572666c6f7720783179322064657465637465640000000000000000000081525060200191505060405180910390fd5b5b6166fe616a3e565b878161670657fe5b049650616711616a3e565b858161671957fe5b04945060008588029050600088146167aa578588828161673557fe5b04146167a9576040517f08c379a00000000000000000000000000000000000000000000000000000000081526004018080602001828103825260168152602001807f6f766572666c6f7720783279322064657465637465640000000000000000000081525060200191505060405180910390fd5b5b6167b2616af4565b60405180602001604052808781525090506167db81604051806020016040528087815250616a4b565b90506167f581604051806020016040528086815250616a4b565b905061680f81604051806020016040528085815250616a4b565b9050809a50505050505050505050505b92915050565b60008383111582906168d2576040517f08c379a00000000000000000000000000000000000000000000000000000000081526004018080602001828103825283818151815260200191508051906020019080838360005b8381101561689757808201518184015260208101905061687c565b50505050905090810190601f1680156168c45780820380516001836020036101000a031916815260200191505b509250505060405180910390fd5b5060008385039050809150509392505050565b60007601357c299a88ea76a58924d52ce4f26a85af186c2b9e74905090565b600080831182906169b0576040517f08c379a00000000000000000000000000000000000000000000000000000000081526004018080602001828103825283818151815260200191508051906020019080838360005b8381101561697557808201518184015260208101905061695a565b50505050905090810190601f1680156169a25780820380516001836020036101000a031916815260200191505b509250505060405180910390fd5b5060008385816169bc57fe5b049050809150509392505050565b6169d2616af4565b604051806020016040528069d3c21bcecceda1000000808560000151816169f557fe5b04028152509050919050565b616a09616af4565b604051806020016040528069d3c21bcecceda100000080856000015181616a2c57fe5b04028460000151038152509050919050565b600064e8d4a51000905090565b616a53616af4565b6000826000015184600001510190508360000151811015616adc576040517f08c379a00000000000000000000000000000000000000000000000000000000081526004018080602001828103825260158152602001807f616464206f766572666c6f77206465746563746564000000000000000000000081525060200191505060405180910390fd5b60405180602001604052808281525091505092915050565b6040518060200160405280600081525090565b828054600181600116156101000203166002900490600052602060002090601f016020900481019282601f10616b4857803560ff1916838001178555616b76565b82800160010185558215616b76579182015b82811115616b75578235825591602001919060010190616b5a565b5b509050616b839190616b87565b5090565b616ba991905b80821115616ba5576000816000905550600101616b8d565b5090565b9056fe6572726f722063616c6c696e67206e756d62657256616c696461746f7273496e53657420707265636f6d70696c65696e666c6174696f6e466163746f72557064617465506572696f64206d757374206265203e20304f776e61626c653a206e6577206f776e657220697320746865207a65726f20616464726573734d7573742070726f766964652061206e6f6e2d7a65726f20696e666c6174696f6e20726174654d7573742070726f766964652061206e6f6e2d7a65726f20696e666c6174696f6e20726174652e6572726f722063616c6c696e672067657456657269666965645365616c4269746d617046726f6d48656164657220707265636f6d70696c6563616e27742063616c6c207768656e20636f6e74726163742069732066726f7a656e63616e277420637265617465206669786964697479206e756d626572206c6172676572207468616e206d61784e6577466978656428296572726f722063616c6c696e672076616c696461746f725369676e65724164647265737346726f6d43757272656e7453657420707265636f6d70696c656572726f722063616c6c696e67206e756d62657256616c696461746f7273496e43757272656e7453657420707265636f6d70696c656572726f722063616c6c696e672076616c696461746f725369676e65724164647265737346726f6d53657420707265636f6d70696c6572657365727665642061646472657373203078302063616e6e6f74206861766520616c6c6f77616e6365536166654d6174683a206d756c7469706c69636174696f6e206f766572666c6f777472616e736665722076616c75652065786365656465642062616c616e6365206f662073656e6465727472616e736665722076616c75652065786365656465642073656e646572277320616c6c6f77616e636520666f7220726563697069656e746572726f722063616c6c696e67206672616374696f6e4d756c45787020707265636f6d70696c656572726f722063616c6c696e672067657445706f636853697a6520707265636f6d70696c656572726f722063616c6c696e6720676574506172656e745365616c4269746d617020707265636f6d70696c656572726f722063616c6c696e6720676574426c6f636b4e756d62657246726f6d48656164657220707265636f6d70696c657472616e7366657220617474656d7074656420746f2072657365727665642061646472657373203078306572726f722063616c6c696e67206861736848656164657220707265636f6d70696c65a265627a7a72315820354652fdb5bdef31c23fa4728edcefcc1f0a31d53c079b5bf4f14e038e3aca7064736f6c634300050d0032",
  "source": "pragma solidity ^0.5.13;\n\nimport \"openzeppelin-solidity/contracts/math/SafeMath.sol\";\nimport \"openzeppelin-solidity/contracts/ownership/Ownable.sol\";\nimport \"openzeppelin-solidity/contracts/token/ERC20/IERC20.sol\";\n\nimport \"./interfaces/IStableToken.sol\";\nimport \"./interfaces/ICeloToken.sol\";\nimport \"./common/interfaces/ICeloVersionedContract.sol\";\nimport \"./common/CalledByVm.sol\";\nimport \"./common/Initializable.sol\";\nimport \"./common/FixidityLib.sol\";\nimport \"./common/Freezable.sol\";\nimport \"./common/UsingRegistry.sol\";\nimport \"./common/UsingPrecompiles.sol\";\n\n/**\n * @title An ERC20 compliant token with adjustable supply.\n */\n// solhint-disable-next-line max-line-length\ncontract StableToken is\n    ICeloVersionedContract,\n    Ownable,\n    Initializable,\n    UsingRegistry,\n    UsingPrecompiles,\n    Freezable,\n    CalledByVm,\n    IStableToken,\n    IERC20,\n    ICeloToken\n{\n    using FixidityLib for FixidityLib.Fraction;\n    using SafeMath for uint256;\n\n    event InflationFactorUpdated(uint256 factor, uint256 lastUpdated);\n\n    event InflationParametersUpdated(uint256 rate, uint256 updatePeriod, uint256 lastUpdated);\n\n    event Transfer(address indexed from, address indexed to, uint256 value);\n\n    event TransferComment(string comment);\n\n    bytes32 constant GRANDA_MENTO_REGISTRY_ID = keccak256(abi.encodePacked(\"GrandaMento\"));\n\n    string internal name_;\n    string internal symbol_;\n    uint8 internal decimals_;\n\n    // Stored as units. Value can be found using unitsToValue().\n    mapping(address => uint256) internal balances;\n    uint256 internal totalSupply_;\n\n    // Stored as values. Units can be found using valueToUnits().\n    mapping(address => mapping(address => uint256)) internal allowed;\n\n    // STABILITY FEE PARAMETERS\n\n    // The `rate` is how much the `factor` is adjusted by per `updatePeriod`.\n    // The `factor` describes units/value of StableToken, and is greater than or equal to 1.\n    // The `updatePeriod` governs how often the `factor` is updated.\n    // `factorLastUpdated` indicates when the inflation factor was last updated.\n    struct InflationState {\n        FixidityLib.Fraction rate;\n        FixidityLib.Fraction factor;\n        uint256 updatePeriod;\n        uint256 factorLastUpdated;\n    }\n\n    InflationState inflationState;\n\n    // The registry ID of the exchange contract with permission to mint and burn this token.\n    // Unique per StableToken instance.\n    bytes32 exchangeRegistryId;\n\n    /**\n     * @notice Recomputes and updates inflation factor if more than `updatePeriod`\n     * has passed since last update.\n     */\n    modifier updateInflationFactor() {\n        FixidityLib.Fraction memory updatedInflationFactor;\n        uint256 lastUpdated;\n\n        (updatedInflationFactor, lastUpdated) = getUpdatedInflationFactor();\n\n        if (lastUpdated != inflationState.factorLastUpdated) {\n            inflationState.factor = updatedInflationFactor;\n            inflationState.factorLastUpdated = lastUpdated;\n            emit InflationFactorUpdated(inflationState.factor.unwrap(), inflationState.factorLastUpdated);\n        }\n        _;\n    }\n\n    /**\n     * @notice Returns the storage, major, minor, and patch version of the contract.\n     * @return Storage version of the contract.\n     * @return Major version of the contract.\n     * @return Minor version of the contract.\n     * @return Patch version of the contract.\n     */\n    function getVersionNumber()\n        external\n        pure\n        returns (\n            uint256,\n            uint256,\n            uint256,\n            uint256\n        )\n    {\n        return (1, 2, 0, 1);\n    }\n\n    /**\n     * @notice Sets initialized == true on implementation contracts\n     * @param test Set to true to skip implementation initialization\n     */\n    constructor(bool test) public Initializable(test) {}\n\n    /**\n     * @param _name The name of the stable token (English)\n     * @param _symbol A short symbol identifying the token (e.g. \"cUSD\")\n     * @param _decimals Tokens are divisible to this many decimal places.\n     * @param registryAddress Address of the Registry contract.\n     * @param inflationRate Weekly inflation rate.\n     * @param inflationFactorUpdatePeriod How often the inflation factor is updated, in seconds.\n     * @param initialBalanceAddresses Array of addresses with an initial balance.\n     * @param initialBalanceValues Array of balance values corresponding to initialBalanceAddresses.\n     * @param exchangeIdentifier String identifier of exchange in registry (for specific fiat pairs)\n     */\n    function initialize(\n        string calldata _name,\n        string calldata _symbol,\n        uint8 _decimals,\n        address registryAddress,\n        uint256 inflationRate,\n        uint256 inflationFactorUpdatePeriod,\n        address[] calldata initialBalanceAddresses,\n        uint256[] calldata initialBalanceValues,\n        string calldata exchangeIdentifier\n    ) external initializer {\n        require(inflationRate != 0, \"Must provide a non-zero inflation rate\");\n        require(inflationFactorUpdatePeriod > 0, \"inflationFactorUpdatePeriod must be > 0\");\n\n        _transferOwnership(msg.sender);\n\n        totalSupply_ = 0;\n        name_ = _name;\n        symbol_ = _symbol;\n        decimals_ = _decimals;\n\n        inflationState.rate = FixidityLib.wrap(inflationRate);\n        inflationState.factor = FixidityLib.fixed1();\n        inflationState.updatePeriod = inflationFactorUpdatePeriod;\n        // solhint-disable-next-line not-rely-on-time\n        inflationState.factorLastUpdated = now;\n\n        require(initialBalanceAddresses.length == initialBalanceValues.length, \"Array length mismatch\");\n        for (uint256 i = 0; i < initialBalanceAddresses.length; i = i.add(1)) {\n            _mint(initialBalanceAddresses[i], initialBalanceValues[i]);\n        }\n        setRegistry(registryAddress);\n        exchangeRegistryId = keccak256(abi.encodePacked(exchangeIdentifier));\n    }\n\n    /**\n     * @notice Updates Inflation Parameters.\n     * @param rate New rate.\n     * @param updatePeriod How often inflationFactor is updated.\n     */\n    function setInflationParameters(uint256 rate, uint256 updatePeriod) external onlyOwner updateInflationFactor {\n        require(rate != 0, \"Must provide a non-zero inflation rate.\");\n        require(updatePeriod > 0, \"updatePeriod must be > 0\");\n        inflationState.rate = FixidityLib.wrap(rate);\n        inflationState.updatePeriod = updatePeriod;\n\n        emit InflationParametersUpdated(\n            rate,\n            updatePeriod,\n            // solhint-disable-next-line not-rely-on-time\n            now\n        );\n    }\n\n    /**\n     * @notice Increase the allowance of another user.\n     * @param spender The address which is being approved to spend StableToken.\n     * @param value The increment of the amount of StableToken approved to the spender.\n     * @return True if the transaction succeeds.\n     */\n    function increaseAllowance(address spender, uint256 value) external updateInflationFactor returns (bool) {\n        require(spender != address(0), \"reserved address 0x0 cannot have allowance\");\n        uint256 oldValue = allowed[msg.sender][spender];\n        uint256 newValue = oldValue.add(value);\n        allowed[msg.sender][spender] = newValue;\n        emit Approval(msg.sender, spender, newValue);\n        return true;\n    }\n\n    /**\n     * @notice Decrease the allowance of another user.\n     * @param spender The address which is being approved to spend StableToken.\n     * @param value The decrement of the amount of StableToken approved to the spender.\n     * @return True if the transaction succeeds.\n     */\n    function decreaseAllowance(address spender, uint256 value) external updateInflationFactor returns (bool) {\n        uint256 oldValue = allowed[msg.sender][spender];\n        uint256 newValue = oldValue.sub(value);\n        allowed[msg.sender][spender] = newValue;\n        emit Approval(msg.sender, spender, newValue);\n        return true;\n    }\n\n    /**\n     * @notice Approve a user to transfer StableToken on behalf of another user.\n     * @param spender The address which is being approved to spend StableToken.\n     * @param value The amount of StableToken approved to the spender.\n     * @return True if the transaction succeeds.\n     */\n    function approve(address spender, uint256 value) external updateInflationFactor returns (bool) {\n        require(spender != address(0), \"reserved address 0x0 cannot have allowance\");\n        allowed[msg.sender][spender] = value;\n        emit Approval(msg.sender, spender, value);\n        return true;\n    }\n\n    /**\n     * @notice Mints new StableToken and gives it to 'to'.\n     * @param to The account for which to mint tokens.\n     * @param value The amount of StableToken to mint.\n     */\n    function mint(address to, uint256 value) external updateInflationFactor returns (bool) {\n        require(\n            msg.sender == registry.getAddressForOrDie(getExchangeRegistryId()) ||\n                msg.sender == registry.getAddressFor(VALIDATORS_REGISTRY_ID) ||\n                msg.sender == registry.getAddressFor(GRANDA_MENTO_REGISTRY_ID),\n            \"Sender not authorized to mint\"\n        );\n        return _mint(to, value);\n    }\n\n    /**\n     * @notice Mints new StableToken and gives it to 'to'.\n     * @param to The account for which to mint tokens.\n     * @param value The amount of StableToken to mint.\n     */\n    function _mint(address to, uint256 value) private returns (bool) {\n        require(to != address(0), \"0 is a reserved address\");\n        if (value == 0) {\n            return true;\n        }\n\n        uint256 units = _valueToUnits(inflationState.factor, value);\n        totalSupply_ = totalSupply_.add(units);\n        balances[to] = balances[to].add(units);\n        emit Transfer(address(0), to, value);\n        return true;\n    }\n\n    /**\n     * @notice Transfer token for a specified address\n     * @param to The address to transfer to.\n     * @param value The amount to be transferred.\n     * @param comment The transfer comment.\n     * @return True if the transaction succeeds.\n     */\n    function transferWithComment(\n        address to,\n        uint256 value,\n        string calldata comment\n    ) external updateInflationFactor onlyWhenNotFrozen returns (bool) {\n        bool succeeded = transfer(to, value);\n        emit TransferComment(comment);\n        return succeeded;\n    }\n\n    /**\n     * @notice Burns StableToken from the balance of msg.sender.\n     * @param value The amount of StableToken to burn.\n     */\n    function burn(uint256 value) external updateInflationFactor returns (bool) {\n        require(\n            msg.sender == registry.getAddressForOrDie(getExchangeRegistryId()) ||\n                msg.sender == registry.getAddressFor(GRANDA_MENTO_REGISTRY_ID),\n            \"Sender not authorized to burn\"\n        );\n        uint256 units = _valueToUnits(inflationState.factor, value);\n        require(units <= balances[msg.sender], \"value exceeded balance of sender\");\n        totalSupply_ = totalSupply_.sub(units);\n        balances[msg.sender] = balances[msg.sender].sub(units);\n        emit Transfer(msg.sender, address(0), units);\n        return true;\n    }\n\n    /**\n     * @notice Transfers StableToken from one address to another on behalf of a user.\n     * @param from The address to transfer StableToken from.\n     * @param to The address to transfer StableToken to.\n     * @param value The amount of StableToken to transfer.\n     * @return True if the transaction succeeds.\n     */\n    function transferFrom(\n        address from,\n        address to,\n        uint256 value\n    ) external updateInflationFactor onlyWhenNotFrozen returns (bool) {\n        uint256 units = _valueToUnits(inflationState.factor, value);\n        require(to != address(0), \"transfer attempted to reserved address 0x0\");\n        require(units <= balances[from], \"transfer value exceeded balance of sender\");\n        require(value <= allowed[from][msg.sender], \"transfer value exceeded sender's allowance for recipient\");\n\n        balances[to] = balances[to].add(units);\n        balances[from] = balances[from].sub(units);\n        allowed[from][msg.sender] = allowed[from][msg.sender].sub(value);\n        emit Transfer(from, to, value);\n        return true;\n    }\n\n    /**\n     * @return The name of the stable token.\n     */\n    function name() external view returns (string memory) {\n        return name_;\n    }\n\n    /**\n     * @return The symbol of the stable token.\n     */\n    function symbol() external view returns (string memory) {\n        return symbol_;\n    }\n\n    /**\n     * @return The number of decimal places to which StableToken is divisible.\n     */\n    function decimals() external view returns (uint8) {\n        return decimals_;\n    }\n\n    /**\n     * @notice Gets the amount of owner's StableToken allowed to be spent by spender.\n     * @param accountOwner The owner of the StableToken.\n     * @param spender The spender of the StableToken.\n     * @return The amount of StableToken owner is allowing spender to spend.\n     */\n    function allowance(address accountOwner, address spender) external view returns (uint256) {\n        return allowed[accountOwner][spender];\n    }\n\n    /**\n     * @notice Gets the balance of the specified address using the presently stored inflation factor.\n     * @param accountOwner The address to query the balance of.\n     * @return The balance of the specified address.\n     */\n    function balanceOf(address accountOwner) external view returns (uint256) {\n        return unitsToValue(balances[accountOwner]);\n    }\n\n    /**\n     * @return The total value of StableToken in existence\n     * @dev Though totalSupply_ is stored in units, this returns value.\n     */\n    function totalSupply() external view returns (uint256) {\n        return unitsToValue(totalSupply_);\n    }\n\n    /**\n     * @notice gets inflation parameters.\n     * @return rate\n     * @return factor\n     * @return updatePeriod\n     * @return factorLastUpdated\n     */\n    function getInflationParameters()\n        external\n        view\n        returns (\n            uint256,\n            uint256,\n            uint256,\n            uint256\n        )\n    {\n        return (\n            inflationState.rate.unwrap(),\n            inflationState.factor.unwrap(),\n            inflationState.updatePeriod,\n            inflationState.factorLastUpdated\n        );\n    }\n\n    /**\n     * @notice Returns the units for a given value given the current inflation factor.\n     * @param value The value to convert to units.\n     * @return The units corresponding to `value` given the current inflation factor.\n     * @dev We don't compute the updated inflationFactor here because\n     * we assume any function calling this will have updated the inflation factor.\n     */\n    function valueToUnits(uint256 value) external view returns (uint256) {\n        FixidityLib.Fraction memory updatedInflationFactor;\n\n        (updatedInflationFactor, ) = getUpdatedInflationFactor();\n        return _valueToUnits(updatedInflationFactor, value);\n    }\n\n    /**\n     * @notice Returns the exchange id in the registry of the corresponding fiat pair exchange.\n     * @dev When this storage is uninitialized, it falls back to the default EXCHANGE_REGISTRY_ID.\n     * exchangeRegistryId was introduced after the initial release of cUSD's StableToken,\n     * so exchangeRegistryId will be uninitialized for that contract. If cUSD's StableToken\n     * exchangeRegistryId were to be correctly initialized, this function could be deprecated\n     * in favor of using exchangeRegistryId directly.\n     * @return Registry id for the corresponding exchange.\n     */\n    function getExchangeRegistryId() public view returns (bytes32) {\n        if (exchangeRegistryId == bytes32(0)) {\n            return EXCHANGE_REGISTRY_ID;\n        } else {\n            return exchangeRegistryId;\n        }\n    }\n\n    /**\n     * @notice Returns the value of a given number of units given the current inflation factor.\n     * @param units The units to convert to value.\n     * @return The value corresponding to `units` given the current inflation factor.\n     */\n    function unitsToValue(uint256 units) public view returns (uint256) {\n        FixidityLib.Fraction memory updatedInflationFactor;\n\n        (updatedInflationFactor, ) = getUpdatedInflationFactor();\n\n        // We're ok using FixidityLib.divide here because updatedInflationFactor is\n        // not going to surpass maxFixedDivisor any time soon.\n        // Quick upper-bound estimation: if annual inflation were 5% (an order of\n        // magnitude more than the initial proposal of 0.5%), in 500 years, the\n        // inflation factor would be on the order of 10**10, which is still a safe\n        // divisor.\n        return FixidityLib.newFixed(units).divide(updatedInflationFactor).fromFixed();\n    }\n\n    /**\n     * @notice Returns the units for a given value given the current inflation factor.\n     * @param inflationFactor The current inflation factor.\n     * @param value The value to convert to units.\n     * @return The units corresponding to `value` given the current inflation factor.\n     * @dev We assume any function calling this will have updated the inflation factor.\n     */\n    function _valueToUnits(FixidityLib.Fraction memory inflationFactor, uint256 value) private pure returns (uint256) {\n        return inflationFactor.multiply(FixidityLib.newFixed(value)).fromFixed();\n    }\n\n    /**\n     * @notice Computes the up-to-date inflation factor.\n     * @return Current inflation factor.\n     * @return Last time when the returned inflation factor was updated.\n     */\n    function getUpdatedInflationFactor() private view returns (FixidityLib.Fraction memory, uint256) {\n        /* solhint-disable not-rely-on-time */\n        if (now < inflationState.factorLastUpdated.add(inflationState.updatePeriod)) {\n            return (inflationState.factor, inflationState.factorLastUpdated);\n        }\n\n        uint256 numerator;\n        uint256 denominator;\n\n        // TODO: handle retroactive updates given decreases to updatePeriod\n        uint256 timesToApplyInflation = now.sub(inflationState.factorLastUpdated).div(inflationState.updatePeriod);\n\n        (numerator, denominator) = fractionMulExp(\n            inflationState.factor.unwrap(),\n            FixidityLib.fixed1().unwrap(),\n            inflationState.rate.unwrap(),\n            FixidityLib.fixed1().unwrap(),\n            timesToApplyInflation,\n            decimals_\n        );\n\n        // This should never happen. If something went wrong updating the\n        // inflation factor, keep the previous factor\n        if (numerator == 0 || denominator == 0) {\n            return (inflationState.factor, inflationState.factorLastUpdated);\n        }\n\n        FixidityLib.Fraction memory currentInflationFactor = FixidityLib.wrap(numerator).divide(\n            FixidityLib.wrap(denominator)\n        );\n        uint256 lastUpdated = inflationState.factorLastUpdated.add(\n            inflationState.updatePeriod.mul(timesToApplyInflation)\n        );\n\n        return (currentInflationFactor, lastUpdated);\n        /* solhint-enable not-rely-on-time */\n    }\n\n    /**\n     * @notice Transfers `value` from `msg.sender` to `to`\n     * @param to The address to transfer to.\n     * @param value The amount to be transferred.\n     */\n    // solhint-disable-next-line no-simple-event-func-name\n    function transfer(address to, uint256 value) public updateInflationFactor onlyWhenNotFrozen returns (bool) {\n        return _transfer(to, value);\n    }\n\n    /**\n     * @notice Transfers StableToken from one address to another\n     * @param to The address to transfer StableToken to.\n     * @param value The amount of StableToken to be transferred.\n     */\n    function _transfer(address to, uint256 value) internal returns (bool) {\n        require(to != address(0), \"transfer attempted to reserved address 0x0\");\n        uint256 units = _valueToUnits(inflationState.factor, value);\n        require(balances[msg.sender] >= units, \"transfer value exceeded balance of sender\");\n        balances[msg.sender] = balances[msg.sender].sub(units);\n        balances[to] = balances[to].add(units);\n        emit Transfer(msg.sender, to, value);\n        return true;\n    }\n\n    /**\n     * @notice Reserve balance for making payments for gas in this StableToken currency.\n     * @param from The account to reserve balance from\n     * @param value The amount of balance to reserve\n     * @dev Note that this function is called by the protocol when paying for tx fees in this\n     * currency. After the tx is executed, gas is refunded to the sender and credited to the\n     * various tx fee recipients via a call to `creditGasFees`. Note too that the events emitted\n     * by `creditGasFees` reflect the *net* gas fee payments for the transaction.\n     */\n    function debitGasFees(address from, uint256 value) external onlyVm onlyWhenNotFrozen updateInflationFactor {\n        uint256 units = _valueToUnits(inflationState.factor, value);\n        balances[from] = balances[from].sub(units);\n        totalSupply_ = totalSupply_.sub(units);\n    }\n\n    /**\n     * @notice Alternative function to credit balance after making payments\n     * for gas in this StableToken currency.\n     * @param from The account to debit balance from\n     * @param feeRecipient Coinbase address\n     * @param gatewayFeeRecipient Gateway address\n     * @param communityFund Community fund address\n     * @param tipTxFee Coinbase fee\n     * @param baseTxFee Community fund fee\n     * @param gatewayFee Gateway fee\n     * @dev Note that this function is called by the protocol when paying for tx fees in this\n     * currency. Before the tx is executed, gas is debited from the sender via a call to\n     * `debitGasFees`. Note too that the events emitted by `creditGasFees` reflect the *net* gas fee\n     * payments for the transaction.\n     */\n    function creditGasFees(\n        address from,\n        address feeRecipient,\n        address gatewayFeeRecipient,\n        address communityFund,\n        uint256 refund,\n        uint256 tipTxFee,\n        uint256 gatewayFee,\n        uint256 baseTxFee\n    ) external onlyVm onlyWhenNotFrozen {\n        uint256 units = _valueToUnits(inflationState.factor, refund);\n        balances[from] = balances[from].add(units);\n\n        units = units.add(_creditGas(from, communityFund, baseTxFee));\n        units = units.add(_creditGas(from, feeRecipient, tipTxFee));\n        units = units.add(_creditGas(from, gatewayFeeRecipient, gatewayFee));\n        totalSupply_ = totalSupply_.add(units);\n    }\n\n    function _creditGas(\n        address from,\n        address to,\n        uint256 value\n    ) internal returns (uint256) {\n        if (to == address(0)) {\n            return 0;\n        }\n        uint256 units = _valueToUnits(inflationState.factor, value);\n        balances[to] = balances[to].add(units);\n        emit Transfer(from, to, value);\n        return units;\n    }\n}\n",
  "sourcePath": "/Users/beaver/Development/celo/celo-monorepo/packages/protocol/lib/mento-core/contracts/StableToken.sol",
  "compiler": {
    "name": "solc",
    "version": "0.5.13+commit.5b0b510c.Emscripten.clang"
  },
  "schemaVersion": "3.4.13",
  "updatedAt": "2024-03-05T15:18:03.873Z",
  "devdoc": {
    "methods": {
      "allowance(address,address)": {
        "params": {
          "accountOwner": "The owner of the StableToken.",
          "spender": "The spender of the StableToken."
        },
        "return": "The amount of StableToken owner is allowing spender to spend."
      },
      "approve(address,uint256)": {
        "params": {
          "spender": "The address which is being approved to spend StableToken.",
          "value": "The amount of StableToken approved to the spender."
        },
        "return": "True if the transaction succeeds."
      },
      "balanceOf(address)": {
        "params": {
          "accountOwner": "The address to query the balance of."
        },
        "return": "The balance of the specified address."
      },
      "burn(uint256)": {
        "params": {
          "value": "The amount of StableToken to burn."
        }
      },
      "checkProofOfPossession(address,bytes,bytes)": {
        "params": {
          "blsKey": "The BLS public key that the validator is using for consensus, should pass proof  of possession. 48 bytes.",
          "blsPop": "The BLS public key proof-of-possession, which consists of a signature on the  account address. 96 bytes.",
          "sender": "The address signed by the BLS key to generate the proof of possession."
        },
        "return": "True upon success."
      },
      "constructor": {
        "params": {
          "test": "Set to true to skip implementation initialization"
        }
      },
      "creditGasFees(address,address,address,address,uint256,uint256,uint256,uint256)": {
        "details": "Note that this function is called by the protocol when paying for tx fees in this currency. Before the tx is executed, gas is debited from the sender via a call to `debitGasFees`. Note too that the events emitted by `creditGasFees` reflect the *net* gas fee payments for the transaction.",
        "params": {
          "baseTxFee": "Community fund fee",
          "communityFund": "Community fund address",
          "feeRecipient": "Coinbase address",
          "from": "The account to debit balance from",
          "gatewayFee": "Gateway fee",
          "gatewayFeeRecipient": "Gateway address",
          "tipTxFee": "Coinbase fee"
        }
      },
      "debitGasFees(address,uint256)": {
        "details": "Note that this function is called by the protocol when paying for tx fees in this currency. After the tx is executed, gas is refunded to the sender and credited to the various tx fee recipients via a call to `creditGasFees`. Note too that the events emitted by `creditGasFees` reflect the *net* gas fee payments for the transaction.",
        "params": {
          "from": "The account to reserve balance from",
          "value": "The amount of balance to reserve"
        }
      },
      "decimals()": {
        "return": "The number of decimal places to which StableToken is divisible."
      },
      "decreaseAllowance(address,uint256)": {
        "params": {
          "spender": "The address which is being approved to spend StableToken.",
          "value": "The decrement of the amount of StableToken approved to the spender."
        },
        "return": "True if the transaction succeeds."
      },
      "fractionMulExp(uint256,uint256,uint256,uint256,uint256,uint256)": {
        "params": {
          "_decimals": "precision",
          "aDenominator": "Denominator of first fraction",
          "aNumerator": "Numerator of first fraction",
          "bDenominator": "Denominator of exponentiated fraction",
          "bNumerator": "Numerator of exponentiated fraction",
          "exponent": "exponent to raise b to"
        },
        "return": "Numerator of the computed quantity (not reduced).Denominator of the computed quantity (not reduced)."
      },
      "getBlockNumberFromHeader(bytes)": {
        "params": {
          "header": "RLP encoded header"
        },
        "return": "Block number."
      },
      "getEpochNumber()": {
        "return": "Current epoch number."
      },
      "getEpochNumberOfBlock(uint256)": {
        "params": {
          "blockNumber": "Block number where epoch number is calculated."
        },
        "return": "Epoch number."
      },
      "getEpochSize()": {
        "return": "The current epoch size in blocks."
      },
      "getExchangeRegistryId()": {
        "details": "When this storage is uninitialized, it falls back to the default EXCHANGE_REGISTRY_ID. exchangeRegistryId was introduced after the initial release of cUSD's StableToken, so exchangeRegistryId will be uninitialized for that contract. If cUSD's StableToken exchangeRegistryId were to be correctly initialized, this function could be deprecated in favor of using exchangeRegistryId directly.",
        "return": "Registry id for the corresponding exchange."
      },
      "getInflationParameters()": {
        "return": "ratefactorupdatePeriodfactorLastUpdated"
      },
      "getParentSealBitmap(uint256)": {
        "params": {
          "blockNumber": "Block number to retrieve. Must be within 4 epochs of the current number."
        },
        "return": "Bitmap parent seal with set bits at indices corresponding to signing validators."
      },
      "getVerifiedSealBitmapFromHeader(bytes)": {
        "params": {
          "header": "RLP encoded header"
        },
        "return": "Bitmap parent seal with set bits at indices correspoinding to signing validators."
      },
      "getVersionNumber()": {
        "return": "Storage version of the contract.Major version of the contract.Minor version of the contract.Patch version of the contract."
      },
      "hashHeader(bytes)": {
        "params": {
          "header": "RLP encoded header"
        },
        "return": "Header hash."
      },
      "increaseAllowance(address,uint256)": {
        "params": {
          "spender": "The address which is being approved to spend StableToken.",
          "value": "The increment of the amount of StableToken approved to the spender."
        },
        "return": "True if the transaction succeeds."
      },
      "initialize(string,string,uint8,address,uint256,uint256,address[],uint256[],string)": {
        "params": {
          "_decimals": "Tokens are divisible to this many decimal places.",
          "_name": "The name of the stable token (English)",
          "_symbol": "A short symbol identifying the token (e.g. \"cUSD\")",
          "exchangeIdentifier": "String identifier of exchange in registry (for specific fiat pairs)",
          "inflationFactorUpdatePeriod": "How often the inflation factor is updated, in seconds.",
          "inflationRate": "Weekly inflation rate.",
          "initialBalanceAddresses": "Array of addresses with an initial balance.",
          "initialBalanceValues": "Array of balance values corresponding to initialBalanceAddresses.",
          "registryAddress": "Address of the Registry contract."
        }
      },
      "isOwner()": {
        "details": "Returns true if the caller is the current owner."
      },
      "minQuorumSize(uint256)": {
        "details": "Computed in celo-blockchain as int(math.Ceil(float64(2*valSet.Size()) / 3))"
      },
      "minQuorumSizeInCurrentSet()": {
        "return": "Byzantine quorum of validators."
      },
      "mint(address,uint256)": {
        "params": {
          "to": "The account for which to mint tokens.",
          "value": "The amount of StableToken to mint."
        }
      },
      "name()": {
        "return": "The name of the stable token."
      },
      "numberValidatorsInCurrentSet()": {
        "return": "Size of the current elected validator set."
      },
      "numberValidatorsInSet(uint256)": {
        "params": {
          "blockNumber": "Block number to retrieve the validator set from."
        },
        "return": "Size of the validator set."
      },
      "owner()": {
        "details": "Returns the address of the current owner."
      },
      "renounceOwnership()": {
        "details": "Leaves the contract without owner. It will not be possible to call `onlyOwner` functions anymore. Can only be called by the current owner.     * NOTE: Renouncing ownership will leave the contract without an owner, thereby removing any functionality that is only available to the owner."
      },
      "setInflationParameters(uint256,uint256)": {
        "params": {
          "rate": "New rate.",
          "updatePeriod": "How often inflationFactor is updated."
        }
      },
      "setRegistry(address)": {
        "params": {
          "registryAddress": "The address of a registry contract for routing to other contracts."
        }
      },
      "symbol()": {
        "return": "The symbol of the stable token."
      },
      "totalSupply()": {
        "details": "Though totalSupply_ is stored in units, this returns value.",
        "return": "The total value of StableToken in existence"
      },
      "transfer(address,uint256)": {
        "params": {
          "to": "The address to transfer to.",
          "value": "The amount to be transferred."
        }
      },
      "transferFrom(address,address,uint256)": {
        "params": {
          "from": "The address to transfer StableToken from.",
          "to": "The address to transfer StableToken to.",
          "value": "The amount of StableToken to transfer."
        },
        "return": "True if the transaction succeeds."
      },
      "transferOwnership(address)": {
        "details": "Transfers ownership of the contract to a new account (`newOwner`). Can only be called by the current owner."
      },
      "transferWithComment(address,uint256,string)": {
        "params": {
          "comment": "The transfer comment.",
          "to": "The address to transfer to.",
          "value": "The amount to be transferred."
        },
        "return": "True if the transaction succeeds."
      },
      "unitsToValue(uint256)": {
        "params": {
          "units": "The units to convert to value."
        },
        "return": "The value corresponding to `units` given the current inflation factor."
      },
      "validatorSignerAddressFromCurrentSet(uint256)": {
        "params": {
          "index": "Index of requested validator in the validator set."
        },
        "return": "Address of validator at the requested index."
      },
      "validatorSignerAddressFromSet(uint256,uint256)": {
        "params": {
          "blockNumber": "Block number to retrieve the validator set from.",
          "index": "Index of requested validator in the validator set."
        },
        "return": "Address of validator at the requested index."
      },
      "valueToUnits(uint256)": {
        "details": "We don't compute the updated inflationFactor here because we assume any function calling this will have updated the inflation factor.",
        "params": {
          "value": "The value to convert to units."
        },
        "return": "The units corresponding to `value` given the current inflation factor."
      }
    },
    "title": "An ERC20 compliant token with adjustable supply."
  },
  "userdoc": {
    "methods": {
      "allowance(address,address)": {
        "notice": "Gets the amount of owner's StableToken allowed to be spent by spender."
      },
      "approve(address,uint256)": {
        "notice": "Approve a user to transfer StableToken on behalf of another user."
      },
      "balanceOf(address)": {
        "notice": "Gets the balance of the specified address using the presently stored inflation factor."
      },
      "burn(uint256)": {
        "notice": "Burns StableToken from the balance of msg.sender."
      },
      "checkProofOfPossession(address,bytes,bytes)": {
        "notice": "Checks a BLS proof of possession."
      },
      "constructor": "Sets initialized == true on implementation contracts",
      "creditGasFees(address,address,address,address,uint256,uint256,uint256,uint256)": {
        "notice": "Alternative function to credit balance after making payments for gas in this StableToken currency."
      },
      "debitGasFees(address,uint256)": {
        "notice": "Reserve balance for making payments for gas in this StableToken currency."
      },
      "decreaseAllowance(address,uint256)": {
        "notice": "Decrease the allowance of another user."
      },
      "fractionMulExp(uint256,uint256,uint256,uint256,uint256,uint256)": {
        "notice": "calculate a * b^x for fractions a, b to `decimals` precision"
      },
      "getBlockNumberFromHeader(bytes)": {
        "notice": "Parses block number out of header."
      },
      "getEpochNumber()": {
        "notice": "Returns the epoch number at a block."
      },
      "getEpochNumberOfBlock(uint256)": {
        "notice": "Returns the epoch number at a block."
      },
      "getEpochSize()": {
        "notice": "Returns the current epoch size in blocks."
      },
      "getExchangeRegistryId()": {
        "notice": "Returns the exchange id in the registry of the corresponding fiat pair exchange."
      },
      "getInflationParameters()": {
        "notice": "gets inflation parameters."
      },
      "getParentSealBitmap(uint256)": {
        "notice": "Gets the parent seal bitmap from the header at the given block number."
      },
      "getVerifiedSealBitmapFromHeader(bytes)": {
        "notice": "Verifies the BLS signature on the header and returns the seal bitmap. The validator set used for verification is retrieved based on the parent hash field of the header.  If the parent hash is not in the blockchain, verification fails."
      },
      "getVersionNumber()": {
        "notice": "Returns the storage, major, minor, and patch version of the contract."
      },
      "hashHeader(bytes)": {
        "notice": "Computes hash of header."
      },
      "increaseAllowance(address,uint256)": {
        "notice": "Increase the allowance of another user."
      },
      "minQuorumSize(uint256)": {
        "notice": "Returns the minimum number of required signers for a given block number."
      },
      "minQuorumSizeInCurrentSet()": {
        "notice": "Computes byzantine quorum from current validator set size"
      },
      "mint(address,uint256)": {
        "notice": "Mints new StableToken and gives it to 'to'."
      },
      "numberValidatorsInCurrentSet()": {
        "notice": "Gets the size of the current elected validator set."
      },
      "numberValidatorsInSet(uint256)": {
        "notice": "Gets the size of the validator set that must sign the given block number."
      },
      "setInflationParameters(uint256,uint256)": {
        "notice": "Updates Inflation Parameters."
      },
      "setRegistry(address)": {
        "notice": "Updates the address pointing to a Registry contract."
      },
      "transfer(address,uint256)": {
        "notice": "Transfers `value` from `msg.sender` to `to`"
      },
      "transferFrom(address,address,uint256)": {
        "notice": "Transfers StableToken from one address to another on behalf of a user."
      },
      "transferWithComment(address,uint256,string)": {
        "notice": "Transfer token for a specified address"
      },
      "unitsToValue(uint256)": {
        "notice": "Returns the value of a given number of units given the current inflation factor."
      },
      "validatorSignerAddressFromCurrentSet(uint256)": {
        "notice": "Gets a validator address from the current validator set."
      },
      "validatorSignerAddressFromSet(uint256,uint256)": {
        "notice": "Gets a validator address from the validator set at the given block number."
      },
      "valueToUnits(uint256)": {
        "notice": "Returns the units for a given value given the current inflation factor."
      }
    }
  }
}