{
  "contractName": "StableTokenRegistry",
  "abi": [
    {
      "inputs": [
        {
          "internalType": "bool",
          "name": "test",
          "type": "bool"
        }
      ],
      "payable": false,
      "stateMutability": "nonpayable",
      "type": "constructor"
    },
    {
      "anonymous": false,
      "inputs": [
        {
          "indexed": true,
          "internalType": "address",
          "name": "previousOwner",
          "type": "address"
        },
        {
          "indexed": true,
          "internalType": "address",
          "name": "newOwner",
          "type": "address"
        }
      ],
      "name": "OwnershipTransferred",
      "type": "event"
    },
    {
      "constant": true,
      "inputs": [
        {
          "internalType": "uint256",
          "name": "",
          "type": "uint256"
        }
      ],
      "name": "fiatTickers",
      "outputs": [
        {
          "internalType": "bytes",
          "name": "",
          "type": "bytes"
        }
      ],
      "payable": false,
      "stateMutability": "view",
      "type": "function"
    },
    {
      "constant": true,
      "inputs": [],
      "name": "initialized",
      "outputs": [
        {
          "internalType": "bool",
          "name": "",
          "type": "bool"
        }
      ],
      "payable": false,
      "stateMutability": "view",
      "type": "function"
    },
    {
      "constant": true,
      "inputs": [],
      "name": "isOwner",
      "outputs": [
        {
          "internalType": "bool",
          "name": "",
          "type": "bool"
        }
      ],
      "payable": false,
      "stateMutability": "view",
      "type": "function"
    },
    {
      "constant": true,
      "inputs": [],
      "name": "owner",
      "outputs": [
        {
          "internalType": "address",
          "name": "",
          "type": "address"
        }
      ],
      "payable": false,
      "stateMutability": "view",
      "type": "function"
    },
    {
      "constant": false,
      "inputs": [],
      "name": "renounceOwnership",
      "outputs": [],
      "payable": false,
      "stateMutability": "nonpayable",
      "type": "function"
    },
    {
      "constant": true,
      "inputs": [
        {
          "internalType": "bytes",
          "name": "",
          "type": "bytes"
        }
      ],
      "name": "stableTokens",
      "outputs": [
        {
          "internalType": "bytes",
          "name": "",
          "type": "bytes"
        }
      ],
      "payable": false,
      "stateMutability": "view",
      "type": "function"
    },
    {
      "constant": false,
      "inputs": [
        {
          "internalType": "address",
          "name": "newOwner",
          "type": "address"
        }
      ],
      "name": "transferOwnership",
      "outputs": [],
      "payable": false,
      "stateMutability": "nonpayable",
      "type": "function"
    },
    {
      "constant": true,
      "inputs": [],
      "name": "getVersionNumber",
      "outputs": [
        {
          "internalType": "uint256",
          "name": "",
          "type": "uint256"
        },
        {
          "internalType": "uint256",
          "name": "",
          "type": "uint256"
        },
        {
          "internalType": "uint256",
          "name": "",
          "type": "uint256"
        },
        {
          "internalType": "uint256",
          "name": "",
          "type": "uint256"
        }
      ],
      "payable": false,
      "stateMutability": "pure",
      "type": "function"
    },
    {
      "constant": false,
      "inputs": [
        {
          "internalType": "bytes",
          "name": "fiatTicker",
          "type": "bytes"
        },
        {
          "internalType": "bytes",
          "name": "stableTokenContractName",
          "type": "bytes"
        }
      ],
      "name": "initialize",
      "outputs": [],
      "payable": false,
      "stateMutability": "nonpayable",
      "type": "function"
    },
    {
      "constant": true,
      "inputs": [],
      "name": "getContractInstances",
      "outputs": [
        {
          "internalType": "bytes",
          "name": "",
          "type": "bytes"
        },
        {
          "internalType": "uint256[]",
          "name": "",
          "type": "uint256[]"
        }
      ],
      "payable": false,
      "stateMutability": "view",
      "type": "function"
    },
    {
      "constant": false,
      "inputs": [
        {
          "internalType": "bytes",
          "name": "fiatTicker",
          "type": "bytes"
        },
        {
          "internalType": "uint256",
          "name": "index",
          "type": "uint256"
        }
      ],
      "name": "removeStableToken",
      "outputs": [],
      "payable": false,
      "stateMutability": "nonpayable",
      "type": "function"
    },
    {
      "constant": false,
      "inputs": [
        {
          "internalType": "bytes",
          "name": "fiatTicker",
          "type": "bytes"
        },
        {
          "internalType": "bytes",
          "name": "stableTokenContractName",
          "type": "bytes"
        }
      ],
      "name": "addNewStableToken",
      "outputs": [],
      "payable": false,
      "stateMutability": "nonpayable",
      "type": "function"
    },
    {
      "constant": true,
      "inputs": [
        {
          "internalType": "bytes",
          "name": "fiatTicker",
          "type": "bytes"
        }
      ],
      "name": "queryStableTokenContractNames",
      "outputs": [
        {
          "internalType": "bytes",
          "name": "",
          "type": "bytes"
        }
      ],
      "payable": false,
      "stateMutability": "view",
      "type": "function"
    }
  ],
  "bytecode": "0x608060405234801561001057600080fd5b50604051611f8c380380611f8c8339818101604052602081101561003357600080fd5b810190808051906020019092919050505080806100655760016000806101000a81548160ff0219169083151502179055505b50600061007661011b60201b60201c565b905080600060016101000a81548173ffffffffffffffffffffffffffffffffffffffff021916908373ffffffffffffffffffffffffffffffffffffffff1602179055508073ffffffffffffffffffffffffffffffffffffffff16600073ffffffffffffffffffffffffffffffffffffffff167f8be0079c531659141344cd1fd0a4f28419497f9722a3daafe3b4186f6b6457e060405160405180910390a35050610123565b600033905090565b611e5a806101326000396000f3fe608060405234801561001057600080fd5b50600436106100cf5760003560e01c80637ea59fe71161008c57806395c6f46c1161006657806395c6f46c1461050d578063c282f5da14610641578063c8b6237c146106e8578063f2fde38b1461081c576100cf565b80637ea59fe71461034f5780638da5cb5b146104a15780638f32d59b146104eb576100cf565b8063158ef93e146100d45780631af19f77146100f65780634fbf4b4d146101c457806354255be014610247578063673b73a11461027a578063715018a614610345575b600080fd5b6100dc610860565b604051808215151515815260200191505060405180910390f35b6101c26004803603604081101561010c57600080fd5b810190808035906020019064010000000081111561012957600080fd5b82018360208201111561013b57600080fd5b8035906020019184600183028401116401000000008311171561015d57600080fd5b90919293919293908035906020019064010000000081111561017e57600080fd5b82018360208201111561019057600080fd5b803590602001918460018302840111640100000000831117156101b257600080fd5b9091929391929390505050610872565b005b610245600480360360408110156101da57600080fd5b81019080803590602001906401000000008111156101f757600080fd5b82018360208201111561020957600080fd5b8035906020019184600183028401116401000000008311171561022b57600080fd5b909192939192939080359060200190929190505050610b29565b005b61024f610e86565b6040518085815260200184815260200183815260200182815260200194505050505060405180910390f35b610282610eac565b604051808060200180602001838103835285818151815260200191508051906020019080838360005b838110156102c65780820151818401526020810190506102ab565b50505050905090810190601f1680156102f35780820380516001836020036101000a031916815260200191505b50838103825284818151815260200191508051906020019060200280838360005b8381101561032f578082015181840152602081019050610314565b5050505090500194505050505060405180910390f35b61034d6111a9565b005b61049f6004803603604081101561036557600080fd5b810190808035906020019064010000000081111561038257600080fd5b82018360208201111561039457600080fd5b803590602001918460018302840111640100000000831117156103b657600080fd5b91908080601f016020809104026020016040519081016040528093929190818152602001838380828437600081840152601f19601f8201169050808301925050505050505091929192908035906020019064010000000081111561041957600080fd5b82018360208201111561042b57600080fd5b8035906020019184600183028401116401000000008311171561044d57600080fd5b91908080601f016020809104026020016040519081016040528093929190818152602001838380828437600081840152601f19601f8201169050808301925050505050505091929192905050506112e3565b005b6104a96115c7565b604051808273ffffffffffffffffffffffffffffffffffffffff1673ffffffffffffffffffffffffffffffffffffffff16815260200191505060405180910390f35b6104f36115f0565b604051808215151515815260200191505060405180910390f35b6105c66004803603602081101561052357600080fd5b810190808035906020019064010000000081111561054057600080fd5b82018360208201111561055257600080fd5b8035906020019184600183028401116401000000008311171561057457600080fd5b91908080601f016020809104026020016040519081016040528093929190818152602001838380828437600081840152601f19601f82011690508083019250505050505050919291929050505061164e565b6040518080602001828103825283818151815260200191508051906020019080838360005b838110156106065780820151818401526020810190506105eb565b50505050905090810190601f1680156106335780820380516001836020036101000a031916815260200191505b509250505060405180910390f35b61066d6004803603602081101561065757600080fd5b8101908080359060200190929190505050611759565b6040518080602001828103825283818151815260200191508051906020019080838360005b838110156106ad578082015181840152602081019050610692565b50505050905090810190601f1680156106da5780820380516001836020036101000a031916815260200191505b509250505060405180910390f35b6107a1600480360360208110156106fe57600080fd5b810190808035906020019064010000000081111561071b57600080fd5b82018360208201111561072d57600080fd5b8035906020019184600183028401116401000000008311171561074f57600080fd5b91908080601f016020809104026020016040519081016040528093929190818152602001838380828437600081840152601f19601f820116905080830192505050505050509192919290505050611812565b6040518080602001828103825283818151815260200191508051906020019080838360005b838110156107e15780820151818401526020810190506107c6565b50505050905090810190601f16801561080e5780820380516001836020036101000a031916815260200191505b509250505060405180910390f35b61085e6004803603602081101561083257600080fd5b81019080803573ffffffffffffffffffffffffffffffffffffffff1690602001909291905050506118d8565b005b6000809054906101000a900460ff1681565b6000809054906101000a900460ff16156108f4576040517f08c379a000000000000000000000000000000000000000000000000000000000815260040180806020018281038252601c8152602001807f636f6e747261637420616c726561647920696e697469616c697a65640000000081525060200191505060405180910390fd5b60016000806101000a81548160ff0219169083151502179055506109173361195e565b61098b6040518060400160405280600381526020017f55534400000000000000000000000000000000000000000000000000000000008152506040518060400160405280600b81526020017f537461626c65546f6b656e0000000000000000000000000000000000000000008152506112e3565b6109ff6040518060400160405280600381526020017f45555200000000000000000000000000000000000000000000000000000000008152506040518060400160405280600e81526020017f537461626c65546f6b656e4555520000000000000000000000000000000000008152506112e3565b610a736040518060400160405280600381526020017f42524c00000000000000000000000000000000000000000000000000000000008152506040518060400160405280600e81526020017f537461626c65546f6b656e42524c0000000000000000000000000000000000008152506112e3565b60008484905014158015610a8b575060008282905014155b15610b2357610b2284848080601f016020809104026020016040519081016040528093929190818152602001838380828437600081840152601f19601f8201169050808301925050505050505083838080601f016020809104026020016040519081016040528093929190818152602001838380828437600081840152601f19601f820116905080830192505050505050506112e3565b5b50505050565b610b316115f0565b610ba3576040517f08c379a00000000000000000000000000000000000000000000000000000000081526004018080602001828103825260208152602001807f4f776e61626c653a2063616c6c6572206973206e6f7420746865206f776e657281525060200191505060405180910390fd5b6001838360405180838380828437808301925050509250505090815260200160405180910390206000610bd69190611bb6565b60006002805490509050808210610c55576040517f08c379a00000000000000000000000000000000000000000000000000000000081526004018080602001828103825260108152602001807f496e64657820697320696e76616c69640000000000000000000000000000000081525060200191505060405180910390fd5b60008090505b84849050811015610dde57600060f81b858583818110610c7757fe5b9050013560f81c60f81b7effffffffffffffffffffffffffffffffffffffffffffffffffffffffffffff191614610dd15760028381548110610cb557fe5b9060005260206000200181815460018160011615610100020316600290048110610cdb57fe5b815460011615610cfa5790600052602060002090602091828204019190065b9054901a7f0100000000000000000000000000000000000000000000000000000000000000027effffffffffffffffffffffffffffffffffffffffffffffffffffffffffffff1916858583818110610d4e57fe5b9050013560f81c60f81b7effffffffffffffffffffffffffffffffffffffffffffffffffffffffffffff191614610dd0576040517f08c379a000000000000000000000000000000000000000000000000000000000815260040180806020018281038252602c815260200180611dfa602c913960400191505060405180910390fd5b5b8080600101915050610c5b565b506000610df5600183611aa490919063ffffffff16565b9050808314610e4d5760028181548110610e0b57fe5b9060005260206000200160028481548110610e2257fe5b906000526020600020019080546001816001161561010002031660029004610e4b929190611bfe565b505b60028181548110610e5a57fe5b906000526020600020016000610e709190611bb6565b80600281610e7e9190611c85565b505050505050565b600080600080600180600080839350829250819150809050935093509350935090919293565b606080600080905060008090505b600280549050811015610f7457600160028281548110610ed657fe5b906000526020600020016040518082805460018160011615610100020316600290048015610f3b5780601f10610f19576101008083540402835291820191610f3b565b820191906000526020600020905b815481529060010190602001808311610f27575b50509150509081526020016040518091039020805460018160011615610100020316600290049050820191508080600101915050610eba565b50600060028054905090506060826040519080825280601f01601f191660200182016040528015610fb45781602001600182028038833980820191505090505b5090506000809050606083604051908082528060200260200182016040528015610fed5781602001602082028038833980820191505090505b50905060008090505b8481101561119957600060016002838154811061100f57fe5b9060005260206000200160405180828054600181600116156101000203166002900480156110745780601f10611052576101008083540402835291820191611074565b820191906000526020600020905b815481529060010190602001808311611060575b505091505090815260200160405180910390209050808054600181600116156101000203166002900490508383815181106110ab57fe5b60200260200101818152505060008090505b8383815181106110c957fe5b602002602001015181101561118a5781818154600181600116156101000203166002900481106110f557fe5b8154600116156111145790600052602060002090602091828204019190065b9054901a7f01000000000000000000000000000000000000000000000000000000000000000286868151811061114657fe5b60200101907effffffffffffffffffffffffffffffffffffffffffffffffffffffffffffff1916908160001a905350848060010195505080806001019150506110bd565b50508080600101915050610ff6565b5082819650965050505050509091565b6111b16115f0565b611223576040517f08c379a00000000000000000000000000000000000000000000000000000000081526004018080602001828103825260208152602001807f4f776e61626c653a2063616c6c6572206973206e6f7420746865206f776e657281525060200191505060405180910390fd5b600073ffffffffffffffffffffffffffffffffffffffff16600060019054906101000a900473ffffffffffffffffffffffffffffffffffffffff1673ffffffffffffffffffffffffffffffffffffffff167f8be0079c531659141344cd1fd0a4f28419497f9722a3daafe3b4186f6b6457e060405160405180910390a360008060016101000a81548173ffffffffffffffffffffffffffffffffffffffff021916908373ffffffffffffffffffffffffffffffffffffffff160217905550565b6112eb6115f0565b61135d576040517f08c379a00000000000000000000000000000000000000000000000000000000081526004018080602001828103825260208152602001807f4f776e61626c653a2063616c6c6572206973206e6f7420746865206f776e657281525060200191505060405180910390fd5b6000825114156113b8576040517f08c379a0000000000000000000000000000000000000000000000000000000008152600401808060200182810382526022815260200180611da96022913960400191505060405180910390fd5b600081511415611413576040517f08c379a000000000000000000000000000000000000000000000000000000000815260040180806020018281038252602f815260200180611dcb602f913960400191505060405180910390fd5b60006001836040518082805190602001908083835b6020831061144b5780518252602082019150602081019050602083039250611428565b6001836020036101000a038019825116818451168082178552505050505050905001915050908152602001604051809103902080546001816001161561010002031660029004905014611506576040517f08c379a000000000000000000000000000000000000000000000000000000000815260040180806020018281038252601c8152602001807f5468697320726567697374727920616c7265616479206578697374730000000081525060200191505060405180910390fd5b806001836040518082805190602001908083835b6020831061153d578051825260208201915060208101905060208303925061151a565b6001836020036101000a03801982511681845116808217855250505050505090500191505090815260200160405180910390209080519060200190611583929190611cb1565b5060028290806001815401808255809150509060018203906000526020600020016000909192909190915090805190602001906115c1929190611cb1565b50505050565b60008060019054906101000a900473ffffffffffffffffffffffffffffffffffffffff16905090565b60008060019054906101000a900473ffffffffffffffffffffffffffffffffffffffff1673ffffffffffffffffffffffffffffffffffffffff16611632611aee565b73ffffffffffffffffffffffffffffffffffffffff1614905090565b60606001826040518082805190602001908083835b602083106116865780518252602082019150602081019050602083039250611663565b6001836020036101000a03801982511681845116808217855250505050505090500191505090815260200160405180910390208054600181600116156101000203166002900480601f01602080910402602001604051908101604052809291908181526020018280546001816001161561010002031660029004801561174d5780601f106117225761010080835404028352916020019161174d565b820191906000526020600020905b81548152906001019060200180831161173057829003601f168201915b50505050509050919050565b6002818154811061176657fe5b906000526020600020016000915090508054600181600116156101000203166002900480601f01602080910402602001604051908101604052809291908181526020018280546001816001161561010002031660029004801561180a5780601f106117df5761010080835404028352916020019161180a565b820191906000526020600020905b8154815290600101906020018083116117ed57829003601f168201915b505050505081565b6001818051602081018201805184825260208301602085012081835280955050505050506000915090508054600181600116156101000203166002900480601f0160208091040260200160405190810160405280929190818152602001828054600181600116156101000203166002900480156118d05780601f106118a5576101008083540402835291602001916118d0565b820191906000526020600020905b8154815290600101906020018083116118b357829003601f168201915b505050505081565b6118e06115f0565b611952576040517f08c379a00000000000000000000000000000000000000000000000000000000081526004018080602001828103825260208152602001807f4f776e61626c653a2063616c6c6572206973206e6f7420746865206f776e657281525060200191505060405180910390fd5b61195b8161195e565b50565b600073ffffffffffffffffffffffffffffffffffffffff168173ffffffffffffffffffffffffffffffffffffffff1614156119e4576040517f08c379a0000000000000000000000000000000000000000000000000000000008152600401808060200182810382526026815260200180611d836026913960400191505060405180910390fd5b8073ffffffffffffffffffffffffffffffffffffffff16600060019054906101000a900473ffffffffffffffffffffffffffffffffffffffff1673ffffffffffffffffffffffffffffffffffffffff167f8be0079c531659141344cd1fd0a4f28419497f9722a3daafe3b4186f6b6457e060405160405180910390a380600060016101000a81548173ffffffffffffffffffffffffffffffffffffffff021916908373ffffffffffffffffffffffffffffffffffffffff16021790555050565b6000611ae683836040518060400160405280601e81526020017f536166654d6174683a207375627472616374696f6e206f766572666c6f770000815250611af6565b905092915050565b600033905090565b6000838311158290611ba3576040517f08c379a00000000000000000000000000000000000000000000000000000000081526004018080602001828103825283818151815260200191508051906020019080838360005b83811015611b68578082015181840152602081019050611b4d565b50505050905090810190601f168015611b955780820380516001836020036101000a031916815260200191505b509250505060405180910390fd5b5060008385039050809150509392505050565b50805460018160011615610100020316600290046000825580601f10611bdc5750611bfb565b601f016020900490600052602060002090810190611bfa9190611d31565b5b50565b828054600181600116156101000203166002900490600052602060002090601f016020900481019282601f10611c375780548555611c74565b82800160010185558215611c7457600052602060002091601f016020900482015b82811115611c73578254825591600101919060010190611c58565b5b509050611c819190611d31565b5090565b815481835581811115611cac57818360005260206000209182019101611cab9190611d56565b5b505050565b828054600181600116156101000203166002900490600052602060002090601f016020900481019282601f10611cf257805160ff1916838001178555611d20565b82800160010185558215611d20579182015b82811115611d1f578251825591602001919060010190611d04565b5b509050611d2d9190611d31565b5090565b611d5391905b80821115611d4f576000816000905550600101611d37565b5090565b90565b611d7f91905b80821115611d7b5760008181611d729190611bb6565b50600101611d5c565b5090565b9056fe4f776e61626c653a206e6577206f776e657220697320746865207a65726f2061646472657373666961745469636b65722063616e7420626520616e20656d70747920737472696e67737461626c65546f6b656e436f6e74726163744e616d652063616e7420626520616e20656d70747920737472696e67736f7572636520646f65736e2774206d6174636820746865206578697374696e6720666961745469636b6572a265627a7a723158208a2e1a72264eb964c21f2f4db42bf3139a493e199b3a64ade2ad979c973eb75464736f6c634300050d0032",
  "source": "pragma solidity ^0.5.13;\n\nimport \"openzeppelin-solidity/contracts/math/SafeMath.sol\";\nimport \"./common/Initializable.sol\";\nimport \"openzeppelin-solidity/contracts/ownership/Ownable.sol\";\n\n/**\n * @title contract that lists what stable coins are deployed as part of Celo's Stability protocol.\n */\ncontract StableTokenRegistry is Initializable, Ownable {\n    using SafeMath for uint256;\n    mapping(bytes => bytes) public stableTokens;\n    bytes[] public fiatTickers;\n\n    /**\n     * @notice Returns the storage, major, minor, and patch version of the contract.\n     * @return Storage version of the contract.\n     * @return Major version of the contract.\n     * @return Minor version of the contract.\n     * @return Patch version of the contract.\n     */\n    function getVersionNumber()\n        external\n        pure\n        returns (\n            uint256,\n            uint256,\n            uint256,\n            uint256\n        )\n    {\n        return (1, 1, 0, 0);\n    }\n\n    /**\n     * @notice Sets initialized == true on implementation contracts\n     * @param test Set to true to skip implementation initialization\n     */\n    constructor(bool test) public Initializable(test) {}\n\n    /**\n     * @notice Used in place of the constructor to allow the contract to be upgradable via proxy.\n     * @param fiatTicker fiat currency issued.\n     * @param stableTokenContractName stable token smart contract name.\n     */\n    function initialize(bytes calldata fiatTicker, bytes calldata stableTokenContractName) external initializer {\n        _transferOwnership(msg.sender);\n        addNewStableToken(bytes(\"USD\"), bytes(\"StableToken\"));\n        addNewStableToken(bytes(\"EUR\"), bytes(\"StableTokenEUR\"));\n        addNewStableToken(bytes(\"BRL\"), bytes(\"StableTokenBRL\"));\n        if (fiatTicker.length != 0 && stableTokenContractName.length != 0) {\n            addNewStableToken(fiatTicker, stableTokenContractName);\n        }\n    }\n\n    /**\n     * @notice Returns all the contract instances created.\n     * @return Collection of stable token contracts.\n     * @return Lengths of stable token contracts.\n     */\n    function getContractInstances() external view returns (bytes memory, uint256[] memory) {\n        uint256 totalLength = 0;\n        for (uint256 i = 0; i < fiatTickers.length; i++) {\n            totalLength += stableTokens[fiatTickers[i]].length;\n        }\n        uint256 numOfContracts = fiatTickers.length;\n        bytes memory concatenated = new bytes(totalLength);\n        uint256 lastIndex = 0;\n        uint256[] memory lengths = new uint256[](numOfContracts);\n        for (uint256 i = 0; i < numOfContracts; i++) {\n            bytes storage contractName = stableTokens[fiatTickers[i]];\n            lengths[i] = contractName.length;\n            for (uint256 j = 0; j < lengths[i]; j++) {\n                concatenated[lastIndex] = contractName[j];\n                lastIndex++;\n            }\n        }\n        return (concatenated, lengths);\n    }\n\n    /**\n     * @notice Removes unwamted token instances.\n     * @param fiatTicker The currency that is no longer supported.\n     * @param index The index in fiatTickers of fiatTicker.\n     */\n    function removeStableToken(bytes calldata fiatTicker, uint256 index) external onlyOwner {\n        delete stableTokens[fiatTicker];\n        uint256 numFiats = fiatTickers.length;\n        require(index < numFiats, \"Index is invalid\");\n        for (uint256 i = 0; i < fiatTicker.length; i++) {\n            if (fiatTicker[i] != 0) {\n                require(fiatTicker[i] == fiatTickers[index][i], \"source doesn't match the existing fiatTicker\");\n            }\n        }\n        uint256 newNumFiats = numFiats.sub(1);\n\n        if (index != newNumFiats) {\n            fiatTickers[index] = fiatTickers[newNumFiats];\n        }\n        delete fiatTickers[newNumFiats];\n        fiatTickers.length = newNumFiats;\n    }\n\n    /**\n     * @notice Adds new Fiat Ticker and Stable Token contract to the registry.\n     * @param fiatTicker The currency we are trying to add in the registry.\n     * @param stableTokenContractName The contract we are trying to add in the registry.\n     */\n    function addNewStableToken(bytes memory fiatTicker, bytes memory stableTokenContractName) public onlyOwner {\n        require(fiatTicker.length != 0, \"fiatTicker cant be an empty string\");\n        require(stableTokenContractName.length != 0, \"stableTokenContractName cant be an empty string\");\n        require(stableTokens[fiatTicker].length == 0, \"This registry already exists\");\n        stableTokens[fiatTicker] = stableTokenContractName;\n        fiatTickers.push(fiatTicker);\n    }\n\n    /**\n     * @notice Queries a corresponding StableToken contract name based on fiat ticker.\n     * @param fiatTicker Type of currency to query corresponding contract.\n     */\n    function queryStableTokenContractNames(bytes memory fiatTicker) public view returns (bytes memory) {\n        return stableTokens[fiatTicker];\n    }\n}\n",
  "compiler": {
    "name": "solc",
    "version": "0.5.13+commit.5b0b510c.Emscripten.clang"
  },
  "schemaVersion": "3.4.13",
  "updatedAt": "2023-11-21T17:20:51.973Z",
  "devdoc": {
    "methods": {
      "addNewStableToken(bytes,bytes)": {
        "params": {
          "fiatTicker": "The currency we are trying to add in the registry.",
          "stableTokenContractName": "The contract we are trying to add in the registry."
        }
      },
      "constructor": {
        "params": {
          "test": "Set to true to skip implementation initialization"
        }
      },
      "getContractInstances()": {
        "return": "Collection of stable token contracts.Lengths of stable token contracts."
      },
      "getVersionNumber()": {
        "return": "Storage version of the contract.Major version of the contract.Minor version of the contract.Patch version of the contract."
      },
      "initialize(bytes,bytes)": {
        "params": {
          "fiatTicker": "fiat currency issued.",
          "stableTokenContractName": "stable token smart contract name."
        }
      },
      "isOwner()": {
        "details": "Returns true if the caller is the current owner."
      },
      "owner()": {
        "details": "Returns the address of the current owner."
      },
      "queryStableTokenContractNames(bytes)": {
        "params": {
          "fiatTicker": "Type of currency to query corresponding contract."
        }
      },
      "removeStableToken(bytes,uint256)": {
        "params": {
          "fiatTicker": "The currency that is no longer supported.",
          "index": "The index in fiatTickers of fiatTicker."
        }
      },
      "renounceOwnership()": {
        "details": "Leaves the contract without owner. It will not be possible to call `onlyOwner` functions anymore. Can only be called by the current owner.     * NOTE: Renouncing ownership will leave the contract without an owner, thereby removing any functionality that is only available to the owner."
      },
      "transferOwnership(address)": {
        "details": "Transfers ownership of the contract to a new account (`newOwner`). Can only be called by the current owner."
      }
    },
    "title": "contract that lists what stable coins are deployed as part of Celo's Stability protocol."
  },
  "userdoc": {
    "methods": {
      "addNewStableToken(bytes,bytes)": {
        "notice": "Adds new Fiat Ticker and Stable Token contract to the registry."
      },
      "constructor": "Sets initialized == true on implementation contracts",
      "getContractInstances()": {
        "notice": "Returns all the contract instances created."
      },
      "getVersionNumber()": {
        "notice": "Returns the storage, major, minor, and patch version of the contract."
      },
      "initialize(bytes,bytes)": {
        "notice": "Used in place of the constructor to allow the contract to be upgradable via proxy."
      },
      "queryStableTokenContractNames(bytes)": {
        "notice": "Queries a corresponding StableToken contract name based on fiat ticker."
      },
      "removeStableToken(bytes,uint256)": {
        "notice": "Removes unwamted token instances."
      }
    }
  }
}