{
  "contractName": "UsingRegistry",
  "abi": [
    {
      "anonymous": false,
      "inputs": [
        {
          "indexed": true,
          "internalType": "address",
          "name": "previousOwner",
          "type": "address"
        },
        {
          "indexed": true,
          "internalType": "address",
          "name": "newOwner",
          "type": "address"
        }
      ],
      "name": "OwnershipTransferred",
      "type": "event"
    },
    {
      "anonymous": false,
      "inputs": [
        {
          "indexed": true,
          "internalType": "address",
          "name": "registryAddress",
          "type": "address"
        }
      ],
      "name": "RegistrySet",
      "type": "event"
    },
    {
      "constant": true,
      "inputs": [],
      "name": "isOwner",
      "outputs": [
        {
          "internalType": "bool",
          "name": "",
          "type": "bool"
        }
      ],
      "payable": false,
      "stateMutability": "view",
      "type": "function"
    },
    {
      "constant": true,
      "inputs": [],
      "name": "owner",
      "outputs": [
        {
          "internalType": "address",
          "name": "",
          "type": "address"
        }
      ],
      "payable": false,
      "stateMutability": "view",
      "type": "function"
    },
    {
      "constant": true,
      "inputs": [],
      "name": "registry",
      "outputs": [
        {
          "internalType": "contract IRegistry",
          "name": "",
          "type": "address"
        }
      ],
      "payable": false,
      "stateMutability": "view",
      "type": "function"
    },
    {
      "constant": false,
      "inputs": [],
      "name": "renounceOwnership",
      "outputs": [],
      "payable": false,
      "stateMutability": "nonpayable",
      "type": "function"
    },
    {
      "constant": false,
      "inputs": [
        {
          "internalType": "address",
          "name": "newOwner",
          "type": "address"
        }
      ],
      "name": "transferOwnership",
      "outputs": [],
      "payable": false,
      "stateMutability": "nonpayable",
      "type": "function"
    },
    {
      "constant": false,
      "inputs": [
        {
          "internalType": "address",
          "name": "registryAddress",
          "type": "address"
        }
      ],
      "name": "setRegistry",
      "outputs": [],
      "payable": false,
      "stateMutability": "nonpayable",
      "type": "function"
    }
  ],
  "bytecode": "0x608060405260006100146100b760201b60201c565b9050806000806101000a81548173ffffffffffffffffffffffffffffffffffffffff021916908373ffffffffffffffffffffffffffffffffffffffff1602179055508073ffffffffffffffffffffffffffffffffffffffff16600073ffffffffffffffffffffffffffffffffffffffff167f8be0079c531659141344cd1fd0a4f28419497f9722a3daafe3b4186f6b6457e060405160405180910390a3506100bf565b600033905090565b610766806100ce6000396000f3fe608060405234801561001057600080fd5b50600436106100625760003560e01c8063715018a6146100675780637b103999146100715780638da5cb5b146100bb5780638f32d59b14610105578063a91ee0dc14610127578063f2fde38b1461016b575b600080fd5b61006f6101af565b005b6100796102e8565b604051808273ffffffffffffffffffffffffffffffffffffffff1673ffffffffffffffffffffffffffffffffffffffff16815260200191505060405180910390f35b6100c361030e565b604051808273ffffffffffffffffffffffffffffffffffffffff1673ffffffffffffffffffffffffffffffffffffffff16815260200191505060405180910390f35b61010d610337565b604051808215151515815260200191505060405180910390f35b6101696004803603602081101561013d57600080fd5b81019080803573ffffffffffffffffffffffffffffffffffffffff169060200190929190505050610395565b005b6101ad6004803603602081101561018157600080fd5b81019080803573ffffffffffffffffffffffffffffffffffffffff169060200190929190505050610539565b005b6101b7610337565b610229576040517f08c379a00000000000000000000000000000000000000000000000000000000081526004018080602001828103825260208152602001807f4f776e61626c653a2063616c6c6572206973206e6f7420746865206f776e657281525060200191505060405180910390fd5b600073ffffffffffffffffffffffffffffffffffffffff166000809054906101000a900473ffffffffffffffffffffffffffffffffffffffff1673ffffffffffffffffffffffffffffffffffffffff167f8be0079c531659141344cd1fd0a4f28419497f9722a3daafe3b4186f6b6457e060405160405180910390a360008060006101000a81548173ffffffffffffffffffffffffffffffffffffffff021916908373ffffffffffffffffffffffffffffffffffffffff160217905550565b600160009054906101000a900473ffffffffffffffffffffffffffffffffffffffff1681565b60008060009054906101000a900473ffffffffffffffffffffffffffffffffffffffff16905090565b60008060009054906101000a900473ffffffffffffffffffffffffffffffffffffffff1673ffffffffffffffffffffffffffffffffffffffff166103796105bf565b73ffffffffffffffffffffffffffffffffffffffff1614905090565b61039d610337565b61040f576040517f08c379a00000000000000000000000000000000000000000000000000000000081526004018080602001828103825260208152602001807f4f776e61626c653a2063616c6c6572206973206e6f7420746865206f776e657281525060200191505060405180910390fd5b600073ffffffffffffffffffffffffffffffffffffffff168173ffffffffffffffffffffffffffffffffffffffff1614156104b2576040517f08c379a00000000000000000000000000000000000000000000000000000000081526004018080602001828103825260208152602001807f43616e6e6f7420726567697374657220746865206e756c6c206164647265737381525060200191505060405180910390fd5b80600160006101000a81548173ffffffffffffffffffffffffffffffffffffffff021916908373ffffffffffffffffffffffffffffffffffffffff1602179055508073ffffffffffffffffffffffffffffffffffffffff167f27fe5f0c1c3b1ed427cc63d0f05759ffdecf9aec9e18d31ef366fc8a6cb5dc3b60405160405180910390a250565b610541610337565b6105b3576040517f08c379a00000000000000000000000000000000000000000000000000000000081526004018080602001828103825260208152602001807f4f776e61626c653a2063616c6c6572206973206e6f7420746865206f776e657281525060200191505060405180910390fd5b6105bc816105c7565b50565b600033905090565b600073ffffffffffffffffffffffffffffffffffffffff168173ffffffffffffffffffffffffffffffffffffffff16141561064d576040517f08c379a000000000000000000000000000000000000000000000000000000000815260040180806020018281038252602681526020018061070c6026913960400191505060405180910390fd5b8073ffffffffffffffffffffffffffffffffffffffff166000809054906101000a900473ffffffffffffffffffffffffffffffffffffffff1673ffffffffffffffffffffffffffffffffffffffff167f8be0079c531659141344cd1fd0a4f28419497f9722a3daafe3b4186f6b6457e060405160405180910390a3806000806101000a81548173ffffffffffffffffffffffffffffffffffffffff021916908373ffffffffffffffffffffffffffffffffffffffff1602179055505056fe4f776e61626c653a206e6577206f776e657220697320746865207a65726f2061646472657373a265627a7a72315820cd4a35155f6c2831705ab58b0f1f7395b6a31d4cec626df9bc0c27504f9a2cc664736f6c634300050d0032",
  "source": "pragma solidity ^0.5.13;\n\nimport \"openzeppelin-solidity/contracts/ownership/Ownable.sol\";\nimport \"openzeppelin-solidity/contracts/token/ERC20/IERC20.sol\";\n\nimport \"./interfaces/IFreezer.sol\";\nimport \"./interfaces/IRegistry.sol\";\n\nimport \"../interfaces/IExchange.sol\";\nimport \"../interfaces/IReserve.sol\";\nimport \"../interfaces/ISortedOracles.sol\";\nimport \"../interfaces/IStableToken.sol\";\n\ncontract UsingRegistry is Ownable {\n    event RegistrySet(address indexed registryAddress);\n\n    // solhint-disable state-visibility\n    bytes32 constant ACCOUNTS_REGISTRY_ID = keccak256(abi.encodePacked(\"Accounts\"));\n    bytes32 constant ATTESTATIONS_REGISTRY_ID = keccak256(abi.encodePacked(\"Attestations\"));\n    bytes32 constant DOWNTIME_SLASHER_REGISTRY_ID = keccak256(abi.encodePacked(\"DowntimeSlasher\"));\n    bytes32 constant DOUBLE_SIGNING_SLASHER_REGISTRY_ID = keccak256(abi.encodePacked(\"DoubleSigningSlasher\"));\n    bytes32 constant ELECTION_REGISTRY_ID = keccak256(abi.encodePacked(\"Election\"));\n    bytes32 constant EXCHANGE_REGISTRY_ID = keccak256(abi.encodePacked(\"Exchange\"));\n    bytes32 constant FEE_CURRENCY_WHITELIST_REGISTRY_ID = keccak256(abi.encodePacked(\"FeeCurrencyWhitelist\"));\n    bytes32 constant FREEZER_REGISTRY_ID = keccak256(abi.encodePacked(\"Freezer\"));\n    bytes32 constant GOLD_TOKEN_REGISTRY_ID = keccak256(abi.encodePacked(\"GoldToken\"));\n    bytes32 constant GOVERNANCE_REGISTRY_ID = keccak256(abi.encodePacked(\"Governance\"));\n    bytes32 constant GOVERNANCE_SLASHER_REGISTRY_ID = keccak256(abi.encodePacked(\"GovernanceSlasher\"));\n    bytes32 constant LOCKED_GOLD_REGISTRY_ID = keccak256(abi.encodePacked(\"LockedGold\"));\n    bytes32 constant RESERVE_REGISTRY_ID = keccak256(abi.encodePacked(\"Reserve\"));\n    bytes32 constant RANDOM_REGISTRY_ID = keccak256(abi.encodePacked(\"Random\"));\n    bytes32 constant SORTED_ORACLES_REGISTRY_ID = keccak256(abi.encodePacked(\"SortedOracles\"));\n    bytes32 constant STABLE_TOKEN_REGISTRY_ID = keccak256(abi.encodePacked(\"StableToken\"));\n    bytes32 constant VALIDATORS_REGISTRY_ID = keccak256(abi.encodePacked(\"Validators\"));\n    // solhint-enable state-visibility\n\n    IRegistry public registry;\n\n    modifier onlyRegisteredContract(bytes32 identifierHash) {\n        require(registry.getAddressForOrDie(identifierHash) == msg.sender, \"only registered contract\");\n        _;\n    }\n\n    modifier onlyRegisteredContracts(bytes32[] memory identifierHashes) {\n        require(registry.isOneOf(identifierHashes, msg.sender), \"only registered contracts\");\n        _;\n    }\n\n    /**\n     * @notice Updates the address pointing to a Registry contract.\n     * @param registryAddress The address of a registry contract for routing to other contracts.\n     */\n    function setRegistry(address registryAddress) public onlyOwner {\n        require(registryAddress != address(0), \"Cannot register the null address\");\n        registry = IRegistry(registryAddress);\n        emit RegistrySet(registryAddress);\n    }\n\n    function getExchange() internal view returns (IExchange) {\n        return IExchange(registry.getAddressForOrDie(EXCHANGE_REGISTRY_ID));\n    }\n\n    function getFreezer() internal view returns (IFreezer) {\n        return IFreezer(registry.getAddressForOrDie(FREEZER_REGISTRY_ID));\n    }\n\n    function getGoldToken() internal view returns (IERC20) {\n        return IERC20(registry.getAddressForOrDie(GOLD_TOKEN_REGISTRY_ID));\n    }\n\n    function getReserve() internal view returns (IReserve) {\n        return IReserve(registry.getAddressForOrDie(RESERVE_REGISTRY_ID));\n    }\n\n    function getSortedOracles() internal view returns (ISortedOracles) {\n        return ISortedOracles(registry.getAddressForOrDie(SORTED_ORACLES_REGISTRY_ID));\n    }\n\n    function getStableToken() internal view returns (IStableToken) {\n        return IStableToken(registry.getAddressForOrDie(STABLE_TOKEN_REGISTRY_ID));\n    }\n}\n",
  "compiler": {
    "name": "solc",
    "version": "0.5.13+commit.5b0b510c.Emscripten.clang"
  },
  "schemaVersion": "3.4.13",
  "updatedAt": "2023-11-21T17:20:52.001Z",
  "devdoc": {
    "methods": {
      "isOwner()": {
        "details": "Returns true if the caller is the current owner."
      },
      "owner()": {
        "details": "Returns the address of the current owner."
      },
      "renounceOwnership()": {
        "details": "Leaves the contract without owner. It will not be possible to call `onlyOwner` functions anymore. Can only be called by the current owner.     * NOTE: Renouncing ownership will leave the contract without an owner, thereby removing any functionality that is only available to the owner."
      },
      "setRegistry(address)": {
        "params": {
          "registryAddress": "The address of a registry contract for routing to other contracts."
        }
      },
      "transferOwnership(address)": {
        "details": "Transfers ownership of the contract to a new account (`newOwner`). Can only be called by the current owner."
      }
    }
  },
  "userdoc": {
    "methods": {
      "setRegistry(address)": {
        "notice": "Updates the address pointing to a Registry contract."
      }
    }
  }
}